{
  "_format": "hh-sol-artifact-1",
  "contractName": "FtsoManager",
  "sourceName": "contracts/ftso/implementation/FtsoManager.sol",
  "abi": [
    {
      "inputs": [
        {
          "internalType": "address",
          "name": "_governance",
          "type": "address"
        },
        {
          "internalType": "contract FlareDaemon",
          "name": "_flareDaemon",
          "type": "address"
        },
        {
          "internalType": "contract IIPriceSubmitter",
          "name": "_priceSubmitter",
          "type": "address"
        },
        {
          "internalType": "uint256",
          "name": "_firstEpochStartTs",
          "type": "uint256"
        },
        {
          "internalType": "uint256",
          "name": "_priceEpochDurationSeconds",
          "type": "uint256"
        },
        {
          "internalType": "uint256",
          "name": "_revealEpochDurationSeconds",
          "type": "uint256"
        },
        {
          "internalType": "uint256",
          "name": "_rewardEpochsStartTs",
          "type": "uint256"
        },
        {
          "internalType": "uint256",
          "name": "_rewardEpochDurationSeconds",
          "type": "uint256"
        },
        {
          "internalType": "uint256",
          "name": "_votePowerIntervalFraction",
          "type": "uint256"
        }
      ],
      "stateMutability": "nonpayable",
      "type": "constructor"
    },
    {
      "anonymous": false,
      "inputs": [
        {
          "indexed": false,
          "internalType": "uint256",
          "name": "blockNumber",
          "type": "uint256"
        }
      ],
      "name": "CleanupBlockNumberManagerFailedForBlock",
      "type": "event"
    },
    {
      "anonymous": false,
      "inputs": [],
      "name": "CleanupBlockNumberManagerUnset",
      "type": "event"
    },
    {
      "anonymous": false,
      "inputs": [
        {
          "indexed": false,
          "internalType": "uint256",
          "name": "_rewardEpoch",
          "type": "uint256"
        }
      ],
      "name": "ClosingExpiredRewardEpochFailed",
      "type": "event"
    },
    {
      "anonymous": false,
      "inputs": [
        {
          "indexed": false,
          "internalType": "address",
          "name": "theContract",
          "type": "address"
        },
        {
          "indexed": false,
          "internalType": "uint256",
          "name": "atBlock",
          "type": "uint256"
        },
        {
          "indexed": false,
          "internalType": "string",
          "name": "theMessage",
          "type": "string"
        }
      ],
      "name": "ContractRevertError",
      "type": "event"
    },
    {
      "anonymous": false,
      "inputs": [
        {
          "indexed": false,
          "internalType": "address",
          "name": "ftso",
          "type": "address"
        },
        {
          "indexed": false,
          "internalType": "uint256",
          "name": "epochId",
          "type": "uint256"
        }
      ],
      "name": "DistributingRewardsFailed",
      "type": "event"
    },
    {
      "anonymous": false,
      "inputs": [
        {
          "indexed": false,
          "internalType": "bool",
          "name": "fallbackMode",
          "type": "bool"
        }
      ],
      "name": "FallbackMode",
      "type": "event"
    },
    {
      "anonymous": false,
      "inputs": [
        {
          "indexed": false,
          "internalType": "contract IIFtso",
          "name": "ftso",
          "type": "address"
        },
        {
          "indexed": false,
          "internalType": "uint256",
          "name": "epochId",
          "type": "uint256"
        },
        {
          "indexed": false,
          "internalType": "enum IFtso.PriceFinalizationType",
          "name": "failingType",
          "type": "uint8"
        }
      ],
      "name": "FinalizingPriceEpochFailed",
      "type": "event"
    },
    {
      "anonymous": false,
      "inputs": [
        {
          "indexed": false,
          "internalType": "contract IIFtso",
          "name": "ftso",
          "type": "address"
        },
        {
          "indexed": false,
          "internalType": "bool",
          "name": "add",
          "type": "bool"
        }
      ],
      "name": "FtsoAdded",
      "type": "event"
    },
    {
      "anonymous": false,
      "inputs": [
        {
          "indexed": false,
          "internalType": "contract IIFtso",
          "name": "ftso",
          "type": "address"
        },
        {
          "indexed": false,
          "internalType": "bool",
          "name": "fallbackMode",
          "type": "bool"
        }
      ],
      "name": "FtsoFallbackMode",
      "type": "event"
    },
    {
      "anonymous": false,
      "inputs": [
        {
          "indexed": false,
          "internalType": "address",
          "name": "proposedGovernance",
          "type": "address"
        }
      ],
      "name": "GovernanceProposed",
      "type": "event"
    },
    {
      "anonymous": false,
      "inputs": [
        {
          "indexed": false,
          "internalType": "address",
          "name": "oldGovernance",
          "type": "address"
        },
        {
          "indexed": false,
          "internalType": "address",
          "name": "newGoveranance",
          "type": "address"
        }
      ],
      "name": "GovernanceUpdated",
      "type": "event"
    },
    {
      "anonymous": false,
      "inputs": [
        {
          "indexed": false,
          "internalType": "contract IIFtso",
          "name": "ftso",
          "type": "address"
        },
        {
          "indexed": false,
          "internalType": "uint256",
          "name": "epochId",
          "type": "uint256"
        }
      ],
      "name": "InitializingCurrentEpochStateForRevealFailed",
      "type": "event"
    },
    {
      "anonymous": false,
      "inputs": [
        {
          "indexed": false,
          "internalType": "address",
          "name": "chosenFtso",
          "type": "address"
        },
        {
          "indexed": false,
          "internalType": "uint256",
          "name": "rewardEpochId",
          "type": "uint256"
        }
      ],
      "name": "PriceEpochFinalized",
      "type": "event"
    },
    {
      "anonymous": false,
      "inputs": [
        {
          "indexed": false,
          "internalType": "uint256",
          "name": "votepowerBlock",
          "type": "uint256"
        },
        {
          "indexed": false,
          "internalType": "uint256",
          "name": "startBlock",
          "type": "uint256"
        }
      ],
      "name": "RewardEpochFinalized",
      "type": "event"
    },
    {
      "inputs": [],
      "name": "MAX_TRUSTED_ADDRESSES_LENGTH",
      "outputs": [
        {
          "internalType": "uint256",
          "name": "",
          "type": "uint256"
        }
      ],
      "stateMutability": "view",
      "type": "function"
    },
    {
      "inputs": [],
      "name": "activate",
      "outputs": [],
      "stateMutability": "nonpayable",
      "type": "function"
    },
    {
      "inputs": [],
      "name": "active",
      "outputs": [
        {
          "internalType": "bool",
          "name": "",
          "type": "bool"
        }
      ],
      "stateMutability": "view",
      "type": "function"
    },
    {
      "inputs": [
        {
          "internalType": "contract IIFtso",
          "name": "_ftso",
          "type": "address"
        }
      ],
      "name": "addFtso",
      "outputs": [],
      "stateMutability": "nonpayable",
      "type": "function"
    },
    {
      "inputs": [
        {
          "internalType": "address",
          "name": "revertedContract",
          "type": "address"
        },
        {
          "internalType": "string",
          "name": "message",
          "type": "string"
        }
      ],
      "name": "addRevertError",
      "outputs": [],
      "stateMutability": "nonpayable",
      "type": "function"
    },
    {
      "inputs": [],
      "name": "claimGovernance",
      "outputs": [],
      "stateMutability": "nonpayable",
      "type": "function"
    },
    {
      "inputs": [],
      "name": "cleanupBlockNumberManager",
      "outputs": [
        {
          "internalType": "contract CleanupBlockNumberManager",
          "name": "",
          "type": "address"
        }
      ],
      "stateMutability": "view",
      "type": "function"
    },
    {
      "inputs": [],
      "name": "daemonize",
      "outputs": [
        {
          "internalType": "bool",
          "name": "",
          "type": "bool"
        }
      ],
      "stateMutability": "nonpayable",
      "type": "function"
    },
    {
      "inputs": [],
      "name": "errorData",
      "outputs": [
        {
          "internalType": "uint192",
          "name": "totalRevertedErrors",
          "type": "uint192"
        },
        {
          "internalType": "uint64",
          "name": "lastErrorTypeIndex",
          "type": "uint64"
        }
      ],
      "stateMutability": "view",
      "type": "function"
    },
    {
      "inputs": [],
      "name": "flareDaemon",
      "outputs": [
        {
          "internalType": "contract FlareDaemon",
          "name": "",
          "type": "address"
        }
      ],
      "stateMutability": "view",
      "type": "function"
    },
    {
      "inputs": [],
      "name": "ftsoRegistry",
      "outputs": [
        {
          "internalType": "contract IIFtsoRegistry",
          "name": "",
          "type": "address"
        }
      ],
      "stateMutability": "view",
      "type": "function"
    },
    {
      "inputs": [],
      "name": "getCurrentPriceEpochData",
      "outputs": [
        {
          "internalType": "uint256",
          "name": "priceEpochId",
          "type": "uint256"
        },
        {
          "internalType": "uint256",
          "name": "priceEpochStartTimestamp",
          "type": "uint256"
        },
        {
          "internalType": "uint256",
          "name": "priceEpochEndTimestamp",
          "type": "uint256"
        },
        {
          "internalType": "uint256",
          "name": "priceEpochRevealEndTimestamp",
          "type": "uint256"
        },
        {
          "internalType": "uint256",
          "name": "currentTimestamp",
          "type": "uint256"
        }
      ],
      "stateMutability": "view",
      "type": "function"
    },
    {
      "inputs": [],
      "name": "getCurrentRewardEpoch",
      "outputs": [
        {
          "internalType": "uint256",
          "name": "",
          "type": "uint256"
        }
      ],
      "stateMutability": "view",
      "type": "function"
    },
    {
      "inputs": [],
      "name": "getFallbackMode",
      "outputs": [
        {
          "internalType": "bool",
          "name": "_fallbackMode",
          "type": "bool"
        },
        {
          "internalType": "contract IIFtso[]",
          "name": "_ftsos",
          "type": "address[]"
        },
        {
          "internalType": "bool[]",
          "name": "_ftsoInFallbackMode",
          "type": "bool[]"
        }
      ],
      "stateMutability": "view",
      "type": "function"
    },
    {
      "inputs": [],
      "name": "getFtsos",
      "outputs": [
        {
          "internalType": "contract IIFtso[]",
          "name": "_ftsos",
          "type": "address[]"
        }
      ],
      "stateMutability": "view",
      "type": "function"
    },
    {
      "inputs": [],
      "name": "getPriceEpochConfiguration",
      "outputs": [
        {
          "internalType": "uint256",
          "name": "_firstPriceEpochStartTs",
          "type": "uint256"
        },
        {
          "internalType": "uint256",
          "name": "_priceEpochDurationSeconds",
          "type": "uint256"
        },
        {
          "internalType": "uint256",
          "name": "_revealEpochDurationSeconds",
          "type": "uint256"
        }
      ],
      "stateMutability": "view",
      "type": "function"
    },
    {
      "inputs": [],
      "name": "getPriceSubmitter",
      "outputs": [
        {
          "internalType": "contract IPriceSubmitter",
          "name": "",
          "type": "address"
        }
      ],
      "stateMutability": "view",
      "type": "function"
    },
    {
      "inputs": [
        {
          "internalType": "uint256",
          "name": "_rewardEpoch",
          "type": "uint256"
        }
      ],
      "name": "getRewardEpochVotePowerBlock",
      "outputs": [
        {
          "internalType": "uint256",
          "name": "",
          "type": "uint256"
        }
      ],
      "stateMutability": "view",
      "type": "function"
    },
    {
      "inputs": [],
      "name": "getVotePowerIntervalFraction",
      "outputs": [
        {
          "internalType": "uint256",
          "name": "",
          "type": "uint256"
        }
      ],
      "stateMutability": "view",
      "type": "function"
    },
    {
      "inputs": [],
      "name": "governance",
      "outputs": [
        {
          "internalType": "address",
          "name": "",
          "type": "address"
        }
      ],
      "stateMutability": "view",
      "type": "function"
    },
    {
      "inputs": [
        {
          "internalType": "address",
          "name": "_governance",
          "type": "address"
        }
      ],
      "name": "initialise",
      "outputs": [],
      "stateMutability": "nonpayable",
      "type": "function"
    },
    {
      "inputs": [],
      "name": "lastRewardedFtsoAddress",
      "outputs": [
        {
          "internalType": "address",
          "name": "",
          "type": "address"
        }
      ],
      "stateMutability": "view",
      "type": "function"
    },
    {
      "inputs": [
        {
          "internalType": "address",
          "name": "_governance",
          "type": "address"
        }
      ],
      "name": "proposeGovernance",
      "outputs": [],
      "stateMutability": "nonpayable",
      "type": "function"
    },
    {
      "inputs": [],
      "name": "proposedGovernance",
      "outputs": [
        {
          "internalType": "address",
          "name": "",
          "type": "address"
        }
      ],
      "stateMutability": "view",
      "type": "function"
    },
    {
      "inputs": [
        {
          "internalType": "contract IIFtso",
          "name": "_ftso",
          "type": "address"
        }
      ],
      "name": "removeFtso",
      "outputs": [],
      "stateMutability": "nonpayable",
      "type": "function"
    },
    {
      "inputs": [
        {
          "internalType": "contract IIFtso",
          "name": "_ftsoToRemove",
          "type": "address"
        },
        {
          "internalType": "contract IIFtso",
          "name": "_ftsoToAdd",
          "type": "address"
        },
        {
          "internalType": "bool",
          "name": "_copyCurrentPrice",
          "type": "bool"
        },
        {
          "internalType": "bool",
          "name": "_copyAssetOrAssetFtsos",
          "type": "bool"
        }
      ],
      "name": "replaceFtso",
      "outputs": [],
      "stateMutability": "nonpayable",
      "type": "function"
    },
    {
      "inputs": [],
      "name": "rewardEpochDurationSeconds",
      "outputs": [
        {
          "internalType": "uint256",
          "name": "",
          "type": "uint256"
        }
      ],
      "stateMutability": "view",
      "type": "function"
    },
    {
      "inputs": [
        {
          "internalType": "uint256",
          "name": "",
          "type": "uint256"
        }
      ],
      "name": "rewardEpochs",
      "outputs": [
        {
          "internalType": "uint256",
          "name": "votepowerBlock",
          "type": "uint256"
        },
        {
          "internalType": "uint256",
          "name": "startBlock",
          "type": "uint256"
        },
        {
          "internalType": "uint256",
          "name": "startTimestamp",
          "type": "uint256"
        }
      ],
      "stateMutability": "view",
      "type": "function"
    },
    {
      "inputs": [],
      "name": "rewardEpochsStartTs",
      "outputs": [
        {
          "internalType": "uint256",
          "name": "",
          "type": "uint256"
        }
      ],
      "stateMutability": "view",
      "type": "function"
    },
    {
      "inputs": [],
      "name": "rewardManager",
      "outputs": [
        {
          "internalType": "contract IIFtsoRewardManager",
          "name": "",
          "type": "address"
        }
      ],
      "stateMutability": "view",
      "type": "function"
    },
    {
      "inputs": [
        {
          "internalType": "contract IIFtsoRewardManager",
          "name": "_rewardManager",
          "type": "address"
        },
        {
          "internalType": "contract IIFtsoRegistry",
          "name": "_ftsoRegistry",
          "type": "address"
        },
        {
          "internalType": "contract IIVoterWhitelister",
          "name": "_voterWhitelister",
          "type": "address"
        },
        {
          "internalType": "contract IISupply",
          "name": "_supply",
          "type": "address"
        },
        {
          "internalType": "contract CleanupBlockNumberManager",
          "name": "_cleanupBlockNumberManager",
          "type": "address"
        }
      ],
      "name": "setContractAddresses",
      "outputs": [],
      "stateMutability": "nonpayable",
      "type": "function"
    },
    {
      "inputs": [
        {
          "internalType": "bool",
          "name": "_fallbackMode",
          "type": "bool"
        }
      ],
      "name": "setFallbackMode",
      "outputs": [],
      "stateMutability": "nonpayable",
      "type": "function"
    },
    {
      "inputs": [
        {
          "internalType": "contract FlareDaemon",
          "name": "_flareDaemon",
          "type": "address"
        }
      ],
      "name": "setFlareDaemon",
      "outputs": [],
      "stateMutability": "nonpayable",
      "type": "function"
    },
    {
      "inputs": [
        {
          "internalType": "contract IIFtso",
          "name": "_ftso",
          "type": "address"
        },
        {
          "internalType": "contract IIVPToken",
          "name": "_asset",
          "type": "address"
        }
      ],
      "name": "setFtsoAsset",
      "outputs": [],
      "stateMutability": "nonpayable",
      "type": "function"
    },
    {
      "inputs": [
        {
          "internalType": "contract IIFtso",
          "name": "_ftso",
          "type": "address"
        },
        {
          "internalType": "contract IIFtso[]",
          "name": "_assetFtsos",
          "type": "address[]"
        }
      ],
      "name": "setFtsoAssetFtsos",
      "outputs": [],
      "stateMutability": "nonpayable",
      "type": "function"
    },
    {
      "inputs": [
        {
          "internalType": "contract IIFtso",
          "name": "_ftso",
          "type": "address"
        },
        {
          "internalType": "bool",
          "name": "_fallbackMode",
          "type": "bool"
        }
      ],
      "name": "setFtsoFallbackMode",
      "outputs": [],
      "stateMutability": "nonpayable",
      "type": "function"
    },
    {
      "inputs": [
        {
          "internalType": "uint256",
          "name": "_maxVotePowerNatThresholdFraction",
          "type": "uint256"
        },
        {
          "internalType": "uint256",
          "name": "_maxVotePowerAssetThresholdFraction",
          "type": "uint256"
        },
        {
          "internalType": "uint256",
          "name": "_lowAssetUSDThreshold",
          "type": "uint256"
        },
        {
          "internalType": "uint256",
          "name": "_highAssetUSDThreshold",
          "type": "uint256"
        },
        {
          "internalType": "uint256",
          "name": "_highAssetTurnoutThresholdBIPS",
          "type": "uint256"
        },
        {
          "internalType": "uint256",
          "name": "_lowNatTurnoutThresholdBIPS",
          "type": "uint256"
        },
        {
          "internalType": "uint256",
          "name": "_rewardExpiryOffsetSeconds",
          "type": "uint256"
        },
        {
          "internalType": "address[]",
          "name": "_trustedAddresses",
          "type": "address[]"
        }
      ],
      "name": "setGovernanceParameters",
      "outputs": [],
      "stateMutability": "nonpayable",
      "type": "function"
    },
    {
      "inputs": [],
      "name": "settings",
      "outputs": [
        {
          "internalType": "uint256",
          "name": "maxVotePowerNatThresholdFraction",
          "type": "uint256"
        },
        {
          "internalType": "uint256",
          "name": "maxVotePowerAssetThresholdFraction",
          "type": "uint256"
        },
        {
          "internalType": "uint256",
          "name": "lowAssetUSDThreshold",
          "type": "uint256"
        },
        {
          "internalType": "uint256",
          "name": "highAssetUSDThreshold",
          "type": "uint256"
        },
        {
          "internalType": "uint256",
          "name": "highAssetTurnoutThresholdBIPS",
          "type": "uint256"
        },
        {
          "internalType": "uint256",
          "name": "lowNatTurnoutThresholdBIPS",
          "type": "uint256"
        },
        {
          "internalType": "uint256",
          "name": "rewardExpiryOffsetSeconds",
          "type": "uint256"
        },
        {
          "internalType": "bool",
          "name": "changed",
          "type": "bool"
        },
        {
          "internalType": "bool",
          "name": "initialized",
          "type": "bool"
        }
      ],
      "stateMutability": "view",
      "type": "function"
    },
    {
      "inputs": [],
      "name": "showLastRevertedError",
      "outputs": [
        {
          "internalType": "uint256[]",
          "name": "_lastErrorBlock",
          "type": "uint256[]"
        },
        {
          "internalType": "uint256[]",
          "name": "_numErrors",
          "type": "uint256[]"
        },
        {
          "internalType": "string[]",
          "name": "_errorString",
          "type": "string[]"
        },
        {
          "internalType": "address[]",
          "name": "_erroringContract",
          "type": "address[]"
        },
        {
          "internalType": "uint256",
          "name": "_totalRevertedErrors",
          "type": "uint256"
        }
      ],
      "stateMutability": "view",
      "type": "function"
    },
    {
      "inputs": [
        {
          "internalType": "uint256",
          "name": "startIndex",
          "type": "uint256"
        },
        {
          "internalType": "uint256",
          "name": "numErrorTypesToShow",
          "type": "uint256"
        }
      ],
      "name": "showRevertedErrors",
      "outputs": [
        {
          "internalType": "uint256[]",
          "name": "_lastErrorBlock",
          "type": "uint256[]"
        },
        {
          "internalType": "uint256[]",
          "name": "_numErrors",
          "type": "uint256[]"
        },
        {
          "internalType": "string[]",
          "name": "_errorString",
          "type": "string[]"
        },
        {
          "internalType": "address[]",
          "name": "_erroringContract",
          "type": "address[]"
        },
        {
          "internalType": "uint256",
          "name": "_totalRevertedErrors",
          "type": "uint256"
        }
      ],
      "stateMutability": "view",
      "type": "function"
    },
    {
      "inputs": [],
      "name": "supply",
      "outputs": [
        {
          "internalType": "contract IISupply",
          "name": "",
          "type": "address"
        }
      ],
      "stateMutability": "view",
      "type": "function"
    },
    {
      "inputs": [],
      "name": "switchToFallbackMode",
      "outputs": [
        {
          "internalType": "bool",
          "name": "",
          "type": "bool"
        }
      ],
      "stateMutability": "nonpayable",
      "type": "function"
    },
    {
      "inputs": [
        {
          "internalType": "address",
          "name": "_governance",
          "type": "address"
        }
      ],
      "name": "transferGovernance",
      "outputs": [],
      "stateMutability": "nonpayable",
      "type": "function"
    },
    {
      "inputs": [],
      "name": "voterWhitelister",
      "outputs": [
        {
          "internalType": "contract IIVoterWhitelister",
          "name": "",
          "type": "address"
        }
      ],
      "stateMutability": "view",
      "type": "function"
    }
  ],
  "bytecode": "0x6101606040523480156200001257600080fd5b50604051620055b2380380620055b2833981016040819052620000359162000529565b888881806001600160a01b038116156200005457620000548162000445565b506001600160a01b038116620000a4576040805162461bcd60e51b815260206004820152601060248201526f5f676f7665726e616e6365207a65726f60801b604482015290519081900360640190fd5b506001600160a01b038116620000f5576040805162461bcd60e51b8152602060048201526011602482015270666c617265206461656d6f6e207a65726f60781b604482015290519081900360640190fd5b600280546001600160a01b0319166001600160a01b03929092169190911790555060408051606081019091526025808252428811159190620055426020830139906200015f5760405162461bcd60e51b8152600401620001569190620005b7565b60405180910390fd5b5060408051808201909152600e81526d05265776172642065706f636820360941b602082015282620001a65760405162461bcd60e51b8152600401620001569190620005b7565b5060408051808201909152600d81526c050726963652065706f6368203609c1b602082015285620001ec5760405162461bcd60e51b8152600401620001569190620005b7565b5060408051808201909152601481527f52657665616c2070726963652065706f63682030000000000000000000000000602082015284620002425760405162461bcd60e51b8152600401620001569190620005b7565b5060408051808201909152601e81527f566f746520706f77657220696e74657276616c206672616374696f6e20300000602082015281620002985760405162461bcd60e51b8152600401620001569190620005b7565b5060408051808201909152601b81527f52657665616c2070726963652065706f636820746f6f206c6f6e6700000000006020820152858510620002f05760405162461bcd60e51b8152600401620001569190620005b7565b508284870111156040518060400160405280601b81526020017f5265776172642065706f636820737461727420746f6f20736f6f6e0000000000815250906200034e5760405162461bcd60e51b8152600401620001569190620005b7565b50848685850303816200035d57fe5b066000146040518060600160405280602481526020016200558e60249139906200039c5760405162461bcd60e51b8152600401620001569190620005b7565b50848281620003a757fe5b06600014604051806060016040528060278152602001620055676027913990620003e65760405162461bcd60e51b8152600401620001569190620005b7565b5060e0829052610100839052610120819052828201601455608086905260a085905260c0849052601383905584868403816200041e57fe5b04601255505050505060609190911b6001600160601b031916610140525062000626915050565b600154600160a01b900460ff1615620004a5576040805162461bcd60e51b815260206004820152601460248201527f696e697469616c6973656420213d2066616c7365000000000000000000000000604482015290519081900360640190fd5b6001805460ff60a01b1916600160a01b179055600054604080516001600160a01b039283168152918316602083015280517f434a2db650703b36c824e745330d6397cdaa9ee2cc891a4938ae853e1c50b68d9281900390910190a1600080546001600160a01b039092166001600160a01b0319928316179055600180549091169055565b60008060008060008060008060006101208a8c03121562000548578485fd5b895162000555816200060d565b60208b015190995062000568816200060d565b60408b01519098506200057b816200060d565b8097505060608a0151955060808a0151945060a08a0151935060c08a0151925060e08a015191506101008a015190509295985092959850929598565b6000602080835283518082850152825b81811015620005e557858101830151858201604001528201620005c7565b81811115620005f75783604083870101525b50601f01601f1916929092016040019392505050565b6001600160a01b03811681146200062357600080fd5b50565b60805160a05160c05160e05161010051610120516101405160601c614e6b620006d760003980610550528061370a52508061098252806132a65250806112d7525080610ec75280612b74528061349052508061062652806111c152806128465280613fdd525080610605528061119052806128245280612fd75280613c305280613f6d5280613fba5250806105e4528061116f52806128025280613c515280613f485280613f955250614e6b6000f3fe608060405234801561001057600080fd5b50600436106102745760003560e01c80639131205b11610151578063c373a08e116100c3578063e371aef011610087578063e371aef0146104cc578063e7a0d01e146104e2578063e7c830d4146104f5578063e847ae1e146104fd578063f2edab5a14610510578063ff882fbb1461052357610274565b8063c373a08e1461046c578063ce69f8331461047f578063d38bfff414610494578063e06174e4146104a7578063e22fdece146104c457610274565b8063a670ff8711610115578063a670ff8714610405578063a795f40914610418578063a93a6f421461042b578063af946af71461043e578063c0ffe90814610451578063c2b0d47b1461046457610274565b80639131205b146103b657806393a79025146103c95780639d6a890f146103e2578063a1077532146103f5578063a578f55b146103fd57610274565b80634b48dd5e116101ea57806360f7ac97116101ae57806360f7ac971461037057806369b11ac6146103785780636b65cc34146103805780636d0e8c34146103935780636ea0aa311461039b57806385f3c9c9146103ae57610274565b80634b48dd5e1461032c5780634eac870f146103435780635aa6e6751461034b5780635d36b1901461035357806360f2c5b21461035b57610274565b8063144e15911161023c578063144e1591146102c65780632663f1b4146102dd5780632b3c41a4146102f05780632fd8eb7d14610309578063316a14b31461031157806338b5f8691461032457610274565b806302fb0c5e14610279578063047fc9aa146102975780630e063d7d146102ac5780630f15f4c0146102b45780630f4ef8a6146102be575b600080fd5b610281610536565b60405161028e9190614add565b60405180910390f35b61029f61053f565b60405161028e919061492d565b61029f61054e565b6102bc610573565b005b61029f6105d3565b6102ce6105e2565b60405161028e93929190614bde565b6102bc6102eb366004614223565b61064a565b6102f86106a9565b60405161028e959493929190614a3e565b61029f6106e4565b6102bc61031f366004614223565b6106f3565b61029f6107b5565b6103346107c4565b60405161028e93929190614ae8565b61029f6108a0565b61029f6108af565b6102bc6108be565b610363610980565b60405161028e9190614bb7565b61029f6109a4565b6103636109b3565b6102bc61038e36600461467a565b6109b8565b610281610a6b565b6102f86103a9366004614730565b610b5f565b610363610ec5565b6102bc6103c4366004614774565b610ee9565b6103d1611159565b60405161028e959493929190614bf4565b6102bc6103f0366004614223565b6111ec565b61029f6112c6565b6103636112d5565b6102bc610413366004614223565b6112f9565b6102ce610426366004614700565b611523565b6102bc610439366004614542565b611556565b6102bc61044c3660046145ef565b6116e6565b6102bc61045f366004614246565b6117f7565b61029f6119d0565b6102bc61047a366004614223565b6119df565b610487611a84565b60405161028e9190614a2b565b6102bc6104a2366004614223565b611a93565b6104af611b55565b60405161028e99989796959493929190614c5b565b610281611b7c565b6104d4611c3d565b60405161028e929190614b95565b6102bc6104f0366004614623565b611c5e565b61036361235b565b6102bc61050b3660046144d2565b6123be565b61036361051e366004614700565b61246e565b6102bc6105313660046144b8565b612497565b60065460ff1681565b601a546001600160a01b031681565b7f00000000000000000000000000000000000000000000000000000000000000005b90565b6000546001600160a01b031633146105c4576040805162461bcd60e51b815260206004820152600f60248201526e6f6e6c7920676f7665726e616e636560881b604482015290519081900360640190fd5b6006805460ff19166001179055565b6017546001600160a01b031681565b7f00000000000000000000000000000000000000000000000000000000000000007f00000000000000000000000000000000000000000000000000000000000000007f0000000000000000000000000000000000000000000000000000000000000000909192565b6000546001600160a01b0316331461069b576040805162461bcd60e51b815260206004820152600f60248201526e6f6e6c7920676f7665726e616e636560881b604482015290519081900360640190fd5b6106a681600161253a565b50565b6005546060908190819081906000906106d390600160c01b90046001600160401b03166001610b5f565b945094509450945094509091929394565b6008546001600160a01b031681565b6000546001600160a01b03163314610744576040805162461bcd60e51b815260206004820152600f60248201526e6f6e6c7920676f7665726e616e636560881b604482015290519081900360640190fd5b6001600160a01b038116610793576040805162461bcd60e51b8152602060048201526011602482015270666c617265206461656d6f6e207a65726f60781b604482015290519081900360640190fd5b600280546001600160a01b0319166001600160a01b0392909216919091179055565b6018546001600160a01b031681565b601b54600160a81b900460ff166060806107dc612af1565b8051909250806001600160401b03811180156107f757600080fd5b50604051908082528060200260200182016040528015610821578160200160208202803683370190505b50915060005b8181101561089957601c600085838151811061083f57fe5b60200260200101516001600160a01b03166001600160a01b0316815260200190815260200160002060009054906101000a900460ff1683828151811061088157fe5b91151560209283029190910190910152600101610827565b5050909192565b601b546001600160a01b031681565b6000546001600160a01b031681565b6001546001600160a01b0316331461090d576040805162461bcd60e51b815260206004820152600d60248201526c1b9bdd0818db185a5b585a5b9d609a1b604482015290519081900360640190fd5b600054600154604080516001600160a01b03938416815292909116602083015280517f434a2db650703b36c824e745330d6397cdaa9ee2cc891a4938ae853e1c50b68d9281900390910190a160018054600080546001600160a01b03199081166001600160a01b03841617909155169055565b7f000000000000000000000000000000000000000000000000000000000000000090565b6001546001600160a01b031681565b600581565b6000546001600160a01b03163314610a09576040805162461bcd60e51b815260206004820152600f60248201526e6f6e6c7920676f7665726e616e636560881b604482015290519081900360640190fd5b60405163d0d552dd60e01b81526001600160a01b0383169063d0d552dd90610a3590849060040161492d565b600060405180830381600087803b158015610a4f57600080fd5b505af1158015610a63573d6000803e3d6000fd5b505050505050565b6002546000906001600160a01b03163314610ac1576040805162461bcd60e51b815260206004820152601160248201527037b7363c90333630b932903230b2b6b7b760791b604482015290519081900360640190fd5b60065460ff16610ad357506000610570565b600754610ae757610ae2612b72565b610b59565b601b54600160a01b900460ff168015610b0257504260135411155b15610b0f57610ae2612ce7565b601b54600160a01b900460ff16158015610b2b57504260145411155b15610b4857610b386131c3565b610b406134b8565b610ae26135ce565b4260135411610b5957610b596136e8565b50600190565b606080606080600060048054905087106040518060400160405280601081526020016f0e6e8c2e4e840d2dcc8caf040d0d2ced60831b81525090610bbf5760405162461bcd60e51b8152600401610bb69190614b82565b60405180910390fd5b506004546000908888011115610bda57600454889003610bdc565b865b9050806001600160401b0381118015610bf457600080fd5b50604051908082528060200260200182016040528015610c1e578160200160208202803683370190505b509550806001600160401b0381118015610c3757600080fd5b50604051908082528060200260200182016040528015610c61578160200160208202803683370190505b509450806001600160401b0381118015610c7a57600080fd5b50604051908082528060200260200182016040528015610cae57816020015b6060815260200190600190039081610c995790505b509350806001600160401b0381118015610cc757600080fd5b50604051908082528060200260200182016040528015610cf1578160200160208202803683370190505b50925060005b81811015610ea95760006004828b0181548110610d1057fe5b6000918252602080832090910154808352600390915260409091205489519192506001600160c01b031690899084908110610d4757fe5b6020026020010181815250506003600082815260200190815260200160002060000160189054906101000a90046001600160401b03166001600160401b0316878381518110610d9257fe5b6020908102919091018101919091526000828152600382526040908190206002908101805483516001821615610100026000190190911692909204601f81018590048502830185019093528282529092909190830182828015610e365780601f10610e0b57610100808354040283529160200191610e36565b820191906000526020600020905b815481529060010190602001808311610e1957829003601f168201915b5050505050868381518110610e4757fe5b60200260200101819052506003600082815260200190815260200160002060010160009054906101000a90046001600160a01b0316858381518110610e8857fe5b6001600160a01b039092166020928302919091019091015250600101610cf7565b50506005549497939650919450926001600160c01b0316919050565b7f000000000000000000000000000000000000000000000000000000000000000081565b6000546001600160a01b03163314610f3a576040805162461bcd60e51b815260206004820152600f60248201526e6f6e6c7920676f7665726e616e636560881b604482015290519081900360640190fd5b60408051808201909152601381527211dbdd8b881c185c985b5cc81a5b9d985b1a59606a1b602082015288610f825760405162461bcd60e51b8152600401610bb69190614b82565b5060408051808201909152601381527211dbdd8b881c185c985b5cc81a5b9d985b1a59606a1b602082015287610fcb5760405162461bcd60e51b8152600401610bb69190614b82565b5060408051808201909152601381527211dbdd8b881c185c985b5cc81a5b9d985b1a59606a1b6020820152868610156110175760405162461bcd60e51b8152600401610bb69190614b82565b5060408051808201909152601381527211dbdd8b881c185c985b5cc81a5b9d985b1a59606a1b60208201526127108511156110655760405162461bcd60e51b8152600401610bb69190614b82565b5060408051808201909152601381527211dbdd8b881c185c985b5cc81a5b9d985b1a59606a1b60208201526127108411156110b35760405162461bcd60e51b8152600401610bb69190614b82565b5060408051808201909152601581527414995dd85c9908195e1c1a5c9e481a5b9d985b1a59605a1b6020820152826110fe5760405162461bcd60e51b8152600401610bb69190614b82565b50600581511115604051806060016040528060258152602001614deb602591399061113c5760405162461bcd60e51b8152600401610bb69190614b82565b5061114f60098989898989898989613a33565b5050505050505050565b60008060008060008061116a613c2c565b9550507f00000000000000000000000000000000000000000000000000000000000000007f0000000000000000000000000000000000000000000000000000000000000000808702820195506001870102019250507f000000000000000000000000000000000000000000000000000000000000000082019050429091929394565b600154600160a01b900460ff1615611242576040805162461bcd60e51b8152602060048201526014602482015273696e697469616c6973656420213d2066616c736560601b604482015290519081900360640190fd5b6001805460ff60a01b1916600160a01b179055600054604080516001600160a01b039283168152918316602083015280517f434a2db650703b36c824e745330d6397cdaa9ee2cc891a4938ae853e1c50b68d9281900390910190a1600080546001600160a01b039092166001600160a01b0319928316179055600180549091169055565b6002546001600160a01b031681565b7f000000000000000000000000000000000000000000000000000000000000000081565b6000546001600160a01b0316331461134a576040805162461bcd60e51b815260206004820152600f60248201526e6f6e6c7920676f7665726e616e636560881b604482015290519081900360640190fd5b6000601860009054906101000a90046001600160a01b03166001600160a01b031663e848da30836001600160a01b03166395d89b416040518163ffffffff1660e01b815260040160006040518083038186803b1580156113a957600080fd5b505afa1580156113bd573d6000803e3d6000fd5b505050506040513d6000823e601f3d908101601f191682016040526113e591908101906146ce565b6040518263ffffffff1660e01b81526004016114019190614b82565b60206040518083038186803b15801561141957600080fd5b505afa15801561142d573d6000803e3d6000fd5b505050506040513d601f19601f820116820180604052508101906114519190614718565b60195460405163d873617160e01b81529192506001600160a01b03169063d873617190611482908490600401614bb7565b600060405180830381600087803b15801561149c57600080fd5b505af11580156114b0573d6000803e3d6000fd5b505060185460405163a670ff8760e01b81526001600160a01b03909116925063a670ff8791506114e490859060040161492d565b600060405180830381600087803b1580156114fe57600080fd5b505af1158015611512573d6000803e3d6000fd5b5050505061151f82613c7f565b5050565b6007818154811061153357600080fd5b600091825260209091206003909102018054600182015460029092015490925083565b6000546001600160a01b031633146115a7576040805162461bcd60e51b815260206004820152600f60248201526e6f6e6c7920676f7665726e616e636560881b604482015290519081900360640190fd5b80516040805180820190915260168152754173736574206674736f73206c69737420656d70747960501b6020820152816115f45760405162461bcd60e51b8152600401610bb69190614b82565b5060005b818110156116795782818151811061160c57fe5b60200260200101516001600160a01b0316846001600160a01b031614156116715760408051808201825260168152756674736f20657175616c73206173736574206674736f60501b6020820152905162461bcd60e51b8152610bb69190600401614b82565b6001016115f8565b5061168382613d49565b60405163098fef7160e11b81526001600160a01b0384169063131fdee2906116af908590600401614a2b565b600060405180830381600087803b1580156116c957600080fd5b505af11580156116dd573d6000803e3d6000fd5b50505050505050565b6000546001600160a01b03163314611737576040805162461bcd60e51b815260206004820152600f60248201526e6f6e6c7920676f7665726e616e636560881b604482015290519081900360640190fd5b6001600160a01b0382166000908152601660209081526040918290205482518084019093526009835268139bdd08199bdd5b9960ba1b9183019190915260ff166117945760405162461bcd60e51b8152600401610bb69190614b82565b506001600160a01b0382166000908152601c602052604090819020805460ff1916831515179055517f24462ede4d3e8e5a69fecec6290d42a311016ca752216d9a3d681e284791b7ac906117eb9084908490614b38565b60405180910390a15050565b6000828260405160200161180c92919061495a565b60408051601f198184030181528282528051602091820120600081815260039092529190208054436001600160c01b038181166001600160401b03600160c01b80860482166001019091160291909316176001600160c01b031916919091179091559092507f1a601cf5e0efbd558b2778b7389af04741d1c49bcab104c40daa2da194593617916118a0918691869061497e565b60405180910390a1600580546001600160c01b0319811660016001600160c01b03928316810190921617909155600082815260036020526040902054600160c01b90046001600160401b031611156118f8575061151f565b6004805460018082019092557f8a35acfbc15ff81a39ae7d344fd709f28e8600b4aa8c65c6b64bfe7fe36bd19b01829055600082815260036020908152604090912091820180546001600160a01b0319166001600160a01b03871617905583516119689260020191850190614066565b50600454600091825260036020526040909120600101805467ffffffffffffffff60a01b1916600160a01b6000199093016001600160401b0390811684029190911791829055600580546001600160c01b03169390920416600160c01b029190911790555050565b6019546001600160a01b031681565b6000546001600160a01b03163314611a30576040805162461bcd60e51b815260206004820152600f60248201526e6f6e6c7920676f7665726e616e636560881b604482015290519081900360640190fd5b600180546001600160a01b0383166001600160a01b0319909116811790915560408051918252517f1f95fb40be3a947982072902a887b521248d1d8931a39eb38f84f4d6fd758b699181900360200190a150565b6060611a8e612af1565b905090565b6000546001600160a01b03163314611ae4576040805162461bcd60e51b815260206004820152600f60248201526e6f6e6c7920676f7665726e616e636560881b604482015290519081900360640190fd5b600054604080516001600160a01b039283168152918316602083015280517f434a2db650703b36c824e745330d6397cdaa9ee2cc891a4938ae853e1c50b68d9281900390910190a1600080546001600160a01b039092166001600160a01b0319928316179055600180549091169055565b600954600a54600b54600c54600d54600e54600f5460115460ff8082169161010090041689565b6002546000906001600160a01b03163314611bd2576040805162461bcd60e51b815260206004820152601160248201527037b7363c90333630b932903230b2b6b7b760791b604482015290519081900360640190fd5b601b54600160a81b900460ff16611c3757601b805460ff60a81b1916600160a81b1790556040517f217a37a37fc40a97159886f80c3d45986e6fc4330ce6ad7283478b5e5ab705bc90611c2790600190614add565b60405180910390a1506001610570565b50600090565b6005546001600160c01b03811690600160c01b90046001600160401b031682565b6000546001600160a01b03163314611caf576040805162461bcd60e51b815260206004820152600f60248201526e6f6e6c7920676f7665726e616e636560881b604482015290519081900360640190fd5b826001600160a01b03166395d89b416040518163ffffffff1660e01b815260040160006040518083038186803b158015611ce857600080fd5b505afa158015611cfc573d6000803e3d6000fd5b505050506040513d6000823e601f3d908101601f19168201604052611d2491908101906146ce565b604051602001611d349190614b82565b60405160208183030381529060405280519060200120846001600160a01b03166395d89b416040518163ffffffff1660e01b815260040160006040518083038186803b158015611d8357600080fd5b505afa158015611d97573d6000803e3d6000fd5b505050506040513d6000823e601f3d908101601f19168201604052611dbf91908101906146ce565b604051602001611dcf9190614b82565b60405160208183030381529060405280519060200120146040518060400160405280601781526020017f4654534f2073796d626f6c73206d757374206d6174636800000000000000000081525090611e3a5760405162461bcd60e51b8152600401610bb69190614b82565b506000611e45612af1565b805190915060005b81811015611e8f57866001600160a01b0316838281518110611e6b57fe5b60200260200101516001600160a01b03161415611e8757611e8f565b600101611e4d565b81811415611ece576040805180820182526009815268139bdd08199bdd5b9960ba1b6020820152905162461bcd60e51b8152610bb69190600401614b82565b8415611faf57600080886001600160a01b031663eb91d37e6040518163ffffffff1660e01b8152600401604080518083038186803b158015611f0f57600080fd5b505afa158015611f23573d6000803e3d6000fd5b505050506040513d601f19601f82011682018060405250810190611f479190614751565b60405163306ba25360e01b815291935091506001600160a01b0389169063306ba25390611f7a9085908590600401614bd0565b600060405180830381600087803b158015611f9457600080fd5b505af1158015611fa8573d6000803e3d6000fd5b5050505050505b8315612180576000876001600160a01b0316635c222bad6040518163ffffffff1660e01b815260040160206040518083038186803b158015611ff057600080fd5b505afa158015612004573d6000803e3d6000fd5b505050506040513d601f19601f8201168201806040525081019061202891906146b2565b90506001600160a01b0381161561209c5760405163d0d552dd60e01b81526001600160a01b0388169063d0d552dd9061206590849060040161492d565b600060405180830381600087803b15801561207f57600080fd5b505af1158015612093573d6000803e3d6000fd5b5050505061217e565b6000886001600160a01b03166318931c356040518163ffffffff1660e01b815260040160006040518083038186803b1580156120d757600080fd5b505afa1580156120eb573d6000803e3d6000fd5b505050506040513d6000823e601f3d908101601f191682016040526121139190810190614398565b80519091501561217c5760405163098fef7160e11b81526001600160a01b0389169063131fdee290612149908490600401614a2b565b600060405180830381600087803b15801561216357600080fd5b505af1158015612177573d6000803e3d6000fd5b505050505b505b505b61218b86600061253a565b6000612195612af1565b805190915060005b818110156123465760008382815181106121b357fe5b602002602001015190508a6001600160a01b0316816001600160a01b031614156121dd575061233e565b6000816001600160a01b03166318931c356040518163ffffffff1660e01b815260040160006040518083038186803b15801561221857600080fd5b505afa15801561222c573d6000803e3d6000fd5b505050506040513d6000823e601f3d908101601f191682016040526122549190810190614398565b8051909150801561233a576000805b828110156122d2578e6001600160a01b031684828151811061228157fe5b60200260200101516001600160a01b031614156122ca578d8482815181106122a557fe5b60200260200101906001600160a01b031690816001600160a01b031681525050600191505b600101612263565b5080156123385760405163098fef7160e11b81526001600160a01b0385169063131fdee290612305908690600401614a2b565b600060405180830381600087803b15801561231f57600080fd5b505af1158015612333573d6000803e3d6000fd5b505050505b505b5050505b60010161219d565b5061235089613c7f565b505050505050505050565b6007546040805180820190915260208082527f5265776172642065706f6368206e6f7420696e697469616c697a6564207965749082015260009190816123b45760405162461bcd60e51b8152600401610bb69190614b82565b5060001901905090565b6000546001600160a01b0316331461240f576040805162461bcd60e51b815260206004820152600f60248201526e6f6e6c7920676f7665726e616e636560881b604482015290519081900360640190fd5b601780546001600160a01b03199081166001600160a01b03978816179091556018805482169587169590951790945560198054851693861693909317909255601a80548416918516919091179055601b80549092169216919091179055565b60006007828154811061247d57fe5b90600052602060002090600302016000015490505b919050565b6000546001600160a01b031633146124e8576040805162461bcd60e51b815260206004820152600f60248201526e6f6e6c7920676f7665726e616e636560881b604482015290519081900360640190fd5b601b805460ff60a81b1916600160a81b831515021790556040517f217a37a37fc40a97159886f80c3d45986e6fc4330ce6ad7283478b5e5ab705bc9061252f908390614add565b60405180910390a150565b60115460408051808201909152601b81527f476f762e20706172616d73206e6f7420696e697469616c697a65640000000000602082015290610100900460ff166125975760405162461bcd60e51b8152600401610bb69190614b82565b50612615826001600160a01b03166318931c356040518163ffffffff1660e01b815260040160006040518083038186803b1580156125d457600080fd5b505afa1580156125e8573d6000803e3d6000fd5b505050506040513d6000823e601f3d908101601f191682016040526126109190810190614398565b613d49565b80156127de576000826001600160a01b03166395d89b416040518163ffffffff1660e01b815260040160006040518083038186803b15801561265657600080fd5b505afa15801561266a573d6000803e3d6000fd5b505050506040513d6000823e601f3d908101601f1916820160405261269291908101906146ce565b6040516020016126a29190614b82565b6040516020818303038152906040528051906020012090506000601860009054906101000a90046001600160a01b03166001600160a01b031663ce1c0e4d6040518163ffffffff1660e01b815260040160006040518083038186803b15801561270a57600080fd5b505afa15801561271e573d6000803e3d6000fd5b505050506040513d6000823e601f3d908101601f191682016040526127469190810190614430565b80519091505b80156127da57806001900390508282828151811061276657fe5b602002602001015160405160200161277e9190614b82565b6040516020818303038152906040528051906020012014156127d557604080518082018252600d81526c105b1c9958591e481859191959609a1b6020820152905162461bcd60e51b8152610bb69190600401614b82565b61274c565b5050505b604051630bc29bcf60e21b81526001600160a01b03831690632f0a6f3c9061286e907f0000000000000000000000000000000000000000000000000000000000000000907f0000000000000000000000000000000000000000000000000000000000000000907f000000000000000000000000000000000000000000000000000000000000000090600401614bde565b600060405180830381600087803b15801561288857600080fd5b505af115801561289c573d6000803e3d6000fd5b505060075415915061292e905057600780546001600160a01b0384169163e536f3969160001981019081106128cd57fe5b9060005260206000209060030201600001546040518263ffffffff1660e01b81526004016128fb9190614bb7565b600060405180830381600087803b15801561291557600080fd5b505af1158015612929573d6000803e3d6000fd5b505050505b600954600a54600b54600c54600d54600e5460405163f7dba1f560e01b81526001600160a01b0389169663f7dba1f596612975969195909491939092601090600401614c17565b600060405180830381600087803b15801561298f57600080fd5b505af11580156129a3573d6000803e3d6000fd5b5050506001600160a01b03808416600090815260166020526040808220805460ff191660011790556018549051630998fc6d60e21b815291935090911690632663f1b4906129f590869060040161492d565b602060405180830381600087803b158015612a0f57600080fd5b505af1158015612a23573d6000803e3d6000fd5b505050506040513d601f19601f82011682018060405250810190612a479190614718565b90508115612ab257601954604051630d15c16960e21b81526001600160a01b039091169063345705a490612a7f908490600401614bb7565b600060405180830381600087803b158015612a9957600080fd5b505af1158015612aad573d6000803e3d6000fd5b505050505b7fa0985424f2efdcae4b57a7c84bbf0a0b19f93054f21e9eb1cfcd5a59813fe1da836001604051612ae4929190614b38565b60405180910390a1505050565b60185460408051635200305d60e11b815290516060926001600160a01b03169163a40060ba916004808301926000929190829003018186803b158015612b3657600080fd5b505afa158015612b4a573d6000803e3d6000fd5b505050506040513d6000823e601f3d908101601f19168201604052611a8e9190810190614398565b7f0000000000000000000000000000000000000000000000000000000000000000601454034210612ce5576000612ba7612af1565b8051604080516060810182524360001981018252602082019081524292820192835260078054600181018255600091825283517fa66cc928b5edb82af9bd49922954155ab7b0942694bea4ce44661d9a8736c68860039092029182015591517fa66cc928b5edb82af9bd49922954155ab7b0942694bea4ce44661d9a8736c68983015592517fa66cc928b5edb82af9bd49922954155ab7b0942694bea4ce44661d9a8736c68a909101559293509091905b82811015612ce057838181518110612c6c57fe5b60200260200101516001600160a01b031663e536f39683600001516040518263ffffffff1660e01b8152600401612ca39190614bb7565b600060405180830381600087803b158015612cbd57600080fd5b505af1158015612cd1573d6000803e3d6000fd5b50505050806001019050612c58565b505050505b565b6000612cf1612af1565b80519091508015801590612d0f5750601b54600160a81b900460ff16155b15613130576008546000906001600160a01b0316612d6357814442604051602001612d3b929190614bd0565b6040516020818303038152906040528051906020012060001c81612d5b57fe5b069050612e39565b6000805b83811015612dff57848181518110612d7b57fe5b60200260200101516001600160a01b031663d89601fd6040518163ffffffff1660e01b815260040160206040518083038186803b158015612dbb57600080fd5b505afa158015612dcf573d6000803e3d6000fd5b505050506040513d601f19601f82011682018060405250810190612df39190614718565b90910190600101612d67565b50828142604051602001612e14929190614bd0565b6040516020818303038152906040528051906020012060001c81612e3457fe5b069150505b60608060008080805b87811015612fa35760008882890181612e5757fe5b06905060008a8281518110612e6857fe5b60200260200101519050806001600160a01b03166340462a2d60125487156040518363ffffffff1660e01b8152600401612ea3929190614bc0565b600060405180830381600087803b158015612ebd57600080fd5b505af1925050508015612ef257506040513d6000823e601f3d908101601f19168201604052612eef91908101906142cd565b60015b612f6f57612efe614d31565b80612f095750612f60565b7f79f4c7cc43bfb79f5a3aad0d92f75b6fed7db061bb5cc2580a01c8132711b881826012546001604051612f3f93929190614b53565b60405180910390a1612f5182826117f7565b612f5a82613dd0565b50612f6a565b3d6000803e3d6000fd5b612f99565b87158015612f7e575060008351115b15612f955791995097509550600194509250828787875b5050505b5050600101612e42565b506000612fae61235b565b905082156130cf576017546012546001600160a01b039091169063a9b79e1790889088908890877f000000000000000000000000000000000000000000000000000000000000000088600161300285613f46565b0360078b8154811061301057fe5b9060005260206000209060030201600001546040518a63ffffffff1660e01b8152600401613046999897969594939291906149ae565b600060405180830381600087803b15801561306057600080fd5b505af1925050508015613071575060015b6130cf5761307d614d31565b806130885750612f60565b7f175a1d13d190d6a1e14461c214b3ecf6118b828797750b7bffd7c4f2c1eba54c836012546040516130bb929190614941565b60405180910390a16130cd30826117f7565b505b600880546001600160a01b0319166001600160a01b0384161790556040517f98b050a4042fbd1b89934ef40b9342e593f15081a348af940573a0179031f4ad9061311c9084908490614941565b60405180910390a1505050505050506131b2565b60005b8181101561315f5761315783828151811061314a57fe5b6020026020010151613dd0565b600101613133565b50600880546001600160a01b03191690557f98b050a4042fbd1b89934ef40b9342e593f15081a348af940573a0179031f4ad600061319b61235b565b6040516131a9929190614941565b60405180910390a15b5050601b805460ff60a01b19169055565b60006131cd612af1565b80519091504281156132765760005b82811015613274578381815181106131f057fe5b60200260200101516001600160a01b031663d89601fd6040518163ffffffff1660e01b815260040160206040518083038186803b15801561323057600080fd5b505afa158015613244573d6000803e3d6000fd5b505050506040513d601f19601f820116820180604052508101906132689190614718565b909101906001016131dc565b505b806040516020016132879190614bb7565b6040516020818303038152906040528051906020012060001c905060007f000000000000000000000000000000000000000000000000000000000000000060076132cf61235b565b815481106132d957fe5b9060005260206000209060030201600101544303816132f457fe5b04905080613300575060015b600081838161330b57fe5b06905080613317575060015b60408051606081018252438381038252602082019081524292820192835260078054600181018255600091825283517fa66cc928b5edb82af9bd49922954155ab7b0942694bea4ce44661d9a8736c68860039092029182015591517fa66cc928b5edb82af9bd49922954155ab7b0942694bea4ce44661d9a8736c68983015592517fa66cc928b5edb82af9bd49922954155ab7b0942694bea4ce44661d9a8736c68a90910155905b85811015613448578681815181106133d357fe5b60200260200101516001600160a01b031663e536f39683600001516040518263ffffffff1660e01b815260040161340a9190614bb7565b600060405180830381600087803b15801561342457600080fd5b505af1158015613438573d6000803e3d6000fd5b5050600190920191506133bf9050565b50805160208201516040517f1813f880dc24666c8b69c9d771a487ea620a27fde1514be3112847056c0c532292613480929091614bd0565b60405180910390a15050601480547f000000000000000000000000000000000000000000000000000000000000000001905550505050565b60006134c261235b565b600f5490915042035b816015541080156134ff5750806007601554600101815481106134ea57fe5b90600052602060002090600302016002015411155b1561151f57601754601554604051636b60edf760e11b81526001600160a01b039092169163d6c1dbee9161353591600401614bb7565b600060405180830381600087803b15801561354f57600080fd5b505af1925050508015613560575060015b6135c05761356c614d31565b806135775750612f60565b7fa819a21065ad87bdde9e6d398d3213e0d3634afd87aceb7092236483f5d7ca8d6015546040516135a89190614bb7565b60405180910390a16135ba30826117f7565b5061151f565b6015805460010190556134cb565b601b546001600160a01b031661360c576040517f9a880a9e2a01928f1a99d7b0e2ea1147f52e2eb381f8d9345c110932d57bce8d90600090a1612ce5565b600060076015548154811061361d57fe5b6000918252602090912060039091020154601b5460405163cbc31cf760e01b81529192506001600160a01b03169063cbc31cf79061365f908490600401614bb7565b600060405180830381600087803b15801561367957600080fd5b505af192505050801561368a575060015b6106a657613696614d31565b806136a15750612f60565b7f9f874ea08c7014cce74622bfe71434f81aba7598ad65126a6aea86945bdfa18d826040516136d09190614bb7565b60405180910390a16136e230826117f7565b506106a6565b60115460ff161561377357604051639ec2b58160e01b81526001600160a01b037f00000000000000000000000000000000000000000000000000000000000000001690639ec2b5819061374090601090600401614a18565b600060405180830381600087803b15801561375a57600080fd5b505af115801561376e573d6000803e3d6000fd5b505050505b600061377d612af1565b80519091506000811580159061379d5750601b54600160a81b900460ff16155b1561384f57600780546000919060001981019081106137b857fe5b6000918252602090912060039091020154601a546040516237b08960e41b81529192506001600160a01b03169063037b0890906137f9908490600401614bb7565b602060405180830381600087803b15801561381357600080fd5b505af1158015613827573d6000803e3d6000fd5b505050506040513d601f19601f8201168201806040525081019061384b9190614718565b9150505b60005b828110156139f257600084828151811061386857fe5b602090810291909101015160115490915060ff16156138fb57600954600a54600b54600c54600d54600e5460405163f7dba1f560e01b81526001600160a01b0388169663f7dba1f5966138c8969195909491939092601090600401614c17565b600060405180830381600087803b1580156138e257600080fd5b505af11580156138f6573d6000803e3d6000fd5b505050505b806001600160a01b031663f670ebe384601b60159054906101000a900460ff168061393e57506001600160a01b0384166000908152601c602052604090205460ff165b6040518363ffffffff1660e01b815260040161395b929190614bc0565b600060405180830381600087803b15801561397557600080fd5b505af1925050508015613986575060015b6139e957613992614d31565b8061399d5750612f60565b7f61156899176547b8075bfa81fa2996c6057ce9c71320884b11c0179d9dc2e462826139c7613c2c565b6040516139d5929190614941565b60405180910390a16139e730826117f7565b505b50600101613852565b506011805460ff191690556000613a07613c2c565b60128190559050613a1781613f93565b6013555050601b805460ff60a01b1916600160a01b1790555050565b88548814613a4e5760088901805460ff191660011790558789555b86896001015414613a715760088901805460ff1916600190811790915589018790555b85896002015414613a935760088901805460ff19166001179055600289018690555b84896003015414613ab55760088901805460ff19166001179055600389018590555b83896004015414613ad75760088901805460ff19166001179055600489018490555b82896005015414613af95760088901805460ff19166001179055600589018390555b81896006015414613b1b5760088901805460ff19166001179055600689018290555b805160078a015414613b51578051613b3c9060078b019060208401906140f2565b5060088901805460ff19166001179055613c10565b60005b8151811015613c0e57818181518110613b6957fe5b60200260200101516001600160a01b03168a6007018281548110613b8957fe5b6000918252602090912001546001600160a01b031614613c065760088a01805460ff191660011790558151829082908110613bc057fe5b60200260200101518a6007018281548110613bd757fe5b9060005260206000200160006101000a8154816001600160a01b0302191690836001600160a01b031602179055505b600101613b54565b505b5050506008909501805461ff0019166101001790555050505050565b60007f00000000000000000000000000000000000000000000000000000000000000007f0000000000000000000000000000000000000000000000000000000000000000420381613c7957fe5b04905090565b806001600160a01b031663555989da6040518163ffffffff1660e01b8152600401600060405180830381600087803b158015613cba57600080fd5b505af1158015613cce573d6000803e3d6000fd5b5050506001600160a01b0382166000908152601c60209081526040808320805460ff1990811690915560169092529091208054909116905550613d17613d12612af1565b614002565b7fa0985424f2efdcae4b57a7c84bbf0a0b19f93054f21e9eb1cfcd5a59813fe1da81600060405161252f929190614b38565b805160005b81811015613dcb5760166000848381518110613d6657fe5b6020908102919091018101516001600160a01b031682528101919091526040016000205460ff16613dc357604051806060016040528060268152602001614e106026913960405162461bcd60e51b8152600401610bb69190614b82565b600101613d4e565b505050565b601254604051639de6f92760e01b81526001600160a01b03831691639de6f92791613dfe9190600401614bb7565b600060405180830381600087803b158015613e1857600080fd5b505af1925050508015613e29575060015b6106a657613e35614d31565b80613e405750612f60565b7f79f4c7cc43bfb79f5a3aad0d92f75b6fed7db061bb5cc2580a01c8132711b881826012546002604051613e7693929190614b53565b60405180910390a1613e8882826117f7565b60125460405163974d7a6b60e01b81526001600160a01b0384169163974d7a6b91613eb69190600401614bb7565b600060405180830381600087803b158015613ed057600080fd5b505af1925050508015613ee1575060015b6136e257613eed614d31565b80613ef85750612f60565b7f79f4c7cc43bfb79f5a3aad0d92f75b6fed7db061bb5cc2580a01c8132711b881836012546003604051613f2e93929190614b53565b60405180910390a1613f4083826117f7565b506136e2565b7f0000000000000000000000000000000000000000000000000000000000000000600182017f00000000000000000000000000000000000000000000000000000000000000000201919050565b7f0000000000000000000000000000000000000000000000000000000000000000600182017f000000000000000000000000000000000000000000000000000000000000000002017f000000000000000000000000000000000000000000000000000000000000000001919050565b805160005b81811015613dcb5761405e83828151811061401e57fe5b60200260200101516001600160a01b03166318931c356040518163ffffffff1660e01b815260040160006040518083038186803b1580156125d457600080fd5b600101614007565b828054600181600116156101000203166002900490600052602060002090601f01602090048101928261409c57600085556140e2565b82601f106140b557805160ff19168380011785556140e2565b828001600101855582156140e2579182015b828111156140e25782518255916020019190600101906140c7565b506140ee929150614147565b5090565b8280548282559060005260206000209081019282156140e2579160200282015b828111156140e257825182546001600160a01b0319166001600160a01b03909116178255602090920191600190910190614112565b5b808211156140ee5760008155600101614148565b600082601f83011261416c578081fd5b8151602061418161417c83614cc1565b614c9e565b828152818101908583018385028701840188101561419d578586fd5b855b858110156141bb5781518452928401929084019060010161419f565b5090979650505050505050565b8035801515811461249257600080fd5b600082601f8301126141e8578081fd5b81516141f661417c82614cde565b81815284602083860101111561420a578283fd5b61421b826020830160208701614cff565b949350505050565b600060208284031215614234578081fd5b813561423f81614dd5565b9392505050565b60008060408385031215614258578081fd5b823561426381614dd5565b915060208301356001600160401b0381111561427d578182fd5b8301601f8101851361428d578182fd5b803561429b61417c82614cde565b8181528660208385010111156142af578384fd5b81602084016020830137908101602001929092525090939092509050565b6000806000606084860312156142e1578081fd5b83516001600160401b03808211156142f7578283fd5b818601915086601f83011261430a578283fd5b8151602061431a61417c83614cc1565b82815281810190858301838502870184018c1015614336578788fd5b8796505b8487101561436157805161434d81614dd5565b83526001969096019591830191830161433a565b509189015191975090935050508082111561437a578283fd5b506143878682870161415c565b925050604084015190509250925092565b600060208083850312156143aa578182fd5b82516001600160401b038111156143bf578283fd5b8301601f810185136143cf578283fd5b80516143dd61417c82614cc1565b81815283810190838501858402850186018910156143f9578687fd5b8694505b8385101561442457805161441081614dd5565b8352600194909401939185019185016143fd565b50979650505050505050565b60006020808385031215614442578182fd5b82516001600160401b03811115614457578283fd5b8301601f81018513614467578283fd5b805161447561417c82614cc1565b81815283810190838501865b848110156144aa576144988a8884518901016141d8565b84529286019290860190600101614481565b509098975050505050505050565b6000602082840312156144c9578081fd5b61423f826141c8565b600080600080600060a086880312156144e9578283fd5b85356144f481614dd5565b9450602086013561450481614dd5565b9350604086013561451481614dd5565b9250606086013561452481614dd5565b9150608086013561453481614dd5565b809150509295509295909350565b60008060408385031215614554578182fd5b823561455f81614dd5565b91506020838101356001600160401b0381111561457a578283fd5b8401601f8101861361458a578283fd5b803561459861417c82614cc1565b81815283810190838501858402850186018a10156145b4578687fd5b8694505b838510156145df5780356145cb81614dd5565b8352600194909401939185019185016145b8565b5080955050505050509250929050565b60008060408385031215614601578182fd5b823561460c81614dd5565b915061461a602084016141c8565b90509250929050565b60008060008060808587031215614638578182fd5b843561464381614dd5565b9350602085013561465381614dd5565b9250614661604086016141c8565b915061466f606086016141c8565b905092959194509250565b6000806040838503121561468c578182fd5b823561469781614dd5565b915060208301356146a781614dd5565b809150509250929050565b6000602082840312156146c3578081fd5b815161423f81614dd5565b6000602082840312156146df578081fd5b81516001600160401b038111156146f4578182fd5b61421b848285016141d8565b600060208284031215614711578081fd5b5035919050565b600060208284031215614729578081fd5b5051919050565b60008060408385031215614742578182fd5b50508035926020909101359150565b60008060408385031215614763578182fd5b505080516020909101519092909150565b600080600080600080600080610100898b031215614790578586fd5b883597506020808a0135975060408a0135965060608a0135955060808a0135945060a08a0135935060c08a0135925060e08a01356001600160401b038111156147d7578283fd5b8a01601f81018c136147e7578283fd5b80356147f561417c82614cc1565b8082825284820191508484018f868786028701011115614813578687fd5b8694505b8385101561483e57803561482a81614dd5565b835260019490940193918501918501614817565b5080955050505050509295985092959890939650565b6000815180845260208085019450808401835b8381101561488c5781516001600160a01b031687529582019590820190600101614867565b509495945050505050565b6000815480845260208085019450838352808320835b8381101561488c5781546001600160a01b0316875295820195600191820191016148ad565b6000815180845260208085019450808401835b8381101561488c578151875295820195908201906001016148e5565b60008151808452614919816020860160208601614cff565b601f01601f19169290920160200192915050565b6001600160a01b0391909116815260200190565b6001600160a01b03929092168252602082015260400190565b6001600160a01b038316815260406020820181905260009061421b90830184614901565b600060018060a01b0385168252836020830152606060408301526149a56060830184614901565b95945050505050565b60006101208083526149c28184018d614854565b905082810360208401526149d6818c6148d2565b604084019a909a52505060608101969096526001600160a01b0394909416608086015260a085019290925260c084015260e08301526101009091015292915050565b60006020825261423f6020830184614897565b60006020825261423f6020830184614854565b600060a08252614a5160a08301886148d2565b602083820381850152614a6482896148d2565b848103604086015287518082529092508183019082810284018301838a01865b83811015614ab257601f19878403018552614aa0838351614901565b94860194925090850190600101614a84565b50508681036060880152614ac6818a614854565b955050505050508260808301529695505050505050565b901515815260200190565b600084151582526020606081840152614b046060840186614854565b8381036040850152845180825282860191830190845b818110156144aa578351151583529284019291840191600101614b1a565b6001600160a01b039290921682521515602082015260400190565b6001600160a01b0384168152602081018390526060810160068310614b7457fe5b826040830152949350505050565b60006020825261423f6020830184614901565b6001600160c01b039290921682526001600160401b0316602082015260400190565b90815260200190565b9182521515602082015260400190565b918252602082015260400190565b9283526020830191909152604082015260600190565b948552602085019390935260408401919091526060830152608082015260a00190565b60008882528760208301528660408301528560608301528460808301528360a083015260e060c0830152614c4e60e0830184614897565b9998505050505050505050565b988952602089019790975260408801959095526060870193909352608086019190915260a085015260c0840152151560e083015215156101008201526101200190565b6040518181016001600160401b0381118282101715614cb957fe5b604052919050565b60006001600160401b03821115614cd457fe5b5060209081020190565b60006001600160401b03821115614cf157fe5b50601f01601f191660200190565b60005b83811015614d1a578181015183820152602001614d02565b83811115612ce05750506000910152565b60e01c90565b600060443d1015614d4157610570565b600481823e6308c379a0614d558251614d2b565b14614d5f57610570565b6040513d600319016004823e80513d6001600160401b038160248401118184111715614d8e5750505050610570565b82840192508251915080821115614da85750505050610570565b503d83016020828401011115614dc057505050610570565b601f01601f1916810160200160405291505090565b6001600160a01b03811681146106a657600080fdfe4d6178207472757374656420616464726573736573206c656e6774682065786365656465644173736574204654534f206e6f74206d616e61676564206279206674736f206d616e61676572a26469706673582212206b7de525b016679e3d8a0befabf40168fb9b105a31c7139cdc1aadb40a224b1564736f6c6343000706003346697273742065706f63682073746172742074696d657374616d7020696e206675747572655265776172642065706f6368206475726174696f6e20636f6e646974696f6e20696e76616c69645265776172642065706f636820737461727420636f6e646974696f6e20696e76616c6964",
  "linkReferences": {},
  "deployedLinkReferences": {}
}