{
  "_format": "hh-sol-artifact-1",
  "contractName": "FtsoManager",
  "sourceName": "contracts/ftso/implementation/FtsoManager.sol",
  "abi": [
    {
      "inputs": [
        {
          "internalType": "address",
          "name": "_governance",
          "type": "address"
        },
        {
          "internalType": "contract FlareDaemon",
          "name": "_flareDaemon",
          "type": "address"
        },
        {
          "internalType": "address",
          "name": "_addressUpdater",
          "type": "address"
        },
        {
          "internalType": "contract IIPriceSubmitter",
          "name": "_priceSubmitter",
          "type": "address"
        },
        {
          "internalType": "contract IIFtsoManagerV1",
          "name": "_oldFtsoManager",
          "type": "address"
        },
        {
          "internalType": "uint256",
          "name": "_firstPriceEpochStartTs",
          "type": "uint256"
        },
        {
          "internalType": "uint256",
          "name": "_priceEpochDurationSeconds",
          "type": "uint256"
        },
        {
          "internalType": "uint256",
          "name": "_revealEpochDurationSeconds",
          "type": "uint256"
        },
        {
          "internalType": "uint256",
          "name": "_firstRewardEpochStartTs",
          "type": "uint256"
        },
        {
          "internalType": "uint256",
          "name": "_rewardEpochDurationSeconds",
          "type": "uint256"
        },
        {
          "internalType": "uint256",
          "name": "_votePowerIntervalFraction",
          "type": "uint256"
        }
      ],
      "stateMutability": "nonpayable",
      "type": "constructor"
    },
    {
      "anonymous": false,
      "inputs": [
        {
          "indexed": false,
          "internalType": "uint256",
          "name": "epochId",
          "type": "uint256"
        }
      ],
      "name": "AccruingUnearnedRewardsFailed",
      "type": "event"
    },
    {
      "anonymous": false,
      "inputs": [
        {
          "indexed": false,
          "internalType": "uint256",
          "name": "blockNumber",
          "type": "uint256"
        }
      ],
      "name": "CleanupBlockNumberManagerFailedForBlock",
      "type": "event"
    },
    {
      "anonymous": false,
      "inputs": [
        {
          "indexed": false,
          "internalType": "uint256",
          "name": "rewardEpoch",
          "type": "uint256"
        }
      ],
      "name": "ClosingExpiredRewardEpochFailed",
      "type": "event"
    },
    {
      "anonymous": false,
      "inputs": [
        {
          "indexed": false,
          "internalType": "address",
          "name": "theContract",
          "type": "address"
        },
        {
          "indexed": false,
          "internalType": "uint256",
          "name": "atBlock",
          "type": "uint256"
        },
        {
          "indexed": false,
          "internalType": "string",
          "name": "theMessage",
          "type": "string"
        }
      ],
      "name": "ContractRevertError",
      "type": "event"
    },
    {
      "anonymous": false,
      "inputs": [
        {
          "indexed": false,
          "internalType": "address",
          "name": "ftso",
          "type": "address"
        },
        {
          "indexed": false,
          "internalType": "uint256",
          "name": "epochId",
          "type": "uint256"
        }
      ],
      "name": "DistributingRewardsFailed",
      "type": "event"
    },
    {
      "anonymous": false,
      "inputs": [
        {
          "indexed": false,
          "internalType": "bool",
          "name": "fallbackMode",
          "type": "bool"
        }
      ],
      "name": "FallbackMode",
      "type": "event"
    },
    {
      "anonymous": false,
      "inputs": [
        {
          "indexed": false,
          "internalType": "contract IIFtso",
          "name": "ftso",
          "type": "address"
        },
        {
          "indexed": false,
          "internalType": "uint256",
          "name": "epochId",
          "type": "uint256"
        },
        {
          "indexed": false,
          "internalType": "enum IFtso.PriceFinalizationType",
          "name": "failingType",
          "type": "uint8"
        }
      ],
      "name": "FinalizingPriceEpochFailed",
      "type": "event"
    },
    {
      "anonymous": false,
      "inputs": [
        {
          "indexed": false,
          "internalType": "contract IIFtso",
          "name": "ftso",
          "type": "address"
        },
        {
          "indexed": false,
          "internalType": "bool",
          "name": "add",
          "type": "bool"
        }
      ],
      "name": "FtsoAdded",
      "type": "event"
    },
    {
      "anonymous": false,
      "inputs": [
        {
          "indexed": false,
          "internalType": "contract IIFtso",
          "name": "ftso",
          "type": "address"
        }
      ],
      "name": "FtsoDeactivationFailed",
      "type": "event"
    },
    {
      "anonymous": false,
      "inputs": [
        {
          "indexed": false,
          "internalType": "contract IIFtso",
          "name": "ftso",
          "type": "address"
        },
        {
          "indexed": false,
          "internalType": "bool",
          "name": "fallbackMode",
          "type": "bool"
        }
      ],
      "name": "FtsoFallbackMode",
      "type": "event"
    },
    {
      "anonymous": false,
      "inputs": [
        {
          "indexed": false,
          "internalType": "address",
          "name": "proposedGovernance",
          "type": "address"
        }
      ],
      "name": "GovernanceProposed",
      "type": "event"
    },
    {
      "anonymous": false,
      "inputs": [
        {
          "indexed": false,
          "internalType": "address",
          "name": "oldGovernance",
          "type": "address"
        },
        {
          "indexed": false,
          "internalType": "address",
          "name": "newGoveranance",
          "type": "address"
        }
      ],
      "name": "GovernanceUpdated",
      "type": "event"
    },
    {
      "anonymous": false,
      "inputs": [
        {
          "indexed": false,
          "internalType": "contract IIFtso",
          "name": "ftso",
          "type": "address"
        },
        {
          "indexed": false,
          "internalType": "uint256",
          "name": "epochId",
          "type": "uint256"
        }
      ],
      "name": "InitializingCurrentEpochStateForRevealFailed",
      "type": "event"
    },
    {
      "anonymous": false,
      "inputs": [
        {
          "indexed": false,
          "internalType": "address",
          "name": "chosenFtso",
          "type": "address"
        },
        {
          "indexed": false,
          "internalType": "uint256",
          "name": "rewardEpochId",
          "type": "uint256"
        }
      ],
      "name": "PriceEpochFinalized",
      "type": "event"
    },
    {
      "anonymous": false,
      "inputs": [
        {
          "indexed": false,
          "internalType": "uint256",
          "name": "votepowerBlock",
          "type": "uint256"
        },
        {
          "indexed": false,
          "internalType": "uint256",
          "name": "startBlock",
          "type": "uint256"
        }
      ],
      "name": "RewardEpochFinalized",
      "type": "event"
    },
    {
      "inputs": [],
      "name": "MAX_TRUSTED_ADDRESSES_LENGTH",
      "outputs": [
        {
          "internalType": "uint256",
          "name": "",
          "type": "uint256"
        }
      ],
      "stateMutability": "view",
      "type": "function"
    },
    {
      "inputs": [],
      "name": "activate",
      "outputs": [],
      "stateMutability": "nonpayable",
      "type": "function"
    },
    {
      "inputs": [],
      "name": "active",
      "outputs": [
        {
          "internalType": "bool",
          "name": "",
          "type": "bool"
        }
      ],
      "stateMutability": "view",
      "type": "function"
    },
    {
      "inputs": [
        {
          "internalType": "contract IIFtso",
          "name": "_ftso",
          "type": "address"
        }
      ],
      "name": "addFtso",
      "outputs": [],
      "stateMutability": "nonpayable",
      "type": "function"
    },
    {
      "inputs": [
        {
          "internalType": "contract IIFtso[]",
          "name": "_ftsos",
          "type": "address[]"
        }
      ],
      "name": "addFtsosBulk",
      "outputs": [],
      "stateMutability": "nonpayable",
      "type": "function"
    },
    {
      "inputs": [
        {
          "internalType": "address",
          "name": "revertedContract",
          "type": "address"
        },
        {
          "internalType": "string",
          "name": "message",
          "type": "string"
        }
      ],
      "name": "addRevertError",
      "outputs": [],
      "stateMutability": "nonpayable",
      "type": "function"
    },
    {
      "inputs": [],
      "name": "claimGovernance",
      "outputs": [],
      "stateMutability": "nonpayable",
      "type": "function"
    },
    {
      "inputs": [],
      "name": "currentRewardEpochEnds",
      "outputs": [
        {
          "internalType": "uint256",
          "name": "",
          "type": "uint256"
        }
      ],
      "stateMutability": "view",
      "type": "function"
    },
    {
      "inputs": [],
      "name": "daemonize",
      "outputs": [
        {
          "internalType": "bool",
          "name": "",
          "type": "bool"
        }
      ],
      "stateMutability": "nonpayable",
      "type": "function"
    },
    {
      "inputs": [
        {
          "internalType": "contract IIFtso[]",
          "name": "_ftsos",
          "type": "address[]"
        }
      ],
      "name": "deactivateFtsos",
      "outputs": [],
      "stateMutability": "nonpayable",
      "type": "function"
    },
    {
      "inputs": [],
      "name": "errorData",
      "outputs": [
        {
          "internalType": "uint192",
          "name": "totalRevertedErrors",
          "type": "uint192"
        },
        {
          "internalType": "uint64",
          "name": "lastErrorTypeIndex",
          "type": "uint64"
        }
      ],
      "stateMutability": "view",
      "type": "function"
    },
    {
      "inputs": [],
      "name": "flareDaemon",
      "outputs": [
        {
          "internalType": "contract FlareDaemon",
          "name": "",
          "type": "address"
        }
      ],
      "stateMutability": "view",
      "type": "function"
    },
    {
      "inputs": [],
      "name": "getAddressUpdater",
      "outputs": [
        {
          "internalType": "address",
          "name": "_addressUpdater",
          "type": "address"
        }
      ],
      "stateMutability": "view",
      "type": "function"
    },
    {
      "inputs": [],
      "name": "getCleanupBlockNumberManager",
      "outputs": [
        {
          "internalType": "contract CleanupBlockNumberManager",
          "name": "",
          "type": "address"
        }
      ],
      "stateMutability": "view",
      "type": "function"
    },
    {
      "inputs": [],
      "name": "getContractName",
      "outputs": [
        {
          "internalType": "string",
          "name": "",
          "type": "string"
        }
      ],
      "stateMutability": "pure",
      "type": "function"
    },
    {
      "inputs": [],
      "name": "getCurrentPriceEpochData",
      "outputs": [
        {
          "internalType": "uint256",
          "name": "_priceEpochId",
          "type": "uint256"
        },
        {
          "internalType": "uint256",
          "name": "_priceEpochStartTimestamp",
          "type": "uint256"
        },
        {
          "internalType": "uint256",
          "name": "_priceEpochEndTimestamp",
          "type": "uint256"
        },
        {
          "internalType": "uint256",
          "name": "_priceEpochRevealEndTimestamp",
          "type": "uint256"
        },
        {
          "internalType": "uint256",
          "name": "_currentTimestamp",
          "type": "uint256"
        }
      ],
      "stateMutability": "view",
      "type": "function"
    },
    {
      "inputs": [],
      "name": "getCurrentPriceEpochId",
      "outputs": [
        {
          "internalType": "uint256",
          "name": "_priceEpochId",
          "type": "uint256"
        }
      ],
      "stateMutability": "view",
      "type": "function"
    },
    {
      "inputs": [],
      "name": "getCurrentRewardEpoch",
      "outputs": [
        {
          "internalType": "uint256",
          "name": "",
          "type": "uint256"
        }
      ],
      "stateMutability": "view",
      "type": "function"
    },
    {
      "inputs": [],
      "name": "getFallbackMode",
      "outputs": [
        {
          "internalType": "bool",
          "name": "_fallbackMode",
          "type": "bool"
        },
        {
          "internalType": "contract IIFtso[]",
          "name": "_ftsos",
          "type": "address[]"
        },
        {
          "internalType": "bool[]",
          "name": "_ftsoInFallbackMode",
          "type": "bool[]"
        }
      ],
      "stateMutability": "view",
      "type": "function"
    },
    {
      "inputs": [],
      "name": "getFtsoRegistry",
      "outputs": [
        {
          "internalType": "contract IIFtsoRegistry",
          "name": "",
          "type": "address"
        }
      ],
      "stateMutability": "view",
      "type": "function"
    },
    {
      "inputs": [],
      "name": "getFtsoRewardManager",
      "outputs": [
        {
          "internalType": "contract IIFtsoRewardManager",
          "name": "",
          "type": "address"
        }
      ],
      "stateMutability": "view",
      "type": "function"
    },
    {
      "inputs": [],
      "name": "getFtsos",
      "outputs": [
        {
          "internalType": "contract IIFtso[]",
          "name": "_ftsos",
          "type": "address[]"
        }
      ],
      "stateMutability": "view",
      "type": "function"
    },
    {
      "inputs": [],
      "name": "getGovernanceParameters",
      "outputs": [
        {
          "internalType": "uint256",
          "name": "_maxVotePowerNatThresholdFraction",
          "type": "uint256"
        },
        {
          "internalType": "uint256",
          "name": "_maxVotePowerAssetThresholdFraction",
          "type": "uint256"
        },
        {
          "internalType": "uint256",
          "name": "_lowAssetUSDThreshold",
          "type": "uint256"
        },
        {
          "internalType": "uint256",
          "name": "_highAssetUSDThreshold",
          "type": "uint256"
        },
        {
          "internalType": "uint256",
          "name": "_highAssetTurnoutThresholdBIPS",
          "type": "uint256"
        },
        {
          "internalType": "uint256",
          "name": "_lowNatTurnoutThresholdBIPS",
          "type": "uint256"
        },
        {
          "internalType": "uint256",
          "name": "_rewardExpiryOffsetSeconds",
          "type": "uint256"
        },
        {
          "internalType": "address[]",
          "name": "_trustedAddresses",
          "type": "address[]"
        },
        {
          "internalType": "bool",
          "name": "_initialized",
          "type": "bool"
        },
        {
          "internalType": "bool",
          "name": "_changed",
          "type": "bool"
        }
      ],
      "stateMutability": "view",
      "type": "function"
    },
    {
      "inputs": [],
      "name": "getLastUnprocessedPriceEpochData",
      "outputs": [
        {
          "internalType": "uint256",
          "name": "_lastUnprocessedPriceEpoch",
          "type": "uint256"
        },
        {
          "internalType": "uint256",
          "name": "_lastUnprocessedPriceEpochRevealEnds",
          "type": "uint256"
        },
        {
          "internalType": "bool",
          "name": "_lastUnprocessedPriceEpochInitialized",
          "type": "bool"
        }
      ],
      "stateMutability": "view",
      "type": "function"
    },
    {
      "inputs": [],
      "name": "getPriceEpochConfiguration",
      "outputs": [
        {
          "internalType": "uint256",
          "name": "_firstPriceEpochStartTs",
          "type": "uint256"
        },
        {
          "internalType": "uint256",
          "name": "_priceEpochDurationSeconds",
          "type": "uint256"
        },
        {
          "internalType": "uint256",
          "name": "_revealEpochDurationSeconds",
          "type": "uint256"
        }
      ],
      "stateMutability": "view",
      "type": "function"
    },
    {
      "inputs": [],
      "name": "getRewardEpochConfiguration",
      "outputs": [
        {
          "internalType": "uint256",
          "name": "_firstRewardEpochStartTs",
          "type": "uint256"
        },
        {
          "internalType": "uint256",
          "name": "_rewardEpochDurationSeconds",
          "type": "uint256"
        }
      ],
      "stateMutability": "view",
      "type": "function"
    },
    {
      "inputs": [
        {
          "internalType": "uint256",
          "name": "_rewardEpochId",
          "type": "uint256"
        }
      ],
      "name": "getRewardEpochData",
      "outputs": [
        {
          "components": [
            {
              "internalType": "uint256",
              "name": "votepowerBlock",
              "type": "uint256"
            },
            {
              "internalType": "uint256",
              "name": "startBlock",
              "type": "uint256"
            },
            {
              "internalType": "uint256",
              "name": "startTimestamp",
              "type": "uint256"
            }
          ],
          "internalType": "struct IIFtsoManager.RewardEpochData",
          "name": "",
          "type": "tuple"
        }
      ],
      "stateMutability": "view",
      "type": "function"
    },
    {
      "inputs": [],
      "name": "getRewardEpochToExpireNext",
      "outputs": [
        {
          "internalType": "uint256",
          "name": "",
          "type": "uint256"
        }
      ],
      "stateMutability": "view",
      "type": "function"
    },
    {
      "inputs": [
        {
          "internalType": "uint256",
          "name": "_rewardEpoch",
          "type": "uint256"
        }
      ],
      "name": "getRewardEpochVotePowerBlock",
      "outputs": [
        {
          "internalType": "uint256",
          "name": "_votepowerBlock",
          "type": "uint256"
        }
      ],
      "stateMutability": "view",
      "type": "function"
    },
    {
      "inputs": [],
      "name": "getSupply",
      "outputs": [
        {
          "internalType": "contract IISupply",
          "name": "",
          "type": "address"
        }
      ],
      "stateMutability": "view",
      "type": "function"
    },
    {
      "inputs": [],
      "name": "getVotePowerIntervalFraction",
      "outputs": [
        {
          "internalType": "uint256",
          "name": "",
          "type": "uint256"
        }
      ],
      "stateMutability": "view",
      "type": "function"
    },
    {
      "inputs": [],
      "name": "getVoterWhitelister",
      "outputs": [
        {
          "internalType": "contract IIVoterWhitelister",
          "name": "",
          "type": "address"
        }
      ],
      "stateMutability": "view",
      "type": "function"
    },
    {
      "inputs": [],
      "name": "governance",
      "outputs": [
        {
          "internalType": "address",
          "name": "",
          "type": "address"
        }
      ],
      "stateMutability": "view",
      "type": "function"
    },
    {
      "inputs": [
        {
          "internalType": "address",
          "name": "_governance",
          "type": "address"
        }
      ],
      "name": "initialise",
      "outputs": [],
      "stateMutability": "nonpayable",
      "type": "function"
    },
    {
      "inputs": [],
      "name": "lastRewardedFtsoAddress",
      "outputs": [
        {
          "internalType": "address",
          "name": "",
          "type": "address"
        }
      ],
      "stateMutability": "view",
      "type": "function"
    },
    {
      "inputs": [
        {
          "internalType": "contract IIFtso",
          "name": "",
          "type": "address"
        }
      ],
      "name": "managedFtsos",
      "outputs": [
        {
          "internalType": "bool",
          "name": "",
          "type": "bool"
        }
      ],
      "stateMutability": "view",
      "type": "function"
    },
    {
      "inputs": [
        {
          "internalType": "contract IIFtso",
          "name": "",
          "type": "address"
        }
      ],
      "name": "notInitializedFtsos",
      "outputs": [
        {
          "internalType": "bool",
          "name": "",
          "type": "bool"
        }
      ],
      "stateMutability": "view",
      "type": "function"
    },
    {
      "inputs": [],
      "name": "oldFtsoManager",
      "outputs": [
        {
          "internalType": "contract IIFtsoManagerV1",
          "name": "",
          "type": "address"
        }
      ],
      "stateMutability": "view",
      "type": "function"
    },
    {
      "inputs": [],
      "name": "priceSubmitter",
      "outputs": [
        {
          "internalType": "contract IIPriceSubmitter",
          "name": "",
          "type": "address"
        }
      ],
      "stateMutability": "view",
      "type": "function"
    },
    {
      "inputs": [
        {
          "internalType": "address",
          "name": "_governance",
          "type": "address"
        }
      ],
      "name": "proposeGovernance",
      "outputs": [],
      "stateMutability": "nonpayable",
      "type": "function"
    },
    {
      "inputs": [],
      "name": "proposedGovernance",
      "outputs": [
        {
          "internalType": "address",
          "name": "",
          "type": "address"
        }
      ],
      "stateMutability": "view",
      "type": "function"
    },
    {
      "inputs": [
        {
          "internalType": "contract IIFtso",
          "name": "_ftso",
          "type": "address"
        }
      ],
      "name": "removeFtso",
      "outputs": [],
      "stateMutability": "nonpayable",
      "type": "function"
    },
    {
      "inputs": [
        {
          "internalType": "contract IIFtso",
          "name": "_ftsoToAdd",
          "type": "address"
        },
        {
          "internalType": "bool",
          "name": "_copyCurrentPrice",
          "type": "bool"
        },
        {
          "internalType": "bool",
          "name": "_copyAssetOrAssetFtsos",
          "type": "bool"
        }
      ],
      "name": "replaceFtso",
      "outputs": [],
      "stateMutability": "nonpayable",
      "type": "function"
    },
    {
      "inputs": [
        {
          "internalType": "contract IIFtso[]",
          "name": "_ftsosToAdd",
          "type": "address[]"
        },
        {
          "internalType": "bool",
          "name": "_copyCurrentPrice",
          "type": "bool"
        },
        {
          "internalType": "bool",
          "name": "_copyAssetOrAssetFtsos",
          "type": "bool"
        }
      ],
      "name": "replaceFtsosBulk",
      "outputs": [],
      "stateMutability": "nonpayable",
      "type": "function"
    },
    {
      "inputs": [
        {
          "internalType": "bool",
          "name": "_fallbackMode",
          "type": "bool"
        }
      ],
      "name": "setFallbackMode",
      "outputs": [],
      "stateMutability": "nonpayable",
      "type": "function"
    },
    {
      "inputs": [
        {
          "internalType": "contract IIFtso",
          "name": "_ftso",
          "type": "address"
        },
        {
          "internalType": "contract IIVPToken",
          "name": "_asset",
          "type": "address"
        }
      ],
      "name": "setFtsoAsset",
      "outputs": [],
      "stateMutability": "nonpayable",
      "type": "function"
    },
    {
      "inputs": [
        {
          "internalType": "contract IIFtso",
          "name": "_ftso",
          "type": "address"
        },
        {
          "internalType": "contract IIFtso[]",
          "name": "_assetFtsos",
          "type": "address[]"
        }
      ],
      "name": "setFtsoAssetFtsos",
      "outputs": [],
      "stateMutability": "nonpayable",
      "type": "function"
    },
    {
      "inputs": [
        {
          "internalType": "contract IIFtso",
          "name": "_ftso",
          "type": "address"
        },
        {
          "internalType": "bool",
          "name": "_fallbackMode",
          "type": "bool"
        }
      ],
      "name": "setFtsoFallbackMode",
      "outputs": [],
      "stateMutability": "nonpayable",
      "type": "function"
    },
    {
      "inputs": [
        {
          "internalType": "uint256",
          "name": "_maxVotePowerNatThresholdFraction",
          "type": "uint256"
        },
        {
          "internalType": "uint256",
          "name": "_maxVotePowerAssetThresholdFraction",
          "type": "uint256"
        },
        {
          "internalType": "uint256",
          "name": "_lowAssetUSDThreshold",
          "type": "uint256"
        },
        {
          "internalType": "uint256",
          "name": "_highAssetUSDThreshold",
          "type": "uint256"
        },
        {
          "internalType": "uint256",
          "name": "_highAssetTurnoutThresholdBIPS",
          "type": "uint256"
        },
        {
          "internalType": "uint256",
          "name": "_lowNatTurnoutThresholdBIPS",
          "type": "uint256"
        },
        {
          "internalType": "uint256",
          "name": "_rewardExpiryOffsetSeconds",
          "type": "uint256"
        },
        {
          "internalType": "address[]",
          "name": "_trustedAddresses",
          "type": "address[]"
        }
      ],
      "name": "setGovernanceParameters",
      "outputs": [],
      "stateMutability": "nonpayable",
      "type": "function"
    },
    {
      "inputs": [
        {
          "internalType": "uint256",
          "name": "_nextRewardEpochToExpire",
          "type": "uint256"
        },
        {
          "internalType": "uint256",
          "name": "_rewardEpochsLength",
          "type": "uint256"
        },
        {
          "internalType": "uint256",
          "name": "_currentRewardEpochEnds",
          "type": "uint256"
        }
      ],
      "name": "setInitialRewardData",
      "outputs": [],
      "stateMutability": "nonpayable",
      "type": "function"
    },
    {
      "inputs": [
        {
          "internalType": "uint256",
          "name": "_rewardEpochDurationSeconds",
          "type": "uint256"
        }
      ],
      "name": "setRewardEpochDurationSeconds",
      "outputs": [],
      "stateMutability": "nonpayable",
      "type": "function"
    },
    {
      "inputs": [
        {
          "internalType": "uint256",
          "name": "_votePowerIntervalFraction",
          "type": "uint256"
        }
      ],
      "name": "setVotePowerIntervalFraction",
      "outputs": [],
      "stateMutability": "nonpayable",
      "type": "function"
    },
    {
      "inputs": [],
      "name": "showLastRevertedError",
      "outputs": [
        {
          "internalType": "uint256[]",
          "name": "_lastErrorBlock",
          "type": "uint256[]"
        },
        {
          "internalType": "uint256[]",
          "name": "_numErrors",
          "type": "uint256[]"
        },
        {
          "internalType": "string[]",
          "name": "_errorString",
          "type": "string[]"
        },
        {
          "internalType": "address[]",
          "name": "_erroringContract",
          "type": "address[]"
        },
        {
          "internalType": "uint256",
          "name": "_totalRevertedErrors",
          "type": "uint256"
        }
      ],
      "stateMutability": "view",
      "type": "function"
    },
    {
      "inputs": [
        {
          "internalType": "uint256",
          "name": "startIndex",
          "type": "uint256"
        },
        {
          "internalType": "uint256",
          "name": "numErrorTypesToShow",
          "type": "uint256"
        }
      ],
      "name": "showRevertedErrors",
      "outputs": [
        {
          "internalType": "uint256[]",
          "name": "_lastErrorBlock",
          "type": "uint256[]"
        },
        {
          "internalType": "uint256[]",
          "name": "_numErrors",
          "type": "uint256[]"
        },
        {
          "internalType": "string[]",
          "name": "_errorString",
          "type": "string[]"
        },
        {
          "internalType": "address[]",
          "name": "_erroringContract",
          "type": "address[]"
        },
        {
          "internalType": "uint256",
          "name": "_totalRevertedErrors",
          "type": "uint256"
        }
      ],
      "stateMutability": "view",
      "type": "function"
    },
    {
      "inputs": [],
      "name": "switchToFallbackMode",
      "outputs": [
        {
          "internalType": "bool",
          "name": "",
          "type": "bool"
        }
      ],
      "stateMutability": "nonpayable",
      "type": "function"
    },
    {
      "inputs": [
        {
          "internalType": "address",
          "name": "_governance",
          "type": "address"
        }
      ],
      "name": "transferGovernance",
      "outputs": [],
      "stateMutability": "nonpayable",
      "type": "function"
    },
    {
      "inputs": [
        {
          "internalType": "bytes32[]",
          "name": "_contractNameHashes",
          "type": "bytes32[]"
        },
        {
          "internalType": "address[]",
          "name": "_contractAddresses",
          "type": "address[]"
        }
      ],
      "name": "updateContractAddresses",
      "outputs": [],
      "stateMutability": "nonpayable",
      "type": "function"
    }
  ],
  "bytecode": "0x6101606040523480156200001257600080fd5b506040516200633938038062006339833981016040819052620000359162000569565b888b8b81806001600160a01b038116156200005557620000558162000461565b506001600160a01b038116620000a5576040805162461bcd60e51b815260206004820152601060248201526f5f676f7665726e616e6365207a65726f60801b604482015290519081900360640190fd5b506001600160a01b038116620000f6576040805162461bcd60e51b8152602060048201526011602482015270666c617265206461656d6f6e207a65726f60781b604482015290519081900360640190fd5b60601b6001600160601b03191660805250620001128162000545565b50854210156040518060400160405280601e81526020017f46697273742065706f636820737461727420747320696e20667574757265000081525090620001775760405162461bcd60e51b81526004016200016e919062000625565b60405180910390fd5b5060408051808201909152600e81526d05265776172642065706f636820360941b602082015282620001be5760405162461bcd60e51b81526004016200016e919062000625565b5060408051808201909152600d81526c050726963652065706f6368203609c1b602082015285620002045760405162461bcd60e51b81526004016200016e919062000625565b5060408051808201909152601481527f52657665616c2070726963652065706f636820300000000000000000000000006020820152846200025a5760405162461bcd60e51b81526004016200016e919062000625565b5060408051808201909152601e81527f566f746520706f77657220696e74657276616c206672616374696f6e20300000602082015281620002b05760405162461bcd60e51b81526004016200016e919062000625565b5060408051808201909152601b81527f52657665616c2070726963652065706f636820746f6f206c6f6e6700000000006020820152858510620003085760405162461bcd60e51b81526004016200016e919062000625565b508284870111156040518060400160405280601b81526020017f5265776172642065706f636820737461727420746f6f20736f6f6e000000000081525090620003665760405162461bcd60e51b81526004016200016e919062000625565b50848685850303816200037557fe5b06600014604051806060016040528060248152602001620063156024913990620003b45760405162461bcd60e51b81526004016200016e919062000625565b50848281620003bf57fe5b06600014604051806060016040528060278152602001620062ee6027913990620003fe5760405162461bcd60e51b81526004016200016e919062000625565b506101008390526016829055601781905560a086905260c085905260e0849052601483905584868403816200042f57fe5b046013555050505050606092831b6001600160601b0319908116610120529190921b1661014052506200069492505050565b600154600160a01b900460ff1615620004c1576040805162461bcd60e51b815260206004820152601460248201527f696e697469616c6973656420213d2066616c7365000000000000000000000000604482015290519081900360640190fd5b6001805460ff60a01b1916600160a01b179055600054604080516001600160a01b039283168152918316602083015280517f434a2db650703b36c824e745330d6397cdaa9ee2cc891a4938ae853e1c50b68d9281900390910190a1600080546001600160a01b039092166001600160a01b0319928316179055600180549091169055565b7f714f205b2abd25bef1d06a1af944e38c113fe6160375c4e1d6d5cf28848e771955565b60008060008060008060008060008060006101608c8e0312156200058b578687fd5b8b5162000598816200067b565b60208d0151909b50620005ab816200067b565b60408d0151909a50620005be816200067b565b60608d0151909950620005d1816200067b565b60808d0151909850620005e4816200067b565b8097505060a08c0151955060c08c0151945060e08c015193506101008c015192506101208c015191506101408c015190509295989b509295989b9093969950565b6000602080835283518082850152825b81811015620006535785810183015185820160400152820162000635565b81811115620006655783604083870101525b50601f01601f1916929092016040019392505050565b6001600160a01b03811681146200069157600080fd5b50565b60805160601c60a05160c05160e051610100516101205160601c6101405160601c615b856200076960003980611b63528061457f525080612125528061304b52806135d55280613b0452508061088e5280612e895280612fa4525080610865528061158552806125535280614b5d5250806107b95280610844528061155452806121a5528061253152806132ee52806146bd52806146fd5280614b3a525080610823528061153352806121c6528061250f52806146985280614b15525080610cd8528061168c5280611eee5250615b856000f3fe608060405234801561001057600080fd5b50600436106103835760003560e01c80638c9d28b6116101de578063d38bfff41161010f578063e59f2fb1116100ad578063f57a6e521161007c578063f57a6e52146106fa578063f5f5ba7214610702578063f937d6ad14610717578063ff882fbb1461071f57610383565b8063e59f2fb1146106c4578063e7c830d4146106cc578063f2edab5a146106d4578063f49066b3146106e757610383565b8063e080a970116100e9578063e080a97014610673578063e22fdece14610686578063e371aef01461068e578063e5399da3146106a457610383565b8063d38bfff414610645578063d429cfe514610658578063d89c39e61461066b57610383565b8063a93a6f421161017c578063b4dba0f311610156578063b4dba0f314610602578063c0ffe9081461060a578063c373a08e1461061d578063ce69f8331461063057610383565b8063a93a6f42146105c9578063af946af7146105dc578063b00c0b76146105ef57610383565b806393a79025116101b857806393a79025146105825780639d6a890f1461059b578063a1077532146105ae578063a670ff87146105b657610383565b80638c9d28b6146105545780638de306b11461055c5780639131205b1461056f57610383565b80635835cf30116102b85780636c9c2faf116102565780636ea0aa31116102305780636ea0aa311461051357806371e1fad914610526578063758ff1da1461052e578063823033a91461054157610383565b80636c9c2faf146104ec5780636ca051e6146104f45780636d0e8c341461050b57610383565b806360f2c5b21161029257806360f2c5b2146104c157806360f7ac97146104c957806369b11ac6146104d15780636b65cc34146104d957610383565b80635835cf30146104935780635aa6e675146104b15780635d36b190146104b957610383565b80632b3c41a4116103255780633758e679116102ff5780633758e679146104595780633e7ff8571461046c5780634b48dd5e146104745780635267a15d1461048b57610383565b80632b3c41a4146104185780632fd8eb7d14610431578063361b54591461044657610383565b8063132c7e1f11610361578063132c7e1f146103c5578063144e1591146103d85780631cb513f7146103ef5780632663f1b41461040557610383565b806302fb0c5e1461038857806308a7f402146103a65780630f15f4c0146103bb575b600080fd5b610390610732565b60405161039d9190615783565b60405180910390f35b6103ae61073b565b60405161039d919061588e565b6103c361074b565b005b6103c36103d33660046153b9565b610762565b6103e0610821565b60405161039d939291906158bd565b6103f7610889565b60405161039d929190615897565b6103c3610413366004614e9d565b6108b0565b6104206108c6565b60405161039d9594939291906156e4565b610439610901565b60405161039d91906155dc565b6103c36104543660046153b9565b610910565b6103c3610467366004615322565b610970565b6103ae610988565b61047c61098e565b60405161039d9392919061578e565b610439610a6a565b61049b610a8f565b60405161039d9a9998979695949392919061593a565b610439610b56565b6103c3610b65565b6103ae610c27565b610439610c2d565b6103ae610c3c565b6103c36104e736600461534f565b610c41565b610439610cab565b6104fc610cba565b60405161039d939291906158a5565b610390610ccb565b6104206105213660046153e9565b610dce565b610439611129565b6103c361053c3660046151ae565b611138565b61039061054f366004614e9d565b611178565b61043961118d565b6103c361056a3660046150e4565b61119c565b6103c361057d366004615485565b61145c565b61058a61151d565b60405161039d9594939291906158d3565b6103c36105a9366004614e9d565b6115b0565b61043961168a565b6103c36105c4366004614e9d565b6116ae565b6103c36105d73660046152ab565b61188b565b6103c36105ea3660046152ee565b6119f3565b6103c36105fd36600461502e565b611aba565b610439611b61565b6103c3610618366004614edc565b611b85565b6103c361062b366004614e9d565b611d5e565b610638611dba565b60405161039d91906156d1565b6103c3610653366004614e9d565b611dc4565b6103c36106663660046150e4565b611e3d565b6103ae611e77565b6103c361068136600461542d565b611e7d565b610390611ee1565b610696611fbf565b60405161039d92919061586c565b6106b76106b23660046153b9565b611fe0565b60405161039d919061584b565b610439612053565b6103ae612062565b6103ae6106e23660046153b9565b6120c8565b6103906106f5366004614e9d565b6120da565b6104396120ef565b61070a6120fe565b60405161039d9190615838565b610439612123565b6103c361072d366004615291565b612147565b60055460ff1681565b60006107456121a1565b90505b90565b6107536121f4565b6005805460ff19166001179055565b61076a6121f4565b60408051808201909152600e81526d05265776172642065706f636820360941b6020820152816107b65760405162461bcd60e51b81526004016107ad9190615838565b60405180910390fd5b507f000000000000000000000000000000000000000000000000000000000000000081816107e057fe5b06600014604051806060016040528060278152602001615b08602791399061081b5760405162461bcd60e51b81526004016107ad9190615838565b50601655565b7f00000000000000000000000000000000000000000000000000000000000000007f00000000000000000000000000000000000000000000000000000000000000007f0000000000000000000000000000000000000000000000000000000000000000909192565b6016547f000000000000000000000000000000000000000000000000000000000000000091565b6108b86121f4565b6108c3816001612247565b50565b6004546060908190819081906000906108f090600160c01b90046001600160401b03166001610dce565b945094509450945094509091929394565b6007546001600160a01b031681565b6109186121f4565b60408051808201909152601e81527f566f746520706f77657220696e74657276616c206672616374696f6e2030000060208201528161096a5760405162461bcd60e51b81526004016107ad9190615838565b50601755565b6109786121f4565b61098383838361280c565b505050565b60185490565b601f54600160a01b900460ff166060806109a6612e06565b8051909250806001600160401b03811180156109c157600080fd5b506040519080825280602002602001820160405280156109eb578160200160208202803683370190505b50915060005b81811015610a635760206000858381518110610a0957fe5b60200260200101516001600160a01b03166001600160a01b0316815260200190815260200160002060009054906101000a900460ff16838281518110610a4b57fe5b911515602092830291909101909101526001016109f1565b5050909192565b7f714f205b2abd25bef1d06a1af944e38c113fe6160375c4e1d6d5cf28848e77195490565b600a54600b54600c54600d54600e54600f54601054601254601180546040805160208084028201810190925282815260009b8c9b8c9b8c9b8c9b8c9b8c9b60609b8d9b8c9b989a979996989597949693959294909360ff61010084048116949316929091859190830182828015610b2f57602002820191906000526020600020905b81546001600160a01b03168152600190910190602001808311610b11575b50505050509250995099509950995099509950995099509950995090919293949596979899565b6000546001600160a01b031681565b6001546001600160a01b03163314610bb4576040805162461bcd60e51b815260206004820152600d60248201526c1b9bdd0818db185a5b585a5b9d609a1b604482015290519081900360640190fd5b600054600154604080516001600160a01b03938416815292909116602083015280517f434a2db650703b36c824e745330d6397cdaa9ee2cc891a4938ae853e1c50b68d9281900390910190a160018054600080546001600160a01b03199081166001600160a01b03841617909155169055565b60175490565b6001546001600160a01b031681565b600581565b610c496121f4565b60405163d0d552dd60e01b81526001600160a01b0383169063d0d552dd90610c759084906004016155dc565b600060405180830381600087803b158015610c8f57600080fd5b505af1158015610ca3573d6000803e3d6000fd5b505050505050565b601e546001600160a01b031690565b60135460145460155460ff16909192565b6000336001600160a01b037f00000000000000000000000000000000000000000000000000000000000000001614610d3e576040805162461bcd60e51b815260206004820152601160248201527037b7363c90333630b932903230b2b6b7b760791b604482015290519081900360640190fd5b60055460ff16610d5057506000610748565b600854610d6457610d5f612e87565b610dc8565b60155460ff168015610d7857504260145411155b15610d8557610d5f612fcb565b60155460ff16158015610d9a57504260095411155b15610db757610da76135bc565b610daf613804565b610d5f613990565b4260145411610dc857610dc8613ae2565b50600190565b606080606080600060038054905087106040518060400160405280601081526020016f0e6e8c2e4e840d2dcc8caf040d0d2ced60831b81525090610e255760405162461bcd60e51b81526004016107ad9190615838565b506003546000908888011115610e4057600354889003610e42565b865b9050806001600160401b0381118015610e5a57600080fd5b50604051908082528060200260200182016040528015610e84578160200160208202803683370190505b509550806001600160401b0381118015610e9d57600080fd5b50604051908082528060200260200182016040528015610ec7578160200160208202803683370190505b509450806001600160401b0381118015610ee057600080fd5b50604051908082528060200260200182016040528015610f1457816020015b6060815260200190600190039081610eff5790505b509350806001600160401b0381118015610f2d57600080fd5b50604051908082528060200260200182016040528015610f57578160200160208202803683370190505b50925060005b8181101561110d5760006003828b0181548110610f7657fe5b6000918252602080832090910154808352600290915260409091205489519192506001600160c01b031690899084908110610fad57fe5b6020026020010181815250506002600082815260200190815260200160002060000160189054906101000a90046001600160401b03166001600160401b0316878381518110610ff857fe5b602090810291909101810191909152600082815260028083526040918290208101805483516001821615610100026000190190911692909204601f8101859004850283018501909352828252909290919083018282801561109a5780601f1061106f5761010080835404028352916020019161109a565b820191906000526020600020905b81548152906001019060200180831161107d57829003601f168201915b50505050508683815181106110ab57fe5b60200260200101819052506002600082815260200190815260200160002060010160009054906101000a90046001600160a01b03168583815181106110ec57fe5b6001600160a01b039092166020928302919091019091015250600101610f5d565b50506004549497939650919450926001600160c01b0316919050565b601d546001600160a01b031690565b6111406121f4565b60005b83518110156111725761116a84828151811061115b57fe5b6020026020010151848461280c565b600101611143565b50505050565b601a6020526000908152604090205460ff1681565b601c546001600160a01b031690565b6111a46121f4565b80515b80156114585780806001900391505060008282815181106111c457fe5b60200260200101519050601c60009054906101000a90046001600160a01b03166001600160a01b03166397da6af4826001600160a01b03166395d89b416040518163ffffffff1660e01b815260040160006040518083038186803b15801561122b57600080fd5b505afa15801561123f573d6000803e3d6000fd5b505050506040513d6000823e601f3d908101601f191682016040526112679190810190615387565b6040518263ffffffff1660e01b81526004016112839190615838565b60206040518083038186803b15801561129b57600080fd5b505afa9250505080156112cb575060408051601f3d908101601f191682019092526112c891810190614ec0565b60015b61136757806001600160a01b031663555989da6040518163ffffffff1660e01b8152600401600060405180830381600087803b15801561130a57600080fd5b505af115801561131e573d6000803e3d6000fd5b5050506001600160a01b038216600090815260208080526040808320805460ff19908116909155601a835281842080548216905560199092529091208054909116905550611452565b816001600160a01b0316816001600160a01b03161461141857816001600160a01b031663555989da6040518163ffffffff1660e01b8152600401600060405180830381600087803b1580156113bb57600080fd5b505af11580156113cf573d6000803e3d6000fd5b5050506001600160a01b038316600090815260208080526040808320805460ff19908116909155601a835281842080548216905560199092529091208054909116905550611450565b7fa2109c8ecab2fa994cb3c911158dfa5c776e8f9052b49782465fc324d5b5c5f98260405161144791906155dc565b60405180910390a15b505b506111a7565b5050565b6114646121f4565b6000881180156114745750600087115b80156114805750858510155b801561148e57506127108411155b801561149c57506127108311155b80156114a85750600082115b80156114b657506005815111155b6040518060400160405280601381526020017211dbdd8b881c185c985b5cc81a5b9d985b1a59606a1b815250906115005760405162461bcd60e51b81526004016107ad9190615838565b50611513600a8989898989898989613e10565b5050505050505050565b60008060008060008061152e6121a1565b9550507f00000000000000000000000000000000000000000000000000000000000000007f0000000000000000000000000000000000000000000000000000000000000000808702820195506001870102019250507f000000000000000000000000000000000000000000000000000000000000000082019050429091929394565b600154600160a01b900460ff1615611606576040805162461bcd60e51b8152602060048201526014602482015273696e697469616c6973656420213d2066616c736560601b604482015290519081900360640190fd5b6001805460ff60a01b1916600160a01b179055600054604080516001600160a01b039283168152918316602083015280517f434a2db650703b36c824e745330d6397cdaa9ee2cc891a4938ae853e1c50b68d9281900390910190a1600080546001600160a01b039092166001600160a01b0319928316179055600180549091169055565b7f000000000000000000000000000000000000000000000000000000000000000081565b6116b66121f4565b6000601c60009054906101000a90046001600160a01b03166001600160a01b031663e848da30836001600160a01b03166395d89b416040518163ffffffff1660e01b815260040160006040518083038186803b15801561171557600080fd5b505afa158015611729573d6000803e3d6000fd5b505050506040513d6000823e601f3d908101601f191682016040526117519190810190615387565b6040518263ffffffff1660e01b815260040161176d9190615838565b60206040518083038186803b15801561178557600080fd5b505afa158015611799573d6000803e3d6000fd5b505050506040513d601f19601f820116820180604052508101906117bd91906153d1565b601d5460405163d873617160e01b81529192506001600160a01b03169063d8736171906117ee90849060040161588e565b600060405180830381600087803b15801561180857600080fd5b505af115801561181c573d6000803e3d6000fd5b5050601c5460405163a670ff8760e01b81526001600160a01b03909116925063a670ff8791506118509085906004016155dc565b600060405180830381600087803b15801561186a57600080fd5b505af115801561187e573d6000803e3d6000fd5b5050505061145882614009565b6118936121f4565b80516040805180820190915260168152754173736574206674736f73206c69737420656d70747960501b6020820152816118e05760405162461bcd60e51b81526004016107ad9190615838565b5060005b81811015611965578281815181106118f857fe5b60200260200101516001600160a01b0316846001600160a01b0316141561195d5760408051808201825260168152756674736f20657175616c73206173736574206674736f60501b6020820152905162461bcd60e51b81526107ad9190600401615838565b6001016118e4565b506001600160a01b03831660009081526019602052604090205460ff16156119905761199082614196565b60405163098fef7160e11b81526001600160a01b0384169063131fdee2906119bc9085906004016156d1565b600060405180830381600087803b1580156119d657600080fd5b505af11580156119ea573d6000803e3d6000fd5b50505050505050565b6119fb6121f4565b6001600160a01b0382166000908152601960209081526040918290205482518084019093526009835268139bdd08199bdd5b9960ba1b9183019190915260ff16611a585760405162461bcd60e51b81526004016107ad9190615838565b506001600160a01b038216600090815260208052604090819020805460ff1916831515179055517f24462ede4d3e8e5a69fecec6290d42a311016ca752216d9a3d681e284791b7ac90611aae90849084906157de565b60405180910390a15050565b611ac2610a6a565b6001600160a01b0316336001600160a01b031614611b1e576040805162461bcd60e51b815260206004820152601460248201527337b7363c9030b2323932b9b9903ab83230ba32b960611b604482015290519081900360640190fd5b611b57611b5283836040518060400160405280600e81526020016d20b2323932b9b9aab83230ba32b960911b81525061422a565b614357565b611458828261437b565b7f000000000000000000000000000000000000000000000000000000000000000081565b60008282604051602001611b9a929190615609565b60408051601f198184030181528282528051602091820120600081815260029092529190208054436001600160c01b038181166001600160401b03600160c01b80860482166001019091160291909316176001600160c01b031916919091179091559092507f1a601cf5e0efbd558b2778b7389af04741d1c49bcab104c40daa2da19459361791611c2e918691869061562d565b60405180910390a1600480546001600160c01b0319811660016001600160c01b03928316810190921617909155600082815260026020526040902054600160c01b90046001600160401b03161115611c865750611458565b6003805460018082019092557fc2575a0e9e593c00f959f8c92f12db2869c3395a3b0502d05e2516446f71f85b01829055600082815260026020818152604090922092830180546001600160a01b0319166001600160a01b0388161790558451611cf69390910191850190614c5c565b50600354600091825260026020526040909120600101805467ffffffffffffffff60a01b1916600160a01b6000199093016001600160401b0390811684029190911791829055600480546001600160c01b03169390920416600160c01b029190911790555050565b611d666121f4565b600180546001600160a01b0383166001600160a01b0319909116811790915560408051918252517f1f95fb40be3a947982072902a887b521248d1d8931a39eb38f84f4d6fd758b699181900360200190a150565b6060610745612e06565b611dcc6121f4565b600054604080516001600160a01b039283168152918316602083015280517f434a2db650703b36c824e745330d6397cdaa9ee2cc891a4938ae853e1c50b68d9281900390910190a1600080546001600160a01b039092166001600160a01b0319928316179055600180549091169055565b611e456121f4565b60005b815181101561145857611e6f828281518110611e6057fe5b60200260200101516001612247565b600101611e48565b60095481565b611e856121f4565b600554604080518082019091526011815270105b1c9958591e481858dd1a5d985d1959607a1b60208201529060ff1615611ed25760405162461bcd60e51b81526004016107ad9190615838565b50601892909255600855600955565b6000336001600160a01b037f00000000000000000000000000000000000000000000000000000000000000001614611f54576040805162461bcd60e51b815260206004820152601160248201527037b7363c90333630b932903230b2b6b7b760791b604482015290519081900360640190fd5b601f54600160a01b900460ff16611fb957601f805460ff60a01b1916600160a01b1790556040517f217a37a37fc40a97159886f80c3d45986e6fc4330ce6ad7283478b5e5ab705bc90611fa990600190615783565b60405180910390a1506001610748565b50600090565b6004546001600160c01b03811690600160c01b90046001600160401b031682565b611fe8614ce8565b60085482106040518060400160405280602081526020017f5265776172642065706f6368206e6f7420696e697469616c697a656420796574815250906120415760405162461bcd60e51b81526004016107ad9190615838565b5061204b82614536565b90505b919050565b601f546001600160a01b031690565b6000600854600014156040518060400160405280602081526020017f5265776172642065706f6368206e6f7420696e697469616c697a656420796574815250906120bf5760405162461bcd60e51b81526004016107ad9190615838565b5061074561463b565b60006120d382611fe0565b5192915050565b60196020526000908152604090205460ff1681565b601b546001600160a01b031690565b60408051808201909152600b81526a233a39b7a6b0b730b3b2b960a91b602082015290565b7f000000000000000000000000000000000000000000000000000000000000000081565b61214f6121f4565b601f805460ff60a01b1916600160a01b831515021790556040517f217a37a37fc40a97159886f80c3d45986e6fc4330ce6ad7283478b5e5ab705bc90612196908390615783565b60405180910390a150565b60007f00000000000000000000000000000000000000000000000000000000000000007f00000000000000000000000000000000000000000000000000000000000000004203816121ee57fe5b04905090565b6000546001600160a01b03163314612245576040805162461bcd60e51b815260206004820152600f60248201526e6f6e6c7920676f7665726e616e636560881b604482015290519081900360640190fd5b565b60125460408051808201909152601b81527f476f762e20706172616d73206e6f7420696e697469616c697a65640000000000602082015290610100900460ff166122a45760405162461bcd60e51b81526004016107ad9190615838565b50612322826001600160a01b03166318931c356040518163ffffffff1660e01b815260040160006040518083038186803b1580156122e157600080fd5b505afa1580156122f5573d6000803e3d6000fd5b505050506040513d6000823e601f3d908101601f1916820160405261231d9190810190615116565b614196565b80156124eb576000826001600160a01b03166395d89b416040518163ffffffff1660e01b815260040160006040518083038186803b15801561236357600080fd5b505afa158015612377573d6000803e3d6000fd5b505050506040513d6000823e601f3d908101601f1916820160405261239f9190810190615387565b6040516020016123af9190615838565b6040516020818303038152906040528051906020012090506000601c60009054906101000a90046001600160a01b03166001600160a01b031663ce1c0e4d6040518163ffffffff1660e01b815260040160006040518083038186803b15801561241757600080fd5b505afa15801561242b573d6000803e3d6000fd5b505050506040513d6000823e601f3d908101601f191682016040526124539190810190615209565b80519091505b80156124e757806001900390508282828151811061247357fe5b602002602001015160405160200161248b9190615838565b6040516020818303038152906040528051906020012014156124e257604080518082018252600d81526c105b1c9958591e481859191959609a1b6020820152905162461bcd60e51b81526107ad9190600401615838565b612459565b5050505b604051630bc29bcf60e21b81526001600160a01b03831690632f0a6f3c9061257b907f0000000000000000000000000000000000000000000000000000000000000000907f0000000000000000000000000000000000000000000000000000000000000000907f0000000000000000000000000000000000000000000000000000000000000000906004016158bd565b600060405180830381600087803b15801561259557600080fd5b505af11580156125a9573d6000803e3d6000fd5b5050505060085460001461262b57816001600160a01b031663e536f3966125d66125d161463b565b614536565b516040516001600160e01b031960e084901b1681526125f8919060040161588e565b600060405180830381600087803b15801561261257600080fd5b505af1158015612626573d6000803e3d6000fd5b505050505b600a54600b54600c54600d54600e54600f5460405163f7dba1f560e01b81526001600160a01b0389169663f7dba1f5966126729691959094919390926011906004016158f6565b600060405180830381600087803b15801561268c57600080fd5b505af11580156126a0573d6000803e3d6000fd5b50506015546001600160a01b038086166000908152601a60209081526040808320805460ff909616151560ff1996871617905560199091528082208054909416600117909355601c549251630998fc6d60e21b815290945091169150632663f1b4906127109086906004016155dc565b602060405180830381600087803b15801561272a57600080fd5b505af115801561273e573d6000803e3d6000fd5b505050506040513d601f19601f8201168201806040525081019061276291906153d1565b905081156127cd57601d54604051630d15c16960e21b81526001600160a01b039091169063345705a49061279a90849060040161588e565b600060405180830381600087803b1580156127b457600080fd5b505af11580156127c8573d6000803e3d6000fd5b505050505b7fa0985424f2efdcae4b57a7c84bbf0a0b19f93054f21e9eb1cfcd5a59813fe1da8360016040516127ff9291906157de565b60405180910390a1505050565b6000601c60009054906101000a90046001600160a01b03166001600160a01b03166397da6af4856001600160a01b03166395d89b416040518163ffffffff1660e01b815260040160006040518083038186803b15801561286b57600080fd5b505afa15801561287f573d6000803e3d6000fd5b505050506040513d6000823e601f3d908101601f191682016040526128a79190810190615387565b6040518263ffffffff1660e01b81526004016128c39190615838565b60206040518083038186803b1580156128db57600080fd5b505afa1580156128ef573d6000803e3d6000fd5b505050506040513d601f19601f820116820180604052508101906129139190614ec0565b905082156129f657600080826001600160a01b031663eb91d37e6040518163ffffffff1660e01b8152600401604080518083038186803b15801561295657600080fd5b505afa15801561296a573d6000803e3d6000fd5b505050506040513d601f19601f8201168201806040525081019061298e919061540a565b60405163306ba25360e01b815291935091506001600160a01b0387169063306ba253906129c19085908590600401615897565b600060405180830381600087803b1580156129db57600080fd5b505af11580156129ef573d6000803e3d6000fd5b5050505050505b8115612bc7576000816001600160a01b0316635c222bad6040518163ffffffff1660e01b815260040160206040518083038186803b158015612a3757600080fd5b505afa158015612a4b573d6000803e3d6000fd5b505050506040513d601f19601f82011682018060405250810190612a6f9190614ec0565b90506001600160a01b03811615612ae35760405163d0d552dd60e01b81526001600160a01b0386169063d0d552dd90612aac9084906004016155dc565b600060405180830381600087803b158015612ac657600080fd5b505af1158015612ada573d6000803e3d6000fd5b50505050612bc5565b6000826001600160a01b03166318931c356040518163ffffffff1660e01b815260040160006040518083038186803b158015612b1e57600080fd5b505afa158015612b32573d6000803e3d6000fd5b505050506040513d6000823e601f3d908101601f19168201604052612b5a9190810190615116565b805190915015612bc35760405163098fef7160e11b81526001600160a01b0387169063131fdee290612b909084906004016156d1565b600060405180830381600087803b158015612baa57600080fd5b505af1158015612bbe573d6000803e3d6000fd5b505050505b505b505b612bd2846000612247565b6000612bdc612e06565b805190915060005b81811015612dfc576000838281518110612bfa57fe5b60200260200101519050306001600160a01b0316816001600160a01b03166311a7aaaa6040518163ffffffff1660e01b815260040160206040518083038186803b158015612c4757600080fd5b505afa158015612c5b573d6000803e3d6000fd5b505050506040513d601f19601f82011682018060405250810190612c7f9190614ec0565b6001600160a01b031614612c935750612df4565b6000816001600160a01b03166318931c356040518163ffffffff1660e01b815260040160006040518083038186803b158015612cce57600080fd5b505afa158015612ce2573d6000803e3d6000fd5b505050506040513d6000823e601f3d908101601f19168201604052612d0a9190810190615116565b80519091508015612df0576000805b82811015612d8857886001600160a01b0316848281518110612d3757fe5b60200260200101516001600160a01b03161415612d80578b848281518110612d5b57fe5b60200260200101906001600160a01b031690816001600160a01b031681525050600191505b600101612d19565b508015612dee5760405163098fef7160e11b81526001600160a01b0385169063131fdee290612dbb9086906004016156d1565b600060405180830381600087803b158015612dd557600080fd5b505af1158015612de9573d6000803e3d6000fd5b505050505b505b5050505b600101612be4565b50610ca383614009565b601c5460408051635200305d60e11b815290516060926001600160a01b03169163a40060ba916004808301926000929190829003018186803b158015612e4b57600080fd5b505afa158015612e5f573d6000803e3d6000fd5b505050506040513d6000823e601f3d908101601f191682016040526107459190810190615116565b7f00000000000000000000000000000000000000000000000000000000000000004210612245576000612eb8612e06565b80516040805160608101825243600019810182526020808301918252428385019081526008805460009081526006909352948220845181559251600180850191909155905160029093019290925583549091019092559293509091905b82811015612f9d57838181518110612f2957fe5b60200260200101516001600160a01b031663e536f39683600001516040518263ffffffff1660e01b8152600401612f60919061588e565b600060405180830381600087803b158015612f7a57600080fd5b505af1158015612f8e573d6000803e3d6000fd5b50505050806001019050612f15565b50506016547f0000000000000000000000000000000000000000000000000000000000000000016009555050565b6000612fd5612e06565b80519091508015801590612ff35750601f54600160a01b900460ff16155b156134d2576007546000906001600160a01b03166130475781444260405160200161301f929190615897565b6040516020818303038152906040528051906020012060001c8161303f57fe5b069050613115565b60007f00000000000000000000000000000000000000000000000000000000000000006001600160a01b031663d89601fd6040518163ffffffff1660e01b815260040160206040518083038186803b1580156130a257600080fd5b505afa1580156130b6573d6000803e3d6000fd5b505050506040513d601f19601f820116820180604052508101906130da91906153d1565b90508281426040516020016130f0929190615897565b6040516020818303038152906040528051906020012060001c8161311057fe5b069150505b60608060008080805b878110156132ba576000888289018161313357fe5b06905060008a828151811061314457fe5b6020908102919091018101516001600160a01b0381166000908152601a90925260409091205490915060ff161561319a576001600160a01b03166000908152601a60205260409020805460ff19169055506132b2565b6013546040516340462a2d60e01b81526001600160a01b038316916340462a2d916131cb9190891590600401615828565b600060405180830381600087803b1580156131e557600080fd5b505af192505050801561321a57506040513d6000823e601f3d908101601f191682016040526132179190810190614f63565b60015b61328557613226615a2c565b806132315750613241565b61323b8282614645565b50613280565b613280816040518060400160405280601881526020017f6572722066696e616c697a652070726963652065706f63680000000000000000815250614645565b6132af565b87158015613294575060008351115b156132ab5791995097509550600194509250828787875b5050505b50505b60010161311e565b5060006132c561463b565b9050821561346957601b546013546001600160a01b039091169063a9b79e1790889088908890877f000000000000000000000000000000000000000000000000000000000000000088600161331985614696565b036133238b614536565b516040516001600160e01b031960e08c901b16815261334d99989796959493929190600401615654565b600060405180830381600087803b15801561336757600080fd5b505af1925050508015613378575060015b61346457613384615a2c565b8061338f57506133e6565b7f175a1d13d190d6a1e14461c214b3ecf6118b828797750b7bffd7c4f2c1eba54c836013546040516133c29291906155f0565b60405180910390a1601b546133e0906001600160a01b031682611b85565b50613464565b7f175a1d13d190d6a1e14461c214b3ecf6118b828797750b7bffd7c4f2c1eba54c826013546040516134199291906155f0565b60405180910390a1601b546040805180820190915260168152756572722064697374726962757465207265776172647360501b6020820152613464916001600160a01b031690611b85565b613471565b6134716146e3565b600780546001600160a01b0319166001600160a01b0384161790556040517f98b050a4042fbd1b89934ef40b9342e593f15081a348af940573a0179031f4ad906134be90849084906155f0565b60405180910390a1505050505050506135ae565b60005b818110156135535760008382815181106134eb57fe5b6020908102919091018101516001600160a01b0381166000908152601a90925260409091205490915060ff1615613540576001600160a01b03166000908152601a60205260409020805460ff1916905561354b565b61354981614867565b505b6001016134d5565b5061355c6146e3565b600780546001600160a01b03191690557f98b050a4042fbd1b89934ef40b9342e593f15081a348af940573a0179031f4ad600061359761463b565b6040516135a59291906155f0565b60405180910390a15b50506015805460ff19169055565b60006135c6612e06565b905060008151905060004290507f00000000000000000000000000000000000000000000000000000000000000006001600160a01b031663d89601fd6040518163ffffffff1660e01b815260040160206040518083038186803b15801561362c57600080fd5b505afa158015613640573d6000803e3d6000fd5b505050506040513d601f19601f8201168201806040525081019061366491906153d1565b60405191019061367890829060200161588e565b6040516020818303038152906040528051906020012060001c905060006017546136a36125d161463b565b602001514303816136b057fe5b049050806136bc575060015b60008183816136c757fe5b069050806136d3575060015b60408051606081018252438381038252602080830191825242838501908152600880546000908152600690935294822084518155925160018085019190915590516002909301929092558354909101909255905b858110156137b05786818151811061373b57fe5b60200260200101516001600160a01b031663e536f39683600001516040518263ffffffff1660e01b8152600401613772919061588e565b600060405180830381600087803b15801561378c57600080fd5b505af11580156137a0573d6000803e3d6000fd5b5050600190920191506137279050565b50805160208201516040517f1813f880dc24666c8b69c9d771a487ea620a27fde1514be3112847056c0c5322926137e8929091615897565b60405180910390a1505060165460098054909101905550505050565b600061380e61463b565b60105490915042035b81601854108015613839575080613832601854600101614536565b6040015111155b1561145857601b54601854604051636b60edf760e11b81526001600160a01b039092169163d6c1dbee9161386f9160040161588e565b600060405180830381600087803b15801561388957600080fd5b505af192505050801561389a575060015b613982576138a6615a2c565b806138b15750613906565b7fa819a21065ad87bdde9e6d398d3213e0d3634afd87aceb7092236483f5d7ca8d6018546040516138e2919061588e565b60405180910390a1601b54613900906001600160a01b031682611b85565b50611458565b7fa819a21065ad87bdde9e6d398d3213e0d3634afd87aceb7092236483f5d7ca8d601854604051613937919061588e565b60405180910390a1601b54604080518082019091526011815270195c9c8818db1bdcd948195e1c1a5c9959607a1b602082015261397d916001600160a01b031690611b85565b611458565b601880546001019055613817565b600061399d601854614536565b51601f5460405163cbc31cf760e01b81529192506001600160a01b03169063cbc31cf7906139cf90849060040161588e565b600060405180830381600087803b1580156139e957600080fd5b505af19250505080156139fa575060015b6108c357613a06615a2c565b80613a115750613a64565b7f9f874ea08c7014cce74622bfe71434f81aba7598ad65126a6aea86945bdfa18d82604051613a40919061588e565b60405180910390a1601f54613a5e906001600160a01b031682611b85565b50613add565b7f9f874ea08c7014cce74622bfe71434f81aba7598ad65126a6aea86945bdfa18d81604051613a93919061588e565b60405180910390a1601f546040805180820190915260158152746572722073657420636c65616e757020626c6f636b60581b6020820152613add916001600160a01b031690611b85565b6108c3565b60125460ff1615613b6d57604051639ec2b58160e01b81526001600160a01b037f00000000000000000000000000000000000000000000000000000000000000001690639ec2b58190613b3a906011906004016156be565b600060405180830381600087803b158015613b5457600080fd5b505af1158015613b68573d6000803e3d6000fd5b505050505b6000613b77612e06565b805190915060008115801590613b975750601f54600160a01b900460ff16155b15613c30576000613ba96125d161463b565b51601e546040516237b08960e41b81529192506001600160a01b03169063037b089090613bda90849060040161588e565b602060405180830381600087803b158015613bf457600080fd5b505af1158015613c08573d6000803e3d6000fd5b505050506040513d601f19601f82011682018060405250810190613c2c91906153d1565b9150505b60005b82811015613dd5576000848281518110613c4957fe5b602090810291909101015160125490915060ff1615613cdc57600a54600b54600c54600d54600e54600f5460405163f7dba1f560e01b81526001600160a01b0388169663f7dba1f596613ca99691959094919390926011906004016158f6565b600060405180830381600087803b158015613cc357600080fd5b505af1158015613cd7573d6000803e3d6000fd5b505050505b806001600160a01b031663f670ebe384601f60149054906101000a900460ff1680613d1e57506001600160a01b038416600090815260208052604090205460ff165b6040518363ffffffff1660e01b8152600401613d3b929190615828565b600060405180830381600087803b158015613d5557600080fd5b505af1925050508015613d66575060015b613dcc57613d72615a2c565b80613d7d5750613d8d565b613d878282614903565b50613dcc565b613dcc816040518060400160405280601981526020017f65727220696e69742065706f636820666f722072657665616c00000000000000815250614903565b50600101613c33565b506012805460ff191690556000613dea6121a1565b60138190559050613dfa81614b13565b60145550506015805460ff191660011790555050565b88548814613e2b5760088901805460ff191660011790558789555b86896001015414613e4e5760088901805460ff1916600190811790915589018790555b85896002015414613e705760088901805460ff19166001179055600289018690555b84896003015414613e925760088901805460ff19166001179055600389018590555b83896004015414613eb45760088901805460ff19166001179055600489018490555b82896005015414613ed65760088901805460ff19166001179055600589018390555b81896006015414613ef85760088901805460ff19166001179055600689018290555b805160078a015414613f2e578051613f199060078b01906020840190614d09565b5060088901805460ff19166001179055613fed565b60005b8151811015613feb57818181518110613f4657fe5b60200260200101516001600160a01b03168a6007018281548110613f6657fe5b6000918252602090912001546001600160a01b031614613fe35760088a01805460ff191660011790558151829082908110613f9d57fe5b60200260200101518a6007018281548110613fb457fe5b9060005260206000200160006101000a8154816001600160a01b0302191690836001600160a01b031602179055505b600101613f31565b505b5050506008909501805461ff0019166101001790555050505050565b6001600160a01b038116600081815260208080526040808320805460ff19908116909155601a83528184208054821690556019835292819020805490931690925581516308d3d55560e11b815291513093926311a7aaaa926004808301939192829003018186803b15801561407d57600080fd5b505afa158015614091573d6000803e3d6000fd5b505050506040513d601f19601f820116820180604052508101906140b59190614ec0565b6001600160a01b0316141561412c57806001600160a01b031663555989da6040518163ffffffff1660e01b8152600401600060405180830381600087803b1580156140ff57600080fd5b505af1158015614113573d6000803e3d6000fd5b50505050614127614122612e06565b614b82565b614164565b7fa2109c8ecab2fa994cb3c911158dfa5c776e8f9052b49782465fc324d5b5c5f98160405161415b91906155dc565b60405180910390a15b7fa0985424f2efdcae4b57a7c84bbf0a0b19f93054f21e9eb1cfcd5a59813fe1da8160006040516121969291906157de565b805160005b8181101561098357601960008483815181106141b357fe5b6020908102919091018101516001600160a01b031682528101919091526040016000205460ff16614222576040805180820182526016815275105cdcd95d08119514d3c81b9bdd081b585b9859d95960521b6020820152905162461bcd60e51b81526107ad9190600401615838565b60010161419b565b600080826040516020018080602001828103825283818151815260200191508051906020019080838360005b8381101561426e578181015183820152602001614256565b50505050905090810190601f16801561429b5780820380516001836020036101000a031916815260200191505b50925050506040516020818303038152906040528051906020012090506000805b8651811015614303578681815181106142d157fe5b60200260200101518314156142fb578581815181106142ec57fe5b60200260200101519150614303565b6001016142bc565b506001600160a01b03811661434e576040805162461bcd60e51b815260206004820152600c60248201526b61646472657373207a65726f60a01b604482015290519081900360640190fd5b95945050505050565b7f714f205b2abd25bef1d06a1af944e38c113fe6160375c4e1d6d5cf28848e771955565b6143af828260405180604001604052806011815260200170233a39b7a932bbb0b93226b0b730b3b2b960791b81525061422a565b601b60006101000a8154816001600160a01b0302191690836001600160a01b0316021790555061440482826040518060400160405280600c81526020016b4674736f526567697374727960a01b81525061422a565b601c60006101000a8154816001600160a01b0302191690836001600160a01b0316021790555061445d82826040518060400160405280601081526020016f2b37ba32b92bb434ba32b634b9ba32b960811b81525061422a565b601d60006101000a8154816001600160a01b0302191690836001600160a01b031602179055506144ac828260405180604001604052806006815260200165537570706c7960d01b81525061422a565b601e60006101000a8154816001600160a01b0302191690836001600160a01b0316021790555061451282826040518060400160405280601981526020017f436c65616e7570426c6f636b4e756d6265724d616e616765720000000000000081525061422a565b601f80546001600160a01b0319166001600160a01b03929092169190911790555050565b61453e614ce8565b50600081815260066020908152604091829020825160608101845281548152600182015492810192909252600201549181018290529061204e5760008060007f00000000000000000000000000000000000000000000000000000000000000006001600160a01b031663a795f409866040518263ffffffff1660e01b81526004016145c9919061588e565b60606040518083038186803b1580156145e157600080fd5b505afa1580156145f5573d6000803e3d6000fd5b505050506040513d601f19601f820116820180604052508101906146199190615458565b6040805160608101825293845260208401929092529082015295945050505050565b6008546000190190565b7f79f4c7cc43bfb79f5a3aad0d92f75b6fed7db061bb5cc2580a01c8132711b88182601354600160405161467b939291906157f9565b60405180910390a161468d8282611b85565b61145882614867565b7f0000000000000000000000000000000000000000000000000000000000000000600182017f00000000000000000000000000000000000000000000000000000000000000000201919050565b601b546013546001600160a01b03909116906367dcac53907f0000000000000000000000000000000000000000000000000000000000000000600161472783614696565b036040518463ffffffff1660e01b8152600401614746939291906158bd565b600060405180830381600087803b15801561476057600080fd5b505af1925050508015614771575060015b6122455761477d615a2c565b8061478857506147dd565b7f8eb60f903ef61e0e490d7d7ba6e5b85cd949ebece7a5e5b3346eb046c041413f6013546040516147b9919061588e565b60405180910390a1601b546147d7906001600160a01b031682611b85565b50614862565b7f8eb60f903ef61e0e490d7d7ba6e5b85cd949ebece7a5e5b3346eb046c041413f60135460405161480e919061588e565b60405180910390a1601b8054604080518082019091529182527f6572722061636372756520756e6561726e6564207265776172647300000000006020830152614862916001600160a01b0390911690611b85565b612245565b60135460405163257ea88160e11b81526001600160a01b03831691634afd510291614895919060040161588e565b600060405180830381600087803b1580156148af57600080fd5b505af19250505080156148c0575060015b6108c3576148cc615a2c565b806148d757506148e1565b613a5e8282614be6565b613add81604051806060016040528060218152602001615b2f60219139614be6565b7f61156899176547b8075bfa81fa2996c6057ce9c71320884b11c0179d9dc2e4628261492d6121a1565b60405161493b9291906155f0565b60405180910390a161494d8282611b85565b601f54600160a01b900460ff168061497c57506001600160a01b038216600090815260208052604090205460ff165b156149a9576001600160a01b0382166000908152601a60205260409020805460ff19166001179055611458565b60405163f670ebe360e01b81526001600160a01b0383169063f670ebe3906149d990600090600190600401615828565b600060405180830381600087803b1580156149f357600080fd5b505af1925050508015614a04575060015b61145857614a10615a2c565b80614a1b5750614a8e565b6001600160a01b0383166000908152601a60205260409020805460ff191660011790557f61156899176547b8075bfa81fa2996c6057ce9c71320884b11c0179d9dc2e46283614a686121a1565b604051614a769291906155f0565b60405180910390a1614a888382611b85565b5061397d565b6001600160a01b0382166000908152601a60205260409020805460ff191660011790557f61156899176547b8075bfa81fa2996c6057ce9c71320884b11c0179d9dc2e46282614adb6121a1565b604051614ae99291906155f0565b60405180910390a161397d82604051806060016040528060228152602001615ae660229139611b85565b7f0000000000000000000000000000000000000000000000000000000000000000600182017f000000000000000000000000000000000000000000000000000000000000000002017f000000000000000000000000000000000000000000000000000000000000000001919050565b805160005b8181101561098357614bde838281518110614b9e57fe5b60200260200101516001600160a01b03166318931c356040518163ffffffff1660e01b815260040160006040518083038186803b1580156122e157600080fd5b600101614b87565b7f79f4c7cc43bfb79f5a3aad0d92f75b6fed7db061bb5cc2580a01c8132711b881826013546002604051614c1c939291906157f9565b60405180910390a1614c2e8282611b85565b60135460405163974d7a6b60e01b81526001600160a01b0384169163974d7a6b91610c75919060040161588e565b828054600181600116156101000203166002900490600052602060002090601f016020900481019282614c925760008555614cd8565b82601f10614cab57805160ff1916838001178555614cd8565b82800160010185558215614cd8579182015b82811115614cd8578251825591602001919060010190614cbd565b50614ce4929150614d5e565b5090565b60405180606001604052806000815260200160008152602001600081525090565b828054828255906000526020600020908101928215614cd8579160200282015b82811115614cd857825182546001600160a01b0319166001600160a01b03909116178255602090920191600190910190614d29565b5b80821115614ce45760008155600101614d5f565b600082601f830112614d83578081fd5b81356020614d98614d93836159bc565b615999565b8281528181019085830183850287018401881015614db4578586fd5b855b85811015614ddb578135614dc981615ad0565b84529284019290840190600101614db6565b5090979650505050505050565b600082601f830112614df8578081fd5b81516020614e08614d93836159bc565b8281528181019085830183850287018401881015614e24578586fd5b855b85811015614ddb57815184529284019290840190600101614e26565b8035801515811461204e57600080fd5b600082601f830112614e62578081fd5b8151614e70614d93826159d9565b818152846020838601011115614e84578283fd5b614e958260208301602087016159fa565b949350505050565b600060208284031215614eae578081fd5b8135614eb981615ad0565b9392505050565b600060208284031215614ed1578081fd5b8151614eb981615ad0565b60008060408385031215614eee578081fd5b8235614ef981615ad0565b915060208301356001600160401b03811115614f13578182fd5b8301601f81018513614f23578182fd5b8035614f31614d93826159d9565b818152866020838501011115614f45578384fd5b81602084016020830137908101602001929092525090939092509050565b600080600060608486031215614f77578081fd5b83516001600160401b0380821115614f8d578283fd5b818601915086601f830112614fa0578283fd5b81516020614fb0614d93836159bc565b82815281810190858301838502870184018c1015614fcc578788fd5b8796505b84871015614ff7578051614fe381615ad0565b835260019690960195918301918301614fd0565b5091890151919750909350505080821115615010578283fd5b5061501d86828701614de8565b925050604084015190509250925092565b60008060408385031215615040578182fd5b82356001600160401b0380821115615056578384fd5b818501915085601f830112615069578384fd5b81356020615079614d93836159bc565b82815281810190858301838502870184018b1015615095578889fd5b8896505b848710156150b7578035835260019690960195918301918301615099565b50965050860135925050808211156150cd578283fd5b506150da85828601614d73565b9150509250929050565b6000602082840312156150f5578081fd5b81356001600160401b0381111561510a578182fd5b614e9584828501614d73565b60006020808385031215615128578182fd5b82516001600160401b0381111561513d578283fd5b8301601f8101851361514d578283fd5b805161515b614d93826159bc565b8181528381019083850185840285018601891015615177578687fd5b8694505b838510156151a257805161518e81615ad0565b83526001949094019391850191850161517b565b50979650505050505050565b6000806000606084860312156151c2578081fd5b83356001600160401b038111156151d7578182fd5b6151e386828701614d73565b9350506151f260208501614e42565b915061520060408501614e42565b90509250925092565b6000602080838503121561521b578182fd5b82516001600160401b03811115615230578283fd5b8301601f81018513615240578283fd5b805161524e614d93826159bc565b81815283810190838501865b84811015615283576152718a888451890101614e52565b8452928601929086019060010161525a565b509098975050505050505050565b6000602082840312156152a2578081fd5b614eb982614e42565b600080604083850312156152bd578182fd5b82356152c881615ad0565b915060208301356001600160401b038111156152e2578182fd5b6150da85828601614d73565b60008060408385031215615300578182fd5b823561530b81615ad0565b915061531960208401614e42565b90509250929050565b600080600060608486031215615336578081fd5b833561534181615ad0565b92506151f260208501614e42565b60008060408385031215615361578182fd5b823561536c81615ad0565b9150602083013561537c81615ad0565b809150509250929050565b600060208284031215615398578081fd5b81516001600160401b038111156153ad578182fd5b614e9584828501614e52565b6000602082840312156153ca578081fd5b5035919050565b6000602082840312156153e2578081fd5b5051919050565b600080604083850312156153fb578182fd5b50508035926020909101359150565b6000806040838503121561541c578182fd5b505080516020909101519092909150565b600080600060608486031215615441578081fd5b505081359360208301359350604090920135919050565b60008060006060848603121561546c578081fd5b8351925060208401519150604084015190509250925092565b600080600080600080600080610100898b0312156154a1578586fd5b883597506020890135965060408901359550606089013594506080890135935060a0890135925060c0890135915060e08901356001600160401b038111156154e7578182fd5b6154f38b828c01614d73565b9150509295985092959890939650565b6000815180845260208085019450808401835b8381101561553b5781516001600160a01b031687529582019590820190600101615516565b509495945050505050565b6000815480845260208085019450838352808320835b8381101561553b5781546001600160a01b03168752958201956001918201910161555c565b6000815180845260208085019450808401835b8381101561553b57815187529582019590820190600101615594565b600081518084526155c88160208601602086016159fa565b601f01601f19169290920160200192915050565b6001600160a01b0391909116815260200190565b6001600160a01b03929092168252602082015260400190565b6001600160a01b0383168152604060208201819052600090614e95908301846155b0565b600060018060a01b03851682528360208301526060604083015261434e60608301846155b0565b60006101208083526156688184018d615503565b9050828103602084015261567c818c615581565b604084019a909a52505060608101969096526001600160a01b0394909416608086015260a085019290925260c084015260e08301526101009091015292915050565b600060208252614eb96020830184615546565b600060208252614eb96020830184615503565b600060a082526156f760a0830188615581565b60208382038185015261570a8289615581565b848103604086015287518082529092508183019082810284018301838a01865b8381101561575857601f198784030185526157468383516155b0565b9486019492509085019060010161572a565b5050868103606088015261576c818a615503565b955050505050508260808301529695505050505050565b901515815260200190565b6000841515825260206060818401526157aa6060840186615503565b8381036040850152845180825282860191830190845b818110156152835783511515835292840192918401916001016157c0565b6001600160a01b039290921682521515602082015260400190565b6001600160a01b038416815260208101839052606081016006831061581a57fe5b826040830152949350505050565b9182521515602082015260400190565b600060208252614eb960208301846155b0565b81518152602080830151908201526040918201519181019190915260600190565b6001600160c01b039290921682526001600160401b0316602082015260400190565b90815260200190565b918252602082015260400190565b92835260208301919091521515604082015260600190565b9283526020830191909152604082015260600190565b948552602085019390935260408401919091526060830152608082015260a00190565b60008882528760208301528660408301528560608301528460808301528360a083015260e060c083015261592d60e0830184615546565b9998505050505050505050565b60006101408c83528b60208401528a60408401528960608401528860808401528760a08401528660c08401528060e084015261597881840187615503565b94151561010084015250509015156101209091015298975050505050505050565b6040518181016001600160401b03811182821017156159b457fe5b604052919050565b60006001600160401b038211156159cf57fe5b5060209081020190565b60006001600160401b038211156159ec57fe5b50601f01601f191660200190565b60005b83811015615a155781810151838201526020016159fd565b838111156111725750506000910152565b60e01c90565b600060443d1015615a3c57610748565b600481823e6308c379a0615a508251615a26565b14615a5a57610748565b6040513d600319016004823e80513d6001600160401b038160248401118184111715615a895750505050610748565b82840192508251915080821115615aa35750505050610748565b503d83016020828401011115615abb57505050610748565b601f01601f1916810160200160405291505090565b6001600160a01b03811681146108c357600080fdfe6572722066616c6c6261636b20696e69742065706f636820666f722072657665616c5265776172642065706f6368206475726174696f6e20636f6e646974696f6e20696e76616c69646572722066616c6c6261636b2066696e616c697a652070726963652065706f6368a2646970667358221220e0206453a448c42d3a5474652c5c770e27ff7af16760889216d855c9140a540c64736f6c634300070600335265776172642065706f6368206475726174696f6e20636f6e646974696f6e20696e76616c69645265776172642065706f636820737461727420636f6e646974696f6e20696e76616c6964",
  "linkReferences": {},
  "deployedLinkReferences": {}
}