{
  "_format": "hh-sol-artifact-1",
  "contractName": "TransferToWnatMock",
  "sourceName": "contracts/token/mock/TransferToWnatMock.sol",
  "abi": [
    {
      "inputs": [
        {
          "internalType": "address payable",
          "name": "wNat",
          "type": "address"
        },
        {
          "internalType": "uint256",
          "name": "amount",
          "type": "uint256"
        }
      ],
      "name": "depositToWnat",
      "outputs": [],
      "stateMutability": "nonpayable",
      "type": "function"
    },
    {
      "inputs": [
        {
          "internalType": "address payable",
          "name": "wNat",
          "type": "address"
        },
        {
          "internalType": "uint256",
          "name": "amount",
          "type": "uint256"
        }
      ],
      "name": "transferToWnat",
      "outputs": [],
      "stateMutability": "nonpayable",
      "type": "function"
    },
    {
      "stateMutability": "payable",
      "type": "receive"
    }
  ],
  "bytecode": "0x608060405234801561001057600080fd5b50610176806100206000396000f3fe60806040526004361061002d5760003560e01c80635c7de19214610039578063c716e8701461007457610034565b3661003457005b600080fd5b34801561004557600080fd5b506100726004803603604081101561005c57600080fd5b506001600160a01b0381351690602001356100ad565b005b34801561008057600080fd5b506100726004803603604081101561009757600080fd5b506001600160a01b038135169060200135610105565b816001600160a01b031663d0e30db0826040518263ffffffff1660e01b81526004016000604051808303818588803b1580156100e857600080fd5b505af11580156100fc573d6000803e3d6000fd5b50505050505050565b6040516001600160a01b0383169082156108fc029083906000818181858888f1935050505015801561013b573d6000803e3d6000fd5b50505056fea2646970667358221220d7587142cfe83ad7ae47c6ea92bb2adc37dcae6106fea49117174b14cf39b55964736f6c63430007060033",
  "linkReferences": {},
  "deployedLinkReferences": {}
}