{
  "_format": "hh-sol-artifact-1",
  "contractName": "DistributionToDelegators",
  "sourceName": "contracts/tokenPools/implementation/DistributionToDelegators.sol",
  "abi": [
    {
      "inputs": [
        {
          "internalType": "address",
          "name": "_governance",
          "type": "address"
        },
        {
          "internalType": "address",
          "name": "_addressUpdater",
          "type": "address"
        },
        {
          "internalType": "contract IPriceSubmitter",
          "name": "_priceSubmitter",
          "type": "address"
        },
        {
          "internalType": "contract DistributionTreasury",
          "name": "_treasury",
          "type": "address"
        },
        {
          "internalType": "uint256",
          "name": "_totalEntitlementWei",
          "type": "uint256"
        }
      ],
      "stateMutability": "nonpayable",
      "type": "constructor"
    },
    {
      "anonymous": false,
      "inputs": [
        {
          "indexed": true,
          "internalType": "address",
          "name": "whoClaimed",
          "type": "address"
        },
        {
          "indexed": true,
          "internalType": "address",
          "name": "sentTo",
          "type": "address"
        },
        {
          "indexed": false,
          "internalType": "uint256",
          "name": "month",
          "type": "uint256"
        },
        {
          "indexed": false,
          "internalType": "uint256",
          "name": "amountWei",
          "type": "uint256"
        }
      ],
      "name": "AccountClaimed",
      "type": "event"
    },
    {
      "anonymous": false,
      "inputs": [
        {
          "indexed": true,
          "internalType": "address",
          "name": "theAccount",
          "type": "address"
        },
        {
          "indexed": false,
          "internalType": "bool",
          "name": "confirmed",
          "type": "bool"
        }
      ],
      "name": "AccountOptOut",
      "type": "event"
    },
    {
      "anonymous": false,
      "inputs": [],
      "name": "EntitlementStarted",
      "type": "event"
    },
    {
      "anonymous": false,
      "inputs": [
        {
          "indexed": false,
          "internalType": "address",
          "name": "proposedGovernance",
          "type": "address"
        }
      ],
      "name": "GovernanceProposed",
      "type": "event"
    },
    {
      "anonymous": false,
      "inputs": [
        {
          "indexed": false,
          "internalType": "address",
          "name": "oldGovernance",
          "type": "address"
        },
        {
          "indexed": false,
          "internalType": "address",
          "name": "newGoveranance",
          "type": "address"
        }
      ],
      "name": "GovernanceUpdated",
      "type": "event"
    },
    {
      "inputs": [
        {
          "internalType": "address payable",
          "name": "_recipient",
          "type": "address"
        },
        {
          "internalType": "uint256",
          "name": "_month",
          "type": "uint256"
        }
      ],
      "name": "claim",
      "outputs": [
        {
          "internalType": "uint256",
          "name": "_amountWei",
          "type": "uint256"
        }
      ],
      "stateMutability": "nonpayable",
      "type": "function"
    },
    {
      "inputs": [],
      "name": "claimGovernance",
      "outputs": [],
      "stateMutability": "nonpayable",
      "type": "function"
    },
    {
      "inputs": [
        {
          "internalType": "uint256",
          "name": "_month",
          "type": "uint256"
        }
      ],
      "name": "claimToPersonalDelegationAccount",
      "outputs": [
        {
          "internalType": "uint256",
          "name": "_amountWei",
          "type": "uint256"
        }
      ],
      "stateMutability": "nonpayable",
      "type": "function"
    },
    {
      "inputs": [
        {
          "internalType": "address[]",
          "name": "_optOutAddresses",
          "type": "address[]"
        }
      ],
      "name": "confirmOptOutOfAirdrop",
      "outputs": [],
      "stateMutability": "nonpayable",
      "type": "function"
    },
    {
      "inputs": [],
      "name": "delegationAccountManager",
      "outputs": [
        {
          "internalType": "contract DelegationAccountManager",
          "name": "",
          "type": "address"
        }
      ],
      "stateMutability": "view",
      "type": "function"
    },
    {
      "inputs": [
        {
          "internalType": "uint256",
          "name": "",
          "type": "uint256"
        }
      ],
      "name": "endBlockNumber",
      "outputs": [
        {
          "internalType": "uint256",
          "name": "",
          "type": "uint256"
        }
      ],
      "stateMutability": "view",
      "type": "function"
    },
    {
      "inputs": [],
      "name": "entitlementStartTs",
      "outputs": [
        {
          "internalType": "uint256",
          "name": "",
          "type": "uint256"
        }
      ],
      "stateMutability": "view",
      "type": "function"
    },
    {
      "inputs": [],
      "name": "getAddressUpdater",
      "outputs": [
        {
          "internalType": "address",
          "name": "_addressUpdater",
          "type": "address"
        }
      ],
      "stateMutability": "view",
      "type": "function"
    },
    {
      "inputs": [
        {
          "internalType": "uint256",
          "name": "_month",
          "type": "uint256"
        }
      ],
      "name": "getClaimableAmount",
      "outputs": [
        {
          "internalType": "uint256",
          "name": "_amountWei",
          "type": "uint256"
        }
      ],
      "stateMutability": "view",
      "type": "function"
    },
    {
      "inputs": [
        {
          "internalType": "address",
          "name": "_account",
          "type": "address"
        },
        {
          "internalType": "uint256",
          "name": "_month",
          "type": "uint256"
        }
      ],
      "name": "getClaimableAmountOf",
      "outputs": [
        {
          "internalType": "uint256",
          "name": "_amountWei",
          "type": "uint256"
        }
      ],
      "stateMutability": "view",
      "type": "function"
    },
    {
      "inputs": [
        {
          "internalType": "uint256",
          "name": "_month",
          "type": "uint256"
        }
      ],
      "name": "getClaimedAmount",
      "outputs": [
        {
          "internalType": "uint256",
          "name": "_amountWei",
          "type": "uint256"
        }
      ],
      "stateMutability": "view",
      "type": "function"
    },
    {
      "inputs": [
        {
          "internalType": "address",
          "name": "_account",
          "type": "address"
        },
        {
          "internalType": "uint256",
          "name": "_month",
          "type": "uint256"
        }
      ],
      "name": "getClaimedAmountOf",
      "outputs": [
        {
          "internalType": "uint256",
          "name": "_amountWei",
          "type": "uint256"
        }
      ],
      "stateMutability": "view",
      "type": "function"
    },
    {
      "inputs": [],
      "name": "getCurrentMonth",
      "outputs": [
        {
          "internalType": "uint256",
          "name": "_currentMonth",
          "type": "uint256"
        }
      ],
      "stateMutability": "view",
      "type": "function"
    },
    {
      "inputs": [],
      "name": "getMonthToExpireNext",
      "outputs": [
        {
          "internalType": "uint256",
          "name": "_monthToExpireNext",
          "type": "uint256"
        }
      ],
      "stateMutability": "view",
      "type": "function"
    },
    {
      "inputs": [],
      "name": "getTokenPoolSupplyData",
      "outputs": [
        {
          "internalType": "uint256",
          "name": "_lockedFundsWei",
          "type": "uint256"
        },
        {
          "internalType": "uint256",
          "name": "_totalInflationAuthorizedWei",
          "type": "uint256"
        },
        {
          "internalType": "uint256",
          "name": "_totalClaimedWei",
          "type": "uint256"
        }
      ],
      "stateMutability": "nonpayable",
      "type": "function"
    },
    {
      "inputs": [],
      "name": "governance",
      "outputs": [
        {
          "internalType": "address",
          "name": "",
          "type": "address"
        }
      ],
      "stateMutability": "view",
      "type": "function"
    },
    {
      "inputs": [
        {
          "internalType": "address",
          "name": "_governance",
          "type": "address"
        }
      ],
      "name": "initialise",
      "outputs": [],
      "stateMutability": "nonpayable",
      "type": "function"
    },
    {
      "inputs": [
        {
          "internalType": "address",
          "name": "",
          "type": "address"
        }
      ],
      "name": "optOut",
      "outputs": [
        {
          "internalType": "bool",
          "name": "",
          "type": "bool"
        }
      ],
      "stateMutability": "view",
      "type": "function"
    },
    {
      "inputs": [
        {
          "internalType": "uint256",
          "name": "",
          "type": "uint256"
        }
      ],
      "name": "optOutAddresses",
      "outputs": [
        {
          "internalType": "address",
          "name": "",
          "type": "address"
        }
      ],
      "stateMutability": "view",
      "type": "function"
    },
    {
      "inputs": [
        {
          "internalType": "address",
          "name": "",
          "type": "address"
        }
      ],
      "name": "optOutCandidate",
      "outputs": [
        {
          "internalType": "bool",
          "name": "",
          "type": "bool"
        }
      ],
      "stateMutability": "view",
      "type": "function"
    },
    {
      "inputs": [],
      "name": "optOutOfAirdrop",
      "outputs": [],
      "stateMutability": "nonpayable",
      "type": "function"
    },
    {
      "inputs": [],
      "name": "priceSubmitter",
      "outputs": [
        {
          "internalType": "contract IPriceSubmitter",
          "name": "",
          "type": "address"
        }
      ],
      "stateMutability": "view",
      "type": "function"
    },
    {
      "inputs": [
        {
          "internalType": "address",
          "name": "_governance",
          "type": "address"
        }
      ],
      "name": "proposeGovernance",
      "outputs": [],
      "stateMutability": "nonpayable",
      "type": "function"
    },
    {
      "inputs": [],
      "name": "proposedGovernance",
      "outputs": [
        {
          "internalType": "address",
          "name": "",
          "type": "address"
        }
      ],
      "stateMutability": "view",
      "type": "function"
    },
    {
      "inputs": [],
      "name": "secondsTillNextClaim",
      "outputs": [
        {
          "internalType": "uint256",
          "name": "_timeTill",
          "type": "uint256"
        }
      ],
      "stateMutability": "view",
      "type": "function"
    },
    {
      "inputs": [
        {
          "internalType": "uint256",
          "name": "_entitlementStartTs",
          "type": "uint256"
        }
      ],
      "name": "setEntitlementStart",
      "outputs": [],
      "stateMutability": "nonpayable",
      "type": "function"
    },
    {
      "inputs": [
        {
          "internalType": "uint256",
          "name": "",
          "type": "uint256"
        }
      ],
      "name": "startBlockNumber",
      "outputs": [
        {
          "internalType": "uint256",
          "name": "",
          "type": "uint256"
        }
      ],
      "stateMutability": "view",
      "type": "function"
    },
    {
      "inputs": [],
      "name": "stop",
      "outputs": [],
      "stateMutability": "nonpayable",
      "type": "function"
    },
    {
      "inputs": [],
      "name": "stopped",
      "outputs": [
        {
          "internalType": "bool",
          "name": "",
          "type": "bool"
        }
      ],
      "stateMutability": "view",
      "type": "function"
    },
    {
      "inputs": [],
      "name": "supply",
      "outputs": [
        {
          "internalType": "contract Supply",
          "name": "",
          "type": "address"
        }
      ],
      "stateMutability": "view",
      "type": "function"
    },
    {
      "inputs": [
        {
          "internalType": "uint256",
          "name": "",
          "type": "uint256"
        }
      ],
      "name": "totalAvailableAmount",
      "outputs": [
        {
          "internalType": "uint256",
          "name": "",
          "type": "uint256"
        }
      ],
      "stateMutability": "view",
      "type": "function"
    },
    {
      "inputs": [],
      "name": "totalBurnedWei",
      "outputs": [
        {
          "internalType": "uint256",
          "name": "",
          "type": "uint256"
        }
      ],
      "stateMutability": "view",
      "type": "function"
    },
    {
      "inputs": [],
      "name": "totalClaimedWei",
      "outputs": [
        {
          "internalType": "uint256",
          "name": "",
          "type": "uint256"
        }
      ],
      "stateMutability": "view",
      "type": "function"
    },
    {
      "inputs": [],
      "name": "totalDistributableAmount",
      "outputs": [
        {
          "internalType": "uint256",
          "name": "",
          "type": "uint256"
        }
      ],
      "stateMutability": "view",
      "type": "function"
    },
    {
      "inputs": [],
      "name": "totalEntitlementWei",
      "outputs": [
        {
          "internalType": "uint256",
          "name": "",
          "type": "uint256"
        }
      ],
      "stateMutability": "view",
      "type": "function"
    },
    {
      "inputs": [
        {
          "internalType": "uint256",
          "name": "",
          "type": "uint256"
        }
      ],
      "name": "totalUnclaimedAmount",
      "outputs": [
        {
          "internalType": "uint256",
          "name": "",
          "type": "uint256"
        }
      ],
      "stateMutability": "view",
      "type": "function"
    },
    {
      "inputs": [
        {
          "internalType": "uint256",
          "name": "",
          "type": "uint256"
        }
      ],
      "name": "totalUnclaimedWeight",
      "outputs": [
        {
          "internalType": "uint256",
          "name": "",
          "type": "uint256"
        }
      ],
      "stateMutability": "view",
      "type": "function"
    },
    {
      "inputs": [
        {
          "internalType": "address",
          "name": "_governance",
          "type": "address"
        }
      ],
      "name": "transferGovernance",
      "outputs": [],
      "stateMutability": "nonpayable",
      "type": "function"
    },
    {
      "inputs": [],
      "name": "treasury",
      "outputs": [
        {
          "internalType": "contract DistributionTreasury",
          "name": "",
          "type": "address"
        }
      ],
      "stateMutability": "view",
      "type": "function"
    },
    {
      "inputs": [
        {
          "internalType": "bytes32[]",
          "name": "_contractNameHashes",
          "type": "bytes32[]"
        },
        {
          "internalType": "address[]",
          "name": "_contractAddresses",
          "type": "address[]"
        }
      ],
      "name": "updateContractAddresses",
      "outputs": [],
      "stateMutability": "nonpayable",
      "type": "function"
    },
    {
      "inputs": [
        {
          "internalType": "uint256",
          "name": "",
          "type": "uint256"
        },
        {
          "internalType": "uint256",
          "name": "",
          "type": "uint256"
        }
      ],
      "name": "votePowerBlockNumbers",
      "outputs": [
        {
          "internalType": "uint256",
          "name": "",
          "type": "uint256"
        }
      ],
      "stateMutability": "view",
      "type": "function"
    },
    {
      "inputs": [],
      "name": "wNat",
      "outputs": [
        {
          "internalType": "contract WNat",
          "name": "",
          "type": "address"
        }
      ],
      "stateMutability": "view",
      "type": "function"
    },
    {
      "stateMutability": "payable",
      "type": "receive"
    }
  ],
  "bytecode": "0x60c06040523480156200001157600080fd5b506040516200376438038062003764833981810160405260a08110156200003757600080fd5b508051602082015160408301516060840151608090940151929391929091908385806001600160a01b038116156200007457620000748162000233565b506001600160a01b038116620000c4576040805162461bcd60e51b815260206004820152601060248201526f5f676f7665726e616e6365207a65726f60801b604482015290519081900360640190fd5b506001600255620000d58162000317565b5060408051808201909152600c81526b61646472657373207a65726f60a01b60208201526001600160a01b0384166200018f5760405162461bcd60e51b81526004018080602001828103825283818151815260200191508051906020019080838360005b838110156200015357818101518382015260200162000139565b50505050905090810190601f168015620001815780820380516001836020036101000a031916815260200191505b509250505060405180910390fd5b5060408051808201909152600c81526b61646472657373207a65726f60a01b60208201526001600160a01b0383166200020b5760405162461bcd60e51b81526020600482018181528351602484015283519092839260449091019190850190808383600083156200015357818101518382015260200162000139565b506001600160601b0319606093841b81166080529190921b1660a052600355506200033b9050565b600154600160a01b900460ff161562000293576040805162461bcd60e51b815260206004820152601460248201527f696e697469616c6973656420213d2066616c7365000000000000000000000000604482015290519081900360640190fd5b6001805460ff60a01b1916600160a01b179055600054604080516001600160a01b039283168152918316602083015280517f434a2db650703b36c824e745330d6397cdaa9ee2cc891a4938ae853e1c50b68d9281900390910190a1600080546001600160a01b039092166001600160a01b0319928316179055600180549091169055565b7f714f205b2abd25bef1d06a1af944e38c113fe6160375c4e1d6d5cf28848e771955565b60805160601c60a05160601c6133eb620003796000398061028952806112aa5280611bf45280612ded525080611de45280612c1252506133eb6000f3fe6080604052600436106102555760003560e01c80639d6a890f11610139578063d9d065c1116100b6578063e60eb6ff1161007a578063e60eb6ff146109dc578063f12d31ae146109f1578063f1e01c2214610a1b578063f2325e3814610a45578063f2a1f76714610a5a578063f937d6ad14610a6f57610335565b8063d9d065c11461091f578063dcce6c0a14610949578063ddd1b67e14610973578063e28ef1f714610988578063e4c1e96c146109b257610335565b8063af3267fe116100fd578063af3267fe1461073d578063b00c0b7614610752578063c373a08e14610886578063d38bfff4146108b9578063d4610483146108ec57610335565b80639d6a890f146106925780639edbf007146106c55780639f71043e146106da578063aa7579ac146106ef578063aad3ec961461070457610335565b8063429c6e5b116101d257806360f7ac971161019657806360f7ac97146105d557806361a30370146105ea57806361d027b31461061457806375f12b21146106295780637d8ca2421461063e57806389e6faa61461066857610335565b8063429c6e5b146105575780634bb5696a146105815780635267a15d146105965780635aa6e675146105ab5780635d36b190146105c057610335565b8063220c1c1611610219578063220c1c16146103f7578063257a7ee2146104745780632dafdbbf146104a45780632e658452146104d757806333cd24001461051057610335565b8063023666481461033a5780630421a17614610361578063047fc9aa1461039a57806307da68f5146103cb57806307e41fe8146103e257610335565b366103355760408051808201909152600d81526c7472656173757279206f6e6c7960981b6020820152336001600160a01b037f000000000000000000000000000000000000000000000000000000000000000016146103325760405162461bcd60e51b81526004018080602001828103825283818151815260200191508051906020019080838360005b838110156102f75781810151838201526020016102df565b50505050905090810190601f1680156103245780820380516001836020036101000a031916815260200191505b509250505060405180910390fd5b50005b600080fd5b34801561034657600080fd5b5061034f610a84565b60408051918252519081900360200190f35b34801561036d57600080fd5b5061034f6004803603604081101561038457600080fd5b506001600160a01b038135169060200135610a8a565b3480156103a657600080fd5b506103af610b3d565b604080516001600160a01b039092168252519081900360200190f35b3480156103d757600080fd5b506103e0610b4c565b005b3480156103ee57600080fd5b506103af610b63565b34801561040357600080fd5b506103e06004803603602081101561041a57600080fd5b81019060208101813564010000000081111561043557600080fd5b82018360208201111561044757600080fd5b8035906020019184602083028401116401000000008311171561046957600080fd5b509092509050610b72565b34801561048057600080fd5b5061034f6004803603604081101561049757600080fd5b5080359060200135610d68565b3480156104b057600080fd5b506104b9610d99565b60408051938452602084019290925282820152519081900360600190f35b3480156104e357600080fd5b5061034f600480360360408110156104fa57600080fd5b506001600160a01b038135169060200135610ed3565b34801561051c57600080fd5b506105436004803603602081101561053357600080fd5b50356001600160a01b0316610f6c565b604080519115158252519081900360200190f35b34801561056357600080fd5b5061034f6004803603602081101561057a57600080fd5b5035610f81565b34801561058d57600080fd5b5061034f611026565b3480156105a257600080fd5b506103af611179565b3480156105b757600080fd5b506103af61119e565b3480156105cc57600080fd5b506103e06111ad565b3480156105e157600080fd5b506103af61126f565b3480156105f657600080fd5b506103af6004803603602081101561060d57600080fd5b503561127e565b34801561062057600080fd5b506103af6112a8565b34801561063557600080fd5b506105436112cc565b34801561064a57600080fd5b5061034f6004803603602081101561066157600080fd5b50356112d5565b34801561067457600080fd5b5061034f6004803603602081101561068b57600080fd5b503561136d565b34801561069e57600080fd5b506103e0600480360360208110156106b557600080fd5b50356001600160a01b031661137f565b3480156106d157600080fd5b506103af611459565b3480156106e657600080fd5b5061034f61146d565b3480156106fb57600080fd5b5061034f611473565b34801561071057600080fd5b5061034f6004803603604081101561072757600080fd5b506001600160a01b038135169060200135611531565b34801561074957600080fd5b5061034f6116ab565b34801561075e57600080fd5b506103e06004803603604081101561077557600080fd5b81019060208101813564010000000081111561079057600080fd5b8201836020820111156107a257600080fd5b803590602001918460208302840111640100000000831117156107c457600080fd5b919080806020026020016040519081016040528093929190818152602001838360200280828437600092019190915250929594936020810193503591505064010000000081111561081457600080fd5b82018360208201111561082657600080fd5b8035906020019184602083028401116401000000008311171561084857600080fd5b9190808060200260200160405190810160405280939291908181526020018383602002808284376000920191909152509295506116b1945050505050565b34801561089257600080fd5b506103e0600480360360208110156108a957600080fd5b50356001600160a01b031661175c565b3480156108c557600080fd5b506103e0600480360360208110156108dc57600080fd5b50356001600160a01b03166117b8565b3480156108f857600080fd5b506105436004803603602081101561090f57600080fd5b50356001600160a01b0316611831565b34801561092b57600080fd5b5061034f6004803603602081101561094257600080fd5b5035611846565b34801561095557600080fd5b5061034f6004803603602081101561096c57600080fd5b5035611858565b34801561097f57600080fd5b5061034f611ad6565b34801561099457600080fd5b506103e0600480360360208110156109ab57600080fd5b5035611b05565b3480156109be57600080fd5b5061034f600480360360208110156109d557600080fd5b5035611cc5565b3480156109e857600080fd5b5061034f611cd7565b3480156109fd57600080fd5b5061034f60048036036020811015610a1457600080fd5b5035611cdd565b348015610a2757600080fd5b5061034f60048036036020811015610a3e57600080fd5b5035611cef565b348015610a5157600080fd5b5061034f611d01565b348015610a6657600080fd5b506103e0611d07565b348015610a7b57600080fd5b506103af611de2565b60055481565b6000600754600014158015610aa0575042600754105b6040518060400160405280600b81526020016a1b9bdd081cdd185c9d195960aa1b81525090610b105760405162461bcd60e51b81526020600482018181528351602484015283519092839260449091019190850190808383600083156102f75781810151838201526020016102df565b50506001600160a01b0382166000908152600f602090815260408083208484529091529020545b92915050565b6014546001600160a01b031681565b610b54611e06565b6013805460ff19166001179055565b6015546001600160a01b031681565b610b7a611e06565b8060005b81811015610d62576000848483818110610b9457fe5b602090810292909201356001600160a01b0316600081815260108452604090819020548151808301909252600d82526c1b9bdd081bdc1d1959081bdd5d609a1b948201949094529093509160ff169050610c2f5760405162461bcd60e51b81526020600482018181528351602484015283519092839260449091019190850190808383600083156102f75781810151838201526020016102df565b506001600160a01b03811660009081526011602081815260409283902054835180850190945291835270185b1c9958591e481bdc1d1959081bdd5d607a1b9083015260ff1615610cc05760405162461bcd60e51b81526020600482018181528351602484015283519092839260449091019190850190808383600083156102f75781810151838201526020016102df565b506001600160a01b0381166000818152601160209081526040808320805460ff1916600190811790915560128054808301825594527fbb8a6a4669ba250d26cd7a459eca9d215f8307e33aebe50379bc5a3617ec344490930180546001600160a01b031916851790558051928352517f82b45541b9ba7a8fe574a801f120df904cff6cde36bee6c217c9514949aa0cb89281900390910190a250600101610b7e565b50505050565b600b6020528160005260406000208181548110610d8457600080fd5b90600052602060002001600091509150505481565b6000806000600280541415610df5576040805162461bcd60e51b815260206004820152601f60248201527f5265656e7472616e637947756172643a207265656e7472616e742063616c6c00604482015290519081900360640190fd5b600280556014546001600160a01b0316331415610e1457610e14611e59565b60135460ff16610e2657600354610e2a565b6006545b925060009150610e4760055460045461218690919063ffffffff16565b6001600255905047610e576121e0565b11156040518060400160405280600f81526020016e62616c616e636520746f6f206c6f7760881b81525090610ecd5760405162461bcd60e51b81526020600482018181528351602484015283519092839260449091019190850190808383600083156102f75781810151838201526020016102df565b50909192565b6000600754600014158015610ee9575042600754105b6040518060400160405280600b81526020016a1b9bdd081cdd185c9d195960aa1b81525090610f595760405162461bcd60e51b81526020600482018181528351602484015283519092839260449091019190850190808383600083156102f75781810151838201526020016102df565b50610f648383612205565b949350505050565b60106020526000908152604090205460ff1681565b6000600754600014158015610f97575042600754105b6040518060400160405280600b81526020016a1b9bdd081cdd185c9d195960aa1b815250906110075760405162461bcd60e51b81526020600482018181528351602484015283519092839260449091019190850190808383600083156102f75781810151838201526020016102df565b5050336000908152600f60209081526040808320938352929052205490565b600060075460001415801561103c575042600754105b6040518060400160405280600b81526020016a1b9bdd081cdd185c9d195960aa1b815250906110ac5760405162461bcd60e51b81526020600482018181528351602484015283519092839260449091019190850190808383600083156102f75781810151838201526020016102df565b506007546024906110cd9062278d00906110c7904290612671565b906126ce565b106040518060400160405280601081526020016f185b1c9958591e48199a5b9a5cda195960821b815250906111435760405162461bcd60e51b81526020600482018181528351602484015283519092839260449091019190850190808383600083156102f75781810151838201526020016102df565b5061117361116962278d006111636007544261267190919063ffffffff16565b90612735565b62278d0090612671565b90505b90565b7f714f205b2abd25bef1d06a1af944e38c113fe6160375c4e1d6d5cf28848e77195490565b6000546001600160a01b031681565b6001546001600160a01b031633146111fc576040805162461bcd60e51b815260206004820152600d60248201526c1b9bdd0818db185a5b585a5b9d609a1b604482015290519081900360640190fd5b600054600154604080516001600160a01b03938416815292909116602083015280517f434a2db650703b36c824e745330d6397cdaa9ee2cc891a4938ae853e1c50b68d9281900390910190a160018054600080546001600160a01b03199081166001600160a01b03841617909155169055565b6001546001600160a01b031681565b6012818154811061128e57600080fd5b6000918252602090912001546001600160a01b0316905081565b7f000000000000000000000000000000000000000000000000000000000000000081565b60135460ff1681565b60006007546000141580156112eb575042600754105b6040518060400160405280600b81526020016a1b9bdd081cdd185c9d195960aa1b8152509061135b5760405162461bcd60e51b81526020600482018181528351602484015283519092839260449091019190850190808383600083156102f75781810151838201526020016102df565b506113663383612205565b9392505050565b600a6020526000908152604090205481565b600154600160a01b900460ff16156113d5576040805162461bcd60e51b8152602060048201526014602482015273696e697469616c6973656420213d2066616c736560601b604482015290519081900360640190fd5b6001805460ff60a01b1916600160a01b179055600054604080516001600160a01b039283168152918316602083015280517f434a2db650703b36c824e745330d6397cdaa9ee2cc891a4938ae853e1c50b68d9281900390910190a1600080546001600160a01b039092166001600160a01b0319928316179055600180549091169055565b60135461010090046001600160a01b031681565b60045481565b600080601360019054906101000a90046001600160a01b03166001600160a01b031663deea13e76040518163ffffffff1660e01b815260040160206040518083038186803b1580156114c457600080fd5b505afa1580156114d8573d6000803e3d6000fd5b505050506040513d60208110156114ee57600080fd5b5051600854600090815260096020526040902054909150801580159061151357508181105b156115275760085460010192505050611176565b6008549250505090565b6000600754600014158015611547575042600754105b6040518060400160405280600b81526020016a1b9bdd081cdd185c9d195960aa1b815250906115b75760405162461bcd60e51b81526020600482018181528351602484015283519092839260449091019190850190808383600083156102f75781810151838201526020016102df565b5060028054141561160f576040805162461bcd60e51b815260206004820152601f60248201527f5265656e7472616e637947756172643a207265656e7472616e742063616c6c00604482015290519081900360640190fd5b6002805561161e33848461279c565b905060016002554761162e6121e0565b11156040518060400160405280600f81526020016e62616c616e636520746f6f206c6f7760881b815250906116a45760405162461bcd60e51b81526020600482018181528351602484015283519092839260449091019190850190808383600083156102f75781810151838201526020016102df565b5092915050565b60065481565b6116b9611179565b6001600160a01b0316336001600160a01b031614611715576040805162461bcd60e51b815260206004820152601460248201527337b7363c9030b2323932b9b9903ab83230ba32b960611b604482015290519081900360640190fd5b61174e61174983836040518060400160405280600e81526020016d20b2323932b9b9aab83230ba32b960911b81525061295e565b612a82565b6117588282612aa6565b5050565b611764611e06565b600180546001600160a01b0383166001600160a01b0319909116811790915560408051918252517f1f95fb40be3a947982072902a887b521248d1d8931a39eb38f84f4d6fd758b699181900360200190a150565b6117c0611e06565b600054604080516001600160a01b039283168152918316602083015280517f434a2db650703b36c824e745330d6397cdaa9ee2cc891a4938ae853e1c50b68d9281900390910190a1600080546001600160a01b039092166001600160a01b0319928316179055600180549091169055565b60116020526000908152604090205460ff1681565b600d6020526000908152604090205481565b600060075460001415801561186e575042600754105b6040518060400160405280600b81526020016a1b9bdd081cdd185c9d195960aa1b815250906118de5760405162461bcd60e51b81526020600482018181528351602484015283519092839260449091019190850190808383600083156102f75781810151838201526020016102df565b50600280541415611936576040805162461bcd60e51b815260206004820152601f60248201527f5265656e7472616e637947756172643a207265656e7472616e742063616c6c00604482015290519081900360640190fd5b60028055601554604080516369ea238760e01b815233600482015290516000926001600160a01b0316916369ea2387916024808301926020929190829003018186803b15801561198557600080fd5b505afa158015611999573d6000803e3d6000fd5b505050506040513d60208110156119af57600080fd5b505160408051808201909152601781527f64656c65676174696f6e206163636f756e74207a65726f00000000000000000060208201529091506001600160a01b038216611a3d5760405162461bcd60e51b81526020600482018181528351602484015283519092839260449091019190850190808383600083156102f75781810151838201526020016102df565b50611a4933828561279c565b915050600160025547611a5a6121e0565b11156040518060400160405280600f81526020016e62616c616e636520746f6f206c6f7760881b81525090611ad05760405162461bcd60e51b81526020600482018181528351602484015283519092839260449091019190850190808383600083156102f75781810151838201526020016102df565b50919050565b600080611aee60075442612ba690919063ffffffff16565b9150611aff90508162278d006126ce565b91505090565b611b0d611e06565b6007546040805180820190915260088152676e6f74207a65726f60c01b60208201529015611b7c5760405162461bcd60e51b81526020600482018181528351602484015283519092839260449091019190850190808383600083156102f75781810151838201526020016102df565b5060408051808201909152600b81526a1a5b881d1a19481c185cdd60aa1b602082015242821015611bee5760405162461bcd60e51b81526020600482018181528351602484015283519092839260449091019190850190808383600083156102f75781810151838201526020016102df565b506003547f00000000000000000000000000000000000000000000000000000000000000006001600160a01b03163110156040518060400160405280600f81526020016e62616c616e636520746f6f206c6f7760881b81525090611c935760405162461bcd60e51b81526020600482018181528351602484015283519092839260449091019190850190808383600083156102f75781810151838201526020016102df565b5060078190556040517f11b09d9dabfa7c2fc728e40a9c71bbb893c699e75d271e7ca02ef02bead3e44390600090a150565b600c6020526000908152604090205481565b60075481565b600e6020526000908152604090205481565b60096020526000908152604090205481565b60035481565b336000908152601060209081526040918290205482518084019093526011835270185b1c9958591e481bdc1d1959081bdd5d607a1b9183019190915260ff1615611d925760405162461bcd60e51b81526020600482018181528351602484015283519092839260449091019190850190808383600083156102f75781810151838201526020016102df565b50336000818152601060209081526040808320805460ff191660011790558051928352517f82b45541b9ba7a8fe574a801f120df904cff6cde36bee6c217c9514949aa0cb89281900390910190a2565b7f000000000000000000000000000000000000000000000000000000000000000081565b6000546001600160a01b03163314611e57576040805162461bcd60e51b815260206004820152600f60248201526e6f6e6c7920676f7665726e616e636560881b604482015290519081900360640190fd5b565b6007541580611e69575042600754115b80611e775750600854602411155b15611e8157611e57565b6000611e986007544261267190919063ffffffff16565b90506000611ea98262278d006126ce565b6000818152600a6020526040902054909150431415611ec9575050611e57565b62278d00810282036000611ee08262093a806126ce565b9050600081118015611ef25750602483105b15611f2e57600083815260096020526040902054611f1c5760008381526009602052604090204390555b6000838152600a602052604090204390555b6000601360019054906101000a90046001600160a01b03166001600160a01b031663deea13e76040518163ffffffff1660e01b815260040160206040518083038186803b158015611f7e57600080fd5b505afa158015611f92573d6000803e3d6000fd5b505050506040513d6020811015611fa857600080fd5b50516008546000908152600960205260409020549091508015801590611fcd57508181105b1561214857600880546000818152600d602052604090205460019091019091558015612146576005546120009082612186565b600555601454604080516370d5ae0560e01b815290516000926001600160a01b0316916370d5ae05916004808301926020929190829003018186803b15801561204857600080fd5b505afa15801561205c573d6000803e3d6000fd5b505050506040513d602081101561207257600080fd5b5051604051909150600090829061208890613175565b6001600160a01b03909116815260405190819003602001906000f0801580156120b5573d6000803e3d6000fd5b506040519091506001600160a01b0382169084156108fc029085906000818181858888f193505050501580156120ef573d6000803e3d6000fd5b50806001600160a01b03166335f469946040518163ffffffff1660e01b8152600401600060405180830381600087803b15801561212b57600080fd5b505af115801561213f573d6000803e3d6000fd5b5050505050505b505b8260041480156121585750602485105b8015612167575060135460ff16155b1561217e5761217585612bc8565b61217e85612d4b565b505050505050565b600082820183811015611366576040805162461bcd60e51b815260206004820152601b60248201527f536166654d6174683a206164646974696f6e206f766572666c6f770000000000604482015290519081900360640190fd5b60006111736005546121ff60045460065461267190919063ffffffff16565b90612671565b60008060075460001415801561221c575042600754105b6040518060400160405280600b81526020016a1b9bdd081cdd185c9d195960aa1b8152509061228c5760405162461bcd60e51b81526020600482018181528351602484015283519092839260449091019190850190808383600083156102f75781810151838201526020016102df565b506001600160a01b03841660009081526011602081815260409283902054835180850190945291835270185b1c9958591e481bdc1d1959081bdd5d607a1b9083015260ff161561231d5760405162461bcd60e51b81526020600482018181528351602484015283519092839260449091019190850190808383600083156102f75781810151838201526020016102df565b5082612327611473565b11156040518060400160405280600d81526020016c1b5bdb9d1a08195e1c1a5c9959609a1b8152509061239b5760405162461bcd60e51b81526020600482018181528351602484015283519092839260449091019190850190808383600083156102f75781810151838201526020016102df565b506040805180820190915260138152726d6f6e7468206e6f7420636c61696d61626c6560681b6020820152602484106124155760405162461bcd60e51b81526020600482018181528351602484015283519092839260449091019190850190808383600083156102f75781810151838201526020016102df565b5061241e611ad6565b83106040518060400160405280601781526020017f6d6f6e7468206e6f7420636c61696d61626c6520796574000000000000000000815250906124a25760405162461bcd60e51b81526020600482018181528351602484015283519092839260449091019190850190808383600083156102f75781810151838201526020016102df565b506001600160a01b0384166000908152600f60209081526040808320868452909152902054156124d75750600090508061266a565b6000838152600d6020526040902054806124f857600080925092505061266a565b6000848152600b602090815260408083208054825181850281018501909352808352919290919083018282801561254e57602002820191906000526020600020905b81548152602001906001019080831161253a575b5050505050905060005b600381101561261757601360019054906101000a90046001600160a01b03166001600160a01b0316634ee2cd7e8884848151811061259257fe5b60200260200101516040518363ffffffff1660e01b815260040180836001600160a01b031681526020018281526020019250505060206040518083038186803b1580156125de57600080fd5b505afa1580156125f2573d6000803e3d6000fd5b505050506040513d602081101561260857600080fd5b50519490940193600101612558565b508361262b5760008093509350505061266a565b6000858152600e60205260409020548481141561264d575090915061266a9050565b80851061265657fe5b84612662848284612e4f565b945094505050505b9250929050565b6000828211156126c8576040805162461bcd60e51b815260206004820152601e60248201527f536166654d6174683a207375627472616374696f6e206f766572666c6f770000604482015290519081900360640190fd5b50900390565b6000808211612724576040805162461bcd60e51b815260206004820152601a60248201527f536166654d6174683a206469766973696f6e206279207a65726f000000000000604482015290519081900360640190fd5b81838161272d57fe5b049392505050565b600080821161278b576040805162461bcd60e51b815260206004820152601860248201527f536166654d6174683a206d6f64756c6f206279207a65726f0000000000000000604482015290519081900360640190fd5b81838161279457fe5b069392505050565b60008060006127ab8685612205565b90925090508015612955576001600160a01b0386166000908152600f6020908152604080832087845290915290208190556004546127e99082612186565b6004556000848152600d60205260409020546128059082612671565b6000858152600d6020908152604080832093909355600e9052205461282a9083612671565b6000858152600e60205260408082209290925590516001600160a01b0387169083908381818185875af1925050503d8060008114612884576040519150601f19603f3d011682016040523d82523d6000602084013e612889565b606091505b50509050806040518060400160405280600c81526020016b18db185a5b4819985a5b195960a21b815250906128ff5760405162461bcd60e51b81526020600482018181528351602484015283519092839260449091019190850190808383600083156102f75781810151838201526020016102df565b50856001600160a01b0316876001600160a01b03167fbdb59bec3f0c77052f6645d7365d5008c0affb5d51489a220d01bb1af96897b08785604051808381526020018281526020019250505060405180910390a3505b95945050505050565b600080826040516020018080602001828103825283818151815260200191508051906020019080838360005b838110156129a257818101518382015260200161298a565b50505050905090810190601f1680156129cf5780820380516001836020036101000a031916815260200191505b50925050506040516020818303038152906040528051906020012090506000805b8651811015612a3757868181518110612a0557fe5b6020026020010151831415612a2f57858181518110612a2057fe5b60200260200101519150612a37565b6001016129f0565b506001600160a01b038116612955576040805162461bcd60e51b815260206004820152600c60248201526b61646472657373207a65726f60a01b604482015290519081900360640190fd5b7f714f205b2abd25bef1d06a1af944e38c113fe6160375c4e1d6d5cf28848e771955565b612acd82826040518060400160405280600481526020016315d3985d60e21b81525061295e565b601360016101000a8154816001600160a01b0302191690836001600160a01b03160217905550612b1c828260405180604001604052806006815260200165537570706c7960d01b81525061295e565b601460006101000a8154816001600160a01b0302191690836001600160a01b03160217905550612b8282826040518060400160405280601881526020017f44656c65676174696f6e4163636f756e744d616e61676572000000000000000081525061295e565b601580546001600160a01b0319166001600160a01b03929092169190911790555050565b60008083831115612bbc5750600090508061266a565b50600193919092039150565b600081815260096020908152604080832054600a909252808320548151600380825260808201909352929390928484038390049281602001602082028036833701905050905060007f00000000000000000000000000000000000000000000000000000000000000006001600160a01b031663d89601fd6040518163ffffffff1660e01b815260040160206040518083038186803b158015612c6957600080fd5b505afa158015612c7d573d6000803e3d6000fd5b505050506040513d6020811015612c9357600080fd5b50514201905060005b6003811015612d07576040805160208082019490945280820183905281518082038301815260609091019091528051920191909120906000848381612cdd57fe5b06858302880101905080848381518110612cf357fe5b602090810291909101015250600101612c9c565b506000868152600b602090815260409091208351612d2792850190613182565b50612d3182612f55565b6000968752600e6020526040909620959095555050505050565b602481108015612d6757506000818152600c6020526040902054155b15612e4c576000612d87612d7f6001840160ed613106565b61213461315f565b600654600354919250600091612da09084612134612e4f565b6000858152600c602090815260408083209490930393849055600d90528181208390556006805484019055815163ec8d877760e01b81526004810184905291519293506001600160a01b037f0000000000000000000000000000000000000000000000000000000000000000169263ec8d877792602480820193929182900301818387803b158015612e3157600080fd5b505af1158015612e45573d6000803e3d6000fd5b5050505050505b50565b6000808211612e98576040805162461bcd60e51b815260206004820152601060248201526f4469766973696f6e206279207a65726f60801b604482015290519081900360640190fd5b83612ea557506000611366565b83830283858281612eb257fe5b041415612ecb57828181612ec257fe5b04915050611366565b6000838681612ed657fe5b0490506000848781612ee457fe5b0690506000858781612ef257fe5b0490506000868881612f0057fe5b069050612f48612f14886110c78685613106565b612f42612f218686613106565b612f42612f2e8987613106565b612f428d612f3c8c8b613106565b90613106565b90612186565b9998505050505050505050565b6000805b600381101561300757601360019054906101000a90046001600160a01b03166001600160a01b031663981b24d0848381518110612f9257fe5b60200260200101516040518263ffffffff1660e01b81526004018082815260200191505060206040518083038186803b158015612fce57600080fd5b505afa158015612fe2573d6000803e3d6000fd5b505050506040513d6020811015612ff857600080fd5b50519190910190600101612f59565b506012545b8015611ad05780806001900391505060006012828154811061302a57fe5b60009182526020822001546001600160a01b031691505b60038110156130ff57601360019054906101000a90046001600160a01b03166001600160a01b0316634ee2cd7e8387848151811061307b57fe5b60200260200101516040518363ffffffff1660e01b815260040180836001600160a01b031681526020018281526020019250505060206040518083038186803b1580156130c757600080fd5b505afa1580156130db573d6000803e3d6000fd5b505050506040513d60208110156130f157600080fd5b505190930392600101613041565b505061300c565b60008261311557506000610b37565b8282028284828161312257fe5b04146113665760405162461bcd60e51b81526004018080602001828103825260218152602001806133956021913960400191505060405180910390fd5b600081831061316e5781611366565b5090919050565b6101b2806131e383390190565b8280548282559060005260206000209081019282156131bd579160200282015b828111156131bd5782518255916020019190600101906131a2565b506131c99291506131cd565b5090565b5b808211156131c957600081556001016131ce56fe608060405234801561001057600080fd5b506040516101b23803806101b28339818101604052602081101561003357600080fd5b5051600080546001600160a01b039092166001600160a01b031990921691909117905561014d806100656000396000f3fe60806040526004361061002d5760003560e01c806335f469941461006c57806370d5ae051461008357610067565b36610067576040805134815290517fa8142743f8f70a4c26f3691cf4ed59718381fb2f18070ec52be1f1022d8555579181900360200190a1005b600080fd5b34801561007857600080fd5b506100816100b4565b005b34801561008f57600080fd5b50610098610108565b604080516001600160a01b039092168252519081900360200190f35b600054604080516001600160a01b03909216825247602083015280517f696de425f79f4a40bc6d2122ca50507f0efbeabbff86a84871b7196ab8ea8df79281900390910190a16000546001600160a01b0316ff5b6000546001600160a01b03168156fea264697066735822122029f1ea2f5b27d6f78e7c59ddc501185c6eac13e078de5689899f05c370c6d8e564736f6c63430007060033536166654d6174683a206d756c7469706c69636174696f6e206f766572666c6f77a26469706673582212207bf76f717eb847a1dfe51f4b6a08e121de9695bd1f230424c7193e53cd0626af64736f6c63430007060033",
  "linkReferences": {},
  "deployedLinkReferences": {}
}