{
  "_format": "hh-sol-artifact-1",
  "contractName": "TestableFlareDaemon",
  "sourceName": "contracts/genesis/mock/TestableFlareDaemon.sol",
  "abi": [
    {
      "anonymous": false,
      "inputs": [
        {
          "indexed": false,
          "internalType": "address",
          "name": "theContract",
          "type": "address"
        },
        {
          "indexed": false,
          "internalType": "uint256",
          "name": "atBlock",
          "type": "uint256"
        },
        {
          "indexed": false,
          "internalType": "string",
          "name": "theMessage",
          "type": "string"
        },
        {
          "indexed": false,
          "internalType": "uint256",
          "name": "gasConsumed",
          "type": "uint256"
        }
      ],
      "name": "ContractDaemonizeErrored",
      "type": "event"
    },
    {
      "anonymous": false,
      "inputs": [
        {
          "indexed": false,
          "internalType": "address",
          "name": "theContract",
          "type": "address"
        },
        {
          "indexed": false,
          "internalType": "uint256",
          "name": "gasConsumed",
          "type": "uint256"
        }
      ],
      "name": "ContractDaemonized",
      "type": "event"
    },
    {
      "anonymous": false,
      "inputs": [
        {
          "indexed": false,
          "internalType": "address",
          "name": "theContract",
          "type": "address"
        },
        {
          "indexed": false,
          "internalType": "uint256",
          "name": "blockHoldoffsRemaining",
          "type": "uint256"
        }
      ],
      "name": "ContractHeldOff",
      "type": "event"
    },
    {
      "anonymous": false,
      "inputs": [
        {
          "indexed": false,
          "internalType": "uint256",
          "name": "numberOfSkippedConstracts",
          "type": "uint256"
        }
      ],
      "name": "ContractsSkippedOutOfGas",
      "type": "event"
    },
    {
      "anonymous": false,
      "inputs": [
        {
          "indexed": false,
          "internalType": "address",
          "name": "proposedGovernance",
          "type": "address"
        }
      ],
      "name": "GovernanceProposed",
      "type": "event"
    },
    {
      "anonymous": false,
      "inputs": [
        {
          "indexed": false,
          "internalType": "address",
          "name": "oldGovernance",
          "type": "address"
        },
        {
          "indexed": false,
          "internalType": "address",
          "name": "newGoveranance",
          "type": "address"
        }
      ],
      "name": "GovernanceUpdated",
      "type": "event"
    },
    {
      "anonymous": false,
      "inputs": [
        {
          "indexed": false,
          "internalType": "contract IInflationGenesis",
          "name": "theNewContract",
          "type": "address"
        },
        {
          "indexed": false,
          "internalType": "contract IInflationGenesis",
          "name": "theOldContract",
          "type": "address"
        }
      ],
      "name": "InflationSet",
      "type": "event"
    },
    {
      "anonymous": false,
      "inputs": [
        {
          "indexed": false,
          "internalType": "uint256",
          "name": "amountWei",
          "type": "uint256"
        }
      ],
      "name": "MintingReceived",
      "type": "event"
    },
    {
      "anonymous": false,
      "inputs": [
        {
          "indexed": false,
          "internalType": "uint256",
          "name": "amountWei",
          "type": "uint256"
        }
      ],
      "name": "MintingRequestReceived",
      "type": "event"
    },
    {
      "anonymous": false,
      "inputs": [
        {
          "indexed": false,
          "internalType": "uint256",
          "name": "amountWei",
          "type": "uint256"
        }
      ],
      "name": "MintingRequestTriggered",
      "type": "event"
    },
    {
      "anonymous": false,
      "inputs": [
        {
          "indexed": false,
          "internalType": "uint256",
          "name": "amountWei",
          "type": "uint256"
        }
      ],
      "name": "MintingWithdrawn",
      "type": "event"
    },
    {
      "anonymous": false,
      "inputs": [
        {
          "indexed": false,
          "internalType": "contract IFlareDaemonize",
          "name": "theContract",
          "type": "address"
        },
        {
          "indexed": false,
          "internalType": "bool",
          "name": "add",
          "type": "bool"
        }
      ],
      "name": "RegistrationUpdated",
      "type": "event"
    },
    {
      "anonymous": false,
      "inputs": [
        {
          "indexed": false,
          "internalType": "uint256",
          "name": "amountWei",
          "type": "uint256"
        }
      ],
      "name": "SelfDestructReceived",
      "type": "event"
    },
    {
      "inputs": [],
      "name": "blockHoldoff",
      "outputs": [
        {
          "internalType": "uint256",
          "name": "",
          "type": "uint256"
        }
      ],
      "stateMutability": "view",
      "type": "function"
    },
    {
      "inputs": [],
      "name": "claimGovernance",
      "outputs": [],
      "stateMutability": "nonpayable",
      "type": "function"
    },
    {
      "inputs": [],
      "name": "errorData",
      "outputs": [
        {
          "internalType": "uint192",
          "name": "totalDaemonizedErrors",
          "type": "uint192"
        },
        {
          "internalType": "uint64",
          "name": "lastErrorTypeIndex",
          "type": "uint64"
        }
      ],
      "stateMutability": "view",
      "type": "function"
    },
    {
      "inputs": [],
      "name": "getAddressUpdater",
      "outputs": [
        {
          "internalType": "address",
          "name": "_addressUpdater",
          "type": "address"
        }
      ],
      "stateMutability": "view",
      "type": "function"
    },
    {
      "inputs": [],
      "name": "getDaemonizedContractsData",
      "outputs": [
        {
          "internalType": "contract IFlareDaemonize[]",
          "name": "_daemonizeContracts",
          "type": "address[]"
        },
        {
          "internalType": "uint256[]",
          "name": "_gasLimits",
          "type": "uint256[]"
        },
        {
          "internalType": "uint256[]",
          "name": "_blockHoldoffsRemaining",
          "type": "uint256[]"
        }
      ],
      "stateMutability": "view",
      "type": "function"
    },
    {
      "inputs": [],
      "name": "getNextMintRequestAllowedTs",
      "outputs": [
        {
          "internalType": "uint256",
          "name": "",
          "type": "uint256"
        }
      ],
      "stateMutability": "view",
      "type": "function"
    },
    {
      "inputs": [],
      "name": "governance",
      "outputs": [
        {
          "internalType": "address",
          "name": "",
          "type": "address"
        }
      ],
      "stateMutability": "view",
      "type": "function"
    },
    {
      "inputs": [],
      "name": "inflation",
      "outputs": [
        {
          "internalType": "contract IInflationGenesis",
          "name": "",
          "type": "address"
        }
      ],
      "stateMutability": "view",
      "type": "function"
    },
    {
      "inputs": [
        {
          "internalType": "address",
          "name": "_governance",
          "type": "address"
        }
      ],
      "name": "initialise",
      "outputs": [],
      "stateMutability": "pure",
      "type": "function"
    },
    {
      "inputs": [],
      "name": "initialiseFixedAddress",
      "outputs": [
        {
          "internalType": "address",
          "name": "",
          "type": "address"
        }
      ],
      "stateMutability": "nonpayable",
      "type": "function"
    },
    {
      "inputs": [],
      "name": "lastMintRequestTs",
      "outputs": [
        {
          "internalType": "uint256",
          "name": "",
          "type": "uint256"
        }
      ],
      "stateMutability": "view",
      "type": "function"
    },
    {
      "inputs": [],
      "name": "lastUpdateMaxMintRequestTs",
      "outputs": [
        {
          "internalType": "uint256",
          "name": "",
          "type": "uint256"
        }
      ],
      "stateMutability": "view",
      "type": "function"
    },
    {
      "inputs": [],
      "name": "maxMintingRequestWei",
      "outputs": [
        {
          "internalType": "uint256",
          "name": "",
          "type": "uint256"
        }
      ],
      "stateMutability": "view",
      "type": "function"
    },
    {
      "inputs": [
        {
          "internalType": "address",
          "name": "_governance",
          "type": "address"
        }
      ],
      "name": "proposeGovernance",
      "outputs": [],
      "stateMutability": "nonpayable",
      "type": "function"
    },
    {
      "inputs": [],
      "name": "proposedGovernance",
      "outputs": [
        {
          "internalType": "address",
          "name": "",
          "type": "address"
        }
      ],
      "stateMutability": "view",
      "type": "function"
    },
    {
      "inputs": [
        {
          "components": [
            {
              "internalType": "contract IFlareDaemonize",
              "name": "daemonizedContract",
              "type": "address"
            },
            {
              "internalType": "uint256",
              "name": "gasLimit",
              "type": "uint256"
            }
          ],
          "internalType": "struct FlareDaemon.Registration[]",
          "name": "_registrations",
          "type": "tuple[]"
        }
      ],
      "name": "registerToDaemonize",
      "outputs": [],
      "stateMutability": "nonpayable",
      "type": "function"
    },
    {
      "inputs": [
        {
          "internalType": "uint256",
          "name": "_amountWei",
          "type": "uint256"
        }
      ],
      "name": "requestMinting",
      "outputs": [],
      "stateMutability": "nonpayable",
      "type": "function"
    },
    {
      "inputs": [
        {
          "internalType": "address",
          "name": "_addressUpdater",
          "type": "address"
        }
      ],
      "name": "setAddressUpdater",
      "outputs": [],
      "stateMutability": "nonpayable",
      "type": "function"
    },
    {
      "inputs": [
        {
          "internalType": "uint256",
          "name": "_blockHoldoff",
          "type": "uint256"
        }
      ],
      "name": "setBlockHoldoff",
      "outputs": [],
      "stateMutability": "nonpayable",
      "type": "function"
    },
    {
      "inputs": [
        {
          "internalType": "uint256",
          "name": "_maxMintingRequestWei",
          "type": "uint256"
        }
      ],
      "name": "setMaxMintingRequest",
      "outputs": [],
      "stateMutability": "nonpayable",
      "type": "function"
    },
    {
      "inputs": [
        {
          "internalType": "uint256",
          "name": "startIndex",
          "type": "uint256"
        },
        {
          "internalType": "uint256",
          "name": "numErrorTypesToShow",
          "type": "uint256"
        }
      ],
      "name": "showDaemonizedErrors",
      "outputs": [
        {
          "internalType": "uint256[]",
          "name": "_lastErrorBlock",
          "type": "uint256[]"
        },
        {
          "internalType": "uint256[]",
          "name": "_numErrors",
          "type": "uint256[]"
        },
        {
          "internalType": "string[]",
          "name": "_errorString",
          "type": "string[]"
        },
        {
          "internalType": "address[]",
          "name": "_erroringContract",
          "type": "address[]"
        },
        {
          "internalType": "uint256",
          "name": "_totalDaemonizedErrors",
          "type": "uint256"
        }
      ],
      "stateMutability": "view",
      "type": "function"
    },
    {
      "inputs": [],
      "name": "showLastDaemonizedError",
      "outputs": [
        {
          "internalType": "uint256[]",
          "name": "_lastErrorBlock",
          "type": "uint256[]"
        },
        {
          "internalType": "uint256[]",
          "name": "_numErrors",
          "type": "uint256[]"
        },
        {
          "internalType": "string[]",
          "name": "_errorString",
          "type": "string[]"
        },
        {
          "internalType": "address[]",
          "name": "_erroringContract",
          "type": "address[]"
        },
        {
          "internalType": "uint256",
          "name": "_totalDaemonizedErrors",
          "type": "uint256"
        }
      ],
      "stateMutability": "view",
      "type": "function"
    },
    {
      "inputs": [],
      "name": "systemLastTriggeredAt",
      "outputs": [
        {
          "internalType": "uint256",
          "name": "",
          "type": "uint256"
        }
      ],
      "stateMutability": "view",
      "type": "function"
    },
    {
      "inputs": [],
      "name": "totalMintingReceivedWei",
      "outputs": [
        {
          "internalType": "uint256",
          "name": "",
          "type": "uint256"
        }
      ],
      "stateMutability": "view",
      "type": "function"
    },
    {
      "inputs": [],
      "name": "totalMintingRequestedWei",
      "outputs": [
        {
          "internalType": "uint256",
          "name": "",
          "type": "uint256"
        }
      ],
      "stateMutability": "view",
      "type": "function"
    },
    {
      "inputs": [],
      "name": "totalMintingWithdrawnWei",
      "outputs": [
        {
          "internalType": "uint256",
          "name": "",
          "type": "uint256"
        }
      ],
      "stateMutability": "view",
      "type": "function"
    },
    {
      "inputs": [],
      "name": "totalSelfDestructReceivedWei",
      "outputs": [
        {
          "internalType": "uint256",
          "name": "",
          "type": "uint256"
        }
      ],
      "stateMutability": "view",
      "type": "function"
    },
    {
      "inputs": [
        {
          "internalType": "address",
          "name": "_governance",
          "type": "address"
        }
      ],
      "name": "transferGovernance",
      "outputs": [],
      "stateMutability": "nonpayable",
      "type": "function"
    },
    {
      "inputs": [],
      "name": "trigger",
      "outputs": [
        {
          "internalType": "uint256",
          "name": "_toMintWei",
          "type": "uint256"
        }
      ],
      "stateMutability": "nonpayable",
      "type": "function"
    },
    {
      "inputs": [],
      "name": "unregisterAll",
      "outputs": [],
      "stateMutability": "nonpayable",
      "type": "function"
    },
    {
      "inputs": [
        {
          "internalType": "bytes32[]",
          "name": "_contractNameHashes",
          "type": "bytes32[]"
        },
        {
          "internalType": "address[]",
          "name": "_contractAddresses",
          "type": "address[]"
        }
      ],
      "name": "updateContractAddresses",
      "outputs": [],
      "stateMutability": "nonpayable",
      "type": "function"
    },
    {
      "stateMutability": "payable",
      "type": "receive"
    }
  ],
  "bytecode": "0x608060405234801561001057600080fd5b50600061001c81610022565b50610046565b7f714f205b2abd25bef1d06a1af944e38c113fe6160375c4e1d6d5cf28848e771955565b612eaa80620000566000396000f3fe6080604052600436106101dc5760003560e01c80638be2fb8611610102578063c9f960eb11610095578063e371aef011610064578063e371aef0146104ad578063e9de7d60146104d0578063ecdda0dd146104f0578063ed21b6e414610510576101e3565b8063c9f960eb1461044e578063d38bfff414610463578063d48a38df14610483578063dded1b4714610498576101e3565b8063aea36b53116100d1578063aea36b53146103d9578063b00c0b76146103f9578063be0522e014610419578063c373a08e1461042e576101e3565b80638be2fb861461037a5780638ccf77a01461038f5780639d6a890f146103a4578063a6817ace146103c4576101e3565b806360f7ac971161017a578063689c499911610149578063689c49991461031057806372993615146103305780637fec8d3814610345578063870196b81461035a576101e3565b806360f7ac97146102ab57806362da19a5146102c057806363903143146102d557806363d4a53a146102ea576101e3565b80635042916c116101b65780635042916c1461023d5780635267a15d1461025f5780635aa6e675146102815780635d36b19014610296576101e3565b806310663750146101e85780631d76dea1146102135780634f6a77b514610228576101e3565b366101e357005b600080fd5b3480156101f457600080fd5b506101fd610534565b60405161020a9190612d1b565b60405180910390f35b34801561021f57600080fd5b506101fd61053a565b34801561023457600080fd5b506101fd610540565b34801561024957600080fd5b5061025d610258366004612a35565b610546565b005b34801561026b57600080fd5b50610274610553565b60405161020a9190612b0c565b34801561028d57600080fd5b50610274610578565b3480156102a257600080fd5b5061025d610587565b3480156102b757600080fd5b50610274610649565b3480156102cc57600080fd5b506101fd610658565b3480156102e157600080fd5b506101fd61065e565b3480156102f657600080fd5b506102ff61066e565b60405161020a959493929190612c12565b34801561031c57600080fd5b5061025d61032b3660046128c5565b6106a9565b34801561033c57600080fd5b506101fd6106bd565b34801561035157600080fd5b506101fd6106c3565b34801561036657600080fd5b5061025d610375366004612a35565b610710565b34801561038657600080fd5b506101fd610820565b34801561039b57600080fd5b5061025d610826565b3480156103b057600080fd5b5061025d6103bf3660046127f3565b610838565b3480156103d057600080fd5b506101fd61083a565b3480156103e557600080fd5b5061025d6103f43660046127f3565b610840565b34801561040557600080fd5b5061025d61041436600461280f565b610851565b34801561042557600080fd5b506102746108fc565b34801561043a57600080fd5b5061025d6104493660046127f3565b61090b565b34801561045a57600080fd5b50610274610967565b34801561046f57600080fd5b5061025d61047e3660046127f3565b6109a6565b34801561048f57600080fd5b506101fd610a1f565b3480156104a457600080fd5b506101fd610a25565b3480156104b957600080fd5b506104c2610a2b565b60405161020a929190612cf9565b3480156104dc57600080fd5b5061025d6104eb366004612a35565b610a4c565b3480156104fc57600080fd5b506102ff61050b366004612a4d565b610b84565b34801561051c57600080fd5b50610525610ee1565b60405161020a93929190612b9d565b60055481565b60095481565b60085481565b61054e6110a6565b600c55565b7f714f205b2abd25bef1d06a1af944e38c113fe6160375c4e1d6d5cf28848e77195490565b6000546001600160a01b031681565b6001546001600160a01b031633146105d6576040805162461bcd60e51b815260206004820152600d60248201526c1b9bdd0818db185a5b585a5b9d609a1b604482015290519081900360640190fd5b600054600154604080516001600160a01b03938416815292909116602083015280517f434a2db650703b36c824e745330d6397cdaa9ee2cc891a4938ae853e1c50b68d9281900390910190a160018054600080546001600160a01b03199081166001600160a01b03841617909155169055565b6001546001600160a01b031681565b60045481565b60006106686110f7565b90505b90565b600b5460609081908190819060009061069890600160c01b90046001600160401b03166001610b84565b945094509450945094509091929394565b6106b16110a6565b6106ba81611102565b50565b60075481565b6002546000906001600160a01b031661070857610708306040518060400160405280600e81526020016d696e666c6174696f6e207a65726f60901b81525060006113b4565b610668611578565b6107186110a6565b60085461072890606e6064611e29565b811115604051806040016040528060118152602001700dac2f040dad2dce840e8dede40d0d2ced607b1b8152509061077c5760405162461bcd60e51b81526004016107739190612ce6565b60405180910390fd5b5060408051808201909152601081526f6d6178206d696e74206973207a65726f60801b6020820152816107c25760405162461bcd60e51b81526004016107739190612ce6565b5062015180600a54014211604051806040016040528060128152602001711d1a5b594819d85c081d1bdbc81cda1bdc9d60721b815250906108165760405162461bcd60e51b81526004016107739190612ce6565b5060085542600a55565b60035481565b61082e6110a6565b610836611f37565b565bfe5b600a5481565b6108486110a6565b6106ba81611fe7565b610859610553565b6001600160a01b0316336001600160a01b0316146108b5576040805162461bcd60e51b815260206004820152601460248201527337b7363c9030b2323932b9b9903ab83230ba32b960611b604482015290519081900360640190fd5b6108ee6108e983836040518060400160405280600e81526020016d20b2323932b9b9aab83230ba32b960911b81525061200b565b611fe7565b6108f88282612138565b5050565b6002546001600160a01b031681565b6109136110a6565b600180546001600160a01b0383166001600160a01b0319909116811790915560408051918252517f1f95fb40be3a947982072902a887b521248d1d8931a39eb38f84f4d6fd758b699181900360200190a150565b600f5460009060ff1661099457600f805460ff19166001179055600061098b612360565b915061066b9050565b506000546001600160a01b031661066b565b6109ae6110a6565b600054604080516001600160a01b039283168152918316602083015280517f434a2db650703b36c824e745330d6397cdaa9ee2cc891a4938ae853e1c50b68d9281900390910190a1600080546001600160a01b039092166001600160a01b0319928316179055600180549091169055565b600c5481565b60065481565b600b546001600160c01b03811690600160c01b90046001600160401b031682565b60025460408051808201909152600d81526c3737ba1034b7333630ba34b7b760991b602082015233916001600160a01b03168214610a9d5760405162461bcd60e51b81526004016107739190612ce6565b5060085482111560405180604001604052806007815260200166746f6f2062696760c81b81525090610ae25760405162461bcd60e51b81526004016107739190612ce6565b5042610aec6110f7565b10604051806040016040528060098152602001683a37b79037b33a32b760b91b81525090610b2d5760405162461bcd60e51b81526004016107739190612ce6565b5081156108f85742600955600454610b459083612380565b6004556040517f4c4f1efc376f31abeb51b72c5f9ed81cf4016591312bb02337e58149dcfaaab490610b78908490612d1b565b60405180910390a15050565b606080606080600060148054905087106040518060400160405280601081526020016f0e6e8c2e4e840d2dcc8caf040d0d2ced60831b81525090610bdb5760405162461bcd60e51b81526004016107739190612ce6565b506014546000908888011115610bf657601454889003610bf8565b865b9050806001600160401b0381118015610c1057600080fd5b50604051908082528060200260200182016040528015610c3a578160200160208202803683370190505b509550806001600160401b0381118015610c5357600080fd5b50604051908082528060200260200182016040528015610c7d578160200160208202803683370190505b509450806001600160401b0381118015610c9657600080fd5b50604051908082528060200260200182016040528015610cca57816020015b6060815260200190600190039081610cb55790505b509350806001600160401b0381118015610ce357600080fd5b50604051908082528060200260200182016040528015610d0d578160200160208202803683370190505b50925060005b81811015610ec55760006014828b0181548110610d2c57fe5b6000918252602080832090910154808352601390915260409091205489519192506001600160c01b031690899084908110610d6357fe5b6020026020010181815250506013600082815260200190815260200160002060000160189054906101000a90046001600160401b03166001600160401b0316878381518110610dae57fe5b6020908102919091018101919091526000828152601382526040908190206002908101805483516001821615610100026000190190911692909204601f81018590048502830185019093528282529092909190830182828015610e525780601f10610e2757610100808354040283529160200191610e52565b820191906000526020600020905b815481529060010190602001808311610e3557829003601f168201915b5050505050868381518110610e6357fe5b60200260200101819052506013600082815260200190815260200160002060010160009054906101000a90046001600160a01b0316858381518110610ea457fe5b6001600160a01b039092166020928302919091019091015250600101610d13565b5050600b549497939650919450926001600160c01b0316919050565b60105460609081908190806001600160401b0381118015610f0157600080fd5b50604051908082528060200260200182016040528015610f2b578160200160208202803683370190505b509350806001600160401b0381118015610f4457600080fd5b50604051908082528060200260200182016040528015610f6e578160200160208202803683370190505b509250806001600160401b0381118015610f8757600080fd5b50604051908082528060200260200182016040528015610fb1578160200160208202803683370190505b50915060005b8181101561109f57600060108281548110610fce57fe5b9060005260206000200160009054906101000a90046001600160a01b0316905080868381518110610ffb57fe5b60200260200101906001600160a01b031690816001600160a01b03168152505060116000826001600160a01b03166001600160a01b031681526020019081526020016000205485838151811061104d57fe5b60200260200101818152505060126000826001600160a01b03166001600160a01b031681526020019081526020016000205484838151811061108b57fe5b602090810291909101015250600101610fb7565b5050909192565b6000546001600160a01b03163314610836576040805162461bcd60e51b815260206004820152600f60248201526e6f6e6c7920676f7665726e616e636560881b604482015290519081900360640190fd5b600954620143700190565b8051604080518082019091526008815267746f6f206d616e7960c01b6020820152600a8211156111455760405162461bcd60e51b81526004016107739190612ce6565b5061114e611f37565b60005b818110156113af5760006001600160a01b031683828151811061117057fe5b6020026020010151600001516001600160a01b031614156040518060400160405280600c81526020016b61646472657373207a65726f60a01b815250906111ca5760405162461bcd60e51b81526004016107739190612ce6565b5060105460005b8181101561126e57601081815481106111e657fe5b60009182526020909120015485516001600160a01b039091169086908590811061120c57fe5b6020026020010151600001516001600160a01b031614156040518060400160405280600b81526020016a647570206164647265737360a81b815250906112655760405162461bcd60e51b81526004016107739190612ce6565b506001016111d1565b50601084838151811061127d57fe5b6020908102919091018101515182546001810184556000938452919092200180546001600160a01b0319166001600160a01b0390921691909117905583518490839081106112c757fe5b602002602001015160200151601160008685815181106112e357fe5b6020026020010151600001516001600160a01b03166001600160a01b031681526020019081526020016000208190555060006012600086858151811061132557fe5b6020026020010151600001516001600160a01b03166001600160a01b03168152602001908152602001600020819055507f86d03f430c7616021073d7a71766f632f1ce19f289aa989534d9f4732253eb5984838151811061138257fe5b602002602001015160000151600160405161139e929190612cb1565b60405180910390a150600101611151565b505050565b600083836040516020016113c9929190612b20565b60408051808303601f190181529181528151602092830120600081815260139093529120805491925090600160c01b90046001600160401b03166114b05760148054600180820183556000929092527fce6d7b5282bd9a3661ae061feed1dbda4e52ab073b1f9285be6e155d9c38d4ec01839055810180546001600160a01b0319166001600160a01b0387161790556114638460406123e3565b80516114799160028401916020909101906126c6565b5060145460018201805467ffffffffffffffff60a01b1916600160a01b6000199093016001600160401b0316929092029190911790555b8054436001600160c01b038181166001600160401b03600160c01b80860482166001019091160291909316176001600160c01b0319169190911782556040517f7a459ed083a9b267865360013a5ad6dbc07e5befe6e4f71671c940fdd4206bee916115219188919088908890612b65565b60405180910390a1600b80546001600160c01b0319811660016001600160c01b0392831681018316919091178084559301549216600160a01b9092046001600160401b0316600160c01b0291909117905550505050565b600060035443141561158c5750600061066b565b43600355600d5447908111156119625760006115b5600e54600d5461238090919063ffffffff16565b90508082141561172a57600e546005546115cf9082612380565b6005556040517fa42d823c276ad1990284418c303209194a75fa95a901f19752a9f65a407ffa8c90611602908390612d1b565b60405180910390a1600260009054906101000a90046001600160a01b03166001600160a01b031663c611c2c5826040518263ffffffff1660e01b81526004016000604051808303818588803b15801561165a57600080fd5b505af19350505050801561166c575060015b6116db57611678612d9a565b806116835750611695565b61168f308260006113b4565b506116d6565b6116d6306040518060400160405280601d81526020017f756e6b6e6f776e206572726f722e20726563656976654d696e74696e6700000081525060006113b4565b611724565b6006546116e89082612380565b6006556040517f12773bf711e11ec0b058c3856d441d726d2dc89113706c4f4175571f1e830c5a9061171b908390612d1b565b60405180910390a15b50611960565b8082101561178c576000611749600d548461249790919063ffffffff16565b6007549091506117599082612380565b6007556040517f3fe36bcb00188390b2b40f1ab66c58f660aea67fe98b9f80667f692e1a9ab3689061171b908390612d1b565b600e5460055461179b91612380565b600555600e54600d546000916117bc916117b6908690612497565b90612497565b6007549091506117cc9082612380565b600755600e546040517fa42d823c276ad1990284418c303209194a75fa95a901f19752a9f65a407ffa8c9161180091612d1b565b60405180910390a17f3fe36bcb00188390b2b40f1ab66c58f660aea67fe98b9f80667f692e1a9ab368816040516118379190612d1b565b60405180910390a1600260009054906101000a90046001600160a01b03166001600160a01b031663c611c2c5600e546040518263ffffffff1660e01b81526004016000604051808303818588803b15801561189157600080fd5b505af1935050505080156118a3575060015b611912576118af612d9a565b806118ba57506118cc565b6118c6308260006113b4565b5061190d565b61190d306040518060400160405280601d81526020017f756e6b6e6f776e206572726f722e20726563656976654d696e74696e6700000081525060006113b4565b61195e565b600e5460065461192191612380565b600655600e546040517f12773bf711e11ec0b058c3856d441d726d2dc89113706c4f4175571f1e830c5a9161195591612d1b565b60405180910390a15b505b505b60105460005b81811015611d815760006010828154811061197f57fe5b60009182526020808320909101546001600160a01b031680835260129091526040909120549091508015611a0b576001600160a01b0382166000908152601260205260409081902060001983019055517f9895eddb1e8569b1dae526135aa5cab97f982fdc3b0ff7e17920c95e3b9bda62906119fe9084908490612b4c565b60405180910390a1611d77565b6001600160a01b038216600090815260116020526040812054905a90506204a768811015611a75577f9b5c4be38598cb8d8b6e07727d2303d1d9fc2dfc31ad323170f5ea4dcc1f914a858703604051611a649190612d1b565b60405180910390a150505050611d81565b620493df1981018215801590611a8a57508083105b15611a925750815b846001600160a01b0316636d0e8c34826040518263ffffffff1660e01b8152600401602060405180830381600088803b158015611ace57600080fd5b5087f193505050508015611aff575060408051601f3d908101601f19168201909252611afc91810190612995565b60015b611d3657611b0b612d9a565b80611b165750611b9d565b611b2386825a86036113b4565b856001600160a01b031663e22fdece6040518163ffffffff1660e01b8152600401602060405180830381600087803b158015611b5e57600080fd5b505af1158015611b72573d6000803e3d6000fd5b505050506040513d601f19601f82011682018060405250810190611b969190612995565b5050611d31565b60005a9050600084118015611bbb575083611bb88483612497565b10155b15611c8e57611bef866040518060400160405280600a8152602001696f7574206f662067617360b01b8152508386036113b4565b6000866001600160a01b031663e22fdece6040518163ffffffff1660e01b8152600401602060405180830381600087803b158015611c2c57600080fd5b505af1158015611c40573d6000803e3d6000fd5b505050506040513d601f19601f82011682018060405250810190611c649190612995565b905080611c8857600c546001600160a01b0388166000908152601260205260409020555b50611d2f565b611cba86604051806040016040528060078152602001663ab735b737bbb760c91b8152508386036113b4565b856001600160a01b031663e22fdece6040518163ffffffff1660e01b8152600401602060405180830381600087803b158015611cf557600080fd5b505af1158015611d09573d6000803e3d6000fd5b505050506040513d601f19601f82011682018060405250810190611d2d9190612995565b505b505b611d73565b507fe7aa66356adbd5e839ef210626f6d8f6f72109c17fadf4c4f9ca82b315ae79b4855a8403604051611d6a929190612b4c565b60405180910390a15b5050505b5050600101611968565b50611d8a6124f4565b92508215611dd457600e8390556040517f34f843cef0df42035141347873da1758a6643358831b5ba5b1580be947644f9290611dc7908590612d1b565b60405180910390a1611dda565b6000600e555b47600d556000611de861250d565b9050478114611e2357611e23306040518060400160405280600e81526020016d6f7574206f662062616c616e636560901b81525060006113b4565b50505090565b6000808211611e72576040805162461bcd60e51b815260206004820152601060248201526f4469766973696f6e206279207a65726f60801b604482015290519081900360640190fd5b83611e7f57506000611f30565b83830283858281611e8c57fe5b041415611ea557828181611e9c57fe5b04915050611f30565b6000838681611eb057fe5b0490506000848781611ebe57fe5b0690506000858781611ecc57fe5b0490506000868881611eda57fe5b069050611f28611ef488611eee868561252c565b90612585565b611f22611f01868661252c565b611f22611f0e898761252c565b611f228d611f1c8c8b61252c565b9061252c565b90612380565b955050505050505b9392505050565b60105460005b818110156108f85760108054600091906000198101908110611f5b57fe5b600091825260209091200154601080546001600160a01b0390921692509080611f8057fe5b600082815260208120820160001990810180546001600160a01b03191690559091019091556040517f86d03f430c7616021073d7a71766f632f1ce19f289aa989534d9f4732253eb5991611fd691849190612cb1565b60405180910390a150600101611f3d565b7f714f205b2abd25bef1d06a1af944e38c113fe6160375c4e1d6d5cf28848e771955565b600080826040516020018080602001828103825283818151815260200191508051906020019080838360005b8381101561204f578181015183820152602001612037565b50505050905090810190601f16801561207c5780820380516001836020036101000a031916815260200191505b50925050506040516020818303038152906040528051906020012090506000805b86518110156120e4578681815181106120b257fe5b60200260200101518314156120dc578581815181106120cd57fe5b602002602001015191506120e4565b60010161209d565b506001600160a01b03811661212f576040805162461bcd60e51b815260206004820152600c60248201526b61646472657373207a65726f60a01b604482015290519081900360640190fd5b95945050505050565b600061216683836040518060400160405280600981526020016824b7333630ba34b7b760b91b81525061200b565b6002546040519192507f4bdd1012a7d55ed9afad8675a125e1b68c7c15f712c0f3d5cddac69c3b979805916121a89184916001600160a01b0390911690612ccc565b60405180910390a1600280546001600160a01b0319166001600160a01b0383161790556008546121e2576a4a723dc6b40b8a9a0000006008555b601054806121f15750506108f8565b6000816001600160401b038111801561220957600080fd5b5060405190808252806020026020018201604052801561224357816020015b612230612752565b8152602001906001900390816122285790505b50905060005b8281101561234f5760006010828154811061226057fe5b600091825260208220015460408051637afadd3960e11b815290516001600160a01b0390921693506122f3928a928a92869263f5f5ba7292600480840193829003018186803b1580156122b257600080fd5b505afa1580156122c6573d6000803e3d6000fd5b505050506040513d6000823e601f3d908101601f191682016040526122ee91908101906129b5565b61200b565b8383815181106122ff57fe5b6020908102919091018101516001600160a01b039283169052908216600090815260119091526040902054835184908490811061233857fe5b602090810291909101810151015250600101612249565b5061235981611102565b5050505050565b600073fffec6c83c8bf5c3f4ae0ccf8c45ce20e4560bd7610668816125ec565b6000828201838110156123da576040805162461bcd60e51b815260206004820152601b60248201527f536166654d6174683a206164646974696f6e206f766572666c6f770000000000604482015290519081900360640190fd5b90505b92915050565b60606000839050828151116123fb57839150506123dd565b6000836001600160401b038111801561241357600080fd5b506040519080825280601f01601f19166020018201604052801561243e576020820181803683370190505b50905060005b8481101561248e5782818151811061245857fe5b602001015160f81c60f81b82828151811061246f57fe5b60200101906001600160f81b031916908160001a905350600101612444565b50949350505050565b6000828211156124ee576040805162461bcd60e51b815260206004820152601e60248201527f536166654d6174683a207375627472616374696f6e206f766572666c6f770000604482015290519081900360640190fd5b50900390565b600061066860055460045461249790919063ffffffff16565b6000610668600754611f2260065460055461249790919063ffffffff16565b60008261253b575060006123dd565b8282028284828161254857fe5b04146123da5760405162461bcd60e51b8152600401808060200182810382526021815260200180612e546021913960400191505060405180910390fd5b60008082116125db576040805162461bcd60e51b815260206004820152601a60248201527f536166654d6174683a206469766973696f6e206279207a65726f000000000000604482015290519081900360640190fd5b8183816125e457fe5b049392505050565b600154600160a01b900460ff1615612642576040805162461bcd60e51b8152602060048201526014602482015273696e697469616c6973656420213d2066616c736560601b604482015290519081900360640190fd5b6001805460ff60a01b1916600160a01b179055600054604080516001600160a01b039283168152918316602083015280517f434a2db650703b36c824e745330d6397cdaa9ee2cc891a4938ae853e1c50b68d9281900390910190a1600080546001600160a01b039092166001600160a01b0319928316179055600180549091169055565b828054600181600116156101000203166002900490600052602060002090601f0160209004810192826126fc5760008555612742565b82601f1061271557805160ff1916838001178555612742565b82800160010185558215612742579182015b82811115612742578251825591602001919060010190612727565b5061274e929150612769565b5090565b604080518082019091526000808252602082015290565b5b8082111561274e576000815560010161276a565b600082601f83011261278e578081fd5b813560206127a361279e83612d47565b612d24565b82815281810190858301838502870184018810156127bf578586fd5b855b858110156127e65781356127d481612e3e565b845292840192908401906001016127c1565b5090979650505050505050565b600060208284031215612804578081fd5b81356123da81612e3e565b60008060408385031215612821578081fd5b82356001600160401b0380821115612837578283fd5b818501915085601f83011261284a578283fd5b8135602061285a61279e83612d47565b82815281810190858301838502870184018b1015612876578788fd5b8796505b8487101561289857803583526001969096019591830191830161287a565b50965050860135925050808211156128ae578283fd5b506128bb8582860161277e565b9150509250929050565b600060208083850312156128d7578182fd5b82356001600160401b03808211156128ed578384fd5b818501915085601f830112612900578384fd5b813561290e61279e82612d47565b818152848101908486016040808502870188018b101561292c578889fd5b8896505b848710156129865780828c031215612946578889fd5b8051818101818110888211171561295957fe5b8252823561296681612e3e565b815282890135898201528452600196909601959287019290810190612930565b50909998505050505050505050565b6000602082840312156129a6578081fd5b815180151581146123da578182fd5b6000602082840312156129c6578081fd5b81516001600160401b03808211156129dc578283fd5b818401915084601f8301126129ef578283fd5b8151818111156129fb57fe5b612a0e601f8201601f1916602001612d24565b9150808252856020828501011115612a24578384fd5b61248e816020840160208601612d64565b600060208284031215612a46578081fd5b5035919050565b60008060408385031215612a5f578182fd5b50508035926020909101359150565b6000815180845260208085019450808401835b83811015612aa65781516001600160a01b031687529582019590820190600101612a81565b509495945050505050565b6000815180845260208085019450808401835b83811015612aa657815187529582019590820190600101612ac4565b60008151808452612af8816020860160208601612d64565b601f01601f19169290920160200192915050565b6001600160a01b0391909116815260200190565b6001600160a01b0383168152604060208201819052600090612b4490830184612ae0565b949350505050565b6001600160a01b03929092168252602082015260400190565b600060018060a01b038616825284602083015260806040830152612b8c6080830185612ae0565b905082606083015295945050505050565b606080825284519082018190526000906020906080840190828801845b82811015612bdf5781516001600160a01b031684529284019290840190600101612bba565b50505083810382850152612bf38187612ab1565b9150508281036040840152612c088185612ab1565b9695505050505050565b600060a08252612c2560a0830188612ab1565b602083820381850152612c388289612ab1565b848103604086015287518082529092508183019082810284018301838a01865b83811015612c8657601f19878403018552612c74838351612ae0565b94860194925090850190600101612c58565b50508681036060880152612c9a818a612a6e565b955050505050508260808301529695505050505050565b6001600160a01b039290921682521515602082015260400190565b6001600160a01b0392831681529116602082015260400190565b600060208252611f306020830184612ae0565b6001600160c01b039290921682526001600160401b0316602082015260400190565b90815260200190565b6040518181016001600160401b0381118282101715612d3f57fe5b604052919050565b60006001600160401b03821115612d5a57fe5b5060209081020190565b60005b83811015612d7f578181015183820152602001612d67565b83811115612d8e576000848401525b50505050565b60e01c90565b600060443d1015612daa5761066b565b600481823e6308c379a0612dbe8251612d94565b14612dc85761066b565b6040513d600319016004823e80513d6001600160401b038160248401118184111715612df7575050505061066b565b82840192508251915080821115612e11575050505061066b565b503d83016020828401011115612e295750505061066b565b601f01601f1916810160200160405291505090565b6001600160a01b03811681146106ba57600080fdfe536166654d6174683a206d756c7469706c69636174696f6e206f766572666c6f77a26469706673582212207606559bb4c0dc1fa9bf3fca61422a522c7afffbf59aea6bd4a2d2e38403f1ca64736f6c63430007060033",
  "linkReferences": {},
  "deployedLinkReferences": {}
}