{
  "_format": "hh-sol-artifact-1",
  "contractName": "HistoryCleanerMock",
  "sourceName": "contracts/governance/mock/HistoryCleanerMock.sol",
  "abi": [
    {
      "inputs": [
        {
          "internalType": "address[]",
          "name": "_targets",
          "type": "address[]"
        },
        {
          "internalType": "bytes[]",
          "name": "_methodCalls",
          "type": "bytes[]"
        }
      ],
      "name": "cleanup",
      "outputs": [
        {
          "internalType": "uint256[]",
          "name": "_deletedCounts",
          "type": "uint256[]"
        }
      ],
      "stateMutability": "nonpayable",
      "type": "function"
    }
  ],
  "bytecode": "0x608060405234801561001057600080fd5b506106bc806100206000396000f3fe608060405234801561001057600080fd5b506004361061002b5760003560e01c80633a86412314610030575b600080fd5b61004361003e366004610451565b610059565b6040516100509190610550565b60405180910390f35b606081518351146100855760405162461bcd60e51b815260040161007c906105c7565b60405180910390fd5b825167ffffffffffffffff8111801561009d57600080fd5b506040519080825280602002602001820160405280156100c7578160200160208202803683370190505b50905060005b83518110156101f2576000808583815181106100e557fe5b60200260200101516001600160a01b031685848151811061010257fe5b60200260200101516040516101179190610534565b6000604051808303816000865af19150503d8060008114610154576040519150601f19603f3d011682016040523d82523d6000602084013e610159565b606091505b50915091508161019e6040518060400160405280601e81526020017f436c65616e7570206d6574686f642063616c6c206661696c6564206174200000815250856101f9565b906101bc5760405162461bcd60e51b815260040161007c9190610594565b50808060200190518101906101d1919061051c565b8484815181106101dd57fe5b602090810291909101015250506001016100cd565b5092915050565b604080516050808252608082019092526060916000919060208201818036833701905050905060008361025557600360fc1b82828060010193508151811061023d57fe5b60200101906001600160f81b031916908160001a9053505b831561029b578151600a808604956001840193919006916030830160f81b918591811061027e57fe5b60200101906001600160f81b031916908160001a90535050610255565b84518590600090830167ffffffffffffffff811180156102ba57600080fd5b506040519080825280601f01601f1916602001820160405280156102e5576020820181803683370190505b50905060005b82518110156103365782818151811061030057fe5b602001015160f81c60f81b82828151811061031757fe5b60200101906001600160f81b031916908160001a9053506001016102eb565b5060005b8381101561038c57848160018603038151811061035357fe5b602001015160f81c60f81b82845183018151811061036d57fe5b60200101906001600160f81b031916908160001a90535060010161033a565b509695505050505050565b6000601f83818401126103a8578182fd5b823560206103bd6103b883610638565b610614565b82815281810190868301865b8581101561044357813589018a603f8201126103e3578889fd5b85810135604067ffffffffffffffff8211156103fb57fe5b61040c828b01601f19168901610614565b8281528d8284860101111561041f578b8cfd5b828285018a83013791820188018b90525085525092840192908401906001016103c9565b509098975050505050505050565b60008060408385031215610463578182fd5b823567ffffffffffffffff8082111561047a578384fd5b818501915085601f83011261048d578384fd5b8135602061049d6103b883610638565b82815281810190858301838502870184018b10156104b9578889fd5b8896505b848710156104ef5780356001600160a01b03811681146104db57898afd5b8352600196909601959183019183016104bd565b5096505086013592505080821115610505578283fd5b5061051285828601610397565b9150509250929050565b60006020828403121561052d578081fd5b5051919050565b60008251610546818460208701610656565b9190910192915050565b6020808252825182820181905260009190848201906040850190845b818110156105885783518352928401929184019160010161056c565b50909695505050505050565b60006020825282518060208401526105b3816040850160208701610656565b601f01601f19169190910160400192915050565b6020808252602d908201527f4d69736d617463686564206c656e677468206f662063616c6c2074617267657460408201526c7320616e64206d6574686f647360981b606082015260800190565b60405181810167ffffffffffffffff8111828210171561063057fe5b604052919050565b600067ffffffffffffffff82111561064c57fe5b5060209081020190565b60005b83811015610671578181015183820152602001610659565b83811115610680576000848401525b5050505056fea2646970667358221220284cffd5b14399864d038eeb914abdb8527f96275782cd9bf61e5fca8e86ecab64736f6c63430007060033",
  "linkReferences": {},
  "deployedLinkReferences": {}
}