{
  "_format": "hh-sol-artifact-1",
  "contractName": "InfiniteLoopMock",
  "sourceName": "contracts/genesis/mock/InfiniteLoopMock.sol",
  "abi": [
    {
      "inputs": [
        {
          "internalType": "uint256",
          "name": "",
          "type": "uint256"
        }
      ],
      "name": "arr",
      "outputs": [
        {
          "internalType": "uint256",
          "name": "",
          "type": "uint256"
        }
      ],
      "stateMutability": "view",
      "type": "function"
    },
    {
      "inputs": [],
      "name": "count",
      "outputs": [
        {
          "internalType": "uint256",
          "name": "",
          "type": "uint256"
        }
      ],
      "stateMutability": "view",
      "type": "function"
    },
    {
      "inputs": [],
      "name": "daemonize",
      "outputs": [
        {
          "internalType": "bool",
          "name": "",
          "type": "bool"
        }
      ],
      "stateMutability": "nonpayable",
      "type": "function"
    },
    {
      "inputs": [],
      "name": "getContractName",
      "outputs": [
        {
          "internalType": "string",
          "name": "",
          "type": "string"
        }
      ],
      "stateMutability": "pure",
      "type": "function"
    },
    {
      "inputs": [],
      "name": "savedBlock",
      "outputs": [
        {
          "internalType": "uint256",
          "name": "",
          "type": "uint256"
        }
      ],
      "stateMutability": "view",
      "type": "function"
    },
    {
      "inputs": [],
      "name": "switchToFallbackMode",
      "outputs": [
        {
          "internalType": "bool",
          "name": "",
          "type": "bool"
        }
      ],
      "stateMutability": "pure",
      "type": "function"
    }
  ],
  "bytecode": "0x6080604052600060025534801561001557600080fd5b50610242806100256000396000f3fe608060405234801561001057600080fd5b50600436106100625760003560e01c806306661abd146100675780636d0e8c341461008157806371e5ee5f1461009d5780638bd35534146100ba578063e22fdece146100c2578063f5f5ba72146100ca575b600080fd5b61006f610147565b60408051918252519081900360200190f35b61008961014d565b604080519115158252519081900360200190f35b61006f600480360360208110156100b357600080fd5b50356101b6565b61006f6101d7565b6100896101dd565b6100d26101e2565b6040805160208082528351818301528351919283929083019185019080838360005b8381101561010c5781810151838201526020016100f4565b50505050905090810190601f1680156101395780820380516001836020036101000a031916815260200191505b509250505060405180910390f35b60025481565b60006002546000141561015f57436001555b6001546001014314156101a6575b6000805460018101825590805260067f290decd9548b62a8d60345a988386fc84ba6bc95484008f6362f93160ef3e5639091015561016d565b5060028054600190810190915590565b600081815481106101c657600080fd5b600091825260209091200154905081565b60015481565b600090565b60408051808201909152601081526f496e66696e6974654c6f6f704d6f636b60801b60208201529056fea2646970667358221220719ab061a8330f4b3744ae5f4e6e4a5bd6c03e6865633329b78e8030a18669ab64736f6c63430007060033",
  "linkReferences": {},
  "deployedLinkReferences": {}
}