{
  "_format": "hh-sol-artifact-1",
  "contractName": "PollingAccept",
  "sourceName": "contracts/governance/implementation/PollingAccept.sol",
  "abi": [
    {
      "inputs": [
        {
          "internalType": "uint256[]",
          "name": "_proposalSettings",
          "type": "uint256[]"
        },
        {
          "internalType": "address",
          "name": "_governance",
          "type": "address"
        },
        {
          "internalType": "address",
          "name": "_priceSubmitter",
          "type": "address"
        },
        {
          "internalType": "address",
          "name": "_addressUpdater",
          "type": "address"
        }
      ],
      "stateMutability": "nonpayable",
      "type": "constructor"
    },
    {
      "anonymous": false,
      "inputs": [
        {
          "indexed": false,
          "internalType": "uint256",
          "name": "oldAbsoluteThreshold",
          "type": "uint256"
        },
        {
          "indexed": false,
          "internalType": "uint256",
          "name": "newAbsoluteThreshold",
          "type": "uint256"
        }
      ],
      "name": "AbsoluteThresholdSet",
      "type": "event"
    },
    {
      "anonymous": false,
      "inputs": [
        {
          "indexed": false,
          "internalType": "uint256",
          "name": "oldExecutionDelay",
          "type": "uint256"
        },
        {
          "indexed": false,
          "internalType": "uint256",
          "name": "newExecutionDelay",
          "type": "uint256"
        }
      ],
      "name": "ExecutionDelaySet",
      "type": "event"
    },
    {
      "anonymous": false,
      "inputs": [
        {
          "indexed": false,
          "internalType": "uint256",
          "name": "oldExecutionPeriod",
          "type": "uint256"
        },
        {
          "indexed": false,
          "internalType": "uint256",
          "name": "newExecutionPeriod",
          "type": "uint256"
        }
      ],
      "name": "ExecutionPeriodSet",
      "type": "event"
    },
    {
      "anonymous": false,
      "inputs": [
        {
          "indexed": false,
          "internalType": "address",
          "name": "proposedGovernance",
          "type": "address"
        }
      ],
      "name": "GovernanceProposed",
      "type": "event"
    },
    {
      "anonymous": false,
      "inputs": [
        {
          "indexed": false,
          "internalType": "address",
          "name": "oldGovernance",
          "type": "address"
        },
        {
          "indexed": false,
          "internalType": "address",
          "name": "newGoveranance",
          "type": "address"
        }
      ],
      "name": "GovernanceUpdated",
      "type": "event"
    },
    {
      "anonymous": false,
      "inputs": [
        {
          "indexed": false,
          "internalType": "uint256",
          "name": "proposalId",
          "type": "uint256"
        },
        {
          "indexed": false,
          "internalType": "address",
          "name": "proposer",
          "type": "address"
        },
        {
          "indexed": false,
          "internalType": "address[]",
          "name": "targets",
          "type": "address[]"
        },
        {
          "indexed": false,
          "internalType": "uint256[]",
          "name": "values",
          "type": "uint256[]"
        },
        {
          "indexed": false,
          "internalType": "string[]",
          "name": "signatures",
          "type": "string[]"
        },
        {
          "indexed": false,
          "internalType": "bytes[]",
          "name": "calldatas",
          "type": "bytes[]"
        },
        {
          "indexed": false,
          "internalType": "uint256",
          "name": "startTime",
          "type": "uint256"
        },
        {
          "indexed": false,
          "internalType": "uint256",
          "name": "endTime",
          "type": "uint256"
        },
        {
          "indexed": false,
          "internalType": "string",
          "name": "description",
          "type": "string"
        },
        {
          "indexed": false,
          "internalType": "uint256",
          "name": "votePowerBlock",
          "type": "uint256"
        },
        {
          "indexed": false,
          "internalType": "uint256",
          "name": "wrappingThreshold",
          "type": "uint256"
        },
        {
          "indexed": false,
          "internalType": "uint256",
          "name": "absoluteThreshold",
          "type": "uint256"
        },
        {
          "indexed": false,
          "internalType": "uint256",
          "name": "relativeThreshold",
          "type": "uint256"
        }
      ],
      "name": "ProposalCreated",
      "type": "event"
    },
    {
      "anonymous": false,
      "inputs": [
        {
          "indexed": false,
          "internalType": "uint256",
          "name": "proposalId",
          "type": "uint256"
        }
      ],
      "name": "ProposalExecuted",
      "type": "event"
    },
    {
      "anonymous": false,
      "inputs": [
        {
          "indexed": false,
          "internalType": "uint256",
          "name": "oldProposalThreshold",
          "type": "uint256"
        },
        {
          "indexed": false,
          "internalType": "uint256",
          "name": "newProposalThreshold",
          "type": "uint256"
        }
      ],
      "name": "ProposalThresholdSet",
      "type": "event"
    },
    {
      "anonymous": false,
      "inputs": [
        {
          "indexed": false,
          "internalType": "uint256",
          "name": "oldRelativeThreshold",
          "type": "uint256"
        },
        {
          "indexed": false,
          "internalType": "uint256",
          "name": "newRelativeThreshold",
          "type": "uint256"
        }
      ],
      "name": "RelativeThresholdSet",
      "type": "event"
    },
    {
      "anonymous": false,
      "inputs": [
        {
          "indexed": true,
          "internalType": "address",
          "name": "voter",
          "type": "address"
        },
        {
          "indexed": false,
          "internalType": "uint256",
          "name": "proposalId",
          "type": "uint256"
        },
        {
          "indexed": false,
          "internalType": "uint8",
          "name": "support",
          "type": "uint8"
        },
        {
          "indexed": false,
          "internalType": "uint256",
          "name": "weight",
          "type": "uint256"
        },
        {
          "indexed": false,
          "internalType": "string",
          "name": "reason",
          "type": "string"
        }
      ],
      "name": "VoteCast",
      "type": "event"
    },
    {
      "anonymous": false,
      "inputs": [
        {
          "indexed": false,
          "internalType": "uint256",
          "name": "oldVotePowerLifeTimeDays",
          "type": "uint256"
        },
        {
          "indexed": false,
          "internalType": "uint256",
          "name": "newVotePowerLifeTimeDays",
          "type": "uint256"
        }
      ],
      "name": "VotePowerLifeTimeDaysSet",
      "type": "event"
    },
    {
      "anonymous": false,
      "inputs": [
        {
          "indexed": false,
          "internalType": "uint256",
          "name": "oldVotingDelay",
          "type": "uint256"
        },
        {
          "indexed": false,
          "internalType": "uint256",
          "name": "newVotingDelay",
          "type": "uint256"
        }
      ],
      "name": "VotingDelaySet",
      "type": "event"
    },
    {
      "anonymous": false,
      "inputs": [
        {
          "indexed": false,
          "internalType": "uint256",
          "name": "oldVotingPeriod",
          "type": "uint256"
        },
        {
          "indexed": false,
          "internalType": "uint256",
          "name": "newVotingPeriod",
          "type": "uint256"
        }
      ],
      "name": "VotingPeriodSet",
      "type": "event"
    },
    {
      "anonymous": false,
      "inputs": [
        {
          "indexed": false,
          "internalType": "uint256",
          "name": "oldVpBlockPeriodSeconds",
          "type": "uint256"
        },
        {
          "indexed": false,
          "internalType": "uint256",
          "name": "newVpBlockPeriodSeconds",
          "type": "uint256"
        }
      ],
      "name": "VpBlockPeriodSecondsSet",
      "type": "event"
    },
    {
      "anonymous": false,
      "inputs": [
        {
          "indexed": false,
          "internalType": "uint256",
          "name": "oldWrappingThreshold",
          "type": "uint256"
        },
        {
          "indexed": false,
          "internalType": "uint256",
          "name": "newWrappingThreshold",
          "type": "uint256"
        }
      ],
      "name": "WrappingThresholdSet",
      "type": "event"
    },
    {
      "inputs": [],
      "name": "BALLOT_TYPEHASH",
      "outputs": [
        {
          "internalType": "bytes32",
          "name": "",
          "type": "bytes32"
        }
      ],
      "stateMutability": "view",
      "type": "function"
    },
    {
      "inputs": [],
      "name": "absoluteThreshold",
      "outputs": [
        {
          "internalType": "uint256",
          "name": "",
          "type": "uint256"
        }
      ],
      "stateMutability": "view",
      "type": "function"
    },
    {
      "inputs": [
        {
          "internalType": "uint256",
          "name": "_proposalId",
          "type": "uint256"
        },
        {
          "internalType": "uint8",
          "name": "_support",
          "type": "uint8"
        }
      ],
      "name": "castVote",
      "outputs": [
        {
          "internalType": "uint256",
          "name": "",
          "type": "uint256"
        }
      ],
      "stateMutability": "nonpayable",
      "type": "function"
    },
    {
      "inputs": [
        {
          "internalType": "uint256",
          "name": "_proposalId",
          "type": "uint256"
        },
        {
          "internalType": "uint8",
          "name": "_support",
          "type": "uint8"
        },
        {
          "internalType": "uint8",
          "name": "_v",
          "type": "uint8"
        },
        {
          "internalType": "bytes32",
          "name": "_r",
          "type": "bytes32"
        },
        {
          "internalType": "bytes32",
          "name": "_s",
          "type": "bytes32"
        }
      ],
      "name": "castVoteBySig",
      "outputs": [
        {
          "internalType": "uint256",
          "name": "",
          "type": "uint256"
        }
      ],
      "stateMutability": "nonpayable",
      "type": "function"
    },
    {
      "inputs": [
        {
          "internalType": "uint256",
          "name": "_proposalId",
          "type": "uint256"
        },
        {
          "internalType": "uint8",
          "name": "_support",
          "type": "uint8"
        },
        {
          "internalType": "string",
          "name": "_reason",
          "type": "string"
        }
      ],
      "name": "castVoteWithReason",
      "outputs": [
        {
          "internalType": "uint256",
          "name": "",
          "type": "uint256"
        }
      ],
      "stateMutability": "nonpayable",
      "type": "function"
    },
    {
      "inputs": [],
      "name": "chainId",
      "outputs": [
        {
          "internalType": "uint256",
          "name": "",
          "type": "uint256"
        }
      ],
      "stateMutability": "view",
      "type": "function"
    },
    {
      "inputs": [],
      "name": "claimGovernance",
      "outputs": [],
      "stateMutability": "nonpayable",
      "type": "function"
    },
    {
      "inputs": [
        {
          "internalType": "address[]",
          "name": "_targets",
          "type": "address[]"
        },
        {
          "internalType": "uint256[]",
          "name": "_values",
          "type": "uint256[]"
        },
        {
          "internalType": "bytes[]",
          "name": "_calldatas",
          "type": "bytes[]"
        },
        {
          "internalType": "bytes32",
          "name": "_descriptionHash",
          "type": "bytes32"
        }
      ],
      "name": "execute",
      "outputs": [
        {
          "internalType": "uint256",
          "name": "proposalId",
          "type": "uint256"
        }
      ],
      "stateMutability": "payable",
      "type": "function"
    },
    {
      "inputs": [
        {
          "internalType": "string",
          "name": "_description",
          "type": "string"
        }
      ],
      "name": "execute",
      "outputs": [
        {
          "internalType": "uint256",
          "name": "",
          "type": "uint256"
        }
      ],
      "stateMutability": "nonpayable",
      "type": "function"
    },
    {
      "inputs": [],
      "name": "executionDelay",
      "outputs": [
        {
          "internalType": "uint256",
          "name": "",
          "type": "uint256"
        }
      ],
      "stateMutability": "view",
      "type": "function"
    },
    {
      "inputs": [],
      "name": "executionPeriod",
      "outputs": [
        {
          "internalType": "uint256",
          "name": "",
          "type": "uint256"
        }
      ],
      "stateMutability": "view",
      "type": "function"
    },
    {
      "inputs": [],
      "name": "ftsoManager",
      "outputs": [
        {
          "internalType": "contract IIFtsoManager",
          "name": "",
          "type": "address"
        }
      ],
      "stateMutability": "view",
      "type": "function"
    },
    {
      "inputs": [],
      "name": "getAddressUpdater",
      "outputs": [
        {
          "internalType": "address",
          "name": "_addressUpdater",
          "type": "address"
        }
      ],
      "stateMutability": "view",
      "type": "function"
    },
    {
      "inputs": [
        {
          "internalType": "address[]",
          "name": "_targets",
          "type": "address[]"
        },
        {
          "internalType": "uint256[]",
          "name": "_values",
          "type": "uint256[]"
        },
        {
          "internalType": "bytes[]",
          "name": "_calldatas",
          "type": "bytes[]"
        },
        {
          "internalType": "bytes32",
          "name": "_descriptionHash",
          "type": "bytes32"
        }
      ],
      "name": "getProposalId",
      "outputs": [
        {
          "internalType": "uint256",
          "name": "",
          "type": "uint256"
        }
      ],
      "stateMutability": "view",
      "type": "function"
    },
    {
      "inputs": [
        {
          "internalType": "uint256",
          "name": "_proposalId",
          "type": "uint256"
        }
      ],
      "name": "getProposalInfo",
      "outputs": [
        {
          "internalType": "address",
          "name": "_proposer",
          "type": "address"
        },
        {
          "internalType": "uint256",
          "name": "_votePowerBlock",
          "type": "uint256"
        },
        {
          "internalType": "uint256",
          "name": "_voteStartTime",
          "type": "uint256"
        },
        {
          "internalType": "uint256",
          "name": "_voteEndTime",
          "type": "uint256"
        },
        {
          "internalType": "uint256",
          "name": "_execStartTime",
          "type": "uint256"
        },
        {
          "internalType": "uint256",
          "name": "_execEndTime",
          "type": "uint256"
        },
        {
          "internalType": "bool",
          "name": "_executed",
          "type": "bool"
        }
      ],
      "stateMutability": "view",
      "type": "function"
    },
    {
      "inputs": [
        {
          "internalType": "uint256",
          "name": "_proposalId",
          "type": "uint256"
        }
      ],
      "name": "getProposalVP",
      "outputs": [
        {
          "internalType": "uint256",
          "name": "_totalVP",
          "type": "uint256"
        },
        {
          "internalType": "uint256",
          "name": "_for",
          "type": "uint256"
        },
        {
          "internalType": "uint256",
          "name": "_against",
          "type": "uint256"
        },
        {
          "internalType": "uint256",
          "name": "_abstain",
          "type": "uint256"
        }
      ],
      "stateMutability": "view",
      "type": "function"
    },
    {
      "inputs": [],
      "name": "getVotePowerLifeTimeDays",
      "outputs": [
        {
          "internalType": "uint256",
          "name": "",
          "type": "uint256"
        }
      ],
      "stateMutability": "view",
      "type": "function"
    },
    {
      "inputs": [
        {
          "internalType": "address",
          "name": "_voter",
          "type": "address"
        },
        {
          "internalType": "uint256",
          "name": "_blockNumber",
          "type": "uint256"
        }
      ],
      "name": "getVotes",
      "outputs": [
        {
          "internalType": "uint256",
          "name": "",
          "type": "uint256"
        }
      ],
      "stateMutability": "view",
      "type": "function"
    },
    {
      "inputs": [],
      "name": "getVpBlockPeriodSeconds",
      "outputs": [
        {
          "internalType": "uint256",
          "name": "",
          "type": "uint256"
        }
      ],
      "stateMutability": "view",
      "type": "function"
    },
    {
      "inputs": [],
      "name": "governance",
      "outputs": [
        {
          "internalType": "address",
          "name": "",
          "type": "address"
        }
      ],
      "stateMutability": "view",
      "type": "function"
    },
    {
      "inputs": [
        {
          "internalType": "uint256",
          "name": "_proposalId",
          "type": "uint256"
        },
        {
          "internalType": "address",
          "name": "_voter",
          "type": "address"
        }
      ],
      "name": "hasVoted",
      "outputs": [
        {
          "internalType": "bool",
          "name": "",
          "type": "bool"
        }
      ],
      "stateMutability": "view",
      "type": "function"
    },
    {
      "inputs": [
        {
          "internalType": "address",
          "name": "_governance",
          "type": "address"
        }
      ],
      "name": "initialise",
      "outputs": [],
      "stateMutability": "nonpayable",
      "type": "function"
    },
    {
      "inputs": [],
      "name": "priceSubmitter",
      "outputs": [
        {
          "internalType": "contract IPriceSubmitter",
          "name": "",
          "type": "address"
        }
      ],
      "stateMutability": "view",
      "type": "function"
    },
    {
      "inputs": [],
      "name": "proposalThreshold",
      "outputs": [
        {
          "internalType": "uint256",
          "name": "",
          "type": "uint256"
        }
      ],
      "stateMutability": "view",
      "type": "function"
    },
    {
      "inputs": [
        {
          "internalType": "address[]",
          "name": "_targets",
          "type": "address[]"
        },
        {
          "internalType": "uint256[]",
          "name": "_values",
          "type": "uint256[]"
        },
        {
          "internalType": "bytes[]",
          "name": "_calldatas",
          "type": "bytes[]"
        },
        {
          "internalType": "string",
          "name": "_description",
          "type": "string"
        }
      ],
      "name": "propose",
      "outputs": [
        {
          "internalType": "uint256",
          "name": "",
          "type": "uint256"
        }
      ],
      "stateMutability": "nonpayable",
      "type": "function"
    },
    {
      "inputs": [
        {
          "internalType": "string",
          "name": "_description",
          "type": "string"
        }
      ],
      "name": "propose",
      "outputs": [
        {
          "internalType": "uint256",
          "name": "",
          "type": "uint256"
        }
      ],
      "stateMutability": "nonpayable",
      "type": "function"
    },
    {
      "inputs": [
        {
          "internalType": "address",
          "name": "_governance",
          "type": "address"
        }
      ],
      "name": "proposeGovernance",
      "outputs": [],
      "stateMutability": "nonpayable",
      "type": "function"
    },
    {
      "inputs": [],
      "name": "proposedGovernance",
      "outputs": [
        {
          "internalType": "address",
          "name": "",
          "type": "address"
        }
      ],
      "stateMutability": "view",
      "type": "function"
    },
    {
      "inputs": [
        {
          "internalType": "uint256",
          "name": "_blockNumber",
          "type": "uint256"
        }
      ],
      "name": "quorum",
      "outputs": [
        {
          "internalType": "uint256",
          "name": "",
          "type": "uint256"
        }
      ],
      "stateMutability": "view",
      "type": "function"
    },
    {
      "inputs": [],
      "name": "relativeThreshold",
      "outputs": [
        {
          "internalType": "uint256",
          "name": "",
          "type": "uint256"
        }
      ],
      "stateMutability": "view",
      "type": "function"
    },
    {
      "inputs": [
        {
          "internalType": "uint256",
          "name": "_absoluteThresholdBIPS",
          "type": "uint256"
        }
      ],
      "name": "setAbsoluteThreshold",
      "outputs": [],
      "stateMutability": "nonpayable",
      "type": "function"
    },
    {
      "inputs": [
        {
          "internalType": "uint256",
          "name": "_executionDelaySeconds",
          "type": "uint256"
        }
      ],
      "name": "setExecutionDelay",
      "outputs": [],
      "stateMutability": "nonpayable",
      "type": "function"
    },
    {
      "inputs": [
        {
          "internalType": "uint256",
          "name": "_executionPeriodSeconds",
          "type": "uint256"
        }
      ],
      "name": "setExecutionPeriod",
      "outputs": [],
      "stateMutability": "nonpayable",
      "type": "function"
    },
    {
      "inputs": [
        {
          "internalType": "uint256",
          "name": "_proposalThresholdBIPS",
          "type": "uint256"
        }
      ],
      "name": "setProposalThreshold",
      "outputs": [],
      "stateMutability": "nonpayable",
      "type": "function"
    },
    {
      "inputs": [
        {
          "internalType": "uint256",
          "name": "_relativeThresholdBIPS",
          "type": "uint256"
        }
      ],
      "name": "setRelativeThreshold",
      "outputs": [],
      "stateMutability": "nonpayable",
      "type": "function"
    },
    {
      "inputs": [
        {
          "internalType": "uint256",
          "name": "_votePowerLifeTimeDays",
          "type": "uint256"
        }
      ],
      "name": "setVotePowerLifeTimeDays",
      "outputs": [],
      "stateMutability": "nonpayable",
      "type": "function"
    },
    {
      "inputs": [
        {
          "internalType": "uint256",
          "name": "_votingDelaySeconds",
          "type": "uint256"
        }
      ],
      "name": "setVotingDelay",
      "outputs": [],
      "stateMutability": "nonpayable",
      "type": "function"
    },
    {
      "inputs": [
        {
          "internalType": "uint256",
          "name": "_votingPeriodSeconds",
          "type": "uint256"
        }
      ],
      "name": "setVotingPeriod",
      "outputs": [],
      "stateMutability": "nonpayable",
      "type": "function"
    },
    {
      "inputs": [
        {
          "internalType": "uint256",
          "name": "_vpBlockPeriodSeconds",
          "type": "uint256"
        }
      ],
      "name": "setVpBlockPeriodSeconds",
      "outputs": [],
      "stateMutability": "nonpayable",
      "type": "function"
    },
    {
      "inputs": [
        {
          "internalType": "uint256",
          "name": "_wrappingThresholdBIPS",
          "type": "uint256"
        }
      ],
      "name": "setWrappingThreshold",
      "outputs": [],
      "stateMutability": "nonpayable",
      "type": "function"
    },
    {
      "inputs": [
        {
          "internalType": "uint256",
          "name": "_proposalId",
          "type": "uint256"
        }
      ],
      "name": "state",
      "outputs": [
        {
          "internalType": "enum IGovernor.ProposalState",
          "name": "",
          "type": "uint8"
        }
      ],
      "stateMutability": "view",
      "type": "function"
    },
    {
      "inputs": [],
      "name": "supply",
      "outputs": [
        {
          "internalType": "contract IISupply",
          "name": "",
          "type": "address"
        }
      ],
      "stateMutability": "view",
      "type": "function"
    },
    {
      "inputs": [
        {
          "internalType": "address",
          "name": "_governance",
          "type": "address"
        }
      ],
      "name": "transferGovernance",
      "outputs": [],
      "stateMutability": "nonpayable",
      "type": "function"
    },
    {
      "inputs": [
        {
          "internalType": "bytes32[]",
          "name": "_contractNameHashes",
          "type": "bytes32[]"
        },
        {
          "internalType": "address[]",
          "name": "_contractAddresses",
          "type": "address[]"
        }
      ],
      "name": "updateContractAddresses",
      "outputs": [],
      "stateMutability": "nonpayable",
      "type": "function"
    },
    {
      "inputs": [],
      "name": "votePower",
      "outputs": [
        {
          "internalType": "contract IIGovernanceVotePower",
          "name": "",
          "type": "address"
        }
      ],
      "stateMutability": "view",
      "type": "function"
    },
    {
      "inputs": [],
      "name": "votingDelay",
      "outputs": [
        {
          "internalType": "uint256",
          "name": "",
          "type": "uint256"
        }
      ],
      "stateMutability": "view",
      "type": "function"
    },
    {
      "inputs": [],
      "name": "votingPeriod",
      "outputs": [
        {
          "internalType": "uint256",
          "name": "",
          "type": "uint256"
        }
      ],
      "stateMutability": "view",
      "type": "function"
    },
    {
      "inputs": [],
      "name": "wrappingThreshold",
      "outputs": [
        {
          "internalType": "uint256",
          "name": "",
          "type": "uint256"
        }
      ],
      "stateMutability": "view",
      "type": "function"
    }
  ],
  "bytecode": "0x6101606040523480156200001257600080fd5b506040516200436e3803806200436e833981016040819052620000359162000786565b838383838083856000815181106200004957fe5b6020026020010151866001815181106200005f57fe5b6020026020010151876002815181106200007557fe5b6020026020010151886003815181106200008b57fe5b602002602001015189600481518110620000a157fe5b60200260200101518a600581518110620000b757fe5b60200260200101518b600681518110620000cd57fe5b60200260200101518c600781518110620000e357fe5b60200260200101518d600881518110620000f957fe5b60200260200101518e6009815181106200010f57fe5b60200260200101518a8062000129620002af60201b60201c565b62000133620002d6565b815160208084019190912082519183019190912060c082905260e08190527f8b73c3c69bb8fe3d512ecc4cf759cc79239f7b179b0ffacaa9a75d522b39400f6200017c620002f1565b60a0526200018c818484620002f5565b60805261010052505050506001600160a01b03811615620001b257620001b28162000359565b506001600160a01b03811662000202576040805162461bcd60e51b815260206004820152601060248201526f5f676f7665726e616e6365207a65726f60801b604482015290519081900360640190fd5b506200020e8a6200043d565b62000219896200047f565b6200022488620004c1565b6200022f876200052f565b6200023a8662000571565b6200024585620005d6565b620002508462000618565b6200025b836200065a565b62000266826200069c565b6200027181620006de565b50504661012052506200028f97508896505062000745945050505050565b505060601b6001600160601b031916610140525062000927945050505050565b60408051808201909152600d81526c141bdb1b1a5b99d058d8d95c1d609a1b602082015290565b6040805180820190915260018152603160f81b602082015290565b4690565b600083838362000304620002f1565b3060405160200180868152602001858152602001848152602001838152602001826001600160a01b03168152602001955050505050506040516020818303038152906040528051906020012090509392505050565b600154600160a01b900460ff1615620003b9576040805162461bcd60e51b815260206004820152601460248201527f696e697469616c6973656420213d2066616c7365000000000000000000000000604482015290519081900360640190fd5b6001805460ff60a01b1916600160a01b179055600054604080516001600160a01b039283168152918316602083015280517f434a2db650703b36c824e745330d6397cdaa9ee2cc891a4938ae853e1c50b68d9281900390910190a1600080546001600160a01b039092166001600160a01b0319928316179055600180549091169055565b7fccb45da8d5717e6c4544694297c4ba5cf151d455c9bb0ed4fc7a38411bc05461600254826040516200047292919062000919565b60405180910390a1600255565b7fc565b045403dc03c2eea82b81a0465edad9e2e7fc4d97e11421c209da93d7a9360045482604051620004b492919062000919565b60405180910390a1600455565b60008111620004ed5760405162461bcd60e51b8152600401620004e490620008e2565b60405180910390fd5b7f7e3f7f0708a84de9203036abaa450dccc85ad5ff52f78c170f3edb55cf5e8828600554826040516200052292919062000919565b60405180910390a1600555565b7f2056b1a79eedb94135a24bdb0827c0ac4823d13d69f5cf7923ee5751c53ff645600654826040516200056492919062000919565b60405180910390a1600655565b60008111620005945760405162461bcd60e51b8152600401620004e490620008ab565b7fdcd7d6f89a192742519ec6798e6340b4e43748282ac27856e823a2579b50fe4360075482604051620005c992919062000919565b60405180910390a1600755565b7fb0696527788a80f2825d3fd8b9e9c017c6b3d7f5eb5a54eaa86deaa286d10c38600854826040516200060b92919062000919565b60405180910390a1600855565b7fa679132e53a14a0f5674480a8def108a2856034a2338cb9a064e7e2f8badf29e600954826040516200064d92919062000919565b60405180910390a1600955565b7fd0f8dc4a59c4d23c896412e4f16b39936e8fd83972acf00d91af64bd3511e51a600a54826040516200068f92919062000919565b60405180910390a1600a55565b7f631d262a54e429270a60189077cb4562e4131dc775629e446fd5a0fa684adb15600b5482604051620006d192919062000919565b60405180910390a1600b55565b611388811015620007035760405162461bcd60e51b8152600401620004e49062000874565b7f4d66ba28c0bc0eb2229d86d7f91e743c971140fcda7f8783e1cbaa0fdfe65465600c54826040516200073892919062000919565b60405180910390a1600c55565b7f714f205b2abd25bef1d06a1af944e38c113fe6160375c4e1d6d5cf28848e771955565b80516001600160a01b03811681146200078157600080fd5b919050565b600080600080608085870312156200079c578384fd5b84516001600160401b0380821115620007b3578586fd5b818701915087601f830112620007c7578586fd5b8151602082821115620007d657fe5b80820260405182828201018181108682111715620007f057fe5b604052838152828101945085830182870184018d10156200080f578a8bfd5b8a96505b848710156200083357805186526001969096019594830194830162000813565b50985062000845905089820162000769565b965050505050620008596040860162000769565b9150620008696060860162000769565b905092959194509250565b6020808252601e908201527f696e76616c6964205f72656c61746976655468726573686f6c64424950530000604082015260600190565b60208082526018908201527f657865637574696f6e20706572696f6420746f6f206c6f770000000000000000604082015260600190565b60208082526015908201527f766f74696e6720706572696f6420746f6f206c6f770000000000000000000000604082015260600190565b918252602082015260400190565b60805160a05160c05160e05161010051610120516101405160601c6139e66200098860003980610fc55280612461525080610b4b52806117f952508061202d52508061206f52508061204e525080611fd452508061200452506139e66000f3fe6080604052600436106102935760003560e01c80639e2242201161015a578063d99e4b76116100c1578063ece40cc11161007a578063ece40cc11461077d578063f17c9d761461079d578063f2f3a74c146107b2578063f8ce560a146107c7578063f9117862146107e7578063f937d6ad146107fc57610293565b8063d99e4b76146106d3578063dd3fa0f9146106f3578063deaaa7cc14610708578063e4917d9f1461071d578063ea0217cf1461073d578063eb9019d41461075d57610293565b8063ba1b458611610113578063ba1b4586146105fb578063bc903cb81461062b578063bd590d7e1461065e578063c373a08e1461067e578063d11d0d581461069e578063d38bfff4146106b357610293565b80639e22422014610551578063a8f8a66814610566578063aa98df3914610586578063b00c0b76146105a6578063b4df57fe146105c6578063b58131b0146105e657610293565b80635d36b190116101fe57806370b0f660116101b757806370b0f660146104a75780637b3c71d3146104c75780637d5e81e2146104e75780638b257989146105075780639a8a05921461051c5780639d6a890f1461053157610293565b80635d36b1901461040857806360e775321461041d57806360f7ac971461043d57806361bbfcad146104525780636a714a9f146104725780636df5f8ca1461048757610293565b80633bccf4fd116102505780633bccf4fd146103445780633e4f49e61461036457806343859632146103915780635267a15d146103be57806356781388146103d35780635aa6e675146103f357610293565b806302a251a314610298578063047fc9aa146102c357806311a7aaaa146102e557806312d0e9fe146102fa5780632656227d1461031c5780633932abb11461032f575b600080fd5b3480156102a457600080fd5b506102ad610811565b6040516102ba9190613325565b60405180910390f35b3480156102cf57600080fd5b506102d8610818565b6040516102ba91906132b0565b3480156102f157600080fd5b506102d8610827565b34801561030657600080fd5b5061031a61031536600461304d565b610836565b005b6102ad61032a366004612dbe565b61084a565b34801561033b57600080fd5b506102ad610861565b34801561035057600080fd5b506102ad61035f366004613159565b610867565b34801561037057600080fd5b5061038461037f36600461304d565b61092d565b6040516102ba9190613347565b34801561039d57600080fd5b506103b16103ac36600461307d565b61094e565b6040516102ba919061331a565b3480156103ca57600080fd5b506102d861097e565b3480156103df57600080fd5b506102ad6103ee3660046130ac565b6109a3565b3480156103ff57600080fd5b506102d86109c7565b34801561041457600080fd5b5061031a6109d6565b34801561042957600080fd5b5061031a61043836600461304d565b610a98565b34801561044957600080fd5b506102d8610aa9565b34801561045e57600080fd5b5061031a61046d36600461304d565b610ab8565b34801561047e57600080fd5b506102ad610ac9565b34801561049357600080fd5b5061031a6104a236600461304d565b610acf565b3480156104b357600080fd5b5061031a6104c236600461304d565b610ae0565b3480156104d357600080fd5b506102ad6104e23660046130d7565b610af1565b3480156104f357600080fd5b506102ad610502366004612e4a565b610b35565b34801561051357600080fd5b506102ad610b43565b34801561052857600080fd5b506102ad610b49565b34801561053d57600080fd5b5061031a61054c366004612d77565b610b6d565b34801561055d57600080fd5b506102ad610c47565b34801561057257600080fd5b506102ad610581366004612dbe565b610c4d565b34801561059257600080fd5b506102ad6105a1366004612fc5565b610c5b565b3480156105b257600080fd5b5061031a6105c1366004612ef2565b610ca2565b3480156105d257600080fd5b5061031a6105e136600461304d565b610d4d565b3480156105f257600080fd5b506102ad610d5e565b34801561060757600080fd5b5061061b61061636600461304d565b610d64565b6040516102ba9493929190613877565b34801561063757600080fd5b5061064b61064636600461304d565b610d95565b6040516102ba97969594939291906132dd565b34801561066a57600080fd5b506102ad610679366004612fc5565b610de4565b34801561068a57600080fd5b5061031a610699366004612d77565b610e33565b3480156106aa57600080fd5b506102ad610e8f565b3480156106bf57600080fd5b5061031a6106ce366004612d77565b610e95565b3480156106df57600080fd5b5061031a6106ee36600461304d565b610f0e565b3480156106ff57600080fd5b506102ad610f1f565b34801561071457600080fd5b506102ad610f25565b34801561072957600080fd5b5061031a61073836600461304d565b610f49565b34801561074957600080fd5b5061031a61075836600461304d565b610f5a565b34801561076957600080fd5b506102ad610778366004612d93565b610f6b565b34801561078957600080fd5b5061031a61079836600461304d565b610f77565b3480156107a957600080fd5b506102d8610f88565b3480156107be57600080fd5b506102ad610f97565b3480156107d357600080fd5b506102ad6107e236600461304d565b610f9d565b3480156107f357600080fd5b506102ad610fbd565b34801561080857600080fd5b506102d8610fc3565b6005545b90565b6012546001600160a01b031681565b6011546001600160a01b031681565b61083e610fe7565b6108478161103a565b50565b60006108588585858561107a565b95945050505050565b60045490565b6000806108c56108c07f150214d74d59b7d1e90c73fc22ef3d991dd0a76b046543d4d80ab92d2a50328f89896040516020016108a59392919061332e565b60405160208183030381529060405280519060200120611183565b6111cf565b905060006108d582878787611220565b90506001600160a01b0381166109065760405162461bcd60e51b81526004016108fd90613549565b60405180910390fd5b61092188828960405180602001604052806000815250611395565b98975050505050505050565b6000818152600f60205260408120610946908390611446565b90505b919050565b60008281526010602090815260408083206001600160a01b038516845260030190915290205460ff165b92915050565b7f714f205b2abd25bef1d06a1af944e38c113fe6160375c4e1d6d5cf28848e77195490565b60006109c083338460405180602001604052806000815250611395565b9392505050565b6000546001600160a01b031681565b6001546001600160a01b03163314610a25576040805162461bcd60e51b815260206004820152600d60248201526c1b9bdd0818db185a5b585a5b9d609a1b604482015290519081900360640190fd5b600054600154604080516001600160a01b03938416815292909116602083015280517f434a2db650703b36c824e745330d6397cdaa9ee2cc891a4938ae853e1c50b68d9281900390910190a160018054600080546001600160a01b03199081166001600160a01b03841617909155169055565b610aa0610fe7565b61084781611508565b6001546001600160a01b031681565b610ac0610fe7565b61084781611548565b60095490565b610ad7610fe7565b610847816115aa565b610ae8610fe7565b610847816115ea565b600061085885338686868080601f01602080910402602001604051908101604052809392919081815260200183838082843760009201919091525061139592505050565b60006108588585858561162a565b60065490565b7f000000000000000000000000000000000000000000000000000000000000000081565b600154600160a01b900460ff1615610bc3576040805162461bcd60e51b8152602060048201526014602482015273696e697469616c6973656420213d2066616c736560601b604482015290519081900360640190fd5b6001805460ff60a01b1916600160a01b179055600054604080516001600160a01b039283168152918316602083015280517f434a2db650703b36c824e745330d6397cdaa9ee2cc891a4938ae853e1c50b68d9281900390910190a1600080546001600160a01b039092166001600160a01b0319928316179055600180549091169055565b600c5490565b6000610858858585856117f5565b6040805160008082526020820181815282840182815260608401909452909261094692919084610c9b565b6060815260200190600190039081610c865790505b508561162a565b610caa61097e565b6001600160a01b0316336001600160a01b031614610d06576040805162461bcd60e51b815260206004820152601460248201527337b7363c9030b2323932b9b9903ab83230ba32b960611b604482015290519081900360640190fd5b610d3f610d3a83836040518060400160405280600e81526020016d20b2323932b9b9aab83230ba32b960911b815250611853565b611977565b610d49828261199b565b5050565b610d55610fe7565b61084781611a86565b60025490565b6000908152601060209081526040808320600f90925290912060090154600282015460018301549254919390929190565b6000908152600f602052604090208054600182015460028301546003840154600485015460058601546006909601546001600160a01b0390951696939592949193909291610100900460ff1690565b6040805160008082526020820181815282840182815260608401909452909261094692919084610e24565b6060815260200190600190039081610e0f5790505b50610e2e86611ac6565b61107a565b610e3b610fe7565b600180546001600160a01b0383166001600160a01b0319909116811790915560408051918252517f1f95fb40be3a947982072902a887b521248d1d8931a39eb38f84f4d6fd758b699181900360200190a150565b60075490565b610e9d610fe7565b600054604080516001600160a01b039283168152918316602083015280517f434a2db650703b36c824e745330d6397cdaa9ee2cc891a4938ae853e1c50b68d9281900390910190a1600080546001600160a01b039092166001600160a01b0319928316179055600180549091169055565b610f16610fe7565b61084781611ad1565b600a5490565b7f150214d74d59b7d1e90c73fc22ef3d991dd0a76b046543d4d80ab92d2a50328f81565b610f51610fe7565b61084781611b31565b610f62610fe7565b61084781611b71565b60006109c08383611bd1565b610f7f610fe7565b61084781611c54565b600d546001600160a01b031681565b600b5490565b6000610946610fab83611c94565b612710610fb6610f97565b9190611d8c565b60085490565b7f000000000000000000000000000000000000000000000000000000000000000081565b6000546001600160a01b03163314611038576040805162461bcd60e51b815260206004820152600f60248201526e6f6e6c7920676f7665726e616e636560881b604482015290519081900360640190fd5b565b7fa679132e53a14a0f5674480a8def108a2856034a2338cb9a064e7e2f8badf29e6009548260405161106d929190613869565b60405180910390a1600955565b6000611088858585856117f5565b6000818152600f60205260409020600681015491925090610100900460ff16156110c45760405162461bcd60e51b81526004016108fd9061371a565b80546001600160a01b031633146110ed5760405162461bcd60e51b81526004016108fd906134b5565b60006110f98383611446565b9050600481600681111561110957fe5b146111265760405162461bcd60e51b81526004016108fd906136e3565b60068201805461ff001916610100179055611142878787611e98565b7f712ae1383f79ac853f8d882153778e0260ef8f03b504e2866e0593e04d2b291f836040516111719190613325565b60405180910390a15050949350505050565b600061118d611fd0565b82604051602001808061190160f01b81525060020183815260200182815260200192505050604051602081830303815290604052805190602001209050919050565b604080517f19457468657265756d205369676e6564204d6573736167653a0a333200000000602080830191909152603c8083019490945282518083039094018452605c909101909152815191012090565b60007f7fffffffffffffffffffffffffffffff5d576e7357a4501ddfe92f46681b20a08211156112815760405162461bcd60e51b815260040180806020018281038252602281526020018061394c6022913960400191505060405180910390fd5b8360ff16601b148061129657508360ff16601c145b6112d15760405162461bcd60e51b815260040180806020018281038252602281526020018061396e6022913960400191505060405180910390fd5b600060018686868660405160008152602001604052604051808581526020018460ff1681526020018381526020018281526020019450505050506020604051602081039080840390855afa15801561132d573d6000803e3d6000fd5b5050604051601f1901519150506001600160a01b038116610858576040805162461bcd60e51b815260206004820152601860248201527f45434453413a20696e76616c6964207369676e61747572650000000000000000604482015290519081900360640190fd5b6000848152600f6020526040812060016113af8783611446565b60068111156113ba57fe5b146113d75760405162461bcd60e51b81526004016108fd90613654565b60006113e7868360010154611bd1565b90506113f58787878461209a565b856001600160a01b03167fb8e138887d0aa13bab447e82de9d5c1777041ecd21ca36ba824ff1e6c07ddda4888784886040516114349493929190613892565b60405180910390a29695505050505050565b6006810154600090610100900460ff161561146357506006610978565b60028201546114845760405162461bcd60e51b81526004016108fd90613579565b428260020154111561149857506000610978565b42826003015411156114ac57506001610978565b6114b6838361216d565b156114ff57600682015460ff166114cf57506004610978565b42826004015411156114e357506003610978565b42826005015411156114f757506004610978565b506005610978565b50600292915050565b7fb0696527788a80f2825d3fd8b9e9c017c6b3d7f5eb5a54eaa86deaa286d10c386008548260405161153b929190613869565b60405180910390a1600855565b61138881101561156a5760405162461bcd60e51b81526004016108fd906133c2565b7f4d66ba28c0bc0eb2229d86d7f91e743c971140fcda7f8783e1cbaa0fdfe65465600c548260405161159d929190613869565b60405180910390a1600c55565b7f631d262a54e429270a60189077cb4562e4131dc775629e446fd5a0fa684adb15600b54826040516115dd929190613869565b60405180910390a1600b55565b7fc565b045403dc03c2eea82b81a0465edad9e2e7fc4d97e11421c209da93d7a936004548260405161161d929190613869565b60405180910390a1600455565b60008060006116376121e2565b91509150600061164683611c94565b90506116d5611653610f1f565b60125460405163d9330e6360e01b8152612710916001600160a01b03169063d9330e6390611685908990600401613325565b60206040518083038186803b15801561169d57600080fd5b505afa1580156116b1573d6000803e3d6000fd5b505050506040513d601f19601f82011682018060405250810190610fb69190613065565b8110156116f45760405162461bcd60e51b81526004016108fd9061335b565b6116fe338461254b565b61171a5760405162461bcd60e51b81526004016108fd90613430565b60008061172e338b8b8b8b8a8a308b612557565b915091507f53e2beb5abd73df43954e3edfad58c534eade4a0a6e8a128389f066e4cb7c28182338c8c8e5167ffffffffffffffff8111801561176f57600080fd5b506040519080825280602002602001820160405280156117a357816020015b606081526020019060019003908161178e5790505b508d876002015488600301548f8a600101546117bd610f1f565b8c600701548d600801546040516117e09d9c9b9a99989796959493929190613751565b60405180910390a15098975050505050505050565b60007f0000000000000000000000000000000000000000000000000000000000000000308686868660405160200161183296959493929190613805565b60408051601f19818403018152919052805160209091012095945050505050565b600080826040516020018080602001828103825283818151815260200191508051906020019080838360005b8381101561189757818101518382015260200161187f565b50505050905090810190601f1680156118c45780820380516001836020036101000a031916815260200191505b50925050506040516020818303038152906040528051906020012090506000805b865181101561192c578681815181106118fa57fe5b60200260200101518314156119245785818151811061191557fe5b6020026020010151915061192c565b6001016118e5565b506001600160a01b038116610858576040805162461bcd60e51b815260206004820152600c60248201526b61646472657373207a65726f60a01b604482015290519081900360640190fd5b7f714f205b2abd25bef1d06a1af944e38c113fe6160375c4e1d6d5cf28848e771955565b6119c982826040518060400160405280600b81526020016a233a39b7a6b0b730b3b2b960a91b815250611853565b601160006101000a8154816001600160a01b0302191690836001600160a01b03160217905550611a18828260405180604001604052806006815260200165537570706c7960d01b815250611853565b601260006101000a8154816001600160a01b0302191690836001600160a01b031602179055506000611a7683836040518060400160405280601381526020017223b7bb32b93730b731b2ab37ba32a837bbb2b960691b815250611853565b9050611a81816129da565b505050565b7fd0f8dc4a59c4d23c896412e4f16b39936e8fd83972acf00d91af64bd3511e51a600a5482604051611ab9929190613869565b60405180910390a1600a55565b805160209091012090565b60008111611af15760405162461bcd60e51b81526004016108fd906135a6565b7fdcd7d6f89a192742519ec6798e6340b4e43748282ac27856e823a2579b50fe4360075482604051611b24929190613869565b60405180910390a1600755565b7f2056b1a79eedb94135a24bdb0827c0ac4823d13d69f5cf7923ee5751c53ff64560065482604051611b64929190613869565b60405180910390a1600655565b60008111611b915760405162461bcd60e51b81526004016108fd90613625565b7f7e3f7f0708a84de9203036abaa450dccc85ad5ff52f78c170f3edb55cf5e882860055482604051611bc4929190613869565b60405180910390a1600555565b600d54604051631257fcdb60e31b81526000916001600160a01b0316906392bfe6d890611c0490869086906004016132c4565b60206040518083038186803b158015611c1c57600080fd5b505afa158015611c30573d6000803e3d6000fd5b505050506040513d601f19601f820116820180604052508101906109c09190613065565b7fccb45da8d5717e6c4544694297c4ba5cf151d455c9bb0ed4fc7a38411bc0546160025482604051611c87929190613869565b60405180910390a1600255565b600d5460408051636537188360e01b815290516000926001600160a01b0316916365371883916004808301926020929190829003018186803b158015611cd957600080fd5b505afa158015611ced573d6000803e3d6000fd5b505050506040513d601f19601f82011682018060405250810190611d119190612fa9565b6001600160a01b0316633e5aa26a836040518263ffffffff1660e01b8152600401611d3c9190613325565b60206040518083038186803b158015611d5457600080fd5b505afa158015611d68573d6000803e3d6000fd5b505050506040513d601f19601f820116820180604052508101906109469190613065565b6000808211611dd5576040805162461bcd60e51b815260206004820152601060248201526f4469766973696f6e206279207a65726f60801b604482015290519081900360640190fd5b83611de2575060006109c0565b83830283858281611def57fe5b041415611e0857828181611dff57fe5b049150506109c0565b6000838681611e1357fe5b0490506000848781611e2157fe5b0690506000858781611e2f57fe5b0490506000868881611e3d57fe5b069050611e8b611e5788611e5186856129fc565b90612a55565b611e85611e6486866129fc565b611e85611e7189876129fc565b611e858d611e7f8c8b6129fc565b906129fc565b90612abc565b9998505050505050505050565b6000805b8351811015611eca57838181518110611eb157fe5b6020026020010151820191508080600101915050611e9c565b50803414611eea5760405162461bcd60e51b81526004016108fd906135dd565b60005b8451811015611fc957600080868381518110611f0557fe5b60200260200101516001600160a01b0316868481518110611f2257fe5b6020026020010151868581518110611f3657fe5b6020026020010151604051611f4b9190613294565b60006040518083038185875af1925050503d8060008114611f88576040519150601f19603f3d011682016040523d82523d6000602084013e611f8d565b606091505b509150915081611fbf57805115611fa75780518082602001fd5b60405162461bcd60e51b81526004016108fd9061347e565b5050600101611eed565b5050505050565b60007f0000000000000000000000000000000000000000000000000000000000000000611ffb612b16565b141561202857507f0000000000000000000000000000000000000000000000000000000000000000610815565b6120937f00000000000000000000000000000000000000000000000000000000000000007f00000000000000000000000000000000000000000000000000000000000000007f0000000000000000000000000000000000000000000000000000000000000000612b1a565b9050610815565b60008481526010602090815260408083206001600160a01b0387168452600381019092529091205460ff16156120e25760405162461bcd60e51b81526004016108fd906136b8565b6001600160a01b03841660009081526003820160205260408120805460ff1916600117905560ff168360ff1614156121235760018101805483019055611fc9565b60ff83166001141561213e5760028101805483019055611fc9565b60ff83166002141561215557805482018155611fc9565b60405162461bcd60e51b81526004016108fd90613681565b60008281526010602052604081206009830154600784015461219191612710611d8c565b816002015410156121a6576000915050610978565b6001810154600282015460088501546121c492909101612710611d8c565b8160020154116121d8576000915050610978565b5060019392505050565b6000806000601160009054906101000a90046001600160a01b03166001600160a01b031663e7c830d46040518163ffffffff1660e01b815260040160206040518083038186803b15801561223557600080fd5b505afa158015612249573d6000803e3d6000fd5b505050506040513d601f19601f8201168201806040525081019061226d9190613065565b60115460405163e5399da360e01b81529192506000916001600160a01b039091169063e5399da3906122a3908590600401613325565b60606040518083038186803b1580156122bb57600080fd5b505afa1580156122cf573d6000803e3d6000fd5b505050506040513d601f19601f820116820180604052508101906122f39190612ff8565b9050436000612300610ac9565b90506000600d60009054906101000a90046001600160a01b03166001600160a01b031663a72ec4b66040518163ffffffff1660e01b815260040160206040518083038186803b15801561235257600080fd5b505afa158015612366573d6000803e3d6000fd5b505050506040513d601f19601f8201168201806040525081019061238a9190613065565b90505b841561244f5760115460405163e5399da360e01b81526000916001600160a01b03169063e5399da3906123c8906000198a0190600401613325565b60606040518083038186803b1580156123e057600080fd5b505afa1580156123f4573d6000803e3d6000fd5b505050506040513d601f19601f820116820180604052508101906124189190612ff8565b6040810151909150420383811015806124345750828260200151105b1561244057505061244f565b5060001990950194935061238d565b600084602001519050600042905060007f00000000000000000000000000000000000000000000000000000000000000006001600160a01b031663d89601fd6040518163ffffffff1660e01b815260040160206040518083038186803b1580156124b857600080fd5b505afa1580156124cc573d6000803e3d6000fd5b505050506040513d601f19601f820116820180604052508101906124f09190613065565b905060008282604051602001612507929190613869565b6040516020818303038152906040528051906020012060001c90506000848803828161252f57fe5b6040909a015199069097039a5096985050505050505050509091565b60006109c08383612b7c565b60008088518a511461257b5760405162461bcd60e51b81526004016108fd9061338b565b87518a511461259c5760405162461bcd60e51b81526004016108fd9061338b565b60006125b28b8b8b6125ad8c611ac6565b6117f5565b6000818152600f60205260409020600281015491925090156125e65760405162461bcd60e51b81526004016108fd906133f9565b80546001600160a01b0319166001600160a01b038e81169190911782556001820189905560408051633932abb160e01b8152905191881691633932abb191600480820192602092909190829003018186803b15801561264457600080fd5b505afa158015612658573d6000803e3d6000fd5b505050506040513d601f19601f8201168201806040525081019061267c9190613065565b42018160020181905550856001600160a01b03166302a251a36040518163ffffffff1660e01b815260040160206040518083038186803b1580156126bf57600080fd5b505afa1580156126d3573d6000803e3d6000fd5b505050506040513d601f19601f820116820180604052508101906126f79190613065565b8160020154018160030181905550856001600160a01b031663f91178626040518163ffffffff1660e01b815260040160206040518083038186803b15801561273e57600080fd5b505afa158015612752573d6000803e3d6000fd5b505050506040513d601f19601f820116820180604052508101906127769190613065565b603c02603c0260180287826003015403106127a35760405162461bcd60e51b81526004016108fd90613502565b8b51156128d25760068101805460ff1916600117905560408051638b25798960e01b815290516001600160a01b03881691638b257989916004808301926020929190829003018186803b1580156127f957600080fd5b505afa15801561280d573d6000803e3d6000fd5b505050506040513d601f19601f820116820180604052508101906128319190613065565b60038201540160048201819055600e54111561285057600e5460048201555b856001600160a01b031663d11d0d586040518163ffffffff1660e01b815260040160206040518083038186803b15801561288957600080fd5b505afa15801561289d573d6000803e3d6000fd5b505050506040513d601f19601f820116820180604052508101906128c19190613065565b60048201540160058201819055600e555b856001600160a01b031663f2f3a74c6040518163ffffffff1660e01b815260040160206040518083038186803b15801561290b57600080fd5b505afa15801561291f573d6000803e3d6000fd5b505050506040513d601f19601f820116820180604052508101906129439190613065565b8160070181905550856001600160a01b0316639e2242206040518163ffffffff1660e01b815260040160206040518083038186803b15801561298457600080fd5b505afa158015612998573d6000803e3d6000fd5b505050506040513d601f19601f820116820180604052508101906129bc9190613065565b600882015560098101949094559b929a509198505050505050505050565b600d80546001600160a01b0319166001600160a01b0392909216919091179055565b600082612a0b57506000610978565b82820282848281612a1857fe5b04146109c05760405162461bcd60e51b81526004018080602001828103825260218152602001806139906021913960400191505060405180910390fd5b6000808211612aab576040805162461bcd60e51b815260206004820152601a60248201527f536166654d6174683a206469766973696f6e206279207a65726f000000000000604482015290519081900360640190fd5b818381612ab457fe5b049392505050565b6000828201838110156109c0576040805162461bcd60e51b815260206004820152601b60248201527f536166654d6174683a206164646974696f6e206f766572666c6f770000000000604482015290519081900360640190fd5b4690565b6000838383612b27612b16565b3060405160200180868152602001858152602001848152602001838152602001826001600160a01b03168152602001955050505050506040516020818303038152906040528051906020012090509392505050565b600080612b87610d5e565b9050801580612bb45750612ba7612b9d84611c94565b8290612710611d8c565b612bb18585611bd1565b10155b949350505050565b600067ffffffffffffffff831115612bd057fe5b612be3601f8401601f19166020016138c4565b9050828152838383011115612bf757600080fd5b828260208301376000602084830101529392505050565b600082601f830112612c1e578081fd5b81356020612c33612c2e836138e8565b6138c4565b8281528181019085830183850287018401881015612c4f578586fd5b855b85811015612c76578135612c6481613936565b84529284019290840190600101612c51565b5090979650505050505050565b600082601f830112612c93578081fd5b81356020612ca3612c2e836138e8565b82815281810190858301855b85811015612c76578135880189603f820112612cc9578788fd5b612cda8a8783013560408401612bbc565b8552509284019290840190600101612caf565b600082601f830112612cfd578081fd5b81356020612d0d612c2e836138e8565b8281528181019085830183850287018401881015612d29578586fd5b855b85811015612c7657813584529284019290840190600101612d2b565b600082601f830112612d57578081fd5b6109c083833560208501612bbc565b803560ff8116811461094957600080fd5b600060208284031215612d88578081fd5b81356109c081613936565b60008060408385031215612da5578081fd5b8235612db081613936565b946020939093013593505050565b60008060008060808587031215612dd3578182fd5b843567ffffffffffffffff80821115612dea578384fd5b612df688838901612c0e565b95506020870135915080821115612e0b578384fd5b612e1788838901612ced565b94506040870135915080821115612e2c578384fd5b50612e3987828801612c83565b949793965093946060013593505050565b60008060008060808587031215612e5f578182fd5b843567ffffffffffffffff80821115612e76578384fd5b612e8288838901612c0e565b95506020870135915080821115612e97578384fd5b612ea388838901612ced565b94506040870135915080821115612eb8578384fd5b612ec488838901612c83565b93506060870135915080821115612ed9578283fd5b50612ee687828801612d47565b91505092959194509250565b60008060408385031215612f04578182fd5b823567ffffffffffffffff80821115612f1b578384fd5b818501915085601f830112612f2e578384fd5b81356020612f3e612c2e836138e8565b82815281810190858301838502870184018b1015612f5a578889fd5b8896505b84871015612f7c578035835260019690960195918301918301612f5e565b5096505086013592505080821115612f92578283fd5b50612f9f85828601612c0e565b9150509250929050565b600060208284031215612fba578081fd5b81516109c081613936565b600060208284031215612fd6578081fd5b813567ffffffffffffffff811115612fec578182fd5b612bb484828501612d47565b600060608284031215613009578081fd5b6040516060810181811067ffffffffffffffff8211171561302657fe5b80604052508251815260208301516020820152604083015160408201528091505092915050565b60006020828403121561305e578081fd5b5035919050565b600060208284031215613076578081fd5b5051919050565b6000806040838503121561308f578182fd5b8235915060208301356130a181613936565b809150509250929050565b600080604083850312156130be578182fd5b823591506130ce60208401612d66565b90509250929050565b600080600080606085870312156130ec578182fd5b843593506130fc60208601612d66565b9250604085013567ffffffffffffffff80821115613118578384fd5b818701915087601f83011261312b578384fd5b813581811115613139578485fd5b88602082850101111561314a578485fd5b95989497505060200194505050565b600080600080600060a08688031215613170578283fd5b8535945061318060208701612d66565b935061318e60408701612d66565b94979396509394606081013594506080013592915050565b6001600160a01b03169052565b6000815180845260208085019450808401835b838110156131eb5781516001600160a01b0316875295820195908201906001016131c6565b509495945050505050565b6000815180845260208085019450848183028601828601855b85811015612c76578383038952613227838351613268565b9885019892509084019060010161320f565b6000815180845260208085019450808401835b838110156131eb5781518752958201959082019060010161324c565b60008151808452613280816020860160208601613906565b601f01601f19169290920160200192915050565b600082516132a6818460208701613906565b9190910192915050565b6001600160a01b0391909116815260200190565b6001600160a01b03929092168252602082015260400190565b6001600160a01b03979097168752602087019590955260408601939093526060850191909152608084015260a0830152151560c082015260e00190565b901515815260200190565b90815260200190565b928352602083019190915260ff16604082015260600190565b602081016007831061335557fe5b91905290565b6020808252601690820152757772617070656420737570706c7920746f6f206c6f7760501b604082015260600190565b60208082526017908201527f696e76616c69642070726f706f73616c206c656e677468000000000000000000604082015260600190565b6020808252601e908201527f696e76616c6964205f72656c61746976655468726573686f6c64424950530000604082015260600190565b60208082526017908201527f70726f706f73616c20616c726561647920657869737473000000000000000000604082015260600190565b6020808252602e908201527f7375626d6974746572206973206e6f7420656c696769626c6520746f2073756260408201526d1b5a5d0818481c1c9bdc1bdcd85b60921b606082015260800190565b6020808252601d908201527f63616c6c20726576657274656420776974686f7574206d657373616765000000604082015260600190565b6020808252602d908201527f70726f706f73616c2063616e206f6e6c7920626520657865637574656420627960408201526c1034ba3990383937b837b9b2b960991b606082015260800190565b60208082526027908201527f766f746520706f77657220626c6f636b20697320746f6f2066617220696e20746040820152661a19481c185cdd60ca1b606082015260800190565b602080825260169082015275696e76616c696420766f7465207369676e617475726560501b604082015260600190565b6020808252601390820152721d5b9adb9bdddb881c1c9bdc1bdcd85b081a59606a1b604082015260600190565b60208082526018908201527f657865637574696f6e20706572696f6420746f6f206c6f770000000000000000604082015260600190565b60208082526028908201527f73756d206f66205f76616c75657320646f6573206e6f7420657175616c73206d60408201526773672e76616c756560c01b606082015260800190565b602080825260159082015274766f74696e6720706572696f6420746f6f206c6f7760581b604082015260600190565b60208082526013908201527270726f706f73616c206e6f742061637469766560681b604082015260600190565b6020808252601f908201527f696e76616c69642076616c756520666f7220656e756d20566f74655479706500604082015260600190565b6020808252601190820152701d9bdd1948185b1c9958591e4818d85cdd607a1b604082015260600190565b6020808252601f908201527f70726f706f73616c206e6f7420696e20657865637574696f6e20737461746500604082015260600190565b60208082526019908201527f70726f706f73616c20616c726561647920657865637574656400000000000000604082015260600190565b60008e8252613763602083018f6131a6565b6101a060408301526137796101a083018e6131b3565b828103606084015261378b818e613239565b9050828103608084015261379f818d6131f6565b905082810360a08401526137b3818c6131f6565b90508960c08401528860e08401528281036101008401526137d48189613268565b915050856101208301528461014083015283610160830152826101808301529e9d5050505050505050505050505050565b8681526001600160a01b038616602082015260c06040820181905260009061382f908301876131b3565b82810360608401526138418187613239565b9050828103608084015261385581866131f6565b9150508260a0830152979650505050505050565b918252602082015260400190565b93845260208401929092526040830152606082015260800190565b600085825260ff85166020830152836040830152608060608301526138ba6080830184613268565b9695505050505050565b60405181810167ffffffffffffffff811182821017156138e057fe5b604052919050565b600067ffffffffffffffff8211156138fc57fe5b5060209081020190565b60005b83811015613921578181015183820152602001613909565b83811115613930576000848401525b50505050565b6001600160a01b038116811461084757600080fdfe45434453413a20696e76616c6964207369676e6174757265202773272076616c756545434453413a20696e76616c6964207369676e6174757265202776272076616c7565536166654d6174683a206d756c7469706c69636174696f6e206f766572666c6f77a2646970667358221220eb5bdd00b871974de4252f84a3b64b6e48f870aa77ecdb5a572363924a9a741e64736f6c63430007060033",
  "linkReferences": {},
  "deployedLinkReferences": {}
}