{
  "_format": "hh-sol-artifact-1",
  "contractName": "FtsoManagerMock",
  "sourceName": "contracts/ftso/mock/FtsoManagerMock.sol",
  "abi": [
    {
      "stateMutability": "payable",
      "type": "fallback"
    },
    {
      "inputs": [],
      "name": "DEFAULT_FALLBACK_VALUE",
      "outputs": [
        {
          "internalType": "bytes",
          "name": "",
          "type": "bytes"
        }
      ],
      "stateMutability": "view",
      "type": "function"
    },
    {
      "inputs": [],
      "name": "MOCKS_LIST_END",
      "outputs": [
        {
          "internalType": "bytes",
          "name": "",
          "type": "bytes"
        }
      ],
      "stateMutability": "view",
      "type": "function"
    },
    {
      "inputs": [],
      "name": "MOCKS_LIST_END_HASH",
      "outputs": [
        {
          "internalType": "bytes32",
          "name": "",
          "type": "bytes32"
        }
      ],
      "stateMutability": "view",
      "type": "function"
    },
    {
      "inputs": [],
      "name": "MOCKS_LIST_START",
      "outputs": [
        {
          "internalType": "bytes32",
          "name": "",
          "type": "bytes32"
        }
      ],
      "stateMutability": "view",
      "type": "function"
    },
    {
      "inputs": [],
      "name": "SENTINEL_ANY_MOCKS",
      "outputs": [
        {
          "internalType": "bytes4",
          "name": "",
          "type": "bytes4"
        }
      ],
      "stateMutability": "view",
      "type": "function"
    },
    {
      "inputs": [
        {
          "internalType": "uint256",
          "name": "epochId",
          "type": "uint256"
        },
        {
          "internalType": "uint256",
          "name": "priceEpochDurationSeconds",
          "type": "uint256"
        },
        {
          "internalType": "uint256",
          "name": "priceEpochEndTime",
          "type": "uint256"
        }
      ],
      "name": "accrueUnearnedRewardsCall",
      "outputs": [],
      "stateMutability": "nonpayable",
      "type": "function"
    },
    {
      "inputs": [
        {
          "internalType": "uint256",
          "name": "rewardEpoch",
          "type": "uint256"
        },
        {
          "internalType": "uint256",
          "name": "currentRewardEpoch",
          "type": "uint256"
        }
      ],
      "name": "closeExpiredRewardEpochCall",
      "outputs": [],
      "stateMutability": "nonpayable",
      "type": "function"
    },
    {
      "inputs": [
        {
          "internalType": "address[]",
          "name": "addresses",
          "type": "address[]"
        },
        {
          "internalType": "uint256[]",
          "name": "weights",
          "type": "uint256[]"
        },
        {
          "internalType": "uint256",
          "name": "totalWeight",
          "type": "uint256"
        },
        {
          "internalType": "uint256",
          "name": "epochId",
          "type": "uint256"
        },
        {
          "internalType": "address",
          "name": "ftso",
          "type": "address"
        },
        {
          "internalType": "uint256",
          "name": "priceEpochDurationSeconds",
          "type": "uint256"
        },
        {
          "internalType": "uint256",
          "name": "currentRewardEpoch",
          "type": "uint256"
        },
        {
          "internalType": "uint256",
          "name": "priceEpochEndTime",
          "type": "uint256"
        },
        {
          "internalType": "uint256",
          "name": "votePowerBlock",
          "type": "uint256"
        }
      ],
      "name": "distributeRewardsCall",
      "outputs": [],
      "stateMutability": "nonpayable",
      "type": "function"
    },
    {
      "inputs": [
        {
          "internalType": "bytes",
          "name": "response",
          "type": "bytes"
        }
      ],
      "name": "givenAnyReturn",
      "outputs": [],
      "stateMutability": "nonpayable",
      "type": "function"
    },
    {
      "inputs": [
        {
          "internalType": "address",
          "name": "response",
          "type": "address"
        }
      ],
      "name": "givenAnyReturnAddress",
      "outputs": [],
      "stateMutability": "nonpayable",
      "type": "function"
    },
    {
      "inputs": [
        {
          "internalType": "bool",
          "name": "response",
          "type": "bool"
        }
      ],
      "name": "givenAnyReturnBool",
      "outputs": [],
      "stateMutability": "nonpayable",
      "type": "function"
    },
    {
      "inputs": [
        {
          "internalType": "uint256",
          "name": "response",
          "type": "uint256"
        }
      ],
      "name": "givenAnyReturnUint",
      "outputs": [],
      "stateMutability": "nonpayable",
      "type": "function"
    },
    {
      "inputs": [],
      "name": "givenAnyRevert",
      "outputs": [],
      "stateMutability": "nonpayable",
      "type": "function"
    },
    {
      "inputs": [
        {
          "internalType": "string",
          "name": "message",
          "type": "string"
        }
      ],
      "name": "givenAnyRevertWithMessage",
      "outputs": [],
      "stateMutability": "nonpayable",
      "type": "function"
    },
    {
      "inputs": [],
      "name": "givenAnyRunOutOfGas",
      "outputs": [],
      "stateMutability": "nonpayable",
      "type": "function"
    },
    {
      "inputs": [
        {
          "internalType": "bytes",
          "name": "call",
          "type": "bytes"
        },
        {
          "internalType": "bytes",
          "name": "response",
          "type": "bytes"
        }
      ],
      "name": "givenCalldataReturn",
      "outputs": [],
      "stateMutability": "nonpayable",
      "type": "function"
    },
    {
      "inputs": [
        {
          "internalType": "bytes",
          "name": "call",
          "type": "bytes"
        },
        {
          "internalType": "address",
          "name": "response",
          "type": "address"
        }
      ],
      "name": "givenCalldataReturnAddress",
      "outputs": [],
      "stateMutability": "nonpayable",
      "type": "function"
    },
    {
      "inputs": [
        {
          "internalType": "bytes",
          "name": "call",
          "type": "bytes"
        },
        {
          "internalType": "bool",
          "name": "response",
          "type": "bool"
        }
      ],
      "name": "givenCalldataReturnBool",
      "outputs": [],
      "stateMutability": "nonpayable",
      "type": "function"
    },
    {
      "inputs": [
        {
          "internalType": "bytes",
          "name": "call",
          "type": "bytes"
        },
        {
          "internalType": "uint256",
          "name": "response",
          "type": "uint256"
        }
      ],
      "name": "givenCalldataReturnUint",
      "outputs": [],
      "stateMutability": "nonpayable",
      "type": "function"
    },
    {
      "inputs": [
        {
          "internalType": "bytes",
          "name": "call",
          "type": "bytes"
        }
      ],
      "name": "givenCalldataRevert",
      "outputs": [],
      "stateMutability": "nonpayable",
      "type": "function"
    },
    {
      "inputs": [
        {
          "internalType": "bytes",
          "name": "call",
          "type": "bytes"
        },
        {
          "internalType": "string",
          "name": "message",
          "type": "string"
        }
      ],
      "name": "givenCalldataRevertWithMessage",
      "outputs": [],
      "stateMutability": "nonpayable",
      "type": "function"
    },
    {
      "inputs": [
        {
          "internalType": "bytes",
          "name": "call",
          "type": "bytes"
        }
      ],
      "name": "givenCalldataRunOutOfGas",
      "outputs": [],
      "stateMutability": "nonpayable",
      "type": "function"
    },
    {
      "inputs": [
        {
          "internalType": "bytes",
          "name": "call",
          "type": "bytes"
        },
        {
          "internalType": "bytes",
          "name": "response",
          "type": "bytes"
        }
      ],
      "name": "givenMethodReturn",
      "outputs": [],
      "stateMutability": "nonpayable",
      "type": "function"
    },
    {
      "inputs": [
        {
          "internalType": "bytes",
          "name": "call",
          "type": "bytes"
        },
        {
          "internalType": "address",
          "name": "response",
          "type": "address"
        }
      ],
      "name": "givenMethodReturnAddress",
      "outputs": [],
      "stateMutability": "nonpayable",
      "type": "function"
    },
    {
      "inputs": [
        {
          "internalType": "bytes",
          "name": "call",
          "type": "bytes"
        },
        {
          "internalType": "bool",
          "name": "response",
          "type": "bool"
        }
      ],
      "name": "givenMethodReturnBool",
      "outputs": [],
      "stateMutability": "nonpayable",
      "type": "function"
    },
    {
      "inputs": [
        {
          "internalType": "bytes",
          "name": "call",
          "type": "bytes"
        },
        {
          "internalType": "uint256",
          "name": "response",
          "type": "uint256"
        }
      ],
      "name": "givenMethodReturnUint",
      "outputs": [],
      "stateMutability": "nonpayable",
      "type": "function"
    },
    {
      "inputs": [
        {
          "internalType": "bytes",
          "name": "call",
          "type": "bytes"
        }
      ],
      "name": "givenMethodRevert",
      "outputs": [],
      "stateMutability": "nonpayable",
      "type": "function"
    },
    {
      "inputs": [
        {
          "internalType": "bytes",
          "name": "call",
          "type": "bytes"
        },
        {
          "internalType": "string",
          "name": "message",
          "type": "string"
        }
      ],
      "name": "givenMethodRevertWithMessage",
      "outputs": [],
      "stateMutability": "nonpayable",
      "type": "function"
    },
    {
      "inputs": [
        {
          "internalType": "bytes",
          "name": "call",
          "type": "bytes"
        }
      ],
      "name": "givenMethodRunOutOfGas",
      "outputs": [],
      "stateMutability": "nonpayable",
      "type": "function"
    },
    {
      "inputs": [],
      "name": "invocationCount",
      "outputs": [
        {
          "internalType": "uint256",
          "name": "",
          "type": "uint256"
        }
      ],
      "stateMutability": "nonpayable",
      "type": "function"
    },
    {
      "inputs": [
        {
          "internalType": "bytes",
          "name": "call",
          "type": "bytes"
        }
      ],
      "name": "invocationCountForCalldata",
      "outputs": [
        {
          "internalType": "uint256",
          "name": "",
          "type": "uint256"
        }
      ],
      "stateMutability": "nonpayable",
      "type": "function"
    },
    {
      "inputs": [
        {
          "internalType": "bytes",
          "name": "call",
          "type": "bytes"
        }
      ],
      "name": "invocationCountForMethod",
      "outputs": [
        {
          "internalType": "uint256",
          "name": "",
          "type": "uint256"
        }
      ],
      "stateMutability": "nonpayable",
      "type": "function"
    },
    {
      "inputs": [],
      "name": "reset",
      "outputs": [],
      "stateMutability": "nonpayable",
      "type": "function"
    },
    {
      "inputs": [
        {
          "internalType": "address",
          "name": "rewardManager",
          "type": "address"
        }
      ],
      "name": "setRewardManager",
      "outputs": [],
      "stateMutability": "nonpayable",
      "type": "function"
    },
    {
      "inputs": [
        {
          "internalType": "bytes4",
          "name": "methodId",
          "type": "bytes4"
        },
        {
          "internalType": "bytes",
          "name": "originalMsgData",
          "type": "bytes"
        }
      ],
      "name": "updateInvocationCount",
      "outputs": [],
      "stateMutability": "nonpayable",
      "type": "function"
    }
  ],
  "bytecode": "0x60806040526000604051602001808215158152602001915050604051602081830303815290604052600b90805190602001906200003e9291906200017e565b503480156200004c57600080fd5b506040518060400160405280600481526020017f30786666000000000000000000000000000000000000000000000000000000008152506000807f010000000000000000000000000000000000000000000000000000000000000081526020019081526020016000209080519060200190620000ca9291906200017e565b507f0100000000000000000000000000000000000000000000000000000000000000600560007f01000000000000000000000000000000000000000000000000000000000000007bffffffffffffffffffffffffffffffffffffffffffffffffffffffff19167bffffffffffffffffffffffffffffffffffffffffffffffffffffffff1916815260200190815260200160002060006101000a81548163ffffffff021916908360e01c021790555062000224565b828054600181600116156101000203166002900490600052602060002090601f016020900481019282601f10620001c157805160ff1916838001178555620001f2565b82800160010185558215620001f2579182015b82811115620001f1578251825591602001919060010190620001d4565b5b50905062000201919062000205565b5090565b5b808211156200022057600081600090555060010162000206565b5090565b61422880620002346000396000f3fe6080604052600436106102085760003560e01c80636f40075611610118578063c6ee167f116100a0578063d826f88f1161006f578063d826f88f14611b3a578063e211b8a514611b51578063eb861f6914611b68578063f07da22914611bee578063f5afa9c114611c3857610209565b8063c6ee167f146118a3578063cf11ff5d1461197e578063d6fe977814611a24578063d73ca0ac14611aaa57610209565b80639eaeed75116100e75780639eaeed751461161c578063aa788c55146116f7578063af21ac781461177d578063b3901f29146117b8578063b990f55e1461185e57610209565b80636f400756146113995780637cd96ee41461142b57806387abab65146114bb5780639a1dc86b1461154157610209565b80634937c4f61161019b5780635bafc4361161016a5780635bafc4361461116d57806361936594146111bc57806367aad04a14611297578063682b4797146112c257806368ab6f2f1461131357610209565b80634937c4f614610eb6578063586984a414610f5057806358cbc02514610fea5780635a3855ab146110db57610209565b80632ed238dc116101d75780632ed238dc14610c8157806336ff0ee514610cac5780633956dc6b14610ce9578063466e104514610d0057610209565b80630a20119f14610aef578063122aea8114610b1a578063153ee55414610baa57806321fed4d614610bfb57610209565b5b6000803590506001600281111561021c57fe5b6001600036604051808383808284378083019250505092505050908152602001604051809103902060009054906101000a900460ff16600281111561025d57fe5b141561034957600360003660405180838380828437808301925050509250505090815260200160405180910390206040517f08c379a0000000000000000000000000000000000000000000000000000000008152600401808060200182810382528381815460018160011615610100020316600290048152602001915080546001816001161561010002031660029004801561033a5780601f1061030f5761010080835404028352916020019161033a565b820191906000526020600020905b81548152906001019060200180831161031d57829003601f168201915b50509250505060405180910390fd5b60028081111561035557fe5b6001600036604051808383808284378083019250505092505050908152602001604051809103902060009054906101000a900460ff16600281111561039657fe5b14156103a5576103a4611cc8565b5b6060600260003660405180838380828437808301925050509250505090815260200160405180910390208054600181600116156101000203166002900480601f0160208091040260200160405190810160405280929190818152602001828054600181600116156101000203166002900480156104635780601f1061043857610100808354040283529160200191610463565b820191906000526020600020905b81548152906001019060200180831161044657829003601f168201915b50505050509050600081511415610772576001600281111561048157fe5b60066000847bffffffffffffffffffffffffffffffffffffffffffffffffffffffff19167bffffffffffffffffffffffffffffffffffffffffffffffffffffffff1916815260200190815260200160002060009054906101000a900460ff1660028111156104eb57fe5b14156106005760086000837bffffffffffffffffffffffffffffffffffffffffffffffffffffffff19167bffffffffffffffffffffffffffffffffffffffffffffffffffffffff191681526020019081526020016000206040517f08c379a000000000000000000000000000000000000000000000000000000000815260040180806020018281038252838181546001816001161561010002031660029004815260200191508054600181600116156101000203166002900480156105f15780601f106105c6576101008083540402835291602001916105f1565b820191906000526020600020905b8154815290600101906020018083116105d457829003601f168201915b50509250505060405180910390fd5b60028081111561060c57fe5b60066000847bffffffffffffffffffffffffffffffffffffffffffffffffffffffff19167bffffffffffffffffffffffffffffffffffffffffffffffffffffffff1916815260200190815260200160002060009054906101000a900460ff16600281111561067657fe5b141561068557610684611cc8565b5b60076000837bffffffffffffffffffffffffffffffffffffffffffffffffffffffff19167bffffffffffffffffffffffffffffffffffffffffffffffffffffffff191681526020019081526020016000208054600181600116156101000203166002900480601f01602080910402602001604051908101604052809291908181526020018280546001816001161561010002031660029004801561076a5780601f1061073f5761010080835404028352916020019161076a565b820191906000526020600020905b81548152906001019060200180831161074d57829003601f168201915b505050505090505b60008151141561093e576001600281111561078957fe5b600a60009054906101000a900460ff1660028111156107a457fe5b141561086a57600c6040517f08c379a0000000000000000000000000000000000000000000000000000000008152600401808060200182810382528381815460018160011615610100020316600290048152602001915080546001816001161561010002031660029004801561085b5780601f106108305761010080835404028352916020019161085b565b820191906000526020600020905b81548152906001019060200180831161083e57829003601f168201915b50509250505060405180910390fd5b60028081111561087657fe5b600a60009054906101000a900460ff16600281111561089157fe5b14156108a05761089f611cc8565b5b600b8054600181600116156101000203166002900480601f0160208091040260200160405190810160405280929190818152602001828054600181600116156101000203166002900480156109365780601f1061090b57610100808354040283529160200191610936565b820191906000526020600020905b81548152906001019060200180831161091957829003601f168201915b505050505090505b60603073ffffffffffffffffffffffffffffffffffffffff16620186a08460003660405160240180847bffffffffffffffffffffffffffffffffffffffffffffffffffffffff19168152602001806020018281038252848482818152602001925080828437600081840152601f19601f8201169050808301925050509450505050506040516020818303038152906040527f58cbc025000000000000000000000000000000000000000000000000000000007bffffffffffffffffffffffffffffffffffffffffffffffffffffffff19166020820180517bffffffffffffffffffffffffffffffffffffffffffffffffffffffff83818316178352505050506040518082805190602001908083835b60208310610a705780518252602082019150602081019050602083039250610a4d565b6001836020036101000a03801982511681845116808217855250505050505090500191505060006040518083038160008787f1925050503d8060008114610ad3576040519150601f19603f3d011682016040523d82523d6000602084013e610ad8565b606091505b509150506000815114610ae757fe5b815182602001f35b348015610afb57600080fd5b50610b04611ced565b6040518082815260200191505060405180910390f35b348015610b2657600080fd5b50610b2f611cf7565b6040518080602001828103825283818151815260200191508051906020019080838360005b83811015610b6f578082015181840152602081019050610b54565b50505050905090810190601f168015610b9c5780820380516001836020036101000a031916815260200191505b509250505060405180910390f35b348015610bb657600080fd5b50610bf960048036036020811015610bcd57600080fd5b81019080803573ffffffffffffffffffffffffffffffffffffffff169060200190929190505050611d1d565b005b348015610c0757600080fd5b50610c7f60048036036020811015610c1e57600080fd5b8101908080359060200190640100000000811115610c3b57600080fd5b820183602082011115610c4d57600080fd5b80359060200191846001830284011164010000000083111715610c6f57600080fd5b9091929391929390505050611d61565b005b348015610c8d57600080fd5b50610c96611dfb565b6040518082815260200191505060405180910390f35b348015610cb857600080fd5b50610ce760048036036020811015610ccf57600080fd5b81019080803515159060200190929190505050611e3b565b005b348015610cf557600080fd5b50610cfe611e66565b005b348015610d0c57600080fd5b50610eb46004803603610120811015610d2457600080fd5b8101908080359060200190640100000000811115610d4157600080fd5b820183602082011115610d5357600080fd5b80359060200191846020830284011164010000000083111715610d7557600080fd5b919080806020026020016040519081016040528093929190818152602001838360200280828437600081840152601f19601f82011690508083019250505050505050919291929080359060200190640100000000811115610dd557600080fd5b820183602082011115610de757600080fd5b80359060200191846020830284011164010000000083111715610e0957600080fd5b919080806020026020016040519081016040528093929190818152602001838360200280828437600081840152601f19601f8201169050808301925050505050505091929192908035906020019092919080359060200190929190803573ffffffffffffffffffffffffffffffffffffffff16906020019092919080359060200190929190803590602001909291908035906020019092919080359060200190929190505050611e8c565b005b348015610ec257600080fd5b50610f3a60048036036020811015610ed957600080fd5b8101908080359060200190640100000000811115610ef657600080fd5b820183602082011115610f0857600080fd5b80359060200191846001830284011164010000000083111715610f2a57600080fd5b90919293919293905050506120e7565b6040518082815260200191505060405180910390f35b348015610f5c57600080fd5b50610fd460048036036020811015610f7357600080fd5b8101908080359060200190640100000000811115610f9057600080fd5b820183602082011115610fa257600080fd5b80359060200191846001830284011164010000000083111715610fc457600080fd5b90919293919293905050506121a5565b6040518082815260200191505060405180910390f35b348015610ff657600080fd5b506110d96004803603604081101561100d57600080fd5b8101908080357bffffffffffffffffffffffffffffffffffffffffffffffffffffffff191690602001909291908035906020019064010000000081111561105357600080fd5b82018360208201111561106557600080fd5b8035906020019184600183028401116401000000008311171561108757600080fd5b91908080601f016020809104026020016040519081016040528093929190818152602001838380828437600081840152601f19601f8201169050808301925050505050505091929192905050506121fc565b005b3480156110e757600080fd5b5061116b600480360360408110156110fe57600080fd5b810190808035906020019064010000000081111561111b57600080fd5b82018360208201111561112d57600080fd5b8035906020019184600183028401116401000000008311171561114f57600080fd5b90919293919293908035151590602001909291905050506123a3565b005b34801561117957600080fd5b506111ba6004803603606081101561119057600080fd5b81019080803590602001909291908035906020019092919080359060200190929190505050612415565b005b3480156111c857600080fd5b50611295600480360360408110156111df57600080fd5b81019080803590602001906401000000008111156111fc57600080fd5b82018360208201111561120e57600080fd5b8035906020019184600183028401116401000000008311171561123057600080fd5b90919293919293908035906020019064010000000081111561125157600080fd5b82018360208201111561126357600080fd5b8035906020019184600183028401116401000000008311171561128557600080fd5b90919293919293905050506125a2565b005b3480156112a357600080fd5b506112ac61263a565b6040518082815260200191505060405180910390f35b3480156112ce57600080fd5b50611311600480360360208110156112e557600080fd5b81019080803573ffffffffffffffffffffffffffffffffffffffff16906020019092919050505061265e565b005b34801561131f57600080fd5b506113976004803603602081101561133657600080fd5b810190808035906020019064010000000081111561135357600080fd5b82018360208201111561136557600080fd5b8035906020019184600183028401116401000000008311171561138757600080fd5b9091929391929390505050612688565b005b3480156113a557600080fd5b50611429600480360360408110156113bc57600080fd5b81019080803590602001906401000000008111156113d957600080fd5b8201836020820111156113eb57600080fd5b8035906020019184600183028401116401000000008311171561140d57600080fd5b909192939192939080351515906020019092919050505061275a565b005b34801561143757600080fd5b506114406127cc565b6040518080602001828103825283818151815260200191508051906020019080838360005b83811015611480578082015181840152602081019050611465565b50505050905090810190601f1680156114ad5780820380516001836020036101000a031916815260200191505b509250505060405180910390f35b3480156114c757600080fd5b5061153f600480360360208110156114de57600080fd5b81019080803590602001906401000000008111156114fb57600080fd5b82018360208201111561150d57600080fd5b8035906020019184600183028401116401000000008311171561152f57600080fd5b9091929391929390505050612805565b005b34801561154d57600080fd5b5061161a6004803603604081101561156457600080fd5b810190808035906020019064010000000081111561158157600080fd5b82018360208201111561159357600080fd5b803590602001918460018302840111640100000000831117156115b557600080fd5b9091929391929390803590602001906401000000008111156115d657600080fd5b8201836020820111156115e857600080fd5b8035906020019184600183028401116401000000008311171561160a57600080fd5b909192939192939050505061283f565b005b34801561162857600080fd5b506116f56004803603604081101561163f57600080fd5b810190808035906020019064010000000081111561165c57600080fd5b82018360208201111561166e57600080fd5b8035906020019184600183028401116401000000008311171561169057600080fd5b9091929391929390803590602001906401000000008111156116b157600080fd5b8201836020820111156116c357600080fd5b803590602001918460018302840111640100000000831117156116e557600080fd5b9091929391929390505050612974565b005b34801561170357600080fd5b5061177b6004803603602081101561171a57600080fd5b810190808035906020019064010000000081111561173757600080fd5b82018360208201111561174957600080fd5b8035906020019184600183028401116401000000008311171561176b57600080fd5b9091929391929390505050612a46565b005b34801561178957600080fd5b506117b6600480360360208110156117a057600080fd5b8101908080359060200190929190505050612b18565b005b3480156117c457600080fd5b5061185c600480360360408110156117db57600080fd5b81019080803590602001906401000000008111156117f857600080fd5b82018360208201111561180a57600080fd5b8035906020019184600183028401116401000000008311171561182c57600080fd5b9091929391929390803573ffffffffffffffffffffffffffffffffffffffff169060200190929190505050612b2c565b005b34801561186a57600080fd5b506118a16004803603604081101561188157600080fd5b810190808035906020019092919080359060200190929190505050612b9d565b005b3480156118af57600080fd5b5061197c600480360360408110156118c657600080fd5b81019080803590602001906401000000008111156118e357600080fd5b8201836020820111156118f557600080fd5b8035906020019184600183028401116401000000008311171561191757600080fd5b90919293919293908035906020019064010000000081111561193857600080fd5b82018360208201111561194a57600080fd5b8035906020019184600183028401116401000000008311171561196c57600080fd5b9091929391929390505050612d21565b005b34801561198a57600080fd5b50611a22600480360360408110156119a157600080fd5b81019080803590602001906401000000008111156119be57600080fd5b8201836020820111156119d057600080fd5b803590602001918460018302840111640100000000831117156119f257600080fd5b9091929391929390803573ffffffffffffffffffffffffffffffffffffffff169060200190929190505050612db9565b005b348015611a3057600080fd5b50611aa860048036036020811015611a4757600080fd5b8101908080359060200190640100000000811115611a6457600080fd5b820183602082011115611a7657600080fd5b80359060200191846001830284011164010000000083111715611a9857600080fd5b9091929391929390505050612e2a565b005b348015611ab657600080fd5b50611b3860048036036040811015611acd57600080fd5b8101908080359060200190640100000000811115611aea57600080fd5b820183602082011115611afc57600080fd5b80359060200191846001830284011164010000000083111715611b1e57600080fd5b909192939192939080359060200190929190505050612e7b565b005b348015611b4657600080fd5b50611b4f612ed6565b005b348015611b5d57600080fd5b50611b66613753565b005b348015611b7457600080fd5b50611bec60048036036020811015611b8b57600080fd5b8101908080359060200190640100000000811115611ba857600080fd5b820183602082011115611bba57600080fd5b80359060200191846001830284011164010000000083111715611bdc57600080fd5b909192939192939050505061379f565b005b348015611bfa57600080fd5b50611c03613883565b60405180827bffffffffffffffffffffffffffffffffffffffffffffffffffffffff1916815260200191505060405180910390f35b348015611c4457600080fd5b50611cc660048036036040811015611c5b57600080fd5b8101908080359060200190640100000000811115611c7857600080fd5b820183602082011115611c8a57600080fd5b80359060200191846001830284011164010000000083111715611cac57600080fd5b9091929391929390803590602001909291905050506138a7565b005b5b600115611ceb5760006060600060c060008060066107d05a03f1905050611cc9565b565b6000600d54905090565b600060405160200180821515815260200191505060405160208183030381529060405281565b80600f60006101000a81548173ffffffffffffffffffffffffffffffffffffffff021916908373ffffffffffffffffffffffffffffffffffffffff16021790555050565b600260018383604051808383808284378083019250505092505050908152602001604051809103902060006101000a81548160ff02191690836002811115611da557fe5b0217905550611df782828080601f016020809104026020016040519081016040528093929190818152602001838380828437600081840152601f19601f82011690508083019250505050505050613902565b5050565b6040518060400160405280600481526020017f30786666000000000000000000000000000000000000000000000000000000008152508051906020012081565b600081611e49576000611e4c565b60015b60ff169050611e62611e5d826139ed565b613a48565b5050565b6002600a60006101000a81548160ff02191690836002811115611e8557fe5b0217905550565b60608989898989898989896040516024018080602001806020018a81526020018981526020018873ffffffffffffffffffffffffffffffffffffffff16815260200187815260200186815260200185815260200184815260200183810383528c818151815260200191508051906020019060200280838360005b83811015611f21578082015181840152602081019050611f06565b5050505090500183810382528b818151815260200191508051906020019060200280838360005b83811015611f63578082015181840152602081019050611f48565b505050509050019b5050505050505050505050506040516020818303038152906040527fa9b79e17000000000000000000000000000000000000000000000000000000007bffffffffffffffffffffffffffffffffffffffffffffffffffffffff19166020820180517bffffffffffffffffffffffffffffffffffffffffffffffffffffffff838183161783525050505090506000600f60009054906101000a900473ffffffffffffffffffffffffffffffffffffffff1673ffffffffffffffffffffffffffffffffffffffff16826040518082805190602001908083835b602083106120655780518252602082019150602081019050602083039250612042565b6001836020036101000a0380198251168184511680821785525050505050509050019150506000604051808303816000865af19150503d80600081146120c7576040519150601f19603f3d011682016040523d82523d6000602084013e6120cc565b606091505b50509050806120da57600080fd5b5050505050505050505050565b60008061213784848080601f016020809104026020016040519081016040528093929190818152602001838380828437600081840152601f19601f82011690508083019250505050505050613a86565b905060096000600e548360405160200180838152602001827bffffffffffffffffffffffffffffffffffffffffffffffffffffffff19168152600401925050506040516020818303038152906040528051906020012081526020019081526020016000205491505092915050565b600060046000600e5485856040516020018084815260200183838082843780830192505050935050505060405160208183030381529060405280519060200120815260200190815260200160002054905092915050565b3073ffffffffffffffffffffffffffffffffffffffff163373ffffffffffffffffffffffffffffffffffffffff1614612280576040517f08c379a000000000000000000000000000000000000000000000000000000000815260040180806020018281038252602b8152602001806141c8602b913960400191505060405180910390fd5b6001600d60008282540192505081905550600160096000600e548560405160200180838152602001827bffffffffffffffffffffffffffffffffffffffffffffffffffffffff191681526004019250505060405160208183030381529060405280519060200120815260200190815260200160002060008282540192505081905550600160046000600e54846040516020018083815260200182805190602001908083835b602083106123485780518252602082019150602081019050602083039250612325565b6001836020036101000a03801982511681845116808217855250505050505090500192505050604051602081830303815290604052805190602001208152602001908152602001600020600082825401925050819055505050565b6000816123b15760006123b4565b60015b60ff16905061240f84848080601f016020809104026020016040519081016040528093929190818152602001838380828437600081840152601f19601f8201169050808301925050505050505061240a836139ed565b613b14565b50505050565b60608383836040516024018084815260200183815260200182815260200193505050506040516020818303038152906040527f67dcac53000000000000000000000000000000000000000000000000000000007bffffffffffffffffffffffffffffffffffffffffffffffffffffffff19166020820180517bffffffffffffffffffffffffffffffffffffffffffffffffffffffff838183161783525050505090506000600f60009054906101000a900473ffffffffffffffffffffffffffffffffffffffff1673ffffffffffffffffffffffffffffffffffffffff16826040518082805190602001908083835b602083106125265780518252602082019150602081019050602083039250612503565b6001836020036101000a0380198251168184511680821785525050505050509050019150506000604051808303816000865af19150503d8060008114612588576040519150601f19603f3d011682016040523d82523d6000602084013e61258d565b606091505b505090508061259b57600080fd5b5050505050565b61263484848080601f016020809104026020016040519081016040528093929190818152602001838380828437600081840152601f19601f8201169050808301925050505050505083838080601f016020809104026020016040519081016040528093929190818152602001838380828437600081840152601f19601f82011690508083019250505050505050613b14565b50505050565b7f010000000000000000000000000000000000000000000000000000000000000081565b6126856126808273ffffffffffffffffffffffffffffffffffffffff166139ed565b613a48565b50565b60006126d783838080601f016020809104026020016040519081016040528093929190818152602001838380828437600081840152601f19601f82011690508083019250505050505050613a86565b9050600260066000837bffffffffffffffffffffffffffffffffffffffffffffffffffffffff19167bffffffffffffffffffffffffffffffffffffffffffffffffffffffff1916815260200190815260200160002060006101000a81548160ff0219169083600281111561274757fe5b021790555061275581613c2a565b505050565b60008161276857600061276b565b60015b60ff1690506127c684848080601f016020809104026020016040519081016040528093929190818152602001838380828437600081840152601f19601f820116905080830192505050505050506127c1836139ed565b613e2f565b50505050565b6040518060400160405280600481526020017f307866660000000000000000000000000000000000000000000000000000000081525081565b6001600a60006101000a81548160ff0219169083600281111561282457fe5b02179055508181600c919061283a929190613f23565b505050565b600061288e85858080601f016020809104026020016040519081016040528093929190818152602001838380828437600081840152601f19601f82011690508083019250505050505050613a86565b9050600160066000837bffffffffffffffffffffffffffffffffffffffffffffffffffffffff19167bffffffffffffffffffffffffffffffffffffffffffffffffffffffff1916815260200190815260200160002060006101000a81548160ff021916908360028111156128fe57fe5b0217905550828260086000847bffffffffffffffffffffffffffffffffffffffffffffffffffffffff19167bffffffffffffffffffffffffffffffffffffffffffffffffffffffff191681526020019081526020016000209190612963929190613f23565b5061296d81613c2a565b5050505050565b6001808585604051808383808284378083019250505092505050908152602001604051809103902060006101000a81548160ff021916908360028111156129b757fe5b0217905550818160038686604051808383808284378083019250505092505050908152602001604051809103902091906129f2929190613f23565b50612a4084848080601f016020809104026020016040519081016040528093929190818152602001838380828437600081840152601f19601f82011690508083019250505050505050613902565b50505050565b6000612a9583838080601f016020809104026020016040519081016040528093929190818152602001838380828437600081840152601f19601f82011690508083019250505050505050613a86565b9050600160066000837bffffffffffffffffffffffffffffffffffffffffffffffffffffffff19167bffffffffffffffffffffffffffffffffffffffffffffffffffffffff1916815260200190815260200160002060006101000a81548160ff02191690836002811115612b0557fe5b0217905550612b1381613c2a565b505050565b612b29612b24826139ed565b613a48565b50565b612b9883838080601f016020809104026020016040519081016040528093929190818152602001838380828437600081840152601f19601f82011690508083019250505050505050612b938373ffffffffffffffffffffffffffffffffffffffff166139ed565b613b14565b505050565b6060828260405160240180838152602001828152602001925050506040516020818303038152906040527f20daeab1000000000000000000000000000000000000000000000000000000007bffffffffffffffffffffffffffffffffffffffffffffffffffffffff19166020820180517bffffffffffffffffffffffffffffffffffffffffffffffffffffffff838183161783525050505090506000600f60009054906101000a900473ffffffffffffffffffffffffffffffffffffffff1673ffffffffffffffffffffffffffffffffffffffff16826040518082805190602001908083835b60208310612ca65780518252602082019150602081019050602083039250612c83565b6001836020036101000a0380198251168184511680821785525050505050509050019150506000604051808303816000865af19150503d8060008114612d08576040519150601f19603f3d011682016040523d82523d6000602084013e612d0d565b606091505b5050905080612d1b57600080fd5b50505050565b612db384848080601f016020809104026020016040519081016040528093929190818152602001838380828437600081840152601f19601f8201169050808301925050505050505083838080601f016020809104026020016040519081016040528093929190818152602001838380828437600081840152601f19601f82011690508083019250505050505050613e2f565b50505050565b612e2583838080601f016020809104026020016040519081016040528093929190818152602001838380828437600081840152601f19601f82011690508083019250505050505050612e208373ffffffffffffffffffffffffffffffffffffffff166139ed565b613e2f565b505050565b612e7782828080601f016020809104026020016040519081016040528093929190818152602001838380828437600081840152601f19601f82011690508083019250505050505050613a48565b5050565b612ed183838080601f016020809104026020016040519081016040528093929190818152602001838380828437600081840152601f19601f82011690508083019250505050505050612ecc836139ed565b613b14565b505050565b60606000807f010000000000000000000000000000000000000000000000000000000000000081526020019081526020016000208054600181600116156101000203166002900480601f016020809104026020016040519081016040528092919081815260200182805460018160011615610100020316600290048015612f9e5780601f10612f7357610100808354040283529160200191612f9e565b820191906000526020600020905b815481529060010190602001808311612f8157829003601f168201915b505050505090506000818051906020012090505b6040518060400160405280600481526020017f307866660000000000000000000000000000000000000000000000000000000081525080519060200120811461328c5760006001836040518082805190602001908083835b6020831061302d578051825260208201915060208101905060208303925061300a565b6001836020036101000a038019825116818451168082178552505050505050905001915050908152602001604051809103902060006101000a81548160ff0219169083600281111561307b57fe5b0217905550604051806020016040528060008152506002836040518082805190602001908083835b602083106130c657805182526020820191506020810190506020830392506130a3565b6001836020036101000a0380198251168184511680821785525050505050509050019150509081526020016040518091039020908051906020019061310c929190613fa3565b50604051806020016040528060008152506003836040518082805190602001908083835b602083106131535780518252602082019150602081019050602083039250613130565b6001836020036101000a03801982511681845116808217855250505050505090500191505090815260200160405180910390209080519060200190613199929190614023565b506000808281526020019081526020016000208054600181600116156101000203166002900480601f0160208091040260200160405190810160405280929190818152602001828054600181600116156101000203166002900480156132405780601f1061321557610100808354040283529160200191613240565b820191906000526020600020905b81548152906001019060200180831161322357829003601f168201915b5050505050915060405180602001604052806000815250600080838152602001908152602001600020908051906020019061327c929190613fa3565b5081805190602001209050612fb2565b6040518060400160405280600481526020017f30786666000000000000000000000000000000000000000000000000000000008152506000807f0100000000000000000000000000000000000000000000000000000000000000815260200190815260200160002090805190602001906133079291906140a3565b506000600560007f01000000000000000000000000000000000000000000000000000000000000007bffffffffffffffffffffffffffffffffffffffffffffffffffffffff19167bffffffffffffffffffffffffffffffffffffffffffffffffffffffff1916815260200190815260200160002060009054906101000a900460e01b90505b7f01000000000000000000000000000000000000000000000000000000000000007bffffffffffffffffffffffffffffffffffffffffffffffffffffffff1916817bffffffffffffffffffffffffffffffffffffffffffffffffffffffff19161461362b576000819050600060066000837bffffffffffffffffffffffffffffffffffffffffffffffffffffffff19167bffffffffffffffffffffffffffffffffffffffffffffffffffffffff1916815260200190815260200160002060006101000a81548160ff0219169083600281111561346457fe5b02179055506040518060200160405280600081525060076000837bffffffffffffffffffffffffffffffffffffffffffffffffffffffff19167bffffffffffffffffffffffffffffffffffffffffffffffffffffffff1916815260200190815260200160002090805190602001906134dd929190613fa3565b506040518060200160405280600081525060086000837bffffffffffffffffffffffffffffffffffffffffffffffffffffffff19167bffffffffffffffffffffffffffffffffffffffffffffffffffffffff191681526020019081526020016000209080519060200190613552929190614023565b5060056000827bffffffffffffffffffffffffffffffffffffffffffffffffffffffff19167bffffffffffffffffffffffffffffffffffffffffffffffffffffffff1916815260200190815260200160002060009054906101000a900460e01b9150600060e01b60056000837bffffffffffffffffffffffffffffffffffffffffffffffffffffffff19167bffffffffffffffffffffffffffffffffffffffffffffffffffffffff1916815260200190815260200160002060006101000a81548163ffffffff021916908360e01c02179055505061338c565b7f0100000000000000000000000000000000000000000000000000000000000000600560007f01000000000000000000000000000000000000000000000000000000000000007bffffffffffffffffffffffffffffffffffffffffffffffffffffffff19167bffffffffffffffffffffffffffffffffffffffffffffffffffffffff1916815260200190815260200160002060006101000a81548163ffffffff021916908360e01c02179055506000604051602001808215158152602001915050604051602081830303815290604052600b90805190602001906137109291906140a3565b506000600a60006101000a81548160ff0219169083600281111561373057fe5b02179055506000600d819055506001600e60008282540192505081905550505050565b6001600a60006101000a81548160ff0219169083600281111561377257fe5b021790555060405180602001604052806000815250600c908051906020019061379c929190614023565b50565b6001808383604051808383808284378083019250505092505050908152602001604051809103902060006101000a81548160ff021916908360028111156137e257fe5b0217905550604051806020016040528060008152506003838360405180838380828437808301925050509250505090815260200160405180910390209080519060200190613831929190614023565b5061387f82828080601f016020809104026020016040519081016040528093929190818152602001838380828437600081840152601f19601f82011690508083019250505050505050613902565b5050565b7f010000000000000000000000000000000000000000000000000000000000000081565b6138fd83838080601f016020809104026020016040519081016040528093929190818152602001838380828437600081840152601f19601f820116905080830192505050505050506138f8836139ed565b613e2f565b505050565b600081805190602001209050600080600083815260200190815260200160002080546001816001161561010002031660029004905014156139e9576000807f0100000000000000000000000000000000000000000000000000000000000000815260200190815260200160002060008083815260200190815260200160002090805460018160011615610100020316600290046139a0929190614123565b50816000807f0100000000000000000000000000000000000000000000000000000000000000815260200190815260200160002090805190602001906139e79291906140a3565b505b5050565b6060602067ffffffffffffffff81118015613a0757600080fd5b506040519080825280601f01601f191660200182016040528015613a3a5781602001600182028036833780820191505090505b509050816020820152919050565b6000600a60006101000a81548160ff02191690836002811115613a6757fe5b021790555080600b9080519060200190613a829291906140a3565b5050565b60008060005b6004811015613b0a576008810260ff60f81b858381518110613aaa57fe5b602001015160f81c60f81b167effffffffffffffffffffffffffffffffffffffffffffffffffffffffffffff19167bffffffffffffffffffffffffffffffffffffffffffffffffffffffff1916901c821791508080600101915050613a8c565b5080915050919050565b60006001836040518082805190602001908083835b60208310613b4c5780518252602082019150602081019050602083039250613b29565b6001836020036101000a038019825116818451168082178552505050505050905001915050908152602001604051809103902060006101000a81548160ff02191690836002811115613b9a57fe5b0217905550806002836040518082805190602001908083835b60208310613bd65780518252602082019150602081019050602083039250613bb3565b6001836020036101000a03801982511681845116808217855250505050505090500191505090815260200160405180910390209080519060200190613c1c9291906140a3565b50613c2682613902565b5050565b600060e01b60056000837bffffffffffffffffffffffffffffffffffffffffffffffffffffffff19167bffffffffffffffffffffffffffffffffffffffffffffffffffffffff1916815260200190815260200160002060009054906101000a900460e01b7bffffffffffffffffffffffffffffffffffffffffffffffffffffffff19161415613e2c57600560007f01000000000000000000000000000000000000000000000000000000000000007bffffffffffffffffffffffffffffffffffffffffffffffffffffffff19167bffffffffffffffffffffffffffffffffffffffffffffffffffffffff1916815260200190815260200160002060009054906101000a900460e01b60056000837bffffffffffffffffffffffffffffffffffffffffffffffffffffffff19167bffffffffffffffffffffffffffffffffffffffffffffffffffffffff1916815260200190815260200160002060006101000a81548163ffffffff021916908360e01c021790555080600560007f01000000000000000000000000000000000000000000000000000000000000007bffffffffffffffffffffffffffffffffffffffffffffffffffffffff19167bffffffffffffffffffffffffffffffffffffffffffffffffffffffff1916815260200190815260200160002060006101000a81548163ffffffff021916908360e01c02179055505b50565b6000613e3a83613a86565b9050600060066000837bffffffffffffffffffffffffffffffffffffffffffffffffffffffff19167bffffffffffffffffffffffffffffffffffffffffffffffffffffffff1916815260200190815260200160002060006101000a81548160ff02191690836002811115613eaa57fe5b02179055508160076000837bffffffffffffffffffffffffffffffffffffffffffffffffffffffff19167bffffffffffffffffffffffffffffffffffffffffffffffffffffffff191681526020019081526020016000209080519060200190613f149291906140a3565b50613f1e81613c2a565b505050565b828054600181600116156101000203166002900490600052602060002090601f016020900481019282601f10613f6457803560ff1916838001178555613f92565b82800160010185558215613f92579182015b82811115613f91578235825591602001919060010190613f76565b5b509050613f9f91906141aa565b5090565b828054600181600116156101000203166002900490600052602060002090601f016020900481019282601f10613fe457805160ff1916838001178555614012565b82800160010185558215614012579182015b82811115614011578251825591602001919060010190613ff6565b5b50905061401f91906141aa565b5090565b828054600181600116156101000203166002900490600052602060002090601f016020900481019282601f1061406457805160ff1916838001178555614092565b82800160010185558215614092579182015b82811115614091578251825591602001919060010190614076565b5b50905061409f91906141aa565b5090565b828054600181600116156101000203166002900490600052602060002090601f016020900481019282601f106140e457805160ff1916838001178555614112565b82800160010185558215614112579182015b828111156141115782518255916020019190600101906140f6565b5b50905061411f91906141aa565b5090565b828054600181600116156101000203166002900490600052602060002090601f016020900481019282601f1061415c5780548555614199565b8280016001018555821561419957600052602060002091601f016020900482015b8281111561419857825482559160010191906001019061417d565b5b5090506141a691906141aa565b5090565b5b808211156141c35760008160009055506001016141ab565b509056fe43616e206f6e6c792062652063616c6c65642066726f6d2074686520636f6e747261637420697473656c66a2646970667358221220e9a941502ed689da2ebf5f0b31bd458f8e54a3b45bf23e712fbab6f6abc43e3b64736f6c634300060c0033",
  "linkReferences": {},
  "deployedLinkReferences": {}
}