{
  "_format": "hh-sol-artifact-1",
  "contractName": "VotePowerMock",
  "sourceName": "contracts/token/mock/VotePowerMock.sol",
  "abi": [
    {
      "inputs": [
        {
          "internalType": "address",
          "name": "_owner",
          "type": "address"
        },
        {
          "internalType": "uint256",
          "name": "_amount",
          "type": "uint256"
        }
      ],
      "name": "_burn",
      "outputs": [],
      "stateMutability": "nonpayable",
      "type": "function"
    },
    {
      "inputs": [
        {
          "internalType": "address",
          "name": "_owner",
          "type": "address"
        },
        {
          "internalType": "uint256",
          "name": "_amount",
          "type": "uint256"
        }
      ],
      "name": "_mint",
      "outputs": [],
      "stateMutability": "nonpayable",
      "type": "function"
    },
    {
      "inputs": [
        {
          "internalType": "address",
          "name": "_owner",
          "type": "address"
        },
        {
          "internalType": "uint256",
          "name": "_count",
          "type": "uint256"
        },
        {
          "internalType": "uint256",
          "name": "_cleanupBlockNumber",
          "type": "uint256"
        }
      ],
      "name": "cleanupOldCheckpoints",
      "outputs": [],
      "stateMutability": "nonpayable",
      "type": "function"
    },
    {
      "inputs": [
        {
          "internalType": "address",
          "name": "_delegator",
          "type": "address"
        },
        {
          "internalType": "address",
          "name": "_delegatee",
          "type": "address"
        },
        {
          "internalType": "uint256",
          "name": "_amount",
          "type": "uint256"
        }
      ],
      "name": "delegate",
      "outputs": [],
      "stateMutability": "nonpayable",
      "type": "function"
    },
    {
      "inputs": [
        {
          "internalType": "address",
          "name": "_from",
          "type": "address"
        },
        {
          "internalType": "address",
          "name": "_to",
          "type": "address"
        },
        {
          "internalType": "uint256",
          "name": "_amount",
          "type": "uint256"
        }
      ],
      "name": "transmit",
      "outputs": [],
      "stateMutability": "nonpayable",
      "type": "function"
    },
    {
      "inputs": [
        {
          "internalType": "address",
          "name": "_delegator",
          "type": "address"
        },
        {
          "internalType": "address",
          "name": "_delegatee",
          "type": "address"
        },
        {
          "internalType": "uint256",
          "name": "_amount",
          "type": "uint256"
        }
      ],
      "name": "undelegate",
      "outputs": [],
      "stateMutability": "nonpayable",
      "type": "function"
    },
    {
      "inputs": [
        {
          "internalType": "address",
          "name": "_who",
          "type": "address"
        },
        {
          "internalType": "uint256",
          "name": "_blockNumber",
          "type": "uint256"
        }
      ],
      "name": "votePowerOfAt",
      "outputs": [
        {
          "internalType": "uint256",
          "name": "_votePower",
          "type": "uint256"
        }
      ],
      "stateMutability": "view",
      "type": "function"
    },
    {
      "inputs": [
        {
          "internalType": "address",
          "name": "_who",
          "type": "address"
        }
      ],
      "name": "votePowerOfAtNow",
      "outputs": [
        {
          "internalType": "uint256",
          "name": "_votePower",
          "type": "uint256"
        }
      ],
      "stateMutability": "view",
      "type": "function"
    }
  ],
  "bytecode": "0x608060405234801561001057600080fd5b50610c26806100206000396000f3fe608060405234801561001057600080fd5b50600436106100885760003560e01c806392bfe6d81161005b57806392bfe6d814610155578063a02b942614610181578063c26f3acf146101b7578063dd54a82a146101ed57610088565b80631e2e5f541461008d5780634e6ec247146100c55780636161eb18146100f35780636ad38e611461011f575b600080fd5b6100b3600480360360208110156100a357600080fd5b50356001600160a01b031661021f565b60408051918252519081900360200190f35b6100f1600480360360408110156100db57600080fd5b506001600160a01b038135169060200135610233565b005b6100f16004803603604081101561010957600080fd5b506001600160a01b038135169060200135610244565b6100f16004803603606081101561013557600080fd5b506001600160a01b03813581169160208101359091169060400135610251565b6100b36004803603604081101561016b57600080fd5b506001600160a01b038135169060200135610270565b6100f16004803603606081101561019757600080fd5b506001600160a01b03813581169160208101359091169060400135610286565b6100f1600480360360608110156101cd57600080fd5b506001600160a01b03813581169160208101359091169060400135610293565b6100f16004803603606081101561020357600080fd5b506001600160a01b0381351690602081013590604001356102a0565b600061022b81836102b3565b90505b919050565b61024060008383826102bf565b5050565b61024060008381846102bf565b61025e60008481846102bf565b61026b60008383826102bf565b505050565b600061027d818484610312565b90505b92915050565b61026b6000848484610329565b61026b600084848461036e565b6102ad60008484846103ab565b50505050565b600061027d83836103c4565b6001600160a01b0383166102cf57fe5b808214156102dc576102ad565b60006102e885856103c4565b90506102fe826102f883866103e5565b9061043f565b905061030b85858361049c565b5050505050565b600061031f8484846104be565b90505b9392505050565b82826001600160a01b03821615801561034957506001600160a01b038116155b1561035057fe5b8261035a57610366565b610366868587866104e9565b505050505050565b82826001600160a01b03821615801561038e57506001600160a01b038116155b1561039557fe5b8261039f57610366565b610366868686866104e9565b60006103b985858585610578565b90505b949350505050565b6001600160a01b03811660009081526020839052604081206103bc816105be565b60008282018381101561027d576040805162461bcd60e51b815260206004820152601b60248201527f536166654d6174683a206164646974696f6e206f766572666c6f770000000000604482015290519081900360640190fd5b600082821115610496576040805162461bcd60e51b815260206004820152601e60248201527f536166654d6174683a207375627472616374696f6e206f766572666c6f770000604482015290519081900360640190fd5b50900390565b6001600160a01b03821660009081526020849052604090206102ad8183610606565b6001600160a01b03821660009081526020849052604081206104e081846107c7565b95945050505050565b806104f3576102ad565b6001600160a01b03831615801561051157506001600160a01b038216155b1561051857fe5b6001600160a01b03831615610546576000610537826102f887876103c4565b905061054485858361049c565b505b6001600160a01b038216156102ad57600061056b8261056587866103c4565b906103e5565b905061030b85848361049c565b60006001600160a01b038416156105b3576001600160a01b03841660009081526020869052604090206105ac90848461090a565b90506103bc565b506000949350505050565b6001810154600090600160401b90046001600160401b0316806105e557600091505061022e565b6000190160009081526020929092525060409020546001600160c01b031690565b6001820154600160401b90046001600160401b0316806106bd576040518060400160405280610634846109f7565b6001600160c01b0316815260200161064b43610a55565b6001600160401b03908116909152600080805260208681526040909120835181549490920151909216600160c01b026001600160c01b039182166001600160c01b0319909416939093171691909117905560018301805467ffffffffffffffff60401b1916600160401b17905561026b565b600019810160009081526020849052604090208054600160c01b90046001600160401b031643811415610713576106f3846109f7565b82546001600160c01b0319166001600160c01b039190911617825561030b565b80431161071c57fe5b6040518060400160405280610730866109f7565b6001600160c01b0316815260200161074743610a55565b6001600160401b039081169091526000858152602088815260409091208351815494909201518316600160c01b026001600160c01b039283166001600160c01b0319909516949094179091169290921790915560018087018054918601909216600160401b0267ffffffffffffffff60401b199091161790555050505050565b6001820154600090600160401b90046001600160401b0316806107ee576000915050610280565b438310158061082057506000198101600090815260208590526040902054600160c01b90046001600160401b03168310155b1561084857600019016000908152602084905260409020546001600160c01b03169050610280565b60018401546001600160401b039081166000818152602087905260409020549091600160c01b909104168410156108c15780156108b65760405162461bcd60e51b8152600401808060200182810382526030815260200180610bc16030913960400191505060405180910390fd5b600092505050610280565b60018501546000906108e79087908490600160401b90046001600160401b031688610a99565b6000908152602087905260409020546001600160c01b0316935050505092915050565b60008161091957506000610322565b6001840154600160401b90046001600160401b03168061093d576000915050610322565b60018501546001600160401b0316600061096361095a83886103e5565b60018503610b1d565b9050815b8181108015610998575060018101600090815260208990526040902054600160c01b90046001600160401b03168610155b156109b457600081815260208990526040812055600101610967565b828111156109e9576109c581610a55565b60018901805467ffffffffffffffff19166001600160401b03929092169190911790555b919091039695505050505050565b6000600160c01b8210610a51576040805162461bcd60e51b815260206004820152601d60248201527f76616c756520646f65736e27742066697420696e203139322062697473000000604482015290519081900360640190fd5b5090565b6000600160401b8210610a515760405162461bcd60e51b8152600401808060200182810382526026815260200180610b9b6026913960400191505060405180910390fd5b60008381610aa885600161043f565b90505b81811115610b13576000610acf6002610ac9600161056586886103e5565b90610b33565b600081815260208a90526040902054909150600160c01b90046001600160401b03168510610aff57809250610b0d565b610b0a81600161043f565b91505b50610aab565b5095945050505050565b6000818310610b2c578161027d565b5090919050565b6000808211610b89576040805162461bcd60e51b815260206004820152601a60248201527f536166654d6174683a206469766973696f6e206279207a65726f000000000000604482015290519081900360640190fd5b818381610b9257fe5b04939250505056fe53616665436173743a2076616c756520646f65736e27742066697420696e2036342062697473436865636b506f696e74486973746f72793a2072656164696e672066726f6d20636c65616e65642d757020626c6f636ba2646970667358221220d025830056a04510e1f66dbba8a8d795512af086514eb59819916c14cf40b1e564736f6c63430007060033",
  "linkReferences": {},
  "deployedLinkReferences": {}
}