{
  "_format": "hh-sol-artifact-1",
  "contractName": "ReadGasLeft",
  "sourceName": "contracts/genesis/mock/ReadGasLeft.sol",
  "abi": [
    {
      "inputs": [],
      "name": "count",
      "outputs": [
        {
          "internalType": "uint256",
          "name": "",
          "type": "uint256"
        }
      ],
      "stateMutability": "view",
      "type": "function"
    },
    {
      "inputs": [],
      "name": "daemonize",
      "outputs": [
        {
          "internalType": "bool",
          "name": "",
          "type": "bool"
        }
      ],
      "stateMutability": "nonpayable",
      "type": "function"
    },
    {
      "inputs": [],
      "name": "gasLeft",
      "outputs": [
        {
          "internalType": "uint256",
          "name": "",
          "type": "uint256"
        }
      ],
      "stateMutability": "view",
      "type": "function"
    },
    {
      "inputs": [],
      "name": "getContractName",
      "outputs": [
        {
          "internalType": "string",
          "name": "",
          "type": "string"
        }
      ],
      "stateMutability": "pure",
      "type": "function"
    },
    {
      "inputs": [],
      "name": "switchToFallbackMode",
      "outputs": [
        {
          "internalType": "bool",
          "name": "",
          "type": "bool"
        }
      ],
      "stateMutability": "pure",
      "type": "function"
    }
  ],
  "bytecode": "0x6080604052600060015534801561001557600080fd5b506101a9806100256000396000f3fe608060405234801561001057600080fd5b50600436106100575760003560e01c806306661abd1461005c5780632ddb301b146100765780636d0e8c341461007e578063e22fdece1461009a578063f5f5ba72146100a2575b600080fd5b61006461011f565b60408051918252519081900360200190f35b610064610125565b61008661012b565b604080519115158252519081900360200190f35b610086610149565b6100aa61014e565b6040805160208082528351818301528351919283929083019185019080838360005b838110156100e45781810151838201526020016100cc565b50505050905090810190601f1680156101115780820380516001836020036101000a031916815260200191505b509250505060405180910390f35b60015481565b60005481565b60006001546000141561013d575a6000555b50600180548101815590565b600090565b60408051808201909152600b81526a1499585911d85cd319599d60aa1b60208201529056fea26469706673582212207e81941ab608eef058f29ca3026aa1f58b7691337c1b9a3877b403ebc6f1594464736f6c63430007060033",
  "linkReferences": {},
  "deployedLinkReferences": {}
}