{
  "_format": "hh-sol-artifact-1",
  "contractName": "FlareDaemon",
  "sourceName": "contracts/genesis/implementation/FlareDaemon.sol",
  "abi": [
    {
      "inputs": [],
      "stateMutability": "nonpayable",
      "type": "constructor"
    },
    {
      "anonymous": false,
      "inputs": [
        {
          "indexed": false,
          "internalType": "address",
          "name": "theContract",
          "type": "address"
        },
        {
          "indexed": false,
          "internalType": "uint256",
          "name": "atBlock",
          "type": "uint256"
        },
        {
          "indexed": false,
          "internalType": "string",
          "name": "theMessage",
          "type": "string"
        },
        {
          "indexed": false,
          "internalType": "uint256",
          "name": "gasConsumed",
          "type": "uint256"
        }
      ],
      "name": "ContractDaemonizeErrored",
      "type": "event"
    },
    {
      "anonymous": false,
      "inputs": [
        {
          "indexed": false,
          "internalType": "address",
          "name": "theContract",
          "type": "address"
        },
        {
          "indexed": false,
          "internalType": "uint256",
          "name": "gasConsumed",
          "type": "uint256"
        }
      ],
      "name": "ContractDaemonized",
      "type": "event"
    },
    {
      "anonymous": false,
      "inputs": [
        {
          "indexed": false,
          "internalType": "address",
          "name": "theContract",
          "type": "address"
        },
        {
          "indexed": false,
          "internalType": "uint256",
          "name": "blockHoldoffsRemaining",
          "type": "uint256"
        }
      ],
      "name": "ContractHeldOff",
      "type": "event"
    },
    {
      "anonymous": false,
      "inputs": [
        {
          "indexed": false,
          "internalType": "uint256",
          "name": "numberOfSkippedConstracts",
          "type": "uint256"
        }
      ],
      "name": "ContractsSkippedOutOfGas",
      "type": "event"
    },
    {
      "anonymous": false,
      "inputs": [
        {
          "indexed": false,
          "internalType": "address",
          "name": "proposedGovernance",
          "type": "address"
        }
      ],
      "name": "GovernanceProposed",
      "type": "event"
    },
    {
      "anonymous": false,
      "inputs": [
        {
          "indexed": false,
          "internalType": "address",
          "name": "oldGovernance",
          "type": "address"
        },
        {
          "indexed": false,
          "internalType": "address",
          "name": "newGoveranance",
          "type": "address"
        }
      ],
      "name": "GovernanceUpdated",
      "type": "event"
    },
    {
      "anonymous": false,
      "inputs": [
        {
          "indexed": false,
          "internalType": "contract IInflationGenesis",
          "name": "theNewContract",
          "type": "address"
        },
        {
          "indexed": false,
          "internalType": "contract IInflationGenesis",
          "name": "theOldContract",
          "type": "address"
        }
      ],
      "name": "InflationSet",
      "type": "event"
    },
    {
      "anonymous": false,
      "inputs": [
        {
          "indexed": false,
          "internalType": "uint256",
          "name": "amountWei",
          "type": "uint256"
        }
      ],
      "name": "MintingReceived",
      "type": "event"
    },
    {
      "anonymous": false,
      "inputs": [
        {
          "indexed": false,
          "internalType": "uint256",
          "name": "amountWei",
          "type": "uint256"
        }
      ],
      "name": "MintingRequestReceived",
      "type": "event"
    },
    {
      "anonymous": false,
      "inputs": [
        {
          "indexed": false,
          "internalType": "uint256",
          "name": "amountWei",
          "type": "uint256"
        }
      ],
      "name": "MintingRequestTriggered",
      "type": "event"
    },
    {
      "anonymous": false,
      "inputs": [
        {
          "indexed": false,
          "internalType": "uint256",
          "name": "amountWei",
          "type": "uint256"
        }
      ],
      "name": "MintingWithdrawn",
      "type": "event"
    },
    {
      "anonymous": false,
      "inputs": [
        {
          "indexed": false,
          "internalType": "contract IFlareDaemonize",
          "name": "theContract",
          "type": "address"
        },
        {
          "indexed": false,
          "internalType": "bool",
          "name": "add",
          "type": "bool"
        }
      ],
      "name": "RegistrationUpdated",
      "type": "event"
    },
    {
      "anonymous": false,
      "inputs": [
        {
          "indexed": false,
          "internalType": "uint256",
          "name": "amountWei",
          "type": "uint256"
        }
      ],
      "name": "SelfDestructReceived",
      "type": "event"
    },
    {
      "inputs": [],
      "name": "blockHoldoff",
      "outputs": [
        {
          "internalType": "uint256",
          "name": "",
          "type": "uint256"
        }
      ],
      "stateMutability": "view",
      "type": "function"
    },
    {
      "inputs": [],
      "name": "claimGovernance",
      "outputs": [],
      "stateMutability": "nonpayable",
      "type": "function"
    },
    {
      "inputs": [],
      "name": "errorData",
      "outputs": [
        {
          "internalType": "uint192",
          "name": "totalDaemonizedErrors",
          "type": "uint192"
        },
        {
          "internalType": "uint64",
          "name": "lastErrorTypeIndex",
          "type": "uint64"
        }
      ],
      "stateMutability": "view",
      "type": "function"
    },
    {
      "inputs": [],
      "name": "getAddressUpdater",
      "outputs": [
        {
          "internalType": "address",
          "name": "_addressUpdater",
          "type": "address"
        }
      ],
      "stateMutability": "view",
      "type": "function"
    },
    {
      "inputs": [],
      "name": "getDaemonizedContractsData",
      "outputs": [
        {
          "internalType": "contract IFlareDaemonize[]",
          "name": "_daemonizeContracts",
          "type": "address[]"
        },
        {
          "internalType": "uint256[]",
          "name": "_gasLimits",
          "type": "uint256[]"
        },
        {
          "internalType": "uint256[]",
          "name": "_blockHoldoffsRemaining",
          "type": "uint256[]"
        }
      ],
      "stateMutability": "view",
      "type": "function"
    },
    {
      "inputs": [],
      "name": "getNextMintRequestAllowedTs",
      "outputs": [
        {
          "internalType": "uint256",
          "name": "",
          "type": "uint256"
        }
      ],
      "stateMutability": "view",
      "type": "function"
    },
    {
      "inputs": [],
      "name": "governance",
      "outputs": [
        {
          "internalType": "address",
          "name": "",
          "type": "address"
        }
      ],
      "stateMutability": "view",
      "type": "function"
    },
    {
      "inputs": [],
      "name": "inflation",
      "outputs": [
        {
          "internalType": "contract IInflationGenesis",
          "name": "",
          "type": "address"
        }
      ],
      "stateMutability": "view",
      "type": "function"
    },
    {
      "inputs": [
        {
          "internalType": "address",
          "name": "_governance",
          "type": "address"
        }
      ],
      "name": "initialise",
      "outputs": [],
      "stateMutability": "pure",
      "type": "function"
    },
    {
      "inputs": [],
      "name": "initialiseFixedAddress",
      "outputs": [
        {
          "internalType": "address",
          "name": "",
          "type": "address"
        }
      ],
      "stateMutability": "nonpayable",
      "type": "function"
    },
    {
      "inputs": [],
      "name": "lastMintRequestTs",
      "outputs": [
        {
          "internalType": "uint256",
          "name": "",
          "type": "uint256"
        }
      ],
      "stateMutability": "view",
      "type": "function"
    },
    {
      "inputs": [],
      "name": "lastUpdateMaxMintRequestTs",
      "outputs": [
        {
          "internalType": "uint256",
          "name": "",
          "type": "uint256"
        }
      ],
      "stateMutability": "view",
      "type": "function"
    },
    {
      "inputs": [],
      "name": "maxMintingRequestWei",
      "outputs": [
        {
          "internalType": "uint256",
          "name": "",
          "type": "uint256"
        }
      ],
      "stateMutability": "view",
      "type": "function"
    },
    {
      "inputs": [
        {
          "internalType": "address",
          "name": "_governance",
          "type": "address"
        }
      ],
      "name": "proposeGovernance",
      "outputs": [],
      "stateMutability": "nonpayable",
      "type": "function"
    },
    {
      "inputs": [],
      "name": "proposedGovernance",
      "outputs": [
        {
          "internalType": "address",
          "name": "",
          "type": "address"
        }
      ],
      "stateMutability": "view",
      "type": "function"
    },
    {
      "inputs": [
        {
          "components": [
            {
              "internalType": "contract IFlareDaemonize",
              "name": "daemonizedContract",
              "type": "address"
            },
            {
              "internalType": "uint256",
              "name": "gasLimit",
              "type": "uint256"
            }
          ],
          "internalType": "struct FlareDaemon.Registration[]",
          "name": "_registrations",
          "type": "tuple[]"
        }
      ],
      "name": "registerToDaemonize",
      "outputs": [],
      "stateMutability": "nonpayable",
      "type": "function"
    },
    {
      "inputs": [
        {
          "internalType": "uint256",
          "name": "_amountWei",
          "type": "uint256"
        }
      ],
      "name": "requestMinting",
      "outputs": [],
      "stateMutability": "nonpayable",
      "type": "function"
    },
    {
      "inputs": [
        {
          "internalType": "address",
          "name": "_addressUpdater",
          "type": "address"
        }
      ],
      "name": "setAddressUpdater",
      "outputs": [],
      "stateMutability": "nonpayable",
      "type": "function"
    },
    {
      "inputs": [
        {
          "internalType": "uint256",
          "name": "_blockHoldoff",
          "type": "uint256"
        }
      ],
      "name": "setBlockHoldoff",
      "outputs": [],
      "stateMutability": "nonpayable",
      "type": "function"
    },
    {
      "inputs": [
        {
          "internalType": "uint256",
          "name": "_maxMintingRequestWei",
          "type": "uint256"
        }
      ],
      "name": "setMaxMintingRequest",
      "outputs": [],
      "stateMutability": "nonpayable",
      "type": "function"
    },
    {
      "inputs": [
        {
          "internalType": "uint256",
          "name": "startIndex",
          "type": "uint256"
        },
        {
          "internalType": "uint256",
          "name": "numErrorTypesToShow",
          "type": "uint256"
        }
      ],
      "name": "showDaemonizedErrors",
      "outputs": [
        {
          "internalType": "uint256[]",
          "name": "_lastErrorBlock",
          "type": "uint256[]"
        },
        {
          "internalType": "uint256[]",
          "name": "_numErrors",
          "type": "uint256[]"
        },
        {
          "internalType": "string[]",
          "name": "_errorString",
          "type": "string[]"
        },
        {
          "internalType": "address[]",
          "name": "_erroringContract",
          "type": "address[]"
        },
        {
          "internalType": "uint256",
          "name": "_totalDaemonizedErrors",
          "type": "uint256"
        }
      ],
      "stateMutability": "view",
      "type": "function"
    },
    {
      "inputs": [],
      "name": "showLastDaemonizedError",
      "outputs": [
        {
          "internalType": "uint256[]",
          "name": "_lastErrorBlock",
          "type": "uint256[]"
        },
        {
          "internalType": "uint256[]",
          "name": "_numErrors",
          "type": "uint256[]"
        },
        {
          "internalType": "string[]",
          "name": "_errorString",
          "type": "string[]"
        },
        {
          "internalType": "address[]",
          "name": "_erroringContract",
          "type": "address[]"
        },
        {
          "internalType": "uint256",
          "name": "_totalDaemonizedErrors",
          "type": "uint256"
        }
      ],
      "stateMutability": "view",
      "type": "function"
    },
    {
      "inputs": [],
      "name": "systemLastTriggeredAt",
      "outputs": [
        {
          "internalType": "uint256",
          "name": "",
          "type": "uint256"
        }
      ],
      "stateMutability": "view",
      "type": "function"
    },
    {
      "inputs": [],
      "name": "totalMintingReceivedWei",
      "outputs": [
        {
          "internalType": "uint256",
          "name": "",
          "type": "uint256"
        }
      ],
      "stateMutability": "view",
      "type": "function"
    },
    {
      "inputs": [],
      "name": "totalMintingRequestedWei",
      "outputs": [
        {
          "internalType": "uint256",
          "name": "",
          "type": "uint256"
        }
      ],
      "stateMutability": "view",
      "type": "function"
    },
    {
      "inputs": [],
      "name": "totalMintingWithdrawnWei",
      "outputs": [
        {
          "internalType": "uint256",
          "name": "",
          "type": "uint256"
        }
      ],
      "stateMutability": "view",
      "type": "function"
    },
    {
      "inputs": [],
      "name": "totalSelfDestructReceivedWei",
      "outputs": [
        {
          "internalType": "uint256",
          "name": "",
          "type": "uint256"
        }
      ],
      "stateMutability": "view",
      "type": "function"
    },
    {
      "inputs": [
        {
          "internalType": "address",
          "name": "_governance",
          "type": "address"
        }
      ],
      "name": "transferGovernance",
      "outputs": [],
      "stateMutability": "nonpayable",
      "type": "function"
    },
    {
      "inputs": [],
      "name": "trigger",
      "outputs": [
        {
          "internalType": "uint256",
          "name": "_toMintWei",
          "type": "uint256"
        }
      ],
      "stateMutability": "nonpayable",
      "type": "function"
    },
    {
      "inputs": [],
      "name": "unregisterAll",
      "outputs": [],
      "stateMutability": "nonpayable",
      "type": "function"
    },
    {
      "inputs": [
        {
          "internalType": "bytes32[]",
          "name": "_contractNameHashes",
          "type": "bytes32[]"
        },
        {
          "internalType": "address[]",
          "name": "_contractAddresses",
          "type": "address[]"
        }
      ],
      "name": "updateContractAddresses",
      "outputs": [],
      "stateMutability": "nonpayable",
      "type": "function"
    }
  ],
  "bytecode": "0x608060405234801561001057600080fd5b50600061001c81610022565b50610046565b7f714f205b2abd25bef1d06a1af944e38c113fe6160375c4e1d6d5cf28848e771955565b612d2c80620000566000396000f3fe608060405234801561001057600080fd5b50600436106101e55760003560e01c80638be2fb861161010f578063c9f960eb116100a2578063e371aef011610071578063e371aef014610350578063e9de7d6014610366578063ecdda0dd14610379578063ed21b6e41461038c576101e5565b8063c9f960eb14610325578063d38bfff41461032d578063d48a38df14610340578063dded1b4714610348576101e5565b8063aea36b53116100de578063aea36b53146102e4578063b00c0b76146102f7578063be0522e01461030a578063c373a08e14610312576101e5565b80638be2fb86146102b95780638ccf77a0146102c15780639d6a890f146102c9578063a6817ace146102dc576101e5565b806360f7ac9711610187578063689c499911610156578063689c49991461028357806372993615146102965780637fec8d381461029e578063870196b8146102a6576101e5565b806360f7ac971461025257806362da19a51461025a578063639031431461026257806363d4a53a1461026a576101e5565b80635042916c116101c35780635042916c146102185780635267a15d1461022d5780635aa6e675146102425780635d36b1901461024a576101e5565b806310663750146101ea5780631d76dea1146102085780634f6a77b514610210575b600080fd5b6101f26103a3565b6040516101ff9190612b9d565b60405180910390f35b6101f26103a9565b6101f26103af565b61022b6102263660046128b7565b6103b5565b005b6102356103c2565b6040516101ff919061298e565b6102356103e7565b61022b6103f6565b6102356104b8565b6101f26104c7565b6101f26104cd565b6102726104dd565b6040516101ff959493929190612a94565b61022b610291366004612747565b610518565b6101f261052c565b6101f2610532565b61022b6102b43660046128b7565b610592565b6101f26106a2565b61022b6106a8565b61022b6102d7366004612675565b6106ba565b6101f26106bc565b61022b6102f2366004612675565b6106c2565b61022b610305366004612691565b6106d3565b61023561077e565b61022b610320366004612675565b61078d565b6102356107e9565b61022b61033b366004612675565b610828565b6101f26108a1565b6101f26108a7565b6103586108ad565b6040516101ff929190612b7b565b61022b6103743660046128b7565b6108ce565b6102726103873660046128cf565b610a06565b610394610d63565b6040516101ff93929190612a1f565b60055481565b60095481565b60085481565b6103bd610f28565b600c55565b7f714f205b2abd25bef1d06a1af944e38c113fe6160375c4e1d6d5cf28848e77195490565b6000546001600160a01b031681565b6001546001600160a01b03163314610445576040805162461bcd60e51b815260206004820152600d60248201526c1b9bdd0818db185a5b585a5b9d609a1b604482015290519081900360640190fd5b600054600154604080516001600160a01b03938416815292909116602083015280517f434a2db650703b36c824e745330d6397cdaa9ee2cc891a4938ae853e1c50b68d9281900390910190a160018054600080546001600160a01b03199081166001600160a01b03841617909155169055565b6001546001600160a01b031681565b60045481565b60006104d7610f79565b90505b90565b600b5460609081908190819060009061050790600160c01b90046001600160401b03166001610a06565b945094509450945094509091929394565b610520610f28565b61052981610f84565b50565b60075481565b6002546000906001600160a01b031661057757610577306040518060400160405280600e81526020016d696e666c6174696f6e207a65726f60901b8152506000611236565b60026001609c1b01331461058a57600080fd5b6104d76113fa565b61059a610f28565b6008546105aa90606e6064611cab565b811115604051806040016040528060118152602001700dac2f040dad2dce840e8dede40d0d2ced607b1b815250906105fe5760405162461bcd60e51b81526004016105f59190612b68565b60405180910390fd5b5060408051808201909152601081526f6d6178206d696e74206973207a65726f60801b6020820152816106445760405162461bcd60e51b81526004016105f59190612b68565b5062015180600a54014211604051806040016040528060128152602001711d1a5b594819d85c081d1bdbc81cda1bdc9d60721b815250906106985760405162461bcd60e51b81526004016105f59190612b68565b5060085542600a55565b60035481565b6106b0610f28565b6106b8611db9565b565bfe5b600a5481565b6106ca610f28565b61052981611e69565b6106db6103c2565b6001600160a01b0316336001600160a01b031614610737576040805162461bcd60e51b815260206004820152601460248201527337b7363c9030b2323932b9b9903ab83230ba32b960611b604482015290519081900360640190fd5b61077061076b83836040518060400160405280600e81526020016d20b2323932b9b9aab83230ba32b960911b815250611e8d565b611e69565b61077a8282611fba565b5050565b6002546001600160a01b031681565b610795610f28565b600180546001600160a01b0383166001600160a01b0319909116811790915560408051918252517f1f95fb40be3a947982072902a887b521248d1d8931a39eb38f84f4d6fd758b699181900360200190a150565b600f5460009060ff1661081657600f805460ff19166001179055600061080d6121e2565b91506104da9050565b506000546001600160a01b03166104da565b610830610f28565b600054604080516001600160a01b039283168152918316602083015280517f434a2db650703b36c824e745330d6397cdaa9ee2cc891a4938ae853e1c50b68d9281900390910190a1600080546001600160a01b039092166001600160a01b0319928316179055600180549091169055565b600c5481565b60065481565b600b546001600160c01b03811690600160c01b90046001600160401b031682565b60025460408051808201909152600d81526c3737ba1034b7333630ba34b7b760991b602082015233916001600160a01b0316821461091f5760405162461bcd60e51b81526004016105f59190612b68565b5060085482111560405180604001604052806007815260200166746f6f2062696760c81b815250906109645760405162461bcd60e51b81526004016105f59190612b68565b504261096e610f79565b10604051806040016040528060098152602001683a37b79037b33a32b760b91b815250906109af5760405162461bcd60e51b81526004016105f59190612b68565b50811561077a57426009556004546109c79083612202565b6004556040517f4c4f1efc376f31abeb51b72c5f9ed81cf4016591312bb02337e58149dcfaaab4906109fa908490612b9d565b60405180910390a15050565b606080606080600060148054905087106040518060400160405280601081526020016f0e6e8c2e4e840d2dcc8caf040d0d2ced60831b81525090610a5d5760405162461bcd60e51b81526004016105f59190612b68565b506014546000908888011115610a7857601454889003610a7a565b865b9050806001600160401b0381118015610a9257600080fd5b50604051908082528060200260200182016040528015610abc578160200160208202803683370190505b509550806001600160401b0381118015610ad557600080fd5b50604051908082528060200260200182016040528015610aff578160200160208202803683370190505b509450806001600160401b0381118015610b1857600080fd5b50604051908082528060200260200182016040528015610b4c57816020015b6060815260200190600190039081610b375790505b509350806001600160401b0381118015610b6557600080fd5b50604051908082528060200260200182016040528015610b8f578160200160208202803683370190505b50925060005b81811015610d475760006014828b0181548110610bae57fe5b6000918252602080832090910154808352601390915260409091205489519192506001600160c01b031690899084908110610be557fe5b6020026020010181815250506013600082815260200190815260200160002060000160189054906101000a90046001600160401b03166001600160401b0316878381518110610c3057fe5b6020908102919091018101919091526000828152601382526040908190206002908101805483516001821615610100026000190190911692909204601f81018590048502830185019093528282529092909190830182828015610cd45780601f10610ca957610100808354040283529160200191610cd4565b820191906000526020600020905b815481529060010190602001808311610cb757829003601f168201915b5050505050868381518110610ce557fe5b60200260200101819052506013600082815260200190815260200160002060010160009054906101000a90046001600160a01b0316858381518110610d2657fe5b6001600160a01b039092166020928302919091019091015250600101610b95565b5050600b549497939650919450926001600160c01b0316919050565b60105460609081908190806001600160401b0381118015610d8357600080fd5b50604051908082528060200260200182016040528015610dad578160200160208202803683370190505b509350806001600160401b0381118015610dc657600080fd5b50604051908082528060200260200182016040528015610df0578160200160208202803683370190505b509250806001600160401b0381118015610e0957600080fd5b50604051908082528060200260200182016040528015610e33578160200160208202803683370190505b50915060005b81811015610f2157600060108281548110610e5057fe5b9060005260206000200160009054906101000a90046001600160a01b0316905080868381518110610e7d57fe5b60200260200101906001600160a01b031690816001600160a01b03168152505060116000826001600160a01b03166001600160a01b0316815260200190815260200160002054858381518110610ecf57fe5b60200260200101818152505060126000826001600160a01b03166001600160a01b0316815260200190815260200160002054848381518110610f0d57fe5b602090810291909101015250600101610e39565b5050909192565b6000546001600160a01b031633146106b8576040805162461bcd60e51b815260206004820152600f60248201526e6f6e6c7920676f7665726e616e636560881b604482015290519081900360640190fd5b600954620143700190565b8051604080518082019091526008815267746f6f206d616e7960c01b6020820152600a821115610fc75760405162461bcd60e51b81526004016105f59190612b68565b50610fd0611db9565b60005b818110156112315760006001600160a01b0316838281518110610ff257fe5b6020026020010151600001516001600160a01b031614156040518060400160405280600c81526020016b61646472657373207a65726f60a01b8152509061104c5760405162461bcd60e51b81526004016105f59190612b68565b5060105460005b818110156110f0576010818154811061106857fe5b60009182526020909120015485516001600160a01b039091169086908590811061108e57fe5b6020026020010151600001516001600160a01b031614156040518060400160405280600b81526020016a647570206164647265737360a81b815250906110e75760405162461bcd60e51b81526004016105f59190612b68565b50600101611053565b5060108483815181106110ff57fe5b6020908102919091018101515182546001810184556000938452919092200180546001600160a01b0319166001600160a01b03909216919091179055835184908390811061114957fe5b6020026020010151602001516011600086858151811061116557fe5b6020026020010151600001516001600160a01b03166001600160a01b03168152602001908152602001600020819055506000601260008685815181106111a757fe5b6020026020010151600001516001600160a01b03166001600160a01b03168152602001908152602001600020819055507f86d03f430c7616021073d7a71766f632f1ce19f289aa989534d9f4732253eb5984838151811061120457fe5b6020026020010151600001516001604051611220929190612b33565b60405180910390a150600101610fd3565b505050565b6000838360405160200161124b9291906129a2565b60408051808303601f190181529181528151602092830120600081815260139093529120805491925090600160c01b90046001600160401b03166113325760148054600180820183556000929092527fce6d7b5282bd9a3661ae061feed1dbda4e52ab073b1f9285be6e155d9c38d4ec01839055810180546001600160a01b0319166001600160a01b0387161790556112e5846040612265565b80516112fb916002840191602090910190612548565b5060145460018201805467ffffffffffffffff60a01b1916600160a01b6000199093016001600160401b0316929092029190911790555b8054436001600160c01b038181166001600160401b03600160c01b80860482166001019091160291909316176001600160c01b0319169190911782556040517f7a459ed083a9b267865360013a5ad6dbc07e5befe6e4f71671c940fdd4206bee916113a391889190889088906129e7565b60405180910390a1600b80546001600160c01b0319811660016001600160c01b0392831681018316919091178084559301549216600160a01b9092046001600160401b0316600160c01b0291909117905550505050565b600060035443141561140e575060006104da565b43600355600d5447908111156117e4576000611437600e54600d5461220290919063ffffffff16565b9050808214156115ac57600e546005546114519082612202565b6005556040517fa42d823c276ad1990284418c303209194a75fa95a901f19752a9f65a407ffa8c90611484908390612b9d565b60405180910390a1600260009054906101000a90046001600160a01b03166001600160a01b031663c611c2c5826040518263ffffffff1660e01b81526004016000604051808303818588803b1580156114dc57600080fd5b505af1935050505080156114ee575060015b61155d576114fa612c1c565b806115055750611517565b61151130826000611236565b50611558565b611558306040518060400160405280601d81526020017f756e6b6e6f776e206572726f722e20726563656976654d696e74696e670000008152506000611236565b6115a6565b60065461156a9082612202565b6006556040517f12773bf711e11ec0b058c3856d441d726d2dc89113706c4f4175571f1e830c5a9061159d908390612b9d565b60405180910390a15b506117e2565b8082101561160e5760006115cb600d548461231990919063ffffffff16565b6007549091506115db9082612202565b6007556040517f3fe36bcb00188390b2b40f1ab66c58f660aea67fe98b9f80667f692e1a9ab3689061159d908390612b9d565b600e5460055461161d91612202565b600555600e54600d5460009161163e91611638908690612319565b90612319565b60075490915061164e9082612202565b600755600e546040517fa42d823c276ad1990284418c303209194a75fa95a901f19752a9f65a407ffa8c9161168291612b9d565b60405180910390a17f3fe36bcb00188390b2b40f1ab66c58f660aea67fe98b9f80667f692e1a9ab368816040516116b99190612b9d565b60405180910390a1600260009054906101000a90046001600160a01b03166001600160a01b031663c611c2c5600e546040518263ffffffff1660e01b81526004016000604051808303818588803b15801561171357600080fd5b505af193505050508015611725575060015b61179457611731612c1c565b8061173c575061174e565b61174830826000611236565b5061178f565b61178f306040518060400160405280601d81526020017f756e6b6e6f776e206572726f722e20726563656976654d696e74696e670000008152506000611236565b6117e0565b600e546006546117a391612202565b600655600e546040517f12773bf711e11ec0b058c3856d441d726d2dc89113706c4f4175571f1e830c5a916117d791612b9d565b60405180910390a15b505b505b60105460005b81811015611c035760006010828154811061180157fe5b60009182526020808320909101546001600160a01b03168083526012909152604090912054909150801561188d576001600160a01b0382166000908152601260205260409081902060001983019055517f9895eddb1e8569b1dae526135aa5cab97f982fdc3b0ff7e17920c95e3b9bda629061188090849084906129ce565b60405180910390a1611bf9565b6001600160a01b038216600090815260116020526040812054905a90506204a7688110156118f7577f9b5c4be38598cb8d8b6e07727d2303d1d9fc2dfc31ad323170f5ea4dcc1f914a8587036040516118e69190612b9d565b60405180910390a150505050611c03565b620493df198101821580159061190c57508083105b156119145750815b846001600160a01b0316636d0e8c34826040518263ffffffff1660e01b8152600401602060405180830381600088803b15801561195057600080fd5b5087f193505050508015611981575060408051601f3d908101601f1916820190925261197e91810190612817565b60015b611bb85761198d612c1c565b806119985750611a1f565b6119a586825a8603611236565b856001600160a01b031663e22fdece6040518163ffffffff1660e01b8152600401602060405180830381600087803b1580156119e057600080fd5b505af11580156119f4573d6000803e3d6000fd5b505050506040513d601f19601f82011682018060405250810190611a189190612817565b5050611bb3565b60005a9050600084118015611a3d575083611a3a8483612319565b10155b15611b1057611a71866040518060400160405280600a8152602001696f7574206f662067617360b01b815250838603611236565b6000866001600160a01b031663e22fdece6040518163ffffffff1660e01b8152600401602060405180830381600087803b158015611aae57600080fd5b505af1158015611ac2573d6000803e3d6000fd5b505050506040513d601f19601f82011682018060405250810190611ae69190612817565b905080611b0a57600c546001600160a01b0388166000908152601260205260409020555b50611bb1565b611b3c86604051806040016040528060078152602001663ab735b737bbb760c91b815250838603611236565b856001600160a01b031663e22fdece6040518163ffffffff1660e01b8152600401602060405180830381600087803b158015611b7757600080fd5b505af1158015611b8b573d6000803e3d6000fd5b505050506040513d601f19601f82011682018060405250810190611baf9190612817565b505b505b611bf5565b507fe7aa66356adbd5e839ef210626f6d8f6f72109c17fadf4c4f9ca82b315ae79b4855a8403604051611bec9291906129ce565b60405180910390a15b5050505b50506001016117ea565b50611c0c612376565b92508215611c5657600e8390556040517f34f843cef0df42035141347873da1758a6643358831b5ba5b1580be947644f9290611c49908590612b9d565b60405180910390a1611c5c565b6000600e555b47600d556000611c6a61238f565b9050478114611ca557611ca5306040518060400160405280600e81526020016d6f7574206f662062616c616e636560901b8152506000611236565b50505090565b6000808211611cf4576040805162461bcd60e51b815260206004820152601060248201526f4469766973696f6e206279207a65726f60801b604482015290519081900360640190fd5b83611d0157506000611db2565b83830283858281611d0e57fe5b041415611d2757828181611d1e57fe5b04915050611db2565b6000838681611d3257fe5b0490506000848781611d4057fe5b0690506000858781611d4e57fe5b0490506000868881611d5c57fe5b069050611daa611d7688611d7086856123ae565b90612407565b611da4611d8386866123ae565b611da4611d9089876123ae565b611da48d611d9e8c8b6123ae565b906123ae565b90612202565b955050505050505b9392505050565b60105460005b8181101561077a5760108054600091906000198101908110611ddd57fe5b600091825260209091200154601080546001600160a01b0390921692509080611e0257fe5b600082815260208120820160001990810180546001600160a01b03191690559091019091556040517f86d03f430c7616021073d7a71766f632f1ce19f289aa989534d9f4732253eb5991611e5891849190612b33565b60405180910390a150600101611dbf565b7f714f205b2abd25bef1d06a1af944e38c113fe6160375c4e1d6d5cf28848e771955565b600080826040516020018080602001828103825283818151815260200191508051906020019080838360005b83811015611ed1578181015183820152602001611eb9565b50505050905090810190601f168015611efe5780820380516001836020036101000a031916815260200191505b50925050506040516020818303038152906040528051906020012090506000805b8651811015611f6657868181518110611f3457fe5b6020026020010151831415611f5e57858181518110611f4f57fe5b60200260200101519150611f66565b600101611f1f565b506001600160a01b038116611fb1576040805162461bcd60e51b815260206004820152600c60248201526b61646472657373207a65726f60a01b604482015290519081900360640190fd5b95945050505050565b6000611fe883836040518060400160405280600981526020016824b7333630ba34b7b760b91b815250611e8d565b6002546040519192507f4bdd1012a7d55ed9afad8675a125e1b68c7c15f712c0f3d5cddac69c3b9798059161202a9184916001600160a01b0390911690612b4e565b60405180910390a1600280546001600160a01b0319166001600160a01b038316179055600854612064576a4a723dc6b40b8a9a0000006008555b6010548061207357505061077a565b6000816001600160401b038111801561208b57600080fd5b506040519080825280602002602001820160405280156120c557816020015b6120b26125d4565b8152602001906001900390816120aa5790505b50905060005b828110156121d1576000601082815481106120e257fe5b600091825260208220015460408051637afadd3960e11b815290516001600160a01b039092169350612175928a928a92869263f5f5ba7292600480840193829003018186803b15801561213457600080fd5b505afa158015612148573d6000803e3d6000fd5b505050506040513d6000823e601f3d908101601f191682016040526121709190810190612837565b611e8d565b83838151811061218157fe5b6020908102919091018101516001600160a01b03928316905290821660009081526011909152604090205483518490849081106121ba57fe5b6020908102919091018101510152506001016120cb565b506121db81610f84565b5050505050565b600073fffec6c83c8bf5c3f4ae0ccf8c45ce20e4560bd76104d78161246e565b60008282018381101561225c576040805162461bcd60e51b815260206004820152601b60248201527f536166654d6174683a206164646974696f6e206f766572666c6f770000000000604482015290519081900360640190fd5b90505b92915050565b606060008390508281511161227d578391505061225f565b6000836001600160401b038111801561229557600080fd5b506040519080825280601f01601f1916602001820160405280156122c0576020820181803683370190505b50905060005b84811015612310578281815181106122da57fe5b602001015160f81c60f81b8282815181106122f157fe5b60200101906001600160f81b031916908160001a9053506001016122c6565b50949350505050565b600082821115612370576040805162461bcd60e51b815260206004820152601e60248201527f536166654d6174683a207375627472616374696f6e206f766572666c6f770000604482015290519081900360640190fd5b50900390565b60006104d760055460045461231990919063ffffffff16565b60006104d7600754611da460065460055461231990919063ffffffff16565b6000826123bd5750600061225f565b828202828482816123ca57fe5b041461225c5760405162461bcd60e51b8152600401808060200182810382526021815260200180612cd66021913960400191505060405180910390fd5b600080821161245d576040805162461bcd60e51b815260206004820152601a60248201527f536166654d6174683a206469766973696f6e206279207a65726f000000000000604482015290519081900360640190fd5b81838161246657fe5b049392505050565b600154600160a01b900460ff16156124c4576040805162461bcd60e51b8152602060048201526014602482015273696e697469616c6973656420213d2066616c736560601b604482015290519081900360640190fd5b6001805460ff60a01b1916600160a01b179055600054604080516001600160a01b039283168152918316602083015280517f434a2db650703b36c824e745330d6397cdaa9ee2cc891a4938ae853e1c50b68d9281900390910190a1600080546001600160a01b039092166001600160a01b0319928316179055600180549091169055565b828054600181600116156101000203166002900490600052602060002090601f01602090048101928261257e57600085556125c4565b82601f1061259757805160ff19168380011785556125c4565b828001600101855582156125c4579182015b828111156125c45782518255916020019190600101906125a9565b506125d09291506125eb565b5090565b604080518082019091526000808252602082015290565b5b808211156125d057600081556001016125ec565b600082601f830112612610578081fd5b8135602061262561262083612bc9565b612ba6565b8281528181019085830183850287018401881015612641578586fd5b855b8581101561266857813561265681612cc0565b84529284019290840190600101612643565b5090979650505050505050565b600060208284031215612686578081fd5b813561225c81612cc0565b600080604083850312156126a3578081fd5b82356001600160401b03808211156126b9578283fd5b818501915085601f8301126126cc578283fd5b813560206126dc61262083612bc9565b82815281810190858301838502870184018b10156126f8578788fd5b8796505b8487101561271a5780358352600196909601959183019183016126fc565b5096505086013592505080821115612730578283fd5b5061273d85828601612600565b9150509250929050565b60006020808385031215612759578182fd5b82356001600160401b038082111561276f578384fd5b818501915085601f830112612782578384fd5b813561279061262082612bc9565b818152848101908486016040808502870188018b10156127ae578889fd5b8896505b848710156128085780828c0312156127c8578889fd5b805181810181811088821117156127db57fe5b825282356127e881612cc0565b8152828901358982015284526001969096019592870192908101906127b2565b50909998505050505050505050565b600060208284031215612828578081fd5b8151801515811461225c578182fd5b600060208284031215612848578081fd5b81516001600160401b038082111561285e578283fd5b818401915084601f830112612871578283fd5b81518181111561287d57fe5b612890601f8201601f1916602001612ba6565b91508082528560208285010111156128a6578384fd5b612310816020840160208601612be6565b6000602082840312156128c8578081fd5b5035919050565b600080604083850312156128e1578182fd5b50508035926020909101359150565b6000815180845260208085019450808401835b838110156129285781516001600160a01b031687529582019590820190600101612903565b509495945050505050565b6000815180845260208085019450808401835b8381101561292857815187529582019590820190600101612946565b6000815180845261297a816020860160208601612be6565b601f01601f19169290920160200192915050565b6001600160a01b0391909116815260200190565b6001600160a01b03831681526040602082018190526000906129c690830184612962565b949350505050565b6001600160a01b03929092168252602082015260400190565b600060018060a01b038616825284602083015260806040830152612a0e6080830185612962565b905082606083015295945050505050565b606080825284519082018190526000906020906080840190828801845b82811015612a615781516001600160a01b031684529284019290840190600101612a3c565b50505083810382850152612a758187612933565b9150508281036040840152612a8a8185612933565b9695505050505050565b600060a08252612aa760a0830188612933565b602083820381850152612aba8289612933565b848103604086015287518082529092508183019082810284018301838a01865b83811015612b0857601f19878403018552612af6838351612962565b94860194925090850190600101612ada565b50508681036060880152612b1c818a6128f0565b955050505050508260808301529695505050505050565b6001600160a01b039290921682521515602082015260400190565b6001600160a01b0392831681529116602082015260400190565b600060208252611db26020830184612962565b6001600160c01b039290921682526001600160401b0316602082015260400190565b90815260200190565b6040518181016001600160401b0381118282101715612bc157fe5b604052919050565b60006001600160401b03821115612bdc57fe5b5060209081020190565b60005b83811015612c01578181015183820152602001612be9565b83811115612c10576000848401525b50505050565b60e01c90565b600060443d1015612c2c576104da565b600481823e6308c379a0612c408251612c16565b14612c4a576104da565b6040513d600319016004823e80513d6001600160401b038160248401118184111715612c7957505050506104da565b82840192508251915080821115612c9357505050506104da565b503d83016020828401011115612cab575050506104da565b601f01601f1916810160200160405291505090565b6001600160a01b038116811461052957600080fdfe536166654d6174683a206d756c7469706c69636174696f6e206f766572666c6f77a2646970667358221220f00c51b932112ab8e7131970ec980dc1cc4da0b0731629dd46d35d38b6b2804c64736f6c63430007060033",
  "linkReferences": {},
  "deployedLinkReferences": {}
}