{
  "_format": "hh-sol-artifact-1",
  "contractName": "PriceSubmitter",
  "sourceName": "contracts/genesis/implementation/PriceSubmitter.sol",
  "abi": [
    {
      "inputs": [],
      "stateMutability": "nonpayable",
      "type": "constructor"
    },
    {
      "anonymous": false,
      "inputs": [
        {
          "indexed": false,
          "internalType": "address",
          "name": "proposedGovernance",
          "type": "address"
        }
      ],
      "name": "GovernanceProposed",
      "type": "event"
    },
    {
      "anonymous": false,
      "inputs": [
        {
          "indexed": false,
          "internalType": "address",
          "name": "oldGovernance",
          "type": "address"
        },
        {
          "indexed": false,
          "internalType": "address",
          "name": "newGoveranance",
          "type": "address"
        }
      ],
      "name": "GovernanceUpdated",
      "type": "event"
    },
    {
      "anonymous": false,
      "inputs": [
        {
          "indexed": true,
          "internalType": "address",
          "name": "submitter",
          "type": "address"
        },
        {
          "indexed": true,
          "internalType": "uint256",
          "name": "epochId",
          "type": "uint256"
        },
        {
          "indexed": false,
          "internalType": "bytes32",
          "name": "hash",
          "type": "bytes32"
        },
        {
          "indexed": false,
          "internalType": "uint256",
          "name": "timestamp",
          "type": "uint256"
        }
      ],
      "name": "HashSubmitted",
      "type": "event"
    },
    {
      "anonymous": false,
      "inputs": [
        {
          "indexed": true,
          "internalType": "address",
          "name": "voter",
          "type": "address"
        },
        {
          "indexed": true,
          "internalType": "uint256",
          "name": "epochId",
          "type": "uint256"
        },
        {
          "indexed": false,
          "internalType": "contract IFtsoGenesis[]",
          "name": "ftsos",
          "type": "address[]"
        },
        {
          "indexed": false,
          "internalType": "uint256[]",
          "name": "prices",
          "type": "uint256[]"
        },
        {
          "indexed": false,
          "internalType": "uint256",
          "name": "random",
          "type": "uint256"
        },
        {
          "indexed": false,
          "internalType": "uint256",
          "name": "timestamp",
          "type": "uint256"
        }
      ],
      "name": "PricesRevealed",
      "type": "event"
    },
    {
      "inputs": [],
      "name": "MINIMAL_RANDOM",
      "outputs": [
        {
          "internalType": "uint256",
          "name": "",
          "type": "uint256"
        }
      ],
      "stateMutability": "view",
      "type": "function"
    },
    {
      "inputs": [],
      "name": "RANDOM_EPOCH_CYCLIC_BUFFER_SIZE",
      "outputs": [
        {
          "internalType": "uint256",
          "name": "",
          "type": "uint256"
        }
      ],
      "stateMutability": "view",
      "type": "function"
    },
    {
      "inputs": [],
      "name": "claimGovernance",
      "outputs": [],
      "stateMutability": "nonpayable",
      "type": "function"
    },
    {
      "inputs": [],
      "name": "getAddressUpdater",
      "outputs": [
        {
          "internalType": "address",
          "name": "_addressUpdater",
          "type": "address"
        }
      ],
      "stateMutability": "view",
      "type": "function"
    },
    {
      "inputs": [],
      "name": "getCurrentRandom",
      "outputs": [
        {
          "internalType": "uint256",
          "name": "",
          "type": "uint256"
        }
      ],
      "stateMutability": "view",
      "type": "function"
    },
    {
      "inputs": [],
      "name": "getFtsoManager",
      "outputs": [
        {
          "internalType": "contract IFtsoManagerGenesis",
          "name": "",
          "type": "address"
        }
      ],
      "stateMutability": "view",
      "type": "function"
    },
    {
      "inputs": [],
      "name": "getFtsoRegistry",
      "outputs": [
        {
          "internalType": "contract IFtsoRegistryGenesis",
          "name": "",
          "type": "address"
        }
      ],
      "stateMutability": "view",
      "type": "function"
    },
    {
      "inputs": [
        {
          "internalType": "uint256",
          "name": "_epochId",
          "type": "uint256"
        }
      ],
      "name": "getRandom",
      "outputs": [
        {
          "internalType": "uint256",
          "name": "",
          "type": "uint256"
        }
      ],
      "stateMutability": "view",
      "type": "function"
    },
    {
      "inputs": [],
      "name": "getTrustedAddresses",
      "outputs": [
        {
          "internalType": "address[]",
          "name": "",
          "type": "address[]"
        }
      ],
      "stateMutability": "view",
      "type": "function"
    },
    {
      "inputs": [],
      "name": "getVoterWhitelister",
      "outputs": [
        {
          "internalType": "address",
          "name": "",
          "type": "address"
        }
      ],
      "stateMutability": "view",
      "type": "function"
    },
    {
      "inputs": [],
      "name": "governance",
      "outputs": [
        {
          "internalType": "address",
          "name": "",
          "type": "address"
        }
      ],
      "stateMutability": "view",
      "type": "function"
    },
    {
      "inputs": [
        {
          "internalType": "address",
          "name": "_governance",
          "type": "address"
        }
      ],
      "name": "initialise",
      "outputs": [],
      "stateMutability": "pure",
      "type": "function"
    },
    {
      "inputs": [],
      "name": "initialiseFixedAddress",
      "outputs": [
        {
          "internalType": "address",
          "name": "",
          "type": "address"
        }
      ],
      "stateMutability": "nonpayable",
      "type": "function"
    },
    {
      "inputs": [
        {
          "internalType": "address",
          "name": "_governance",
          "type": "address"
        }
      ],
      "name": "proposeGovernance",
      "outputs": [],
      "stateMutability": "nonpayable",
      "type": "function"
    },
    {
      "inputs": [],
      "name": "proposedGovernance",
      "outputs": [
        {
          "internalType": "address",
          "name": "",
          "type": "address"
        }
      ],
      "stateMutability": "view",
      "type": "function"
    },
    {
      "inputs": [
        {
          "internalType": "uint256",
          "name": "_epochId",
          "type": "uint256"
        },
        {
          "internalType": "uint256[]",
          "name": "_ftsoIndices",
          "type": "uint256[]"
        },
        {
          "internalType": "uint256[]",
          "name": "_prices",
          "type": "uint256[]"
        },
        {
          "internalType": "uint256",
          "name": "_random",
          "type": "uint256"
        }
      ],
      "name": "revealPrices",
      "outputs": [],
      "stateMutability": "nonpayable",
      "type": "function"
    },
    {
      "inputs": [
        {
          "internalType": "address",
          "name": "_addressUpdater",
          "type": "address"
        }
      ],
      "name": "setAddressUpdater",
      "outputs": [],
      "stateMutability": "nonpayable",
      "type": "function"
    },
    {
      "inputs": [
        {
          "internalType": "address[]",
          "name": "_trustedAddresses",
          "type": "address[]"
        }
      ],
      "name": "setTrustedAddresses",
      "outputs": [],
      "stateMutability": "nonpayable",
      "type": "function"
    },
    {
      "inputs": [
        {
          "internalType": "uint256",
          "name": "_epochId",
          "type": "uint256"
        },
        {
          "internalType": "bytes32",
          "name": "_hash",
          "type": "bytes32"
        }
      ],
      "name": "submitHash",
      "outputs": [],
      "stateMutability": "nonpayable",
      "type": "function"
    },
    {
      "inputs": [
        {
          "internalType": "address",
          "name": "_governance",
          "type": "address"
        }
      ],
      "name": "transferGovernance",
      "outputs": [],
      "stateMutability": "nonpayable",
      "type": "function"
    },
    {
      "inputs": [
        {
          "internalType": "bytes32[]",
          "name": "_contractNameHashes",
          "type": "bytes32[]"
        },
        {
          "internalType": "address[]",
          "name": "_contractAddresses",
          "type": "address[]"
        }
      ],
      "name": "updateContractAddresses",
      "outputs": [],
      "stateMutability": "nonpayable",
      "type": "function"
    },
    {
      "inputs": [
        {
          "internalType": "address",
          "name": "_voter",
          "type": "address"
        }
      ],
      "name": "voterWhitelistBitmap",
      "outputs": [
        {
          "internalType": "uint256",
          "name": "",
          "type": "uint256"
        }
      ],
      "stateMutability": "view",
      "type": "function"
    },
    {
      "inputs": [
        {
          "internalType": "address",
          "name": "_voter",
          "type": "address"
        },
        {
          "internalType": "uint256",
          "name": "_ftsoIndex",
          "type": "uint256"
        }
      ],
      "name": "voterWhitelisted",
      "outputs": [],
      "stateMutability": "nonpayable",
      "type": "function"
    },
    {
      "inputs": [
        {
          "internalType": "address[]",
          "name": "_removedVoters",
          "type": "address[]"
        },
        {
          "internalType": "uint256",
          "name": "_ftsoIndex",
          "type": "uint256"
        }
      ],
      "name": "votersRemovedFromWhitelist",
      "outputs": [],
      "stateMutability": "nonpayable",
      "type": "function"
    }
  ],
  "bytecode": "0x608060405234801561001057600080fd5b50600061001c81610022565b50610046565b7f714f205b2abd25bef1d06a1af944e38c113fe6160375c4e1d6d5cf28848e771955565b611d48806100556000396000f3fe608060405234801561001057600080fd5b50600436106101585760003560e01c80639ec2b581116100c3578063c9f960eb1161007c578063c9f960eb14610523578063cd4b69141461052b578063d38bfff414610548578063d89601fd1461056e578063e2db5a5214610576578063ffacb84e146106a257610158565b80639ec2b58114610303578063aea36b53146103a4578063b00c0b76146103ca578063b39c6858146104ed578063c0156bcc146104f5578063c373a08e146104fd57610158565b806376794efb1161011557806376794efb146101bd5780637ac420ad146102605780638c9d28b6146102865780638fc6f6671461028e5780639d6a890f146102b15780639d986f91146102d757610158565b80633b56f0981461015d5780635267a15d146101775780635aa6e6751461019b5780635d36b190146101a357806360f7ac97146101ad57806371e1fad9146101b5575b600080fd5b6101656106fa565b60408051918252519081900360200190f35b61017f610702565b604080516001600160a01b039092168252519081900360200190f35b61017f610727565b6101ab610736565b005b61017f6107f8565b61017f610807565b6101ab600480360360408110156101d357600080fd5b810190602081018135600160201b8111156101ed57600080fd5b8201836020820111156101ff57600080fd5b803590602001918460208302840111600160201b8311171561022057600080fd5b9190808060200260200160405190810160405280939291908181526020018383602002808284376000920191909152509295505091359250610817915050565b6101656004803603602081101561027657600080fd5b50356001600160a01b0316610935565b61017f610950565b6101ab600480360360408110156102a457600080fd5b508035906020013561095f565b6101ab600480360360208110156102c757600080fd5b50356001600160a01b0316610be8565b6101ab600480360360408110156102ed57600080fd5b506001600160a01b038135169060200135610bed565b6101ab6004803603602081101561031957600080fd5b810190602081018135600160201b81111561033357600080fd5b82018360208201111561034557600080fd5b803590602001918460208302840111600160201b8311171561036657600080fd5b919080806020026020016040519081016040528093929190818152602001838360200280828437600092019190915250929550610c9d945050505050565b6101ab600480360360208110156103ba57600080fd5b50356001600160a01b0316610dec565b6101ab600480360360408110156103e057600080fd5b810190602081018135600160201b8111156103fa57600080fd5b82018360208201111561040c57600080fd5b803590602001918460208302840111600160201b8311171561042d57600080fd5b9190808060200260200160405190810160405280939291908181526020018383602002808284376000920191909152509295949360208101935035915050600160201b81111561047c57600080fd5b82018360208201111561048e57600080fd5b803590602001918460208302840111600160201b831117156104af57600080fd5b919080806020026020016040519081016040528093929190818152602001838360200280828437600092019190915250929550610dfd945050505050565b61017f610ea8565b610165610eb7565b6101ab6004803603602081101561051357600080fd5b50356001600160a01b0316610ebc565b61017f610f18565b6101656004803603602081101561054157600080fd5b5035610f3d565b6101ab6004803603602081101561055e57600080fd5b50356001600160a01b0316610f57565b610165610fd0565b6101ab6004803603608081101561058c57600080fd5b81359190810190604081016020820135600160201b8111156105ad57600080fd5b8201836020820111156105bf57600080fd5b803590602001918460208302840111600160201b831117156105e057600080fd5b9190808060200260200160405190810160405280939291908181526020018383602002808284376000920191909152509295949360208101935035915050600160201b81111561062f57600080fd5b82018360208201111561064157600080fd5b803590602001918460208302840111600160201b8311171561066257600080fd5b919080806020026020016040519081016040528093929190818152602001838360200280828437600092019190915250929550509135925061107a915050565b6106aa611895565b60408051602080825283518183015283519192839290830191858101910280838360005b838110156106e65781810151838201526020016106ce565b505050509050019250505060405180910390f35b600160801b81565b7f714f205b2abd25bef1d06a1af944e38c113fe6160375c4e1d6d5cf28848e77195490565b6000546001600160a01b031681565b6001546001600160a01b03163314610785576040805162461bcd60e51b815260206004820152600d60248201526c1b9bdd0818db185a5b585a5b9d609a1b604482015290519081900360640190fd5b600054600154604080516001600160a01b03938416815292909116602083015280517f434a2db650703b36c824e745330d6397cdaa9ee2cc891a4938ae853e1c50b68d9281900390910190a160018054600080546001600160a01b03199081166001600160a01b03841617909155169055565b6001546001600160a01b031681565b6004546001600160a01b03165b90565b600454604080518082019091526016815275566f7465722077686974656c6973746572206f6e6c7960501b6020820152906001600160a01b031633146108db5760405162461bcd60e51b81526004018080602001828103825283818151815260200191508051906020019080838360005b838110156108a0578181015183820152602001610888565b50505050905090810190601f1680156108cd5780820380516001836020036101000a031916815260200191505b509250505060405180910390fd5b5060005b825181101561093057816001901b19600560008584815181106108fe57fe5b6020908102919091018101516001600160a01b03168252810191909152604001600020805490911690556001016108df565b505050565b6001600160a01b031660009081526005602052604090205490565b6002546001600160a01b031690565b600360009054906101000a90046001600160a01b03166001600160a01b03166308a7f4026040518163ffffffff1660e01b815260040160206040518083038186803b1580156109ad57600080fd5b505afa1580156109c1573d6000803e3d6000fd5b505050506040513d60208110156109d757600080fd5b505160408051808201909152600e81526d15dc9bdb99c8195c1bd8da081a5960921b6020820152908314610a4c5760405162461bcd60e51b81526020600482018181528351602484015283519092839260449091019190850190808383600083156108a0578181015183820152602001610888565b506000828152600860209081526040808320338452825291829020548251808401909352601983527f4475706c6963617465207375626d697420696e2065706f6368000000000000009183019190915215610ae85760405162461bcd60e51b81526020600482018181528351602484015283519092839260449091019190850190808383600083156108a0578181015183820152602001610888565b5033600090815260056020526040902054151580610b1557503360009081526007602052604090205460ff165b6040518060400160405280600f81526020016e139bdd081dda1a5d195b1a5cdd1959608a1b81525090610b895760405162461bcd60e51b81526020600482018181528351602484015283519092839260449091019190850190808383600083156108a0578181015183820152602001610888565b50600082815260086020908152604080832033808552908352928190208490558051848152429281019290925280518593927f5e2f64e70eafef31c2f48c8ef140b36406531c36ab0faaede30843202c16f6a892908290030190a35050565bfe5b50565b600454604080518082019091526016815275566f7465722077686974656c6973746572206f6e6c7960501b6020820152906001600160a01b03163314610c745760405162461bcd60e51b81526020600482018181528351602484015283519092839260449091019190850190808383600083156108a0578181015183820152602001610888565b506001600160a01b0390911660009081526005602052604090208054600190921b919091179055565b6003546040805180820190915260118152704654534f206d616e61676572206f6e6c7960781b6020820152906001600160a01b03163314610d1f5760405162461bcd60e51b81526020600482018181528351602484015283519092839260449091019190850190808383600083156108a0578181015183820152602001610888565b5060065460005b81811015610d7d5760006007600060068481548110610d4157fe5b6000918252602080832091909101546001600160a01b031683528201929092526040019020805460ff1916911515919091179055600101610d26565b5050805160005b81811015610dd857600160076000858481518110610d9e57fe5b6020908102919091018101516001600160a01b03168252810191909152604001600020805460ff1916911515919091179055600101610d84565b508151610930906006906020850190611c75565b610df46118f7565b610bea8161194a565b610e05610702565b6001600160a01b0316336001600160a01b031614610e61576040805162461bcd60e51b815260206004820152601460248201527337b7363c9030b2323932b9b9903ab83230ba32b960611b604482015290519081900360640190fd5b610e9a610e9583836040518060400160405280600e81526020016d20b2323932b9b9aab83230ba32b960911b81525061196e565b61194a565b610ea48282611a9b565b5050565b6003546001600160a01b031690565b603281565b610ec46118f7565b600180546001600160a01b0383166001600160a01b0319909116811790915560408051918252517f1f95fb40be3a947982072902a887b521248d1d8931a39eb38f84f4d6fd758b699181900360200190a150565b600073fffec6c83c8bf5c3f4ae0ccf8c45ce20e4560bd7610f3881611b9b565b905090565b600060096032830660328110610f4f57fe5b015492915050565b610f5f6118f7565b600054604080516001600160a01b039283168152918316602083015280517f434a2db650703b36c824e745330d6397cdaa9ee2cc891a4938ae853e1c50b68d9281900390910190a1600080546001600160a01b039092166001600160a01b0319928316179055600180549091169055565b600080600360009054906101000a90046001600160a01b03166001600160a01b03166308a7f4026040518163ffffffff1660e01b815260040160206040518083038186803b15801561102157600080fd5b505afa158015611035573d6000803e3d6000fd5b505050506040513d602081101561104b57600080fd5b505190508061105e576000915050610814565b600960326000198301066032811061107257fe5b015491505090565b8251825160408051808201909152601a81527f4172726179206c656e6774687320646f206e6f74206d6174636800000000000060208201529082146111005760405162461bcd60e51b81526020600482018181528351602484015283519092839260449091019190850190808383600083156108a0578181015183820152602001610888565b5060408051808201909152601781527f546f6f20736d616c6c2072616e646f6d206e756d6265720000000000000000006020820152600160801b8310156111885760405162461bcd60e51b81526020600482018181528351602484015283519092839260449091019190850190808383600083156108a0578181015183820152602001610888565b5083838333604051602001808060200180602001858152602001846001600160a01b03168152602001838103835287818151815260200191508051906020019060200280838360005b838110156111e95781810151838201526020016111d1565b50505050905001838103825286818151815260200191508051906020019060200280838360005b83811015611228578181015183820152602001611210565b50505050905001965050505050505060405160208183030381529060405280519060200120600860008781526020019081526020016000206000336001600160a01b03166001600160a01b031681526020019081526020016000205414604051806060016040528060238152602001611cf060239139906112ea5760405162461bcd60e51b81526020600482018181528351602484015283519092839260449091019190850190808383600083156108a0578181015183820152602001610888565b506002546040516313968ea760e31b81526020600482018181528751602484015287516000946001600160a01b031693639cb47538938a939283926044019180860191028083838b5b8381101561134b578181015183820152602001611333565b505050509050019250505060006040518083038186803b15801561136e57600080fd5b505afa158015611382573d6000803e3d6000fd5b505050506040513d6000823e601f3d908101601f1916820160405260208110156113ab57600080fd5b8101908080516040519392919084600160201b8211156113ca57600080fd5b9083019060208201858111156113df57600080fd5b82518660208202830111600160201b821117156113fb57600080fd5b82525081516020918201928201910280838360005b83811015611428578181015183820152602001611410565b50505050919091016040908152336000908152600560205290812054959650935083925050508461145a5760006114f2565b8360008151811061146757fe5b60200260200101516001600160a01b031663f72cab28338b6040518363ffffffff1660e01b815260040180836001600160a01b0316815260200182815260200192505050602060405180830381600087803b1580156114c557600080fd5b505af11580156114d9573d6000803e3d6000fd5b505050506040513d60208110156114ef57600080fd5b50515b90506000805b86811015611705578015801590611522575089818151811061151657fe5b60200260200101518210155b1561159f57604080518082018252601b81527f4654534f20696e6469636573206e6f7420696e6372656173696e6700000000006020808301918252925162461bcd60e51b815260048101938452825160248201528251929392839260449092019190808383600083156108a0578181015183820152602001610888565b8981815181106115ab57fe5b60200260200101519150816001901b8516600014156116545783611654573360009081526007602052604090205460ff16156115ea5760019350611654565b604080518082018252600f81526e139bdd081dda1a5d195b1a5cdd1959608a1b6020808301918252925162461bcd60e51b815260048101938452825160248201528251929392839260449092019190808383600083156108a0578181015183820152602001610888565b85818151811061166057fe5b60200260200101516001600160a01b031663c1f6c36e338d8c858151811061168457fe5b6020026020010151876040518563ffffffff1660e01b815260040180856001600160a01b03168152602001848152602001838152602001828152602001945050505050600060405180830381600087803b1580156116e157600080fd5b505af11580156116f5573d6000803e3d6000fd5b5050600190920191506114f89050565b5060008a8152600860209081526040808320338452825280832083905580518083018b81528183019283528c5160608301528c518c958e95929493608001928681019202908190849084905b83811015611769578181015183820152602001611751565b5050505090500193505050506040516020818303038152906040528051906020012060001c600960328c8161179a57fe5b06603281106117a557fe5b016000828254019250508190555089336001600160a01b03167fafffa539ac1cad89751c875d871abadc6deb7bd51bf6baea004fc71ca0a48fa5878b8b42604051808060200180602001858152602001848152602001838103835287818151815260200191508051906020019060200280838360005b8381101561183357818101518382015260200161181b565b50505050905001838103825286818151815260200191508051906020019060200280838360005b8381101561187257818101518382015260200161185a565b50505050905001965050505050505060405180910390a350505050505050505050565b606060068054806020026020016040519081016040528092919081815260200182805480156118ed57602002820191906000526020600020905b81546001600160a01b031681526001909101906020018083116118cf575b5050505050905090565b6000546001600160a01b03163314611948576040805162461bcd60e51b815260206004820152600f60248201526e6f6e6c7920676f7665726e616e636560881b604482015290519081900360640190fd5b565b7f714f205b2abd25bef1d06a1af944e38c113fe6160375c4e1d6d5cf28848e771955565b600080826040516020018080602001828103825283818151815260200191508051906020019080838360005b838110156119b257818101518382015260200161199a565b50505050905090810190601f1680156119df5780820380516001836020036101000a031916815260200191505b50925050506040516020818303038152906040528051906020012090506000805b8651811015611a4757868181518110611a1557fe5b6020026020010151831415611a3f57858181518110611a3057fe5b60200260200101519150611a47565b600101611a00565b506001600160a01b038116611a92576040805162461bcd60e51b815260206004820152600c60248201526b61646472657373207a65726f60a01b604482015290519081900360640190fd5b95945050505050565b611aca82826040518060400160405280600c81526020016b4674736f526567697374727960a01b81525061196e565b600260006101000a8154816001600160a01b0302191690836001600160a01b03160217905550611b1e82826040518060400160405280600b81526020016a233a39b7a6b0b730b3b2b960a91b81525061196e565b600360006101000a8154816001600160a01b0302191690836001600160a01b03160217905550611b7782826040518060400160405280601081526020016f2b37ba32b92bb434ba32b634b9ba32b960811b81525061196e565b600480546001600160a01b0319166001600160a01b03929092169190911790555050565b600154600160a01b900460ff1615611bf1576040805162461bcd60e51b8152602060048201526014602482015273696e697469616c6973656420213d2066616c736560601b604482015290519081900360640190fd5b6001805460ff60a01b1916600160a01b179055600054604080516001600160a01b039283168152918316602083015280517f434a2db650703b36c824e745330d6397cdaa9ee2cc891a4938ae853e1c50b68d9281900390910190a1600080546001600160a01b039092166001600160a01b0319928316179055600180549091169055565b828054828255906000526020600020908101928215611cca579160200282015b82811115611cca57825182546001600160a01b0319166001600160a01b03909116178255602090920191600190910190611c95565b50611cd6929150611cda565b5090565b5b80821115611cd65760008155600101611cdb56fe507269636520616c72656164792072657665616c6564206f72206e6f742076616c6964a264697066735822122063d6d54132bada768cf8be9eaaf8b24f6cc4630c022cf7637e9c4b64c9eeb8bf64736f6c63430007060033",
  "linkReferences": {},
  "deployedLinkReferences": {}
}