{
  "_format": "hh-sol-artifact-1",
  "contractName": "GasConsumer2",
  "sourceName": "contracts/utils/mock/GasConsumer2.sol",
  "abi": [
    {
      "inputs": [
        {
          "internalType": "uint256",
          "name": "n",
          "type": "uint256"
        }
      ],
      "stateMutability": "nonpayable",
      "type": "constructor"
    },
    {
      "inputs": [
        {
          "internalType": "uint256",
          "name": "",
          "type": "uint256"
        }
      ],
      "name": "array",
      "outputs": [
        {
          "internalType": "uint256",
          "name": "",
          "type": "uint256"
        }
      ],
      "stateMutability": "view",
      "type": "function"
    },
    {
      "inputs": [
        {
          "internalType": "uint256",
          "name": "n",
          "type": "uint256"
        }
      ],
      "name": "clean",
      "outputs": [],
      "stateMutability": "nonpayable",
      "type": "function"
    },
    {
      "inputs": [],
      "name": "length",
      "outputs": [
        {
          "internalType": "uint256",
          "name": "",
          "type": "uint256"
        }
      ],
      "stateMutability": "view",
      "type": "function"
    },
    {
      "inputs": [],
      "name": "maxLen",
      "outputs": [
        {
          "internalType": "uint256",
          "name": "",
          "type": "uint256"
        }
      ],
      "stateMutability": "view",
      "type": "function"
    },
    {
      "inputs": [
        {
          "internalType": "uint256",
          "name": "n",
          "type": "uint256"
        }
      ],
      "name": "push",
      "outputs": [],
      "stateMutability": "nonpayable",
      "type": "function"
    }
  ],
  "bytecode": "0x608060405234801561001057600080fd5b506040516102103803806102108339818101604052602081101561003357600080fd5b50516001556101c9806100476000396000f3fe608060405234801561001057600080fd5b50600436106100575760003560e01c80631f7b6d321461005c57806338d9419314610076578063583e105514610093578063674ef0fa1461009b578063959ac484146100ba575b600080fd5b6100646100d7565b60408051918252519081900360200190f35b6100646004803603602081101561008c57600080fd5b50356100dd565b6100646100fe565b6100b8600480360360208110156100b157600080fd5b5035610104565b005b6100b8600480360360208110156100d057600080fd5b503561014d565b60005490565b600081815481106100ed57600080fd5b600091825260209091200154905081565b60015481565b60005b60015460005411801561011957508181105b1561014957600080548061012957fe5b600082815260208120820160001990810191909155019055600101610107565b5050565b60005b8181101561014957600080546001818101835591805260057f290decd9548b62a8d60345a988386fc84ba6bc95484008f6362f93160ef3e563909101550161015056fea26469706673582212204b83a08c56c1f6dc79a05ffa4c50ff400d0d63770fedfa2ae7f70c486e6c85c464736f6c63430007060033",
  "linkReferences": {},
  "deployedLinkReferences": {}
}