{
  "_format": "hh-sol-artifact-1",
  "contractName": "GasConsumer",
  "sourceName": "contracts/utils/mock/GasConsumer.sol",
  "abi": [
    {
      "inputs": [
        {
          "internalType": "address",
          "name": "",
          "type": "address"
        },
        {
          "internalType": "uint256",
          "name": "",
          "type": "uint256"
        },
        {
          "internalType": "uint256",
          "name": "",
          "type": "uint256"
        }
      ],
      "name": "addressAndBlockToNumber",
      "outputs": [
        {
          "internalType": "uint256",
          "name": "",
          "type": "uint256"
        }
      ],
      "stateMutability": "view",
      "type": "function"
    },
    {
      "inputs": [
        {
          "internalType": "uint256",
          "name": "n",
          "type": "uint256"
        }
      ],
      "name": "push",
      "outputs": [],
      "stateMutability": "nonpayable",
      "type": "function"
    }
  ],
  "bytecode": "0x608060405234801561001057600080fd5b50610153806100206000396000f3fe608060405234801561001057600080fd5b50600436106100365760003560e01c80638034c4ee1461003b578063959ac4841461007f575b600080fd5b61006d6004803603606081101561005157600080fd5b506001600160a01b03813516906020810135906040013561009e565b60408051918252519081900360200190f35b61009c6004803603602081101561009557600080fd5b50356100dc565b005b600060205282600052604060002060205281600052604060002081815481106100c657600080fd5b9060005260206000200160009250925050505481565b60005b81811015610119573360009081526020818152604080832043845282528220805460018181018355918452919092206005910155016100df565b505056fea26469706673582212204cad189de3dc0c124cdf3b476e5ec6e1c1794eee7442de3ab69eba7f64ce414864736f6c63430007060033",
  "linkReferences": {},
  "deployedLinkReferences": {}
}