{
  "_format": "hh-sol-artifact-1",
  "contractName": "FtsoEpochMock",
  "sourceName": "contracts/ftso/mock/FtsoEpochMock.sol",
  "abi": [
    {
      "inputs": [
        {
          "internalType": "uint256",
          "name": "_epochId",
          "type": "uint256"
        },
        {
          "internalType": "address",
          "name": "_voter",
          "type": "address"
        },
        {
          "internalType": "uint256",
          "name": "_votePowerNat",
          "type": "uint256"
        },
        {
          "internalType": "uint256",
          "name": "_votePowerAsset",
          "type": "uint256"
        },
        {
          "internalType": "uint256",
          "name": "_price",
          "type": "uint256"
        }
      ],
      "name": "addVote",
      "outputs": [],
      "stateMutability": "nonpayable",
      "type": "function"
    },
    {
      "inputs": [
        {
          "internalType": "uint256",
          "name": "_epochId",
          "type": "uint256"
        },
        {
          "internalType": "uint256[]",
          "name": "_weightsNat",
          "type": "uint256[]"
        },
        {
          "internalType": "uint256[]",
          "name": "_weightsAsset",
          "type": "uint256[]"
        }
      ],
      "name": "computeWeights",
      "outputs": [
        {
          "internalType": "uint256[]",
          "name": "",
          "type": "uint256[]"
        }
      ],
      "stateMutability": "view",
      "type": "function"
    },
    {
      "inputs": [
        {
          "internalType": "uint256",
          "name": "_maxVotePowerNatThresholdFraction",
          "type": "uint256"
        },
        {
          "internalType": "uint256",
          "name": "_maxVotePowerAssetThresholdFraction",
          "type": "uint256"
        },
        {
          "internalType": "uint256",
          "name": "_lowAssetUSDThreshold",
          "type": "uint256"
        },
        {
          "internalType": "uint256",
          "name": "_highAssetUSDThreshold",
          "type": "uint256"
        },
        {
          "internalType": "uint256",
          "name": "_highAssetTurnoutThresholdBIPS",
          "type": "uint256"
        },
        {
          "internalType": "uint256",
          "name": "_lowNatTurnoutThresholdBIPS",
          "type": "uint256"
        },
        {
          "internalType": "address[]",
          "name": "_trustedAddresses",
          "type": "address[]"
        }
      ],
      "name": "configureEpochs",
      "outputs": [],
      "stateMutability": "nonpayable",
      "type": "function"
    },
    {
      "inputs": [
        {
          "internalType": "uint256",
          "name": "_assetVotePowerUSD",
          "type": "uint256"
        }
      ],
      "name": "getAssetBaseWeightRatio",
      "outputs": [
        {
          "internalType": "uint256",
          "name": "",
          "type": "uint256"
        }
      ],
      "stateMutability": "view",
      "type": "function"
    },
    {
      "inputs": [
        {
          "internalType": "uint256",
          "name": "_epochId",
          "type": "uint256"
        }
      ],
      "name": "getEpochInstance",
      "outputs": [
        {
          "components": [
            {
              "internalType": "uint256",
              "name": "votePowerBlock",
              "type": "uint256"
            },
            {
              "internalType": "uint256",
              "name": "highAssetTurnoutThresholdBIPS",
              "type": "uint256"
            },
            {
              "internalType": "uint256",
              "name": "lowNatTurnoutThresholdBIPS",
              "type": "uint256"
            },
            {
              "internalType": "uint256",
              "name": "circulatingSupplyNat",
              "type": "uint256"
            },
            {
              "internalType": "uint256",
              "name": "votePowerNat",
              "type": "uint256"
            },
            {
              "internalType": "uint256",
              "name": "votePowerAsset",
              "type": "uint256"
            },
            {
              "internalType": "uint256",
              "name": "maxVotePowerNat",
              "type": "uint256"
            },
            {
              "internalType": "uint256",
              "name": "maxVotePowerAsset",
              "type": "uint256"
            },
            {
              "internalType": "uint256",
              "name": "accumulatedVotePowerNat",
              "type": "uint256"
            },
            {
              "internalType": "uint256",
              "name": "baseWeightRatio",
              "type": "uint256"
            },
            {
              "internalType": "uint256[]",
              "name": "trustedVotes",
              "type": "uint256[]"
            },
            {
              "internalType": "uint256",
              "name": "price",
              "type": "uint256"
            },
            {
              "internalType": "enum IFtso.PriceFinalizationType",
              "name": "finalizationType",
              "type": "uint8"
            },
            {
              "internalType": "uint256",
              "name": "voteCount",
              "type": "uint256"
            },
            {
              "internalType": "contract IIVPToken[]",
              "name": "assets",
              "type": "address[]"
            },
            {
              "internalType": "uint256[]",
              "name": "assetWeightedPrices",
              "type": "uint256[]"
            },
            {
              "internalType": "bool",
              "name": "initializedForReveal",
              "type": "bool"
            },
            {
              "internalType": "bool",
              "name": "fallbackMode",
              "type": "bool"
            }
          ],
          "internalType": "struct FtsoEpochMock.Instance",
          "name": "",
          "type": "tuple"
        }
      ],
      "stateMutability": "view",
      "type": "function"
    },
    {
      "inputs": [
        {
          "internalType": "uint256",
          "name": "_epochId",
          "type": "uint256"
        }
      ],
      "name": "getVoterVoteId",
      "outputs": [
        {
          "internalType": "uint256",
          "name": "",
          "type": "uint256"
        }
      ],
      "stateMutability": "view",
      "type": "function"
    },
    {
      "inputs": [
        {
          "internalType": "uint256",
          "name": "_epochId",
          "type": "uint256"
        },
        {
          "internalType": "uint256",
          "name": "_weightNatSum",
          "type": "uint256"
        },
        {
          "internalType": "uint256",
          "name": "_weightAssetSum",
          "type": "uint256"
        }
      ],
      "name": "getWeightRatio",
      "outputs": [
        {
          "internalType": "uint256",
          "name": "",
          "type": "uint256"
        }
      ],
      "stateMutability": "view",
      "type": "function"
    },
    {
      "inputs": [
        {
          "internalType": "uint256",
          "name": "_epochId",
          "type": "uint256"
        },
        {
          "internalType": "uint256",
          "name": "_circulatingSupplyNat",
          "type": "uint256"
        },
        {
          "internalType": "uint256",
          "name": "_votePowerNat",
          "type": "uint256"
        },
        {
          "internalType": "contract IIVPToken[]",
          "name": "_assets",
          "type": "address[]"
        },
        {
          "internalType": "uint256[]",
          "name": "_assetVotePowers",
          "type": "uint256[]"
        },
        {
          "internalType": "uint256[]",
          "name": "_assetPrices",
          "type": "uint256[]"
        }
      ],
      "name": "initializeInstanceForReveal",
      "outputs": [],
      "stateMutability": "nonpayable",
      "type": "function"
    },
    {
      "inputs": [
        {
          "internalType": "contract IIVPToken",
          "name": "_asset",
          "type": "address"
        },
        {
          "internalType": "uint256",
          "name": "_decimals",
          "type": "uint256"
        }
      ],
      "name": "setAssetNorm",
      "outputs": [],
      "stateMutability": "nonpayable",
      "type": "function"
    },
    {
      "inputs": [
        {
          "internalType": "uint256",
          "name": "_epochId",
          "type": "uint256"
        },
        {
          "internalType": "contract IIVPToken[]",
          "name": "_assets",
          "type": "address[]"
        },
        {
          "internalType": "uint256[]",
          "name": "_assetVotePowers",
          "type": "uint256[]"
        },
        {
          "internalType": "uint256[]",
          "name": "_assetPrices",
          "type": "uint256[]"
        }
      ],
      "name": "setAssets",
      "outputs": [],
      "stateMutability": "nonpayable",
      "type": "function"
    }
  ],
  "bytecode": "0x608060405234801561001057600080fd5b5061184c806100206000396000f3fe608060405234801561001057600080fd5b506004361061009e5760003560e01c8063aca2b83711610066578063aca2b8371461011a578063c85ecc1a1461012d578063de309a6e1461014d578063e7db2c551461016d578063f7dba1f5146101805761009e565b80632ad72753146100a35780634322e125146100b85780635eb11e1e146100cb57806375631c39146100de578063a37b891114610107575b600080fd5b6100b66100b1366004611277565b610193565b005b6100b66100c63660046112ba565b6101b6565b6100b66100d9366004611424565b6101db565b6100f16100ec3660046112a2565b610202565b6040516100fe919061176b565b60405180910390f35b6100f16101153660046112a2565b610214565b6100f16101283660046113f9565b610233565b61014061013b36600461138f565b610255565b6040516100fe919061161f565b61016061015b3660046112a2565b610271565b6040516100fe9190611632565b6100b661017b366004611301565b6104a6565b6100b661018e3660046114c4565b6104c9565b6001600160a01b039091166000908152600160205260409020600a9190910a9055565b6000858152602081905260408120906101d39082878787876105c5565b505050505050565b6000868152602081905260408120906101f990828888888888610716565b50505050505050565b600061020e81836107c5565b92915050565b600081815260208190526040812061022c813361081a565b9392505050565b600083815260208190526040812061024c818585610872565b95945050505050565b600083815260208190526040902060609061024c8185856108d9565b610279611034565b600082815260208190526040902061028f611034565b60018201546001600160f01b03168152600382015460208083019190915260048301546040808401919091526005840154606084015260068401546080840152600784015460a084015283546001600160801b0380821660c0860152600160801b9091041660e084015260088401546101008401526009840154610120840152600e84018054825181850281018501909352808352919290919083018282801561035857602002820191906000526020600020905b815481526020019060010190808311610344575b5050505050610140820152600f820154610160820152601082015461018082019060ff16600581111561038757fe5b9081600581111561039457fe5b905250600c8201546101a08201526001820154600160f01b900460ff161515610200820152600a820180546040805160208084028201810190925282815292919083018282801561040e57602002820191906000526020600020905b81546001600160a01b031681526001909101906020018083116103f0575b5050505050816101c0018190525081600b0180548060200260200160405190810160405280929190818152602001828054801561046a57602002820191906000526020600020905b815481526020019060010190808311610456575b50505050506101e08201526001919091015460ff600160f01b820481161515610200840152600160f81b90910416151561022082015292915050565b6000848152602081905260408120906104c290828686866109f1565b5050505050565b60038790556004869055600585905560068490556007839055600882905560095460005b8181101561054857600080600a01600080600901848154811061050c57fe5b6000918252602080832091909101546001600160a01b031683528201929092526040019020805460ff19169115159190911790556001016104ed565b5050805160005b818110156105a65760016000600a01600085848151811061056c57fe5b6020908102919091018101516001600160a01b03168252810191909152604001600020805460ff191691151591909117905560010161054f565b5081516105ba9060099060208501906110c9565b505050505050505050565b600085600c0154905060006105e68686868a600601548b6007015488610a5a565b63ffffffff838116608083019081526000858152600d8b0160209081526040918290208551815492870151938701516001600160801b03199093166001600160801b039091161767ffffffffffffffff60801b1916600160801b67ffffffffffffffff94851602176001600160c01b0316600160c01b939092169290920217815560608401516001918201805493516001600160a01b03199094166001600160a01b039092169190911763ffffffff60a01b1916600160a01b93851693909302929092179091558401600c8a015560088901549192506106c991908790610ab916565b60088801556001600160a01b0386166000908152600a8901602052604090205460ff161561070c57600e8701805460018101825560009182526020909120018390555b5050505050505050565b61072387878585856109f1565b600787015460038088019190915560088801546004880155600587018690556006870185905587015461075e90858161075857fe5b04610b13565b86546001600160801b0319166001600160801b03919091161786556004870154600787015461078f91908161075857fe5b86546001600160801b03918216600160801b0291161786555050506001909201805460ff60f01b1916600160f01b179055505050565b60008083600501548310156107dc5750600061022c565b836006015483106107f0575061138861022c565b600584015460068501546101f49190819003908503611194028161081057fe5b0401949350505050565b600c820154600090815b81811015610867576000818152600d860160205260409020600101546001600160a01b038581169116141561085f57600101915061020e9050565b600101610824565b506000949350505050565b6000816108815750600061022c565b8261088f575061271061022c565b60006108a38361271064e8d4a51000610b5b565b9050846003015481106108bc575050600983015461022c565b600385015460098601546108d1918390610b5b565b91505061022c565b600c8301546060908067ffffffffffffffff811180156108f857600080fd5b50604051908082528060200260200182016040528015610922578160200160208202803683370190505b509150600061093085610c67565b9050600061093d85610c67565b905060008061094d898585610872565b9050831561095d57806127100391505b60005b858110156109e457600083156109a6576109a38a838151811061097f57fe5b602002602001015164e8d4a5100002612710880286610b5b9092919063ffffffff16565b90505b600083156109c0576109bd8a848151811061097f57fe5b90505b8082018984815181106109cf57fe5b60209081029190910101525050600101610960565b5050505050509392505050565b8251610a0690600a86019060208601906110c9565b50610a1385848484610cac565b8051610a2991600b87019160209091019061112a565b506000610a37868685610e53565b600786018190559050610a4a86826107c5565b8560090181905550505050505050565b610a62611165565b6001600160a01b0387166060820152610a7b8685610f43565b67ffffffffffffffff166020820152610a948584610f43565b67ffffffffffffffff1660408201526001600160801b03909116815295945050505050565b60008282018381101561022c576040805162461bcd60e51b815260206004820152601b60248201527f536166654d6174683a206164646974696f6e206f766572666c6f770000000000604482015290519081900360640190fd5b6000600160801b8210610b575760405162461bcd60e51b81526004018080602001828103825260278152602001806117cf6027913960400191505060405180910390fd5b5090565b6000808211610ba4576040805162461bcd60e51b815260206004820152601060248201526f4469766973696f6e206279207a65726f60801b604482015290519081900360640190fd5b83610bb15750600061022c565b83830283858281610bbe57fe5b041415610bd757828181610bce57fe5b0491505061022c565b6000838681610be257fe5b0490506000848781610bf057fe5b0690506000858781610bfe57fe5b0490506000868881610c0c57fe5b069050610c5a610c2688610c208685610f74565b90610fcd565b610c54610c338686610f74565b610c54610c408987610f74565b610c548d610c4e8c8b610f74565b90610f74565b90610ab9565b9998505050505050505050565b600080805b8351811015610ca557610c9b848281518110610c8457fe5b602002602001015183610ab990919063ffffffff16565b9150600101610c6c565b5092915050565b825160609060008167ffffffffffffffff81118015610cca57600080fd5b50604051908082528060200260200182016040528015610cf4578160200160208202803683370190505b5090506000805b83811015610ddd5760006001600160a01b0316888281518110610d1a57fe5b60200260200101516001600160a01b03161415610d3657610dd5565b6000610dad878381518110610d4757fe5b60200260200101518b60010160008c8681518110610d6157fe5b60200260200101516001600160a01b03166001600160a01b03168152602001908152602001600020548a8581518110610d9657fe5b6020026020010151610b5b9092919063ffffffff16565b905080848381518110610dbc57fe5b6020908102919091010152610dd18382610ab9565b9250505b600101610cfb565b508015610e485760005b83811015610e4657610e27610e1a612710888481518110610e0457fe5b6020026020010151610f7490919063ffffffff16565b83858481518110610d9657fe5b838281518110610e3357fe5b6020908102919091010152600101610de7565b505b509695505050505050565b600080805b600a850154811015610f3a5760006001600160a01b031685600a018281548110610e7e57fe5b6000918252602090912001546001600160a01b03161415610e9e57610f32565b610f2f612710610f1f868481518110610eb357fe5b60200260200101518960010160008a600a018781548110610ed057fe5b60009182526020808320909101546001600160a01b03168352820192909252604001902054600b8a01805487908110610f0557fe5b9060005260206000200154610b5b9092919063ffffffff16565b81610f2657fe5b84919004610ab9565b91505b600101610e58565b50949350505050565b6000811580610f50575082155b15610f5d5750600061020e565b610f6d8364e8d4a5100084610b5b565b905061020e565b600082610f835750600061020e565b82820282848281610f9057fe5b041461022c5760405162461bcd60e51b81526004018080602001828103825260218152602001806117f66021913960400191505060405180910390fd5b6000808211611023576040805162461bcd60e51b815260206004820152601a60248201527f536166654d6174683a206469766973696f6e206279207a65726f000000000000604482015290519081900360640190fd5b81838161102c57fe5b049392505050565b604051806102400160405280600081526020016000815260200160008152602001600081526020016000815260200160008152602001600081526020016000815260200160008152602001600081526020016060815260200160008152602001600060058111156110a157fe5b8152600060208201819052606060408301819052808301526080820181905260a09091015290565b82805482825590600052602060002090810192821561111e579160200282015b8281111561111e57825182546001600160a01b0319166001600160a01b039091161782556020909201916001909101906110e9565b50610b57929150611193565b82805482825590600052602060002090810192821561111e579160200282015b8281111561111e57825182559160200191906001019061114a565b6040805160a08101825260008082526020820181905291810182905260608101829052608081019190915290565b5b80821115610b575760008155600101611194565b600082601f8301126111b8578081fd5b813560206111cd6111c883611798565b611774565b82815281810190858301838502870184018810156111e9578586fd5b855b858110156112105781356111fe816117b6565b845292840192908401906001016111eb565b5090979650505050505050565b600082601f83011261122d578081fd5b8135602061123d6111c883611798565b8281528181019085830183850287018401881015611259578586fd5b855b858110156112105781358452928401929084019060010161125b565b60008060408385031215611289578182fd5b8235611294816117b6565b946020939093013593505050565b6000602082840312156112b3578081fd5b5035919050565b600080600080600060a086880312156112d1578081fd5b8535945060208601356112e3816117b6565b94979496505050506040830135926060810135926080909101359150565b60008060008060808587031215611316578384fd5b84359350602085013567ffffffffffffffff80821115611334578485fd5b611340888389016111a8565b94506040870135915080821115611355578384fd5b6113618883890161121d565b93506060870135915080821115611376578283fd5b506113838782880161121d565b91505092959194509250565b6000806000606084860312156113a3578283fd5b83359250602084013567ffffffffffffffff808211156113c1578384fd5b6113cd8783880161121d565b935060408601359150808211156113e2578283fd5b506113ef8682870161121d565b9150509250925092565b60008060006060848603121561140d578283fd5b505081359360208301359350604090920135919050565b60008060008060008060c0878903121561143c578081fd5b863595506020870135945060408701359350606087013567ffffffffffffffff80821115611468578283fd5b6114748a838b016111a8565b94506080890135915080821115611489578283fd5b6114958a838b0161121d565b935060a08901359150808211156114aa578283fd5b506114b789828a0161121d565b9150509295509295509295565b600080600080600080600060e0888a0312156114de578081fd5b87359650602080890135965060408901359550606089013594506080890135935060a0890135925060c089013567ffffffffffffffff81111561151f578283fd5b8901601f81018b1361152f578283fd5b803561153d6111c882611798565b81815283810190838501858402850186018f1015611559578687fd5b8694505b83851015611584578035611570816117b6565b83526001949094019391850191850161155d565b50809550505050505092959891949750929550565b6000815180845260208085019450808401835b838110156115d15781516001600160a01b0316875295820195908201906001016115ac565b509495945050505050565b6000815180845260208085019450808401835b838110156115d1578151875295820195908201906001016115ef565b15159052565b6006811061161b57fe5b9052565b60006020825261022c60208301846115dc565b60006020825282516020830152602083015160408301526040830151606083015260608301516080830152608083015160a083015260a083015160c083015260c083015160e083015260e083015161010081818501528085015191505061012081818501528085015191505061014081818501528085015191505061024061016081818601526116c66102608601846115dc565b90860151610180868101919091528601519092506101a06116e981870183611611565b808701519150506101c0818187015280870151915050601f196101e08187860301818801526117188584611599565b94508088015192505061020081878603018188015261173785846115dc565b945080880151925050506102206117508187018361160b565b86015190506117618583018261160b565b5090949350505050565b90815260200190565b60405181810167ffffffffffffffff8111828210171561179057fe5b604052919050565b600067ffffffffffffffff8211156117ac57fe5b5060209081020190565b6001600160a01b03811681146117cb57600080fd5b5056fe53616665436173743a2076616c756520646f65736e27742066697420696e203132382062697473536166654d6174683a206d756c7469706c69636174696f6e206f766572666c6f77a2646970667358221220392b4917f8fc6c98a243770bcbfb74aa1494288fe8d61e1401e747de1ea6c97764736f6c63430007060033",
  "linkReferences": {},
  "deployedLinkReferences": {}
}