{
  "_format": "hh-sol-artifact-1",
  "contractName": "FtsoVoteMock",
  "sourceName": "contracts/ftso/mock/FtsoVoteMock.sol",
  "abi": [
    {
      "inputs": [
        {
          "internalType": "address",
          "name": "_voter",
          "type": "address"
        },
        {
          "internalType": "uint256",
          "name": "_votePowerNat",
          "type": "uint256"
        },
        {
          "internalType": "uint256",
          "name": "_votePowerAsset",
          "type": "uint256"
        },
        {
          "internalType": "uint256",
          "name": "_totalVotePowerNat",
          "type": "uint256"
        },
        {
          "internalType": "uint256",
          "name": "_totalVotePowerAsset",
          "type": "uint256"
        },
        {
          "internalType": "uint256",
          "name": "_price",
          "type": "uint256"
        }
      ],
      "name": "createInstance",
      "outputs": [
        {
          "components": [
            {
              "internalType": "uint128",
              "name": "price",
              "type": "uint128"
            },
            {
              "internalType": "uint64",
              "name": "weightNat",
              "type": "uint64"
            },
            {
              "internalType": "uint64",
              "name": "weightAsset",
              "type": "uint64"
            },
            {
              "internalType": "address",
              "name": "voter",
              "type": "address"
            },
            {
              "internalType": "uint32",
              "name": "index",
              "type": "uint32"
            }
          ],
          "internalType": "struct FtsoVote.Instance",
          "name": "",
          "type": "tuple"
        }
      ],
      "stateMutability": "pure",
      "type": "function"
    }
  ],
  "bytecode": "0x608060405234801561001057600080fd5b5061046e806100206000396000f3fe608060405234801561001057600080fd5b506004361061002b5760003560e01c80636f93a97a14610030575b600080fd5b61004361003e366004610362565b610059565b60405161005091906103b8565b60405180910390f35b610061610334565b61006f87878787878761007a565b979650505050505050565b610082610334565b6001600160a01b038716606082015261009b86856100d9565b67ffffffffffffffff1660208201526100b485846100d9565b67ffffffffffffffff1660408201526001600160801b03909116815295945050505050565b60008115806100e6575082155b156100f357506000610106565b6101038364e8d4a510008461010c565b90505b92915050565b6000808211610155576040805162461bcd60e51b815260206004820152601060248201526f4469766973696f6e206279207a65726f60801b604482015290519081900360640190fd5b8361016257506000610213565b8383028385828161016f57fe5b0414156101885782818161017f57fe5b04915050610213565b600083868161019357fe5b04905060008487816101a157fe5b06905060008587816101af57fe5b04905060008688816101bd57fe5b06905061020b6101d7886101d1868561021a565b90610273565b6102056101e4868661021a565b6102056101f1898761021a565b6102058d6101ff8c8b61021a565b9061021a565b906102da565b955050505050505b9392505050565b60008261022957506000610106565b8282028284828161023657fe5b04146101035760405162461bcd60e51b81526004018080602001828103825260218152602001806104186021913960400191505060405180910390fd5b60008082116102c9576040805162461bcd60e51b815260206004820152601a60248201527f536166654d6174683a206469766973696f6e206279207a65726f000000000000604482015290519081900360640190fd5b8183816102d257fe5b049392505050565b600082820183811015610103576040805162461bcd60e51b815260206004820152601b60248201527f536166654d6174683a206164646974696f6e206f766572666c6f770000000000604482015290519081900360640190fd5b6040805160a08101825260008082526020820181905291810182905260608101829052608081019190915290565b60008060008060008060c0878903121561037a578182fd5b86356001600160a01b0381168114610390578283fd5b9860208801359850604088013597606081013597506080810135965060a00135945092505050565b81516001600160801b0316815260208083015167ffffffffffffffff90811691830191909152604080840151909116908201526060808301516001600160a01b03169082015260809182015163ffffffff169181019190915260a0019056fe536166654d6174683a206d756c7469706c69636174696f6e206f766572666c6f77a2646970667358221220103945ddda49312da9bf98c4d25f65def07ad504e363c5cd5cb4baf09bfd2bd464736f6c63430007060033",
  "linkReferences": {},
  "deployedLinkReferences": {}
}