{
  "_format": "hh-sol-artifact-1",
  "contractName": "CheckPointableMock",
  "sourceName": "contracts/token/mock/CheckPointableMock.sol",
  "abi": [
    {
      "anonymous": false,
      "inputs": [
        {
          "indexed": false,
          "internalType": "uint256",
          "name": "_blockNumber",
          "type": "uint256"
        }
      ],
      "name": "CreatedTotalSupplyCache",
      "type": "event"
    },
    {
      "inputs": [
        {
          "internalType": "address",
          "name": "_owner",
          "type": "address"
        },
        {
          "internalType": "uint256",
          "name": "_count",
          "type": "uint256"
        }
      ],
      "name": "balanceHistoryCleanup",
      "outputs": [
        {
          "internalType": "uint256",
          "name": "",
          "type": "uint256"
        }
      ],
      "stateMutability": "nonpayable",
      "type": "function"
    },
    {
      "inputs": [
        {
          "internalType": "address",
          "name": "_owner",
          "type": "address"
        },
        {
          "internalType": "uint256",
          "name": "_blockNumber",
          "type": "uint256"
        }
      ],
      "name": "balanceOfAt",
      "outputs": [
        {
          "internalType": "uint256",
          "name": "_balance",
          "type": "uint256"
        }
      ],
      "stateMutability": "view",
      "type": "function"
    },
    {
      "inputs": [
        {
          "internalType": "address",
          "name": "_owner",
          "type": "address"
        },
        {
          "internalType": "uint256",
          "name": "_amount",
          "type": "uint256"
        }
      ],
      "name": "burnForAtNow",
      "outputs": [],
      "stateMutability": "nonpayable",
      "type": "function"
    },
    {
      "inputs": [],
      "name": "getCleanupBlockNumber",
      "outputs": [
        {
          "internalType": "uint256",
          "name": "",
          "type": "uint256"
        }
      ],
      "stateMutability": "view",
      "type": "function"
    },
    {
      "inputs": [
        {
          "internalType": "address",
          "name": "_owner",
          "type": "address"
        },
        {
          "internalType": "uint256",
          "name": "_amount",
          "type": "uint256"
        }
      ],
      "name": "mintForAtNow",
      "outputs": [],
      "stateMutability": "nonpayable",
      "type": "function"
    },
    {
      "inputs": [
        {
          "internalType": "uint256",
          "name": "_blockNumber",
          "type": "uint256"
        }
      ],
      "name": "setCleanupBlockNumber",
      "outputs": [],
      "stateMutability": "nonpayable",
      "type": "function"
    },
    {
      "inputs": [
        {
          "internalType": "uint256",
          "name": "_blockNumber",
          "type": "uint256"
        }
      ],
      "name": "totalSupplyAt",
      "outputs": [
        {
          "internalType": "uint256",
          "name": "_totalSupply",
          "type": "uint256"
        }
      ],
      "stateMutability": "view",
      "type": "function"
    },
    {
      "inputs": [
        {
          "internalType": "uint256",
          "name": "_blockNumber",
          "type": "uint256"
        }
      ],
      "name": "totalSupplyCacheCleanup",
      "outputs": [
        {
          "internalType": "uint256",
          "name": "",
          "type": "uint256"
        }
      ],
      "stateMutability": "nonpayable",
      "type": "function"
    },
    {
      "inputs": [
        {
          "internalType": "uint256",
          "name": "_count",
          "type": "uint256"
        }
      ],
      "name": "totalSupplyHistoryCleanup",
      "outputs": [
        {
          "internalType": "uint256",
          "name": "",
          "type": "uint256"
        }
      ],
      "stateMutability": "nonpayable",
      "type": "function"
    },
    {
      "inputs": [
        {
          "internalType": "address",
          "name": "from",
          "type": "address"
        },
        {
          "internalType": "address",
          "name": "to",
          "type": "address"
        },
        {
          "internalType": "uint256",
          "name": "_amount",
          "type": "uint256"
        }
      ],
      "name": "transmitAtNow",
      "outputs": [],
      "stateMutability": "nonpayable",
      "type": "function"
    }
  ],
  "bytecode": "0x608060405234801561001057600080fd5b50611026806100206000396000f3fe608060405234801561001057600080fd5b506004361061009e5760003560e01c80634ee2cd7e116100665780634ee2cd7e1461017f578063981b24d0146101ab578063a72ec4b6146101c8578063f0e292c9146101d0578063f62f8f3a146101fc5761009e565b806313de97f5146100a35780631c6fcbbf146100c25780633d5b763a146100ee57806343ea370b14610124578063480832ac14610153575b600080fd5b6100c0600480360360208110156100b957600080fd5b5035610219565b005b6100c0600480360360408110156100d857600080fd5b506001600160a01b038135169060200135610225565b6100c06004803603606081101561010457600080fd5b506001600160a01b03813581169160208101359091169060400135610233565b6101416004803603602081101561013a57600080fd5b5035610243565b60408051918252519081900360200190f35b6100c06004803603604081101561016957600080fd5b506001600160a01b038135169060200135610306565b6101416004803603604081101561019557600080fd5b506001600160a01b038135169060200135610310565b610141600480360360208110156101c157600080fd5b5035610368565b6101416103be565b610141600480360360408110156101e657600080fd5b506001600160a01b0381351690602001356103cd565b6101416004803603602081101561021257600080fd5b5035610443565b610222816104ae565b50565b61022f8282610532565b5050565b61023e83838361059b565b505050565b6005546000906001600160a01b0316331461029d576040805162461bcd60e51b815260206004820152601560248201527413db9b1e4818db19585b995c8818dbdb9d1c9858dd605a1b604482015290519081900360640190fd5b60045482106102f3576040805162461bcd60e51b815260206004820152601e60248201527f4e6f20636c65616e757020616674657220636c65616e757020626c6f636b0000604482015290519081900360640190fd5b6102fe6003836105d1565b90505b919050565b61022f8282610605565b6000816004548110156103545760405162461bcd60e51b815260040180806020018281038252602d815260200180610f6e602d913960400191505060405180910390fd5b610360600085856106b4565b949350505050565b6000816004548110156103ac5760405162461bcd60e51b815260040180806020018281038252602d815260200180610f6e602d913960400191505060405180910390fd5b6103b76001846106df565b9392505050565b60006103c8610822565b905090565b6005546000906001600160a01b03163314610427576040805162461bcd60e51b815260206004820152601560248201527413db9b1e4818db19585b995c8818dbdb9d1c9858dd605a1b604482015290519081900360640190fd5b60045461043a9060009085908590610828565b90505b92915050565b6005546000906001600160a01b0316331461049d576040805162461bcd60e51b815260206004820152601560248201527413db9b1e4818db19585b995c8818dbdb9d1c9858dd605a1b604482015290519081900360640190fd5b6004546102fe90600190849061086e565b6004548110156104ef5760405162461bcd60e51b8152600401808060200182810382526028815260200180610f466028913960400191505060405180910390fd5b43811061052d5760405162461bcd60e51b8152600401808060200182810382526021815260200180610f256021913960400191505060405180910390fd5b600455565b6000610548826105428543610310565b9061095b565b9050610556600084836109b5565b60045461056a906000908590600290610828565b5061058361057b8361054243610368565b6001906109d3565b6004546105959060019060029061086e565b50505050565b6105a86000848484610b95565b6004546105bc906000908590600290610828565b50600454610595906000908490600290610828565b600081815260208390526040812054156105fc5750600081815260208390526040812055600161043d565b50600092915050565b600061064b8260405180604001604052806016815260200175213ab937103a37b7903134b3903337b91037bbb732b960511b8152506106448643610310565b9190610c24565b9050610659600084836109b5565b60045461066d906000908590600290610828565b5061058361057b836040518060400160405280601d81526020017f4275726e20746f6f2062696720666f7220746f74616c20737570706c7900000081525061064443610368565b6001600160a01b03821660009081526020849052604081206106d681846106df565b95945050505050565b6001820154600090600160401b90046001600160401b03168061070657600091505061043d565b438310158061073857506000198101600090815260208590526040902054600160c01b90046001600160401b03168310155b1561076057600019016000908152602084905260409020546001600160c01b0316905061043d565b60018401546001600160401b039081166000818152602087905260409020549091600160c01b909104168410156107d95780156107ce5760405162461bcd60e51b8152600401808060200182810382526030815260200180610fc16030913960400191505060405180910390fd5b60009250505061043d565b60018501546000906107ff9087908490600160401b90046001600160401b031688610cbb565b6000908152602087905260409020546001600160c01b0316935050505092915050565b60045490565b60006001600160a01b03841615610863576001600160a01b038416600090815260208690526040902061085c90848461086e565b9050610360565b506000949350505050565b60008161087d575060006103b7565b6001840154600160401b90046001600160401b0316806108a15760009150506103b7565b60018501546001600160401b031660006108c76108be838861095b565b60018503610d3f565b9050815b81811080156108fc575060018101600090815260208990526040902054600160c01b90046001600160401b03168610155b15610918576000818152602089905260408120556001016108cb565b8281111561094d5761092981610d55565b60018901805467ffffffffffffffff19166001600160401b03929092169190911790555b919091039695505050505050565b60008282018381101561043a576040805162461bcd60e51b815260206004820152601b60248201527f536166654d6174683a206164646974696f6e206f766572666c6f770000000000604482015290519081900360640190fd5b6001600160a01b038216600090815260208490526040902061059581835b6001820154600160401b90046001600160401b031680610a8a576040518060400160405280610a0184610d9d565b6001600160c01b03168152602001610a1843610d55565b6001600160401b03908116909152600080805260208681526040909120835181549490920151909216600160c01b026001600160c01b039182166001600160c01b0319909416939093171691909117905560018301805467ffffffffffffffff60401b1916600160401b17905561023e565b600019810160009081526020849052604090208054600160c01b90046001600160401b031643811415610ae057610ac084610d9d565b82546001600160c01b0319166001600160c01b0391909116178255610b8e565b804311610ae957fe5b6040518060400160405280610afd86610d9d565b6001600160c01b03168152602001610b1443610d55565b6001600160401b039081169091526000858152602088815260409091208351815494909201518316600160c01b026001600160c01b039283166001600160c01b0319909516949094179091169290921790915560018087018054918601909216600160401b0267ffffffffffffffff60401b199091161790555b5050505050565b80610b9f57610595565b6001600160a01b038316158015610bbd57506001600160a01b038216155b15610bc457fe5b6001600160a01b03831615610bf8576000610be982610be38787610df7565b90610e18565b9050610bf68585836109b5565b505b6001600160a01b03821615610595576000610c17826105428786610df7565b9050610b8e8584836109b5565b60008184841115610cb35760405162461bcd60e51b81526004018080602001828103825283818151815260200191508051906020019080838360005b83811015610c78578181015183820152602001610c60565b50505050905090810190601f168015610ca55780820380516001836020036101000a031916815260200191505b509250505060405180910390fd5b505050900390565b60008381610cca856001610e18565b90505b81811115610d35576000610cf16002610ceb6001610542868861095b565b90610e75565b600081815260208a90526040902054909150600160c01b90046001600160401b03168510610d2157809250610d2f565b610d2c816001610e18565b91505b50610ccd565b5095945050505050565b6000818310610d4e578161043a565b5090919050565b6000600160401b8210610d995760405162461bcd60e51b8152600401808060200182810382526026815260200180610f9b6026913960400191505060405180910390fd5b5090565b6000600160c01b8210610d99576040805162461bcd60e51b815260206004820152601d60248201527f76616c756520646f65736e27742066697420696e203139322062697473000000604482015290519081900360640190fd5b6001600160a01b038116600090815260208390526040812061036081610edc565b600082821115610e6f576040805162461bcd60e51b815260206004820152601e60248201527f536166654d6174683a207375627472616374696f6e206f766572666c6f770000604482015290519081900360640190fd5b50900390565b6000808211610ecb576040805162461bcd60e51b815260206004820152601a60248201527f536166654d6174683a206469766973696f6e206279207a65726f000000000000604482015290519081900360640190fd5b818381610ed457fe5b049392505050565b6001810154600090600160401b90046001600160401b031680610f03576000915050610301565b6000190160009081526020929092525060409020546001600160c01b03169056fe436c65616e757020626c6f636b206d75737420626520696e207468652070617374436c65616e757020626c6f636b206e756d626572206d757374206e65766572206465637265617365436865636b506f696e7461626c653a2072656164696e672066726f6d20636c65616e65642d757020626c6f636b53616665436173743a2076616c756520646f65736e27742066697420696e2036342062697473436865636b506f696e74486973746f72793a2072656164696e672066726f6d20636c65616e65642d757020626c6f636ba2646970667358221220804181d09b0535d1405635fe2b90cdc86658a2816c7745198a31e4d96943101d64736f6c63430007060033",
  "linkReferences": {},
  "deployedLinkReferences": {}
}