{
  "_format": "hh-sol-artifact-1",
  "contractName": "FlareDaemonWithInflationMock",
  "sourceName": "contracts/inflation/mock/FlareDaemonWithInflationMock.sol",
  "abi": [
    {
      "inputs": [],
      "stateMutability": "nonpayable",
      "type": "constructor"
    },
    {
      "anonymous": false,
      "inputs": [
        {
          "indexed": false,
          "internalType": "address",
          "name": "proposedGovernance",
          "type": "address"
        }
      ],
      "name": "GovernanceProposed",
      "type": "event"
    },
    {
      "anonymous": false,
      "inputs": [
        {
          "indexed": false,
          "internalType": "address",
          "name": "oldGovernance",
          "type": "address"
        },
        {
          "indexed": false,
          "internalType": "address",
          "name": "newGoveranance",
          "type": "address"
        }
      ],
      "name": "GovernanceUpdated",
      "type": "event"
    },
    {
      "anonymous": false,
      "inputs": [
        {
          "indexed": false,
          "internalType": "contract IInflationGenesis",
          "name": "theNewContract",
          "type": "address"
        },
        {
          "indexed": false,
          "internalType": "contract IInflationGenesis",
          "name": "theOldContract",
          "type": "address"
        }
      ],
      "name": "InflationSet",
      "type": "event"
    },
    {
      "anonymous": false,
      "inputs": [
        {
          "indexed": false,
          "internalType": "uint256",
          "name": "amountWei",
          "type": "uint256"
        }
      ],
      "name": "MintingRequestReceived",
      "type": "event"
    },
    {
      "inputs": [],
      "name": "claimGovernance",
      "outputs": [],
      "stateMutability": "nonpayable",
      "type": "function"
    },
    {
      "inputs": [],
      "name": "governance",
      "outputs": [
        {
          "internalType": "address",
          "name": "",
          "type": "address"
        }
      ],
      "stateMutability": "view",
      "type": "function"
    },
    {
      "inputs": [],
      "name": "inflation",
      "outputs": [
        {
          "internalType": "contract Inflation",
          "name": "",
          "type": "address"
        }
      ],
      "stateMutability": "view",
      "type": "function"
    },
    {
      "inputs": [
        {
          "internalType": "address",
          "name": "_governance",
          "type": "address"
        }
      ],
      "name": "initialise",
      "outputs": [],
      "stateMutability": "pure",
      "type": "function"
    },
    {
      "inputs": [],
      "name": "initialiseFixedAddress",
      "outputs": [
        {
          "internalType": "address",
          "name": "",
          "type": "address"
        }
      ],
      "stateMutability": "nonpayable",
      "type": "function"
    },
    {
      "inputs": [],
      "name": "lastMintRequestTs",
      "outputs": [
        {
          "internalType": "uint256",
          "name": "",
          "type": "uint256"
        }
      ],
      "stateMutability": "view",
      "type": "function"
    },
    {
      "inputs": [],
      "name": "lastUpdateMaxMintRequestTs",
      "outputs": [
        {
          "internalType": "uint256",
          "name": "",
          "type": "uint256"
        }
      ],
      "stateMutability": "view",
      "type": "function"
    },
    {
      "inputs": [],
      "name": "maxMintingRequestWei",
      "outputs": [
        {
          "internalType": "uint256",
          "name": "",
          "type": "uint256"
        }
      ],
      "stateMutability": "view",
      "type": "function"
    },
    {
      "inputs": [
        {
          "internalType": "address",
          "name": "_governance",
          "type": "address"
        }
      ],
      "name": "proposeGovernance",
      "outputs": [],
      "stateMutability": "nonpayable",
      "type": "function"
    },
    {
      "inputs": [],
      "name": "proposedGovernance",
      "outputs": [
        {
          "internalType": "address",
          "name": "",
          "type": "address"
        }
      ],
      "stateMutability": "view",
      "type": "function"
    },
    {
      "inputs": [
        {
          "internalType": "uint256",
          "name": "_amountWei",
          "type": "uint256"
        }
      ],
      "name": "requestMinting",
      "outputs": [],
      "stateMutability": "nonpayable",
      "type": "function"
    },
    {
      "inputs": [
        {
          "internalType": "contract Inflation",
          "name": "_inflation",
          "type": "address"
        }
      ],
      "name": "setInflation",
      "outputs": [],
      "stateMutability": "nonpayable",
      "type": "function"
    },
    {
      "inputs": [],
      "name": "totalMintingRequestedWei",
      "outputs": [
        {
          "internalType": "uint256",
          "name": "",
          "type": "uint256"
        }
      ],
      "stateMutability": "view",
      "type": "function"
    },
    {
      "inputs": [
        {
          "internalType": "address",
          "name": "_governance",
          "type": "address"
        }
      ],
      "name": "transferGovernance",
      "outputs": [],
      "stateMutability": "nonpayable",
      "type": "function"
    },
    {
      "inputs": [],
      "name": "triggerDaemonize",
      "outputs": [],
      "stateMutability": "nonpayable",
      "type": "function"
    },
    {
      "inputs": [
        {
          "internalType": "uint256",
          "name": "_toMint",
          "type": "uint256"
        }
      ],
      "name": "triggerReceiveMinting",
      "outputs": [],
      "stateMutability": "nonpayable",
      "type": "function"
    }
  ],
  "bytecode": "0x608060405234801561001057600080fd5b50610a0d806100206000396000f3fe608060405234801561001057600080fd5b50600436106101005760003560e01c8063a6817ace11610097578063c9f960eb11610066578063c9f960eb146101e6578063d38bfff4146101ee578063e9de7d6014610214578063ee323c921461023157610100565b8063a6817ace146101a8578063ba278701146101b0578063be0522e0146101b8578063c373a08e146101c057610100565b806360f7ac97116100d357806360f7ac97146101555780636288f38a1461015d57806362da19a51461017a5780639d6a890f1461018257610100565b80631d76dea1146101055780634f6a77b51461011f5780635aa6e675146101275780635d36b1901461014b575b600080fd5b61010d610257565b60408051918252519081900360200190f35b61010d61025d565b61012f610263565b604080516001600160a01b039092168252519081900360200190f35b610153610272565b005b61012f610334565b6101536004803603602081101561017357600080fd5b5035610343565b61010d6103af565b6101536004803603602081101561019857600080fd5b50356001600160a01b03166103b5565b61010d6103ba565b6101536103c0565b61012f61043e565b610153600480360360208110156101d657600080fd5b50356001600160a01b031661044d565b61012f6104a9565b6101536004803603602081101561020457600080fd5b50356001600160a01b03166104ce565b6101536004803603602081101561022a57600080fd5b5035610547565b6101536004803603602081101561024757600080fd5b50356001600160a01b031661074a565b60055481565b60045481565b6000546001600160a01b031681565b6001546001600160a01b031633146102c1576040805162461bcd60e51b815260206004820152600d60248201526c1b9bdd0818db185a5b585a5b9d609a1b604482015290519081900360640190fd5b600054600154604080516001600160a01b03938416815292909116602083015280517f434a2db650703b36c824e745330d6397cdaa9ee2cc891a4938ae853e1c50b68d9281900390910190a160018054600080546001600160a01b03199081166001600160a01b03841617909155169055565b6001546001600160a01b031681565b600260009054906101000a90046001600160a01b03166001600160a01b031663c611c2c5826040518263ffffffff1660e01b81526004016000604051808303818588803b15801561039357600080fd5b505af11580156103a7573d6000803e3d6000fd5b505050505050565b60035481565bfe5b50565b60065481565b600260009054906101000a90046001600160a01b03166001600160a01b0316636d0e8c346040518163ffffffff1660e01b8152600401602060405180830381600087803b15801561041057600080fd5b505af1158015610424573d6000803e3d6000fd5b505050506040513d602081101561043a57600080fd5b5050565b6002546001600160a01b031681565b610455610849565b600180546001600160a01b0383166001600160a01b0319909116811790915560408051918252517f1f95fb40be3a947982072902a887b521248d1d8931a39eb38f84f4d6fd758b699181900360200190a150565b600073fffec6c83c8bf5c3f4ae0ccf8c45ce20e4560bd76104c98161089c565b905090565b6104d6610849565b600054604080516001600160a01b039283168152918316602083015280517f434a2db650703b36c824e745330d6397cdaa9ee2cc891a4938ae853e1c50b68d9281900390910190a1600080546001600160a01b039092166001600160a01b0319928316179055600180549091169055565b60025460408051808201909152600d81526c3737ba1034b7333630ba34b7b760991b602082015233916001600160a01b031682146106035760405162461bcd60e51b81526004018080602001828103825283818151815260200191508051906020019080838360005b838110156105c85781810151838201526020016105b0565b50505050905090810190601f1680156105f55780820380516001836020036101000a031916815260200191505b509250505060405180910390fd5b5060045482111560405180604001604052806007815260200166746f6f2062696760c81b815250906106765760405162461bcd60e51b81526020600482018181528351602484015283519092839260449091019190850190808383600083156105c85781810151838201526020016105b0565b5060055442906106899062014370610976565b10604051806040016040528060098152602001683a37b79037b33a32b760b91b815250906106f85760405162461bcd60e51b81526020600482018181528351602484015283519092839260449091019190850190808383600083156105c85781810151838201526020016105b0565b50811561043a57426005556003546107109083610976565b6003556040805183815290517f4c4f1efc376f31abeb51b72c5f9ed81cf4016591312bb02337e58149dcfaaab49181900360200190a15050565b610752610849565b60408051808201909152600e81526d696e666c6174696f6e207a65726f60901b60208201526001600160a01b0382166107cc5760405162461bcd60e51b81526020600482018181528351602484015283519092839260449091019190850190808383600083156105c85781810151838201526020016105b0565b50600254604080516001600160a01b039283168152918316602083015280517f4bdd1012a7d55ed9afad8675a125e1b68c7c15f712c0f3d5cddac69c3b9798059281900390910190a1600280546001600160a01b0319166001600160a01b0383161790556004546103b7576a295be96e6406697200000060045550565b6000546001600160a01b0316331461089a576040805162461bcd60e51b815260206004820152600f60248201526e6f6e6c7920676f7665726e616e636560881b604482015290519081900360640190fd5b565b600154600160a01b900460ff16156108f2576040805162461bcd60e51b8152602060048201526014602482015273696e697469616c6973656420213d2066616c736560601b604482015290519081900360640190fd5b6001805460ff60a01b1916600160a01b179055600054604080516001600160a01b039283168152918316602083015280517f434a2db650703b36c824e745330d6397cdaa9ee2cc891a4938ae853e1c50b68d9281900390910190a1600080546001600160a01b039092166001600160a01b0319928316179055600180549091169055565b6000828201838110156109d0576040805162461bcd60e51b815260206004820152601b60248201527f536166654d6174683a206164646974696f6e206f766572666c6f770000000000604482015290519081900360640190fd5b939250505056fea2646970667358221220bfbb9dc6403f9cc0138d414ce00bb6bc046aa5e6d67b9f7bbd4f9c1787d8e69664736f6c63430007060033",
  "linkReferences": {},
  "deployedLinkReferences": {}
}