{
  "_format": "hh-sol-artifact-1",
  "contractName": "GasConsumer3",
  "sourceName": "contracts/utils/mock/GasConsumer3.sol",
  "abi": [
    {
      "inputs": [],
      "name": "lastMedian",
      "outputs": [
        {
          "internalType": "uint256",
          "name": "",
          "type": "uint256"
        }
      ],
      "stateMutability": "view",
      "type": "function"
    },
    {
      "inputs": [
        {
          "internalType": "uint256",
          "name": "n",
          "type": "uint256"
        }
      ],
      "name": "push",
      "outputs": [],
      "stateMutability": "nonpayable",
      "type": "function"
    }
  ],
  "bytecode": "0x608060405234801561001057600080fd5b5061024c806100206000396000f3fe608060405234801561001057600080fd5b50600436106100365760003560e01c8063959ac4841461003b578063b82b5d061461005a575b600080fd5b6100586004803603602081101561005157600080fd5b5035610074565b005b61006261014a565b60408051918252519081900360200190f35b8061007e57610147565b60008167ffffffffffffffff8111801561009757600080fd5b506040519080825280602002602001820160405280156100c1578160200160208202803683370190505b509050600160005b8381101561011d5781604051602001808281526020019150506040516020818303038152906040528051906020012060001c91508183828151811061010a57fe5b60209081029190910101526001016100c9565b5061012782610150565b81600284048151811061013657fe5b602002602001015160008190555050505b50565b60005481565b60015b801561021257506000805b600183510381101561020c5782816001018151811061017957fe5b602002602001015183828151811061018d57fe5b602002602001015111156102045760008382815181106101a957fe5b602002602001015190508382600101815181106101c257fe5b60200260200101518483815181106101d657fe5b602002602001018181525050808483600101815181106101f257fe5b60200260200101818152505060019250505b60010161015e565b50610153565b505056fea2646970667358221220e1267668348f1724bc046910b4399c387120502b8727ff1da5cae3c18765906f64736f6c63430007060033",
  "linkReferences": {},
  "deployedLinkReferences": {}
}