{
  "_format": "hh-sol-artifact-1",
  "contractName": "FtsoRewardManager",
  "sourceName": "contracts/tokenPools/implementation/FtsoRewardManager.sol",
  "abi": [
    {
      "inputs": [
        {
          "internalType": "address",
          "name": "_governance",
          "type": "address"
        },
        {
          "internalType": "uint256",
          "name": "_feePercentageUpdateOffset",
          "type": "uint256"
        },
        {
          "internalType": "uint256",
          "name": "_defaultFeePercentage",
          "type": "uint256"
        }
      ],
      "stateMutability": "nonpayable",
      "type": "constructor"
    },
    {
      "anonymous": false,
      "inputs": [
        {
          "indexed": false,
          "internalType": "uint256",
          "name": "authorizedAmountWei",
          "type": "uint256"
        }
      ],
      "name": "DailyAuthorizedInflationSet",
      "type": "event"
    },
    {
      "anonymous": false,
      "inputs": [
        {
          "indexed": true,
          "internalType": "address",
          "name": "dataProvider",
          "type": "address"
        },
        {
          "indexed": false,
          "internalType": "uint256",
          "name": "value",
          "type": "uint256"
        },
        {
          "indexed": false,
          "internalType": "uint256",
          "name": "validFromEpoch",
          "type": "uint256"
        }
      ],
      "name": "FeePercentageChanged",
      "type": "event"
    },
    {
      "anonymous": false,
      "inputs": [
        {
          "indexed": false,
          "internalType": "address",
          "name": "proposedGovernance",
          "type": "address"
        }
      ],
      "name": "GovernanceProposed",
      "type": "event"
    },
    {
      "anonymous": false,
      "inputs": [
        {
          "indexed": false,
          "internalType": "address",
          "name": "oldGovernance",
          "type": "address"
        },
        {
          "indexed": false,
          "internalType": "address",
          "name": "newGoveranance",
          "type": "address"
        }
      ],
      "name": "GovernanceUpdated",
      "type": "event"
    },
    {
      "anonymous": false,
      "inputs": [
        {
          "indexed": false,
          "internalType": "uint256",
          "name": "amountReceivedWei",
          "type": "uint256"
        }
      ],
      "name": "InflationReceived",
      "type": "event"
    },
    {
      "anonymous": false,
      "inputs": [
        {
          "indexed": true,
          "internalType": "address",
          "name": "dataProvider",
          "type": "address"
        },
        {
          "indexed": true,
          "internalType": "address",
          "name": "whoClaimed",
          "type": "address"
        },
        {
          "indexed": true,
          "internalType": "address",
          "name": "sentTo",
          "type": "address"
        },
        {
          "indexed": false,
          "internalType": "uint256",
          "name": "rewardEpoch",
          "type": "uint256"
        },
        {
          "indexed": false,
          "internalType": "uint256",
          "name": "amount",
          "type": "uint256"
        }
      ],
      "name": "RewardClaimed",
      "type": "event"
    },
    {
      "anonymous": false,
      "inputs": [
        {
          "indexed": false,
          "internalType": "uint256",
          "name": "rewardEpochId",
          "type": "uint256"
        }
      ],
      "name": "RewardClaimsExpired",
      "type": "event"
    },
    {
      "anonymous": false,
      "inputs": [
        {
          "indexed": true,
          "internalType": "address",
          "name": "ftso",
          "type": "address"
        },
        {
          "indexed": false,
          "internalType": "uint256",
          "name": "epochId",
          "type": "uint256"
        },
        {
          "indexed": false,
          "internalType": "address[]",
          "name": "addresses",
          "type": "address[]"
        },
        {
          "indexed": false,
          "internalType": "uint256[]",
          "name": "rewards",
          "type": "uint256[]"
        }
      ],
      "name": "RewardsDistributed",
      "type": "event"
    },
    {
      "inputs": [],
      "name": "activate",
      "outputs": [],
      "stateMutability": "nonpayable",
      "type": "function"
    },
    {
      "inputs": [],
      "name": "active",
      "outputs": [
        {
          "internalType": "bool",
          "name": "",
          "type": "bool"
        }
      ],
      "stateMutability": "view",
      "type": "function"
    },
    {
      "inputs": [],
      "name": "claimGovernance",
      "outputs": [],
      "stateMutability": "nonpayable",
      "type": "function"
    },
    {
      "inputs": [
        {
          "internalType": "address payable",
          "name": "_recipient",
          "type": "address"
        },
        {
          "internalType": "uint256[]",
          "name": "_rewardEpochs",
          "type": "uint256[]"
        }
      ],
      "name": "claimReward",
      "outputs": [
        {
          "internalType": "uint256",
          "name": "_rewardAmount",
          "type": "uint256"
        }
      ],
      "stateMutability": "nonpayable",
      "type": "function"
    },
    {
      "inputs": [
        {
          "internalType": "address payable",
          "name": "_recipient",
          "type": "address"
        },
        {
          "internalType": "uint256[]",
          "name": "_rewardEpochs",
          "type": "uint256[]"
        },
        {
          "internalType": "address[]",
          "name": "_dataProviders",
          "type": "address[]"
        }
      ],
      "name": "claimRewardFromDataProviders",
      "outputs": [
        {
          "internalType": "uint256",
          "name": "_rewardAmount",
          "type": "uint256"
        }
      ],
      "stateMutability": "nonpayable",
      "type": "function"
    },
    {
      "inputs": [
        {
          "internalType": "uint256",
          "name": "_rewardEpoch",
          "type": "uint256"
        }
      ],
      "name": "closeExpiredRewardEpoch",
      "outputs": [],
      "stateMutability": "nonpayable",
      "type": "function"
    },
    {
      "inputs": [],
      "name": "dailyAuthorizedInflation",
      "outputs": [
        {
          "internalType": "uint256",
          "name": "",
          "type": "uint256"
        }
      ],
      "stateMutability": "view",
      "type": "function"
    },
    {
      "inputs": [],
      "name": "deactivate",
      "outputs": [],
      "stateMutability": "nonpayable",
      "type": "function"
    },
    {
      "inputs": [],
      "name": "defaultFeePercentage",
      "outputs": [
        {
          "internalType": "uint256",
          "name": "",
          "type": "uint256"
        }
      ],
      "stateMutability": "view",
      "type": "function"
    },
    {
      "inputs": [
        {
          "internalType": "address[]",
          "name": "_addresses",
          "type": "address[]"
        },
        {
          "internalType": "uint256[]",
          "name": "_weights",
          "type": "uint256[]"
        },
        {
          "internalType": "uint256",
          "name": "_totalWeight",
          "type": "uint256"
        },
        {
          "internalType": "uint256",
          "name": "_epochId",
          "type": "uint256"
        },
        {
          "internalType": "address",
          "name": "_ftso",
          "type": "address"
        },
        {
          "internalType": "uint256",
          "name": "_priceEpochDurationSeconds",
          "type": "uint256"
        },
        {
          "internalType": "uint256",
          "name": "_currentRewardEpoch",
          "type": "uint256"
        },
        {
          "internalType": "uint256",
          "name": "_priceEpochEndTime",
          "type": "uint256"
        },
        {
          "internalType": "uint256",
          "name": "_votePowerBlock",
          "type": "uint256"
        }
      ],
      "name": "distributeRewards",
      "outputs": [],
      "stateMutability": "nonpayable",
      "type": "function"
    },
    {
      "inputs": [],
      "name": "feePercentageUpdateOffset",
      "outputs": [
        {
          "internalType": "uint256",
          "name": "",
          "type": "uint256"
        }
      ],
      "stateMutability": "view",
      "type": "function"
    },
    {
      "inputs": [],
      "name": "ftsoManager",
      "outputs": [
        {
          "internalType": "contract IIFtsoManager",
          "name": "",
          "type": "address"
        }
      ],
      "stateMutability": "view",
      "type": "function"
    },
    {
      "inputs": [
        {
          "internalType": "uint256",
          "name": "_rewardEpoch",
          "type": "uint256"
        },
        {
          "internalType": "address",
          "name": "_dataProvider",
          "type": "address"
        },
        {
          "internalType": "address",
          "name": "_claimer",
          "type": "address"
        }
      ],
      "name": "getClaimedReward",
      "outputs": [
        {
          "internalType": "bool",
          "name": "_claimed",
          "type": "bool"
        },
        {
          "internalType": "uint256",
          "name": "_amount",
          "type": "uint256"
        }
      ],
      "stateMutability": "view",
      "type": "function"
    },
    {
      "inputs": [
        {
          "internalType": "address",
          "name": "_dataProvider",
          "type": "address"
        }
      ],
      "name": "getDataProviderCurrentFeePercentage",
      "outputs": [
        {
          "internalType": "uint256",
          "name": "",
          "type": "uint256"
        }
      ],
      "stateMutability": "view",
      "type": "function"
    },
    {
      "inputs": [
        {
          "internalType": "address",
          "name": "_dataProvider",
          "type": "address"
        }
      ],
      "name": "getDataProviderScheduledFeePercentageChanges",
      "outputs": [
        {
          "internalType": "uint256[]",
          "name": "_feePercentageBIPS",
          "type": "uint256[]"
        },
        {
          "internalType": "uint256[]",
          "name": "_validFromEpoch",
          "type": "uint256[]"
        },
        {
          "internalType": "bool[]",
          "name": "_fixed",
          "type": "bool[]"
        }
      ],
      "stateMutability": "view",
      "type": "function"
    },
    {
      "inputs": [
        {
          "internalType": "uint256",
          "name": "_rewardEpoch",
          "type": "uint256"
        }
      ],
      "name": "getEpochReward",
      "outputs": [
        {
          "internalType": "uint256",
          "name": "_totalReward",
          "type": "uint256"
        },
        {
          "internalType": "uint256",
          "name": "_claimedReward",
          "type": "uint256"
        }
      ],
      "stateMutability": "view",
      "type": "function"
    },
    {
      "inputs": [],
      "name": "getEpochsWithClaimableRewards",
      "outputs": [
        {
          "internalType": "uint256",
          "name": "_startEpochId",
          "type": "uint256"
        },
        {
          "internalType": "uint256",
          "name": "_endEpochId",
          "type": "uint256"
        }
      ],
      "stateMutability": "view",
      "type": "function"
    },
    {
      "inputs": [
        {
          "internalType": "address",
          "name": "_beneficiary",
          "type": "address"
        }
      ],
      "name": "getEpochsWithUnclaimedRewards",
      "outputs": [
        {
          "internalType": "uint256[]",
          "name": "_epochIds",
          "type": "uint256[]"
        }
      ],
      "stateMutability": "view",
      "type": "function"
    },
    {
      "inputs": [],
      "name": "getInflationAddress",
      "outputs": [
        {
          "internalType": "address",
          "name": "",
          "type": "address"
        }
      ],
      "stateMutability": "view",
      "type": "function"
    },
    {
      "inputs": [],
      "name": "getRewardEpochToExpireNext",
      "outputs": [
        {
          "internalType": "uint256",
          "name": "",
          "type": "uint256"
        }
      ],
      "stateMutability": "view",
      "type": "function"
    },
    {
      "inputs": [
        {
          "internalType": "address",
          "name": "_beneficiary",
          "type": "address"
        },
        {
          "internalType": "uint256",
          "name": "_rewardEpoch",
          "type": "uint256"
        }
      ],
      "name": "getStateOfRewards",
      "outputs": [
        {
          "internalType": "address[]",
          "name": "_dataProviders",
          "type": "address[]"
        },
        {
          "internalType": "uint256[]",
          "name": "_rewardAmounts",
          "type": "uint256[]"
        },
        {
          "internalType": "bool[]",
          "name": "_claimed",
          "type": "bool[]"
        },
        {
          "internalType": "bool",
          "name": "_claimable",
          "type": "bool"
        }
      ],
      "stateMutability": "view",
      "type": "function"
    },
    {
      "inputs": [
        {
          "internalType": "address",
          "name": "_beneficiary",
          "type": "address"
        },
        {
          "internalType": "uint256",
          "name": "_rewardEpoch",
          "type": "uint256"
        },
        {
          "internalType": "address[]",
          "name": "_dataProviders",
          "type": "address[]"
        }
      ],
      "name": "getStateOfRewardsFromDataProviders",
      "outputs": [
        {
          "internalType": "uint256[]",
          "name": "_rewardAmounts",
          "type": "uint256[]"
        },
        {
          "internalType": "bool[]",
          "name": "_claimed",
          "type": "bool[]"
        },
        {
          "internalType": "bool",
          "name": "_claimable",
          "type": "bool"
        }
      ],
      "stateMutability": "view",
      "type": "function"
    },
    {
      "inputs": [],
      "name": "getTokenPoolSupplyData",
      "outputs": [
        {
          "internalType": "uint256",
          "name": "_foundationAllocatedFundsWei",
          "type": "uint256"
        },
        {
          "internalType": "uint256",
          "name": "_totalInflationAuthorizedWei",
          "type": "uint256"
        },
        {
          "internalType": "uint256",
          "name": "_totalClaimedWei",
          "type": "uint256"
        }
      ],
      "stateMutability": "view",
      "type": "function"
    },
    {
      "inputs": [
        {
          "internalType": "uint256",
          "name": "_rewardEpoch",
          "type": "uint256"
        },
        {
          "internalType": "address",
          "name": "_dataProvider",
          "type": "address"
        }
      ],
      "name": "getUnclaimedReward",
      "outputs": [
        {
          "internalType": "uint256",
          "name": "_amount",
          "type": "uint256"
        },
        {
          "internalType": "uint256",
          "name": "_weight",
          "type": "uint256"
        }
      ],
      "stateMutability": "view",
      "type": "function"
    },
    {
      "inputs": [],
      "name": "governance",
      "outputs": [
        {
          "internalType": "address",
          "name": "",
          "type": "address"
        }
      ],
      "stateMutability": "view",
      "type": "function"
    },
    {
      "inputs": [
        {
          "internalType": "address",
          "name": "_governance",
          "type": "address"
        }
      ],
      "name": "initialise",
      "outputs": [],
      "stateMutability": "nonpayable",
      "type": "function"
    },
    {
      "inputs": [],
      "name": "lastInflationAuthorizationReceivedTs",
      "outputs": [
        {
          "internalType": "uint256",
          "name": "",
          "type": "uint256"
        }
      ],
      "stateMutability": "view",
      "type": "function"
    },
    {
      "inputs": [
        {
          "internalType": "address",
          "name": "_governance",
          "type": "address"
        }
      ],
      "name": "proposeGovernance",
      "outputs": [],
      "stateMutability": "nonpayable",
      "type": "function"
    },
    {
      "inputs": [],
      "name": "proposedGovernance",
      "outputs": [
        {
          "internalType": "address",
          "name": "",
          "type": "address"
        }
      ],
      "stateMutability": "view",
      "type": "function"
    },
    {
      "inputs": [],
      "name": "receiveInflation",
      "outputs": [],
      "stateMutability": "payable",
      "type": "function"
    },
    {
      "inputs": [
        {
          "internalType": "address",
          "name": "_inflation",
          "type": "address"
        },
        {
          "internalType": "contract IIFtsoManager",
          "name": "_ftsoManager",
          "type": "address"
        },
        {
          "internalType": "contract WNat",
          "name": "_wNat",
          "type": "address"
        }
      ],
      "name": "setContractAddresses",
      "outputs": [],
      "stateMutability": "nonpayable",
      "type": "function"
    },
    {
      "inputs": [
        {
          "internalType": "uint256",
          "name": "_toAuthorizeWei",
          "type": "uint256"
        }
      ],
      "name": "setDailyAuthorizedInflation",
      "outputs": [],
      "stateMutability": "nonpayable",
      "type": "function"
    },
    {
      "inputs": [
        {
          "internalType": "uint256",
          "name": "_feePercentageBIPS",
          "type": "uint256"
        }
      ],
      "name": "setDataProviderFeePercentage",
      "outputs": [
        {
          "internalType": "uint256",
          "name": "",
          "type": "uint256"
        }
      ],
      "stateMutability": "nonpayable",
      "type": "function"
    },
    {
      "inputs": [],
      "name": "totalAwardedWei",
      "outputs": [
        {
          "internalType": "uint256",
          "name": "",
          "type": "uint256"
        }
      ],
      "stateMutability": "view",
      "type": "function"
    },
    {
      "inputs": [],
      "name": "totalClaimedWei",
      "outputs": [
        {
          "internalType": "uint256",
          "name": "",
          "type": "uint256"
        }
      ],
      "stateMutability": "view",
      "type": "function"
    },
    {
      "inputs": [],
      "name": "totalExpiredWei",
      "outputs": [
        {
          "internalType": "uint256",
          "name": "",
          "type": "uint256"
        }
      ],
      "stateMutability": "view",
      "type": "function"
    },
    {
      "inputs": [],
      "name": "totalInflationAuthorizedWei",
      "outputs": [
        {
          "internalType": "uint256",
          "name": "",
          "type": "uint256"
        }
      ],
      "stateMutability": "view",
      "type": "function"
    },
    {
      "inputs": [],
      "name": "totalInflationReceivedWei",
      "outputs": [
        {
          "internalType": "uint256",
          "name": "",
          "type": "uint256"
        }
      ],
      "stateMutability": "view",
      "type": "function"
    },
    {
      "inputs": [],
      "name": "totalSelfDestructReceivedWei",
      "outputs": [
        {
          "internalType": "uint256",
          "name": "",
          "type": "uint256"
        }
      ],
      "stateMutability": "view",
      "type": "function"
    },
    {
      "inputs": [
        {
          "internalType": "address",
          "name": "_governance",
          "type": "address"
        }
      ],
      "name": "transferGovernance",
      "outputs": [],
      "stateMutability": "nonpayable",
      "type": "function"
    },
    {
      "inputs": [],
      "name": "wNat",
      "outputs": [
        {
          "internalType": "contract WNat",
          "name": "",
          "type": "address"
        }
      ],
      "stateMutability": "view",
      "type": "function"
    }
  ],
  "bytecode": "0x60c06040523480156200001157600080fd5b50604051620044ed380380620044ed833981810160405260608110156200003757600080fd5b508051602082015160409092015190919082806001600160a01b0381161562000065576200006581620000cb565b506001600160a01b038116620000b5576040805162461bcd60e51b815260206004820152601060248201526f5f676f7665726e616e6365207a65726f60801b604482015290519081900360640190fd5b50600160025560809190915260a05250620001af565b600154600160a01b900460ff16156200012b576040805162461bcd60e51b815260206004820152601460248201527f696e697469616c6973656420213d2066616c7365000000000000000000000000604482015290519081900360640190fd5b6001805460ff60a01b1916600160a01b179055600054604080516001600160a01b039283168152918316602083015280517f434a2db650703b36c824e745330d6397cdaa9ee2cc891a4938ae853e1c50b68d9281900390910190a1600080546001600160a01b039092166001600160a01b0319928316179055600180549091169055565b60805160a05161430b620001e2600039806123b35280613b7652508061119e52806113fa5280611677525061430b6000f3fe6080604052600436106102465760003560e01c806385b4c53811610139578063b4a2043d116100b6578063d38bfff41161007a578063d38bfff414610c33578063d418634a14610c66578063d6c1dbee14610c90578063e273956314610cba578063e416b7e114610ce4578063ed39d3f814610e4957610246565b8063b4a2043d146109f5578063c373a08e14610a78578063cfbcd25f14610aab578063d0c1c39314610ade578063d20bb54214610af357610246565b8063a4472c10116100fd578063a4472c1014610690578063a5555aea146107b0578063a9b79e17146107c5578063b2af870a14610922578063b4824034146109e057610246565b806385b4c538146105925780638ab63380146105ee5780639d6a890f146106335780639edbf007146106665780639f71043e1461067b57610246565b80633e7ff857116101c75780635de8b2f31161018b5780635de8b2f31461050557806360f7ac971461051a578063657d96951461052f578063708e34ce14610568578063729936151461057d57610246565b80633e7ff8571461049c578063473252c4146104b157806351b42b00146104c65780635aa6e675146104db5780635d36b190146104f057610246565b806311a7aaaa1161020e57806311a7aaaa146102e857806316e693281461031957806316fe49c7146103435780632dafdbbf1461035857806333b7971e1461038b57610246565b806302fb0c5e1461024b5780630441218e1461027457806306201f1d146102a25780630cc2a8fe146102ac5780630f15f4c0146102d3575b600080fd5b34801561025757600080fd5b50610260610e5e565b604080519115158252519081900360200190f35b34801561028057600080fd5b50610289610e67565b6040805192835260208301919091528051918290030190f35b6102aa610e7b565b005b3480156102b857600080fd5b506102c161100f565b60408051918252519081900360200190f35b3480156102df57600080fd5b506102aa611015565b3480156102f457600080fd5b506102fd611100565b604080516001600160a01b039092168252519081900360200190f35b34801561032557600080fd5b506102c16004803603602081101561033c57600080fd5b503561110f565b34801561034f57600080fd5b506102c16113f8565b34801561036457600080fd5b5061036d61141c565b60408051938452602084019290925282820152519081900360600190f35b34801561039757600080fd5b506103be600480360360208110156103ae57600080fd5b50356001600160a01b0316611427565b60405180806020018060200180602001848103845287818151815260200191508051906020019060200280838360005b838110156104065781810151838201526020016103ee565b50505050905001848103835286818151815260200191508051906020019060200280838360005b8381101561044557818101518382015260200161042d565b50505050905001848103825285818151815260200191508051906020019060200280838360005b8381101561048457818101518382015260200161046c565b50505050905001965050505050505060405180910390f35b3480156104a857600080fd5b506102c16116e0565b3480156104bd57600080fd5b506102c16116e6565b3480156104d257600080fd5b506102aa6116ec565b3480156104e757600080fd5b506102fd611749565b3480156104fc57600080fd5b506102aa611758565b34801561051157600080fd5b506102c161181a565b34801561052657600080fd5b506102fd611820565b34801561053b57600080fd5b506102896004803603604081101561055257600080fd5b50803590602001356001600160a01b031661182f565b34801561057457600080fd5b506102c161186b565b34801561058957600080fd5b506102c1611871565b34801561059e57600080fd5b506105d3600480360360608110156105b557600080fd5b508035906001600160a01b0360208201358116916040013516611877565b60408051921515835260208301919091528051918290030190f35b3480156105fa57600080fd5b506102aa6004803603606081101561061157600080fd5b506001600160a01b0381358116916020810135821691604090910135166118b3565b34801561063f57600080fd5b506102aa6004803603602081101561065657600080fd5b50356001600160a01b0316611aae565b34801561067257600080fd5b506102fd611b88565b34801561068757600080fd5b506102c1611b97565b34801561069c57600080fd5b506106c9600480360360408110156106b357600080fd5b506001600160a01b038135169060200135611b9d565b604051808060200180602001806020018515158152602001848103845288818151815260200191508051906020019060200280838360005b83811015610719578181015183820152602001610701565b50505050905001848103835287818151815260200191508051906020019060200280838360005b83811015610758578181015183820152602001610740565b50505050905001848103825286818151815260200191508051906020019060200280838360005b8381101561079757818101518382015260200161077f565b5050505090500197505050505050505060405180910390f35b3480156107bc57600080fd5b506102c1611c6c565b3480156107d157600080fd5b506102aa60048036036101208110156107e957600080fd5b810190602081018135600160201b81111561080357600080fd5b82018360208201111561081557600080fd5b803590602001918460208302840111600160201b8311171561083657600080fd5b9190808060200260200160405190810160405280939291908181526020018383602002808284376000920191909152509295949360208101935035915050600160201b81111561088557600080fd5b82018360208201111561089757600080fd5b803590602001918460208302840111600160201b831117156108b857600080fd5b919080806020026020016040519081016040528093929190818152602001838360200280828437600092019190915250929550508235935050506020810135906001600160a01b036040820135169060608101359060808101359060a08101359060c00135611c72565b34801561092e57600080fd5b506102c16004803603604081101561094557600080fd5b6001600160a01b038235169190810190604081016020820135600160201b81111561096f57600080fd5b82018360208201111561098157600080fd5b803590602001918460208302840111600160201b831117156109a257600080fd5b9190808060200260200160405190810160405280939291908181526020018383602002808284376000920191909152509295506120fc945050505050565b3480156109ec57600080fd5b506102c16123b1565b348015610a0157600080fd5b50610a2860048036036020811015610a1857600080fd5b50356001600160a01b03166123d5565b60408051602080825283518183015283519192839290830191858101910280838360005b83811015610a64578181015183820152602001610a4c565b505050509050019250505060405180910390f35b348015610a8457600080fd5b506102aa60048036036020811015610a9b57600080fd5b50356001600160a01b031661257a565b348015610ab757600080fd5b506102c160048036036020811015610ace57600080fd5b50356001600160a01b031661261f565b348015610aea57600080fd5b506102c16126aa565b348015610aff57600080fd5b506102c160048036036060811015610b1657600080fd5b6001600160a01b038235169190810190604081016020820135600160201b811115610b4057600080fd5b820183602082011115610b5257600080fd5b803590602001918460208302840111600160201b83111715610b7357600080fd5b9190808060200260200160405190810160405280939291908181526020018383602002808284376000920191909152509295949360208101935035915050600160201b811115610bc257600080fd5b820183602082011115610bd457600080fd5b803590602001918460208302840111600160201b83111715610bf557600080fd5b9190808060200260200160405190810160405280939291908181526020018383602002808284376000920191909152509295506126b0945050505050565b348015610c3f57600080fd5b506102aa60048036036020811015610c5657600080fd5b50356001600160a01b0316612951565b348015610c7257600080fd5b5061028960048036036020811015610c8957600080fd5b5035612a13565b348015610c9c57600080fd5b506102aa60048036036020811015610cb357600080fd5b5035612a32565b348015610cc657600080fd5b506102aa60048036036020811015610cdd57600080fd5b5035612b6e565b348015610cf057600080fd5b50610da760048036036060811015610d0757600080fd5b6001600160a01b0382351691602081013591810190606081016040820135600160201b811115610d3657600080fd5b820183602082011115610d4857600080fd5b803590602001918460208302840111600160201b83111715610d6957600080fd5b919080806020026020016040519081016040528093929190818152602001838360200280828437600092019190915250929550612c3d945050505050565b6040518080602001806020018415158152602001838103835286818151815260200191508051906020019060200280838360005b83811015610df3578181015183820152602001610ddb565b50505050905001838103825285818151815260200191508051906020019060200280838360005b83811015610e32578181015183820152602001610e1a565b505050509050019550505050505060405180910390f35b348015610e5557600080fd5b506102fd612d06565b60035460ff1681565b600080610e72612d15565b90939092509050565b60155460408051808201909152600e81526d696e666c6174696f6e206f6e6c7960901b6020820152906001600160a01b03163314610f375760405162461bcd60e51b81526004018080602001828103825283818151815260200191508051906020019080838360005b83811015610efc578181015183820152602001610ee4565b50505050905090810190601f168015610f295780820380516001836020036101000a031916815260200191505b509250505060405180910390fd5b506000610f42612e1c565b50600f54909150610f539034612e76565b600f5560138190556040805134815290517f95c4e29cc99bc027cfc3cd719d6fd973d5f0317061885fbb322b9b17d8d35d379181900360200190a150610f97612ed7565b47146040518060400160405280600e81526020016d6f7574206f662062616c616e636560901b8152509061100c5760405162461bcd60e51b8152602060048201818152835160248401528351909283926044909101919085019080838360008315610efc578181015183820152602001610ee4565b50565b600d5481565b6000546001600160a01b03163314611066576040805162461bcd60e51b815260206004820152600f60248201526e6f6e6c7920676f7665726e616e636560881b604482015290519081900360640190fd5b6015546001600160a01b03161580159061108a57506014546001600160a01b031615155b80156110a057506016546001600160a01b031615155b6110f1576040805162461bcd60e51b815260206004820152601a60248201527f636f6e747261637420616464726573736573206e6f7420736574000000000000604482015290519081900360640190fd5b6003805460ff19166001179055565b6014546001600160a01b031681565b60006127108211156040518060400160405280601c81526020017f696e76616c6964206665652070657263656e746167652076616c756500000000815250906111995760405162461bcd60e51b8152602060048201818152835160248401528351909283926044909101919085019080838360008315610efc578181015183820152602001610ee4565b5060007f0000000000000000000000000000000000000000000000000000000000000000601460009054906101000a90046001600160a01b03166001600160a01b031663e7c830d46040518163ffffffff1660e01b815260040160206040518083038186803b15801561120b57600080fd5b505afa15801561121f573d6000803e3d6000fd5b505050506040513d602081101561123557600080fd5b5051336000908152600a60205260409020805492909101925090801561132d5781600182038154811061126457fe5b9060005260206000200160000160029054906101000a90046001600160f01b03166001600160f01b03168310156040518060600160405280602181526020016142b560219139906112f65760405162461bcd60e51b8152602060048201818152835160248401528351909283926044909101919085019080838360008315610efc578181015183820152602001610ee4565b5081600182038154811061130657fe5b6000918252602090912001546201000090046001600160f01b031683141561132d57600019015b8154811415611343578154600101825560008290525b8482828154811061135057fe5b6000918252602090912001805461ffff191661ffff92909216919091179055600160f01b831061137c57fe5b8282828154811061138957fe5b60009182526020918290200180546001600160f01b0393909316620100000261ffff9093169290921790915560408051878152918201859052805133927fd89f05622c2dcb0b4fcaa19e62fc2a2b0923955685fb7b0c641467f764244abc92908290030190a250909392505050565b7f000000000000000000000000000000000000000000000000000000000000000081565b600e54600c54600092565b6001600160a01b0381166000908152600a6020526040902080546060918291829190156116d857601454604080516339f20c3560e21b815290516000926001600160a01b03169163e7c830d4916004808301926020929190829003018186803b15801561149357600080fd5b505afa1580156114a7573d6000803e3d6000fd5b505050506040513d60208110156114bd57600080fd5b505182549091505b6000811180156114fd5750818360018303815481106114e057fe5b6000918252602090912001546201000090046001600160f01b0316115b1561150b57600019016114c5565b825481900380156116d457806001600160401b038111801561152c57600080fd5b50604051908082528060200260200182016040528015611556578160200160208202803683370190505b509650806001600160401b038111801561156f57600080fd5b50604051908082528060200260200182016040528015611599578160200160208202803683370190505b509550806001600160401b03811180156115b257600080fd5b506040519080825280602002602001820160405280156115dc578160200160208202803683370190505b50945060005b818110156116d25784838201815481106115f857fe5b600091825260209091200154885161ffff9091169089908390811061161957fe5b602002602001018181525050848382018154811061163357fe5b9060005260206000200160000160029054906101000a90046001600160f01b03166001600160f01b031687828151811061166957fe5b6020026020010181815250507f0000000000000000000000000000000000000000000000000000000000000000848883815181106116a357fe5b60200260200101510314158682815181106116ba57fe5b911515602092830291909101909101526001016115e2565b505b5050505b509193909250565b60045490565b60115481565b6000546001600160a01b0316331461173d576040805162461bcd60e51b815260206004820152600f60248201526e6f6e6c7920676f7665726e616e636560881b604482015290519081900360640190fd5b6003805460ff19169055565b6000546001600160a01b031681565b6001546001600160a01b031633146117a7576040805162461bcd60e51b815260206004820152600d60248201526c1b9bdd0818db185a5b585a5b9d609a1b604482015290519081900360640190fd5b600054600154604080516001600160a01b03938416815292909116602083015280517f434a2db650703b36c824e745330d6397cdaa9ee2cc891a4938ae853e1c50b68d9281900390910190a160018054600080546001600160a01b03199081166001600160a01b03841617909155169055565b600b5481565b6001546001600160a01b031681565b60008281526006602090815260408083206001600160a01b03909416808452938252808320549483526005825280832093835292905220549091565b60125481565b60105481565b60009283526007602090815260408085206001600160a01b0394851686528252808520929093168452529020805460019091015460ff90911691565b6000546001600160a01b03163314611904576040805162461bcd60e51b815260206004820152600f60248201526e6f6e6c7920676f7665726e616e636560881b604482015290519081900360640190fd5b60408051808201909152600e81526d696e666c6174696f6e207a65726f60901b60208201526001600160a01b03841661197e5760405162461bcd60e51b8152602060048201818152835160248401528351909283926044909101919085019080838360008315610efc578181015183820152602001610ee4565b5060408051808201909152600f81526e373790333a39b79036b0b730b3b2b960891b60208201526001600160a01b0383166119fa5760405162461bcd60e51b8152602060048201818152835160248401528351909283926044909101919085019080838360008315610efc578181015183820152602001610ee4565b506040805180820190915260078152661b9bc81dd3985d60ca1b60208201526001600160a01b038216611a6e5760405162461bcd60e51b8152602060048201818152835160248401528351909283926044909101919085019080838360008315610efc578181015183820152602001610ee4565b50601580546001600160a01b039485166001600160a01b031991821617909155601480549385169382169390931790925560168054919093169116179055565b600154600160a01b900460ff1615611b04576040805162461bcd60e51b8152602060048201526014602482015273696e697469616c6973656420213d2066616c736560601b604482015290519081900360640190fd5b6001805460ff60a01b1916600160a01b179055600054604080516001600160a01b039283168152918316602083015280517f434a2db650703b36c824e745330d6397cdaa9ee2cc891a4938ae853e1c50b68d9281900390910190a1600080546001600160a01b039092166001600160a01b0319928316179055600180549091169055565b6016546001600160a01b031681565b600c5481565b6060806060600080601460009054906101000a90046001600160a01b03166001600160a01b031663e7c830d46040518163ffffffff1660e01b815260040160206040518083038186803b158015611bf357600080fd5b505afa158015611c07573d6000803e3d6000fd5b505050506040513d6020811015611c1d57600080fd5b50519050611c2b8682612efb565b91508180611c3857508086145b15611c62576000611c4b88886000612f23565b805160408201516060909201519097509095509350505b5092959194509250565b600f5481565b6014546040805180820190915260118152706674736f206d616e61676572206f6e6c7960781b6020820152906001600160a01b03163314611cf45760405162461bcd60e51b8152602060048201818152835160248401528351909283926044909101919085019080838360008315610efc578181015183820152602001610ee4565b508615801590611d045750885115155b611d0a57fe5b6000611d27611d1984876135f6565b611d216136a7565b906136cc565b905060008a516001600160401b0381118015611d4257600080fd5b50604051908082528060200260200182016040528015611d6c578160200160208202803683370190505b5090508181600081518110611d7d57fe5b602002602001018181525050888a600081518110611d9757fe5b60209081029190910101528a51600019015b611df98b8281518110611db857fe5b60200260200101518c600081518110611dcd57fe5b602002602001015184600081518110611de257fe5b60200260200101516137339092919063ffffffff16565b828281518110611e0557fe5b602002602001018181525050818181518110611e1d57fe5b60200260200101516006600088815260200190815260200160002060008e8481518110611e4657fe5b60200260200101516001600160a01b03166001600160a01b0316815260200190815260200160002060008282540192505081905550611f30612710601660009054906101000a90046001600160a01b03166001600160a01b03166392bfe6d88f8581518110611eb157fe5b6020026020010151886040518363ffffffff1660e01b815260040180836001600160a01b031681526020018281526020019250505060206040518083038186803b158015611efe57600080fd5b505afa158015611f12573d6000803e3d6000fd5b505050506040513d6020811015611f2857600080fd5b505190613839565b6005600088815260200190815260200160002060008e8481518110611f5157fe5b60200260200101516001600160a01b03166001600160a01b03168152602001908152602001600020819055508060001415611f8b57611ffa565b818181518110611f9757fe5b602002602001015182600081518110611fac57fe5b6020026020010181815103915081815250508a8181518110611fca57fe5b60200260200101518b600081518110611fdf57fe5b60209081029190910101805191909103905260001901611da9565b6000868152600860205260409020805484019055600b5461201b9084612e76565b600b81905550876001600160a01b03167f8b2bc56c62594afde5b520e83e1ca19ebd071798db21382e328014f47b31ce578a8e85604051808481526020018060200180602001838103835285818151815260200191508051906020019060200280838360005b83811015612099578181015183820152602001612081565b50505050905001838103825284818151815260200191508051906020019060200280838360005b838110156120d85781810151838201526020016120c0565b505050509050019550505050505060405180910390a2505050505050505050505050565b60035460408051808201909152601a81527f726577617264206d616e61676572206465616374697661746564000000000000602082015260009160ff166121845760405162461bcd60e51b8152602060048201818152835160248401528351909283926044909101919085019080838360008315610efc578181015183820152602001610ee4565b506002805414156121dc576040805162461bcd60e51b815260206004820152601f60248201527f5265656e7472616e637947756172643a207265656e7472616e742063616c6c00604482015290519081900360640190fd5b600280556121e8612e1c565b5050601454604080516339f20c3560e21b815290516000926001600160a01b03169163e7c830d4916004808301926020929190829003018186803b15801561222f57600080fd5b505afa158015612243573d6000803e3d6000fd5b505050506040513d602081101561225957600080fd5b5051905060005b83518110156123185761228684828151811061227857fe5b602002602001015183612efb565b61228f57612310565b60006122b0338684815181106122a157fe5b60200260200101516001612f23565b905060006122d2878785815181106122c457fe5b602002602001015184613892565b905080600960008886815181106122e557fe5b6020026020010151815260200190815260200160002060008282540192505081905550808501945050505b600101612260565b506123238483613a1e565b50476013556001600255612335612ed7565b47146040518060400160405280600e81526020016d6f7574206f662062616c616e636560901b815250906123aa5760405162461bcd60e51b8152602060048201818152835160248401528351909283926044909101919085019080838360008315610efc578181015183820152602001610ee4565b5092915050565b7f000000000000000000000000000000000000000000000000000000000000000081565b60606000806123e2612d15565b90925090506001828203016000816001600160401b038111801561240557600080fd5b5060405190808252806020026020018201604052801561242f578160200160208202803683370190505b5090506000805b838110156124dc57600061244e898389016001612f23565b905060005b8160600151518110156124d2578160600151818151811061247057fe5b602002602001015115801561249c575060008260400151828151811061249257fe5b6020026020010151115b156124ca5760018584815181106124af57fe5b911515602092830291909101909101526001909301926124d2565b600101612453565b5050600101612436565b50806001600160401b03811180156124f357600080fd5b5060405190808252806020026020018201604052801561251d578160200160208202803683370190505b5095506000805b8481101561256e5783818151811061253857fe5b6020026020010151156125665780870188838151811061255457fe5b60209081029190910101526001909101905b600101612524565b50505050505050919050565b6000546001600160a01b031633146125cb576040805162461bcd60e51b815260206004820152600f60248201526e6f6e6c7920676f7665726e616e636560881b604482015290519081900360640190fd5b600180546001600160a01b0383166001600160a01b0319909116811790915560408051918252517f1f95fb40be3a947982072902a887b521248d1d8931a39eb38f84f4d6fd758b699181900360200190a150565b60006126a482601460009054906101000a90046001600160a01b03166001600160a01b031663e7c830d46040518163ffffffff1660e01b815260040160206040518083038186803b15801561267357600080fd5b505afa158015612687573d6000803e3d6000fd5b505050506040513d602081101561269d57600080fd5b5051613af1565b92915050565b600e5481565b60035460408051808201909152601a81527f726577617264206d616e61676572206465616374697661746564000000000000602082015260009160ff166127385760405162461bcd60e51b8152602060048201818152835160248401528351909283926044909101919085019080838360008315610efc578181015183820152602001610ee4565b50600280541415612790576040805162461bcd60e51b815260206004820152601f60248201527f5265656e7472616e637947756172643a207265656e7472616e742063616c6c00604482015290519081900360640190fd5b6002805561279c612e1c565b5050601454604080516339f20c3560e21b815290516000926001600160a01b03169163e7c830d4916004808301926020929190829003018186803b1580156127e357600080fd5b505afa1580156127f7573d6000803e3d6000fd5b505050506040513d602081101561280d57600080fd5b5051905060005b84518110156128b75761282c85828151811061227857fe5b612835576128af565b61283d614254565b61285d3387848151811061284d57fe5b6020026020010151876001613b9d565b90506000612871888885815181106122c457fe5b9050806009600089868151811061288457fe5b6020026020010151815260200190815260200160002060008282540192505081905550808501945050505b600101612814565b506128c28583613a1e565b504760135560016002556128d4612ed7565b47146040518060400160405280600e81526020016d6f7574206f662062616c616e636560901b815250906129495760405162461bcd60e51b8152602060048201818152835160248401528351909283926044909101919085019080838360008315610efc578181015183820152602001610ee4565b509392505050565b6000546001600160a01b031633146129a2576040805162461bcd60e51b815260206004820152600f60248201526e6f6e6c7920676f7665726e616e636560881b604482015290519081900360640190fd5b600054604080516001600160a01b039283168152918316602083015280517f434a2db650703b36c824e745330d6397cdaa9ee2cc891a4938ae853e1c50b68d9281900390910190a1600080546001600160a01b039092166001600160a01b0319928316179055600180549091169055565b6000908152600860209081526040808320546009909252909120549091565b6014546040805180820190915260118152706674736f206d616e61676572206f6e6c7960781b6020820152906001600160a01b03163314612ab45760405162461bcd60e51b8152602060048201818152835160248401528351909283926044909101919085019080838360008315610efc578181015183820152602001610ee4565b508060045414612b03576040805162461bcd60e51b81526020600482015260156024820152741ddc9bdb99c81c995dd85c9908195c1bd8da081a59605a1b604482015290519081900360640190fd5b600081815260096020908152604080832054600890925290912054600d5491900390612b2f9082612e76565b600d556040805183815290517f5d05c64f281304391697cf987812e1a736413a062a9bdf39af4102209eb6fa589181900360200190a150600101600455565b60155460408051808201909152600e81526d696e666c6174696f6e206f6e6c7960901b6020820152906001600160a01b03163314612bed5760405162461bcd60e51b8152602060048201818152835160248401528351909283926044909101919085019080838360008315610efc578181015183820152602001610ee4565b506012819055600e54612c009082612e76565b600e55426011556040805182815290517f187f32a0f765499f15b3bb52ed0aebf6015059f230f2ace7e701e60a476695959181900360200190a150565b606080600080601460009054906101000a90046001600160a01b03166001600160a01b031663e7c830d46040518163ffffffff1660e01b815260040160206040518083038186803b158015612c9157600080fd5b505afa158015612ca5573d6000803e3d6000fd5b505050506040513d6020811015612cbb57600080fd5b50519050612cc98682612efb565b91508180612cd657508086145b15612cfc576000612cea8888886000613b9d565b90508060400151945080606001519350505b5093509350939050565b6015546001600160a01b031690565b60048054601454604080516339f20c3560e21b81529051929360009384936001600160a01b03169263e7c830d49281810192602092909190829003018186803b158015612d6157600080fd5b505afa158015612d75573d6000803e3d6000fd5b505050506040513d6020811015612d8b57600080fd5b505160408051808201909152601f81527f6e6f2065706f6368207769746820636c61696d61626c65207265776172647300602082015290915081612e105760405162461bcd60e51b8152602060048201818152835160248401528351909283926044909101919085019080838360008315610efc578181015183820152602001610ee4565b50600181039150509091565b600080612e3434601354612e7690919063ffffffff16565b905047915080821115612e6857612e6081612e5a84601054612e7690919063ffffffff16565b90613f46565b601055612e72565b80821015612e7257fe5b9091565b600082820183811015612ed0576040805162461bcd60e51b815260206004820152601b60248201527f536166654d6174683a206164646974696f6e206f766572666c6f770000000000604482015290519081900360640190fd5b9392505050565b6000612ef6600c54612e5a601054600f54612e7690919063ffffffff16565b905090565b6000600454831080612f0d5750818310155b15612f1a575060006126a4565b50600192915050565b612f2b614254565b60145460408051637976d5ad60e11b81526004810186905290516000926001600160a01b03169163f2edab5a916024808301926020929190829003018186803b158015612f7757600080fd5b505afa158015612f8b573d6000803e3d6000fd5b505050506040513d6020811015612fa157600080fd5b505190506000612fb2858780613fa3565b90506000612fbe61427c565b8215612fdf5785612fda57612fd487898a613fd6565b60208201525b612ffd565b612fea888886614009565b9150612ff787898461417f565b60208201525b828061300d575060008160200151115b151581526016546040805163ed475a7960e01b81526001600160a01b038b811660048301526024820188905291516060938493169163ed475a79916044808301926000929190829003018186803b15801561306757600080fd5b505afa15801561307b573d6000803e3d6000fd5b505050506040513d6000823e601f3d908101601f1916820160405260808110156130a457600080fd5b8101908080516040519392919084600160201b8211156130c357600080fd5b9083019060208201858111156130d857600080fd5b82518660208202830111600160201b821117156130f457600080fd5b82525081516020918201928201910280838360005b83811015613121578181015183820152602001613109565b5050505090500160405260200180516040519392919084600160201b82111561314957600080fd5b90830190602082018581111561315e57600080fd5b82518660208202830111600160201b8211171561317a57600080fd5b82525081516020918201928201910280838360005b838110156131a757818101518382015260200161318f565b5050505091909101604052505083518751949650929450919291506131cf90505760006131d2565b60015b60ff16016001600160401b03811180156131eb57600080fd5b50604051908082528060200260200182016040528015613215578160200160208202803683370190505b50808852516001600160401b038111801561322f57600080fd5b50604051908082528060200260200182016040528015613259578160200160208202803683370190505b5060208801528651516001600160401b038111801561327757600080fd5b506040519080825280602002602001820160405280156132a1578160200160208202803683370190505b5060408801528651516001600160401b03811180156132bf57600080fd5b506040519080825280602002602001820160405280156132e9578160200160208202803683370190505b50606088015282511561338d5789876000015160008151811061330857fe5b60200260200101906001600160a01b031690816001600160a01b03168152505084876060015160008151811061333a57fe5b60200260200101901515908115158152505083876020015160008151811061335e57fe5b6020026020010181815250508260200151876040015160008151811061338057fe5b6020026020010181815250505b8151156135e9576016546040805163277166bf60e11b81526001600160a01b038d81166004830152602482018a905291516000939290921691634ee2cd7e91604480820192602092909190829003018186803b1580156133ec57600080fd5b505afa158015613400573d6000803e3d6000fd5b505050506040513d602081101561341657600080fd5b5051905060005b83518110156135e657600081866000015161343957600061343c565b60015b60ff1601905084828151811061344e57fe5b60200260200101518a60000151828151811061346657fe5b60200260200101906001600160a01b031690816001600160a01b0316815250506134a48c86848151811061349657fe5b60200260200101518f613fa3565b8a6060015182815181106134b457fe5b602002602001019015159081151581525050896060015181815181106134d657fe5b602002602001015115613528578a613523576135068c8684815181106134f857fe5b60200260200101518f613fd6565b8a60400151828151811061351657fe5b6020026020010181815250505b6135dd565b61356f85838151811061353757fe5b602002602001015161356986858151811061354e57fe5b6020026020010151612710876137339092919063ffffffff16565b8e614211565b8a60200151828151811061357f57fe5b6020026020010181815250506135c08c86848151811061359b57fe5b60200260200101518c6020015184815181106135b357fe5b602002602001015161417f565b8a6040015182815181106135d057fe5b6020026020010181815250505b5060010161341d565b50505b5050505050509392505050565b6000806136116201517f601154612e7690919063ffffffff16565b905080841115604051806040016040528060118152602001706166746572206461696c79206379636c6560781b8152509061368d5760405162461bcd60e51b8152602060048201818152835160248401528351909283926044909101919085019080838360008315610efc578181015183820152602001610ee4565b5061369c83611d218387613f46565b600101949350505050565b6000612ef66136c3600d54600b54613f4690919063ffffffff16565b600e5490613f46565b6000808211613722576040805162461bcd60e51b815260206004820152601a60248201527f536166654d6174683a206469766973696f6e206279207a65726f000000000000604482015290519081900360640190fd5b81838161372b57fe5b049392505050565b600080821161377c576040805162461bcd60e51b815260206004820152601060248201526f4469766973696f6e206279207a65726f60801b604482015290519081900360640190fd5b8361378957506000612ed0565b8383028385828161379657fe5b0414156137af578281816137a657fe5b04915050612ed0565b60008386816137ba57fe5b04905060008487816137c857fe5b06905060008587816137d657fe5b04905060008688816137e457fe5b06905061382c6137f888611d218685613839565b6138266138058686613839565b6138266138128987613839565b6138268d6138208c8b613839565b90613839565b90612e76565b9998505050505050505050565b600082613848575060006126a4565b8282028284828161385557fe5b0414612ed05760405162461bcd60e51b81526004018080602001828103825260218152602001806142946021913960400191505060405180910390fd5b600080805b835151811015613a1557836060015181815181106138b157fe5b6020026020010151156138c357613a0d565b6000846000015182815181106138d557fe5b602002602001015190506000856020015183815181106138f157fe5b60200260200101519050600081111561392e5760008781526005602090815260408083206001600160a01b03861684529091529020805482900390555b60008660400151848151811061394057fe5b6020026020010151905060008111156139895760008881526006602090815260408083206001600160a01b0387168452909152902080548290039055600c805482019055938401935b60008881526007602090815260408083206001600160a01b038088168086529184528285203380875290855294839020805460ff191660019081178255810187905583518e815294850187905283519095918f169491937f6ec685171a9028d19dc155a48e7824e3c68b03bc8995410e006abe3cbbeb3e2d928290030190a4505050505b600101613897565b50949350505050565b8015613aed576040516000906001600160a01b0384169083908381818185875af1925050503d8060008114613a6f576040519150601f19603f3d011682016040523d82523d6000602084013e613a74565b606091505b50509050806040518060400160405280600c81526020016b18db185a5b4819985a5b195960a21b81525090613aea5760405162461bcd60e51b8152602060048201818152835160248401528351909283926044909101919085019080838360008315610efc578181015183820152602001610ee4565b50505b5050565b6001600160a01b0382166000908152600a6020526040812080545b8015613b7357815460001990910190829082908110613b2757fe5b6000918252602090912001546201000090046001600160f01b03168410613b6e57818181548110613b5457fe5b60009182526020909120015461ffff1692506126a4915050565b613b0c565b507f0000000000000000000000000000000000000000000000000000000000000000949350505050565b613ba5614254565b60145460408051637976d5ad60e11b81526004810187905290516000926001600160a01b03169163f2edab5a916024808301926020929190829003018186803b158015613bf157600080fd5b505afa158015613c05573d6000803e3d6000fd5b505050506040513d6020811015613c1b57600080fd5b50518451858452909150806001600160401b0381118015613c3b57600080fd5b50604051908082528060200260200182016040528015613c65578160200160208202803683370190505b506020840152806001600160401b0381118015613c8157600080fd5b50604051908082528060200260200182016040528015613cab578160200160208202803683370190505b506040840152806001600160401b0381118015613cc757600080fd5b50604051908082528060200260200182016040528015613cf1578160200160208202803683370190505b50606084015260005b81811015613f3b57613d2087878381518110613d1257fe5b60200260200101518a613fa3565b84606001518281518110613d3057fe5b60200260200101901515908115158152505083606001518181518110613d5257fe5b602002602001015115613da45784613d9f57613d8287878381518110613d7457fe5b60200260200101518a613fd6565b84604001518281518110613d9257fe5b6020026020010181815250505b613f33565b876001600160a01b0316868281518110613dba57fe5b60200260200101516001600160a01b03161415613dfd57613ddc888885614009565b84602001518281518110613dec57fe5b602002602001018181525050613eee565b60165486516000916001600160a01b03169063e64767aa908b908a9086908110613e2357fe5b6020026020010151876040518463ffffffff1660e01b815260040180846001600160a01b03168152602001836001600160a01b03168152602001828152602001935050505060206040518083038186803b158015613e8057600080fd5b505afa158015613e94573d6000803e3d6000fd5b505050506040513d6020811015613eaa57600080fd5b50518751909150613ed090889084908110613ec157fe5b6020026020010151828a614211565b85602001518381518110613ee057fe5b602002602001018181525050505b613f1687878381518110613efe57fe5b6020026020010151866020015184815181106135b357fe5b84604001518281518110613f2657fe5b6020026020010181815250505b600101613cfa565b505050949350505050565b600082821115613f9d576040805162461bcd60e51b815260206004820152601e60248201527f536166654d6174683a207375627472616374696f6e206f766572666c6f770000604482015290519081900360640190fd5b50900390565b60009283526007602090815260408085206001600160a01b03948516865282528085209290931684525290205460ff1690565b60009283526007602090815260408085206001600160a01b03948516865282528085209290931684525290206001015490565b60165460408051634181ad4160e11b81526001600160a01b038681166004830152602482018590529151600093849316916383035a82916044808301926020929190829003018186803b15801561405f57600080fd5b505afa158015614073573d6000803e3d6000fd5b505050506040513d602081101561408957600080fd5b505160165460408051631257fcdb60e31b81526001600160a01b03898116600483015260248201889052915193945060009391909216916392bfe6d8916044808301926020929190829003018186803b1580156140e557600080fd5b505afa1580156140f9573d6000803e3d6000fd5b505050506040513d602081101561410f57600080fd5b50519050818114156141305761412781612710613839565b92505050612ed0565b81811161413957fe5b6000821561414f5761414d83612710613839565b015b600061415b8888613af1565b905080156141745761416f84840382613839565b820191505b509695505050505050565b60008161418e57506000612ed0565b60008481526006602090815260408083206001600160a01b0387168452909152902054806141c0576000915050612ed0565b60008581526005602090815260408083206001600160a01b0388168452909152902054838114156141f357509050612ed0565b8084106141fc57fe5b614207828583613733565b9695505050505050565b60008261422057506000612ed0565b60008061422d8685613af1565b9050612710811015613a155761424885612710839003613839565b90910195945050505050565b6040518060800160405280606081526020016060815260200160608152602001606081525090565b60408051808201909152600080825260208201529056fe536166654d6174683a206d756c7469706c69636174696f6e206f766572666c6f776665652070657263656e746167652063616e206e6f742062652075706461746564a2646970667358221220c77332c03f54170b5ac7d2477cae90b33dc94b91c253bacad5a3af23c10b8cb764736f6c63430007060033",
  "linkReferences": {},
  "deployedLinkReferences": {}
}