{
  "_format": "hh-sol-artifact-1",
  "contractName": "FtsoRewardManager",
  "sourceName": "contracts/tokenPools/implementation/FtsoRewardManager.sol",
  "abi": [
    {
      "inputs": [
        {
          "internalType": "address",
          "name": "_governance",
          "type": "address"
        },
        {
          "internalType": "address",
          "name": "_addressUpdater",
          "type": "address"
        },
        {
          "internalType": "address",
          "name": "_oldFtsoRewardManager",
          "type": "address"
        },
        {
          "internalType": "uint256",
          "name": "_feePercentageUpdateOffset",
          "type": "uint256"
        },
        {
          "internalType": "uint256",
          "name": "_defaultFeePercentage",
          "type": "uint256"
        }
      ],
      "stateMutability": "nonpayable",
      "type": "constructor"
    },
    {
      "anonymous": false,
      "inputs": [
        {
          "indexed": false,
          "internalType": "uint256",
          "name": "authorizedAmountWei",
          "type": "uint256"
        }
      ],
      "name": "DailyAuthorizedInflationSet",
      "type": "event"
    },
    {
      "anonymous": false,
      "inputs": [
        {
          "indexed": true,
          "internalType": "address",
          "name": "dataProvider",
          "type": "address"
        },
        {
          "indexed": false,
          "internalType": "uint256",
          "name": "value",
          "type": "uint256"
        },
        {
          "indexed": false,
          "internalType": "uint256",
          "name": "validFromEpoch",
          "type": "uint256"
        }
      ],
      "name": "FeePercentageChanged",
      "type": "event"
    },
    {
      "anonymous": false,
      "inputs": [
        {
          "indexed": false,
          "internalType": "address",
          "name": "proposedGovernance",
          "type": "address"
        }
      ],
      "name": "GovernanceProposed",
      "type": "event"
    },
    {
      "anonymous": false,
      "inputs": [
        {
          "indexed": false,
          "internalType": "address",
          "name": "oldGovernance",
          "type": "address"
        },
        {
          "indexed": false,
          "internalType": "address",
          "name": "newGoveranance",
          "type": "address"
        }
      ],
      "name": "GovernanceUpdated",
      "type": "event"
    },
    {
      "anonymous": false,
      "inputs": [
        {
          "indexed": false,
          "internalType": "uint256",
          "name": "amountReceivedWei",
          "type": "uint256"
        }
      ],
      "name": "InflationReceived",
      "type": "event"
    },
    {
      "anonymous": false,
      "inputs": [
        {
          "indexed": true,
          "internalType": "address",
          "name": "dataProvider",
          "type": "address"
        },
        {
          "indexed": true,
          "internalType": "address",
          "name": "whoClaimed",
          "type": "address"
        },
        {
          "indexed": true,
          "internalType": "address",
          "name": "sentTo",
          "type": "address"
        },
        {
          "indexed": false,
          "internalType": "uint256",
          "name": "rewardEpoch",
          "type": "uint256"
        },
        {
          "indexed": false,
          "internalType": "uint256",
          "name": "amount",
          "type": "uint256"
        }
      ],
      "name": "RewardClaimed",
      "type": "event"
    },
    {
      "anonymous": false,
      "inputs": [
        {
          "indexed": false,
          "internalType": "uint256",
          "name": "rewardEpochId",
          "type": "uint256"
        }
      ],
      "name": "RewardClaimsExpired",
      "type": "event"
    },
    {
      "anonymous": false,
      "inputs": [
        {
          "indexed": false,
          "internalType": "uint256",
          "name": "amountBurnedWei",
          "type": "uint256"
        }
      ],
      "name": "RewardsBurned",
      "type": "event"
    },
    {
      "anonymous": false,
      "inputs": [
        {
          "indexed": true,
          "internalType": "address",
          "name": "ftso",
          "type": "address"
        },
        {
          "indexed": false,
          "internalType": "uint256",
          "name": "epochId",
          "type": "uint256"
        },
        {
          "indexed": false,
          "internalType": "address[]",
          "name": "addresses",
          "type": "address[]"
        },
        {
          "indexed": false,
          "internalType": "uint256[]",
          "name": "rewards",
          "type": "uint256[]"
        }
      ],
      "name": "RewardsDistributed",
      "type": "event"
    },
    {
      "anonymous": false,
      "inputs": [
        {
          "indexed": false,
          "internalType": "uint256",
          "name": "epochId",
          "type": "uint256"
        },
        {
          "indexed": false,
          "internalType": "uint256",
          "name": "reward",
          "type": "uint256"
        }
      ],
      "name": "UnearnedRewardsAccrued",
      "type": "event"
    },
    {
      "inputs": [
        {
          "internalType": "uint256",
          "name": "_epochId",
          "type": "uint256"
        },
        {
          "internalType": "uint256",
          "name": "_priceEpochDurationSeconds",
          "type": "uint256"
        },
        {
          "internalType": "uint256",
          "name": "_priceEpochEndTime",
          "type": "uint256"
        }
      ],
      "name": "accrueUnearnedRewards",
      "outputs": [],
      "stateMutability": "nonpayable",
      "type": "function"
    },
    {
      "inputs": [],
      "name": "activate",
      "outputs": [],
      "stateMutability": "nonpayable",
      "type": "function"
    },
    {
      "inputs": [],
      "name": "active",
      "outputs": [
        {
          "internalType": "bool",
          "name": "",
          "type": "bool"
        }
      ],
      "stateMutability": "view",
      "type": "function"
    },
    {
      "inputs": [
        {
          "internalType": "address",
          "name": "_executor",
          "type": "address"
        }
      ],
      "name": "addClaimExecutor",
      "outputs": [],
      "stateMutability": "nonpayable",
      "type": "function"
    },
    {
      "inputs": [
        {
          "internalType": "address payable",
          "name": "_recipient",
          "type": "address"
        },
        {
          "internalType": "uint256[]",
          "name": "_rewardEpochs",
          "type": "uint256[]"
        }
      ],
      "name": "claimAndWrapReward",
      "outputs": [
        {
          "internalType": "uint256",
          "name": "_rewardAmount",
          "type": "uint256"
        }
      ],
      "stateMutability": "nonpayable",
      "type": "function"
    },
    {
      "inputs": [
        {
          "internalType": "address payable",
          "name": "_recipient",
          "type": "address"
        },
        {
          "internalType": "uint256[]",
          "name": "_rewardEpochs",
          "type": "uint256[]"
        },
        {
          "internalType": "address[]",
          "name": "_dataProviders",
          "type": "address[]"
        }
      ],
      "name": "claimAndWrapRewardFromDataProviders",
      "outputs": [
        {
          "internalType": "uint256",
          "name": "_rewardAmount",
          "type": "uint256"
        }
      ],
      "stateMutability": "nonpayable",
      "type": "function"
    },
    {
      "inputs": [
        {
          "internalType": "address payable",
          "name": "_rewardOwner",
          "type": "address"
        },
        {
          "internalType": "uint256[]",
          "name": "_rewardEpochs",
          "type": "uint256[]"
        },
        {
          "internalType": "address[]",
          "name": "_dataProviders",
          "type": "address[]"
        }
      ],
      "name": "claimAndWrapRewardFromDataProvidersToOwner",
      "outputs": [
        {
          "internalType": "uint256",
          "name": "_rewardAmount",
          "type": "uint256"
        }
      ],
      "stateMutability": "nonpayable",
      "type": "function"
    },
    {
      "inputs": [
        {
          "internalType": "address payable",
          "name": "_rewardOwner",
          "type": "address"
        },
        {
          "internalType": "uint256[]",
          "name": "_rewardEpochs",
          "type": "uint256[]"
        }
      ],
      "name": "claimAndWrapRewardToOwner",
      "outputs": [
        {
          "internalType": "uint256",
          "name": "_rewardAmount",
          "type": "uint256"
        }
      ],
      "stateMutability": "nonpayable",
      "type": "function"
    },
    {
      "inputs": [],
      "name": "claimGovernance",
      "outputs": [],
      "stateMutability": "nonpayable",
      "type": "function"
    },
    {
      "inputs": [
        {
          "internalType": "address payable",
          "name": "_recipient",
          "type": "address"
        },
        {
          "internalType": "uint256[]",
          "name": "_rewardEpochs",
          "type": "uint256[]"
        }
      ],
      "name": "claimReward",
      "outputs": [
        {
          "internalType": "uint256",
          "name": "_rewardAmount",
          "type": "uint256"
        }
      ],
      "stateMutability": "nonpayable",
      "type": "function"
    },
    {
      "inputs": [
        {
          "internalType": "address payable",
          "name": "_recipient",
          "type": "address"
        },
        {
          "internalType": "uint256[]",
          "name": "_rewardEpochs",
          "type": "uint256[]"
        },
        {
          "internalType": "address[]",
          "name": "_dataProviders",
          "type": "address[]"
        }
      ],
      "name": "claimRewardFromDataProviders",
      "outputs": [
        {
          "internalType": "uint256",
          "name": "_rewardAmount",
          "type": "uint256"
        }
      ],
      "stateMutability": "nonpayable",
      "type": "function"
    },
    {
      "inputs": [
        {
          "internalType": "uint256",
          "name": "_rewardEpoch",
          "type": "uint256"
        }
      ],
      "name": "closeExpiredRewardEpoch",
      "outputs": [],
      "stateMutability": "nonpayable",
      "type": "function"
    },
    {
      "inputs": [],
      "name": "dailyAuthorizedInflation",
      "outputs": [
        {
          "internalType": "uint256",
          "name": "",
          "type": "uint256"
        }
      ],
      "stateMutability": "view",
      "type": "function"
    },
    {
      "inputs": [],
      "name": "deactivate",
      "outputs": [],
      "stateMutability": "nonpayable",
      "type": "function"
    },
    {
      "inputs": [],
      "name": "defaultFeePercentage",
      "outputs": [
        {
          "internalType": "uint256",
          "name": "",
          "type": "uint256"
        }
      ],
      "stateMutability": "view",
      "type": "function"
    },
    {
      "inputs": [
        {
          "internalType": "address[]",
          "name": "_addresses",
          "type": "address[]"
        },
        {
          "internalType": "uint256[]",
          "name": "_weights",
          "type": "uint256[]"
        },
        {
          "internalType": "uint256",
          "name": "_totalWeight",
          "type": "uint256"
        },
        {
          "internalType": "uint256",
          "name": "_epochId",
          "type": "uint256"
        },
        {
          "internalType": "address",
          "name": "_ftso",
          "type": "address"
        },
        {
          "internalType": "uint256",
          "name": "_priceEpochDurationSeconds",
          "type": "uint256"
        },
        {
          "internalType": "uint256",
          "name": "_currentRewardEpoch",
          "type": "uint256"
        },
        {
          "internalType": "uint256",
          "name": "_priceEpochEndTime",
          "type": "uint256"
        },
        {
          "internalType": "uint256",
          "name": "_votePowerBlock",
          "type": "uint256"
        }
      ],
      "name": "distributeRewards",
      "outputs": [],
      "stateMutability": "nonpayable",
      "type": "function"
    },
    {
      "inputs": [],
      "name": "feePercentageUpdateOffset",
      "outputs": [
        {
          "internalType": "uint256",
          "name": "",
          "type": "uint256"
        }
      ],
      "stateMutability": "view",
      "type": "function"
    },
    {
      "inputs": [],
      "name": "ftsoManager",
      "outputs": [
        {
          "internalType": "contract IIFtsoManager",
          "name": "",
          "type": "address"
        }
      ],
      "stateMutability": "view",
      "type": "function"
    },
    {
      "inputs": [],
      "name": "getAddressUpdater",
      "outputs": [
        {
          "internalType": "address",
          "name": "_addressUpdater",
          "type": "address"
        }
      ],
      "stateMutability": "view",
      "type": "function"
    },
    {
      "inputs": [
        {
          "internalType": "uint256",
          "name": "_rewardEpoch",
          "type": "uint256"
        },
        {
          "internalType": "address",
          "name": "_dataProvider",
          "type": "address"
        },
        {
          "internalType": "address",
          "name": "_claimer",
          "type": "address"
        }
      ],
      "name": "getClaimedReward",
      "outputs": [
        {
          "internalType": "bool",
          "name": "_claimed",
          "type": "bool"
        },
        {
          "internalType": "uint256",
          "name": "_amount",
          "type": "uint256"
        }
      ],
      "stateMutability": "view",
      "type": "function"
    },
    {
      "inputs": [],
      "name": "getContractName",
      "outputs": [
        {
          "internalType": "string",
          "name": "",
          "type": "string"
        }
      ],
      "stateMutability": "pure",
      "type": "function"
    },
    {
      "inputs": [],
      "name": "getCurrentRewardEpoch",
      "outputs": [
        {
          "internalType": "uint256",
          "name": "",
          "type": "uint256"
        }
      ],
      "stateMutability": "view",
      "type": "function"
    },
    {
      "inputs": [
        {
          "internalType": "address",
          "name": "_dataProvider",
          "type": "address"
        }
      ],
      "name": "getDataProviderCurrentFeePercentage",
      "outputs": [
        {
          "internalType": "uint256",
          "name": "",
          "type": "uint256"
        }
      ],
      "stateMutability": "view",
      "type": "function"
    },
    {
      "inputs": [
        {
          "internalType": "address",
          "name": "_dataProvider",
          "type": "address"
        },
        {
          "internalType": "uint256",
          "name": "_rewardEpoch",
          "type": "uint256"
        }
      ],
      "name": "getDataProviderFeePercentage",
      "outputs": [
        {
          "internalType": "uint256",
          "name": "_feePercentageBIPS",
          "type": "uint256"
        }
      ],
      "stateMutability": "view",
      "type": "function"
    },
    {
      "inputs": [
        {
          "internalType": "address",
          "name": "_dataProvider",
          "type": "address"
        }
      ],
      "name": "getDataProviderScheduledFeePercentageChanges",
      "outputs": [
        {
          "internalType": "uint256[]",
          "name": "_feePercentageBIPS",
          "type": "uint256[]"
        },
        {
          "internalType": "uint256[]",
          "name": "_validFromEpoch",
          "type": "uint256[]"
        },
        {
          "internalType": "bool[]",
          "name": "_fixed",
          "type": "bool[]"
        }
      ],
      "stateMutability": "view",
      "type": "function"
    },
    {
      "inputs": [
        {
          "internalType": "uint256",
          "name": "_rewardEpoch",
          "type": "uint256"
        }
      ],
      "name": "getEpochReward",
      "outputs": [
        {
          "internalType": "uint256",
          "name": "_totalReward",
          "type": "uint256"
        },
        {
          "internalType": "uint256",
          "name": "_claimedReward",
          "type": "uint256"
        }
      ],
      "stateMutability": "view",
      "type": "function"
    },
    {
      "inputs": [],
      "name": "getEpochsWithClaimableRewards",
      "outputs": [
        {
          "internalType": "uint256",
          "name": "_startEpochId",
          "type": "uint256"
        },
        {
          "internalType": "uint256",
          "name": "_endEpochId",
          "type": "uint256"
        }
      ],
      "stateMutability": "view",
      "type": "function"
    },
    {
      "inputs": [
        {
          "internalType": "address",
          "name": "_beneficiary",
          "type": "address"
        }
      ],
      "name": "getEpochsWithUnclaimedRewards",
      "outputs": [
        {
          "internalType": "uint256[]",
          "name": "_epochIds",
          "type": "uint256[]"
        }
      ],
      "stateMutability": "view",
      "type": "function"
    },
    {
      "inputs": [],
      "name": "getInflationAddress",
      "outputs": [
        {
          "internalType": "address",
          "name": "",
          "type": "address"
        }
      ],
      "stateMutability": "view",
      "type": "function"
    },
    {
      "inputs": [],
      "name": "getInitialRewardEpoch",
      "outputs": [
        {
          "internalType": "uint256",
          "name": "_initialRewardEpoch",
          "type": "uint256"
        }
      ],
      "stateMutability": "view",
      "type": "function"
    },
    {
      "inputs": [],
      "name": "getRewardEpochToExpireNext",
      "outputs": [
        {
          "internalType": "uint256",
          "name": "",
          "type": "uint256"
        }
      ],
      "stateMutability": "view",
      "type": "function"
    },
    {
      "inputs": [
        {
          "internalType": "uint256",
          "name": "_rewardEpoch",
          "type": "uint256"
        }
      ],
      "name": "getRewardEpochVotePowerBlock",
      "outputs": [
        {
          "internalType": "uint256",
          "name": "",
          "type": "uint256"
        }
      ],
      "stateMutability": "view",
      "type": "function"
    },
    {
      "inputs": [
        {
          "internalType": "address",
          "name": "_beneficiary",
          "type": "address"
        },
        {
          "internalType": "uint256",
          "name": "_rewardEpoch",
          "type": "uint256"
        }
      ],
      "name": "getStateOfRewards",
      "outputs": [
        {
          "internalType": "address[]",
          "name": "_dataProviders",
          "type": "address[]"
        },
        {
          "internalType": "uint256[]",
          "name": "_rewardAmounts",
          "type": "uint256[]"
        },
        {
          "internalType": "bool[]",
          "name": "_claimed",
          "type": "bool[]"
        },
        {
          "internalType": "bool",
          "name": "_claimable",
          "type": "bool"
        }
      ],
      "stateMutability": "view",
      "type": "function"
    },
    {
      "inputs": [
        {
          "internalType": "address",
          "name": "_beneficiary",
          "type": "address"
        },
        {
          "internalType": "uint256",
          "name": "_rewardEpoch",
          "type": "uint256"
        },
        {
          "internalType": "address[]",
          "name": "_dataProviders",
          "type": "address[]"
        }
      ],
      "name": "getStateOfRewardsFromDataProviders",
      "outputs": [
        {
          "internalType": "uint256[]",
          "name": "_rewardAmounts",
          "type": "uint256[]"
        },
        {
          "internalType": "bool[]",
          "name": "_claimed",
          "type": "bool[]"
        },
        {
          "internalType": "bool",
          "name": "_claimable",
          "type": "bool"
        }
      ],
      "stateMutability": "view",
      "type": "function"
    },
    {
      "inputs": [],
      "name": "getTokenPoolSupplyData",
      "outputs": [
        {
          "internalType": "uint256",
          "name": "_lockedFundsWei",
          "type": "uint256"
        },
        {
          "internalType": "uint256",
          "name": "_totalInflationAuthorizedWei",
          "type": "uint256"
        },
        {
          "internalType": "uint256",
          "name": "_totalClaimedWei",
          "type": "uint256"
        }
      ],
      "stateMutability": "view",
      "type": "function"
    },
    {
      "inputs": [
        {
          "internalType": "uint256",
          "name": "_rewardEpoch",
          "type": "uint256"
        },
        {
          "internalType": "address",
          "name": "_dataProvider",
          "type": "address"
        }
      ],
      "name": "getUnclaimedReward",
      "outputs": [
        {
          "internalType": "uint256",
          "name": "_amount",
          "type": "uint256"
        },
        {
          "internalType": "uint256",
          "name": "_weight",
          "type": "uint256"
        }
      ],
      "stateMutability": "view",
      "type": "function"
    },
    {
      "inputs": [],
      "name": "governance",
      "outputs": [
        {
          "internalType": "address",
          "name": "",
          "type": "address"
        }
      ],
      "stateMutability": "view",
      "type": "function"
    },
    {
      "inputs": [
        {
          "internalType": "address",
          "name": "_governance",
          "type": "address"
        }
      ],
      "name": "initialise",
      "outputs": [],
      "stateMutability": "nonpayable",
      "type": "function"
    },
    {
      "inputs": [],
      "name": "lastInflationAuthorizationReceivedTs",
      "outputs": [
        {
          "internalType": "uint256",
          "name": "",
          "type": "uint256"
        }
      ],
      "stateMutability": "view",
      "type": "function"
    },
    {
      "inputs": [],
      "name": "newFtsoRewardManager",
      "outputs": [
        {
          "internalType": "address",
          "name": "",
          "type": "address"
        }
      ],
      "stateMutability": "view",
      "type": "function"
    },
    {
      "inputs": [],
      "name": "oldFtsoRewardManager",
      "outputs": [
        {
          "internalType": "address",
          "name": "",
          "type": "address"
        }
      ],
      "stateMutability": "view",
      "type": "function"
    },
    {
      "inputs": [
        {
          "internalType": "address",
          "name": "_governance",
          "type": "address"
        }
      ],
      "name": "proposeGovernance",
      "outputs": [],
      "stateMutability": "nonpayable",
      "type": "function"
    },
    {
      "inputs": [],
      "name": "proposedGovernance",
      "outputs": [
        {
          "internalType": "address",
          "name": "",
          "type": "address"
        }
      ],
      "stateMutability": "view",
      "type": "function"
    },
    {
      "inputs": [],
      "name": "receiveInflation",
      "outputs": [],
      "stateMutability": "payable",
      "type": "function"
    },
    {
      "inputs": [
        {
          "internalType": "address",
          "name": "_executor",
          "type": "address"
        }
      ],
      "name": "removeClaimExecutor",
      "outputs": [],
      "stateMutability": "nonpayable",
      "type": "function"
    },
    {
      "inputs": [
        {
          "internalType": "uint256",
          "name": "_toAuthorizeWei",
          "type": "uint256"
        }
      ],
      "name": "setDailyAuthorizedInflation",
      "outputs": [],
      "stateMutability": "nonpayable",
      "type": "function"
    },
    {
      "inputs": [
        {
          "internalType": "uint256",
          "name": "_feePercentageBIPS",
          "type": "uint256"
        }
      ],
      "name": "setDataProviderFeePercentage",
      "outputs": [
        {
          "internalType": "uint256",
          "name": "",
          "type": "uint256"
        }
      ],
      "stateMutability": "nonpayable",
      "type": "function"
    },
    {
      "inputs": [],
      "name": "setInitialRewardData",
      "outputs": [],
      "stateMutability": "nonpayable",
      "type": "function"
    },
    {
      "inputs": [
        {
          "internalType": "address",
          "name": "_newFtsoRewardManager",
          "type": "address"
        }
      ],
      "name": "setNewFtsoRewardManager",
      "outputs": [],
      "stateMutability": "nonpayable",
      "type": "function"
    },
    {
      "inputs": [],
      "name": "supply",
      "outputs": [
        {
          "internalType": "contract Supply",
          "name": "",
          "type": "address"
        }
      ],
      "stateMutability": "view",
      "type": "function"
    },
    {
      "inputs": [],
      "name": "totalAwardedWei",
      "outputs": [
        {
          "internalType": "uint256",
          "name": "",
          "type": "uint256"
        }
      ],
      "stateMutability": "view",
      "type": "function"
    },
    {
      "inputs": [],
      "name": "totalBurnedWei",
      "outputs": [
        {
          "internalType": "uint256",
          "name": "",
          "type": "uint256"
        }
      ],
      "stateMutability": "view",
      "type": "function"
    },
    {
      "inputs": [],
      "name": "totalClaimedWei",
      "outputs": [
        {
          "internalType": "uint256",
          "name": "",
          "type": "uint256"
        }
      ],
      "stateMutability": "view",
      "type": "function"
    },
    {
      "inputs": [],
      "name": "totalExpiredWei",
      "outputs": [
        {
          "internalType": "uint256",
          "name": "",
          "type": "uint256"
        }
      ],
      "stateMutability": "view",
      "type": "function"
    },
    {
      "inputs": [],
      "name": "totalInflationAuthorizedWei",
      "outputs": [
        {
          "internalType": "uint256",
          "name": "",
          "type": "uint256"
        }
      ],
      "stateMutability": "view",
      "type": "function"
    },
    {
      "inputs": [],
      "name": "totalInflationReceivedWei",
      "outputs": [
        {
          "internalType": "uint256",
          "name": "",
          "type": "uint256"
        }
      ],
      "stateMutability": "view",
      "type": "function"
    },
    {
      "inputs": [],
      "name": "totalSelfDestructReceivedWei",
      "outputs": [
        {
          "internalType": "uint256",
          "name": "",
          "type": "uint256"
        }
      ],
      "stateMutability": "view",
      "type": "function"
    },
    {
      "inputs": [],
      "name": "totalUnearnedWei",
      "outputs": [
        {
          "internalType": "uint256",
          "name": "",
          "type": "uint256"
        }
      ],
      "stateMutability": "view",
      "type": "function"
    },
    {
      "inputs": [
        {
          "internalType": "address",
          "name": "_governance",
          "type": "address"
        }
      ],
      "name": "transferGovernance",
      "outputs": [],
      "stateMutability": "nonpayable",
      "type": "function"
    },
    {
      "inputs": [
        {
          "internalType": "bytes32[]",
          "name": "_contractNameHashes",
          "type": "bytes32[]"
        },
        {
          "internalType": "address[]",
          "name": "_contractAddresses",
          "type": "address[]"
        }
      ],
      "name": "updateContractAddresses",
      "outputs": [],
      "stateMutability": "nonpayable",
      "type": "function"
    },
    {
      "inputs": [],
      "name": "wNat",
      "outputs": [
        {
          "internalType": "contract WNat",
          "name": "",
          "type": "address"
        }
      ],
      "stateMutability": "view",
      "type": "function"
    }
  ],
  "bytecode": "0x60e06040523480156200001157600080fd5b5060405162005db438038062005db4833981810160405260a08110156200003757600080fd5b508051602082015160408301516060840151608090940151929391929091908385806001600160a01b0381161562000074576200007481620000f8565b506001600160a01b038116620000c4576040805162461bcd60e51b815260206004820152601060248201526f5f676f7665726e616e6365207a65726f60801b604482015290519081900360640190fd5b506001600255620000d581620001dc565b5060609290921b6001600160601b03191660c05260805260a05250620002009050565b600154600160a01b900460ff161562000158576040805162461bcd60e51b815260206004820152601460248201527f696e697469616c6973656420213d2066616c7365000000000000000000000000604482015290519081900360640190fd5b6001805460ff60a01b1916600160a01b179055600054604080516001600160a01b039283168152918316602083015280517f434a2db650703b36c824e745330d6397cdaa9ee2cc891a4938ae853e1c50b68d9281900390910190a1600080546001600160a01b039092166001600160a01b0319928316179055600180549091169055565b7f714f205b2abd25bef1d06a1af944e38c113fe6160375c4e1d6d5cf28848e771955565b60805160a05160c05160601c615b616200025360003980611a685280611e3252806135a052806135e05250806130f75280614178525080611bfe5280611df552806121c352806126cb5250615b616000f3fe608060405260043610620003fe5760003560e01c8063729936151162000217578063c373a08e1162000127578063d93bb92a11620000af578063ed39d3f81162000079578063ed39d3f814620016ec578063f2edab5a1462001704578063f5f5ba721462001732578063feab913814620017c257620003fe565b8063d93bb92a1462001471578063e27395631462001536578063e416b7e11462001564578063e7c830d414620016d457620003fe565b8063d38bfff411620000f1578063d38bfff414620013a7578063d418634a14620013de578063d4990b68146200140c578063d6c1dbee146200144357620003fe565b8063c373a08e14620011d7578063cfbcd25f146200120e578063d0c1c3931462001245578063d20bb542146200125d57620003fe565b80639f71043e11620001ab578063b00c0b761162000175578063b00c0b761462000f37578063b2af870a1462001071578063b48240341462001136578063b4a2043d146200114e57620003fe565b80639f71043e1462000c76578063a4472c101462000c8e578063a5555aea1462000db8578063a9b79e171462000dd057620003fe565b8063961c00ed11620001ed578063961c00ed1462000aa05780639d6a890f1462000add5780639e7ec02b1462000b145780639edbf0071462000c5e57620003fe565b80637299361514620009f157806382a2b9051462000a0957806385b4c5381462000a4057620003fe565b80633123b7d811620003135780635aa6e67511620002a7578063614815901162000271578063614815901462000818578063657d9695146200096257806367dcac53146200099f578063708e34ce14620009d957620003fe565b80635aa6e67514620007b85780635d36b19014620007d05780635de8b2f314620007e857806360f7ac97146200080057620003fe565b80633e7ff85711620002e95780633e7ff8571462000758578063473252c4146200077057806351b42b0014620007885780635267a15d14620007a057620003fe565b80633123b7d8146200060d57806333b7971e1462000625578063348d11be146200074057620003fe565b80630f15f4c0116200039757806316fe49c7116200036157806316fe49c714620005705780631de5609814620005885780632b18974514620005a05780632dafdbbf14620005d757620003fe565b80630f15f4c014620004fa57806311a7aaaa146200051257806312f97ac0146200052a57806316e69328146200054257620003fe565b8063047fc9aa11620003d9578063047fc9aa146200048a57806306201f1d14620004be5780630cb7234414620004ca5780630cc2a8fe14620004e257620003fe565b806302366648146200040357806302fb0c5e146200042d5780630441218e1462000459575b600080fd5b3480156200041057600080fd5b506200041b62001887565b60408051918252519081900360200190f35b3480156200043a57600080fd5b50620004456200188d565b604080519115158252519081900360200190f35b3480156200046657600080fd5b506200047162001896565b6040805192835260208301919091528051918290030190f35b3480156200049757600080fd5b50620004a2620018ac565b604080516001600160a01b039092168252519081900360200190f35b620004c8620018bb565b005b348015620004d757600080fd5b50620004a262001a66565b348015620004ef57600080fd5b506200041b62001a8a565b3480156200050757600080fd5b50620004c862001a90565b3480156200051f57600080fd5b50620004a262001b4e565b3480156200053757600080fd5b50620004a262001b5d565b3480156200054f57600080fd5b506200041b600480360360208110156200056857600080fd5b503562001b6c565b3480156200057d57600080fd5b506200041b62001df3565b3480156200059557600080fd5b50620004c862001e17565b348015620005ad57600080fd5b50620004c860048036036020811015620005c657600080fd5b50356001600160a01b031662001f50565b348015620005e457600080fd5b50620005ef62001f81565b60408051938452602084019290925282820152519081900360600190f35b3480156200061a57600080fd5b506200041b62001fae565b3480156200063257600080fd5b506200065c600480360360208110156200064b57600080fd5b50356001600160a01b031662001fc7565b60405180806020018060200180602001848103845287818151815260200191508051906020019060200280838360005b83811015620006a65781810151838201526020016200068c565b50505050905001848103835286818151815260200191508051906020019060200280838360005b83811015620006e7578181015183820152602001620006cd565b50505050905001848103825285818151815260200191508051906020019060200280838360005b83811015620007285781810151838201526020016200070e565b50505050905001965050505050505060405180910390f35b3480156200074d57600080fd5b506200041b6200222f565b3480156200076557600080fd5b506200041b62002235565b3480156200077d57600080fd5b506200041b6200223b565b3480156200079557600080fd5b50620004c862002241565b348015620007ad57600080fd5b50620004a262002257565b348015620007c557600080fd5b50620004a26200227c565b348015620007dd57600080fd5b50620004c86200228b565b348015620007f557600080fd5b506200041b6200234e565b3480156200080d57600080fd5b50620004a262002354565b3480156200082557600080fd5b506200041b600480360360608110156200083e57600080fd5b6001600160a01b038235169190810190604081016020820135600160201b8111156200086957600080fd5b8201836020820111156200087c57600080fd5b803590602001918460208302840111600160201b831117156200089e57600080fd5b9190808060200260200160405190810160405280939291908181526020018383602002808284376000920191909152509295949360208101935035915050600160201b811115620008ee57600080fd5b8201836020820111156200090157600080fd5b803590602001918460208302840111600160201b831117156200092357600080fd5b91908080602002602001604051908101604052809392919081815260200183836020028082843760009201919091525092955062002363945050505050565b3480156200096f57600080fd5b5062000471600480360360408110156200098857600080fd5b50803590602001356001600160a01b0316620024ca565b348015620009ac57600080fd5b50620004c860048036036060811015620009c557600080fd5b508035906020810135906040013562002506565b348015620009e657600080fd5b506200041b620025f0565b348015620009fe57600080fd5b506200041b620025f6565b34801562000a1657600080fd5b50620004c86004803603602081101562000a2f57600080fd5b50356001600160a01b0316620025fc565b34801562000a4d57600080fd5b5062000a856004803603606081101562000a6657600080fd5b508035906001600160a01b036020820135811691604001351662002672565b60408051921515835260208301919091528051918290030190f35b34801562000aad57600080fd5b506200041b6004803603604081101562000ac657600080fd5b506001600160a01b038135169060200135620026ae565b34801562000aea57600080fd5b50620004c86004803603602081101562000b0357600080fd5b50356001600160a01b031662002754565b34801562000b2157600080fd5b506200041b6004803603606081101562000b3a57600080fd5b6001600160a01b038235169190810190604081016020820135600160201b81111562000b6557600080fd5b82018360208201111562000b7857600080fd5b803590602001918460208302840111600160201b8311171562000b9a57600080fd5b9190808060200260200160405190810160405280939291908181526020018383602002808284376000920191909152509295949360208101935035915050600160201b81111562000bea57600080fd5b82018360208201111562000bfd57600080fd5b803590602001918460208302840111600160201b8311171562000c1f57600080fd5b9190808060200260200160405190810160405280939291908181526020018383602002808284376000920191909152509295506200282f945050505050565b34801562000c6b57600080fd5b50620004a2620029bc565b34801562000c8357600080fd5b506200041b620029cb565b34801562000c9b57600080fd5b5062000ccb6004803603604081101562000cb457600080fd5b506001600160a01b038135169060200135620029d1565b604051808060200180602001806020018515158152602001848103845288818151815260200191508051906020019060200280838360005b8381101562000d1d57818101518382015260200162000d03565b50505050905001848103835287818151815260200191508051906020019060200280838360005b8381101562000d5e57818101518382015260200162000d44565b50505050905001848103825286818151815260200191508051906020019060200280838360005b8381101562000d9f57818101518382015260200162000d85565b5050505090500197505050505050505060405180910390f35b34801562000dc557600080fd5b506200041b62002a36565b34801562000ddd57600080fd5b50620004c8600480360361012081101562000df757600080fd5b810190602081018135600160201b81111562000e1257600080fd5b82018360208201111562000e2557600080fd5b803590602001918460208302840111600160201b8311171562000e4757600080fd5b9190808060200260200160405190810160405280939291908181526020018383602002808284376000920191909152509295949360208101935035915050600160201b81111562000e9757600080fd5b82018360208201111562000eaa57600080fd5b803590602001918460208302840111600160201b8311171562000ecc57600080fd5b919080806020026020016040519081016040528093929190818152602001838360200280828437600092019190915250929550508235935050506020810135906001600160a01b036040820135169060608101359060808101359060a08101359060c0013562002a3c565b34801562000f4457600080fd5b50620004c86004803603604081101562000f5d57600080fd5b810190602081018135600160201b81111562000f7857600080fd5b82018360208201111562000f8b57600080fd5b803590602001918460208302840111600160201b8311171562000fad57600080fd5b9190808060200260200160405190810160405280939291908181526020018383602002808284376000920191909152509295949360208101935035915050600160201b81111562000ffd57600080fd5b8201836020820111156200101057600080fd5b803590602001918460208302840111600160201b831117156200103257600080fd5b91908080602002602001604051908101604052809392919081815260200183836020028082843760009201919091525092955062002edc945050505050565b3480156200107e57600080fd5b506200041b600480360360408110156200109757600080fd5b6001600160a01b038235169190810190604081016020820135600160201b811115620010c257600080fd5b820183602082011115620010d557600080fd5b803590602001918460208302840111600160201b83111715620010f757600080fd5b91908080602002602001604051908101604052809392919081815260200183836020028082843760009201919091525092955062002f90945050505050565b3480156200114357600080fd5b506200041b620030f5565b3480156200115b57600080fd5b5062001185600480360360208110156200117457600080fd5b50356001600160a01b031662003119565b60408051602080825283518183015283519192839290830191858101910280838360005b83811015620011c3578181015183820152602001620011a9565b505050509050019250505060405180910390f35b348015620011e457600080fd5b50620004c860048036036020811015620011fd57600080fd5b50356001600160a01b0316620032d5565b3480156200121b57600080fd5b506200041b600480360360208110156200123457600080fd5b50356001600160a01b031662003333565b3480156200125257600080fd5b506200041b6200334a565b3480156200126a57600080fd5b506200041b600480360360608110156200128357600080fd5b6001600160a01b038235169190810190604081016020820135600160201b811115620012ae57600080fd5b820183602082011115620012c157600080fd5b803590602001918460208302840111600160201b83111715620012e357600080fd5b9190808060200260200160405190810160405280939291908181526020018383602002808284376000920191909152509295949360208101935035915050600160201b8111156200133357600080fd5b8201836020820111156200134657600080fd5b803590602001918460208302840111600160201b831117156200136857600080fd5b91908080602002602001604051908101604052809392919081815260200183836020028082843760009201919091525092955062003350945050505050565b348015620013b457600080fd5b50620004c860048036036020811015620013cd57600080fd5b50356001600160a01b031662003426565b348015620013eb57600080fd5b5062000471600480360360208110156200140457600080fd5b5035620034a1565b3480156200141957600080fd5b50620004c8600480360360208110156200143257600080fd5b50356001600160a01b0316620034c0565b3480156200145057600080fd5b50620004c8600480360360208110156200146957600080fd5b5035620034ee565b3480156200147e57600080fd5b506200041b600480360360408110156200149757600080fd5b6001600160a01b038235169190810190604081016020820135600160201b811115620014c257600080fd5b820183602082011115620014d557600080fd5b803590602001918460208302840111600160201b83111715620014f757600080fd5b919080806020026020016040519081016040528093929190818152602001838360200280828437600092019190915250929550620036cc945050505050565b3480156200154357600080fd5b50620004c8600480360360208110156200155c57600080fd5b5035620037a1565b3480156200157157600080fd5b506200162e600480360360608110156200158a57600080fd5b6001600160a01b0382351691602081013591810190606081016040820135600160201b811115620015ba57600080fd5b820183602082011115620015cd57600080fd5b803590602001918460208302840111600160201b83111715620015ef57600080fd5b91908080602002602001604051908101604052809392919081815260200183836020028082843760009201919091525092955062003875945050505050565b6040518080602001806020018415158152602001838103835286818151815260200191508051906020019060200280838360005b838110156200167c57818101518382015260200162001662565b50505050905001838103825285818151815260200191508051906020019060200280838360005b83811015620016bd578181015183820152602001620016a3565b505050509050019550505050505060405180910390f35b348015620016e157600080fd5b506200041b620038d4565b348015620016f957600080fd5b50620004a26200394d565b3480156200171157600080fd5b506200041b600480360360208110156200172a57600080fd5b50356200395c565b3480156200173f57600080fd5b506200174a620039dd565b6040805160208082528351818301528351919283929083019185019080838360005b83811015620017865781810151838201526020016200176c565b50505050905090810190601f168015620017b45780820380516001836020036101000a031916815260200191505b509250505060405180910390f35b348015620017cf57600080fd5b506200041b60048036036040811015620017e857600080fd5b6001600160a01b038235169190810190604081016020820135600160201b8111156200181357600080fd5b8201836020820111156200182657600080fd5b803590602001918460208302840111600160201b831117156200184857600080fd5b91908080602002602001604051908101604052809392919081815260200183836020028082843760009201919091525092955062003a08945050505050565b60115481565b60035460ff1681565b600080620018a362003b94565b90939092509050565b601b546001600160a01b031681565b60195460408051808201909152600e81526d696e666c6174696f6e206f6e6c7960901b6020820152906001600160a01b031633146200197b5760405162461bcd60e51b81526004018080602001828103825283818151815260200191508051906020019080838360005b838110156200193f57818101518382015260200162001925565b50505050905090810190601f1680156200196d5780820380516001836020036101000a031916815260200191505b509250505060405180910390fd5b5060006200198862003c3b565b506013549091506200199b903462003c9e565b6013556017819055620019ad62003cf9565b6040805134815290517f95c4e29cc99bc027cfc3cd719d6fd973d5f0317061885fbb322b9b17d8d35d379181900360200190a150620019eb62003efd565b47146040518060400160405280600e81526020016d6f7574206f662062616c616e636560901b8152509062001a635760405162461bcd60e51b81526020600482018181528351602484015283519092839260449091019190850190808383600083156200193f57818101518382015260200162001925565b50565b7f000000000000000000000000000000000000000000000000000000000000000081565b600f5481565b62001a9a62003f2b565b6019546001600160a01b03161580159062001abf57506018546001600160a01b031615155b801562001ad65750601a546001600160a01b031615155b801562001aed5750601b546001600160a01b031615155b62001b3f576040805162461bcd60e51b815260206004820152601a60248201527f636f6e747261637420616464726573736573206e6f7420736574000000000000604482015290519081900360640190fd5b6003805460ff19166001179055565b6018546001600160a01b031681565b601c546001600160a01b031681565b60006127108211156040518060400160405280601c81526020017f696e76616c6964206665652070657263656e746167652076616c7565000000008152509062001bf95760405162461bcd60e51b81526020600482018181528351602484015283519092839260449091019190850190808383600083156200193f57818101518382015260200162001925565b5060007f000000000000000000000000000000000000000000000000000000000000000062001c27620038d4565b336000908152600b602052604090208054919092019250801562001d245781600182038154811062001c5557fe5b9060005260206000200160000160029054906101000a90046001600160f01b03166001600160f01b031683101560405180606001604052806021815260200162005aeb602191399062001ceb5760405162461bcd60e51b81526020600482018181528351602484015283519092839260449091019190850190808383600083156200193f57818101518382015260200162001925565b5081600182038154811062001cfc57fe5b6000918252602090912001546201000090046001600160f01b031683141562001d2457600019015b815481141562001d3b578154600101825560008290525b8482828154811062001d4957fe5b6000918252602090912001805461ffff191661ffff92909216919091179055600160f01b831062001d7657fe5b8282828154811062001d8457fe5b60009182526020918290200180546001600160f01b0393909316620100000261ffff9093169290921790915560408051878152918201859052805133927fd89f05622c2dcb0b4fcaa19e62fc2a2b0923955685fb7b0c641467f764244abc92908290030190a250909392505050565b7f000000000000000000000000000000000000000000000000000000000000000081565b62001e2162003f2b565b60035460ff1615801562001e5d57507f00000000000000000000000000000000000000000000000000000000000000006001600160a01b031615155b801562001e6a5750600554155b801562001e775750600454155b62001ebd576040805162461bcd60e51b81526020600482015260116024820152706e6f7420696e697469616c20737461746560781b604482015290519081900360640190fd5b62001ed4600162001ecd620038d4565b9062003c9e565b60055560185460408051633e7ff85760e01b815290516001600160a01b0390921691633e7ff85791600480820192602092909190829003018186803b15801562001f1d57600080fd5b505afa15801562001f32573d6000803e3d6000fd5b505050506040513d602081101562001f4957600080fd5b5051600455565b336000908152600c602090815260408083206001600160a01b0394909416835292905220805460ff19166001179055565b60008060008060125462001fa3601154600e5462003c9e90919063ffffffff16565b925092509250909192565b60055460009062001fc190600162003f7f565b92915050565b6001600160a01b0381166000908152600b6020526040902080546060918291829190156200222757600062001ffb620038d4565b82549091505b6000811180156200203b5750818360018303815481106200201e57fe5b6000918252602090912001546201000090046001600160f01b0316115b156200204b576000190162002001565b825481900380156200222357806001600160401b03811180156200206e57600080fd5b5060405190808252806020026020018201604052801562002099578160200160208202803683370190505b509650806001600160401b0381118015620020b357600080fd5b50604051908082528060200260200182016040528015620020de578160200160208202803683370190505b509550806001600160401b0381118015620020f857600080fd5b5060405190808252806020026020018201604052801562002123578160200160208202803683370190505b50945060005b81811015620022215784838201815481106200214157fe5b600091825260209091200154885161ffff909116908990839081106200216357fe5b60200260200101818152505084838201815481106200217e57fe5b9060005260206000200160000160029054906101000a90046001600160f01b03166001600160f01b0316878281518110620021b557fe5b6020026020010181815250507f000000000000000000000000000000000000000000000000000000000000000084888381518110620021f057fe5b60200260200101510314158682815181106200220857fe5b9115156020928302919091019091015260010162002129565b505b5050505b509193909250565b60105481565b60045490565b60155481565b6200224b62003f2b565b6003805460ff19169055565b7f714f205b2abd25bef1d06a1af944e38c113fe6160375c4e1d6d5cf28848e77195490565b6000546001600160a01b031681565b6001546001600160a01b03163314620022db576040805162461bcd60e51b815260206004820152600d60248201526c1b9bdd0818db185a5b585a5b9d609a1b604482015290519081900360640190fd5b600054600154604080516001600160a01b03938416815292909116602083015280517f434a2db650703b36c824e745330d6397cdaa9ee2cc891a4938ae853e1c50b68d9281900390910190a160018054600080546001600160a01b03199081166001600160a01b03841617909155169055565b600d5481565b6001546001600160a01b031681565b60035460408051808201909152601a815260008051602062005b0c833981519152602082015260009160ff16620023dd5760405162461bcd60e51b81526020600482018181528351602484015283519092839260449091019190850190808383600083156200193f57818101518382015260200162001925565b5060028054141562002425576040805162461bcd60e51b815260206004820152601f602482015260008051602062005a5b833981519152604482015290519081900360640190fd5b600280556200243933858585600162003fa7565b600160025590506200244a62003efd565b47146040518060400160405280600e81526020016d6f7574206f662062616c616e636560901b81525090620024c25760405162461bcd60e51b81526020600482018181528351602484015283519092839260449091019190850190808383600083156200193f57818101518382015260200162001925565b509392505050565b60008281526007602090815260408083206001600160a01b03909416808452938252808320549483526006825280832093835292905220549091565b6018546040805180820190915260118152706674736f206d616e61676572206f6e6c7960781b6020820152906001600160a01b031633146200258b5760405162461bcd60e51b81526020600482018181528351602484015283519092839260449091019190850190808383600083156200193f57818101518382015260200162001925565b5060006200259a8383620040ca565b601054909150620025ac908262003c9e565b601055604080518581526020810183905281517f754fa5a3ace0438b80ec651f7d61e44f761a808ebd17d7ce70da619399611a08929181900390910190a150505050565b60165481565b60145481565b6200260662003f2b565b601c546001600160a01b031615620026505760405162461bcd60e51b815260040180806020018281038252602381526020018062005a7b6023913960400191505060405180910390fd5b601c80546001600160a01b0319166001600160a01b0392909216919091179055565b60009283526008602090815260408085206001600160a01b0394851686528252808520929093168452529020805460019091015460ff90911691565b600081620026bb62001fae565b11158015620026f85750620026f47f000000000000000000000000000000000000000000000000000000000000000062001ecd620038d4565b8211155b62002741576040805162461bcd60e51b81526020600482015260146024820152730d2dcecc2d8d2c840e4caeec2e4c840cae0dec6d60631b604482015290519081900360640190fd5b6200274d8383620040ed565b9392505050565b600154600160a01b900460ff1615620027ab576040805162461bcd60e51b8152602060048201526014602482015273696e697469616c6973656420213d2066616c736560601b604482015290519081900360640190fd5b6001805460ff60a01b1916600160a01b179055600054604080516001600160a01b039283168152918316602083015280517f434a2db650703b36c824e745330d6397cdaa9ee2cc891a4938ae853e1c50b68d9281900390910190a1600080546001600160a01b039092166001600160a01b0319928316179055600180549091169055565b60035460408051808201909152601a815260008051602062005b0c833981519152602082015260009160ff16620028a95760405162461bcd60e51b81526020600482018181528351602484015283519092839260449091019190850190808383600083156200193f57818101518382015260200162001925565b50600280541415620028f1576040805162461bcd60e51b815260206004820152601f602482015260008051602062005a5b833981519152604482015290519081900360640190fd5b600280556001600160a01b0384166000908152600c602090815260408083203384528252918290205482518084019093526013835272636c61696d206578656375746f72206f6e6c7960681b9183019190915285919060ff16620029985760405162461bcd60e51b81526020600482018181528351602484015283519092839260449091019190850190808383600083156200193f57818101518382015260200162001925565b50620029a985868686600162003fa7565b600160025591506200244a905062003efd565b601a546001600160a01b031681565b600e5481565b6060806060600080620029e3620038d4565b9050620029f186826200419f565b91508180620029ff57508086145b1562002a2c57600062002a1588886000620041ca565b805160408201516060909201519097509095509350505b5092959194509250565b60135481565b6018546040805180820190915260118152706674736f206d616e61676572206f6e6c7960781b6020820152906001600160a01b0316331462002ac15760405162461bcd60e51b81526020600482018181528351602484015283519092839260449091019190850190808383600083156200193f57818101518382015260200162001925565b50861580159062002ad25750885115155b62002ad957fe5b600062002ae78584620040ca565b905060008a516001600160401b038111801562002b0357600080fd5b5060405190808252806020026020018201604052801562002b2e578160200160208202803683370190505b509050818160008151811062002b4057fe5b602002602001018181525050888a60008151811062002b5b57fe5b60209081029190910101528a51600019015b62002bc28b828151811062002b7e57fe5b60200260200101518c60008151811062002b9457fe5b60200260200101518460008151811062002baa57fe5b6020026020010151620048809092919063ffffffff16565b82828151811062002bcf57fe5b60200260200101818152505081818151811062002be857fe5b60200260200101516007600088815260200190815260200160002060008e848151811062002c1257fe5b60200260200101516001600160a01b03166001600160a01b031681526020019081526020016000206000828254019250508190555062002d02612710601a60009054906101000a90046001600160a01b03166001600160a01b03166392bfe6d88f858151811062002c7f57fe5b6020026020010151886040518363ffffffff1660e01b815260040180836001600160a01b031681526020018281526020019250505060206040518083038186803b15801562002ccd57600080fd5b505afa15801562002ce2573d6000803e3d6000fd5b505050506040513d602081101562002cf957600080fd5b50519062004999565b6006600088815260200190815260200160002060008e848151811062002d2457fe5b60200260200101516001600160a01b03166001600160a01b0316815260200190815260200160002081905550806000141562002d605762002dd4565b81818151811062002d6d57fe5b60200260200101518260008151811062002d8357fe5b6020026020010181815103915081815250508a818151811062002da257fe5b60200260200101518b60008151811062002db857fe5b6020908102919091010180519190910390526000190162002b6d565b6000868152600960205260409020805484019055600d5462002df7908462003c9e565b600d81905550876001600160a01b03167f8b2bc56c62594afde5b520e83e1ca19ebd071798db21382e328014f47b31ce578a8e85604051808481526020018060200180602001838103835285818151815260200191508051906020019060200280838360005b8381101562002e7757818101518382015260200162002e5d565b50505050905001838103825284818151815260200191508051906020019060200280838360005b8381101562002eb857818101518382015260200162002e9e565b505050509050019550505050505060405180910390a2505050505050505050505050565b62002ee662002257565b6001600160a01b0316336001600160a01b03161462002f43576040805162461bcd60e51b815260206004820152601460248201527337b7363c9030b2323932b9b9903ab83230ba32b960611b604482015290519081900360640190fd5b62002f8062002f7a83836040518060400160405280600e81526020016d20b2323932b9b9aab83230ba32b960911b815250620049f7565b62004b2e565b62002f8c828262004b52565b5050565b60035460408051808201909152601a815260008051602062005b0c833981519152602082015260009160ff166200300a5760405162461bcd60e51b81526020600482018181528351602484015283519092839260449091019190850190808383600083156200193f57818101518382015260200162001925565b5060028054141562003052576040805162461bcd60e51b815260206004820152601f602482015260008051602062005a5b833981519152604482015290519081900360640190fd5b6002805562003065338484600062004c9a565b600160025590506200307662003efd565b47146040518060400160405280600e81526020016d6f7574206f662062616c616e636560901b81525090620030ee5760405162461bcd60e51b81526020600482018181528351602484015283519092839260449091019190850190808383600083156200193f57818101518382015260200162001925565b5092915050565b7f000000000000000000000000000000000000000000000000000000000000000081565b60606000806200312862003b94565b90925090506001828203016000816001600160401b03811180156200314c57600080fd5b5060405190808252806020026020018201604052801562003177578160200160208202803683370190505b5090506000805b838110156200323057600062003199898389016001620041ca565b905060005b816060015151811015620032255781606001518181518110620031bd57fe5b6020026020010151158015620031eb5750600082604001518281518110620031e157fe5b6020026020010151115b156200321c5760018584815181106200320057fe5b9115156020928302919091019091015260019093019262003225565b6001016200319e565b50506001016200317e565b50806001600160401b03811180156200324857600080fd5b5060405190808252806020026020018201604052801562003273578160200160208202803683370190505b5095506000805b84811015620032c9578381815181106200329057fe5b602002602001015115620032c057808701888381518110620032ae57fe5b60209081029190910101526001909101905b6001016200327a565b50505050505050919050565b620032df62003f2b565b600180546001600160a01b0383166001600160a01b0319909116811790915560408051918252517f1f95fb40be3a947982072902a887b521248d1d8931a39eb38f84f4d6fd758b699181900360200190a150565b600062001fc18262003344620038d4565b620040ed565b60125481565b60035460408051808201909152601a815260008051602062005b0c833981519152602082015260009160ff16620033ca5760405162461bcd60e51b81526020600482018181528351602484015283519092839260449091019190850190808383600083156200193f57818101518382015260200162001925565b5060028054141562003412576040805162461bcd60e51b815260206004820152601f602482015260008051602062005a5b833981519152604482015290519081900360640190fd5b600280556200243933858585600062003fa7565b6200343062003f2b565b600054604080516001600160a01b039283168152918316602083015280517f434a2db650703b36c824e745330d6397cdaa9ee2cc891a4938ae853e1c50b68d9281900390910190a1600080546001600160a01b039092166001600160a01b0319928316179055600180549091169055565b600090815260096020908152604080832054600a909252909120549091565b336000908152600c602090815260408083206001600160a01b0394909416835292905220805460ff19169055565b6018546001600160a01b0316331480620035125750601c546001600160a01b031633145b6200354f5760405162461bcd60e51b815260040180806020018281038252602c81526020018062005a9e602c913960400191505060405180910390fd5b80600454146200359e576040805162461bcd60e51b81526020600482015260156024820152741ddc9bdb99c81c995dd85c9908195c1bd8da081a59605a1b604482015290519081900360640190fd5b7f00000000000000000000000000000000000000000000000000000000000000006001600160a01b031615801590620035d8575060055481105b156200365f577f00000000000000000000000000000000000000000000000000000000000000006001600160a01b031663d6c1dbee826040518263ffffffff1660e01b815260040180828152602001915050600060405180830381600087803b1580156200364557600080fd5b505af11580156200365a573d6000803e3d6000fd5b505050505b6000818152600a6020908152604080832054600990925290912054600f54919003906200368d908262003c9e565b600f556040805183815290517f5d05c64f281304391697cf987812e1a736413a062a9bdf39af4102209eb6fa589181900360200190a150600101600455565b60035460408051808201909152601a815260008051602062005b0c833981519152602082015260009160ff16620037465760405162461bcd60e51b81526020600482018181528351602484015283519092839260449091019190850190808383600083156200193f57818101518382015260200162001925565b506002805414156200378e576040805162461bcd60e51b815260206004820152601f602482015260008051602062005a5b833981519152604482015290519081900360640190fd5b6002805562003065338484600162004c9a565b60195460408051808201909152600e81526d696e666c6174696f6e206f6e6c7960901b6020820152906001600160a01b03163314620038235760405162461bcd60e51b81526020600482018181528351602484015283519092839260449091019190850190808383600083156200193f57818101518382015260200162001925565b50601681905560125462003838908262003c9e565b601255426015556040805182815290517f187f32a0f765499f15b3bb52ed0aebf6015059f230f2ace7e701e60a476695959181900360200190a150565b60608060008062003885620038d4565b90506200389386826200419f565b91508180620038a157508086145b15620038ca576000620038b8888888600062004d95565b90508060400151945080606001519350505b5093509350939050565b601854604080516339f20c3560e21b815290516000926001600160a01b03169163e7c830d4916004808301926020929190829003018186803b1580156200391a57600080fd5b505afa1580156200392f573d6000803e3d6000fd5b505050506040513d60208110156200394657600080fd5b5051905090565b6019546001600160a01b031690565b60185460408051637976d5ad60e11b81526004810184905290516000926001600160a01b03169163f2edab5a916024808301926020929190829003018186803b158015620039a957600080fd5b505afa158015620039be573d6000803e3d6000fd5b505050506040513d6020811015620039d557600080fd5b505192915050565b604080518082019091526011815270233a39b7a932bbb0b93226b0b730b3b2b960791b602082015290565b60035460408051808201909152601a815260008051602062005b0c833981519152602082015260009160ff1662003a825760405162461bcd60e51b81526020600482018181528351602484015283519092839260449091019190850190808383600083156200193f57818101518382015260200162001925565b5060028054141562003aca576040805162461bcd60e51b815260206004820152601f602482015260008051602062005a5b833981519152604482015290519081900360640190fd5b600280556001600160a01b0383166000908152600c602090815260408083203384528252918290205482518084019093526013835272636c61696d206578656375746f72206f6e6c7960681b9183019190915284919060ff1662003b715760405162461bcd60e51b81526020600482018181528351602484015283519092839260449091019190850190808383600083156200193f57818101518382015260200162001925565b5062003b81848585600162004c9a565b6001600255915062003076905062003efd565b60045460008062003ba4620038d4565b9050600081116040518060400160405280601f81526020017f6e6f2065706f6368207769746820636c61696d61626c652072657761726473008152509062003c2f5760405162461bcd60e51b81526020600482018181528351602484015283519092839260449091019190850190808383600083156200193f57818101518382015260200162001925565b50600181039150509091565b60008062003c553460175462003c9e90919063ffffffff16565b90504791508082111562003c8f5762003c868162003c7f8460145462003c9e90919063ffffffff16565b90620050fb565b60145562003c9a565b8082101562003c9a57fe5b9091565b6000828201838110156200274d576040805162461bcd60e51b815260206004820152601b60248201527f536166654d6174683a206164646974696f6e206f766572666c6f770000000000604482015290519081900360640190fd5b600062003d1b60115462003c7f600f5460105462003c9e90919063ffffffff16565b9050801562001a6357600062003d35476014606462004880565b905060008183111562003d4a57508062003d4d565b50815b801562003ef857601b54604080516370d5ae0560e01b815290516000926001600160a01b0316916370d5ae05916004808301926020929190829003018186803b15801562003d9a57600080fd5b505afa15801562003daf573d6000803e3d6000fd5b505050506040513d602081101562003dc657600080fd5b505160115490915062003dda908362003c9e565b60115560175462003dec9083620050fb565b601755604051600090829062003e02906200585b565b6001600160a01b03909116815260405190819003602001906000f08015801562003e30573d6000803e3d6000fd5b506040519091506001600160a01b0382169084156108fc029085906000818181858888f1935050505015801562003e6b573d6000803e3d6000fd5b50806001600160a01b03166335f469946040518163ffffffff1660e01b8152600401600060405180830381600087803b15801562003ea857600080fd5b505af115801562003ebd573d6000803e3d6000fd5b50506040805186815290517f44d5cd18c37b86a3423952287006d9550ab3cff404d6e899d5499d9ef87100b59350908190036020019150a150505b505050565b600062003f2660115462003c7f600e5462003c7f60145460135462003c9e90919063ffffffff16565b905090565b6000546001600160a01b0316331462003f7d576040805162461bcd60e51b815260206004820152600f60248201526e6f6e6c7920676f7665726e616e636560881b604482015290519081900360640190fd5b565b6000808383111562003f975750600090508062003fa0565b50600190508183035b9250929050565b600062003fb362003c3b565b5050600062003fc1620038d4565b905060005b8551811015620040965762003ff086828151811062003fe157fe5b6020026020010151836200419f565b62003ffb576200408d565b6200400562005869565b62004028898884815181106200401757fe5b602002602001015188600162004d95565b905060006200404e8a8a8a86815181106200403f57fe5b60200260200101518562005159565b905080600a60008a86815181106200406257fe5b6020026020010151815260200190815260200160002060008282540192505081905550808501945050505b60010162003fc6565b508215620040b057620040aa8683620052f2565b620040bc565b620040bc868362005369565b504760175595945050505050565b60006200274d620040dc838562005441565b620040e6620054fa565b906200551c565b6001600160a01b0382166000908152600b6020526040812080545b801562004175578154600019909101908290829081106200412557fe5b6000918252602090912001546201000090046001600160f01b031684106200416f578181815481106200415457fe5b60009182526020909120015461ffff16925062001fc1915050565b62004108565b507f0000000000000000000000000000000000000000000000000000000000000000949350505050565b6000600454831080620041b25750818310155b15620041c15750600062001fc1565b50600192915050565b620041d462005869565b6000620041e1846200395c565b90506000620041f285878862005585565b905060006200420062005891565b821562004226578562004220576200421a87898a620055b8565b60208201525b62004248565b62004233888886620055eb565b91506200424287898462005774565b60208201525b828062004259575060008160200151115b15158152601a546040805163ed475a7960e01b81526001600160a01b038b811660048301526024820188905291516060938493169163ed475a79916044808301926000929190829003018186803b158015620042b457600080fd5b505afa158015620042c9573d6000803e3d6000fd5b505050506040513d6000823e601f3d908101601f191682016040526080811015620042f357600080fd5b8101908080516040519392919084600160201b8211156200431357600080fd5b9083019060208201858111156200432957600080fd5b82518660208202830111600160201b821117156200434657600080fd5b82525081516020918201928201910280838360005b83811015620043755781810151838201526020016200435b565b5050505090500160405260200180516040519392919084600160201b8211156200439e57600080fd5b908301906020820185811115620043b457600080fd5b82518660208202830111600160201b82111715620043d157600080fd5b82525081516020918201928201910280838360005b8381101562004400578181015183820152602001620043e6565b5050505091909101604052505083518751949650929450919291506200442a90505760006200442d565b60015b60ff16016001600160401b03811180156200444757600080fd5b5060405190808252806020026020018201604052801562004472578160200160208202803683370190505b50808852516001600160401b03811180156200448d57600080fd5b50604051908082528060200260200182016040528015620044b8578160200160208202803683370190505b5060208801528651516001600160401b0381118015620044d757600080fd5b5060405190808252806020026020018201604052801562004502578160200160208202803683370190505b5060408801528651516001600160401b03811180156200452157600080fd5b506040519080825280602002602001820160405280156200454c578160200160208202803683370190505b506060880152825115620045f5578987600001516000815181106200456d57fe5b60200260200101906001600160a01b031690816001600160a01b031681525050848760600151600081518110620045a057fe5b602002602001019015159081151581525050838760200151600081518110620045c557fe5b60200260200101818152505082602001518760400151600081518110620045e857fe5b6020026020010181815250505b8151156200487357601a546040805163277166bf60e11b81526001600160a01b038d81166004830152602482018a905291516000939290921691634ee2cd7e91604480820192602092909190829003018186803b1580156200465657600080fd5b505afa1580156200466b573d6000803e3d6000fd5b505050506040513d60208110156200468257600080fd5b5051905060005b835181101562004870576000818660000151620046a8576000620046ab565b60015b60ff16019050848281518110620046be57fe5b60200260200101518a600001518281518110620046d757fe5b60200260200101906001600160a01b031690816001600160a01b031681525050620047188c8684815181106200470957fe5b60200260200101518f62005585565b8a6060015182815181106200472957fe5b602002602001019015159081151581525050896060015181815181106200474c57fe5b602002602001015115620047a5578a6200479f57620047818c8684815181106200477257fe5b60200260200101518f620055b8565b8a6040015182815181106200479257fe5b6020026020010181815250505b62004866565b620047f2858381518110620047b657fe5b6020026020010151620047eb868581518110620047cf57fe5b602002602001015161271087620048809092919063ffffffff16565b8e6200580f565b8a6020015182815181106200480357fe5b602002602001018181525050620048488c8684815181106200482157fe5b60200260200101518c6020015184815181106200483a57fe5b602002602001015162005774565b8a6040015182815181106200485957fe5b6020026020010181815250505b5060010162004689565b50505b5050505050509392505050565b6000808211620048ca576040805162461bcd60e51b815260206004820152601060248201526f4469766973696f6e206279207a65726f60801b604482015290519081900360640190fd5b83620048d9575060006200274d565b83830283858281620048e757fe5b0414156200490357828181620048f957fe5b049150506200274d565b60008386816200490f57fe5b04905060008487816200491e57fe5b06905060008587816200492d57fe5b04905060008688816200493c57fe5b0690506200498c6200495488620040e6868562004999565b62001ecd62004964868662004999565b62001ecd62004974898762004999565b62001ecd8d620049858c8b62004999565b9062004999565b9998505050505050505050565b600082620049aa5750600062001fc1565b82820282848281620049b857fe5b04146200274d5760405162461bcd60e51b815260040180806020018281038252602181526020018062005aca6021913960400191505060405180910390fd5b600080826040516020018080602001828103825283818151815260200191508051906020019080838360005b8381101562004a3d57818101518382015260200162004a23565b50505050905090810190601f16801562004a6b5780820380516001836020036101000a031916815260200191505b50925050506040516020818303038152906040528051906020012090506000805b865181101562004ad95786818151811062004aa357fe5b602002602001015183141562004ad05785818151811062004ac057fe5b6020026020010151915062004ad9565b60010162004a8c565b506001600160a01b03811662004b25576040805162461bcd60e51b815260206004820152600c60248201526b61646472657373207a65726f60a01b604482015290519081900360640190fd5b95945050505050565b7f714f205b2abd25bef1d06a1af944e38c113fe6160375c4e1d6d5cf28848e771955565b62004b8082826040518060400160405280600981526020016824b7333630ba34b7b760b91b815250620049f7565b601960006101000a8154816001600160a01b0302191690836001600160a01b0316021790555062004bd682826040518060400160405280600b81526020016a233a39b7a6b0b730b3b2b960a91b815250620049f7565b601860006101000a8154816001600160a01b0302191690836001600160a01b0316021790555062004c2582826040518060400160405280600481526020016315d3985d60e21b815250620049f7565b601a60006101000a8154816001600160a01b0302191690836001600160a01b0316021790555062004c76828260405180604001604052806006815260200165537570706c7960d01b815250620049f7565b601b80546001600160a01b0319166001600160a01b03929092169190911790555050565b600062004ca662003c3b565b5050600062004cb4620038d4565b905060005b845181101562004d625762004cd485828151811062003fe157fe5b62004cdf5762004d59565b600062004d038887848151811062004cf357fe5b60200260200101516001620041ca565b9050600062004d1a89898986815181106200403f57fe5b905080600a600089868151811062004d2e57fe5b6020026020010151815260200190815260200160002060008282540192505081905550808501945050505b60010162004cb9565b50821562004d7c5762004d768583620052f2565b62004d88565b62004d88858362005369565b5047601755949350505050565b62004d9f62005869565b600062004dac856200395c565b8451858452909150806001600160401b038111801562004dcb57600080fd5b5060405190808252806020026020018201604052801562004df6578160200160208202803683370190505b506020840152806001600160401b038111801562004e1357600080fd5b5060405190808252806020026020018201604052801562004e3e578160200160208202803683370190505b506040840152806001600160401b038111801562004e5b57600080fd5b5060405190808252806020026020018201604052801562004e86578160200160208202803683370190505b50606084015260005b81811015620050f05762004eb98787838151811062004eaa57fe5b60200260200101518a62005585565b8460600151828151811062004eca57fe5b6020026020010190151590811515815250508360600151818151811062004eed57fe5b60200260200101511562004f46578462004f405762004f228787838151811062004f1357fe5b60200260200101518a620055b8565b8460400151828151811062004f3357fe5b6020026020010181815250505b620050e7565b876001600160a01b031686828151811062004f5d57fe5b60200260200101516001600160a01b0316141562004fa55762004f82888885620055eb565b8460200151828151811062004f9357fe5b6020026020010181815250506200509e565b601a5486516000916001600160a01b03169063e64767aa908b908a908690811062004fcc57fe5b6020026020010151876040518463ffffffff1660e01b815260040180846001600160a01b03168152602001836001600160a01b03168152602001828152602001935050505060206040518083038186803b1580156200502a57600080fd5b505afa1580156200503f573d6000803e3d6000fd5b505050506040513d60208110156200505657600080fd5b505187519091506200507f908890849081106200506f57fe5b6020026020010151828a6200580f565b856020015183815181106200509057fe5b602002602001018181525050505b620050c987878381518110620050b057fe5b6020026020010151866020015184815181106200483a57fe5b84604001518281518110620050da57fe5b6020026020010181815250505b60010162004e8f565b505050949350505050565b60008282111562005153576040805162461bcd60e51b815260206004820152601e60248201527f536166654d6174683a207375627472616374696f6e206f766572666c6f770000604482015290519081900360640190fd5b50900390565b600080805b835151811015620052e857836060015181815181106200517a57fe5b6020026020010151156200518e57620052df565b600084600001518281518110620051a157fe5b60200260200101519050600085602001518381518110620051be57fe5b602002602001015190506000811115620051fc5760008781526006602090815260408083206001600160a01b03861684529091529020805482900390555b6000866040015184815181106200520f57fe5b602002602001015190506000811115620052595760008881526007602090815260408083206001600160a01b0387168452909152902080548290039055600e805482019055938401935b60008881526008602090815260408083206001600160a01b038088168086529184528285208f821680875290855294839020805460ff191660019081178255810187905583518e815294850187905283519095918f169491937f6ec685171a9028d19dc155a48e7824e3c68b03bc8995410e006abe3cbbeb3e2d928290030190a4505050505b6001016200515e565b5095945050505050565b801562002f8c57601a546040805163b760faf960e01b81526001600160a01b0385811660048301529151919092169163b760faf991849160248082019260009290919082900301818588803b1580156200534b57600080fd5b505af115801562005360573d6000803e3d6000fd5b50505050505050565b801562002f8c576040516000906001600160a01b0384169083908381818185875af1925050503d8060008114620053bd576040519150601f19603f3d011682016040523d82523d6000602084013e620053c2565b606091505b50509050806040518060400160405280600c81526020016b18db185a5b4819985a5b195960a21b815250906200543b5760405162461bcd60e51b81526020600482018181528351602484015283519092839260449091019190850190808383600083156200193f57818101518382015260200162001925565b50505050565b6000806200545e62093a7f60155462003c9e90919063ffffffff16565b905080841115604051806040016040528060118152602001706166746572206461696c79206379636c6560781b81525090620054dd5760405162461bcd60e51b81526020600482018181528351602484015283519092839260449091019190850190808383600083156200193f57818101518382015260200162001925565b50620054ef83620040e68387620050fb565b600101949350505050565b600062003f2660105462003c7f600d54601254620050fb90919063ffffffff16565b600080821162005573576040805162461bcd60e51b815260206004820152601a60248201527f536166654d6174683a206469766973696f6e206279207a65726f000000000000604482015290519081900360640190fd5b8183816200557d57fe5b049392505050565b60009283526008602090815260408085206001600160a01b03948516865282528085209290931684525290205460ff1690565b60009283526008602090815260408085206001600160a01b03948516865282528085209290931684525290206001015490565b601a5460408051634181ad4160e11b81526001600160a01b038681166004830152602482018590529151600093849316916383035a82916044808301926020929190829003018186803b1580156200564257600080fd5b505afa15801562005657573d6000803e3d6000fd5b505050506040513d60208110156200566e57600080fd5b5051601a5460408051631257fcdb60e31b81526001600160a01b03898116600483015260248201889052915193945060009391909216916392bfe6d8916044808301926020929190829003018186803b158015620056cb57600080fd5b505afa158015620056e0573d6000803e3d6000fd5b505050506040513d6020811015620056f757600080fd5b50519050818114156200571c57620057128161271062004999565b925050506200274d565b8181116200572657fe5b600082156200573f576200573d8361271062004999565b015b60006200574d8888620040ed565b905080156200576957620057648484038262004999565b820191505b509695505050505050565b60008162005785575060006200274d565b60008481526007602090815260408083206001600160a01b038716845290915290205480620057b95760009150506200274d565b60008581526006602090815260408083206001600160a01b038816845290915290205483811415620057ee575090506200274d565b808410620057f857fe5b6200580582858362004880565b9695505050505050565b60008262005820575060006200274d565b6000806200582f8685620040ed565b905061271081101562005852576200584d8561271083900362004999565b820191505b50949350505050565b6101b280620058a983390190565b6040518060800160405280606081526020016060815260200160608152602001606081525090565b60408051808201909152600080825260208201529056fe608060405234801561001057600080fd5b506040516101b23803806101b28339818101604052602081101561003357600080fd5b5051600080546001600160a01b039092166001600160a01b031990921691909117905561014d806100656000396000f3fe60806040526004361061002d5760003560e01c806335f469941461006c57806370d5ae051461008357610067565b36610067576040805134815290517fa8142743f8f70a4c26f3691cf4ed59718381fb2f18070ec52be1f1022d8555579181900360200190a1005b600080fd5b34801561007857600080fd5b506100816100b4565b005b34801561008f57600080fd5b50610098610108565b604080516001600160a01b039092168252519081900360200190f35b600054604080516001600160a01b03909216825247602083015280517f696de425f79f4a40bc6d2122ca50507f0efbeabbff86a84871b7196ab8ea8df79281900390910190a16000546001600160a01b0316ff5b6000546001600160a01b03168156fea264697066735822122029f1ea2f5b27d6f78e7c59ddc501185c6eac13e078de5689899f05c370c6d8e564736f6c634300070600335265656e7472616e637947756172643a207265656e7472616e742063616c6c006e6577206674736f20726577617264206d616e6167657220616c7265616479207365746f6e6c79206674736f206d616e61676572206f72206e6577206674736f20726577617264206d616e61676572536166654d6174683a206d756c7469706c69636174696f6e206f766572666c6f776665652070657263656e746167652063616e206e6f742062652075706461746564726577617264206d616e61676572206465616374697661746564000000000000a264697066735822122092b7a8aa23719cea94bc58691f953aad00d433c8a20603cfdd006dc58b00d75064736f6c63430007060033",
  "linkReferences": {},
  "deployedLinkReferences": {}
}