{
  "_format": "hh-sol-artifact-1",
  "contractName": "DelegatableMock",
  "sourceName": "contracts/token/mock/DelegatableMock.sol",
  "abi": [
    {
      "inputs": [],
      "stateMutability": "nonpayable",
      "type": "constructor"
    },
    {
      "anonymous": false,
      "inputs": [
        {
          "indexed": false,
          "internalType": "address",
          "name": "_owner",
          "type": "address"
        },
        {
          "indexed": false,
          "internalType": "uint256",
          "name": "_blockNumber",
          "type": "uint256"
        }
      ],
      "name": "CreatedVotePowerCache",
      "type": "event"
    },
    {
      "anonymous": false,
      "inputs": [
        {
          "indexed": true,
          "internalType": "address",
          "name": "from",
          "type": "address"
        },
        {
          "indexed": true,
          "internalType": "address",
          "name": "to",
          "type": "address"
        },
        {
          "indexed": false,
          "internalType": "uint256",
          "name": "priorVotePower",
          "type": "uint256"
        },
        {
          "indexed": false,
          "internalType": "uint256",
          "name": "newVotePower",
          "type": "uint256"
        }
      ],
      "name": "Delegate",
      "type": "event"
    },
    {
      "anonymous": false,
      "inputs": [
        {
          "indexed": true,
          "internalType": "address",
          "name": "delegator",
          "type": "address"
        },
        {
          "indexed": true,
          "internalType": "address",
          "name": "delegatee",
          "type": "address"
        },
        {
          "indexed": false,
          "internalType": "uint256",
          "name": "votePower",
          "type": "uint256"
        },
        {
          "indexed": false,
          "internalType": "uint256",
          "name": "blockNumber",
          "type": "uint256"
        }
      ],
      "name": "Revoke",
      "type": "event"
    },
    {
      "inputs": [
        {
          "internalType": "address",
          "name": "_who",
          "type": "address"
        }
      ],
      "name": "balanceOf",
      "outputs": [
        {
          "internalType": "uint256",
          "name": "",
          "type": "uint256"
        }
      ],
      "stateMutability": "view",
      "type": "function"
    },
    {
      "inputs": [
        {
          "internalType": "address",
          "name": "_who",
          "type": "address"
        },
        {
          "internalType": "uint256",
          "name": "_blockNumber",
          "type": "uint256"
        }
      ],
      "name": "balanceOfAt",
      "outputs": [
        {
          "internalType": "uint256",
          "name": "",
          "type": "uint256"
        }
      ],
      "stateMutability": "view",
      "type": "function"
    },
    {
      "inputs": [
        {
          "internalType": "address",
          "name": "_owner",
          "type": "address"
        },
        {
          "internalType": "uint256",
          "name": "_amount",
          "type": "uint256"
        }
      ],
      "name": "burnVotePower",
      "outputs": [],
      "stateMutability": "nonpayable",
      "type": "function"
    },
    {
      "inputs": [
        {
          "internalType": "address",
          "name": "_to",
          "type": "address"
        },
        {
          "internalType": "uint256",
          "name": "_bips",
          "type": "uint256"
        }
      ],
      "name": "delegate",
      "outputs": [],
      "stateMutability": "nonpayable",
      "type": "function"
    },
    {
      "inputs": [
        {
          "internalType": "address",
          "name": "_to",
          "type": "address"
        },
        {
          "internalType": "uint256",
          "name": "_votePower",
          "type": "uint256"
        }
      ],
      "name": "delegateExplicit",
      "outputs": [],
      "stateMutability": "nonpayable",
      "type": "function"
    },
    {
      "inputs": [
        {
          "internalType": "address",
          "name": "_owner",
          "type": "address"
        }
      ],
      "name": "delegatesOf",
      "outputs": [
        {
          "internalType": "address[]",
          "name": "_delegateAddresses",
          "type": "address[]"
        },
        {
          "internalType": "uint256[]",
          "name": "_bips",
          "type": "uint256[]"
        },
        {
          "internalType": "uint256",
          "name": "_count",
          "type": "uint256"
        },
        {
          "internalType": "uint256",
          "name": "_delegationMode",
          "type": "uint256"
        }
      ],
      "stateMutability": "view",
      "type": "function"
    },
    {
      "inputs": [
        {
          "internalType": "address",
          "name": "_owner",
          "type": "address"
        },
        {
          "internalType": "uint256",
          "name": "_blockNumber",
          "type": "uint256"
        }
      ],
      "name": "delegatesOfAt",
      "outputs": [
        {
          "internalType": "address[]",
          "name": "_delegateAddresses",
          "type": "address[]"
        },
        {
          "internalType": "uint256[]",
          "name": "_bips",
          "type": "uint256[]"
        },
        {
          "internalType": "uint256",
          "name": "_count",
          "type": "uint256"
        },
        {
          "internalType": "uint256",
          "name": "_delegationMode",
          "type": "uint256"
        }
      ],
      "stateMutability": "view",
      "type": "function"
    },
    {
      "inputs": [
        {
          "internalType": "address",
          "name": "_who",
          "type": "address"
        }
      ],
      "name": "delegationModeOf",
      "outputs": [
        {
          "internalType": "uint256",
          "name": "",
          "type": "uint256"
        }
      ],
      "stateMutability": "view",
      "type": "function"
    },
    {
      "inputs": [
        {
          "internalType": "address",
          "name": "_from",
          "type": "address"
        },
        {
          "internalType": "address",
          "name": "_to",
          "type": "address"
        },
        {
          "internalType": "uint256",
          "name": "_count",
          "type": "uint256"
        }
      ],
      "name": "explicitDelegationHistoryCleanup",
      "outputs": [
        {
          "internalType": "uint256",
          "name": "",
          "type": "uint256"
        }
      ],
      "stateMutability": "nonpayable",
      "type": "function"
    },
    {
      "inputs": [],
      "name": "getCleanupBlockNumber",
      "outputs": [
        {
          "internalType": "uint256",
          "name": "",
          "type": "uint256"
        }
      ],
      "stateMutability": "view",
      "type": "function"
    },
    {
      "inputs": [
        {
          "internalType": "address",
          "name": "_owner",
          "type": "address"
        },
        {
          "internalType": "uint256",
          "name": "_amount",
          "type": "uint256"
        }
      ],
      "name": "mintVotePower",
      "outputs": [],
      "stateMutability": "nonpayable",
      "type": "function"
    },
    {
      "inputs": [
        {
          "internalType": "address",
          "name": "_owner",
          "type": "address"
        },
        {
          "internalType": "uint256",
          "name": "_count",
          "type": "uint256"
        }
      ],
      "name": "percentageDelegationHistoryCleanup",
      "outputs": [
        {
          "internalType": "uint256",
          "name": "",
          "type": "uint256"
        }
      ],
      "stateMutability": "nonpayable",
      "type": "function"
    },
    {
      "inputs": [
        {
          "internalType": "address",
          "name": "_from",
          "type": "address"
        },
        {
          "internalType": "address",
          "name": "_to",
          "type": "address"
        },
        {
          "internalType": "uint256",
          "name": "_blockNumber",
          "type": "uint256"
        }
      ],
      "name": "revocationCleanup",
      "outputs": [
        {
          "internalType": "uint256",
          "name": "",
          "type": "uint256"
        }
      ],
      "stateMutability": "nonpayable",
      "type": "function"
    },
    {
      "inputs": [
        {
          "internalType": "address",
          "name": "_who",
          "type": "address"
        },
        {
          "internalType": "uint256",
          "name": "_blockNumber",
          "type": "uint256"
        }
      ],
      "name": "revokeDelegationAt",
      "outputs": [],
      "stateMutability": "nonpayable",
      "type": "function"
    },
    {
      "inputs": [
        {
          "internalType": "uint256",
          "name": "_blockNumber",
          "type": "uint256"
        }
      ],
      "name": "setCleanupBlockNumber",
      "outputs": [],
      "stateMutability": "nonpayable",
      "type": "function"
    },
    {
      "inputs": [
        {
          "internalType": "address",
          "name": "from",
          "type": "address"
        },
        {
          "internalType": "address",
          "name": "to",
          "type": "address"
        },
        {
          "internalType": "uint256",
          "name": "_amount",
          "type": "uint256"
        }
      ],
      "name": "transmitVotePower",
      "outputs": [],
      "stateMutability": "nonpayable",
      "type": "function"
    },
    {
      "inputs": [],
      "name": "undelegateAll",
      "outputs": [],
      "stateMutability": "nonpayable",
      "type": "function"
    },
    {
      "inputs": [
        {
          "internalType": "address[]",
          "name": "_delegateAddresses",
          "type": "address[]"
        }
      ],
      "name": "undelegateAllExplicit",
      "outputs": [
        {
          "internalType": "uint256",
          "name": "",
          "type": "uint256"
        }
      ],
      "stateMutability": "nonpayable",
      "type": "function"
    },
    {
      "inputs": [
        {
          "internalType": "address",
          "name": "_owner",
          "type": "address"
        }
      ],
      "name": "undelegatedVotePowerOf",
      "outputs": [
        {
          "internalType": "uint256",
          "name": "_votePower",
          "type": "uint256"
        }
      ],
      "stateMutability": "view",
      "type": "function"
    },
    {
      "inputs": [
        {
          "internalType": "address",
          "name": "_owner",
          "type": "address"
        },
        {
          "internalType": "uint256",
          "name": "_blockNumber",
          "type": "uint256"
        }
      ],
      "name": "undelegatedVotePowerOfAt",
      "outputs": [
        {
          "internalType": "uint256",
          "name": "_votePower",
          "type": "uint256"
        }
      ],
      "stateMutability": "view",
      "type": "function"
    },
    {
      "inputs": [
        {
          "internalType": "address",
          "name": "_owner",
          "type": "address"
        },
        {
          "internalType": "uint256",
          "name": "_blockNumber",
          "type": "uint256"
        }
      ],
      "name": "votePowerCacheCleanup",
      "outputs": [
        {
          "internalType": "uint256",
          "name": "",
          "type": "uint256"
        }
      ],
      "stateMutability": "nonpayable",
      "type": "function"
    },
    {
      "inputs": [
        {
          "internalType": "address",
          "name": "_from",
          "type": "address"
        },
        {
          "internalType": "address",
          "name": "_to",
          "type": "address"
        }
      ],
      "name": "votePowerFromTo",
      "outputs": [
        {
          "internalType": "uint256",
          "name": "",
          "type": "uint256"
        }
      ],
      "stateMutability": "view",
      "type": "function"
    },
    {
      "inputs": [
        {
          "internalType": "address",
          "name": "_from",
          "type": "address"
        },
        {
          "internalType": "address",
          "name": "_to",
          "type": "address"
        },
        {
          "internalType": "uint256",
          "name": "_blockNumber",
          "type": "uint256"
        }
      ],
      "name": "votePowerFromToAt",
      "outputs": [
        {
          "internalType": "uint256",
          "name": "",
          "type": "uint256"
        }
      ],
      "stateMutability": "view",
      "type": "function"
    },
    {
      "inputs": [
        {
          "internalType": "address",
          "name": "_owner",
          "type": "address"
        },
        {
          "internalType": "uint256",
          "name": "_count",
          "type": "uint256"
        }
      ],
      "name": "votePowerHistoryCleanup",
      "outputs": [
        {
          "internalType": "uint256",
          "name": "",
          "type": "uint256"
        }
      ],
      "stateMutability": "nonpayable",
      "type": "function"
    },
    {
      "inputs": [
        {
          "internalType": "address",
          "name": "_who",
          "type": "address"
        }
      ],
      "name": "votePowerOf",
      "outputs": [
        {
          "internalType": "uint256",
          "name": "",
          "type": "uint256"
        }
      ],
      "stateMutability": "view",
      "type": "function"
    },
    {
      "inputs": [
        {
          "internalType": "address",
          "name": "_who",
          "type": "address"
        },
        {
          "internalType": "uint256",
          "name": "_blockNumber",
          "type": "uint256"
        }
      ],
      "name": "votePowerOfAt",
      "outputs": [
        {
          "internalType": "uint256",
          "name": "",
          "type": "uint256"
        }
      ],
      "stateMutability": "view",
      "type": "function"
    }
  ],
  "bytecode": "0x608060405234801561001057600080fd5b50613ff1806100206000396000f3fe608060405234801561001057600080fd5b506004361061018e5760003560e01c806392bfe6d8116100de578063d06dc3ad11610097578063e64767aa11610071578063e64767aa14610347578063ed475a791461035a578063eef9f9151461036d578063f6837767146103805761018e565b8063d06dc3ad1461030e578063d6aa0b7714610321578063dc572056146103345761018e565b806392bfe6d8146102b2578063a72ec4b6146102c5578063b302f393146102cd578063bbd6fbf8146102d5578063be0ca747146102e8578063cabc4528146102fb5761018e565b80635d6d11eb1161014b5780637f57d58f116101255780637f57d58f1461026657806383035a8214610279578063891339a81461028c5780638c0b6b401461029f5761018e565b80635d6d11eb1461021d57806370a08231146102305780637de5b8ed146102435761018e565b8063026e402b1461019357806313de97f5146101a8578063142d1018146101bb5780631a05274c146101e45780632b968e49146101f75780634ee2cd7e1461020a575b600080fd5b6101a66101a1366004613b9e565b610393565b005b6101a66101b6366004613c7b565b6103ab565b6101ce6101c9366004613b17565b6103b7565b6040516101db9190613d73565b60405180910390f35b6101ce6101f2366004613b9e565b6103ca565b6101a6610205366004613b9e565b610440565b6101ce610218366004613b9e565b61045d565b6101ce61022b366004613bc7565b61047f565b6101ce61023e366004613b17565b61048b565b610256610251366004613b17565b6104ac565b6040516101db9493929190613c93565b6101ce610274366004613b9e565b6104cb565b6101ce610287366004613b9e565b61054b565b6101ce61029a366004613b9e565b610561565b6101ce6102ad366004613b63565b61061d565b6101ce6102c0366004613b9e565b6106e4565b6101ce6106f0565b6101a66106ff565b6101a66102e3366004613b9e565b610713565b6101ce6102f6366004613b31565b610728565b6101ce610309366004613b63565b61073d565b6101a661031c366004613b9e565b6107bf565b6101ce61032f366004613b17565b6107d3565b6101a6610342366004613b9e565b6107e7565b6101ce610355366004613b63565b610804565b610256610368366004613b9e565b61081b565b6101a661037b366004613b63565b6108c6565b6101ce61038e366004613b17565b6108e8565b6103a733836103a13361048b565b846108fe565b5050565b6103b481610b71565b50565b60006103c282610bf5565b90505b919050565b6007546000906001600160a01b03163314610424576040805162461bcd60e51b815260206004820152601560248201527413db9b1e4818db19585b995c8818dbdb9d1c9858dd605a1b604482015290519081900360640190fd5b6006546104379060039085908590610c02565b90505b92915050565b6104538261044d8461048b565b83610c1b565b6103a78282610d78565b6001600160a01b03821660009081526008602052604081206104379083610dac565b60006103c23383610eef565b6001600160a01b03811660009081526008602052604081206103c290611087565b6060806000806104bc854361081b565b93509350935093509193509193565b6007546000906001600160a01b03163314610525576040805162461bcd60e51b815260206004820152601560248201527413db9b1e4818db19585b995c8818dbdb9d1c9858dd605a1b604482015290519081900360640190fd5b6006546001600160a01b03841660009081526001602052604090206104379184906110cf565b60006104378361055b858561045d565b846110dc565b6007546000906001600160a01b031633146105bb576040805162461bcd60e51b815260206004820152601560248201527413db9b1e4818db19585b995c8818dbdb9d1c9858dd605a1b604482015290519081900360640190fd5b6006548210610611576040805162461bcd60e51b815260206004820152601e60248201527f4e6f20636c65616e757020616674657220636c65616e757020626c6f636b0000604482015290519081900360640190fd5b6104376004848461114b565b6007546000906001600160a01b03163314610677576040805162461bcd60e51b815260206004820152601560248201527413db9b1e4818db19585b995c8818dbdb9d1c9858dd605a1b604482015290519081900360640190fd5b60065482106106cd576040805162461bcd60e51b815260206004820152601e60248201527f4e6f20636c65616e757020616674657220636c65616e757020626c6f636b0000604482015290519081900360640190fd5b6106da60048585856111b8565b90505b9392505050565b60006104378383611246565b60006106fa6112b9565b905090565b6107113361070c3361048b565b6112bf565b565b6103a73383610722338561045d565b8461145e565b600061043783836107388661048b565b611559565b6007546000906001600160a01b03163314610797576040805162461bcd60e51b815260206004820152601560248201527413db9b1e4818db19585b995c8818dbdb9d1c9858dd605a1b604482015290519081900360640190fd5b6006546001600160a01b03851660009081526002602052604090206106da918590859061160a565b6103a733836107cd3361048b565b84611631565b60006103c2826107e28461048b565b611916565b6107fa826107f48461048b565b83611923565b6103a7828261198d565b60006106da8484610815878661045d565b8561199d565b606080600080600061082c87611a14565b9050600181600281111561083c57fe5b14156108565761084c8787611a32565b90955093506108aa565b600081600281111561086457fe5b14156108895760408051600080825260208201908152818301909252955093506108aa565b60405162461bcd60e51b81526004016108a190613d20565b60405180910390fd5b845192508060028111156108ba57fe5b91505092959194509250565b6108e383836108d48661048b565b6108dd8661048b565b85611c6f565b505050565b60006108f382611a14565b60028111156103c257fe5b6001600160a01b038316610953576040805162461bcd60e51b815260206004820152601760248201527643616e6e6f742064656c656761746520746f207a65726f60481b604482015290519081900360640190fd5b836001600160a01b0316836001600160a01b031614156109b4576040805162461bcd60e51b815260206004820152601760248201527621b0b73737ba103232b632b3b0ba32903a379039b2b63360491b604482015290519081900360640190fd5b6109bd84611c85565b610a0e576040805162461bcd60e51b815260206004820152601d60248201527f43616e6e6f742064656c65676174652062792070657263656e74616765000000604482015290519081900360640190fd5b6001600160a01b038416600090815260016020526040812090610a318286611ccc565b9050600080610a41848887611cd8565b600654610a529085906002906110cf565b508215610a6957610a668684612710611d7f565b91505b8415610a7f57610a7c8686612710611d7f565b90505b81811015610a9b57610a9660038989848603611e78565b610aaa565b610aaa60038989858503611ebd565b600654610abe906003908a90600290610c02565b50600654610ad3906003908990600290610c02565b5060016001600160a01b03891660009081526020819052604090205460ff166002811115610afd57fe5b14610b26576001600160a01b0388166000908152602081905260409020805460ff191660011790555b866001600160a01b0316886001600160a01b0316600080516020613e7e8339815191528484604051808381526020018281526020019250505060405180910390a35050505050505050565b600654811015610bb25760405162461bcd60e51b8152600401808060200182810382526028815260200180613e566028913960400191505060405180910390fd5b438110610bf05760405162461bcd60e51b8152600401808060200182810382526021815260200180613dd36021913960400191505060405180910390fd5b600655565b60006103c2600383611efa565b6000610c1085858585611f06565b90505b949350505050565b6000610c4282604051806060016040528060268152602001613e3060269139859190611f41565b905060016001600160a01b03851660009081526020819052604090205460ff166002811115610c6d57fe5b1415610c8357610c7e848483611f9b565b610d72565b610c8e8484846120db565b6040518060400160405280602081526020017f556e64656c65676174656420766f746520706f77657220746f6f20736d616c6c81525090610d4d5760405162461bcd60e51b81526004018080602001828103825283818151815260200191508051906020019080838360005b83811015610d12578181015183820152602001610cfa565b50505050905090810190601f168015610d3f5780820380516001836020036101000a031916815260200191505b509250505060405180910390fd5b50610d5c600385600085612128565b600654610d70906003908690600290610c02565b505b50505050565b6103a7610d8e82610d888561048b565b9061216e565b6001600160a01b0384166000908152600860205260409020906121cb565b6001820154600090600160401b90046001600160401b031680610dd357600091505061043a565b4383101580610e0557506000198101600090815260208590526040902054600160c01b90046001600160401b03168310155b15610e2d57600019016000908152602084905260409020546001600160c01b0316905061043a565b60018401546001600160401b039081166000818152602087905260409020549091600160c01b90910416841015610ea6578015610e9b5760405162461bcd60e51b8152600401808060200182810382526030815260200180613f8c6030913960400191505060405180910390fd5b60009250505061043a565b6001850154600090610ecc9087908490600160401b90046001600160401b03168861238c565b6000908152602087905260409020546001600160c01b0316935050505092915050565b6001600160a01b03821660009081526020819052604081205460ff1681816002811115610f1857fe5b1415610f2857600091505061043a565b6002816002811115610f3657fe5b14610f725760405162461bcd60e51b8152600401808060200182810382526042815260200180613ec86042913960600191505060405180910390fd5b6001600160a01b0384166000908152600260205260408120905b8451811015611074576000858281518110610fa357fe5b602002602001015190506000610fc2828561240a90919063ffffffff16565b905080610fd057505061106c565b610fdd6003898484611e78565b600654610ff1906003908a90600290610c02565b50600654611006906003908490600290610c02565b5061101384836000612419565b600654611026908590849060029061160a565b50816001600160a01b0316886001600160a01b0316600080516020613e7e833981519152836000604051808381526020018281526020019250505060405180910390a350505b600101610f8c565b5061107e81612483565b95945050505050565b6001810154600090600160401b90046001600160401b0316806110ae5760009150506103c5565b6000190160009081526020929092525060409020546001600160c01b031690565b60006106da84848461248e565b6000816006548110156111205760405162461bcd60e51b815260040180806020018281038252602a815260200180613e9e602a913960400191505060405180910390fd5b600061112d8686866125cc565b905060008061113c87846126aa565b9550505050505b509392505050565b604080516001600160a01b0384166020808301919091528183018490528251808303840181526060909201835281519181019190912060008181529186905291812054909190156111ad576000908152602085905260408120555060016106dd565b506000949350505050565b604080516001600160a01b0380861660208084019190915282840185905283518084038501815260609093018452825192810192909220600081815260018901845284812092871681529282905292822054919291801561123857506001600160a01b038516600090815260209190915260408120555060019050610c13565b506000979650505050505050565b60008160065481101561128a5760405162461bcd60e51b815260040180806020018281038252602a815260200180613e9e602a913960400191505060405180910390fd5b438310156112a7576112a06004600386866126d0565b91506112b2565b6112a0600385611efa565b5092915050565b60065490565b6001600160a01b03821660009081526020819052604081205460ff16908160028111156112e857fe5b14156112f457506103a7565b600181600281111561130257fe5b1461133e5760405162461bcd60e51b815260040180806020018281038252603c815260200180613df4603c913960400191505060405180910390fd5b6001600160a01b038316600090815260016020526040812090806113618361273f565b9150915060005b825181101561143a57600083828151811061137f57fe5b6020026020010151905060006113b584848151811061139a57fe5b60200260200101516127108a611d7f9092919063ffffffff16565b90506113c460038a8484611e78565b6006546113d8906003908b90600290610c02565b506006546113ed906003908490600290610c02565b50816001600160a01b0316896001600160a01b0316600080516020613e7e833981519152836000604051808381526020018281526020019250505060405180910390a35050600101611368565b5061144483612755565b6006546114559084906002906110cf565b50505050505050565b806006548110156114a05760405162461bcd60e51b815260040180806020018281038252602a815260200180613e9e602a913960400191505060405180910390fd5b4382106114de5760405162461bcd60e51b815260040180806020018281038252603b815260200180613f51603b913960400191505060405180910390fd5b60006114ec8686868661275e565b90506114fe6004600388888588612811565b846001600160a01b0316866001600160a01b03167fd6f80c7d68e3e62bd7a51c3d37e575c1cfbc311c07487b69ef4eb570bc21cb688386604051808381526020018281526020019250505060405180910390a3505050505050565b6001600160a01b03831660009081526020819052604081205460ff168181600281111561158257fe5b14156115925760009150506106dd565b60018160028111156115a057fe5b14156115e0576001600160a01b03851660009081526001602052604081206115c89086611ccc565b90506115d78482612710611d7f565b925050506106dd565b6001600160a01b0385166000908152600260205260409020611602908561240a565b9150506106dd565b6000611617858484612984565b905061162860028601858585611f06565b01949350505050565b6001600160a01b038316611686576040805162461bcd60e51b815260206004820152601760248201527643616e6e6f742064656c656761746520746f207a65726f60481b604482015290519081900360640190fd5b836001600160a01b0316836001600160a01b031614156116e7576040805162461bcd60e51b815260206004820152601760248201527621b0b73737ba103232b632b3b0ba32903a379039b2b63360491b604482015290519081900360640190fd5b6116f084612a25565b611741576040805162461bcd60e51b815260206004820152601960248201527f43616e6e6f742064656c656761746520627920616d6f756e7400000000000000604482015290519081900360640190fd5b6001600160a01b038416600090815260026020526040812090611764828661240a565b9050808310156117825761177d60038787868503611e78565b611832565b6000611798826117928988611916565b90612a5c565b9050838110156040518060400160405280602081526020017f556e64656c65676174656420766f746520706f77657220746f6f20736d616c6c815250906118205760405162461bcd60e51b8152602060048201818152835160248401528351909283926044909101919085019080838360008315610d12578181015183820152602001610cfa565b5061183060038888858803611ebd565b505b600654611846906003908890600290610c02565b5060065461185b906003908790600290610c02565b50611867828685612419565b60065461187a908390879060029061160a565b5060026001600160a01b03871660009081526020819052604090205460ff1660028111156118a457fe5b146118cd576001600160a01b0386166000908152602081905260409020805460ff191660021790555b846001600160a01b0316866001600160a01b0316600080516020613e7e8339815191528386604051808381526020018281526020019250505060405180910390a3505050505050565b60006104378383436110dc565b60016001600160a01b03841660009081526020819052604090205460ff16600281111561194c57fe5b141561196b5761196683836119618185612a5c565b611f9b565b6108e3565b611979600384836000612128565b600654610d72906003908590600290610c02565b6103a7610d8e826117928561048b565b6000816006548110156119e15760405162461bcd60e51b815260040180806020018281038252602a815260200180613e9e602a913960400191505060405180910390fd5b6119ee6004878786612ab6565b156119fc5760009150611a0b565b611a088686868661275e565b91505b50949350505050565b6001600160a01b031660009081526020819052604090205460ff1690565b60608082600654811015611a775760405162461bcd60e51b815260040180806020018281038252602a815260200180613e9e602a913960400191505060405180910390fd5b6001600160a01b0385166000908152600160205260409020606080611a9c8388612b0a565b909250905060005b8251811015611b0057611ad889848381518110611abd57fe5b60200260200101518a6004612ab6909392919063ffffffff16565b15611af8576000828281518110611aeb57fe5b6020026020010181815250505b600101611aa4565b506000805b8351811015611b3857828181518110611b1a57fe5b6020026020010151600014611b30576001909101905b600101611b05565b50806001600160401b0381118015611b4f57600080fd5b50604051908082528060200260200182016040528015611b79578160200160208202803683370190505b509650806001600160401b0381118015611b9257600080fd5b50604051908082528060200260200182016040528015611bbc578160200160208202803683370190505b5095506000805b8451811015611c6157838181518110611bd857fe5b6020026020010151600014611c5957848181518110611bf357fe5b6020026020010151898381518110611c0757fe5b60200260200101906001600160a01b031690816001600160a01b031681525050838181518110611c3357fe5b6020026020010151888381518110611c4757fe5b60209081029190910101526001909101905b600101611bc3565b505050505050509250929050565b611c7a858483610c1b565b610d70848383611923565b6001600160a01b03811660009081526020819052604081205460ff1681816002811115611cae57fe5b14806106dd575060015b816002811115611cc457fe5b149392505050565b60006104378383612b22565b612710811115611ce457fe5b611cef838383612b66565b612710611cfb84612d8a565b11156040518060400160405280601c81526020017f4d61782064656c65676174696f6e20626970732065786365656465640000000081525090610d725760405162461bcd60e51b8152602060048201818152835160248401528351909283926044909101919085019080838360008315610d12578181015183820152602001610cfa565b6000808211611dc8576040805162461bcd60e51b815260206004820152601060248201526f4469766973696f6e206279207a65726f60801b604482015290519081900360640190fd5b83611dd5575060006106dd565b83830283858281611de257fe5b041415611dfb57828181611df257fe5b049150506106dd565b6000838681611e0657fe5b0490506000848781611e1457fe5b0690506000858781611e2257fe5b0490506000868881611e3057fe5b06905061113c611e4a88611e448685612d96565b90612def565b611792611e578686612d96565b611792611e648987612d96565b6117928d611e728c8b612d96565b90612d96565b82826001600160a01b038216158015611e9857506001600160a01b038116155b15611e9f57fe5b82611ea957611eb5565b611eb586858786612e56565b505050505050565b82826001600160a01b038216158015611edd57506001600160a01b038116155b15611ee457fe5b82611eee57611eb5565b611eb586868686612e56565b60006104378383612edf565b60006001600160a01b038416156111ad576001600160a01b0384166000908152602086905260409020611f3a908484612984565b9050610c13565b60008184841115611f935760405162461bcd60e51b8152602060048201818152835160248401528351909283926044909101919085019080838360008315610d12578181015183820152602001610cfa565b505050900390565b6001600160a01b0383166000908152600160205260408120908290849080611fc285612f00565b9150915060005b828110156120a6576000818152602083905260408120805490916001600160a01b03821691600160a01b900461ffff16906120078c83612710611d7f565b905060006120188c84612710611d7f565b90506120248a83612a5c565b99506120308982612a5c565b985061203f6003858385612128565b600654612053906003908690600290610c02565b50836001600160a01b03168e6001600160a01b0316600080516020613e7e8339815191528484604051808381526020018281526020019250505060405180910390a3505060019093019250611fc9915050565b508284146120d1576120bb6003898686612128565b6006546120cf906003908a90600290610c02565b505b5050505050505050565b600060026001600160a01b03851660009081526020819052604090205460ff16600281111561210657fe5b141561212057816121178585611916565b101590506106dd565b5060016106dd565b6001600160a01b03831661213857fe5b8082141561214557610d72565b60006121518585612edf565b905061216182610d888386612a5c565b9050610d70858583612f0c565b6000828211156121c5576040805162461bcd60e51b815260206004820152601e60248201527f536166654d6174683a207375627472616374696f6e206f766572666c6f770000604482015290519081900360640190fd5b50900390565b6001820154600160401b90046001600160401b0316806122825760405180604001604052806121f984612f2e565b6001600160c01b0316815260200161221043612f8c565b6001600160401b03908116909152600080805260208681526040909120835181549490920151909216600160c01b026001600160c01b039182166001600160c01b0319909416939093171691909117905560018301805467ffffffffffffffff60401b1916600160401b1790556108e3565b600019810160009081526020849052604090208054600160c01b90046001600160401b0316438114156122d8576122b884612f2e565b82546001600160c01b0319166001600160c01b0391909116178255610d70565b8043116122e157fe5b60405180604001604052806122f586612f2e565b6001600160c01b0316815260200161230c43612f8c565b6001600160401b039081169091526000858152602088815260409091208351815494909201518316600160c01b026001600160c01b039283166001600160c01b0319909516949094179091169290921790915560018087018054918601909216600160401b0267ffffffffffffffff60401b199091161790555050505050565b6000838161239b85600161216e565b90505b818111156124005760006123bc6002611e4460016117928688612a5c565b600081815260208a90526040902054909150600160c01b90046001600160401b031685106123ec578092506123fa565b6123f781600161216e565b91505b5061239e565b5095945050505050565b60006104376002840183612edf565b60006124286002850184612edf565b905060006124698361179284604051806040016040528060098152602001680546f74616c203c20360bc1b8152506124628a600001611087565b9190611f41565b9050612479600286018585612f0c565b610d7085826121cb565b60006103c282611087565b60008161249d575060006106dd565b6001840154600160401b90046001600160401b0316806124c15760009150506106dd565b60018501546001600160401b031660006124e76124de8388612a5c565b60018503612fd0565b9050815b8181108015612525575060018101600090815260208981526040808320838052909152902054600160b01b90046001600160401b03168610155b1561258957600081815260208981526040808320838052918290528220549091600160f01b90910460ff16905b8181101561257e57600081815260208490526040902080546001600160f81b0319169055600101612552565b5050506001016124eb565b828111156125be5761259a81612f8c565b60018901805467ffffffffffffffff19166001600160401b03929092169190911790555b919091039695505050505050565b6000816006548110156126105760405162461bcd60e51b815260040180806020018281038252602a815260200180613e9e602a913960400191505060405180910390fd5b6001600160a01b03851660009081526020819052604081205460ff169081600281111561263957fe5b1415612649576000925050611143565b600281600281111561265757fe5b1415612687576001600160a01b038616600090815260026020526040902061267f9085612fe6565b925050611143565b6001600160a01b038616600090815260016020526040902061267f908686612ff2565b600080838311156126c0575060009050806126c9565b50600190508183035b9250929050565b604080516001600160a01b0384166020808301919091528183018490528251808303840181526060909201835281519181019190912060008181529187905291812054909190801561272957600019019150610c139050565b612734868686613002565b979650505050505050565b60608061274b8361300f565b915091505b915091565b6103b48161301c565b6001600160a01b03841660009081526020819052604081205460ff168181600281111561278757fe5b1415612797576000915050610c13565b60018160028111156127a557fe5b14156127e6576001600160a01b03861660009081526001602052604081206127ce908786613142565b90506127dd8582612710611d7f565b92505050610c13565b6001600160a01b038616600090815260026020526040902061280990868561314f565b915050610c13565b8161281b57611eb5565b604080516001600160a01b0380871660208084019190915282840185905283518084038501815260609093018452825192810192909220600081815260018b0184528481209288168152919092529190912054156128b2576040805162461bcd60e51b815260206004820152600f60248201526e105b1c9958591e481c995d9bdad959608a1b604482015290519081900360640190fd5b60006128c08888878661315f565b5090506000858460405160200180836001600160a01b0316815260200182815260200192505050604051602081830303815290604052805190602001209050612953898261294e886040518060400160405280601781526020017f5265766f6b65642076616c756520746f6f206c6172676500000000000000000081525087611f419092919063ffffffff16565b6131e9565b5050600090815260018701602090815260408083206001600160a01b03871684529091529020829055505050505050565b600081612993575060006106dd565b6001840154600160401b90046001600160401b0316806129b75760009150506106dd565b60018501546001600160401b031660006129d46124de8388612a5c565b9050815b8181108015612a09575060018101600090815260208990526040902054600160c01b90046001600160401b03168610155b15612589576000818152602089905260408120556001016129d8565b6001600160a01b03811660009081526020819052604081205460ff1681816002811115612a4e57fe5b14806106dd57506002611cb8565b600082820183811015610437576040805162461bcd60e51b815260206004820152601b60248201527f536166654d6174683a206164646974696f6e206f766572666c6f770000000000604482015290519081900360640190fd5b604080516001600160a01b0394851660208083019190915281830193909352815180820383018152606090910182528051908301206000908152600195909501825280852092909316845252902054151590565b606080612b178484613207565b915091509250929050565b6001820154600090600160401b90046001600160401b031680612b4957600091505061043a565b60001981016000908152602085905260409020610c139084613376565b6001830154600160401b90046001600160401b031680612ca1578115610c7e576000818152602085905260409020612ba060018301612f8c565b8560010160086101000a8154816001600160401b0302191690836001600160401b031602179055506040518060800160405280856001600160a01b03168152602001612beb856133db565b61ffff168152602001612bfd43612f8c565b6001600160401b039081168252600160209283015260008080529382526040938490208351815493850151958501516060909501516001600160a01b03199094166001600160a01b039091161761ffff60a01b1916600160a01b61ffff909616959095029490941767ffffffffffffffff60b01b1916600160b01b93909116929092029190911760ff60f01b1916600160f01b60ff90921691909102179055610d72565b60001981016000908152602085815260408083208380529182905290912054600160b01b90046001600160401b031643811415612ce857612ce382868661341e565b611eb5565b804311612cf157fe5b6000838152602087905260409020612d0b60018501612f8c565b8760010160086101000a8154816001600160401b0302191690836001600160401b03160217905550612d3f81848888613534565b612d4843612f8c565b6000808052602092909252604090912080546001600160401b0392909216600160b01b0267ffffffffffffffff60b01b19909216919091179055505050505050565b60006103c2824361364a565b600082612da55750600061043a565b82820282848281612db257fe5b04146104375760405162461bcd60e51b8152600401808060200182810382526021815260200180613f0a6021913960400191505060405180910390fd5b6000808211612e45576040805162461bcd60e51b815260206004820152601a60248201527f536166654d6174683a206469766973696f6e206279207a65726f000000000000604482015290519081900360640190fd5b818381612e4e57fe5b049392505050565b80612e6057610d72565b6001600160a01b038316158015612e7e57506001600160a01b038216155b15612e8557fe5b6001600160a01b03831615612eb3576000612ea482610d888787612edf565b9050612eb1858583612f0c565b505b6001600160a01b03821615610d72576000612ed2826117928786612edf565b9050610d70858483612f0c565b6001600160a01b0381166000908152602083905260408120610c1381611087565b60008061274b836136d8565b6001600160a01b0382166000908152602084905260409020610d7281836121cb565b6000600160c01b8210612f88576040805162461bcd60e51b815260206004820152601d60248201527f76616c756520646f65736e27742066697420696e203139322062697473000000604482015290519081900360640190fd5b5090565b6000600160401b8210612f885760405162461bcd60e51b8152600401808060200182810382526026815260200180613f2b6026913960400191505060405180910390fd5b6000818310612fdf5781610437565b5090919050565b60006104378383610dac565b60006106da84846127108561373c565b60006106da8484846137d7565b60608061274b8343613207565b6001810154600160401b90046001600160401b031680156103a757600081815260208390526040902061305160018301612f8c565b6001840180546001600160401b0392909216600160401b0267ffffffffffffffff60401b19909216919091179055604080516080810182526000808252602082015290810161309f43612f8c565b6001600160401b039081168252600060209283018190528080529382526040938490208351815493850151958501516060909501516001600160a01b03199094166001600160a01b039091161761ffff60a01b1916600160a01b61ffff909616959095029490941767ffffffffffffffff60b01b1916600160b01b93909116929092029190911760ff60f01b1916600160f01b60ff909216919091021790555050565b60006106da8484846137f9565b60006106da6002850184846137d7565b604080516001600160a01b03841660208083019190915281830184905282518083038401815260609092018352815191810191909120600081815291879052918120549091829180156131bd57600019019250600091506131e09050565b60006131ca888888613002565b90506131d78984836131e9565b93506001925050505b94509492505050565b6131f4816001612a5c565b6000928352602093909352506040902055565b606080600080613217868661383e565b915091508161324157505060408051600080825260208201908152818301909252925090506126c9565b6000818152602087815260408083208380529182905290912054600160f01b900460ff16806001600160401b038111801561327b57600080fd5b506040519080825280602002602001820160405280156132a5578160200160208202803683370190505b509550806001600160401b03811180156132be57600080fd5b506040519080825280602002602001820160405280156132e8578160200160208202803683370190505b50945060005b8181101561336a576000818152602084905260409020805488516001600160a01b039091169089908490811061332057fe5b6001600160a01b03929092166020928302919091019091015280548751600160a01b90910461ffff169088908490811061335657fe5b6020908102919091010152506001016132ee565b50505050509250929050565b600080805260208390526040812054600160f01b900460ff16815b818110156111ad57600081815260208690526040902080546001600160a01b03868116911614156133d25754600160a01b900461ffff16925061043a915050565b50600101613391565b6000620100008210612f885760405162461bcd60e51b8152600401808060200182810382526026815260200180613dad6026913960400191505060405180910390fd5b600080805260208490526040812054600160f01b900460ff16905b818110801561346257506000818152602086905260409020546001600160a01b03858116911614155b1561346f57600101613439565b818110156134f45782156134b857613486836133db565b6000828152602087905260409020805461ffff92909216600160a01b0261ffff60a01b199092169190911790556134ef565b6134c685826001850361393d565b6000808052602086905260409020805460ff60f01b1916600160f01b600019850160ff16021790555b610d70565b6000613502868686866139a8565b6000808052602088905260409020805460ff909216600160f01b0260ff60f01b19909216919091179055505050505050565b600080805260208490526040812054600160f01b900460ff169080805b838110156136015760008181526020888152604091829020825160808101845290546001600160a01b03808216808452600160a01b830461ffff1694840194909452600160b01b82046001600160401b031694830194909452600160f01b900460ff16606082015291881614156135dd576135d289826000015188866139a8565b9250600193506135f8565b6135f5898260000151836020015161ffff16866139a8565b92505b50600101613551565b508161361657613613878686846139a8565b90505b60008080526020979097526040909620805460ff909716600160f01b0260ff60f01b19909716969096179095555050505050565b6000806000613659858561383e565b915091508161366d5760009250505061043a565b6000818152602086815260408083208380529182905282205491945090600160f01b900460ff16845b818110156136cd576000818152602084905260409020546136c3908790600160a01b900461ffff16612a5c565b9550600101613696565b505050505092915050565b60018101546000908190600160401b90046001600160401b03168061370f5750506000808052602083905260408120909150612750565b6000190160009081526020938452604080822082805294859052902054600160f01b900460ff1693915050565b600080600061374b878561383e565b915091508161375f57600092505050610c13565b6000818152602088815260408083208380529182905282205491945090600160f01b900460ff16845b818110156137ca576000818152602084905260409020546137c0906137b990600160a01b900461ffff168b8b611d7f565b8790612a5c565b9550600101613788565b5050505050949350505050565b6001600160a01b038216600090815260208490526040812061107e8184610dac565b6000806000613808868561383e565b915091508161381c576000925050506106dd565b60008181526020879052604090206138349086613376565b9695505050505050565b600182015460009081906001600160401b0380821691600160401b9004168061386a5760009350613934565b6000198101600090815260208781526040808320838052909152902054600160b01b90046001600160401b031685106138ac5760019350600181039250613934565b600082815260208781526040808320838052909152902054600160b01b90046001600160401b03168510156139215781156139185760405162461bcd60e51b8152600401808060200182810382526030815260200180613d7d6030913960400191505060405180910390fd5b60009350613934565b6001935061393186838388613a83565b92505b50509250929050565b60008281526020849052604080822083835291208284101561399457805482546001600160a01b0319166001600160a01b0390911617808355815461ffff600160a01b91829004160261ffff60a01b199091161782555b80546001600160b01b031916905550505050565b600082156111435760408051808201909152601681527513585e0819195b1959d85d195cc8195e18d95959195960521b602082015260028310613a2c5760405162461bcd60e51b8152602060048201818152835160248401528351909283926044909101919085019080838360008315610d12578181015183820152602001610cfa565b50600082815260208690526040902080546001600160a01b0319166001600160a01b038616178155613a5d846133db565b815461ffff91909116600160a01b0261ffff60a01b199091161790555060018101610c13565b60008381613a9285600161216e565b90505b81811115612400576000613ab36002611e4460016117928688612a5c565b600081815260208a81526040808320838052909152902054909150600160b01b90046001600160401b03168510613aec57809250613afa565b613af781600161216e565b91505b50613a95565b80356001600160a01b03811681146103c557600080fd5b600060208284031215613b28578081fd5b61043782613b00565b60008060408385031215613b43578081fd5b613b4c83613b00565b9150613b5a60208401613b00565b90509250929050565b600080600060608486031215613b77578081fd5b613b8084613b00565b9250613b8e60208501613b00565b9150604084013590509250925092565b60008060408385031215613bb0578182fd5b613bb983613b00565b946020939093013593505050565b60006020808385031215613bd9578182fd5b82356001600160401b0380821115613bef578384fd5b818501915085601f830112613c02578384fd5b813581811115613c0e57fe5b83810260405185828201018181108582111715613c2757fe5b604052828152858101935084860182860187018a1015613c45578788fd5b8795505b83861015613c6e57613c5a81613b00565b855260019590950194938601938601613c49565b5098975050505050505050565b600060208284031215613c8c578081fd5b5035919050565b6080808252855190820181905260009060209060a0840190828901845b82811015613cd55781516001600160a01b031684529284019290840190600101613cb0565b50505083810382850152865180825287830191830190845b81811015613d0957835183529284019291840191600101613ced565b505060408501969096525050506060015292915050565b60208082526033908201527f64656c6567617465734f6620646f6573206e6f7420776f726b20696e20414d4f604082015272554e542064656c65676174696f6e206d6f646560681b606082015260800190565b9081526020019056fe44656c65676174696f6e486973746f72793a2072656164696e672066726f6d20636c65616e65642d757020626c6f636b53616665436173743a2076616c756520646f65736e27742066697420696e2031362062697473436c65616e757020626c6f636b206d75737420626520696e207468652070617374756e64656c6567617465416c6c2063616e206f6e6c79206265207573656420696e2070657263656e746167652064656c65676174696f6e206d6f646545524332303a207472616e7366657220616d6f756e7420657863656564732062616c616e6365436c65616e757020626c6f636b206e756d626572206d757374206e65766572206465637265617365500599802164a08023e87ffc3eed0ba3ae60697b3083ba81d046683679d81c6b44656c6567617461626c653a2072656164696e672066726f6d20636c65616e65642d757020626c6f636b756e64656c6567617465416c6c4578706c696369742063616e206f6e6c79206265207573656420696e206578706c696369742064656c65676174696f6e206d6f6465536166654d6174683a206d756c7469706c69636174696f6e206f766572666c6f7753616665436173743a2076616c756520646f65736e27742066697420696e20363420626974735265766f6b65206973206f6e6c7920666f722074686520706173742c2075736520756e64656c656761746520666f72207468652070726573656e74436865636b506f696e74486973746f72793a2072656164696e672066726f6d20636c65616e65642d757020626c6f636ba2646970667358221220704b4021368780ea3da11fcd5e966738b578e16769f505f9fdf1c4b2cab2ac6864736f6c63430007060033",
  "linkReferences": {},
  "deployedLinkReferences": {}
}