{
  "_format": "hh-sol-artifact-1",
  "contractName": "Ftso",
  "sourceName": "contracts/ftso/implementation/Ftso.sol",
  "abi": [
    {
      "inputs": [
        {
          "internalType": "string",
          "name": "_symbol",
          "type": "string"
        },
        {
          "internalType": "uint256",
          "name": "_decimals",
          "type": "uint256"
        },
        {
          "internalType": "contract IPriceSubmitter",
          "name": "_priceSubmitter",
          "type": "address"
        },
        {
          "internalType": "contract IIVPToken",
          "name": "_wNat",
          "type": "address"
        },
        {
          "internalType": "address",
          "name": "_ftsoManager",
          "type": "address"
        },
        {
          "internalType": "uint256",
          "name": "_firstEpochStartTs",
          "type": "uint256"
        },
        {
          "internalType": "uint256",
          "name": "_submitPeriodSeconds",
          "type": "uint256"
        },
        {
          "internalType": "uint256",
          "name": "_revealPeriodSeconds",
          "type": "uint256"
        },
        {
          "internalType": "uint256",
          "name": "_initialPriceUSD",
          "type": "uint256"
        },
        {
          "internalType": "uint256",
          "name": "_priceDeviationThresholdBIPS",
          "type": "uint256"
        },
        {
          "internalType": "uint256",
          "name": "_cyclicBufferSize",
          "type": "uint256"
        }
      ],
      "stateMutability": "nonpayable",
      "type": "constructor"
    },
    {
      "anonymous": false,
      "inputs": [
        {
          "indexed": true,
          "internalType": "uint256",
          "name": "epochId",
          "type": "uint256"
        },
        {
          "indexed": false,
          "internalType": "uint256",
          "name": "natTurnout",
          "type": "uint256"
        },
        {
          "indexed": false,
          "internalType": "uint256",
          "name": "lowNatTurnoutThresholdBIPS",
          "type": "uint256"
        },
        {
          "indexed": false,
          "internalType": "uint256",
          "name": "timestamp",
          "type": "uint256"
        }
      ],
      "name": "LowTurnout",
      "type": "event"
    },
    {
      "anonymous": false,
      "inputs": [
        {
          "indexed": true,
          "internalType": "uint256",
          "name": "epochId",
          "type": "uint256"
        },
        {
          "indexed": false,
          "internalType": "uint256",
          "name": "endTime",
          "type": "uint256"
        },
        {
          "indexed": false,
          "internalType": "uint256",
          "name": "timestamp",
          "type": "uint256"
        }
      ],
      "name": "PriceEpochInitializedOnFtso",
      "type": "event"
    },
    {
      "anonymous": false,
      "inputs": [
        {
          "indexed": true,
          "internalType": "uint256",
          "name": "epochId",
          "type": "uint256"
        },
        {
          "indexed": false,
          "internalType": "uint256",
          "name": "price",
          "type": "uint256"
        },
        {
          "indexed": false,
          "internalType": "bool",
          "name": "rewardedFtso",
          "type": "bool"
        },
        {
          "indexed": false,
          "internalType": "uint256",
          "name": "lowRewardPrice",
          "type": "uint256"
        },
        {
          "indexed": false,
          "internalType": "uint256",
          "name": "highRewardPrice",
          "type": "uint256"
        },
        {
          "indexed": false,
          "internalType": "enum IFtso.PriceFinalizationType",
          "name": "finalizationType",
          "type": "uint8"
        },
        {
          "indexed": false,
          "internalType": "uint256",
          "name": "timestamp",
          "type": "uint256"
        }
      ],
      "name": "PriceFinalized",
      "type": "event"
    },
    {
      "anonymous": false,
      "inputs": [
        {
          "indexed": true,
          "internalType": "address",
          "name": "voter",
          "type": "address"
        },
        {
          "indexed": true,
          "internalType": "uint256",
          "name": "epochId",
          "type": "uint256"
        },
        {
          "indexed": false,
          "internalType": "uint256",
          "name": "price",
          "type": "uint256"
        },
        {
          "indexed": false,
          "internalType": "uint256",
          "name": "timestamp",
          "type": "uint256"
        },
        {
          "indexed": false,
          "internalType": "uint256",
          "name": "votePowerNat",
          "type": "uint256"
        },
        {
          "indexed": false,
          "internalType": "uint256",
          "name": "votePowerAsset",
          "type": "uint256"
        }
      ],
      "name": "PriceRevealed",
      "type": "event"
    },
    {
      "inputs": [],
      "name": "ASSET_PRICE_USD_DECIMALS",
      "outputs": [
        {
          "internalType": "uint256",
          "name": "",
          "type": "uint256"
        }
      ],
      "stateMutability": "view",
      "type": "function"
    },
    {
      "inputs": [
        {
          "internalType": "uint256",
          "name": "_firstEpochStartTs",
          "type": "uint256"
        },
        {
          "internalType": "uint256",
          "name": "_submitPeriodSeconds",
          "type": "uint256"
        },
        {
          "internalType": "uint256",
          "name": "_revealPeriodSeconds",
          "type": "uint256"
        }
      ],
      "name": "activateFtso",
      "outputs": [],
      "stateMutability": "nonpayable",
      "type": "function"
    },
    {
      "inputs": [],
      "name": "active",
      "outputs": [
        {
          "internalType": "bool",
          "name": "",
          "type": "bool"
        }
      ],
      "stateMutability": "view",
      "type": "function"
    },
    {
      "inputs": [
        {
          "internalType": "uint256",
          "name": "",
          "type": "uint256"
        }
      ],
      "name": "assetFtsos",
      "outputs": [
        {
          "internalType": "contract IIFtso",
          "name": "",
          "type": "address"
        }
      ],
      "stateMutability": "view",
      "type": "function"
    },
    {
      "inputs": [
        {
          "internalType": "uint256",
          "name": "",
          "type": "uint256"
        }
      ],
      "name": "assets",
      "outputs": [
        {
          "internalType": "contract IIVPToken",
          "name": "",
          "type": "address"
        }
      ],
      "stateMutability": "view",
      "type": "function"
    },
    {
      "inputs": [
        {
          "internalType": "uint256",
          "name": "_maxVotePowerNatThresholdFraction",
          "type": "uint256"
        },
        {
          "internalType": "uint256",
          "name": "_maxVotePowerAssetThresholdFraction",
          "type": "uint256"
        },
        {
          "internalType": "uint256",
          "name": "_lowAssetUSDThreshold",
          "type": "uint256"
        },
        {
          "internalType": "uint256",
          "name": "_highAssetUSDThreshold",
          "type": "uint256"
        },
        {
          "internalType": "uint256",
          "name": "_highAssetTurnoutThresholdBIPS",
          "type": "uint256"
        },
        {
          "internalType": "uint256",
          "name": "_lowNatTurnoutThresholdBIPS",
          "type": "uint256"
        },
        {
          "internalType": "address[]",
          "name": "_trustedAddresses",
          "type": "address[]"
        }
      ],
      "name": "configureEpochs",
      "outputs": [],
      "stateMutability": "nonpayable",
      "type": "function"
    },
    {
      "inputs": [],
      "name": "deactivateFtso",
      "outputs": [],
      "stateMutability": "nonpayable",
      "type": "function"
    },
    {
      "inputs": [],
      "name": "epochsConfiguration",
      "outputs": [
        {
          "internalType": "uint256",
          "name": "_maxVotePowerNatThresholdFraction",
          "type": "uint256"
        },
        {
          "internalType": "uint256",
          "name": "_maxVotePowerAssetThresholdFraction",
          "type": "uint256"
        },
        {
          "internalType": "uint256",
          "name": "_lowAssetUSDThreshold",
          "type": "uint256"
        },
        {
          "internalType": "uint256",
          "name": "_highAssetUSDThreshold",
          "type": "uint256"
        },
        {
          "internalType": "uint256",
          "name": "_highAssetTurnoutThresholdBIPS",
          "type": "uint256"
        },
        {
          "internalType": "uint256",
          "name": "_lowNatTurnoutThresholdBIPS",
          "type": "uint256"
        },
        {
          "internalType": "address[]",
          "name": "_trustedAddresses",
          "type": "address[]"
        }
      ],
      "stateMutability": "view",
      "type": "function"
    },
    {
      "inputs": [
        {
          "internalType": "uint256",
          "name": "_epochId",
          "type": "uint256"
        }
      ],
      "name": "fallbackFinalizePriceEpoch",
      "outputs": [],
      "stateMutability": "nonpayable",
      "type": "function"
    },
    {
      "inputs": [
        {
          "internalType": "uint256",
          "name": "_epochId",
          "type": "uint256"
        },
        {
          "internalType": "bool",
          "name": "_returnRewardData",
          "type": "bool"
        }
      ],
      "name": "finalizePriceEpoch",
      "outputs": [
        {
          "internalType": "address[]",
          "name": "_eligibleAddresses",
          "type": "address[]"
        },
        {
          "internalType": "uint256[]",
          "name": "_natWeights",
          "type": "uint256[]"
        },
        {
          "internalType": "uint256",
          "name": "_natWeightsSum",
          "type": "uint256"
        }
      ],
      "stateMutability": "nonpayable",
      "type": "function"
    },
    {
      "inputs": [
        {
          "internalType": "uint256",
          "name": "_epochId",
          "type": "uint256"
        }
      ],
      "name": "forceFinalizePriceEpoch",
      "outputs": [],
      "stateMutability": "nonpayable",
      "type": "function"
    },
    {
      "inputs": [],
      "name": "ftsoManager",
      "outputs": [
        {
          "internalType": "address",
          "name": "",
          "type": "address"
        }
      ],
      "stateMutability": "view",
      "type": "function"
    },
    {
      "inputs": [],
      "name": "getAsset",
      "outputs": [
        {
          "internalType": "contract IIVPToken",
          "name": "",
          "type": "address"
        }
      ],
      "stateMutability": "view",
      "type": "function"
    },
    {
      "inputs": [],
      "name": "getAssetFtsos",
      "outputs": [
        {
          "internalType": "contract IIFtso[]",
          "name": "",
          "type": "address[]"
        }
      ],
      "stateMutability": "view",
      "type": "function"
    },
    {
      "inputs": [],
      "name": "getCurrentEpochId",
      "outputs": [
        {
          "internalType": "uint256",
          "name": "",
          "type": "uint256"
        }
      ],
      "stateMutability": "view",
      "type": "function"
    },
    {
      "inputs": [],
      "name": "getCurrentPrice",
      "outputs": [
        {
          "internalType": "uint256",
          "name": "_price",
          "type": "uint256"
        },
        {
          "internalType": "uint256",
          "name": "_timestamp",
          "type": "uint256"
        }
      ],
      "stateMutability": "view",
      "type": "function"
    },
    {
      "inputs": [],
      "name": "getCurrentRandom",
      "outputs": [
        {
          "internalType": "uint256",
          "name": "",
          "type": "uint256"
        }
      ],
      "stateMutability": "view",
      "type": "function"
    },
    {
      "inputs": [
        {
          "internalType": "uint256",
          "name": "_timestamp",
          "type": "uint256"
        }
      ],
      "name": "getEpochId",
      "outputs": [
        {
          "internalType": "uint256",
          "name": "",
          "type": "uint256"
        }
      ],
      "stateMutability": "view",
      "type": "function"
    },
    {
      "inputs": [
        {
          "internalType": "uint256",
          "name": "_epochId",
          "type": "uint256"
        }
      ],
      "name": "getEpochPrice",
      "outputs": [
        {
          "internalType": "uint256",
          "name": "",
          "type": "uint256"
        }
      ],
      "stateMutability": "view",
      "type": "function"
    },
    {
      "inputs": [
        {
          "internalType": "uint256",
          "name": "_epochId",
          "type": "uint256"
        },
        {
          "internalType": "address",
          "name": "_voter",
          "type": "address"
        }
      ],
      "name": "getEpochPriceForVoter",
      "outputs": [
        {
          "internalType": "uint256",
          "name": "",
          "type": "uint256"
        }
      ],
      "stateMutability": "view",
      "type": "function"
    },
    {
      "inputs": [],
      "name": "getPriceEpochConfiguration",
      "outputs": [
        {
          "internalType": "uint256",
          "name": "_firstEpochStartTs",
          "type": "uint256"
        },
        {
          "internalType": "uint256",
          "name": "_submitPeriodSeconds",
          "type": "uint256"
        },
        {
          "internalType": "uint256",
          "name": "_revealPeriodSeconds",
          "type": "uint256"
        }
      ],
      "stateMutability": "view",
      "type": "function"
    },
    {
      "inputs": [],
      "name": "getPriceEpochData",
      "outputs": [
        {
          "internalType": "uint256",
          "name": "_epochId",
          "type": "uint256"
        },
        {
          "internalType": "uint256",
          "name": "_epochSubmitEndTime",
          "type": "uint256"
        },
        {
          "internalType": "uint256",
          "name": "_epochRevealEndTime",
          "type": "uint256"
        },
        {
          "internalType": "uint256",
          "name": "_votePowerBlock",
          "type": "uint256"
        },
        {
          "internalType": "bool",
          "name": "_fallbackMode",
          "type": "bool"
        }
      ],
      "stateMutability": "view",
      "type": "function"
    },
    {
      "inputs": [
        {
          "internalType": "uint256",
          "name": "_epochId",
          "type": "uint256"
        }
      ],
      "name": "getRandom",
      "outputs": [
        {
          "internalType": "uint256",
          "name": "",
          "type": "uint256"
        }
      ],
      "stateMutability": "view",
      "type": "function"
    },
    {
      "inputs": [],
      "name": "getVoteWeightingParameters",
      "outputs": [
        {
          "internalType": "contract IIVPToken[]",
          "name": "_assets",
          "type": "address[]"
        },
        {
          "internalType": "uint256[]",
          "name": "_assetMultipliers",
          "type": "uint256[]"
        },
        {
          "internalType": "uint256",
          "name": "_totalVotePowerNat",
          "type": "uint256"
        },
        {
          "internalType": "uint256",
          "name": "_totalVotePowerAsset",
          "type": "uint256"
        },
        {
          "internalType": "uint256",
          "name": "_assetWeightRatio",
          "type": "uint256"
        },
        {
          "internalType": "uint256",
          "name": "_votePowerBlock",
          "type": "uint256"
        }
      ],
      "stateMutability": "view",
      "type": "function"
    },
    {
      "inputs": [
        {
          "internalType": "uint256",
          "name": "_circulatingSupplyNat",
          "type": "uint256"
        },
        {
          "internalType": "bool",
          "name": "_fallbackMode",
          "type": "bool"
        }
      ],
      "name": "initializeCurrentEpochStateForReveal",
      "outputs": [],
      "stateMutability": "nonpayable",
      "type": "function"
    },
    {
      "inputs": [],
      "name": "priceDeviationThresholdBIPS",
      "outputs": [
        {
          "internalType": "uint256",
          "name": "",
          "type": "uint256"
        }
      ],
      "stateMutability": "view",
      "type": "function"
    },
    {
      "inputs": [],
      "name": "priceEpochCyclicBufferSize",
      "outputs": [
        {
          "internalType": "uint256",
          "name": "",
          "type": "uint256"
        }
      ],
      "stateMutability": "view",
      "type": "function"
    },
    {
      "inputs": [],
      "name": "priceSubmitter",
      "outputs": [
        {
          "internalType": "contract IPriceSubmitter",
          "name": "",
          "type": "address"
        }
      ],
      "stateMutability": "view",
      "type": "function"
    },
    {
      "inputs": [
        {
          "internalType": "address",
          "name": "_voter",
          "type": "address"
        },
        {
          "internalType": "uint256",
          "name": "_epochId",
          "type": "uint256"
        },
        {
          "internalType": "uint256",
          "name": "_price",
          "type": "uint256"
        },
        {
          "internalType": "uint256",
          "name": "_voterWNatVP",
          "type": "uint256"
        }
      ],
      "name": "revealPriceSubmitter",
      "outputs": [],
      "stateMutability": "nonpayable",
      "type": "function"
    },
    {
      "inputs": [
        {
          "internalType": "contract IIVPToken",
          "name": "_asset",
          "type": "address"
        }
      ],
      "name": "setAsset",
      "outputs": [],
      "stateMutability": "nonpayable",
      "type": "function"
    },
    {
      "inputs": [
        {
          "internalType": "contract IIFtso[]",
          "name": "_assetFtsos",
          "type": "address[]"
        }
      ],
      "name": "setAssetFtsos",
      "outputs": [],
      "stateMutability": "nonpayable",
      "type": "function"
    },
    {
      "inputs": [
        {
          "internalType": "uint256",
          "name": "_votePowerBlock",
          "type": "uint256"
        }
      ],
      "name": "setVotePowerBlock",
      "outputs": [],
      "stateMutability": "nonpayable",
      "type": "function"
    },
    {
      "inputs": [],
      "name": "symbol",
      "outputs": [
        {
          "internalType": "string",
          "name": "",
          "type": "string"
        }
      ],
      "stateMutability": "view",
      "type": "function"
    },
    {
      "inputs": [
        {
          "internalType": "uint256",
          "name": "_initialPriceUSD",
          "type": "uint256"
        },
        {
          "internalType": "uint256",
          "name": "_initialPriceTimestamp",
          "type": "uint256"
        }
      ],
      "name": "updateInitialPrice",
      "outputs": [],
      "stateMutability": "nonpayable",
      "type": "function"
    },
    {
      "inputs": [],
      "name": "wNat",
      "outputs": [
        {
          "internalType": "contract IIVPToken",
          "name": "",
          "type": "address"
        }
      ],
      "stateMutability": "view",
      "type": "function"
    },
    {
      "inputs": [
        {
          "internalType": "address",
          "name": "_owner",
          "type": "address"
        },
        {
          "internalType": "uint256",
          "name": "_epochId",
          "type": "uint256"
        }
      ],
      "name": "wNatVotePowerCached",
      "outputs": [
        {
          "internalType": "uint256",
          "name": "",
          "type": "uint256"
        }
      ],
      "stateMutability": "nonpayable",
      "type": "function"
    }
  ],
  "bytecode": "0x6101a06040523480156200001257600080fd5b50604051620052d8380380620052d883398181016040526101608110156200003957600080fd5b81019080805160405193929190846401000000008211156200005a57600080fd5b9083019060208201858111156200007057600080fd5b82516401000000008111828201881017156200008b57600080fd5b82525081516020918201929091019080838360005b83811015620000ba578181015183820152602001620000a0565b50505050905090810190601f168015620000e85780820380516001836020036101000a031916815260200191505b506040908152602082810151918301516060840151608085015160a086015160c087015160e08801516101008901516101208a0151610140909a01518d51999c50969a5094989397929691959094939290916200014b916001918e0190620001a2565b5060c0999099526001600160601b0319606098891b81166101805296881b8716610140529490961b9094166101605260e09190915261010052610120919091526002919091554260035560805260a052506200024e565b828054600181600116156101000203166002900490600052602060002090601f016020900481019282620001da576000855562000225565b82601f10620001f557805160ff191683800117855562000225565b8280016001018555821562000225579182015b828111156200022557825182559160200191906001019062000208565b506200023392915062000237565b5090565b5b8082111562000233576000815560010162000238565b60805160a05160c05160e05161010051610120516101405160601c6101605160601c6101805160601c614f74620003646000398061189a528061200a5280612a5f52508061097f52806109ac5280610bd05280610ec15280610f8a528061124d52806112d952806117f652806119775280611bf75280611c9b5280611edd5250806116a752806118505280611da75280611e90525080610ada5280610e375280611b645280613b835280614583525080610ab95280610d945280612e055280613780525080610a985280610cf15280612dd55280612e26528061375b5250806113945250806110ec5280611b8e5280611c6e5280611cdb5280612ec752806135725250806110c1528061192f5250614f746000f3fe608060405234801561001057600080fd5b506004361061021c5760003560e01c80639edbf00711610125578063e3749e0c116100ad578063f025bf661161007c578063f025bf661461084c578063f670ebe314610854578063f72cab2814610879578063f7dba1f5146108a5578063f937d6ad1461096c5761021c565b8063e3749e0c1461076e578063e3b3a3b3146107d9578063e536f3961461080e578063eb91d37e1461082b5761021c565b8063cc245ab5116100f4578063cc245ab5146106fe578063cd4b691414610706578063cf35bdd014610723578063d0d552dd14610740578063d89601fd146107665761021c565b80639edbf0071461068a578063a29a839f14610692578063c1f6c36e1461069a578063c5d8b9e7146106d25761021c565b80635303548b116101a85780637d1d6f12116101775780637d1d6f12146104f9578063826cc76b146105165780638357d08c1461053357806395d89b41146105f0578063974d7a6b1461066d5761021c565b80635303548b146104b2578063555989da146104e15780635c222bad146104e95780636b52b242146104f15761021c565b806318931c35116101ef57806318931c351461032c5780632f0a6f3c14610384578063306ba253146103ad57806340462a2d146103d05780634afd5102146104955761021c565b806302fb0c5e1461022157806311a7aaaa1461023d578063131fdee214610261578063144e159114610306575b600080fd5b610229610974565b604080519115158252519081900360200190f35b61024561097d565b604080516001600160a01b039092168252519081900360200190f35b6103046004803603602081101561027757600080fd5b81019060208101813564010000000081111561029257600080fd5b8201836020820111156102a457600080fd5b803590602001918460208302840111640100000000831117156102c657600080fd5b9190808060200260200160405190810160405280939291908181526020018383602002808284376000920191909152509295506109a1945050505050565b005b61030e610a96565b60408051938452602084019290925282820152519081900360600190f35b610334610afe565b60408051602080825283518183015283519192839290830191858101910280838360005b83811015610370578181015183820152602001610358565b505050509050019250505060405180910390f35b6103046004803603606081101561039a57600080fd5b5080359060208101359060400135610bc5565b610304600480360360408110156103c357600080fd5b5080359060200135610eb6565b6103f5600480360360408110156103e657600080fd5b50803590602001351515610f7a565b604051808060200180602001848152602001838103835286818151815260200191508051906020019060200280838360005b8381101561043f578181015183820152602001610427565b50505050905001838103825285818151815260200191508051906020019060200280838360005b8381101561047e578181015183820152602001610466565b505050509050019550505050505060405180910390f35b610304600480360360208110156104ab57600080fd5b5035611242565b6104cf600480360360208110156104c857600080fd5b50356112a9565b60408051918252519081900360200190f35b6103046112bc565b610245611312565b6104cf611392565b6104cf6004803603602081101561050f57600080fd5b50356113b6565b6102456004803603602081101561052c57600080fd5b50356113cb565b61053b6113f5565b604051808060200180602001878152602001868152602001858152602001848152602001838103835289818151815260200191508051906020019060200280838360005b8381101561059757818101518382015260200161057f565b50505050905001838103825288818151815260200191508051906020019060200280838360005b838110156105d65781810151838201526020016105be565b505050509050019850505050505050505060405180910390f35b6105f861175e565b6040805160208082528351818301528351919283929083019185019080838360005b8381101561063257818101518382015260200161061a565b50505050905090810190601f16801561065f5780820380516001836020036101000a031916815260200191505b509250505060405180910390f35b6103046004803603602081101561068357600080fd5b50356117eb565b61024561184e565b6104cf611872565b610304600480360360808110156106b057600080fd5b506001600160a01b03813516906020810135906040810135906060013561187d565b6104cf600480360360408110156106e857600080fd5b50803590602001356001600160a01b03166118d9565b6104cf61192d565b6104cf6004803603602081101561071c57600080fd5b5035611951565b6102456004803603602081101561073957600080fd5b503561195c565b6103046004803603602081101561075657600080fd5b50356001600160a01b031661196c565b6104cf611a71565b610776611a9f565b604051808881526020018781526020018681526020018581526020018481526020018381526020018060200182810382528381815181526020019150805190602001906020028083836000838110156105d65781810151838201526020016105be565b6107e1611b45565b60408051958652602086019490945284840192909252606084015215156080830152519081900360a00190f35b6103046004803603602081101561082457600080fd5b5035611bec565b610833611c62565b6040805192835260208301919091528051918290030190f35b6104cf611c6c565b6103046004803603604081101561086a57600080fd5b50803590602001351515611c90565b6104cf6004803603604081101561088f57600080fd5b506001600160a01b038135169060200135611e89565b610304600480360360e08110156108bb57600080fd5b81359160208101359160408201359160608101359160808201359160a08101359181019060e0810160c08201356401000000008111156108fa57600080fd5b82018360208201111561090c57600080fd5b8035906020019184602083028401116401000000008311171561092e57600080fd5b919080806020026020016040519081016040528093929190818152602001838360200280828437600092019190915250929550611ed2945050505050565b610245612008565b60005460ff1681565b7f000000000000000000000000000000000000000000000000000000000000000081565b336001600160a01b037f000000000000000000000000000000000000000000000000000000000000000016146109d9576109d961202c565b60008151116109e457fe5b600181511180610a1a5750306001600160a01b031681600081518110610a0657fe5b60200260200101516001600160a01b031614155b610a2057fe5b8051610a33906010906020840190614d51565b5080516001600160401b0381118015610a4b57600080fd5b50604051908082528060200260200182016040528015610a75578160200160208202803683370190505b508051610a8a91600f91602090910190614d51565b50610a93612094565b50565b7f00000000000000000000000000000000000000000000000000000000000000007f00000000000000000000000000000000000000000000000000000000000000007f0000000000000000000000000000000000000000000000000000000000000000909192565b600f546060906001148015610b1557506010546001145b8015610b4b5750306001600160a01b03166010600081548110610b3457fe5b6000918252602090912001546001600160a01b0316145b610baf576010805480602002602001604051908101604052809291908181526020018280548015610ba557602002820191906000526020600020905b81546001600160a01b03168152600190910190602001808311610b87575b5050505050610bbf565b6040805160008152602081019091525b90505b90565b336001600160a01b037f00000000000000000000000000000000000000000000000000000000000000001614610bfd57610bfd61202c565b600054604080518082019091526016815275119514d3c8185b1c9958591e481858dd1a5d985d195960521b60208201529060ff1615610cba5760405162461bcd60e51b81526004018080602001828103825283818151815260200191508051906020019080838360005b83811015610c7f578181015183820152602001610c67565b50505050905090810190601f168015610cac5780820380516001836020036101000a031916815260200191505b509250505060405180910390fd5b5060408051808201909152601e81527f496e76616c69642070726963652065706f636820706172616d6574657273000060208201527f00000000000000000000000000000000000000000000000000000000000000008414610d5d5760405162461bcd60e51b8152602060048201818152835160248401528351909283926044909101919085019080838360008315610c7f578181015183820152602001610c67565b5060408051808201909152601e81527f496e76616c69642070726963652065706f636820706172616d6574657273000060208201527f00000000000000000000000000000000000000000000000000000000000000008314610e005760405162461bcd60e51b8152602060048201818152835160248401528351909283926044909101919085019080838360008315610c7f578181015183820152602001610c67565b5060408051808201909152601e81527f496e76616c69642070726963652065706f636820706172616d6574657273000060208201527f00000000000000000000000000000000000000000000000000000000000000008214610ea35760405162461bcd60e51b8152602060048201818152835160248401528351909283926044909101919085019080838360008315610c7f578181015183820152602001610c67565b50506000805460ff191660011790555050565b336001600160a01b037f00000000000000000000000000000000000000000000000000000000000000001614610eee57610eee61202c565b600054604080518082019091526016815275119514d3c8185b1c9958591e481858dd1a5d985d195960521b60208201529060ff1615610f6e5760405162461bcd60e51b8152602060048201818152835160248401528351909283926044909101919085019080838360008315610c7f578181015183820152602001610c67565b50600291909155600355565b6060806000336001600160a01b037f00000000000000000000000000000000000000000000000000000000000000001614610fb757610fb761202c565b6000610fc286612270565b60018101805460ff60f01b19169055600581015490915060009015610ffa57816005015461271083600801540281610ff657fe5b0490505b6001820154600160f81b900460ff1680611018575081600401548111155b1561108b576001820154600160f81b900460ff1661107857600482015460408051838152602081019290925242828201525188917fbece8aa526cdc5e528cdaa56c1d03edc19da51e41845aa146f64a7071f74c65a919081900360600190a25b611084878360006123aa565b505061123b565b60608060606110998561251c565b9194509250905060606110aa614db2565b6110b485856126b1565b61012081015191935091507f000000000000000000000000000000000000000000000000000000000000000090611110906004908f907f00000000000000000000000000000000000000000000000000000000000000006129cf565b111561112e576111228c8860006123aa565b5050505050505061123b565b600f8701805460ff19166001179055610120810151600e88018190556002554260035560008b156111895760006111648e612a5b565b90506111738984838789612b1b565b8251929e50909c509a501561118757600191505b505b6111958d8385846118d3565b8c7ffe8865c1fe85bbf124b9e0f16cccfeeb6f330454fd79475a31261c8fa250bc3089600e0154838561014001518661016001518d600f0160009054906101000a900460ff164260405180878152602001861515815260200185815260200184815260200183600581111561120657fe5b8152602001828152602001965050505050505060405180910390a2505050600190940180546001600160f81b03169055505050505b9250925092565b336001600160a01b037f0000000000000000000000000000000000000000000000000000000000000000161461127a5761127a61202c565b600061128582612270565b6001808201805460ff60f01b191690559091506112a590839083906123aa565b5050565b60006112b482612dd1565b90505b919050565b60005460ff166112ce576112ce612e56565b336001600160a01b037f000000000000000000000000000000000000000000000000000000000000000016146113065761130661202c565b6000805460ff19169055565b600f54600090600114801561132957506010546001145b801561135f5750306001600160a01b0316601060008154811061134857fe5b6000918252602090912001546001600160a01b0316145b61136a576000610bbf565b600f60008154811061137857fe5b6000918252602090912001546001600160a01b0316905090565b7f000000000000000000000000000000000000000000000000000000000000000081565b60006113c182612ec0565b600e015492915050565b601081815481106113db57600080fd5b6000918252602090912001546001600160a01b0316905081565b606080600080600080600f80548060200260200160405190810160405280929190818152602001828054801561145457602002820191906000526020600020905b81546001600160a01b03168152600190910190602001808311611436575b50506006548451949a506001600160f01b031694506000939250506001600160401b0382119050801561148657600080fd5b506040519080825280602002602001820160405280156114b0578160200160208202803683370190505b509050600087516001600160401b03811180156114cc57600080fd5b506040519080825280602002602001820160405280156114f6578160200160208202803683370190505b50905060005b88518110156116855760006001600160a01b031689828151811061151c57fe5b60200260200101516001600160a01b0316141561153a5760006115be565b88818151811061154657fe5b60200260200101516001600160a01b0316633e5aa26a856040518263ffffffff1660e01b81526004018082815260200191505060206040518083038186803b15801561159157600080fd5b505afa1580156115a5573d6000803e3d6000fd5b505050506040513d60208110156115bb57600080fd5b50515b8382815181106115ca57fe5b602002602001018181525050601081815481106115e357fe5b9060005260206000200160009054906101000a90046001600160a01b03166001600160a01b031663eb91d37e6040518163ffffffff1660e01b8152600401604080518083038186803b15801561163857600080fd5b505afa15801561164c573d6000803e3d6000fd5b505050506040513d604081101561166257600080fd5b5051825183908390811061167257fe5b60209081029190910101526001016114fc565b50600061169560048a8585612f88565b90506116a360048a8361312e565b97507f00000000000000000000000000000000000000000000000000000000000000006001600160a01b0316633e5aa26a856040518263ffffffff1660e01b81526004018082815260200191505060206040518083038186803b15801561170957600080fd5b505afa15801561171d573d6000803e3d6000fd5b505050506040513d602081101561173357600080fd5b5051965061174460048a8584613262565b955061175160048761332a565b9450505050909192939495565b60018054604080516020600284861615610100026000190190941693909304601f810184900484028201840190925281815292918301828280156117e35780601f106117b8576101008083540402835291602001916117e3565b820191906000526020600020905b8154815290600101906020018083116117c657829003601f168201915b505050505081565b336001600160a01b037f000000000000000000000000000000000000000000000000000000000000000016146118235761182361202c565b600061182e82612270565b6001808201805460ff60f01b191690559091506112a5908390839061337f565b7f000000000000000000000000000000000000000000000000000000000000000081565b6000610bbf42612dd1565b60005460ff1661188f5761188f612e56565b336001600160a01b037f000000000000000000000000000000000000000000000000000000000000000016146118c7576118c761202c565b6118d384848484613467565b50505050565b6000806118e584612ec0565b905060006118f38285613701565b90508061190557600092505050611927565b600019016000908152600d90910160205260409020546001600160801b031690505b92915050565b7f000000000000000000000000000000000000000000000000000000000000000081565b60006112b482612a5b565b600f81815481106113db57600080fd5b336001600160a01b037f000000000000000000000000000000000000000000000000000000000000000016146119a4576119a461202c565b60408051602081019091523081526119c0906010906001614d51565b5060408051602081019091526001600160a01b03821681526119e690600f906001614d51565b50806001600160a01b031663313ce5676040518163ffffffff1660e01b815260040160206040518083038186803b158015611a2057600080fd5b505afa158015611a34573d6000803e3d6000fd5b505050506040513d6020811015611a4a57600080fd5b50516001600160a01b03909116600090815260056020526040902060ff909116600a0a9055565b600080611a7c611872565b905080611a8d576000915050610bc2565b611a9960018203612a5b565b91505090565b60008060008060008060606004600301546004800154600460050154600460060154600460070154600460080154600460090180805480602002602001604051908101604052809291908181526020018280548015611b2757602002820191906000526020600020905b81546001600160a01b03168152600190910190602001808311611b09575b50505050509050965096509650965096509650965090919293949596565b6000806000806000611b55611872565b9450611b6085613759565b93507f00000000000000000000000000000000000000000000000000000000000000008401925060006004817f00000000000000000000000000000000000000000000000000000000000000008881611bb557fe5b0681526020810191909152604001600020600101549596949593946001600160f01b03851694600160f81b900460ff169350915050565b336001600160a01b037f00000000000000000000000000000000000000000000000000000000000000001614611c2457611c2461202c565b438110611c3057600080fd5b600160f01b8110611c4057600080fd5b600680546001600160f01b0319166001600160f01b0392909216919091179055565b6002546003549091565b7f000000000000000000000000000000000000000000000000000000000000000081565b336001600160a01b037f00000000000000000000000000000000000000000000000000000000000000001614611cc857611cc861202c565b6000611cd2611872565b905060006004817f00000000000000000000000000000000000000000000000000000000000000008481611d0257fe5b06815260208101919091526040016000908120600f8101805460ff1916905560088101829055600c81019190915560065460018201805486158015600160f81b026001600160f81b036001600160f01b03199093166001600160f01b03909516949094179190911692909217905560028201849055909150611d855750506112a5565b606080611d906137a6565b6006549194509250611e40915084908890611dd5907f0000000000000000000000000000000000000000000000000000000000000000906001600160f01b031661399c565b600f805480602002602001604051908101604052809291908181526020018280548015611e2b57602002820191906000526020600020905b81546001600160a01b03168152600190910190602001808311611e0d575b5060049796959493508a925089915050613a2d565b837fc0eaa359541c7c642d9947c9496507c134f3e4f8e1fd433313eb27dc48cb1fb7611e6b86613759565b604080519182524260208301528051918290030190a2505050505050565b6000611ecb7f000000000000000000000000000000000000000000000000000000000000000084611eb985612ec0565b600101546001600160f01b0316613adc565b9392505050565b336001600160a01b037f00000000000000000000000000000000000000000000000000000000000000001614611f0a57611f0a61202c565b600787905560088690556009859055600a849055600b839055600c829055600d5460005b81811015611f8b5760006004600a01600060046009018481548110611f4f57fe5b6000918252602080832091909101546001600160a01b031683528201929092526040019020805460ff1916911515919091179055600101611f2e565b5050805160005b81811015611fe95760016004600a016000858481518110611faf57fe5b6020908102919091018101516001600160a01b03168252810191909152604001600020805460ff1916911515919091179055600101611f92565b508151611ffd90600d906020850190614d51565b505050505050505050565b7f000000000000000000000000000000000000000000000000000000000000000081565b604080518082018252600d81526c1058d8d95cdcc819195b9a5959609a1b6020808301918252925162461bcd60e51b81526004810193845282516024820152825192939283926044909201919080838360008315610c7f578181015183820152602001610c67565b60105460011480156120d05750306001600160a01b031660106000815481106120b957fe5b6000918252602090912001546001600160a01b0316145b156120da5761226e565b60005b601054811015610a93576000601082815481106120f657fe5b6000918252602091829020015460408051635c222bad60e01b815290516001600160a01b0390921692635c222bad92600480840193829003018186803b15801561213f57600080fd5b505afa158015612153573d6000803e3d6000fd5b505050506040513d602081101561216957600080fd5b5051600f8054919250908390811061217d57fe5b6000918252602090912001546001600160a01b03828116911614156121a25750612266565b80600f83815481106121b057fe5b600091825260209091200180546001600160a01b0319166001600160a01b0392831617905581161561226457806001600160a01b031663313ce5676040518163ffffffff1660e01b815260040160206040518083038186803b15801561221557600080fd5b505afa158015612229573d6000803e3d6000fd5b505050506040513d602081101561223f57600080fd5b50516001600160a01b038216600090815260056020526040902060ff909116600a0a90555b505b6001016120dd565b565b600061227b82613b7f565b4210156040518060400160405280602081526020017f45706f6368206e6f7420726561647920666f722066696e616c697a6174696f6e815250906123005760405162461bcd60e51b8152602060048201818152835160248401528351909283926044909101919085019080838360008315610c7f578181015183820152602001610c67565b5061230a82612ec0565b90506000600f82015460ff16600581111561232157fe5b146040518060400160405280601781526020017f45706f636820616c72656164792066696e616c697a6564000000000000000000815250906123a45760405162461bcd60e51b8152602060048201818152835160248401528351909283926044909101919085019080838360008315610c7f578181015183820152602001610c67565b50919050565b6060600061241584600460090180548060200260200160405190810160405280929190818152602001828054801561240b57602002820191906000526020600020905b81546001600160a01b031681526001909101906020018083116123ed575b5050505050613bb2565b9092509050801561250a5761242a8282613cba565b600e8501558261243b57600261243e565b60045b600f8501805460ff1916600183600581111561245657fe5b0217905550600e8401546002554260035561247085610a93565b847ffe8865c1fe85bbf124b9e0f16cccfeeb6f330454fd79475a31261c8fa250bc3085600e0154600080600089600f0160009054906101000a900460ff16426040518087815260200186151581526020018581526020018481526020018360058111156124d957fe5b8152602001828152602001965050505050505060405180910390a26001840180546001600160f81b03169055612515565b61251585858561337f565b5050505050565b6060806060600084600c01549050806001600160401b038111801561254057600080fd5b5060405190808252806020026020018201604052801561256a578160200160208202803683370190505b509350806001600160401b038111801561258357600080fd5b506040519080825280602002602001820160405280156125ad578160200160208202803683370190505b5091506000816001600160401b03811180156125c857600080fd5b506040519080825280602002602001820160405280156125f2578160200160208202803683370190505b50905060005b8281101561269a576000818152600d880160205260409020805487516001600160801b039091169088908490811061262c57fe5b602090810291909101015280548551600160801b9091046001600160401b03169086908490811061265957fe5b602090810291909101015280548351600160c01b9091046001600160401b03169084908490811061268657fe5b6020908102919091010152506001016125f8565b506126a6868483613de8565b935050509193909250565b60606126bb614db2565b8351806001600160401b03811180156126d357600080fd5b506040519080825280602002602001820160405280156126fd578160200160208202803683370190505b50925060005b8181101561272b578084828151811061271857fe5b6020908102919091010152600101612703565b506127426002600060018403600080888b8b613eff565b60808501526060840152808352835185918591811061275d57fe5b60200260200101518151811061276f57fe5b602090810291909101015160a08301819052608083015160608401518451920101906127a8578251600060c085015260208401526127fc565b600481048360600151116127cc578251606084015160c085015260208401526127fc565b6127f060016000600186600001510360008760a00151886080015101898c8c613eff565b5060c085015260208401525b82516000198301141561281d57825160006101008501526040840152612875565b6004810483608001511161284257825160808401516101008501526040840152612875565b61286860038460000151600101600185038660a001518760600151016000898c8c613eff565b6101008601525060408401525b858484600001518151811061288657fe5b60200260200101518151811061289857fe5b6020908102919091010151610120840152600281048360a001518460600151011480156128c6575060028106155b156128f65760026128e0846000015160018503878a6141da565b84610120015101816128ee57fe5b046101208401525b612910836020015160006000198660c00151888b8b61429a565b60c08501526020840152604083015161010084015161293b9190600019850190600190888b8b61429a565b61010085015260408401526020830151845187918691811061295957fe5b60200260200101518151811061296b57fe5b602002602001015183610140018181525050858484604001518151811061298e57fe5b6020026020010151815181106129a057fe5b602090810291909101015161016084015261010083015160c08401519091030360e08301525090939092509050565b6000836129de57506000612a53565b60008581846000198801816129ef57fe5b068152602001908152602001600020600e0154905080841415612a16576000915050612a53565b83612a295764e8d4a51000915050612a53565b600084821115612a3c5750838103612a41565b508084035b612a4e816127108761436e565b925050505b949350505050565b60007f00000000000000000000000000000000000000000000000000000000000000006001600160a01b031663cd4b6914836040518263ffffffff1660e01b81526004018082815260200191505060206040518083038186803b158015612ac157600080fd5b505afa158015612ad5573d6000803e3d6000fd5b505050506040513d6020811015612aeb57600080fd5b50516040805160208082019390935230818301528151808203830181526060909101909152805191012092915050565b6020840151606090819060009081905b88604001518111612bf6576000878281518110612b4457fe5b602002602001015190506000878281518110612b5c57fe5b60200260200101511115612bec576000818152600d8c0160205260409020546101408b01516001600160801b0390911690811480612ba757508a6101600151816001600160801b0316145b8015612bd857506000828152600d8d016020526040902060010154612bd6908b906001600160a01b031661447a565b155b15612be4575050612bee565b506001909201915b505b600101612b2b565b50806001600160401b0381118015612c0d57600080fd5b50604051908082528060200260200182016040528015612c37578160200160208202803683370190505b509350806001600160401b0381118015612c5057600080fd5b50604051908082528060200260200182016040528015612c7a578160200160208202803683370190505b5060208901519093506000905b89604001518111612dc3576000888281518110612ca057fe5b602002602001015190506000888281518110612cb857fe5b602002602001015190506000811115612db8576000828152600d8e0160205260409020546101408d01516001600160801b0390911690811480612d0857508c6101600151816001600160801b0316145b8015612d3957506000838152600d8f016020526040902060010154612d37908d906001600160a01b031661447a565b155b15612d4657505050612dbb565b6000838152600d8f01602052604090206001015489516001600160a01b03909116908a9087908110612d7457fe5b60200260200101906001600160a01b031690816001600160a01b03168152505081888681518110612da157fe5b602090810291909101015250948501946001909301925b50505b600101612c87565b505050955095509592505050565b60007f0000000000000000000000000000000000000000000000000000000000000000821015612e03575060006112b7565b7f00000000000000000000000000000000000000000000000000000000000000007f0000000000000000000000000000000000000000000000000000000000000000830381612e4e57fe5b0490506112b7565b604080518082018252600f81526e4654534f206e6f742061637469766560881b6020808301918252925162461bcd60e51b81526004810193845282516024820152825192939283926044909201919080838360008315610c7f578181015183820152602001610c67565b60006004817f00000000000000000000000000000000000000000000000000000000000000008481612eee57fe5b0681526020019081526020016000209050806002015482146040518060400160405280601881526020017f45706f63682064617461206e6f7420617661696c61626c650000000000000000815250906123a45760405162461bcd60e51b8152602060048201818152835160248401528351909283926044909101919085019080838360008315610c7f578181015183820152602001610c67565b82516060906000816001600160401b0381118015612fa557600080fd5b50604051908082528060200260200182016040528015612fcf578160200160208202803683370190505b5090506000805b838110156130b85760006001600160a01b0316888281518110612ff557fe5b60200260200101516001600160a01b03161415613011576130b0565b600061308887838151811061302257fe5b60200260200101518b60010160008c868151811061303c57fe5b60200260200101516001600160a01b03166001600160a01b03168152602001908152602001600020548a858151811061307157fe5b602002602001015161436e9092919063ffffffff16565b90508084838151811061309757fe5b60209081029190910101526130ac83826144b5565b9250505b600101612fd6565b5080156131235760005b83811015613121576131026130f56127108884815181106130df57fe5b602002602001015161450f90919063ffffffff16565b8385848151811061307157fe5b83828151811061310e57fe5b60209081029190910101526001016130c2565b505b509695505050505050565b8151606090806001600160401b038111801561314957600080fd5b50604051908082528060200260200182016040528015613173578160200160208202803683370190505b50915060005b818110156132595760006001600160a01b031685828151811061319857fe5b60200260200101516001600160a01b0316146132365760008660010160008784815181106131c257fe5b60200260200101516001600160a01b03166001600160a01b0316815260200190815260200160002054905061321861271064e8d4a510008161320057fe5b04670de0b6b3a7640000028287858151811061307157fe5b84838151811061322457fe5b60200260200101818152505050613251565b600083828151811061324457fe5b6020026020010181815250505b600101613179565b50509392505050565b600080805b85518110156133205760006001600160a01b031686828151811061328757fe5b60200260200101516001600160a01b0316146133185760006127106133008784815181106132b157fe5b60200260200101518a60010160008b87815181106132cb57fe5b60200260200101516001600160a01b03166001600160a01b031681526020019081526020016000205488868151811061307157fe5b8161330757fe5b04905061331483826144b5565b9250505b600101613267565b5095945050505050565b600080836005015483101561334157506000611ecb565b836006015483106133555750611388611ecb565b600584015460068501546101f49190819003908503611194028161337557fe5b0401949350505050565b821561339257600254600e83015561339a565b6000600e8301555b806133a65760036133a9565b60055b600f8301805460ff191660018360058111156133c157fe5b02179055506133cf83610a93565b827ffe8865c1fe85bbf124b9e0f16cccfeeb6f330454fd79475a31261c8fa250bc3083600e0154600080600087600f0160009054906101000a900460ff164260405180878152602001861515815260200185815260200184815260200183600581111561343857fe5b8152602001828152602001965050505050505060405180910390a25060010180546001600160f81b0316905550565b60408051808201909152600e81526d0a0e4d2c6ca40e8dede40d0d2ced60931b6020820152600160801b83106134de5760405162461bcd60e51b8152602060048201818152835160248401528351909283926044909101919085019080838360008315610c7f578181015183820152602001610c67565b506134e883614568565b6040518060400160405280601881526020017f52657665616c20706572696f64206e6f742061637469766500000000000000008152509061356a5760405162461bcd60e51b8152602060048201818152835160248401528351909283926044909101919085019080838360008315610c7f578181015183820152602001610c67565b5060006004817f0000000000000000000000000000000000000000000000000000000000000000868161359957fe5b0681526020810191909152604001600020600181015490915060ff600160f81b8204811691600160f01b8104909116906001600160f01b031681806135fe57508280156135fe57506001600160a01b0388166000908152600e602052604090205460ff165b6040518060400160405280602081526020017f45706f6368206e6f7420696e697469616c697a656420666f722072657665616c815250906136805760405162461bcd60e51b8152602060048201818152835160248401528351909283926044909101919085019080838360008315610c7f578181015183820152602001610c67565b50600080613691868b8988876145ab565b915091506136a2868b84848c61460b565b604080518981524260208201528082018490526060810183905290518a916001600160a01b038d16917fc1b1d37612887c207efe8cb44f4069b7f10c45edaf6e8405648a94e02b6e9ec79181900360800190a350505050505050505050565b600c820154600090815b8181101561374e576000818152600d860160205260409020600101546001600160a01b03858116911614156137465760010191506119279050565b60010161370b565b506000949350505050565b7f0000000000000000000000000000000000000000000000000000000000000000600182017f00000000000000000000000000000000000000000000000000000000000000000201919050565b60608060606137b3612094565b600f80548060200260200160405190810160405280929190818152602001828054801561380957602002820191906000526020600020905b81546001600160a01b031681526001909101906020018083116137eb575b5050505050925082516001600160401b038111801561382757600080fd5b50604051908082528060200260200182016040528015613851578160200160208202803683370190505b50915082516001600160401b038111801561386b57600080fd5b50604051908082528060200260200182016040528015613895578160200160208202803683370190505b50905060005b8351811015613996576138cf8482815181106138b357fe5b60209081029190910101516006546001600160f01b031661399c565b8382815181106138db57fe5b602002602001018181525050601081815481106138f457fe5b9060005260206000200160009054906101000a90046001600160a01b03166001600160a01b031663eb91d37e6040518163ffffffff1660e01b8152600401604080518083038186803b15801561394957600080fd5b505afa15801561395d573d6000803e3d6000fd5b505050506040513d604081101561397357600080fd5b5051825183908390811061398357fe5b602090810291909101015260010161389b565b50909192565b60006001600160a01b0383166139b457506000611927565b826001600160a01b031663caeb942b836040518263ffffffff1660e01b815260040180828152602001915050602060405180830381600087803b1580156139fa57600080fd5b505af1158015613a0e573d6000803e3d6000fd5b505050506040513d6020811015613a2457600080fd5b50519050611927565b613a3a878785858561471f565b6007870154600380880191909155600888015460048801556005870186905560068701859055870154613a75908581613a6f57fe5b04614788565b86546001600160801b0319166001600160801b039190911617865560048701546007870154613aa6919081613a6f57fe5b86546001600160801b03918216600160801b0291161786555050506001909201805460ff60f01b1916600160f01b179055505050565b60006001600160a01b038416613af457506000611ecb565b836001600160a01b031663e587497e84846040518363ffffffff1660e01b815260040180836001600160a01b0316815260200182815260200192505050602060405180830381600087803b158015613b4b57600080fd5b505af1158015613b5f573d6000803e3d6000fd5b505050506040513d6020811015613b7557600080fd5b5051949350505050565b60007f0000000000000000000000000000000000000000000000000000000000000000613bab83613759565b0192915050565b600c8201548151606091600091806001600160401b0381118015613bd557600080fd5b50604051908082528060200260200182016040528015613bff578160200160208202803683370190505b50935060005b82811015613cb0576000818152600d880160205260408120600101546001600160a01b0316905b83811015613ca657878181518110613c4057fe5b60200260200101516001600160a01b0316826001600160a01b03161415613c9e576000838152600d8a01602052604090205487516001600160801b0390911690889088908110613c8c57fe5b60209081029190910101526001909501945b600101613c2c565b5050600101613c05565b5050509250929050565b60008082118015613ccc575081835110155b613cd257fe5b60015b82811015613d7e576000848281518110613ceb57fe5b6020026020010151905060008290505b600081118015613d20575081866001830381518110613d1657fe5b6020026020010151115b15613d5c57856001820381518110613d3457fe5b6020026020010151868281518110613d4857fe5b602090810291909101015260001901613cfb565b81868281518110613d6957fe5b60209081029190910101525050600101613cd5565b506002820460018084161415613daa57838181518110613d9a57fe5b6020026020010151915050611927565b6002848281518110613db857fe5b6020026020010151856001840381518110613dcf57fe5b60200260200101510181613ddf57fe5b04915050611927565b600c830154606090806001600160401b0381118015613e0657600080fd5b50604051908082528060200260200182016040528015613e30578160200160208202803683370190505b5091506000613e3e856147d0565b90506000613e4b856147d0565b9050600080613e5b898585614815565b90508315613e6b57806127100391505b60005b85811015613ef25760008315613eb457613eb18a8381518110613e8d57fe5b602002602001015164e8d4a510000261271088028661436e9092919063ffffffff16565b90505b60008315613ece57613ecb8a8481518110613e8d57fe5b90505b808201898481518110613edd57fe5b60209081029190910101525050600101613e6e565b5050505050509392505050565b6000806000888a1415613f195750889150869050856141cc565b613f21614e13565b88815260208101889052613f33614e50565b60208082018d905260408083018d90528051448184015242818301528151808203830181526060909101909152805191012060005b60208301516040840151613f9a9190816001818303018681613f8657fe5b0601876000015188602001518f8f8f61487c565b606087015260408601528084528a518b91908110613fb457fe5b602002602001015183606001818152505087836060015181518110613fd557fe5b6020026020010151846080018181525050836060015184604001518560800151010190508e600214156140b05760028106600282040160a0850181905280820360c086015260408501511080159061403057508b8460a00151115b15614055578251600019016040840152606084015160808501510160208501526140ab565b8360c00151846060015111801561406f57508a8460c00151115b156140905782516001016020840152604084015160808501510184526140ab565b505051604082015160609092015190945090925090506141cc565b6141c7565b8e60011415614141576004810460a0850181905280820360c086015260408501511180156140e157508b8460a00151115b15614106578251600019016040840152606084015160808501510160208501526140ab565b8360c0015184606001511015801561406f57508a8460c0015111156140905782516001016020840152604084015160808501510184526140ab565b6004810460c08501819052810360a0850181905260408501511080159061416b57508b8460a00151115b15614190578251600019016040840152606084015160808501510160208501526141c7565b8360c0015184606001511180156141aa57508a8460c00151115b156140905782516001016020840152604084015160808501510184525b613f68565b985098509895505050505050565b60008385141561421257818386815181106141f157fe5b60200260200101518151811061420357fe5b60200260200101519050612a53565b60008284876001018151811061422457fe5b60200260200101518151811061423657fe5b602002602001015190506000808760020190505b86811161428e578486828151811061425e57fe5b60200260200101518151811061427057fe5b6020026020010151915082821015614286578192505b60010161424a565b50909695505050505050565b60008085888a03880282136142b55789879250925050614362565b600085878c815181106142c457fe5b6020026020010151815181106142d657fe5b602090810291909101015190508a89016000815b60008c8e830302136143565789818151811061430257fe5b602002602001015191508389838151811061431957fe5b6020026020010151141561434f5787828151811061433357fe5b60200260200101518503945061434a83828c614a45565b918b01915b8b016142ea565b50508990039350909150505b97509795505050505050565b60008082116143b7576040805162461bcd60e51b815260206004820152601060248201526f4469766973696f6e206279207a65726f60801b604482015290519081900360640190fd5b836143c457506000611ecb565b838302838582816143d157fe5b0414156143ea578281816143e157fe5b04915050611ecb565b60008386816143f557fe5b049050600084878161440357fe5b069050600085878161441157fe5b049050600086888161441f57fe5b06905061446d61443988614433868561450f565b90614aae565b614467614446868661450f565b614467614453898761450f565b6144678d6144618c8b61450f565b9061450f565b906144b5565b9998505050505050505050565b604080516020808201949094526001600160a01b03929092168282015280518083038201815260609092019052805191012060019081161490565b600082820183811015611ecb576040805162461bcd60e51b815260206004820152601b60248201527f536166654d6174683a206164646974696f6e206f766572666c6f770000000000604482015290519081900360640190fd5b60008261451e57506000611927565b8282028284828161452b57fe5b0414611ecb5760405162461bcd60e51b8152600401808060200182810382526021815260200180614f1e6021913960400191505060405180910390fd5b60008061457483613759565b9050428111158015611ecb57507f000000000000000000000000000000000000000000000000000000000000000001421092915050565b60008083156145bf57506000905080614601565b8491506145cd878785614b15565b87549091506001600160801b0380821691600160801b900416818411156145f2578193505b808311156145fe578092505b50505b9550959350505050565b600085600c01549050600061462c8686868a600601548b6007015488614bd3565b63ffffffff838116608083019081526000858152600d8b0160209081526040918290208551815492870151938701516001600160801b03199093166001600160801b039091161767ffffffffffffffff60801b1916600160801b6001600160401b0394851602176001600160c01b0316600160c01b939092169290920217815560608401516001918201805493516001600160a01b03199094166001600160a01b039092169190911763ffffffff60a01b1916600160a01b93851693909302929092179091558401600c8a0155600889015491925061470e919087906144b516565b876008018190555050505050505050565b825161473490600a8601906020860190614d51565b5061474185848484612f88565b805161475791600b870191602090910190614e78565b506000614765868685614c30565b600786018190559050614778868261332a565b8560090181905550505050505050565b6000600160801b82106147cc5760405162461bcd60e51b8152600401808060200182810382526027815260200180614ef76027913960400191505060405180910390fd5b5090565b600080805b835181101561480e576148048482815181106147ed57fe5b6020026020010151836144b590919063ffffffff16565b91506001016147d5565b5092915050565b60008161482457506000611ecb565b826148325750612710611ecb565b60006148468361271064e8d4a5100061436e565b90508460030154811061485f5750506009830154611ecb565b6003850154600986015461487491839061436e565b915050611ecb565b60008060008085878b8151811061488f57fe5b6020026020010151815181106148a157fe5b60200260200101519050600060026001600160401b03811180156148c457600080fd5b506040519080825280602002602001820160405280156148ee578160200160208202803683370190505b50905089816000815181106148ff57fe5b602002602001018181525050888160018151811061491957fe5b60209081029190910101528c8c6149318d828c614a45565b81805b828110156149f55760008c828151811061494a57fe5b60200260200101519050868c828151811061496157fe5b602002602001015110156149b8578a818151811061497b57fe5b60200260200101518660008151811061499057fe5b6020026020010181815101915081815250506149ad83838f614a45565b6001909201916149ec565b8a81815181106149c457fe5b6020026020010151866001815181106149d957fe5b6020026020010181815101915081815250505b50600101614934565b50614a0182828d614a45565b8084600081518110614a0f57fe5b602002602001015185600181518110614a2457fe5b60200260200101519750975097505050505050985098509895505050505050565b81831415614a5257614aa9565b808281518110614a5e57fe5b6020026020010151818481518110614a7257fe5b6020026020010151828581518110614a8657fe5b60200260200101838581518110614a9957fe5b6020908102919091010191909152525b505050565b6000808211614b04576040805162461bcd60e51b815260206004820152601a60248201527f536166654d6174683a206469766973696f6e206279207a65726f000000000000604482015290519081900360640190fd5b818381614b0d57fe5b049392505050565b600a83015460009081906001600160401b0381118015614b3457600080fd5b50604051908082528060200260200182016040528015614b5e578160200160208202803683370190505b50905060005b600a860154811015614bbd57614b9e86600a018281548110614b8257fe5b6000918252602090912001546001600160a01b03168686613adc565b828281518110614baa57fe5b6020908102919091010152600101614b64565b50614bca60048683614c30565b95945050505050565b614bdb614eb3565b6001600160a01b0387166060820152614bf48685614d20565b6001600160401b03166020820152614c0c8584614d20565b6001600160401b031660408201526001600160801b03909116815295945050505050565b600080805b600a850154811015614d175760006001600160a01b031685600a018281548110614c5b57fe5b6000918252602090912001546001600160a01b03161415614c7b57614d0f565b614d0c612710614cfc868481518110614c9057fe5b60200260200101518960010160008a600a018781548110614cad57fe5b60009182526020808320909101546001600160a01b03168352820192909252604001902054600b8a01805487908110614ce257fe5b906000526020600020015461436e9092919063ffffffff16565b81614d0357fe5b849190046144b5565b91505b600101614c35565b50949350505050565b6000811580614d2d575082155b15614d3a57506000611927565b614d4a8364e8d4a510008461436e565b9050611927565b828054828255906000526020600020908101928215614da6579160200282015b82811115614da657825182546001600160a01b0319166001600160a01b03909116178255602090920191600190910190614d71565b506147cc929150614ee1565b6040518061018001604052806000815260200160008152602001600081526020016000815260200160008152602001600081526020016000815260200160008152602001600081526020016000815260200160008152602001600081525090565b6040518060e00160405280600081526020016000815260200160008152602001600081526020016000815260200160008152602001600081525090565b6040518060800160405280600081526020016000815260200160008152602001600081525090565b828054828255906000526020600020908101928215614da6579160200282015b82811115614da6578251825591602001919060010190614e98565b6040805160a08101825260008082526020820181905291810182905260608101829052608081019190915290565b5b808211156147cc5760008155600101614ee256fe53616665436173743a2076616c756520646f65736e27742066697420696e203132382062697473536166654d6174683a206d756c7469706c69636174696f6e206f766572666c6f77a2646970667358221220e746cd5135c3ffb9d51c2d2385a3316799995ae51678d5219cc90a3987eed87264736f6c63430007060033",
  "linkReferences": {},
  "deployedLinkReferences": {}
}