{
  "_format": "hh-sol-artifact-1",
  "contractName": "Ftso",
  "sourceName": "contracts/ftso/implementation/Ftso.sol",
  "abi": [
    {
      "inputs": [
        {
          "internalType": "string",
          "name": "_symbol",
          "type": "string"
        },
        {
          "internalType": "contract IPriceSubmitter",
          "name": "_priceSubmitter",
          "type": "address"
        },
        {
          "internalType": "contract IIVPToken",
          "name": "_wNat",
          "type": "address"
        },
        {
          "internalType": "contract IIFtsoManager",
          "name": "_ftsoManager",
          "type": "address"
        },
        {
          "internalType": "uint256",
          "name": "_initialPriceUSD",
          "type": "uint256"
        },
        {
          "internalType": "uint256",
          "name": "_priceDeviationThresholdBIPS",
          "type": "uint256"
        },
        {
          "internalType": "uint256",
          "name": "_cyclicBufferSize",
          "type": "uint256"
        }
      ],
      "stateMutability": "nonpayable",
      "type": "constructor"
    },
    {
      "anonymous": false,
      "inputs": [
        {
          "indexed": true,
          "internalType": "uint256",
          "name": "epochId",
          "type": "uint256"
        },
        {
          "indexed": false,
          "internalType": "uint256",
          "name": "natTurnout",
          "type": "uint256"
        },
        {
          "indexed": false,
          "internalType": "uint256",
          "name": "lowNatTurnoutThresholdBIPS",
          "type": "uint256"
        },
        {
          "indexed": false,
          "internalType": "uint256",
          "name": "timestamp",
          "type": "uint256"
        }
      ],
      "name": "LowTurnout",
      "type": "event"
    },
    {
      "anonymous": false,
      "inputs": [
        {
          "indexed": true,
          "internalType": "uint256",
          "name": "epochId",
          "type": "uint256"
        },
        {
          "indexed": false,
          "internalType": "uint256",
          "name": "endTime",
          "type": "uint256"
        },
        {
          "indexed": false,
          "internalType": "uint256",
          "name": "timestamp",
          "type": "uint256"
        }
      ],
      "name": "PriceEpochInitializedOnFtso",
      "type": "event"
    },
    {
      "anonymous": false,
      "inputs": [
        {
          "indexed": true,
          "internalType": "uint256",
          "name": "epochId",
          "type": "uint256"
        },
        {
          "indexed": false,
          "internalType": "uint256",
          "name": "price",
          "type": "uint256"
        },
        {
          "indexed": false,
          "internalType": "bool",
          "name": "rewardedFtso",
          "type": "bool"
        },
        {
          "indexed": false,
          "internalType": "uint256",
          "name": "lowRewardPrice",
          "type": "uint256"
        },
        {
          "indexed": false,
          "internalType": "uint256",
          "name": "highRewardPrice",
          "type": "uint256"
        },
        {
          "indexed": false,
          "internalType": "enum IFtso.PriceFinalizationType",
          "name": "finalizationType",
          "type": "uint8"
        },
        {
          "indexed": false,
          "internalType": "uint256",
          "name": "timestamp",
          "type": "uint256"
        }
      ],
      "name": "PriceFinalized",
      "type": "event"
    },
    {
      "anonymous": false,
      "inputs": [
        {
          "indexed": true,
          "internalType": "address",
          "name": "submitter",
          "type": "address"
        },
        {
          "indexed": true,
          "internalType": "uint256",
          "name": "epochId",
          "type": "uint256"
        },
        {
          "indexed": false,
          "internalType": "bytes32",
          "name": "hash",
          "type": "bytes32"
        },
        {
          "indexed": false,
          "internalType": "uint256",
          "name": "timestamp",
          "type": "uint256"
        }
      ],
      "name": "PriceHashSubmitted",
      "type": "event"
    },
    {
      "anonymous": false,
      "inputs": [
        {
          "indexed": true,
          "internalType": "address",
          "name": "voter",
          "type": "address"
        },
        {
          "indexed": true,
          "internalType": "uint256",
          "name": "epochId",
          "type": "uint256"
        },
        {
          "indexed": false,
          "internalType": "uint256",
          "name": "price",
          "type": "uint256"
        },
        {
          "indexed": false,
          "internalType": "uint256",
          "name": "random",
          "type": "uint256"
        },
        {
          "indexed": false,
          "internalType": "uint256",
          "name": "timestamp",
          "type": "uint256"
        },
        {
          "indexed": false,
          "internalType": "uint256",
          "name": "votePowerNat",
          "type": "uint256"
        },
        {
          "indexed": false,
          "internalType": "uint256",
          "name": "votePowerAsset",
          "type": "uint256"
        }
      ],
      "name": "PriceRevealed",
      "type": "event"
    },
    {
      "inputs": [],
      "name": "ASSET_PRICE_USD_DECIMALS",
      "outputs": [
        {
          "internalType": "uint256",
          "name": "",
          "type": "uint256"
        }
      ],
      "stateMutability": "view",
      "type": "function"
    },
    {
      "inputs": [
        {
          "internalType": "uint256",
          "name": "_firstEpochStartTime",
          "type": "uint256"
        },
        {
          "internalType": "uint256",
          "name": "_submitPeriod",
          "type": "uint256"
        },
        {
          "internalType": "uint256",
          "name": "_revealPeriod",
          "type": "uint256"
        }
      ],
      "name": "activateFtso",
      "outputs": [],
      "stateMutability": "nonpayable",
      "type": "function"
    },
    {
      "inputs": [],
      "name": "active",
      "outputs": [
        {
          "internalType": "bool",
          "name": "",
          "type": "bool"
        }
      ],
      "stateMutability": "view",
      "type": "function"
    },
    {
      "inputs": [
        {
          "internalType": "uint256",
          "name": "",
          "type": "uint256"
        }
      ],
      "name": "assetFtsos",
      "outputs": [
        {
          "internalType": "contract IIFtso",
          "name": "",
          "type": "address"
        }
      ],
      "stateMutability": "view",
      "type": "function"
    },
    {
      "inputs": [
        {
          "internalType": "uint256",
          "name": "",
          "type": "uint256"
        }
      ],
      "name": "assets",
      "outputs": [
        {
          "internalType": "contract IIVPToken",
          "name": "",
          "type": "address"
        }
      ],
      "stateMutability": "view",
      "type": "function"
    },
    {
      "inputs": [
        {
          "internalType": "uint256",
          "name": "_epochId",
          "type": "uint256"
        }
      ],
      "name": "averageFinalizePriceEpoch",
      "outputs": [],
      "stateMutability": "nonpayable",
      "type": "function"
    },
    {
      "inputs": [
        {
          "internalType": "uint256",
          "name": "_maxVotePowerNatThresholdFraction",
          "type": "uint256"
        },
        {
          "internalType": "uint256",
          "name": "_maxVotePowerAssetThresholdFraction",
          "type": "uint256"
        },
        {
          "internalType": "uint256",
          "name": "_lowAssetUSDThreshold",
          "type": "uint256"
        },
        {
          "internalType": "uint256",
          "name": "_highAssetUSDThreshold",
          "type": "uint256"
        },
        {
          "internalType": "uint256",
          "name": "_highAssetTurnoutThresholdBIPS",
          "type": "uint256"
        },
        {
          "internalType": "uint256",
          "name": "_lowNatTurnoutThresholdBIPS",
          "type": "uint256"
        },
        {
          "internalType": "address[]",
          "name": "_trustedAddresses",
          "type": "address[]"
        }
      ],
      "name": "configureEpochs",
      "outputs": [],
      "stateMutability": "nonpayable",
      "type": "function"
    },
    {
      "inputs": [],
      "name": "deactivateFtso",
      "outputs": [],
      "stateMutability": "nonpayable",
      "type": "function"
    },
    {
      "inputs": [],
      "name": "epochsConfiguration",
      "outputs": [
        {
          "internalType": "uint256",
          "name": "_maxVotePowerNatThresholdFraction",
          "type": "uint256"
        },
        {
          "internalType": "uint256",
          "name": "_maxVotePowerAssetThresholdFraction",
          "type": "uint256"
        },
        {
          "internalType": "uint256",
          "name": "_lowAssetUSDThreshold",
          "type": "uint256"
        },
        {
          "internalType": "uint256",
          "name": "_highAssetUSDThreshold",
          "type": "uint256"
        },
        {
          "internalType": "uint256",
          "name": "_highAssetTurnoutThresholdBIPS",
          "type": "uint256"
        },
        {
          "internalType": "uint256",
          "name": "_lowNatTurnoutThresholdBIPS",
          "type": "uint256"
        },
        {
          "internalType": "address[]",
          "name": "_trustedAddresses",
          "type": "address[]"
        }
      ],
      "stateMutability": "view",
      "type": "function"
    },
    {
      "inputs": [
        {
          "internalType": "uint256",
          "name": "_epochId",
          "type": "uint256"
        },
        {
          "internalType": "bool",
          "name": "_returnRewardData",
          "type": "bool"
        }
      ],
      "name": "finalizePriceEpoch",
      "outputs": [
        {
          "internalType": "address[]",
          "name": "_eligibleAddresses",
          "type": "address[]"
        },
        {
          "internalType": "uint256[]",
          "name": "_natWeights",
          "type": "uint256[]"
        },
        {
          "internalType": "uint256",
          "name": "_natWeightsSum",
          "type": "uint256"
        }
      ],
      "stateMutability": "nonpayable",
      "type": "function"
    },
    {
      "inputs": [
        {
          "internalType": "uint256",
          "name": "_epochId",
          "type": "uint256"
        }
      ],
      "name": "forceFinalizePriceEpoch",
      "outputs": [],
      "stateMutability": "nonpayable",
      "type": "function"
    },
    {
      "inputs": [],
      "name": "ftsoManager",
      "outputs": [
        {
          "internalType": "contract IIFtsoManager",
          "name": "",
          "type": "address"
        }
      ],
      "stateMutability": "view",
      "type": "function"
    },
    {
      "inputs": [],
      "name": "getAsset",
      "outputs": [
        {
          "internalType": "contract IIVPToken",
          "name": "",
          "type": "address"
        }
      ],
      "stateMutability": "view",
      "type": "function"
    },
    {
      "inputs": [],
      "name": "getAssetFtsos",
      "outputs": [
        {
          "internalType": "contract IIFtso[]",
          "name": "",
          "type": "address[]"
        }
      ],
      "stateMutability": "view",
      "type": "function"
    },
    {
      "inputs": [],
      "name": "getCurrentEpochId",
      "outputs": [
        {
          "internalType": "uint256",
          "name": "",
          "type": "uint256"
        }
      ],
      "stateMutability": "view",
      "type": "function"
    },
    {
      "inputs": [],
      "name": "getCurrentPrice",
      "outputs": [
        {
          "internalType": "uint256",
          "name": "_price",
          "type": "uint256"
        },
        {
          "internalType": "uint256",
          "name": "_timestamp",
          "type": "uint256"
        }
      ],
      "stateMutability": "view",
      "type": "function"
    },
    {
      "inputs": [],
      "name": "getCurrentRandom",
      "outputs": [
        {
          "internalType": "uint256",
          "name": "",
          "type": "uint256"
        }
      ],
      "stateMutability": "view",
      "type": "function"
    },
    {
      "inputs": [
        {
          "internalType": "uint256",
          "name": "_timestamp",
          "type": "uint256"
        }
      ],
      "name": "getEpochId",
      "outputs": [
        {
          "internalType": "uint256",
          "name": "",
          "type": "uint256"
        }
      ],
      "stateMutability": "view",
      "type": "function"
    },
    {
      "inputs": [
        {
          "internalType": "uint256",
          "name": "_epochId",
          "type": "uint256"
        }
      ],
      "name": "getEpochPrice",
      "outputs": [
        {
          "internalType": "uint256",
          "name": "",
          "type": "uint256"
        }
      ],
      "stateMutability": "view",
      "type": "function"
    },
    {
      "inputs": [
        {
          "internalType": "uint256",
          "name": "_epochId",
          "type": "uint256"
        },
        {
          "internalType": "address",
          "name": "_voter",
          "type": "address"
        }
      ],
      "name": "getEpochPriceForVoter",
      "outputs": [
        {
          "internalType": "uint256",
          "name": "",
          "type": "uint256"
        }
      ],
      "stateMutability": "view",
      "type": "function"
    },
    {
      "inputs": [],
      "name": "getPriceEpochConfiguration",
      "outputs": [
        {
          "internalType": "uint256",
          "name": "_firstEpochStartTime",
          "type": "uint256"
        },
        {
          "internalType": "uint256",
          "name": "_submitPeriod",
          "type": "uint256"
        },
        {
          "internalType": "uint256",
          "name": "_revealPeriod",
          "type": "uint256"
        }
      ],
      "stateMutability": "view",
      "type": "function"
    },
    {
      "inputs": [],
      "name": "getPriceEpochData",
      "outputs": [
        {
          "internalType": "uint256",
          "name": "_epochId",
          "type": "uint256"
        },
        {
          "internalType": "uint256",
          "name": "_epochSubmitEndTime",
          "type": "uint256"
        },
        {
          "internalType": "uint256",
          "name": "_epochRevealEndTime",
          "type": "uint256"
        },
        {
          "internalType": "uint256",
          "name": "_votePowerBlock",
          "type": "uint256"
        },
        {
          "internalType": "bool",
          "name": "_fallbackMode",
          "type": "bool"
        }
      ],
      "stateMutability": "view",
      "type": "function"
    },
    {
      "inputs": [
        {
          "internalType": "uint256",
          "name": "_epochId",
          "type": "uint256"
        }
      ],
      "name": "getRandom",
      "outputs": [
        {
          "internalType": "uint256",
          "name": "",
          "type": "uint256"
        }
      ],
      "stateMutability": "view",
      "type": "function"
    },
    {
      "inputs": [],
      "name": "getVoteWeightingParameters",
      "outputs": [
        {
          "internalType": "contract IIVPToken[]",
          "name": "_assets",
          "type": "address[]"
        },
        {
          "internalType": "uint256[]",
          "name": "_assetMultipliers",
          "type": "uint256[]"
        },
        {
          "internalType": "uint256",
          "name": "_totalVotePowerNat",
          "type": "uint256"
        },
        {
          "internalType": "uint256",
          "name": "_totalVotePowerAsset",
          "type": "uint256"
        },
        {
          "internalType": "uint256",
          "name": "_assetWeightRatio",
          "type": "uint256"
        },
        {
          "internalType": "uint256",
          "name": "_votePowerBlock",
          "type": "uint256"
        }
      ],
      "stateMutability": "view",
      "type": "function"
    },
    {
      "inputs": [
        {
          "internalType": "uint256",
          "name": "_circulatingSupplyNat",
          "type": "uint256"
        },
        {
          "internalType": "bool",
          "name": "_fallbackMode",
          "type": "bool"
        }
      ],
      "name": "initializeCurrentEpochStateForReveal",
      "outputs": [],
      "stateMutability": "nonpayable",
      "type": "function"
    },
    {
      "inputs": [],
      "name": "priceDeviationThresholdBIPS",
      "outputs": [
        {
          "internalType": "uint256",
          "name": "",
          "type": "uint256"
        }
      ],
      "stateMutability": "view",
      "type": "function"
    },
    {
      "inputs": [],
      "name": "priceEpochCyclicBufferSize",
      "outputs": [
        {
          "internalType": "uint256",
          "name": "",
          "type": "uint256"
        }
      ],
      "stateMutability": "view",
      "type": "function"
    },
    {
      "inputs": [],
      "name": "priceSubmitter",
      "outputs": [
        {
          "internalType": "contract IPriceSubmitter",
          "name": "",
          "type": "address"
        }
      ],
      "stateMutability": "view",
      "type": "function"
    },
    {
      "inputs": [
        {
          "internalType": "address",
          "name": "_voter",
          "type": "address"
        },
        {
          "internalType": "uint256",
          "name": "_epochId",
          "type": "uint256"
        },
        {
          "internalType": "uint256",
          "name": "_price",
          "type": "uint256"
        },
        {
          "internalType": "uint256",
          "name": "_random",
          "type": "uint256"
        },
        {
          "internalType": "uint256",
          "name": "_voterWNatVP",
          "type": "uint256"
        }
      ],
      "name": "revealPriceSubmitter",
      "outputs": [],
      "stateMutability": "nonpayable",
      "type": "function"
    },
    {
      "inputs": [
        {
          "internalType": "contract IIVPToken",
          "name": "_asset",
          "type": "address"
        }
      ],
      "name": "setAsset",
      "outputs": [],
      "stateMutability": "nonpayable",
      "type": "function"
    },
    {
      "inputs": [
        {
          "internalType": "contract IIFtso[]",
          "name": "_assetFtsos",
          "type": "address[]"
        }
      ],
      "name": "setAssetFtsos",
      "outputs": [],
      "stateMutability": "nonpayable",
      "type": "function"
    },
    {
      "inputs": [
        {
          "internalType": "uint256",
          "name": "_votePowerBlock",
          "type": "uint256"
        }
      ],
      "name": "setVotePowerBlock",
      "outputs": [],
      "stateMutability": "nonpayable",
      "type": "function"
    },
    {
      "inputs": [
        {
          "internalType": "address",
          "name": "_sender",
          "type": "address"
        },
        {
          "internalType": "uint256",
          "name": "_epochId",
          "type": "uint256"
        },
        {
          "internalType": "bytes32",
          "name": "_hash",
          "type": "bytes32"
        }
      ],
      "name": "submitPriceHashSubmitter",
      "outputs": [],
      "stateMutability": "nonpayable",
      "type": "function"
    },
    {
      "inputs": [],
      "name": "symbol",
      "outputs": [
        {
          "internalType": "string",
          "name": "",
          "type": "string"
        }
      ],
      "stateMutability": "view",
      "type": "function"
    },
    {
      "inputs": [
        {
          "internalType": "uint256",
          "name": "_initialPriceUSD",
          "type": "uint256"
        },
        {
          "internalType": "uint256",
          "name": "_initialPriceTimestamp",
          "type": "uint256"
        }
      ],
      "name": "updateInitialPrice",
      "outputs": [],
      "stateMutability": "nonpayable",
      "type": "function"
    },
    {
      "inputs": [],
      "name": "wNat",
      "outputs": [
        {
          "internalType": "contract IIVPToken",
          "name": "",
          "type": "address"
        }
      ],
      "stateMutability": "view",
      "type": "function"
    },
    {
      "inputs": [
        {
          "internalType": "address",
          "name": "_owner",
          "type": "address"
        },
        {
          "internalType": "uint256",
          "name": "_epochId",
          "type": "uint256"
        }
      ],
      "name": "wNatVotePowerCached",
      "outputs": [
        {
          "internalType": "uint256",
          "name": "",
          "type": "uint256"
        }
      ],
      "stateMutability": "nonpayable",
      "type": "function"
    }
  ],
  "bytecode": "0x6101206040523480156200001257600080fd5b50604051620050f7380380620050f7833981810160405260e08110156200003857600080fd5b81019080805160405193929190846401000000008211156200005957600080fd5b9083019060208201858111156200006f57600080fd5b82516401000000008111828201881017156200008a57600080fd5b82525081516020918201929091019080838360005b83811015620000b95781810151838201526020016200009f565b50505050905090810190601f168015620000e75780820380516001836020036101000a031916815260200191505b506040908152602082810151918301516060840151608085015160a086015160c09096015189519598509296509094909390926200012b916001918a01906200016c565b506001600160601b0319606096871b81166101005294861b851660c0529290941b90921660e0526002919091554260035560809190915260a0525062000218565b828054600181600116156101000203166002900490600052602060002090601f016020900481019282620001a45760008555620001ef565b82601f10620001bf57805160ff1916838001178555620001ef565b82800160010185558215620001ef579182015b82811115620001ef578251825591602001919060010190620001d2565b50620001fd92915062000201565b5090565b5b80821115620001fd576000815560010162000202565b60805160a05160c05160601c60e05160601c6101005160601c614e19620002de60003980610bcb528061111a5280611e7e5250806109c252806109ef5280610c135280610d245280610ded52806110c45280611620528061168752806117b55280611a535280611af75280611d515250806114d152806116e15280611be05280611cd0525080610f4f52806118d152806119ea5280611aca5280611b375280611cf55280612f7c5280613167528061362b525080610f2452806117635250614e196000f3fe608060405234801561001057600080fd5b50600436106102275760003560e01c8063974d7a6b11610130578063d89601fd116100b8578063f025bf661161007c578063f025bf661461088f578063f670ebe314610897578063f72cab28146108bc578063f7dba1f5146108e8578063f937d6ad146109af57610227565b8063d89601fd146107a9578063e3749e0c146107b1578063e3b3a3b31461081c578063e536f39614610851578063eb91d37e1461086e57610227565b8063c5d8b9e7116100ff578063c5d8b9e714610715578063cc245ab514610741578063cd4b691414610749578063cf35bdd014610766578063d0d552dd1461078357610227565b8063974d7a6b146106cb5780639de6f927146106e85780639edbf00714610705578063a29a839f1461070d57610227565b80635303548b116101b35780636b52b242116101825780636b52b2421461054f5780637d1d6f1214610557578063826cc76b146105745780638357d08c1461059157806395d89b411461064e57610227565b80635303548b146104d2578063555989da1461050157806355f7b69b146105095780635c222bad1461054757610227565b806318931c35116101fa57806318931c351461033757806327bd2ad51461038f5780632f0a6f3c146103c1578063306ba253146103ea57806340462a2d1461040d57610227565b806302fb0c5e1461022c57806311a7aaaa14610248578063131fdee21461026c578063144e159114610311575b600080fd5b6102346109b7565b604080519115158252519081900360200190f35b6102506109c0565b604080516001600160a01b039092168252519081900360200190f35b61030f6004803603602081101561028257600080fd5b81019060208101813564010000000081111561029d57600080fd5b8201836020820111156102af57600080fd5b803590602001918460208302840111640100000000831117156102d157600080fd5b9190808060200260200160405190810160405280939291908181526020018383602002808284376000920191909152509295506109e4945050505050565b005b610319610ad9565b60408051938452602084019290925282820152519081900360600190f35b61033f610ae7565b60408051602080825283518183015283519192839290830191858101910280838360005b8381101561037b578181015183820152602001610363565b505050509050019250505060405180910390f35b61030f600480360360608110156103a557600080fd5b506001600160a01b038135169060208101359060400135610bae565b61030f600480360360608110156103d757600080fd5b5080359060208101359060400135610c08565b61030f6004803603604081101561040057600080fd5b5080359060200135610d19565b6104326004803603604081101561042357600080fd5b50803590602001351515610ddd565b604051808060200180602001848152602001838103835286818151815260200191508051906020019060200280838360005b8381101561047c578181015183820152602001610464565b50505050905001838103825285818151815260200191508051906020019060200280838360005b838110156104bb5781810151838201526020016104a3565b505050509050019550505050505060405180910390f35b6104ef600480360360208110156104e857600080fd5b5035611094565b60408051918252519081900360200190f35b61030f6110a7565b61030f600480360360a081101561051f57600080fd5b506001600160a01b0381351690602081013590604081013590606081013590608001356110fd565b61025061115b565b6104ef6111db565b6104ef6004803603602081101561056d57600080fd5b50356111e0565b6102506004803603602081101561058a57600080fd5b50356111f5565b61059961121f565b604051808060200180602001878152602001868152602001858152602001848152602001838103835289818151815260200191508051906020019060200280838360005b838110156105f55781810151838201526020016105dd565b50505050905001838103825288818151815260200191508051906020019060200280838360005b8381101561063457818101518382015260200161061c565b505050509050019850505050505050505060405180910390f35b610656611588565b6040805160208082528351818301528351919283929083019185019080838360005b83811015610690578181015183820152602001610678565b50505050905090810190601f1680156106bd5780820380516001836020036101000a031916815260200191505b509250505060405180910390f35b61030f600480360360208110156106e157600080fd5b5035611615565b61030f600480360360208110156106fe57600080fd5b503561167c565b6102506116df565b6104ef611703565b6104ef6004803603604081101561072b57600080fd5b50803590602001356001600160a01b031661170e565b6104ef611761565b6104ef6004803603602081101561075f57600080fd5b5035611785565b6102506004803603602081101561077c57600080fd5b503561179a565b61030f6004803603602081101561079957600080fd5b50356001600160a01b03166117aa565b6104ef6118af565b6107b9611915565b6040518088815260200187815260200186815260200185815260200184815260200183815260200180602001828103825283818151815260200191508051906020019060200280838360008381101561063457818101518382015260200161061c565b6108246119bc565b60408051958652602086019490945284840192909252606084015215156080830152519081900360a00190f35b61030f6004803603602081101561086757600080fd5b5035611a48565b610876611abe565b6040805192835260208301919091528051918290030190f35b6104ef611ac8565b61030f600480360360408110156108ad57600080fd5b50803590602001351515611aec565b6104ef600480360360408110156108d257600080fd5b506001600160a01b038135169060200135611cc9565b61030f600480360360e08110156108fe57600080fd5b81359160208101359160408201359160608101359160808201359160a08101359181019060e0810160c082013564010000000081111561093d57600080fd5b82018360208201111561094f57600080fd5b8035906020019184602083028401116401000000008311171561097157600080fd5b919080806020026020016040519081016040528093929190818152602001838360200280828437600092019190915250929550611d46945050505050565b610250611e7c565b60005460ff1681565b7f000000000000000000000000000000000000000000000000000000000000000081565b336001600160a01b037f00000000000000000000000000000000000000000000000000000000000000001614610a1c57610a1c611ea0565b6000815111610a2757fe5b600181511180610a5d5750306001600160a01b031681600081518110610a4957fe5b60200260200101516001600160a01b031614155b610a6357fe5b8051610a76906015906020840190614bd3565b5080516001600160401b0381118015610a8e57600080fd5b50604051908082528060200260200182016040528015610ab8578160200160208202803683370190505b508051610acd91601491602090910190614bd3565b50610ad6611f08565b50565b600654600754600854909192565b6014546060906001148015610afe57506015546001145b8015610b345750306001600160a01b03166015600081548110610b1d57fe5b6000918252602090912001546001600160a01b0316145b610b98576015805480602002602001604051908101604052809291908181526020018280548015610b8e57602002820191906000526020600020905b81546001600160a01b03168152600190910190602001808311610b70575b5050505050610ba8565b6040805160008152602081019091525b90505b90565b60005460ff16610bc057610bc06120e4565b336001600160a01b037f00000000000000000000000000000000000000000000000000000000000000001614610bf857610bf8611ea0565b610c0383838361214e565b505050565b336001600160a01b037f00000000000000000000000000000000000000000000000000000000000000001614610c4057610c40611ea0565b600054604080518082019091526016815275119514d3c8185b1c9958591e481858dd1a5d985d195960521b60208201529060ff1615610cfd5760405162461bcd60e51b81526004018080602001828103825283818151815260200191508051906020019080838360005b83811015610cc2578181015183820152602001610caa565b50505050905090810190601f168015610cef5780820380516001836020036101000a031916815260200191505b509250505060405180910390fd5b506006929092556007556008556000805460ff19166001179055565b336001600160a01b037f00000000000000000000000000000000000000000000000000000000000000001614610d5157610d51611ea0565b600054604080518082019091526016815275119514d3c8185b1c9958591e481858dd1a5d985d195960521b60208201529060ff1615610dd15760405162461bcd60e51b8152602060048201818152835160248401528351909283926044909101919085019080838360008315610cc2578181015183820152602001610caa565b50600291909155600355565b6060806000336001600160a01b037f00000000000000000000000000000000000000000000000000000000000000001614610e1a57610e1a611ea0565b6000610e25866122d9565b60018101805460ff60f01b19169055600581015490915060009015610e5d57816005015461271083600801540281610e5957fe5b0490505b6001820154600160f81b900460ff1680610e7b575081600401548111155b15610eee576001820154600160f81b900460ff16610edb57600482015460408051838152602081019290925242828201525188917fbece8aa526cdc5e528cdaa56c1d03edc19da51e41845aa146f64a7071f74c65a919081900360600190a25b610ee787836000612415565b505061108d565b6060806060610efc8561257f565b919450925090506060610f0d614c34565b610f178585612714565b61012081015191935091507f000000000000000000000000000000000000000000000000000000000000000090610f73906004908f907f0000000000000000000000000000000000000000000000000000000000000000612a32565b1115610f9157610f858c886000612415565b5050505050505061108d565b60108701805460ff19166001179055610120810151600f88018190556002554260035560008b15610fdb57610fc888838587612abe565b8251929d50909b50995015610fdb575060015b610fe78d838584612d7a565b8c7ffe8865c1fe85bbf124b9e0f16cccfeeb6f330454fd79475a31261c8fa250bc3089600f0154838561014001518661016001518d60100160009054906101000a900460ff164260405180878152602001861515815260200185815260200184815260200183600581111561105857fe5b8152602001828152602001965050505050505060405180910390a2505050600190940180546001600160f81b03169055505050505b9250925092565b60006110a1600483612d80565b92915050565b60005460ff166110b9576110b96120e4565b336001600160a01b037f000000000000000000000000000000000000000000000000000000000000000016146110f1576110f1611ea0565b6000805460ff19169055565b60005460ff1661110f5761110f6120e4565b336001600160a01b037f0000000000000000000000000000000000000000000000000000000000000000161461114757611147611ea0565b6111548585858585612db1565b5050505050565b601454600090600114801561117257506015546001145b80156111a85750306001600160a01b0316601560008154811061119157fe5b6000918252602090912001546001600160a01b0316145b6111b3576000610ba8565b60146000815481106111c157fe5b6000918252602090912001546001600160a01b0316905090565b600581565b60006111eb82613160565b600f015492915050565b6015818154811061120557600080fd5b6000918252602090912001546001600160a01b0316905081565b606080600080600080601480548060200260200160405190810160405280929190818152602001828054801561127e57602002820191906000526020600020905b81546001600160a01b03168152600190910190602001808311611260575b50506009548451949a506001600160f01b031694506000939250506001600160401b038211905080156112b057600080fd5b506040519080825280602002602001820160405280156112da578160200160208202803683370190505b509050600087516001600160401b03811180156112f657600080fd5b50604051908082528060200260200182016040528015611320578160200160208202803683370190505b50905060005b88518110156114af5760006001600160a01b031689828151811061134657fe5b60200260200101516001600160a01b031614156113645760006113e8565b88818151811061137057fe5b60200260200101516001600160a01b0316633e5aa26a856040518263ffffffff1660e01b81526004018082815260200191505060206040518083038186803b1580156113bb57600080fd5b505afa1580156113cf573d6000803e3d6000fd5b505050506040513d60208110156113e557600080fd5b50515b8382815181106113f457fe5b6020026020010181815250506015818154811061140d57fe5b9060005260206000200160009054906101000a90046001600160a01b03166001600160a01b031663eb91d37e6040518163ffffffff1660e01b8152600401604080518083038186803b15801561146257600080fd5b505afa158015611476573d6000803e3d6000fd5b505050506040513d604081101561148c57600080fd5b5051825183908390811061149c57fe5b6020908102919091010152600101611326565b5060006114bf60048a8585613228565b90506114cd60048a836133ce565b97507f00000000000000000000000000000000000000000000000000000000000000006001600160a01b0316633e5aa26a856040518263ffffffff1660e01b81526004018082815260200191505060206040518083038186803b15801561153357600080fd5b505afa158015611547573d6000803e3d6000fd5b505050506040513d602081101561155d57600080fd5b5051965061156e60048a8584613502565b955061157b6004876135ca565b9450505050909192939495565b60018054604080516020600284861615610100026000190190941693909304601f8101849004840282018401909252818152929183018282801561160d5780601f106115e25761010080835404028352916020019161160d565b820191906000526020600020905b8154815290600101906020018083116115f057829003601f168201915b505050505081565b336001600160a01b037f0000000000000000000000000000000000000000000000000000000000000000161461164d5761164d611ea0565b6000611658826122d9565b6001808201805460ff60f01b19169055909150611678908390839061361f565b5050565b336001600160a01b037f000000000000000000000000000000000000000000000000000000000000000016146116b4576116b4611ea0565b60006116bf826122d9565b6001808201805460ff60f01b191690559091506116789083908390612415565b7f000000000000000000000000000000000000000000000000000000000000000081565b6000610ba842611094565b60008061171a84613160565b90506000611728828561374b565b90508061173a576000925050506110a1565b600019016000908152600e90910160205260409020546001600160801b0316905092915050565b7f000000000000000000000000000000000000000000000000000000000000000081565b600061179082613160565b600a015492915050565b6014818154811061120557600080fd5b336001600160a01b037f000000000000000000000000000000000000000000000000000000000000000016146117e2576117e2611ea0565b60408051602081019091523081526117fe906015906001614bd3565b5060408051602081019091526001600160a01b0382168152611824906014906001614bd3565b50806001600160a01b031663313ce5676040518163ffffffff1660e01b815260040160206040518083038186803b15801561185e57600080fd5b505afa158015611872573d6000803e3d6000fd5b505050506040513d602081101561188857600080fd5b50516001600160a01b03909116600090815260056020526040902060ff909116600a0a9055565b6000806118ba611703565b9050806118cb576000915050610bab565b600460007f00000000000000000000000000000000000000000000000000000000000000006000198401816118fc57fe5b068152602001908152602001600020600a015491505090565b60008060008060008060606004600601546004600701546004600801546004600901546004600a01546004600b01546004600c018080548060200260200160405190810160405280929190818152602001828054801561199e57602002820191906000526020600020905b81546001600160a01b03168152600190910190602001808311611980575b50505050509050965096509650965096509650965090919293949596565b60008060008060006119cc611703565b94506119d96004866137a3565b6008549094508401925060006004817f00000000000000000000000000000000000000000000000000000000000000008881611a1157fe5b0681526020810191909152604001600020600101549596949593946001600160f01b03851694600160f81b900460ff169350915050565b336001600160a01b037f00000000000000000000000000000000000000000000000000000000000000001614611a8057611a80611ea0565b438110611a8c57600080fd5b600160f01b8110611a9c57600080fd5b600980546001600160f01b0319166001600160f01b0392909216919091179055565b6002546003549091565b7f000000000000000000000000000000000000000000000000000000000000000081565b336001600160a01b037f00000000000000000000000000000000000000000000000000000000000000001614611b2457611b24611ea0565b6000611b2e611703565b905060006004817f00000000000000000000000000000000000000000000000000000000000000008481611b5e57fe5b0681526020810191909152604001600090812060108101805460ff1916905560088101829055600a8101829055600d8101919091556002810183905590508215611bbe5760010180546001600160f81b0316600160f81b17905550611678565b606080611bc96137bb565b6009549194509250611c79915084908890611c0e907f0000000000000000000000000000000000000000000000000000000000000000906001600160f01b03166139b1565b6014805480602002602001604051908101604052809291908181526020018280548015611c6457602002820191906000526020600020905b81546001600160a01b03168152600190910190602001808311611c46575b5060049796959493508a925089915050613a42565b6013849055837fc0eaa359541c7c642d9947c9496507c134f3e4f8e1fd433313eb27dc48cb1fb7611cab6004836137a3565b604080519182524260208301528051918290030190a2505050505050565b6000611d3f7f0000000000000000000000000000000000000000000000000000000000000000846004847f00000000000000000000000000000000000000000000000000000000000000008781611d1c57fe5b0681526020810191909152604001600020600101546001600160f01b0316613b13565b9392505050565b336001600160a01b037f00000000000000000000000000000000000000000000000000000000000000001614611d7e57611d7e611ea0565b600a879055600b869055600c859055600d849055600e839055600f82905560105460005b81811015611dff5760006004600d0160006004600c018481548110611dc357fe5b6000918252602080832091909101546001600160a01b031683528201929092526040019020805460ff1916911515919091179055600101611da2565b5050805160005b81811015611e5d5760016004600d016000858481518110611e2357fe5b6020908102919091018101516001600160a01b03168252810191909152604001600020805460ff1916911515919091179055600101611e06565b508151611e71906010906020850190614bd3565b505050505050505050565b7f000000000000000000000000000000000000000000000000000000000000000081565b604080518082018252600d81526c1058d8d95cdcc819195b9a5959609a1b6020808301918252925162461bcd60e51b81526004810193845282516024820152825192939283926044909201919080838360008315610cc2578181015183820152602001610caa565b6015546001148015611f445750306001600160a01b03166015600081548110611f2d57fe5b6000918252602090912001546001600160a01b0316145b15611f4e576120e2565b60005b601554811015610ad657600060158281548110611f6a57fe5b6000918252602091829020015460408051635c222bad60e01b815290516001600160a01b0390921692635c222bad92600480840193829003018186803b158015611fb357600080fd5b505afa158015611fc7573d6000803e3d6000fd5b505050506040513d6020811015611fdd57600080fd5b5051601480549192509083908110611ff157fe5b6000918252602090912001546001600160a01b038281169116141561201657506120da565b806014838154811061202457fe5b600091825260209091200180546001600160a01b0319166001600160a01b039283161790558116156120d857806001600160a01b031663313ce5676040518163ffffffff1660e01b815260040160206040518083038186803b15801561208957600080fd5b505afa15801561209d573d6000803e3d6000fd5b505050506040513d60208110156120b357600080fd5b50516001600160a01b038216600090815260056020526040902060ff909116600a0a90555b505b600101611f51565b565b604080518082018252600f81526e4654534f206e6f742061637469766560881b6020808301918252925162461bcd60e51b81526004810193845282516024820152825192939283926044909201919080838360008315610cc2578181015183820152602001610caa565b612156611703565b82146040518060400160405280600e81526020016d15dc9bdb99c8195c1bd8da081a5960921b815250906121cb5760405162461bcd60e51b8152602060048201818152835160248401528351909283926044909101919085019080838360008315610cc2578181015183820152602001610caa565b5060008281526012602090815260408083206001600160a01b0387168452825291829020548251808401909352601983527f4475706c6963617465207375626d697420696e2065706f63680000000000000091830191909152156122705760405162461bcd60e51b8152602060048201818152835160248401528351909283926044909101919085019080838360008315610cc2578181015183820152602001610caa565b5060008281526012602090815260408083206001600160a01b038716808552908352928190208490558051848152429281019290925280518593927f615c0184a2b16dbbcd09eae0bf239e28977aa4e6ff2204eda59c14016310bb6692908290030190a3505050565b60006122e6600483613bb6565b4210156040518060400160405280602081526020017f45706f6368206e6f7420726561647920666f722066696e616c697a6174696f6e8152509061236b5760405162461bcd60e51b8152602060048201818152835160248401528351909283926044909101919085019080838360008315610cc2578181015183820152602001610caa565b5061237582613160565b90506000601082015460ff16600581111561238c57fe5b146040518060400160405280601781526020017f45706f636820616c72656164792066696e616c697a65640000000000000000008152509061240f5760405162461bcd60e51b8152602060048201818152835160248401528351909283926044909101919085019080838360008315610cc2578181015183820152602001610caa565b50919050565b60008061247f846004600c0180548060200260200160405190810160405280929190818152602001828054801561247557602002820191906000526020600020905b81546001600160a01b03168152600190910190602001808311612457575b5050505050613bcf565b909250905080156125745780828161249357fe5b04600f850155826124a55760026124a8565b60045b60108501805460ff191660018360058111156124c057fe5b0217905550600f840154600255426003556124da85610ad6565b847ffe8865c1fe85bbf124b9e0f16cccfeeb6f330454fd79475a31261c8fa250bc3085600f015460008060008960100160009054906101000a900460ff164260405180878152602001861515815260200185815260200184815260200183600581111561254357fe5b8152602001828152602001965050505050505060405180910390a26001840180546001600160f81b03169055611154565b61115485858561361f565b6060806060600084600d01549050806001600160401b03811180156125a357600080fd5b506040519080825280602002602001820160405280156125cd578160200160208202803683370190505b509350806001600160401b03811180156125e657600080fd5b50604051908082528060200260200182016040528015612610578160200160208202803683370190505b5091506000816001600160401b038111801561262b57600080fd5b50604051908082528060200260200182016040528015612655578160200160208202803683370190505b50905060005b828110156126fd576000818152600e880160205260409020805487516001600160801b039091169088908490811061268f57fe5b602090810291909101015280548551600160801b9091046001600160401b0316908690849081106126bc57fe5b602090810291909101015280548351600160c01b9091046001600160401b0316908490849081106126e957fe5b60209081029190910101525060010161265b565b50612709868483613c7a565b935050509193909250565b606061271e614c34565b8351806001600160401b038111801561273657600080fd5b50604051908082528060200260200182016040528015612760578160200160208202803683370190505b50925060005b8181101561278e578084828151811061277b57fe5b6020908102919091010152600101612766565b506127a56002600060018403600080888b8b613d91565b6080850152606084015280835283518591859181106127c057fe5b6020026020010151815181106127d257fe5b602090810291909101015160a083018190526080830151606084015184519201019061280b578251600060c0850152602084015261285f565b6004810483606001511161282f578251606084015160c0850152602084015261285f565b61285360016000600186600001510360008760a00151886080015101898c8c613d91565b5060c085015260208401525b825160001983011415612880578251600061010085015260408401526128d8565b600481048360800151116128a5578251608084015161010085015260408401526128d8565b6128cb60038460000151600101600185038660a001518760600151016000898c8c613d91565b6101008601525060408401525b85848460000151815181106128e957fe5b6020026020010151815181106128fb57fe5b6020908102919091010151610120840152600281048360a00151846060015101148015612929575060028106155b15612959576002612943846000015160018503878a61406c565b846101200151018161295157fe5b046101208401525b612973836020015160006000198660c00151888b8b61412c565b60c08501526020840152604083015161010084015161299e9190600019850190600190888b8b61412c565b6101008501526040840152602083015184518791869181106129bc57fe5b6020026020010151815181106129ce57fe5b60200260200101518361014001818152505085848460400151815181106129f157fe5b602002602001015181518110612a0357fe5b602090810291909101015161016084015261010083015160c08401519091030360e08301525090939092509050565b600083612a4157506000612ab6565b6000858184600019880181612a5257fe5b068152602001908152602001600020600f0154905080841415612a79576000915050612ab6565b83612a8c5764e8d4a51000915050612ab6565b600084821115612a9f5750838103612aa4565b508084035b612ab18161271087614200565b925050505b949350505050565b600a840154602084015160609182916000919082905b88604001518111612b9f576000888281518110612aed57fe5b602002602001015190506000888281518110612b0557fe5b60200260200101511115612b95576000818152600e8c0160205260409020546101408b01516001600160801b0390911690811480612b5057508a6101600151816001600160801b0316145b8015612b8157506000828152600e8d016020526040902060010154612b7f9086906001600160a01b031661430c565b155b15612b8d575050612b97565b506001909201915b505b600101612ad4565b50806001600160401b0381118015612bb657600080fd5b50604051908082528060200260200182016040528015612be0578160200160208202803683370190505b509450806001600160401b0381118015612bf957600080fd5b50604051908082528060200260200182016040528015612c23578160200160208202803683370190505b5060208901519094506000905b89604001518111612d6c576000898281518110612c4957fe5b602002602001015190506000898281518110612c6157fe5b602002602001015190506000811115612d61576000828152600e8e0160205260409020546101408d01516001600160801b0390911690811480612cb157508c6101600151816001600160801b0316145b8015612ce257506000838152600e8f016020526040902060010154612ce09088906001600160a01b031661430c565b155b15612cef57505050612d64565b6000838152600e8f0160205260409020600101548a516001600160a01b03909116908b9087908110612d1d57fe5b60200260200101906001600160a01b031690816001600160a01b03168152505081898681518110612d4a57fe5b602090810291909101015250958601956001909301925b50505b600101612c30565b505050509450945094915050565b50505050565b60008260020154821015612d96575060006110a1565b82600301548360020154830381612da957fe5b0490506110a1565b60408051808201909152600e81526d0a0e4d2c6ca40e8dede40d0d2ced60931b6020820152600160801b8410612e285760405162461bcd60e51b8152602060048201818152835160248401528351909283926044909101919085019080838360008315610cc2578181015183820152602001610caa565b50612e34600485614347565b6040518060400160405280601881526020017f52657665616c20706572696f64206e6f7420616374697665000000000000000081525090612eb65760405162461bcd60e51b8152602060048201818152835160248401528351909283926044909101919085019080838360008315610cc2578181015183820152602001610caa565b506040805160208082018690528183018590526001600160a01b0388166060808401829052845180850390910181526080840180865281519184019190912060008a81526012855286812093815292909352908490205460e08401909452602380825293909114929091614da09060a0013990612f745760405162461bcd60e51b8152602060048201818152835160248401528351909283926044909101919085019080838360008315610cc2578181015183820152602001610caa565b5060006004817f00000000000000000000000000000000000000000000000000000000000000008781612fa357fe5b0681526020810191909152604001600020600181015490915060ff600160f81b8204811691600160f01b8104909116906001600160f01b03168180613008575082801561300857506001600160a01b03891660009081526011602052604090205460ff165b6040518060400160405280602081526020017f45706f6368206e6f7420696e697469616c697a656420666f722072657665616c8152509061308a5760405162461bcd60e51b8152602060048201818152835160248401528351909283926044909101919085019080838360008315610cc2578181015183820152602001610caa565b5060008061309b868c898887614372565b915091506130de868c84848d8d8f60405160200180838152602001828152602001925050506040516020818303038152906040528051906020012060001c6143d2565b60008a81526012602090815260408083206001600160a01b038f168085529083528184209390935580518c81529182018b905242828201526060820185905260808201849052518c92917f408bc8c9d02102257c33373c2df5771b03067bd8ea7ec60c35f314ec4ee99d05919081900360a00190a35050505050505050505050565b60006004817f0000000000000000000000000000000000000000000000000000000000000000848161318e57fe5b0681526020019081526020016000209050806002015482146040518060400160405280601881526020017f45706f63682064617461206e6f7420617661696c61626c6500000000000000008152509061240f5760405162461bcd60e51b8152602060048201818152835160248401528351909283926044909101919085019080838360008315610cc2578181015183820152602001610caa565b82516060906000816001600160401b038111801561324557600080fd5b5060405190808252806020026020018201604052801561326f578160200160208202803683370190505b5090506000805b838110156133585760006001600160a01b031688828151811061329557fe5b60200260200101516001600160a01b031614156132b157613350565b60006133288783815181106132c257fe5b60200260200101518b60010160008c86815181106132dc57fe5b60200260200101516001600160a01b03166001600160a01b03168152602001908152602001600020548a858151811061331157fe5b60200260200101516142009092919063ffffffff16565b90508084838151811061333757fe5b602090810291909101015261334c83826144ef565b9250505b600101613276565b5080156133c35760005b838110156133c1576133a261339561271088848151811061337f57fe5b602002602001015161454990919063ffffffff16565b8385848151811061331157fe5b8382815181106133ae57fe5b6020908102919091010152600101613362565b505b509695505050505050565b8151606090806001600160401b03811180156133e957600080fd5b50604051908082528060200260200182016040528015613413578160200160208202803683370190505b50915060005b818110156134f95760006001600160a01b031685828151811061343857fe5b60200260200101516001600160a01b0316146134d657600086600101600087848151811061346257fe5b60200260200101516001600160a01b03166001600160a01b031681526020019081526020016000205490506134b861271064e8d4a51000816134a057fe5b04670de0b6b3a7640000028287858151811061331157fe5b8483815181106134c457fe5b602002602001018181525050506134f1565b60008382815181106134e457fe5b6020026020010181815250505b600101613419565b50509392505050565b600080805b85518110156135c05760006001600160a01b031686828151811061352757fe5b60200260200101516001600160a01b0316146135b85760006127106135a087848151811061355157fe5b60200260200101518a60010160008b878151811061356b57fe5b60200260200101516001600160a01b03166001600160a01b031681526020019081526020016000205488868151811061331157fe5b816135a757fe5b0490506135b483826144ef565b9250505b600101613507565b5095945050505050565b60008083600801548310156135e157506000611d3f565b836009015483106135f55750611388611d3f565b600884015460098501546101f49190819003908503611194028161361557fe5b0401949350505050565b821561367657600460007f000000000000000000000000000000000000000000000000000000000000000060001986018161365657fe5b068152602001908152602001600020600f015482600f018190555061367e565b6000600f8301555b8061368a57600361368d565b60055b60108301805460ff191660018360058111156136a557fe5b02179055506136b383610ad6565b827ffe8865c1fe85bbf124b9e0f16cccfeeb6f330454fd79475a31261c8fa250bc3083600f015460008060008760100160009054906101000a900460ff164260405180878152602001861515815260200185815260200184815260200183600581111561371c57fe5b8152602001828152602001965050505050505060405180910390a25060010180546001600160f81b0316905550565b600d820154600090815b81811015613798576000818152600e860160205260409020600101546001600160a01b03858116911614156137905760010191506110a19050565b600101613755565b506000949350505050565b60038201546002830154600183019091020192915050565b60608060606137c8611f08565b601480548060200260200160405190810160405280929190818152602001828054801561381e57602002820191906000526020600020905b81546001600160a01b03168152600190910190602001808311613800575b5050505050925082516001600160401b038111801561383c57600080fd5b50604051908082528060200260200182016040528015613866578160200160208202803683370190505b50915082516001600160401b038111801561388057600080fd5b506040519080825280602002602001820160405280156138aa578160200160208202803683370190505b50905060005b83518110156139ab576138e48482815181106138c857fe5b60209081029190910101516009546001600160f01b03166139b1565b8382815181106138f057fe5b6020026020010181815250506015818154811061390957fe5b9060005260206000200160009054906101000a90046001600160a01b03166001600160a01b031663eb91d37e6040518163ffffffff1660e01b8152600401604080518083038186803b15801561395e57600080fd5b505afa158015613972573d6000803e3d6000fd5b505050506040513d604081101561398857600080fd5b5051825183908390811061399857fe5b60209081029190910101526001016138b0565b50909192565b60006001600160a01b0383166139c9575060006110a1565b826001600160a01b031663caeb942b836040518263ffffffff1660e01b815260040180828152602001915050602060405180830381600087803b158015613a0f57600080fd5b505af1158015613a23573d6000803e3d6000fd5b505050506040513d6020811015613a3957600080fd5b505190506110a1565b613a4f87878585856145a2565b6005808801546001880180546001600160f01b0319166001600160f01b03909216919091179055600a8801546003880155600b880154600488015586018590556006808701859055870154613aac908581613aa657fe5b0461460b565b86546001600160801b0319166001600160801b039190911617865560078781015490870154613add919081613aa657fe5b86546001600160801b03918216600160801b0291161786555050506001909201805460ff60f01b1916600160f01b179055505050565b60006001600160a01b038416613b2b57506000611d3f565b836001600160a01b031663e587497e84846040518363ffffffff1660e01b815260040180836001600160a01b0316815260200182815260200192505050602060405180830381600087803b158015613b8257600080fd5b505af1158015613b96573d6000803e3d6000fd5b505050506040513d6020811015613bac57600080fd5b5051949350505050565b60008260040154613bc784846137a3565b019392505050565b600d8201546000908190815b81811015613c71576000818152600e870160205260408120600101546001600160a01b0316905b8651811015613c6757868181518110613c1757fe5b60200260200101516001600160a01b0316826001600160a01b03161415613c5f576000838152600e890160205260409020546001600160801b03169590950194600194909401935b600101613c02565b5050600101613bdb565b50509250929050565b600d830154606090806001600160401b0381118015613c9857600080fd5b50604051908082528060200260200182016040528015613cc2578160200160208202803683370190505b5091506000613cd085614653565b90506000613cdd85614653565b9050600080613ced898585614698565b90508315613cfd57806127100391505b60005b85811015613d845760008315613d4657613d438a8381518110613d1f57fe5b602002602001015164e8d4a51000026127108802866142009092919063ffffffff16565b90505b60008315613d6057613d5d8a8481518110613d1f57fe5b90505b808201898481518110613d6f57fe5b60209081029190910101525050600101613d00565b5050505050509392505050565b6000806000888a1415613dab57508891508690508561405e565b613db3614c95565b88815260208101889052613dc5614cd2565b60208082018d905260408083018d90528051448184015242818301528151808203830181526060909101909152805191012060005b60208301516040840151613e2c9190816001818303018681613e1857fe5b0601876000015188602001518f8f8f6146ff565b606087015260408601528084528a518b91908110613e4657fe5b602002602001015183606001818152505087836060015181518110613e6757fe5b6020026020010151846080018181525050836060015184604001518560800151010190508e60021415613f425760028106600282040160a0850181905280820360c0860152604085015110801590613ec257508b8460a00151115b15613ee757825160001901604084015260608401516080850151016020850152613f3d565b8360c001518460600151118015613f0157508a8460c00151115b15613f22578251600101602084015260408401516080850151018452613f3d565b5050516040820151606090920151909450909250905061405e565b614059565b8e60011415613fd3576004810460a0850181905280820360c08601526040850151118015613f7357508b8460a00151115b15613f9857825160001901604084015260608401516080850151016020850152613f3d565b8360c00151846060015110158015613f0157508a8460c001511115613f22578251600101602084015260408401516080850151018452613f3d565b6004810460c08501819052810360a08501819052604085015110801590613ffd57508b8460a00151115b1561402257825160001901604084015260608401516080850151016020850152614059565b8360c00151846060015111801561403c57508a8460c00151115b15613f225782516001016020840152604084015160808501510184525b613dfa565b985098509895505050505050565b6000838514156140a4578183868151811061408357fe5b60200260200101518151811061409557fe5b60200260200101519050612ab6565b6000828487600101815181106140b657fe5b6020026020010151815181106140c857fe5b602002602001015190506000808760020190505b86811161412057848682815181106140f057fe5b60200260200101518151811061410257fe5b6020026020010151915082821015614118578192505b6001016140dc565b50909695505050505050565b60008085888a038802821361414757898792509250506141f4565b600085878c8151811061415657fe5b60200260200101518151811061416857fe5b602090810291909101015190508a89016000815b60008c8e830302136141e85789818151811061419457fe5b60200260200101519150838983815181106141ab57fe5b602002602001015114156141e1578782815181106141c557fe5b6020026020010151850394506141dc83828c6148c8565b918b01915b8b0161417c565b50508990039350909150505b97509795505050505050565b6000808211614249576040805162461bcd60e51b815260206004820152601060248201526f4469766973696f6e206279207a65726f60801b604482015290519081900360640190fd5b8361425657506000611d3f565b8383028385828161426357fe5b04141561427c5782818161427357fe5b04915050611d3f565b600083868161428757fe5b049050600084878161429557fe5b06905060008587816142a357fe5b04905060008688816142b157fe5b0690506142ff6142cb886142c58685614549565b90614930565b6142f96142d88686614549565b6142f96142e58987614549565b6142f98d6142f38c8b614549565b90614549565b906144ef565b9998505050505050505050565b604080516020808201949094526001600160a01b03929092168282015280518083038201815260609092019052805191012060019081161490565b60008061435484846137a3565b9050428111158015612ab65750836004015481014210949350505050565b6000808315614386575060009050806143c8565b849150614394878785614997565b87549091506001600160801b0380821691600160801b900416818411156143b9578193505b808311156143c5578092505b50505b9550959350505050565b600086600d0154905060006143f38787878b600601548c6007015489614a55565b63ffffffff838116608083019081526000858152600e8c0160209081526040918290208551815492870151938701516001600160801b03199093166001600160801b039091161767ffffffffffffffff60801b1916600160801b6001600160401b0394851602176001600160c01b0316600160c01b939092169290920217815560608401516001918201805493516001600160a01b03199094166001600160a01b039092169190911763ffffffff60a01b1916600160a01b93851693909302929092179091558401600d8b015560088a01549192506144d5919088906144ef16565b60088901555050600a909501805490950190945550505050565b600082820183811015611d3f576040805162461bcd60e51b815260206004820152601b60248201527f536166654d6174683a206164646974696f6e206f766572666c6f770000000000604482015290519081900360640190fd5b600082614558575060006110a1565b8282028284828161456557fe5b0414611d3f5760405162461bcd60e51b8152600401808060200182810382526021815260200180614dc36021913960400191505060405180910390fd5b82516145b790600b8601906020860190614bd3565b506145c485848484613228565b80516145da91600c870191602090910190614cfa565b5060006145e8868685614ab2565b6007860181905590506145fb86826135ca565b8560090181905550505050505050565b6000600160801b821061464f5760405162461bcd60e51b8152600401808060200182810382526027815260200180614d796027913960400191505060405180910390fd5b5090565b600080805b83518110156146915761468784828151811061467057fe5b6020026020010151836144ef90919063ffffffff16565b9150600101614658565b5092915050565b6000816146a757506000611d3f565b826146b55750612710611d3f565b60006146c98361271064e8d4a51000614200565b9050846003015481106146e25750506009830154611d3f565b600385015460098601546146f7918390614200565b915050611d3f565b60008060008085878b8151811061471257fe5b60200260200101518151811061472457fe5b60200260200101519050600060026001600160401b038111801561474757600080fd5b50604051908082528060200260200182016040528015614771578160200160208202803683370190505b509050898160008151811061478257fe5b602002602001018181525050888160018151811061479c57fe5b60209081029190910101528c8c6147b48d828c6148c8565b81805b828110156148785760008c82815181106147cd57fe5b60200260200101519050868c82815181106147e457fe5b6020026020010151101561483b578a81815181106147fe57fe5b60200260200101518660008151811061481357fe5b60200260200101818151019150818152505061483083838f6148c8565b60019092019161486f565b8a818151811061484757fe5b60200260200101518660018151811061485c57fe5b6020026020010181815101915081815250505b506001016147b7565b5061488482828d6148c8565b808460008151811061489257fe5b6020026020010151856001815181106148a757fe5b60200260200101519750975097505050505050985098509895505050505050565b818314156148d557610c03565b8082815181106148e157fe5b60200260200101518184815181106148f557fe5b602002602001015182858151811061490957fe5b6020026020010183858151811061491c57fe5b602090810291909101019190915252505050565b6000808211614986576040805162461bcd60e51b815260206004820152601a60248201527f536166654d6174683a206469766973696f6e206279207a65726f000000000000604482015290519081900360640190fd5b81838161498f57fe5b049392505050565b600b83015460009081906001600160401b03811180156149b657600080fd5b506040519080825280602002602001820160405280156149e0578160200160208202803683370190505b50905060005b600b860154811015614a3f57614a2086600b018281548110614a0457fe5b6000918252602090912001546001600160a01b03168686613b13565b828281518110614a2c57fe5b60209081029190910101526001016149e6565b50614a4c60048683614ab2565b95945050505050565b614a5d614d35565b6001600160a01b0387166060820152614a768685614ba2565b6001600160401b03166020820152614a8e8584614ba2565b6001600160401b031660408201526001600160801b03909116815295945050505050565b600080805b600b850154811015614b995760006001600160a01b031685600b018281548110614add57fe5b6000918252602090912001546001600160a01b03161415614afd57614b91565b614b8e612710614b7e868481518110614b1257fe5b60200260200101518960010160008a600b018781548110614b2f57fe5b60009182526020808320909101546001600160a01b03168352820192909252604001902054600c8a01805487908110614b6457fe5b90600052602060002001546142009092919063ffffffff16565b81614b8557fe5b849190046144ef565b91505b600101614ab7565b50949350505050565b6000811580614baf575082155b15614bbc575060006110a1565b614bcc8364e8d4a5100084614200565b90506110a1565b828054828255906000526020600020908101928215614c28579160200282015b82811115614c2857825182546001600160a01b0319166001600160a01b03909116178255602090920191600190910190614bf3565b5061464f929150614d63565b6040518061018001604052806000815260200160008152602001600081526020016000815260200160008152602001600081526020016000815260200160008152602001600081526020016000815260200160008152602001600081525090565b6040518060e00160405280600081526020016000815260200160008152602001600081526020016000815260200160008152602001600081525090565b6040518060800160405280600081526020016000815260200160008152602001600081525090565b828054828255906000526020600020908101928215614c28579160200282015b82811115614c28578251825591602001919060010190614d1a565b6040805160a08101825260008082526020820181905291810182905260608101829052608081019190915290565b5b8082111561464f5760008155600101614d6456fe53616665436173743a2076616c756520646f65736e27742066697420696e203132382062697473507269636520616c72656164792072657665616c6564206f72206e6f742076616c6964536166654d6174683a206d756c7469706c69636174696f6e206f766572666c6f77a264697066735822122065e0b01751f5f16fcdb03ddb7be5bd9d94bd14718693ef91134e94785282210164736f6c63430007060033",
  "linkReferences": {},
  "deployedLinkReferences": {}
}