{
  "_format": "hh-sol-artifact-1",
  "contractName": "Ftso",
  "sourceName": "contracts/ftso/implementation/Ftso.sol",
  "abi": [
    {
      "inputs": [
        {
          "internalType": "string",
          "name": "_symbol",
          "type": "string"
        },
        {
          "internalType": "uint256",
          "name": "_decimals",
          "type": "uint256"
        },
        {
          "internalType": "contract IPriceSubmitter",
          "name": "_priceSubmitter",
          "type": "address"
        },
        {
          "internalType": "contract IIVPToken",
          "name": "_wNat",
          "type": "address"
        },
        {
          "internalType": "address",
          "name": "_ftsoManager",
          "type": "address"
        },
        {
          "internalType": "uint256",
          "name": "_firstEpochStartTs",
          "type": "uint256"
        },
        {
          "internalType": "uint256",
          "name": "_submitPeriodSeconds",
          "type": "uint256"
        },
        {
          "internalType": "uint256",
          "name": "_revealPeriodSeconds",
          "type": "uint256"
        },
        {
          "internalType": "uint128",
          "name": "_initialPriceUSD",
          "type": "uint128"
        },
        {
          "internalType": "uint256",
          "name": "_priceDeviationThresholdBIPS",
          "type": "uint256"
        },
        {
          "internalType": "uint256",
          "name": "_cyclicBufferSize",
          "type": "uint256"
        }
      ],
      "stateMutability": "nonpayable",
      "type": "constructor"
    },
    {
      "anonymous": false,
      "inputs": [
        {
          "indexed": true,
          "internalType": "uint256",
          "name": "epochId",
          "type": "uint256"
        },
        {
          "indexed": false,
          "internalType": "uint256",
          "name": "natTurnout",
          "type": "uint256"
        },
        {
          "indexed": false,
          "internalType": "uint256",
          "name": "lowNatTurnoutThresholdBIPS",
          "type": "uint256"
        },
        {
          "indexed": false,
          "internalType": "uint256",
          "name": "timestamp",
          "type": "uint256"
        }
      ],
      "name": "LowTurnout",
      "type": "event"
    },
    {
      "anonymous": false,
      "inputs": [
        {
          "indexed": true,
          "internalType": "uint256",
          "name": "epochId",
          "type": "uint256"
        },
        {
          "indexed": false,
          "internalType": "uint256",
          "name": "endTime",
          "type": "uint256"
        },
        {
          "indexed": false,
          "internalType": "uint256",
          "name": "timestamp",
          "type": "uint256"
        }
      ],
      "name": "PriceEpochInitializedOnFtso",
      "type": "event"
    },
    {
      "anonymous": false,
      "inputs": [
        {
          "indexed": true,
          "internalType": "uint256",
          "name": "epochId",
          "type": "uint256"
        },
        {
          "indexed": false,
          "internalType": "uint256",
          "name": "price",
          "type": "uint256"
        },
        {
          "indexed": false,
          "internalType": "bool",
          "name": "rewardedFtso",
          "type": "bool"
        },
        {
          "indexed": false,
          "internalType": "uint256",
          "name": "lowRewardPrice",
          "type": "uint256"
        },
        {
          "indexed": false,
          "internalType": "uint256",
          "name": "highRewardPrice",
          "type": "uint256"
        },
        {
          "indexed": false,
          "internalType": "enum IFtso.PriceFinalizationType",
          "name": "finalizationType",
          "type": "uint8"
        },
        {
          "indexed": false,
          "internalType": "uint256",
          "name": "timestamp",
          "type": "uint256"
        }
      ],
      "name": "PriceFinalized",
      "type": "event"
    },
    {
      "anonymous": false,
      "inputs": [
        {
          "indexed": true,
          "internalType": "address",
          "name": "voter",
          "type": "address"
        },
        {
          "indexed": true,
          "internalType": "uint256",
          "name": "epochId",
          "type": "uint256"
        },
        {
          "indexed": false,
          "internalType": "uint256",
          "name": "price",
          "type": "uint256"
        },
        {
          "indexed": false,
          "internalType": "uint256",
          "name": "timestamp",
          "type": "uint256"
        },
        {
          "indexed": false,
          "internalType": "uint256",
          "name": "votePowerNat",
          "type": "uint256"
        },
        {
          "indexed": false,
          "internalType": "uint256",
          "name": "votePowerAsset",
          "type": "uint256"
        }
      ],
      "name": "PriceRevealed",
      "type": "event"
    },
    {
      "inputs": [],
      "name": "ASSET_PRICE_USD_DECIMALS",
      "outputs": [
        {
          "internalType": "uint256",
          "name": "",
          "type": "uint256"
        }
      ],
      "stateMutability": "view",
      "type": "function"
    },
    {
      "inputs": [
        {
          "internalType": "uint256",
          "name": "_firstEpochStartTs",
          "type": "uint256"
        },
        {
          "internalType": "uint256",
          "name": "_submitPeriodSeconds",
          "type": "uint256"
        },
        {
          "internalType": "uint256",
          "name": "_revealPeriodSeconds",
          "type": "uint256"
        }
      ],
      "name": "activateFtso",
      "outputs": [],
      "stateMutability": "nonpayable",
      "type": "function"
    },
    {
      "inputs": [],
      "name": "active",
      "outputs": [
        {
          "internalType": "bool",
          "name": "",
          "type": "bool"
        }
      ],
      "stateMutability": "view",
      "type": "function"
    },
    {
      "inputs": [
        {
          "internalType": "uint256",
          "name": "",
          "type": "uint256"
        }
      ],
      "name": "assetFtsos",
      "outputs": [
        {
          "internalType": "contract IIFtso",
          "name": "",
          "type": "address"
        }
      ],
      "stateMutability": "view",
      "type": "function"
    },
    {
      "inputs": [
        {
          "internalType": "uint256",
          "name": "",
          "type": "uint256"
        }
      ],
      "name": "assets",
      "outputs": [
        {
          "internalType": "contract IIVPToken",
          "name": "",
          "type": "address"
        }
      ],
      "stateMutability": "view",
      "type": "function"
    },
    {
      "inputs": [
        {
          "internalType": "uint256",
          "name": "_maxVotePowerNatThresholdFraction",
          "type": "uint256"
        },
        {
          "internalType": "uint256",
          "name": "_maxVotePowerAssetThresholdFraction",
          "type": "uint256"
        },
        {
          "internalType": "uint256",
          "name": "_lowAssetUSDThreshold",
          "type": "uint256"
        },
        {
          "internalType": "uint256",
          "name": "_highAssetUSDThreshold",
          "type": "uint256"
        },
        {
          "internalType": "uint256",
          "name": "_highAssetTurnoutThresholdBIPS",
          "type": "uint256"
        },
        {
          "internalType": "uint256",
          "name": "_lowNatTurnoutThresholdBIPS",
          "type": "uint256"
        },
        {
          "internalType": "address[]",
          "name": "_trustedAddresses",
          "type": "address[]"
        }
      ],
      "name": "configureEpochs",
      "outputs": [],
      "stateMutability": "nonpayable",
      "type": "function"
    },
    {
      "inputs": [],
      "name": "deactivateFtso",
      "outputs": [],
      "stateMutability": "nonpayable",
      "type": "function"
    },
    {
      "inputs": [],
      "name": "epochsConfiguration",
      "outputs": [
        {
          "internalType": "uint256",
          "name": "_maxVotePowerNatThresholdFraction",
          "type": "uint256"
        },
        {
          "internalType": "uint256",
          "name": "_maxVotePowerAssetThresholdFraction",
          "type": "uint256"
        },
        {
          "internalType": "uint256",
          "name": "_lowAssetUSDThreshold",
          "type": "uint256"
        },
        {
          "internalType": "uint256",
          "name": "_highAssetUSDThreshold",
          "type": "uint256"
        },
        {
          "internalType": "uint256",
          "name": "_highAssetTurnoutThresholdBIPS",
          "type": "uint256"
        },
        {
          "internalType": "uint256",
          "name": "_lowNatTurnoutThresholdBIPS",
          "type": "uint256"
        },
        {
          "internalType": "address[]",
          "name": "_trustedAddresses",
          "type": "address[]"
        }
      ],
      "stateMutability": "view",
      "type": "function"
    },
    {
      "inputs": [
        {
          "internalType": "uint256",
          "name": "_epochId",
          "type": "uint256"
        }
      ],
      "name": "fallbackFinalizePriceEpoch",
      "outputs": [],
      "stateMutability": "nonpayable",
      "type": "function"
    },
    {
      "inputs": [
        {
          "internalType": "uint256",
          "name": "_epochId",
          "type": "uint256"
        },
        {
          "internalType": "bool",
          "name": "_returnRewardData",
          "type": "bool"
        }
      ],
      "name": "finalizePriceEpoch",
      "outputs": [
        {
          "internalType": "address[]",
          "name": "_eligibleAddresses",
          "type": "address[]"
        },
        {
          "internalType": "uint256[]",
          "name": "_natWeights",
          "type": "uint256[]"
        },
        {
          "internalType": "uint256",
          "name": "_natWeightsSum",
          "type": "uint256"
        }
      ],
      "stateMutability": "nonpayable",
      "type": "function"
    },
    {
      "inputs": [
        {
          "internalType": "uint256",
          "name": "_epochId",
          "type": "uint256"
        }
      ],
      "name": "forceFinalizePriceEpoch",
      "outputs": [],
      "stateMutability": "nonpayable",
      "type": "function"
    },
    {
      "inputs": [],
      "name": "ftsoManager",
      "outputs": [
        {
          "internalType": "address",
          "name": "",
          "type": "address"
        }
      ],
      "stateMutability": "view",
      "type": "function"
    },
    {
      "inputs": [],
      "name": "getAsset",
      "outputs": [
        {
          "internalType": "contract IIVPToken",
          "name": "",
          "type": "address"
        }
      ],
      "stateMutability": "view",
      "type": "function"
    },
    {
      "inputs": [],
      "name": "getAssetFtsos",
      "outputs": [
        {
          "internalType": "contract IIFtso[]",
          "name": "",
          "type": "address[]"
        }
      ],
      "stateMutability": "view",
      "type": "function"
    },
    {
      "inputs": [],
      "name": "getCurrentEpochId",
      "outputs": [
        {
          "internalType": "uint256",
          "name": "",
          "type": "uint256"
        }
      ],
      "stateMutability": "view",
      "type": "function"
    },
    {
      "inputs": [],
      "name": "getCurrentPrice",
      "outputs": [
        {
          "internalType": "uint256",
          "name": "_price",
          "type": "uint256"
        },
        {
          "internalType": "uint256",
          "name": "_timestamp",
          "type": "uint256"
        }
      ],
      "stateMutability": "view",
      "type": "function"
    },
    {
      "inputs": [],
      "name": "getCurrentPriceDetails",
      "outputs": [
        {
          "internalType": "uint256",
          "name": "_price",
          "type": "uint256"
        },
        {
          "internalType": "uint256",
          "name": "_priceTimestamp",
          "type": "uint256"
        },
        {
          "internalType": "enum IFtso.PriceFinalizationType",
          "name": "_priceFinalizationType",
          "type": "uint8"
        },
        {
          "internalType": "uint256",
          "name": "_lastPriceEpochFinalizationTimestamp",
          "type": "uint256"
        },
        {
          "internalType": "enum IFtso.PriceFinalizationType",
          "name": "_lastPriceEpochFinalizationType",
          "type": "uint8"
        }
      ],
      "stateMutability": "view",
      "type": "function"
    },
    {
      "inputs": [],
      "name": "getCurrentPriceFromTrustedProviders",
      "outputs": [
        {
          "internalType": "uint256",
          "name": "_price",
          "type": "uint256"
        },
        {
          "internalType": "uint256",
          "name": "_timestamp",
          "type": "uint256"
        }
      ],
      "stateMutability": "view",
      "type": "function"
    },
    {
      "inputs": [],
      "name": "getCurrentRandom",
      "outputs": [
        {
          "internalType": "uint256",
          "name": "",
          "type": "uint256"
        }
      ],
      "stateMutability": "view",
      "type": "function"
    },
    {
      "inputs": [
        {
          "internalType": "uint256",
          "name": "_timestamp",
          "type": "uint256"
        }
      ],
      "name": "getEpochId",
      "outputs": [
        {
          "internalType": "uint256",
          "name": "",
          "type": "uint256"
        }
      ],
      "stateMutability": "view",
      "type": "function"
    },
    {
      "inputs": [
        {
          "internalType": "uint256",
          "name": "_epochId",
          "type": "uint256"
        }
      ],
      "name": "getEpochPrice",
      "outputs": [
        {
          "internalType": "uint256",
          "name": "",
          "type": "uint256"
        }
      ],
      "stateMutability": "view",
      "type": "function"
    },
    {
      "inputs": [
        {
          "internalType": "uint256",
          "name": "_epochId",
          "type": "uint256"
        },
        {
          "internalType": "address",
          "name": "_voter",
          "type": "address"
        }
      ],
      "name": "getEpochPriceForVoter",
      "outputs": [
        {
          "internalType": "uint256",
          "name": "",
          "type": "uint256"
        }
      ],
      "stateMutability": "view",
      "type": "function"
    },
    {
      "inputs": [],
      "name": "getPriceEpochConfiguration",
      "outputs": [
        {
          "internalType": "uint256",
          "name": "_firstEpochStartTs",
          "type": "uint256"
        },
        {
          "internalType": "uint256",
          "name": "_submitPeriodSeconds",
          "type": "uint256"
        },
        {
          "internalType": "uint256",
          "name": "_revealPeriodSeconds",
          "type": "uint256"
        }
      ],
      "stateMutability": "view",
      "type": "function"
    },
    {
      "inputs": [],
      "name": "getPriceEpochData",
      "outputs": [
        {
          "internalType": "uint256",
          "name": "_epochId",
          "type": "uint256"
        },
        {
          "internalType": "uint256",
          "name": "_epochSubmitEndTime",
          "type": "uint256"
        },
        {
          "internalType": "uint256",
          "name": "_epochRevealEndTime",
          "type": "uint256"
        },
        {
          "internalType": "uint256",
          "name": "_votePowerBlock",
          "type": "uint256"
        },
        {
          "internalType": "bool",
          "name": "_fallbackMode",
          "type": "bool"
        }
      ],
      "stateMutability": "view",
      "type": "function"
    },
    {
      "inputs": [
        {
          "internalType": "uint256",
          "name": "_epochId",
          "type": "uint256"
        }
      ],
      "name": "getRandom",
      "outputs": [
        {
          "internalType": "uint256",
          "name": "",
          "type": "uint256"
        }
      ],
      "stateMutability": "view",
      "type": "function"
    },
    {
      "inputs": [],
      "name": "getVoteWeightingParameters",
      "outputs": [
        {
          "internalType": "contract IIVPToken[]",
          "name": "_assets",
          "type": "address[]"
        },
        {
          "internalType": "uint256[]",
          "name": "_assetMultipliers",
          "type": "uint256[]"
        },
        {
          "internalType": "uint256",
          "name": "_totalVotePowerNat",
          "type": "uint256"
        },
        {
          "internalType": "uint256",
          "name": "_totalVotePowerAsset",
          "type": "uint256"
        },
        {
          "internalType": "uint256",
          "name": "_assetWeightRatio",
          "type": "uint256"
        },
        {
          "internalType": "uint256",
          "name": "_votePowerBlock",
          "type": "uint256"
        }
      ],
      "stateMutability": "view",
      "type": "function"
    },
    {
      "inputs": [
        {
          "internalType": "uint256",
          "name": "_circulatingSupplyNat",
          "type": "uint256"
        },
        {
          "internalType": "bool",
          "name": "_fallbackMode",
          "type": "bool"
        }
      ],
      "name": "initializeCurrentEpochStateForReveal",
      "outputs": [],
      "stateMutability": "nonpayable",
      "type": "function"
    },
    {
      "inputs": [],
      "name": "priceDeviationThresholdBIPS",
      "outputs": [
        {
          "internalType": "uint256",
          "name": "",
          "type": "uint256"
        }
      ],
      "stateMutability": "view",
      "type": "function"
    },
    {
      "inputs": [],
      "name": "priceEpochCyclicBufferSize",
      "outputs": [
        {
          "internalType": "uint256",
          "name": "",
          "type": "uint256"
        }
      ],
      "stateMutability": "view",
      "type": "function"
    },
    {
      "inputs": [],
      "name": "priceSubmitter",
      "outputs": [
        {
          "internalType": "contract IPriceSubmitter",
          "name": "",
          "type": "address"
        }
      ],
      "stateMutability": "view",
      "type": "function"
    },
    {
      "inputs": [
        {
          "internalType": "address",
          "name": "_voter",
          "type": "address"
        },
        {
          "internalType": "uint256",
          "name": "_epochId",
          "type": "uint256"
        },
        {
          "internalType": "uint256",
          "name": "_price",
          "type": "uint256"
        },
        {
          "internalType": "uint256",
          "name": "_voterWNatVP",
          "type": "uint256"
        }
      ],
      "name": "revealPriceSubmitter",
      "outputs": [],
      "stateMutability": "nonpayable",
      "type": "function"
    },
    {
      "inputs": [
        {
          "internalType": "contract IIVPToken",
          "name": "_asset",
          "type": "address"
        }
      ],
      "name": "setAsset",
      "outputs": [],
      "stateMutability": "nonpayable",
      "type": "function"
    },
    {
      "inputs": [
        {
          "internalType": "contract IIFtso[]",
          "name": "_assetFtsos",
          "type": "address[]"
        }
      ],
      "name": "setAssetFtsos",
      "outputs": [],
      "stateMutability": "nonpayable",
      "type": "function"
    },
    {
      "inputs": [
        {
          "internalType": "uint256",
          "name": "_votePowerBlock",
          "type": "uint256"
        }
      ],
      "name": "setVotePowerBlock",
      "outputs": [],
      "stateMutability": "nonpayable",
      "type": "function"
    },
    {
      "inputs": [],
      "name": "symbol",
      "outputs": [
        {
          "internalType": "string",
          "name": "",
          "type": "string"
        }
      ],
      "stateMutability": "view",
      "type": "function"
    },
    {
      "inputs": [
        {
          "internalType": "uint256",
          "name": "_initialPriceUSD",
          "type": "uint256"
        },
        {
          "internalType": "uint256",
          "name": "_initialPriceTimestamp",
          "type": "uint256"
        }
      ],
      "name": "updateInitialPrice",
      "outputs": [],
      "stateMutability": "nonpayable",
      "type": "function"
    },
    {
      "inputs": [],
      "name": "wNat",
      "outputs": [
        {
          "internalType": "contract IIVPToken",
          "name": "",
          "type": "address"
        }
      ],
      "stateMutability": "view",
      "type": "function"
    },
    {
      "inputs": [
        {
          "internalType": "address",
          "name": "_owner",
          "type": "address"
        },
        {
          "internalType": "uint256",
          "name": "_epochId",
          "type": "uint256"
        }
      ],
      "name": "wNatVotePowerCached",
      "outputs": [
        {
          "internalType": "uint256",
          "name": "",
          "type": "uint256"
        }
      ],
      "stateMutability": "nonpayable",
      "type": "function"
    }
  ],
  "bytecode": "0x6101a06040523480156200001257600080fd5b506040516200556d3803806200556d83398181016040526101608110156200003957600080fd5b81019080805160405193929190846401000000008211156200005a57600080fd5b9083019060208201858111156200007057600080fd5b82516401000000008111828201881017156200008b57600080fd5b82525081516020918201929091019080838360005b83811015620000ba578181015183820152602001620000a0565b50505050905090810190601f168015620000e85780820380516001836020036101000a031916815260200191505b506040908152602082810151918301516060840151608085015160a086015160c087015160e08801516101008901516101208a0151610140909a01518d51999c50969a5094989397929691959094939290916200014b916001918e0190620001c9565b5060c0999099526001600160601b0319606098891b81166101805296881b8716610140529490961b9094166101605260e091909152610100526101209190915260028054426001600160801b03908116600160801b029481166001600160801b031990921691909117169290921790915560805260a0525062000275565b828054600181600116156101000203166002900490600052602060002090601f0160209004810192826200020157600085556200024c565b82601f106200021c57805160ff19168380011785556200024c565b828001600101855582156200024c579182015b828111156200024c5782518255916020019190600101906200022f565b506200025a9291506200025e565b5090565b5b808211156200025a57600081556001016200025f565b60805160a05160c05160e05161010051610120516101405160601c6101605160601c6101805160601c6151e26200038b60003980611aa4528061222c5280612e9c525080610a2c5280610a595280610c7d5280610f6e528061107f528061143c52806114c852806119e55280611b815280611e015280611eb652806120ff5250806118965280611a3f5280611fc952806120b2525080610b875280610ee45280611d6e528061401652806147e0525080610b665280610e4152806132425280613c13525080610b455280610d9e528061321252806132635280613bee5250806115835250806111e15280611d985280611e895280611ef652806133045280613a025250806111b65280611b3952506151e26000f3fe608060405234801561001057600080fd5b50600436106102325760003560e01c80639edbf00711610130578063d89601fd116100b8578063f025bf661161007c578063f025bf66146108ba578063f670ebe3146108c2578063f72cab28146108e7578063f7dba1f514610913578063f937d6ad146109da57610232565b8063d89601fd146107ed578063e3749e0c146107f5578063e3b3a3b314610860578063e536f39614610895578063eb91d37e146108b257610232565b8063c5d8b9e7116100ff578063c5d8b9e714610759578063cc245ab514610785578063cd4b69141461078d578063cf35bdd0146107aa578063d0d552dd146107c757610232565b80639edbf007146106f0578063a29a839f146106f8578063af52df0814610700578063c1f6c36e1461072157610232565b80634afd5102116101be5780637d1d6f12116101825780637d1d6f121461055f578063826cc76b1461057c5780638357d08c1461059957806395d89b4114610656578063974d7a6b146106d357610232565b80634afd5102146104fb5780635303548b14610518578063555989da146105475780635c222bad1461054f5780636b52b2421461055757610232565b8063144e159111610205578063144e15911461036c57806318931c35146103925780632f0a6f3c146103ea578063306ba2531461041357806340462a2d1461043657610232565b806302fb0c5e14610237578063040d73b81461025357806311a7aaaa146102a3578063131fdee2146102c7575b600080fd5b61023f6109e2565b604080519115158252519081900360200190f35b61025b6109eb565b6040518086815260200185815260200184600581111561027757fe5b815260200183815260200182600581111561028e57fe5b81526020019550505050505060405180910390f35b6102ab610a2a565b604080516001600160a01b039092168252519081900360200190f35b61036a600480360360208110156102dd57600080fd5b8101906020810181356401000000008111156102f857600080fd5b82018360208201111561030a57600080fd5b8035906020019184602083028401116401000000008311171561032c57600080fd5b919080806020026020016040519081016040528093929190818152602001838360200280828437600092019190915250929550610a4e945050505050565b005b610374610b43565b60408051938452602084019290925282820152519081900360600190f35b61039a610bab565b60408051602080825283518183015283519192839290830191858101910280838360005b838110156103d65781810151838201526020016103be565b505050509050019250505060405180910390f35b61036a6004803603606081101561040057600080fd5b5080359060208101359060400135610c72565b61036a6004803603604081101561042957600080fd5b5080359060200135610f63565b61045b6004803603604081101561044c57600080fd5b5080359060200135151561106f565b604051808060200180602001848152602001838103835286818151815260200191508051906020019060200280838360005b838110156104a557818101518382015260200161048d565b50505050905001838103825285818151815260200191508051906020019060200280838360005b838110156104e45781810151838201526020016104cc565b505050509050019550505050505060405180910390f35b61036a6004803603602081101561051157600080fd5b5035611431565b6105356004803603602081101561052e57600080fd5b5035611498565b60408051918252519081900360200190f35b61036a6114ab565b6102ab611501565b610535611581565b6105356004803603602081101561057557600080fd5b50356115a5565b6102ab6004803603602081101561059257600080fd5b50356115ba565b6105a16115e4565b604051808060200180602001878152602001868152602001858152602001848152602001838103835289818151815260200191508051906020019060200280838360005b838110156105fd5781810151838201526020016105e5565b50505050905001838103825288818151815260200191508051906020019060200280838360005b8381101561063c578181015183820152602001610624565b505050509050019850505050505050505060405180910390f35b61065e61194d565b6040805160208082528351818301528351919283929083019185019080838360005b83811015610698578181015183820152602001610680565b50505050905090810190601f1680156106c55780820380516001836020036101000a031916815260200191505b509250505060405180910390f35b61036a600480360360208110156106e957600080fd5b50356119da565b6102ab611a3d565b610535611a61565b610708611a6c565b6040805192835260208301919091528051918290030190f35b61036a6004803603608081101561073757600080fd5b506001600160a01b038135169060208101359060408101359060600135611a87565b6105356004803603604081101561076f57600080fd5b50803590602001356001600160a01b0316611ae3565b610535611b37565b610535600480360360208110156107a357600080fd5b5035611b5b565b6102ab600480360360208110156107c057600080fd5b5035611b66565b61036a600480360360208110156107dd57600080fd5b50356001600160a01b0316611b76565b610535611c7b565b6107fd611ca9565b6040518088815260200187815260200186815260200185815260200184815260200183815260200180602001828103825283818151815260200191508051906020019060200280838360008381101561063c578181015183820152602001610624565b610868611d4f565b60408051958652602086019490945284840192909252606084015215156080830152519081900360a00190f35b61036a600480360360208110156108ab57600080fd5b5035611df6565b610708611e6c565b610535611e87565b61036a600480360360408110156108d857600080fd5b50803590602001351515611eab565b610535600480360360408110156108fd57600080fd5b506001600160a01b0381351690602001356120ab565b61036a600480360360e081101561092957600080fd5b81359160208101359160408201359160608101359160808201359160a08101359181019060e0810160c082013564010000000081111561096857600080fd5b82018360208201111561097a57600080fd5b8035906020019184602083028401116401000000008311171561099c57600080fd5b9190808060200260200160405190810160405280939291908181526020018383602002808284376000920191909152509295506120f4945050505050565b6102ab61222a565b60005460ff1681565b6002546004546001600160801b0380831693600160801b909304169160ff8083169261010081046001600160f01b031692600160f81b90910490911690565b7f000000000000000000000000000000000000000000000000000000000000000081565b336001600160a01b037f00000000000000000000000000000000000000000000000000000000000000001614610a8657610a8661224e565b6000815111610a9157fe5b600181511180610ac75750306001600160a01b031681600081518110610ab357fe5b60200260200101516001600160a01b031614155b610acd57fe5b8051610ae0906011906020840190614fa1565b5080516001600160401b0381118015610af857600080fd5b50604051908082528060200260200182016040528015610b22578160200160208202803683370190505b508051610b3791601091602090910190614fa1565b50610b406122b6565b50565b7f00000000000000000000000000000000000000000000000000000000000000007f00000000000000000000000000000000000000000000000000000000000000007f0000000000000000000000000000000000000000000000000000000000000000909192565b6010546060906001148015610bc257506011546001145b8015610bf85750306001600160a01b03166011600081548110610be157fe5b6000918252602090912001546001600160a01b0316145b610c5c576011805480602002602001604051908101604052809291908181526020018280548015610c5257602002820191906000526020600020905b81546001600160a01b03168152600190910190602001808311610c34575b5050505050610c6c565b6040805160008152602081019091525b90505b90565b336001600160a01b037f00000000000000000000000000000000000000000000000000000000000000001614610caa57610caa61224e565b600054604080518082019091526016815275119514d3c8185b1c9958591e481858dd1a5d985d195960521b60208201529060ff1615610d675760405162461bcd60e51b81526004018080602001828103825283818151815260200191508051906020019080838360005b83811015610d2c578181015183820152602001610d14565b50505050905090810190601f168015610d595780820380516001836020036101000a031916815260200191505b509250505060405180910390fd5b5060408051808201909152601e81527f496e76616c69642070726963652065706f636820706172616d6574657273000060208201527f00000000000000000000000000000000000000000000000000000000000000008414610e0a5760405162461bcd60e51b8152602060048201818152835160248401528351909283926044909101919085019080838360008315610d2c578181015183820152602001610d14565b5060408051808201909152601e81527f496e76616c69642070726963652065706f636820706172616d6574657273000060208201527f00000000000000000000000000000000000000000000000000000000000000008314610ead5760405162461bcd60e51b8152602060048201818152835160248401528351909283926044909101919085019080838360008315610d2c578181015183820152602001610d14565b5060408051808201909152601e81527f496e76616c69642070726963652065706f636820706172616d6574657273000060208201527f00000000000000000000000000000000000000000000000000000000000000008214610f505760405162461bcd60e51b8152602060048201818152835160248401528351909283926044909101919085019080838360008315610d2c578181015183820152602001610d14565b50506000805460ff191660011790555050565b336001600160a01b037f00000000000000000000000000000000000000000000000000000000000000001614610f9b57610f9b61224e565b600054604080518082019091526016815275119514d3c8185b1c9958591e481858dd1a5d985d195960521b60208201529060ff161561101b5760405162461bcd60e51b8152602060048201818152835160248401528351909283926044909101919085019080838360008315610d2c578181015183820152602001610d14565b5061102582612492565b600280546001600160801b0319166001600160801b039290921691909117905561104e81612492565b600280546001600160801b03928316600160801b0292169190911790555050565b6060806000336001600160a01b037f000000000000000000000000000000000000000000000000000000000000000016146110ac576110ac61224e565b60006110b7866124da565b60018101805460ff60f01b191690556005810154909150600090156110ef578160050154612710836008015402816110eb57fe5b0490505b6001820154600160f81b900460ff168061110d575081600401548111155b15611180576001820154600160f81b900460ff1661116d57600482015460408051838152602081019290925242828201525188917fbece8aa526cdc5e528cdaa56c1d03edc19da51e41845aa146f64a7071f74c65a919081900360600190a25b61117987836000612614565b505061142a565b606080606061118e85612835565b91945092509050606061119f615002565b6111a985856129ca565b61012081015191935091507f000000000000000000000000000000000000000000000000000000000000000090611205906005908f907f0000000000000000000000000000000000000000000000000000000000000000612ce8565b1115611223576112178c886000612614565b5050505050505061142a565b60108701805460ff199081166001908117909255610120830151600f8a01819055600280546001600160801b0319166001600160801b03928316178216600160801b429384160217905560048054600160f81b6001600160f81b036001600160f01b0390941661010002610100600160f81b031992909516909517169290921716919091179055600e870154156113405761130f87600e0180548060200260200160405190810160405280929190818152602001828054801561130557602002820191906000526020600020905b8154815260200190600101908083116112f1575b5050505050612d74565b60038054426001600160801b03908116600160801b029381166001600160801b031990921691909117169190911790555b60008b156113785760006113538e612e98565b90506113628984838789612f58565b8251929e50909c509a501561137657600191505b505b6113848d838584611add565b8c7ffe8865c1fe85bbf124b9e0f16cccfeeb6f330454fd79475a31261c8fa250bc3089600f0154838561014001518661016001518d60100160009054906101000a900460ff16426040518087815260200186151581526020018581526020018481526020018360058111156113f557fe5b8152602001828152602001965050505050505060405180910390a2505050600190940180546001600160f81b03169055505050505b9250925092565b336001600160a01b037f000000000000000000000000000000000000000000000000000000000000000016146114695761146961224e565b6000611474826124da565b6001808201805460ff60f01b191690559091506114949083908390612614565b5050565b60006114a38261320e565b90505b919050565b60005460ff166114bd576114bd613293565b336001600160a01b037f000000000000000000000000000000000000000000000000000000000000000016146114f5576114f561224e565b6000805460ff19169055565b601054600090600114801561151857506011546001145b801561154e5750306001600160a01b0316601160008154811061153757fe5b6000918252602090912001546001600160a01b0316145b611559576000610c6c565b601060008154811061156757fe5b6000918252602090912001546001600160a01b0316905090565b7f000000000000000000000000000000000000000000000000000000000000000081565b60006115b0826132fd565b600f015492915050565b601181815481106115ca57600080fd5b6000918252602090912001546001600160a01b0316905081565b606080600080600080601080548060200260200160405190810160405280929190818152602001828054801561164357602002820191906000526020600020905b81546001600160a01b03168152600190910190602001808311611625575b50506007548451949a506001600160f01b031694506000939250506001600160401b0382119050801561167557600080fd5b5060405190808252806020026020018201604052801561169f578160200160208202803683370190505b509050600087516001600160401b03811180156116bb57600080fd5b506040519080825280602002602001820160405280156116e5578160200160208202803683370190505b50905060005b88518110156118745760006001600160a01b031689828151811061170b57fe5b60200260200101516001600160a01b031614156117295760006117ad565b88818151811061173557fe5b60200260200101516001600160a01b0316633e5aa26a856040518263ffffffff1660e01b81526004018082815260200191505060206040518083038186803b15801561178057600080fd5b505afa158015611794573d6000803e3d6000fd5b505050506040513d60208110156117aa57600080fd5b50515b8382815181106117b957fe5b602002602001018181525050601181815481106117d257fe5b9060005260206000200160009054906101000a90046001600160a01b03166001600160a01b031663eb91d37e6040518163ffffffff1660e01b8152600401604080518083038186803b15801561182757600080fd5b505afa15801561183b573d6000803e3d6000fd5b505050506040513d604081101561185157600080fd5b5051825183908390811061186157fe5b60209081029190910101526001016116eb565b50600061188460058a85856133c5565b905061189260058a8361356b565b97507f00000000000000000000000000000000000000000000000000000000000000006001600160a01b0316633e5aa26a856040518263ffffffff1660e01b81526004018082815260200191505060206040518083038186803b1580156118f857600080fd5b505afa15801561190c573d6000803e3d6000fd5b505050506040513d602081101561192257600080fd5b5051965061193360058a858461369f565b9550611940600587613767565b9450505050909192939495565b60018054604080516020600284861615610100026000190190941693909304601f810184900484028201840190925281815292918301828280156119d25780601f106119a7576101008083540402835291602001916119d2565b820191906000526020600020905b8154815290600101906020018083116119b557829003601f168201915b505050505081565b336001600160a01b037f00000000000000000000000000000000000000000000000000000000000000001614611a1257611a1261224e565b6000611a1d826124da565b6001808201805460ff60f01b1916905590915061149490839083906137bc565b7f000000000000000000000000000000000000000000000000000000000000000081565b6000610c6c4261320e565b6003546001600160801b0380821691600160801b9004169091565b60005460ff16611a9957611a99613293565b336001600160a01b037f00000000000000000000000000000000000000000000000000000000000000001614611ad157611ad161224e565b611add848484846138f7565b50505050565b600080611aef846132fd565b90506000611afd8285613b94565b905080611b0f57600092505050611b31565b600019016000908152600d90910160205260409020546001600160801b031690505b92915050565b7f000000000000000000000000000000000000000000000000000000000000000081565b60006114a382612e98565b601081815481106115ca57600080fd5b336001600160a01b037f00000000000000000000000000000000000000000000000000000000000000001614611bae57611bae61224e565b6040805160208101909152308152611bca906011906001614fa1565b5060408051602081019091526001600160a01b0382168152611bf0906010906001614fa1565b50806001600160a01b031663313ce5676040518163ffffffff1660e01b815260040160206040518083038186803b158015611c2a57600080fd5b505afa158015611c3e573d6000803e3d6000fd5b505050506040513d6020811015611c5457600080fd5b50516001600160a01b03909116600090815260066020526040902060ff909116600a0a9055565b600080611c86611a61565b905080611c97576000915050610c6f565b611ca360018203612e98565b91505090565b60008060008060008060606005600301546005600401546005800154600560060154600560070154600560080154600560090180805480602002602001604051908101604052809291908181526020018280548015611d3157602002820191906000526020600020905b81546001600160a01b03168152600190910190602001808311611d13575b50505050509050965096509650965096509650965090919293949596565b6000806000806000611d5f611a61565b9450611d6a85613bec565b93507f00000000000000000000000000000000000000000000000000000000000000008401925060006005817f00000000000000000000000000000000000000000000000000000000000000008881611dbf57fe5b0681526020810191909152604001600020600101549596949593946001600160f01b03851694600160f81b900460ff169350915050565b336001600160a01b037f00000000000000000000000000000000000000000000000000000000000000001614611e2e57611e2e61224e565b438110611e3a57600080fd5b600160f01b8110611e4a57600080fd5b600780546001600160f01b0319166001600160f01b0392909216919091179055565b6002546001600160801b0380821691600160801b9004169091565b7f000000000000000000000000000000000000000000000000000000000000000081565b336001600160a01b037f00000000000000000000000000000000000000000000000000000000000000001614611ee357611ee361224e565b6000611eed611a61565b905060006005817f00000000000000000000000000000000000000000000000000000000000000008481611f1d57fe5b0681526020810191909152604001600090812060108101805460ff1916905560088101829055600c81018290556007546001820180546001600160f01b039092166001600160f01b0319909216919091176001600160f81b0316600160f81b87151502179055600281018490559150611f9a90600e830190615063565b8215611fa7575050611494565b606080611fb2613c39565b6007549194509250612062915084908890611ff7907f0000000000000000000000000000000000000000000000000000000000000000906001600160f01b0316613e2f565b601080548060200260200160405190810160405280929190818152602001828054801561204d57602002820191906000526020600020905b81546001600160a01b0316815260019091019060200180831161202f575b5060059796959493508a925089915050613ec0565b837fc0eaa359541c7c642d9947c9496507c134f3e4f8e1fd433313eb27dc48cb1fb761208d86613bec565b604080519182524260208301528051918290030190a2505050505050565b60006120ed7f0000000000000000000000000000000000000000000000000000000000000000846120db856132fd565b600101546001600160f01b0316613f6f565b9392505050565b336001600160a01b037f0000000000000000000000000000000000000000000000000000000000000000161461212c5761212c61224e565b60088790556009869055600a859055600b849055600c839055600d829055600e5460005b818110156121ad5760006005600a0160006005600901848154811061217157fe5b6000918252602080832091909101546001600160a01b031683528201929092526040019020805460ff1916911515919091179055600101612150565b5050805160005b8181101561220b5760016005600a0160008584815181106121d157fe5b6020908102919091018101516001600160a01b03168252810191909152604001600020805460ff19169115159190911790556001016121b4565b50815161221f90600e906020850190614fa1565b505050505050505050565b7f000000000000000000000000000000000000000000000000000000000000000081565b604080518082018252600d81526c1058d8d95cdcc819195b9a5959609a1b6020808301918252925162461bcd60e51b81526004810193845282516024820152825192939283926044909201919080838360008315610d2c578181015183820152602001610d14565b60115460011480156122f25750306001600160a01b031660116000815481106122db57fe5b6000918252602090912001546001600160a01b0316145b156122fc57612490565b60005b601154811015610b405760006011828154811061231857fe5b6000918252602091829020015460408051635c222bad60e01b815290516001600160a01b0390921692635c222bad92600480840193829003018186803b15801561236157600080fd5b505afa158015612375573d6000803e3d6000fd5b505050506040513d602081101561238b57600080fd5b505160108054919250908390811061239f57fe5b6000918252602090912001546001600160a01b03828116911614156123c45750612488565b80601083815481106123d257fe5b600091825260209091200180546001600160a01b0319166001600160a01b0392831617905581161561248657806001600160a01b031663313ce5676040518163ffffffff1660e01b815260040160206040518083038186803b15801561243757600080fd5b505afa15801561244b573d6000803e3d6000fd5b505050506040513d602081101561246157600080fd5b50516001600160a01b038216600090815260066020526040902060ff909116600a0a90555b505b6001016122ff565b565b6000600160801b82106124d65760405162461bcd60e51b81526004018080602001828103825260278152602001806151656027913960400191505060405180910390fd5b5090565b60006124e582614012565b4210156040518060400160405280602081526020017f45706f6368206e6f7420726561647920666f722066696e616c697a6174696f6e8152509061256a5760405162461bcd60e51b8152602060048201818152835160248401528351909283926044909101919085019080838360008315610d2c578181015183820152602001610d14565b50612574826132fd565b90506000601082015460ff16600581111561258b57fe5b146040518060400160405280601781526020017f45706f636820616c72656164792066696e616c697a65640000000000000000008152509061260e5760405162461bcd60e51b8152602060048201818152835160248401528351909283926044909101919085019080838360008315610d2c578181015183820152602001610d14565b50919050565b600e820154156128255761267782600e0180548060200260200160405190810160405280929190818152602001828054801561130557602002820191906000526020600020908154815260200190600101908083116112f1575050505050612d74565b600f8301558061268857600261268b565b60045b60108301805460ff191660018360058111156126a357fe5b0217905550600f82015460028054426001600160801b03908116600160801b029381166001600160801b0319909216919091171691909117905560108201546004805460ff9092169160ff191660018360058111156126fe57fe5b021790555060048054610100600160f81b031916610100426001600160f01b03160217808255601084015460ff1691906001600160f81b0316600160f81b83600581111561274857fe5b0217905550600f82015460038054426001600160801b03908116600160801b029381166001600160801b0319909216919091171691909117905561278b83610b40565b827ffe8865c1fe85bbf124b9e0f16cccfeeb6f330454fd79475a31261c8fa250bc3083600f015460008060008760100160009054906101000a900460ff16426040518087815260200186151581526020018581526020018481526020018360058111156127f457fe5b8152602001828152602001965050505050505060405180910390a26001820180546001600160f81b03169055612830565b6128308383836137bc565b505050565b6060806060600084600c01549050806001600160401b038111801561285957600080fd5b50604051908082528060200260200182016040528015612883578160200160208202803683370190505b509350806001600160401b038111801561289c57600080fd5b506040519080825280602002602001820160405280156128c6578160200160208202803683370190505b5091506000816001600160401b03811180156128e157600080fd5b5060405190808252806020026020018201604052801561290b578160200160208202803683370190505b50905060005b828110156129b3576000818152600d880160205260409020805487516001600160801b039091169088908490811061294557fe5b602090810291909101015280548551600160801b9091046001600160401b03169086908490811061297257fe5b602090810291909101015280548351600160c01b9091046001600160401b03169084908490811061299f57fe5b602090810291909101015250600101612911565b506129bf868483614045565b935050509193909250565b60606129d4615002565b8351806001600160401b03811180156129ec57600080fd5b50604051908082528060200260200182016040528015612a16578160200160208202803683370190505b50925060005b81811015612a445780848281518110612a3157fe5b6020908102919091010152600101612a1c565b50612a5b6002600060018403600080888b8b61415c565b608085015260608401528083528351859185918110612a7657fe5b602002602001015181518110612a8857fe5b602090810291909101015160a0830181905260808301516060840151845192010190612ac1578251600060c08501526020840152612b15565b60048104836060015111612ae5578251606084015160c08501526020840152612b15565b612b0960016000600186600001510360008760a00151886080015101898c8c61415c565b5060c085015260208401525b825160001983011415612b3657825160006101008501526040840152612b8e565b60048104836080015111612b5b57825160808401516101008501526040840152612b8e565b612b8160038460000151600101600185038660a001518760600151016000898c8c61415c565b6101008601525060408401525b8584846000015181518110612b9f57fe5b602002602001015181518110612bb157fe5b6020908102919091010151610120840152600281048360a00151846060015101148015612bdf575060028106155b15612c0f576002612bf9846000015160018503878a614437565b8461012001510181612c0757fe5b046101208401525b612c29836020015160006000198660c00151888b8b6144f7565b60c085015260208401526040830151610100840151612c549190600019850190600190888b8b6144f7565b610100850152604084015260208301518451879186918110612c7257fe5b602002602001015181518110612c8457fe5b6020026020010151836101400181815250508584846040015181518110612ca757fe5b602002602001015181518110612cb957fe5b602090810291909101015161016084015261010083015160c08401519091030360e08301525090939092509050565b600083612cf757506000612d6c565b6000858184600019880181612d0857fe5b068152602001908152602001600020600f0154905080841415612d2f576000915050612d6c565b83612d425764e8d4a51000915050612d6c565b600084821115612d555750838103612d5a565b508084035b612d6781612710876145cb565b925050505b949350505050565b805160009080612d8057fe5b60015b81811015612e2c576000848281518110612d9957fe5b6020026020010151905060008290505b600081118015612dce575081866001830381518110612dc457fe5b6020026020010151115b15612e0a57856001820381518110612de257fe5b6020026020010151868281518110612df657fe5b602090810291909101015260001901612da9565b81868281518110612e1757fe5b60209081029190910101525050600101612d83565b506002810460018083161415612e5957838181518110612e4857fe5b6020026020010151925050506114a6565b6002848281518110612e6757fe5b6020026020010151856001840381518110612e7e57fe5b60200260200101510181612e8e57fe5b04925050506114a6565b60007f00000000000000000000000000000000000000000000000000000000000000006001600160a01b031663cd4b6914836040518263ffffffff1660e01b81526004018082815260200191505060206040518083038186803b158015612efe57600080fd5b505afa158015612f12573d6000803e3d6000fd5b505050506040513d6020811015612f2857600080fd5b50516040805160208082019390935230818301528151808203830181526060909101909152805191012092915050565b6020840151606090819060009081905b88604001518111613033576000878281518110612f8157fe5b602002602001015190506000878281518110612f9957fe5b60200260200101511115613029576000818152600d8c0160205260409020546101408b01516001600160801b0390911690811480612fe457508a6101600151816001600160801b0316145b801561301557506000828152600d8d016020526040902060010154613013908b906001600160a01b03166146d7565b155b1561302157505061302b565b506001909201915b505b600101612f68565b50806001600160401b038111801561304a57600080fd5b50604051908082528060200260200182016040528015613074578160200160208202803683370190505b509350806001600160401b038111801561308d57600080fd5b506040519080825280602002602001820160405280156130b7578160200160208202803683370190505b5060208901519093506000905b896040015181116132005760008882815181106130dd57fe5b6020026020010151905060008882815181106130f557fe5b6020026020010151905060008111156131f5576000828152600d8e0160205260409020546101408d01516001600160801b039091169081148061314557508c6101600151816001600160801b0316145b801561317657506000838152600d8f016020526040902060010154613174908d906001600160a01b03166146d7565b155b15613183575050506131f8565b6000838152600d8f01602052604090206001015489516001600160a01b03909116908a90879081106131b157fe5b60200260200101906001600160a01b031690816001600160a01b031681525050818886815181106131de57fe5b602090810291909101015250948501946001909301925b50505b6001016130c4565b505050955095509592505050565b60007f0000000000000000000000000000000000000000000000000000000000000000821015613240575060006114a6565b7f00000000000000000000000000000000000000000000000000000000000000007f000000000000000000000000000000000000000000000000000000000000000083038161328b57fe5b0490506114a6565b604080518082018252600f81526e4654534f206e6f742061637469766560881b6020808301918252925162461bcd60e51b81526004810193845282516024820152825192939283926044909201919080838360008315610d2c578181015183820152602001610d14565b60006005817f0000000000000000000000000000000000000000000000000000000000000000848161332b57fe5b0681526020019081526020016000209050806002015482146040518060400160405280601881526020017f45706f63682064617461206e6f7420617661696c61626c6500000000000000008152509061260e5760405162461bcd60e51b8152602060048201818152835160248401528351909283926044909101919085019080838360008315610d2c578181015183820152602001610d14565b82516060906000816001600160401b03811180156133e257600080fd5b5060405190808252806020026020018201604052801561340c578160200160208202803683370190505b5090506000805b838110156134f55760006001600160a01b031688828151811061343257fe5b60200260200101516001600160a01b0316141561344e576134ed565b60006134c587838151811061345f57fe5b60200260200101518b60010160008c868151811061347957fe5b60200260200101516001600160a01b03166001600160a01b03168152602001908152602001600020548a85815181106134ae57fe5b60200260200101516145cb9092919063ffffffff16565b9050808483815181106134d457fe5b60209081029190910101526134e98382614712565b9250505b600101613413565b5080156135605760005b8381101561355e5761353f61353261271088848151811061351c57fe5b602002602001015161476c90919063ffffffff16565b838584815181106134ae57fe5b83828151811061354b57fe5b60209081029190910101526001016134ff565b505b509695505050505050565b8151606090806001600160401b038111801561358657600080fd5b506040519080825280602002602001820160405280156135b0578160200160208202803683370190505b50915060005b818110156136965760006001600160a01b03168582815181106135d557fe5b60200260200101516001600160a01b0316146136735760008660010160008784815181106135ff57fe5b60200260200101516001600160a01b03166001600160a01b0316815260200190815260200160002054905061365561271064e8d4a510008161363d57fe5b04670de0b6b3a764000002828785815181106134ae57fe5b84838151811061366157fe5b6020026020010181815250505061368e565b600083828151811061368157fe5b6020026020010181815250505b6001016135b6565b50509392505050565b600080805b855181101561375d5760006001600160a01b03168682815181106136c457fe5b60200260200101516001600160a01b03161461375557600061271061373d8784815181106136ee57fe5b60200260200101518a60010160008b878151811061370857fe5b60200260200101516001600160a01b03166001600160a01b03168152602001908152602001600020548886815181106134ae57fe5b8161374457fe5b0490506137518382614712565b9250505b6001016136a4565b5095945050505050565b600080836005015483101561377e575060006120ed565b8360060154831061379257506113886120ed565b600584015460068501546101f4919081900390850361119402816137b257fe5b0401949350505050565b82156137d8576002546001600160801b0316600f8301556137e0565b6000600f8301555b806137ec5760036137ef565b60055b60108301805460ff1916600183600581111561380757fe5b021790555060048054610100600160f81b031916610100426001600160f01b03160217808255601084015460ff1691906001600160f81b0316600160f81b83600581111561385157fe5b021790555061385f83610b40565b827ffe8865c1fe85bbf124b9e0f16cccfeeb6f330454fd79475a31261c8fa250bc3083600f015460008060008760100160009054906101000a900460ff16426040518087815260200186151581526020018581526020018481526020018360058111156138c857fe5b8152602001828152602001965050505050505060405180910390a25060010180546001600160f81b0316905550565b60408051808201909152600e81526d0a0e4d2c6ca40e8dede40d0d2ced60931b6020820152600160801b831061396e5760405162461bcd60e51b8152602060048201818152835160248401528351909283926044909101919085019080838360008315610d2c578181015183820152602001610d14565b50613978836147c5565b6040518060400160405280601881526020017f52657665616c20706572696f64206e6f74206163746976650000000000000000815250906139fa5760405162461bcd60e51b8152602060048201818152835160248401528351909283926044909101919085019080838360008315610d2c578181015183820152602001610d14565b5060006005817f00000000000000000000000000000000000000000000000000000000000000008681613a2957fe5b0681526020810191909152604001600020600181015490915060ff600160f81b8204811691600160f01b8104909116906001600160f01b03168180613a8e5750828015613a8e57506001600160a01b0388166000908152600f602052604090205460ff165b6040518060400160405280602081526020017f45706f6368206e6f7420696e697469616c697a656420666f722072657665616c81525090613b105760405162461bcd60e51b8152602060048201818152835160248401528351909283926044909101919085019080838360008315610d2c578181015183820152602001610d14565b50600080613b21868b898887614808565b9092509050613b356005878c85858d614868565b604080518981524260208201528082018490526060810183905290518a916001600160a01b038d16917fc1b1d37612887c207efe8cb44f4069b7f10c45edaf6e8405648a94e02b6e9ec79181900360800190a350505050505050505050565b600c820154600090815b81811015613be1576000818152600d860160205260409020600101546001600160a01b0385811691161415613bd9576001019150611b319050565b600101613b9e565b506000949350505050565b7f0000000000000000000000000000000000000000000000000000000000000000600182017f00000000000000000000000000000000000000000000000000000000000000000201919050565b6060806060613c466122b6565b6010805480602002602001604051908101604052809291908181526020018280548015613c9c57602002820191906000526020600020905b81546001600160a01b03168152600190910190602001808311613c7e575b5050505050925082516001600160401b0381118015613cba57600080fd5b50604051908082528060200260200182016040528015613ce4578160200160208202803683370190505b50915082516001600160401b0381118015613cfe57600080fd5b50604051908082528060200260200182016040528015613d28578160200160208202803683370190505b50905060005b8351811015613e2957613d62848281518110613d4657fe5b60209081029190910101516007546001600160f01b0316613e2f565b838281518110613d6e57fe5b60200260200101818152505060118181548110613d8757fe5b9060005260206000200160009054906101000a90046001600160a01b03166001600160a01b031663eb91d37e6040518163ffffffff1660e01b8152600401604080518083038186803b158015613ddc57600080fd5b505afa158015613df0573d6000803e3d6000fd5b505050506040513d6040811015613e0657600080fd5b50518251839083908110613e1657fe5b6020908102919091010152600101613d2e565b50909192565b60006001600160a01b038316613e4757506000611b31565b826001600160a01b031663caeb942b836040518263ffffffff1660e01b815260040180828152602001915050602060405180830381600087803b158015613e8d57600080fd5b505af1158015613ea1573d6000803e3d6000fd5b505050506040513d6020811015613eb757600080fd5b50519050611b31565b613ecd87878585856149b8565b6007870154600380880191909155600888015460048801556005870186905560068701859055870154613f08908581613f0257fe5b04612492565b86546001600160801b0319166001600160801b039190911617865560048701546007870154613f39919081613f0257fe5b86546001600160801b03918216600160801b0291161786555050506001909201805460ff60f01b1916600160f01b179055505050565b60006001600160a01b038416613f87575060006120ed565b836001600160a01b031663e587497e84846040518363ffffffff1660e01b815260040180836001600160a01b0316815260200182815260200192505050602060405180830381600087803b158015613fde57600080fd5b505af1158015613ff2573d6000803e3d6000fd5b505050506040513d602081101561400857600080fd5b5051949350505050565b60007f000000000000000000000000000000000000000000000000000000000000000061403e83613bec565b0192915050565b600c830154606090806001600160401b038111801561406357600080fd5b5060405190808252806020026020018201604052801561408d578160200160208202803683370190505b509150600061409b85614a21565b905060006140a885614a21565b90506000806140b8898585614a66565b905083156140c857806127100391505b60005b8581101561414f57600083156141115761410e8a83815181106140ea57fe5b602002602001015164e8d4a51000026127108802866145cb9092919063ffffffff16565b90505b6000831561412b576141288a84815181106140ea57fe5b90505b80820189848151811061413a57fe5b602090810291909101015250506001016140cb565b5050505050509392505050565b6000806000888a1415614176575088915086905085614429565b61417e615081565b888152602081018890526141906150be565b60208082018d905260408083018d90528051448184015242818301528151808203830181526060909101909152805191012060005b602083015160408401516141f791908160018183030186816141e357fe5b0601876000015188602001518f8f8f614acd565b606087015260408601528084528a518b9190811061421157fe5b60200260200101518360600181815250508783606001518151811061423257fe5b6020026020010151846080018181525050836060015184604001518560800151010190508e6002141561430d5760028106600282040160a0850181905280820360c086015260408501511080159061428d57508b8460a00151115b156142b257825160001901604084015260608401516080850151016020850152614308565b8360c0015184606001511180156142cc57508a8460c00151115b156142ed578251600101602084015260408401516080850151018452614308565b50505160408201516060909201519094509092509050614429565b614424565b8e6001141561439e576004810460a0850181905280820360c0860152604085015111801561433e57508b8460a00151115b1561436357825160001901604084015260608401516080850151016020850152614308565b8360c001518460600151101580156142cc57508a8460c0015111156142ed578251600101602084015260408401516080850151018452614308565b6004810460c08501819052810360a085018190526040850151108015906143c857508b8460a00151115b156143ed57825160001901604084015260608401516080850151016020850152614424565b8360c00151846060015111801561440757508a8460c00151115b156142ed5782516001016020840152604084015160808501510184525b6141c5565b985098509895505050505050565b60008385141561446f578183868151811061444e57fe5b60200260200101518151811061446057fe5b60200260200101519050612d6c565b60008284876001018151811061448157fe5b60200260200101518151811061449357fe5b602002602001015190506000808760020190505b8681116144eb57848682815181106144bb57fe5b6020026020010151815181106144cd57fe5b60200260200101519150828210156144e3578192505b6001016144a7565b50909695505050505050565b60008085888a038802821361451257898792509250506145bf565b600085878c8151811061452157fe5b60200260200101518151811061453357fe5b602090810291909101015190508a89016000815b60008c8e830302136145b35789818151811061455f57fe5b602002602001015191508389838151811061457657fe5b602002602001015114156145ac5787828151811061459057fe5b6020026020010151850394506145a783828c614c96565b918b01915b8b01614547565b50508990039350909150505b97509795505050505050565b6000808211614614576040805162461bcd60e51b815260206004820152601060248201526f4469766973696f6e206279207a65726f60801b604482015290519081900360640190fd5b83614621575060006120ed565b8383028385828161462e57fe5b0414156146475782818161463e57fe5b049150506120ed565b600083868161465257fe5b049050600084878161466057fe5b069050600085878161466e57fe5b049050600086888161467c57fe5b0690506146ca61469688614690868561476c565b90614cfe565b6146c46146a3868661476c565b6146c46146b0898761476c565b6146c48d6146be8c8b61476c565b9061476c565b90614712565b9998505050505050505050565b604080516020808201949094526001600160a01b03929092168282015280518083038201815260609092019052805191012060019081161490565b6000828201838110156120ed576040805162461bcd60e51b815260206004820152601b60248201527f536166654d6174683a206164646974696f6e206f766572666c6f770000000000604482015290519081900360640190fd5b60008261477b57506000611b31565b8282028284828161478857fe5b04146120ed5760405162461bcd60e51b815260040180806020018281038252602181526020018061518c6021913960400191505060405180910390fd5b6000806147d183613bec565b90504281111580156120ed57507f000000000000000000000000000000000000000000000000000000000000000001421092915050565b600080831561481c5750600090508061485e565b84915061482a878785614d65565b87549091506001600160801b0380821691600160801b9004168184111561484f578193505b8083111561485b578092505b50505b9550959350505050565b600085600c0154905060006148898686868a600601548b6007015488614e23565b63ffffffff838116608083019081526000858152600d8b0160209081526040918290208551815492870151938701516001600160801b03199093166001600160801b039091161767ffffffffffffffff60801b1916600160801b6001600160401b0394851602176001600160c01b0316600160c01b939092169290920217815560608401516001918201805493516001600160a01b03199094166001600160a01b039092169190911763ffffffff60a01b1916600160a01b93851693909302929092179091558401600c8a0155600889015491925061496b9190879061471216565b60088801556001600160a01b0386166000908152600a8901602052604090205460ff16156149ae57600e8701805460018101825560009182526020909120018390555b5050505050505050565b82516149cd90600a8601906020860190614fa1565b506149da858484846133c5565b80516149f091600b8701916020909101906150e6565b5060006149fe868685614e80565b600786018190559050614a118682613767565b8560090181905550505050505050565b600080805b8351811015614a5f57614a55848281518110614a3e57fe5b60200260200101518361471290919063ffffffff16565b9150600101614a26565b5092915050565b600081614a75575060006120ed565b82614a8357506127106120ed565b6000614a978361271064e8d4a510006145cb565b905084600301548110614ab057505060098301546120ed565b60038501546009860154614ac59183906145cb565b9150506120ed565b60008060008085878b81518110614ae057fe5b602002602001015181518110614af257fe5b60200260200101519050600060026001600160401b0381118015614b1557600080fd5b50604051908082528060200260200182016040528015614b3f578160200160208202803683370190505b5090508981600081518110614b5057fe5b6020026020010181815250508881600181518110614b6a57fe5b60209081029190910101528c8c614b828d828c614c96565b81805b82811015614c465760008c8281518110614b9b57fe5b60200260200101519050868c8281518110614bb257fe5b60200260200101511015614c09578a8181518110614bcc57fe5b602002602001015186600081518110614be157fe5b602002602001018181510191508181525050614bfe83838f614c96565b600190920191614c3d565b8a8181518110614c1557fe5b602002602001015186600181518110614c2a57fe5b6020026020010181815101915081815250505b50600101614b85565b50614c5282828d614c96565b8084600081518110614c6057fe5b602002602001015185600181518110614c7557fe5b60200260200101519750975097505050505050985098509895505050505050565b81831415614ca357612830565b808281518110614caf57fe5b6020026020010151818481518110614cc357fe5b6020026020010151828581518110614cd757fe5b60200260200101838581518110614cea57fe5b602090810291909101019190915252505050565b6000808211614d54576040805162461bcd60e51b815260206004820152601a60248201527f536166654d6174683a206469766973696f6e206279207a65726f000000000000604482015290519081900360640190fd5b818381614d5d57fe5b049392505050565b600a83015460009081906001600160401b0381118015614d8457600080fd5b50604051908082528060200260200182016040528015614dae578160200160208202803683370190505b50905060005b600a860154811015614e0d57614dee86600a018281548110614dd257fe5b6000918252602090912001546001600160a01b03168686613f6f565b828281518110614dfa57fe5b6020908102919091010152600101614db4565b50614e1a60058683614e80565b95945050505050565b614e2b615121565b6001600160a01b0387166060820152614e448685614f70565b6001600160401b03166020820152614e5c8584614f70565b6001600160401b031660408201526001600160801b03909116815295945050505050565b600080805b600a850154811015614f675760006001600160a01b031685600a018281548110614eab57fe5b6000918252602090912001546001600160a01b03161415614ecb57614f5f565b614f5c612710614f4c868481518110614ee057fe5b60200260200101518960010160008a600a018781548110614efd57fe5b60009182526020808320909101546001600160a01b03168352820192909252604001902054600b8a01805487908110614f3257fe5b90600052602060002001546145cb9092919063ffffffff16565b81614f5357fe5b84919004614712565b91505b600101614e85565b50949350505050565b6000811580614f7d575082155b15614f8a57506000611b31565b614f9a8364e8d4a51000846145cb565b9050611b31565b828054828255906000526020600020908101928215614ff6579160200282015b82811115614ff657825182546001600160a01b0319166001600160a01b03909116178255602090920191600190910190614fc1565b506124d692915061514f565b6040518061018001604052806000815260200160008152602001600081526020016000815260200160008152602001600081526020016000815260200160008152602001600081526020016000815260200160008152602001600081525090565b5080546000825590600052602060002090810190610b40919061514f565b6040518060e00160405280600081526020016000815260200160008152602001600081526020016000815260200160008152602001600081525090565b6040518060800160405280600081526020016000815260200160008152602001600081525090565b828054828255906000526020600020908101928215614ff6579160200282015b82811115614ff6578251825591602001919060010190615106565b6040805160a08101825260008082526020820181905291810182905260608101829052608081019190915290565b5b808211156124d6576000815560010161515056fe53616665436173743a2076616c756520646f65736e27742066697420696e203132382062697473536166654d6174683a206d756c7469706c69636174696f6e206f766572666c6f77a26469706673582212204e2843ff0bc9d3845ae49fab85ac09804968727896f12d58a62d75806c6f6ad864736f6c63430007060033",
  "linkReferences": {},
  "deployedLinkReferences": {}
}