{
  "_format": "hh-sol-artifact-1",
  "contractName": "DummyVPToken",
  "sourceName": "contracts/token/mock/DummyVPToken.sol",
  "abi": [
    {
      "inputs": [
        {
          "internalType": "string",
          "name": "name_",
          "type": "string"
        },
        {
          "internalType": "string",
          "name": "symbol_",
          "type": "string"
        }
      ],
      "stateMutability": "nonpayable",
      "type": "constructor"
    },
    {
      "anonymous": false,
      "inputs": [
        {
          "indexed": true,
          "internalType": "address",
          "name": "owner",
          "type": "address"
        },
        {
          "indexed": true,
          "internalType": "address",
          "name": "spender",
          "type": "address"
        },
        {
          "indexed": false,
          "internalType": "uint256",
          "name": "value",
          "type": "uint256"
        }
      ],
      "name": "Approval",
      "type": "event"
    },
    {
      "anonymous": false,
      "inputs": [
        {
          "indexed": true,
          "internalType": "address",
          "name": "from",
          "type": "address"
        },
        {
          "indexed": true,
          "internalType": "address",
          "name": "to",
          "type": "address"
        },
        {
          "indexed": false,
          "internalType": "uint256",
          "name": "value",
          "type": "uint256"
        }
      ],
      "name": "Transfer",
      "type": "event"
    },
    {
      "inputs": [],
      "name": "MINTAMOUNT",
      "outputs": [
        {
          "internalType": "uint256",
          "name": "",
          "type": "uint256"
        }
      ],
      "stateMutability": "view",
      "type": "function"
    },
    {
      "inputs": [
        {
          "internalType": "address",
          "name": "owner",
          "type": "address"
        },
        {
          "internalType": "address",
          "name": "spender",
          "type": "address"
        }
      ],
      "name": "allowance",
      "outputs": [
        {
          "internalType": "uint256",
          "name": "",
          "type": "uint256"
        }
      ],
      "stateMutability": "view",
      "type": "function"
    },
    {
      "inputs": [
        {
          "internalType": "address",
          "name": "spender",
          "type": "address"
        },
        {
          "internalType": "uint256",
          "name": "amount",
          "type": "uint256"
        }
      ],
      "name": "approve",
      "outputs": [
        {
          "internalType": "bool",
          "name": "",
          "type": "bool"
        }
      ],
      "stateMutability": "nonpayable",
      "type": "function"
    },
    {
      "inputs": [
        {
          "internalType": "address",
          "name": "account",
          "type": "address"
        }
      ],
      "name": "balanceOf",
      "outputs": [
        {
          "internalType": "uint256",
          "name": "",
          "type": "uint256"
        }
      ],
      "stateMutability": "view",
      "type": "function"
    },
    {
      "inputs": [
        {
          "internalType": "address",
          "name": "_owner",
          "type": "address"
        },
        {
          "internalType": "uint256",
          "name": "_blockNumber",
          "type": "uint256"
        }
      ],
      "name": "balanceOfAt",
      "outputs": [
        {
          "internalType": "uint256",
          "name": "",
          "type": "uint256"
        }
      ],
      "stateMutability": "view",
      "type": "function"
    },
    {
      "inputs": [
        {
          "internalType": "address[]",
          "name": "_owners",
          "type": "address[]"
        },
        {
          "internalType": "uint256",
          "name": "_blockNumber",
          "type": "uint256"
        }
      ],
      "name": "batchVotePowerOfAt",
      "outputs": [
        {
          "internalType": "uint256[]",
          "name": "",
          "type": "uint256[]"
        }
      ],
      "stateMutability": "view",
      "type": "function"
    },
    {
      "inputs": [],
      "name": "cleanupBlockNumber",
      "outputs": [
        {
          "internalType": "uint256",
          "name": "",
          "type": "uint256"
        }
      ],
      "stateMutability": "view",
      "type": "function"
    },
    {
      "inputs": [],
      "name": "decimals",
      "outputs": [
        {
          "internalType": "uint8",
          "name": "",
          "type": "uint8"
        }
      ],
      "stateMutability": "view",
      "type": "function"
    },
    {
      "inputs": [
        {
          "internalType": "address",
          "name": "spender",
          "type": "address"
        },
        {
          "internalType": "uint256",
          "name": "subtractedValue",
          "type": "uint256"
        }
      ],
      "name": "decreaseAllowance",
      "outputs": [
        {
          "internalType": "bool",
          "name": "",
          "type": "bool"
        }
      ],
      "stateMutability": "nonpayable",
      "type": "function"
    },
    {
      "inputs": [
        {
          "internalType": "address",
          "name": "_to",
          "type": "address"
        },
        {
          "internalType": "uint256",
          "name": "_bips",
          "type": "uint256"
        }
      ],
      "name": "delegate",
      "outputs": [],
      "stateMutability": "nonpayable",
      "type": "function"
    },
    {
      "inputs": [
        {
          "internalType": "address",
          "name": "_to",
          "type": "address"
        },
        {
          "internalType": "uint256",
          "name": "_amount",
          "type": "uint256"
        }
      ],
      "name": "delegateExplicit",
      "outputs": [],
      "stateMutability": "nonpayable",
      "type": "function"
    },
    {
      "inputs": [
        {
          "internalType": "address",
          "name": "_owner",
          "type": "address"
        }
      ],
      "name": "delegatesOf",
      "outputs": [
        {
          "internalType": "address[]",
          "name": "_delegateAddresses",
          "type": "address[]"
        },
        {
          "internalType": "uint256[]",
          "name": "_bips",
          "type": "uint256[]"
        },
        {
          "internalType": "uint256",
          "name": "_count",
          "type": "uint256"
        },
        {
          "internalType": "uint256",
          "name": "_delegationMode",
          "type": "uint256"
        }
      ],
      "stateMutability": "view",
      "type": "function"
    },
    {
      "inputs": [
        {
          "internalType": "address",
          "name": "_owner",
          "type": "address"
        },
        {
          "internalType": "uint256",
          "name": "_blockNumber",
          "type": "uint256"
        }
      ],
      "name": "delegatesOfAt",
      "outputs": [
        {
          "internalType": "address[]",
          "name": "_delegateAddresses",
          "type": "address[]"
        },
        {
          "internalType": "uint256[]",
          "name": "_bips",
          "type": "uint256[]"
        },
        {
          "internalType": "uint256",
          "name": "_count",
          "type": "uint256"
        },
        {
          "internalType": "uint256",
          "name": "_delegationMode",
          "type": "uint256"
        }
      ],
      "stateMutability": "view",
      "type": "function"
    },
    {
      "inputs": [
        {
          "internalType": "address",
          "name": "_who",
          "type": "address"
        }
      ],
      "name": "delegationModeOf",
      "outputs": [
        {
          "internalType": "uint256",
          "name": "_delegationMode",
          "type": "uint256"
        }
      ],
      "stateMutability": "view",
      "type": "function"
    },
    {
      "inputs": [],
      "name": "governanceVotePower",
      "outputs": [
        {
          "internalType": "contract IGovernanceVotePower",
          "name": "",
          "type": "address"
        }
      ],
      "stateMutability": "view",
      "type": "function"
    },
    {
      "inputs": [
        {
          "internalType": "address",
          "name": "spender",
          "type": "address"
        },
        {
          "internalType": "uint256",
          "name": "addedValue",
          "type": "uint256"
        }
      ],
      "name": "increaseAllowance",
      "outputs": [
        {
          "internalType": "bool",
          "name": "",
          "type": "bool"
        }
      ],
      "stateMutability": "nonpayable",
      "type": "function"
    },
    {
      "inputs": [],
      "name": "name",
      "outputs": [
        {
          "internalType": "string",
          "name": "",
          "type": "string"
        }
      ],
      "stateMutability": "view",
      "type": "function"
    },
    {
      "inputs": [],
      "name": "readVotePowerContract",
      "outputs": [
        {
          "internalType": "contract IVPContractEvents",
          "name": "",
          "type": "address"
        }
      ],
      "stateMutability": "view",
      "type": "function"
    },
    {
      "inputs": [
        {
          "internalType": "address",
          "name": "_who",
          "type": "address"
        },
        {
          "internalType": "uint256",
          "name": "_blockNumber",
          "type": "uint256"
        }
      ],
      "name": "revokeDelegationAt",
      "outputs": [],
      "stateMutability": "nonpayable",
      "type": "function"
    },
    {
      "inputs": [
        {
          "internalType": "address",
          "name": "_cleanerContract",
          "type": "address"
        }
      ],
      "name": "setCleanerContract",
      "outputs": [],
      "stateMutability": "nonpayable",
      "type": "function"
    },
    {
      "inputs": [
        {
          "internalType": "uint256",
          "name": "_blockNumber",
          "type": "uint256"
        }
      ],
      "name": "setCleanupBlockNumber",
      "outputs": [],
      "stateMutability": "nonpayable",
      "type": "function"
    },
    {
      "inputs": [
        {
          "internalType": "address",
          "name": "_cleanupBlockNumberManager",
          "type": "address"
        }
      ],
      "name": "setCleanupBlockNumberManager",
      "outputs": [],
      "stateMutability": "nonpayable",
      "type": "function"
    },
    {
      "inputs": [
        {
          "internalType": "contract IIGovernanceVotePower",
          "name": "_governanceVotePower",
          "type": "address"
        }
      ],
      "name": "setGovernanceVotePower",
      "outputs": [],
      "stateMutability": "nonpayable",
      "type": "function"
    },
    {
      "inputs": [],
      "name": "symbol",
      "outputs": [
        {
          "internalType": "string",
          "name": "",
          "type": "string"
        }
      ],
      "stateMutability": "view",
      "type": "function"
    },
    {
      "inputs": [],
      "name": "totalSupply",
      "outputs": [
        {
          "internalType": "uint256",
          "name": "",
          "type": "uint256"
        }
      ],
      "stateMutability": "view",
      "type": "function"
    },
    {
      "inputs": [
        {
          "internalType": "uint256",
          "name": "_blockNumber",
          "type": "uint256"
        }
      ],
      "name": "totalSupplyAt",
      "outputs": [
        {
          "internalType": "uint256",
          "name": "",
          "type": "uint256"
        }
      ],
      "stateMutability": "view",
      "type": "function"
    },
    {
      "inputs": [],
      "name": "totalVotePower",
      "outputs": [
        {
          "internalType": "uint256",
          "name": "",
          "type": "uint256"
        }
      ],
      "stateMutability": "view",
      "type": "function"
    },
    {
      "inputs": [
        {
          "internalType": "uint256",
          "name": "_blockNumber",
          "type": "uint256"
        }
      ],
      "name": "totalVotePowerAt",
      "outputs": [
        {
          "internalType": "uint256",
          "name": "",
          "type": "uint256"
        }
      ],
      "stateMutability": "view",
      "type": "function"
    },
    {
      "inputs": [
        {
          "internalType": "uint256",
          "name": "_blockNumber",
          "type": "uint256"
        }
      ],
      "name": "totalVotePowerAtCached",
      "outputs": [
        {
          "internalType": "uint256",
          "name": "",
          "type": "uint256"
        }
      ],
      "stateMutability": "nonpayable",
      "type": "function"
    },
    {
      "inputs": [
        {
          "internalType": "address",
          "name": "recipient",
          "type": "address"
        },
        {
          "internalType": "uint256",
          "name": "amount",
          "type": "uint256"
        }
      ],
      "name": "transfer",
      "outputs": [
        {
          "internalType": "bool",
          "name": "",
          "type": "bool"
        }
      ],
      "stateMutability": "nonpayable",
      "type": "function"
    },
    {
      "inputs": [
        {
          "internalType": "address",
          "name": "sender",
          "type": "address"
        },
        {
          "internalType": "address",
          "name": "recipient",
          "type": "address"
        },
        {
          "internalType": "uint256",
          "name": "amount",
          "type": "uint256"
        }
      ],
      "name": "transferFrom",
      "outputs": [
        {
          "internalType": "bool",
          "name": "",
          "type": "bool"
        }
      ],
      "stateMutability": "nonpayable",
      "type": "function"
    },
    {
      "inputs": [],
      "name": "undelegateAll",
      "outputs": [],
      "stateMutability": "nonpayable",
      "type": "function"
    },
    {
      "inputs": [
        {
          "internalType": "address[]",
          "name": "_delegateAddresses",
          "type": "address[]"
        }
      ],
      "name": "undelegateAllExplicit",
      "outputs": [
        {
          "internalType": "uint256",
          "name": "",
          "type": "uint256"
        }
      ],
      "stateMutability": "nonpayable",
      "type": "function"
    },
    {
      "inputs": [
        {
          "internalType": "address",
          "name": "_owner",
          "type": "address"
        }
      ],
      "name": "undelegatedVotePowerOf",
      "outputs": [
        {
          "internalType": "uint256",
          "name": "",
          "type": "uint256"
        }
      ],
      "stateMutability": "view",
      "type": "function"
    },
    {
      "inputs": [
        {
          "internalType": "address",
          "name": "_owner",
          "type": "address"
        },
        {
          "internalType": "uint256",
          "name": "_blockNumber",
          "type": "uint256"
        }
      ],
      "name": "undelegatedVotePowerOfAt",
      "outputs": [
        {
          "internalType": "uint256",
          "name": "",
          "type": "uint256"
        }
      ],
      "stateMutability": "view",
      "type": "function"
    },
    {
      "inputs": [
        {
          "internalType": "address",
          "name": "_from",
          "type": "address"
        },
        {
          "internalType": "address",
          "name": "_to",
          "type": "address"
        }
      ],
      "name": "votePowerFromTo",
      "outputs": [
        {
          "internalType": "uint256",
          "name": "",
          "type": "uint256"
        }
      ],
      "stateMutability": "view",
      "type": "function"
    },
    {
      "inputs": [
        {
          "internalType": "address",
          "name": "_from",
          "type": "address"
        },
        {
          "internalType": "address",
          "name": "_to",
          "type": "address"
        },
        {
          "internalType": "uint256",
          "name": "_blockNumber",
          "type": "uint256"
        }
      ],
      "name": "votePowerFromToAt",
      "outputs": [
        {
          "internalType": "uint256",
          "name": "",
          "type": "uint256"
        }
      ],
      "stateMutability": "view",
      "type": "function"
    },
    {
      "inputs": [
        {
          "internalType": "address",
          "name": "_who",
          "type": "address"
        }
      ],
      "name": "votePowerOf",
      "outputs": [
        {
          "internalType": "uint256",
          "name": "",
          "type": "uint256"
        }
      ],
      "stateMutability": "view",
      "type": "function"
    },
    {
      "inputs": [
        {
          "internalType": "address",
          "name": "_who",
          "type": "address"
        },
        {
          "internalType": "uint256",
          "name": "_blockNumber",
          "type": "uint256"
        }
      ],
      "name": "votePowerOfAt",
      "outputs": [
        {
          "internalType": "uint256",
          "name": "",
          "type": "uint256"
        }
      ],
      "stateMutability": "view",
      "type": "function"
    },
    {
      "inputs": [
        {
          "internalType": "address",
          "name": "_owner",
          "type": "address"
        },
        {
          "internalType": "uint256",
          "name": "_blockNumber",
          "type": "uint256"
        }
      ],
      "name": "votePowerOfAtCached",
      "outputs": [
        {
          "internalType": "uint256",
          "name": "",
          "type": "uint256"
        }
      ],
      "stateMutability": "nonpayable",
      "type": "function"
    },
    {
      "inputs": [
        {
          "internalType": "address",
          "name": "who",
          "type": "address"
        },
        {
          "internalType": "uint256",
          "name": "blockNumber",
          "type": "uint256"
        }
      ],
      "name": "votePowerOfAtIgnoringRevocation",
      "outputs": [
        {
          "internalType": "uint256",
          "name": "",
          "type": "uint256"
        }
      ],
      "stateMutability": "view",
      "type": "function"
    },
    {
      "inputs": [],
      "name": "writeVotePowerContract",
      "outputs": [
        {
          "internalType": "contract IVPContractEvents",
          "name": "",
          "type": "address"
        }
      ],
      "stateMutability": "view",
      "type": "function"
    }
  ],
  "bytecode": "0x60806040523480156200001157600080fd5b506040516200151c3803806200151c833981810160405260408110156200003757600080fd5b81019080805160405193929190846401000000008211156200005857600080fd5b9083019060208201858111156200006e57600080fd5b82516401000000008111828201881017156200008957600080fd5b82525081516020918201929091019080838360005b83811015620000b85781810151838201526020016200009e565b50505050905090810190601f168015620000e65780820380516001836020036101000a031916815260200191505b50604052602001805160405193929190846401000000008211156200010a57600080fd5b9083019060208201858111156200012057600080fd5b82516401000000008111828201881017156200013b57600080fd5b82525081516020918201929091019080838360005b838110156200016a57818101518382015260200162000150565b50505050905090810190601f168015620001985780820380516001836020036101000a031916815260200191505b50604052505082518391508290620001b890600390602085019062000371565b508051620001ce90600490602084019062000371565b50506005805460ff1916601217905550620001f3336825f273933db5700000620001fb565b50506200041d565b6001600160a01b03821662000257576040805162461bcd60e51b815260206004820152601f60248201527f45524332303a206d696e7420746f20746865207a65726f206164647265737300604482015290519081900360640190fd5b62000265600083836200030a565b62000281816002546200030f60201b62000b771790919060201c565b6002556001600160a01b03821660009081526020818152604090912054620002b491839062000b776200030f821b17901c565b6001600160a01b0383166000818152602081815260408083209490945583518581529351929391927fddf252ad1be2c89b69c2b068fc378daa952ba7f163c4a11628f55a4df523b3ef9281900390910190a35050565b505050565b6000828201838110156200036a576040805162461bcd60e51b815260206004820152601b60248201527f536166654d6174683a206164646974696f6e206f766572666c6f770000000000604482015290519081900360640190fd5b9392505050565b828054600181600116156101000203166002900490600052602060002090601f016020900481019282620003a95760008555620003f4565b82601f10620003c457805160ff1916838001178555620003f4565b82800160010185558215620003f4579182015b82811115620003f4578251825591602001919060010190620003d7565b506200040292915062000406565b5090565b5b8082111562000402576000815560010162000407565b6110ef806200042d6000396000f3fe608060405234801561001057600080fd5b506004361061025e5760003560e01c806395d89b4111610146578063d06dc3ad116100c3578063e64767aa11610087578063e64767aa14610893578063ed475a79146108c9578063ef357297146108f5578063f5f3d4f71461088b578063f683776714610837578063f6a494af1461074f5761025e565b8063d06dc3ad14610263578063d6aa0b7714610837578063dd62ed3e1461085d578063deea13e71461088b578063e587497e1461058d5761025e565b8063a9059cbb1161010a578063a9059cbb146107d5578063b302f39314610801578063bbd6fbf814610263578063be0ca74714610809578063caeb942b1461047b5761025e565b806395d89b41146107a1578063981b24d01461047b5780639b3baa0e146103d75780639ca2231a1461074f578063a457c2d7146107a95761025e565b806339509351116101df57806370a08231116101a357806370a082311461065c5780637de5b8ed146106825780637f4fcaa91461074f57806383035a821461058d5780638c2b8ae1146103d757806392bfe6d8146107755761025e565b8063395093511461044f5780633e5aa26a1461047b57806349e3c7e5146104985780634ee2cd7e1461058d5780635d6d11eb146105b95761025e565b8063142d101811610226578063142d1018146103a957806318160ddd146103cf5780631fec092a146103d757806323b872dd146103fb578063313ce567146104315761025e565b8063026e402b1461026357806304bb4e431461029157806306fdde03146102cf578063095ea7b31461034c57806313de97f51461038c575b600080fd5b61028f6004803603604081101561027957600080fd5b506001600160a01b0381351690602001356108fd565b005b6102bd600480360360408110156102a757600080fd5b506001600160a01b038135169060200135610901565b60408051918252519081900360200190f35b6102d7610914565b6040805160208082528351818301528351919283929083019185019080838360005b838110156103115781810151838201526020016102f9565b50505050905090810190601f16801561033e5780820380516001836020036101000a031916815260200191505b509250505060405180910390f35b6103786004803603604081101561036257600080fd5b506001600160a01b038135169060200135610923565b604080519115158252519081900360200190f35b61028f600480360360208110156103a257600080fd5b5035610940565b6102bd600480360360208110156103bf57600080fd5b50356001600160a01b0316610943565b6102bd610955565b6103df61095b565b604080516001600160a01b039092168252519081900360200190f35b6103786004803603606081101561041157600080fd5b506001600160a01b03813581169160208101359091169060400135610960565b6104396109e7565b6040805160ff9092168252519081900360200190f35b6103786004803603604081101561046557600080fd5b506001600160a01b0381351690602001356109f1565b6102bd6004803603602081101561049157600080fd5b5035610a3f565b61053d600480360360408110156104ae57600080fd5b8101906020810181356401000000008111156104c957600080fd5b8201836020820111156104db57600080fd5b803590602001918460208302840111640100000000831117156104fd57600080fd5b9190808060200260200160405190810160405280939291908181526020018383602002808284376000920191909152509295505091359250610a45915050565b60408051602080825283518183015283519192839290830191858101910280838360005b83811015610579578181015183820152602001610561565b505050509050019250505060405180910390f35b6102bd600480360360408110156105a357600080fd5b506001600160a01b038135169060200135610a4d565b6102bd600480360360208110156105cf57600080fd5b8101906020810181356401000000008111156105ea57600080fd5b8201836020820111156105fc57600080fd5b8035906020019184602083028401116401000000008311171561061e57600080fd5b919080806020026020016040519081016040528093929190818152602001838360200280828437600092019190915250929550610a3f945050505050565b6102bd6004803603602081101561067257600080fd5b50356001600160a01b0316610a55565b6106a86004803603602081101561069857600080fd5b50356001600160a01b0316610a70565b604051808060200180602001858152602001848152602001838103835287818151815260200191508051906020019060200280838360005b838110156106f85781810151838201526020016106e0565b50505050905001838103825286818151815260200191508051906020019060200280838360005b8381101561073757818101518382015260200161071f565b50505050905001965050505050505060405180910390f35b61028f6004803603602081101561076557600080fd5b50356001600160a01b0316610940565b6102bd6004803603604081101561078b57600080fd5b506001600160a01b038135169060200135610a7d565b6102d7610aa0565b610378600480360360408110156107bf57600080fd5b506001600160a01b038135169060200135610aaa565b610378600480360360408110156107eb57600080fd5b506001600160a01b038135169060200135610b12565b61028f610b26565b6102bd6004803603604081101561081f57600080fd5b506001600160a01b0381358116916020013516610a4d565b6102bd6004803603602081101561084d57600080fd5b50356001600160a01b0316610a3f565b6102bd6004803603604081101561087357600080fd5b506001600160a01b0381358116916020013516610b28565b6102bd61095b565b6102bd600480360360608110156108a957600080fd5b506001600160a01b03813581169160208101359091169060400135610b53565b6106a8600480360360408110156108df57600080fd5b506001600160a01b038135169060200135610b5c565b6102bd610b6a565b5050565b600061090d8383610a7d565b9392505050565b606061091e610bd1565b905090565b6000610937610930610c67565b8484610c6b565b50600192915050565b50565b600061094f8243610a7d565b92915050565b60025490565b600090565b600061096d848484610d57565b6109dd84610979610c67565b6109d885604051806060016040528060288152602001611024602891396001600160a01b038a166000908152600160205260408120906109b7610c67565b6001600160a01b031681526020810191909152604001600020549190610eb2565b610c6b565b5060019392505050565b600061091e610f49565b60006109376109fe610c67565b846109d88560016000610a0f610c67565b6001600160a01b03908116825260208083019390935260409182016000908120918c168152925290205490610b77565b50600090565b606092915050565b600092915050565b6001600160a01b031660009081526020819052604090205490565b6060806000809193509193565b6000670de0b6b3a7640000610a9184610a55565b81610a9857fe5b049392505050565b606061091e610f52565b6000610937610ab7610c67565b846109d8856040518060600160405280602581526020016110956025913960016000610ae1610c67565b6001600160a01b03908116825260208083019390935260409182016000908120918d16815292529020549190610eb2565b6000610937610b1f610c67565b8484610d57565b565b6001600160a01b03918216600090815260016020908152604080832093909416825291909152205490565b60009392505050565b506060918291506000908190565b6825f273933db570000081565b60008282018381101561090d576040805162461bcd60e51b815260206004820152601b60248201527f536166654d6174683a206164646974696f6e206f766572666c6f770000000000604482015290519081900360640190fd5b60038054604080516020601f6002600019610100600188161502019095169490940493840181900481028201810190925282815260609390929091830182828015610c5d5780601f10610c3257610100808354040283529160200191610c5d565b820191906000526020600020905b815481529060010190602001808311610c4057829003601f168201915b5050505050905090565b3390565b6001600160a01b038316610cb05760405162461bcd60e51b81526004018080602001828103825260248152602001806110716024913960400191505060405180910390fd5b6001600160a01b038216610cf55760405162461bcd60e51b8152600401808060200182810382526022815260200180610fdc6022913960400191505060405180910390fd5b6001600160a01b03808416600081815260016020908152604080832094871680845294825291829020859055815185815291517f8c5be1e5ebec7d5bd14f71427d1e84f3dd0314c0f7b2291e5b200ac8c7c3b9259281900390910190a3505050565b6001600160a01b038316610d9c5760405162461bcd60e51b815260040180806020018281038252602581526020018061104c6025913960400191505060405180910390fd5b6001600160a01b038216610de15760405162461bcd60e51b8152600401808060200182810382526023815260200180610fb96023913960400191505060405180910390fd5b610dec838383610fb3565b610e2981604051806060016040528060268152602001610ffe602691396001600160a01b0386166000908152602081905260409020549190610eb2565b6001600160a01b038085166000908152602081905260408082209390935590841681522054610e589082610b77565b6001600160a01b038084166000818152602081815260409182902094909455805185815290519193928716927fddf252ad1be2c89b69c2b068fc378daa952ba7f163c4a11628f55a4df523b3ef92918290030190a3505050565b60008184841115610f415760405162461bcd60e51b81526004018080602001828103825283818151815260200191508051906020019080838360005b83811015610f06578181015183820152602001610eee565b50505050905090810190601f168015610f335780820380516001836020036101000a031916815260200191505b509250505060405180910390fd5b505050900390565b60055460ff1690565b60048054604080516020601f6002600019610100600188161502019095169490940493840181900481028201810190925282815260609390929091830182828015610c5d5780601f10610c3257610100808354040283529160200191610c5d565b50505056fe45524332303a207472616e7366657220746f20746865207a65726f206164647265737345524332303a20617070726f766520746f20746865207a65726f206164647265737345524332303a207472616e7366657220616d6f756e7420657863656564732062616c616e636545524332303a207472616e7366657220616d6f756e74206578636565647320616c6c6f77616e636545524332303a207472616e736665722066726f6d20746865207a65726f206164647265737345524332303a20617070726f76652066726f6d20746865207a65726f206164647265737345524332303a2064656372656173656420616c6c6f77616e63652062656c6f77207a65726fa2646970667358221220dd3cbbdf87a86b16733bcd7ac072c909864bdb64d6653ffe701601c2bfe2a2fb64736f6c63430007060033",
  "linkReferences": {},
  "deployedLinkReferences": {}
}