{
  "_format": "hh-sol-artifact-1",
  "contractName": "MockNpmFtso",
  "sourceName": "contracts/ftso/priceProviderMockContracts/priceProviderMockFtso.sol",
  "abi": [
    {
      "inputs": [
        {
          "internalType": "string",
          "name": "_symbol",
          "type": "string"
        },
        {
          "internalType": "contract IPriceSubmitter",
          "name": "_priceSubmitter",
          "type": "address"
        },
        {
          "internalType": "uint256",
          "name": "_firstEpochStartTs",
          "type": "uint256"
        },
        {
          "internalType": "uint256",
          "name": "_submitPeriodSeconds",
          "type": "uint256"
        },
        {
          "internalType": "uint256",
          "name": "_revealPeriodSeconds",
          "type": "uint256"
        }
      ],
      "stateMutability": "nonpayable",
      "type": "constructor"
    },
    {
      "anonymous": false,
      "inputs": [
        {
          "indexed": true,
          "internalType": "uint256",
          "name": "epochId",
          "type": "uint256"
        },
        {
          "indexed": false,
          "internalType": "uint256",
          "name": "natTurnout",
          "type": "uint256"
        },
        {
          "indexed": false,
          "internalType": "uint256",
          "name": "lowNatTurnoutThresholdBIPS",
          "type": "uint256"
        },
        {
          "indexed": false,
          "internalType": "uint256",
          "name": "timestamp",
          "type": "uint256"
        }
      ],
      "name": "LowTurnout",
      "type": "event"
    },
    {
      "anonymous": false,
      "inputs": [
        {
          "indexed": true,
          "internalType": "uint256",
          "name": "epochId",
          "type": "uint256"
        },
        {
          "indexed": false,
          "internalType": "uint256",
          "name": "endTime",
          "type": "uint256"
        },
        {
          "indexed": false,
          "internalType": "uint256",
          "name": "timestamp",
          "type": "uint256"
        }
      ],
      "name": "PriceEpochInitializedOnFtso",
      "type": "event"
    },
    {
      "anonymous": false,
      "inputs": [
        {
          "indexed": true,
          "internalType": "uint256",
          "name": "epochId",
          "type": "uint256"
        },
        {
          "indexed": false,
          "internalType": "uint256",
          "name": "price",
          "type": "uint256"
        },
        {
          "indexed": false,
          "internalType": "bool",
          "name": "rewardedFtso",
          "type": "bool"
        },
        {
          "indexed": false,
          "internalType": "uint256",
          "name": "lowRewardPrice",
          "type": "uint256"
        },
        {
          "indexed": false,
          "internalType": "uint256",
          "name": "highRewardPrice",
          "type": "uint256"
        },
        {
          "indexed": false,
          "internalType": "enum IFtso.PriceFinalizationType",
          "name": "finalizationType",
          "type": "uint8"
        },
        {
          "indexed": false,
          "internalType": "uint256",
          "name": "timestamp",
          "type": "uint256"
        }
      ],
      "name": "PriceFinalized",
      "type": "event"
    },
    {
      "anonymous": false,
      "inputs": [
        {
          "indexed": true,
          "internalType": "address",
          "name": "voter",
          "type": "address"
        },
        {
          "indexed": true,
          "internalType": "uint256",
          "name": "epochId",
          "type": "uint256"
        },
        {
          "indexed": false,
          "internalType": "uint256",
          "name": "price",
          "type": "uint256"
        },
        {
          "indexed": false,
          "internalType": "uint256",
          "name": "timestamp",
          "type": "uint256"
        },
        {
          "indexed": false,
          "internalType": "uint256",
          "name": "votePowerNat",
          "type": "uint256"
        },
        {
          "indexed": false,
          "internalType": "uint256",
          "name": "votePowerAsset",
          "type": "uint256"
        }
      ],
      "name": "PriceRevealed",
      "type": "event"
    },
    {
      "inputs": [],
      "name": "ASSET_PRICE_USD_DECIMALS",
      "outputs": [
        {
          "internalType": "uint256",
          "name": "",
          "type": "uint256"
        }
      ],
      "stateMutability": "view",
      "type": "function"
    },
    {
      "inputs": [
        {
          "internalType": "uint256",
          "name": "",
          "type": "uint256"
        },
        {
          "internalType": "uint256",
          "name": "",
          "type": "uint256"
        },
        {
          "internalType": "uint256",
          "name": "",
          "type": "uint256"
        }
      ],
      "name": "activateFtso",
      "outputs": [],
      "stateMutability": "pure",
      "type": "function"
    },
    {
      "inputs": [],
      "name": "active",
      "outputs": [
        {
          "internalType": "bool",
          "name": "",
          "type": "bool"
        }
      ],
      "stateMutability": "view",
      "type": "function"
    },
    {
      "inputs": [
        {
          "internalType": "uint256",
          "name": "",
          "type": "uint256"
        }
      ],
      "name": "assetFtsos",
      "outputs": [
        {
          "internalType": "contract IIFtso",
          "name": "",
          "type": "address"
        }
      ],
      "stateMutability": "view",
      "type": "function"
    },
    {
      "inputs": [
        {
          "internalType": "uint256",
          "name": "",
          "type": "uint256"
        }
      ],
      "name": "assets",
      "outputs": [
        {
          "internalType": "contract IIVPToken",
          "name": "",
          "type": "address"
        }
      ],
      "stateMutability": "view",
      "type": "function"
    },
    {
      "inputs": [
        {
          "internalType": "uint256",
          "name": "",
          "type": "uint256"
        },
        {
          "internalType": "uint256",
          "name": "",
          "type": "uint256"
        },
        {
          "internalType": "uint256",
          "name": "",
          "type": "uint256"
        },
        {
          "internalType": "uint256",
          "name": "",
          "type": "uint256"
        },
        {
          "internalType": "uint256",
          "name": "",
          "type": "uint256"
        },
        {
          "internalType": "uint256",
          "name": "",
          "type": "uint256"
        },
        {
          "internalType": "address[]",
          "name": "",
          "type": "address[]"
        }
      ],
      "name": "configureEpochs",
      "outputs": [],
      "stateMutability": "pure",
      "type": "function"
    },
    {
      "inputs": [],
      "name": "deactivateFtso",
      "outputs": [],
      "stateMutability": "pure",
      "type": "function"
    },
    {
      "inputs": [],
      "name": "epochsConfiguration",
      "outputs": [
        {
          "internalType": "uint256",
          "name": "",
          "type": "uint256"
        },
        {
          "internalType": "uint256",
          "name": "",
          "type": "uint256"
        },
        {
          "internalType": "uint256",
          "name": "",
          "type": "uint256"
        },
        {
          "internalType": "uint256",
          "name": "",
          "type": "uint256"
        },
        {
          "internalType": "uint256",
          "name": "",
          "type": "uint256"
        },
        {
          "internalType": "uint256",
          "name": "",
          "type": "uint256"
        },
        {
          "internalType": "address[]",
          "name": "",
          "type": "address[]"
        }
      ],
      "stateMutability": "pure",
      "type": "function"
    },
    {
      "inputs": [
        {
          "internalType": "uint256",
          "name": "",
          "type": "uint256"
        }
      ],
      "name": "fallbackFinalizePriceEpoch",
      "outputs": [],
      "stateMutability": "pure",
      "type": "function"
    },
    {
      "inputs": [
        {
          "internalType": "uint256",
          "name": "",
          "type": "uint256"
        },
        {
          "internalType": "bool",
          "name": "",
          "type": "bool"
        }
      ],
      "name": "finalizePriceEpoch",
      "outputs": [
        {
          "internalType": "address[]",
          "name": "",
          "type": "address[]"
        },
        {
          "internalType": "uint256[]",
          "name": "",
          "type": "uint256[]"
        },
        {
          "internalType": "uint256",
          "name": "",
          "type": "uint256"
        }
      ],
      "stateMutability": "pure",
      "type": "function"
    },
    {
      "inputs": [
        {
          "internalType": "uint256",
          "name": "",
          "type": "uint256"
        }
      ],
      "name": "forceFinalizePriceEpoch",
      "outputs": [],
      "stateMutability": "pure",
      "type": "function"
    },
    {
      "inputs": [],
      "name": "ftsoManager",
      "outputs": [
        {
          "internalType": "address",
          "name": "",
          "type": "address"
        }
      ],
      "stateMutability": "pure",
      "type": "function"
    },
    {
      "inputs": [],
      "name": "getAsset",
      "outputs": [
        {
          "internalType": "contract IIVPToken",
          "name": "",
          "type": "address"
        }
      ],
      "stateMutability": "pure",
      "type": "function"
    },
    {
      "inputs": [],
      "name": "getAssetFtsos",
      "outputs": [
        {
          "internalType": "contract IIFtso[]",
          "name": "",
          "type": "address[]"
        }
      ],
      "stateMutability": "pure",
      "type": "function"
    },
    {
      "inputs": [],
      "name": "getCurrentEpochId",
      "outputs": [
        {
          "internalType": "uint256",
          "name": "",
          "type": "uint256"
        }
      ],
      "stateMutability": "view",
      "type": "function"
    },
    {
      "inputs": [],
      "name": "getCurrentPrice",
      "outputs": [
        {
          "internalType": "uint256",
          "name": "_price",
          "type": "uint256"
        },
        {
          "internalType": "uint256",
          "name": "_timestamp",
          "type": "uint256"
        }
      ],
      "stateMutability": "view",
      "type": "function"
    },
    {
      "inputs": [],
      "name": "getCurrentPriceDetails",
      "outputs": [
        {
          "internalType": "uint256",
          "name": "_price",
          "type": "uint256"
        },
        {
          "internalType": "uint256",
          "name": "_priceTimestamp",
          "type": "uint256"
        },
        {
          "internalType": "enum IFtso.PriceFinalizationType",
          "name": "_priceFinalizationType",
          "type": "uint8"
        },
        {
          "internalType": "uint256",
          "name": "_lastPriceEpochFinalizationTimestamp",
          "type": "uint256"
        },
        {
          "internalType": "enum IFtso.PriceFinalizationType",
          "name": "_lastPriceEpochFinalizationType",
          "type": "uint8"
        }
      ],
      "stateMutability": "view",
      "type": "function"
    },
    {
      "inputs": [],
      "name": "getCurrentPriceFromTrustedProviders",
      "outputs": [
        {
          "internalType": "uint256",
          "name": "_price",
          "type": "uint256"
        },
        {
          "internalType": "uint256",
          "name": "_timestamp",
          "type": "uint256"
        }
      ],
      "stateMutability": "view",
      "type": "function"
    },
    {
      "inputs": [],
      "name": "getCurrentRandom",
      "outputs": [
        {
          "internalType": "uint256",
          "name": "",
          "type": "uint256"
        }
      ],
      "stateMutability": "view",
      "type": "function"
    },
    {
      "inputs": [
        {
          "internalType": "uint256",
          "name": "_timestamp",
          "type": "uint256"
        }
      ],
      "name": "getEpochId",
      "outputs": [
        {
          "internalType": "uint256",
          "name": "",
          "type": "uint256"
        }
      ],
      "stateMutability": "view",
      "type": "function"
    },
    {
      "inputs": [
        {
          "internalType": "uint256",
          "name": "",
          "type": "uint256"
        }
      ],
      "name": "getEpochPrice",
      "outputs": [
        {
          "internalType": "uint256",
          "name": "",
          "type": "uint256"
        }
      ],
      "stateMutability": "pure",
      "type": "function"
    },
    {
      "inputs": [
        {
          "internalType": "uint256",
          "name": "_epochId",
          "type": "uint256"
        },
        {
          "internalType": "address",
          "name": "_voter",
          "type": "address"
        }
      ],
      "name": "getEpochPriceForVoter",
      "outputs": [
        {
          "internalType": "uint256",
          "name": "",
          "type": "uint256"
        }
      ],
      "stateMutability": "view",
      "type": "function"
    },
    {
      "inputs": [],
      "name": "getPriceEpochConfiguration",
      "outputs": [
        {
          "internalType": "uint256",
          "name": "_firstEpochStartTs",
          "type": "uint256"
        },
        {
          "internalType": "uint256",
          "name": "_submitPeriodSeconds",
          "type": "uint256"
        },
        {
          "internalType": "uint256",
          "name": "_revealPeriodSeconds",
          "type": "uint256"
        }
      ],
      "stateMutability": "view",
      "type": "function"
    },
    {
      "inputs": [],
      "name": "getPriceEpochData",
      "outputs": [
        {
          "internalType": "uint256",
          "name": "_epochId",
          "type": "uint256"
        },
        {
          "internalType": "uint256",
          "name": "_epochSubmitEndTime",
          "type": "uint256"
        },
        {
          "internalType": "uint256",
          "name": "_epochRevealEndTime",
          "type": "uint256"
        },
        {
          "internalType": "uint256",
          "name": "_votePowerBlock",
          "type": "uint256"
        },
        {
          "internalType": "bool",
          "name": "_fallbackMode",
          "type": "bool"
        }
      ],
      "stateMutability": "view",
      "type": "function"
    },
    {
      "inputs": [
        {
          "internalType": "uint256",
          "name": "_epochId",
          "type": "uint256"
        }
      ],
      "name": "getRandom",
      "outputs": [
        {
          "internalType": "uint256",
          "name": "",
          "type": "uint256"
        }
      ],
      "stateMutability": "view",
      "type": "function"
    },
    {
      "inputs": [],
      "name": "getVoteWeightingParameters",
      "outputs": [
        {
          "internalType": "contract IIVPToken[]",
          "name": "",
          "type": "address[]"
        },
        {
          "internalType": "uint256[]",
          "name": "",
          "type": "uint256[]"
        },
        {
          "internalType": "uint256",
          "name": "",
          "type": "uint256"
        },
        {
          "internalType": "uint256",
          "name": "",
          "type": "uint256"
        },
        {
          "internalType": "uint256",
          "name": "",
          "type": "uint256"
        },
        {
          "internalType": "uint256",
          "name": "",
          "type": "uint256"
        }
      ],
      "stateMutability": "pure",
      "type": "function"
    },
    {
      "inputs": [
        {
          "internalType": "uint256",
          "name": "",
          "type": "uint256"
        },
        {
          "internalType": "bool",
          "name": "",
          "type": "bool"
        }
      ],
      "name": "initializeCurrentEpochStateForReveal",
      "outputs": [],
      "stateMutability": "pure",
      "type": "function"
    },
    {
      "inputs": [],
      "name": "priceSubmitter",
      "outputs": [
        {
          "internalType": "contract IPriceSubmitter",
          "name": "",
          "type": "address"
        }
      ],
      "stateMutability": "view",
      "type": "function"
    },
    {
      "inputs": [
        {
          "internalType": "address",
          "name": "_voter",
          "type": "address"
        },
        {
          "internalType": "uint256",
          "name": "_epochId",
          "type": "uint256"
        },
        {
          "internalType": "uint256",
          "name": "_price",
          "type": "uint256"
        },
        {
          "internalType": "uint256",
          "name": "",
          "type": "uint256"
        }
      ],
      "name": "revealPriceSubmitter",
      "outputs": [],
      "stateMutability": "nonpayable",
      "type": "function"
    },
    {
      "inputs": [
        {
          "internalType": "contract IIVPToken",
          "name": "",
          "type": "address"
        }
      ],
      "name": "setAsset",
      "outputs": [],
      "stateMutability": "pure",
      "type": "function"
    },
    {
      "inputs": [
        {
          "internalType": "contract IIFtso[]",
          "name": "",
          "type": "address[]"
        }
      ],
      "name": "setAssetFtsos",
      "outputs": [],
      "stateMutability": "pure",
      "type": "function"
    },
    {
      "inputs": [
        {
          "internalType": "uint256",
          "name": "",
          "type": "uint256"
        }
      ],
      "name": "setVotePowerBlock",
      "outputs": [],
      "stateMutability": "pure",
      "type": "function"
    },
    {
      "inputs": [],
      "name": "symbol",
      "outputs": [
        {
          "internalType": "string",
          "name": "",
          "type": "string"
        }
      ],
      "stateMutability": "view",
      "type": "function"
    },
    {
      "inputs": [
        {
          "internalType": "uint256",
          "name": "",
          "type": "uint256"
        },
        {
          "internalType": "uint256",
          "name": "",
          "type": "uint256"
        }
      ],
      "name": "updateInitialPrice",
      "outputs": [],
      "stateMutability": "pure",
      "type": "function"
    },
    {
      "inputs": [],
      "name": "wNat",
      "outputs": [
        {
          "internalType": "contract IIVPToken",
          "name": "",
          "type": "address"
        }
      ],
      "stateMutability": "pure",
      "type": "function"
    },
    {
      "inputs": [
        {
          "internalType": "address",
          "name": "_owner",
          "type": "address"
        },
        {
          "internalType": "uint256",
          "name": "_epochId",
          "type": "uint256"
        }
      ],
      "name": "wNatVotePowerCached",
      "outputs": [
        {
          "internalType": "uint256",
          "name": "_wNatVP",
          "type": "uint256"
        }
      ],
      "stateMutability": "nonpayable",
      "type": "function"
    }
  ],
  "bytecode": "0x60806040523480156200001157600080fd5b506040516200137c3803806200137c833981810160405260a08110156200003757600080fd5b81019080805160405193929190846401000000008211156200005857600080fd5b9083019060208201858111156200006e57600080fd5b82516401000000008111828201881017156200008957600080fd5b82525081516020918201929091019080838360005b83811015620000b85781810151838201526020016200009e565b50505050905090810190601f168015620000e65780820380516001836020036101000a031916815260200191505b5060409081526020828101519183015160608401516080909401518751939650909450916200011c916001919088019062000163565b50426003556000805460ff19166001179055600480546001600160a01b039095166001600160a01b031990951694909417909355600791909155600855600955506200020f565b828054600181600116156101000203166002900490600052602060002090601f0160209004810192826200019b5760008555620001e6565b82601f10620001b657805160ff1916838001178555620001e6565b82800160010185558215620001e6579182015b82811115620001e6578251825591602001919060010190620001c9565b50620001f4929150620001f8565b5090565b5b80821115620001f45760008155600101620001f9565b61115d806200021f6000396000f3fe608060405234801561001057600080fd5b506004361061021c5760003560e01c8063974d7a6b11610125578063d89601fd116100ad578063eb91d37e1161007c578063eb91d37e146106c5578063f670ebe314610852578063f72cab2814610877578063f7dba1f5146108a3578063f937d6ad146108f85761021c565b8063d89601fd146107aa578063e3749e0c146107b2578063e3b3a3b31461081d578063e536f396146104e55761021c565b8063c1f6c36e116100f4578063c1f6c36e146106e6578063c5d8b9e71461071e578063cd4b69141461074a578063cf35bdd014610767578063d0d552dd146107845761021c565b8063974d7a6b146104e55780639edbf00714610539578063a29a839f146106bd578063af52df08146106c55761021c565b80634afd5102116101a85780636b52b242116101775780636b52b242146105415780637d1d6f1214610549578063826cc76b146105665780638357d08c1461058357806395d89b41146106405761021c565b80634afd5102146104e55780635303548b14610502578063555989da146105315780635c222bad146105395761021c565b8063144e1591116101ef578063144e15911461035657806318931c351461037c5780632f0a6f3c146103d4578063306ba253146103fd57806340462a2d146104205761021c565b806302fb0c5e14610221578063040d73b81461023d57806311a7aaaa1461028d578063131fdee2146102b1575b600080fd5b610229610900565b604080519115158252519081900360200190f35b610245610909565b6040518086815260200185815260200184600581111561026157fe5b815260200183815260200182600581111561027857fe5b81526020019550505050505060405180910390f35b610295610918565b604080516001600160a01b039092168252519081900360200190f35b610354600480360360208110156102c757600080fd5b8101906020810181356401000000008111156102e257600080fd5b8201836020820111156102f457600080fd5b8035906020019184602083028401116401000000008311171561031657600080fd5b91908080602002602001604051908101604052809392919081815260200183836020028082843760009201919091525092955061091d945050505050565b005b61035e6109c3565b60408051938452602084019290925282820152519081900360600190f35b6103846109d1565b60408051602080825283518183015283519192839290830191858101910280838360005b838110156103c05781810151838201526020016103a8565b505050509050019250505060405180910390f35b610354600480360360608110156103ea57600080fd5b508035906020810135906040013561091d565b6103546004803603604081101561041357600080fd5b508035906020013561091d565b6104456004803603604081101561043657600080fd5b50803590602001351515610a38565b604051808060200180602001848152602001838103835286818151815260200191508051906020019060200280838360005b8381101561048f578181015183820152602001610477565b50505050905001838103825285818151815260200191508051906020019060200280838360005b838110156104ce5781810151838201526020016104b6565b505050509050019550505050505060405180910390f35b610354600480360360208110156104fb57600080fd5b503561091d565b61051f6004803603602081101561051857600080fd5b5035610aa4565b60408051918252519081900360200190f35b61035461091d565b610295610ab7565b61051f610b1a565b61051f6004803603602081101561055f57600080fd5b5035610ab7565b6102956004803603602081101561057c57600080fd5b5035610b1f565b61058b610b49565b604051808060200180602001878152602001868152602001858152602001848152602001838103835289818151815260200191508051906020019060200280838360005b838110156105e75781810151838201526020016105cf565b50505050905001838103825288818151815260200191508051906020019060200280838360005b8381101561062657818101518382015260200161060e565b505050509050019850505050505050505060405180910390f35b610648610bee565b6040805160208082528351818301528351919283929083019185019080838360005b8381101561068257818101518382015260200161066a565b50505050905090810190601f1680156106af5780820380516001836020036101000a031916815260200191505b509250505060405180910390f35b61051f610c7b565b6106cd610c8a565b6040805192835260208301919091528051918290030190f35b610354600480360360808110156106fc57600080fd5b506001600160a01b038135169060208101359060408101359060600135610c90565b61051f6004803603604081101561073457600080fd5b50803590602001356001600160a01b0316610e3e565b61051f6004803603602081101561076057600080fd5b5035610e66565b6102956004803603602081101561077d57600080fd5b5035610e71565b6103546004803603602081101561079a57600080fd5b50356001600160a01b031661091d565b61051f610e81565b6107ba610eaf565b6040518088815260200187815260200186815260200185815260200184815260200183815260200180602001828103825283818151815260200191508051906020019060200280838360008381101561062657818101518382015260200161060e565b610825610f75565b60408051958652602086019490945284840192909252606084015215156080830152519081900360a00190f35b6103546004803603604081101561086857600080fd5b5080359060200135151561091d565b61051f6004803603604081101561088d57600080fd5b506001600160a01b038135169060200135610fab565b610354600480360360e08110156108b957600080fd5b81359160208101359160408201359160608101359160808201359160a08101359181019060e0810160c08201356401000000008111156102e257600080fd5b610295610fb3565b60005460ff1681565b60008060008060009091929394565b600090565b6040805180820190915260178152600080516020611108833981519152602082015260405162461bcd60e51b81526004018080602001828103825283818151815260200191508051906020019080838360005b83811015610988578181015183820152602001610970565b50505050905090810190601f1680156109b55780820380516001836020036101000a031916815260200191505b509250505060405180910390fd5b600754600854600954909192565b604080518082018252601781526000805160206111088339815191526020808301918252925162461bcd60e51b8152600481019384528251602482015282516060949283926044019180838360008315610988578181015183820152602001610970565b90565b604080518082018252601781526000805160206111088339815191526020808301918252925162461bcd60e51b81526004810193845282516024820152825160609485946000949093919283926044019190808383898315610988578181015183820152602001610970565b6000610aaf82610fc2565b90505b919050565b604080518082018252601781526000805160206111088339815191526020808301918252925162461bcd60e51b81526004810193845282516024820152825160009492839260440191808383898315610988578181015183820152602001610970565b600581565b60068181548110610b2f57600080fd5b6000918252602090912001546001600160a01b0316905081565b606080600080600080600060405180604001604052806017815260200160008051602061110883398151915281525090610bc45760405162461bcd60e51b8152602060048201818152835160248401528351909283926044909101919085019080838360008315610988578181015183820152602001610970565b50506040805160008082526020820181815282840190935290979196509450849350839250829150565b60018054604080516020600284861615610100026000190190941693909304601f81018490048402820184019092528181529291830182828015610c735780601f10610c4857610100808354040283529160200191610c73565b820191906000526020600020905b815481529060010190602001808311610c5657829003601f168201915b505050505081565b6000610c85610fed565b905090565b60008091565b6004546001600160a01b03163314610caa57610caa610ff8565b60408051808201909152600e81526d0a0e4d2c6ca40e8dede40d0d2ced60931b6020820152600160801b8310610d215760405162461bcd60e51b8152602060048201818152835160248401528351909283926044909101919085019080838360008315610988578181015183820152602001610970565b506008546007546001850190910201428111801590610d435750600954810142105b6040518060400160405280601881526020017f52657665616c20706572696f64206e6f7420616374697665000000000000000081525090610dc55760405162461bcd60e51b8152602060048201818152835160248401528351909283926044909101919085019080838360008315610988578181015183820152602001610970565b506000848152600a602090815260408083206001600160a01b038916808552908352818420879055815187815242938101939093528282018490526060830193909352518692917fc1b1d37612887c207efe8cb44f4069b7f10c45edaf6e8405648a94e02b6e9ec7919081900360800190a35050505050565b6000918252600a602090815260408084206001600160a01b0393909316845291905290205490565b6000610aaf82611060565b60058181548110610b2f57600080fd5b600080610e8c610fed565b905080610e9d576000915050610a35565b610ea960018203611060565b91505090565b6000806000806000806060600060405180604001604052806017815260200160008051602061110883398151915281525090610f2c5760405162461bcd60e51b8152602060048201818152835160248401528351909283926044909101919085019080838360008315610988578181015183820152602001610970565b506000808080808080604051908082528060200260200182016040528015610f5e578160200160208202803683370190505b50959d949c50929a50909850965094509092509050565b6000806000806000610f85610fed565b945060085485600101026007540193506009548401925060009150600090509091929394565b600092915050565b6004546001600160a01b031681565b6000600754821015610fd657506000610ab2565b600854600754830381610fe557fe5b049050610ab2565b6000610c8542610fc2565b604080518082018252600d81526c1058d8d95cdcc819195b9a5959609a1b6020808301918252925162461bcd60e51b81526004810193845282516024820152825192939283926044909201919080838360008315610988578181015183820152602001610970565b6004805460408051633352da4560e21b8152928301849052516000926001600160a01b039092169163cd4b6914916024808301926020929190829003018186803b1580156110ad57600080fd5b505afa1580156110c1573d6000803e3d6000fd5b505050506040513d60208110156110d757600080fd5b5051604080516020808201939093523081830152815180820383018152606090910190915280519101209291505056fe556e617661696c61626c6520666f722074657374696e67000000000000000000a2646970667358221220759cb5decb835e5ce3f586a14a66a8c43719b2f8a5ce4059ca7198d5b2294d5564736f6c63430007060033",
  "linkReferences": {},
  "deployedLinkReferences": {}
}