{
  "_format": "hh-sol-artifact-1",
  "contractName": "DistributionMock",
  "sourceName": "contracts/tokenPools/mock/DistributionMock.sol",
  "abi": [
    {
      "inputs": [
        {
          "internalType": "contract DistributionTreasury",
          "name": "_treasury",
          "type": "address"
        }
      ],
      "stateMutability": "nonpayable",
      "type": "constructor"
    },
    {
      "inputs": [
        {
          "internalType": "uint256",
          "name": "_amountWei",
          "type": "uint256"
        }
      ],
      "name": "pullFunds",
      "outputs": [],
      "stateMutability": "nonpayable",
      "type": "function"
    },
    {
      "inputs": [],
      "name": "treasury",
      "outputs": [
        {
          "internalType": "contract DistributionTreasury",
          "name": "",
          "type": "address"
        }
      ],
      "stateMutability": "view",
      "type": "function"
    }
  ],
  "bytecode": "0x60a060405234801561001057600080fd5b506040516101c33803806101c38339818101604052602081101561003357600080fd5b5051606081901b6001600160601b0319166080526001600160a01b031661015961006a600039806080528060a452506101596000f3fe608060405234801561001057600080fd5b50600436106100365760003560e01c806361d027b31461003b578063ec8d87771461005f575b600080fd5b61004361007e565b604080516001600160a01b039092168252519081900360200190f35b61007c6004803603602081101561007557600080fd5b50356100a2565b005b7f000000000000000000000000000000000000000000000000000000000000000081565b7f00000000000000000000000000000000000000000000000000000000000000006001600160a01b031663ec8d8777826040518263ffffffff1660e01b815260040180828152602001915050600060405180830381600087803b15801561010857600080fd5b505af115801561011c573d6000803e3d6000fd5b505050505056fea2646970667358221220b0f0fdb65f4150becb0d94e37c5725d62dced4a38391431cbf5c4615337b042c64736f6c63430007060033",
  "linkReferences": {},
  "deployedLinkReferences": {}
}