{
  "_format": "hh-sol-artifact-1",
  "contractName": "VoterWhitelisterMock",
  "sourceName": "contracts/utils/mock/VoterWhitelisterMock.sol",
  "abi": [
    {
      "inputs": [
        {
          "internalType": "address",
          "name": "_governance",
          "type": "address"
        },
        {
          "internalType": "address",
          "name": "_addressUpdater",
          "type": "address"
        },
        {
          "internalType": "contract IIPriceSubmitter",
          "name": "_priceSubmitter",
          "type": "address"
        },
        {
          "internalType": "uint256",
          "name": "_defaultMaxVotersForFtso",
          "type": "uint256"
        }
      ],
      "stateMutability": "nonpayable",
      "type": "constructor"
    },
    {
      "anonymous": false,
      "inputs": [
        {
          "indexed": false,
          "internalType": "address",
          "name": "proposedGovernance",
          "type": "address"
        }
      ],
      "name": "GovernanceProposed",
      "type": "event"
    },
    {
      "anonymous": false,
      "inputs": [
        {
          "indexed": false,
          "internalType": "address",
          "name": "oldGovernance",
          "type": "address"
        },
        {
          "indexed": false,
          "internalType": "address",
          "name": "newGoveranance",
          "type": "address"
        }
      ],
      "name": "GovernanceUpdated",
      "type": "event"
    },
    {
      "anonymous": false,
      "inputs": [
        {
          "indexed": false,
          "internalType": "address",
          "name": "voter",
          "type": "address"
        },
        {
          "indexed": false,
          "internalType": "uint256",
          "name": "ftsoIndex",
          "type": "uint256"
        }
      ],
      "name": "VoterRemovedFromWhitelist",
      "type": "event"
    },
    {
      "anonymous": false,
      "inputs": [
        {
          "indexed": false,
          "internalType": "address",
          "name": "voter",
          "type": "address"
        },
        {
          "indexed": false,
          "internalType": "uint256",
          "name": "ftsoIndex",
          "type": "uint256"
        }
      ],
      "name": "VoterWhitelisted",
      "type": "event"
    },
    {
      "inputs": [
        {
          "internalType": "uint256",
          "name": "_ftsoIndex",
          "type": "uint256"
        }
      ],
      "name": "addFtso",
      "outputs": [],
      "stateMutability": "nonpayable",
      "type": "function"
    },
    {
      "inputs": [],
      "name": "claimGovernance",
      "outputs": [],
      "stateMutability": "nonpayable",
      "type": "function"
    },
    {
      "inputs": [],
      "name": "defaultMaxVotersForFtso",
      "outputs": [
        {
          "internalType": "uint256",
          "name": "",
          "type": "uint256"
        }
      ],
      "stateMutability": "view",
      "type": "function"
    },
    {
      "inputs": [],
      "name": "ftsoManager",
      "outputs": [
        {
          "internalType": "address",
          "name": "",
          "type": "address"
        }
      ],
      "stateMutability": "view",
      "type": "function"
    },
    {
      "inputs": [],
      "name": "ftsoRegistry",
      "outputs": [
        {
          "internalType": "contract IFtsoRegistry",
          "name": "",
          "type": "address"
        }
      ],
      "stateMutability": "view",
      "type": "function"
    },
    {
      "inputs": [],
      "name": "getAddressUpdater",
      "outputs": [
        {
          "internalType": "address",
          "name": "_addressUpdater",
          "type": "address"
        }
      ],
      "stateMutability": "view",
      "type": "function"
    },
    {
      "inputs": [
        {
          "internalType": "contract IIVPToken[]",
          "name": "_assets",
          "type": "address[]"
        },
        {
          "internalType": "uint256[]",
          "name": "_assetMultipliers",
          "type": "uint256[]"
        },
        {
          "internalType": "uint256",
          "name": "_totalVotePowerAsset",
          "type": "uint256"
        },
        {
          "internalType": "address[]",
          "name": "_addresses",
          "type": "address[]"
        },
        {
          "internalType": "uint256",
          "name": "_blockNumber",
          "type": "uint256"
        }
      ],
      "name": "getAssetVotePowerWeights",
      "outputs": [
        {
          "internalType": "uint256[]",
          "name": "_combinedAssetVP",
          "type": "uint256[]"
        }
      ],
      "stateMutability": "nonpayable",
      "type": "function"
    },
    {
      "inputs": [
        {
          "internalType": "uint256",
          "name": "_ftsoIndex",
          "type": "uint256"
        }
      ],
      "name": "getFtsoWhitelistedPriceProviders",
      "outputs": [
        {
          "internalType": "address[]",
          "name": "",
          "type": "address[]"
        }
      ],
      "stateMutability": "view",
      "type": "function"
    },
    {
      "inputs": [
        {
          "internalType": "string",
          "name": "_symbol",
          "type": "string"
        }
      ],
      "name": "getFtsoWhitelistedPriceProvidersBySymbol",
      "outputs": [
        {
          "internalType": "address[]",
          "name": "",
          "type": "address[]"
        }
      ],
      "stateMutability": "view",
      "type": "function"
    },
    {
      "inputs": [
        {
          "internalType": "contract IIVPToken",
          "name": "_wNat",
          "type": "address"
        },
        {
          "internalType": "uint256",
          "name": "_totalVotePowerNat",
          "type": "uint256"
        },
        {
          "internalType": "address[]",
          "name": "_addresses",
          "type": "address[]"
        },
        {
          "internalType": "uint256",
          "name": "_blockNumber",
          "type": "uint256"
        }
      ],
      "name": "getNativeVotePowerWeights",
      "outputs": [
        {
          "internalType": "uint256[]",
          "name": "_wNatVP",
          "type": "uint256[]"
        }
      ],
      "stateMutability": "nonpayable",
      "type": "function"
    },
    {
      "inputs": [
        {
          "internalType": "contract IIFtso",
          "name": "ftso",
          "type": "address"
        },
        {
          "internalType": "address[]",
          "name": "_addresses",
          "type": "address[]"
        }
      ],
      "name": "getVotePowerWeights",
      "outputs": [
        {
          "internalType": "uint256[]",
          "name": "_votePowers",
          "type": "uint256[]"
        }
      ],
      "stateMutability": "nonpayable",
      "type": "function"
    },
    {
      "inputs": [
        {
          "internalType": "contract IIVPToken",
          "name": "_token",
          "type": "address"
        },
        {
          "internalType": "address[]",
          "name": "_addresses",
          "type": "address[]"
        },
        {
          "internalType": "uint256",
          "name": "_blockNumber",
          "type": "uint256"
        }
      ],
      "name": "getVotePowers",
      "outputs": [
        {
          "internalType": "uint256[]",
          "name": "",
          "type": "uint256[]"
        }
      ],
      "stateMutability": "nonpayable",
      "type": "function"
    },
    {
      "inputs": [],
      "name": "governance",
      "outputs": [
        {
          "internalType": "address",
          "name": "",
          "type": "address"
        }
      ],
      "stateMutability": "view",
      "type": "function"
    },
    {
      "inputs": [
        {
          "internalType": "address",
          "name": "_governance",
          "type": "address"
        }
      ],
      "name": "initialise",
      "outputs": [],
      "stateMutability": "nonpayable",
      "type": "function"
    },
    {
      "inputs": [
        {
          "internalType": "uint256",
          "name": "",
          "type": "uint256"
        }
      ],
      "name": "maxVotersForFtso",
      "outputs": [
        {
          "internalType": "uint256",
          "name": "",
          "type": "uint256"
        }
      ],
      "stateMutability": "view",
      "type": "function"
    },
    {
      "inputs": [
        {
          "internalType": "address[]",
          "name": "_addresses",
          "type": "address[]"
        },
        {
          "internalType": "uint256",
          "name": "_ftsoIndex",
          "type": "uint256"
        }
      ],
      "name": "minVotePowerIndex",
      "outputs": [
        {
          "internalType": "uint256",
          "name": "",
          "type": "uint256"
        }
      ],
      "stateMutability": "nonpayable",
      "type": "function"
    },
    {
      "inputs": [],
      "name": "priceSubmitter",
      "outputs": [
        {
          "internalType": "contract IIPriceSubmitter",
          "name": "",
          "type": "address"
        }
      ],
      "stateMutability": "view",
      "type": "function"
    },
    {
      "inputs": [
        {
          "internalType": "address",
          "name": "_governance",
          "type": "address"
        }
      ],
      "name": "proposeGovernance",
      "outputs": [],
      "stateMutability": "nonpayable",
      "type": "function"
    },
    {
      "inputs": [],
      "name": "proposedGovernance",
      "outputs": [
        {
          "internalType": "address",
          "name": "",
          "type": "address"
        }
      ],
      "stateMutability": "view",
      "type": "function"
    },
    {
      "inputs": [
        {
          "internalType": "uint256",
          "name": "_ftsoIndex",
          "type": "uint256"
        }
      ],
      "name": "removeFtso",
      "outputs": [],
      "stateMutability": "nonpayable",
      "type": "function"
    },
    {
      "inputs": [
        {
          "internalType": "address",
          "name": "_trustedAddress",
          "type": "address"
        },
        {
          "internalType": "uint256",
          "name": "_ftsoIndex",
          "type": "uint256"
        }
      ],
      "name": "removeTrustedAddressFromWhitelist",
      "outputs": [],
      "stateMutability": "nonpayable",
      "type": "function"
    },
    {
      "inputs": [
        {
          "internalType": "address",
          "name": "_voter",
          "type": "address"
        }
      ],
      "name": "requestFullVoterWhitelisting",
      "outputs": [
        {
          "internalType": "uint256[]",
          "name": "_supportedIndices",
          "type": "uint256[]"
        },
        {
          "internalType": "bool[]",
          "name": "_success",
          "type": "bool[]"
        }
      ],
      "stateMutability": "nonpayable",
      "type": "function"
    },
    {
      "inputs": [
        {
          "internalType": "address",
          "name": "_voter",
          "type": "address"
        },
        {
          "internalType": "uint256",
          "name": "_ftsoIndex",
          "type": "uint256"
        }
      ],
      "name": "requestWhitelistingVoter",
      "outputs": [],
      "stateMutability": "nonpayable",
      "type": "function"
    },
    {
      "inputs": [
        {
          "internalType": "uint256",
          "name": "_defaultMaxVotersForFtso",
          "type": "uint256"
        }
      ],
      "name": "setDefaultMaxVotersForFtso",
      "outputs": [],
      "stateMutability": "nonpayable",
      "type": "function"
    },
    {
      "inputs": [
        {
          "internalType": "uint256",
          "name": "_ftsoIndex",
          "type": "uint256"
        },
        {
          "internalType": "uint256",
          "name": "_newMaxVoters",
          "type": "uint256"
        }
      ],
      "name": "setMaxVotersForFtso",
      "outputs": [],
      "stateMutability": "nonpayable",
      "type": "function"
    },
    {
      "inputs": [
        {
          "internalType": "address",
          "name": "_governance",
          "type": "address"
        }
      ],
      "name": "transferGovernance",
      "outputs": [],
      "stateMutability": "nonpayable",
      "type": "function"
    },
    {
      "inputs": [
        {
          "internalType": "bytes32[]",
          "name": "_contractNameHashes",
          "type": "bytes32[]"
        },
        {
          "internalType": "address[]",
          "name": "_contractAddresses",
          "type": "address[]"
        }
      ],
      "name": "updateContractAddresses",
      "outputs": [],
      "stateMutability": "nonpayable",
      "type": "function"
    }
  ],
  "bytecode": "0x60a06040523480156200001157600080fd5b5060405162002fdb38038062002fdb833981810160405260808110156200003757600080fd5b5080516020820151604083015160609093015191929091838383838284806001600160a01b0381161562000070576200007081620000f0565b506001600160a01b038116620000c0576040805162461bcd60e51b815260206004820152601060248201526f5f676f7665726e616e6365207a65726f60801b604482015290519081900360640190fd5b50620000cc81620001d4565b5060609190911b6001600160601b03191660805260025550620001f8945050505050565b600154600160a01b900460ff161562000150576040805162461bcd60e51b815260206004820152601460248201527f696e697469616c6973656420213d2066616c7365000000000000000000000000604482015290519081900360640190fd5b6001805460ff60a01b1916600160a01b179055600054604080516001600160a01b039283168152918316602083015280517f434a2db650703b36c824e745330d6397cdaa9ee2cc891a4938ae853e1c50b68d9281900390910190a1600080546001600160a01b039092166001600160a01b0319928316179055600180549091169055565b7f714f205b2abd25bef1d06a1af944e38c113fe6160375c4e1d6d5cf28848e771955565b60805160601c612db662000225600039806119cd5280611c3f528061260d52806129005250612db66000f3fe608060405234801561001057600080fd5b50600436106101a95760003560e01c806360f7ac97116100f9578063b00c0b7611610097578063d38bfff411610071578063d38bfff4146109e4578063d873617114610a0a578063f262b9b414610a27578063f937d6ad14610ad8576101a9565b8063b00c0b76146107dc578063b06cbaf7146108ff578063c373a08e146109be576101a9565b806398dccfc2116100d357806398dccfc2146106c95780639d6a890f146106e65780639dc950ab1461070c578063aa89dfd414610738576101a9565b806360f7ac97146105e65780636a681d08146105ee5780637ecfcfa3146106a6576101a9565b80633de2cb1c116101665780635267a15d116101405780635267a15d1461052b5780635aa6e675146105335780635c048c121461053b5780635d36b190146105de576101a9565b80633de2cb1c14610336578063468f48f81461036257806347ed51b114610511576101a9565b806309fcb400146101ae57806311a7aaaa1461021b5780631546224a1461023f5780632ee96140146102f2578063345705a41461031157806338b5f8691461032e575b600080fd5b6101cb600480360360208110156101c457600080fd5b5035610ae0565b60408051602080825283518183015283519192839290830191858101910280838360005b838110156102075781810151838201526020016101ef565b505050509050019250505060405180910390f35b610223610bab565b604080516001600160a01b039092168252519081900360200190f35b6101cb6004803603606081101561025557600080fd5b6001600160a01b038235169190810190604081016020820135600160201b81111561027f57600080fd5b82018360208201111561029157600080fd5b803590602001918460208302840111600160201b831117156102b257600080fd5b9190808060200260200160405190810160405280939291908181526020018383602002808284376000920191909152509295505091359250610bba915050565b61030f6004803603602081101561030857600080fd5b5035610bd1565b005b61030f6004803603602081101561032757600080fd5b5035610bde565b610223610ca7565b61030f6004803603604081101561034c57600080fd5b506001600160a01b038135169060200135610cb6565b6101cb600480360360a081101561037857600080fd5b810190602081018135600160201b81111561039257600080fd5b8201836020820111156103a457600080fd5b803590602001918460208302840111600160201b831117156103c557600080fd5b9190808060200260200160405190810160405280939291908181526020018383602002808284376000920191909152509295949360208101935035915050600160201b81111561041457600080fd5b82018360208201111561042657600080fd5b803590602001918460208302840111600160201b8311171561044757600080fd5b91908080602002602001604051908101604052809392919081815260200183836020028082843760009201919091525092958435959094909350604081019250602001359050600160201b81111561049e57600080fd5b8201836020820111156104b057600080fd5b803590602001918460208302840111600160201b831117156104d157600080fd5b9190808060200260200160405190810160405280939291908181526020018383602002808284376000920191909152509295505091359250610d5d915050565b610519610d78565b60408051918252519081900360200190f35b610223610d7e565b610223610da3565b6105196004803603604081101561055157600080fd5b810190602081018135600160201b81111561056b57600080fd5b82018360208201111561057d57600080fd5b803590602001918460208302840111600160201b8311171561059e57600080fd5b9190808060200260200160405190810160405280939291908181526020018383602002808284376000920191909152509295505091359250610db2915050565b61030f610dc7565b610223610e89565b6101cb6004803603608081101561060457600080fd5b6001600160a01b0382351691602081013591810190606081016040820135600160201b81111561063357600080fd5b82018360208201111561064557600080fd5b803590602001918460208302840111600160201b8311171561066657600080fd5b9190808060200260200160405190810160405280939291908181526020018383602002808284376000920191909152509295505091359250610e98915050565b61030f600480360360408110156106bc57600080fd5b5080359060200135610eb1565b610519600480360360208110156106df57600080fd5b5035611173565b61030f600480360360208110156106fc57600080fd5b50356001600160a01b0316611185565b61030f6004803603604081101561072257600080fd5b506001600160a01b03813516906020013561125f565b6101cb6004803603602081101561074e57600080fd5b810190602081018135600160201b81111561076857600080fd5b82018360208201111561077a57600080fd5b803590602001918460018302840111600160201b8311171561079b57600080fd5b91908080601f016020809104026020016040519081016040528093929190818152602001838380828437600092019190915250929550611470945050505050565b61030f600480360360408110156107f257600080fd5b810190602081018135600160201b81111561080c57600080fd5b82018360208201111561081e57600080fd5b803590602001918460208302840111600160201b8311171561083f57600080fd5b9190808060200260200160405190810160405280939291908181526020018383602002808284376000920191909152509295949360208101935035915050600160201b81111561088e57600080fd5b8201836020820111156108a057600080fd5b803590602001918460208302840111600160201b831117156108c157600080fd5b919080806020026020016040519081016040528093929190818152602001838360200280828437600092019190915250929550611558945050505050565b6109256004803603602081101561091557600080fd5b50356001600160a01b03166115ff565b604051808060200180602001838103835285818151815260200191508051906020019060200280838360005b83811015610969578181015183820152602001610951565b50505050905001838103825284818151815260200191508051906020019060200280838360005b838110156109a8578181015183820152602001610990565b5050505090500194505050505060405180910390f35b61030f600480360360208110156109d457600080fd5b50356001600160a01b0316611803565b61030f600480360360208110156109fa57600080fd5b50356001600160a01b031661185f565b61030f60048036036020811015610a2057600080fd5b50356118d8565b6101cb60048036036040811015610a3d57600080fd5b6001600160a01b038235169190810190604081016020820135600160201b811115610a6757600080fd5b820183602082011115610a7957600080fd5b803590602001918460208302840111600160201b83111715610a9a57600080fd5b9190808060200260200160405190810160405280939291908181526020018383602002808284376000920191909152509295506119bf945050505050565b6102236119cb565b60008181526003602052604090205460609080610b3f576040805162461bcd60e51b8152602060048201526018602482015277119514d3c81a5b99195e081b9bdd081cdd5c1c1bdc9d195960421b604482015290519081900360640190fd5b60008381526004602090815260409182902080548351818402810184019094528084529091830182828015610b9d57602002820191906000526020600020905b81546001600160a01b03168152600190910190602001808311610b7f575b50505050509150505b919050565b6006546001600160a01b031681565b6060610bc78484846119ef565b90505b9392505050565b610bd9611be7565b600255565b6006546001600160a01b03163314610c31576040805162461bcd60e51b815260206004820152601160248201527037b7363c90333a39b79036b0b730b3b2b960791b604482015290519081900360640190fd5b60008181526003602052604090205415610c92576040805162461bcd60e51b815260206004820152601760248201527f77686974656c69737420616c7265616479206578697374000000000000000000604482015290519081900360640190fd5b60025460009182526003602052604090912055565b6005546001600160a01b031681565b610cbf82611c3a565b15610d03576040805162461bcd60e51b815260206004820152600f60248201526e74727573746564206164647265737360881b604482015290519081900360640190fd5b6000610d0f8383611db5565b905080610d58576040805162461bcd60e51b8152602060048201526012602482015271766f746520706f77657220746f6f206c6f7760701b604482015290519081900360640190fd5b505050565b6060610d6c868686868661203f565b90505b95945050505050565b60025481565b7f714f205b2abd25bef1d06a1af944e38c113fe6160375c4e1d6d5cf28848e77195490565b6000546001600160a01b031681565b6000610dbe83836121c9565b90505b92915050565b6001546001600160a01b03163314610e16576040805162461bcd60e51b815260206004820152600d60248201526c1b9bdd0818db185a5b585a5b9d609a1b604482015290519081900360640190fd5b600054600154604080516001600160a01b03938416815292909116602083015280517f434a2db650703b36c824e745330d6397cdaa9ee2cc891a4938ae853e1c50b68d9281900390910190a160018054600080546001600160a01b03199081166001600160a01b03841617909155169055565b6001546001600160a01b031681565b6060610ea685858585612261565b90505b949350505050565b610eb9611be7565b60008281526003602090815260408083208490556004909152902080548210610ee2575061116f565b6005546040805163d75f6d8160e01b81526004810186905290516000926001600160a01b03169163d75f6d81916024808301926020929190829003018186803b158015610f2e57600080fd5b505afa158015610f42573d6000803e3d6000fd5b505050506040513d6020811015610f5857600080fd5b5051825460408051602083810282018101909252828152929350600092610fc1928592879190830182828015610fb757602002820191906000526020600020905b81546001600160a01b03168152600190910190602001808311610f99575b50505050506122c4565b805190915084810360008167ffffffffffffffff81118015610fe257600080fd5b5060405190808252806020026020018201604052801561100c578160200160208202803683370190505b50905060005b8281101561115d5760006110268686612537565b905087818154811061103457fe5b9060005260206000200160009054906101000a90046001600160a01b031683838151811061105e57fe5b60200260200101906001600160a01b031690816001600160a01b031681525050600185038110156111205787600186038154811061109857fe5b9060005260206000200160009054906101000a90046001600160a01b03168882815481106110c257fe5b9060005260206000200160006101000a8154816001600160a01b0302191690836001600160a01b031602179055508560018603815181106110ff57fe5b602002602001015186828151811061111357fe5b6020026020010181815250505b8780548061112a57fe5b600082815260209020810160001990810180546001600160a01b0319169055908101909155949094019350600101611012565b50611168818961259b565b5050505050505b5050565b60036020526000908152604090205481565b600154600160a01b900460ff16156111db576040805162461bcd60e51b8152602060048201526014602482015273696e697469616c6973656420213d2066616c736560601b604482015290519081900360640190fd5b6001805460ff60a01b1916600160a01b179055600054604080516001600160a01b039283168152918316602083015280517f434a2db650703b36c824e745330d6397cdaa9ee2cc891a4938ae853e1c50b68d9281900390910190a1600080546001600160a01b039092166001600160a01b0319928316179055600180549091169055565b61126882611c3a565b6112af576040805162461bcd60e51b81526020600482015260136024820152726e6f742074727573746564206164647265737360681b604482015290519081900360640190fd5b6000818152600460205260408120805490915b8181101561130857846001600160a01b03168382815481106112e057fe5b6000918252602090912001546001600160a01b0316141561130057611308565b6001016112c2565b81811061135c576040805162461bcd60e51b815260206004820152601f60248201527f747275737465642061646472657373206e6f742077686974656c697374656400604482015290519081900360640190fd5b6040805160018082528183019092526000916020808301908036833701905050905083828154811061138a57fe5b600091825260208220015482516001600160a01b039091169183916113ab57fe5b60200260200101906001600160a01b031690816001600160a01b0316815250508360018403815481106113da57fe5b9060005260206000200160009054906101000a90046001600160a01b031684838154811061140457fe5b9060005260206000200160006101000a8154816001600160a01b0302191690836001600160a01b031602179055508380548061143c57fe5b600082815260209020810160001990810180546001600160a01b0319169055019055611468818661259b565b505050505050565b600554604051630e848da360e41b81526020600482018181528451602484015284516060946000946001600160a01b039091169363e848da3093889390928392604490910191908501908083838b5b838110156114d75781810151838201526020016114bf565b50505050905090810190601f1680156115045780820380516001836020036101000a031916815260200191505b509250505060206040518083038186803b15801561152157600080fd5b505afa158015611535573d6000803e3d6000fd5b505050506040513d602081101561154b57600080fd5b50519050610bca81610ae0565b611560610d7e565b6001600160a01b0316336001600160a01b0316146115bc576040805162461bcd60e51b815260206004820152601460248201527337b7363c9030b2323932b9b9903ab83230ba32b960611b604482015290519081900360640190fd5b6115f56115f083836040518060400160405280600e81526020016d20b2323932b9b9aab83230ba32b960911b8152506126cb565b6127ef565b61116f8282612813565b60608061160b83611c3a565b1561164f576040805162461bcd60e51b815260206004820152600f60248201526e74727573746564206164647265737360881b604482015290519081900360640190fd5b600560009054906101000a90046001600160a01b03166001600160a01b031663798aac5b6040518163ffffffff1660e01b815260040160006040518083038186803b15801561169d57600080fd5b505afa1580156116b1573d6000803e3d6000fd5b505050506040513d6000823e601f3d908101601f1916820160405260208110156116da57600080fd5b8101908080516040519392919084600160201b8211156116f957600080fd5b90830190602082018581111561170e57600080fd5b82518660208202830111600160201b8211171561172a57600080fd5b82525081516020918201928201910280838360005b8381101561175757818101518382015260200161173f565b5050505090500160405250505091506000825190508067ffffffffffffffff8111801561178357600080fd5b506040519080825280602002602001820160405280156117ad578160200160208202803683370190505b50915060005b818110156117fc576117d8858583815181106117cb57fe5b6020026020010151611db5565b8382815181106117e457fe5b911515602092830291909101909101526001016117b3565b5050915091565b61180b611be7565b600180546001600160a01b0383166001600160a01b0319909116811790915560408051918252517f1f95fb40be3a947982072902a887b521248d1d8931a39eb38f84f4d6fd758b699181900360200190a150565b611867611be7565b600054604080516001600160a01b039283168152918316602083015280517f434a2db650703b36c824e745330d6397cdaa9ee2cc891a4938ae853e1c50b68d9281900390910190a1600080546001600160a01b039092166001600160a01b0319928316179055600180549091169055565b6006546001600160a01b0316331461192b576040805162461bcd60e51b815260206004820152601160248201527037b7363c90333a39b79036b0b730b3b2b960791b604482015290519081900360640190fd5b6000818152600460209081526040918290208054835181840281018401909452808452611997939283018282801561198c57602002820191906000526020600020905b81546001600160a01b0316815260019091019060200180831161196e575b50505050508261259b565b60008181526004602052604081206119ae91612d25565b600090815260036020526040812055565b6060610dbe83836122c4565b7f000000000000000000000000000000000000000000000000000000000000000081565b6060836001600160a01b031663e587497e84600186510381518110611a1057fe5b6020026020010151846040518363ffffffff1660e01b815260040180836001600160a01b0316815260200182815260200192505050602060405180830381600087803b158015611a5f57600080fd5b505af1158015611a73573d6000803e3d6000fd5b505050506040513d6020811015611a8957600080fd5b5050604080516349e3c7e560e01b815260248101849052600481019182528451604482015284516001600160a01b038716926349e3c7e592879287929182916064909101906020868101910280838360005b83811015611af3578181015183820152602001611adb565b50505050905001935050505060006040518083038186803b158015611b1757600080fd5b505afa158015611b2b573d6000803e3d6000fd5b505050506040513d6000823e601f3d908101601f191682016040526020811015611b5457600080fd5b8101908080516040519392919084600160201b821115611b7357600080fd5b908301906020820185811115611b8857600080fd5b82518660208202830111600160201b82111715611ba457600080fd5b82525081516020918201928201910280838360005b83811015611bd1578181015183820152602001611bb9565b5050505090500160405250505090509392505050565b6000546001600160a01b03163314611c38576040805162461bcd60e51b815260206004820152600f60248201526e6f6e6c7920676f7665726e616e636560881b604482015290519081900360640190fd5b565b6000807f00000000000000000000000000000000000000000000000000000000000000006001600160a01b031663ffacb84e6040518163ffffffff1660e01b815260040160006040518083038186803b158015611c9657600080fd5b505afa158015611caa573d6000803e3d6000fd5b505050506040513d6000823e601f3d908101601f191682016040526020811015611cd357600080fd5b8101908080516040519392919084600160201b821115611cf257600080fd5b908301906020820185811115611d0757600080fd5b82518660208202830111600160201b82111715611d2357600080fd5b82525081516020918201928201910280838360005b83811015611d50578181015183820152602001611d38565b50505050905001604052505050905060005b8151811015611dab57836001600160a01b0316828281518110611d8157fe5b60200260200101516001600160a01b03161415611da357600192505050610ba6565b600101611d62565b5060009392505050565b60008181526003602052604081205480611e11576040805162461bcd60e51b8152602060048201526018602482015277119514d3c81a5b99195e081b9bdd081cdd5c1c1bdc9d195960421b604482015290519081900360640190fd5b6000838152600460205260408120805490916001820167ffffffffffffffff81118015611e3d57600080fd5b50604051908082528060200260200182016040528015611e67578160200160208202803683370190505b50905060005b82811015611ee2576000848281548110611e8357fe5b6000918252602090912001546001600160a01b0390811691508916811415611eb45760019650505050505050610dc1565b80838381518110611ec157fe5b6001600160a01b039092166020928302919091019091015250600101611e6d565b5086818381518110611ef057fe5b60200260200101906001600160a01b031690816001600160a01b03168152505083821015611f5a5782546001810184556000848152602090200180546001600160a01b0319166001600160a01b038916179055611f4d87876128ba565b6001945050505050610dc1565b6000611f6682886121c9565b905082811415611f7e57600095505050505050610dc1565b60408051600180825281830190925260009160208083019080368337019050509050828281518110611fac57fe5b602002602001015181600081518110611fc157fe5b60200260200101906001600160a01b031690816001600160a01b03168152505088858381548110611fee57fe5b9060005260206000200160006101000a8154816001600160a01b0302191690836001600160a01b03160217905550612026818961259b565b61203089896128ba565b50600198975050505050505050565b6060825167ffffffffffffffff8111801561205957600080fd5b50604051908082528060200260200182016040528015612083578160200160208202803683370190505b50905060005b83518110156120b35760008282815181106120a057fe5b6020908102919091010152600101612089565b50836120be57610d6f565b60006120d285670de0b6b3a7640000612975565b905060005b87518110156121be5760008882815181106120ee57fe5b6020026020010151905060006001600160a01b0316816001600160a01b0316146121b557600061211f8288886119ef565b905060005b87518110156121b257600061216a8b868151811061213e57fe5b60200260200101518785858151811061215357fe5b60200260200101516129ce9092919063ffffffff16565b90506121928188848151811061217c57fe5b6020026020010151612ada90919063ffffffff16565b87838151811061219e57fe5b602090810291909101015250600101612124565b50505b506001016120d7565b505095945050505050565b6005546040805163d75f6d8160e01b815260048101849052905160009283926001600160a01b039091169163d75f6d8191602480820192602092909190829003018186803b15801561221a57600080fd5b505afa15801561222e573d6000803e3d6000fd5b505050506040513d602081101561224457600080fd5b50519050600061225482866122c4565b9050610d6f818251612537565b606061226e8584846119ef565b90508361227a57610ea9565b60005b83518110156122bb5761229c64e8d4a510008684848151811061215357fe5b8282815181106122a857fe5b602090810291909101015260010161227d565b50949350505050565b6060806060600080600080886001600160a01b0316638357d08c6040518163ffffffff1660e01b815260040160006040518083038186803b15801561230857600080fd5b505afa15801561231c573d6000803e3d6000fd5b505050506040513d6000823e601f3d908101601f1916820160405260c081101561234557600080fd5b8101908080516040519392919084600160201b82111561236457600080fd5b90830190602082018581111561237957600080fd5b82518660208202830111600160201b8211171561239557600080fd5b82525081516020918201928201910280838360005b838110156123c25781810151838201526020016123aa565b5050505090500160405260200180516040519392919084600160201b8211156123ea57600080fd5b9083019060208201858111156123ff57600080fd5b82518660208202830111600160201b8211171561241b57600080fd5b82525081516020918201928201910280838360005b83811015612448578181015183820152602001612430565b5050505090500160405260200180519060200190929190805190602001909291908051906020019092919080519060200190929190505050809650819750829850839950849a50859b50505050505050600061250a8a6001600160a01b0316639edbf0076040518163ffffffff1660e01b815260040160206040518083038186803b1580156124d657600080fd5b505afa1580156124ea573d6000803e3d6000fd5b505050506040513d602081101561250057600080fd5b5051868b85612261565b9050600061251b8888878d8761203f565b9050612528828286612b34565b9b9a5050505050505050505050565b6000806000905060008460008151811061254d57fe5b6020026020010151905060005b8481101561259157600086828151811061257057fe5b60200260200101519050828111612588578193508092505b5060010161255a565b5090949350505050565b60005b825181101561260a577f33359f2769756ca8d0da4683f25ee440744d6f18bfb166dbfb59315a8c62b0168382815181106125d457fe5b60200260200101518360405180836001600160a01b031681526020018281526020019250505060405180910390a160010161259e565b507f00000000000000000000000000000000000000000000000000000000000000006001600160a01b03166376794efb83836040518363ffffffff1660e01b81526004018080602001838152602001828103825284818151815260200191508051906020019060200280838360005b83811015612691578181015183820152602001612679565b505050509050019350505050600060405180830381600087803b1580156126b757600080fd5b505af1158015611468573d6000803e3d6000fd5b600080826040516020018080602001828103825283818151815260200191508051906020019080838360005b8381101561270f5781810151838201526020016126f7565b50505050905090810190601f16801561273c5780820380516001836020036101000a031916815260200191505b50925050506040516020818303038152906040528051906020012090506000805b86518110156127a45786818151811061277257fe5b602002602001015183141561279c5785818151811061278d57fe5b602002602001015191506127a4565b60010161275d565b506001600160a01b038116610d6f576040805162461bcd60e51b815260206004820152600c60248201526b61646472657373207a65726f60a01b604482015290519081900360640190fd5b7f714f205b2abd25bef1d06a1af944e38c113fe6160375c4e1d6d5cf28848e771955565b61284282826040518060400160405280600c81526020016b4674736f526567697374727960a01b8152506126cb565b600560006101000a8154816001600160a01b0302191690836001600160a01b0316021790555061289682826040518060400160405280600b81526020016a233a39b7a6b0b730b3b2b960a91b8152506126cb565b600680546001600160a01b0319166001600160a01b03929092169190911790555050565b604080516001600160a01b03841681526020810183905281517f66a8b13abe95391d1851f5bc319f3dde54ce8f2f40a5fe226aa3251d805832e3929181900390910190a17f00000000000000000000000000000000000000000000000000000000000000006001600160a01b0316639d986f9183836040518363ffffffff1660e01b815260040180836001600160a01b0316815260200182815260200192505050600060405180830381600087803b1580156126b757600080fd5b60008261298457506000610dc1565b8282028284828161299157fe5b0414610dbe5760405162461bcd60e51b8152600401808060200182810382526021815260200180612d606021913960400191505060405180910390fd5b6000808211612a17576040805162461bcd60e51b815260206004820152601060248201526f4469766973696f6e206279207a65726f60801b604482015290519081900360640190fd5b83612a2457506000610bca565b83830283858281612a3157fe5b041415612a4a57828181612a4157fe5b04915050610bca565b6000838681612a5557fe5b0490506000848781612a6357fe5b0690506000858781612a7157fe5b0490506000868881612a7f57fe5b069050612acd612a9988612a938685612975565b90612c79565b612ac7612aa68686612975565b612ac7612ab38987612975565b612ac78d612ac18c8b612975565b90612975565b90612ada565b9998505050505050505050565b600082820183811015610dbe576040805162461bcd60e51b815260206004820152601b60248201527f536166654d6174683a206164646974696f6e206f766572666c6f770000000000604482015290519081900360640190fd5b60606000612b4184612ce0565b90506000612b4e86612ce0565b90506000808311612b60576000612b62565b845b90506000808311612b74576000612b7a565b81612710035b9050875167ffffffffffffffff81118015612b9457600080fd5b50604051908082528060200260200182016040528015612bbe578160200160208202803683370190505b50945060005b8851811015612c6d5760008215612c0b57612c088a8381518110612be457fe5b602002602001015164e8d4a51000026127108702856129ce9092919063ffffffff16565b90505b60008415612c4957612c468a8481518110612c2257fe5b602002602001015164e8d4a51000026127108902876129ce9092919063ffffffff16565b90505b808201888481518110612c5857fe5b60209081029190910101525050600101612bc4565b50505050509392505050565b6000808211612ccf576040805162461bcd60e51b815260206004820152601a60248201527f536166654d6174683a206469766973696f6e206279207a65726f000000000000604482015290519081900360640190fd5b818381612cd857fe5b049392505050565b600080805b8351811015612d1e57612d14848281518110612cfd57fe5b602002602001015183612ada90919063ffffffff16565b9150600101612ce5565b5092915050565b5080546000825590600052602060002090810190612d439190612d46565b50565b5b80821115612d5b5760008155600101612d47565b509056fe536166654d6174683a206d756c7469706c69636174696f6e206f766572666c6f77a26469706673582212200995b306428d2da06c3973b8ad3b653bce3786998fdf3f018ca8f9d709d41d9a64736f6c63430007060033",
  "linkReferences": {},
  "deployedLinkReferences": {}
}