{
  "_format": "hh-sol-artifact-1",
  "contractName": "FlashLoanMock",
  "sourceName": "contracts/token/mock/FlashLoanMock.sol",
  "abi": [
    {
      "inputs": [
        {
          "internalType": "contract FlashLenderMock",
          "name": "_flashLender",
          "type": "address"
        },
        {
          "internalType": "contract WNat",
          "name": "_wNat",
          "type": "address"
        },
        {
          "internalType": "contract MockFtso",
          "name": "_ftso",
          "type": "address"
        }
      ],
      "stateMutability": "nonpayable",
      "type": "constructor"
    },
    {
      "inputs": [
        {
          "internalType": "uint256",
          "name": "_amount",
          "type": "uint256"
        }
      ],
      "name": "cashWnat",
      "outputs": [],
      "stateMutability": "nonpayable",
      "type": "function"
    },
    {
      "inputs": [
        {
          "internalType": "uint256",
          "name": "_amount",
          "type": "uint256"
        }
      ],
      "name": "mintWnat",
      "outputs": [],
      "stateMutability": "nonpayable",
      "type": "function"
    },
    {
      "inputs": [
        {
          "internalType": "contract IFlashLenderMock",
          "name": "_lender",
          "type": "address"
        }
      ],
      "name": "receiveNativeLoan",
      "outputs": [],
      "stateMutability": "payable",
      "type": "function"
    },
    {
      "inputs": [
        {
          "internalType": "uint256",
          "name": "_epochId",
          "type": "uint256"
        },
        {
          "internalType": "uint256",
          "name": "_price",
          "type": "uint256"
        },
        {
          "internalType": "uint256",
          "name": "_random",
          "type": "uint256"
        }
      ],
      "name": "revealPrice",
      "outputs": [],
      "stateMutability": "nonpayable",
      "type": "function"
    },
    {
      "inputs": [
        {
          "internalType": "uint256",
          "name": "_epochId",
          "type": "uint256"
        },
        {
          "internalType": "uint256",
          "name": "_price",
          "type": "uint256"
        },
        {
          "internalType": "uint256",
          "name": "_random",
          "type": "uint256"
        }
      ],
      "name": "submitPriceHash",
      "outputs": [],
      "stateMutability": "nonpayable",
      "type": "function"
    },
    {
      "inputs": [
        {
          "internalType": "uint256",
          "name": "_value",
          "type": "uint256"
        }
      ],
      "name": "testRequestLoan",
      "outputs": [],
      "stateMutability": "nonpayable",
      "type": "function"
    },
    {
      "stateMutability": "payable",
      "type": "receive"
    }
  ],
  "bytecode": "0x608060405234801561001057600080fd5b5060405161069a38038061069a8339818101604052606081101561003357600080fd5b5080516020820151604090920151600080546001600160a01b039384166001600160a01b031991821617909155600180549484169482169490941790935560028054929091169190921617905561060b8061008f6000396000f3fe6080604052600436106100585760003560e01c80627f409a146100645780632036f26114610090578063360355e6146100c657806353048c75146100f05780636eb6d060146101265780637b4abd71146101505761005f565b3661005f57005b600080fd5b34801561007057600080fd5b5061008e6004803603602081101561008757600080fd5b5035610176565b005b34801561009c57600080fd5b5061008e600480360360608110156100b357600080fd5b50803590602081013590604001356101de565b3480156100d257600080fd5b5061008e600480360360208110156100e957600080fd5b5035610280565b3480156100fc57600080fd5b5061008e6004803603606081101561011357600080fd5b5080359060208101359060400135610341565b34801561013257600080fd5b5061008e6004803603602081101561014957600080fd5b50356103b9565b61008e6004803603602081101561016657600080fd5b50356001600160a01b03166104c9565b60015460408051632e1a7d4d60e01b81526004810184905290516001600160a01b0390921691632e1a7d4d9160248082019260009290919082900301818387803b1580156101c357600080fd5b505af11580156101d7573d6000803e3d6000fd5b5050505050565b60408051602080820185905281830184905230606080840191909152835180840390910181526080830180855281519190920120600254630fd0a0d360e31b9092526084830187905260a4830181905292516001600160a01b0390911691637e8506989160c480830192600092919082900301818387803b15801561026257600080fd5b505af1158015610276573d6000803e3d6000fd5b5050505050505050565b804710156102d5576040805162461bcd60e51b815260206004820181905260248201527f4e6f7420656e6f75676874206e61746976657320746f206d696e7420774e6174604482015290519081900360640190fd5b600160009054906101000a90046001600160a01b03166001600160a01b031663d0e30db0476040518263ffffffff1660e01b81526004016000604051808303818588803b15801561032557600080fd5b505af1158015610339573d6000803e3d6000fd5b505050505050565b600254604080516353048c7560e01b815260048101869052602481018590526044810184905290516001600160a01b03909216916353048c759160648082019260009290919082900301818387803b15801561039c57600080fd5b505af11580156103b0573d6000803e3d6000fd5b50505050505050565b60038190554715610411576040805162461bcd60e51b815260206004820152601960248201527f5374617274696e672062616c616e6365206e6f74207a65726f00000000000000604482015290519081900360640190fd5b6000805460408051630cbfb50960e31b81526004810185905290516001600160a01b03909216926365fda8489260248084019382900301818387803b15801561045957600080fd5b505af115801561046d573d6000803e3d6000fd5b50505050476000146104c6576040805162461bcd60e51b815260206004820152601760248201527f456e64696e672062616c616e6365206e6f74207a65726f000000000000000000604482015290519081900360640190fd5b50565b60035434146105095760405162461bcd60e51b815260040180806020018281038252602981526020018061058c6029913960400191505060405180910390fd5b3447146105475760405162461bcd60e51b81526004018080602001828103825260218152602001806105b56021913960400191505060405180910390fd5b610550346104c6565b806001600160a01b031663185e8092346040518263ffffffff1660e01b81526004016000604051808303818588803b15801561032557600080fdfe4c6f616e2076616c756520646f6573206e6f74206d61746368207265717565737465642076616c756542616c616e636520646f6573206e6f74206d61746368206c6f616e2076616c7565a26469706673582212203616a1db75105f9c646a9445df236949dc3c28aff22a4b0a7ec8610b7b467d2864736f6c63430007060033",
  "linkReferences": {},
  "deployedLinkReferences": {}
}