{
  "_format": "hh-sol-artifact-1",
  "contractName": "FlashLenderMock",
  "sourceName": "contracts/token/mock/FlashLoanMock.sol",
  "abi": [
    {
      "inputs": [
        {
          "internalType": "address payable",
          "name": "target",
          "type": "address"
        },
        {
          "internalType": "uint256",
          "name": "value",
          "type": "uint256"
        }
      ],
      "name": "donateTo",
      "outputs": [],
      "stateMutability": "nonpayable",
      "type": "function"
    },
    {
      "inputs": [
        {
          "internalType": "uint256",
          "name": "value",
          "type": "uint256"
        }
      ],
      "name": "requestNativeLoan",
      "outputs": [],
      "stateMutability": "nonpayable",
      "type": "function"
    },
    {
      "inputs": [],
      "name": "returnNativeLoan",
      "outputs": [],
      "stateMutability": "payable",
      "type": "function"
    },
    {
      "stateMutability": "payable",
      "type": "receive"
    }
  ],
  "bytecode": "0x608060405234801561001057600080fd5b50610333806100206000396000f3fe6080604052600436106100385760003560e01c8063185e809214610044578063532f96cd1461004e57806365fda848146100875761003f565b3661003f57005b600080fd5b61004c6100b1565b005b34801561005a57600080fd5b5061004c6004803603604081101561007157600080fd5b506001600160a01b0381351690602001356100eb565b34801561009357600080fd5b5061004c600480360360208110156100aa57600080fd5b503561017b565b600034116100be57600080fd5b3360009081526020819052604090205434146100d957600080fd5b33600090815260208190526040812055565b80471015610140576040805162461bcd60e51b815260206004820152601d60248201527f4e6f7420656e6f7567682066756e647320666f7220646f6e6174696f6e000000604482015290519081900360640190fd5b6040516001600160a01b0383169082156108fc029083906000818181858888f19350505050158015610176573d6000803e3d6000fd5b505050565b804710156101d0576040805162461bcd60e51b815260206004820152601960248201527f4e6f7420656e6f7567682066756e647320666f72206c6f616e00000000000000604482015290519081900360640190fd5b3360009081526020819052604090205415610232576040805162461bcd60e51b815260206004820152601f60248201527f43616e206f6e6c79206c6f616e206f6e636520746f2061206164647265737300604482015290519081900360640190fd5b336000818152602081905260408082208490558051637b4abd7160e01b81523060048201529051637b4abd719285926024808201939182900301818588803b15801561027d57600080fd5b505af1158015610291573d6000803e3d6000fd5b5050336000908152602081905260409020541592506102fa915050576040805162461bcd60e51b815260206004820152601b60248201527f466c617368206c6f616e206d7573742062652072657475726e65640000000000604482015290519081900360640190fd5b5056fea264697066735822122023ac0a422fff8f3e6115cac7087d5f08d4fa59432082422581bf7b3e1914dc5c64736f6c63430007060033",
  "linkReferences": {},
  "deployedLinkReferences": {}
}