{
  "_format": "hh-sol-artifact-1",
  "contractName": "VPTokenMock",
  "sourceName": "contracts/token/mock/VPTokenMock.sol",
  "abi": [
    {
      "inputs": [
        {
          "internalType": "address",
          "name": "_governance",
          "type": "address"
        },
        {
          "internalType": "string",
          "name": "_name",
          "type": "string"
        },
        {
          "internalType": "string",
          "name": "_symbol",
          "type": "string"
        }
      ],
      "stateMutability": "nonpayable",
      "type": "constructor"
    },
    {
      "anonymous": false,
      "inputs": [
        {
          "indexed": true,
          "internalType": "address",
          "name": "owner",
          "type": "address"
        },
        {
          "indexed": true,
          "internalType": "address",
          "name": "spender",
          "type": "address"
        },
        {
          "indexed": false,
          "internalType": "uint256",
          "name": "value",
          "type": "uint256"
        }
      ],
      "name": "Approval",
      "type": "event"
    },
    {
      "anonymous": false,
      "inputs": [
        {
          "indexed": false,
          "internalType": "uint256",
          "name": "_blockNumber",
          "type": "uint256"
        }
      ],
      "name": "CreatedTotalSupplyCache",
      "type": "event"
    },
    {
      "anonymous": false,
      "inputs": [
        {
          "indexed": false,
          "internalType": "address",
          "name": "proposedGovernance",
          "type": "address"
        }
      ],
      "name": "GovernanceProposed",
      "type": "event"
    },
    {
      "anonymous": false,
      "inputs": [
        {
          "indexed": false,
          "internalType": "address",
          "name": "oldGovernance",
          "type": "address"
        },
        {
          "indexed": false,
          "internalType": "address",
          "name": "newGoveranance",
          "type": "address"
        }
      ],
      "name": "GovernanceUpdated",
      "type": "event"
    },
    {
      "anonymous": false,
      "inputs": [
        {
          "indexed": true,
          "internalType": "address",
          "name": "from",
          "type": "address"
        },
        {
          "indexed": true,
          "internalType": "address",
          "name": "to",
          "type": "address"
        },
        {
          "indexed": false,
          "internalType": "uint256",
          "name": "value",
          "type": "uint256"
        }
      ],
      "name": "Transfer",
      "type": "event"
    },
    {
      "anonymous": false,
      "inputs": [
        {
          "indexed": false,
          "internalType": "uint256",
          "name": "_contractType",
          "type": "uint256"
        },
        {
          "indexed": false,
          "internalType": "address",
          "name": "_oldContractAddress",
          "type": "address"
        },
        {
          "indexed": false,
          "internalType": "address",
          "name": "_newContractAddress",
          "type": "address"
        }
      ],
      "name": "VotePowerContractChanged",
      "type": "event"
    },
    {
      "inputs": [
        {
          "internalType": "address",
          "name": "owner",
          "type": "address"
        },
        {
          "internalType": "address",
          "name": "spender",
          "type": "address"
        }
      ],
      "name": "allowance",
      "outputs": [
        {
          "internalType": "uint256",
          "name": "",
          "type": "uint256"
        }
      ],
      "stateMutability": "view",
      "type": "function"
    },
    {
      "inputs": [
        {
          "internalType": "address",
          "name": "spender",
          "type": "address"
        },
        {
          "internalType": "uint256",
          "name": "amount",
          "type": "uint256"
        }
      ],
      "name": "approve",
      "outputs": [
        {
          "internalType": "bool",
          "name": "",
          "type": "bool"
        }
      ],
      "stateMutability": "nonpayable",
      "type": "function"
    },
    {
      "inputs": [
        {
          "internalType": "address",
          "name": "_owner",
          "type": "address"
        },
        {
          "internalType": "uint256",
          "name": "_count",
          "type": "uint256"
        }
      ],
      "name": "balanceHistoryCleanup",
      "outputs": [
        {
          "internalType": "uint256",
          "name": "",
          "type": "uint256"
        }
      ],
      "stateMutability": "nonpayable",
      "type": "function"
    },
    {
      "inputs": [
        {
          "internalType": "address",
          "name": "account",
          "type": "address"
        }
      ],
      "name": "balanceOf",
      "outputs": [
        {
          "internalType": "uint256",
          "name": "",
          "type": "uint256"
        }
      ],
      "stateMutability": "view",
      "type": "function"
    },
    {
      "inputs": [
        {
          "internalType": "address",
          "name": "_owner",
          "type": "address"
        },
        {
          "internalType": "uint256",
          "name": "_blockNumber",
          "type": "uint256"
        }
      ],
      "name": "balanceOfAt",
      "outputs": [
        {
          "internalType": "uint256",
          "name": "",
          "type": "uint256"
        }
      ],
      "stateMutability": "view",
      "type": "function"
    },
    {
      "inputs": [
        {
          "internalType": "address[]",
          "name": "_owners",
          "type": "address[]"
        },
        {
          "internalType": "uint256",
          "name": "_blockNumber",
          "type": "uint256"
        }
      ],
      "name": "batchVotePowerOfAt",
      "outputs": [
        {
          "internalType": "uint256[]",
          "name": "",
          "type": "uint256[]"
        }
      ],
      "stateMutability": "view",
      "type": "function"
    },
    {
      "inputs": [
        {
          "internalType": "uint256",
          "name": "_amount",
          "type": "uint256"
        }
      ],
      "name": "burn",
      "outputs": [],
      "stateMutability": "nonpayable",
      "type": "function"
    },
    {
      "inputs": [],
      "name": "claimGovernance",
      "outputs": [],
      "stateMutability": "nonpayable",
      "type": "function"
    },
    {
      "inputs": [],
      "name": "cleanupBlockNumber",
      "outputs": [
        {
          "internalType": "uint256",
          "name": "",
          "type": "uint256"
        }
      ],
      "stateMutability": "view",
      "type": "function"
    },
    {
      "inputs": [],
      "name": "decimals",
      "outputs": [
        {
          "internalType": "uint8",
          "name": "",
          "type": "uint8"
        }
      ],
      "stateMutability": "view",
      "type": "function"
    },
    {
      "inputs": [
        {
          "internalType": "address",
          "name": "spender",
          "type": "address"
        },
        {
          "internalType": "uint256",
          "name": "subtractedValue",
          "type": "uint256"
        }
      ],
      "name": "decreaseAllowance",
      "outputs": [
        {
          "internalType": "bool",
          "name": "",
          "type": "bool"
        }
      ],
      "stateMutability": "nonpayable",
      "type": "function"
    },
    {
      "inputs": [
        {
          "internalType": "address",
          "name": "_to",
          "type": "address"
        },
        {
          "internalType": "uint256",
          "name": "_bips",
          "type": "uint256"
        }
      ],
      "name": "delegate",
      "outputs": [],
      "stateMutability": "nonpayable",
      "type": "function"
    },
    {
      "inputs": [
        {
          "internalType": "address",
          "name": "_to",
          "type": "address"
        },
        {
          "internalType": "uint256",
          "name": "_amount",
          "type": "uint256"
        }
      ],
      "name": "delegateExplicit",
      "outputs": [],
      "stateMutability": "nonpayable",
      "type": "function"
    },
    {
      "inputs": [
        {
          "internalType": "address",
          "name": "_owner",
          "type": "address"
        }
      ],
      "name": "delegatesOf",
      "outputs": [
        {
          "internalType": "address[]",
          "name": "_delegateAddresses",
          "type": "address[]"
        },
        {
          "internalType": "uint256[]",
          "name": "_bips",
          "type": "uint256[]"
        },
        {
          "internalType": "uint256",
          "name": "_count",
          "type": "uint256"
        },
        {
          "internalType": "uint256",
          "name": "_delegationMode",
          "type": "uint256"
        }
      ],
      "stateMutability": "view",
      "type": "function"
    },
    {
      "inputs": [
        {
          "internalType": "address",
          "name": "_owner",
          "type": "address"
        },
        {
          "internalType": "uint256",
          "name": "_blockNumber",
          "type": "uint256"
        }
      ],
      "name": "delegatesOfAt",
      "outputs": [
        {
          "internalType": "address[]",
          "name": "_delegateAddresses",
          "type": "address[]"
        },
        {
          "internalType": "uint256[]",
          "name": "_bips",
          "type": "uint256[]"
        },
        {
          "internalType": "uint256",
          "name": "_count",
          "type": "uint256"
        },
        {
          "internalType": "uint256",
          "name": "_delegationMode",
          "type": "uint256"
        }
      ],
      "stateMutability": "view",
      "type": "function"
    },
    {
      "inputs": [
        {
          "internalType": "address",
          "name": "_who",
          "type": "address"
        }
      ],
      "name": "delegationModeOf",
      "outputs": [
        {
          "internalType": "uint256",
          "name": "",
          "type": "uint256"
        }
      ],
      "stateMutability": "view",
      "type": "function"
    },
    {
      "inputs": [],
      "name": "getReadVpContract",
      "outputs": [
        {
          "internalType": "contract IIVPContract",
          "name": "",
          "type": "address"
        }
      ],
      "stateMutability": "view",
      "type": "function"
    },
    {
      "inputs": [],
      "name": "getWriteVpContract",
      "outputs": [
        {
          "internalType": "contract IIVPContract",
          "name": "",
          "type": "address"
        }
      ],
      "stateMutability": "view",
      "type": "function"
    },
    {
      "inputs": [],
      "name": "governance",
      "outputs": [
        {
          "internalType": "address",
          "name": "",
          "type": "address"
        }
      ],
      "stateMutability": "view",
      "type": "function"
    },
    {
      "inputs": [],
      "name": "governanceVotePower",
      "outputs": [
        {
          "internalType": "contract IGovernanceVotePower",
          "name": "",
          "type": "address"
        }
      ],
      "stateMutability": "view",
      "type": "function"
    },
    {
      "inputs": [
        {
          "internalType": "address",
          "name": "spender",
          "type": "address"
        },
        {
          "internalType": "uint256",
          "name": "addedValue",
          "type": "uint256"
        }
      ],
      "name": "increaseAllowance",
      "outputs": [
        {
          "internalType": "bool",
          "name": "",
          "type": "bool"
        }
      ],
      "stateMutability": "nonpayable",
      "type": "function"
    },
    {
      "inputs": [
        {
          "internalType": "address",
          "name": "_governance",
          "type": "address"
        }
      ],
      "name": "initialise",
      "outputs": [],
      "stateMutability": "nonpayable",
      "type": "function"
    },
    {
      "inputs": [
        {
          "internalType": "address",
          "name": "_to",
          "type": "address"
        },
        {
          "internalType": "uint256",
          "name": "_amount",
          "type": "uint256"
        }
      ],
      "name": "mint",
      "outputs": [],
      "stateMutability": "nonpayable",
      "type": "function"
    },
    {
      "inputs": [],
      "name": "name",
      "outputs": [
        {
          "internalType": "string",
          "name": "",
          "type": "string"
        }
      ],
      "stateMutability": "view",
      "type": "function"
    },
    {
      "inputs": [
        {
          "internalType": "address",
          "name": "_governance",
          "type": "address"
        }
      ],
      "name": "proposeGovernance",
      "outputs": [],
      "stateMutability": "nonpayable",
      "type": "function"
    },
    {
      "inputs": [],
      "name": "proposedGovernance",
      "outputs": [
        {
          "internalType": "address",
          "name": "",
          "type": "address"
        }
      ],
      "stateMutability": "view",
      "type": "function"
    },
    {
      "inputs": [],
      "name": "readVotePowerContract",
      "outputs": [
        {
          "internalType": "contract IVPContractEvents",
          "name": "",
          "type": "address"
        }
      ],
      "stateMutability": "view",
      "type": "function"
    },
    {
      "inputs": [
        {
          "internalType": "address",
          "name": "_who",
          "type": "address"
        },
        {
          "internalType": "uint256",
          "name": "_blockNumber",
          "type": "uint256"
        }
      ],
      "name": "revokeDelegationAt",
      "outputs": [],
      "stateMutability": "nonpayable",
      "type": "function"
    },
    {
      "inputs": [
        {
          "internalType": "address",
          "name": "_to",
          "type": "address"
        }
      ],
      "name": "revokeDelegationAtNow",
      "outputs": [],
      "stateMutability": "nonpayable",
      "type": "function"
    },
    {
      "inputs": [
        {
          "internalType": "address",
          "name": "_cleanerContract",
          "type": "address"
        }
      ],
      "name": "setCleanerContract",
      "outputs": [],
      "stateMutability": "nonpayable",
      "type": "function"
    },
    {
      "inputs": [
        {
          "internalType": "uint256",
          "name": "_blockNumber",
          "type": "uint256"
        }
      ],
      "name": "setCleanupBlockNumber",
      "outputs": [],
      "stateMutability": "nonpayable",
      "type": "function"
    },
    {
      "inputs": [
        {
          "internalType": "address",
          "name": "_cleanupBlockNumberManager",
          "type": "address"
        }
      ],
      "name": "setCleanupBlockNumberManager",
      "outputs": [],
      "stateMutability": "nonpayable",
      "type": "function"
    },
    {
      "inputs": [
        {
          "internalType": "uint8",
          "name": "_decimals",
          "type": "uint8"
        }
      ],
      "name": "setDecimals",
      "outputs": [],
      "stateMutability": "nonpayable",
      "type": "function"
    },
    {
      "inputs": [
        {
          "internalType": "contract IIGovernanceVotePower",
          "name": "_governanceVotePower",
          "type": "address"
        }
      ],
      "name": "setGovernanceVotePower",
      "outputs": [],
      "stateMutability": "nonpayable",
      "type": "function"
    },
    {
      "inputs": [
        {
          "internalType": "contract IIVPContract",
          "name": "_vpContract",
          "type": "address"
        }
      ],
      "name": "setReadVpContract",
      "outputs": [],
      "stateMutability": "nonpayable",
      "type": "function"
    },
    {
      "inputs": [
        {
          "internalType": "contract IIVPContract",
          "name": "_vpContract",
          "type": "address"
        }
      ],
      "name": "setWriteVpContract",
      "outputs": [],
      "stateMutability": "nonpayable",
      "type": "function"
    },
    {
      "inputs": [],
      "name": "symbol",
      "outputs": [
        {
          "internalType": "string",
          "name": "",
          "type": "string"
        }
      ],
      "stateMutability": "view",
      "type": "function"
    },
    {
      "inputs": [],
      "name": "totalSupply",
      "outputs": [
        {
          "internalType": "uint256",
          "name": "",
          "type": "uint256"
        }
      ],
      "stateMutability": "view",
      "type": "function"
    },
    {
      "inputs": [
        {
          "internalType": "uint256",
          "name": "_blockNumber",
          "type": "uint256"
        }
      ],
      "name": "totalSupplyAt",
      "outputs": [
        {
          "internalType": "uint256",
          "name": "",
          "type": "uint256"
        }
      ],
      "stateMutability": "view",
      "type": "function"
    },
    {
      "inputs": [
        {
          "internalType": "uint256",
          "name": "_blockNumber",
          "type": "uint256"
        }
      ],
      "name": "totalSupplyCacheCleanup",
      "outputs": [
        {
          "internalType": "uint256",
          "name": "",
          "type": "uint256"
        }
      ],
      "stateMutability": "nonpayable",
      "type": "function"
    },
    {
      "inputs": [
        {
          "internalType": "uint256",
          "name": "_count",
          "type": "uint256"
        }
      ],
      "name": "totalSupplyHistoryCleanup",
      "outputs": [
        {
          "internalType": "uint256",
          "name": "",
          "type": "uint256"
        }
      ],
      "stateMutability": "nonpayable",
      "type": "function"
    },
    {
      "inputs": [],
      "name": "totalVotePower",
      "outputs": [
        {
          "internalType": "uint256",
          "name": "",
          "type": "uint256"
        }
      ],
      "stateMutability": "view",
      "type": "function"
    },
    {
      "inputs": [
        {
          "internalType": "uint256",
          "name": "_blockNumber",
          "type": "uint256"
        }
      ],
      "name": "totalVotePowerAt",
      "outputs": [
        {
          "internalType": "uint256",
          "name": "",
          "type": "uint256"
        }
      ],
      "stateMutability": "view",
      "type": "function"
    },
    {
      "inputs": [
        {
          "internalType": "uint256",
          "name": "_blockNumber",
          "type": "uint256"
        }
      ],
      "name": "totalVotePowerAtCached",
      "outputs": [
        {
          "internalType": "uint256",
          "name": "",
          "type": "uint256"
        }
      ],
      "stateMutability": "nonpayable",
      "type": "function"
    },
    {
      "inputs": [
        {
          "internalType": "address",
          "name": "recipient",
          "type": "address"
        },
        {
          "internalType": "uint256",
          "name": "amount",
          "type": "uint256"
        }
      ],
      "name": "transfer",
      "outputs": [
        {
          "internalType": "bool",
          "name": "",
          "type": "bool"
        }
      ],
      "stateMutability": "nonpayable",
      "type": "function"
    },
    {
      "inputs": [
        {
          "internalType": "address",
          "name": "sender",
          "type": "address"
        },
        {
          "internalType": "address",
          "name": "recipient",
          "type": "address"
        },
        {
          "internalType": "uint256",
          "name": "amount",
          "type": "uint256"
        }
      ],
      "name": "transferFrom",
      "outputs": [
        {
          "internalType": "bool",
          "name": "",
          "type": "bool"
        }
      ],
      "stateMutability": "nonpayable",
      "type": "function"
    },
    {
      "inputs": [
        {
          "internalType": "address",
          "name": "_governance",
          "type": "address"
        }
      ],
      "name": "transferGovernance",
      "outputs": [],
      "stateMutability": "nonpayable",
      "type": "function"
    },
    {
      "inputs": [],
      "name": "undelegateAll",
      "outputs": [],
      "stateMutability": "nonpayable",
      "type": "function"
    },
    {
      "inputs": [
        {
          "internalType": "address[]",
          "name": "_delegateAddresses",
          "type": "address[]"
        }
      ],
      "name": "undelegateAllExplicit",
      "outputs": [
        {
          "internalType": "uint256",
          "name": "_remainingDelegation",
          "type": "uint256"
        }
      ],
      "stateMutability": "nonpayable",
      "type": "function"
    },
    {
      "inputs": [
        {
          "internalType": "address",
          "name": "_owner",
          "type": "address"
        }
      ],
      "name": "undelegatedVotePowerOf",
      "outputs": [
        {
          "internalType": "uint256",
          "name": "",
          "type": "uint256"
        }
      ],
      "stateMutability": "view",
      "type": "function"
    },
    {
      "inputs": [
        {
          "internalType": "address",
          "name": "_owner",
          "type": "address"
        },
        {
          "internalType": "uint256",
          "name": "_blockNumber",
          "type": "uint256"
        }
      ],
      "name": "undelegatedVotePowerOfAt",
      "outputs": [
        {
          "internalType": "uint256",
          "name": "",
          "type": "uint256"
        }
      ],
      "stateMutability": "view",
      "type": "function"
    },
    {
      "inputs": [],
      "name": "votePowerAtNowCached",
      "outputs": [
        {
          "internalType": "uint256",
          "name": "",
          "type": "uint256"
        }
      ],
      "stateMutability": "nonpayable",
      "type": "function"
    },
    {
      "inputs": [
        {
          "internalType": "address",
          "name": "_from",
          "type": "address"
        },
        {
          "internalType": "address",
          "name": "_to",
          "type": "address"
        }
      ],
      "name": "votePowerFromTo",
      "outputs": [
        {
          "internalType": "uint256",
          "name": "",
          "type": "uint256"
        }
      ],
      "stateMutability": "view",
      "type": "function"
    },
    {
      "inputs": [
        {
          "internalType": "address",
          "name": "_from",
          "type": "address"
        },
        {
          "internalType": "address",
          "name": "_to",
          "type": "address"
        },
        {
          "internalType": "uint256",
          "name": "_blockNumber",
          "type": "uint256"
        }
      ],
      "name": "votePowerFromToAt",
      "outputs": [
        {
          "internalType": "uint256",
          "name": "",
          "type": "uint256"
        }
      ],
      "stateMutability": "view",
      "type": "function"
    },
    {
      "inputs": [
        {
          "internalType": "address",
          "name": "_owner",
          "type": "address"
        }
      ],
      "name": "votePowerOf",
      "outputs": [
        {
          "internalType": "uint256",
          "name": "",
          "type": "uint256"
        }
      ],
      "stateMutability": "view",
      "type": "function"
    },
    {
      "inputs": [
        {
          "internalType": "address",
          "name": "_owner",
          "type": "address"
        },
        {
          "internalType": "uint256",
          "name": "_blockNumber",
          "type": "uint256"
        }
      ],
      "name": "votePowerOfAt",
      "outputs": [
        {
          "internalType": "uint256",
          "name": "",
          "type": "uint256"
        }
      ],
      "stateMutability": "view",
      "type": "function"
    },
    {
      "inputs": [
        {
          "internalType": "address",
          "name": "_owner",
          "type": "address"
        },
        {
          "internalType": "uint256",
          "name": "_blockNumber",
          "type": "uint256"
        }
      ],
      "name": "votePowerOfAtCached",
      "outputs": [
        {
          "internalType": "uint256",
          "name": "",
          "type": "uint256"
        }
      ],
      "stateMutability": "nonpayable",
      "type": "function"
    },
    {
      "inputs": [
        {
          "internalType": "address",
          "name": "_owner",
          "type": "address"
        },
        {
          "internalType": "uint256",
          "name": "_blockNumber",
          "type": "uint256"
        }
      ],
      "name": "votePowerOfAtIgnoringRevocation",
      "outputs": [
        {
          "internalType": "uint256",
          "name": "",
          "type": "uint256"
        }
      ],
      "stateMutability": "view",
      "type": "function"
    },
    {
      "inputs": [
        {
          "internalType": "address",
          "name": "_who",
          "type": "address"
        }
      ],
      "name": "votePowerOfAtNowCached",
      "outputs": [
        {
          "internalType": "uint256",
          "name": "",
          "type": "uint256"
        }
      ],
      "stateMutability": "nonpayable",
      "type": "function"
    },
    {
      "inputs": [],
      "name": "vpContractInitialized",
      "outputs": [
        {
          "internalType": "bool",
          "name": "",
          "type": "bool"
        }
      ],
      "stateMutability": "view",
      "type": "function"
    },
    {
      "inputs": [],
      "name": "writeVotePowerContract",
      "outputs": [
        {
          "internalType": "contract IVPContractEvents",
          "name": "",
          "type": "address"
        }
      ],
      "stateMutability": "view",
      "type": "function"
    }
  ],
  "bytecode": "0x60806040526011805460ff60a01b191690553480156200001e57600080fd5b506040516200461f3803806200461f833981810160405260608110156200004457600080fd5b8151602083018051604051929492938301929190846401000000008211156200006c57600080fd5b9083019060208201858111156200008257600080fd5b82516401000000008111828201881017156200009d57600080fd5b82525081516020918201929091019080838360005b83811015620000cc578181015183820152602001620000b2565b50505050905090810190601f168015620000fa5780820380516001836020036101000a031916815260200191505b50604052602001805160405193929190846401000000008211156200011e57600080fd5b9083019060208201858111156200013457600080fd5b82516401000000008111828201881017156200014f57600080fd5b82525081516020918201929091019080838360005b838110156200017e57818101518382015260200162000164565b50505050905090810190601f168015620001ac5780820380516001836020036101000a031916815260200191505b50604052505050828282828083838160039080519060200190620001d292919062000354565b508051620001e890600490602084019062000354565b50506005805460ff19166012179055506001600160a01b038116156200021357620002138162000270565b506001600160a01b03811662000263576040805162461bcd60e51b815260206004820152601060248201526f5f676f7665726e616e6365207a65726f60801b604482015290519081900360640190fd5b5050505050505062000400565b600d54600160a01b900460ff1615620002d0576040805162461bcd60e51b815260206004820152601460248201527f696e697469616c6973656420213d2066616c7365000000000000000000000000604482015290519081900360640190fd5b600d805460ff60a01b1916600160a01b179055600c54604080516001600160a01b039283168152918316602083015280517f434a2db650703b36c824e745330d6397cdaa9ee2cc891a4938ae853e1c50b68d9281900390910190a1600c80546001600160a01b039092166001600160a01b0319928316179055600d80549091169055565b828054600181600116156101000203166002900490600052602060002090601f0160209004810192826200038c5760008555620003d7565b82601f10620003a757805160ff1916838001178555620003d7565b82800160010185558215620003d7579182015b82811115620003d7578251825591602001919060010190620003ba565b50620003e5929150620003e9565b5090565b5b80821115620003e55760008155600101620003ea565b61420f80620004106000396000f3fe608060405234801561001057600080fd5b50600436106103af5760003560e01c806383035a82116101f4578063c787a8fc1161011a578063e587497e116100ad578063f5f3d4f71161007c578063f5f3d4f714610d56578063f62f8f3a14610d5e578063f683776714610d7b578063f6a494af14610da1576103af565b8063e587497e14610c9c578063e64767aa14610cc8578063ed475a7914610cfe578063f0e292c914610d2a576103af565b8063d6aa0b77116100e9578063d6aa0b7714610c38578063dd62ed3e14610c5e578063deea13e714610c8c578063e1e5be0014610c94576103af565b8063c787a8fc14610bc1578063caeb942b14610bc9578063d06dc3ad14610be6578063d38bfff414610c12576103af565b80639ca2231a11610192578063b302f39311610161578063b302f39314610b39578063bbd6fbf814610b41578063be0ca74714610b6d578063c373a08e14610b9b576103af565b80639ca2231a14610a955780639d6a890f14610abb578063a457c2d714610ae1578063a9059cbb14610b0d576103af565b806395d89b41116101ce57806395d89b4114610a60578063981b24d014610a685780639b3baa0e14610a855780639b7d45b214610a8d576103af565b806383035a8214610a005780638c2b8ae114610a2c57806392bfe6d814610a34576103af565b806340c10f19116102d95780635d6d11eb11610277578063755d10a411610246578063755d10a4146108c75780637a1395aa146108ed5780637de5b8ed1461090d5780637f4fcaa9146109da576103af565b80635d6d11eb146107d257806360f7ac97146108735780636b4237941461087b57806370a08231146108a1576103af565b806349e3c7e5116102b357806349e3c7e5146106a35780634ee2cd7e146107965780635aa6e675146107c25780635d36b190146107ca576103af565b806340c10f191461063d57806342966c681461066957806343ea370b14610686576103af565b806318160ddd1161035157806331d12a161161032057806331d12a16146105a8578063366052b5146105ce57806339509351146105f45780633e5aa26a14610620576103af565b806318160ddd146105445780631fec092a1461054c57806323b872dd14610554578063313ce5671461058a576103af565b8063095ea7b31161038d578063095ea7b31461049d5780630db440e8146104dd57806313de97f514610501578063142d10181461051e576103af565b8063026e402b146103b457806304bb4e43146103e257806306fdde0314610420575b600080fd5b6103e0600480360360408110156103ca57600080fd5b506001600160a01b038135169060200135610dc7565b005b61040e600480360360408110156103f857600080fd5b506001600160a01b038135169060200135610e62565b60408051918252519081900360200190f35b610428610ef5565b6040805160208082528351818301528351919283929083019185019080838360005b8381101561046257818101518382015260200161044a565b50505050905090810190601f16801561048f5780820380516001836020036101000a031916815260200191505b509250505060405180910390f35b6104c9600480360360408110156104b357600080fd5b506001600160a01b038135169060200135610f04565b604080519115158252519081900360200190f35b6104e5610f21565b604080516001600160a01b039092168252519081900360200190f35b6103e06004803603602081101561051757600080fd5b5035610f2b565b61040e6004803603602081101561053457600080fd5b50356001600160a01b031661112f565b61040e6111b9565b6104e56111bf565b6104c96004803603606081101561056a57600080fd5b506001600160a01b038135811691602081013590911690604001356111ce565b610592611256565b6040805160ff9092168252519081900360200190f35b6103e0600480360360208110156105be57600080fd5b50356001600160a01b0316611260565b6103e0600480360360208110156105e457600080fd5b50356001600160a01b0316611400565b6104c96004803603604081101561060a57600080fd5b506001600160a01b03813516906020013561140a565b61040e6004803603602081101561063657600080fd5b5035611458565b6103e06004803603604081101561065357600080fd5b506001600160a01b038135169060200135611463565b6103e06004803603602081101561067f57600080fd5b5035611471565b61040e6004803603602081101561069c57600080fd5b503561147b565b610746600480360360408110156106b957600080fd5b810190602081018135600160201b8111156106d357600080fd5b8201836020820111156106e557600080fd5b803590602001918460208302840111600160201b8311171561070657600080fd5b9190808060200260200160405190810160405280939291908181526020018383602002808284376000920191909152509295505091359250611536915050565b60408051602080825283518183015283519192839290830191858101910280838360005b8381101561078257818101518382015260200161076a565b505050509050019250505060405180910390f35b61040e600480360360408110156107ac57600080fd5b506001600160a01b038135169060200135611698565b6104e56116a4565b6103e06116b3565b61040e600480360360208110156107e857600080fd5b810190602081018135600160201b81111561080257600080fd5b82018360208201111561081457600080fd5b803590602001918460208302840111600160201b8311171561083557600080fd5b919080806020026020016040519081016040528093929190818152602001838360200280828437600092019190915250929550611775945050505050565b6104e5611827565b61040e6004803603602081101561089157600080fd5b50356001600160a01b0316611836565b61040e600480360360208110156108b757600080fd5b50356001600160a01b0316611842565b6103e0600480360360208110156108dd57600080fd5b50356001600160a01b031661185d565b6103e06004803603602081101561090357600080fd5b503560ff16611ac5565b6109336004803603602081101561092357600080fd5b50356001600160a01b0316611ace565b604051808060200180602001858152602001848152602001838103835287818151815260200191508051906020019060200280838360005b8381101561098357818101518382015260200161096b565b50505050905001838103825286818151815260200191508051906020019060200280838360005b838110156109c25781810151838201526020016109aa565b50505050905001965050505050505060405180910390f35b6103e0600480360360208110156109f057600080fd5b50356001600160a01b0316611c91565b61040e60048036036040811015610a1657600080fd5b506001600160a01b038135169060200135611cbb565b6104e5611d2a565b61040e60048036036040811015610a4a57600080fd5b506001600160a01b038135169060200135611d39565b610428611d97565b61040e60048036036020811015610a7e57600080fd5b5035611da1565b6104e5611dac565b6104e5611dbb565b6103e060048036036020811015610aab57600080fd5b50356001600160a01b0316611dc5565b6103e060048036036020811015610ad157600080fd5b50356001600160a01b0316611ef0565b6104c960048036036040811015610af757600080fd5b506001600160a01b038135169060200135611fca565b6104c960048036036040811015610b2357600080fd5b506001600160a01b038135169060200135612032565b6103e0612046565b6103e060048036036040811015610b5757600080fd5b506001600160a01b0381351690602001356120c6565b61040e60048036036040811015610b8357600080fd5b506001600160a01b0381358116916020013516612233565b6103e060048036036020811015610bb157600080fd5b50356001600160a01b03166122aa565b6104c9612306565b61040e60048036036020811015610bdf57600080fd5b5035612316565b6103e060048036036040811015610bfc57600080fd5b506001600160a01b038135169060200135612321565b6103e060048036036020811015610c2857600080fd5b50356001600160a01b0316612342565b61040e60048036036020811015610c4e57600080fd5b50356001600160a01b03166123bb565b61040e60048036036040811015610c7457600080fd5b506001600160a01b0381358116916020013516612421565b61040e61244c565b61040e612456565b61040e60048036036040811015610cb257600080fd5b506001600160a01b038135169060200135612461565b61040e60048036036060811015610cde57600080fd5b506001600160a01b038135811691602081013590911690604001356124d5565b61093360048036036040811015610d1457600080fd5b506001600160a01b038135169060200135612589565b61040e60048036036040811015610d4057600080fd5b506001600160a01b038135169060200135612755565b61040e6127c2565b61040e60048036036020811015610d7457600080fd5b50356127cc565b61040e60048036036020811015610d9157600080fd5b50356001600160a01b0316612837565b6103e060048036036020811015610db757600080fd5b50356001600160a01b031661288d565b610dcf612a0c565b6001600160a01b0316636230001a3384610de833611842565b856040518563ffffffff1660e01b815260040180856001600160a01b03168152602001846001600160a01b03168152602001838152602001828152602001945050505050600060405180830381600087803b158015610e4657600080fd5b505af1158015610e5a573d6000803e3d6000fd5b505050505050565b6000610e6c612a6d565b6001600160a01b03166304bb4e4384846040518363ffffffff1660e01b815260040180836001600160a01b031681526020018281526020019250505060206040518083038186803b158015610ec057600080fd5b505afa158015610ed4573d6000803e3d6000fd5b505050506040513d6020811015610eea57600080fd5b505190505b92915050565b6060610eff612ace565b905090565b6000610f18610f11612b64565b8484612b68565b50600192915050565b6000610eff6111bf565b600c546001600160a01b0316331480610f4e57506011546001600160a01b031633145b610f9f576040805162461bcd60e51b815260206004820152601a60248201527f6f6e6c7920676f7665726e616e6365206f72206d616e61676572000000000000604482015290519081900360640190fd5b610fa881612c54565b600e546001600160a01b03161561101f57600e54604080516313de97f560e01b81526004810184905290516001600160a01b03909216916313de97f59160248082019260009290919082900301818387803b15801561100657600080fd5b505af115801561101a573d6000803e3d6000fd5b505050505b600f546001600160a01b03161580159061104a5750600e54600f546001600160a01b03908116911614155b156110b557600f54604080516313de97f560e01b81526004810184905290516001600160a01b03909216916313de97f59160248082019260009290919082900301818387803b15801561109c57600080fd5b505af11580156110b0573d6000803e3d6000fd5b505050505b6010546001600160a01b03161561112c57601054604080516313de97f560e01b81526004810184905290516001600160a01b03909216916313de97f59160248082019260009290919082900301818387803b15801561111357600080fd5b505af1158015611127573d6000803e3d6000fd5b505050505b50565b6000611139612a6d565b6001600160a01b031663142d1018836040518263ffffffff1660e01b815260040180826001600160a01b0316815260200191505060206040518083038186803b15801561118557600080fd5b505afa158015611199573d6000803e3d6000fd5b505050506040513d60208110156111af57600080fd5b505190505b919050565b60025490565b600f546001600160a01b031690565b60006111db848484612cd8565b61124b846111e7612b64565b61124685604051806060016040528060288152602001614094602891396001600160a01b038a16600090815260016020526040812090611225612b64565b6001600160a01b031681526020810191909152604001600020549190612e33565b612b68565b5060015b9392505050565b6000610eff612eca565b611268612ed3565b6001600160a01b0381161561139157306001600160a01b0316816001600160a01b031663653718836040518163ffffffff1660e01b815260040160206040518083038186803b1580156112ba57600080fd5b505afa1580156112ce573d6000803e3d6000fd5b505050506040513d60208110156112e457600080fd5b50516001600160a01b03161461132b5760405162461bcd60e51b81526004018080602001828103825260228152602001806141b86022913960400191505060405180910390fd5b806001600160a01b03166313de97f5611342612f26565b6040518263ffffffff1660e01b815260040180828152602001915050600060405180830381600087803b15801561137857600080fd5b505af115801561138c573d6000803e3d6000fd5b505050505b600e5460408051600081526001600160a01b03928316602082015291831682820152517fbec98a6c0f609cda6b9f23b95824ba6ac733cb57edd17d344f2f2796844007399181900360600190a1600e80546001600160a01b0319166001600160a01b0392909216919091179055565b61112c81436120c6565b6000610f18611417612b64565b846112468560016000611428612b64565b6001600160a01b03908116825260208083019390935260409182016000908120918c168152925290205490612f2c565b6000610eef82611da1565b61146d8282612f86565b5050565b61112c3382613076565b600b546000906001600160a01b031633146114d5576040805162461bcd60e51b815260206004820152601560248201527413db9b1e4818db19585b995c8818dbdb9d1c9858dd605a1b604482015290519081900360640190fd5b600a54821061152b576040805162461bcd60e51b815260206004820152601e60248201527f4e6f20636c65616e757020616674657220636c65616e757020626c6f636b0000604482015290519081900360640190fd5b610eef600983613172565b6060611540612a6d565b6001600160a01b03166349e3c7e584846040518363ffffffff1660e01b81526004018080602001838152602001828103825284818151815260200191508051906020019060200280838360005b838110156115a557818101518382015260200161158d565b50505050905001935050505060006040518083038186803b1580156115c957600080fd5b505afa1580156115dd573d6000803e3d6000fd5b505050506040513d6000823e601f3d908101601f19168201604052602081101561160657600080fd5b8101908080516040519392919084600160201b82111561162557600080fd5b90830190602082018581111561163a57600080fd5b82518660208202830111600160201b8211171561165657600080fd5b82525081516020918201928201910280838360005b8381101561168357818101518382015260200161166b565b50505050905001604052505050905092915050565b600061124f83836131a6565b600c546001600160a01b031681565b600d546001600160a01b03163314611702576040805162461bcd60e51b815260206004820152600d60248201526c1b9bdd0818db185a5b585a5b9d609a1b604482015290519081900360640190fd5b600c54600d54604080516001600160a01b03938416815292909116602083015280517f434a2db650703b36c824e745330d6397cdaa9ee2cc891a4938ae853e1c50b68d9281900390910190a1600d8054600c80546001600160a01b03199081166001600160a01b03841617909155169055565b600061177f612a0c565b6001600160a01b0316630f8b8af733846040518363ffffffff1660e01b815260040180836001600160a01b0316815260200180602001828103825283818151815260200191508051906020019060200280838360005b838110156117ed5781810151838201526020016117d5565b505050509050019350505050602060405180830381600087803b15801561181357600080fd5b505af1158015611199573d6000803e3d6000fd5b600d546001600160a01b031681565b6000610eef8243612461565b6001600160a01b031660009081526020819052604090205490565b611865612ed3565b6001600160a01b03811615611a5657306001600160a01b0316816001600160a01b031663653718836040518163ffffffff1660e01b815260040160206040518083038186803b1580156118b757600080fd5b505afa1580156118cb573d6000803e3d6000fd5b505050506040513d60208110156118e157600080fd5b50516001600160a01b0316146119285760405162461bcd60e51b81526004018080602001828103825260228152602001806141b86022913960400191505060405180910390fd5b601154600160a01b900460ff1615806119a25750806001600160a01b031663aa94d3f26040518163ffffffff1660e01b815260040160206040518083038186803b15801561197557600080fd5b505afa158015611989573d6000803e3d6000fd5b505050506040513d602081101561199f57600080fd5b50515b6119dd5760405162461bcd60e51b81526004018080602001828103825260298152602001806140456029913960400191505060405180910390fd5b806001600160a01b03166313de97f56119f4612f26565b6040518263ffffffff1660e01b815260040180828152602001915050600060405180830381600087803b158015611a2a57600080fd5b505af1158015611a3e573d6000803e3d6000fd5b50506011805460ff60a01b1916600160a01b17905550505b600f5460408051600181526001600160a01b03928316602082015291831682820152517fbec98a6c0f609cda6b9f23b95824ba6ac733cb57edd17d344f2f2796844007399181900360600190a1600f80546001600160a01b0319166001600160a01b0392909216919091179055565b61112c816131fe565b606080600080611adc612a6d565b6001600160a01b0316637de5b8ed866040518263ffffffff1660e01b815260040180826001600160a01b0316815260200191505060006040518083038186803b158015611b2857600080fd5b505afa158015611b3c573d6000803e3d6000fd5b505050506040513d6000823e601f3d908101601f191682016040526080811015611b6557600080fd5b8101908080516040519392919084600160201b821115611b8457600080fd5b908301906020820185811115611b9957600080fd5b82518660208202830111600160201b82111715611bb557600080fd5b82525081516020918201928201910280838360005b83811015611be2578181015183820152602001611bca565b5050505090500160405260200180516040519392919084600160201b821115611c0a57600080fd5b908301906020820185811115611c1f57600080fd5b82518660208202830111600160201b82111715611c3b57600080fd5b82525081516020918201928201910280838360005b83811015611c68578181015183820152602001611c50565b505050509190910160409081526020830151920151959b949a5090985093965091945050505050565b611c99612ed3565b601180546001600160a01b0319166001600160a01b0392909216919091179055565b6000611cc5612a6d565b6001600160a01b0316633150392784611cde8686611698565b856040518463ffffffff1660e01b815260040180846001600160a01b03168152602001838152602001828152602001935050505060206040518083038186803b158015610ec057600080fd5b6010546001600160a01b031690565b6000611d43612a6d565b6001600160a01b03166392bfe6d884846040518363ffffffff1660e01b815260040180836001600160a01b031681526020018281526020019250505060206040518083038186803b158015610ec057600080fd5b6060610eff613214565b6000610eef82613275565b600e546001600160a01b031690565b6000610eff611dac565b611dcd612ed3565b306001600160a01b0316816001600160a01b031663653718836040518163ffffffff1660e01b815260040160206040518083038186803b158015611e1057600080fd5b505afa158015611e24573d6000803e3d6000fd5b505050506040513d6020811015611e3a57600080fd5b50516001600160a01b031614611e815760405162461bcd60e51b815260040180806020018281038252603d8152602001806140bc603d913960400191505060405180910390fd5b60105460408051600281526001600160a01b03928316602082015291831682820152517fbec98a6c0f609cda6b9f23b95824ba6ac733cb57edd17d344f2f2796844007399181900360600190a1601080546001600160a01b0319166001600160a01b0392909216919091179055565b600d54600160a01b900460ff1615611f46576040805162461bcd60e51b8152602060048201526014602482015273696e697469616c6973656420213d2066616c736560601b604482015290519081900360640190fd5b600d805460ff60a01b1916600160a01b179055600c54604080516001600160a01b039283168152918316602083015280517f434a2db650703b36c824e745330d6397cdaa9ee2cc891a4938ae853e1c50b68d9281900390910190a1600c80546001600160a01b039092166001600160a01b0319928316179055600d80549091169055565b6000610f18611fd7612b64565b84611246856040518060600160405280602581526020016141936025913960016000612001612b64565b6001600160a01b03908116825260208083019390935260409182016000908120918d16815292529020549190612e33565b6000610f1861203f612b64565b8484612cd8565b61204e612a0c565b6001600160a01b03166305109ecf3361206633611842565b6040518363ffffffff1660e01b815260040180836001600160a01b0316815260200182815260200192505050600060405180830381600087803b1580156120ac57600080fd5b505af11580156120c0573d6000803e3d6000fd5b50505050565b600f54600e546001600160a01b039182169116811561217157816001600160a01b031663c7c62fab33866120fa3388611698565b876040518563ffffffff1660e01b815260040180856001600160a01b03168152602001846001600160a01b03168152602001838152602001828152602001945050505050600060405180830381600087803b15801561215857600080fd5b505af115801561216c573d6000803e3d6000fd5b505050505b816001600160a01b0316816001600160a01b03161415801561219b57506001600160a01b03811615155b156120c057806001600160a01b031663c7c62fab33866121bb3388611698565b876040518563ffffffff1660e01b815260040180856001600160a01b03168152602001846001600160a01b03168152602001838152602001828152602001945050505050600060405180830381600087803b15801561221957600080fd5b505af192505050801561222a575060015b6120c0576120c0565b600061223d612a6d565b6001600160a01b0316639dc6b9f2848461225687611842565b6040518463ffffffff1660e01b815260040180846001600160a01b03168152602001836001600160a01b03168152602001828152602001935050505060206040518083038186803b158015610ec057600080fd5b6122b2612ed3565b600d80546001600160a01b0383166001600160a01b0319909116811790915560408051918252517f1f95fb40be3a947982072902a887b521248d1d8931a39eb38f84f4d6fd758b699181900360200190a150565b601154600160a01b900460ff1681565b6000610eef826132c4565b612329612a0c565b6001600160a01b031663404d9e823384610de833611842565b61234a612ed3565b600c54604080516001600160a01b039283168152918316602083015280517f434a2db650703b36c824e745330d6397cdaa9ee2cc891a4938ae853e1c50b68d9281900390910190a1600c80546001600160a01b039092166001600160a01b0319928316179055600d80549091169055565b60006123c5612a6d565b6001600160a01b0316634a03d556836123dd85611842565b6040518363ffffffff1660e01b815260040180836001600160a01b031681526020018281526020019250505060206040518083038186803b15801561118557600080fd5b6001600160a01b03918216600090815260016020908152604080832093909416825291909152205490565b6000610eff612f26565b6000610eff43612316565b600061246b612a6d565b6001600160a01b031663e587497e84846040518363ffffffff1660e01b815260040180836001600160a01b0316815260200182815260200192505050602060405180830381600087803b1580156124c157600080fd5b505af1158015610ed4573d6000803e3d6000fd5b60006124df612a6d565b6001600160a01b031663833aca9285856124f98887611698565b866040518563ffffffff1660e01b815260040180856001600160a01b03168152602001846001600160a01b0316815260200183815260200182815260200194505050505060206040518083038186803b15801561255557600080fd5b505afa158015612569573d6000803e3d6000fd5b505050506040513d602081101561257f57600080fd5b5051949350505050565b606080600080612597612a6d565b6001600160a01b031663ed475a7987876040518363ffffffff1660e01b815260040180836001600160a01b031681526020018281526020019250505060006040518083038186803b1580156125eb57600080fd5b505afa1580156125ff573d6000803e3d6000fd5b505050506040513d6000823e601f3d908101601f19168201604052608081101561262857600080fd5b8101908080516040519392919084600160201b82111561264757600080fd5b90830190602082018581111561265c57600080fd5b82518660208202830111600160201b8211171561267857600080fd5b82525081516020918201928201910280838360005b838110156126a557818101518382015260200161268d565b5050505090500160405260200180516040519392919084600160201b8211156126cd57600080fd5b9083019060208201858111156126e257600080fd5b82518660208202830111600160201b821117156126fe57600080fd5b82525081516020918201928201910280838360005b8381101561272b578181015183820152602001612713565b505050509190910160409081526020830151920151959c949b509099509397509195505050505050565b600b546000906001600160a01b031633146127af576040805162461bcd60e51b815260206004820152601560248201527413db9b1e4818db19585b995c8818dbdb9d1c9858dd605a1b604482015290519081900360640190fd5b600a5461124f90600690859085906133b2565b6000610eff6111b9565b600b546000906001600160a01b03163314612826576040805162461bcd60e51b815260206004820152601560248201527413db9b1e4818db19585b995c8818dbdb9d1c9858dd605a1b604482015290519081900360640190fd5b600a54610eef9060079084906133f8565b6000612841612a6d565b6001600160a01b031663f6837767836040518263ffffffff1660e01b815260040180826001600160a01b0316815260200191505060206040518083038186803b15801561118557600080fd5b612895612ed3565b61289e816134e5565b600e546001600160a01b03161561291657600e546040805163f6a494af60e01b81526001600160a01b0384811660048301529151919092169163f6a494af91602480830192600092919082900301818387803b1580156128fd57600080fd5b505af1158015612911573d6000803e3d6000fd5b505050505b600f546001600160a01b0316158015906129415750600e54600f546001600160a01b03908116911614155b156129ad57600f546040805163f6a494af60e01b81526001600160a01b0384811660048301529151919092169163f6a494af91602480830192600092919082900301818387803b15801561299457600080fd5b505af11580156129a8573d6000803e3d6000fd5b505050505b6010546001600160a01b03161561112c576010546040805163f6a494af60e01b81526001600160a01b0384811660048301529151919092169163f6a494af91602480830192600092919082900301818387803b15801561111357600080fd5b600f546000906001600160a01b031680610eff576040805162461bcd60e51b815260206004820152601e60248201527f546f6b656e206d697373696e67207772697465205650436f6e74726163740000604482015290519081900360640190fd5b600e546000906001600160a01b031680610eff576040805162461bcd60e51b815260206004820152601d60248201527f546f6b656e206d697373696e672072656164205650436f6e7472616374000000604482015290519081900360640190fd5b60038054604080516020601f6002600019610100600188161502019095169490940493840181900481028201810190925282815260609390929091830182828015612b5a5780601f10612b2f57610100808354040283529160200191612b5a565b820191906000526020600020905b815481529060010190602001808311612b3d57829003601f168201915b5050505050905090565b3390565b6001600160a01b038316612bad5760405162461bcd60e51b815260040180806020018281038252602481526020018061413f6024913960400191505060405180910390fd5b6001600160a01b038216612bf25760405162461bcd60e51b8152600401808060200182810382526022815260200180613fa86022913960400191505060405180910390fd5b6001600160a01b03808416600081815260016020908152604080832094871680845294825291829020859055815185815291517f8c5be1e5ebec7d5bd14f71427d1e84f3dd0314c0f7b2291e5b200ac8c7c3b9259281900390910190a3505050565b600a54811015612c955760405162461bcd60e51b8152600401808060200182810382526028815260200180613ff06028913960400191505060405180910390fd5b438110612cd35760405162461bcd60e51b8152600401808060200182810382526021815260200180613f876021913960400191505060405180910390fd5b600a55565b6001600160a01b038316612d1d5760405162461bcd60e51b815260040180806020018281038252602581526020018061411a6025913960400191505060405180910390fd5b6001600160a01b038216612d625760405162461bcd60e51b8152600401808060200182810382526023815260200180613f426023913960400191505060405180910390fd5b612d6d838383613507565b612daa81604051806060016040528060268152602001613fca602691396001600160a01b0386166000908152602081905260409020549190612e33565b6001600160a01b038085166000908152602081905260408082209390935590841681522054612dd99082612f2c565b6001600160a01b038084166000818152602081815260409182902094909455805185815290519193928716927fddf252ad1be2c89b69c2b068fc378daa952ba7f163c4a11628f55a4df523b3ef92918290030190a3505050565b60008184841115612ec25760405162461bcd60e51b81526004018080602001828103825283818151815260200191508051906020019080838360005b83811015612e87578181015183820152602001612e6f565b50505050905090810190601f168015612eb45780820380516001836020036101000a031916815260200191505b509250505060405180910390fd5b505050900390565b60055460ff1690565b600c546001600160a01b03163314612f24576040805162461bcd60e51b815260206004820152600f60248201526e6f6e6c7920676f7665726e616e636560881b604482015290519081900360640190fd5b565b600a5490565b60008282018381101561124f576040805162461bcd60e51b815260206004820152601b60248201527f536166654d6174683a206164646974696f6e206f766572666c6f770000000000604482015290519081900360640190fd5b6001600160a01b038216612fe1576040805162461bcd60e51b815260206004820152601f60248201527f45524332303a206d696e7420746f20746865207a65726f206164647265737300604482015290519081900360640190fd5b612fed60008383613507565b600254612ffa9082612f2c565b6002556001600160a01b0382166000908152602081905260409020546130209082612f2c565b6001600160a01b0383166000818152602081815260408083209490945583518581529351929391927fddf252ad1be2c89b69c2b068fc378daa952ba7f163c4a11628f55a4df523b3ef9281900390910190a35050565b6001600160a01b0382166130bb5760405162461bcd60e51b81526004018080602001828103825260218152602001806140f96021913960400191505060405180910390fd5b6130c782600083613507565b61310481604051806060016040528060228152602001613f65602291396001600160a01b0385166000908152602081905260409020549190612e33565b6001600160a01b03831660009081526020819052604090205560025461312a9082613716565b6002556040805182815290516000916001600160a01b038516917fddf252ad1be2c89b69c2b068fc378daa952ba7f163c4a11628f55a4df523b3ef9181900360200190a35050565b6000818152602083905260408120541561319d57506000818152602083905260408120556001610eef565b50600092915050565b600081600a548110156131ea5760405162461bcd60e51b815260040180806020018281038252602d815260200180614018602d913960400191505060405180910390fd5b6131f660068585613773565b949350505050565b6005805460ff191660ff92909216919091179055565b60048054604080516020601f6002600019610100600188161502019095169490940493840181900481028201810190925282815260609390929091830182828015612b5a5780601f10612b2f57610100808354040283529160200191612b5a565b600081600a548110156132b95760405162461bcd60e51b815260040180806020018281038252602d815260200180614018602d913960400191505060405180910390fd5b61124f60078461379e565b600081600a548110156133085760405162461bcd60e51b815260040180806020018281038252602d815260200180614018602d913960400191505060405180910390fd5b43831061335c576040805162461bcd60e51b815260206004820181905260248201527f43616e206f6e6c79206265207573656420666f72207061737420626c6f636b73604482015290519081900360640190fd5b60008061336c60096007876138e1565b9150915080156133aa576040805186815290517ffec477a10b4fcdfdf1114eb32b3caf6118b2d76d20e1fcb70007274bb4b616be9181900360200190a15b509392505050565b60006001600160a01b038416156133ed576001600160a01b03841660009081526020869052604090206133e69084846133f8565b90506131f6565b506000949350505050565b6000816134075750600061124f565b6001840154600160401b90046001600160401b03168061342b57600091505061124f565b60018501546001600160401b031660006134516134488388612f2c565b6001850361393f565b9050815b8181108015613486575060018101600090815260208990526040902054600160c01b90046001600160401b03168610155b156134a257600081815260208990526040812055600101613455565b828111156134d7576134b381613955565b60018901805467ffffffffffffffff19166001600160401b03929092169190911790555b919091039695505050505050565b600b80546001600160a01b0319166001600160a01b0392909216919091179055565b816001600160a01b0316836001600160a01b0316141561356e576040805162461bcd60e51b815260206004820152601760248201527f43616e6e6f74207472616e7366657220746f2073656c66000000000000000000604482015290519081900360640190fd5b60006001600160a01b03841661358557600061358e565b61358e84611842565b905060006001600160a01b0384166135a75760006135b0565b6135b084611842565b600f549091506001600160a01b0316801561364a576040805163756da1b160e11b81526001600160a01b038881166004830152878116602483015260448201869052606482018590526084820187905291519183169163eadb43629160a48082019260009290919082900301818387803b15801561362d57600080fd5b505af1158015613641573d6000803e3d6000fd5b5050505061366f565b601154600160a01b900460ff1661366f576011805460ff60a01b1916600160a01b1790555b6010546001600160a01b03168015613702576040805163756da1b160e11b81526001600160a01b038981166004830152888116602483015260448201879052606482018690526084820188905291519183169163eadb43629160a48082019260009290919082900301818387803b1580156136e957600080fd5b505af11580156136fd573d6000803e3d6000fd5b505050505b61370d87878761399d565b50505050505050565b60008282111561376d576040805162461bcd60e51b815260206004820152601e60248201527f536166654d6174683a207375627472616374696f6e206f766572666c6f770000604482015290519081900360640190fd5b50900390565b6001600160a01b0382166000908152602084905260408120613795818461379e565b95945050505050565b6001820154600090600160401b90046001600160401b0316806137c5576000915050610eef565b43831015806137f757506000198101600090815260208590526040902054600160c01b90046001600160401b03168310155b1561381f57600019016000908152602084905260409020546001600160c01b03169050610eef565b60018401546001600160401b039081166000818152602087905260409020549091600160c01b9091041684101561389857801561388d5760405162461bcd60e51b81526004018080602001828103825260308152602001806141636030913960400191505060405180910390fd5b600092505050610eef565b60018501546000906138be9087908490600160401b90046001600160401b0316886139e2565b6000908152602087905260409020546001600160c01b0316935050505092915050565b600081815260208490526040812054819080156139075760001901915060009050613937565b6000613913868661379e565b9050613920816001612f2c565b600086815260208990526040902055925060019150505b935093915050565b600081831061394e578161124f565b5090919050565b6000600160401b82106139995760405162461bcd60e51b815260040180806020018281038252602681526020018061406e6026913960400191505060405180910390fd5b5090565b6001600160a01b0383166139ba576139b58282613a6c565b6139dd565b6001600160a01b0382166139d2576139b58382613ac9565b6139dd838383613b78565b505050565b600083816139f1856001613716565b90505b81811115613a62576000613a1e6002613a186001613a128688612f2c565b90612f2c565b90613bae565b600081815260208a90526040902054909150600160c01b90046001600160401b03168510613a4e57809250613a5c565b613a59816001613716565b91505b506139f4565b5095945050505050565b6000613a7c82613a128543611698565b9050613a8a60068483613c15565b600a54613a9e9060069085906002906133b2565b50613ab7613aaf83613a1243611da1565b600790613c33565b600a546120c0906007906002906133f8565b6000613b0f8260405180604001604052806016815260200175213ab937103a37b7903134b3903337b91037bbb732b960511b815250613b088643611698565b9190612e33565b9050613b1d60068483613c15565b600a54613b319060069085906002906133b2565b50613ab7613aaf836040518060400160405280601d81526020017f4275726e20746f6f2062696720666f7220746f74616c20737570706c79000000815250613b0843611da1565b613b856006848484613df4565b600a54613b999060069085906002906133b2565b50600a546120c09060069084906002906133b2565b6000808211613c04576040805162461bcd60e51b815260206004820152601a60248201527f536166654d6174683a206469766973696f6e206279207a65726f000000000000604482015290519081900360640190fd5b818381613c0d57fe5b049392505050565b6001600160a01b03821660009081526020849052604090206120c081835b6001820154600160401b90046001600160401b031680613cea576040518060400160405280613c6184613e83565b6001600160c01b03168152602001613c7843613955565b6001600160401b03908116909152600080805260208681526040909120835181549490920151909216600160c01b026001600160c01b039182166001600160c01b0319909416939093171691909117905560018301805467ffffffffffffffff60401b1916600160401b1790556139dd565b600019810160009081526020849052604090208054600160c01b90046001600160401b031643811415613d4057613d2084613e83565b82546001600160c01b0319166001600160c01b0391909116178255611127565b804311613d4957fe5b6040518060400160405280613d5d86613e83565b6001600160c01b03168152602001613d7443613955565b6001600160401b039081169091526000858152602088815260409091208351815494909201518316600160c01b026001600160c01b039283166001600160c01b0319909516949094179091169290921790915560018087018054918601909216600160401b0267ffffffffffffffff60401b199091161790555050505050565b80613dfe576120c0565b6001600160a01b038316158015613e1c57506001600160a01b038216155b15613e2357fe5b6001600160a01b03831615613e57576000613e4882613e428787613edd565b90613716565b9050613e55858583613c15565b505b6001600160a01b038216156120c0576000613e7682613a128786613edd565b9050611127858483613c15565b6000600160c01b8210613999576040805162461bcd60e51b815260206004820152601d60248201527f76616c756520646f65736e27742066697420696e203139322062697473000000604482015290519081900360640190fd5b6001600160a01b03811660009081526020839052604081206131f6816001810154600090600160401b90046001600160401b031680613f205760009150506111b4565b6000190160009081526020929092525060409020546001600160c01b03169056fe45524332303a207472616e7366657220746f20746865207a65726f206164647265737345524332303a206275726e20616d6f756e7420657863656564732062616c616e6365436c65616e757020626c6f636b206d75737420626520696e20746865207061737445524332303a20617070726f766520746f20746865207a65726f206164647265737345524332303a207472616e7366657220616d6f756e7420657863656564732062616c616e6365436c65616e757020626c6f636b206e756d626572206d757374206e65766572206465637265617365436865636b506f696e7461626c653a2072656164696e672066726f6d20636c65616e65642d757020626c6f636b5650436f6e7472616374206e6f7420636f6e6669677572656420666f72207265706c6163656d656e7453616665436173743a2076616c756520646f65736e27742066697420696e203634206269747345524332303a207472616e7366657220616d6f756e74206578636565647320616c6c6f77616e6365476f7665726e616e636520766f746520706f77657220636f6e747261637420646f6573206e6f742062656c6f6e6720746f207468697320746f6b656e2e45524332303a206275726e2066726f6d20746865207a65726f206164647265737345524332303a207472616e736665722066726f6d20746865207a65726f206164647265737345524332303a20617070726f76652066726f6d20746865207a65726f2061646472657373436865636b506f696e74486973746f72793a2072656164696e672066726f6d20636c65616e65642d757020626c6f636b45524332303a2064656372656173656420616c6c6f77616e63652062656c6f77207a65726f5650436f6e7472616374206e6f74206f776e6564206279207468697320746f6b656ea26469706673582212204c4239aeb6dc9a8a0c932e338fe70bb0e522373df7c8d74edf3628b86b0e2e3164736f6c63430007060033",
  "linkReferences": {},
  "deployedLinkReferences": {}
}