{
  "_format": "hh-sol-artifact-1",
  "contractName": "FlareDaemonMock2",
  "sourceName": "contracts/genesis/mock/FlareDaemonMock2.sol",
  "abi": [
    {
      "stateMutability": "payable",
      "type": "fallback"
    },
    {
      "inputs": [],
      "name": "DEFAULT_FALLBACK_VALUE",
      "outputs": [
        {
          "internalType": "bytes",
          "name": "",
          "type": "bytes"
        }
      ],
      "stateMutability": "view",
      "type": "function"
    },
    {
      "inputs": [],
      "name": "MOCKS_LIST_END",
      "outputs": [
        {
          "internalType": "bytes",
          "name": "",
          "type": "bytes"
        }
      ],
      "stateMutability": "view",
      "type": "function"
    },
    {
      "inputs": [],
      "name": "MOCKS_LIST_END_HASH",
      "outputs": [
        {
          "internalType": "bytes32",
          "name": "",
          "type": "bytes32"
        }
      ],
      "stateMutability": "view",
      "type": "function"
    },
    {
      "inputs": [],
      "name": "MOCKS_LIST_START",
      "outputs": [
        {
          "internalType": "bytes32",
          "name": "",
          "type": "bytes32"
        }
      ],
      "stateMutability": "view",
      "type": "function"
    },
    {
      "inputs": [],
      "name": "SENTINEL_ANY_MOCKS",
      "outputs": [
        {
          "internalType": "bytes4",
          "name": "",
          "type": "bytes4"
        }
      ],
      "stateMutability": "view",
      "type": "function"
    },
    {
      "inputs": [
        {
          "internalType": "address",
          "name": "_inflation",
          "type": "address"
        }
      ],
      "name": "callReceiveMinting",
      "outputs": [],
      "stateMutability": "payable",
      "type": "function"
    },
    {
      "inputs": [
        {
          "internalType": "uint256",
          "name": "",
          "type": "uint256"
        }
      ],
      "name": "daemonizeContracts",
      "outputs": [
        {
          "internalType": "address",
          "name": "",
          "type": "address"
        }
      ],
      "stateMutability": "view",
      "type": "function"
    },
    {
      "inputs": [
        {
          "internalType": "address",
          "name": "_inflation",
          "type": "address"
        }
      ],
      "name": "fallbackTest",
      "outputs": [
        {
          "internalType": "bytes",
          "name": "",
          "type": "bytes"
        }
      ],
      "stateMutability": "nonpayable",
      "type": "function"
    },
    {
      "inputs": [
        {
          "internalType": "bytes",
          "name": "response",
          "type": "bytes"
        }
      ],
      "name": "givenAnyReturn",
      "outputs": [],
      "stateMutability": "nonpayable",
      "type": "function"
    },
    {
      "inputs": [
        {
          "internalType": "address",
          "name": "response",
          "type": "address"
        }
      ],
      "name": "givenAnyReturnAddress",
      "outputs": [],
      "stateMutability": "nonpayable",
      "type": "function"
    },
    {
      "inputs": [
        {
          "internalType": "bool",
          "name": "response",
          "type": "bool"
        }
      ],
      "name": "givenAnyReturnBool",
      "outputs": [],
      "stateMutability": "nonpayable",
      "type": "function"
    },
    {
      "inputs": [
        {
          "internalType": "uint256",
          "name": "response",
          "type": "uint256"
        }
      ],
      "name": "givenAnyReturnUint",
      "outputs": [],
      "stateMutability": "nonpayable",
      "type": "function"
    },
    {
      "inputs": [],
      "name": "givenAnyRevert",
      "outputs": [],
      "stateMutability": "nonpayable",
      "type": "function"
    },
    {
      "inputs": [
        {
          "internalType": "string",
          "name": "message",
          "type": "string"
        }
      ],
      "name": "givenAnyRevertWithMessage",
      "outputs": [],
      "stateMutability": "nonpayable",
      "type": "function"
    },
    {
      "inputs": [],
      "name": "givenAnyRunOutOfGas",
      "outputs": [],
      "stateMutability": "nonpayable",
      "type": "function"
    },
    {
      "inputs": [
        {
          "internalType": "bytes",
          "name": "call",
          "type": "bytes"
        },
        {
          "internalType": "bytes",
          "name": "response",
          "type": "bytes"
        }
      ],
      "name": "givenCalldataReturn",
      "outputs": [],
      "stateMutability": "nonpayable",
      "type": "function"
    },
    {
      "inputs": [
        {
          "internalType": "bytes",
          "name": "call",
          "type": "bytes"
        },
        {
          "internalType": "address",
          "name": "response",
          "type": "address"
        }
      ],
      "name": "givenCalldataReturnAddress",
      "outputs": [],
      "stateMutability": "nonpayable",
      "type": "function"
    },
    {
      "inputs": [
        {
          "internalType": "bytes",
          "name": "call",
          "type": "bytes"
        },
        {
          "internalType": "bool",
          "name": "response",
          "type": "bool"
        }
      ],
      "name": "givenCalldataReturnBool",
      "outputs": [],
      "stateMutability": "nonpayable",
      "type": "function"
    },
    {
      "inputs": [
        {
          "internalType": "bytes",
          "name": "call",
          "type": "bytes"
        },
        {
          "internalType": "uint256",
          "name": "response",
          "type": "uint256"
        }
      ],
      "name": "givenCalldataReturnUint",
      "outputs": [],
      "stateMutability": "nonpayable",
      "type": "function"
    },
    {
      "inputs": [
        {
          "internalType": "bytes",
          "name": "call",
          "type": "bytes"
        }
      ],
      "name": "givenCalldataRevert",
      "outputs": [],
      "stateMutability": "nonpayable",
      "type": "function"
    },
    {
      "inputs": [
        {
          "internalType": "bytes",
          "name": "call",
          "type": "bytes"
        },
        {
          "internalType": "string",
          "name": "message",
          "type": "string"
        }
      ],
      "name": "givenCalldataRevertWithMessage",
      "outputs": [],
      "stateMutability": "nonpayable",
      "type": "function"
    },
    {
      "inputs": [
        {
          "internalType": "bytes",
          "name": "call",
          "type": "bytes"
        }
      ],
      "name": "givenCalldataRunOutOfGas",
      "outputs": [],
      "stateMutability": "nonpayable",
      "type": "function"
    },
    {
      "inputs": [
        {
          "internalType": "bytes",
          "name": "call",
          "type": "bytes"
        },
        {
          "internalType": "bytes",
          "name": "response",
          "type": "bytes"
        }
      ],
      "name": "givenMethodReturn",
      "outputs": [],
      "stateMutability": "nonpayable",
      "type": "function"
    },
    {
      "inputs": [
        {
          "internalType": "bytes",
          "name": "call",
          "type": "bytes"
        },
        {
          "internalType": "address",
          "name": "response",
          "type": "address"
        }
      ],
      "name": "givenMethodReturnAddress",
      "outputs": [],
      "stateMutability": "nonpayable",
      "type": "function"
    },
    {
      "inputs": [
        {
          "internalType": "bytes",
          "name": "call",
          "type": "bytes"
        },
        {
          "internalType": "bool",
          "name": "response",
          "type": "bool"
        }
      ],
      "name": "givenMethodReturnBool",
      "outputs": [],
      "stateMutability": "nonpayable",
      "type": "function"
    },
    {
      "inputs": [
        {
          "internalType": "bytes",
          "name": "call",
          "type": "bytes"
        },
        {
          "internalType": "uint256",
          "name": "response",
          "type": "uint256"
        }
      ],
      "name": "givenMethodReturnUint",
      "outputs": [],
      "stateMutability": "nonpayable",
      "type": "function"
    },
    {
      "inputs": [
        {
          "internalType": "bytes",
          "name": "call",
          "type": "bytes"
        }
      ],
      "name": "givenMethodRevert",
      "outputs": [],
      "stateMutability": "nonpayable",
      "type": "function"
    },
    {
      "inputs": [
        {
          "internalType": "bytes",
          "name": "call",
          "type": "bytes"
        },
        {
          "internalType": "string",
          "name": "message",
          "type": "string"
        }
      ],
      "name": "givenMethodRevertWithMessage",
      "outputs": [],
      "stateMutability": "nonpayable",
      "type": "function"
    },
    {
      "inputs": [
        {
          "internalType": "bytes",
          "name": "call",
          "type": "bytes"
        }
      ],
      "name": "givenMethodRunOutOfGas",
      "outputs": [],
      "stateMutability": "nonpayable",
      "type": "function"
    },
    {
      "inputs": [],
      "name": "invocationCount",
      "outputs": [
        {
          "internalType": "uint256",
          "name": "",
          "type": "uint256"
        }
      ],
      "stateMutability": "nonpayable",
      "type": "function"
    },
    {
      "inputs": [
        {
          "internalType": "bytes",
          "name": "call",
          "type": "bytes"
        }
      ],
      "name": "invocationCountForCalldata",
      "outputs": [
        {
          "internalType": "uint256",
          "name": "",
          "type": "uint256"
        }
      ],
      "stateMutability": "nonpayable",
      "type": "function"
    },
    {
      "inputs": [
        {
          "internalType": "bytes",
          "name": "call",
          "type": "bytes"
        }
      ],
      "name": "invocationCountForMethod",
      "outputs": [
        {
          "internalType": "uint256",
          "name": "",
          "type": "uint256"
        }
      ],
      "stateMutability": "nonpayable",
      "type": "function"
    },
    {
      "inputs": [
        {
          "internalType": "address",
          "name": "_daemonize",
          "type": "address"
        }
      ],
      "name": "registerToDaemonize",
      "outputs": [],
      "stateMutability": "nonpayable",
      "type": "function"
    },
    {
      "inputs": [
        {
          "internalType": "uint256",
          "name": "",
          "type": "uint256"
        }
      ],
      "name": "requestMinting",
      "outputs": [],
      "stateMutability": "pure",
      "type": "function"
    },
    {
      "inputs": [],
      "name": "reset",
      "outputs": [],
      "stateMutability": "nonpayable",
      "type": "function"
    },
    {
      "inputs": [],
      "name": "trigger",
      "outputs": [],
      "stateMutability": "nonpayable",
      "type": "function"
    },
    {
      "inputs": [
        {
          "internalType": "bytes4",
          "name": "methodId",
          "type": "bytes4"
        },
        {
          "internalType": "bytes",
          "name": "originalMsgData",
          "type": "bytes"
        }
      ],
      "name": "updateInvocationCount",
      "outputs": [],
      "stateMutability": "nonpayable",
      "type": "function"
    }
  ],
  "bytecode": "0x60806040526000604051602001808215158152602001915050604051602081830303815290604052600b90805190602001906200003e9291906200017e565b503480156200004c57600080fd5b506040518060400160405280600481526020017f30786666000000000000000000000000000000000000000000000000000000008152506000807f010000000000000000000000000000000000000000000000000000000000000081526020019081526020016000209080519060200190620000ca9291906200017e565b507f0100000000000000000000000000000000000000000000000000000000000000600560007f01000000000000000000000000000000000000000000000000000000000000007bffffffffffffffffffffffffffffffffffffffffffffffffffffffff19167bffffffffffffffffffffffffffffffffffffffffffffffffffffffff1916815260200190815260200160002060006101000a81548163ffffffff021916908360e01c021790555062000224565b828054600181600116156101000203166002900490600052602060002090601f016020900481019282601f10620001c157805160ff1916838001178555620001f2565b82800160010185558215620001f2579182015b82811115620001f1578251825591602001919060010190620001d4565b5b50905062000201919062000205565b5090565b5b808211156200022057600081600090555060010162000206565b5090565b6143c080620002346000396000f3fe60806040526004361061021e5760003560e01c80637cd96ee411610123578063cf11ff5d116100ab578063e9de7d601161006f578063e9de7d60146119f4578063eb861f6914611a2f578063f07da22914611ab5578063f5afa9c114611aff578063f6abe97014611b8f5761021f565b8063cf11ff5d1461180a578063d6fe9778146118b0578063d73ca0ac14611936578063d826f88f146119c6578063e211b8a5146119dd5761021f565b80639eaeed75116100f25780639eaeed75146114ed578063aa788c55146115c8578063af21ac781461164e578063b3901f2914611689578063c6ee167f1461172f5761021f565b80637cd96ee4146112e55780637fec8d381461137557806387abab651461138c5780639a1dc86b146114125761021f565b806358cbc025116101a6578063682b479711610175578063682b4797146110c657806368ab6f2f146111175780636dbdce441461119d5780636e1623ad146112025780636f400756146112535761021f565b806358cbc02514610e3d5780635a3855ab14610f2e5780636193659414610fc057806367aad04a1461109b5761021f565b806336ff0ee5116101ed57806336ff0ee514610c715780633956dc6b14610cae5780634283f10914610cc55780634937c4f614610d09578063586984a414610da35761021f565b80630a20119f14610b05578063122aea8114610b3057806321fed4d614610bc05780632ed238dc14610c465761021f565b5b6000803590506001600281111561023257fe5b6001600036604051808383808284378083019250505092505050908152602001604051809103902060009054906101000a900460ff16600281111561027357fe5b141561035f57600360003660405180838380828437808301925050509250505090815260200160405180910390206040517f08c379a000000000000000000000000000000000000000000000000000000000815260040180806020018281038252838181546001816001161561010002031660029004815260200191508054600181600116156101000203166002900480156103505780601f1061032557610100808354040283529160200191610350565b820191906000526020600020905b81548152906001019060200180831161033357829003601f168201915b50509250505060405180910390fd5b60028081111561036b57fe5b6001600036604051808383808284378083019250505092505050908152602001604051809103902060009054906101000a900460ff1660028111156103ac57fe5b14156103bb576103ba611c59565b5b6060600260003660405180838380828437808301925050509250505090815260200160405180910390208054600181600116156101000203166002900480601f0160208091040260200160405190810160405280929190818152602001828054600181600116156101000203166002900480156104795780601f1061044e57610100808354040283529160200191610479565b820191906000526020600020905b81548152906001019060200180831161045c57829003601f168201915b50505050509050600081511415610788576001600281111561049757fe5b60066000847bffffffffffffffffffffffffffffffffffffffffffffffffffffffff19167bffffffffffffffffffffffffffffffffffffffffffffffffffffffff1916815260200190815260200160002060009054906101000a900460ff16600281111561050157fe5b14156106165760086000837bffffffffffffffffffffffffffffffffffffffffffffffffffffffff19167bffffffffffffffffffffffffffffffffffffffffffffffffffffffff191681526020019081526020016000206040517f08c379a000000000000000000000000000000000000000000000000000000000815260040180806020018281038252838181546001816001161561010002031660029004815260200191508054600181600116156101000203166002900480156106075780601f106105dc57610100808354040283529160200191610607565b820191906000526020600020905b8154815290600101906020018083116105ea57829003601f168201915b50509250505060405180910390fd5b60028081111561062257fe5b60066000847bffffffffffffffffffffffffffffffffffffffffffffffffffffffff19167bffffffffffffffffffffffffffffffffffffffffffffffffffffffff1916815260200190815260200160002060009054906101000a900460ff16600281111561068c57fe5b141561069b5761069a611c59565b5b60076000837bffffffffffffffffffffffffffffffffffffffffffffffffffffffff19167bffffffffffffffffffffffffffffffffffffffffffffffffffffffff191681526020019081526020016000208054600181600116156101000203166002900480601f0160208091040260200160405190810160405280929190818152602001828054600181600116156101000203166002900480156107805780601f1061075557610100808354040283529160200191610780565b820191906000526020600020905b81548152906001019060200180831161076357829003601f168201915b505050505090505b600081511415610954576001600281111561079f57fe5b600a60009054906101000a900460ff1660028111156107ba57fe5b141561088057600c6040517f08c379a000000000000000000000000000000000000000000000000000000000815260040180806020018281038252838181546001816001161561010002031660029004815260200191508054600181600116156101000203166002900480156108715780601f1061084657610100808354040283529160200191610871565b820191906000526020600020905b81548152906001019060200180831161085457829003601f168201915b50509250505060405180910390fd5b60028081111561088c57fe5b600a60009054906101000a900460ff1660028111156108a757fe5b14156108b6576108b5611c59565b5b600b8054600181600116156101000203166002900480601f01602080910402602001604051908101604052809291908181526020018280546001816001161561010002031660029004801561094c5780601f106109215761010080835404028352916020019161094c565b820191906000526020600020905b81548152906001019060200180831161092f57829003601f168201915b505050505090505b60603073ffffffffffffffffffffffffffffffffffffffff16620186a08460003660405160240180847bffffffffffffffffffffffffffffffffffffffffffffffffffffffff19168152602001806020018281038252848482818152602001925080828437600081840152601f19601f8201169050808301925050509450505050506040516020818303038152906040527f58cbc025000000000000000000000000000000000000000000000000000000007bffffffffffffffffffffffffffffffffffffffffffffffffffffffff19166020820180517bffffffffffffffffffffffffffffffffffffffffffffffffffffffff83818316178352505050506040518082805190602001908083835b60208310610a865780518252602082019150602081019050602083039250610a63565b6001836020036101000a03801982511681845116808217855250505050505090500191505060006040518083038160008787f1925050503d8060008114610ae9576040519150601f19603f3d011682016040523d82523d6000602084013e610aee565b606091505b509150506000815114610afd57fe5b815182602001f35b348015610b1157600080fd5b50610b1a611c7e565b6040518082815260200191505060405180910390f35b348015610b3c57600080fd5b50610b45611c88565b6040518080602001828103825283818151815260200191508051906020019080838360005b83811015610b85578082015181840152602081019050610b6a565b50505050905090810190601f168015610bb25780820380516001836020036101000a031916815260200191505b509250505060405180910390f35b348015610bcc57600080fd5b50610c4460048036036020811015610be357600080fd5b8101908080359060200190640100000000811115610c0057600080fd5b820183602082011115610c1257600080fd5b80359060200191846001830284011164010000000083111715610c3457600080fd5b9091929391929390505050611cae565b005b348015610c5257600080fd5b50610c5b611d48565b6040518082815260200191505060405180910390f35b348015610c7d57600080fd5b50610cac60048036036020811015610c9457600080fd5b81019080803515159060200190929190505050611d88565b005b348015610cba57600080fd5b50610cc3611db3565b005b610d0760048036036020811015610cdb57600080fd5b81019080803573ffffffffffffffffffffffffffffffffffffffff169060200190929190505050611dd9565b005b348015610d1557600080fd5b50610d8d60048036036020811015610d2c57600080fd5b8101908080359060200190640100000000811115610d4957600080fd5b820183602082011115610d5b57600080fd5b80359060200191846001830284011164010000000083111715610d7d57600080fd5b9091929391929390505050611f28565b6040518082815260200191505060405180910390f35b348015610daf57600080fd5b50610e2760048036036020811015610dc657600080fd5b8101908080359060200190640100000000811115610de357600080fd5b820183602082011115610df557600080fd5b80359060200191846001830284011164010000000083111715610e1757600080fd5b9091929391929390505050611fe6565b6040518082815260200191505060405180910390f35b348015610e4957600080fd5b50610f2c60048036036040811015610e6057600080fd5b8101908080357bffffffffffffffffffffffffffffffffffffffffffffffffffffffff1916906020019092919080359060200190640100000000811115610ea657600080fd5b820183602082011115610eb857600080fd5b80359060200191846001830284011164010000000083111715610eda57600080fd5b91908080601f016020809104026020016040519081016040528093929190818152602001838380828437600081840152601f19601f82011690508083019250505050505050919291929050505061203d565b005b348015610f3a57600080fd5b50610fbe60048036036040811015610f5157600080fd5b8101908080359060200190640100000000811115610f6e57600080fd5b820183602082011115610f8057600080fd5b80359060200191846001830284011164010000000083111715610fa257600080fd5b90919293919293908035151590602001909291905050506121e4565b005b348015610fcc57600080fd5b5061109960048036036040811015610fe357600080fd5b810190808035906020019064010000000081111561100057600080fd5b82018360208201111561101257600080fd5b8035906020019184600183028401116401000000008311171561103457600080fd5b90919293919293908035906020019064010000000081111561105557600080fd5b82018360208201111561106757600080fd5b8035906020019184600183028401116401000000008311171561108957600080fd5b9091929391929390505050612256565b005b3480156110a757600080fd5b506110b06122ee565b6040518082815260200191505060405180910390f35b3480156110d257600080fd5b50611115600480360360208110156110e957600080fd5b81019080803573ffffffffffffffffffffffffffffffffffffffff169060200190929190505050612312565b005b34801561112357600080fd5b5061119b6004803603602081101561113a57600080fd5b810190808035906020019064010000000081111561115757600080fd5b82018360208201111561116957600080fd5b8035906020019184600183028401116401000000008311171561118b57600080fd5b909192939192939050505061233c565b005b3480156111a957600080fd5b506111d6600480360360208110156111c057600080fd5b810190808035906020019092919050505061240e565b604051808273ffffffffffffffffffffffffffffffffffffffff16815260200191505060405180910390f35b34801561120e57600080fd5b506112516004803603602081101561122557600080fd5b81019080803573ffffffffffffffffffffffffffffffffffffffff16906020019092919050505061244a565b005b34801561125f57600080fd5b506112e36004803603604081101561127657600080fd5b810190808035906020019064010000000081111561129357600080fd5b8201836020820111156112a557600080fd5b803590602001918460018302840111640100000000831117156112c757600080fd5b9091929391929390803515159060200190929190505050612547565b005b3480156112f157600080fd5b506112fa6125b9565b6040518080602001828103825283818151815260200191508051906020019080838360005b8381101561133a57808201518184015260208101905061131f565b50505050905090810190601f1680156113675780820380516001836020036101000a031916815260200191505b509250505060405180910390f35b34801561138157600080fd5b5061138a6125f2565b005b34801561139857600080fd5b50611410600480360360208110156113af57600080fd5b81019080803590602001906401000000008111156113cc57600080fd5b8201836020820111156113de57600080fd5b8035906020019184600183028401116401000000008311171561140057600080fd5b9091929391929390505050612843565b005b34801561141e57600080fd5b506114eb6004803603604081101561143557600080fd5b810190808035906020019064010000000081111561145257600080fd5b82018360208201111561146457600080fd5b8035906020019184600183028401116401000000008311171561148657600080fd5b9091929391929390803590602001906401000000008111156114a757600080fd5b8201836020820111156114b957600080fd5b803590602001918460018302840111640100000000831117156114db57600080fd5b909192939192939050505061287d565b005b3480156114f957600080fd5b506115c66004803603604081101561151057600080fd5b810190808035906020019064010000000081111561152d57600080fd5b82018360208201111561153f57600080fd5b8035906020019184600183028401116401000000008311171561156157600080fd5b90919293919293908035906020019064010000000081111561158257600080fd5b82018360208201111561159457600080fd5b803590602001918460018302840111640100000000831117156115b657600080fd5b90919293919293905050506129b2565b005b3480156115d457600080fd5b5061164c600480360360208110156115eb57600080fd5b810190808035906020019064010000000081111561160857600080fd5b82018360208201111561161a57600080fd5b8035906020019184600183028401116401000000008311171561163c57600080fd5b9091929391929390505050612a84565b005b34801561165a57600080fd5b506116876004803603602081101561167157600080fd5b8101908080359060200190929190505050612b56565b005b34801561169557600080fd5b5061172d600480360360408110156116ac57600080fd5b81019080803590602001906401000000008111156116c957600080fd5b8201836020820111156116db57600080fd5b803590602001918460018302840111640100000000831117156116fd57600080fd5b9091929391929390803573ffffffffffffffffffffffffffffffffffffffff169060200190929190505050612b6a565b005b34801561173b57600080fd5b506118086004803603604081101561175257600080fd5b810190808035906020019064010000000081111561176f57600080fd5b82018360208201111561178157600080fd5b803590602001918460018302840111640100000000831117156117a357600080fd5b9091929391929390803590602001906401000000008111156117c457600080fd5b8201836020820111156117d657600080fd5b803590602001918460018302840111640100000000831117156117f857600080fd5b9091929391929390505050612bdb565b005b34801561181657600080fd5b506118ae6004803603604081101561182d57600080fd5b810190808035906020019064010000000081111561184a57600080fd5b82018360208201111561185c57600080fd5b8035906020019184600183028401116401000000008311171561187e57600080fd5b9091929391929390803573ffffffffffffffffffffffffffffffffffffffff169060200190929190505050612c73565b005b3480156118bc57600080fd5b50611934600480360360208110156118d357600080fd5b81019080803590602001906401000000008111156118f057600080fd5b82018360208201111561190257600080fd5b8035906020019184600183028401116401000000008311171561192457600080fd5b9091929391929390505050612ce4565b005b34801561194257600080fd5b506119c46004803603604081101561195957600080fd5b810190808035906020019064010000000081111561197657600080fd5b82018360208201111561198857600080fd5b803590602001918460018302840111640100000000831117156119aa57600080fd5b909192939192939080359060200190929190505050612d35565b005b3480156119d257600080fd5b506119db612d90565b005b3480156119e957600080fd5b506119f261360d565b005b348015611a0057600080fd5b50611a2d60048036036020811015611a1757600080fd5b8101908080359060200190929190505050613659565b005b348015611a3b57600080fd5b50611ab360048036036020811015611a5257600080fd5b8101908080359060200190640100000000811115611a6f57600080fd5b820183602082011115611a8157600080fd5b80359060200191846001830284011164010000000083111715611aa357600080fd5b90919293919293905050506136c7565b005b348015611ac157600080fd5b50611aca6137ab565b60405180827bffffffffffffffffffffffffffffffffffffffffffffffffffffffff1916815260200191505060405180910390f35b348015611b0b57600080fd5b50611b8d60048036036040811015611b2257600080fd5b8101908080359060200190640100000000811115611b3f57600080fd5b820183602082011115611b5157600080fd5b80359060200191846001830284011164010000000083111715611b7357600080fd5b9091929391929390803590602001909291905050506137cf565b005b348015611b9b57600080fd5b50611bde60048036036020811015611bb257600080fd5b81019080803573ffffffffffffffffffffffffffffffffffffffff16906020019092919050505061382a565b6040518080602001828103825283818151815260200191508051906020019080838360005b83811015611c1e578082015181840152602081019050611c03565b50505050905090810190601f168015611c4b5780820380516001836020036101000a031916815260200191505b509250505060405180910390f35b5b600115611c7c5760006060600060c060008060066107d05a03f1905050611c5a565b565b6000600d54905090565b600060405160200180821515815260200191505060405160208183030381529060405281565b600260018383604051808383808284378083019250505092505050908152602001604051809103902060006101000a81548160ff02191690836002811115611cf257fe5b0217905550611d4482828080601f016020809104026020016040519081016040528093929190818152602001838380828437600081840152601f19601f82011690508083019250505050505050613982565b5050565b6040518060400160405280600481526020017f30786666000000000000000000000000000000000000000000000000000000008152508051906020012081565b600081611d96576000611d99565b60015b60ff169050611daf611daa82613a6d565b613ac8565b5050565b6002600a60006101000a81548160ff02191690836002811115611dd257fe5b0217905550565b60606040516024016040516020818303038152906040527fc611c2c5000000000000000000000000000000000000000000000000000000007bffffffffffffffffffffffffffffffffffffffffffffffffffffffff19166020820180517bffffffffffffffffffffffffffffffffffffffffffffffffffffffff8381831617835250505050905060008273ffffffffffffffffffffffffffffffffffffffff1634836040518082805190602001908083835b60208310611eae5780518252602082019150602081019050602083039250611e8b565b6001836020036101000a03801982511681845116808217855250505050505090500191505060006040518083038185875af1925050503d8060008114611f10576040519150601f19603f3d011682016040523d82523d6000602084013e611f15565b606091505b5050905080611f2357600080fd5b505050565b600080611f7884848080601f016020809104026020016040519081016040528093929190818152602001838380828437600081840152601f19601f82011690508083019250505050505050613b06565b905060096000600e548360405160200180838152602001827bffffffffffffffffffffffffffffffffffffffffffffffffffffffff19168152600401925050506040516020818303038152906040528051906020012081526020019081526020016000205491505092915050565b600060046000600e5485856040516020018084815260200183838082843780830192505050935050505060405160208183030381529060405280519060200120815260200190815260200160002054905092915050565b3073ffffffffffffffffffffffffffffffffffffffff163373ffffffffffffffffffffffffffffffffffffffff16146120c1576040517f08c379a000000000000000000000000000000000000000000000000000000000815260040180806020018281038252602b815260200180614360602b913960400191505060405180910390fd5b6001600d60008282540192505081905550600160096000600e548560405160200180838152602001827bffffffffffffffffffffffffffffffffffffffffffffffffffffffff191681526004019250505060405160208183030381529060405280519060200120815260200190815260200160002060008282540192505081905550600160046000600e54846040516020018083815260200182805190602001908083835b602083106121895780518252602082019150602081019050602083039250612166565b6001836020036101000a03801982511681845116808217855250505050505090500192505050604051602081830303815290604052805190602001208152602001908152602001600020600082825401925050819055505050565b6000816121f25760006121f5565b60015b60ff16905061225084848080601f016020809104026020016040519081016040528093929190818152602001838380828437600081840152601f19601f8201169050808301925050505050505061224b83613a6d565b613b94565b50505050565b6122e884848080601f016020809104026020016040519081016040528093929190818152602001838380828437600081840152601f19601f8201169050808301925050505050505083838080601f016020809104026020016040519081016040528093929190818152602001838380828437600081840152601f19601f82011690508083019250505050505050613b94565b50505050565b7f010000000000000000000000000000000000000000000000000000000000000081565b6123396123348273ffffffffffffffffffffffffffffffffffffffff16613a6d565b613ac8565b50565b600061238b83838080601f016020809104026020016040519081016040528093929190818152602001838380828437600081840152601f19601f82011690508083019250505050505050613b06565b9050600260066000837bffffffffffffffffffffffffffffffffffffffffffffffffffffffff19167bffffffffffffffffffffffffffffffffffffffffffffffffffffffff1916815260200190815260200160002060006101000a81548160ff021916908360028111156123fb57fe5b021790555061240981613caa565b505050565b600f818154811061241b57fe5b906000526020600020016000915054906101000a900473ffffffffffffffffffffffffffffffffffffffff1681565b6000600f80549050905060005b818110156124de57600f818154811061246c57fe5b9060005260206000200160009054906101000a900473ffffffffffffffffffffffffffffffffffffffff1673ffffffffffffffffffffffffffffffffffffffff168373ffffffffffffffffffffffffffffffffffffffff1614156124d1575050612544565b8080600101915050612457565b50600f829080600181540180825580915050600190039060005260206000200160009091909190916101000a81548173ffffffffffffffffffffffffffffffffffffffff021916908373ffffffffffffffffffffffffffffffffffffffff160217905550505b50565b600081612555576000612558565b60015b60ff1690506125b384848080601f016020809104026020016040519081016040528093929190818152602001838380828437600081840152601f19601f820116905080830192505050505050506125ae83613a6d565b613eaf565b50505050565b6040518060400160405280600481526020017f307866660000000000000000000000000000000000000000000000000000000081525081565b6000600f80549050905060005b8181101561283f5760606040516024016040516020818303038152906040527f6d0e8c34000000000000000000000000000000000000000000000000000000007bffffffffffffffffffffffffffffffffffffffffffffffffffffffff19166020820180517bffffffffffffffffffffffffffffffffffffffffffffffffffffffff8381831617835250505050905060006060600f848154811061269f57fe5b9060005260206000200160009054906101000a900473ffffffffffffffffffffffffffffffffffffffff1673ffffffffffffffffffffffffffffffffffffffff16836040518082805190602001908083835b6020831061271457805182526020820191506020810190506020830392506126f1565b6001836020036101000a0380198251168184511680821785525050505050509050019150506000604051808303816000865af19150503d8060008114612776576040519150601f19603f3d011682016040523d82523d6000602084013e61277b565b606091505b50915091508161282f5761278e81613fa3565b6040517f08c379a00000000000000000000000000000000000000000000000000000000081526004018080602001828103825283818151815260200191508051906020019080838360005b838110156127f45780820151818401526020810190506127d9565b50505050905090810190601f1680156128215780820380516001836020036101000a031916815260200191505b509250505060405180910390fd5b50505080806001019150506125ff565b5050565b6001600a60006101000a81548160ff0219169083600281111561286257fe5b02179055508181600c91906128789291906140bb565b505050565b60006128cc85858080601f016020809104026020016040519081016040528093929190818152602001838380828437600081840152601f19601f82011690508083019250505050505050613b06565b9050600160066000837bffffffffffffffffffffffffffffffffffffffffffffffffffffffff19167bffffffffffffffffffffffffffffffffffffffffffffffffffffffff1916815260200190815260200160002060006101000a81548160ff0219169083600281111561293c57fe5b0217905550828260086000847bffffffffffffffffffffffffffffffffffffffffffffffffffffffff19167bffffffffffffffffffffffffffffffffffffffffffffffffffffffff1916815260200190815260200160002091906129a19291906140bb565b506129ab81613caa565b5050505050565b6001808585604051808383808284378083019250505092505050908152602001604051809103902060006101000a81548160ff021916908360028111156129f557fe5b021790555081816003868660405180838380828437808301925050509250505090815260200160405180910390209190612a309291906140bb565b50612a7e84848080601f016020809104026020016040519081016040528093929190818152602001838380828437600081840152601f19601f82011690508083019250505050505050613982565b50505050565b6000612ad383838080601f016020809104026020016040519081016040528093929190818152602001838380828437600081840152601f19601f82011690508083019250505050505050613b06565b9050600160066000837bffffffffffffffffffffffffffffffffffffffffffffffffffffffff19167bffffffffffffffffffffffffffffffffffffffffffffffffffffffff1916815260200190815260200160002060006101000a81548160ff02191690836002811115612b4357fe5b0217905550612b5181613caa565b505050565b612b67612b6282613a6d565b613ac8565b50565b612bd683838080601f016020809104026020016040519081016040528093929190818152602001838380828437600081840152601f19601f82011690508083019250505050505050612bd18373ffffffffffffffffffffffffffffffffffffffff16613a6d565b613b94565b505050565b612c6d84848080601f016020809104026020016040519081016040528093929190818152602001838380828437600081840152601f19601f8201169050808301925050505050505083838080601f016020809104026020016040519081016040528093929190818152602001838380828437600081840152601f19601f82011690508083019250505050505050613eaf565b50505050565b612cdf83838080601f016020809104026020016040519081016040528093929190818152602001838380828437600081840152601f19601f82011690508083019250505050505050612cda8373ffffffffffffffffffffffffffffffffffffffff16613a6d565b613eaf565b505050565b612d3182828080601f016020809104026020016040519081016040528093929190818152602001838380828437600081840152601f19601f82011690508083019250505050505050613ac8565b5050565b612d8b83838080601f016020809104026020016040519081016040528093929190818152602001838380828437600081840152601f19601f82011690508083019250505050505050612d8683613a6d565b613b94565b505050565b60606000807f010000000000000000000000000000000000000000000000000000000000000081526020019081526020016000208054600181600116156101000203166002900480601f016020809104026020016040519081016040528092919081815260200182805460018160011615610100020316600290048015612e585780601f10612e2d57610100808354040283529160200191612e58565b820191906000526020600020905b815481529060010190602001808311612e3b57829003601f168201915b505050505090506000818051906020012090505b6040518060400160405280600481526020017f30786666000000000000000000000000000000000000000000000000000000008152508051906020012081146131465760006001836040518082805190602001908083835b60208310612ee75780518252602082019150602081019050602083039250612ec4565b6001836020036101000a038019825116818451168082178552505050505050905001915050908152602001604051809103902060006101000a81548160ff02191690836002811115612f3557fe5b0217905550604051806020016040528060008152506002836040518082805190602001908083835b60208310612f805780518252602082019150602081019050602083039250612f5d565b6001836020036101000a03801982511681845116808217855250505050505090500191505090815260200160405180910390209080519060200190612fc692919061413b565b50604051806020016040528060008152506003836040518082805190602001908083835b6020831061300d5780518252602082019150602081019050602083039250612fea565b6001836020036101000a038019825116818451168082178552505050505050905001915050908152602001604051809103902090805190602001906130539291906141bb565b506000808281526020019081526020016000208054600181600116156101000203166002900480601f0160208091040260200160405190810160405280929190818152602001828054600181600116156101000203166002900480156130fa5780601f106130cf576101008083540402835291602001916130fa565b820191906000526020600020905b8154815290600101906020018083116130dd57829003601f168201915b5050505050915060405180602001604052806000815250600080838152602001908152602001600020908051906020019061313692919061413b565b5081805190602001209050612e6c565b6040518060400160405280600481526020017f30786666000000000000000000000000000000000000000000000000000000008152506000807f0100000000000000000000000000000000000000000000000000000000000000815260200190815260200160002090805190602001906131c192919061423b565b506000600560007f01000000000000000000000000000000000000000000000000000000000000007bffffffffffffffffffffffffffffffffffffffffffffffffffffffff19167bffffffffffffffffffffffffffffffffffffffffffffffffffffffff1916815260200190815260200160002060009054906101000a900460e01b90505b7f01000000000000000000000000000000000000000000000000000000000000007bffffffffffffffffffffffffffffffffffffffffffffffffffffffff1916817bffffffffffffffffffffffffffffffffffffffffffffffffffffffff1916146134e5576000819050600060066000837bffffffffffffffffffffffffffffffffffffffffffffffffffffffff19167bffffffffffffffffffffffffffffffffffffffffffffffffffffffff1916815260200190815260200160002060006101000a81548160ff0219169083600281111561331e57fe5b02179055506040518060200160405280600081525060076000837bffffffffffffffffffffffffffffffffffffffffffffffffffffffff19167bffffffffffffffffffffffffffffffffffffffffffffffffffffffff19168152602001908152602001600020908051906020019061339792919061413b565b506040518060200160405280600081525060086000837bffffffffffffffffffffffffffffffffffffffffffffffffffffffff19167bffffffffffffffffffffffffffffffffffffffffffffffffffffffff19168152602001908152602001600020908051906020019061340c9291906141bb565b5060056000827bffffffffffffffffffffffffffffffffffffffffffffffffffffffff19167bffffffffffffffffffffffffffffffffffffffffffffffffffffffff1916815260200190815260200160002060009054906101000a900460e01b9150600060e01b60056000837bffffffffffffffffffffffffffffffffffffffffffffffffffffffff19167bffffffffffffffffffffffffffffffffffffffffffffffffffffffff1916815260200190815260200160002060006101000a81548163ffffffff021916908360e01c021790555050613246565b7f0100000000000000000000000000000000000000000000000000000000000000600560007f01000000000000000000000000000000000000000000000000000000000000007bffffffffffffffffffffffffffffffffffffffffffffffffffffffff19167bffffffffffffffffffffffffffffffffffffffffffffffffffffffff1916815260200190815260200160002060006101000a81548163ffffffff021916908360e01c02179055506000604051602001808215158152602001915050604051602081830303815290604052600b90805190602001906135ca92919061423b565b506000600a60006101000a81548160ff021916908360028111156135ea57fe5b02179055506000600d819055506001600e60008282540192505081905550505050565b6001600a60006101000a81548160ff0219169083600281111561362c57fe5b021790555060405180602001604052806000815250600c90805190602001906136569291906141bb565b50565b6040517f08c379a000000000000000000000000000000000000000000000000000000000815260040180806020018281038252600e8152602001807f6d696e74696e67206661696c656400000000000000000000000000000000000081525060200191505060405180910390fd5b6001808383604051808383808284378083019250505092505050908152602001604051809103902060006101000a81548160ff0219169083600281111561370a57fe5b02179055506040518060200160405280600081525060038383604051808383808284378083019250505092505050908152602001604051809103902090805190602001906137599291906141bb565b506137a782828080601f016020809104026020016040519081016040528093929190818152602001838380828437600081840152601f19601f82011690508083019250505050505050613982565b5050565b7f010000000000000000000000000000000000000000000000000000000000000081565b61382583838080601f016020809104026020016040519081016040528093929190818152602001838380828437600081840152601f19601f8201169050808301925050505050505061382083613a6d565b613eaf565b505050565b6060806040516024016040516020818303038152906040527fe22fdece000000000000000000000000000000000000000000000000000000007bffffffffffffffffffffffffffffffffffffffffffffffffffffffff19166020820180517bffffffffffffffffffffffffffffffffffffffffffffffffffffffff83818316178352505050509050600060608473ffffffffffffffffffffffffffffffffffffffff16836040518082805190602001908083835b6020831061390157805182526020820191506020810190506020830392506138de565b6001836020036101000a0380198251168184511680821785525050505050509050019150506000604051808303816000865af19150503d8060008114613963576040519150601f19603f3d011682016040523d82523d6000602084013e613968565b606091505b50915091508161397757600080fd5b809350505050919050565b60008180519060200120905060008060008381526020019081526020016000208054600181600116156101000203166002900490501415613a69576000807f010000000000000000000000000000000000000000000000000000000000000081526020019081526020016000206000808381526020019081526020016000209080546001816001161561010002031660029004613a209291906142bb565b50816000807f010000000000000000000000000000000000000000000000000000000000000081526020019081526020016000209080519060200190613a6792919061423b565b505b5050565b6060602067ffffffffffffffff81118015613a8757600080fd5b506040519080825280601f01601f191660200182016040528015613aba5781602001600182028036833780820191505090505b509050816020820152919050565b6000600a60006101000a81548160ff02191690836002811115613ae757fe5b021790555080600b9080519060200190613b0292919061423b565b5050565b60008060005b6004811015613b8a576008810260ff60f81b858381518110613b2a57fe5b602001015160f81c60f81b167effffffffffffffffffffffffffffffffffffffffffffffffffffffffffffff19167bffffffffffffffffffffffffffffffffffffffffffffffffffffffff1916901c821791508080600101915050613b0c565b5080915050919050565b60006001836040518082805190602001908083835b60208310613bcc5780518252602082019150602081019050602083039250613ba9565b6001836020036101000a038019825116818451168082178552505050505050905001915050908152602001604051809103902060006101000a81548160ff02191690836002811115613c1a57fe5b0217905550806002836040518082805190602001908083835b60208310613c565780518252602082019150602081019050602083039250613c33565b6001836020036101000a03801982511681845116808217855250505050505090500191505090815260200160405180910390209080519060200190613c9c92919061423b565b50613ca682613982565b5050565b600060e01b60056000837bffffffffffffffffffffffffffffffffffffffffffffffffffffffff19167bffffffffffffffffffffffffffffffffffffffffffffffffffffffff1916815260200190815260200160002060009054906101000a900460e01b7bffffffffffffffffffffffffffffffffffffffffffffffffffffffff19161415613eac57600560007f01000000000000000000000000000000000000000000000000000000000000007bffffffffffffffffffffffffffffffffffffffffffffffffffffffff19167bffffffffffffffffffffffffffffffffffffffffffffffffffffffff1916815260200190815260200160002060009054906101000a900460e01b60056000837bffffffffffffffffffffffffffffffffffffffffffffffffffffffff19167bffffffffffffffffffffffffffffffffffffffffffffffffffffffff1916815260200190815260200160002060006101000a81548163ffffffff021916908360e01c021790555080600560007f01000000000000000000000000000000000000000000000000000000000000007bffffffffffffffffffffffffffffffffffffffffffffffffffffffff19167bffffffffffffffffffffffffffffffffffffffffffffffffffffffff1916815260200190815260200160002060006101000a81548163ffffffff021916908360e01c02179055505b50565b6000613eba83613b06565b9050600060066000837bffffffffffffffffffffffffffffffffffffffffffffffffffffffff19167bffffffffffffffffffffffffffffffffffffffffffffffffffffffff1916815260200190815260200160002060006101000a81548160ff02191690836002811115613f2a57fe5b02179055508160076000837bffffffffffffffffffffffffffffffffffffffffffffffffffffffff19167bffffffffffffffffffffffffffffffffffffffffffffffffffffffff191681526020019081526020016000209080519060200190613f9492919061423b565b50613f9e81613caa565b505050565b60606000825190506044811015613fcc57604051806020016040528060008152509150506140b6565b600060048401935083519050600482038452838060200190516020811015613ff357600080fd5b810190808051604051939291908464010000000082111561401357600080fd5b8382019150602082018581111561402957600080fd5b825186600182028301116401000000008211171561404657600080fd5b8083526020830192505050908051906020019080838360005b8381101561407a57808201518184015260208101905061405f565b50505050905090810190601f1680156140a75780820380516001836020036101000a031916815260200191505b50604052505050925080845250505b919050565b828054600181600116156101000203166002900490600052602060002090601f016020900481019282601f106140fc57803560ff191683800117855561412a565b8280016001018555821561412a579182015b8281111561412957823582559160200191906001019061410e565b5b5090506141379190614342565b5090565b828054600181600116156101000203166002900490600052602060002090601f016020900481019282601f1061417c57805160ff19168380011785556141aa565b828001600101855582156141aa579182015b828111156141a957825182559160200191906001019061418e565b5b5090506141b79190614342565b5090565b828054600181600116156101000203166002900490600052602060002090601f016020900481019282601f106141fc57805160ff191683800117855561422a565b8280016001018555821561422a579182015b8281111561422957825182559160200191906001019061420e565b5b5090506142379190614342565b5090565b828054600181600116156101000203166002900490600052602060002090601f016020900481019282601f1061427c57805160ff19168380011785556142aa565b828001600101855582156142aa579182015b828111156142a957825182559160200191906001019061428e565b5b5090506142b79190614342565b5090565b828054600181600116156101000203166002900490600052602060002090601f016020900481019282601f106142f45780548555614331565b8280016001018555821561433157600052602060002091601f016020900482015b82811115614330578254825591600101919060010190614315565b5b50905061433e9190614342565b5090565b5b8082111561435b576000816000905550600101614343565b509056fe43616e206f6e6c792062652063616c6c65642066726f6d2074686520636f6e747261637420697473656c66a2646970667358221220c6274885d3c55721af1a7e52911cf84e6d6d1a92b1722b431bd6e572485f356764736f6c634300060c0033",
  "linkReferences": {},
  "deployedLinkReferences": {}
}