{
  "_format": "hh-sol-artifact-1",
  "contractName": "ExplicitDelegationMock",
  "sourceName": "contracts/token/mock/ExplicitDelegationMock.sol",
  "abi": [
    {
      "inputs": [
        {
          "internalType": "address",
          "name": "_delegate",
          "type": "address"
        },
        {
          "internalType": "uint256",
          "name": "_bips",
          "type": "uint256"
        }
      ],
      "name": "addReplaceDelegate",
      "outputs": [],
      "stateMutability": "nonpayable",
      "type": "function"
    },
    {
      "inputs": [
        {
          "internalType": "address",
          "name": "_delegate",
          "type": "address"
        },
        {
          "internalType": "uint256",
          "name": "_count",
          "type": "uint256"
        },
        {
          "internalType": "uint256",
          "name": "_cleanupBlockNumber",
          "type": "uint256"
        }
      ],
      "name": "cleanupOldCheckpoints",
      "outputs": [],
      "stateMutability": "nonpayable",
      "type": "function"
    },
    {
      "inputs": [],
      "name": "getDelegatedTotal",
      "outputs": [
        {
          "internalType": "uint256",
          "name": "_totalBips",
          "type": "uint256"
        }
      ],
      "stateMutability": "view",
      "type": "function"
    },
    {
      "inputs": [
        {
          "internalType": "uint256",
          "name": "_blockNumber",
          "type": "uint256"
        }
      ],
      "name": "getDelegatedTotalAt",
      "outputs": [
        {
          "internalType": "uint256",
          "name": "_totalBips",
          "type": "uint256"
        }
      ],
      "stateMutability": "view",
      "type": "function"
    },
    {
      "inputs": [
        {
          "internalType": "address",
          "name": "_delegate",
          "type": "address"
        }
      ],
      "name": "getDelegatedValue",
      "outputs": [
        {
          "internalType": "uint256",
          "name": "_bips",
          "type": "uint256"
        }
      ],
      "stateMutability": "view",
      "type": "function"
    },
    {
      "inputs": [
        {
          "internalType": "address",
          "name": "_delegate",
          "type": "address"
        },
        {
          "internalType": "uint256",
          "name": "_blockNumber",
          "type": "uint256"
        }
      ],
      "name": "getDelegatedValueAt",
      "outputs": [
        {
          "internalType": "uint256",
          "name": "_bips",
          "type": "uint256"
        }
      ],
      "stateMutability": "view",
      "type": "function"
    }
  ],
  "bytecode": "0x608060405234801561001057600080fd5b50610b4a806100206000396000f3fe608060405234801561001057600080fd5b50600436106100625760003560e01c80635ef5af47146100675780636f8731e914610090578063bc25b279146100a5578063c13cc3bc146100b8578063d529883e146100c0578063dd54a82a146100d3575b600080fd5b61007a610075366004610a28565b6100e6565b6040516100879190610ab5565b60405180910390f35b6100a361009e366004610a42565b6100fa565b005b61007a6100b3366004610a42565b61010a565b61007a610120565b61007a6100ce366004610a9d565b610131565b6100a36100e1366004610a6b565b61013d565b60006100f28183610150565b90505b919050565b6101066000838361015f565b5050565b60006101178184846101d6565b90505b92915050565b600061012c60006101f0565b905090565b60006100f281836101fb565b61014a6000848484610207565b50505050565b6000610117600284018361022e565b600061016e600285018461022e565b905060006101b5836101af84604051806040016040528060098152602001680546f74616c203c20360bc1b8152506101a88a600001610257565b919061029f565b90610336565b90506101c5600286018585610390565b6101cf85826103ae565b5050505050565b60006101e6600285018484610570565b90505b9392505050565b60006100f282610257565b6000610117838361059b565b60006102148584846106de565b9050610225600286018585856107cb565b01949350505050565b6001600160a01b038116600090815260208390526040812061024f81610257565b949350505050565b6001810154600090600160401b90046001600160401b03168061027e5760009150506100f5565b6000190160009081526020929092525060409020546001600160c01b031690565b6000818484111561032e5760405162461bcd60e51b81526004018080602001828103825283818151815260200191508051906020019080838360005b838110156102f35781810151838201526020016102db565b50505050905090810190601f1680156103205780820380516001836020036101000a031916815260200191505b509250505060405180910390fd5b505050900390565b600082820183811015610117576040805162461bcd60e51b815260206004820152601b60248201527f536166654d6174683a206164646974696f6e206f766572666c6f770000000000604482015290519081900360640190fd5b6001600160a01b038216600090815260208490526040902061014a81835b6001820154600160401b90046001600160401b0316806104655760405180604001604052806103dc84610811565b6001600160c01b031681526020016103f34361086f565b6001600160401b03908116909152600080805260208681526040909120835181549490920151909216600160c01b026001600160c01b039182166001600160c01b0319909416939093171691909117905560018301805467ffffffffffffffff60401b1916600160401b17905561056b565b600019810160009081526020849052604090208054600160c01b90046001600160401b0316438114156104bb5761049b84610811565b82546001600160c01b0319166001600160c01b03919091161782556101cf565b8043116104c457fe5b60405180604001604052806104d886610811565b6001600160c01b031681526020016104ef4361086f565b6001600160401b039081169091526000858152602088815260409091208351815494909201518316600160c01b026001600160c01b039283166001600160c01b0319909516949094179091169290921790915560018087018054918601909216600160401b0267ffffffffffffffff60401b1990911617905550505b505050565b6001600160a01b0382166000908152602084905260408120610592818461059b565b95945050505050565b6001820154600090600160401b90046001600160401b0316806105c257600091505061011a565b43831015806105f457506000198101600090815260208590526040902054600160c01b90046001600160401b03168310155b1561061c57600019016000908152602084905260409020546001600160c01b0316905061011a565b60018401546001600160401b039081166000818152602087905260409020549091600160c01b9091041684101561069557801561068a5760405162461bcd60e51b8152600401808060200182810382526030815260200180610ae56030913960400191505060405180910390fd5b60009250505061011a565b60018501546000906106bb9087908490600160401b90046001600160401b0316886108b3565b6000908152602087905260409020546001600160c01b0316935050505092915050565b6000816106ed575060006101e9565b6001840154600160401b90046001600160401b0316806107115760009150506101e9565b60018501546001600160401b0316600061073761072e8388610336565b60018503610937565b9050815b818110801561076c575060018101600090815260208990526040902054600160c01b90046001600160401b03168610155b156107885760008181526020899052604081205560010161073b565b828111156107bd576107998161086f565b60018901805467ffffffffffffffff19166001600160401b03929092169190911790555b919091039695505050505050565b60006001600160a01b03841615610806576001600160a01b03841660009081526020869052604090206107ff9084846106de565b905061024f565b506000949350505050565b6000600160c01b821061086b576040805162461bcd60e51b815260206004820152601d60248201527f76616c756520646f65736e27742066697420696e203139322062697473000000604482015290519081900360640190fd5b5090565b6000600160401b821061086b5760405162461bcd60e51b8152600401808060200182810382526026815260200180610abf6026913960400191505060405180910390fd5b600083816108c285600161094d565b90505b8181111561092d5760006108e960026108e360016101af8688610336565b906109aa565b600081815260208a90526040902054909150600160c01b90046001600160401b0316851061091957809250610927565b61092481600161094d565b91505b506108c5565b5095945050505050565b60008183106109465781610117565b5090919050565b6000828211156109a4576040805162461bcd60e51b815260206004820152601e60248201527f536166654d6174683a207375627472616374696f6e206f766572666c6f770000604482015290519081900360640190fd5b50900390565b6000808211610a00576040805162461bcd60e51b815260206004820152601a60248201527f536166654d6174683a206469766973696f6e206279207a65726f000000000000604482015290519081900360640190fd5b818381610a0957fe5b049392505050565b80356001600160a01b03811681146100f557600080fd5b600060208284031215610a39578081fd5b61011782610a11565b60008060408385031215610a54578081fd5b610a5d83610a11565b946020939093013593505050565b600080600060608486031215610a7f578081fd5b610a8884610a11565b95602085013595506040909401359392505050565b600060208284031215610aae578081fd5b5035919050565b9081526020019056fe53616665436173743a2076616c756520646f65736e27742066697420696e2036342062697473436865636b506f696e74486973746f72793a2072656164696e672066726f6d20636c65616e65642d757020626c6f636ba264697066735822122081193f81987a7e93bbc483a28e7331b29a4a756ae7ce3462b8dd37906c7fd46664736f6c63430007060033",
  "linkReferences": {},
  "deployedLinkReferences": {}
}