{
  "_format": "hh-sol-artifact-1",
  "contractName": "SafePctMock",
  "sourceName": "contracts/utils/mock/SafePctMock.sol",
  "abi": [
    {
      "inputs": [
        {
          "internalType": "uint256",
          "name": "x",
          "type": "uint256"
        },
        {
          "internalType": "uint256",
          "name": "y",
          "type": "uint256"
        },
        {
          "internalType": "uint256",
          "name": "z",
          "type": "uint256"
        }
      ],
      "name": "mulDiv",
      "outputs": [
        {
          "internalType": "uint256",
          "name": "",
          "type": "uint256"
        }
      ],
      "stateMutability": "pure",
      "type": "function"
    }
  ],
  "bytecode": "0x608060405234801561001057600080fd5b50610308806100206000396000f3fe608060405234801561001057600080fd5b506004361061002b5760003560e01c8063aa9a091214610030575b600080fd5b6100596004803603606081101561004657600080fd5b508035906020810135906040013561006b565b60408051918252519081900360200190f35b6000610078848484610082565b90505b9392505050565b60008082116100cb576040805162461bcd60e51b815260206004820152601060248201526f4469766973696f6e206279207a65726f60801b604482015290519081900360640190fd5b836100d85750600061007b565b838302838582816100e557fe5b0414156100fe578281816100f557fe5b0491505061007b565b600083868161010957fe5b049050600084878161011757fe5b069050600085878161012557fe5b049050600086888161013357fe5b06905061018161014d88610147868561018e565b906101f0565b61017b61015a868661018e565b61017b610167898761018e565b61017b8d6101758c8b61018e565b9061018e565b90610257565b9998505050505050505050565b60008261019d575060006101ea565b828202828482816101aa57fe5b04146101e75760405162461bcd60e51b81526004018080602001828103825260218152602001806102b26021913960400191505060405180910390fd5b90505b92915050565b6000808211610246576040805162461bcd60e51b815260206004820152601a60248201527f536166654d6174683a206469766973696f6e206279207a65726f000000000000604482015290519081900360640190fd5b81838161024f57fe5b049392505050565b6000828201838110156101e7576040805162461bcd60e51b815260206004820152601b60248201527f536166654d6174683a206164646974696f6e206f766572666c6f770000000000604482015290519081900360640190fdfe536166654d6174683a206d756c7469706c69636174696f6e206f766572666c6f77a2646970667358221220db60abe95ea5d97c9a39419d03cd90b4633dd6b1b2b6a584bd1081154fde348464736f6c63430007060033",
  "linkReferences": {},
  "deployedLinkReferences": {}
}