{
  "_format": "hh-sol-artifact-1",
  "contractName": "FlareDaemonMock",
  "sourceName": "contracts/genesis/mock/FlareDaemonMock.sol",
  "abi": [
    {
      "stateMutability": "payable",
      "type": "fallback"
    },
    {
      "inputs": [],
      "name": "DEFAULT_FALLBACK_VALUE",
      "outputs": [
        {
          "internalType": "bytes",
          "name": "",
          "type": "bytes"
        }
      ],
      "stateMutability": "view",
      "type": "function"
    },
    {
      "inputs": [],
      "name": "MOCKS_LIST_END",
      "outputs": [
        {
          "internalType": "bytes",
          "name": "",
          "type": "bytes"
        }
      ],
      "stateMutability": "view",
      "type": "function"
    },
    {
      "inputs": [],
      "name": "MOCKS_LIST_END_HASH",
      "outputs": [
        {
          "internalType": "bytes32",
          "name": "",
          "type": "bytes32"
        }
      ],
      "stateMutability": "view",
      "type": "function"
    },
    {
      "inputs": [],
      "name": "MOCKS_LIST_START",
      "outputs": [
        {
          "internalType": "bytes32",
          "name": "",
          "type": "bytes32"
        }
      ],
      "stateMutability": "view",
      "type": "function"
    },
    {
      "inputs": [],
      "name": "SENTINEL_ANY_MOCKS",
      "outputs": [
        {
          "internalType": "bytes4",
          "name": "",
          "type": "bytes4"
        }
      ],
      "stateMutability": "view",
      "type": "function"
    },
    {
      "inputs": [
        {
          "internalType": "address",
          "name": "_inflation",
          "type": "address"
        }
      ],
      "name": "callReceiveMinting",
      "outputs": [],
      "stateMutability": "payable",
      "type": "function"
    },
    {
      "inputs": [
        {
          "internalType": "uint256",
          "name": "",
          "type": "uint256"
        }
      ],
      "name": "daemonizeContracts",
      "outputs": [
        {
          "internalType": "address",
          "name": "",
          "type": "address"
        }
      ],
      "stateMutability": "view",
      "type": "function"
    },
    {
      "inputs": [
        {
          "internalType": "address",
          "name": "_inflation",
          "type": "address"
        }
      ],
      "name": "fallbackTest",
      "outputs": [
        {
          "internalType": "bytes",
          "name": "",
          "type": "bytes"
        }
      ],
      "stateMutability": "nonpayable",
      "type": "function"
    },
    {
      "inputs": [
        {
          "internalType": "bytes",
          "name": "response",
          "type": "bytes"
        }
      ],
      "name": "givenAnyReturn",
      "outputs": [],
      "stateMutability": "nonpayable",
      "type": "function"
    },
    {
      "inputs": [
        {
          "internalType": "address",
          "name": "response",
          "type": "address"
        }
      ],
      "name": "givenAnyReturnAddress",
      "outputs": [],
      "stateMutability": "nonpayable",
      "type": "function"
    },
    {
      "inputs": [
        {
          "internalType": "bool",
          "name": "response",
          "type": "bool"
        }
      ],
      "name": "givenAnyReturnBool",
      "outputs": [],
      "stateMutability": "nonpayable",
      "type": "function"
    },
    {
      "inputs": [
        {
          "internalType": "uint256",
          "name": "response",
          "type": "uint256"
        }
      ],
      "name": "givenAnyReturnUint",
      "outputs": [],
      "stateMutability": "nonpayable",
      "type": "function"
    },
    {
      "inputs": [],
      "name": "givenAnyRevert",
      "outputs": [],
      "stateMutability": "nonpayable",
      "type": "function"
    },
    {
      "inputs": [
        {
          "internalType": "string",
          "name": "message",
          "type": "string"
        }
      ],
      "name": "givenAnyRevertWithMessage",
      "outputs": [],
      "stateMutability": "nonpayable",
      "type": "function"
    },
    {
      "inputs": [],
      "name": "givenAnyRunOutOfGas",
      "outputs": [],
      "stateMutability": "nonpayable",
      "type": "function"
    },
    {
      "inputs": [
        {
          "internalType": "bytes",
          "name": "call",
          "type": "bytes"
        },
        {
          "internalType": "bytes",
          "name": "response",
          "type": "bytes"
        }
      ],
      "name": "givenCalldataReturn",
      "outputs": [],
      "stateMutability": "nonpayable",
      "type": "function"
    },
    {
      "inputs": [
        {
          "internalType": "bytes",
          "name": "call",
          "type": "bytes"
        },
        {
          "internalType": "address",
          "name": "response",
          "type": "address"
        }
      ],
      "name": "givenCalldataReturnAddress",
      "outputs": [],
      "stateMutability": "nonpayable",
      "type": "function"
    },
    {
      "inputs": [
        {
          "internalType": "bytes",
          "name": "call",
          "type": "bytes"
        },
        {
          "internalType": "bool",
          "name": "response",
          "type": "bool"
        }
      ],
      "name": "givenCalldataReturnBool",
      "outputs": [],
      "stateMutability": "nonpayable",
      "type": "function"
    },
    {
      "inputs": [
        {
          "internalType": "bytes",
          "name": "call",
          "type": "bytes"
        },
        {
          "internalType": "uint256",
          "name": "response",
          "type": "uint256"
        }
      ],
      "name": "givenCalldataReturnUint",
      "outputs": [],
      "stateMutability": "nonpayable",
      "type": "function"
    },
    {
      "inputs": [
        {
          "internalType": "bytes",
          "name": "call",
          "type": "bytes"
        }
      ],
      "name": "givenCalldataRevert",
      "outputs": [],
      "stateMutability": "nonpayable",
      "type": "function"
    },
    {
      "inputs": [
        {
          "internalType": "bytes",
          "name": "call",
          "type": "bytes"
        },
        {
          "internalType": "string",
          "name": "message",
          "type": "string"
        }
      ],
      "name": "givenCalldataRevertWithMessage",
      "outputs": [],
      "stateMutability": "nonpayable",
      "type": "function"
    },
    {
      "inputs": [
        {
          "internalType": "bytes",
          "name": "call",
          "type": "bytes"
        }
      ],
      "name": "givenCalldataRunOutOfGas",
      "outputs": [],
      "stateMutability": "nonpayable",
      "type": "function"
    },
    {
      "inputs": [
        {
          "internalType": "bytes",
          "name": "call",
          "type": "bytes"
        },
        {
          "internalType": "bytes",
          "name": "response",
          "type": "bytes"
        }
      ],
      "name": "givenMethodReturn",
      "outputs": [],
      "stateMutability": "nonpayable",
      "type": "function"
    },
    {
      "inputs": [
        {
          "internalType": "bytes",
          "name": "call",
          "type": "bytes"
        },
        {
          "internalType": "address",
          "name": "response",
          "type": "address"
        }
      ],
      "name": "givenMethodReturnAddress",
      "outputs": [],
      "stateMutability": "nonpayable",
      "type": "function"
    },
    {
      "inputs": [
        {
          "internalType": "bytes",
          "name": "call",
          "type": "bytes"
        },
        {
          "internalType": "bool",
          "name": "response",
          "type": "bool"
        }
      ],
      "name": "givenMethodReturnBool",
      "outputs": [],
      "stateMutability": "nonpayable",
      "type": "function"
    },
    {
      "inputs": [
        {
          "internalType": "bytes",
          "name": "call",
          "type": "bytes"
        },
        {
          "internalType": "uint256",
          "name": "response",
          "type": "uint256"
        }
      ],
      "name": "givenMethodReturnUint",
      "outputs": [],
      "stateMutability": "nonpayable",
      "type": "function"
    },
    {
      "inputs": [
        {
          "internalType": "bytes",
          "name": "call",
          "type": "bytes"
        }
      ],
      "name": "givenMethodRevert",
      "outputs": [],
      "stateMutability": "nonpayable",
      "type": "function"
    },
    {
      "inputs": [
        {
          "internalType": "bytes",
          "name": "call",
          "type": "bytes"
        },
        {
          "internalType": "string",
          "name": "message",
          "type": "string"
        }
      ],
      "name": "givenMethodRevertWithMessage",
      "outputs": [],
      "stateMutability": "nonpayable",
      "type": "function"
    },
    {
      "inputs": [
        {
          "internalType": "bytes",
          "name": "call",
          "type": "bytes"
        }
      ],
      "name": "givenMethodRunOutOfGas",
      "outputs": [],
      "stateMutability": "nonpayable",
      "type": "function"
    },
    {
      "inputs": [],
      "name": "invocationCount",
      "outputs": [
        {
          "internalType": "uint256",
          "name": "",
          "type": "uint256"
        }
      ],
      "stateMutability": "nonpayable",
      "type": "function"
    },
    {
      "inputs": [
        {
          "internalType": "bytes",
          "name": "call",
          "type": "bytes"
        }
      ],
      "name": "invocationCountForCalldata",
      "outputs": [
        {
          "internalType": "uint256",
          "name": "",
          "type": "uint256"
        }
      ],
      "stateMutability": "nonpayable",
      "type": "function"
    },
    {
      "inputs": [
        {
          "internalType": "bytes",
          "name": "call",
          "type": "bytes"
        }
      ],
      "name": "invocationCountForMethod",
      "outputs": [
        {
          "internalType": "uint256",
          "name": "",
          "type": "uint256"
        }
      ],
      "stateMutability": "nonpayable",
      "type": "function"
    },
    {
      "inputs": [
        {
          "internalType": "address",
          "name": "_daemonize",
          "type": "address"
        }
      ],
      "name": "registerToDaemonize",
      "outputs": [],
      "stateMutability": "nonpayable",
      "type": "function"
    },
    {
      "inputs": [],
      "name": "reset",
      "outputs": [],
      "stateMutability": "nonpayable",
      "type": "function"
    },
    {
      "inputs": [],
      "name": "trigger",
      "outputs": [],
      "stateMutability": "nonpayable",
      "type": "function"
    },
    {
      "inputs": [
        {
          "internalType": "bytes4",
          "name": "methodId",
          "type": "bytes4"
        },
        {
          "internalType": "bytes",
          "name": "originalMsgData",
          "type": "bytes"
        }
      ],
      "name": "updateInvocationCount",
      "outputs": [],
      "stateMutability": "nonpayable",
      "type": "function"
    }
  ],
  "bytecode": "0x60806040526000604051602001808215158152602001915050604051602081830303815290604052600b90805190602001906200003e9291906200017e565b503480156200004c57600080fd5b506040518060400160405280600481526020017f30786666000000000000000000000000000000000000000000000000000000008152506000807f010000000000000000000000000000000000000000000000000000000000000081526020019081526020016000209080519060200190620000ca9291906200017e565b507f0100000000000000000000000000000000000000000000000000000000000000600560007f01000000000000000000000000000000000000000000000000000000000000007bffffffffffffffffffffffffffffffffffffffffffffffffffffffff19167bffffffffffffffffffffffffffffffffffffffffffffffffffffffff1916815260200190815260200160002060006101000a81548163ffffffff021916908360e01c021790555062000224565b828054600181600116156101000203166002900490600052602060002090601f016020900481019282601f10620001c157805160ff1916838001178555620001f2565b82800160010185558215620001f2579182015b82811115620001f1578251825591602001919060010190620001d4565b5b50905062000201919062000205565b5090565b5b808211156200022057600081600090555060010162000206565b5090565b61430c80620002346000396000f3fe6080604052600436106102135760003560e01c80637cd96ee411610118578063cf11ff5d116100a0578063e211b8a51161006f578063e211b8a5146119d2578063eb861f69146119e9578063f07da22914611a6f578063f5afa9c114611ab9578063f6abe97014611b4957610214565b8063cf11ff5d146117ff578063d6fe9778146118a5578063d73ca0ac1461192b578063d826f88f146119bb57610214565b80639eaeed75116100e75780639eaeed75146114e2578063aa788c55146115bd578063af21ac7814611643578063b3901f291461167e578063c6ee167f1461172457610214565b80637cd96ee4146112da5780637fec8d381461136a57806387abab65146113815780639a1dc86b1461140757610214565b806358cbc0251161019b578063682b47971161016a578063682b4797146110bb57806368ab6f2f1461110c5780636dbdce44146111925780636e1623ad146111f75780636f4007561461124857610214565b806358cbc02514610e325780635a3855ab14610f235780636193659414610fb557806367aad04a1461109057610214565b806336ff0ee5116101e257806336ff0ee514610c665780633956dc6b14610ca35780634283f10914610cba5780634937c4f614610cfe578063586984a414610d9857610214565b80630a20119f14610afa578063122aea8114610b2557806321fed4d614610bb55780632ed238dc14610c3b57610214565b5b6000803590506001600281111561022757fe5b6001600036604051808383808284378083019250505092505050908152602001604051809103902060009054906101000a900460ff16600281111561026857fe5b141561035457600360003660405180838380828437808301925050509250505090815260200160405180910390206040517f08c379a000000000000000000000000000000000000000000000000000000000815260040180806020018281038252838181546001816001161561010002031660029004815260200191508054600181600116156101000203166002900480156103455780601f1061031a57610100808354040283529160200191610345565b820191906000526020600020905b81548152906001019060200180831161032857829003601f168201915b50509250505060405180910390fd5b60028081111561036057fe5b6001600036604051808383808284378083019250505092505050908152602001604051809103902060009054906101000a900460ff1660028111156103a157fe5b14156103b0576103af611c13565b5b6060600260003660405180838380828437808301925050509250505090815260200160405180910390208054600181600116156101000203166002900480601f01602080910402602001604051908101604052809291908181526020018280546001816001161561010002031660029004801561046e5780601f106104435761010080835404028352916020019161046e565b820191906000526020600020905b81548152906001019060200180831161045157829003601f168201915b5050505050905060008151141561077d576001600281111561048c57fe5b60066000847bffffffffffffffffffffffffffffffffffffffffffffffffffffffff19167bffffffffffffffffffffffffffffffffffffffffffffffffffffffff1916815260200190815260200160002060009054906101000a900460ff1660028111156104f657fe5b141561060b5760086000837bffffffffffffffffffffffffffffffffffffffffffffffffffffffff19167bffffffffffffffffffffffffffffffffffffffffffffffffffffffff191681526020019081526020016000206040517f08c379a000000000000000000000000000000000000000000000000000000000815260040180806020018281038252838181546001816001161561010002031660029004815260200191508054600181600116156101000203166002900480156105fc5780601f106105d1576101008083540402835291602001916105fc565b820191906000526020600020905b8154815290600101906020018083116105df57829003601f168201915b50509250505060405180910390fd5b60028081111561061757fe5b60066000847bffffffffffffffffffffffffffffffffffffffffffffffffffffffff19167bffffffffffffffffffffffffffffffffffffffffffffffffffffffff1916815260200190815260200160002060009054906101000a900460ff16600281111561068157fe5b14156106905761068f611c13565b5b60076000837bffffffffffffffffffffffffffffffffffffffffffffffffffffffff19167bffffffffffffffffffffffffffffffffffffffffffffffffffffffff191681526020019081526020016000208054600181600116156101000203166002900480601f0160208091040260200160405190810160405280929190818152602001828054600181600116156101000203166002900480156107755780601f1061074a57610100808354040283529160200191610775565b820191906000526020600020905b81548152906001019060200180831161075857829003601f168201915b505050505090505b600081511415610949576001600281111561079457fe5b600a60009054906101000a900460ff1660028111156107af57fe5b141561087557600c6040517f08c379a000000000000000000000000000000000000000000000000000000000815260040180806020018281038252838181546001816001161561010002031660029004815260200191508054600181600116156101000203166002900480156108665780601f1061083b57610100808354040283529160200191610866565b820191906000526020600020905b81548152906001019060200180831161084957829003601f168201915b50509250505060405180910390fd5b60028081111561088157fe5b600a60009054906101000a900460ff16600281111561089c57fe5b14156108ab576108aa611c13565b5b600b8054600181600116156101000203166002900480601f0160208091040260200160405190810160405280929190818152602001828054600181600116156101000203166002900480156109415780601f1061091657610100808354040283529160200191610941565b820191906000526020600020905b81548152906001019060200180831161092457829003601f168201915b505050505090505b60603073ffffffffffffffffffffffffffffffffffffffff16620186a08460003660405160240180847bffffffffffffffffffffffffffffffffffffffffffffffffffffffff19168152602001806020018281038252848482818152602001925080828437600081840152601f19601f8201169050808301925050509450505050506040516020818303038152906040527f58cbc025000000000000000000000000000000000000000000000000000000007bffffffffffffffffffffffffffffffffffffffffffffffffffffffff19166020820180517bffffffffffffffffffffffffffffffffffffffffffffffffffffffff83818316178352505050506040518082805190602001908083835b60208310610a7b5780518252602082019150602081019050602083039250610a58565b6001836020036101000a03801982511681845116808217855250505050505090500191505060006040518083038160008787f1925050503d8060008114610ade576040519150601f19603f3d011682016040523d82523d6000602084013e610ae3565b606091505b509150506000815114610af257fe5b815182602001f35b348015610b0657600080fd5b50610b0f611c38565b6040518082815260200191505060405180910390f35b348015610b3157600080fd5b50610b3a611c42565b6040518080602001828103825283818151815260200191508051906020019080838360005b83811015610b7a578082015181840152602081019050610b5f565b50505050905090810190601f168015610ba75780820380516001836020036101000a031916815260200191505b509250505060405180910390f35b348015610bc157600080fd5b50610c3960048036036020811015610bd857600080fd5b8101908080359060200190640100000000811115610bf557600080fd5b820183602082011115610c0757600080fd5b80359060200191846001830284011164010000000083111715610c2957600080fd5b9091929391929390505050611c68565b005b348015610c4757600080fd5b50610c50611d02565b6040518082815260200191505060405180910390f35b348015610c7257600080fd5b50610ca160048036036020811015610c8957600080fd5b81019080803515159060200190929190505050611d42565b005b348015610caf57600080fd5b50610cb8611d6d565b005b610cfc60048036036020811015610cd057600080fd5b81019080803573ffffffffffffffffffffffffffffffffffffffff169060200190929190505050611d93565b005b348015610d0a57600080fd5b50610d8260048036036020811015610d2157600080fd5b8101908080359060200190640100000000811115610d3e57600080fd5b820183602082011115610d5057600080fd5b80359060200191846001830284011164010000000083111715610d7257600080fd5b9091929391929390505050611ee2565b6040518082815260200191505060405180910390f35b348015610da457600080fd5b50610e1c60048036036020811015610dbb57600080fd5b8101908080359060200190640100000000811115610dd857600080fd5b820183602082011115610dea57600080fd5b80359060200191846001830284011164010000000083111715610e0c57600080fd5b9091929391929390505050611fa0565b6040518082815260200191505060405180910390f35b348015610e3e57600080fd5b50610f2160048036036040811015610e5557600080fd5b8101908080357bffffffffffffffffffffffffffffffffffffffffffffffffffffffff1916906020019092919080359060200190640100000000811115610e9b57600080fd5b820183602082011115610ead57600080fd5b80359060200191846001830284011164010000000083111715610ecf57600080fd5b91908080601f016020809104026020016040519081016040528093929190818152602001838380828437600081840152601f19601f820116905080830192505050505050509192919290505050611ff7565b005b348015610f2f57600080fd5b50610fb360048036036040811015610f4657600080fd5b8101908080359060200190640100000000811115610f6357600080fd5b820183602082011115610f7557600080fd5b80359060200191846001830284011164010000000083111715610f9757600080fd5b909192939192939080351515906020019092919050505061219e565b005b348015610fc157600080fd5b5061108e60048036036040811015610fd857600080fd5b8101908080359060200190640100000000811115610ff557600080fd5b82018360208201111561100757600080fd5b8035906020019184600183028401116401000000008311171561102957600080fd5b90919293919293908035906020019064010000000081111561104a57600080fd5b82018360208201111561105c57600080fd5b8035906020019184600183028401116401000000008311171561107e57600080fd5b9091929391929390505050612210565b005b34801561109c57600080fd5b506110a56122a8565b6040518082815260200191505060405180910390f35b3480156110c757600080fd5b5061110a600480360360208110156110de57600080fd5b81019080803573ffffffffffffffffffffffffffffffffffffffff1690602001909291905050506122cc565b005b34801561111857600080fd5b506111906004803603602081101561112f57600080fd5b810190808035906020019064010000000081111561114c57600080fd5b82018360208201111561115e57600080fd5b8035906020019184600183028401116401000000008311171561118057600080fd5b90919293919293905050506122f6565b005b34801561119e57600080fd5b506111cb600480360360208110156111b557600080fd5b81019080803590602001909291905050506123c8565b604051808273ffffffffffffffffffffffffffffffffffffffff16815260200191505060405180910390f35b34801561120357600080fd5b506112466004803603602081101561121a57600080fd5b81019080803573ffffffffffffffffffffffffffffffffffffffff169060200190929190505050612404565b005b34801561125457600080fd5b506112d86004803603604081101561126b57600080fd5b810190808035906020019064010000000081111561128857600080fd5b82018360208201111561129a57600080fd5b803590602001918460018302840111640100000000831117156112bc57600080fd5b9091929391929390803515159060200190929190505050612501565b005b3480156112e657600080fd5b506112ef612573565b6040518080602001828103825283818151815260200191508051906020019080838360005b8381101561132f578082015181840152602081019050611314565b50505050905090810190601f16801561135c5780820380516001836020036101000a031916815260200191505b509250505060405180910390f35b34801561137657600080fd5b5061137f6125ac565b005b34801561138d57600080fd5b50611405600480360360208110156113a457600080fd5b81019080803590602001906401000000008111156113c157600080fd5b8201836020820111156113d357600080fd5b803590602001918460018302840111640100000000831117156113f557600080fd5b90919293919293905050506127fd565b005b34801561141357600080fd5b506114e06004803603604081101561142a57600080fd5b810190808035906020019064010000000081111561144757600080fd5b82018360208201111561145957600080fd5b8035906020019184600183028401116401000000008311171561147b57600080fd5b90919293919293908035906020019064010000000081111561149c57600080fd5b8201836020820111156114ae57600080fd5b803590602001918460018302840111640100000000831117156114d057600080fd5b9091929391929390505050612837565b005b3480156114ee57600080fd5b506115bb6004803603604081101561150557600080fd5b810190808035906020019064010000000081111561152257600080fd5b82018360208201111561153457600080fd5b8035906020019184600183028401116401000000008311171561155657600080fd5b90919293919293908035906020019064010000000081111561157757600080fd5b82018360208201111561158957600080fd5b803590602001918460018302840111640100000000831117156115ab57600080fd5b909192939192939050505061296c565b005b3480156115c957600080fd5b50611641600480360360208110156115e057600080fd5b81019080803590602001906401000000008111156115fd57600080fd5b82018360208201111561160f57600080fd5b8035906020019184600183028401116401000000008311171561163157600080fd5b9091929391929390505050612a3e565b005b34801561164f57600080fd5b5061167c6004803603602081101561166657600080fd5b8101908080359060200190929190505050612b10565b005b34801561168a57600080fd5b50611722600480360360408110156116a157600080fd5b81019080803590602001906401000000008111156116be57600080fd5b8201836020820111156116d057600080fd5b803590602001918460018302840111640100000000831117156116f257600080fd5b9091929391929390803573ffffffffffffffffffffffffffffffffffffffff169060200190929190505050612b24565b005b34801561173057600080fd5b506117fd6004803603604081101561174757600080fd5b810190808035906020019064010000000081111561176457600080fd5b82018360208201111561177657600080fd5b8035906020019184600183028401116401000000008311171561179857600080fd5b9091929391929390803590602001906401000000008111156117b957600080fd5b8201836020820111156117cb57600080fd5b803590602001918460018302840111640100000000831117156117ed57600080fd5b9091929391929390505050612b95565b005b34801561180b57600080fd5b506118a36004803603604081101561182257600080fd5b810190808035906020019064010000000081111561183f57600080fd5b82018360208201111561185157600080fd5b8035906020019184600183028401116401000000008311171561187357600080fd5b9091929391929390803573ffffffffffffffffffffffffffffffffffffffff169060200190929190505050612c2d565b005b3480156118b157600080fd5b50611929600480360360208110156118c857600080fd5b81019080803590602001906401000000008111156118e557600080fd5b8201836020820111156118f757600080fd5b8035906020019184600183028401116401000000008311171561191957600080fd5b9091929391929390505050612c9e565b005b34801561193757600080fd5b506119b96004803603604081101561194e57600080fd5b810190808035906020019064010000000081111561196b57600080fd5b82018360208201111561197d57600080fd5b8035906020019184600183028401116401000000008311171561199f57600080fd5b909192939192939080359060200190929190505050612cef565b005b3480156119c757600080fd5b506119d0612d4a565b005b3480156119de57600080fd5b506119e76135c7565b005b3480156119f557600080fd5b50611a6d60048036036020811015611a0c57600080fd5b8101908080359060200190640100000000811115611a2957600080fd5b820183602082011115611a3b57600080fd5b80359060200191846001830284011164010000000083111715611a5d57600080fd5b9091929391929390505050613613565b005b348015611a7b57600080fd5b50611a846136f7565b60405180827bffffffffffffffffffffffffffffffffffffffffffffffffffffffff1916815260200191505060405180910390f35b348015611ac557600080fd5b50611b4760048036036040811015611adc57600080fd5b8101908080359060200190640100000000811115611af957600080fd5b820183602082011115611b0b57600080fd5b80359060200191846001830284011164010000000083111715611b2d57600080fd5b90919293919293908035906020019092919050505061371b565b005b348015611b5557600080fd5b50611b9860048036036020811015611b6c57600080fd5b81019080803573ffffffffffffffffffffffffffffffffffffffff169060200190929190505050613776565b6040518080602001828103825283818151815260200191508051906020019080838360005b83811015611bd8578082015181840152602081019050611bbd565b50505050905090810190601f168015611c055780820380516001836020036101000a031916815260200191505b509250505060405180910390f35b5b600115611c365760006060600060c060008060066107d05a03f1905050611c14565b565b6000600d54905090565b600060405160200180821515815260200191505060405160208183030381529060405281565b600260018383604051808383808284378083019250505092505050908152602001604051809103902060006101000a81548160ff02191690836002811115611cac57fe5b0217905550611cfe82828080601f016020809104026020016040519081016040528093929190818152602001838380828437600081840152601f19601f820116905080830192505050505050506138ce565b5050565b6040518060400160405280600481526020017f30786666000000000000000000000000000000000000000000000000000000008152508051906020012081565b600081611d50576000611d53565b60015b60ff169050611d69611d64826139b9565b613a14565b5050565b6002600a60006101000a81548160ff02191690836002811115611d8c57fe5b0217905550565b60606040516024016040516020818303038152906040527fc611c2c5000000000000000000000000000000000000000000000000000000007bffffffffffffffffffffffffffffffffffffffffffffffffffffffff19166020820180517bffffffffffffffffffffffffffffffffffffffffffffffffffffffff8381831617835250505050905060008273ffffffffffffffffffffffffffffffffffffffff1634836040518082805190602001908083835b60208310611e685780518252602082019150602081019050602083039250611e45565b6001836020036101000a03801982511681845116808217855250505050505090500191505060006040518083038185875af1925050503d8060008114611eca576040519150601f19603f3d011682016040523d82523d6000602084013e611ecf565b606091505b5050905080611edd57600080fd5b505050565b600080611f3284848080601f016020809104026020016040519081016040528093929190818152602001838380828437600081840152601f19601f82011690508083019250505050505050613a52565b905060096000600e548360405160200180838152602001827bffffffffffffffffffffffffffffffffffffffffffffffffffffffff19168152600401925050506040516020818303038152906040528051906020012081526020019081526020016000205491505092915050565b600060046000600e5485856040516020018084815260200183838082843780830192505050935050505060405160208183030381529060405280519060200120815260200190815260200160002054905092915050565b3073ffffffffffffffffffffffffffffffffffffffff163373ffffffffffffffffffffffffffffffffffffffff161461207b576040517f08c379a000000000000000000000000000000000000000000000000000000000815260040180806020018281038252602b8152602001806142ac602b913960400191505060405180910390fd5b6001600d60008282540192505081905550600160096000600e548560405160200180838152602001827bffffffffffffffffffffffffffffffffffffffffffffffffffffffff191681526004019250505060405160208183030381529060405280519060200120815260200190815260200160002060008282540192505081905550600160046000600e54846040516020018083815260200182805190602001908083835b602083106121435780518252602082019150602081019050602083039250612120565b6001836020036101000a03801982511681845116808217855250505050505090500192505050604051602081830303815290604052805190602001208152602001908152602001600020600082825401925050819055505050565b6000816121ac5760006121af565b60015b60ff16905061220a84848080601f016020809104026020016040519081016040528093929190818152602001838380828437600081840152601f19601f82011690508083019250505050505050612205836139b9565b613ae0565b50505050565b6122a284848080601f016020809104026020016040519081016040528093929190818152602001838380828437600081840152601f19601f8201169050808301925050505050505083838080601f016020809104026020016040519081016040528093929190818152602001838380828437600081840152601f19601f82011690508083019250505050505050613ae0565b50505050565b7f010000000000000000000000000000000000000000000000000000000000000081565b6122f36122ee8273ffffffffffffffffffffffffffffffffffffffff166139b9565b613a14565b50565b600061234583838080601f016020809104026020016040519081016040528093929190818152602001838380828437600081840152601f19601f82011690508083019250505050505050613a52565b9050600260066000837bffffffffffffffffffffffffffffffffffffffffffffffffffffffff19167bffffffffffffffffffffffffffffffffffffffffffffffffffffffff1916815260200190815260200160002060006101000a81548160ff021916908360028111156123b557fe5b02179055506123c381613bf6565b505050565b600f81815481106123d557fe5b906000526020600020016000915054906101000a900473ffffffffffffffffffffffffffffffffffffffff1681565b6000600f80549050905060005b8181101561249857600f818154811061242657fe5b9060005260206000200160009054906101000a900473ffffffffffffffffffffffffffffffffffffffff1673ffffffffffffffffffffffffffffffffffffffff168373ffffffffffffffffffffffffffffffffffffffff16141561248b5750506124fe565b8080600101915050612411565b50600f829080600181540180825580915050600190039060005260206000200160009091909190916101000a81548173ffffffffffffffffffffffffffffffffffffffff021916908373ffffffffffffffffffffffffffffffffffffffff160217905550505b50565b60008161250f576000612512565b60015b60ff16905061256d84848080601f016020809104026020016040519081016040528093929190818152602001838380828437600081840152601f19601f82011690508083019250505050505050612568836139b9565b613dfb565b50505050565b6040518060400160405280600481526020017f307866660000000000000000000000000000000000000000000000000000000081525081565b6000600f80549050905060005b818110156127f95760606040516024016040516020818303038152906040527f6d0e8c34000000000000000000000000000000000000000000000000000000007bffffffffffffffffffffffffffffffffffffffffffffffffffffffff19166020820180517bffffffffffffffffffffffffffffffffffffffffffffffffffffffff8381831617835250505050905060006060600f848154811061265957fe5b9060005260206000200160009054906101000a900473ffffffffffffffffffffffffffffffffffffffff1673ffffffffffffffffffffffffffffffffffffffff16836040518082805190602001908083835b602083106126ce57805182526020820191506020810190506020830392506126ab565b6001836020036101000a0380198251168184511680821785525050505050509050019150506000604051808303816000865af19150503d8060008114612730576040519150601f19603f3d011682016040523d82523d6000602084013e612735565b606091505b5091509150816127e95761274881613eef565b6040517f08c379a00000000000000000000000000000000000000000000000000000000081526004018080602001828103825283818151815260200191508051906020019080838360005b838110156127ae578082015181840152602081019050612793565b50505050905090810190601f1680156127db5780820380516001836020036101000a031916815260200191505b509250505060405180910390fd5b50505080806001019150506125b9565b5050565b6001600a60006101000a81548160ff0219169083600281111561281c57fe5b02179055508181600c9190612832929190614007565b505050565b600061288685858080601f016020809104026020016040519081016040528093929190818152602001838380828437600081840152601f19601f82011690508083019250505050505050613a52565b9050600160066000837bffffffffffffffffffffffffffffffffffffffffffffffffffffffff19167bffffffffffffffffffffffffffffffffffffffffffffffffffffffff1916815260200190815260200160002060006101000a81548160ff021916908360028111156128f657fe5b0217905550828260086000847bffffffffffffffffffffffffffffffffffffffffffffffffffffffff19167bffffffffffffffffffffffffffffffffffffffffffffffffffffffff19168152602001908152602001600020919061295b929190614007565b5061296581613bf6565b5050505050565b6001808585604051808383808284378083019250505092505050908152602001604051809103902060006101000a81548160ff021916908360028111156129af57fe5b0217905550818160038686604051808383808284378083019250505092505050908152602001604051809103902091906129ea929190614007565b50612a3884848080601f016020809104026020016040519081016040528093929190818152602001838380828437600081840152601f19601f820116905080830192505050505050506138ce565b50505050565b6000612a8d83838080601f016020809104026020016040519081016040528093929190818152602001838380828437600081840152601f19601f82011690508083019250505050505050613a52565b9050600160066000837bffffffffffffffffffffffffffffffffffffffffffffffffffffffff19167bffffffffffffffffffffffffffffffffffffffffffffffffffffffff1916815260200190815260200160002060006101000a81548160ff02191690836002811115612afd57fe5b0217905550612b0b81613bf6565b505050565b612b21612b1c826139b9565b613a14565b50565b612b9083838080601f016020809104026020016040519081016040528093929190818152602001838380828437600081840152601f19601f82011690508083019250505050505050612b8b8373ffffffffffffffffffffffffffffffffffffffff166139b9565b613ae0565b505050565b612c2784848080601f016020809104026020016040519081016040528093929190818152602001838380828437600081840152601f19601f8201169050808301925050505050505083838080601f016020809104026020016040519081016040528093929190818152602001838380828437600081840152601f19601f82011690508083019250505050505050613dfb565b50505050565b612c9983838080601f016020809104026020016040519081016040528093929190818152602001838380828437600081840152601f19601f82011690508083019250505050505050612c948373ffffffffffffffffffffffffffffffffffffffff166139b9565b613dfb565b505050565b612ceb82828080601f016020809104026020016040519081016040528093929190818152602001838380828437600081840152601f19601f82011690508083019250505050505050613a14565b5050565b612d4583838080601f016020809104026020016040519081016040528093929190818152602001838380828437600081840152601f19601f82011690508083019250505050505050612d40836139b9565b613ae0565b505050565b60606000807f010000000000000000000000000000000000000000000000000000000000000081526020019081526020016000208054600181600116156101000203166002900480601f016020809104026020016040519081016040528092919081815260200182805460018160011615610100020316600290048015612e125780601f10612de757610100808354040283529160200191612e12565b820191906000526020600020905b815481529060010190602001808311612df557829003601f168201915b505050505090506000818051906020012090505b6040518060400160405280600481526020017f30786666000000000000000000000000000000000000000000000000000000008152508051906020012081146131005760006001836040518082805190602001908083835b60208310612ea15780518252602082019150602081019050602083039250612e7e565b6001836020036101000a038019825116818451168082178552505050505050905001915050908152602001604051809103902060006101000a81548160ff02191690836002811115612eef57fe5b0217905550604051806020016040528060008152506002836040518082805190602001908083835b60208310612f3a5780518252602082019150602081019050602083039250612f17565b6001836020036101000a03801982511681845116808217855250505050505090500191505090815260200160405180910390209080519060200190612f80929190614087565b50604051806020016040528060008152506003836040518082805190602001908083835b60208310612fc75780518252602082019150602081019050602083039250612fa4565b6001836020036101000a0380198251168184511680821785525050505050509050019150509081526020016040518091039020908051906020019061300d929190614107565b506000808281526020019081526020016000208054600181600116156101000203166002900480601f0160208091040260200160405190810160405280929190818152602001828054600181600116156101000203166002900480156130b45780601f10613089576101008083540402835291602001916130b4565b820191906000526020600020905b81548152906001019060200180831161309757829003601f168201915b505050505091506040518060200160405280600081525060008083815260200190815260200160002090805190602001906130f0929190614087565b5081805190602001209050612e26565b6040518060400160405280600481526020017f30786666000000000000000000000000000000000000000000000000000000008152506000807f01000000000000000000000000000000000000000000000000000000000000008152602001908152602001600020908051906020019061317b929190614187565b506000600560007f01000000000000000000000000000000000000000000000000000000000000007bffffffffffffffffffffffffffffffffffffffffffffffffffffffff19167bffffffffffffffffffffffffffffffffffffffffffffffffffffffff1916815260200190815260200160002060009054906101000a900460e01b90505b7f01000000000000000000000000000000000000000000000000000000000000007bffffffffffffffffffffffffffffffffffffffffffffffffffffffff1916817bffffffffffffffffffffffffffffffffffffffffffffffffffffffff19161461349f576000819050600060066000837bffffffffffffffffffffffffffffffffffffffffffffffffffffffff19167bffffffffffffffffffffffffffffffffffffffffffffffffffffffff1916815260200190815260200160002060006101000a81548160ff021916908360028111156132d857fe5b02179055506040518060200160405280600081525060076000837bffffffffffffffffffffffffffffffffffffffffffffffffffffffff19167bffffffffffffffffffffffffffffffffffffffffffffffffffffffff191681526020019081526020016000209080519060200190613351929190614087565b506040518060200160405280600081525060086000837bffffffffffffffffffffffffffffffffffffffffffffffffffffffff19167bffffffffffffffffffffffffffffffffffffffffffffffffffffffff1916815260200190815260200160002090805190602001906133c6929190614107565b5060056000827bffffffffffffffffffffffffffffffffffffffffffffffffffffffff19167bffffffffffffffffffffffffffffffffffffffffffffffffffffffff1916815260200190815260200160002060009054906101000a900460e01b9150600060e01b60056000837bffffffffffffffffffffffffffffffffffffffffffffffffffffffff19167bffffffffffffffffffffffffffffffffffffffffffffffffffffffff1916815260200190815260200160002060006101000a81548163ffffffff021916908360e01c021790555050613200565b7f0100000000000000000000000000000000000000000000000000000000000000600560007f01000000000000000000000000000000000000000000000000000000000000007bffffffffffffffffffffffffffffffffffffffffffffffffffffffff19167bffffffffffffffffffffffffffffffffffffffffffffffffffffffff1916815260200190815260200160002060006101000a81548163ffffffff021916908360e01c02179055506000604051602001808215158152602001915050604051602081830303815290604052600b9080519060200190613584929190614187565b506000600a60006101000a81548160ff021916908360028111156135a457fe5b02179055506000600d819055506001600e60008282540192505081905550505050565b6001600a60006101000a81548160ff021916908360028111156135e657fe5b021790555060405180602001604052806000815250600c9080519060200190613610929190614107565b50565b6001808383604051808383808284378083019250505092505050908152602001604051809103902060006101000a81548160ff0219169083600281111561365657fe5b02179055506040518060200160405280600081525060038383604051808383808284378083019250505092505050908152602001604051809103902090805190602001906136a5929190614107565b506136f382828080601f016020809104026020016040519081016040528093929190818152602001838380828437600081840152601f19601f820116905080830192505050505050506138ce565b5050565b7f010000000000000000000000000000000000000000000000000000000000000081565b61377183838080601f016020809104026020016040519081016040528093929190818152602001838380828437600081840152601f19601f8201169050808301925050505050505061376c836139b9565b613dfb565b505050565b6060806040516024016040516020818303038152906040527fe22fdece000000000000000000000000000000000000000000000000000000007bffffffffffffffffffffffffffffffffffffffffffffffffffffffff19166020820180517bffffffffffffffffffffffffffffffffffffffffffffffffffffffff83818316178352505050509050600060608473ffffffffffffffffffffffffffffffffffffffff16836040518082805190602001908083835b6020831061384d578051825260208201915060208101905060208303925061382a565b6001836020036101000a0380198251168184511680821785525050505050509050019150506000604051808303816000865af19150503d80600081146138af576040519150601f19603f3d011682016040523d82523d6000602084013e6138b4565b606091505b5091509150816138c357600080fd5b809350505050919050565b600081805190602001209050600080600083815260200190815260200160002080546001816001161561010002031660029004905014156139b5576000807f01000000000000000000000000000000000000000000000000000000000000008152602001908152602001600020600080838152602001908152602001600020908054600181600116156101000203166002900461396c929190614207565b50816000807f0100000000000000000000000000000000000000000000000000000000000000815260200190815260200160002090805190602001906139b3929190614187565b505b5050565b6060602067ffffffffffffffff811180156139d357600080fd5b506040519080825280601f01601f191660200182016040528015613a065781602001600182028036833780820191505090505b509050816020820152919050565b6000600a60006101000a81548160ff02191690836002811115613a3357fe5b021790555080600b9080519060200190613a4e929190614187565b5050565b60008060005b6004811015613ad6576008810260ff60f81b858381518110613a7657fe5b602001015160f81c60f81b167effffffffffffffffffffffffffffffffffffffffffffffffffffffffffffff19167bffffffffffffffffffffffffffffffffffffffffffffffffffffffff1916901c821791508080600101915050613a58565b5080915050919050565b60006001836040518082805190602001908083835b60208310613b185780518252602082019150602081019050602083039250613af5565b6001836020036101000a038019825116818451168082178552505050505050905001915050908152602001604051809103902060006101000a81548160ff02191690836002811115613b6657fe5b0217905550806002836040518082805190602001908083835b60208310613ba25780518252602082019150602081019050602083039250613b7f565b6001836020036101000a03801982511681845116808217855250505050505090500191505090815260200160405180910390209080519060200190613be8929190614187565b50613bf2826138ce565b5050565b600060e01b60056000837bffffffffffffffffffffffffffffffffffffffffffffffffffffffff19167bffffffffffffffffffffffffffffffffffffffffffffffffffffffff1916815260200190815260200160002060009054906101000a900460e01b7bffffffffffffffffffffffffffffffffffffffffffffffffffffffff19161415613df857600560007f01000000000000000000000000000000000000000000000000000000000000007bffffffffffffffffffffffffffffffffffffffffffffffffffffffff19167bffffffffffffffffffffffffffffffffffffffffffffffffffffffff1916815260200190815260200160002060009054906101000a900460e01b60056000837bffffffffffffffffffffffffffffffffffffffffffffffffffffffff19167bffffffffffffffffffffffffffffffffffffffffffffffffffffffff1916815260200190815260200160002060006101000a81548163ffffffff021916908360e01c021790555080600560007f01000000000000000000000000000000000000000000000000000000000000007bffffffffffffffffffffffffffffffffffffffffffffffffffffffff19167bffffffffffffffffffffffffffffffffffffffffffffffffffffffff1916815260200190815260200160002060006101000a81548163ffffffff021916908360e01c02179055505b50565b6000613e0683613a52565b9050600060066000837bffffffffffffffffffffffffffffffffffffffffffffffffffffffff19167bffffffffffffffffffffffffffffffffffffffffffffffffffffffff1916815260200190815260200160002060006101000a81548160ff02191690836002811115613e7657fe5b02179055508160076000837bffffffffffffffffffffffffffffffffffffffffffffffffffffffff19167bffffffffffffffffffffffffffffffffffffffffffffffffffffffff191681526020019081526020016000209080519060200190613ee0929190614187565b50613eea81613bf6565b505050565b60606000825190506044811015613f185760405180602001604052806000815250915050614002565b600060048401935083519050600482038452838060200190516020811015613f3f57600080fd5b8101908080516040519392919084640100000000821115613f5f57600080fd5b83820191506020820185811115613f7557600080fd5b8251866001820283011164010000000082111715613f9257600080fd5b8083526020830192505050908051906020019080838360005b83811015613fc6578082015181840152602081019050613fab565b50505050905090810190601f168015613ff35780820380516001836020036101000a031916815260200191505b50604052505050925080845250505b919050565b828054600181600116156101000203166002900490600052602060002090601f016020900481019282601f1061404857803560ff1916838001178555614076565b82800160010185558215614076579182015b8281111561407557823582559160200191906001019061405a565b5b509050614083919061428e565b5090565b828054600181600116156101000203166002900490600052602060002090601f016020900481019282601f106140c857805160ff19168380011785556140f6565b828001600101855582156140f6579182015b828111156140f55782518255916020019190600101906140da565b5b509050614103919061428e565b5090565b828054600181600116156101000203166002900490600052602060002090601f016020900481019282601f1061414857805160ff1916838001178555614176565b82800160010185558215614176579182015b8281111561417557825182559160200191906001019061415a565b5b509050614183919061428e565b5090565b828054600181600116156101000203166002900490600052602060002090601f016020900481019282601f106141c857805160ff19168380011785556141f6565b828001600101855582156141f6579182015b828111156141f55782518255916020019190600101906141da565b5b509050614203919061428e565b5090565b828054600181600116156101000203166002900490600052602060002090601f016020900481019282601f10614240578054855561427d565b8280016001018555821561427d57600052602060002091601f016020900482015b8281111561427c578254825591600101919060010190614261565b5b50905061428a919061428e565b5090565b5b808211156142a757600081600090555060010161428f565b509056fe43616e206f6e6c792062652063616c6c65642066726f6d2074686520636f6e747261637420697473656c66a264697066735822122013600adb5473ce16f3609447e51bda7c0ce505f7ff715fb09fa196756c2504f664736f6c634300060c0033",
  "linkReferences": {},
  "deployedLinkReferences": {}
}