{
  "_format": "hh-sol-artifact-1",
  "contractName": "DelegationAccountClonable",
  "sourceName": "contracts/personalDelegation/implementation/DelegationAccountClonable.sol",
  "abi": [
    {
      "anonymous": false,
      "inputs": [
        {
          "indexed": false,
          "internalType": "address",
          "name": "delegationAccount",
          "type": "address"
        },
        {
          "indexed": false,
          "internalType": "uint256",
          "name": "amount",
          "type": "uint256"
        },
        {
          "indexed": false,
          "internalType": "uint256",
          "name": "month",
          "type": "uint256"
        },
        {
          "indexed": false,
          "internalType": "contract IDistributionToDelegators",
          "name": "distribution",
          "type": "address"
        }
      ],
      "name": "ClaimAirdrop",
      "type": "event"
    },
    {
      "anonymous": false,
      "inputs": [
        {
          "indexed": false,
          "internalType": "string",
          "name": "err",
          "type": "string"
        },
        {
          "indexed": false,
          "internalType": "contract IDistributionToDelegators",
          "name": "distribution",
          "type": "address"
        }
      ],
      "name": "ClaimDistributionFailure",
      "type": "event"
    },
    {
      "anonymous": false,
      "inputs": [
        {
          "indexed": false,
          "internalType": "string",
          "name": "err",
          "type": "string"
        },
        {
          "indexed": false,
          "internalType": "contract IIFtsoRewardManager",
          "name": "ftsoRewardManager",
          "type": "address"
        }
      ],
      "name": "ClaimFtsoFailure",
      "type": "event"
    },
    {
      "anonymous": false,
      "inputs": [
        {
          "indexed": false,
          "internalType": "address",
          "name": "delegationAccount",
          "type": "address"
        },
        {
          "indexed": false,
          "internalType": "uint256[]",
          "name": "rewardEpochs",
          "type": "uint256[]"
        },
        {
          "indexed": false,
          "internalType": "uint256",
          "name": "amount",
          "type": "uint256"
        },
        {
          "indexed": false,
          "internalType": "contract IIFtsoRewardManager",
          "name": "ftsoRewardManager",
          "type": "address"
        }
      ],
      "name": "ClaimFtsoRewards",
      "type": "event"
    },
    {
      "anonymous": false,
      "inputs": [
        {
          "indexed": false,
          "internalType": "address",
          "name": "delegationAccount",
          "type": "address"
        },
        {
          "indexed": false,
          "internalType": "address",
          "name": "to",
          "type": "address"
        },
        {
          "indexed": false,
          "internalType": "uint256",
          "name": "bips",
          "type": "uint256"
        }
      ],
      "name": "DelegateFtso",
      "type": "event"
    },
    {
      "anonymous": false,
      "inputs": [
        {
          "indexed": false,
          "internalType": "address",
          "name": "delegationAccount",
          "type": "address"
        },
        {
          "indexed": false,
          "internalType": "address",
          "name": "to",
          "type": "address"
        },
        {
          "indexed": false,
          "internalType": "uint256",
          "name": "balance",
          "type": "uint256"
        }
      ],
      "name": "DelegateGovernance",
      "type": "event"
    },
    {
      "anonymous": false,
      "inputs": [
        {
          "indexed": false,
          "internalType": "string",
          "name": "err",
          "type": "string"
        },
        {
          "indexed": false,
          "internalType": "contract IIFtsoRewardManager",
          "name": "ftsoRewardManager",
          "type": "address"
        }
      ],
      "name": "EpochsWithUnclaimedRewardsFailure",
      "type": "event"
    },
    {
      "anonymous": false,
      "inputs": [
        {
          "indexed": false,
          "internalType": "address",
          "name": "owner",
          "type": "address"
        },
        {
          "indexed": false,
          "internalType": "contract DelegationAccountManager",
          "name": "manager",
          "type": "address"
        }
      ],
      "name": "Initialize",
      "type": "event"
    },
    {
      "anonymous": false,
      "inputs": [
        {
          "indexed": false,
          "internalType": "address",
          "name": "delegationAccount",
          "type": "address"
        },
        {
          "indexed": false,
          "internalType": "address",
          "name": "executor",
          "type": "address"
        }
      ],
      "name": "RemoveExecutor",
      "type": "event"
    },
    {
      "anonymous": false,
      "inputs": [
        {
          "indexed": false,
          "internalType": "address",
          "name": "delegationAccount",
          "type": "address"
        },
        {
          "indexed": false,
          "internalType": "address",
          "name": "executor",
          "type": "address"
        }
      ],
      "name": "SetExecutor",
      "type": "event"
    },
    {
      "anonymous": false,
      "inputs": [
        {
          "indexed": false,
          "internalType": "address",
          "name": "delegationAccount",
          "type": "address"
        }
      ],
      "name": "UndelegateAllFtso",
      "type": "event"
    },
    {
      "anonymous": false,
      "inputs": [
        {
          "indexed": false,
          "internalType": "address",
          "name": "delegationAccount",
          "type": "address"
        }
      ],
      "name": "UndelegateGovernance",
      "type": "event"
    },
    {
      "anonymous": false,
      "inputs": [
        {
          "indexed": false,
          "internalType": "address",
          "name": "delegationAccount",
          "type": "address"
        },
        {
          "indexed": false,
          "internalType": "uint256",
          "name": "amount",
          "type": "uint256"
        }
      ],
      "name": "WidthrawToOwner",
      "type": "event"
    },
    {
      "inputs": [
        {
          "internalType": "uint256",
          "name": "_month",
          "type": "uint256"
        }
      ],
      "name": "claimAirdropDistribution",
      "outputs": [
        {
          "internalType": "uint256",
          "name": "",
          "type": "uint256"
        }
      ],
      "stateMutability": "nonpayable",
      "type": "function"
    },
    {
      "inputs": [],
      "name": "claimAllFtsoRewards",
      "outputs": [
        {
          "internalType": "uint256",
          "name": "",
          "type": "uint256"
        }
      ],
      "stateMutability": "nonpayable",
      "type": "function"
    },
    {
      "inputs": [],
      "name": "claimAllUnclaimedAirdropDistribution",
      "outputs": [
        {
          "internalType": "uint256",
          "name": "",
          "type": "uint256"
        }
      ],
      "stateMutability": "nonpayable",
      "type": "function"
    },
    {
      "inputs": [
        {
          "internalType": "uint256[]",
          "name": "_epochs",
          "type": "uint256[]"
        }
      ],
      "name": "claimFtsoRewards",
      "outputs": [
        {
          "internalType": "uint256",
          "name": "",
          "type": "uint256"
        }
      ],
      "stateMutability": "nonpayable",
      "type": "function"
    },
    {
      "inputs": [
        {
          "internalType": "address",
          "name": "_to",
          "type": "address"
        },
        {
          "internalType": "uint256",
          "name": "_bips",
          "type": "uint256"
        }
      ],
      "name": "delegate",
      "outputs": [],
      "stateMutability": "nonpayable",
      "type": "function"
    },
    {
      "inputs": [
        {
          "internalType": "address",
          "name": "_to",
          "type": "address"
        }
      ],
      "name": "delegateGovernance",
      "outputs": [],
      "stateMutability": "nonpayable",
      "type": "function"
    },
    {
      "inputs": [
        {
          "internalType": "address",
          "name": "_owner",
          "type": "address"
        },
        {
          "internalType": "contract DelegationAccountManager",
          "name": "_manager",
          "type": "address"
        }
      ],
      "name": "initialize",
      "outputs": [],
      "stateMutability": "nonpayable",
      "type": "function"
    },
    {
      "inputs": [
        {
          "internalType": "address",
          "name": "",
          "type": "address"
        }
      ],
      "name": "isExecutor",
      "outputs": [
        {
          "internalType": "bool",
          "name": "",
          "type": "bool"
        }
      ],
      "stateMutability": "view",
      "type": "function"
    },
    {
      "inputs": [],
      "name": "manager",
      "outputs": [
        {
          "internalType": "contract DelegationAccountManager",
          "name": "",
          "type": "address"
        }
      ],
      "stateMutability": "view",
      "type": "function"
    },
    {
      "inputs": [],
      "name": "owner",
      "outputs": [
        {
          "internalType": "address",
          "name": "",
          "type": "address"
        }
      ],
      "stateMutability": "view",
      "type": "function"
    },
    {
      "inputs": [
        {
          "internalType": "address",
          "name": "_executor",
          "type": "address"
        }
      ],
      "name": "removeExecutor",
      "outputs": [],
      "stateMutability": "nonpayable",
      "type": "function"
    },
    {
      "inputs": [
        {
          "internalType": "address",
          "name": "_executor",
          "type": "address"
        }
      ],
      "name": "setExecutor",
      "outputs": [],
      "stateMutability": "nonpayable",
      "type": "function"
    },
    {
      "inputs": [],
      "name": "undelegateAll",
      "outputs": [],
      "stateMutability": "nonpayable",
      "type": "function"
    },
    {
      "inputs": [],
      "name": "undelegateGovernance",
      "outputs": [],
      "stateMutability": "nonpayable",
      "type": "function"
    },
    {
      "inputs": [
        {
          "internalType": "uint256",
          "name": "_amount",
          "type": "uint256"
        }
      ],
      "name": "withdraw",
      "outputs": [],
      "stateMutability": "nonpayable",
      "type": "function"
    },
    {
      "stateMutability": "payable",
      "type": "receive"
    }
  ],
  "bytecode": "0x608060405234801561001057600080fd5b50612720806100206000396000f3fe6080604052600436106100ec5760003560e01c8063485cc9551161008a5780638da5cb5b116100595780638da5cb5b146103b4578063b302f393146103c9578063dabdd28a146103de578063debfda301461048c576101ca565b8063485cc9551461031c5780636da97044146103575780637a68a5081461036c57806387a2a0dc1461039f576101ca565b806324788429116100c657806324788429146102645780632e1a7d4d14610297578063355663b1146102c1578063481c6a75146102eb576101ca565b8063026e402b146101cf578063041a0c581461020a5780631c3c0ea814610231576101ca565b366101ca57600160009054906101000a90046001600160a01b03166001600160a01b0316639edbf0076040518163ffffffff1660e01b815260040160206040518083038186803b15801561013f57600080fd5b505afa158015610153573d6000803e3d6000fd5b505050506040513d602081101561016957600080fd5b505160408051630d0e30db60e41b815290516001600160a01b039092169163d0e30db0913491600480830192600092919082900301818588803b1580156101af57600080fd5b505af11580156101c3573d6000803e3d6000fd5b5050505050005b600080fd5b3480156101db57600080fd5b50610208600480360360408110156101f257600080fd5b506001600160a01b0381351690602001356104d3565b005b34801561021657600080fd5b5061021f610658565b60408051918252519081900360200190f35b34801561023d57600080fd5b506102086004803603602081101561025457600080fd5b50356001600160a01b031661081b565b34801561027057600080fd5b506102086004803603602081101561028757600080fd5b50356001600160a01b03166108d1565b3480156102a357600080fd5b50610208600480360360208110156102ba57600080fd5b5035610984565b3480156102cd57600080fd5b5061021f600480360360208110156102e457600080fd5b5035610b59565b3480156102f757600080fd5b50610300610fa5565b604080516001600160a01b039092168252519081900360200190f35b34801561032857600080fd5b506102086004803603604081101561033f57600080fd5b506001600160a01b0381358116916020013516610fb4565b34801561036357600080fd5b5061021f6110c8565b34801561037857600080fd5b506102086004803603602081101561038f57600080fd5b50356001600160a01b0316611862565b3480156103ab57600080fd5b50610208611ad0565b3480156103c057600080fd5b50610300611c2f565b3480156103d557600080fd5b50610208611c3e565b3480156103ea57600080fd5b5061021f6004803603602081101561040157600080fd5b810190602081018135600160201b81111561041b57600080fd5b82018360208201111561042d57600080fd5b803590602001918460208302840111600160201b8311171561044e57600080fd5b919080806020026020016040519081016040528093929190818152602001838360200280828437600092019190915250929550611d9d945050505050565b34801561049857600080fd5b506104bf600480360360208110156104af57600080fd5b50356001600160a01b0316612255565b604080519115158252519081900360200190f35b6000546001600160a01b03163314610527576040805162461bcd60e51b81526020600482015260126024820152711bdb9b1e481bdddb995c881858d8dbdd5b9d60721b604482015290519081900360640190fd5b600160009054906101000a90046001600160a01b03166001600160a01b0316639edbf0076040518163ffffffff1660e01b815260040160206040518083038186803b15801561057557600080fd5b505afa158015610589573d6000803e3d6000fd5b505050506040513d602081101561059f57600080fd5b50516040805163026e402b60e01b81526001600160a01b038581166004830152602482018590529151919092169163026e402b91604480830192600092919082900301818387803b1580156105f357600080fd5b505af1158015610607573d6000803e3d6000fd5b5050604080513081526001600160a01b038616602082015280820185905290517f703a47a5d329ba19c05c961cd84b7663eae4278efeec28db08140ddb5cda644c9350908190036060019150a15050565b600080546001600160a01b031633148061068157503360009081526002602052604090205460ff165b6106c0576040805162461bcd60e51b815260206004820152601e602482015260008051602061266b833981519152604482015290519081900360640190fd5b600080600160009054906101000a90046001600160a01b03166001600160a01b03166302aa63186040518163ffffffff1660e01b815260040160006040518083038186803b15801561071157600080fd5b505afa158015610725573d6000803e3d6000fd5b505050506040513d6000823e601f3d908101601f19168201604052602081101561074e57600080fd5b8101908080516040519392919084600160201b82111561076d57600080fd5b90830190602082018581111561078257600080fd5b82518660208202830111600160201b8211171561079e57600080fd5b82525081516020918201928201910280838360005b838110156107cb5781810151838201526020016107b3565b50505050905001604052505050905060005b81518110156108125760006108048383815181106107f757fe5b602002602001015161226a565b9390930192506001016107dd565b50909150505b90565b6000546001600160a01b0316331461086f576040805162461bcd60e51b81526020600482015260126024820152711bdb9b1e481bdddb995c881858d8dbdd5b9d60721b604482015290519081900360640190fd5b6001600160a01b038116600081815260026020908152604091829020805460ff1916600117905581513081529081019290925280517ff6852b02fcc40166e10f3043f1b4cc56e32a427b5bd00b7efd99dba73bc13bff9281900390910190a150565b6000546001600160a01b03163314610925576040805162461bcd60e51b81526020600482015260126024820152711bdb9b1e481bdddb995c881858d8dbdd5b9d60721b604482015290519081900360640190fd5b6001600160a01b038116600081815260026020908152604091829020805460ff1916905581513081529081019290925280517f40a16ba297014e5df106786282e70f57cbc8db945136aeebc7bf4e12a41798389281900390910190a150565b6000546001600160a01b031633146109d8576040805162461bcd60e51b81526020600482015260126024820152711bdb9b1e481bdddb995c881858d8dbdd5b9d60721b604482015290519081900360640190fd5b60015460408051639edbf00760e01b815290516000926001600160a01b031691639edbf007916004808301926020929190829003018186803b158015610a1d57600080fd5b505afa158015610a31573d6000803e3d6000fd5b505050506040513d6020811015610a4757600080fd5b5051600080546040805163a9059cbb60e01b81526001600160a01b039283166004820152602481018790529051919093169263a9059cbb9260448083019360209390929083900390910190829087803b158015610aa357600080fd5b505af1158015610ab7573d6000803e3d6000fd5b505050506040513d6020811015610acd57600080fd5b50519050600181151514610b1a576040805162461bcd60e51b815260206004820152600f60248201526e1d1c985b9cd9995c8819985a5b1959608a1b604482015290519081900360640190fd5b604080513081526020810184905281517fbeb0bd39500a0444fca02168381bdef3f4f3d0fd29a0a57d4cce23768b4660b9929181900390910190a15050565b600080546001600160a01b0316331480610b8257503360009081526002602052604090205460ff165b610bc1576040805162461bcd60e51b815260206004820152601e602482015260008051602061266b833981519152604482015290519081900360640190fd5b600080600160009054906101000a90046001600160a01b03166001600160a01b03166302aa63186040518163ffffffff1660e01b815260040160006040518083038186803b158015610c1257600080fd5b505afa158015610c26573d6000803e3d6000fd5b505050506040513d6000823e601f3d908101601f191682016040526020811015610c4f57600080fd5b8101908080516040519392919084600160201b821115610c6e57600080fd5b908301906020820185811115610c8357600080fd5b82518660208202830111600160201b82111715610c9f57600080fd5b82525081516020918201928201910280838360005b83811015610ccc578181015183820152602001610cb4565b50505050905001604052505050905060005b8151811015610f9c57818181518110610cf357fe5b60200260200101516001600160a01b031663aad3ec9630876040518363ffffffff1660e01b815260040180836001600160a01b0316815260200182815260200192505050602060405180830381600087803b158015610d5157600080fd5b505af1925050508015610d7657506040513d6020811015610d7157600080fd5b505160015b610f1257610d826125c5565b80610d8d5750610e3e565b6000805160206126cb83398151915281848481518110610da957fe5b60200260200101516040518080602001836001600160a01b03168152602001828103825284818151815260200191508051906020019080838360005b83811015610dfd578181015183820152602001610de5565b50505050905090810190601f168015610e2a5780820380516001836020036101000a031916815260200191505b50935050505060405180910390a150610f0d565b6000805160206126cb8339815191526040518060400160405280601b81526020016000805160206126ab833981519152815250838381518110610e7d57fe5b60200260200101516040518080602001836001600160a01b03168152602001828103825284818151815260200191508051906020019080838360005b83811015610ed1578181015183820152602001610eb9565b50505050905090810190601f168015610efe5780820380516001836020036101000a031916815260200191505b50935050505060405180910390a15b610f94565b8015610f925780840193507f9befbdf6504055cdda8e77a7cb568888f17936c8dfdb919024873e1b1d4b0fcf308288868681518110610f4d57fe5b602002602001015160405180856001600160a01b03168152602001848152602001838152602001826001600160a01b0316815260200194505050505060405180910390a15b505b600101610cde565b50909392505050565b6001546001600160a01b031681565b6000546001600160a01b031615611006576040805162461bcd60e51b81526020600482015260116024820152701bdddb995c88185b1c9958591e481cd95d607a1b604482015290519081900360640190fd5b6001600160a01b038216611059576040805162461bcd60e51b81526020600482015260156024820152746f776e65722061646472657373206d697373696e6760581b604482015290519081900360640190fd5b600080546001600160a01b038085166001600160a01b031992831617928390556001805485831693168317905560408051939091168352602083019190915280517fdc90fed0326ba91706deeac7eb34ac9f8b680734f9d782864dc29704d23bed6a9281900390910190a15050565b600080546001600160a01b03163314806110f157503360009081526002602052604090205460ff165b611130576040805162461bcd60e51b815260206004820152601e602482015260008051602061266b833981519152604482015290519081900360640190fd5b600080600160009054906101000a90046001600160a01b03166001600160a01b03166377fb67496040518163ffffffff1660e01b815260040160006040518083038186803b15801561118157600080fd5b505afa158015611195573d6000803e3d6000fd5b505050506040513d6000823e601f3d908101601f1916820160405260208110156111be57600080fd5b8101908080516040519392919084600160201b8211156111dd57600080fd5b9083019060208201858111156111f257600080fd5b82518660208202830111600160201b8211171561120e57600080fd5b82525081516020918201928201910280838360005b8381101561123b578181015183820152602001611223565b50505050905001604052505050905060005b81518110156108125781818151811061126257fe5b60200260200101516001600160a01b031663b4a2043d306040518263ffffffff1660e01b815260040180826001600160a01b0316815260200191505060006040518083038186803b1580156112b657600080fd5b505afa92505050801561137657506040513d6000823e601f3d908101601f1916820160405260208110156112e957600080fd5b8101908080516040519392919084600160201b82111561130857600080fd5b90830190602082018581111561131d57600080fd5b82518660208202830111600160201b8211171561133957600080fd5b82525081516020918201928201910280838360005b8381101561136657818101518382015260200161134e565b5050505090500160405250505060015b611536576113826125c5565b8061138d5750611450565b7f5dd61df21ab6a4d36ba4b0c8229e11252b522b9048f0955e0fc0b928179bd4c9818484815181106113bb57fe5b60200260200101516040518080602001836001600160a01b03168152602001828103825284818151815260200191508051906020019080838360005b8381101561140f5781810151838201526020016113f7565b50505050905090810190601f16801561143c5780820380516001836020036101000a031916815260200191505b50935050505060405180910390a150611531565b7f5dd61df21ab6a4d36ba4b0c8229e11252b522b9048f0955e0fc0b928179bd4c96040518060400160405280601b81526020016000805160206126ab8339815191528152508383815181106114a157fe5b60200260200101516040518080602001836001600160a01b03168152602001828103825284818151815260200191508051906020019080838360005b838110156114f55781810151838201526020016114dd565b50505050905090810190601f1680156115225780820380516001836020036101000a031916815260200191505b50935050505060405180910390a15b61185a565b82828151811061154257fe5b60200260200101516001600160a01b031663b2af870a30836040518363ffffffff1660e01b815260040180836001600160a01b0316815260200180602001828103825283818151815260200191508051906020019060200280838360005b838110156115b85781810151838201526020016115a0565b505050509050019350505050602060405180830381600087803b1580156115de57600080fd5b505af192505050801561160357506040513d60208110156115fe57600080fd5b505160015b61179f5761160f6125c5565b8061161a57506116cb565b60008051602061268b8339815191528185858151811061163657fe5b60200260200101516040518080602001836001600160a01b03168152602001828103825284818151815260200191508051906020019080838360005b8381101561168a578181015183820152602001611672565b50505050905090810190601f1680156116b75780820380516001836020036101000a031916815260200191505b50935050505060405180910390a15061179a565b60008051602061268b8339815191526040518060400160405280601b81526020016000805160206126ab83398151915281525084848151811061170a57fe5b60200260200101516040518080602001836001600160a01b03168152602001828103825284818151815260200191508051906020019080838360005b8381101561175e578181015183820152602001611746565b50505050905090810190601f16801561178b5780820380516001836020036101000a031916815260200191505b50935050505060405180910390a15b611858565b80850194507f18d6f765ea35370df9f587f4758770ce023ea5295df6b7ae18b343f9af2ab9533083838787815181106117d457fe5b602002602001015160405180856001600160a01b0316815260200180602001848152602001836001600160a01b03168152602001828103825285818151815260200191508051906020019060200280838360005b83811015611840578181015183820152602001611828565b505050509050019550505050505060405180910390a1505b505b60010161124d565b6000546001600160a01b031633146118b6576040805162461bcd60e51b81526020600482015260126024820152711bdb9b1e481bdddb995c881858d8dbdd5b9d60721b604482015290519081900360640190fd5b600160009054906101000a90046001600160a01b03166001600160a01b031663899fd1646040518163ffffffff1660e01b815260040160206040518083038186803b15801561190457600080fd5b505afa158015611918573d6000803e3d6000fd5b505050506040513d602081101561192e57600080fd5b5051604080516317066a5760e21b81526001600160a01b03848116600483015291519190921691635c19a95c91602480830192600092919082900301818387803b15801561197b57600080fd5b505af115801561198f573d6000803e3d6000fd5b505050507f8b408bfd50a7e4e35da4fc4d780110374e2f69da2e97507f93924e7e69633d083082600160009054906101000a90046001600160a01b03166001600160a01b0316639edbf0076040518163ffffffff1660e01b815260040160206040518083038186803b158015611a0457600080fd5b505afa158015611a18573d6000803e3d6000fd5b505050506040513d6020811015611a2e57600080fd5b5051604080516370a0823160e01b815230600482015290516001600160a01b03909216916370a0823191602480820192602092909190829003018186803b158015611a7857600080fd5b505afa158015611a8c573d6000803e3d6000fd5b505050506040513d6020811015611aa257600080fd5b5051604080516001600160a01b0394851681529290931660208301528183015290519081900360600190a150565b6000546001600160a01b03163314611b24576040805162461bcd60e51b81526020600482015260126024820152711bdb9b1e481bdddb995c881858d8dbdd5b9d60721b604482015290519081900360640190fd5b600160009054906101000a90046001600160a01b03166001600160a01b031663899fd1646040518163ffffffff1660e01b815260040160206040518083038186803b158015611b7257600080fd5b505afa158015611b86573d6000803e3d6000fd5b505050506040513d6020811015611b9c57600080fd5b5051604080516392ab89bb60e01b815290516001600160a01b03909216916392ab89bb9160048082019260009290919082900301818387803b158015611be157600080fd5b505af1158015611bf5573d6000803e3d6000fd5b50506040805130815290517f3c0a8da642c4c2e8fd013e8617b705b5815ebecb0e70523474be8e03ba178f2a9350908190036020019150a1565b6000546001600160a01b031681565b6000546001600160a01b03163314611c92576040805162461bcd60e51b81526020600482015260126024820152711bdb9b1e481bdddb995c881858d8dbdd5b9d60721b604482015290519081900360640190fd5b600160009054906101000a90046001600160a01b03166001600160a01b0316639edbf0076040518163ffffffff1660e01b815260040160206040518083038186803b158015611ce057600080fd5b505afa158015611cf4573d6000803e3d6000fd5b505050506040513d6020811015611d0a57600080fd5b50516040805163b302f39360e01b815290516001600160a01b039092169163b302f3939160048082019260009290919082900301818387803b158015611d4f57600080fd5b505af1158015611d63573d6000803e3d6000fd5b50506040805130815290517fc8875456dcda84f70058cbec44abb3bf0cc24b33574c9ccaa15b64e38afd23df9350908190036020019150a1565b600080546001600160a01b0316331480611dc657503360009081526002602052604090205460ff165b611e05576040805162461bcd60e51b815260206004820152601e602482015260008051602061266b833981519152604482015290519081900360640190fd5b600080600160009054906101000a90046001600160a01b03166001600160a01b03166377fb67496040518163ffffffff1660e01b815260040160006040518083038186803b158015611e5657600080fd5b505afa158015611e6a573d6000803e3d6000fd5b505050506040513d6000823e601f3d908101601f191682016040526020811015611e9357600080fd5b8101908080516040519392919084600160201b821115611eb257600080fd5b908301906020820185811115611ec757600080fd5b82518660208202830111600160201b82111715611ee357600080fd5b82525081516020918201928201910280838360005b83811015611f10578181015183820152602001611ef8565b50505050905001604052505050905060005b8151811015610f9c57818181518110611f3757fe5b60200260200101516001600160a01b031663b2af870a30876040518363ffffffff1660e01b815260040180836001600160a01b0316815260200180602001828103825283818151815260200191508051906020019060200280838360005b83811015611fad578181015183820152602001611f95565b505050509050019350505050602060405180830381600087803b158015611fd357600080fd5b505af1925050508015611ff857506040513d6020811015611ff357600080fd5b505160015b612194576120046125c5565b8061200f57506120c0565b60008051602061268b8339815191528184848151811061202b57fe5b60200260200101516040518080602001836001600160a01b03168152602001828103825284818151815260200191508051906020019080838360005b8381101561207f578181015183820152602001612067565b50505050905090810190601f1680156120ac5780820380516001836020036101000a031916815260200191505b50935050505060405180910390a15061218f565b60008051602061268b8339815191526040518060400160405280601b81526020016000805160206126ab8339815191528152508383815181106120ff57fe5b60200260200101516040518080602001836001600160a01b03168152602001828103825284818151815260200191508051906020019080838360005b8381101561215357818101518382015260200161213b565b50505050905090810190601f1680156121805780820380516001836020036101000a031916815260200191505b50935050505060405180910390a15b61224d565b80840193507f18d6f765ea35370df9f587f4758770ce023ea5295df6b7ae18b343f9af2ab9533087838686815181106121c957fe5b602002602001015160405180856001600160a01b0316815260200180602001848152602001836001600160a01b03168152602001828103825285818151815260200191508051906020019060200280838360005b8381101561223557818101518382015260200161221d565b505050509050019550505050505060405180910390a1505b600101611f22565b60026020526000908152604090205460ff1681565b6000806122dc836001600160a01b031663ddd1b67e6040518163ffffffff1660e01b815260040160206040518083038186803b1580156122a957600080fd5b505afa1580156122bd573d6000803e3d6000fd5b505050506040513d60208110156122d357600080fd5b505160246125a7565b9050600080846001600160a01b031663aa7579ac6040518163ffffffff1660e01b815260040160206040518083038186803b15801561231a57600080fd5b505afa15801561232e573d6000803e3d6000fd5b505050506040513d602081101561234457600080fd5b505190505b8281101561259f5760408051635569f64b60e11b81523060048201526024810183905290516001600160a01b0387169163aad3ec969160448083019260209291908290030181600087803b1580156123a057600080fd5b505af19250505080156123c557506040513d60208110156123c057600080fd5b505160015b61253b576123d16125c5565b806123dc575061247a565b6000805160206126cb83398151915281876040518080602001836001600160a01b03168152602001828103825284818151815260200191508051906020019080838360005b83811015612439578181015183820152602001612421565b50505050905090810190601f1680156124665780820380516001836020036101000a031916815260200191505b50935050505060405180910390a150612536565b6000805160206126cb8339815191526040518060400160405280601b81526020016000805160206126ab833981519152815250866040518080602001836001600160a01b03168152602001828103825284818151815260200191508051906020019080838360005b838110156124fa5781810151838201526020016124e2565b50505050905090810190601f1680156125275780820380516001836020036101000a031916815260200191505b50935050505060405180910390a15b612597565b80156125955760408051308152602081018390528082018490526001600160a01b03881660608201529051938201937f9befbdf6504055cdda8e77a7cb568888f17936c8dfdb919024873e1b1d4b0fcf9181900360800190a15b505b600101612349565b509392505050565b60008183106125b657816125b8565b825b9392505050565b60e01c90565b600060443d10156125d557610818565b600481823e6308c379a06125e982516125bf565b146125f357610818565b6040513d600319016004823e80513d67ffffffffffffffff81602484011181841117156126235750505050610818565b8284019250825191508082111561263d5750505050610818565b503d8301602082840101111561265557505050610818565b601f01601f191681016020016040529150509056fe6f6e6c79206f776e6572206f72206578656375746f72206163636f756e74000085a45b233f533601601096978008ddf330ac654b0a1a7f4f51d9c8b5247d3da9756e6b6e6f776e206572726f72207768656e20636c61696d696e67000000000095f1600e25d8ce8cdcebc742819a2ecf1b3ecb1c8cac7b1f2606a22febdffde5a26469706673582212209b386889dfea09646d8fd38676cb669b507146b1ad2f1a3137b628966fd52e4964736f6c63430007060033",
  "linkReferences": {},
  "deployedLinkReferences": {}
}