{
  "_format": "hh-sol-artifact-1",
  "contractName": "CheckPointHistoryMock",
  "sourceName": "contracts/token/mock/CheckPointHistoryMock.sol",
  "abi": [
    {
      "inputs": [
        {
          "internalType": "uint256",
          "name": "_count",
          "type": "uint256"
        },
        {
          "internalType": "uint256",
          "name": "_cleanupBlockNumber",
          "type": "uint256"
        }
      ],
      "name": "cleanupOldCheckpoints",
      "outputs": [],
      "stateMutability": "nonpayable",
      "type": "function"
    },
    {
      "inputs": [
        {
          "internalType": "uint256",
          "name": "_blockNumber",
          "type": "uint256"
        }
      ],
      "name": "valueAt",
      "outputs": [
        {
          "internalType": "uint256",
          "name": "_value",
          "type": "uint256"
        }
      ],
      "stateMutability": "view",
      "type": "function"
    },
    {
      "inputs": [],
      "name": "valueAtNow",
      "outputs": [
        {
          "internalType": "uint256",
          "name": "_value",
          "type": "uint256"
        }
      ],
      "stateMutability": "view",
      "type": "function"
    },
    {
      "inputs": [
        {
          "internalType": "uint256",
          "name": "_value",
          "type": "uint256"
        }
      ],
      "name": "writeValue",
      "outputs": [],
      "stateMutability": "nonpayable",
      "type": "function"
    }
  ],
  "bytecode": "0x608060405234801561001057600080fd5b50610837806100206000396000f3fe608060405234801561001057600080fd5b506004361061004c5760003560e01c80632428607b14610051578063ba50296114610070578063f379b09a1461008a578063fe092b0e146100ad575b600080fd5b61006e6004803603602081101561006757600080fd5b50356100ca565b005b6100786100d8565b60408051918252519081900360200190f35b61006e600480360360408110156100a057600080fd5b50803590602001356100e9565b610078600480360360208110156100c357600080fd5b50356100fa565b6100d560008261010e565b50565b60006100e460006102d0565b905090565b6100f560008383610318565b505050565b60006101068183610407565b90505b919050565b6001820154600160401b90046001600160401b0316806101c557604051806040016040528061013c8461054b565b6001600160c01b03168152602001610153436105a9565b6001600160401b03908116909152600080805260208681526040909120835181549490920151909216600160c01b026001600160c01b039182166001600160c01b0319909416939093171691909117905560018301805467ffffffffffffffff60401b1916600160401b1790556100f5565b600019810160009081526020849052604090208054600160c01b90046001600160401b03164381141561021b576101fb8461054b565b82546001600160c01b0319166001600160c01b03919091161782556102c9565b80431161022457fe5b60405180604001604052806102388661054b565b6001600160c01b0316815260200161024f436105a9565b6001600160401b039081169091526000858152602088815260409091208351815494909201518316600160c01b026001600160c01b039283166001600160c01b0319909516949094179091169290921790915560018087018054918601909216600160401b0267ffffffffffffffff60401b199091161790555b5050505050565b6001810154600090600160401b90046001600160401b0316806102f7576000915050610109565b6000190160009081526020929092525060409020546001600160c01b031690565b60008161032757506000610400565b6001840154600160401b90046001600160401b03168061034b576000915050610400565b60018501546001600160401b0316600061037161036883886105ed565b60018503610647565b9050815b81811080156103a6575060018101600090815260208990526040902054600160c01b90046001600160401b03168610155b156103c257600081815260208990526040812055600101610375565b828111156103f7576103d3816105a9565b60018901805467ffffffffffffffff19166001600160401b03929092169190911790555b91909103925050505b9392505050565b6001820154600090600160401b90046001600160401b03168061042e576000915050610545565b438310158061046057506000198101600090815260208590526040902054600160c01b90046001600160401b03168310155b1561048857600019016000908152602084905260409020546001600160c01b03169050610545565b60018401546001600160401b039081166000818152602087905260409020549091600160c01b909104168410156105015780156104f65760405162461bcd60e51b81526004018080602001828103825260308152602001806107d26030913960400191505060405180910390fd5b600092505050610545565b60018501546000906105279087908490600160401b90046001600160401b03168861065d565b6000908152602087905260409020546001600160c01b031693505050505b92915050565b6000600160c01b82106105a5576040805162461bcd60e51b815260206004820152601d60248201527f76616c756520646f65736e27742066697420696e203139322062697473000000604482015290519081900360640190fd5b5090565b6000600160401b82106105a55760405162461bcd60e51b81526004018080602001828103825260268152602001806107ac6026913960400191505060405180910390fd5b600082820183811015610400576040805162461bcd60e51b815260206004820152601b60248201527f536166654d6174683a206164646974696f6e206f766572666c6f770000000000604482015290519081900360640190fd5b60008183106106565781610400565b5090919050565b6000838161066c8560016106e7565b90505b818111156106dd5760006106996002610693600161068d86886105ed565b906105ed565b90610744565b600081815260208a90526040902054909150600160c01b90046001600160401b031685106106c9578092506106d7565b6106d48160016106e7565b91505b5061066f565b5095945050505050565b60008282111561073e576040805162461bcd60e51b815260206004820152601e60248201527f536166654d6174683a207375627472616374696f6e206f766572666c6f770000604482015290519081900360640190fd5b50900390565b600080821161079a576040805162461bcd60e51b815260206004820152601a60248201527f536166654d6174683a206469766973696f6e206279207a65726f000000000000604482015290519081900360640190fd5b8183816107a357fe5b04939250505056fe53616665436173743a2076616c756520646f65736e27742066697420696e2036342062697473436865636b506f696e74486973746f72793a2072656164696e672066726f6d20636c65616e65642d757020626c6f636ba2646970667358221220d448d92387b5f35e0c7d06f982ec047c083575b9324c70bd27cb1f3d154b4a0a64736f6c63430007060033",
  "linkReferences": {},
  "deployedLinkReferences": {}
}