{
  "_format": "hh-sol-artifact-1",
  "contractName": "GovernanceVotePower",
  "sourceName": "contracts/token/implementation/GovernanceVotePower.sol",
  "abi": [
    {
      "inputs": [
        {
          "internalType": "contract IVPToken",
          "name": "_ownerToken",
          "type": "address"
        }
      ],
      "stateMutability": "nonpayable",
      "type": "constructor"
    },
    {
      "anonymous": false,
      "inputs": [
        {
          "indexed": true,
          "internalType": "address",
          "name": "delegator",
          "type": "address"
        },
        {
          "indexed": true,
          "internalType": "address",
          "name": "fromDelegate",
          "type": "address"
        },
        {
          "indexed": true,
          "internalType": "address",
          "name": "toDelegate",
          "type": "address"
        }
      ],
      "name": "DelegateChanged",
      "type": "event"
    },
    {
      "anonymous": false,
      "inputs": [
        {
          "indexed": true,
          "internalType": "address",
          "name": "delegate",
          "type": "address"
        },
        {
          "indexed": false,
          "internalType": "uint256",
          "name": "previousBalance",
          "type": "uint256"
        },
        {
          "indexed": false,
          "internalType": "uint256",
          "name": "newBalance",
          "type": "uint256"
        }
      ],
      "name": "DelegateVotesChanged",
      "type": "event"
    },
    {
      "inputs": [
        {
          "internalType": "address",
          "name": "_to",
          "type": "address"
        }
      ],
      "name": "delegate",
      "outputs": [],
      "stateMutability": "nonpayable",
      "type": "function"
    },
    {
      "inputs": [
        {
          "internalType": "address",
          "name": "_owner",
          "type": "address"
        },
        {
          "internalType": "uint256",
          "name": "_count",
          "type": "uint256"
        }
      ],
      "name": "delegatedGovernanceVotePowerHistoryCleanup",
      "outputs": [
        {
          "internalType": "uint256",
          "name": "",
          "type": "uint256"
        }
      ],
      "stateMutability": "nonpayable",
      "type": "function"
    },
    {
      "inputs": [
        {
          "internalType": "address",
          "name": "_owner",
          "type": "address"
        },
        {
          "internalType": "uint256",
          "name": "_count",
          "type": "uint256"
        }
      ],
      "name": "delegatesHistoryCleanup",
      "outputs": [
        {
          "internalType": "uint256",
          "name": "",
          "type": "uint256"
        }
      ],
      "stateMutability": "nonpayable",
      "type": "function"
    },
    {
      "inputs": [],
      "name": "getCleanupBlockNumber",
      "outputs": [
        {
          "internalType": "uint256",
          "name": "",
          "type": "uint256"
        }
      ],
      "stateMutability": "view",
      "type": "function"
    },
    {
      "inputs": [
        {
          "internalType": "address",
          "name": "_who",
          "type": "address"
        },
        {
          "internalType": "uint256",
          "name": "_blockNumber",
          "type": "uint256"
        }
      ],
      "name": "getDelegateOfAt",
      "outputs": [
        {
          "internalType": "address",
          "name": "",
          "type": "address"
        }
      ],
      "stateMutability": "view",
      "type": "function"
    },
    {
      "inputs": [
        {
          "internalType": "address",
          "name": "_who",
          "type": "address"
        }
      ],
      "name": "getDelegateOfAtNow",
      "outputs": [
        {
          "internalType": "address",
          "name": "",
          "type": "address"
        }
      ],
      "stateMutability": "view",
      "type": "function"
    },
    {
      "inputs": [
        {
          "internalType": "address",
          "name": "_who",
          "type": "address"
        }
      ],
      "name": "getVotes",
      "outputs": [
        {
          "internalType": "uint256",
          "name": "",
          "type": "uint256"
        }
      ],
      "stateMutability": "view",
      "type": "function"
    },
    {
      "inputs": [],
      "name": "ownerToken",
      "outputs": [
        {
          "internalType": "contract IVPToken",
          "name": "",
          "type": "address"
        }
      ],
      "stateMutability": "view",
      "type": "function"
    },
    {
      "inputs": [
        {
          "internalType": "address",
          "name": "_cleanerContract",
          "type": "address"
        }
      ],
      "name": "setCleanerContract",
      "outputs": [],
      "stateMutability": "nonpayable",
      "type": "function"
    },
    {
      "inputs": [
        {
          "internalType": "uint256",
          "name": "_blockNumber",
          "type": "uint256"
        }
      ],
      "name": "setCleanupBlockNumber",
      "outputs": [],
      "stateMutability": "nonpayable",
      "type": "function"
    },
    {
      "inputs": [],
      "name": "undelegate",
      "outputs": [],
      "stateMutability": "nonpayable",
      "type": "function"
    },
    {
      "inputs": [
        {
          "internalType": "address",
          "name": "_from",
          "type": "address"
        },
        {
          "internalType": "address",
          "name": "_to",
          "type": "address"
        },
        {
          "internalType": "uint256",
          "name": "",
          "type": "uint256"
        },
        {
          "internalType": "uint256",
          "name": "",
          "type": "uint256"
        },
        {
          "internalType": "uint256",
          "name": "_amount",
          "type": "uint256"
        }
      ],
      "name": "updateAtTokenTransfer",
      "outputs": [],
      "stateMutability": "nonpayable",
      "type": "function"
    },
    {
      "inputs": [
        {
          "internalType": "address",
          "name": "_who",
          "type": "address"
        },
        {
          "internalType": "uint256",
          "name": "_blockNumber",
          "type": "uint256"
        }
      ],
      "name": "votePowerOfAt",
      "outputs": [
        {
          "internalType": "uint256",
          "name": "",
          "type": "uint256"
        }
      ],
      "stateMutability": "view",
      "type": "function"
    }
  ],
  "bytecode": "0x60a060405234801561001057600080fd5b506040516119d13803806119d18339818101604052602081101561003357600080fd5b50516001600160a01b03811661007a5760405162461bcd60e51b815260040180806020018281038252602c8152602001806119a5602c913960400191505060405180910390fd5b606081901b6001600160601b0319166080526001600160a01b03166118d66100cf600039806102ce52806102f7528061053c528061067852806106d652806107b6528061097a52806109a352506118d66000f3fe608060405234801561001057600080fd5b50600436106100cf5760003560e01c806392bfe6d81161008c578063b3e871ee11610066578063b3e871ee14610209578063eadb43621461022f578063f6a494af14610271578063f7ce0ddf14610297576100cf565b806392bfe6d8146101af5780639ab24eb0146101db578063a72ec4b614610201576100cf565b806313de97f5146100d457806329a59ff2146100f35780633c028e9d146101315780635c19a95c14610179578063653718831461019f57806392ab89bb146101a7575b600080fd5b6100f1600480360360208110156100ea57600080fd5b50356102c3565b005b61011f6004803603604081101561010957600080fd5b506001600160a01b038135169060200135610456565b60408051918252519081900360200190f35b61015d6004803603604081101561014757600080fd5b506001600160a01b0381351690602001356104cc565b604080516001600160a01b039092168252519081900360200190f35b6100f16004803603602081101561018f57600080fd5b50356001600160a01b03166104da565b61015d610676565b6100f161069a565b61011f600480360360408110156101c557600080fd5b506001600160a01b0381351690602001356106a6565b61011f600480360360208110156101f157600080fd5b50356001600160a01b0316610784565b61011f610798565b61015d6004803603602081101561021f57600080fd5b50356001600160a01b031661079e565b6100f1600480360360a081101561024557600080fd5b506001600160a01b038135811691602081013590911690604081013590606081013590608001356107ab565b6100f16004803603602081101561028757600080fd5b50356001600160a01b031661096f565b61011f600480360360408110156102ad57600080fd5b506001600160a01b038135169060200135610aa0565b336001600160a01b037f000000000000000000000000000000000000000000000000000000000000000016148061038657507f00000000000000000000000000000000000000000000000000000000000000006001600160a01b0316635aa6e6756040518163ffffffff1660e01b815260040160206040518083038186803b15801561034e57600080fd5b505afa158015610362573d6000803e3d6000fd5b505050506040513d602081101561037857600080fd5b50516001600160a01b031633145b6103d2576040805162461bcd60e51b81526020600482015260186024820152776f6e6c79206f776e6572206f7220676f7665726e616e636560401b604482015290519081900360640190fd5b6002548110156104135760405162461bcd60e51b81526004018080602001828103825260288152602001806118236028913960400191505060405180910390fd5b4381106104515760405162461bcd60e51b81526004018080602001828103825260218152602001806118026021913960400191505060405180910390fd5b600255565b6003546000906001600160a01b031633146104b0576040805162461bcd60e51b81526020600482015260156024820152741bdb9b1e4818db19585b995c8818dbdb9d1c9858dd605a1b604482015290519081900360640190fd5b6002546104c39060009085908590610b0d565b90505b92915050565b60006104c360018484610b54565b6001600160a01b038116331415610538576040805162461bcd60e51b815260206004820152601a60248201527f63616e27742064656c656761746520746f20796f757273656c66000000000000604482015290519081900360640190fd5b60007f00000000000000000000000000000000000000000000000000000000000000006001600160a01b03166370a08231336040518263ffffffff1660e01b815260040180826001600160a01b0316815260200191505060206040518083038186803b1580156105a757600080fd5b505afa1580156105bb573d6000803e3d6000fd5b505050506040513d60208110156105d157600080fd5b5051905060006105e03361079e565b90506001600160a01b038116156105fc576105fc338284610b81565b61060860013385610c07565b6002805461061b91600191339190610c2f565b506001600160a01b0383161561063657610636338484610c63565b6040516001600160a01b03808516919083169033907f3134e8a2e6d97e929a7e54011ea5485d7d196dd5f0ba4d4ef95803e8e3fc257f90600090a4505050565b7f000000000000000000000000000000000000000000000000000000000000000081565b6106a460006104da565b565b6000806106b4818585610c7d565b905060006106c285856104cc565b90506001600160a01b03811661077c5760007f00000000000000000000000000000000000000000000000000000000000000006001600160a01b0316634ee2cd7e87876040518363ffffffff1660e01b815260040180836001600160a01b031681526020018281526020019250505060206040518083038186803b15801561074957600080fd5b505afa15801561075d573d6000803e3d6000fd5b505050506040513d602081101561077357600080fd5b50519290920191505b509392505050565b600061079082436106a6565b90505b919050565b60025490565b6000610790600183610c9f565b336001600160a01b037f0000000000000000000000000000000000000000000000000000000000000000161461081b576040805162461bcd60e51b815260206004820152601060248201526f37b7363c9037bbb732b9103a37b5b2b760811b604482015290519081900360640190fd5b836001600160a01b0316856001600160a01b03161415610882576040805162461bcd60e51b815260206004820152601a60248201527f43616e2774207472616e7366657220746f20796f757273656c66000000000000604482015290519081900360640190fd5b6001600160a01b0385161515806108a157506001600160a01b03841615155b6108aa57600080fd5b60006108b58661079e565b905060006108c28661079e565b90506001600160a01b0387166108f1576001600160a01b038116156108ec576108ec868285610c63565b610966565b6001600160a01b038616610919576001600160a01b038216156108ec576108ec878385610b81565b806001600160a01b0316826001600160a01b031614610966576001600160a01b0382161561094c5761094c878385610b81565b6001600160a01b0381161561096657610966868285610c63565b50505050505050565b336001600160a01b037f0000000000000000000000000000000000000000000000000000000000000000161480610a3257507f00000000000000000000000000000000000000000000000000000000000000006001600160a01b0316635aa6e6756040518163ffffffff1660e01b815260040160206040518083038186803b1580156109fa57600080fd5b505afa158015610a0e573d6000803e3d6000fd5b505050506040513d6020811015610a2457600080fd5b50516001600160a01b031633145b610a7e576040805162461bcd60e51b81526020600482015260186024820152776f6e6c79206f776e6572206f7220676f7665726e616e636560401b604482015290519081900360640190fd5b600380546001600160a01b0319166001600160a01b0392909216919091179055565b6003546000906001600160a01b03163314610afa576040805162461bcd60e51b81526020600482015260156024820152741bdb9b1e4818db19585b995c8818dbdb9d1c9858dd605a1b604482015290519081900360640190fd5b6002546104c39060019085908590610c2f565b60006001600160a01b03841615610b48576001600160a01b0384166000908152602086905260409020610b41908484610cc0565b9050610b4c565b5060005b949350505050565b6001600160a01b0382166000908152602084905260408120610b768184610dad565b9150505b9392505050565b6000610b8d8184610ef0565b90506000610b9b8284610f11565b9050610ba960008583610f6e565b60028054610bbc91600091879190610b0d565b50604080518381526020810183905281516001600160a01b038716927fdec2bacdd2f05b59de34da9b523dff8be42e5e38e818c82fdb0bae774387a724928290030190a25050505050565b6001600160a01b0382166000908152602084905260409020610c298183610f90565b50505050565b60006001600160a01b03841615610b48576001600160a01b0384166000908152602086905260409020610b41908484611153565b6000610c6f8184610ef0565b90506000610b9b8284611201565b6001600160a01b0382166000908152602084905260408120610b76818461125b565b6001600160a01b0381166000908152602083905260408120610b4c81611393565b600081610ccf57506000610b7a565b6001840154600160401b90046001600160401b031680610cf3576000915050610b7a565b60018501546001600160401b03166000610d19610d108388611201565b600185036113db565b9050815b8181108015610d4e575060018101600090815260208990526040902054600160c01b90046001600160401b03168610155b15610d6a57600081815260208990526040812055600101610d1d565b82811115610d9f57610d7b816113f1565b60018901805467ffffffffffffffff19166001600160401b03929092169190911790555b919091039695505050505050565b6001820154600090600160401b90046001600160401b031680610dd45760009150506104c6565b4383101580610e0657506000198101600090815260208590526040902054600160a01b90046001600160401b03168310155b15610e2e57600019016000908152602084905260409020546001600160a01b031690506104c6565b60018401546001600160401b039081166000818152602087905260409020549091600160a01b90910416841015610ea7578015610e9c5760405162461bcd60e51b81526004018080602001828103825260308152602001806118716030913960400191505060405180910390fd5b6000925050506104c6565b6001850154600090610ecd9087908490600160401b90046001600160401b031688611439565b6000908152602087905260409020546001600160a01b0316935050505092915050565b6001600160a01b0381166000908152602083905260408120610b4c816114c3565b600082821115610f68576040805162461bcd60e51b815260206004820152601e60248201527f536166654d6174683a207375627472616374696f6e206f766572666c6f770000604482015290519081900360640190fd5b50900390565b6001600160a01b0382166000908152602084905260409020610c29818361150b565b6001820154600160401b90046001600160401b03168061104c576040518060400160405280836001600160a01b03168152602001610fcd436113f1565b6001600160401b03908116909152600080805260208681526040909120835181549490920151909216600160a01b0267ffffffffffffffff60a01b196001600160a01b039092166001600160a01b0319909416939093171691909117905560018301805467ffffffffffffffff60401b1916600160401b17905561114e565b600019810160009081526020849052604090208054600160a01b90046001600160401b0316438114156110975781546001600160a01b0319166001600160a01b03851617825561114b565b8043116110a057fe5b6040518060400160405280856001600160a01b031681526020016110c3436113f1565b6001600160401b039081169091526000858152602088815260409091208351815494909201518316600160a01b0267ffffffffffffffff60a01b196001600160a01b039093166001600160a01b031990951694909417919091169290921790915560018087018054918601909216600160401b0267ffffffffffffffff60401b199091161790555b50505b505050565b60008161116257506000610b7a565b6001840154600160401b90046001600160401b031680611186576000915050610b7a565b60018501546001600160401b031660006111a3610d108388611201565b9050815b81811080156111d8575060018101600090815260208990526040902054600160a01b90046001600160401b03168610155b15610d6a57600081815260208990526040902080546001600160e01b03191690556001016111a7565b6000828201838110156104c3576040805162461bcd60e51b815260206004820152601b60248201527f536166654d6174683a206164646974696f6e206f766572666c6f770000000000604482015290519081900360640190fd5b6001820154600090600160401b90046001600160401b0316806112825760009150506104c6565b43831015806112b457506000198101600090815260208590526040902054600160c01b90046001600160401b03168310155b156112dc57600019016000908152602084905260409020546001600160c01b031690506104c6565b60018401546001600160401b039081166000818152602087905260409020549091600160c01b9091041684101561134a578015610e9c5760405162461bcd60e51b81526004018080602001828103825260308152602001806118716030913960400191505060405180910390fd5b60018501546000906113709087908490600160401b90046001600160401b0316886116cc565b6000908152602087905260409020546001600160c01b0316935050505092915050565b6001810154600090600160401b90046001600160401b0316806113ba576000915050610793565b6000190160009081526020929092525060409020546001600160a01b031690565b60008183106113ea57816104c3565b5090919050565b6000600160401b82106114355760405162461bcd60e51b815260040180806020018281038252602681526020018061184b6026913960400191505060405180910390fd5b5090565b60008381611448856001610f11565b90505b818111156114b9576000611475600261146f60016114698688611201565b90611201565b90611740565b600081815260208a90526040902054909150600160a01b90046001600160401b031685106114a5578092506114b3565b6114b0816001610f11565b91505b5061144b565b5095945050505050565b6001810154600090600160401b90046001600160401b0316806114ea576000915050610793565b6000190160009081526020929092525060409020546001600160c01b031690565b6001820154600160401b90046001600160401b0316806115c2576040518060400160405280611539846117a7565b6001600160c01b03168152602001611550436113f1565b6001600160401b03908116909152600080805260208681526040909120835181549490920151909216600160c01b026001600160c01b039182166001600160c01b0319909416939093171691909117905560018301805467ffffffffffffffff60401b1916600160401b17905561114e565b600019810160009081526020849052604090208054600160c01b90046001600160401b031643811415611618576115f8846117a7565b82546001600160c01b0319166001600160c01b039190911617825561114b565b80431161162157fe5b6040518060400160405280611635866117a7565b6001600160c01b0316815260200161164c436113f1565b6001600160401b039081169091526000858152602088815260409091208351815494909201518316600160c01b026001600160c01b039283166001600160c01b0319909516949094179091169290921790915560018087018054918601909216600160401b0267ffffffffffffffff60401b199091161790555050505050565b600083816116db856001610f11565b90505b818111156114b95760006116fc600261146f60016114698688611201565b600081815260208a90526040902054909150600160c01b90046001600160401b0316851061172c5780925061173a565b611737816001610f11565b91505b506116de565b6000808211611796576040805162461bcd60e51b815260206004820152601a60248201527f536166654d6174683a206469766973696f6e206279207a65726f000000000000604482015290519081900360640190fd5b81838161179f57fe5b049392505050565b6000600160c01b8210611435576040805162461bcd60e51b815260206004820152601d60248201527f76616c756520646f65736e27742066697420696e203139322062697473000000604482015290519081900360640190fdfe636c65616e757020626c6f636b206d75737420626520696e207468652070617374636c65616e757020626c6f636b206e756d626572206d757374206e6576657220646563726561736553616665436173743a2076616c756520646f65736e27742066697420696e2036342062697473436865636b506f696e74486973746f72793a2072656164696e672066726f6d20636c65616e65642d757020626c6f636ba26469706673582212207fbe5e618186790c6d28c9e7b25ab19cf9bc834302e2dbac3397299780eed5ba64736f6c63430007060033676f7665726e616e6365566f7465506f776572206d7573742062656c6f6e6720746f2061205650546f6b656e",
  "linkReferences": {},
  "deployedLinkReferences": {}
}