{
  "_format": "hh-sol-artifact-1",
  "contractName": "MockFtsoRegistry",
  "sourceName": "contracts/ftso/priceProviderMockContracts/PriceProviderMockContracts.sol",
  "abi": [
    {
      "inputs": [
        {
          "internalType": "address",
          "name": "_governance",
          "type": "address"
        }
      ],
      "stateMutability": "nonpayable",
      "type": "constructor"
    },
    {
      "anonymous": false,
      "inputs": [
        {
          "indexed": false,
          "internalType": "address",
          "name": "proposedGovernance",
          "type": "address"
        }
      ],
      "name": "GovernanceProposed",
      "type": "event"
    },
    {
      "anonymous": false,
      "inputs": [
        {
          "indexed": false,
          "internalType": "address",
          "name": "oldGovernance",
          "type": "address"
        },
        {
          "indexed": false,
          "internalType": "address",
          "name": "newGoveranance",
          "type": "address"
        }
      ],
      "name": "GovernanceUpdated",
      "type": "event"
    },
    {
      "inputs": [
        {
          "internalType": "contract IIFtso",
          "name": "_ftsoContract",
          "type": "address"
        }
      ],
      "name": "addFtso",
      "outputs": [],
      "stateMutability": "nonpayable",
      "type": "function"
    },
    {
      "inputs": [],
      "name": "claimGovernance",
      "outputs": [],
      "stateMutability": "nonpayable",
      "type": "function"
    },
    {
      "inputs": [],
      "name": "getAllFtsos",
      "outputs": [
        {
          "internalType": "contract IIFtso[]",
          "name": "_ftsos",
          "type": "address[]"
        }
      ],
      "stateMutability": "view",
      "type": "function"
    },
    {
      "inputs": [
        {
          "internalType": "string",
          "name": "_symbol",
          "type": "string"
        }
      ],
      "name": "getCurrentPrice",
      "outputs": [
        {
          "internalType": "uint256",
          "name": "_price",
          "type": "uint256"
        },
        {
          "internalType": "uint256",
          "name": "_timestamp",
          "type": "uint256"
        }
      ],
      "stateMutability": "view",
      "type": "function"
    },
    {
      "inputs": [
        {
          "internalType": "uint256",
          "name": "_assetIndex",
          "type": "uint256"
        }
      ],
      "name": "getCurrentPrice",
      "outputs": [
        {
          "internalType": "uint256",
          "name": "_price",
          "type": "uint256"
        },
        {
          "internalType": "uint256",
          "name": "_timestamp",
          "type": "uint256"
        }
      ],
      "stateMutability": "view",
      "type": "function"
    },
    {
      "inputs": [
        {
          "internalType": "uint256",
          "name": "_assetIndex",
          "type": "uint256"
        }
      ],
      "name": "getFtso",
      "outputs": [
        {
          "internalType": "contract IIFtso",
          "name": "_activeFtso",
          "type": "address"
        }
      ],
      "stateMutability": "view",
      "type": "function"
    },
    {
      "inputs": [
        {
          "internalType": "string",
          "name": "_symbol",
          "type": "string"
        }
      ],
      "name": "getFtsoBySymbol",
      "outputs": [
        {
          "internalType": "contract IIFtso",
          "name": "_activeFtso",
          "type": "address"
        }
      ],
      "stateMutability": "view",
      "type": "function"
    },
    {
      "inputs": [
        {
          "internalType": "uint256",
          "name": "_assetIndex",
          "type": "uint256"
        }
      ],
      "name": "getFtsoHistory",
      "outputs": [
        {
          "internalType": "contract IIFtso[5]",
          "name": "_ftsoAddressHistory",
          "type": "address[5]"
        }
      ],
      "stateMutability": "view",
      "type": "function"
    },
    {
      "inputs": [
        {
          "internalType": "string",
          "name": "_symbol",
          "type": "string"
        }
      ],
      "name": "getFtsoIndex",
      "outputs": [
        {
          "internalType": "uint256",
          "name": "_assetIndex",
          "type": "uint256"
        }
      ],
      "stateMutability": "view",
      "type": "function"
    },
    {
      "inputs": [
        {
          "internalType": "uint256",
          "name": "_assetIndex",
          "type": "uint256"
        }
      ],
      "name": "getFtsoSymbol",
      "outputs": [
        {
          "internalType": "string",
          "name": "_symbol",
          "type": "string"
        }
      ],
      "stateMutability": "view",
      "type": "function"
    },
    {
      "inputs": [
        {
          "internalType": "uint256[]",
          "name": "_assetIndices",
          "type": "uint256[]"
        }
      ],
      "name": "getFtsos",
      "outputs": [
        {
          "internalType": "contract IFtsoGenesis[]",
          "name": "_ftsos",
          "type": "address[]"
        }
      ],
      "stateMutability": "view",
      "type": "function"
    },
    {
      "inputs": [],
      "name": "getSupportedFtsos",
      "outputs": [
        {
          "internalType": "contract IIFtso[]",
          "name": "_ftsos",
          "type": "address[]"
        }
      ],
      "stateMutability": "view",
      "type": "function"
    },
    {
      "inputs": [],
      "name": "getSupportedIndices",
      "outputs": [
        {
          "internalType": "uint256[]",
          "name": "_supportedIndices",
          "type": "uint256[]"
        }
      ],
      "stateMutability": "view",
      "type": "function"
    },
    {
      "inputs": [],
      "name": "getSupportedIndicesAndFtsos",
      "outputs": [
        {
          "internalType": "uint256[]",
          "name": "_supportedIndices",
          "type": "uint256[]"
        },
        {
          "internalType": "contract IIFtso[]",
          "name": "_ftsos",
          "type": "address[]"
        }
      ],
      "stateMutability": "view",
      "type": "function"
    },
    {
      "inputs": [],
      "name": "getSupportedIndicesAndSymbols",
      "outputs": [
        {
          "internalType": "uint256[]",
          "name": "_supportedIndices",
          "type": "uint256[]"
        },
        {
          "internalType": "string[]",
          "name": "_supportedSymbols",
          "type": "string[]"
        }
      ],
      "stateMutability": "view",
      "type": "function"
    },
    {
      "inputs": [],
      "name": "getSupportedIndicesSymbolsAndFtsos",
      "outputs": [
        {
          "internalType": "uint256[]",
          "name": "_supportedIndices",
          "type": "uint256[]"
        },
        {
          "internalType": "string[]",
          "name": "_supportedSymbols",
          "type": "string[]"
        },
        {
          "internalType": "contract IIFtso[]",
          "name": "_ftsos",
          "type": "address[]"
        }
      ],
      "stateMutability": "view",
      "type": "function"
    },
    {
      "inputs": [],
      "name": "getSupportedSymbols",
      "outputs": [
        {
          "internalType": "string[]",
          "name": "_supportedSymbols",
          "type": "string[]"
        }
      ],
      "stateMutability": "view",
      "type": "function"
    },
    {
      "inputs": [],
      "name": "getSupportedSymbolsAndFtsos",
      "outputs": [
        {
          "internalType": "string[]",
          "name": "_supportedSymbols",
          "type": "string[]"
        },
        {
          "internalType": "contract IIFtso[]",
          "name": "_ftsos",
          "type": "address[]"
        }
      ],
      "stateMutability": "view",
      "type": "function"
    },
    {
      "inputs": [],
      "name": "governance",
      "outputs": [
        {
          "internalType": "address",
          "name": "",
          "type": "address"
        }
      ],
      "stateMutability": "view",
      "type": "function"
    },
    {
      "inputs": [
        {
          "internalType": "address",
          "name": "_governance",
          "type": "address"
        }
      ],
      "name": "initialise",
      "outputs": [],
      "stateMutability": "nonpayable",
      "type": "function"
    },
    {
      "inputs": [
        {
          "internalType": "address",
          "name": "_governance",
          "type": "address"
        }
      ],
      "name": "proposeGovernance",
      "outputs": [],
      "stateMutability": "nonpayable",
      "type": "function"
    },
    {
      "inputs": [],
      "name": "proposedGovernance",
      "outputs": [
        {
          "internalType": "address",
          "name": "",
          "type": "address"
        }
      ],
      "stateMutability": "view",
      "type": "function"
    },
    {
      "inputs": [
        {
          "internalType": "contract IIFtso",
          "name": "_ftso",
          "type": "address"
        }
      ],
      "name": "removeFtso",
      "outputs": [],
      "stateMutability": "nonpayable",
      "type": "function"
    },
    {
      "inputs": [
        {
          "internalType": "address",
          "name": "_governance",
          "type": "address"
        }
      ],
      "name": "transferGovernance",
      "outputs": [],
      "stateMutability": "nonpayable",
      "type": "function"
    }
  ],
  "bytecode": "0x60806040523480156200001157600080fd5b506040516200219b3803806200219b83398101604081905262000034916200018d565b80806001600160a01b0381161562000051576200005181620000a9565b506001600160a01b038116620000a1576040805162461bcd60e51b815260206004820152601060248201526f5f676f7665726e616e6365207a65726f60801b604482015290519081900360640190fd5b5050620001bd565b600154600160a01b900460ff161562000109576040805162461bcd60e51b815260206004820152601460248201527f696e697469616c6973656420213d2066616c7365000000000000000000000000604482015290519081900360640190fd5b6001805460ff60a01b1916600160a01b179055600054604080516001600160a01b039283168152918316602083015280517f434a2db650703b36c824e745330d6397cdaa9ee2cc891a4938ae853e1c50b68d9281900390910190a1600080546001600160a01b039092166001600160a01b0319928316179055600180549091169055565b6000602082840312156200019f578081fd5b81516001600160a01b0381168114620001b6578182fd5b9392505050565b611fce80620001cd6000396000f3fe608060405234801561001057600080fd5b50600436106101585760003560e01c80639cb47538116100c3578063c71a1b201161007c578063c71a1b20146102d5578063ce1c0e4d146102f5578063d38bfff41461030a578063d75f6d811461031d578063e68f283b14610330578063e848da301461034657610158565b80639cb47538146102615780639d6a890f14610281578063a40060ba14610294578063a670ff871461029c578063c373a08e146102af578063c55d0f56146102c257610158565b80635aa6e675116101155780635aa6e675146101fd5780635d36b1901461021257806360f7ac971461021a5780637687542c14610222578063798aac5b1461023957806397da6af41461024e57610158565b806306a2ba291461015d5780630cf484971461017c578063136d3f64146101925780632663f1b4146101b25780632bcdd6ab146101c757806342a0f243146101dc575b600080fd5b610165610366565b604051610173929190611e4a565b60405180910390f35b61018461043c565b604051610173929190611e12565b6101a56101a0366004611c22565b610601565b6040516101739190611ec5565b6101c56101c0366004611a75565b610688565b005b6101cf610896565b6040516101739190611dec565b6101ef6101ea366004611b38565b610952565b604051610173929190611ee1565b6102056109de565b6040516101739190611d51565b6101c56109ed565b610205610aaf565b61022a610abe565b60405161017393929190611e82565b610241610c83565b6040516101739190611e37565b61020561025c366004611b38565b610c92565b61027461026f366004611a98565b610ca0565b6040516101739190611d65565b6101c561028f366004611a75565b610e2d565b6101cf610f07565b6101c56102aa366004611a75565b610fde565b6101c56102bd366004611a75565b611205565b6101ef6102d0366004611c22565b611261565b6102e86102e3366004611c22565b61126d565b6040516101739190611db2565b6102fd611353565b6040516101739190611dff565b6101c5610318366004611a75565b61148a565b61020561032b366004611c22565b611503565b61033861150e565b604051610173929190611e5d565b610359610354366004611b38565b611644565b6040516101739190611ed8565b60608061037161164f565b8051909250806001600160401b038111801561038c57600080fd5b506040519080825280602002602001820160405280156103b6578160200160208202803683370190505b5091505b8015610437578060019003905060028382815181106103d557fe5b6020026020010151815481106103e757fe5b600091825260208220600590910201015482516001600160a01b039091169083908390811061041257fe5b60200260200101906001600160a01b031690816001600160a01b0316815250506103ba565b509091565b606080600061044961164f565b8051909150806001600160401b038111801561046457600080fd5b5060405190808252806020026020018201604052801561048e578160200160208202803683370190505b509250806001600160401b03811180156104a757600080fd5b506040519080825280602002602001820160405280156104db57816020015b60608152602001906001900390816104c65790505b5093505b80156105fb578060019003905060028282815181106104fa57fe5b60200260200101518154811061050c57fe5b600091825260208220600590910201015483516001600160a01b039091169084908390811061053757fe5b60200260200101906001600160a01b031690816001600160a01b03168152505082818151811061056357fe5b60200260200101516001600160a01b03166395d89b416040518163ffffffff1660e01b815260040160006040518083038186803b1580156105a357600080fd5b505afa1580156105b7573d6000803e3d6000fd5b505050506040513d6000823e601f3d908101601f191682016040526105df9190810190611bb0565b8482815181106105eb57fe5b60200260200101819052506104df565b50509091565b606061060c82611790565b6001600160a01b03166395d89b416040518163ffffffff1660e01b815260040160006040518083038186803b15801561064457600080fd5b505afa158015610658573d6000803e3d6000fd5b505050506040513d6000823e601f3d908101601f191682016040526106809190810190611bb0565b90505b919050565b610690611847565b600060028054905090506000826001600160a01b03166395d89b416040518163ffffffff1660e01b815260040160006040518083038186803b1580156106d557600080fd5b505afa1580156106e9573d6000803e3d6000fd5b505050506040513d6000823e601f3d908101601f191682016040526107119190810190611bb0565b90506000816040516020016107269190611ec5565b60405160208183030381529060405280519060200120905060005b838110156108315760006002828154811061075857fe5b60009182526020822060059091020101546001600160a01b031690508061077f5750610829565b806001600160a01b03166395d89b416040518163ffffffff1660e01b815260040160006040518083038186803b1580156107b857600080fd5b505afa1580156107cc573d6000803e3d6000fd5b505050506040513d6000823e601f3d908101601f191682016040526107f49190810190611bb0565b6040516020016108049190611ec5565b604051602081830303815290604052805190602001208314156108275750610831565b505b600101610741565b8381141561084a57600280546001018155600052610853565b6108538161189a565b846002828154811061086157fe5b6000918252602082206005909102010180546001600160a01b0319166001600160a01b03929092169190911790555050505050565b6002546060906000816001600160401b03811180156108b457600080fd5b506040519080825280602002602001820160405280156108de578160200160208202803683370190505b5090505b811561094c5781600190039150600282815481106108fc57fe5b600091825260208220600590910201015481516001600160a01b039091169082908490811061092757fe5b60200260200101906001600160a01b031690816001600160a01b0316815250506108e2565b91505090565b6000806109666109618461192d565b611790565b6001600160a01b031663eb91d37e6040518163ffffffff1660e01b8152600401604080518083038186803b15801561099d57600080fd5b505afa1580156109b1573d6000803e3d6000fd5b505050506040513d601f19601f820116820180604052508101906109d59190611c3a565b91509150915091565b6000546001600160a01b031681565b6001546001600160a01b03163314610a3c576040805162461bcd60e51b815260206004820152600d60248201526c1b9bdd0818db185a5b585a5b9d609a1b604482015290519081900360640190fd5b600054600154604080516001600160a01b03938416815292909116602083015280517f434a2db650703b36c824e745330d6397cdaa9ee2cc891a4938ae853e1c50b68d9281900390910190a160018054600080546001600160a01b03199081166001600160a01b03841617909155169055565b6001546001600160a01b031681565b6060806060610acb61164f565b8051909350806001600160401b0381118015610ae657600080fd5b50604051908082528060200260200182016040528015610b10578160200160208202803683370190505b509150806001600160401b0381118015610b2957600080fd5b50604051908082528060200260200182016040528015610b5d57816020015b6060815260200190600190039081610b485790505b5092505b8015610c7d57806001900390506002848281518110610b7c57fe5b602002602001015181548110610b8e57fe5b600091825260208220600590910201015482516001600160a01b0390911690839083908110610bb957fe5b60200260200101906001600160a01b031690816001600160a01b031681525050818181518110610be557fe5b60200260200101516001600160a01b03166395d89b416040518163ffffffff1660e01b815260040160006040518083038186803b158015610c2557600080fd5b505afa158015610c39573d6000803e3d6000fd5b505050506040513d6000823e601f3d908101601f19168201604052610c619190810190611bb0565b838281518110610c6d57fe5b6020026020010181905250610b61565b50909192565b6060610c8d61164f565b905090565b60006106806109618361192d565b600254815160609190806001600160401b0381118015610cbf57600080fd5b50604051908082528060200260200182016040528015610ce9578160200160208202803683370190505b5092505b8015610e2657806001900390506000848281518110610d0857fe5b60200260200101519050828110604051806040016040528060188152602001600080516020611f7983398151915281525090610d605760405162461bcd60e51b8152600401610d579190611ec5565b60405180910390fd5b5060028181548110610d6e57fe5b600091825260208220600590910201015484516001600160a01b0390911690859084908110610d9957fe5b60200260200101906001600160a01b031690816001600160a01b03168152505060006001600160a01b0316848381518110610dd057fe5b60200260200101516001600160a01b03161415610e205760408051808201825260188152600080516020611f798339815191526020820152905162461bcd60e51b8152610d579190600401611ec5565b50610ced565b5050919050565b600154600160a01b900460ff1615610e83576040805162461bcd60e51b8152602060048201526014602482015273696e697469616c6973656420213d2066616c736560601b604482015290519081900360640190fd5b6001805460ff60a01b1916600160a01b179055600054604080516001600160a01b039283168152918316602083015280517f434a2db650703b36c824e745330d6397cdaa9ee2cc891a4938ae853e1c50b68d9281900390910190a1600080546001600160a01b039092166001600160a01b0319928316179055600180549091169055565b60606000610f1361164f565b8051909150806001600160401b0381118015610f2e57600080fd5b50604051908082528060200260200182016040528015610f58578160200160208202803683370190505b5092505b8015610fd957806001900390506002828281518110610f7757fe5b602002602001015181548110610f8957fe5b600091825260208220600590910201015483516001600160a01b0390911690849083908110610fb457fe5b60200260200101906001600160a01b031690816001600160a01b031681525050610f5c565b505090565b610fe6611847565b6000816001600160a01b03166395d89b416040518163ffffffff1660e01b815260040160006040518083038186803b15801561102157600080fd5b505afa158015611035573d6000803e3d6000fd5b505050506040513d6000823e601f3d908101601f1916820160405261105d9190810190611bb0565b60405160200161106d9190611ec5565b60408051601f19818403018152919052805160209091012060025490915060005b818110156111c8576000600282815481106110a557fe5b60009182526020822060059091020101546001600160a01b03169050806110cc57506111c0565b806001600160a01b03166395d89b416040518163ffffffff1660e01b815260040160006040518083038186803b15801561110557600080fd5b505afa158015611119573d6000803e3d6000fd5b505050506040513d6000823e601f3d908101601f191682016040526111419190810190611bb0565b6040516020016111519190611ec5565b604051602081830303815290604052805190602001208414156111be576111778261189a565b60006002838154811061118657fe5b6000918252602082206005909102010180546001600160a01b0319166001600160a01b03929092169190911790555061120292505050565b505b60010161108e565b5060408051808201825260188152600080516020611f798339815191526020820152905162461bcd60e51b8152610d579190600401611ec5565b50565b61120d611847565b600180546001600160a01b0383166001600160a01b0319909116811790915560408051918252517f1f95fb40be3a947982072902a887b521248d1d8931a39eb38f84f4d6fd758b699181900360200190a150565b60008061096683611790565b611275611a57565b600254821080156112b6575060006001600160a01b03166002838154811061129957fe5b60009182526020822060059091020101546001600160a01b031614155b604051806040016040528060188152602001600080516020611f79833981519152815250906112f85760405162461bcd60e51b8152600401610d579190611ec5565b506002828154811061130657fe5b600091825260209091206040805160a0810191829052926005908102909201919082845b81546001600160a01b0316815260019091019060200180831161132a5750505050509050919050565b6060600061135f61164f565b8051909150806001600160401b038111801561137a57600080fd5b506040519080825280602002602001820160405280156113ae57816020015b60608152602001906001900390816113995790505b5092505b8015610fd95780600190039050600060028383815181106113cf57fe5b6020026020010151815481106113e157fe5b6000918252602082206005919091020154604080516395d89b4160e01b815290516001600160a01b03909216935083926395d89b4192600480840193829003018186803b15801561143157600080fd5b505afa158015611445573d6000803e3d6000fd5b505050506040513d6000823e601f3d908101601f1916820160405261146d9190810190611bb0565b84838151811061147957fe5b6020026020010181905250506113b2565b611492611847565b600054604080516001600160a01b039283168152918316602083015280517f434a2db650703b36c824e745330d6397cdaa9ee2cc891a4938ae853e1c50b68d9281900390910190a1600080546001600160a01b039092166001600160a01b0319928316179055600180549091169055565b600061068082611790565b60608061151961164f565b8051909250806001600160401b038111801561153457600080fd5b5060405190808252806020026020018201604052801561156857816020015b60608152602001906001900390816115535790505b5091505b801561043757806001900390506000600284838151811061158957fe5b60200260200101518154811061159b57fe5b6000918252602082206005919091020154604080516395d89b4160e01b815290516001600160a01b03909216935083926395d89b4192600480840193829003018186803b1580156115eb57600080fd5b505afa1580156115ff573d6000803e3d6000fd5b505050506040513d6000823e601f3d908101601f191682016040526116279190810190611bb0565b83838151811061163357fe5b60200260200101819052505061156c565b60006106808261192d565b6002546060906000816001600160401b038111801561166d57600080fd5b50604051908082528060200260200182016040528015611697578160200160208202803683370190505b50905060008060005b8481101561170657826001600160a01b0316600282815481106116bf57fe5b60009182526020822060059091020101546001600160a01b0316146116fe57808483815181106116eb57fe5b6020026020010181815250508160010191505b6001016116a0565b50806001600160401b038111801561171d57600080fd5b50604051908082528060200260200182016040528015611747578160200160208202803683370190505b5094505b8015611789578060019003905082818151811061176457fe5b602002602001015185828151811061177857fe5b60200260200101818152505061174b565b5050505090565b6002546040805180820190915260188152600080516020611f79833981519152602082015260009183106117d75760405162461bcd60e51b8152600401610d579190611ec5565b506000600283815481106117e757fe5b60009182526020822060059091020101546001600160a01b03169050806118415760408051808201825260188152600080516020611f798339815191526020820152905162461bcd60e51b8152610d579190600401611ec5565b92915050565b6000546001600160a01b03163314611898576040805162461bcd60e51b815260206004820152600f60248201526e6f6e6c7920676f7665726e616e636560881b604482015290519081900360640190fd5b565b60045b801561192957600282815481106118b057fe5b906000526020600020906005020160018203600581106118cc57fe5b0154600280546001600160a01b0390921691849081106118e857fe5b9060005260206000209060050201826005811061190157fe5b0180546001600160a01b0319166001600160a01b03929092169190911790556000190161189d565b5050565b600080826040516020016119419190611ec5565b60408051601f19818403018152919052805160209091012060025490915060005b818110156111c85760006002828154811061197957fe5b60009182526020822060059091020101546001600160a01b03169050806119a05750611a4f565b806001600160a01b03166395d89b416040518163ffffffff1660e01b815260040160006040518083038186803b1580156119d957600080fd5b505afa1580156119ed573d6000803e3d6000fd5b505050506040513d6000823e601f3d908101601f19168201604052611a159190810190611bb0565b604051602001611a259190611ec5565b60405160208183030381529060405280519060200120841415611a4d57509250610683915050565b505b600101611962565b6040518060a001604052806005906020820280368337509192915050565b600060208284031215611a86578081fd5b8135611a9181611f63565b9392505050565b60006020808385031215611aaa578182fd5b82356001600160401b0380821115611ac0578384fd5b818501915085601f830112611ad3578384fd5b813581811115611adf57fe5b8381029150611aef848301611eef565b8181528481019084860184860187018a1015611b09578788fd5b8795505b83861015611b2b578035835260019590950194918601918601611b0d565b5098975050505050505050565b600060208284031215611b49578081fd5b81356001600160401b03811115611b5e578182fd5b8201601f81018413611b6e578182fd5b8035611b81611b7c82611f12565b611eef565b818152856020838501011115611b95578384fd5b81602084016020830137908101602001929092525092915050565b600060208284031215611bc1578081fd5b81516001600160401b03811115611bd6578182fd5b8201601f81018413611be6578182fd5b8051611bf4611b7c82611f12565b818152856020838501011115611c08578384fd5b611c19826020830160208601611f33565b95945050505050565b600060208284031215611c33578081fd5b5035919050565b60008060408385031215611c4c578081fd5b505080516020909101519092909150565b6000815180845260208085019450808401835b83811015611c955781516001600160a01b031687529582019590820190600101611c70565b509495945050505050565b60008282518085526020808601955080818302840101818601855b84811015611ce957601f19868403018952611cd7838351611d25565b98840198925090830190600101611cbb565b5090979650505050505050565b6000815180845260208085019450808401835b83811015611c9557815187529582019590820190600101611d09565b60008151808452611d3d816020860160208601611f33565b601f01601f19169290920160200192915050565b6001600160a01b0391909116815260200190565b6020808252825182820181905260009190848201906040850190845b81811015611da65783516001600160a01b031683529284019291840191600101611d81565b50909695505050505050565b60a08101818360005b6005811015611de35781516001600160a01b0316835260209283019290910190600101611dbb565b50505092915050565b600060208252611a916020830184611c5d565b600060208252611a916020830184611ca0565b600060408252611e256040830185611ca0565b8281036020840152611c198185611c5d565b600060208252611a916020830184611cf6565b600060408252611e256040830185611cf6565b600060408252611e706040830185611cf6565b8281036020840152611c198185611ca0565b600060608252611e956060830186611cf6565b8281036020840152611ea78186611ca0565b90508281036040840152611ebb8185611c5d565b9695505050505050565b600060208252611a916020830184611d25565b90815260200190565b918252602082015260400190565b6040518181016001600160401b0381118282101715611f0a57fe5b604052919050565b60006001600160401b03821115611f2557fe5b50601f01601f191660200190565b60005b83811015611f4e578181015183820152602001611f36565b83811115611f5d576000848401525b50505050565b6001600160a01b038116811461120257600080fdfe4654534f20696e646578206e6f7420737570706f727465640000000000000000a2646970667358221220af854f50f45f038eed7696d9ed5b0bf8c676ea5187ed89d60a91baae8637596e64736f6c63430007060033",
  "linkReferences": {},
  "deployedLinkReferences": {}
}