{
  "_format": "hh-sol-artifact-1",
  "contractName": "MockPriceSubmitter",
  "sourceName": "contracts/ftso/priceProviderMockContracts/PriceProviderMockContracts.sol",
  "abi": [
    {
      "inputs": [
        {
          "internalType": "address",
          "name": "_addressUpdater",
          "type": "address"
        }
      ],
      "stateMutability": "nonpayable",
      "type": "constructor"
    },
    {
      "anonymous": false,
      "inputs": [
        {
          "indexed": true,
          "internalType": "address",
          "name": "submitter",
          "type": "address"
        },
        {
          "indexed": true,
          "internalType": "uint256",
          "name": "epochId",
          "type": "uint256"
        },
        {
          "indexed": false,
          "internalType": "bytes32",
          "name": "hash",
          "type": "bytes32"
        },
        {
          "indexed": false,
          "internalType": "uint256",
          "name": "timestamp",
          "type": "uint256"
        }
      ],
      "name": "HashSubmitted",
      "type": "event"
    },
    {
      "anonymous": false,
      "inputs": [
        {
          "indexed": true,
          "internalType": "address",
          "name": "voter",
          "type": "address"
        },
        {
          "indexed": true,
          "internalType": "uint256",
          "name": "epochId",
          "type": "uint256"
        },
        {
          "indexed": false,
          "internalType": "contract IFtsoGenesis[]",
          "name": "ftsos",
          "type": "address[]"
        },
        {
          "indexed": false,
          "internalType": "uint256[]",
          "name": "prices",
          "type": "uint256[]"
        },
        {
          "indexed": false,
          "internalType": "uint256",
          "name": "random",
          "type": "uint256"
        },
        {
          "indexed": false,
          "internalType": "uint256",
          "name": "timestamp",
          "type": "uint256"
        }
      ],
      "name": "PricesRevealed",
      "type": "event"
    },
    {
      "inputs": [],
      "name": "MINIMAL_RANDOM",
      "outputs": [
        {
          "internalType": "uint256",
          "name": "",
          "type": "uint256"
        }
      ],
      "stateMutability": "view",
      "type": "function"
    },
    {
      "inputs": [],
      "name": "RANDOM_EPOCH_CYCLIC_BUFFER_SIZE",
      "outputs": [
        {
          "internalType": "uint256",
          "name": "",
          "type": "uint256"
        }
      ],
      "stateMutability": "view",
      "type": "function"
    },
    {
      "inputs": [],
      "name": "getAddressUpdater",
      "outputs": [
        {
          "internalType": "address",
          "name": "_addressUpdater",
          "type": "address"
        }
      ],
      "stateMutability": "view",
      "type": "function"
    },
    {
      "inputs": [],
      "name": "getCurrentRandom",
      "outputs": [
        {
          "internalType": "uint256",
          "name": "",
          "type": "uint256"
        }
      ],
      "stateMutability": "view",
      "type": "function"
    },
    {
      "inputs": [],
      "name": "getFtsoManager",
      "outputs": [
        {
          "internalType": "contract IFtsoManagerGenesis",
          "name": "",
          "type": "address"
        }
      ],
      "stateMutability": "pure",
      "type": "function"
    },
    {
      "inputs": [],
      "name": "getFtsoRegistry",
      "outputs": [
        {
          "internalType": "contract IFtsoRegistryGenesis",
          "name": "",
          "type": "address"
        }
      ],
      "stateMutability": "view",
      "type": "function"
    },
    {
      "inputs": [
        {
          "internalType": "uint256",
          "name": "_epochId",
          "type": "uint256"
        }
      ],
      "name": "getRandom",
      "outputs": [
        {
          "internalType": "uint256",
          "name": "",
          "type": "uint256"
        }
      ],
      "stateMutability": "view",
      "type": "function"
    },
    {
      "inputs": [],
      "name": "getVoterWhitelister",
      "outputs": [
        {
          "internalType": "address",
          "name": "",
          "type": "address"
        }
      ],
      "stateMutability": "view",
      "type": "function"
    },
    {
      "inputs": [
        {
          "internalType": "uint256",
          "name": "_epochId",
          "type": "uint256"
        },
        {
          "internalType": "uint256[]",
          "name": "_ftsoIndices",
          "type": "uint256[]"
        },
        {
          "internalType": "uint256[]",
          "name": "_prices",
          "type": "uint256[]"
        },
        {
          "internalType": "uint256",
          "name": "_random",
          "type": "uint256"
        }
      ],
      "name": "revealPrices",
      "outputs": [],
      "stateMutability": "nonpayable",
      "type": "function"
    },
    {
      "inputs": [
        {
          "internalType": "address",
          "name": "_addressUpdater",
          "type": "address"
        }
      ],
      "name": "setAddressUpdater",
      "outputs": [],
      "stateMutability": "nonpayable",
      "type": "function"
    },
    {
      "inputs": [
        {
          "internalType": "uint256",
          "name": "_epochId",
          "type": "uint256"
        },
        {
          "internalType": "bytes32",
          "name": "_hash",
          "type": "bytes32"
        }
      ],
      "name": "submitHash",
      "outputs": [],
      "stateMutability": "nonpayable",
      "type": "function"
    },
    {
      "inputs": [
        {
          "internalType": "bytes32[]",
          "name": "_contractNameHashes",
          "type": "bytes32[]"
        },
        {
          "internalType": "address[]",
          "name": "_contractAddresses",
          "type": "address[]"
        }
      ],
      "name": "updateContractAddresses",
      "outputs": [],
      "stateMutability": "nonpayable",
      "type": "function"
    },
    {
      "inputs": [
        {
          "internalType": "address",
          "name": "_voter",
          "type": "address"
        }
      ],
      "name": "voterWhitelistBitmap",
      "outputs": [
        {
          "internalType": "uint256",
          "name": "",
          "type": "uint256"
        }
      ],
      "stateMutability": "view",
      "type": "function"
    },
    {
      "inputs": [
        {
          "internalType": "address",
          "name": "_voter",
          "type": "address"
        },
        {
          "internalType": "uint256",
          "name": "_ftsoIndex",
          "type": "uint256"
        }
      ],
      "name": "voterWhitelisted",
      "outputs": [],
      "stateMutability": "nonpayable",
      "type": "function"
    },
    {
      "inputs": [
        {
          "internalType": "address[]",
          "name": "_removedVoters",
          "type": "address[]"
        },
        {
          "internalType": "uint256",
          "name": "_ftsoIndex",
          "type": "uint256"
        }
      ],
      "name": "votersRemovedFromWhitelist",
      "outputs": [],
      "stateMutability": "nonpayable",
      "type": "function"
    }
  ],
  "bytecode": "0x60806040523480156200001157600080fd5b5060405162005bda38038062005bda833981016040819052620000349162000496565b80620000408162000448565b503060405162000050906200046c565b6200005c91906200052d565b604051809103906000f08015801562000079573d6000803e3d6000fd5b50600080546001600160a01b0319166001600160a01b03929092169190911790556040513090620000aa906200047a565b620000b691906200052d565b604051809103906000f080158015620000d3573d6000803e3d6000fd5b50600180546001600160a01b0319166001600160a01b0392831617908190556000546040516317f1580560e21b815291831692635fc56014926200011e92909116906004016200052d565b600060405180830381600087803b1580156200013957600080fd5b505af11580156200014e573d6000803e3d6000fd5b50506040805161018081018252600361014082018181526229a3a160e91b6101608401528252825180840184528181526205852560ec1b6020828101919091528084019190915283518085018552828152624c544360e81b81830152838501528351808501855282815262584c4d60e81b818301526060840152835180850185528281526258444760e81b818301526080840152835180850185528281526241444160e81b8183015260a0840152835180850185526004815263414c474f60e01b8183015260c0840152835180850185528281526208486960eb1b8183015260e084015283518085018552828152622223a160e91b8183015261010084015283518085019094529083526242544360e81b908301526101208101919091529150600090505b600a8110156200043f5760008282600a81106200028c57fe5b6020020151905060008130607842036078601e604051620002ad9062000488565b620002bd95949392919062000556565b604051809103906000f080158015620002da573d6000803e3d6000fd5b50600054604051630998fc6d60e21b81529192506001600160a01b031690632663f1b4906200030e9084906004016200052d565b600060405180830381600087803b1580156200032957600080fd5b505af11580156200033e573d6000803e3d6000fd5b505060008054604051630e848da360e41b81529193506001600160a01b0316915063e848da30906200037590869060040162000541565b60206040518083038186803b1580156200038e57600080fd5b505afa158015620003a3573d6000803e3d6000fd5b505050506040513d601f19601f82011682018060405250810190620003c99190620004c6565b600154604051630d15c16960e21b81529192506001600160a01b03169063345705a490620003fc90849060040162000598565b600060405180830381600087803b1580156200041757600080fd5b505af11580156200042c573d6000803e3d6000fd5b5050505050505080600101905062000273565b505050620005a1565b7f714f205b2abd25bef1d06a1af944e38c113fe6160375c4e1d6d5cf28848e771955565b61219b8062001a8b83390190565b610c388062003c2683390190565b61137c806200485e83390190565b600060208284031215620004a8578081fd5b81516001600160a01b0381168114620004bf578182fd5b9392505050565b600060208284031215620004d8578081fd5b5051919050565b60008151808452815b818110156200050657602081850181015186830182015201620004e8565b81811115620005185782602083870101525b50601f01601f19169290920160200192915050565b6001600160a01b0391909116815260200190565b600060208252620004bf6020830184620004df565b600060a082526200056b60a0830188620004df565b6001600160a01b039690961660208301525060408101939093526060830191909152608090910152919050565b90815260200190565b6114da80620005b16000396000f3fe608060405234801561001057600080fd5b50600436106100f55760003560e01c80639d986f9111610097578063c0156bcc11610066578063c0156bcc146101b9578063cd4b6914146101c1578063d89601fd146101d4578063e2db5a52146101dc576100f5565b80639d986f9114610178578063aea36b531461018b578063b00c0b761461019e578063b39c6858146101b1576100f5565b806376794efb116100d357806376794efb146101355780637ac420ad1461014a5780638c9d28b61461015d5780638fc6f66714610165576100f5565b80633b56f098146100fa5780635267a15d1461011857806371e1fad91461012d575b600080fd5b6101026101ef565b60405161010f919061137e565b60405180910390f35b6101206101f7565b60405161010f9190611258565b61012061021c565b610148610143366004610fac565b61022c565b005b610102610158366004610f5e565b6102e8565b610120610303565b6101486101733660046111fd565b610312565b610148610186366004610f81565b610573565b610148610199366004610f5e565b6105f5565b6101486101ac366004610fef565b610601565b6101206106ac565b6101026106c6565b6101026101cf36600461115b565b6106cb565b6101026106e5565b6101486101ea36600461118b565b61080a565b600160801b81565b7f714f205b2abd25bef1d06a1af944e38c113fe6160375c4e1d6d5cf28848e77195490565b6001546001600160a01b03165b90565b600154604080518082019091526016815275566f7465722077686974656c6973746572206f6e6c7960501b6020820152906001600160a01b0316331461028e5760405162461bcd60e51b81526004016102859190611387565b60405180910390fd5b5060005b82518110156102e357816001901b19600260008584815181106102b157fe5b6020908102919091018101516001600160a01b0316825281019190915260400160002080549091169055600101610292565b505050565b6001600160a01b031660009081526002602052604090205490565b6000546001600160a01b031690565b6000805460405163d75f6d8160e01b81526001600160a01b039091169063d75f6d819061034390849060040161137e565b60206040518083038186803b15801561035b57600080fd5b505afa15801561036f573d6000803e3d6000fd5b505050506040513d601f19601f82011682018060405250810190610393919061113f565b9050806001600160a01b031663a29a839f6040518163ffffffff1660e01b815260040160206040518083038186803b1580156103ce57600080fd5b505afa1580156103e2573d6000803e3d6000fd5b505050506040513d601f19601f820116820180604052508101906104069190611173565b83146040518060400160405280600e81526020016d15dc9bdb99c8195c1bd8da081a5960921b8152509061044d5760405162461bcd60e51b81526004016102859190611387565b506000838152600360209081526040808320338452825291829020548251808401909352601983527f4475706c6963617465207375626d697420696e2065706f63680000000000000091830191909152156104bb5760405162461bcd60e51b81526004016102859190611387565b5033600090815260026020908152604091829020548251808401909352600f83526e139bdd081dda1a5d195b1a5cdd1959608a1b918301919091526105135760405162461bcd60e51b81526004016102859190611387565b5060008381526003602090815260408083203380855292529182902084905590518491907f5e2f64e70eafef31c2f48c8ef140b36406531c36ab0faaede30843202c16f6a8906105669086904290611370565b60405180910390a3505050565b600154604080518082019091526016815275566f7465722077686974656c6973746572206f6e6c7960501b6020820152906001600160a01b031633146105cc5760405162461bcd60e51b81526004016102859190611387565b506001600160a01b0390911660009081526002602052604090208054600190921b919091179055565b6105fe81610c93565b50565b6106096101f7565b6001600160a01b0316336001600160a01b031614610665576040805162461bcd60e51b815260206004820152601460248201527337b7363c9030b2323932b9b9903ab83230ba32b960611b604482015290519081900360640190fd5b61069e61069983836040518060400160405280600e81526020016d20b2323932b9b9aab83230ba32b960911b815250610cb7565b610c93565b6106a88282610de4565b5050565b600060405162461bcd60e51b8152600401610285906113da565b606481565b6000600460648306606481106106dd57fe5b015492915050565b6000805460405163d75f6d8160e01b815282916001600160a01b03169063d75f6d819061071690849060040161137e565b60206040518083038186803b15801561072e57600080fd5b505afa158015610742573d6000803e3d6000fd5b505050506040513d601f19601f82011682018060405250810190610766919061113f565b90506000816001600160a01b031663a29a839f6040518163ffffffff1660e01b815260040160206040518083038186803b1580156107a357600080fd5b505afa1580156107b7573d6000803e3d6000fd5b505050506040513d601f19601f820116820180604052508101906107db9190611173565b9050806107ed57600092505050610229565b600460646000198301066064811061080157fe5b01549250505090565b8251825160408051808201909152601a81527f4172726179206c656e6774687320646f206e6f74206d6174636800000000000060208201529082146108625760405162461bcd60e51b81526004016102859190611387565b5060408051808201909152601781527f546f6f20736d616c6c2072616e646f6d206e756d6265720000000000000000006020820152600160801b8310156108bc5760405162461bcd60e51b81526004016102859190611387565b50838383336040516020016108d49493929190611329565b60408051601f198184030181528282528051602091820120600089815260038352838120338252835283902054606085019093526023808552921492919061148290830139906109375760405162461bcd60e51b81526004016102859190611387565b50600080546040516313968ea760e31b81526001600160a01b0390911690639cb4753890610969908890600401611316565b60006040518083038186803b15801561098157600080fd5b505afa158015610995573d6000803e3d6000fd5b505050506040513d6000823e601f3d908101601f191682016040526109bd91908101906110a6565b33600090815260026020526040812054919250836109dc576000610a70565b826000815181106109e957fe5b60200260200101516001600160a01b031663f72cab28338a6040518363ffffffff1660e01b8152600401610a1e92919061126c565b602060405180830381600087803b158015610a3857600080fd5b505af1158015610a4c573d6000803e3d6000fd5b505050506040513d601f19601f82011682018060405250810190610a709190611173565b90506000805b85811015610be8578015801590610aa05750888181518110610a9457fe5b60200260200101518210155b15610af057604080518082018252601b81527f4654534f20696e6469636573206e6f7420696e6372656173696e6700000000006020820152905162461bcd60e51b81526102859190600401611387565b888181518110610afc57fe5b60200260200101519150816001901b841660001415610b5257604080518082018252600f81526e139bdd081dda1a5d195b1a5cdd1959608a1b6020820152905162461bcd60e51b81526102859190600401611387565b848181518110610b5e57fe5b60200260200101516001600160a01b031663c1f6c36e338c8b8581518110610b8257fe5b6020026020010151876040518563ffffffff1660e01b8152600401610baa9493929190611285565b600060405180830381600087803b158015610bc457600080fd5b505af1158015610bd8573d6000803e3d6000fd5b505060019092019150610a769050565b5060008981526003602090815260408083203384528252808320929092559051610c169188918a9101611409565b60408051601f198184030181529190528051602090910120600460648b0660648110610c3e57fe5b0180549091019055604051899033907fafffa539ac1cad89751c875d871abadc6deb7bd51bf6baea004fc71ca0a48fa590610c809088908c908c9042906112ab565b60405180910390a3505050505050505050565b7f714f205b2abd25bef1d06a1af944e38c113fe6160375c4e1d6d5cf28848e771955565b600080826040516020018080602001828103825283818151815260200191508051906020019080838360005b83811015610cfb578181015183820152602001610ce3565b50505050905090810190601f168015610d285780820380516001836020036101000a031916815260200191505b50925050506040516020818303038152906040528051906020012090506000805b8651811015610d9057868181518110610d5e57fe5b6020026020010151831415610d8857858181518110610d7957fe5b60200260200101519150610d90565b600101610d49565b506001600160a01b038116610ddb576040805162461bcd60e51b815260206004820152600c60248201526b61646472657373207a65726f60a01b604482015290519081900360640190fd5b95945050505050565b610e1382826040518060400160405280600c81526020016b4674736f526567697374727960a01b815250610cb7565b6000806101000a8154816001600160a01b0302191690836001600160a01b03160217905550610e6b82826040518060400160405280601081526020016f2b37ba32b92bb434ba32b634b9ba32b960811b815250610cb7565b600180546001600160a01b0319166001600160a01b03929092169190911790555050565b600082601f830112610e9f578081fd5b81356020610eb4610eaf8361144e565b61142a565b8281528181019085830183850287018401881015610ed0578586fd5b855b85811015610ef7578135610ee58161146c565b84529284019290840190600101610ed2565b5090979650505050505050565b600082601f830112610f14578081fd5b81356020610f24610eaf8361144e565b8281528181019085830183850287018401881015610f40578586fd5b855b85811015610ef757813584529284019290840190600101610f42565b600060208284031215610f6f578081fd5b8135610f7a8161146c565b9392505050565b60008060408385031215610f93578081fd5b8235610f9e8161146c565b946020939093013593505050565b60008060408385031215610fbe578182fd5b823567ffffffffffffffff811115610fd4578283fd5b610fe085828601610e8f565b95602094909401359450505050565b60008060408385031215611001578182fd5b823567ffffffffffffffff80821115611018578384fd5b818501915085601f83011261102b578384fd5b8135602061103b610eaf8361144e565b82815281810190858301838502870184018b1015611057578889fd5b8896505b8487101561107957803583526001969096019591830191830161105b565b509650508601359250508082111561108f578283fd5b5061109c85828601610e8f565b9150509250929050565b600060208083850312156110b8578182fd5b825167ffffffffffffffff8111156110ce578283fd5b8301601f810185136110de578283fd5b80516110ec610eaf8261144e565b8181528381019083850185840285018601891015611108578687fd5b8694505b8385101561113357805161111f8161146c565b83526001949094019391850191850161110c565b50979650505050505050565b600060208284031215611150578081fd5b8151610f7a8161146c565b60006020828403121561116c578081fd5b5035919050565b600060208284031215611184578081fd5b5051919050565b600080600080608085870312156111a0578182fd5b84359350602085013567ffffffffffffffff808211156111be578384fd5b6111ca88838901610f04565b945060408701359150808211156111df578384fd5b506111ec87828801610f04565b949793965093946060013593505050565b6000806040838503121561120f578182fd5b50508035926020909101359150565b6000815180845260208085019450808401835b8381101561124d57815187529582019590820190600101611231565b509495945050505050565b6001600160a01b0391909116815260200190565b6001600160a01b03929092168252602082015260400190565b6001600160a01b0394909416845260208401929092526040830152606082015260800190565b6080808252855190820181905260009060209060a0840190828901845b828110156112ed5781516001600160a01b0316845292840192908401906001016112c8565b50505083810382850152611301818861121e565b60408501969096525050506060015292915050565b600060208252610f7a602083018461121e565b60006080825261133c608083018761121e565b828103602084015261134e818761121e565b604084019590955250506001600160a01b039190911660609091015292915050565b918252602082015260400190565b90815260200190565b6000602080835283518082850152825b818110156113b357858101830151858201604001528201611397565b818111156113c45783604083870101525b50601f01601f1916929092016040019392505050565b602080825260159082015274139bdd081a5b88191d5b5b5e4818dbdb9d1c9858dd605a1b604082015260600190565b600083825260406020830152611422604083018461121e565b949350505050565b60405181810167ffffffffffffffff8111828210171561144657fe5b604052919050565b600067ffffffffffffffff82111561146257fe5b5060209081020190565b6001600160a01b03811681146105fe57600080fdfe507269636520616c72656164792072657665616c6564206f72206e6f742076616c6964a26469706673582212209210f7848b096dad1e9c451de42290d72903a89b074421b0786f476e14d3b2f164736f6c6343000706003360806040523480156200001157600080fd5b506040516200219b3803806200219b83398101604081905262000034916200018d565b80806001600160a01b0381161562000051576200005181620000a9565b506001600160a01b038116620000a1576040805162461bcd60e51b815260206004820152601060248201526f5f676f7665726e616e6365207a65726f60801b604482015290519081900360640190fd5b5050620001bd565b600154600160a01b900460ff161562000109576040805162461bcd60e51b815260206004820152601460248201527f696e697469616c6973656420213d2066616c7365000000000000000000000000604482015290519081900360640190fd5b6001805460ff60a01b1916600160a01b179055600054604080516001600160a01b039283168152918316602083015280517f434a2db650703b36c824e745330d6397cdaa9ee2cc891a4938ae853e1c50b68d9281900390910190a1600080546001600160a01b039092166001600160a01b0319928316179055600180549091169055565b6000602082840312156200019f578081fd5b81516001600160a01b0381168114620001b6578182fd5b9392505050565b611fce80620001cd6000396000f3fe608060405234801561001057600080fd5b50600436106101585760003560e01c80639cb47538116100c3578063c71a1b201161007c578063c71a1b20146102d5578063ce1c0e4d146102f5578063d38bfff41461030a578063d75f6d811461031d578063e68f283b14610330578063e848da301461034657610158565b80639cb47538146102615780639d6a890f14610281578063a40060ba14610294578063a670ff871461029c578063c373a08e146102af578063c55d0f56146102c257610158565b80635aa6e675116101155780635aa6e675146101fd5780635d36b1901461021257806360f7ac971461021a5780637687542c14610222578063798aac5b1461023957806397da6af41461024e57610158565b806306a2ba291461015d5780630cf484971461017c578063136d3f64146101925780632663f1b4146101b25780632bcdd6ab146101c757806342a0f243146101dc575b600080fd5b610165610366565b604051610173929190611e4a565b60405180910390f35b61018461043c565b604051610173929190611e12565b6101a56101a0366004611c22565b610601565b6040516101739190611ec5565b6101c56101c0366004611a75565b610688565b005b6101cf610896565b6040516101739190611dec565b6101ef6101ea366004611b38565b610952565b604051610173929190611ee1565b6102056109de565b6040516101739190611d51565b6101c56109ed565b610205610aaf565b61022a610abe565b60405161017393929190611e82565b610241610c83565b6040516101739190611e37565b61020561025c366004611b38565b610c92565b61027461026f366004611a98565b610ca0565b6040516101739190611d65565b6101c561028f366004611a75565b610e2d565b6101cf610f07565b6101c56102aa366004611a75565b610fde565b6101c56102bd366004611a75565b611205565b6101ef6102d0366004611c22565b611261565b6102e86102e3366004611c22565b61126d565b6040516101739190611db2565b6102fd611353565b6040516101739190611dff565b6101c5610318366004611a75565b61148a565b61020561032b366004611c22565b611503565b61033861150e565b604051610173929190611e5d565b610359610354366004611b38565b611644565b6040516101739190611ed8565b60608061037161164f565b8051909250806001600160401b038111801561038c57600080fd5b506040519080825280602002602001820160405280156103b6578160200160208202803683370190505b5091505b8015610437578060019003905060028382815181106103d557fe5b6020026020010151815481106103e757fe5b600091825260208220600590910201015482516001600160a01b039091169083908390811061041257fe5b60200260200101906001600160a01b031690816001600160a01b0316815250506103ba565b509091565b606080600061044961164f565b8051909150806001600160401b038111801561046457600080fd5b5060405190808252806020026020018201604052801561048e578160200160208202803683370190505b509250806001600160401b03811180156104a757600080fd5b506040519080825280602002602001820160405280156104db57816020015b60608152602001906001900390816104c65790505b5093505b80156105fb578060019003905060028282815181106104fa57fe5b60200260200101518154811061050c57fe5b600091825260208220600590910201015483516001600160a01b039091169084908390811061053757fe5b60200260200101906001600160a01b031690816001600160a01b03168152505082818151811061056357fe5b60200260200101516001600160a01b03166395d89b416040518163ffffffff1660e01b815260040160006040518083038186803b1580156105a357600080fd5b505afa1580156105b7573d6000803e3d6000fd5b505050506040513d6000823e601f3d908101601f191682016040526105df9190810190611bb0565b8482815181106105eb57fe5b60200260200101819052506104df565b50509091565b606061060c82611790565b6001600160a01b03166395d89b416040518163ffffffff1660e01b815260040160006040518083038186803b15801561064457600080fd5b505afa158015610658573d6000803e3d6000fd5b505050506040513d6000823e601f3d908101601f191682016040526106809190810190611bb0565b90505b919050565b610690611847565b600060028054905090506000826001600160a01b03166395d89b416040518163ffffffff1660e01b815260040160006040518083038186803b1580156106d557600080fd5b505afa1580156106e9573d6000803e3d6000fd5b505050506040513d6000823e601f3d908101601f191682016040526107119190810190611bb0565b90506000816040516020016107269190611ec5565b60405160208183030381529060405280519060200120905060005b838110156108315760006002828154811061075857fe5b60009182526020822060059091020101546001600160a01b031690508061077f5750610829565b806001600160a01b03166395d89b416040518163ffffffff1660e01b815260040160006040518083038186803b1580156107b857600080fd5b505afa1580156107cc573d6000803e3d6000fd5b505050506040513d6000823e601f3d908101601f191682016040526107f49190810190611bb0565b6040516020016108049190611ec5565b604051602081830303815290604052805190602001208314156108275750610831565b505b600101610741565b8381141561084a57600280546001018155600052610853565b6108538161189a565b846002828154811061086157fe5b6000918252602082206005909102010180546001600160a01b0319166001600160a01b03929092169190911790555050505050565b6002546060906000816001600160401b03811180156108b457600080fd5b506040519080825280602002602001820160405280156108de578160200160208202803683370190505b5090505b811561094c5781600190039150600282815481106108fc57fe5b600091825260208220600590910201015481516001600160a01b039091169082908490811061092757fe5b60200260200101906001600160a01b031690816001600160a01b0316815250506108e2565b91505090565b6000806109666109618461192d565b611790565b6001600160a01b031663eb91d37e6040518163ffffffff1660e01b8152600401604080518083038186803b15801561099d57600080fd5b505afa1580156109b1573d6000803e3d6000fd5b505050506040513d601f19601f820116820180604052508101906109d59190611c3a565b91509150915091565b6000546001600160a01b031681565b6001546001600160a01b03163314610a3c576040805162461bcd60e51b815260206004820152600d60248201526c1b9bdd0818db185a5b585a5b9d609a1b604482015290519081900360640190fd5b600054600154604080516001600160a01b03938416815292909116602083015280517f434a2db650703b36c824e745330d6397cdaa9ee2cc891a4938ae853e1c50b68d9281900390910190a160018054600080546001600160a01b03199081166001600160a01b03841617909155169055565b6001546001600160a01b031681565b6060806060610acb61164f565b8051909350806001600160401b0381118015610ae657600080fd5b50604051908082528060200260200182016040528015610b10578160200160208202803683370190505b509150806001600160401b0381118015610b2957600080fd5b50604051908082528060200260200182016040528015610b5d57816020015b6060815260200190600190039081610b485790505b5092505b8015610c7d57806001900390506002848281518110610b7c57fe5b602002602001015181548110610b8e57fe5b600091825260208220600590910201015482516001600160a01b0390911690839083908110610bb957fe5b60200260200101906001600160a01b031690816001600160a01b031681525050818181518110610be557fe5b60200260200101516001600160a01b03166395d89b416040518163ffffffff1660e01b815260040160006040518083038186803b158015610c2557600080fd5b505afa158015610c39573d6000803e3d6000fd5b505050506040513d6000823e601f3d908101601f19168201604052610c619190810190611bb0565b838281518110610c6d57fe5b6020026020010181905250610b61565b50909192565b6060610c8d61164f565b905090565b60006106806109618361192d565b600254815160609190806001600160401b0381118015610cbf57600080fd5b50604051908082528060200260200182016040528015610ce9578160200160208202803683370190505b5092505b8015610e2657806001900390506000848281518110610d0857fe5b60200260200101519050828110604051806040016040528060188152602001600080516020611f7983398151915281525090610d605760405162461bcd60e51b8152600401610d579190611ec5565b60405180910390fd5b5060028181548110610d6e57fe5b600091825260208220600590910201015484516001600160a01b0390911690859084908110610d9957fe5b60200260200101906001600160a01b031690816001600160a01b03168152505060006001600160a01b0316848381518110610dd057fe5b60200260200101516001600160a01b03161415610e205760408051808201825260188152600080516020611f798339815191526020820152905162461bcd60e51b8152610d579190600401611ec5565b50610ced565b5050919050565b600154600160a01b900460ff1615610e83576040805162461bcd60e51b8152602060048201526014602482015273696e697469616c6973656420213d2066616c736560601b604482015290519081900360640190fd5b6001805460ff60a01b1916600160a01b179055600054604080516001600160a01b039283168152918316602083015280517f434a2db650703b36c824e745330d6397cdaa9ee2cc891a4938ae853e1c50b68d9281900390910190a1600080546001600160a01b039092166001600160a01b0319928316179055600180549091169055565b60606000610f1361164f565b8051909150806001600160401b0381118015610f2e57600080fd5b50604051908082528060200260200182016040528015610f58578160200160208202803683370190505b5092505b8015610fd957806001900390506002828281518110610f7757fe5b602002602001015181548110610f8957fe5b600091825260208220600590910201015483516001600160a01b0390911690849083908110610fb457fe5b60200260200101906001600160a01b031690816001600160a01b031681525050610f5c565b505090565b610fe6611847565b6000816001600160a01b03166395d89b416040518163ffffffff1660e01b815260040160006040518083038186803b15801561102157600080fd5b505afa158015611035573d6000803e3d6000fd5b505050506040513d6000823e601f3d908101601f1916820160405261105d9190810190611bb0565b60405160200161106d9190611ec5565b60408051601f19818403018152919052805160209091012060025490915060005b818110156111c8576000600282815481106110a557fe5b60009182526020822060059091020101546001600160a01b03169050806110cc57506111c0565b806001600160a01b03166395d89b416040518163ffffffff1660e01b815260040160006040518083038186803b15801561110557600080fd5b505afa158015611119573d6000803e3d6000fd5b505050506040513d6000823e601f3d908101601f191682016040526111419190810190611bb0565b6040516020016111519190611ec5565b604051602081830303815290604052805190602001208414156111be576111778261189a565b60006002838154811061118657fe5b6000918252602082206005909102010180546001600160a01b0319166001600160a01b03929092169190911790555061120292505050565b505b60010161108e565b5060408051808201825260188152600080516020611f798339815191526020820152905162461bcd60e51b8152610d579190600401611ec5565b50565b61120d611847565b600180546001600160a01b0383166001600160a01b0319909116811790915560408051918252517f1f95fb40be3a947982072902a887b521248d1d8931a39eb38f84f4d6fd758b699181900360200190a150565b60008061096683611790565b611275611a57565b600254821080156112b6575060006001600160a01b03166002838154811061129957fe5b60009182526020822060059091020101546001600160a01b031614155b604051806040016040528060188152602001600080516020611f79833981519152815250906112f85760405162461bcd60e51b8152600401610d579190611ec5565b506002828154811061130657fe5b600091825260209091206040805160a0810191829052926005908102909201919082845b81546001600160a01b0316815260019091019060200180831161132a5750505050509050919050565b6060600061135f61164f565b8051909150806001600160401b038111801561137a57600080fd5b506040519080825280602002602001820160405280156113ae57816020015b60608152602001906001900390816113995790505b5092505b8015610fd95780600190039050600060028383815181106113cf57fe5b6020026020010151815481106113e157fe5b6000918252602082206005919091020154604080516395d89b4160e01b815290516001600160a01b03909216935083926395d89b4192600480840193829003018186803b15801561143157600080fd5b505afa158015611445573d6000803e3d6000fd5b505050506040513d6000823e601f3d908101601f1916820160405261146d9190810190611bb0565b84838151811061147957fe5b6020026020010181905250506113b2565b611492611847565b600054604080516001600160a01b039283168152918316602083015280517f434a2db650703b36c824e745330d6397cdaa9ee2cc891a4938ae853e1c50b68d9281900390910190a1600080546001600160a01b039092166001600160a01b0319928316179055600180549091169055565b600061068082611790565b60608061151961164f565b8051909250806001600160401b038111801561153457600080fd5b5060405190808252806020026020018201604052801561156857816020015b60608152602001906001900390816115535790505b5091505b801561043757806001900390506000600284838151811061158957fe5b60200260200101518154811061159b57fe5b6000918252602082206005919091020154604080516395d89b4160e01b815290516001600160a01b03909216935083926395d89b4192600480840193829003018186803b1580156115eb57600080fd5b505afa1580156115ff573d6000803e3d6000fd5b505050506040513d6000823e601f3d908101601f191682016040526116279190810190611bb0565b83838151811061163357fe5b60200260200101819052505061156c565b60006106808261192d565b6002546060906000816001600160401b038111801561166d57600080fd5b50604051908082528060200260200182016040528015611697578160200160208202803683370190505b50905060008060005b8481101561170657826001600160a01b0316600282815481106116bf57fe5b60009182526020822060059091020101546001600160a01b0316146116fe57808483815181106116eb57fe5b6020026020010181815250508160010191505b6001016116a0565b50806001600160401b038111801561171d57600080fd5b50604051908082528060200260200182016040528015611747578160200160208202803683370190505b5094505b8015611789578060019003905082818151811061176457fe5b602002602001015185828151811061177857fe5b60200260200101818152505061174b565b5050505090565b6002546040805180820190915260188152600080516020611f79833981519152602082015260009183106117d75760405162461bcd60e51b8152600401610d579190611ec5565b506000600283815481106117e757fe5b60009182526020822060059091020101546001600160a01b03169050806118415760408051808201825260188152600080516020611f798339815191526020820152905162461bcd60e51b8152610d579190600401611ec5565b92915050565b6000546001600160a01b03163314611898576040805162461bcd60e51b815260206004820152600f60248201526e6f6e6c7920676f7665726e616e636560881b604482015290519081900360640190fd5b565b60045b801561192957600282815481106118b057fe5b906000526020600020906005020160018203600581106118cc57fe5b0154600280546001600160a01b0390921691849081106118e857fe5b9060005260206000209060050201826005811061190157fe5b0180546001600160a01b0319166001600160a01b03929092169190911790556000190161189d565b5050565b600080826040516020016119419190611ec5565b60408051601f19818403018152919052805160209091012060025490915060005b818110156111c85760006002828154811061197957fe5b60009182526020822060059091020101546001600160a01b03169050806119a05750611a4f565b806001600160a01b03166395d89b416040518163ffffffff1660e01b815260040160006040518083038186803b1580156119d957600080fd5b505afa1580156119ed573d6000803e3d6000fd5b505050506040513d6000823e601f3d908101601f19168201604052611a159190810190611bb0565b604051602001611a259190611ec5565b60405160208183030381529060405280519060200120841415611a4d57509250610683915050565b505b600101611962565b6040518060a001604052806005906020820280368337509192915050565b600060208284031215611a86578081fd5b8135611a9181611f63565b9392505050565b60006020808385031215611aaa578182fd5b82356001600160401b0380821115611ac0578384fd5b818501915085601f830112611ad3578384fd5b813581811115611adf57fe5b8381029150611aef848301611eef565b8181528481019084860184860187018a1015611b09578788fd5b8795505b83861015611b2b578035835260019590950194918601918601611b0d565b5098975050505050505050565b600060208284031215611b49578081fd5b81356001600160401b03811115611b5e578182fd5b8201601f81018413611b6e578182fd5b8035611b81611b7c82611f12565b611eef565b818152856020838501011115611b95578384fd5b81602084016020830137908101602001929092525092915050565b600060208284031215611bc1578081fd5b81516001600160401b03811115611bd6578182fd5b8201601f81018413611be6578182fd5b8051611bf4611b7c82611f12565b818152856020838501011115611c08578384fd5b611c19826020830160208601611f33565b95945050505050565b600060208284031215611c33578081fd5b5035919050565b60008060408385031215611c4c578081fd5b505080516020909101519092909150565b6000815180845260208085019450808401835b83811015611c955781516001600160a01b031687529582019590820190600101611c70565b509495945050505050565b60008282518085526020808601955080818302840101818601855b84811015611ce957601f19868403018952611cd7838351611d25565b98840198925090830190600101611cbb565b5090979650505050505050565b6000815180845260208085019450808401835b83811015611c9557815187529582019590820190600101611d09565b60008151808452611d3d816020860160208601611f33565b601f01601f19169290920160200192915050565b6001600160a01b0391909116815260200190565b6020808252825182820181905260009190848201906040850190845b81811015611da65783516001600160a01b031683529284019291840191600101611d81565b50909695505050505050565b60a08101818360005b6005811015611de35781516001600160a01b0316835260209283019290910190600101611dbb565b50505092915050565b600060208252611a916020830184611c5d565b600060208252611a916020830184611ca0565b600060408252611e256040830185611ca0565b8281036020840152611c198185611c5d565b600060208252611a916020830184611cf6565b600060408252611e256040830185611cf6565b600060408252611e706040830185611cf6565b8281036020840152611c198185611ca0565b600060608252611e956060830186611cf6565b8281036020840152611ea78186611ca0565b90508281036040840152611ebb8185611c5d565b9695505050505050565b600060208252611a916020830184611d25565b90815260200190565b918252602082015260400190565b6040518181016001600160401b0381118282101715611f0a57fe5b604052919050565b60006001600160401b03821115611f2557fe5b50601f01601f191660200190565b60005b83811015611f4e578181015183820152602001611f36565b83811115611f5d576000848401525b50505050565b6001600160a01b038116811461120257600080fdfe4654534f20696e646578206e6f7420737570706f727465640000000000000000a2646970667358221220af854f50f45f038eed7696d9ed5b0bf8c676ea5187ed89d60a91baae8637596e64736f6c634300070600336080604052600160005534801561001557600080fd5b50604051610c38380380610c3883398101604081905261003491610059565b600380546001600160a01b0319166001600160a01b0392909216919091179055610087565b60006020828403121561006a578081fd5b81516001600160a01b0381168114610080578182fd5b9392505050565b610ba2806100966000396000f3fe608060405234801561001057600080fd5b50600436106100885760003560e01c80635fc560141161005b5780635fc56014146100f357806398dccfc214610106578063aa89dfd414610119578063b06cbaf71461012c57610088565b806309fcb4001461008d578063345705a4146100b65780633de2cb1c146100cb57806347ed51b1146100de575b600080fd5b6100a061009b3660046108a6565b61014d565b6040516100ad9190610932565b60405180910390f35b6100c96100c43660046108a6565b610211565b005b6100c96100d9366004610753565b61027a565b6100e66102d0565b6040516100ad9190610b27565b6100c9610101366004610737565b6102d6565b6100e66101143660046108a6565b610322565b6100a061012736600461081f565b610334565b61013f61013a366004610737565b6103c9565b6040516100ad929190610967565b600081815260016020526040902054606090806101855760405162461bcd60e51b815260040161017c90610a96565b60405180910390fd5b6000838152600260205260409020546001600160a01b0316806101ba575050604080516000815260208101909152905061020c565b6040805160018082528183019092526000916020808301908036833701905050905081816000815181106101ea57fe5b6001600160a01b0390921660209283029190910190910152925061020c915050565b919050565b6003546001600160a01b0316331461023b5760405162461bcd60e51b815260040161017c90610af9565b600081815260016020526040902054156102675760405162461bcd60e51b815260040161017c90610a5f565b6000805491815260016020526040902055565b6102838261050c565b156102a05760405162461bcd60e51b815260040161017c90610a36565b60006102ac8383610512565b9050806102cb5760405162461bcd60e51b815260040161017c90610acd565b505050565b60005481565b6003546001600160a01b031633146103005760405162461bcd60e51b815260040161017c90610af9565b600480546001600160a01b0319166001600160a01b0392909216919091179055565b60016020526000908152604090205481565b60048054604051630e848da360e41b81526060926000926001600160a01b03169163e848da3091610367918791016109e3565b60206040518083038186803b15801561037f57600080fd5b505afa158015610393573d6000803e3d6000fd5b505050506040513d601f19601f820116820180604052508101906103b791906108be565b90506103c28161014d565b9392505050565b6060806103d58361050c565b156103f25760405162461bcd60e51b815260040161017c90610a36565b600480546040805163798aac5b60e01b815290516001600160a01b039092169263798aac5b928282019260009290829003018186803b15801561043457600080fd5b505afa158015610448573d6000803e3d6000fd5b505050506040513d6000823e601f3d908101601f19168201604052610470919081019061077e565b80519092508067ffffffffffffffff8111801561048c57600080fd5b506040519080825280602002602001820160405280156104b6578160200160208202803683370190505b50915060005b81811015610505576104e1858583815181106104d457fe5b6020026020010151610512565b8382815181106104ed57fe5b911515602092830291909101909101526001016104bc565b5050915091565b50600090565b6000818152600160205260408120548061053e5760405162461bcd60e51b815260040161017c90610a96565b6000838152600260205260409020546001600160a01b0390811690851681141561056d576001925050506105fd565b600084815260026020908152604080832080546001600160a01b0319166001600160a01b038a161790558051600180825281830190925291828101908036833701905050905081816000815181106105c157fe5b60200260200101906001600160a01b031690816001600160a01b0316815250506105eb8186610603565b6105f586866106cc565b600193505050505b92915050565b60005b8251811015610663577f33359f2769756ca8d0da4683f25ee440744d6f18bfb166dbfb59315a8c62b01683828151811061063c57fe5b602002602001015183604051610653929190610919565b60405180910390a1600101610606565b506003546040516376794efb60e01b81526001600160a01b03909116906376794efb906106969085908590600401610945565b600060405180830381600087803b1580156106b057600080fd5b505af11580156106c4573d6000803e3d6000fd5b505050505050565b7f66a8b13abe95391d1851f5bc319f3dde54ce8f2f40a5fe226aa3251d805832e382826040516106fd929190610919565b60405180910390a1600354604051639d986f9160e01b81526001600160a01b0390911690639d986f91906106969085908590600401610919565b600060208284031215610748578081fd5b81356103c281610b54565b60008060408385031215610765578081fd5b823561077081610b54565b946020939093013593505050565b60006020808385031215610790578182fd5b825167ffffffffffffffff808211156107a7578384fd5b818501915085601f8301126107ba578384fd5b8151818111156107c657fe5b83810291506107d6848301610b30565b8181528481019084860184860187018a10156107f0578788fd5b8795505b838610156108125780518352600195909501949186019186016107f4565b5098975050505050505050565b60006020808385031215610831578182fd5b823567ffffffffffffffff80821115610848578384fd5b818501915085601f83011261085b578384fd5b81358181111561086757fe5b610879601f8201601f19168501610b30565b9150808252868482850101111561088e578485fd5b80848401858401378101909201929092529392505050565b6000602082840312156108b7578081fd5b5035919050565b6000602082840312156108cf578081fd5b5051919050565b6000815180845260208085019450808401835b8381101561090e5781516001600160a01b0316875295820195908201906001016108e9565b509495945050505050565b6001600160a01b03929092168252602082015260400190565b6000602082526103c260208301846108d6565b60006040825261095860408301856108d6565b90508260208301529392505050565b604080825283519082018190526000906020906060840190828701845b828110156109a057815184529284019290840190600101610984565b50505083810382850152845180825285830191830190845b818110156109d65783511515835292840192918401916001016109b8565b5090979650505050505050565b6000602080835283518082850152825b81811015610a0f578581018301518582016040015282016109f3565b81811115610a205783604083870101525b50601f01601f1916929092016040019392505050565b6020808252600f908201526e74727573746564206164647265737360881b604082015260600190565b60208082526017908201527f77686974656c69737420616c7265616479206578697374000000000000000000604082015260600190565b60208082526018908201527f4654534f20696e646578206e6f7420737570706f727465640000000000000000604082015260600190565b602080825260129082015271766f746520706f77657220746f6f206c6f7760701b604082015260600190565b60208082526014908201527337b7363c90383934b1b29039bab136b4ba3a32b960611b604082015260600190565b90815260200190565b60405181810167ffffffffffffffff81118282101715610b4c57fe5b604052919050565b6001600160a01b0381168114610b6957600080fd5b5056fea2646970667358221220b0a728c9e0d8a14b38c8fa416fbbb337ed42e61e77b3e38460dfc548e115563264736f6c6343000706003360806040523480156200001157600080fd5b506040516200137c3803806200137c833981810160405260a08110156200003757600080fd5b81019080805160405193929190846401000000008211156200005857600080fd5b9083019060208201858111156200006e57600080fd5b82516401000000008111828201881017156200008957600080fd5b82525081516020918201929091019080838360005b83811015620000b85781810151838201526020016200009e565b50505050905090810190601f168015620000e65780820380516001836020036101000a031916815260200191505b5060409081526020828101519183015160608401516080909401518751939650909450916200011c916001919088019062000163565b50426003556000805460ff19166001179055600480546001600160a01b039095166001600160a01b031990951694909417909355600791909155600855600955506200020f565b828054600181600116156101000203166002900490600052602060002090601f0160209004810192826200019b5760008555620001e6565b82601f10620001b657805160ff1916838001178555620001e6565b82800160010185558215620001e6579182015b82811115620001e6578251825591602001919060010190620001c9565b50620001f4929150620001f8565b5090565b5b80821115620001f45760008155600101620001f9565b61115d806200021f6000396000f3fe608060405234801561001057600080fd5b506004361061021c5760003560e01c8063974d7a6b11610125578063d89601fd116100ad578063eb91d37e1161007c578063eb91d37e146106c5578063f670ebe314610852578063f72cab2814610877578063f7dba1f5146108a3578063f937d6ad146108f85761021c565b8063d89601fd146107aa578063e3749e0c146107b2578063e3b3a3b31461081d578063e536f396146104e55761021c565b8063c1f6c36e116100f4578063c1f6c36e146106e6578063c5d8b9e71461071e578063cd4b69141461074a578063cf35bdd014610767578063d0d552dd146107845761021c565b8063974d7a6b146104e55780639edbf00714610539578063a29a839f146106bd578063af52df08146106c55761021c565b80634afd5102116101a85780636b52b242116101775780636b52b242146105415780637d1d6f1214610549578063826cc76b146105665780638357d08c1461058357806395d89b41146106405761021c565b80634afd5102146104e55780635303548b14610502578063555989da146105315780635c222bad146105395761021c565b8063144e1591116101ef578063144e15911461035657806318931c351461037c5780632f0a6f3c146103d4578063306ba253146103fd57806340462a2d146104205761021c565b806302fb0c5e14610221578063040d73b81461023d57806311a7aaaa1461028d578063131fdee2146102b1575b600080fd5b610229610900565b604080519115158252519081900360200190f35b610245610909565b6040518086815260200185815260200184600581111561026157fe5b815260200183815260200182600581111561027857fe5b81526020019550505050505060405180910390f35b610295610918565b604080516001600160a01b039092168252519081900360200190f35b610354600480360360208110156102c757600080fd5b8101906020810181356401000000008111156102e257600080fd5b8201836020820111156102f457600080fd5b8035906020019184602083028401116401000000008311171561031657600080fd5b91908080602002602001604051908101604052809392919081815260200183836020028082843760009201919091525092955061091d945050505050565b005b61035e6109c3565b60408051938452602084019290925282820152519081900360600190f35b6103846109d1565b60408051602080825283518183015283519192839290830191858101910280838360005b838110156103c05781810151838201526020016103a8565b505050509050019250505060405180910390f35b610354600480360360608110156103ea57600080fd5b508035906020810135906040013561091d565b6103546004803603604081101561041357600080fd5b508035906020013561091d565b6104456004803603604081101561043657600080fd5b50803590602001351515610a38565b604051808060200180602001848152602001838103835286818151815260200191508051906020019060200280838360005b8381101561048f578181015183820152602001610477565b50505050905001838103825285818151815260200191508051906020019060200280838360005b838110156104ce5781810151838201526020016104b6565b505050509050019550505050505060405180910390f35b610354600480360360208110156104fb57600080fd5b503561091d565b61051f6004803603602081101561051857600080fd5b5035610aa4565b60408051918252519081900360200190f35b61035461091d565b610295610ab7565b61051f610b1a565b61051f6004803603602081101561055f57600080fd5b5035610ab7565b6102956004803603602081101561057c57600080fd5b5035610b1f565b61058b610b49565b604051808060200180602001878152602001868152602001858152602001848152602001838103835289818151815260200191508051906020019060200280838360005b838110156105e75781810151838201526020016105cf565b50505050905001838103825288818151815260200191508051906020019060200280838360005b8381101561062657818101518382015260200161060e565b505050509050019850505050505050505060405180910390f35b610648610bee565b6040805160208082528351818301528351919283929083019185019080838360005b8381101561068257818101518382015260200161066a565b50505050905090810190601f1680156106af5780820380516001836020036101000a031916815260200191505b509250505060405180910390f35b61051f610c7b565b6106cd610c8a565b6040805192835260208301919091528051918290030190f35b610354600480360360808110156106fc57600080fd5b506001600160a01b038135169060208101359060408101359060600135610c90565b61051f6004803603604081101561073457600080fd5b50803590602001356001600160a01b0316610e3e565b61051f6004803603602081101561076057600080fd5b5035610e66565b6102956004803603602081101561077d57600080fd5b5035610e71565b6103546004803603602081101561079a57600080fd5b50356001600160a01b031661091d565b61051f610e81565b6107ba610eaf565b6040518088815260200187815260200186815260200185815260200184815260200183815260200180602001828103825283818151815260200191508051906020019060200280838360008381101561062657818101518382015260200161060e565b610825610f75565b60408051958652602086019490945284840192909252606084015215156080830152519081900360a00190f35b6103546004803603604081101561086857600080fd5b5080359060200135151561091d565b61051f6004803603604081101561088d57600080fd5b506001600160a01b038135169060200135610fab565b610354600480360360e08110156108b957600080fd5b81359160208101359160408201359160608101359160808201359160a08101359181019060e0810160c08201356401000000008111156102e257600080fd5b610295610fb3565b60005460ff1681565b60008060008060009091929394565b600090565b6040805180820190915260178152600080516020611108833981519152602082015260405162461bcd60e51b81526004018080602001828103825283818151815260200191508051906020019080838360005b83811015610988578181015183820152602001610970565b50505050905090810190601f1680156109b55780820380516001836020036101000a031916815260200191505b509250505060405180910390fd5b600754600854600954909192565b604080518082018252601781526000805160206111088339815191526020808301918252925162461bcd60e51b8152600481019384528251602482015282516060949283926044019180838360008315610988578181015183820152602001610970565b90565b604080518082018252601781526000805160206111088339815191526020808301918252925162461bcd60e51b81526004810193845282516024820152825160609485946000949093919283926044019190808383898315610988578181015183820152602001610970565b6000610aaf82610fc2565b90505b919050565b604080518082018252601781526000805160206111088339815191526020808301918252925162461bcd60e51b81526004810193845282516024820152825160009492839260440191808383898315610988578181015183820152602001610970565b600581565b60068181548110610b2f57600080fd5b6000918252602090912001546001600160a01b0316905081565b606080600080600080600060405180604001604052806017815260200160008051602061110883398151915281525090610bc45760405162461bcd60e51b8152602060048201818152835160248401528351909283926044909101919085019080838360008315610988578181015183820152602001610970565b50506040805160008082526020820181815282840190935290979196509450849350839250829150565b60018054604080516020600284861615610100026000190190941693909304601f81018490048402820184019092528181529291830182828015610c735780601f10610c4857610100808354040283529160200191610c73565b820191906000526020600020905b815481529060010190602001808311610c5657829003601f168201915b505050505081565b6000610c85610fed565b905090565b60008091565b6004546001600160a01b03163314610caa57610caa610ff8565b60408051808201909152600e81526d0a0e4d2c6ca40e8dede40d0d2ced60931b6020820152600160801b8310610d215760405162461bcd60e51b8152602060048201818152835160248401528351909283926044909101919085019080838360008315610988578181015183820152602001610970565b506008546007546001850190910201428111801590610d435750600954810142105b6040518060400160405280601881526020017f52657665616c20706572696f64206e6f7420616374697665000000000000000081525090610dc55760405162461bcd60e51b8152602060048201818152835160248401528351909283926044909101919085019080838360008315610988578181015183820152602001610970565b506000848152600a602090815260408083206001600160a01b038916808552908352818420879055815187815242938101939093528282018490526060830193909352518692917fc1b1d37612887c207efe8cb44f4069b7f10c45edaf6e8405648a94e02b6e9ec7919081900360800190a35050505050565b6000918252600a602090815260408084206001600160a01b0393909316845291905290205490565b6000610aaf82611060565b60058181548110610b2f57600080fd5b600080610e8c610fed565b905080610e9d576000915050610a35565b610ea960018203611060565b91505090565b6000806000806000806060600060405180604001604052806017815260200160008051602061110883398151915281525090610f2c5760405162461bcd60e51b8152602060048201818152835160248401528351909283926044909101919085019080838360008315610988578181015183820152602001610970565b506000808080808080604051908082528060200260200182016040528015610f5e578160200160208202803683370190505b50959d949c50929a50909850965094509092509050565b6000806000806000610f85610fed565b945060085485600101026007540193506009548401925060009150600090509091929394565b600092915050565b6004546001600160a01b031681565b6000600754821015610fd657506000610ab2565b600854600754830381610fe557fe5b049050610ab2565b6000610c8542610fc2565b604080518082018252600d81526c1058d8d95cdcc819195b9a5959609a1b6020808301918252925162461bcd60e51b81526004810193845282516024820152825192939283926044909201919080838360008315610988578181015183820152602001610970565b6004805460408051633352da4560e21b8152928301849052516000926001600160a01b039092169163cd4b6914916024808301926020929190829003018186803b1580156110ad57600080fd5b505afa1580156110c1573d6000803e3d6000fd5b505050506040513d60208110156110d757600080fd5b5051604080516020808201939093523081830152815180820383018152606090910190915280519101209291505056fe556e617661696c61626c6520666f722074657374696e67000000000000000000a2646970667358221220759cb5decb835e5ce3f586a14a66a8c43719b2f8a5ce4059ca7198d5b2294d5564736f6c63430007060033",
  "linkReferences": {},
  "deployedLinkReferences": {}
}