{
  "_format": "hh-sol-artifact-1",
  "contractName": "EndlessLoopMock",
  "sourceName": "contracts/genesis/mock/EndlessLoopMock.sol",
  "abi": [
    {
      "inputs": [
        {
          "internalType": "bool",
          "name": "_allowFallbackMode",
          "type": "bool"
        },
        {
          "internalType": "bool",
          "name": "_loopInFallbackMode",
          "type": "bool"
        }
      ],
      "stateMutability": "nonpayable",
      "type": "constructor"
    },
    {
      "anonymous": false,
      "inputs": [],
      "name": "FallbackMode",
      "type": "event"
    },
    {
      "inputs": [],
      "name": "aNumber",
      "outputs": [
        {
          "internalType": "uint256",
          "name": "",
          "type": "uint256"
        }
      ],
      "stateMutability": "view",
      "type": "function"
    },
    {
      "inputs": [],
      "name": "allowFallbackMode",
      "outputs": [
        {
          "internalType": "bool",
          "name": "",
          "type": "bool"
        }
      ],
      "stateMutability": "view",
      "type": "function"
    },
    {
      "inputs": [],
      "name": "daemonize",
      "outputs": [
        {
          "internalType": "bool",
          "name": "",
          "type": "bool"
        }
      ],
      "stateMutability": "nonpayable",
      "type": "function"
    },
    {
      "inputs": [],
      "name": "fallbackMode",
      "outputs": [
        {
          "internalType": "bool",
          "name": "",
          "type": "bool"
        }
      ],
      "stateMutability": "view",
      "type": "function"
    },
    {
      "inputs": [],
      "name": "getContractName",
      "outputs": [
        {
          "internalType": "string",
          "name": "",
          "type": "string"
        }
      ],
      "stateMutability": "pure",
      "type": "function"
    },
    {
      "inputs": [],
      "name": "loopInFallbackMode",
      "outputs": [
        {
          "internalType": "bool",
          "name": "",
          "type": "bool"
        }
      ],
      "stateMutability": "view",
      "type": "function"
    },
    {
      "inputs": [],
      "name": "switchToFallbackMode",
      "outputs": [
        {
          "internalType": "bool",
          "name": "",
          "type": "bool"
        }
      ],
      "stateMutability": "nonpayable",
      "type": "function"
    }
  ],
  "bytecode": "0x60c060405234801561001057600080fd5b506040516103553803806103558339818101604052604081101561003357600080fd5b50805160209091015190151560f890811b608052901515901b60a05260805160f81c60a05160f81c6102d36100826000398061017b52806101b8525080610157528061020652506102d36000f3fe608060405234801561001057600080fd5b506004361061007d5760003560e01c80636d0e8c341161005b5780636d0e8c34146100ae578063e22fdece146100b6578063e6a899b6146100be578063f5f5ba72146100d85761007d565b806308f5ed80146100825780631c7c23991461009e57806343c1a4cd146100a6575b600080fd5b61008a610155565b604080519115158252519081900360200190f35b61008a610179565b61008a61019d565b61008a6101a6565b61008a6101f3565b6100c661026e565b60408051918252519081900360200190f35b6100e0610274565b6040805160208082528351818301528351919283929083019185019080838360005b8381101561011a578181015183820152602001610102565b50505050905090810190601f1680156101475780820380516001836020036101000a031916815260200191505b509250505060405180910390f35b7f000000000000000000000000000000000000000000000000000000000000000081565b7f000000000000000000000000000000000000000000000000000000000000000081565b60015460ff1681565b60015460009060ff1615806101d857507f00000000000000000000000000000000000000000000000000000000000000005b156101ec575b6000805460010190556101de565b5060015b90565b60015460009060ff1615801561022657507f00000000000000000000000000000000000000000000000000000000000000005b15610268576001805460ff1916811790556040517fa801ef941e363775febbe925acac4347cd49c69069513e0185ff926d6da3d4e090600090a15060016101f0565b50600090565b60005481565b60408051808201909152600f81526e456e646c6573734c6f6f704d6f636b60881b60208201529056fea26469706673582212207da4984fcfbccbbb4e50ee1c64311fe2ae3bb7845b1694b0102723f84ef0942f64736f6c63430007060033",
  "linkReferences": {},
  "deployedLinkReferences": {}
}