{
  "_format": "hh-sol-artifact-1",
  "contractName": "ExecuteMock",
  "sourceName": "contracts/governance/mock/ExecuteMock.sol",
  "abi": [
    {
      "inputs": [],
      "name": "getNum",
      "outputs": [
        {
          "internalType": "uint256",
          "name": "",
          "type": "uint256"
        }
      ],
      "stateMutability": "view",
      "type": "function"
    },
    {
      "inputs": [
        {
          "internalType": "uint256",
          "name": "n",
          "type": "uint256"
        }
      ],
      "name": "setNum",
      "outputs": [],
      "stateMutability": "nonpayable",
      "type": "function"
    },
    {
      "inputs": [
        {
          "internalType": "uint256",
          "name": "n",
          "type": "uint256"
        }
      ],
      "name": "setNum1",
      "outputs": [],
      "stateMutability": "nonpayable",
      "type": "function"
    },
    {
      "inputs": [
        {
          "internalType": "uint256",
          "name": "n",
          "type": "uint256"
        }
      ],
      "name": "setNum2",
      "outputs": [],
      "stateMutability": "nonpayable",
      "type": "function"
    }
  ],
  "bytecode": "0x608060405234801561001057600080fd5b50610168806100206000396000f3fe608060405234801561001057600080fd5b506004361061004c5760003560e01c80634a3672c3146100515780635b248a121461006657806367e0badb14610079578063cd16ecbf14610097575b600080fd5b61006461005f3660046100eb565b6100aa565b005b6100646100743660046100eb565b6100d8565b6100816100e5565b60405161008e9190610129565b60405180910390f35b6100646100a53660046100eb565b6100d3565b806064146100d35760405162461bcd60e51b81526004016100ca90610103565b60405180910390fd5b600055565b806064146100d357600080fd5b60005490565b6000602082840312156100fc578081fd5b5035919050565b6020808252600c908201526b3bb937b73390373ab6b132b960a11b604082015260600190565b9081526020019056fea26469706673582212201659184b975a8fd45d44659dd74e0adb5bc221f13e895cdb48aa315e7c627b1564736f6c63430007060033",
  "linkReferences": {},
  "deployedLinkReferences": {}
}