{
  "_format": "hh-sol-artifact-1",
  "contractName": "FiniteLoopMock",
  "sourceName": "contracts/genesis/mock/FiniteLoopMock.sol",
  "abi": [
    {
      "inputs": [
        {
          "internalType": "uint256",
          "name": "",
          "type": "uint256"
        }
      ],
      "name": "arr",
      "outputs": [
        {
          "internalType": "uint256",
          "name": "",
          "type": "uint256"
        }
      ],
      "stateMutability": "view",
      "type": "function"
    },
    {
      "inputs": [],
      "name": "daemonize",
      "outputs": [
        {
          "internalType": "bool",
          "name": "",
          "type": "bool"
        }
      ],
      "stateMutability": "nonpayable",
      "type": "function"
    },
    {
      "inputs": [],
      "name": "getContractName",
      "outputs": [
        {
          "internalType": "string",
          "name": "",
          "type": "string"
        }
      ],
      "stateMutability": "pure",
      "type": "function"
    },
    {
      "inputs": [],
      "name": "length",
      "outputs": [
        {
          "internalType": "uint256",
          "name": "",
          "type": "uint256"
        }
      ],
      "stateMutability": "view",
      "type": "function"
    },
    {
      "inputs": [],
      "name": "numLoop",
      "outputs": [
        {
          "internalType": "uint256",
          "name": "",
          "type": "uint256"
        }
      ],
      "stateMutability": "view",
      "type": "function"
    },
    {
      "inputs": [
        {
          "internalType": "uint256",
          "name": "n",
          "type": "uint256"
        }
      ],
      "name": "setLoopParameter",
      "outputs": [],
      "stateMutability": "nonpayable",
      "type": "function"
    },
    {
      "inputs": [
        {
          "internalType": "uint256",
          "name": "n",
          "type": "uint256"
        }
      ],
      "name": "setWhichBlocks",
      "outputs": [],
      "stateMutability": "nonpayable",
      "type": "function"
    },
    {
      "inputs": [],
      "name": "switchToFallbackMode",
      "outputs": [
        {
          "internalType": "bool",
          "name": "",
          "type": "bool"
        }
      ],
      "stateMutability": "pure",
      "type": "function"
    },
    {
      "inputs": [],
      "name": "whichBlock",
      "outputs": [
        {
          "internalType": "uint256",
          "name": "",
          "type": "uint256"
        }
      ],
      "stateMutability": "view",
      "type": "function"
    }
  ],
  "bytecode": "0x608060405260018055600160025534801561001957600080fd5b506102ff806100296000396000f3fe608060405234801561001057600080fd5b50600436106100935760003560e01c8063b438634411610066578063b43863441461010a578063bb9fd03514610127578063bc3940561461012f578063e22fdece14610137578063f5f5ba721461013f57610093565b80631f7b6d3214610098578063518eb06a146100b25780636d0e8c34146100d157806371e5ee5f146100ed575b600080fd5b6100a06101bc565b60408051918252519081900360200190f35b6100cf600480360360208110156100c857600080fd5b50356101c2565b005b6100d96101c7565b604080519115158252519081900360200190f35b6100a06004803603602081101561010357600080fd5b503561026a565b6100cf6004803603602081101561012057600080fd5b503561028b565b6100a0610290565b6100a0610296565b6100d961029c565b6101476102a1565b6040805160208082528351818301528351919283929083019185019080838360005b83811015610181578181015183820152602001610169565b50505050905090810190601f1680156101ae5780820380516001836020036101000a031916815260200191505b509250505060405180910390f35b60005490565b600255565b600060025443816101d457fe5b066102645760015461021a575b6000805460018101825590805260067f290decd9548b62a8d60345a988386fc84ba6bc95484008f6362f93160ef3e563909101556101e1565b60005b60015481101561026257600080546001818101835591805260067f290decd9548b62a8d60345a988386fc84ba6bc95484008f6362f93160ef3e563909101550161021d565b505b50600190565b6000818154811061027a57600080fd5b600091825260209091200154905081565b600155565b60025481565b60015481565b600090565b60408051808201909152600e81526d46696e6974654c6f6f704d6f636b60901b60208201529056fea26469706673582212205fca598772fcf5c8833747452e01098efba833e591fc7ca141dfd57836b436bc64736f6c63430007060033",
  "linkReferences": {},
  "deployedLinkReferences": {}
}