{
  "_format": "hh-sol-artifact-1",
  "contractName": "DistributionTreasury",
  "sourceName": "contracts/tokenPools/implementation/DistributionTreasury.sol",
  "abi": [
    {
      "inputs": [],
      "stateMutability": "nonpayable",
      "type": "constructor"
    },
    {
      "anonymous": false,
      "inputs": [
        {
          "indexed": false,
          "internalType": "address",
          "name": "proposedGovernance",
          "type": "address"
        }
      ],
      "name": "GovernanceProposed",
      "type": "event"
    },
    {
      "anonymous": false,
      "inputs": [
        {
          "indexed": false,
          "internalType": "address",
          "name": "oldGovernance",
          "type": "address"
        },
        {
          "indexed": false,
          "internalType": "address",
          "name": "newGoveranance",
          "type": "address"
        }
      ],
      "name": "GovernanceUpdated",
      "type": "event"
    },
    {
      "inputs": [],
      "name": "claimGovernance",
      "outputs": [],
      "stateMutability": "nonpayable",
      "type": "function"
    },
    {
      "inputs": [],
      "name": "distribution",
      "outputs": [
        {
          "internalType": "address",
          "name": "",
          "type": "address"
        }
      ],
      "stateMutability": "view",
      "type": "function"
    },
    {
      "inputs": [],
      "name": "governance",
      "outputs": [
        {
          "internalType": "address",
          "name": "",
          "type": "address"
        }
      ],
      "stateMutability": "view",
      "type": "function"
    },
    {
      "inputs": [
        {
          "internalType": "address",
          "name": "_governance",
          "type": "address"
        }
      ],
      "name": "initialise",
      "outputs": [],
      "stateMutability": "pure",
      "type": "function"
    },
    {
      "inputs": [],
      "name": "initialiseFixedAddress",
      "outputs": [
        {
          "internalType": "address",
          "name": "",
          "type": "address"
        }
      ],
      "stateMutability": "nonpayable",
      "type": "function"
    },
    {
      "inputs": [],
      "name": "lastPullTs",
      "outputs": [
        {
          "internalType": "uint256",
          "name": "",
          "type": "uint256"
        }
      ],
      "stateMutability": "view",
      "type": "function"
    },
    {
      "inputs": [],
      "name": "maxPullAmountWei",
      "outputs": [
        {
          "internalType": "uint256",
          "name": "",
          "type": "uint256"
        }
      ],
      "stateMutability": "view",
      "type": "function"
    },
    {
      "inputs": [
        {
          "internalType": "address",
          "name": "_governance",
          "type": "address"
        }
      ],
      "name": "proposeGovernance",
      "outputs": [],
      "stateMutability": "nonpayable",
      "type": "function"
    },
    {
      "inputs": [],
      "name": "proposedGovernance",
      "outputs": [
        {
          "internalType": "address",
          "name": "",
          "type": "address"
        }
      ],
      "stateMutability": "view",
      "type": "function"
    },
    {
      "inputs": [
        {
          "internalType": "uint256",
          "name": "_amountWei",
          "type": "uint256"
        }
      ],
      "name": "pullFunds",
      "outputs": [],
      "stateMutability": "nonpayable",
      "type": "function"
    },
    {
      "inputs": [
        {
          "internalType": "address",
          "name": "_distribution",
          "type": "address"
        },
        {
          "internalType": "uint256",
          "name": "_maxPullAmountWei",
          "type": "uint256"
        }
      ],
      "name": "setDistributionContract",
      "outputs": [],
      "stateMutability": "nonpayable",
      "type": "function"
    },
    {
      "inputs": [
        {
          "internalType": "address",
          "name": "_governance",
          "type": "address"
        }
      ],
      "name": "transferGovernance",
      "outputs": [],
      "stateMutability": "nonpayable",
      "type": "function"
    }
  ],
  "bytecode": "0x608060405234801561001057600080fd5b506107d7806100206000396000f3fe608060405234801561001057600080fd5b50600436106100b45760003560e01c80639d6a890f116100715780639d6a890f14610119578063c373a08e1461013f578063c9f960eb14610165578063d38bfff41461016d578063e754975714610193578063ec8d8777146101bf576100b4565b8063100223bb146100b95780631057969a146100d35780635aa6e675146100db5780635d36b190146100ff5780635ee58efc1461010957806360f7ac9714610111575b600080fd5b6100c16101dc565b60408051918252519081900360200190f35b6100c16101e2565b6100e36101e8565b604080516001600160a01b039092168252519081900360200190f35b6101076101f7565b005b6100e36102b9565b6100e36102c8565b6101076004803603602081101561012f57600080fd5b50356001600160a01b03166102d7565b6101076004803603602081101561015557600080fd5b50356001600160a01b03166102d9565b6100e3610335565b6101076004803603602081101561018357600080fd5b50356001600160a01b031661035a565b610107600480360360408110156101a957600080fd5b506001600160a01b0381351690602001356103d3565b610107600480360360208110156101d557600080fd5b5035610401565b60045481565b60035481565b6000546001600160a01b031681565b6001546001600160a01b03163314610246576040805162461bcd60e51b815260206004820152600d60248201526c1b9bdd0818db185a5b585a5b9d609a1b604482015290519081900360640190fd5b600054600154604080516001600160a01b03938416815292909116602083015280517f434a2db650703b36c824e745330d6397cdaa9ee2cc891a4938ae853e1c50b68d9281900390910190a160018054600080546001600160a01b03199081166001600160a01b03841617909155169055565b6002546001600160a01b031681565b6001546001600160a01b031681565bfe5b6102e1610674565b600180546001600160a01b0383166001600160a01b0319909116811790915560408051918252517f1f95fb40be3a947982072902a887b521248d1d8931a39eb38f84f4d6fd758b699181900360200190a150565b600073fffec6c83c8bf5c3f4ae0ccf8c45ce20e4560bd7610355816106c7565b905090565b610362610674565b600054604080516001600160a01b039283168152918316602083015280517f434a2db650703b36c824e745330d6397cdaa9ee2cc891a4938ae853e1c50b68d9281900390910190a1600080546001600160a01b039092166001600160a01b0319928316179055600180549091169055565b6103db610674565b600280546001600160a01b0319166001600160a01b039390931692909217909155600355565b600254604080518082019091526011815270646973747269627574696f6e206f6e6c7960781b6020820152906001600160a01b031633146104c05760405162461bcd60e51b81526004018080602001828103825283818151815260200191508051906020019080838360005b8381101561048557818101518382015260200161046d565b50505050905090810190601f1680156104b25780820380516001836020036101000a031916815260200191505b509250505060405180910390fd5b504262263b80600454011115604051806040016040528060098152602001683a37b79037b33a32b760b91b8152509061053a5760405162461bcd60e51b815260206004820181815283516024840152835190928392604490910191908501908083836000831561048557818101518382015260200161046d565b50600354811115604051806040016040528060088152602001670e8dede40daeac6d60c31b815250906105ae5760405162461bcd60e51b815260206004820181815283516024840152835190928392604490910191908501908083836000831561048557818101518382015260200161046d565b5042600455604051600090339083908381818185875af1925050503d80600081146105f5576040519150601f19603f3d011682016040523d82523d6000602084013e6105fa565b606091505b50509050806040518060400160405280600b81526020016a1c1d5b1b0819985a5b195960aa1b8152509061066f5760405162461bcd60e51b815260206004820181815283516024840152835190928392604490910191908501908083836000831561048557818101518382015260200161046d565b505050565b6000546001600160a01b031633146106c5576040805162461bcd60e51b815260206004820152600f60248201526e6f6e6c7920676f7665726e616e636560881b604482015290519081900360640190fd5b565b600154600160a01b900460ff161561071d576040805162461bcd60e51b8152602060048201526014602482015273696e697469616c6973656420213d2066616c736560601b604482015290519081900360640190fd5b6001805460ff60a01b1916600160a01b179055600054604080516001600160a01b039283168152918316602083015280517f434a2db650703b36c824e745330d6397cdaa9ee2cc891a4938ae853e1c50b68d9281900390910190a1600080546001600160a01b039092166001600160a01b031992831617905560018054909116905556fea26469706673582212204b100953b34f73e104f35439fc140eb665c4055a8fc99bad8c5b10263232ffe664736f6c63430007060033",
  "linkReferences": {},
  "deployedLinkReferences": {}
}