{
  "_format": "hh-sol-artifact-1",
  "contractName": "Distribution",
  "sourceName": "contracts/tokenPools/implementation/Distribution.sol",
  "abi": [
    {
      "inputs": [
        {
          "internalType": "address",
          "name": "_governance",
          "type": "address"
        },
        {
          "internalType": "contract DistributionTreasury",
          "name": "_treasury",
          "type": "address"
        }
      ],
      "stateMutability": "nonpayable",
      "type": "constructor"
    },
    {
      "anonymous": false,
      "inputs": [
        {
          "indexed": true,
          "internalType": "address",
          "name": "theAccount",
          "type": "address"
        }
      ],
      "name": "AccountClaimed",
      "type": "event"
    },
    {
      "anonymous": false,
      "inputs": [
        {
          "indexed": true,
          "internalType": "address",
          "name": "theAccount",
          "type": "address"
        }
      ],
      "name": "AccountOptOut",
      "type": "event"
    },
    {
      "anonymous": false,
      "inputs": [
        {
          "indexed": false,
          "internalType": "address[]",
          "name": "accountsArray",
          "type": "address[]"
        }
      ],
      "name": "AccountsAdded",
      "type": "event"
    },
    {
      "anonymous": false,
      "inputs": [],
      "name": "EntitlementStarted",
      "type": "event"
    },
    {
      "anonymous": false,
      "inputs": [
        {
          "indexed": false,
          "internalType": "address",
          "name": "proposedGovernance",
          "type": "address"
        }
      ],
      "name": "GovernanceProposed",
      "type": "event"
    },
    {
      "anonymous": false,
      "inputs": [
        {
          "indexed": false,
          "internalType": "address",
          "name": "oldGovernance",
          "type": "address"
        },
        {
          "indexed": false,
          "internalType": "address",
          "name": "newGoveranance",
          "type": "address"
        }
      ],
      "name": "GovernanceUpdated",
      "type": "event"
    },
    {
      "anonymous": false,
      "inputs": [],
      "name": "OptOutWeiWithdrawn",
      "type": "event"
    },
    {
      "inputs": [
        {
          "internalType": "address",
          "name": "",
          "type": "address"
        }
      ],
      "name": "airdropAccounts",
      "outputs": [
        {
          "internalType": "uint256",
          "name": "entitlementBalanceWei",
          "type": "uint256"
        },
        {
          "internalType": "uint256",
          "name": "totalClaimedWei",
          "type": "uint256"
        },
        {
          "internalType": "uint256",
          "name": "optOutBalanceWei",
          "type": "uint256"
        },
        {
          "internalType": "uint256",
          "name": "airdroppedAtGenesisWei",
          "type": "uint256"
        }
      ],
      "stateMutability": "view",
      "type": "function"
    },
    {
      "inputs": [
        {
          "internalType": "address payable",
          "name": "_recipient",
          "type": "address"
        }
      ],
      "name": "claim",
      "outputs": [
        {
          "internalType": "uint256",
          "name": "_amountWei",
          "type": "uint256"
        }
      ],
      "stateMutability": "nonpayable",
      "type": "function"
    },
    {
      "inputs": [],
      "name": "claimGovernance",
      "outputs": [],
      "stateMutability": "nonpayable",
      "type": "function"
    },
    {
      "inputs": [],
      "name": "entitlementStartTs",
      "outputs": [
        {
          "internalType": "uint256",
          "name": "",
          "type": "uint256"
        }
      ],
      "stateMutability": "view",
      "type": "function"
    },
    {
      "inputs": [],
      "name": "getClaimableAmount",
      "outputs": [
        {
          "internalType": "uint256",
          "name": "_amountWei",
          "type": "uint256"
        }
      ],
      "stateMutability": "view",
      "type": "function"
    },
    {
      "inputs": [
        {
          "internalType": "address",
          "name": "account",
          "type": "address"
        }
      ],
      "name": "getClaimableAmountOf",
      "outputs": [
        {
          "internalType": "uint256",
          "name": "_amountWei",
          "type": "uint256"
        }
      ],
      "stateMutability": "view",
      "type": "function"
    },
    {
      "inputs": [],
      "name": "getTokenPoolSupplyData",
      "outputs": [
        {
          "internalType": "uint256",
          "name": "_lockedFundsWei",
          "type": "uint256"
        },
        {
          "internalType": "uint256",
          "name": "_totalInflationAuthorizedWei",
          "type": "uint256"
        },
        {
          "internalType": "uint256",
          "name": "_totalClaimedWei",
          "type": "uint256"
        }
      ],
      "stateMutability": "view",
      "type": "function"
    },
    {
      "inputs": [],
      "name": "governance",
      "outputs": [
        {
          "internalType": "address",
          "name": "",
          "type": "address"
        }
      ],
      "stateMutability": "view",
      "type": "function"
    },
    {
      "inputs": [
        {
          "internalType": "address",
          "name": "_governance",
          "type": "address"
        }
      ],
      "name": "initialise",
      "outputs": [],
      "stateMutability": "nonpayable",
      "type": "function"
    },
    {
      "inputs": [],
      "name": "optOutOfAirdrop",
      "outputs": [],
      "stateMutability": "nonpayable",
      "type": "function"
    },
    {
      "inputs": [
        {
          "internalType": "address",
          "name": "_governance",
          "type": "address"
        }
      ],
      "name": "proposeGovernance",
      "outputs": [],
      "stateMutability": "nonpayable",
      "type": "function"
    },
    {
      "inputs": [],
      "name": "proposedGovernance",
      "outputs": [
        {
          "internalType": "address",
          "name": "",
          "type": "address"
        }
      ],
      "stateMutability": "view",
      "type": "function"
    },
    {
      "inputs": [],
      "name": "secondsTillNextClaim",
      "outputs": [
        {
          "internalType": "uint256",
          "name": "timeTill",
          "type": "uint256"
        }
      ],
      "stateMutability": "view",
      "type": "function"
    },
    {
      "inputs": [
        {
          "internalType": "address[]",
          "name": "toAddress",
          "type": "address[]"
        },
        {
          "internalType": "uint256[]",
          "name": "balance",
          "type": "uint256[]"
        }
      ],
      "name": "setClaimBalance",
      "outputs": [],
      "stateMutability": "nonpayable",
      "type": "function"
    },
    {
      "inputs": [
        {
          "internalType": "uint256",
          "name": "_entitlementStartTs",
          "type": "uint256"
        }
      ],
      "name": "setEntitlementStart",
      "outputs": [],
      "stateMutability": "nonpayable",
      "type": "function"
    },
    {
      "inputs": [],
      "name": "totalClaimedWei",
      "outputs": [
        {
          "internalType": "uint256",
          "name": "",
          "type": "uint256"
        }
      ],
      "stateMutability": "view",
      "type": "function"
    },
    {
      "inputs": [],
      "name": "totalEntitlementWei",
      "outputs": [
        {
          "internalType": "uint256",
          "name": "",
          "type": "uint256"
        }
      ],
      "stateMutability": "view",
      "type": "function"
    },
    {
      "inputs": [],
      "name": "totalOptOutWei",
      "outputs": [
        {
          "internalType": "uint256",
          "name": "",
          "type": "uint256"
        }
      ],
      "stateMutability": "view",
      "type": "function"
    },
    {
      "inputs": [
        {
          "internalType": "address",
          "name": "_governance",
          "type": "address"
        }
      ],
      "name": "transferGovernance",
      "outputs": [],
      "stateMutability": "nonpayable",
      "type": "function"
    },
    {
      "inputs": [],
      "name": "treasury",
      "outputs": [
        {
          "internalType": "contract DistributionTreasury",
          "name": "",
          "type": "address"
        }
      ],
      "stateMutability": "view",
      "type": "function"
    },
    {
      "inputs": [
        {
          "internalType": "address payable",
          "name": "_targetAddress",
          "type": "address"
        }
      ],
      "name": "withdrawOptOutWei",
      "outputs": [
        {
          "internalType": "uint256",
          "name": "_amountWei",
          "type": "uint256"
        }
      ],
      "stateMutability": "nonpayable",
      "type": "function"
    },
    {
      "inputs": [],
      "name": "withdrawnOptOutWei",
      "outputs": [
        {
          "internalType": "uint256",
          "name": "",
          "type": "uint256"
        }
      ],
      "stateMutability": "view",
      "type": "function"
    },
    {
      "stateMutability": "payable",
      "type": "receive"
    }
  ],
  "bytecode": "0x60a06040523480156200001157600080fd5b506040516200248338038062002483833981810160405260408110156200003757600080fd5b50805160209091015181806001600160a01b038116156200005d576200005d8162000184565b506001600160a01b038116620000ad576040805162461bcd60e51b815260206004820152601060248201526f5f676f7665726e616e6365207a65726f60801b604482015290519081900360640190fd5b50600160025560408051808201909152600c81526b61646472657373207a65726f60a01b60208201526001600160a01b0382166200016c5760405162461bcd60e51b81526004018080602001828103825283818151815260200191508051906020019080838360005b838110156200013057818101518382015260200162000116565b50505050905090810190601f1680156200015e5780820380516001836020036101000a031916815260200191505b509250505060405180910390fd5b5060601b6001600160601b0319166080525062000268565b600154600160a01b900460ff1615620001e4576040805162461bcd60e51b815260206004820152601460248201527f696e697469616c6973656420213d2066616c7365000000000000000000000000604482015290519081900360640190fd5b6001805460ff60a01b1916600160a01b179055600054604080516001600160a01b039283168152918316602083015280517f434a2db650703b36c824e745330d6397cdaa9ee2cc891a4938ae853e1c50b68d9281900390910190a1600080546001600160a01b039092166001600160a01b0319928316179055600180549091169055565b60805160601c6121f3620002906000398061016c5280610ea4528061144352506121f36000f3fe6080604052600436106101385760003560e01c80637fd45d2b116100ab578063c373a08e1161006f578063c373a08e14610531578063d38bfff414610564578063e28ef1f714610597578063e60eb6ff146105c1578063f2325e38146105d6578063f2a1f767146105eb57610218565b80637fd45d2b1461046e5780639d6a890f146104a15780639f71043e146104d4578063b5551ab7146104e9578063c354bd6e1461051c57610218565b806344d94b4b116100fd57806344d94b4b146103d45780634bb5696a146103e95780635aa6e675146103fe5780635d36b1901461042f57806360f7ac971461044457806361d027b31461045957610218565b80626a1d511461021d5780631e83409a1461024457806326631201146102775780632dafdbbf1461034857806344a8ace21461037b57610218565b366102185760408051808201909152600d81526c7472656173757279206f6e6c7960981b6020820152336001600160a01b037f000000000000000000000000000000000000000000000000000000000000000016146102155760405162461bcd60e51b81526004018080602001828103825283818151815260200191508051906020019080838360005b838110156101da5781810151838201526020016101c2565b50505050905090810190601f1680156102075780820380516001836020036101000a031916815260200191505b509250505060405180910390fd5b50005b600080fd5b34801561022957600080fd5b50610232610600565b60408051918252519081900360200190f35b34801561025057600080fd5b506102326004803603602081101561026757600080fd5b50356001600160a01b0316610606565b34801561028357600080fd5b506103466004803603604081101561029a57600080fd5b8101906020810181356401000000008111156102b557600080fd5b8201836020820111156102c757600080fd5b803590602001918460208302840111640100000000831117156102e957600080fd5b91939092909160208101903564010000000081111561030757600080fd5b82018360208201111561031957600080fd5b8035906020019184602083028401116401000000008311171561033b57600080fd5b509092509050610a07565b005b34801561035457600080fd5b5061035d610cea565b60408051938452602084019290925282820152519081900360600190f35b34801561038757600080fd5b506103ae6004803603602081101561039e57600080fd5b50356001600160a01b0316610cfe565b604080519485526020850193909352838301919091526060830152519081900360800190f35b3480156103e057600080fd5b50610232610d27565b3480156103f557600080fd5b50610232610d2d565b34801561040a57600080fd5b50610413610dc2565b604080516001600160a01b039092168252519081900360200190f35b34801561043b57600080fd5b50610346610dd1565b34801561045057600080fd5b50610413610e93565b34801561046557600080fd5b50610413610ea2565b34801561047a57600080fd5b506102326004803603602081101561049157600080fd5b50356001600160a01b0316610ec6565b3480156104ad57600080fd5b50610346600480360360208110156104c457600080fd5b50356001600160a01b0316610f5c565b3480156104e057600080fd5b50610232611036565b3480156104f557600080fd5b506102326004803603602081101561050c57600080fd5b50356001600160a01b031661103c565b34801561052857600080fd5b5061023261125e565b34801561053d57600080fd5b506103466004803603602081101561055457600080fd5b50356001600160a01b03166112ee565b34801561057057600080fd5b506103466004803603602081101561058757600080fd5b50356001600160a01b031661134a565b3480156105a357600080fd5b50610346600480360360208110156105ba57600080fd5b50356113c3565b3480156105cd57600080fd5b5061023261156d565b3480156105e257600080fd5b50610232611573565b3480156105f757600080fd5b50610346611579565b60075481565b600060085460001415801561061c575042600854105b6040518060400160405280600b81526020016a1b9bdd081cdd185c9d195960aa1b8152509061068c5760405162461bcd60e51b81526020600482018181528351602484015283519092839260449091019190850190808383600083156101da5781810151838201526020016101c2565b506002805414156106e4576040805162461bcd60e51b815260206004820152601f60248201527f5265656e7472616e637947756172643a207265656e7472616e742063616c6c00604482015290519081900360640190fd5b6002805533600081815260036020818152604092839020909101548251808401909352600e83526d1b9bdd081c9959da5cdd195c995960921b9183019190915261076f5760405162461bcd60e51b81526020600482018181528351602484015283519092839260449091019190850190808383600083156101da5781810151838201526020016101c2565b506001600160a01b0381166000908152600360209081526040918290206002015482518084019093526011835270185b1c9958591e481bdc1d1959081bdd5d607a1b91830191909152156108045760405162461bcd60e51b81526020600482018181528351602484015283519092839260449091019190850190808383600083156101da5781810151838201526020016101c2565b503360008181526003602052604090209061081e906117fc565b9250600083116040518060400160405280601e81526020017f6e6f2062616c616e63652063757272656e746c7920617661696c61626c650000815250906108a65760405162461bcd60e51b81526020600482018181528351602484015283519092839260449091019190850190808383600083156101da5781810151838201526020016101c2565b50600181018054840190556005546108be9084611a5e565b60055560405133907f98220ba7e456cda59b84320240d405cb87d7d871ba13f798d6362297818d29fc90600090a26040516000906001600160a01b0386169085908381818185875af1925050503d8060008114610937576040519150601f19603f3d011682016040523d82523d6000602084013e61093c565b606091505b505090508061097a576040805162461bcd60e51b815260206004820152600560248201526432b93937b960d91b604482015290519081900360640190fd5b50506001600255504761098b611abf565b11156040518060400160405280600f81526020016e62616c616e636520746f6f206c6f7760881b81525090610a015760405162461bcd60e51b81526020600482018181528351602484015283519092839260449091019190850190808383600083156101da5781810151838201526020016101c2565b50919050565b610a0f611ae4565b604080518082019091526008815267746f6f206d616e7960c01b60208201526103e8841115610a7f5760405162461bcd60e51b81526020600482018181528351602484015283519092839260449091019190850190808383600083156101da5781810151838201526020016101c2565b5060408051808201909152601781527f617272617973206c656e67746873206d69736d617463680000000000000000006020820152838214610b025760405162461bcd60e51b81526020600482018181528351602484015283519092839260449091019190850190808383600083156101da5781810151838201526020016101c2565b5060085460408051808201909152600f81526e185b1c9958591e481cdd185c9d1959608a1b60208201529015610b795760405162461bcd60e51b81526020600482018181528351602484015283519092839260449091019190850190808383600083156101da5781810151838201526020016101c2565b5060005b61ffff8116841115610c80576000610bba6105dc61271086868661ffff16818110610ba457fe5b90506020020135611b379092919063ffffffff16565b90506000610be78286868661ffff16818110610bd257fe5b90506020020135611c4390919063ffffffff16565b905060405180608001604052808281526020016000815260200160008152602001838152506003600089898761ffff16818110610c2057fe5b602090810292909201356001600160a01b0316835250818101929092526040908101600020835181559183015160018301558201516002820155606090910151600390910155600454610c739082611a5e565b6004555050600101610b7d565b507fc21490756c6f0185a8ad2363084fd0a45b06707979f77786b5e681bddc1d2fa1848460405180806020018281038252848482818152602001925060200280828437600083820152604051601f909101601f19169092018290039550909350505050a150505050565b600454600754600554919260009290910190565b600360208190526000918252604090912080546001820154600283015492909301549092919084565b60065481565b6000600854600014158015610d43575042600854105b6040518060400160405280600b81526020016a1b9bdd081cdd185c9d195960aa1b81525090610db35760405162461bcd60e51b81526020600482018181528351602484015283519092839260449091019190850190808383600083156101da5781810151838201526020016101c2565b50610dbd33611ca0565b905090565b6000546001600160a01b031681565b6001546001600160a01b03163314610e20576040805162461bcd60e51b815260206004820152600d60248201526c1b9bdd0818db185a5b585a5b9d609a1b604482015290519081900360640190fd5b600054600154604080516001600160a01b03938416815292909116602083015280517f434a2db650703b36c824e745330d6397cdaa9ee2cc891a4938ae853e1c50b68d9281900390910190a160018054600080546001600160a01b03199081166001600160a01b03841617909155169055565b6001546001600160a01b031681565b7f000000000000000000000000000000000000000000000000000000000000000081565b6000600854600014158015610edc575042600854105b6040518060400160405280600b81526020016a1b9bdd081cdd185c9d195960aa1b81525090610f4c5760405162461bcd60e51b81526020600482018181528351602484015283519092839260449091019190850190808383600083156101da5781810151838201526020016101c2565b50610f56826117fc565b92915050565b600154600160a01b900460ff1615610fb2576040805162461bcd60e51b8152602060048201526014602482015273696e697469616c6973656420213d2066616c736560601b604482015290519081900360640190fd5b6001805460ff60a01b1916600160a01b179055600054604080516001600160a01b039283168152918316602083015280517f434a2db650703b36c824e745330d6397cdaa9ee2cc891a4938ae853e1c50b68d9281900390910190a1600080546001600160a01b039092166001600160a01b0319928316179055600180549091169055565b60055481565b6000611046611ae4565b60085415801590611058575042600854105b6040518060400160405280600b81526020016a1b9bdd081cdd185c9d195960aa1b815250906110c85760405162461bcd60e51b81526020600482018181528351602484015283519092839260449091019190850190808383600083156101da5781810151838201526020016101c2565b506000600654116040518060400160405280601e81526020017f6e6f2062616c616e63652063757272656e746c7920617661696c61626c650000815250906111515760405162461bcd60e51b81526020600482018181528351602484015283519092839260449091019190850190808383600083156101da5781810151838201526020016101c2565b5060075460065414156040518060400160405280601e81526020017f6e6f2062616c616e63652063757272656e746c7920617661696c61626c650000815250906111dc5760405162461bcd60e51b81526020600482018181528351602484015283519092839260449091019190850190808383600083156101da5781810151838201526020016101c2565b506007546006546111ec91611c43565b6006546007556040519091507f79d406fa3c1c020905a48c371f891e33f8210c0e4ab4d5221dc01f531f7342db90600090a16040516001600160a01b0383169082156108fc029083906000818181858888f19350505050158015611254573d6000803e3d6000fd5b504761098b611abf565b6000600854600014158015611274575042600854105b6040518060400160405280600b81526020016a1b9bdd081cdd185c9d195960aa1b815250906112e45760405162461bcd60e51b81526020600482018181528351602484015283519092839260449091019190850190808383600083156101da5781810151838201526020016101c2565b50610dbd336117fc565b6112f6611ae4565b600180546001600160a01b0383166001600160a01b0319909116811790915560408051918252517f1f95fb40be3a947982072902a887b521248d1d8931a39eb38f84f4d6fd758b699181900360200190a150565b611352611ae4565b600054604080516001600160a01b039283168152918316602083015280517f434a2db650703b36c824e745330d6397cdaa9ee2cc891a4938ae853e1c50b68d9281900390910190a1600080546001600160a01b039092166001600160a01b0319928316179055600180549091169055565b6113cb611ae4565b6008805460408051808201909152918252676e6f74207a65726f60c01b6020830152156114395760405162461bcd60e51b81526020600482018181528351602484015283519092839260449091019190850190808383600083156101da5781810151838201526020016101c2565b50806008819055507f00000000000000000000000000000000000000000000000000000000000000006001600160a01b031663ec8d87776004546040518263ffffffff1660e01b815260040180828152602001915050600060405180830381600087803b1580156114a957600080fd5b505af11580156114bd573d6000803e3d6000fd5b50506040517f11b09d9dabfa7c2fc728e40a9c71bbb893c699e75d271e7ca02ef02bead3e443925060009150a1476114f3611abf565b11156040518060400160405280600f81526020016e62616c616e636520746f6f206c6f7760881b815250906115695760405162461bcd60e51b81526020600482018181528351602484015283519092839260449091019190850190808383600083156101da5781810151838201526020016101c2565b5050565b60085481565b60045481565b33600081815260036020818152604092839020909101548251808401909352600e83526d1b9bdd081c9959da5cdd195c995960921b918301919091526116005760405162461bcd60e51b81526020600482018181528351602484015283519092839260449091019190850190808383600083156101da5781810151838201526020016101c2565b506001600160a01b0381166000908152600360209081526040918290206002015482518084019093526011835270185b1c9958591e481bdc1d1959081bdd5d607a1b91830191909152156116955760405162461bcd60e51b81526020600482018181528351602484015283519092839260449091019190850190808383600083156101da5781810151838201526020016101c2565b50600854158015906116a8575042600854105b6040518060400160405280600b81526020016a1b9bdd081cdd185c9d195960aa1b815250906117185760405162461bcd60e51b81526020600482018181528351602484015283519092839260449091019190850190808383600083156101da5781810151838201526020016101c2565b50336000908152600360209081526040918290206001810154815484518086019095526015855274185b1c9958591e48199d5b1b1e4818db185a5b5959605a1b93850193909352909291116117ae5760405162461bcd60e51b81526020600482018181528351602484015283519092839260449091019190850190808383600083156101da5781810151838201526020016101c2565b5060405133907fdaa99ea0f252dcde78c690a59f1d9953dcca69dc3127eff6f919fc8b16ed873090600090a26001810154815403600282018190556006546117f591611a5e565b6006555050565b6000600854600014158015611812575042600854105b6040518060400160405280600b81526020016a1b9bdd081cdd185c9d195960aa1b815250906118825760405162461bcd60e51b81526020600482018181528351602484015283519092839260449091019190850190808383600083156101da5781810151838201526020016101c2565b508160036000826001600160a01b03166001600160a01b0316815260200190815260200160002060030154600014156040518060400160405280600e81526020016d1b9bdd081c9959da5cdd195c995960921b815250906119245760405162461bcd60e51b81526020600482018181528351602484015283519092839260449091019190850190808383600083156101da5781810151838201526020016101c2565b506001600160a01b0381166000908152600360209081526040918290206002015482518084019093526011835270185b1c9958591e481bdc1d1959081bdd5d607a1b91830191909152156119b95760405162461bcd60e51b81526020600482018181528351602484015283519092839260449091019190850190808383600083156101da5781810151838201526020016101c2565b506001600160a01b038316600090815260036020818152604080842081516080810183528154815260018201549381019390935260028101549183019190915290910154606082015290611a0b611f27565b8251909150600090611a209083612134611b37565b9050611a38611a33828560000151611ff0565b612006565b6fffffffffffffffffffffffffffffffff16905082602001518103945050505050919050565b600082820183811015611ab8576040805162461bcd60e51b815260206004820152601b60248201527f536166654d6174683a206164646974696f6e206f766572666c6f770000000000604482015290519081900360640190fd5b9392505050565b6000610dbd600754611ade600554600454611c4390919063ffffffff16565b90611c43565b6000546001600160a01b03163314611b35576040805162461bcd60e51b815260206004820152600f60248201526e6f6e6c7920676f7665726e616e636560881b604482015290519081900360640190fd5b565b6000808211611b80576040805162461bcd60e51b815260206004820152601060248201526f4469766973696f6e206279207a65726f60801b604482015290519081900360640190fd5b83611b8d57506000611ab8565b83830283858281611b9a57fe5b041415611bb357828181611baa57fe5b04915050611ab8565b6000838681611bbe57fe5b0490506000848781611bcc57fe5b0690506000858781611bda57fe5b0490506000868881611be857fe5b069050611c36611c0288611bfc868561204e565b906120a7565b611c30611c0f868661204e565b611c30611c1c898761204e565b611c308d611c2a8c8b61204e565b9061204e565b90611a5e565b9998505050505050505050565b600082821115611c9a576040805162461bcd60e51b815260206004820152601e60248201527f536166654d6174683a207375627472616374696f6e206f766572666c6f770000604482015290519081900360640190fd5b50900390565b6000600854600014158015611cb6575042600854105b6040518060400160405280600b81526020016a1b9bdd081cdd185c9d195960aa1b81525090611d265760405162461bcd60e51b81526020600482018181528351602484015283519092839260449091019190850190808383600083156101da5781810151838201526020016101c2565b508160036000826001600160a01b03166001600160a01b0316815260200190815260200160002060030154600014156040518060400160405280600e81526020016d1b9bdd081c9959da5cdd195c995960921b81525090611dc85760405162461bcd60e51b81526020600482018181528351602484015283519092839260449091019190850190808383600083156101da5781810151838201526020016101c2565b506001600160a01b0381166000908152600360209081526040918290206002015482518084019093526011835270185b1c9958591e481bdc1d1959081bdd5d607a1b9183019190915215611e5d5760405162461bcd60e51b81526020600482018181528351602484015283519092839260449091019190850190808383600083156101da5781810151838201526020016101c2565b50601d611e7c62278d00611bfc60085442611c4390919063ffffffff16565b1060405180604001604052806015815260200174185b1c9958591e48199d5b1b1e4818db185a5b5959605a1b81525090611ef75760405162461bcd60e51b81526020600482018181528351602484015283519092839260449091019190850190808383600083156101da5781810151838201526020016101c2565b50611ab8611f1d62278d00611f1760085442611c4390919063ffffffff16565b9061210e565b62278d0090611c43565b6000600854600014158015611f3d575042600854105b6040518060400160405280600b81526020016a1b9bdd081cdd185c9d195960aa1b81525090611fad5760405162461bcd60e51b81526020600482018181528351602484015283519092839260449091019190850190808383600083156101da5781810151838201526020016101c2565b506000611fcc62015180611bfc60085442611c4390919063ffffffff16565b9050611fea611fe261012c611c2a84601e6120a7565b612134611ff0565b91505090565b6000818310611fff5781611ab8565b5090919050565b6000600160801b821061204a5760405162461bcd60e51b81526004018080602001828103825260278152602001806121766027913960400191505060405180910390fd5b5090565b60008261205d57506000610f56565b8282028284828161206a57fe5b0414611ab85760405162461bcd60e51b815260040180806020018281038252602181526020018061219d6021913960400191505060405180910390fd5b60008082116120fd576040805162461bcd60e51b815260206004820152601a60248201527f536166654d6174683a206469766973696f6e206279207a65726f000000000000604482015290519081900360640190fd5b81838161210657fe5b049392505050565b6000808211612164576040805162461bcd60e51b815260206004820152601860248201527f536166654d6174683a206d6f64756c6f206279207a65726f0000000000000000604482015290519081900360640190fd5b81838161216d57fe5b06939250505056fe53616665436173743a2076616c756520646f65736e27742066697420696e203132382062697473536166654d6174683a206d756c7469706c69636174696f6e206f766572666c6f77a2646970667358221220db1b8fa84d69c24d21985fea93b75feb6027a5ae0f4bb7295edb9c59f9e3164664736f6c63430007060033",
  "linkReferences": {},
  "deployedLinkReferences": {}
}