{
  "_format": "hh-sol-artifact-1",
  "contractName": "FtsoMedianMock",
  "sourceName": "contracts/ftso/mock/FtsoMedianMock.sol",
  "abi": [
    {
      "inputs": [
        {
          "internalType": "uint256",
          "name": "_start",
          "type": "uint256"
        },
        {
          "internalType": "uint256",
          "name": "_end",
          "type": "uint256"
        },
        {
          "internalType": "uint256[]",
          "name": "_index",
          "type": "uint256[]"
        },
        {
          "internalType": "uint256[]",
          "name": "_price",
          "type": "uint256[]"
        }
      ],
      "name": "closestPriceFix",
      "outputs": [
        {
          "internalType": "uint256",
          "name": "",
          "type": "uint256"
        }
      ],
      "stateMutability": "pure",
      "type": "function"
    },
    {
      "inputs": [
        {
          "internalType": "uint256[]",
          "name": "_prices",
          "type": "uint256[]"
        }
      ],
      "name": "computeSimple",
      "outputs": [
        {
          "internalType": "uint256",
          "name": "_finalMedianPrice",
          "type": "uint256"
        },
        {
          "internalType": "uint256[]",
          "name": "",
          "type": "uint256[]"
        }
      ],
      "stateMutability": "pure",
      "type": "function"
    },
    {
      "inputs": [
        {
          "internalType": "uint256[]",
          "name": "_price",
          "type": "uint256[]"
        },
        {
          "internalType": "uint256[]",
          "name": "_weight",
          "type": "uint256[]"
        }
      ],
      "name": "computeWeighted",
      "outputs": [
        {
          "internalType": "uint256[]",
          "name": "_index",
          "type": "uint256[]"
        },
        {
          "components": [
            {
              "internalType": "uint256",
              "name": "medianIndex",
              "type": "uint256"
            },
            {
              "internalType": "uint256",
              "name": "quartile1Index",
              "type": "uint256"
            },
            {
              "internalType": "uint256",
              "name": "quartile3Index",
              "type": "uint256"
            },
            {
              "internalType": "uint256",
              "name": "leftSum",
              "type": "uint256"
            },
            {
              "internalType": "uint256",
              "name": "rightSum",
              "type": "uint256"
            },
            {
              "internalType": "uint256",
              "name": "medianWeight",
              "type": "uint256"
            },
            {
              "internalType": "uint256",
              "name": "lowWeightSum",
              "type": "uint256"
            },
            {
              "internalType": "uint256",
              "name": "rewardedWeightSum",
              "type": "uint256"
            },
            {
              "internalType": "uint256",
              "name": "highWeightSum",
              "type": "uint256"
            },
            {
              "internalType": "uint256",
              "name": "finalMedianPrice",
              "type": "uint256"
            },
            {
              "internalType": "uint256",
              "name": "quartile1Price",
              "type": "uint256"
            },
            {
              "internalType": "uint256",
              "name": "quartile3Price",
              "type": "uint256"
            }
          ],
          "internalType": "struct FtsoMedian.Data",
          "name": "_d",
          "type": "tuple"
        },
        {
          "internalType": "uint256[]",
          "name": "",
          "type": "uint256[]"
        },
        {
          "internalType": "uint256[]",
          "name": "",
          "type": "uint256[]"
        }
      ],
      "stateMutability": "view",
      "type": "function"
    },
    {
      "inputs": [
        {
          "internalType": "uint256",
          "name": "_left0",
          "type": "uint256"
        },
        {
          "internalType": "uint256",
          "name": "_right0",
          "type": "uint256"
        },
        {
          "internalType": "uint256",
          "name": "_pivotId",
          "type": "uint256"
        },
        {
          "internalType": "uint256",
          "name": "_leftSum0",
          "type": "uint256"
        },
        {
          "internalType": "uint256",
          "name": "_rightSum0",
          "type": "uint256"
        },
        {
          "internalType": "uint256[]",
          "name": "_index",
          "type": "uint256[]"
        },
        {
          "internalType": "uint256[]",
          "name": "_price",
          "type": "uint256[]"
        },
        {
          "internalType": "uint256[]",
          "name": "_weight",
          "type": "uint256[]"
        }
      ],
      "name": "partition",
      "outputs": [
        {
          "internalType": "uint256",
          "name": "_pos",
          "type": "uint256"
        },
        {
          "internalType": "uint256",
          "name": "_leftSum",
          "type": "uint256"
        },
        {
          "internalType": "uint256",
          "name": "_rightSum",
          "type": "uint256"
        },
        {
          "internalType": "uint256[]",
          "name": "",
          "type": "uint256[]"
        },
        {
          "internalType": "uint256[]",
          "name": "",
          "type": "uint256[]"
        },
        {
          "internalType": "uint256[]",
          "name": "",
          "type": "uint256[]"
        }
      ],
      "stateMutability": "pure",
      "type": "function"
    },
    {
      "inputs": [
        {
          "internalType": "uint256",
          "name": "_start",
          "type": "uint256"
        },
        {
          "internalType": "uint256",
          "name": "_end",
          "type": "uint256"
        },
        {
          "internalType": "int256",
          "name": "_direction",
          "type": "int256"
        },
        {
          "internalType": "uint256",
          "name": "_sumInit",
          "type": "uint256"
        },
        {
          "internalType": "uint256[]",
          "name": "_index",
          "type": "uint256[]"
        },
        {
          "internalType": "uint256[]",
          "name": "_price",
          "type": "uint256[]"
        },
        {
          "internalType": "uint256[]",
          "name": "_weight",
          "type": "uint256[]"
        }
      ],
      "name": "samePriceFix",
      "outputs": [
        {
          "internalType": "uint256",
          "name": "_pos",
          "type": "uint256"
        },
        {
          "internalType": "uint256",
          "name": "_sum",
          "type": "uint256"
        },
        {
          "internalType": "uint256[]",
          "name": "",
          "type": "uint256[]"
        },
        {
          "internalType": "uint256[]",
          "name": "",
          "type": "uint256[]"
        },
        {
          "internalType": "uint256[]",
          "name": "",
          "type": "uint256[]"
        }
      ],
      "stateMutability": "pure",
      "type": "function"
    },
    {
      "inputs": [
        {
          "internalType": "uint256",
          "name": "_i",
          "type": "uint256"
        },
        {
          "internalType": "uint256",
          "name": "_j",
          "type": "uint256"
        },
        {
          "internalType": "uint256[]",
          "name": "_index",
          "type": "uint256[]"
        }
      ],
      "name": "swap",
      "outputs": [
        {
          "internalType": "uint256[]",
          "name": "",
          "type": "uint256[]"
        }
      ],
      "stateMutability": "pure",
      "type": "function"
    }
  ],
  "bytecode": "0x608060405234801561001057600080fd5b50611310806100206000396000f3fe608060405234801561001057600080fd5b50600436106100625760003560e01c8063053e146c146100675780631218fd131461009057806347ea4532146100b15780636094f29f146100d1578063768d2711146100f657806394a3af711461011a575b600080fd5b61007a610075366004610f15565b61013d565b604051610087919061120f565b60405180910390f35b6100a361009e366004610e33565b610156565b604051610087929190611218565b6100c46100bf366004610ec7565b610169565b6040516100879190611123565b6100e46100df366004611034565b61017d565b60405161008796959493929190611282565b610109610104366004610f89565b6101b8565b604051610087959493929190611231565b61012d610128366004610e66565b6101e4565b604051610087949392919061113d565b600061014b85858585610208565b90505b949350505050565b60006060610163836102c8565b93915050565b60606101768484846103ed565b5092915050565b600080600060608060606101978e8e8e8e8e8e8e8e610456565b91975095509350889250879150869050985098509850985098509892505050565b60008060608060606101cf8c8c8c8c8c8c8c610621565b909d909c50979a509598509396505050505050565b60606101ee610ce1565b6060806101fb86866106f5565b9097909695945092505050565b600083851415610240578183868151811061021f57fe5b60200260200101518151811061023157fe5b6020026020010151905061014e565b60008284876001018151811061025257fe5b60200260200101518151811061026457fe5b602002602001015190506000808760020190505b8681116102bc578486828151811061028c57fe5b60200260200101518151811061029e57fe5b60200260200101519150828210156102b4578192505b600101610278565b50909695505050505050565b8051600090806102d457fe5b60015b818110156103805760008482815181106102ed57fe5b6020026020010151905060008290505b60008111801561032257508186600183038151811061031857fe5b6020026020010151115b1561035e5785600182038151811061033657fe5b602002602001015186828151811061034a57fe5b6020908102919091010152600019016102fd565b8186828151811061036b57fe5b602090810291909101015250506001016102d7565b5060028104600180831614156103ad5783818151811061039c57fe5b6020026020010151925050506103e8565b60028482815181106103bb57fe5b60200260200101518560018403815181106103d257fe5b602002602001015101816103e257fe5b04925050505b919050565b818314156103fa57610451565b80828151811061040657fe5b602002602001015181848151811061041a57fe5b602002602001015182858151811061042e57fe5b6020026020010183858151811061044157fe5b6020908102919091010191909152525b505050565b60008060008085878b8151811061046957fe5b60200260200101518151811061047b57fe5b602002602001015190506000600267ffffffffffffffff8111801561049f57600080fd5b506040519080825280602002602001820160405280156104c9578160200160208202803683370190505b50905089816000815181106104da57fe5b60200260200101818152505088816001815181106104f457fe5b60209081029190910101528c8c61050c8d828c6103ed565b81805b828110156105d05760008c828151811061052557fe5b60200260200101519050868c828151811061053c57fe5b60200260200101511015610593578a818151811061055657fe5b60200260200101518660008151811061056b57fe5b60200260200101818151019150818152505061058883838f6103ed565b6001909201916105c7565b8a818151811061059f57fe5b6020026020010151866001815181106105b457fe5b6020026020010181815101915081815250505b5060010161050f565b506105dc82828d6103ed565b80846000815181106105ea57fe5b6020026020010151856001815181106105ff57fe5b602002602001015197509750975050505050505b985098509895505050505050565b60008085888a038802821361063c57898792509250506106e9565b600085878c8151811061064b57fe5b60200260200101518151811061065d57fe5b602090810291909101015190508a89016000815b60008c8e830302136106dd5789818151811061068957fe5b60200260200101519150838983815181106106a057fe5b602002602001015114156106d6578782815181106106ba57fe5b6020026020010151850394506106d183828c6103ed565b918b01915b8b01610671565b50508990039350909150505b97509795505050505050565b60606106ff610ce1565b83518067ffffffffffffffff8111801561071857600080fd5b50604051908082528060200260200182016040528015610742578160200160208202803683370190505b50925060005b81811015610770578084828151811061075d57fe5b6020908102919091010152600101610748565b506107876002600060018403600080888b8b610a14565b6080850152606084015280835283518591859181106107a257fe5b6020026020010151815181106107b457fe5b602090810291909101015160a08301819052608083015160608401518451920101906107ed578251600060c08501526020840152610841565b60048104836060015111610811578251606084015160c08501526020840152610841565b61083560016000600186600001510360008760a00151886080015101898c8c610a14565b5060c085015260208401525b825160001983011415610862578251600061010085015260408401526108ba565b60048104836080015111610887578251608084015161010085015260408401526108ba565b6108ad60038460000151600101600185038660a001518760600151016000898c8c610a14565b6101008601525060408401525b85848460000151815181106108cb57fe5b6020026020010151815181106108dd57fe5b6020908102919091010151610120840152600281048360a0015184606001510114801561090b575060028106155b1561093b576002610925846000015160018503878a610208565b846101200151018161093357fe5b046101208401525b610955836020015160006000198660c00151888b8b610621565b60c0850152602084015260408301516101008401516109809190600019850190600190888b8b610621565b61010085015260408401526020830151845187918691811061099e57fe5b6020026020010151815181106109b057fe5b60200260200101518361014001818152505085848460400151815181106109d357fe5b6020026020010151815181106109e557fe5b602090810291909101015161016084015261010083015160c08401519091030360e08301525090939092509050565b6000806000888a1415610a2e575088915086905085610613565b610a36610d42565b88815260208101889052610a48610d7f565b60208082018d905260408083018d90528051448184015242818301528151808203830181526060909101909152805191012060005b60208301516040840151610aaf9190816001818303018681610a9b57fe5b0601876000015188602001518f8f8f610456565b606087015260408601528084528a518b91908110610ac957fe5b602002602001015183606001818152505087836060015181518110610aea57fe5b6020026020010151846080018181525050836060015184604001518560800151010190508e60021415610bc55760028106600282040160a0850181905280820360c0860152604085015110801590610b4557508b8460a00151115b15610b6a57825160001901604084015260608401516080850151016020850152610bc0565b8360c001518460600151118015610b8457508a8460c00151115b15610ba5578251600101602084015260408401516080850151018452610bc0565b50505160408201516060909201519094509092509050610613565b610cdc565b8e60011415610c56576004810460a0850181905280820360c08601526040850151118015610bf657508b8460a00151115b15610c1b57825160001901604084015260608401516080850151016020850152610bc0565b8360c00151846060015110158015610b8457508a8460c001511115610ba5578251600101602084015260408401516080850151018452610bc0565b6004810460c08501819052810360a08501819052604085015110801590610c8057508b8460a00151115b15610ca557825160001901604084015260608401516080850151016020850152610cdc565b8360c001518460600151118015610cbf57508a8460c00151115b15610ba55782516001016020840152604084015160808501510184525b610a7d565b6040518061018001604052806000815260200160008152602001600081526020016000815260200160008152602001600081526020016000815260200160008152602001600081526020016000815260200160008152602001600081525090565b6040518060e00160405280600081526020016000815260200160008152602001600081526020016000815260200160008152602001600081525090565b6040518060800160405280600081526020016000815260200160008152602001600081525090565b600082601f830112610db7578081fd5b8135602067ffffffffffffffff80831115610dce57fe5b81830260405183828201018181108482111715610de757fe5b60405284815283810192508684018288018501891015610e05578687fd5b8692505b85831015610e27578035845292840192600192909201918401610e09565b50979650505050505050565b600060208284031215610e44578081fd5b813567ffffffffffffffff811115610e5a578182fd5b61014e84828501610da7565b60008060408385031215610e78578081fd5b823567ffffffffffffffff80821115610e8f578283fd5b610e9b86838701610da7565b93506020850135915080821115610eb0578283fd5b50610ebd85828601610da7565b9150509250929050565b600080600060608486031215610edb578081fd5b8335925060208401359150604084013567ffffffffffffffff811115610eff578182fd5b610f0b86828701610da7565b9150509250925092565b60008060008060808587031215610f2a578081fd5b8435935060208501359250604085013567ffffffffffffffff80821115610f4f578283fd5b610f5b88838901610da7565b93506060870135915080821115610f70578283fd5b50610f7d87828801610da7565b91505092959194509250565b600080600080600080600060e0888a031215610fa3578283fd5b87359650602088013595506040880135945060608801359350608088013567ffffffffffffffff80821115610fd6578485fd5b610fe28b838c01610da7565b945060a08a0135915080821115610ff7578384fd5b6110038b838c01610da7565b935060c08a0135915080821115611018578283fd5b506110258a828b01610da7565b91505092959891949750929550565b600080600080600080600080610100898b031215611050578081fd5b883597506020890135965060408901359550606089013594506080890135935060a089013567ffffffffffffffff8082111561108a578283fd5b6110968c838d01610da7565b945060c08b01359150808211156110ab578283fd5b6110b78c838d01610da7565b935060e08b01359150808211156110cc578283fd5b506110d98b828c01610da7565b9150509295985092959890939650565b6000815180845260208085019450808401835b83811015611118578151875295820195908201906001016110fc565b509495945050505050565b60006020825261113660208301846110e9565b9392505050565b60006101e0808352611151818401886110e9565b905085516020840152602086015160408401526040860151606084015260608601516080840152608086015160a084015260a086015160c084015260c086015160e084015260e086015161010081818601528088015191505061012081818601528088015191505061014081818601528088015191505061016081818601528088015161018086015250508281036101a08401526111ef81866110e9565b90508281036101c084015261120481856110e9565b979650505050505050565b90815260200190565b60008382526040602083015261014e60408301846110e9565b600086825285602083015260a0604083015261125060a08301866110e9565b828103606084015261126281866110e9565b9050828103608084015261127681856110e9565b98975050505050505050565b600087825286602083015285604083015260c060608301526112a760c08301866110e9565b82810360808401526112b981866110e9565b905082810360a08401526112cd81856110e9565b999850505050505050505056fea264697066735822122015fa111aa53df4c889353bf8be58087ad971e471f42a4c0279c19b681ffff8e464736f6c63430007060033",
  "linkReferences": {},
  "deployedLinkReferences": {}
}