{
  "_format": "hh-sol-artifact-1",
  "contractName": "StateConnector",
  "sourceName": "contracts/genesis/implementation/StateConnector.sol",
  "abi": [
    {
      "inputs": [],
      "stateMutability": "nonpayable",
      "type": "constructor"
    },
    {
      "anonymous": false,
      "inputs": [
        {
          "indexed": false,
          "internalType": "address",
          "name": "sender",
          "type": "address"
        },
        {
          "indexed": false,
          "internalType": "uint256",
          "name": "timestamp",
          "type": "uint256"
        },
        {
          "indexed": false,
          "internalType": "bytes",
          "name": "data",
          "type": "bytes"
        }
      ],
      "name": "AttestationRequest",
      "type": "event"
    },
    {
      "anonymous": false,
      "inputs": [
        {
          "indexed": true,
          "internalType": "uint256",
          "name": "roundId",
          "type": "uint256"
        },
        {
          "indexed": false,
          "internalType": "bytes32",
          "name": "merkleRoot",
          "type": "bytes32"
        }
      ],
      "name": "RoundFinalised",
      "type": "event"
    },
    {
      "inputs": [],
      "name": "BUFFER_TIMESTAMP_OFFSET",
      "outputs": [
        {
          "internalType": "uint256",
          "name": "",
          "type": "uint256"
        }
      ],
      "stateMutability": "view",
      "type": "function"
    },
    {
      "inputs": [],
      "name": "BUFFER_WINDOW",
      "outputs": [
        {
          "internalType": "uint256",
          "name": "",
          "type": "uint256"
        }
      ],
      "stateMutability": "view",
      "type": "function"
    },
    {
      "inputs": [],
      "name": "SIGNAL_COINBASE",
      "outputs": [
        {
          "internalType": "address",
          "name": "",
          "type": "address"
        }
      ],
      "stateMutability": "view",
      "type": "function"
    },
    {
      "inputs": [],
      "name": "TOTAL_STORED_BUFFERS",
      "outputs": [
        {
          "internalType": "uint256",
          "name": "",
          "type": "uint256"
        }
      ],
      "stateMutability": "view",
      "type": "function"
    },
    {
      "inputs": [],
      "name": "TOTAL_STORED_PROOFS",
      "outputs": [
        {
          "internalType": "uint256",
          "name": "",
          "type": "uint256"
        }
      ],
      "stateMutability": "view",
      "type": "function"
    },
    {
      "inputs": [
        {
          "internalType": "address",
          "name": "",
          "type": "address"
        }
      ],
      "name": "buffers",
      "outputs": [
        {
          "internalType": "uint256",
          "name": "latestVote",
          "type": "uint256"
        }
      ],
      "stateMutability": "view",
      "type": "function"
    },
    {
      "inputs": [
        {
          "internalType": "uint256",
          "name": "_bufferNumber",
          "type": "uint256"
        },
        {
          "internalType": "bytes32",
          "name": "_merkleRoot",
          "type": "bytes32"
        }
      ],
      "name": "finaliseRound",
      "outputs": [],
      "stateMutability": "nonpayable",
      "type": "function"
    },
    {
      "inputs": [
        {
          "internalType": "uint256",
          "name": "_bufferNumber",
          "type": "uint256"
        }
      ],
      "name": "getAttestation",
      "outputs": [
        {
          "internalType": "bytes32",
          "name": "_merkleRoot",
          "type": "bytes32"
        }
      ],
      "stateMutability": "view",
      "type": "function"
    },
    {
      "inputs": [],
      "name": "lastFinalizedRoundId",
      "outputs": [
        {
          "internalType": "uint256",
          "name": "_roundId",
          "type": "uint256"
        }
      ],
      "stateMutability": "view",
      "type": "function"
    },
    {
      "inputs": [
        {
          "internalType": "uint256",
          "name": "_roundId",
          "type": "uint256"
        }
      ],
      "name": "merkleRoot",
      "outputs": [
        {
          "internalType": "bytes32",
          "name": "",
          "type": "bytes32"
        }
      ],
      "stateMutability": "view",
      "type": "function"
    },
    {
      "inputs": [
        {
          "internalType": "uint256",
          "name": "",
          "type": "uint256"
        }
      ],
      "name": "merkleRoots",
      "outputs": [
        {
          "internalType": "bytes32",
          "name": "",
          "type": "bytes32"
        }
      ],
      "stateMutability": "view",
      "type": "function"
    },
    {
      "inputs": [
        {
          "internalType": "bytes",
          "name": "_data",
          "type": "bytes"
        }
      ],
      "name": "requestAttestations",
      "outputs": [],
      "stateMutability": "nonpayable",
      "type": "function"
    },
    {
      "inputs": [
        {
          "internalType": "uint256",
          "name": "_bufferNumber",
          "type": "uint256"
        },
        {
          "internalType": "bytes32",
          "name": "_commitHash",
          "type": "bytes32"
        },
        {
          "internalType": "bytes32",
          "name": "_merkleRoot",
          "type": "bytes32"
        },
        {
          "internalType": "bytes32",
          "name": "_randomNumber",
          "type": "bytes32"
        }
      ],
      "name": "submitAttestation",
      "outputs": [
        {
          "internalType": "bool",
          "name": "_isInitialBufferSlot",
          "type": "bool"
        }
      ],
      "stateMutability": "nonpayable",
      "type": "function"
    },
    {
      "inputs": [],
      "name": "totalBuffers",
      "outputs": [
        {
          "internalType": "uint256",
          "name": "",
          "type": "uint256"
        }
      ],
      "stateMutability": "view",
      "type": "function"
    }
  ],
  "bytecode": "0x608060405234801561001057600080fd5b5061078e806100206000396000f3fe608060405234801561001057600080fd5b50600436106100ea5760003560e01c8063cfd1fdad1161008c578063ec7424a011610066578063ec7424a014610222578063f417c9d81461022a578063f5f59a4a14610232578063f64b6fda1461023a576100ea565b8063cfd1fdad146101b2578063dd862157146101f5578063eaebf6d3146101fd576100ea565b80635f8c940d116100c85780635f8c940d1461014357806371c5ecb11461014b57806371e24574146101685780637ff6faa61461018e576100ea565b806329be4db2146100ef5780633c70b3571461011e5780634b8a125f1461013b575b600080fd5b61010c6004803603602081101561010557600080fd5b50356102aa565b60408051918252519081900360200190f35b61010c6004803603602081101561013457600080fd5b50356103b1565b61010c6104b3565b61010c6104bb565b61010c6004803603602081101561016157600080fd5b50356104c0565b61010c6004803603602081101561017e57600080fd5b50356001600160a01b03166104d8565b6101966104ed565b604080516001600160a01b039092168252519081900360200190f35b6101e1600480360360808110156101c857600080fd5b50803590602081013590604081013590606001356104f3565b604080519115158252519081900360200190f35b61010c6105cf565b6102206004803603604081101561021357600080fd5b5080359060200135610627565b005b61010c6106ca565b61010c6106d0565b61010c6106d6565b6102206004803603602081101561025057600080fd5b81019060208101813564010000000081111561026b57600080fd5b82018360208201111561027d57600080fd5b8035906020019184600183028401116401000000008311171561029f57600080fd5b5090925090506106db565b6000600182116102b957600080fd5b336000908152601060205260409020600901546000198301908111156102de57600080fd5b3360009081526010602052604081206003600019840106600381106102ff57fe5b600390810291909101543360009081526010602052604090209092509083066003811061032857fe5b600390810291909101600101543360009081526010602052604081209195509184066003811061035457fe5b6003020160020154905083813360405160200180848152602001838152602001826001600160a01b0316815260200193505050506040516020818303038152906040528051906020012082146103a957600080fd5b505050919050565b6000600360115410156103fe576040805162461bcd60e51b815260206004820152601060248201526f746f74616c42756666657273203c203360801b604482015290519081900360640190fd5b600360115403821115610448576040805162461bcd60e51b815260206004820152600d60248201526c1b9bdd08199a5b985b1a5e9959609a1b604482015290519081900360640190fd5b611a4082108061045e5750601154611a42190182115b610499576040805162461bcd60e51b8152602060048201526007602482015266195e1c1a5c995960ca1b604482015290519081900360640190fd5b6012611a408306611a4081106104ab57fe5b015492915050565b636184740081565b600381565b601281611a4081106104d157600080fd5b0154905081565b60106020526000908152604090206009015481565b61dead81565b6000605a63618473ff194201048514610548576040805162461bcd60e51b81526020600482015260126024820152713bb937b73390313ab33332b9273ab6b132b960711b604482015290519081900360640190fd5b336000818152601060208181526040808420600981018b905581516060810183528a81528084018a9052918201889052949093525290600387066003811061058c57fe5b600302016000820151816000015560208201518160010155604082015181600201559050506011548511156105c3575060016105c7565b5060005b949350505050565b60006003601154101561061c576040805162461bcd60e51b815260206004820152601060248201526f746f74616c42756666657273203c203360801b604482015290519081900360640190fd5b506011546002190190565b6003821161063457600080fd5b605a63618473ff19420104821461064a57600080fd5b601154821161065857600080fd5b334114801561066857504161dead145b156106c6576011829055806012611a40600219850106611a40811061068957fe5b01556040805182815290516002198401917f8ffd19aa79a62d0764e560d21b1245698310783be781d7d80b38233d4d7d288c919081900360200190a25b5050565b60115481565b611a4081565b605a81565b7f7cbc6812801238dea8eb58356bb62b95dbce8dc28498aa30e7d2c6873ed36cc73342848460405180856001600160a01b03168152602001848152602001806020018281038252848482818152602001925080828437600083820152604051601f909101601f191690920182900397509095505050505050a1505056fea26469706673582212202e8e4a5f9f06893f9344104aaffa14f25fb170995a86af5070f257ffe4c066cc64736f6c63430007060033",
  "linkReferences": {},
  "deployedLinkReferences": {}
}