{
  "_format": "hh-sol-artifact-1",
  "contractName": "AssetToken",
  "sourceName": "contracts/mockXAsset/mock/AssetToken.sol",
  "abi": [
    {
      "inputs": [
        {
          "internalType": "address",
          "name": "_governance",
          "type": "address"
        },
        {
          "internalType": "string",
          "name": "_name",
          "type": "string"
        },
        {
          "internalType": "string",
          "name": "_symbol",
          "type": "string"
        },
        {
          "internalType": "uint8",
          "name": "decimals_",
          "type": "uint8"
        }
      ],
      "stateMutability": "nonpayable",
      "type": "constructor"
    },
    {
      "anonymous": false,
      "inputs": [
        {
          "indexed": true,
          "internalType": "address",
          "name": "owner",
          "type": "address"
        },
        {
          "indexed": true,
          "internalType": "address",
          "name": "spender",
          "type": "address"
        },
        {
          "indexed": false,
          "internalType": "uint256",
          "name": "value",
          "type": "uint256"
        }
      ],
      "name": "Approval",
      "type": "event"
    },
    {
      "anonymous": false,
      "inputs": [
        {
          "indexed": false,
          "internalType": "uint256",
          "name": "_blockNumber",
          "type": "uint256"
        }
      ],
      "name": "CreatedTotalSupplyCache",
      "type": "event"
    },
    {
      "anonymous": false,
      "inputs": [
        {
          "indexed": false,
          "internalType": "address",
          "name": "proposedGovernance",
          "type": "address"
        }
      ],
      "name": "GovernanceProposed",
      "type": "event"
    },
    {
      "anonymous": false,
      "inputs": [
        {
          "indexed": false,
          "internalType": "address",
          "name": "oldGovernance",
          "type": "address"
        },
        {
          "indexed": false,
          "internalType": "address",
          "name": "newGoveranance",
          "type": "address"
        }
      ],
      "name": "GovernanceUpdated",
      "type": "event"
    },
    {
      "anonymous": false,
      "inputs": [
        {
          "indexed": true,
          "internalType": "address",
          "name": "from",
          "type": "address"
        },
        {
          "indexed": true,
          "internalType": "address",
          "name": "to",
          "type": "address"
        },
        {
          "indexed": false,
          "internalType": "uint256",
          "name": "value",
          "type": "uint256"
        }
      ],
      "name": "Transfer",
      "type": "event"
    },
    {
      "anonymous": false,
      "inputs": [
        {
          "indexed": false,
          "internalType": "uint256",
          "name": "_contractType",
          "type": "uint256"
        },
        {
          "indexed": false,
          "internalType": "address",
          "name": "_oldContractAddress",
          "type": "address"
        },
        {
          "indexed": false,
          "internalType": "address",
          "name": "_newContractAddress",
          "type": "address"
        }
      ],
      "name": "VotePowerContractChanged",
      "type": "event"
    },
    {
      "inputs": [
        {
          "internalType": "address",
          "name": "owner",
          "type": "address"
        },
        {
          "internalType": "address",
          "name": "spender",
          "type": "address"
        }
      ],
      "name": "allowance",
      "outputs": [
        {
          "internalType": "uint256",
          "name": "",
          "type": "uint256"
        }
      ],
      "stateMutability": "view",
      "type": "function"
    },
    {
      "inputs": [
        {
          "internalType": "address",
          "name": "spender",
          "type": "address"
        },
        {
          "internalType": "uint256",
          "name": "amount",
          "type": "uint256"
        }
      ],
      "name": "approve",
      "outputs": [
        {
          "internalType": "bool",
          "name": "",
          "type": "bool"
        }
      ],
      "stateMutability": "nonpayable",
      "type": "function"
    },
    {
      "inputs": [
        {
          "internalType": "address",
          "name": "_owner",
          "type": "address"
        },
        {
          "internalType": "uint256",
          "name": "_count",
          "type": "uint256"
        }
      ],
      "name": "balanceHistoryCleanup",
      "outputs": [
        {
          "internalType": "uint256",
          "name": "",
          "type": "uint256"
        }
      ],
      "stateMutability": "nonpayable",
      "type": "function"
    },
    {
      "inputs": [
        {
          "internalType": "address",
          "name": "account",
          "type": "address"
        }
      ],
      "name": "balanceOf",
      "outputs": [
        {
          "internalType": "uint256",
          "name": "",
          "type": "uint256"
        }
      ],
      "stateMutability": "view",
      "type": "function"
    },
    {
      "inputs": [
        {
          "internalType": "address",
          "name": "_owner",
          "type": "address"
        },
        {
          "internalType": "uint256",
          "name": "_blockNumber",
          "type": "uint256"
        }
      ],
      "name": "balanceOfAt",
      "outputs": [
        {
          "internalType": "uint256",
          "name": "",
          "type": "uint256"
        }
      ],
      "stateMutability": "view",
      "type": "function"
    },
    {
      "inputs": [
        {
          "internalType": "address[]",
          "name": "_owners",
          "type": "address[]"
        },
        {
          "internalType": "uint256",
          "name": "_blockNumber",
          "type": "uint256"
        }
      ],
      "name": "batchVotePowerOfAt",
      "outputs": [
        {
          "internalType": "uint256[]",
          "name": "",
          "type": "uint256[]"
        }
      ],
      "stateMutability": "view",
      "type": "function"
    },
    {
      "inputs": [
        {
          "internalType": "address",
          "name": "from",
          "type": "address"
        },
        {
          "internalType": "uint256",
          "name": "amount",
          "type": "uint256"
        }
      ],
      "name": "burn",
      "outputs": [],
      "stateMutability": "nonpayable",
      "type": "function"
    },
    {
      "inputs": [],
      "name": "claimGovernance",
      "outputs": [],
      "stateMutability": "nonpayable",
      "type": "function"
    },
    {
      "inputs": [],
      "name": "cleanupBlockNumber",
      "outputs": [
        {
          "internalType": "uint256",
          "name": "",
          "type": "uint256"
        }
      ],
      "stateMutability": "view",
      "type": "function"
    },
    {
      "inputs": [],
      "name": "decimals",
      "outputs": [
        {
          "internalType": "uint8",
          "name": "",
          "type": "uint8"
        }
      ],
      "stateMutability": "view",
      "type": "function"
    },
    {
      "inputs": [
        {
          "internalType": "address",
          "name": "spender",
          "type": "address"
        },
        {
          "internalType": "uint256",
          "name": "subtractedValue",
          "type": "uint256"
        }
      ],
      "name": "decreaseAllowance",
      "outputs": [
        {
          "internalType": "bool",
          "name": "",
          "type": "bool"
        }
      ],
      "stateMutability": "nonpayable",
      "type": "function"
    },
    {
      "inputs": [
        {
          "internalType": "address",
          "name": "_to",
          "type": "address"
        },
        {
          "internalType": "uint256",
          "name": "_bips",
          "type": "uint256"
        }
      ],
      "name": "delegate",
      "outputs": [],
      "stateMutability": "nonpayable",
      "type": "function"
    },
    {
      "inputs": [
        {
          "internalType": "address",
          "name": "_to",
          "type": "address"
        },
        {
          "internalType": "uint256",
          "name": "_amount",
          "type": "uint256"
        }
      ],
      "name": "delegateExplicit",
      "outputs": [],
      "stateMutability": "nonpayable",
      "type": "function"
    },
    {
      "inputs": [
        {
          "internalType": "address",
          "name": "_owner",
          "type": "address"
        }
      ],
      "name": "delegatesOf",
      "outputs": [
        {
          "internalType": "address[]",
          "name": "_delegateAddresses",
          "type": "address[]"
        },
        {
          "internalType": "uint256[]",
          "name": "_bips",
          "type": "uint256[]"
        },
        {
          "internalType": "uint256",
          "name": "_count",
          "type": "uint256"
        },
        {
          "internalType": "uint256",
          "name": "_delegationMode",
          "type": "uint256"
        }
      ],
      "stateMutability": "view",
      "type": "function"
    },
    {
      "inputs": [
        {
          "internalType": "address",
          "name": "_owner",
          "type": "address"
        },
        {
          "internalType": "uint256",
          "name": "_blockNumber",
          "type": "uint256"
        }
      ],
      "name": "delegatesOfAt",
      "outputs": [
        {
          "internalType": "address[]",
          "name": "_delegateAddresses",
          "type": "address[]"
        },
        {
          "internalType": "uint256[]",
          "name": "_bips",
          "type": "uint256[]"
        },
        {
          "internalType": "uint256",
          "name": "_count",
          "type": "uint256"
        },
        {
          "internalType": "uint256",
          "name": "_delegationMode",
          "type": "uint256"
        }
      ],
      "stateMutability": "view",
      "type": "function"
    },
    {
      "inputs": [
        {
          "internalType": "address",
          "name": "_who",
          "type": "address"
        }
      ],
      "name": "delegationModeOf",
      "outputs": [
        {
          "internalType": "uint256",
          "name": "",
          "type": "uint256"
        }
      ],
      "stateMutability": "view",
      "type": "function"
    },
    {
      "inputs": [],
      "name": "governance",
      "outputs": [
        {
          "internalType": "address",
          "name": "",
          "type": "address"
        }
      ],
      "stateMutability": "view",
      "type": "function"
    },
    {
      "inputs": [],
      "name": "governanceVotePower",
      "outputs": [
        {
          "internalType": "contract IGovernanceVotePower",
          "name": "",
          "type": "address"
        }
      ],
      "stateMutability": "view",
      "type": "function"
    },
    {
      "inputs": [
        {
          "internalType": "address",
          "name": "spender",
          "type": "address"
        },
        {
          "internalType": "uint256",
          "name": "addedValue",
          "type": "uint256"
        }
      ],
      "name": "increaseAllowance",
      "outputs": [
        {
          "internalType": "bool",
          "name": "",
          "type": "bool"
        }
      ],
      "stateMutability": "nonpayable",
      "type": "function"
    },
    {
      "inputs": [
        {
          "internalType": "address",
          "name": "_governance",
          "type": "address"
        }
      ],
      "name": "initialise",
      "outputs": [],
      "stateMutability": "nonpayable",
      "type": "function"
    },
    {
      "inputs": [
        {
          "internalType": "address",
          "name": "to",
          "type": "address"
        },
        {
          "internalType": "uint256",
          "name": "amount",
          "type": "uint256"
        }
      ],
      "name": "mint",
      "outputs": [],
      "stateMutability": "nonpayable",
      "type": "function"
    },
    {
      "inputs": [],
      "name": "name",
      "outputs": [
        {
          "internalType": "string",
          "name": "",
          "type": "string"
        }
      ],
      "stateMutability": "view",
      "type": "function"
    },
    {
      "inputs": [
        {
          "internalType": "address",
          "name": "_governance",
          "type": "address"
        }
      ],
      "name": "proposeGovernance",
      "outputs": [],
      "stateMutability": "nonpayable",
      "type": "function"
    },
    {
      "inputs": [],
      "name": "proposedGovernance",
      "outputs": [
        {
          "internalType": "address",
          "name": "",
          "type": "address"
        }
      ],
      "stateMutability": "view",
      "type": "function"
    },
    {
      "inputs": [],
      "name": "readVotePowerContract",
      "outputs": [
        {
          "internalType": "contract IVPContractEvents",
          "name": "",
          "type": "address"
        }
      ],
      "stateMutability": "view",
      "type": "function"
    },
    {
      "inputs": [
        {
          "internalType": "address",
          "name": "_who",
          "type": "address"
        },
        {
          "internalType": "uint256",
          "name": "_blockNumber",
          "type": "uint256"
        }
      ],
      "name": "revokeDelegationAt",
      "outputs": [],
      "stateMutability": "nonpayable",
      "type": "function"
    },
    {
      "inputs": [
        {
          "internalType": "address",
          "name": "_cleanerContract",
          "type": "address"
        }
      ],
      "name": "setCleanerContract",
      "outputs": [],
      "stateMutability": "nonpayable",
      "type": "function"
    },
    {
      "inputs": [
        {
          "internalType": "uint256",
          "name": "_blockNumber",
          "type": "uint256"
        }
      ],
      "name": "setCleanupBlockNumber",
      "outputs": [],
      "stateMutability": "nonpayable",
      "type": "function"
    },
    {
      "inputs": [
        {
          "internalType": "address",
          "name": "_cleanupBlockNumberManager",
          "type": "address"
        }
      ],
      "name": "setCleanupBlockNumberManager",
      "outputs": [],
      "stateMutability": "nonpayable",
      "type": "function"
    },
    {
      "inputs": [
        {
          "internalType": "contract IIGovernanceVotePower",
          "name": "_governanceVotePower",
          "type": "address"
        }
      ],
      "name": "setGovernanceVotePower",
      "outputs": [],
      "stateMutability": "nonpayable",
      "type": "function"
    },
    {
      "inputs": [
        {
          "internalType": "contract IIVPContract",
          "name": "_vpContract",
          "type": "address"
        }
      ],
      "name": "setReadVpContract",
      "outputs": [],
      "stateMutability": "nonpayable",
      "type": "function"
    },
    {
      "inputs": [
        {
          "internalType": "contract IIVPContract",
          "name": "_vpContract",
          "type": "address"
        }
      ],
      "name": "setWriteVpContract",
      "outputs": [],
      "stateMutability": "nonpayable",
      "type": "function"
    },
    {
      "inputs": [],
      "name": "symbol",
      "outputs": [
        {
          "internalType": "string",
          "name": "",
          "type": "string"
        }
      ],
      "stateMutability": "view",
      "type": "function"
    },
    {
      "inputs": [],
      "name": "totalSupply",
      "outputs": [
        {
          "internalType": "uint256",
          "name": "",
          "type": "uint256"
        }
      ],
      "stateMutability": "view",
      "type": "function"
    },
    {
      "inputs": [
        {
          "internalType": "uint256",
          "name": "_blockNumber",
          "type": "uint256"
        }
      ],
      "name": "totalSupplyAt",
      "outputs": [
        {
          "internalType": "uint256",
          "name": "",
          "type": "uint256"
        }
      ],
      "stateMutability": "view",
      "type": "function"
    },
    {
      "inputs": [
        {
          "internalType": "uint256",
          "name": "_blockNumber",
          "type": "uint256"
        }
      ],
      "name": "totalSupplyCacheCleanup",
      "outputs": [
        {
          "internalType": "uint256",
          "name": "",
          "type": "uint256"
        }
      ],
      "stateMutability": "nonpayable",
      "type": "function"
    },
    {
      "inputs": [
        {
          "internalType": "uint256",
          "name": "_count",
          "type": "uint256"
        }
      ],
      "name": "totalSupplyHistoryCleanup",
      "outputs": [
        {
          "internalType": "uint256",
          "name": "",
          "type": "uint256"
        }
      ],
      "stateMutability": "nonpayable",
      "type": "function"
    },
    {
      "inputs": [],
      "name": "totalVotePower",
      "outputs": [
        {
          "internalType": "uint256",
          "name": "",
          "type": "uint256"
        }
      ],
      "stateMutability": "view",
      "type": "function"
    },
    {
      "inputs": [
        {
          "internalType": "uint256",
          "name": "_blockNumber",
          "type": "uint256"
        }
      ],
      "name": "totalVotePowerAt",
      "outputs": [
        {
          "internalType": "uint256",
          "name": "",
          "type": "uint256"
        }
      ],
      "stateMutability": "view",
      "type": "function"
    },
    {
      "inputs": [
        {
          "internalType": "uint256",
          "name": "_blockNumber",
          "type": "uint256"
        }
      ],
      "name": "totalVotePowerAtCached",
      "outputs": [
        {
          "internalType": "uint256",
          "name": "",
          "type": "uint256"
        }
      ],
      "stateMutability": "nonpayable",
      "type": "function"
    },
    {
      "inputs": [
        {
          "internalType": "address",
          "name": "recipient",
          "type": "address"
        },
        {
          "internalType": "uint256",
          "name": "amount",
          "type": "uint256"
        }
      ],
      "name": "transfer",
      "outputs": [
        {
          "internalType": "bool",
          "name": "",
          "type": "bool"
        }
      ],
      "stateMutability": "nonpayable",
      "type": "function"
    },
    {
      "inputs": [
        {
          "internalType": "address",
          "name": "sender",
          "type": "address"
        },
        {
          "internalType": "address",
          "name": "recipient",
          "type": "address"
        },
        {
          "internalType": "uint256",
          "name": "amount",
          "type": "uint256"
        }
      ],
      "name": "transferFrom",
      "outputs": [
        {
          "internalType": "bool",
          "name": "",
          "type": "bool"
        }
      ],
      "stateMutability": "nonpayable",
      "type": "function"
    },
    {
      "inputs": [
        {
          "internalType": "address",
          "name": "_governance",
          "type": "address"
        }
      ],
      "name": "transferGovernance",
      "outputs": [],
      "stateMutability": "nonpayable",
      "type": "function"
    },
    {
      "inputs": [],
      "name": "undelegateAll",
      "outputs": [],
      "stateMutability": "nonpayable",
      "type": "function"
    },
    {
      "inputs": [
        {
          "internalType": "address[]",
          "name": "_delegateAddresses",
          "type": "address[]"
        }
      ],
      "name": "undelegateAllExplicit",
      "outputs": [
        {
          "internalType": "uint256",
          "name": "_remainingDelegation",
          "type": "uint256"
        }
      ],
      "stateMutability": "nonpayable",
      "type": "function"
    },
    {
      "inputs": [
        {
          "internalType": "address",
          "name": "_owner",
          "type": "address"
        }
      ],
      "name": "undelegatedVotePowerOf",
      "outputs": [
        {
          "internalType": "uint256",
          "name": "",
          "type": "uint256"
        }
      ],
      "stateMutability": "view",
      "type": "function"
    },
    {
      "inputs": [
        {
          "internalType": "address",
          "name": "_owner",
          "type": "address"
        },
        {
          "internalType": "uint256",
          "name": "_blockNumber",
          "type": "uint256"
        }
      ],
      "name": "undelegatedVotePowerOfAt",
      "outputs": [
        {
          "internalType": "uint256",
          "name": "",
          "type": "uint256"
        }
      ],
      "stateMutability": "view",
      "type": "function"
    },
    {
      "inputs": [
        {
          "internalType": "address",
          "name": "_from",
          "type": "address"
        },
        {
          "internalType": "address",
          "name": "_to",
          "type": "address"
        }
      ],
      "name": "votePowerFromTo",
      "outputs": [
        {
          "internalType": "uint256",
          "name": "",
          "type": "uint256"
        }
      ],
      "stateMutability": "view",
      "type": "function"
    },
    {
      "inputs": [
        {
          "internalType": "address",
          "name": "_from",
          "type": "address"
        },
        {
          "internalType": "address",
          "name": "_to",
          "type": "address"
        },
        {
          "internalType": "uint256",
          "name": "_blockNumber",
          "type": "uint256"
        }
      ],
      "name": "votePowerFromToAt",
      "outputs": [
        {
          "internalType": "uint256",
          "name": "",
          "type": "uint256"
        }
      ],
      "stateMutability": "view",
      "type": "function"
    },
    {
      "inputs": [
        {
          "internalType": "address",
          "name": "_owner",
          "type": "address"
        }
      ],
      "name": "votePowerOf",
      "outputs": [
        {
          "internalType": "uint256",
          "name": "",
          "type": "uint256"
        }
      ],
      "stateMutability": "view",
      "type": "function"
    },
    {
      "inputs": [
        {
          "internalType": "address",
          "name": "_owner",
          "type": "address"
        },
        {
          "internalType": "uint256",
          "name": "_blockNumber",
          "type": "uint256"
        }
      ],
      "name": "votePowerOfAt",
      "outputs": [
        {
          "internalType": "uint256",
          "name": "",
          "type": "uint256"
        }
      ],
      "stateMutability": "view",
      "type": "function"
    },
    {
      "inputs": [
        {
          "internalType": "address",
          "name": "_owner",
          "type": "address"
        },
        {
          "internalType": "uint256",
          "name": "_blockNumber",
          "type": "uint256"
        }
      ],
      "name": "votePowerOfAtCached",
      "outputs": [
        {
          "internalType": "uint256",
          "name": "",
          "type": "uint256"
        }
      ],
      "stateMutability": "nonpayable",
      "type": "function"
    },
    {
      "inputs": [
        {
          "internalType": "address",
          "name": "_owner",
          "type": "address"
        },
        {
          "internalType": "uint256",
          "name": "_blockNumber",
          "type": "uint256"
        }
      ],
      "name": "votePowerOfAtIgnoringRevocation",
      "outputs": [
        {
          "internalType": "uint256",
          "name": "",
          "type": "uint256"
        }
      ],
      "stateMutability": "view",
      "type": "function"
    },
    {
      "inputs": [],
      "name": "vpContractInitialized",
      "outputs": [
        {
          "internalType": "bool",
          "name": "",
          "type": "bool"
        }
      ],
      "stateMutability": "view",
      "type": "function"
    },
    {
      "inputs": [],
      "name": "writeVotePowerContract",
      "outputs": [
        {
          "internalType": "contract IVPContractEvents",
          "name": "",
          "type": "address"
        }
      ],
      "stateMutability": "view",
      "type": "function"
    }
  ],
  "bytecode": "0x60806040526011805460ff60a01b191690553480156200001e57600080fd5b506040516200454638038062004546833981810160405260808110156200004457600080fd5b8151602083018051604051929492938301929190846401000000008211156200006c57600080fd5b9083019060208201858111156200008257600080fd5b82516401000000008111828201881017156200009d57600080fd5b82525081516020918201929091019080838360005b83811015620000cc578181015183820152602001620000b2565b50505050905090810190601f168015620000fa5780820380516001836020036101000a031916815260200191505b50604052602001805160405193929190846401000000008211156200011e57600080fd5b9083019060208201858111156200013457600080fd5b82516401000000008111828201881017156200014f57600080fd5b82525081516020918201929091019080838360005b838110156200017e57818101518382015260200162000164565b50505050905090810190601f168015620001ac5780820380516001836020036101000a031916815260200191505b506040526020908101518551909350869250859185918491829185918591620001dc916003919085019062000386565b508051620001f290600490602084019062000386565b50506005805460ff19166012179055506001600160a01b038116156200021d576200021d816200028c565b506001600160a01b0381166200026d576040805162461bcd60e51b815260206004820152601060248201526f5f676f7665726e616e6365207a65726f60801b604482015290519081900360640190fd5b5050505062000282816200037060201b60201c565b5050505062000432565b600d54600160a01b900460ff1615620002ec576040805162461bcd60e51b815260206004820152601460248201527f696e697469616c6973656420213d2066616c7365000000000000000000000000604482015290519081900360640190fd5b600d805460ff60a01b1916600160a01b179055600c54604080516001600160a01b039283168152918316602083015280517f434a2db650703b36c824e745330d6397cdaa9ee2cc891a4938ae853e1c50b68d9281900390910190a1600c80546001600160a01b039092166001600160a01b0319928316179055600d80549091169055565b6005805460ff191660ff92909216919091179055565b828054600181600116156101000203166002900490600052602060002090601f016020900481019282620003be576000855562000409565b82601f10620003d957805160ff191683800117855562000409565b8280016001018555821562000409579182015b8281111562000409578251825591602001919060010190620003ec565b50620004179291506200041b565b5090565b5b808211156200041757600081556001016200041c565b61410480620004426000396000f3fe608060405234801561001057600080fd5b506004361061035d5760003560e01c806392bfe6d8116101d3578063caeb942b11610104578063e64767aa116100a2578063f5f3d4f71161007c578063f5f3d4f714610c8f578063f62f8f3a14610c97578063f683776714610cb4578063f6a494af14610cda5761035d565b8063e64767aa14610c01578063ed475a7914610c37578063f0e292c914610c635761035d565b8063d6aa0b77116100de578063d6aa0b7714610b79578063dd62ed3e14610b9f578063deea13e714610bcd578063e587497e14610bd55761035d565b8063caeb942b14610b0a578063d06dc3ad14610b27578063d38bfff414610b535761035d565b8063a457c2d711610171578063bbd6fbf81161014b578063bbd6fbf814610a82578063be0ca74714610aae578063c373a08e14610adc578063c787a8fc14610b025761035d565b8063a457c2d714610a22578063a9059cbb14610a4e578063b302f39314610a7a5761035d565b80639b3baa0e116101ad5780639b3baa0e146109a25780639ca2231a146109aa5780639d6a890f146109d05780639dc29fac146109f65761035d565b806392bfe6d81461095157806395d89b411461097d578063981b24d0146109855761035d565b806340c10f19116102ad57806360f7ac971161024b5780637de5b8ed116102255780637de5b8ed1461082a5780637f4fcaa9146108f757806383035a821461091d5780638c2b8ae1146109495761035d565b806360f7ac97146107d657806370a08231146107de578063755d10a4146108045761035d565b80634ee2cd7e116102875780634ee2cd7e146106f95780635aa6e675146107255780635d36b1901461072d5780635d6d11eb146107355761035d565b806340c10f19146105bd57806343ea370b146105e957806349e3c7e5146106065761035d565b806318160ddd1161031a578063313ce567116102f4578063313ce5671461053057806331d12a161461054e57806339509351146105745780633e5aa26a146105a05761035d565b806318160ddd146104ce5780631fec092a146104d657806323b872dd146104fa5761035d565b8063026e402b1461036257806304bb4e431461039057806306fdde03146103ce578063095ea7b31461044b57806313de97f51461048b578063142d1018146104a8575b600080fd5b61038e6004803603604081101561037857600080fd5b506001600160a01b038135169060200135610d00565b005b6103bc600480360360408110156103a657600080fd5b506001600160a01b038135169060200135610d9b565b60408051918252519081900360200190f35b6103d6610e2e565b6040805160208082528351818301528351919283929083019185019080838360005b838110156104105781810151838201526020016103f8565b50505050905090810190601f16801561043d5780820380516001836020036101000a031916815260200191505b509250505060405180910390f35b6104776004803603604081101561046157600080fd5b506001600160a01b038135169060200135610e3d565b604080519115158252519081900360200190f35b61038e600480360360208110156104a157600080fd5b5035610e5a565b6103bc600480360360208110156104be57600080fd5b50356001600160a01b031661105e565b6103bc6110e8565b6104de6110ee565b604080516001600160a01b039092168252519081900360200190f35b6104776004803603606081101561051057600080fd5b506001600160a01b038135811691602081013590911690604001356110fd565b610538611185565b6040805160ff9092168252519081900360200190f35b61038e6004803603602081101561056457600080fd5b50356001600160a01b031661118f565b6104776004803603604081101561058a57600080fd5b506001600160a01b03813516906020013561132f565b6103bc600480360360208110156105b657600080fd5b503561137d565b61038e600480360360408110156105d357600080fd5b506001600160a01b038135169060200135611388565b6103bc600480360360208110156105ff57600080fd5b503561139e565b6106a96004803603604081101561061c57600080fd5b810190602081018135600160201b81111561063657600080fd5b82018360208201111561064857600080fd5b803590602001918460208302840111600160201b8311171561066957600080fd5b9190808060200260200160405190810160405280939291908181526020018383602002808284376000920191909152509295505091359250611459915050565b60408051602080825283518183015283519192839290830191858101910280838360005b838110156106e55781810151838201526020016106cd565b505050509050019250505060405180910390f35b6103bc6004803603604081101561070f57600080fd5b506001600160a01b0381351690602001356115bb565b6104de6115c7565b61038e6115d6565b6103bc6004803603602081101561074b57600080fd5b810190602081018135600160201b81111561076557600080fd5b82018360208201111561077757600080fd5b803590602001918460208302840111600160201b8311171561079857600080fd5b919080806020026020016040519081016040528093929190818152602001838360200280828437600092019190915250929550611698945050505050565b6104de61174a565b6103bc600480360360208110156107f457600080fd5b50356001600160a01b0316611759565b61038e6004803603602081101561081a57600080fd5b50356001600160a01b0316611774565b6108506004803603602081101561084057600080fd5b50356001600160a01b03166119dc565b604051808060200180602001858152602001848152602001838103835287818151815260200191508051906020019060200280838360005b838110156108a0578181015183820152602001610888565b50505050905001838103825286818151815260200191508051906020019060200280838360005b838110156108df5781810151838201526020016108c7565b50505050905001965050505050505060405180910390f35b61038e6004803603602081101561090d57600080fd5b50356001600160a01b0316611b9f565b6103bc6004803603604081101561093357600080fd5b506001600160a01b038135169060200135611bc9565b6104de611c38565b6103bc6004803603604081101561096757600080fd5b506001600160a01b038135169060200135611c47565b6103d6611ca5565b6103bc6004803603602081101561099b57600080fd5b5035611caf565b6104de611cba565b61038e600480360360208110156109c057600080fd5b50356001600160a01b0316611cc9565b61038e600480360360208110156109e657600080fd5b50356001600160a01b0316611df4565b61038e60048036036040811015610a0c57600080fd5b506001600160a01b038135169060200135611ece565b61047760048036036040811015610a3857600080fd5b506001600160a01b038135169060200135611ee0565b61047760048036036040811015610a6457600080fd5b506001600160a01b038135169060200135611f48565b61038e611f5c565b61038e60048036036040811015610a9857600080fd5b506001600160a01b038135169060200135611fdc565b6103bc60048036036040811015610ac457600080fd5b506001600160a01b0381358116916020013516612149565b61038e60048036036020811015610af257600080fd5b50356001600160a01b03166121c0565b61047761221c565b6103bc60048036036020811015610b2057600080fd5b503561222c565b61038e60048036036040811015610b3d57600080fd5b506001600160a01b038135169060200135612237565b61038e60048036036020811015610b6957600080fd5b50356001600160a01b0316612258565b6103bc60048036036020811015610b8f57600080fd5b50356001600160a01b03166122d1565b6103bc60048036036040811015610bb557600080fd5b506001600160a01b0381358116916020013516612337565b6103bc612362565b6103bc60048036036040811015610beb57600080fd5b506001600160a01b03813516906020013561236c565b6103bc60048036036060811015610c1757600080fd5b506001600160a01b038135811691602081013590911690604001356123e0565b61085060048036036040811015610c4d57600080fd5b506001600160a01b038135169060200135612494565b6103bc60048036036040811015610c7957600080fd5b506001600160a01b038135169060200135612660565b6103bc6126cd565b6103bc60048036036020811015610cad57600080fd5b50356126d7565b6103bc60048036036020811015610cca57600080fd5b50356001600160a01b0316612742565b61038e60048036036020811015610cf057600080fd5b50356001600160a01b0316612798565b610d08612917565b6001600160a01b0316636230001a3384610d2133611759565b856040518563ffffffff1660e01b815260040180856001600160a01b03168152602001846001600160a01b03168152602001838152602001828152602001945050505050600060405180830381600087803b158015610d7f57600080fd5b505af1158015610d93573d6000803e3d6000fd5b505050505050565b6000610da5612978565b6001600160a01b03166304bb4e4384846040518363ffffffff1660e01b815260040180836001600160a01b031681526020018281526020019250505060206040518083038186803b158015610df957600080fd5b505afa158015610e0d573d6000803e3d6000fd5b505050506040513d6020811015610e2357600080fd5b505190505b92915050565b6060610e386129d9565b905090565b6000610e51610e4a612a6f565b8484612a73565b50600192915050565b600c546001600160a01b0316331480610e7d57506011546001600160a01b031633145b610ece576040805162461bcd60e51b815260206004820152601a60248201527f6f6e6c7920676f7665726e616e6365206f72206d616e61676572000000000000604482015290519081900360640190fd5b610ed781612b5f565b600e546001600160a01b031615610f4e57600e54604080516313de97f560e01b81526004810184905290516001600160a01b03909216916313de97f59160248082019260009290919082900301818387803b158015610f3557600080fd5b505af1158015610f49573d6000803e3d6000fd5b505050505b600f546001600160a01b031615801590610f795750600e54600f546001600160a01b03908116911614155b15610fe457600f54604080516313de97f560e01b81526004810184905290516001600160a01b03909216916313de97f59160248082019260009290919082900301818387803b158015610fcb57600080fd5b505af1158015610fdf573d6000803e3d6000fd5b505050505b6010546001600160a01b03161561105b57601054604080516313de97f560e01b81526004810184905290516001600160a01b03909216916313de97f59160248082019260009290919082900301818387803b15801561104257600080fd5b505af1158015611056573d6000803e3d6000fd5b505050505b50565b6000611068612978565b6001600160a01b031663142d1018836040518263ffffffff1660e01b815260040180826001600160a01b0316815260200191505060206040518083038186803b1580156110b457600080fd5b505afa1580156110c8573d6000803e3d6000fd5b505050506040513d60208110156110de57600080fd5b505190505b919050565b60025490565b600f546001600160a01b031690565b600061110a848484612be3565b61117a84611116612a6f565b61117585604051806060016040528060288152602001613f89602891396001600160a01b038a16600090815260016020526040812090611154612a6f565b6001600160a01b031681526020810191909152604001600020549190612d3e565b612a73565b5060015b9392505050565b6000610e38612dd5565b611197612dde565b6001600160a01b038116156112c057306001600160a01b0316816001600160a01b031663653718836040518163ffffffff1660e01b815260040160206040518083038186803b1580156111e957600080fd5b505afa1580156111fd573d6000803e3d6000fd5b505050506040513d602081101561121357600080fd5b50516001600160a01b03161461125a5760405162461bcd60e51b81526004018080602001828103825260228152602001806140ad6022913960400191505060405180910390fd5b806001600160a01b03166313de97f5611271612e31565b6040518263ffffffff1660e01b815260040180828152602001915050600060405180830381600087803b1580156112a757600080fd5b505af11580156112bb573d6000803e3d6000fd5b505050505b600e5460408051600081526001600160a01b03928316602082015291831682820152517fbec98a6c0f609cda6b9f23b95824ba6ac733cb57edd17d344f2f2796844007399181900360600190a1600e80546001600160a01b0319166001600160a01b0392909216919091179055565b6000610e5161133c612a6f565b84611175856001600061134d612a6f565b6001600160a01b03908116825260208083019390935260409182016000908120918c168152925290205490612e37565b6000610e2882611caf565b611390612dde565b61139a8282612e91565b5050565b600b546000906001600160a01b031633146113f8576040805162461bcd60e51b815260206004820152601560248201527413db9b1e4818db19585b995c8818dbdb9d1c9858dd605a1b604482015290519081900360640190fd5b600a54821061144e576040805162461bcd60e51b815260206004820152601e60248201527f4e6f20636c65616e757020616674657220636c65616e757020626c6f636b0000604482015290519081900360640190fd5b610e28600983612f81565b6060611463612978565b6001600160a01b03166349e3c7e584846040518363ffffffff1660e01b81526004018080602001838152602001828103825284818151815260200191508051906020019060200280838360005b838110156114c85781810151838201526020016114b0565b50505050905001935050505060006040518083038186803b1580156114ec57600080fd5b505afa158015611500573d6000803e3d6000fd5b505050506040513d6000823e601f3d908101601f19168201604052602081101561152957600080fd5b8101908080516040519392919084600160201b82111561154857600080fd5b90830190602082018581111561155d57600080fd5b82518660208202830111600160201b8211171561157957600080fd5b82525081516020918201928201910280838360005b838110156115a657818101518382015260200161158e565b50505050905001604052505050905092915050565b600061117e8383612fb5565b600c546001600160a01b031681565b600d546001600160a01b03163314611625576040805162461bcd60e51b815260206004820152600d60248201526c1b9bdd0818db185a5b585a5b9d609a1b604482015290519081900360640190fd5b600c54600d54604080516001600160a01b03938416815292909116602083015280517f434a2db650703b36c824e745330d6397cdaa9ee2cc891a4938ae853e1c50b68d9281900390910190a1600d8054600c80546001600160a01b03199081166001600160a01b03841617909155169055565b60006116a2612917565b6001600160a01b0316630f8b8af733846040518363ffffffff1660e01b815260040180836001600160a01b0316815260200180602001828103825283818151815260200191508051906020019060200280838360005b838110156117105781810151838201526020016116f8565b505050509050019350505050602060405180830381600087803b15801561173657600080fd5b505af11580156110c8573d6000803e3d6000fd5b600d546001600160a01b031681565b6001600160a01b031660009081526020819052604090205490565b61177c612dde565b6001600160a01b0381161561196d57306001600160a01b0316816001600160a01b031663653718836040518163ffffffff1660e01b815260040160206040518083038186803b1580156117ce57600080fd5b505afa1580156117e2573d6000803e3d6000fd5b505050506040513d60208110156117f857600080fd5b50516001600160a01b03161461183f5760405162461bcd60e51b81526004018080602001828103825260228152602001806140ad6022913960400191505060405180910390fd5b601154600160a01b900460ff1615806118b95750806001600160a01b031663aa94d3f26040518163ffffffff1660e01b815260040160206040518083038186803b15801561188c57600080fd5b505afa1580156118a0573d6000803e3d6000fd5b505050506040513d60208110156118b657600080fd5b50515b6118f45760405162461bcd60e51b8152600401808060200182810382526029815260200180613f3a6029913960400191505060405180910390fd5b806001600160a01b03166313de97f561190b612e31565b6040518263ffffffff1660e01b815260040180828152602001915050600060405180830381600087803b15801561194157600080fd5b505af1158015611955573d6000803e3d6000fd5b50506011805460ff60a01b1916600160a01b17905550505b600f5460408051600181526001600160a01b03928316602082015291831682820152517fbec98a6c0f609cda6b9f23b95824ba6ac733cb57edd17d344f2f2796844007399181900360600190a1600f80546001600160a01b0319166001600160a01b0392909216919091179055565b6060806000806119ea612978565b6001600160a01b0316637de5b8ed866040518263ffffffff1660e01b815260040180826001600160a01b0316815260200191505060006040518083038186803b158015611a3657600080fd5b505afa158015611a4a573d6000803e3d6000fd5b505050506040513d6000823e601f3d908101601f191682016040526080811015611a7357600080fd5b8101908080516040519392919084600160201b821115611a9257600080fd5b908301906020820185811115611aa757600080fd5b82518660208202830111600160201b82111715611ac357600080fd5b82525081516020918201928201910280838360005b83811015611af0578181015183820152602001611ad8565b5050505090500160405260200180516040519392919084600160201b821115611b1857600080fd5b908301906020820185811115611b2d57600080fd5b82518660208202830111600160201b82111715611b4957600080fd5b82525081516020918201928201910280838360005b83811015611b76578181015183820152602001611b5e565b505050509190910160409081526020830151920151959b949a5090985093965091945050505050565b611ba7612dde565b601180546001600160a01b0319166001600160a01b0392909216919091179055565b6000611bd3612978565b6001600160a01b0316633150392784611bec86866115bb565b856040518463ffffffff1660e01b815260040180846001600160a01b03168152602001838152602001828152602001935050505060206040518083038186803b158015610df957600080fd5b6010546001600160a01b031690565b6000611c51612978565b6001600160a01b03166392bfe6d884846040518363ffffffff1660e01b815260040180836001600160a01b031681526020018281526020019250505060206040518083038186803b158015610df957600080fd5b6060610e3861300d565b6000610e288261306e565b600e546001600160a01b031690565b611cd1612dde565b306001600160a01b0316816001600160a01b031663653718836040518163ffffffff1660e01b815260040160206040518083038186803b158015611d1457600080fd5b505afa158015611d28573d6000803e3d6000fd5b505050506040513d6020811015611d3e57600080fd5b50516001600160a01b031614611d855760405162461bcd60e51b815260040180806020018281038252603d815260200180613fb1603d913960400191505060405180910390fd5b60105460408051600281526001600160a01b03928316602082015291831682820152517fbec98a6c0f609cda6b9f23b95824ba6ac733cb57edd17d344f2f2796844007399181900360600190a1601080546001600160a01b0319166001600160a01b0392909216919091179055565b600d54600160a01b900460ff1615611e4a576040805162461bcd60e51b8152602060048201526014602482015273696e697469616c6973656420213d2066616c736560601b604482015290519081900360640190fd5b600d805460ff60a01b1916600160a01b179055600c54604080516001600160a01b039283168152918316602083015280517f434a2db650703b36c824e745330d6397cdaa9ee2cc891a4938ae853e1c50b68d9281900390910190a1600c80546001600160a01b039092166001600160a01b0319928316179055600d80549091169055565b611ed6612dde565b61139a82826130bd565b6000610e51611eed612a6f565b84611175856040518060600160405280602581526020016140886025913960016000611f17612a6f565b6001600160a01b03908116825260208083019390935260409182016000908120918d16815292529020549190612d3e565b6000610e51611f55612a6f565b8484612be3565b611f64612917565b6001600160a01b03166305109ecf33611f7c33611759565b6040518363ffffffff1660e01b815260040180836001600160a01b0316815260200182815260200192505050600060405180830381600087803b158015611fc257600080fd5b505af1158015611fd6573d6000803e3d6000fd5b50505050565b600f54600e546001600160a01b039182169116811561208757816001600160a01b031663c7c62fab338661201033886115bb565b876040518563ffffffff1660e01b815260040180856001600160a01b03168152602001846001600160a01b03168152602001838152602001828152602001945050505050600060405180830381600087803b15801561206e57600080fd5b505af1158015612082573d6000803e3d6000fd5b505050505b816001600160a01b0316816001600160a01b0316141580156120b157506001600160a01b03811615155b15611fd657806001600160a01b031663c7c62fab33866120d133886115bb565b876040518563ffffffff1660e01b815260040180856001600160a01b03168152602001846001600160a01b03168152602001838152602001828152602001945050505050600060405180830381600087803b15801561212f57600080fd5b505af1925050508015612140575060015b611fd657611fd6565b6000612153612978565b6001600160a01b0316639dc6b9f2848461216c87611759565b6040518463ffffffff1660e01b815260040180846001600160a01b03168152602001836001600160a01b03168152602001828152602001935050505060206040518083038186803b158015610df957600080fd5b6121c8612dde565b600d80546001600160a01b0383166001600160a01b0319909116811790915560408051918252517f1f95fb40be3a947982072902a887b521248d1d8931a39eb38f84f4d6fd758b699181900360200190a150565b601154600160a01b900460ff1681565b6000610e28826131b9565b61223f612917565b6001600160a01b031663404d9e823384610d2133611759565b612260612dde565b600c54604080516001600160a01b039283168152918316602083015280517f434a2db650703b36c824e745330d6397cdaa9ee2cc891a4938ae853e1c50b68d9281900390910190a1600c80546001600160a01b039092166001600160a01b0319928316179055600d80549091169055565b60006122db612978565b6001600160a01b0316634a03d556836122f385611759565b6040518363ffffffff1660e01b815260040180836001600160a01b031681526020018281526020019250505060206040518083038186803b1580156110b457600080fd5b6001600160a01b03918216600090815260016020908152604080832093909416825291909152205490565b6000610e38612e31565b6000612376612978565b6001600160a01b031663e587497e84846040518363ffffffff1660e01b815260040180836001600160a01b0316815260200182815260200192505050602060405180830381600087803b1580156123cc57600080fd5b505af1158015610e0d573d6000803e3d6000fd5b60006123ea612978565b6001600160a01b031663833aca92858561240488876115bb565b866040518563ffffffff1660e01b815260040180856001600160a01b03168152602001846001600160a01b0316815260200183815260200182815260200194505050505060206040518083038186803b15801561246057600080fd5b505afa158015612474573d6000803e3d6000fd5b505050506040513d602081101561248a57600080fd5b5051949350505050565b6060806000806124a2612978565b6001600160a01b031663ed475a7987876040518363ffffffff1660e01b815260040180836001600160a01b031681526020018281526020019250505060006040518083038186803b1580156124f657600080fd5b505afa15801561250a573d6000803e3d6000fd5b505050506040513d6000823e601f3d908101601f19168201604052608081101561253357600080fd5b8101908080516040519392919084600160201b82111561255257600080fd5b90830190602082018581111561256757600080fd5b82518660208202830111600160201b8211171561258357600080fd5b82525081516020918201928201910280838360005b838110156125b0578181015183820152602001612598565b5050505090500160405260200180516040519392919084600160201b8211156125d857600080fd5b9083019060208201858111156125ed57600080fd5b82518660208202830111600160201b8211171561260957600080fd5b82525081516020918201928201910280838360005b8381101561263657818101518382015260200161261e565b505050509190910160409081526020830151920151959c949b509099509397509195505050505050565b600b546000906001600160a01b031633146126ba576040805162461bcd60e51b815260206004820152601560248201527413db9b1e4818db19585b995c8818dbdb9d1c9858dd605a1b604482015290519081900360640190fd5b600a5461117e90600690859085906132a7565b6000610e386110e8565b600b546000906001600160a01b03163314612731576040805162461bcd60e51b815260206004820152601560248201527413db9b1e4818db19585b995c8818dbdb9d1c9858dd605a1b604482015290519081900360640190fd5b600a54610e289060079084906132ed565b600061274c612978565b6001600160a01b031663f6837767836040518263ffffffff1660e01b815260040180826001600160a01b0316815260200191505060206040518083038186803b1580156110b457600080fd5b6127a0612dde565b6127a9816133da565b600e546001600160a01b03161561282157600e546040805163f6a494af60e01b81526001600160a01b0384811660048301529151919092169163f6a494af91602480830192600092919082900301818387803b15801561280857600080fd5b505af115801561281c573d6000803e3d6000fd5b505050505b600f546001600160a01b03161580159061284c5750600e54600f546001600160a01b03908116911614155b156128b857600f546040805163f6a494af60e01b81526001600160a01b0384811660048301529151919092169163f6a494af91602480830192600092919082900301818387803b15801561289f57600080fd5b505af11580156128b3573d6000803e3d6000fd5b505050505b6010546001600160a01b03161561105b576010546040805163f6a494af60e01b81526001600160a01b0384811660048301529151919092169163f6a494af91602480830192600092919082900301818387803b15801561104257600080fd5b600f546000906001600160a01b031680610e38576040805162461bcd60e51b815260206004820152601e60248201527f546f6b656e206d697373696e67207772697465205650436f6e74726163740000604482015290519081900360640190fd5b600e546000906001600160a01b031680610e38576040805162461bcd60e51b815260206004820152601d60248201527f546f6b656e206d697373696e672072656164205650436f6e7472616374000000604482015290519081900360640190fd5b60038054604080516020601f6002600019610100600188161502019095169490940493840181900481028201810190925282815260609390929091830182828015612a655780601f10612a3a57610100808354040283529160200191612a65565b820191906000526020600020905b815481529060010190602001808311612a4857829003601f168201915b5050505050905090565b3390565b6001600160a01b038316612ab85760405162461bcd60e51b81526004018080602001828103825260248152602001806140346024913960400191505060405180910390fd5b6001600160a01b038216612afd5760405162461bcd60e51b8152600401808060200182810382526022815260200180613e9d6022913960400191505060405180910390fd5b6001600160a01b03808416600081815260016020908152604080832094871680845294825291829020859055815185815291517f8c5be1e5ebec7d5bd14f71427d1e84f3dd0314c0f7b2291e5b200ac8c7c3b9259281900390910190a3505050565b600a54811015612ba05760405162461bcd60e51b8152600401808060200182810382526028815260200180613ee56028913960400191505060405180910390fd5b438110612bde5760405162461bcd60e51b8152600401808060200182810382526021815260200180613e7c6021913960400191505060405180910390fd5b600a55565b6001600160a01b038316612c285760405162461bcd60e51b815260040180806020018281038252602581526020018061400f6025913960400191505060405180910390fd5b6001600160a01b038216612c6d5760405162461bcd60e51b8152600401808060200182810382526023815260200180613e376023913960400191505060405180910390fd5b612c788383836133fc565b612cb581604051806060016040528060268152602001613ebf602691396001600160a01b0386166000908152602081905260409020549190612d3e565b6001600160a01b038085166000908152602081905260408082209390935590841681522054612ce49082612e37565b6001600160a01b038084166000818152602081815260409182902094909455805185815290519193928716927fddf252ad1be2c89b69c2b068fc378daa952ba7f163c4a11628f55a4df523b3ef92918290030190a3505050565b60008184841115612dcd5760405162461bcd60e51b81526004018080602001828103825283818151815260200191508051906020019080838360005b83811015612d92578181015183820152602001612d7a565b50505050905090810190601f168015612dbf5780820380516001836020036101000a031916815260200191505b509250505060405180910390fd5b505050900390565b60055460ff1690565b600c546001600160a01b03163314612e2f576040805162461bcd60e51b815260206004820152600f60248201526e6f6e6c7920676f7665726e616e636560881b604482015290519081900360640190fd5b565b600a5490565b60008282018381101561117e576040805162461bcd60e51b815260206004820152601b60248201527f536166654d6174683a206164646974696f6e206f766572666c6f770000000000604482015290519081900360640190fd5b6001600160a01b038216612eec576040805162461bcd60e51b815260206004820152601f60248201527f45524332303a206d696e7420746f20746865207a65726f206164647265737300604482015290519081900360640190fd5b612ef8600083836133fc565b600254612f059082612e37565b6002556001600160a01b038216600090815260208190526040902054612f2b9082612e37565b6001600160a01b0383166000818152602081815260408083209490945583518581529351929391927fddf252ad1be2c89b69c2b068fc378daa952ba7f163c4a11628f55a4df523b3ef9281900390910190a35050565b60008181526020839052604081205415612fac57506000818152602083905260408120556001610e28565b50600092915050565b600081600a54811015612ff95760405162461bcd60e51b815260040180806020018281038252602d815260200180613f0d602d913960400191505060405180910390fd5b6130056006858561360b565b949350505050565b60048054604080516020601f6002600019610100600188161502019095169490940493840181900481028201810190925282815260609390929091830182828015612a655780601f10612a3a57610100808354040283529160200191612a65565b600081600a548110156130b25760405162461bcd60e51b815260040180806020018281038252602d815260200180613f0d602d913960400191505060405180910390fd5b61117e600784613636565b6001600160a01b0382166131025760405162461bcd60e51b8152600401808060200182810382526021815260200180613fee6021913960400191505060405180910390fd5b61310e826000836133fc565b61314b81604051806060016040528060228152602001613e5a602291396001600160a01b0385166000908152602081905260409020549190612d3e565b6001600160a01b0383166000908152602081905260409020556002546131719082613779565b6002556040805182815290516000916001600160a01b038516917fddf252ad1be2c89b69c2b068fc378daa952ba7f163c4a11628f55a4df523b3ef9181900360200190a35050565b600081600a548110156131fd5760405162461bcd60e51b815260040180806020018281038252602d815260200180613f0d602d913960400191505060405180910390fd5b438310613251576040805162461bcd60e51b815260206004820181905260248201527f43616e206f6e6c79206265207573656420666f72207061737420626c6f636b73604482015290519081900360640190fd5b60008061326160096007876137d6565b91509150801561329f576040805186815290517ffec477a10b4fcdfdf1114eb32b3caf6118b2d76d20e1fcb70007274bb4b616be9181900360200190a15b509392505050565b60006001600160a01b038416156132e2576001600160a01b03841660009081526020869052604090206132db9084846132ed565b9050613005565b506000949350505050565b6000816132fc5750600061117e565b6001840154600160401b90046001600160401b03168061332057600091505061117e565b60018501546001600160401b0316600061334661333d8388612e37565b60018503613834565b9050815b818110801561337b575060018101600090815260208990526040902054600160c01b90046001600160401b03168610155b156133975760008181526020899052604081205560010161334a565b828111156133cc576133a88161384a565b60018901805467ffffffffffffffff19166001600160401b03929092169190911790555b919091039695505050505050565b600b80546001600160a01b0319166001600160a01b0392909216919091179055565b816001600160a01b0316836001600160a01b03161415613463576040805162461bcd60e51b815260206004820152601760248201527f43616e6e6f74207472616e7366657220746f2073656c66000000000000000000604482015290519081900360640190fd5b60006001600160a01b03841661347a576000613483565b61348384611759565b905060006001600160a01b03841661349c5760006134a5565b6134a584611759565b600f549091506001600160a01b0316801561353f576040805163756da1b160e11b81526001600160a01b038881166004830152878116602483015260448201869052606482018590526084820187905291519183169163eadb43629160a48082019260009290919082900301818387803b15801561352257600080fd5b505af1158015613536573d6000803e3d6000fd5b50505050613564565b601154600160a01b900460ff16613564576011805460ff60a01b1916600160a01b1790555b6010546001600160a01b031680156135f7576040805163756da1b160e11b81526001600160a01b038981166004830152888116602483015260448201879052606482018690526084820188905291519183169163eadb43629160a48082019260009290919082900301818387803b1580156135de57600080fd5b505af11580156135f2573d6000803e3d6000fd5b505050505b613602878787613892565b50505050505050565b6001600160a01b038216600090815260208490526040812061362d8184613636565b95945050505050565b6001820154600090600160401b90046001600160401b03168061365d576000915050610e28565b438310158061368f57506000198101600090815260208590526040902054600160c01b90046001600160401b03168310155b156136b757600019016000908152602084905260409020546001600160c01b03169050610e28565b60018401546001600160401b039081166000818152602087905260409020549091600160c01b909104168410156137305780156137255760405162461bcd60e51b81526004018080602001828103825260308152602001806140586030913960400191505060405180910390fd5b600092505050610e28565b60018501546000906137569087908490600160401b90046001600160401b0316886138d7565b6000908152602087905260409020546001600160c01b0316935050505092915050565b6000828211156137d0576040805162461bcd60e51b815260206004820152601e60248201527f536166654d6174683a207375627472616374696f6e206f766572666c6f770000604482015290519081900360640190fd5b50900390565b600081815260208490526040812054819080156137fc576000190191506000905061382c565b60006138088686613636565b9050613815816001612e37565b600086815260208990526040902055925060019150505b935093915050565b6000818310613843578161117e565b5090919050565b6000600160401b821061388e5760405162461bcd60e51b8152600401808060200182810382526026815260200180613f636026913960400191505060405180910390fd5b5090565b6001600160a01b0383166138af576138aa8282613961565b6138d2565b6001600160a01b0382166138c7576138aa83826139be565b6138d2838383613a6d565b505050565b600083816138e6856001613779565b90505b81811115613957576000613913600261390d60016139078688612e37565b90612e37565b90613aa3565b600081815260208a90526040902054909150600160c01b90046001600160401b0316851061394357809250613951565b61394e816001613779565b91505b506138e9565b5095945050505050565b60006139718261390785436115bb565b905061397f60068483613b0a565b600a546139939060069085906002906132a7565b506139ac6139a48361390743611caf565b600790613b28565b600a54611fd6906007906002906132ed565b6000613a048260405180604001604052806016815260200175213ab937103a37b7903134b3903337b91037bbb732b960511b8152506139fd86436115bb565b9190612d3e565b9050613a1260068483613b0a565b600a54613a269060069085906002906132a7565b506139ac6139a4836040518060400160405280601d81526020017f4275726e20746f6f2062696720666f7220746f74616c20737570706c790000008152506139fd43611caf565b613a7a6006848484613ce9565b600a54613a8e9060069085906002906132a7565b50600a54611fd69060069084906002906132a7565b6000808211613af9576040805162461bcd60e51b815260206004820152601a60248201527f536166654d6174683a206469766973696f6e206279207a65726f000000000000604482015290519081900360640190fd5b818381613b0257fe5b049392505050565b6001600160a01b0382166000908152602084905260409020611fd681835b6001820154600160401b90046001600160401b031680613bdf576040518060400160405280613b5684613d78565b6001600160c01b03168152602001613b6d4361384a565b6001600160401b03908116909152600080805260208681526040909120835181549490920151909216600160c01b026001600160c01b039182166001600160c01b0319909416939093171691909117905560018301805467ffffffffffffffff60401b1916600160401b1790556138d2565b600019810160009081526020849052604090208054600160c01b90046001600160401b031643811415613c3557613c1584613d78565b82546001600160c01b0319166001600160c01b0391909116178255611056565b804311613c3e57fe5b6040518060400160405280613c5286613d78565b6001600160c01b03168152602001613c694361384a565b6001600160401b039081169091526000858152602088815260409091208351815494909201518316600160c01b026001600160c01b039283166001600160c01b0319909516949094179091169290921790915560018087018054918601909216600160401b0267ffffffffffffffff60401b199091161790555050505050565b80613cf357611fd6565b6001600160a01b038316158015613d1157506001600160a01b038216155b15613d1857fe5b6001600160a01b03831615613d4c576000613d3d82613d378787613dd2565b90613779565b9050613d4a858583613b0a565b505b6001600160a01b03821615611fd6576000613d6b826139078786613dd2565b9050611056858483613b0a565b6000600160c01b821061388e576040805162461bcd60e51b815260206004820152601d60248201527f76616c756520646f65736e27742066697420696e203139322062697473000000604482015290519081900360640190fd5b6001600160a01b0381166000908152602083905260408120613005816001810154600090600160401b90046001600160401b031680613e155760009150506110e3565b6000190160009081526020929092525060409020546001600160c01b03169056fe45524332303a207472616e7366657220746f20746865207a65726f206164647265737345524332303a206275726e20616d6f756e7420657863656564732062616c616e6365436c65616e757020626c6f636b206d75737420626520696e20746865207061737445524332303a20617070726f766520746f20746865207a65726f206164647265737345524332303a207472616e7366657220616d6f756e7420657863656564732062616c616e6365436c65616e757020626c6f636b206e756d626572206d757374206e65766572206465637265617365436865636b506f696e7461626c653a2072656164696e672066726f6d20636c65616e65642d757020626c6f636b5650436f6e7472616374206e6f7420636f6e6669677572656420666f72207265706c6163656d656e7453616665436173743a2076616c756520646f65736e27742066697420696e203634206269747345524332303a207472616e7366657220616d6f756e74206578636565647320616c6c6f77616e6365476f7665726e616e636520766f746520706f77657220636f6e747261637420646f6573206e6f742062656c6f6e6720746f207468697320746f6b656e2e45524332303a206275726e2066726f6d20746865207a65726f206164647265737345524332303a207472616e736665722066726f6d20746865207a65726f206164647265737345524332303a20617070726f76652066726f6d20746865207a65726f2061646472657373436865636b506f696e74486973746f72793a2072656164696e672066726f6d20636c65616e65642d757020626c6f636b45524332303a2064656372656173656420616c6c6f77616e63652062656c6f77207a65726f5650436f6e7472616374206e6f74206f776e6564206279207468697320746f6b656ea26469706673582212204fc70684db8208f38a7463bf50100eaa7fc945afe60b12bc90d70fd7fdda64d864736f6c63430007060033",
  "linkReferences": {},
  "deployedLinkReferences": {}
}