{
  "_format": "hh-sol-artifact-1",
  "contractName": "InflationMock",
  "sourceName": "contracts/inflation/mock/InflationMock.sol",
  "abi": [
    {
      "stateMutability": "payable",
      "type": "fallback"
    },
    {
      "inputs": [],
      "name": "DEFAULT_FALLBACK_VALUE",
      "outputs": [
        {
          "internalType": "bytes",
          "name": "",
          "type": "bytes"
        }
      ],
      "stateMutability": "view",
      "type": "function"
    },
    {
      "inputs": [],
      "name": "MOCKS_LIST_END",
      "outputs": [
        {
          "internalType": "bytes",
          "name": "",
          "type": "bytes"
        }
      ],
      "stateMutability": "view",
      "type": "function"
    },
    {
      "inputs": [],
      "name": "MOCKS_LIST_END_HASH",
      "outputs": [
        {
          "internalType": "bytes32",
          "name": "",
          "type": "bytes32"
        }
      ],
      "stateMutability": "view",
      "type": "function"
    },
    {
      "inputs": [],
      "name": "MOCKS_LIST_START",
      "outputs": [
        {
          "internalType": "bytes32",
          "name": "",
          "type": "bytes32"
        }
      ],
      "stateMutability": "view",
      "type": "function"
    },
    {
      "inputs": [],
      "name": "SENTINEL_ANY_MOCKS",
      "outputs": [
        {
          "internalType": "bytes4",
          "name": "",
          "type": "bytes4"
        }
      ],
      "stateMutability": "view",
      "type": "function"
    },
    {
      "inputs": [],
      "name": "doNotReceiveMoreThan",
      "outputs": [
        {
          "internalType": "uint256",
          "name": "",
          "type": "uint256"
        }
      ],
      "stateMutability": "view",
      "type": "function"
    },
    {
      "inputs": [
        {
          "internalType": "bytes",
          "name": "response",
          "type": "bytes"
        }
      ],
      "name": "givenAnyReturn",
      "outputs": [],
      "stateMutability": "nonpayable",
      "type": "function"
    },
    {
      "inputs": [
        {
          "internalType": "address",
          "name": "response",
          "type": "address"
        }
      ],
      "name": "givenAnyReturnAddress",
      "outputs": [],
      "stateMutability": "nonpayable",
      "type": "function"
    },
    {
      "inputs": [
        {
          "internalType": "bool",
          "name": "response",
          "type": "bool"
        }
      ],
      "name": "givenAnyReturnBool",
      "outputs": [],
      "stateMutability": "nonpayable",
      "type": "function"
    },
    {
      "inputs": [
        {
          "internalType": "uint256",
          "name": "response",
          "type": "uint256"
        }
      ],
      "name": "givenAnyReturnUint",
      "outputs": [],
      "stateMutability": "nonpayable",
      "type": "function"
    },
    {
      "inputs": [],
      "name": "givenAnyRevert",
      "outputs": [],
      "stateMutability": "nonpayable",
      "type": "function"
    },
    {
      "inputs": [
        {
          "internalType": "string",
          "name": "message",
          "type": "string"
        }
      ],
      "name": "givenAnyRevertWithMessage",
      "outputs": [],
      "stateMutability": "nonpayable",
      "type": "function"
    },
    {
      "inputs": [],
      "name": "givenAnyRunOutOfGas",
      "outputs": [],
      "stateMutability": "nonpayable",
      "type": "function"
    },
    {
      "inputs": [
        {
          "internalType": "bytes",
          "name": "call",
          "type": "bytes"
        },
        {
          "internalType": "bytes",
          "name": "response",
          "type": "bytes"
        }
      ],
      "name": "givenCalldataReturn",
      "outputs": [],
      "stateMutability": "nonpayable",
      "type": "function"
    },
    {
      "inputs": [
        {
          "internalType": "bytes",
          "name": "call",
          "type": "bytes"
        },
        {
          "internalType": "address",
          "name": "response",
          "type": "address"
        }
      ],
      "name": "givenCalldataReturnAddress",
      "outputs": [],
      "stateMutability": "nonpayable",
      "type": "function"
    },
    {
      "inputs": [
        {
          "internalType": "bytes",
          "name": "call",
          "type": "bytes"
        },
        {
          "internalType": "bool",
          "name": "response",
          "type": "bool"
        }
      ],
      "name": "givenCalldataReturnBool",
      "outputs": [],
      "stateMutability": "nonpayable",
      "type": "function"
    },
    {
      "inputs": [
        {
          "internalType": "bytes",
          "name": "call",
          "type": "bytes"
        },
        {
          "internalType": "uint256",
          "name": "response",
          "type": "uint256"
        }
      ],
      "name": "givenCalldataReturnUint",
      "outputs": [],
      "stateMutability": "nonpayable",
      "type": "function"
    },
    {
      "inputs": [
        {
          "internalType": "bytes",
          "name": "call",
          "type": "bytes"
        }
      ],
      "name": "givenCalldataRevert",
      "outputs": [],
      "stateMutability": "nonpayable",
      "type": "function"
    },
    {
      "inputs": [
        {
          "internalType": "bytes",
          "name": "call",
          "type": "bytes"
        },
        {
          "internalType": "string",
          "name": "message",
          "type": "string"
        }
      ],
      "name": "givenCalldataRevertWithMessage",
      "outputs": [],
      "stateMutability": "nonpayable",
      "type": "function"
    },
    {
      "inputs": [
        {
          "internalType": "bytes",
          "name": "call",
          "type": "bytes"
        }
      ],
      "name": "givenCalldataRunOutOfGas",
      "outputs": [],
      "stateMutability": "nonpayable",
      "type": "function"
    },
    {
      "inputs": [
        {
          "internalType": "bytes",
          "name": "call",
          "type": "bytes"
        },
        {
          "internalType": "bytes",
          "name": "response",
          "type": "bytes"
        }
      ],
      "name": "givenMethodReturn",
      "outputs": [],
      "stateMutability": "nonpayable",
      "type": "function"
    },
    {
      "inputs": [
        {
          "internalType": "bytes",
          "name": "call",
          "type": "bytes"
        },
        {
          "internalType": "address",
          "name": "response",
          "type": "address"
        }
      ],
      "name": "givenMethodReturnAddress",
      "outputs": [],
      "stateMutability": "nonpayable",
      "type": "function"
    },
    {
      "inputs": [
        {
          "internalType": "bytes",
          "name": "call",
          "type": "bytes"
        },
        {
          "internalType": "bool",
          "name": "response",
          "type": "bool"
        }
      ],
      "name": "givenMethodReturnBool",
      "outputs": [],
      "stateMutability": "nonpayable",
      "type": "function"
    },
    {
      "inputs": [
        {
          "internalType": "bytes",
          "name": "call",
          "type": "bytes"
        },
        {
          "internalType": "uint256",
          "name": "response",
          "type": "uint256"
        }
      ],
      "name": "givenMethodReturnUint",
      "outputs": [],
      "stateMutability": "nonpayable",
      "type": "function"
    },
    {
      "inputs": [
        {
          "internalType": "bytes",
          "name": "call",
          "type": "bytes"
        }
      ],
      "name": "givenMethodRevert",
      "outputs": [],
      "stateMutability": "nonpayable",
      "type": "function"
    },
    {
      "inputs": [
        {
          "internalType": "bytes",
          "name": "call",
          "type": "bytes"
        },
        {
          "internalType": "string",
          "name": "message",
          "type": "string"
        }
      ],
      "name": "givenMethodRevertWithMessage",
      "outputs": [],
      "stateMutability": "nonpayable",
      "type": "function"
    },
    {
      "inputs": [
        {
          "internalType": "bytes",
          "name": "call",
          "type": "bytes"
        }
      ],
      "name": "givenMethodRunOutOfGas",
      "outputs": [],
      "stateMutability": "nonpayable",
      "type": "function"
    },
    {
      "inputs": [],
      "name": "invocationCount",
      "outputs": [
        {
          "internalType": "uint256",
          "name": "",
          "type": "uint256"
        }
      ],
      "stateMutability": "nonpayable",
      "type": "function"
    },
    {
      "inputs": [
        {
          "internalType": "bytes",
          "name": "call",
          "type": "bytes"
        }
      ],
      "name": "invocationCountForCalldata",
      "outputs": [
        {
          "internalType": "uint256",
          "name": "",
          "type": "uint256"
        }
      ],
      "stateMutability": "nonpayable",
      "type": "function"
    },
    {
      "inputs": [
        {
          "internalType": "bytes",
          "name": "call",
          "type": "bytes"
        }
      ],
      "name": "invocationCountForMethod",
      "outputs": [
        {
          "internalType": "uint256",
          "name": "",
          "type": "uint256"
        }
      ],
      "stateMutability": "nonpayable",
      "type": "function"
    },
    {
      "inputs": [],
      "name": "receiveInflation",
      "outputs": [],
      "stateMutability": "payable",
      "type": "function"
    },
    {
      "inputs": [],
      "name": "receiveMinting",
      "outputs": [],
      "stateMutability": "payable",
      "type": "function"
    },
    {
      "inputs": [
        {
          "internalType": "uint256",
          "name": "amount",
          "type": "uint256"
        }
      ],
      "name": "requestMinting",
      "outputs": [],
      "stateMutability": "nonpayable",
      "type": "function"
    },
    {
      "inputs": [],
      "name": "reset",
      "outputs": [],
      "stateMutability": "nonpayable",
      "type": "function"
    },
    {
      "inputs": [
        {
          "internalType": "uint256",
          "name": "toAuthorizeWei",
          "type": "uint256"
        }
      ],
      "name": "setDailyAuthorizedInflation",
      "outputs": [],
      "stateMutability": "nonpayable",
      "type": "function"
    },
    {
      "inputs": [
        {
          "internalType": "uint256",
          "name": "_doNotReceiveMoreThan",
          "type": "uint256"
        }
      ],
      "name": "setDoNotReceiveNoMoreThan",
      "outputs": [],
      "stateMutability": "nonpayable",
      "type": "function"
    },
    {
      "inputs": [
        {
          "internalType": "address",
          "name": "_flareDaemon",
          "type": "address"
        }
      ],
      "name": "setFlareDaemon",
      "outputs": [],
      "stateMutability": "nonpayable",
      "type": "function"
    },
    {
      "inputs": [
        {
          "internalType": "address",
          "name": "_inflationReceiver",
          "type": "address"
        }
      ],
      "name": "setInflationReceiver",
      "outputs": [],
      "stateMutability": "nonpayable",
      "type": "function"
    },
    {
      "inputs": [],
      "name": "tick",
      "outputs": [],
      "stateMutability": "nonpayable",
      "type": "function"
    },
    {
      "inputs": [],
      "name": "ticker",
      "outputs": [
        {
          "internalType": "uint256",
          "name": "",
          "type": "uint256"
        }
      ],
      "stateMutability": "view",
      "type": "function"
    },
    {
      "inputs": [
        {
          "internalType": "bytes4",
          "name": "methodId",
          "type": "bytes4"
        },
        {
          "internalType": "bytes",
          "name": "originalMsgData",
          "type": "bytes"
        }
      ],
      "name": "updateInvocationCount",
      "outputs": [],
      "stateMutability": "nonpayable",
      "type": "function"
    }
  ],
  "bytecode": "0x60806040526000604051602001808215158152602001915050604051602081830303815290604052600b90805190602001906200003e9291906200017e565b503480156200004c57600080fd5b506040518060400160405280600481526020017f30786666000000000000000000000000000000000000000000000000000000008152506000807f010000000000000000000000000000000000000000000000000000000000000081526020019081526020016000209080519060200190620000ca9291906200017e565b507f0100000000000000000000000000000000000000000000000000000000000000600560007f01000000000000000000000000000000000000000000000000000000000000007bffffffffffffffffffffffffffffffffffffffffffffffffffffffff19167bffffffffffffffffffffffffffffffffffffffffffffffffffffffff1916815260200190815260200160002060006101000a81548163ffffffff021916908360e01c021790555062000224565b828054600181600116156101000203166002900490600052602060002090601f016020900481019282601f10620001c157805160ff1916838001178555620001f2565b82800160010185558215620001f2579182015b82811115620001f1578251825591602001919060010190620001d4565b5b50905062000201919062000205565b5090565b5b808211156200022057600081600090555060010162000206565b5090565b61418480620002346000396000f3fe60806040526004361061024a5760003560e01c80637cd96ee411610139578063c6f3833e116100b6578063e211b8a51161007a578063e211b8a514611a56578063e273956314611a6d578063e9de7d6014611aa8578063eb861f6914611ae3578063f07da22914611b69578063f5afa9c114611bb35761024b565b8063c6f3833e14611848578063cf11ff5d14611883578063d6fe977814611929578063d73ca0ac146119af578063d826f88f14611a3f5761024b565b8063aa788c55116100fd578063aa788c55146115fc578063af21ac7814611682578063b3901f29146116bd578063c611c2c514611763578063c6ee167f1461176d5761024b565b80637cd96ee41461130557806387abab65146113955780638ba47bdd1461141b5780639a1dc86b146114465780639eaeed75146115215761024b565b80634937c4f6116101c757806367aad04a1161018b57806367aad04a14611146578063682b47971461117157806368ab6f2f146111c25780636f40075614611248578063775ad850146112da5761024b565b80634937c4f614610db4578063586984a414610e4e57806358cbc02514610ee85780635a3855ab14610fd9578063619365941461106b5761024b565b80632ed238dc1161020e5780632ed238dc14610ccd578063316a14b314610cf857806336ff0ee514610d495780633956dc6b14610d865780633eaf5d9f14610d9d5761024b565b806306201f1d14610b315780630a20119f14610b3b578063122aea8114610b665780631b18044714610bf657806321fed4d614610c475761024b565b5b6000803590506001600281111561025e57fe5b6001600036604051808383808284378083019250505092505050908152602001604051809103902060009054906101000a900460ff16600281111561029f57fe5b141561038b57600360003660405180838380828437808301925050509250505090815260200160405180910390206040517f08c379a0000000000000000000000000000000000000000000000000000000008152600401808060200182810382528381815460018160011615610100020316600290048152602001915080546001816001161561010002031660029004801561037c5780601f106103515761010080835404028352916020019161037c565b820191906000526020600020905b81548152906001019060200180831161035f57829003601f168201915b50509250505060405180910390fd5b60028081111561039757fe5b6001600036604051808383808284378083019250505092505050908152602001604051809103902060009054906101000a900460ff1660028111156103d857fe5b14156103e7576103e6611c43565b5b6060600260003660405180838380828437808301925050509250505090815260200160405180910390208054600181600116156101000203166002900480601f0160208091040260200160405190810160405280929190818152602001828054600181600116156101000203166002900480156104a55780601f1061047a576101008083540402835291602001916104a5565b820191906000526020600020905b81548152906001019060200180831161048857829003601f168201915b505050505090506000815114156107b457600160028111156104c357fe5b60066000847bffffffffffffffffffffffffffffffffffffffffffffffffffffffff19167bffffffffffffffffffffffffffffffffffffffffffffffffffffffff1916815260200190815260200160002060009054906101000a900460ff16600281111561052d57fe5b14156106425760086000837bffffffffffffffffffffffffffffffffffffffffffffffffffffffff19167bffffffffffffffffffffffffffffffffffffffffffffffffffffffff191681526020019081526020016000206040517f08c379a000000000000000000000000000000000000000000000000000000000815260040180806020018281038252838181546001816001161561010002031660029004815260200191508054600181600116156101000203166002900480156106335780601f1061060857610100808354040283529160200191610633565b820191906000526020600020905b81548152906001019060200180831161061657829003601f168201915b50509250505060405180910390fd5b60028081111561064e57fe5b60066000847bffffffffffffffffffffffffffffffffffffffffffffffffffffffff19167bffffffffffffffffffffffffffffffffffffffffffffffffffffffff1916815260200190815260200160002060009054906101000a900460ff1660028111156106b857fe5b14156106c7576106c6611c43565b5b60076000837bffffffffffffffffffffffffffffffffffffffffffffffffffffffff19167bffffffffffffffffffffffffffffffffffffffffffffffffffffffff191681526020019081526020016000208054600181600116156101000203166002900480601f0160208091040260200160405190810160405280929190818152602001828054600181600116156101000203166002900480156107ac5780601f10610781576101008083540402835291602001916107ac565b820191906000526020600020905b81548152906001019060200180831161078f57829003601f168201915b505050505090505b60008151141561098057600160028111156107cb57fe5b600a60009054906101000a900460ff1660028111156107e657fe5b14156108ac57600c6040517f08c379a0000000000000000000000000000000000000000000000000000000008152600401808060200182810382528381815460018160011615610100020316600290048152602001915080546001816001161561010002031660029004801561089d5780601f106108725761010080835404028352916020019161089d565b820191906000526020600020905b81548152906001019060200180831161088057829003601f168201915b50509250505060405180910390fd5b6002808111156108b857fe5b600a60009054906101000a900460ff1660028111156108d357fe5b14156108e2576108e1611c43565b5b600b8054600181600116156101000203166002900480601f0160208091040260200160405190810160405280929190818152602001828054600181600116156101000203166002900480156109785780601f1061094d57610100808354040283529160200191610978565b820191906000526020600020905b81548152906001019060200180831161095b57829003601f168201915b505050505090505b60603073ffffffffffffffffffffffffffffffffffffffff16620186a08460003660405160240180847bffffffffffffffffffffffffffffffffffffffffffffffffffffffff19168152602001806020018281038252848482818152602001925080828437600081840152601f19601f8201169050808301925050509450505050506040516020818303038152906040527f58cbc025000000000000000000000000000000000000000000000000000000007bffffffffffffffffffffffffffffffffffffffffffffffffffffffff19166020820180517bffffffffffffffffffffffffffffffffffffffffffffffffffffffff83818316178352505050506040518082805190602001908083835b60208310610ab25780518252602082019150602081019050602083039250610a8f565b6001836020036101000a03801982511681845116808217855250505050505090500191505060006040518083038160008787f1925050503d8060008114610b15576040519150601f19603f3d011682016040523d82523d6000602084013e610b1a565b606091505b509150506000815114610b2957fe5b815182602001f35b610b39611c68565b005b348015610b4757600080fd5b50610b50611dd8565b6040518082815260200191505060405180910390f35b348015610b7257600080fd5b50610b7b611de2565b6040518080602001828103825283818151815260200191508051906020019080838360005b83811015610bbb578082015181840152602081019050610ba0565b50505050905090810190601f168015610be85780820380516001836020036101000a031916815260200191505b509250505060405180910390f35b348015610c0257600080fd5b50610c4560048036036020811015610c1957600080fd5b81019080803573ffffffffffffffffffffffffffffffffffffffff169060200190929190505050611e08565b005b348015610c5357600080fd5b50610ccb60048036036020811015610c6a57600080fd5b8101908080359060200190640100000000811115610c8757600080fd5b820183602082011115610c9957600080fd5b80359060200191846001830284011164010000000083111715610cbb57600080fd5b9091929391929390505050611e4c565b005b348015610cd957600080fd5b50610ce2611ee6565b6040518082815260200191505060405180910390f35b348015610d0457600080fd5b50610d4760048036036020811015610d1b57600080fd5b81019080803573ffffffffffffffffffffffffffffffffffffffff169060200190929190505050611f26565b005b348015610d5557600080fd5b50610d8460048036036020811015610d6c57600080fd5b81019080803515159060200190929190505050611f6a565b005b348015610d9257600080fd5b50610d9b611f95565b005b348015610da957600080fd5b50610db2611fbb565b005b348015610dc057600080fd5b50610e3860048036036020811015610dd757600080fd5b8101908080359060200190640100000000811115610df457600080fd5b820183602082011115610e0657600080fd5b80359060200191846001830284011164010000000083111715610e2857600080fd5b9091929391929390505050611fce565b6040518082815260200191505060405180910390f35b348015610e5a57600080fd5b50610ed260048036036020811015610e7157600080fd5b8101908080359060200190640100000000811115610e8e57600080fd5b820183602082011115610ea057600080fd5b80359060200191846001830284011164010000000083111715610ec257600080fd5b909192939192939050505061208c565b6040518082815260200191505060405180910390f35b348015610ef457600080fd5b50610fd760048036036040811015610f0b57600080fd5b8101908080357bffffffffffffffffffffffffffffffffffffffffffffffffffffffff1916906020019092919080359060200190640100000000811115610f5157600080fd5b820183602082011115610f6357600080fd5b80359060200191846001830284011164010000000083111715610f8557600080fd5b91908080601f016020809104026020016040519081016040528093929190818152602001838380828437600081840152601f19601f8201169050808301925050505050505091929192905050506120e3565b005b348015610fe557600080fd5b5061106960048036036040811015610ffc57600080fd5b810190808035906020019064010000000081111561101957600080fd5b82018360208201111561102b57600080fd5b8035906020019184600183028401116401000000008311171561104d57600080fd5b909192939192939080351515906020019092919050505061228a565b005b34801561107757600080fd5b506111446004803603604081101561108e57600080fd5b81019080803590602001906401000000008111156110ab57600080fd5b8201836020820111156110bd57600080fd5b803590602001918460018302840111640100000000831117156110df57600080fd5b90919293919293908035906020019064010000000081111561110057600080fd5b82018360208201111561111257600080fd5b8035906020019184600183028401116401000000008311171561113457600080fd5b90919293919293905050506122fc565b005b34801561115257600080fd5b5061115b612394565b6040518082815260200191505060405180910390f35b34801561117d57600080fd5b506111c06004803603602081101561119457600080fd5b81019080803573ffffffffffffffffffffffffffffffffffffffff1690602001909291905050506123b8565b005b3480156111ce57600080fd5b50611246600480360360208110156111e557600080fd5b810190808035906020019064010000000081111561120257600080fd5b82018360208201111561121457600080fd5b8035906020019184600183028401116401000000008311171561123657600080fd5b90919293919293905050506123e2565b005b34801561125457600080fd5b506112d86004803603604081101561126b57600080fd5b810190808035906020019064010000000081111561128857600080fd5b82018360208201111561129a57600080fd5b803590602001918460018302840111640100000000831117156112bc57600080fd5b90919293919293908035151590602001909291905050506124b4565b005b3480156112e657600080fd5b506112ef612526565b6040518082815260200191505060405180910390f35b34801561131157600080fd5b5061131a61252c565b6040518080602001828103825283818151815260200191508051906020019080838360005b8381101561135a57808201518184015260208101905061133f565b50505050905090810190601f1680156113875780820380516001836020036101000a031916815260200191505b509250505060405180910390f35b3480156113a157600080fd5b50611419600480360360208110156113b857600080fd5b81019080803590602001906401000000008111156113d557600080fd5b8201836020820111156113e757600080fd5b8035906020019184600183028401116401000000008311171561140957600080fd5b9091929391929390505050612565565b005b34801561142757600080fd5b5061143061259f565b6040518082815260200191505060405180910390f35b34801561145257600080fd5b5061151f6004803603604081101561146957600080fd5b810190808035906020019064010000000081111561148657600080fd5b82018360208201111561149857600080fd5b803590602001918460018302840111640100000000831117156114ba57600080fd5b9091929391929390803590602001906401000000008111156114db57600080fd5b8201836020820111156114ed57600080fd5b8035906020019184600183028401116401000000008311171561150f57600080fd5b90919293919293905050506125a5565b005b34801561152d57600080fd5b506115fa6004803603604081101561154457600080fd5b810190808035906020019064010000000081111561156157600080fd5b82018360208201111561157357600080fd5b8035906020019184600183028401116401000000008311171561159557600080fd5b9091929391929390803590602001906401000000008111156115b657600080fd5b8201836020820111156115c857600080fd5b803590602001918460018302840111640100000000831117156115ea57600080fd5b90919293919293905050506126da565b005b34801561160857600080fd5b506116806004803603602081101561161f57600080fd5b810190808035906020019064010000000081111561163c57600080fd5b82018360208201111561164e57600080fd5b8035906020019184600183028401116401000000008311171561167057600080fd5b90919293919293905050506127ac565b005b34801561168e57600080fd5b506116bb600480360360208110156116a557600080fd5b810190808035906020019092919050505061287e565b005b3480156116c957600080fd5b50611761600480360360408110156116e057600080fd5b81019080803590602001906401000000008111156116fd57600080fd5b82018360208201111561170f57600080fd5b8035906020019184600183028401116401000000008311171561173157600080fd5b9091929391929390803573ffffffffffffffffffffffffffffffffffffffff169060200190929190505050612892565b005b61176b612903565b005b34801561177957600080fd5b506118466004803603604081101561179057600080fd5b81019080803590602001906401000000008111156117ad57600080fd5b8201836020820111156117bf57600080fd5b803590602001918460018302840111640100000000831117156117e157600080fd5b90919293919293908035906020019064010000000081111561180257600080fd5b82018360208201111561181457600080fd5b8035906020019184600183028401116401000000008311171561183657600080fd5b909192939192939050505061297d565b005b34801561185457600080fd5b506118816004803603602081101561186b57600080fd5b8101908080359060200190929190505050612a15565b005b34801561188f57600080fd5b50611927600480360360408110156118a657600080fd5b81019080803590602001906401000000008111156118c357600080fd5b8201836020820111156118d557600080fd5b803590602001918460018302840111640100000000831117156118f757600080fd5b9091929391929390803573ffffffffffffffffffffffffffffffffffffffff169060200190929190505050612a1f565b005b34801561193557600080fd5b506119ad6004803603602081101561194c57600080fd5b810190808035906020019064010000000081111561196957600080fd5b82018360208201111561197b57600080fd5b8035906020019184600183028401116401000000008311171561199d57600080fd5b9091929391929390505050612a90565b005b3480156119bb57600080fd5b50611a3d600480360360408110156119d257600080fd5b81019080803590602001906401000000008111156119ef57600080fd5b820183602082011115611a0157600080fd5b80359060200191846001830284011164010000000083111715611a2357600080fd5b909192939192939080359060200190929190505050612ae1565b005b348015611a4b57600080fd5b50611a54612b3c565b005b348015611a6257600080fd5b50611a6b6133b9565b005b348015611a7957600080fd5b50611aa660048036036020811015611a9057600080fd5b8101908080359060200190929190505050613405565b005b348015611ab457600080fd5b50611ae160048036036020811015611acb57600080fd5b8101908080359060200190929190505050613580565b005b348015611aef57600080fd5b50611b6760048036036020811015611b0657600080fd5b8101908080359060200190640100000000811115611b2357600080fd5b820183602082011115611b3557600080fd5b80359060200191846001830284011164010000000083111715611b5757600080fd5b90919293919293905050506136fb565b005b348015611b7557600080fd5b50611b7e6137df565b60405180827bffffffffffffffffffffffffffffffffffffffffffffffffffffffff1916815260200191505060405180910390f35b348015611bbf57600080fd5b50611c4160048036036040811015611bd657600080fd5b8101908080359060200190640100000000811115611bf357600080fd5b820183602082011115611c0557600080fd5b80359060200191846001830284011164010000000083111715611c2757600080fd5b909192939192939080359060200190929190505050613803565b005b5b600115611c665760006060600060c060008060066107d05a03f1905050611c44565b565b60606040516024016040516020818303038152906040527f06201f1d000000000000000000000000000000000000000000000000000000007bffffffffffffffffffffffffffffffffffffffffffffffffffffffff19166020820180517bffffffffffffffffffffffffffffffffffffffffffffffffffffffff838183161783525050505090506000601060009054906101000a900473ffffffffffffffffffffffffffffffffffffffff1673ffffffffffffffffffffffffffffffffffffffff1634836040518082805190602001908083835b60208310611d5f5780518252602082019150602081019050602083039250611d3c565b6001836020036101000a03801982511681845116808217855250505050505090500191505060006040518083038185875af1925050503d8060008114611dc1576040519150601f19603f3d011682016040523d82523d6000602084013e611dc6565b606091505b5050905080611dd457600080fd5b5050565b6000600d54905090565b600060405160200180821515815260200191505060405160208183030381529060405281565b80601060006101000a81548173ffffffffffffffffffffffffffffffffffffffff021916908373ffffffffffffffffffffffffffffffffffffffff16021790555050565b600260018383604051808383808284378083019250505092505050908152602001604051809103902060006101000a81548160ff02191690836002811115611e9057fe5b0217905550611ee282828080601f016020809104026020016040519081016040528093929190818152602001838380828437600081840152601f19601f8201169050808301925050505050505061385e565b5050565b6040518060400160405280600481526020017f30786666000000000000000000000000000000000000000000000000000000008152508051906020012081565b80600f60006101000a81548173ffffffffffffffffffffffffffffffffffffffff021916908373ffffffffffffffffffffffffffffffffffffffff16021790555050565b600081611f78576000611f7b565b60015b60ff169050611f91611f8c82613949565b6139a4565b5050565b6002600a60006101000a81548160ff02191690836002811115611fb457fe5b0217905550565b6001601260008282540192505081905550565b60008061201e84848080601f016020809104026020016040519081016040528093929190818152602001838380828437600081840152601f19601f820116905080830192505050505050506139e2565b905060096000600e548360405160200180838152602001827bffffffffffffffffffffffffffffffffffffffffffffffffffffffff19168152600401925050506040516020818303038152906040528051906020012081526020019081526020016000205491505092915050565b600060046000600e5485856040516020018084815260200183838082843780830192505050935050505060405160208183030381529060405280519060200120815260200190815260200160002054905092915050565b3073ffffffffffffffffffffffffffffffffffffffff163373ffffffffffffffffffffffffffffffffffffffff1614612167576040517f08c379a000000000000000000000000000000000000000000000000000000000815260040180806020018281038252602b815260200180614124602b913960400191505060405180910390fd5b6001600d60008282540192505081905550600160096000600e548560405160200180838152602001827bffffffffffffffffffffffffffffffffffffffffffffffffffffffff191681526004019250505060405160208183030381529060405280519060200120815260200190815260200160002060008282540192505081905550600160046000600e54846040516020018083815260200182805190602001908083835b6020831061222f578051825260208201915060208101905060208303925061220c565b6001836020036101000a03801982511681845116808217855250505050505090500192505050604051602081830303815290604052805190602001208152602001908152602001600020600082825401925050819055505050565b60008161229857600061229b565b60015b60ff1690506122f684848080601f016020809104026020016040519081016040528093929190818152602001838380828437600081840152601f19601f820116905080830192505050505050506122f183613949565b613a70565b50505050565b61238e84848080601f016020809104026020016040519081016040528093929190818152602001838380828437600081840152601f19601f8201169050808301925050505050505083838080601f016020809104026020016040519081016040528093929190818152602001838380828437600081840152601f19601f82011690508083019250505050505050613a70565b50505050565b7f010000000000000000000000000000000000000000000000000000000000000081565b6123df6123da8273ffffffffffffffffffffffffffffffffffffffff16613949565b6139a4565b50565b600061243183838080601f016020809104026020016040519081016040528093929190818152602001838380828437600081840152601f19601f820116905080830192505050505050506139e2565b9050600260066000837bffffffffffffffffffffffffffffffffffffffffffffffffffffffff19167bffffffffffffffffffffffffffffffffffffffffffffffffffffffff1916815260200190815260200160002060006101000a81548160ff021916908360028111156124a157fe5b02179055506124af81613b86565b505050565b6000816124c25760006124c5565b60015b60ff16905061252084848080601f016020809104026020016040519081016040528093929190818152602001838380828437600081840152601f19601f8201169050808301925050505050505061251b83613949565b613d8b565b50505050565b60115481565b6040518060400160405280600481526020017f307866660000000000000000000000000000000000000000000000000000000081525081565b6001600a60006101000a81548160ff0219169083600281111561258457fe5b02179055508181600c919061259a929190613e7f565b505050565b60125481565b60006125f485858080601f016020809104026020016040519081016040528093929190818152602001838380828437600081840152601f19601f820116905080830192505050505050506139e2565b9050600160066000837bffffffffffffffffffffffffffffffffffffffffffffffffffffffff19167bffffffffffffffffffffffffffffffffffffffffffffffffffffffff1916815260200190815260200160002060006101000a81548160ff0219169083600281111561266457fe5b0217905550828260086000847bffffffffffffffffffffffffffffffffffffffffffffffffffffffff19167bffffffffffffffffffffffffffffffffffffffffffffffffffffffff1916815260200190815260200160002091906126c9929190613e7f565b506126d381613b86565b5050505050565b6001808585604051808383808284378083019250505092505050908152602001604051809103902060006101000a81548160ff0219169083600281111561271d57fe5b021790555081816003868660405180838380828437808301925050509250505090815260200160405180910390209190612758929190613e7f565b506127a684848080601f016020809104026020016040519081016040528093929190818152602001838380828437600081840152601f19601f8201169050808301925050505050505061385e565b50505050565b60006127fb83838080601f016020809104026020016040519081016040528093929190818152602001838380828437600081840152601f19601f820116905080830192505050505050506139e2565b9050600160066000837bffffffffffffffffffffffffffffffffffffffffffffffffffffffff19167bffffffffffffffffffffffffffffffffffffffffffffffffffffffff1916815260200190815260200160002060006101000a81548160ff0219169083600281111561286b57fe5b021790555061287981613b86565b505050565b61288f61288a82613949565b6139a4565b50565b6128fe83838080601f016020809104026020016040519081016040528093929190818152602001838380828437600081840152601f19601f820116905080830192505050505050506128f98373ffffffffffffffffffffffffffffffffffffffff16613949565b613a70565b505050565b60115434111561297b576040517f08c379a00000000000000000000000000000000000000000000000000000000081526004018080602001828103825260088152602001807f746f6f206d75636800000000000000000000000000000000000000000000000081525060200191505060405180910390fd5b565b612a0f84848080601f016020809104026020016040519081016040528093929190818152602001838380828437600081840152601f19601f8201169050808301925050505050505083838080601f016020809104026020016040519081016040528093929190818152602001838380828437600081840152601f19601f82011690508083019250505050505050613d8b565b50505050565b8060118190555050565b612a8b83838080601f016020809104026020016040519081016040528093929190818152602001838380828437600081840152601f19601f82011690508083019250505050505050612a868373ffffffffffffffffffffffffffffffffffffffff16613949565b613d8b565b505050565b612add82828080601f016020809104026020016040519081016040528093929190818152602001838380828437600081840152601f19601f820116905080830192505050505050506139a4565b5050565b612b3783838080601f016020809104026020016040519081016040528093929190818152602001838380828437600081840152601f19601f82011690508083019250505050505050612b3283613949565b613a70565b505050565b60606000807f010000000000000000000000000000000000000000000000000000000000000081526020019081526020016000208054600181600116156101000203166002900480601f016020809104026020016040519081016040528092919081815260200182805460018160011615610100020316600290048015612c045780601f10612bd957610100808354040283529160200191612c04565b820191906000526020600020905b815481529060010190602001808311612be757829003601f168201915b505050505090506000818051906020012090505b6040518060400160405280600481526020017f3078666600000000000000000000000000000000000000000000000000000000815250805190602001208114612ef25760006001836040518082805190602001908083835b60208310612c935780518252602082019150602081019050602083039250612c70565b6001836020036101000a038019825116818451168082178552505050505050905001915050908152602001604051809103902060006101000a81548160ff02191690836002811115612ce157fe5b0217905550604051806020016040528060008152506002836040518082805190602001908083835b60208310612d2c5780518252602082019150602081019050602083039250612d09565b6001836020036101000a03801982511681845116808217855250505050505090500191505090815260200160405180910390209080519060200190612d72929190613eff565b50604051806020016040528060008152506003836040518082805190602001908083835b60208310612db95780518252602082019150602081019050602083039250612d96565b6001836020036101000a03801982511681845116808217855250505050505090500191505090815260200160405180910390209080519060200190612dff929190613f7f565b506000808281526020019081526020016000208054600181600116156101000203166002900480601f016020809104026020016040519081016040528092919081815260200182805460018160011615610100020316600290048015612ea65780601f10612e7b57610100808354040283529160200191612ea6565b820191906000526020600020905b815481529060010190602001808311612e8957829003601f168201915b50505050509150604051806020016040528060008152506000808381526020019081526020016000209080519060200190612ee2929190613eff565b5081805190602001209050612c18565b6040518060400160405280600481526020017f30786666000000000000000000000000000000000000000000000000000000008152506000807f010000000000000000000000000000000000000000000000000000000000000081526020019081526020016000209080519060200190612f6d929190613fff565b506000600560007f01000000000000000000000000000000000000000000000000000000000000007bffffffffffffffffffffffffffffffffffffffffffffffffffffffff19167bffffffffffffffffffffffffffffffffffffffffffffffffffffffff1916815260200190815260200160002060009054906101000a900460e01b90505b7f01000000000000000000000000000000000000000000000000000000000000007bffffffffffffffffffffffffffffffffffffffffffffffffffffffff1916817bffffffffffffffffffffffffffffffffffffffffffffffffffffffff191614613291576000819050600060066000837bffffffffffffffffffffffffffffffffffffffffffffffffffffffff19167bffffffffffffffffffffffffffffffffffffffffffffffffffffffff1916815260200190815260200160002060006101000a81548160ff021916908360028111156130ca57fe5b02179055506040518060200160405280600081525060076000837bffffffffffffffffffffffffffffffffffffffffffffffffffffffff19167bffffffffffffffffffffffffffffffffffffffffffffffffffffffff191681526020019081526020016000209080519060200190613143929190613eff565b506040518060200160405280600081525060086000837bffffffffffffffffffffffffffffffffffffffffffffffffffffffff19167bffffffffffffffffffffffffffffffffffffffffffffffffffffffff1916815260200190815260200160002090805190602001906131b8929190613f7f565b5060056000827bffffffffffffffffffffffffffffffffffffffffffffffffffffffff19167bffffffffffffffffffffffffffffffffffffffffffffffffffffffff1916815260200190815260200160002060009054906101000a900460e01b9150600060e01b60056000837bffffffffffffffffffffffffffffffffffffffffffffffffffffffff19167bffffffffffffffffffffffffffffffffffffffffffffffffffffffff1916815260200190815260200160002060006101000a81548163ffffffff021916908360e01c021790555050612ff2565b7f0100000000000000000000000000000000000000000000000000000000000000600560007f01000000000000000000000000000000000000000000000000000000000000007bffffffffffffffffffffffffffffffffffffffffffffffffffffffff19167bffffffffffffffffffffffffffffffffffffffffffffffffffffffff1916815260200190815260200160002060006101000a81548163ffffffff021916908360e01c02179055506000604051602001808215158152602001915050604051602081830303815290604052600b9080519060200190613376929190613fff565b506000600a60006101000a81548160ff0219169083600281111561339657fe5b02179055506000600d819055506001600e60008282540192505081905550505050565b6001600a60006101000a81548160ff021916908360028111156133d857fe5b021790555060405180602001604052806000815250600c9080519060200190613402929190613f7f565b50565b606081604051602401808281526020019150506040516020818303038152906040527fe2739563000000000000000000000000000000000000000000000000000000007bffffffffffffffffffffffffffffffffffffffffffffffffffffffff19166020820180517bffffffffffffffffffffffffffffffffffffffffffffffffffffffff838183161783525050505090506000601060009054906101000a900473ffffffffffffffffffffffffffffffffffffffff1673ffffffffffffffffffffffffffffffffffffffff16826040518082805190602001908083835b6020831061350657805182526020820191506020810190506020830392506134e3565b6001836020036101000a0380198251168184511680821785525050505050509050019150506000604051808303816000865af19150503d8060008114613568576040519150601f19603f3d011682016040523d82523d6000602084013e61356d565b606091505b505090508061357b57600080fd5b505050565b606081604051602401808281526020019150506040516020818303038152906040527fe9de7d60000000000000000000000000000000000000000000000000000000007bffffffffffffffffffffffffffffffffffffffffffffffffffffffff19166020820180517bffffffffffffffffffffffffffffffffffffffffffffffffffffffff838183161783525050505090506000600f60009054906101000a900473ffffffffffffffffffffffffffffffffffffffff1673ffffffffffffffffffffffffffffffffffffffff16826040518082805190602001908083835b60208310613681578051825260208201915060208101905060208303925061365e565b6001836020036101000a0380198251168184511680821785525050505050509050019150506000604051808303816000865af19150503d80600081146136e3576040519150601f19603f3d011682016040523d82523d6000602084013e6136e8565b606091505b50509050806136f657600080fd5b505050565b6001808383604051808383808284378083019250505092505050908152602001604051809103902060006101000a81548160ff0219169083600281111561373e57fe5b021790555060405180602001604052806000815250600383836040518083838082843780830192505050925050509081526020016040518091039020908051906020019061378d929190613f7f565b506137db82828080601f016020809104026020016040519081016040528093929190818152602001838380828437600081840152601f19601f8201169050808301925050505050505061385e565b5050565b7f010000000000000000000000000000000000000000000000000000000000000081565b61385983838080601f016020809104026020016040519081016040528093929190818152602001838380828437600081840152601f19601f8201169050808301925050505050505061385483613949565b613d8b565b505050565b60008180519060200120905060008060008381526020019081526020016000208054600181600116156101000203166002900490501415613945576000807f0100000000000000000000000000000000000000000000000000000000000000815260200190815260200160002060008083815260200190815260200160002090805460018160011615610100020316600290046138fc92919061407f565b50816000807f010000000000000000000000000000000000000000000000000000000000000081526020019081526020016000209080519060200190613943929190613fff565b505b5050565b6060602067ffffffffffffffff8111801561396357600080fd5b506040519080825280601f01601f1916602001820160405280156139965781602001600182028036833780820191505090505b509050816020820152919050565b6000600a60006101000a81548160ff021916908360028111156139c357fe5b021790555080600b90805190602001906139de929190613fff565b5050565b60008060005b6004811015613a66576008810260ff60f81b858381518110613a0657fe5b602001015160f81c60f81b167effffffffffffffffffffffffffffffffffffffffffffffffffffffffffffff19167bffffffffffffffffffffffffffffffffffffffffffffffffffffffff1916901c8217915080806001019150506139e8565b5080915050919050565b60006001836040518082805190602001908083835b60208310613aa85780518252602082019150602081019050602083039250613a85565b6001836020036101000a038019825116818451168082178552505050505050905001915050908152602001604051809103902060006101000a81548160ff02191690836002811115613af657fe5b0217905550806002836040518082805190602001908083835b60208310613b325780518252602082019150602081019050602083039250613b0f565b6001836020036101000a03801982511681845116808217855250505050505090500191505090815260200160405180910390209080519060200190613b78929190613fff565b50613b828261385e565b5050565b600060e01b60056000837bffffffffffffffffffffffffffffffffffffffffffffffffffffffff19167bffffffffffffffffffffffffffffffffffffffffffffffffffffffff1916815260200190815260200160002060009054906101000a900460e01b7bffffffffffffffffffffffffffffffffffffffffffffffffffffffff19161415613d8857600560007f01000000000000000000000000000000000000000000000000000000000000007bffffffffffffffffffffffffffffffffffffffffffffffffffffffff19167bffffffffffffffffffffffffffffffffffffffffffffffffffffffff1916815260200190815260200160002060009054906101000a900460e01b60056000837bffffffffffffffffffffffffffffffffffffffffffffffffffffffff19167bffffffffffffffffffffffffffffffffffffffffffffffffffffffff1916815260200190815260200160002060006101000a81548163ffffffff021916908360e01c021790555080600560007f01000000000000000000000000000000000000000000000000000000000000007bffffffffffffffffffffffffffffffffffffffffffffffffffffffff19167bffffffffffffffffffffffffffffffffffffffffffffffffffffffff1916815260200190815260200160002060006101000a81548163ffffffff021916908360e01c02179055505b50565b6000613d96836139e2565b9050600060066000837bffffffffffffffffffffffffffffffffffffffffffffffffffffffff19167bffffffffffffffffffffffffffffffffffffffffffffffffffffffff1916815260200190815260200160002060006101000a81548160ff02191690836002811115613e0657fe5b02179055508160076000837bffffffffffffffffffffffffffffffffffffffffffffffffffffffff19167bffffffffffffffffffffffffffffffffffffffffffffffffffffffff191681526020019081526020016000209080519060200190613e70929190613fff565b50613e7a81613b86565b505050565b828054600181600116156101000203166002900490600052602060002090601f016020900481019282601f10613ec057803560ff1916838001178555613eee565b82800160010185558215613eee579182015b82811115613eed578235825591602001919060010190613ed2565b5b509050613efb9190614106565b5090565b828054600181600116156101000203166002900490600052602060002090601f016020900481019282601f10613f4057805160ff1916838001178555613f6e565b82800160010185558215613f6e579182015b82811115613f6d578251825591602001919060010190613f52565b5b509050613f7b9190614106565b5090565b828054600181600116156101000203166002900490600052602060002090601f016020900481019282601f10613fc057805160ff1916838001178555613fee565b82800160010185558215613fee579182015b82811115613fed578251825591602001919060010190613fd2565b5b509050613ffb9190614106565b5090565b828054600181600116156101000203166002900490600052602060002090601f016020900481019282601f1061404057805160ff191683800117855561406e565b8280016001018555821561406e579182015b8281111561406d578251825591602001919060010190614052565b5b50905061407b9190614106565b5090565b828054600181600116156101000203166002900490600052602060002090601f016020900481019282601f106140b857805485556140f5565b828001600101855582156140f557600052602060002091601f016020900482015b828111156140f45782548255916001019190600101906140d9565b5b5090506141029190614106565b5090565b5b8082111561411f576000816000905550600101614107565b509056fe43616e206f6e6c792062652063616c6c65642066726f6d2074686520636f6e747261637420697473656c66a2646970667358221220ee37c96e2a5f56497760c7cf4556f008e52d6fd085f1c100c9459f7630b6c87264736f6c634300060c0033",
  "linkReferences": {},
  "deployedLinkReferences": {}
}