{
  "_format": "hh-sol-artifact-1",
  "contractName": "BokkyPooBahsDateTimeContract",
  "sourceName": "contracts/utils/mock/DateTimeLibraryContractMock.sol",
  "abi": [
    {
      "inputs": [
        {
          "internalType": "uint256",
          "name": "year",
          "type": "uint256"
        },
        {
          "internalType": "uint256",
          "name": "month",
          "type": "uint256"
        },
        {
          "internalType": "uint256",
          "name": "day",
          "type": "uint256"
        }
      ],
      "name": "_daysFromDate",
      "outputs": [
        {
          "internalType": "uint256",
          "name": "_days",
          "type": "uint256"
        }
      ],
      "stateMutability": "pure",
      "type": "function"
    },
    {
      "inputs": [
        {
          "internalType": "uint256",
          "name": "_days",
          "type": "uint256"
        }
      ],
      "name": "_daysToDate",
      "outputs": [
        {
          "internalType": "uint256",
          "name": "year",
          "type": "uint256"
        },
        {
          "internalType": "uint256",
          "name": "month",
          "type": "uint256"
        },
        {
          "internalType": "uint256",
          "name": "day",
          "type": "uint256"
        }
      ],
      "stateMutability": "pure",
      "type": "function"
    },
    {
      "inputs": [
        {
          "internalType": "uint256",
          "name": "year",
          "type": "uint256"
        },
        {
          "internalType": "uint256",
          "name": "month",
          "type": "uint256"
        }
      ],
      "name": "_getDaysInMonth",
      "outputs": [
        {
          "internalType": "uint256",
          "name": "daysInMonth",
          "type": "uint256"
        }
      ],
      "stateMutability": "pure",
      "type": "function"
    },
    {
      "inputs": [
        {
          "internalType": "uint256",
          "name": "year",
          "type": "uint256"
        }
      ],
      "name": "_isLeapYear",
      "outputs": [
        {
          "internalType": "bool",
          "name": "leapYear",
          "type": "bool"
        }
      ],
      "stateMutability": "pure",
      "type": "function"
    },
    {
      "inputs": [],
      "name": "_now",
      "outputs": [
        {
          "internalType": "uint256",
          "name": "timestamp",
          "type": "uint256"
        }
      ],
      "stateMutability": "view",
      "type": "function"
    },
    {
      "inputs": [],
      "name": "_nowDateTime",
      "outputs": [
        {
          "internalType": "uint256",
          "name": "year",
          "type": "uint256"
        },
        {
          "internalType": "uint256",
          "name": "month",
          "type": "uint256"
        },
        {
          "internalType": "uint256",
          "name": "day",
          "type": "uint256"
        },
        {
          "internalType": "uint256",
          "name": "hour",
          "type": "uint256"
        },
        {
          "internalType": "uint256",
          "name": "minute",
          "type": "uint256"
        },
        {
          "internalType": "uint256",
          "name": "second",
          "type": "uint256"
        }
      ],
      "stateMutability": "view",
      "type": "function"
    },
    {
      "inputs": [
        {
          "internalType": "uint256",
          "name": "timestamp",
          "type": "uint256"
        },
        {
          "internalType": "uint256",
          "name": "_days",
          "type": "uint256"
        }
      ],
      "name": "addDays",
      "outputs": [
        {
          "internalType": "uint256",
          "name": "newTimestamp",
          "type": "uint256"
        }
      ],
      "stateMutability": "pure",
      "type": "function"
    },
    {
      "inputs": [
        {
          "internalType": "uint256",
          "name": "timestamp",
          "type": "uint256"
        },
        {
          "internalType": "uint256",
          "name": "_hours",
          "type": "uint256"
        }
      ],
      "name": "addHours",
      "outputs": [
        {
          "internalType": "uint256",
          "name": "newTimestamp",
          "type": "uint256"
        }
      ],
      "stateMutability": "pure",
      "type": "function"
    },
    {
      "inputs": [
        {
          "internalType": "uint256",
          "name": "timestamp",
          "type": "uint256"
        },
        {
          "internalType": "uint256",
          "name": "_minutes",
          "type": "uint256"
        }
      ],
      "name": "addMinutes",
      "outputs": [
        {
          "internalType": "uint256",
          "name": "newTimestamp",
          "type": "uint256"
        }
      ],
      "stateMutability": "pure",
      "type": "function"
    },
    {
      "inputs": [
        {
          "internalType": "uint256",
          "name": "timestamp",
          "type": "uint256"
        },
        {
          "internalType": "uint256",
          "name": "_months",
          "type": "uint256"
        }
      ],
      "name": "addMonths",
      "outputs": [
        {
          "internalType": "uint256",
          "name": "newTimestamp",
          "type": "uint256"
        }
      ],
      "stateMutability": "pure",
      "type": "function"
    },
    {
      "inputs": [
        {
          "internalType": "uint256",
          "name": "timestamp",
          "type": "uint256"
        },
        {
          "internalType": "uint256",
          "name": "_seconds",
          "type": "uint256"
        }
      ],
      "name": "addSeconds",
      "outputs": [
        {
          "internalType": "uint256",
          "name": "newTimestamp",
          "type": "uint256"
        }
      ],
      "stateMutability": "pure",
      "type": "function"
    },
    {
      "inputs": [
        {
          "internalType": "uint256",
          "name": "timestamp",
          "type": "uint256"
        },
        {
          "internalType": "uint256",
          "name": "_years",
          "type": "uint256"
        }
      ],
      "name": "addYears",
      "outputs": [
        {
          "internalType": "uint256",
          "name": "newTimestamp",
          "type": "uint256"
        }
      ],
      "stateMutability": "pure",
      "type": "function"
    },
    {
      "inputs": [
        {
          "internalType": "uint256",
          "name": "fromTimestamp",
          "type": "uint256"
        },
        {
          "internalType": "uint256",
          "name": "toTimestamp",
          "type": "uint256"
        }
      ],
      "name": "diffDays",
      "outputs": [
        {
          "internalType": "uint256",
          "name": "_days",
          "type": "uint256"
        }
      ],
      "stateMutability": "pure",
      "type": "function"
    },
    {
      "inputs": [
        {
          "internalType": "uint256",
          "name": "fromTimestamp",
          "type": "uint256"
        },
        {
          "internalType": "uint256",
          "name": "toTimestamp",
          "type": "uint256"
        }
      ],
      "name": "diffHours",
      "outputs": [
        {
          "internalType": "uint256",
          "name": "_hours",
          "type": "uint256"
        }
      ],
      "stateMutability": "pure",
      "type": "function"
    },
    {
      "inputs": [
        {
          "internalType": "uint256",
          "name": "fromTimestamp",
          "type": "uint256"
        },
        {
          "internalType": "uint256",
          "name": "toTimestamp",
          "type": "uint256"
        }
      ],
      "name": "diffMinutes",
      "outputs": [
        {
          "internalType": "uint256",
          "name": "_minutes",
          "type": "uint256"
        }
      ],
      "stateMutability": "pure",
      "type": "function"
    },
    {
      "inputs": [
        {
          "internalType": "uint256",
          "name": "fromTimestamp",
          "type": "uint256"
        },
        {
          "internalType": "uint256",
          "name": "toTimestamp",
          "type": "uint256"
        }
      ],
      "name": "diffMonths",
      "outputs": [
        {
          "internalType": "uint256",
          "name": "_months",
          "type": "uint256"
        }
      ],
      "stateMutability": "pure",
      "type": "function"
    },
    {
      "inputs": [
        {
          "internalType": "uint256",
          "name": "fromTimestamp",
          "type": "uint256"
        },
        {
          "internalType": "uint256",
          "name": "toTimestamp",
          "type": "uint256"
        }
      ],
      "name": "diffSeconds",
      "outputs": [
        {
          "internalType": "uint256",
          "name": "_seconds",
          "type": "uint256"
        }
      ],
      "stateMutability": "pure",
      "type": "function"
    },
    {
      "inputs": [
        {
          "internalType": "uint256",
          "name": "fromTimestamp",
          "type": "uint256"
        },
        {
          "internalType": "uint256",
          "name": "toTimestamp",
          "type": "uint256"
        }
      ],
      "name": "diffYears",
      "outputs": [
        {
          "internalType": "uint256",
          "name": "_years",
          "type": "uint256"
        }
      ],
      "stateMutability": "pure",
      "type": "function"
    },
    {
      "inputs": [
        {
          "internalType": "uint256",
          "name": "timestamp",
          "type": "uint256"
        }
      ],
      "name": "getDay",
      "outputs": [
        {
          "internalType": "uint256",
          "name": "day",
          "type": "uint256"
        }
      ],
      "stateMutability": "pure",
      "type": "function"
    },
    {
      "inputs": [
        {
          "internalType": "uint256",
          "name": "timestamp",
          "type": "uint256"
        }
      ],
      "name": "getDayOfWeek",
      "outputs": [
        {
          "internalType": "uint256",
          "name": "dayOfWeek",
          "type": "uint256"
        }
      ],
      "stateMutability": "pure",
      "type": "function"
    },
    {
      "inputs": [
        {
          "internalType": "uint256",
          "name": "timestamp",
          "type": "uint256"
        }
      ],
      "name": "getDaysInMonth",
      "outputs": [
        {
          "internalType": "uint256",
          "name": "daysInMonth",
          "type": "uint256"
        }
      ],
      "stateMutability": "pure",
      "type": "function"
    },
    {
      "inputs": [
        {
          "internalType": "uint256",
          "name": "timestamp",
          "type": "uint256"
        }
      ],
      "name": "getDaysInYear",
      "outputs": [
        {
          "internalType": "uint256",
          "name": "daysInYear",
          "type": "uint256"
        }
      ],
      "stateMutability": "pure",
      "type": "function"
    },
    {
      "inputs": [
        {
          "internalType": "uint256",
          "name": "timestamp",
          "type": "uint256"
        }
      ],
      "name": "getHour",
      "outputs": [
        {
          "internalType": "uint256",
          "name": "hour",
          "type": "uint256"
        }
      ],
      "stateMutability": "pure",
      "type": "function"
    },
    {
      "inputs": [
        {
          "internalType": "uint256",
          "name": "timestamp",
          "type": "uint256"
        }
      ],
      "name": "getMinute",
      "outputs": [
        {
          "internalType": "uint256",
          "name": "minute",
          "type": "uint256"
        }
      ],
      "stateMutability": "pure",
      "type": "function"
    },
    {
      "inputs": [
        {
          "internalType": "uint256",
          "name": "timestamp",
          "type": "uint256"
        }
      ],
      "name": "getMonth",
      "outputs": [
        {
          "internalType": "uint256",
          "name": "month",
          "type": "uint256"
        }
      ],
      "stateMutability": "pure",
      "type": "function"
    },
    {
      "inputs": [
        {
          "internalType": "uint256",
          "name": "timestamp",
          "type": "uint256"
        }
      ],
      "name": "getSecond",
      "outputs": [
        {
          "internalType": "uint256",
          "name": "second",
          "type": "uint256"
        }
      ],
      "stateMutability": "pure",
      "type": "function"
    },
    {
      "inputs": [
        {
          "internalType": "uint256",
          "name": "timestamp",
          "type": "uint256"
        }
      ],
      "name": "getYear",
      "outputs": [
        {
          "internalType": "uint256",
          "name": "year",
          "type": "uint256"
        }
      ],
      "stateMutability": "pure",
      "type": "function"
    },
    {
      "inputs": [
        {
          "internalType": "uint256",
          "name": "timestamp",
          "type": "uint256"
        }
      ],
      "name": "isLeapYear",
      "outputs": [
        {
          "internalType": "bool",
          "name": "leapYear",
          "type": "bool"
        }
      ],
      "stateMutability": "pure",
      "type": "function"
    },
    {
      "inputs": [
        {
          "internalType": "uint256",
          "name": "year",
          "type": "uint256"
        },
        {
          "internalType": "uint256",
          "name": "month",
          "type": "uint256"
        },
        {
          "internalType": "uint256",
          "name": "day",
          "type": "uint256"
        }
      ],
      "name": "isValidDate",
      "outputs": [
        {
          "internalType": "bool",
          "name": "valid",
          "type": "bool"
        }
      ],
      "stateMutability": "pure",
      "type": "function"
    },
    {
      "inputs": [
        {
          "internalType": "uint256",
          "name": "year",
          "type": "uint256"
        },
        {
          "internalType": "uint256",
          "name": "month",
          "type": "uint256"
        },
        {
          "internalType": "uint256",
          "name": "day",
          "type": "uint256"
        },
        {
          "internalType": "uint256",
          "name": "hour",
          "type": "uint256"
        },
        {
          "internalType": "uint256",
          "name": "minute",
          "type": "uint256"
        },
        {
          "internalType": "uint256",
          "name": "second",
          "type": "uint256"
        }
      ],
      "name": "isValidDateTime",
      "outputs": [
        {
          "internalType": "bool",
          "name": "valid",
          "type": "bool"
        }
      ],
      "stateMutability": "pure",
      "type": "function"
    },
    {
      "inputs": [
        {
          "internalType": "uint256",
          "name": "timestamp",
          "type": "uint256"
        }
      ],
      "name": "isWeekDay",
      "outputs": [
        {
          "internalType": "bool",
          "name": "weekDay",
          "type": "bool"
        }
      ],
      "stateMutability": "pure",
      "type": "function"
    },
    {
      "inputs": [
        {
          "internalType": "uint256",
          "name": "timestamp",
          "type": "uint256"
        }
      ],
      "name": "isWeekEnd",
      "outputs": [
        {
          "internalType": "bool",
          "name": "weekEnd",
          "type": "bool"
        }
      ],
      "stateMutability": "pure",
      "type": "function"
    },
    {
      "inputs": [
        {
          "internalType": "uint256",
          "name": "timestamp",
          "type": "uint256"
        },
        {
          "internalType": "uint256",
          "name": "_days",
          "type": "uint256"
        }
      ],
      "name": "subDays",
      "outputs": [
        {
          "internalType": "uint256",
          "name": "newTimestamp",
          "type": "uint256"
        }
      ],
      "stateMutability": "pure",
      "type": "function"
    },
    {
      "inputs": [
        {
          "internalType": "uint256",
          "name": "timestamp",
          "type": "uint256"
        },
        {
          "internalType": "uint256",
          "name": "_hours",
          "type": "uint256"
        }
      ],
      "name": "subHours",
      "outputs": [
        {
          "internalType": "uint256",
          "name": "newTimestamp",
          "type": "uint256"
        }
      ],
      "stateMutability": "pure",
      "type": "function"
    },
    {
      "inputs": [
        {
          "internalType": "uint256",
          "name": "timestamp",
          "type": "uint256"
        },
        {
          "internalType": "uint256",
          "name": "_minutes",
          "type": "uint256"
        }
      ],
      "name": "subMinutes",
      "outputs": [
        {
          "internalType": "uint256",
          "name": "newTimestamp",
          "type": "uint256"
        }
      ],
      "stateMutability": "pure",
      "type": "function"
    },
    {
      "inputs": [
        {
          "internalType": "uint256",
          "name": "timestamp",
          "type": "uint256"
        },
        {
          "internalType": "uint256",
          "name": "_seconds",
          "type": "uint256"
        }
      ],
      "name": "subSeconds",
      "outputs": [
        {
          "internalType": "uint256",
          "name": "newTimestamp",
          "type": "uint256"
        }
      ],
      "stateMutability": "pure",
      "type": "function"
    },
    {
      "inputs": [
        {
          "internalType": "uint256",
          "name": "year",
          "type": "uint256"
        },
        {
          "internalType": "uint256",
          "name": "month",
          "type": "uint256"
        },
        {
          "internalType": "uint256",
          "name": "day",
          "type": "uint256"
        }
      ],
      "name": "timestampFromDate",
      "outputs": [
        {
          "internalType": "uint256",
          "name": "timestamp",
          "type": "uint256"
        }
      ],
      "stateMutability": "pure",
      "type": "function"
    },
    {
      "inputs": [
        {
          "internalType": "uint256",
          "name": "year",
          "type": "uint256"
        },
        {
          "internalType": "uint256",
          "name": "month",
          "type": "uint256"
        },
        {
          "internalType": "uint256",
          "name": "day",
          "type": "uint256"
        },
        {
          "internalType": "uint256",
          "name": "hour",
          "type": "uint256"
        },
        {
          "internalType": "uint256",
          "name": "minute",
          "type": "uint256"
        },
        {
          "internalType": "uint256",
          "name": "second",
          "type": "uint256"
        }
      ],
      "name": "timestampFromDateTime",
      "outputs": [
        {
          "internalType": "uint256",
          "name": "timestamp",
          "type": "uint256"
        }
      ],
      "stateMutability": "pure",
      "type": "function"
    },
    {
      "inputs": [
        {
          "internalType": "uint256",
          "name": "timestamp",
          "type": "uint256"
        }
      ],
      "name": "timestampToDate",
      "outputs": [
        {
          "internalType": "uint256",
          "name": "year",
          "type": "uint256"
        },
        {
          "internalType": "uint256",
          "name": "month",
          "type": "uint256"
        },
        {
          "internalType": "uint256",
          "name": "day",
          "type": "uint256"
        }
      ],
      "stateMutability": "pure",
      "type": "function"
    },
    {
      "inputs": [
        {
          "internalType": "uint256",
          "name": "timestamp",
          "type": "uint256"
        }
      ],
      "name": "timestampToDateTime",
      "outputs": [
        {
          "internalType": "uint256",
          "name": "year",
          "type": "uint256"
        },
        {
          "internalType": "uint256",
          "name": "month",
          "type": "uint256"
        },
        {
          "internalType": "uint256",
          "name": "day",
          "type": "uint256"
        },
        {
          "internalType": "uint256",
          "name": "hour",
          "type": "uint256"
        },
        {
          "internalType": "uint256",
          "name": "minute",
          "type": "uint256"
        },
        {
          "internalType": "uint256",
          "name": "second",
          "type": "uint256"
        }
      ],
      "stateMutability": "pure",
      "type": "function"
    }
  ],
  "bytecode": "0x608060405234801561001057600080fd5b50611082806100206000396000f3fe608060405234801561001057600080fd5b50600436106102475760003560e01c806389a3a00d1161013b578063b3bb8cd4116100b8578063de5101af1161007c578063de5101af1461074a578063ea1c169014610767578063f615ed5414610784578063fa93f883146107a7578063ff2258cb146107c457610247565b8063b3bb8cd4146106c2578063b8d16dbc146106ca578063c7b6fd6a146106e7578063c9d346221461070a578063d6582d0d1461072d57610247565b806392d66313116100ff57806392d663131461062b5780639e524caa14610648578063a324ad241461066b578063a7932ee914610688578063b05eb08d146106a557610247565b806389a3a00d146105525780638aa001fc146105755780638d4a2d391461059257806390059aed146105b55780639220d426146105f057610247565b80633f9e0eb7116101c95780635e05bd6d1161018d5780635e05bd6d1461049157806362fb9697146104cc57806365c72840146104ef5780637217523c1461050c5780637be341091461052f57610247565b80633f9e0eb7146103e85780634355644d1461040b5780634371c4651461042e578063442b8c791461044b5780634b3215021461046e57610247565b80631f4f77b2116102105780631f4f77b21461032757806322f8a2b8146103505780632af123b81461036d5780633293d007146103905780633e239e1a146103cb57610247565b80625015531461024c57806302e98e0d1461028157806310848ddf146102a457806314b2d6dc146102c15780631e0582e9146102fe575b600080fd5b61026f6004803603604081101561026257600080fd5b50803590602001356107e7565b60408051918252519081900360200190f35b61026f6004803603604081101561029757600080fd5b50803590602001356107fa565b61026f600480360360208110156102ba57600080fd5b5035610806565b6102ea600480360360608110156102d757600080fd5b5080359060208101359060400135610817565b604080519115158252519081900360200190f35b61026f6004803603606081101561031457600080fd5b508035906020810135906040013561082c565b61026f6004803603606081101561033d57600080fd5b5080359060208101359060400135610839565b61026f6004803603602081101561036657600080fd5b5035610846565b61026f6004803603604081101561038357600080fd5b5080359060200135610851565b6102ea600480360360c08110156103a657600080fd5b5080359060208101359060408101359060608101359060808101359060a0013561085d565b61026f600480360360208110156103e157600080fd5b5035610878565b61026f600480360360408110156103fe57600080fd5b5080359060200135610883565b61026f6004803603604081101561042157600080fd5b508035906020013561088f565b6102ea6004803603602081101561044457600080fd5b503561089b565b61026f6004803603604081101561046157600080fd5b50803590602001356108a6565b61026f6004803603604081101561048457600080fd5b50803590602001356108b2565b61026f600480360360c08110156104a757600080fd5b5080359060208101359060408101359060608101359060808101359060a001356108be565b61026f600480360360408110156104e257600080fd5b50803590602001356108d8565b61026f6004803603602081101561050557600080fd5b50356108e4565b61026f6004803603604081101561052257600080fd5b50803590602001356108ef565b61026f6004803603604081101561054557600080fd5b50803590602001356108fb565b61026f6004803603604081101561056857600080fd5b5080359060200135610907565b61026f6004803603602081101561058b57600080fd5b5035610913565b61026f600480360360408110156105a857600080fd5b508035906020013561091e565b6105d2600480360360208110156105cb57600080fd5b503561092a565b60408051938452602084019290925282820152519081900360600190f35b6105f8610945565b604080519687526020870195909552858501939093526060850191909152608084015260a0830152519081900360c00190f35b61026f6004803603602081101561064157600080fd5b503561096a565b61026f6004803603604081101561065e57600080fd5b5080359060200135610975565b61026f6004803603602081101561068157600080fd5b5035610981565b61026f6004803603602081101561069e57600080fd5b503561098c565b6102ea600480360360208110156106bb57600080fd5b5035610997565b61026f6109a2565b6102ea600480360360208110156106e057600080fd5b50356109a6565b61026f600480360360408110156106fd57600080fd5b50803590602001356109b1565b61026f6004803603604081101561072057600080fd5b50803590602001356109bd565b6102ea6004803603602081101561074357600080fd5b50356109c9565b6105d26004803603602081101561076057600080fd5b50356109d4565b6105f86004803603602081101561077d57600080fd5b50356109ef565b61026f6004803603604081101561079a57600080fd5b5080359060200135610a15565b61026f600480360360208110156107bd57600080fd5b5035610a21565b61026f600480360360408110156107da57600080fd5b5080359060200135610a2c565b60006107f38383610a38565b9392505050565b60006107f38383610a4c565b600061081182610a69565b92915050565b6000610824848484610a8b565b949350505050565b6000610824848484610ae1565b6000610824848484610b5d565b600061081182610b77565b60006107f38383610b8a565b600061086d878787878787610ba4565b979650505050505050565b600061081182610be4565b60006107f38383610bf2565b60006107f38383610c78565b600061081182610cf2565b60006107f38383610d07565b60006107f38383610d2e565b600061086d878787878787610d42565b9695505050505050565b60006107f38383610d6c565b600061081182610d80565b60006107f38383610d8f565b60006107f38383610da4565b60006107f38383610df6565b600061081182610e09565b60006107f38383610e10565b600080600061093884610e20565b9250925092509193909250565b60008060008060008061095742610eb6565b949b939a50919850965094509092509050565b600061081182610ef5565b60006107f38383610f0d565b600061081182610f20565b600061081182610f2f565b600061081182610f54565b4290565b600061081182610f79565b60006107f38383610f96565b60006107f38383610fab565b600061081182610fc6565b60008060006109e284610fdb565b9196909550909350915050565b600080600080600080610a0187610eb6565b949c939b5091995097509550909350915050565b60006107f38383610fec565b600061081182610ffc565b60006107f3838361100b565b610e10810282038281111561081157600080fd5b600081831115610a5b57600080fd5b603c8383035b049392505050565b60008080610a7c62015180855b04610e20565b50915091506108248282610bf2565b60006107b28410158015610a9f5750600083115b8015610aac5750600c8311155b156107f3576000610abd8585610bf2565b9050600083118015610acf5750808311155b15610ad957600191505b509392505050565b60006107b2841015610af257600080fd5b838383600062253d8c600460036064611324600c600d19890105890101050205600c80600d19870105600c02600287030361016f0281610b2e57fe5b0560046105b5600c600d1989010589016112c0010205617d4b8603010103039050809450505050509392505050565b600062015180610b6e858585610ae1565b02949350505050565b6007620151809091046003010660010190565b600081831115610b9957600080fd5b610e10838303610a61565b6000610bb1878787610a8b565b156108ce57601884108015610bc65750603c83105b8015610bd25750603c82105b156108ce575060019695505050505050565b610e10620151809091060490565b60008160011480610c035750816003145b80610c0e5750816005145b80610c195750816007145b80610c245750816008145b80610c2f575081600a145b80610c3a575081600c145b15610c475750601f610811565b81600214610c575750601e610811565b610c6083610f54565b610c6b57601c610c6e565b601d5b60ff169392505050565b6000808080610c8a6201518087610a76565b600c918801600019810183810494909401965094509250900660010191506000610cb48484610bf2565b905080821115610cc2578091505b62015180870662015180610cd7868686610ae1565b0201945086851015610ce857600080fd5b5050505092915050565b60006006610cff83610b77565b101592915050565b6000808080610d196201518087610a76565b9187019450925090506000610cb48484610bf2565b610e10810282018281101561081157600080fd5b600081603c8402610e10860262015180610d5d8b8b8b610ae1565b02010101979650505050505050565b600081831115610d7b57600080fd5b500390565b60006108246201518083610a76565b62015180810282018281101561081157600080fd5b600081831115610db357600080fd5b600080610dc36201518086610a76565b5091509150600080610dda620151808781610a7657fe5b50600c9586029590910201939093039190910395945050505050565b603c810282018281101561081157600080fd5b603c900690565b8181018281101561081157600080fd5b60008080836226496581018262023ab1600483020590506004600362023ab18302010590910390600062164b09610fa0600185010205905060046105b58202058303601f019250600061098f8460500281610e7757fe5b0590506000605061098f83020585039050600b820560301994909401606402929092018301996002600c90940290910392909201975095509350505050565b60008080808080610eca6201518088610a76565b91999098919750610e10620151809092068281049750603c9290068281049650919091069350915050565b6000610f046201518083610a76565b50909392505050565b603c810282038281111561081157600080fd5b6000610ad96201518083610a76565b6000610f3a82610f79565b610f465761016d610f4a565b61016e5b61ffff1692915050565b600060048206158015610f6957506064820615155b8061081157505061019090061590565b600080610f896201518084610a76565b505090506107f381610f54565b62015180810282038281111561081157600080fd5b600081831115610fba57600080fd5b62015180838303610a61565b60006005610fd383610b77565b111592915050565b600080806109e26201518085610a76565b8082038281111561081157600080fd5b6000610e108206603c81610a61565b60008183111561101a57600080fd5b60006110296201518085610a76565b50509050600061103e620151808581610a7657fe5b50509190910394935050505056fea2646970667358221220e52d35801c6126ded54cba05350dde70f84f24a01202e4b48398e6c9b0fab5b964736f6c63430007060033",
  "linkReferences": {},
  "deployedLinkReferences": {}
}