{
  "_format": "hh-sol-artifact-1",
  "contractName": "GasConsumer4",
  "sourceName": "contracts/utils/mock/GasConsumer4.sol",
  "abi": [
    {
      "inputs": [],
      "name": "a",
      "outputs": [
        {
          "internalType": "uint256",
          "name": "",
          "type": "uint256"
        }
      ],
      "stateMutability": "view",
      "type": "function"
    },
    {
      "inputs": [
        {
          "internalType": "uint256",
          "name": "n",
          "type": "uint256"
        }
      ],
      "name": "push",
      "outputs": [],
      "stateMutability": "nonpayable",
      "type": "function"
    }
  ],
  "bytecode": "0x608060405234801561001057600080fd5b5060c68061001f6000396000f3fe6080604052348015600f57600080fd5b506004361060325760003560e01c80630dbe671f146037578063959ac48414604f575b600080fd5b603d606b565b60408051918252519081900360200190f35b606960048036036020811015606357600080fd5b50356071565b005b60005481565b60005b81811015608c57600080546001908101909155016074565b505056fea2646970667358221220f49dc9d8ea5aed6f4f3439c37a63e240a5ee1d1389508280e7ea959e799c417664736f6c63430007060033",
  "linkReferences": {},
  "deployedLinkReferences": {}
}