{
  "_format": "hh-sol-artifact-1",
  "contractName": "VPContractMock",
  "sourceName": "contracts/token/mock/VPContractMock.sol",
  "abi": [
    {
      "inputs": [
        {
          "internalType": "contract IVPToken",
          "name": "_ownerToken",
          "type": "address"
        },
        {
          "internalType": "bool",
          "name": "_isReplacement",
          "type": "bool"
        }
      ],
      "stateMutability": "nonpayable",
      "type": "constructor"
    },
    {
      "anonymous": false,
      "inputs": [
        {
          "indexed": false,
          "internalType": "address",
          "name": "_owner",
          "type": "address"
        },
        {
          "indexed": false,
          "internalType": "uint256",
          "name": "_blockNumber",
          "type": "uint256"
        }
      ],
      "name": "CreatedVotePowerCache",
      "type": "event"
    },
    {
      "anonymous": false,
      "inputs": [
        {
          "indexed": true,
          "internalType": "address",
          "name": "from",
          "type": "address"
        },
        {
          "indexed": true,
          "internalType": "address",
          "name": "to",
          "type": "address"
        },
        {
          "indexed": false,
          "internalType": "uint256",
          "name": "priorVotePower",
          "type": "uint256"
        },
        {
          "indexed": false,
          "internalType": "uint256",
          "name": "newVotePower",
          "type": "uint256"
        }
      ],
      "name": "Delegate",
      "type": "event"
    },
    {
      "anonymous": false,
      "inputs": [
        {
          "indexed": true,
          "internalType": "address",
          "name": "delegator",
          "type": "address"
        },
        {
          "indexed": true,
          "internalType": "address",
          "name": "delegatee",
          "type": "address"
        },
        {
          "indexed": false,
          "internalType": "uint256",
          "name": "votePower",
          "type": "uint256"
        },
        {
          "indexed": false,
          "internalType": "uint256",
          "name": "blockNumber",
          "type": "uint256"
        }
      ],
      "name": "Revoke",
      "type": "event"
    },
    {
      "inputs": [
        {
          "internalType": "address[]",
          "name": "_owners",
          "type": "address[]"
        },
        {
          "internalType": "uint256",
          "name": "_blockNumber",
          "type": "uint256"
        }
      ],
      "name": "batchVotePowerOfAt",
      "outputs": [
        {
          "internalType": "uint256[]",
          "name": "_votePowers",
          "type": "uint256[]"
        }
      ],
      "stateMutability": "view",
      "type": "function"
    },
    {
      "inputs": [],
      "name": "cleanupBlockNumber",
      "outputs": [
        {
          "internalType": "uint256",
          "name": "",
          "type": "uint256"
        }
      ],
      "stateMutability": "view",
      "type": "function"
    },
    {
      "inputs": [
        {
          "internalType": "address",
          "name": "_from",
          "type": "address"
        },
        {
          "internalType": "address",
          "name": "_to",
          "type": "address"
        },
        {
          "internalType": "uint256",
          "name": "_balance",
          "type": "uint256"
        },
        {
          "internalType": "uint256",
          "name": "_bips",
          "type": "uint256"
        }
      ],
      "name": "delegate",
      "outputs": [],
      "stateMutability": "nonpayable",
      "type": "function"
    },
    {
      "inputs": [
        {
          "internalType": "address",
          "name": "_from",
          "type": "address"
        },
        {
          "internalType": "address",
          "name": "_to",
          "type": "address"
        },
        {
          "internalType": "uint256",
          "name": "_balance",
          "type": "uint256"
        },
        {
          "internalType": "uint256",
          "name": "_amount",
          "type": "uint256"
        }
      ],
      "name": "delegateExplicit",
      "outputs": [],
      "stateMutability": "nonpayable",
      "type": "function"
    },
    {
      "inputs": [
        {
          "internalType": "address",
          "name": "_owner",
          "type": "address"
        }
      ],
      "name": "delegatesOf",
      "outputs": [
        {
          "internalType": "address[]",
          "name": "_delegateAddresses",
          "type": "address[]"
        },
        {
          "internalType": "uint256[]",
          "name": "_bips",
          "type": "uint256[]"
        },
        {
          "internalType": "uint256",
          "name": "_count",
          "type": "uint256"
        },
        {
          "internalType": "uint256",
          "name": "_delegationMode",
          "type": "uint256"
        }
      ],
      "stateMutability": "view",
      "type": "function"
    },
    {
      "inputs": [
        {
          "internalType": "address",
          "name": "_owner",
          "type": "address"
        },
        {
          "internalType": "uint256",
          "name": "_blockNumber",
          "type": "uint256"
        }
      ],
      "name": "delegatesOfAt",
      "outputs": [
        {
          "internalType": "address[]",
          "name": "_delegateAddresses",
          "type": "address[]"
        },
        {
          "internalType": "uint256[]",
          "name": "_bips",
          "type": "uint256[]"
        },
        {
          "internalType": "uint256",
          "name": "_count",
          "type": "uint256"
        },
        {
          "internalType": "uint256",
          "name": "_delegationMode",
          "type": "uint256"
        }
      ],
      "stateMutability": "view",
      "type": "function"
    },
    {
      "inputs": [
        {
          "internalType": "address",
          "name": "_who",
          "type": "address"
        }
      ],
      "name": "delegationModeOf",
      "outputs": [
        {
          "internalType": "uint256",
          "name": "",
          "type": "uint256"
        }
      ],
      "stateMutability": "view",
      "type": "function"
    },
    {
      "inputs": [
        {
          "internalType": "address",
          "name": "_from",
          "type": "address"
        },
        {
          "internalType": "address",
          "name": "_to",
          "type": "address"
        },
        {
          "internalType": "uint256",
          "name": "_count",
          "type": "uint256"
        }
      ],
      "name": "explicitDelegationHistoryCleanup",
      "outputs": [
        {
          "internalType": "uint256",
          "name": "",
          "type": "uint256"
        }
      ],
      "stateMutability": "nonpayable",
      "type": "function"
    },
    {
      "inputs": [
        {
          "internalType": "address",
          "name": "_owner",
          "type": "address"
        },
        {
          "internalType": "uint256",
          "name": "_balance",
          "type": "uint256"
        }
      ],
      "name": "initializeVotePower",
      "outputs": [],
      "stateMutability": "nonpayable",
      "type": "function"
    },
    {
      "inputs": [],
      "name": "isReplacement",
      "outputs": [
        {
          "internalType": "bool",
          "name": "",
          "type": "bool"
        }
      ],
      "stateMutability": "view",
      "type": "function"
    },
    {
      "inputs": [],
      "name": "ownerToken",
      "outputs": [
        {
          "internalType": "contract IVPToken",
          "name": "",
          "type": "address"
        }
      ],
      "stateMutability": "view",
      "type": "function"
    },
    {
      "inputs": [
        {
          "internalType": "address",
          "name": "_owner",
          "type": "address"
        },
        {
          "internalType": "uint256",
          "name": "_count",
          "type": "uint256"
        }
      ],
      "name": "percentageDelegationHistoryCleanup",
      "outputs": [
        {
          "internalType": "uint256",
          "name": "",
          "type": "uint256"
        }
      ],
      "stateMutability": "nonpayable",
      "type": "function"
    },
    {
      "inputs": [
        {
          "internalType": "address",
          "name": "_from",
          "type": "address"
        },
        {
          "internalType": "address",
          "name": "_to",
          "type": "address"
        },
        {
          "internalType": "uint256",
          "name": "_blockNumber",
          "type": "uint256"
        }
      ],
      "name": "revocationCleanup",
      "outputs": [
        {
          "internalType": "uint256",
          "name": "",
          "type": "uint256"
        }
      ],
      "stateMutability": "nonpayable",
      "type": "function"
    },
    {
      "inputs": [
        {
          "internalType": "address",
          "name": "_from",
          "type": "address"
        },
        {
          "internalType": "address",
          "name": "_to",
          "type": "address"
        },
        {
          "internalType": "uint256",
          "name": "_balance",
          "type": "uint256"
        },
        {
          "internalType": "uint256",
          "name": "_blockNumber",
          "type": "uint256"
        }
      ],
      "name": "revokeDelegationAt",
      "outputs": [],
      "stateMutability": "nonpayable",
      "type": "function"
    },
    {
      "inputs": [
        {
          "internalType": "address",
          "name": "_cleanerContract",
          "type": "address"
        }
      ],
      "name": "setCleanerContract",
      "outputs": [],
      "stateMutability": "nonpayable",
      "type": "function"
    },
    {
      "inputs": [
        {
          "internalType": "uint256",
          "name": "_blockNumber",
          "type": "uint256"
        }
      ],
      "name": "setCleanupBlockNumber",
      "outputs": [],
      "stateMutability": "nonpayable",
      "type": "function"
    },
    {
      "inputs": [
        {
          "internalType": "address",
          "name": "_cbnManager",
          "type": "address"
        }
      ],
      "name": "setCleanupBlockNumberManager",
      "outputs": [],
      "stateMutability": "nonpayable",
      "type": "function"
    },
    {
      "inputs": [
        {
          "internalType": "address",
          "name": "_from",
          "type": "address"
        },
        {
          "internalType": "uint256",
          "name": "_balance",
          "type": "uint256"
        }
      ],
      "name": "undelegateAll",
      "outputs": [],
      "stateMutability": "nonpayable",
      "type": "function"
    },
    {
      "inputs": [
        {
          "internalType": "address",
          "name": "_from",
          "type": "address"
        },
        {
          "internalType": "address[]",
          "name": "_delegateAddresses",
          "type": "address[]"
        }
      ],
      "name": "undelegateAllExplicit",
      "outputs": [
        {
          "internalType": "uint256",
          "name": "",
          "type": "uint256"
        }
      ],
      "stateMutability": "nonpayable",
      "type": "function"
    },
    {
      "inputs": [
        {
          "internalType": "address",
          "name": "_owner",
          "type": "address"
        },
        {
          "internalType": "uint256",
          "name": "_balance",
          "type": "uint256"
        }
      ],
      "name": "undelegatedVotePowerOf",
      "outputs": [
        {
          "internalType": "uint256",
          "name": "",
          "type": "uint256"
        }
      ],
      "stateMutability": "view",
      "type": "function"
    },
    {
      "inputs": [
        {
          "internalType": "address",
          "name": "_owner",
          "type": "address"
        },
        {
          "internalType": "uint256",
          "name": "_balance",
          "type": "uint256"
        },
        {
          "internalType": "uint256",
          "name": "_blockNumber",
          "type": "uint256"
        }
      ],
      "name": "undelegatedVotePowerOfAt",
      "outputs": [
        {
          "internalType": "uint256",
          "name": "",
          "type": "uint256"
        }
      ],
      "stateMutability": "view",
      "type": "function"
    },
    {
      "inputs": [
        {
          "internalType": "address",
          "name": "_from",
          "type": "address"
        },
        {
          "internalType": "address",
          "name": "_to",
          "type": "address"
        },
        {
          "internalType": "uint256",
          "name": "_fromBalance",
          "type": "uint256"
        },
        {
          "internalType": "uint256",
          "name": "_toBalance",
          "type": "uint256"
        },
        {
          "internalType": "uint256",
          "name": "_amount",
          "type": "uint256"
        }
      ],
      "name": "updateAtTokenTransfer",
      "outputs": [],
      "stateMutability": "nonpayable",
      "type": "function"
    },
    {
      "inputs": [
        {
          "internalType": "address",
          "name": "_owner",
          "type": "address"
        },
        {
          "internalType": "uint256",
          "name": "_blockNumber",
          "type": "uint256"
        }
      ],
      "name": "votePowerCacheCleanup",
      "outputs": [
        {
          "internalType": "uint256",
          "name": "",
          "type": "uint256"
        }
      ],
      "stateMutability": "nonpayable",
      "type": "function"
    },
    {
      "inputs": [
        {
          "internalType": "address",
          "name": "_from",
          "type": "address"
        },
        {
          "internalType": "address",
          "name": "_to",
          "type": "address"
        },
        {
          "internalType": "uint256",
          "name": "_balance",
          "type": "uint256"
        }
      ],
      "name": "votePowerFromTo",
      "outputs": [
        {
          "internalType": "uint256",
          "name": "",
          "type": "uint256"
        }
      ],
      "stateMutability": "view",
      "type": "function"
    },
    {
      "inputs": [
        {
          "internalType": "address",
          "name": "_from",
          "type": "address"
        },
        {
          "internalType": "address",
          "name": "_to",
          "type": "address"
        },
        {
          "internalType": "uint256",
          "name": "_balance",
          "type": "uint256"
        },
        {
          "internalType": "uint256",
          "name": "_blockNumber",
          "type": "uint256"
        }
      ],
      "name": "votePowerFromToAt",
      "outputs": [
        {
          "internalType": "uint256",
          "name": "",
          "type": "uint256"
        }
      ],
      "stateMutability": "view",
      "type": "function"
    },
    {
      "inputs": [
        {
          "internalType": "address",
          "name": "_owner",
          "type": "address"
        },
        {
          "internalType": "uint256",
          "name": "_count",
          "type": "uint256"
        }
      ],
      "name": "votePowerHistoryCleanup",
      "outputs": [
        {
          "internalType": "uint256",
          "name": "",
          "type": "uint256"
        }
      ],
      "stateMutability": "nonpayable",
      "type": "function"
    },
    {
      "inputs": [
        {
          "internalType": "address",
          "name": "_owner",
          "type": "address"
        }
      ],
      "name": "votePowerInitialized",
      "outputs": [
        {
          "internalType": "bool",
          "name": "",
          "type": "bool"
        }
      ],
      "stateMutability": "view",
      "type": "function"
    },
    {
      "inputs": [
        {
          "internalType": "address",
          "name": "_owner",
          "type": "address"
        },
        {
          "internalType": "uint256",
          "name": "_blockNumber",
          "type": "uint256"
        }
      ],
      "name": "votePowerInitializedAt",
      "outputs": [
        {
          "internalType": "bool",
          "name": "",
          "type": "bool"
        }
      ],
      "stateMutability": "view",
      "type": "function"
    },
    {
      "inputs": [
        {
          "internalType": "address",
          "name": "_who",
          "type": "address"
        }
      ],
      "name": "votePowerOf",
      "outputs": [
        {
          "internalType": "uint256",
          "name": "",
          "type": "uint256"
        }
      ],
      "stateMutability": "view",
      "type": "function"
    },
    {
      "inputs": [
        {
          "internalType": "address",
          "name": "_who",
          "type": "address"
        },
        {
          "internalType": "uint256",
          "name": "_blockNumber",
          "type": "uint256"
        }
      ],
      "name": "votePowerOfAt",
      "outputs": [
        {
          "internalType": "uint256",
          "name": "",
          "type": "uint256"
        }
      ],
      "stateMutability": "view",
      "type": "function"
    },
    {
      "inputs": [
        {
          "internalType": "address",
          "name": "_who",
          "type": "address"
        },
        {
          "internalType": "uint256",
          "name": "_blockNumber",
          "type": "uint256"
        }
      ],
      "name": "votePowerOfAtCached",
      "outputs": [
        {
          "internalType": "uint256",
          "name": "",
          "type": "uint256"
        }
      ],
      "stateMutability": "nonpayable",
      "type": "function"
    },
    {
      "inputs": [
        {
          "internalType": "address",
          "name": "_who",
          "type": "address"
        },
        {
          "internalType": "uint256",
          "name": "_blockNumber",
          "type": "uint256"
        }
      ],
      "name": "votePowerOfAtIgnoringRevocation",
      "outputs": [
        {
          "internalType": "uint256",
          "name": "",
          "type": "uint256"
        }
      ],
      "stateMutability": "view",
      "type": "function"
    }
  ],
  "bytecode": "0x60c06040523480156200001157600080fd5b50604051620058ab380380620058ab833981810160405260408110156200003757600080fd5b50805160209091015181816001600160a01b038216620000895760405162461bcd60e51b8152600401808060200182810382526023815260200180620058886023913960400191505060405180910390fd5b606082901b6001600160601b031916608052151560f881901b60a0526001600160a01b03909116925060ff169050615731620001576000398061098f528061115752806117e7528061184152806118e352806119d05280611e00528061238252806124575250806109d75280610a8a5280610be35280610d0b5280610d495280610e415280610f89528061109852806111cb52806112d752806113e6528061145f52806114ab52806114d4528061187c5280611a6a5280611b3c5280611cef5280611d1852506157316000f3fe608060405234801561001057600080fd5b50600436106101f05760003560e01c8063833aca921161010f578063c7c62fab116100a2578063eadb436211610071578063eadb4362146108d1578063ed475a7914610913578063f68377671461093f578063f6a494af14610965576101f0565b8063c7c62fab1461082b578063cabc452814610867578063deea13e71461089d578063e587497e146108a5576101f0565b80639dc6b9f2116100de5780639dc6b9f214610795578063a1b5e3be146107cb578063aa94d3f2146107f7578063c25c9c7b146107ff576101f0565b8063833aca92146106cb578063891339a8146107075780638c0b6b401461073357806392bfe6d814610769576101f0565b806349e3c7e511610187578063653718831161015657806365371883146105885780637de5b8ed146105ac5780637f4fcaa9146106795780637f57d58f1461069f576101f0565b806349e3c7e5146103f15780634a03d556146104e65780635b87c901146105125780636230001a1461054c576101f0565b8063142d1018116101c3578063142d1018146103315780631a05274c146103575780633150392714610383578063404d9e82146103b5576101f0565b806304bb4e43146101f557806305109ecf146102335780630f8b8af71461026157806313de97f514610314575b600080fd5b6102216004803603604081101561020b57600080fd5b506001600160a01b03813516906020013561098b565b60408051918252519081900360200190f35b61025f6004803603604081101561024957600080fd5b506001600160a01b038135169060200135610a7f565b005b6102216004803603604081101561027757600080fd5b6001600160a01b0382351691908101906040810160208201356401000000008111156102a257600080fd5b8201836020820111156102b457600080fd5b803590602001918460208302840111640100000000831117156102d657600080fd5b919080806020026020016040519081016040528093929190818152602001838360200280828437600092019190915250929550610bd6945050505050565b61025f6004803603602081101561032a57600080fd5b5035610d00565b6102216004803603602081101561034757600080fd5b50356001600160a01b0316610e1f565b6102216004803603604081101561036d57600080fd5b506001600160a01b038135169060200135610ee0565b6102216004803603606081101561039957600080fd5b506001600160a01b038135169060208101359060400135610f54565b61025f600480360360808110156103cb57600080fd5b506001600160a01b03813581169160208101359091169060408101359060600135610f7e565b6104966004803603604081101561040757600080fd5b81019060208101813564010000000081111561042257600080fd5b82018360208201111561043457600080fd5b8035906020019184602083028401116401000000008311171561045657600080fd5b9190808060200260200160405190810160405280939291908181526020018383602002808284376000920191909152509295505091359250611147915050565b60408051602080825283518183015283519192839290830191858101910280838360005b838110156104d25781810151838201526020016104ba565b505050509050019250505060405180910390f35b610221600480360360408110156104fc57600080fd5b506001600160a01b0381351690602001356112a0565b6105386004803603602081101561052857600080fd5b50356001600160a01b03166112c1565b604080519115158252519081900360200190f35b61025f6004803603608081101561056257600080fd5b506001600160a01b038135811691602081013590911690604081013590606001356112cc565b61059061145d565b604080516001600160a01b039092168252519081900360200190f35b6105d2600480360360208110156105c257600080fd5b50356001600160a01b0316611481565b604051808060200180602001858152602001848152602001838103835287818151815260200191508051906020019060200280838360005b8381101561062257818101518382015260200161060a565b50505050905001838103825286818151815260200191508051906020019060200280838360005b83811015610661578181015183820152602001610649565b50505050905001965050505050505060405180910390f35b61025f6004803603602081101561068f57600080fd5b50356001600160a01b03166114a0565b610221600480360360408110156106b557600080fd5b506001600160a01b0381351690602001356115d1565b610221600480360360808110156106e157600080fd5b506001600160a01b03813581169160208101359091169060408101359060600135611651565b6102216004803603604081101561071d57600080fd5b506001600160a01b03813516906020013561166a565b6102216004803603606081101561074957600080fd5b506001600160a01b03813581169160208101359091169060400135611726565b6102216004803603604081101561077f57600080fd5b506001600160a01b0381351690602001356117e3565b610221600480360360608110156107ab57600080fd5b506001600160a01b03813581169160208101359091169060400135611826565b610538600480360360408110156107e157600080fd5b506001600160a01b038135169060200135611833565b61053861183f565b61025f6004803603604081101561081557600080fd5b506001600160a01b038135169060200135611863565b61025f6004803603608081101561084157600080fd5b506001600160a01b03813581169160208101359091169060408101359060600135611871565b6102216004803603606081101561087d57600080fd5b506001600160a01b0381358116916020810135909116906040013561193b565b6102216119bd565b610221600480360360408110156108bb57600080fd5b506001600160a01b0381351690602001356119cc565b61025f600480360360a08110156108e757600080fd5b506001600160a01b03813581169160208101359091169060408101359060608101359060800135611b31565b6105d26004803603604081101561092957600080fd5b506001600160a01b038135169060200135611c0d565b6102216004803603602081101561095557600080fd5b50356001600160a01b0316611cce565b61025f6004803603602081101561097b57600080fd5b50356001600160a01b0316611ce4565b60007f000000000000000000000000000000000000000000000000000000000000000015806109bf57506109bf8383611dfc565b156109d5576109ce8383611e5d565b9050610a79565b7f00000000000000000000000000000000000000000000000000000000000000006001600160a01b0316634ee2cd7e84846040518363ffffffff1660e01b815260040180836001600160a01b031681526020018281526020019250505060206040518083038186803b158015610a4a57600080fd5b505afa158015610a5e573d6000803e3d6000fd5b505050506040513d6020811015610a7457600080fd5b505190505b92915050565b336001600160a01b037f00000000000000000000000000000000000000000000000000000000000000001614610aef576040805162461bcd60e51b815260206004820152601060248201526f37b7363c9037bbb732b9103a37b5b2b760811b604482015290519081900360640190fd5b81610af981611ead565b6040518060400160405280601c81526020017f416c72656164792064656c656761746564206578706c696369746c790000000081525090610bb85760405162461bcd60e51b81526004018080602001828103825283818151815260200191508051906020019080838360005b83811015610b7d578181015183820152602001610b65565b50505050905090810190601f168015610baa5780820380516001836020036101000a031916815260200191505b509250505060405180910390fd5b50610bc283611ef4565b15610bd157610bd18383611f8c565b505050565b6000336001600160a01b037f00000000000000000000000000000000000000000000000000000000000000001614610c48576040805162461bcd60e51b815260206004820152601060248201526f37b7363c9037bbb732b9103a37b5b2b760811b604482015290519081900360640190fd5b82610c528161212b565b6040518060400160405280601f81526020017f416c72656164792064656c6567617465642062792070657263656e746167650081525090610cd45760405162461bcd60e51b8152602060048201818152835160248401528351909283926044909101919085019080838360008315610b7d578181015183820152602001610b65565b50610cde84611ef4565b15610cf457610ced8484612162565b9150610cf9565b600091505b5092915050565b336001600160a01b037f0000000000000000000000000000000000000000000000000000000000000000161480610d4157506008546001600160a01b031633145b80610dd857507f00000000000000000000000000000000000000000000000000000000000000006001600160a01b0316635aa6e6756040518163ffffffff1660e01b815260040160206040518083038186803b158015610da057600080fd5b505afa158015610db4573d6000803e3d6000fd5b505050506040513d6020811015610dca57600080fd5b50516001600160a01b031633145b610e135760405162461bcd60e51b815260040180806020018281038252602f8152602001806155a6602f913960400191505060405180910390fd5b610e1c816122fa565b50565b6000610e2a8261237e565b15610e3f57610e38826123cb565b9050610edb565b7f00000000000000000000000000000000000000000000000000000000000000006001600160a01b03166370a08231836040518263ffffffff1660e01b815260040180826001600160a01b0316815260200191505060206040518083038186803b158015610eac57600080fd5b505afa158015610ec0573d6000803e3d6000fd5b505050506040513d6020811015610ed657600080fd5b505190505b919050565b6007546000906001600160a01b03163314610f3a576040805162461bcd60e51b815260206004820152601560248201527413db9b1e4818db19585b995c8818dbdb9d1c9858dd605a1b604482015290519081900360640190fd5b600654610f4d90600390859085906123d8565b9392505050565b6000610f5f8461237e565b15610f7657610f6f8484846123e6565b9050610f4d565b509092915050565b336001600160a01b037f00000000000000000000000000000000000000000000000000000000000000001614610fee576040805162461bcd60e51b815260206004820152601060248201526f37b7363c9037bbb732b9103a37b5b2b760811b604482015290519081900360640190fd5b83610ff88161212b565b6040518060400160405280601f81526020017f416c72656164792064656c6567617465642062792070657263656e74616765008152509061107a5760405162461bcd60e51b8152602060048201818152835160248401528351909283926044909101919085019080838360008315610b7d578181015183820152602001610b65565b506110858584612455565b61108e8461237e565b61113457611134847f00000000000000000000000000000000000000000000000000000000000000006001600160a01b03166370a08231876040518263ffffffff1660e01b815260040180826001600160a01b0316815260200191505060206040518083038186803b15801561110357600080fd5b505afa158015611117573d6000803e3d6000fd5b505050506040513d602081101561112d57600080fd5b5051612455565b61114085858585612505565b5050505050565b606061115383836127ea565b90507f000000000000000000000000000000000000000000000000000000000000000015610a795760005b8151811015610cf95781818151811061119357fe5b602002602001015160001480156111c457506111c28482815181106111b457fe5b602002602001015184611dfc565b155b15611298577f00000000000000000000000000000000000000000000000000000000000000006001600160a01b0316634ee2cd7e85838151811061120457fe5b6020026020010151856040518363ffffffff1660e01b815260040180836001600160a01b031681526020018281526020019250505060206040518083038186803b15801561125157600080fd5b505afa158015611265573d6000803e3d6000fd5b505050506040513d602081101561127b57600080fd5b5051825183908390811061128b57fe5b6020026020010181815250505b60010161117e565b60006112ab8361237e565b156112ba576109ce8383612925565b5080610a79565b6000610a798261237e565b336001600160a01b037f0000000000000000000000000000000000000000000000000000000000000000161461133c576040805162461bcd60e51b815260206004820152601060248201526f37b7363c9037bbb732b9103a37b5b2b760811b604482015290519081900360640190fd5b8361134681611ead565b6040518060400160405280601c81526020017f416c72656164792064656c656761746564206578706c696369746c7900000000815250906113c85760405162461bcd60e51b8152602060048201818152835160248401528351909283926044909101919085019080838360008315610b7d578181015183820152602001610b65565b506113d38584612455565b6113dc8461237e565b61145157611451847f00000000000000000000000000000000000000000000000000000000000000006001600160a01b03166370a08231876040518263ffffffff1660e01b815260040180826001600160a01b0316815260200191505060206040518083038186803b15801561110357600080fd5b61114085858585612932565b7f000000000000000000000000000000000000000000000000000000000000000081565b6060806000806114918543611c0d565b93509350935093509193509193565b336001600160a01b037f000000000000000000000000000000000000000000000000000000000000000016148061156357507f00000000000000000000000000000000000000000000000000000000000000006001600160a01b0316635aa6e6756040518163ffffffff1660e01b815260040160206040518083038186803b15801561152b57600080fd5b505afa15801561153f573d6000803e3d6000fd5b505050506040513d602081101561155557600080fd5b50516001600160a01b031633145b6115af576040805162461bcd60e51b81526020600482015260186024820152776f6e6c79206f776e6572206f7220676f7665726e616e636560401b604482015290519081900360640190fd5b600880546001600160a01b0319166001600160a01b0392909216919091179055565b6007546000906001600160a01b0316331461162b576040805162461bcd60e51b815260206004820152601560248201527413db9b1e4818db19585b995c8818dbdb9d1c9858dd605a1b604482015290519081900360640190fd5b6006546001600160a01b0384166000908152600160205260409020610f4d918490612ba5565b600061165f85858585612bb2565b90505b949350505050565b6007546000906001600160a01b031633146116c4576040805162461bcd60e51b815260206004820152601560248201527413db9b1e4818db19585b995c8818dbdb9d1c9858dd605a1b604482015290519081900360640190fd5b600654821061171a576040805162461bcd60e51b815260206004820152601e60248201527f4e6f20636c65616e757020616674657220636c65616e757020626c6f636b0000604482015290519081900360640190fd5b610f4d60048484612c29565b6007546000906001600160a01b03163314611780576040805162461bcd60e51b815260206004820152601560248201527413db9b1e4818db19585b995c8818dbdb9d1c9858dd605a1b604482015290519081900360640190fd5b60065482106117d6576040805162461bcd60e51b815260206004820152601e60248201527f4e6f20636c65616e757020616674657220636c65616e757020626c6f636b0000604482015290519081900360640190fd5b6116626004858585612c96565b60007f0000000000000000000000000000000000000000000000000000000000000000158061181757506118178383611dfc565b156109d5576109ce8383612d24565b6000611662848484612d89565b6000610f4d8383611dfc565b7f000000000000000000000000000000000000000000000000000000000000000081565b61186d8282612455565b5050565b336001600160a01b037f000000000000000000000000000000000000000000000000000000000000000016146118e1576040805162461bcd60e51b815260206004820152601060248201526f37b7363c9037bbb732b9103a37b5b2b760811b604482015290519081900360640190fd5b7f0000000000000000000000000000000000000000000000000000000000000000158061192457506119138482611dfc565b801561192457506119248382611dfc565b156119355761193584848484612e3a565b50505050565b6007546000906001600160a01b03163314611995576040805162461bcd60e51b815260206004820152601560248201527413db9b1e4818db19585b995c8818dbdb9d1c9858dd605a1b604482015290519081900360640190fd5b6006546001600160a01b03851660009081526002602052604090206116629185908590612f35565b60006119c7612f5c565b905090565b60007f00000000000000000000000000000000000000000000000000000000000000001580611a005750611a008383611dfc565b15611a0f576109ce8383612f62565b604080516001600160a01b038516602080830191909152818301859052825180830384018152606090920183528151918101919091206000818152600a909252919020548015611a6657600019019150610a799050565b60007f00000000000000000000000000000000000000000000000000000000000000006001600160a01b0316634ee2cd7e87876040518363ffffffff1660e01b815260040180836001600160a01b031681526020018281526020019250505060206040518083038186803b158015611add57600080fd5b505afa158015611af1573d6000803e3d6000fd5b505050506040513d6020811015611b0757600080fd5b50519050611b16816001613062565b6000938452600a602052604090932092909255509050610a79565b336001600160a01b037f00000000000000000000000000000000000000000000000000000000000000001614611ba1576040805162461bcd60e51b815260206004820152601060248201526f37b7363c9037bbb732b9103a37b5b2b760811b604482015290519081900360640190fd5b6001600160a01b038516611bc957611bb98483612455565b611bc48483836130bc565b611140565b6001600160a01b038416611bec57611be18584612455565b611bc4858483613126565b611bf68584612455565b611c008483612455565b611140858585858561323e565b6060806000806000611c1e87613254565b90506001816002811115611c2e57fe5b1415611c4857611c3e8787613272565b9095509350611cb2565b6000816002811115611c5657fe5b1415611c7b576040805160008082526020820190815281830190925295509350611cb2565b60405162461bcd60e51b81526004018080602001828103825260338152602001806156c96033913960400191505060405180910390fd5b84519250806002811115611cc257fe5b91505092959194509250565b6000611cd982613254565b6002811115610a7957fe5b336001600160a01b037f0000000000000000000000000000000000000000000000000000000000000000161480611da757507f00000000000000000000000000000000000000000000000000000000000000006001600160a01b0316635aa6e6756040518163ffffffff1660e01b815260040160206040518083038186803b158015611d6f57600080fd5b505afa158015611d83573d6000803e3d6000fd5b505050506040513d6020811015611d9957600080fd5b50516001600160a01b031633145b611df3576040805162461bcd60e51b81526020600482015260186024820152776f6e6c79206f776e6572206f7220676f7665726e616e636560401b604482015290519081900360640190fd5b610e1c816134af565b60007f0000000000000000000000000000000000000000000000000000000000000000611e2b57506001610a79565b6001600160a01b0383166000908152600960205260409020548015801590611662575060001901919091111592915050565b600081600654811015611ea15760405162461bcd60e51b815260040180806020018281038252602a81526020018061557c602a913960400191505060405180910390fd5b611662600385856134d1565b6001600160a01b03811660009081526020819052604081205460ff1681816002811115611ed657fe5b1480610f4d575060015b816002811115611eec57fe5b149392505050565b6001600160a01b03811660009081526020819052604081205460ff1681816002811115611f1d57fe5b1415611f2d576000915050610edb565b6002816002811115611f3b57fe5b1415611f6b576001600160a01b0383166000908152600260205260408120611f62906134de565b11915050610edb565b6001600160a01b0383166000908152600160205260408120611f62906134e9565b6001600160a01b03821660009081526020819052604081205460ff1690816002811115611fb557fe5b1415611fc1575061186d565b6001816002811115611fcf57fe5b1461200b5760405162461bcd60e51b815260040180806020018281038252603c8152602001806154d2603c913960400191505060405180910390fd5b6001600160a01b0383166000908152600160205260408120908061202e836134f5565b9150915060005b825181101561210757600083828151811061204c57fe5b60200260200101519050600061208284848151811061206757fe5b60200260200101516127108a61350b9092919063ffffffff16565b905061209160038a8484613604565b6006546120a5906003908b906002906123d8565b506006546120ba9060039084906002906123d8565b50816001600160a01b0316896001600160a01b031660008051602061555c833981519152836000604051808381526020018281526020019250505060405180910390a35050600101612035565b5061211183613649565b600654612122908490600290612ba5565b50505050505050565b6001600160a01b03811660009081526020819052604081205460ff168181600281111561215457fe5b1480610f4d57506002611ee0565b6001600160a01b03821660009081526020819052604081205460ff168181600281111561218b57fe5b141561219b576000915050610a79565b60028160028111156121a957fe5b146121e55760405162461bcd60e51b81526004018080602001828103825260428152602001806155d56042913960600191505060405180910390fd5b6001600160a01b0384166000908152600260205260408120905b84518110156122e757600085828151811061221657fe5b602002602001015190506000612235828561365290919063ffffffff16565b9050806122435750506122df565b6122506003898484613604565b600654612264906003908a906002906123d8565b506006546122799060039084906002906123d8565b5061228684836000613661565b6006546122999085908490600290612f35565b50816001600160a01b0316886001600160a01b031660008051602061555c833981519152836000604051808381526020018281526020019250505060405180910390a350505b6001016121ff565b506122f1816134de565b95945050505050565b60065481101561233b5760405162461bcd60e51b81526004018080602001828103825260288152602001806155346028913960400191505060405180910390fd5b4381106123795760405162461bcd60e51b81526004018080602001828103825260218152602001806154b16021913960400191505060405180910390fd5b600655565b60007f00000000000000000000000000000000000000000000000000000000000000006123ad57506001610edb565b506001600160a01b0316600090815260096020526040902054151590565b6000610a796003836136cb565b600061165f858585856136d7565b60008160065481101561242a5760405162461bcd60e51b815260040180806020018281038252602a81526020018061557c602a913960400191505060405180910390fd5b6000612437868686613712565b905060008061244687846137f0565b9550505050505b509392505050565b7f000000000000000000000000000000000000000000000000000000000000000061247f5761186d565b6001600160a01b0382166124925761186d565b6001600160a01b03821660009081526009602052604090205461186d576124b8826123cb565b1580156124cb57506124c982611ef4565b155b6124d157fe5b6124dd826000836130bc565b6124e8436001613062565b6001600160a01b0383166000908152600960205260409020555050565b6001600160a01b03831661255a576040805162461bcd60e51b815260206004820152601760248201527643616e6e6f742064656c656761746520746f207a65726f60481b604482015290519081900360640190fd5b836001600160a01b0316836001600160a01b031614156125bb576040805162461bcd60e51b815260206004820152601760248201527621b0b73737ba103232b632b3b0ba32903a379039b2b63360491b604482015290519081900360640190fd5b6125c48461212b565b612615576040805162461bcd60e51b815260206004820152601960248201527f43616e6e6f742064656c656761746520627920616d6f756e7400000000000000604482015290519081900360640190fd5b6001600160a01b0384166000908152600260205260408120906126388286613652565b9050808310156126565761265160038787868503613604565b612706565b600061266c826126668988612925565b90613062565b9050838110156040518060400160405280602081526020017f556e64656c65676174656420766f746520706f77657220746f6f20736d616c6c815250906126f45760405162461bcd60e51b8152602060048201818152835160248401528351909283926044909101919085019080838360008315610b7d578181015183820152602001610b65565b5061270460038888858803613816565b505b60065461271a9060039088906002906123d8565b5060065461272f9060039087906002906123d8565b5061273b828685613661565b60065461274e9083908790600290612f35565b5060026001600160a01b03871660009081526020819052604090205460ff16600281111561277857fe5b146127a1576001600160a01b0386166000908152602081905260409020805460ff191660021790555b846001600160a01b0316866001600160a01b031660008051602061555c8339815191528386604051808381526020018281526020019250505060405180910390a3505050505050565b60608160065481101561282e5760405162461bcd60e51b815260040180806020018281038252602a81526020018061557c602a913960400191505060405180910390fd5b438310612882576040805162461bcd60e51b815260206004820181905260248201527f43616e206f6e6c79206265207573656420666f72207061737420626c6f636b73604482015290519081900360640190fd5b83516001600160401b038111801561289957600080fd5b506040519080825280602002602001820160405280156128c3578160200160208202803683370190505b50915060005b845181101561291d576128fe60038683815181106128e357fe5b6020026020010151866004613853909392919063ffffffff16565b83828151811061290a57fe5b60209081029190910101526001016128c9565b505092915050565b6000610f4d8383436123e6565b6001600160a01b038316612987576040805162461bcd60e51b815260206004820152601760248201527643616e6e6f742064656c656761746520746f207a65726f60481b604482015290519081900360640190fd5b836001600160a01b0316836001600160a01b031614156129e8576040805162461bcd60e51b815260206004820152601760248201527621b0b73737ba103232b632b3b0ba32903a379039b2b63360491b604482015290519081900360640190fd5b6129f184611ead565b612a42576040805162461bcd60e51b815260206004820152601d60248201527f43616e6e6f742064656c65676174652062792070657263656e74616765000000604482015290519081900360640190fd5b6001600160a01b038416600090815260016020526040812090612a6582866138c2565b9050600080612a758488876138ce565b600654612a86908590600290612ba5565b508215612a9d57612a9a868461271061350b565b91505b8415612ab357612ab0868661271061350b565b90505b81811015612acf57612aca60038989848603613604565b612ade565b612ade60038989858503613816565b600654612af2906003908a906002906123d8565b50600654612b079060039089906002906123d8565b5060016001600160a01b03891660009081526020819052604090205460ff166002811115612b3157fe5b14612b5a576001600160a01b0388166000908152602081905260409020805460ff191660011790555b866001600160a01b0316886001600160a01b031660008051602061555c8339815191528484604051808381526020018281526020019250505060405180910390a35050505050505050565b6000611662848484613975565b600081600654811015612bf65760405162461bcd60e51b815260040180806020018281038252602a81526020018061557c602a913960400191505060405180910390fd5b612c036004878786613ab3565b15612c115760009150612c20565b612c1d86868686613b07565b91505b50949350505050565b604080516001600160a01b038416602080830191909152818301849052825180830384018152606090920183528151918101919091206000818152918690529181205490919015612c8b57600090815260208590526040812055506001610f4d565b506000949350505050565b604080516001600160a01b03808616602080840191909152828401859052835180840385018152606090930184528251928101929092206000818152600189018452848120928716815292829052928220549192918015612d1657506001600160a01b038516600090815260209190915260408120555060019050611662565b506000979650505050505050565b600081600654811015612d685760405162461bcd60e51b815260040180806020018281038252602a81526020018061557c602a913960400191505060405180910390fd5b43831015612d7e57610ced600460038686613853565b610ced6003856136cb565b6001600160a01b03831660009081526020819052604081205460ff1681816002811115612db257fe5b1415612dc2576000915050610f4d565b6001816002811115612dd057fe5b1415612e10576001600160a01b0385166000908152600160205260408120612df890866138c2565b9050612e07848261271061350b565b92505050610f4d565b6001600160a01b0385166000908152600260205260409020612e329085613652565b915050610f4d565b80600654811015612e7c5760405162461bcd60e51b815260040180806020018281038252602a81526020018061557c602a913960400191505060405180910390fd5b438210612eba5760405162461bcd60e51b815260040180806020018281038252603b81526020018061565e603b913960400191505060405180910390fd5b6000612ec886868686613b07565b9050612eda6004600388888588613bba565b846001600160a01b0316866001600160a01b03167fd6f80c7d68e3e62bd7a51c3d37e575c1cfbc311c07487b69ef4eb570bc21cb688386604051808381526020018281526020019250505060405180910390a3505050505050565b6000612f42858484613d2d565b9050612f53600286018585856136d7565b01949350505050565b60065490565b600081600654811015612fa65760405162461bcd60e51b815260040180806020018281038252602a81526020018061557c602a913960400191505060405180910390fd5b438310612ffa576040805162461bcd60e51b815260206004820181905260248201527f43616e206f6e6c79206265207573656420666f72207061737420626c6f636b73604482015290519081900360640190fd5b60008061300b600460038888613dce565b915091508015612c2057604080516001600160a01b03881681526020810187905281517fb0b412112c2958bbc2537fa96db51ddcfe7d0d074143f0b5308b6aab19b6694b929181900390910190a150949350505050565b600082820183811015610f4d576040805162461bcd60e51b815260206004820152601b60248201527f536166654d6174683a206164646974696f6e206f766572666c6f770000000000604482015290519081900360640190fd5b60016001600160a01b03841660009081526020819052604090205460ff1660028111156130e557fe5b1415613104576130ff83836130fa8185613062565b613e58565b610bd1565b613112600384836000613f98565b6006546119359060039085906002906123d8565b600061314d8260405180606001604052806026815260200161550e60269139859190613fe4565b905060016001600160a01b03851660009081526020819052604090205460ff16600281111561317857fe5b141561318e57613189848483613e58565b611935565b61319984848461403e565b6040518060400160405280602081526020017f556e64656c65676174656420766f746520706f77657220746f6f20736d616c6c8152509061321b5760405162461bcd60e51b8152602060048201818152835160248401528351909283926044909101919085019080838360008315610b7d578181015183820152602001610b65565b5061322a600385600085613f98565b6006546111409060039086906002906123d8565b613249858483613126565b6111408483836130bc565b6001600160a01b031660009081526020819052604090205460ff1690565b606080826006548110156132b75760405162461bcd60e51b815260040180806020018281038252602a81526020018061557c602a913960400191505060405180910390fd5b6001600160a01b03851660009081526001602052604090206060806132dc838861408b565b909250905060005b825181101561334057613318898483815181106132fd57fe5b60200260200101518a6004613ab3909392919063ffffffff16565b1561333857600082828151811061332b57fe5b6020026020010181815250505b6001016132e4565b506000805b83518110156133785782818151811061335a57fe5b6020026020010151600014613370576001909101905b600101613345565b50806001600160401b038111801561338f57600080fd5b506040519080825280602002602001820160405280156133b9578160200160208202803683370190505b509650806001600160401b03811180156133d257600080fd5b506040519080825280602002602001820160405280156133fc578160200160208202803683370190505b5095506000805b84518110156134a15783818151811061341857fe5b60200260200101516000146134995784818151811061343357fe5b602002602001015189838151811061344757fe5b60200260200101906001600160a01b031690816001600160a01b03168152505083818151811061347357fe5b602002602001015188838151811061348757fe5b60209081029190910101526001909101905b600101613403565b505050505050509250929050565b600780546001600160a01b0319166001600160a01b0392909216919091179055565b60006116628484846140a3565b6000610a79826140c5565b6000610a79824361410d565b6060806135018361415b565b915091505b915091565b6000808211613554576040805162461bcd60e51b815260206004820152601060248201526f4469766973696f6e206279207a65726f60801b604482015290519081900360640190fd5b8361356157506000610f4d565b8383028385828161356e57fe5b0414156135875782818161357e57fe5b04915050610f4d565b600083868161359257fe5b04905060008487816135a057fe5b06905060008587816135ae57fe5b04905060008688816135bc57fe5b0690506124466135d6886135d08685614168565b906141c1565b6126666135e38686614168565b6126666135f08987614168565b6126668d6135fe8c8b614168565b90614168565b82826001600160a01b03821615801561362457506001600160a01b038116155b1561362b57fe5b8261363557613641565b61364186858786614228565b505050505050565b610e1c816142b1565b6000610f4d60028401836143d7565b600061367060028501846143d7565b905060006136b18361266684604051806040016040528060098152602001680546f74616c203c20360bc1b8152506136aa8a6000016140c5565b9190613fe4565b90506136c16002860185856143f8565b6111408582614416565b6000610f4d83836143d7565b60006001600160a01b03841615612c8b576001600160a01b038416600090815260208690526040902061370b908484613d2d565b9050611662565b6000816006548110156137565760405162461bcd60e51b815260040180806020018281038252602a81526020018061557c602a913960400191505060405180910390fd5b6001600160a01b03851660009081526020819052604081205460ff169081600281111561377f57fe5b141561378f57600092505061244d565b600281600281111561379d57fe5b14156137cd576001600160a01b03861660009081526002602052604090206137c590856145d7565b92505061244d565b6001600160a01b03861660009081526001602052604090206137c59086866145e3565b600080838311156138065750600090508061380f565b50600190508183035b9250929050565b82826001600160a01b03821615801561383657506001600160a01b038116155b1561383d57fe5b8261384757613641565b61364186868686614228565b604080516001600160a01b038416602080830191909152818301849052825180830384018152606090920183528151918101919091206000818152918790529181205490919080156138ac576000190191506116629050565b6138b78686866134d1565b979650505050505050565b6000610f4d83836145f3565b6127108111156138da57fe5b6138e5838383614637565b6127106138f18461485b565b11156040518060400160405280601c81526020017f4d61782064656c65676174696f6e206269707320657863656564656400000000815250906119355760405162461bcd60e51b8152602060048201818152835160248401528351909283926044909101919085019080838360008315610b7d578181015183820152602001610b65565b60008161398457506000610f4d565b6001840154600160401b90046001600160401b0316806139a8576000915050610f4d565b60018501546001600160401b031660006139ce6139c58388613062565b60018503614867565b9050815b8181108015613a0c575060018101600090815260208981526040808320838052909152902054600160b01b90046001600160401b03168610155b15613a7057600081815260208981526040808320838052918290528220549091600160f01b90910460ff16905b81811015613a6557600081815260208490526040902080546001600160f81b0319169055600101613a39565b5050506001016139d2565b82811115613aa557613a818161487d565b60018901805467ffffffffffffffff19166001600160401b03929092169190911790555b919091039695505050505050565b604080516001600160a01b0394851660208083019190915281830193909352815180820383018152606090910182528051908301206000908152600195909501825280852092909316845252902054151590565b6001600160a01b03841660009081526020819052604081205460ff1681816002811115613b3057fe5b1415613b40576000915050611662565b6001816002811115613b4e57fe5b1415613b8f576001600160a01b0386166000908152600160205260408120613b779087866148c5565b9050613b86858261271061350b565b92505050611662565b6001600160a01b0386166000908152600260205260409020613bb29086856148d2565b915050611662565b81613bc457613641565b604080516001600160a01b0380871660208084019190915282840185905283518084038501815260609093018452825192810192909220600081815260018b018452848120928816815291909252919091205415613c5b576040805162461bcd60e51b815260206004820152600f60248201526e105b1c9958591e481c995d9bdad959608a1b604482015290519081900360640190fd5b6000613c6988888786613dce565b5090506000858460405160200180836001600160a01b0316815260200182815260200192505050604051602081830303815290604052805190602001209050613cfc8982613cf7886040518060400160405280601781526020017f5265766f6b65642076616c756520746f6f206c6172676500000000000000000081525087613fe49092919063ffffffff16565b6148e2565b5050600090815260018701602090815260408083206001600160a01b03871684529091529020829055505050505050565b600081613d3c57506000610f4d565b6001840154600160401b90046001600160401b031680613d60576000915050610f4d565b60018501546001600160401b03166000613d7d6139c58388613062565b9050815b8181108015613db2575060018101600090815260208990526040902054600160c01b90046001600160401b03168610155b15613a7057600081815260208990526040812055600101613d81565b604080516001600160a01b0384166020808301919091528183018490528251808303840181526060909201835281519181019190912060008181529187905291812054909182918015613e2c5760001901925060009150613e4f9050565b6000613e398888886134d1565b9050613e468984836148e2565b93506001925050505b94509492505050565b6001600160a01b0383166000908152600160205260408120908290849080613e7f85614900565b9150915060005b82811015613f63576000818152602083905260408120805490916001600160a01b03821691600160a01b900461ffff1690613ec48c8361271061350b565b90506000613ed58c8461271061350b565b9050613ee18a83613062565b9950613eed8982613062565b9850613efc6003858385613f98565b600654613f109060039086906002906123d8565b50836001600160a01b03168e6001600160a01b031660008051602061555c8339815191528484604051808381526020018281526020019250505060405180910390a3505060019093019250613e86915050565b50828414613f8e57613f786003898686613f98565b600654613f8c906003908a906002906123d8565b505b5050505050505050565b6001600160a01b038316613fa857fe5b80821415613fb557611935565b6000613fc185856143d7565b9050613fd782613fd18386613062565b9061490c565b90506111408585836143f8565b600081848411156140365760405162461bcd60e51b8152602060048201818152835160248401528351909283926044909101919085019080838360008315610b7d578181015183820152602001610b65565b505050900390565b600060026001600160a01b03851660009081526020819052604090205460ff16600281111561406957fe5b1415614083578161407a8585612925565b10159050610f4d565b506001610f4d565b6060806140988484614969565b915091509250929050565b6001600160a01b03821660009081526020849052604081206122f18184614ad8565b6001810154600090600160401b90046001600160401b0316806140ec576000915050610edb565b6000190160009081526020929092525060409020546001600160c01b031690565b600080600061411c8585614c1b565b915091508161413057600092505050610a79565b6000908152602094855260408082208280529095529390932054600160f01b900460ff169392505050565b6060806135018343614969565b60008261417757506000610a79565b8282028284828161418457fe5b0414610f4d5760405162461bcd60e51b81526004018080602001828103825260218152602001806156176021913960400191505060405180910390fd5b6000808211614217576040805162461bcd60e51b815260206004820152601a60248201527f536166654d6174683a206469766973696f6e206279207a65726f000000000000604482015290519081900360640190fd5b81838161422057fe5b049392505050565b8061423257611935565b6001600160a01b03831615801561425057506001600160a01b038216155b1561425757fe5b6001600160a01b0383161561428557600061427682613fd187876143d7565b90506142838585836143f8565b505b6001600160a01b038216156119355760006142a48261266687866143d7565b90506111408584836143f8565b6001810154600160401b90046001600160401b0316801561186d5760008181526020839052604090206142e66001830161487d565b6001840180546001600160401b0392909216600160401b0267ffffffffffffffff60401b1990921691909117905560408051608081018252600080825260208201529081016143344361487d565b6001600160401b039081168252600060209283018190528080529382526040938490208351815493850151958501516060909501516001600160a01b03199094166001600160a01b039091161761ffff60a01b1916600160a01b61ffff909616959095029490941767ffffffffffffffff60b01b1916600160b01b93909116929092029190911760ff60f01b1916600160f01b60ff909216919091021790555050565b6001600160a01b0381166000908152602083905260408120611662816140c5565b6001600160a01b038216600090815260208490526040902061193581835b6001820154600160401b90046001600160401b0316806144cd57604051806040016040528061444484614d1a565b6001600160c01b0316815260200161445b4361487d565b6001600160401b03908116909152600080805260208681526040909120835181549490920151909216600160c01b026001600160c01b039182166001600160c01b0319909416939093171691909117905560018301805467ffffffffffffffff60401b1916600160401b179055610bd1565b600019810160009081526020849052604090208054600160c01b90046001600160401b0316438114156145235761450384614d1a565b82546001600160c01b0319166001600160c01b0391909116178255611140565b80431161452c57fe5b604051806040016040528061454086614d1a565b6001600160c01b031681526020016145574361487d565b6001600160401b039081169091526000858152602088815260409091208351815494909201518316600160c01b026001600160c01b039283166001600160c01b0319909516949094179091169290921790915560018087018054918601909216600160401b0267ffffffffffffffff60401b199091161790555050505050565b6000610f4d8383614ad8565b6000611662848461271085614d74565b6001820154600090600160401b90046001600160401b03168061461a576000915050610a79565b600019810160009081526020859052604090206116629084614e0f565b6001830154600160401b90046001600160401b0316806147725781156131895760008181526020859052604090206146716001830161487d565b8560010160086101000a8154816001600160401b0302191690836001600160401b031602179055506040518060800160405280856001600160a01b031681526020016146bc85614e74565b61ffff1681526020016146ce4361487d565b6001600160401b039081168252600160209283015260008080529382526040938490208351815493850151958501516060909501516001600160a01b03199094166001600160a01b039091161761ffff60a01b1916600160a01b61ffff909616959095029490941767ffffffffffffffff60b01b1916600160b01b93909116929092029190911760ff60f01b1916600160f01b60ff90921691909102179055611935565b60001981016000908152602085815260408083208380529182905290912054600160b01b90046001600160401b0316438114156147b9576147b4828686614eb7565b613641565b8043116147c257fe5b60008381526020879052604090206147dc6001850161487d565b8760010160086101000a8154816001600160401b0302191690836001600160401b0316021790555061481081848888614fcc565b6148194361487d565b6000808052602092909252604090912080546001600160401b0392909216600160b01b0267ffffffffffffffff60b01b19909216919091179055505050505050565b6000610a7982436150e2565b60008183106148765781610f4d565b5090919050565b6000600160401b82106148c15760405162461bcd60e51b81526004018080602001828103825260268152602001806156386026913960400191505060405180910390fd5b5090565b6000611662848484615170565b60006116626002850184846140a3565b6148ed816001613062565b6000928352602093909352506040902055565b600080613501836151b5565b600082821115614963576040805162461bcd60e51b815260206004820152601e60248201527f536166654d6174683a207375627472616374696f6e206f766572666c6f770000604482015290519081900360640190fd5b50900390565b6060806000806149798686614c1b565b91509150816149a3575050604080516000808252602082019081528183019092529250905061380f565b6000818152602087815260408083208380529182905290912054600160f01b900460ff16806001600160401b03811180156149dd57600080fd5b50604051908082528060200260200182016040528015614a07578160200160208202803683370190505b509550806001600160401b0381118015614a2057600080fd5b50604051908082528060200260200182016040528015614a4a578160200160208202803683370190505b50945060005b81811015614acc576000818152602084905260409020805488516001600160a01b0390911690899084908110614a8257fe5b6001600160a01b03929092166020928302919091019091015280548751600160a01b90910461ffff1690889084908110614ab857fe5b602090810291909101015250600101614a50565b50505050509250929050565b6001820154600090600160401b90046001600160401b031680614aff576000915050610a79565b4383101580614b3157506000198101600090815260208590526040902054600160c01b90046001600160401b03168310155b15614b5957600019016000908152602084905260409020546001600160c01b03169050610a79565b60018401546001600160401b039081166000818152602087905260409020549091600160c01b90910416841015614bd2578015614bc75760405162461bcd60e51b81526004018080602001828103825260308152602001806156996030913960400191505060405180910390fd5b600092505050610a79565b6001850154600090614bf89087908490600160401b90046001600160401b031688615219565b6000908152602087905260409020546001600160c01b0316935050505092915050565b600182015460009081906001600160401b0380821691600160401b90041680614c475760009350614d11565b6000198101600090815260208781526040808320838052909152902054600160b01b90046001600160401b03168510614c895760019350600181039250614d11565b600082815260208781526040808320838052909152902054600160b01b90046001600160401b0316851015614cfe578115614cf55760405162461bcd60e51b815260040180806020018281038252603081526020018061545b6030913960400191505060405180910390fd5b60009350614d11565b60019350614d0e86838388615297565b92505b50509250929050565b6000600160c01b82106148c1576040805162461bcd60e51b815260206004820152601d60248201527f76616c756520646f65736e27742066697420696e203139322062697473000000604482015290519081900360640190fd5b6000806000614d838785614c1b565b9150915081614d9757600092505050611662565b6000818152602088815260408083208380529182905282205491945090600160f01b900460ff16845b81811015614e0257600081815260208490526040902054614df890614df190600160a01b900461ffff168b8b61350b565b8790613062565b9550600101614dc0565b5050505050949350505050565b600080805260208390526040812054600160f01b900460ff16815b81811015612c8b57600081815260208690526040902080546001600160a01b0386811691161415614e6b5754600160a01b900461ffff169250610a79915050565b50600101614e2a565b60006201000082106148c15760405162461bcd60e51b815260040180806020018281038252602681526020018061548b6026913960400191505060405180910390fd5b600080805260208490526040812054600160f01b900460ff16905b8181108015614efb57506000818152602086905260409020546001600160a01b03858116911614155b15614f0857600101614ed2565b81811015614f8c578215614f5157614f1f83614e74565b6000828152602087905260409020805461ffff92909216600160a01b0261ffff60a01b19909216919091179055611bc4565b614f5f858260018503615314565b6000808052602086905260409020805460ff60f01b1916600160f01b600019850160ff1602179055611140565b6000614f9a8686868661537f565b6000808052602088905260409020805460ff909216600160f01b0260ff60f01b19909216919091179055505050505050565b600080805260208490526040812054600160f01b900460ff169080805b838110156150995760008181526020888152604091829020825160808101845290546001600160a01b03808216808452600160a01b830461ffff1694840194909452600160b01b82046001600160401b031694830194909452600160f01b900460ff16606082015291881614156150755761506a898260000151888661537f565b925060019350615090565b61508d898260000151836020015161ffff168661537f565b92505b50600101614fe9565b50816150ae576150ab8786868461537f565b90505b60008080526020979097526040909620805460ff909716600160f01b0260ff60f01b19909716969096179095555050505050565b60008060006150f18585614c1b565b915091508161510557600092505050610a79565b6000818152602086815260408083208380529182905282205491945090600160f01b900460ff16845b818110156151655760008181526020849052604090205461515b908790600160a01b900461ffff16613062565b955060010161512e565b505050505092915050565b600080600061517f8685614c1b565b915091508161519357600092505050610f4d565b60008181526020879052604090206151ab9086614e0f565b9695505050505050565b60018101546000908190600160401b90046001600160401b0316806151ec5750506000808052602083905260408120909150613506565b6000190160009081526020938452604080822082805294859052902054600160f01b900460ff1693915050565b6000838161522885600161490c565b90505b8181111561528d57600061524960026135d060016126668688613062565b600081815260208a90526040902054909150600160c01b90046001600160401b0316851061527957809250615287565b61528481600161490c565b91505b5061522b565b5095945050505050565b600083816152a685600161490c565b90505b8181111561528d5760006152c760026135d060016126668688613062565b600081815260208a81526040808320838052909152902054909150600160b01b90046001600160401b031685106153005780925061530e565b61530b81600161490c565b91505b506152a9565b60008281526020849052604080822083835291208284101561536b57805482546001600160a01b0319166001600160a01b0390911617808355815461ffff600160a01b91829004160261ffff60a01b199091161782555b80546001600160b01b031916905550505050565b6000821561244d5760408051808201909152601681527513585e0819195b1959d85d195cc8195e18d95959195960521b6020820152600283106154035760405162461bcd60e51b8152602060048201818152835160248401528351909283926044909101919085019080838360008315610b7d578181015183820152602001610b65565b50600082815260208690526040902080546001600160a01b0319166001600160a01b03861617815561543484614e74565b815461ffff91909116600160a01b0261ffff60a01b19909116179055506001810161166256fe44656c65676174696f6e486973746f72793a2072656164696e672066726f6d20636c65616e65642d757020626c6f636b53616665436173743a2076616c756520646f65736e27742066697420696e2031362062697473436c65616e757020626c6f636b206d75737420626520696e207468652070617374756e64656c6567617465416c6c2063616e206f6e6c79206265207573656420696e2070657263656e746167652064656c65676174696f6e206d6f646545524332303a207472616e7366657220616d6f756e7420657863656564732062616c616e6365436c65616e757020626c6f636b206e756d626572206d757374206e65766572206465637265617365500599802164a08023e87ffc3eed0ba3ae60697b3083ba81d046683679d81c6b44656c6567617461626c653a2072656164696e672066726f6d20636c65616e65642d757020626c6f636b6f6e6c79206f776e65722c20676f7665726e616e6365206f7220636c65616e757020626c6f636b206d616e61676572756e64656c6567617465416c6c4578706c696369742063616e206f6e6c79206265207573656420696e206578706c696369742064656c65676174696f6e206d6f6465536166654d6174683a206d756c7469706c69636174696f6e206f766572666c6f7753616665436173743a2076616c756520646f65736e27742066697420696e20363420626974735265766f6b65206973206f6e6c7920666f722074686520706173742c2075736520756e64656c656761746520666f72207468652070726573656e74436865636b506f696e74486973746f72793a2072656164696e672066726f6d20636c65616e65642d757020626c6f636b64656c6567617465734f6620646f6573206e6f7420776f726b20696e20414d4f554e542064656c65676174696f6e206d6f6465a26469706673582212204700e8fe6770c81926a9d8e67c0730a137554ea51725c959a6768f01f696436064736f6c634300070600335650436f6e7472616374206d7573742062656c6f6e6720746f2061205650546f6b656e",
  "linkReferences": {},
  "deployedLinkReferences": {}
}