{
  "_format": "hh-sol-artifact-1",
  "contractName": "CheckPointsByAddressMock",
  "sourceName": "contracts/token/mock/CheckPointsByAddressMock.sol",
  "abi": [
    {
      "inputs": [
        {
          "internalType": "address",
          "name": "_owner",
          "type": "address"
        },
        {
          "internalType": "uint256",
          "name": "_count",
          "type": "uint256"
        },
        {
          "internalType": "uint256",
          "name": "_cleanupBlockNumber",
          "type": "uint256"
        }
      ],
      "name": "cleanupOldCheckpoints",
      "outputs": [],
      "stateMutability": "nonpayable",
      "type": "function"
    },
    {
      "inputs": [
        {
          "internalType": "address",
          "name": "_from",
          "type": "address"
        },
        {
          "internalType": "address",
          "name": "_to",
          "type": "address"
        },
        {
          "internalType": "uint256",
          "name": "_amount",
          "type": "uint256"
        }
      ],
      "name": "transmit",
      "outputs": [],
      "stateMutability": "nonpayable",
      "type": "function"
    },
    {
      "inputs": [
        {
          "internalType": "address",
          "name": "_owner",
          "type": "address"
        },
        {
          "internalType": "uint256",
          "name": "_blockNumber",
          "type": "uint256"
        }
      ],
      "name": "valueOfAt",
      "outputs": [
        {
          "internalType": "uint256",
          "name": "",
          "type": "uint256"
        }
      ],
      "stateMutability": "view",
      "type": "function"
    },
    {
      "inputs": [
        {
          "internalType": "address",
          "name": "_owner",
          "type": "address"
        }
      ],
      "name": "valueOfAtNow",
      "outputs": [
        {
          "internalType": "uint256",
          "name": "",
          "type": "uint256"
        }
      ],
      "stateMutability": "view",
      "type": "function"
    },
    {
      "inputs": [
        {
          "internalType": "address",
          "name": "_owner",
          "type": "address"
        },
        {
          "internalType": "uint256",
          "name": "_value",
          "type": "uint256"
        }
      ],
      "name": "writeValue",
      "outputs": [],
      "stateMutability": "nonpayable",
      "type": "function"
    }
  ],
  "bytecode": "0x608060405234801561001057600080fd5b50610a2e806100206000396000f3fe608060405234801561001057600080fd5b50600436106100575760003560e01c806336f758da1461005c5780636ad38e611461009457806398eb07f4146100cc578063dbd61627146100f8578063dd54a82a14610124575b600080fd5b6100826004803603602081101561007257600080fd5b50356001600160a01b0316610156565b60408051918252519081900360200190f35b6100ca600480360360608110156100aa57600080fd5b506001600160a01b0381358116916020810135909116906040013561016a565b005b6100ca600480360360408110156100e257600080fd5b506001600160a01b03813516906020013561017c565b6100826004803603604081101561010e57600080fd5b506001600160a01b03813516906020013561018c565b6100ca6004803603606081101561013a57600080fd5b506001600160a01b0381351690602081013590604001356101a2565b600061016281836101b5565b90505b919050565b61017760008484846101de565b505050565b6101886000838361027a565b5050565b600061019981848461029c565b90505b92915050565b6101af60008484846102c9565b50505050565b6001600160a01b03811660009081526020839052604081206101d68161030f565b949350505050565b806101e8576101af565b6001600160a01b03831615801561020657506001600160a01b038216155b1561020d57fe5b6001600160a01b038316156102415760006102328261022c87876101b5565b90610357565b905061023f85858361027a565b505b6001600160a01b038216156101af5760006102668261026087866101b5565b906103b4565b905061027385848361027a565b5050505050565b6001600160a01b03821660009081526020849052604090206101af818361040e565b6001600160a01b03821660009081526020849052604081206102be81846105cf565b9150505b9392505050565b60006001600160a01b03841615610304576001600160a01b03841660009081526020869052604090206102fd908484610712565b90506101d6565b506000949350505050565b6001810154600090600160401b90046001600160401b031680610336576000915050610165565b6000190160009081526020929092525060409020546001600160c01b031690565b6000828211156103ae576040805162461bcd60e51b815260206004820152601e60248201527f536166654d6174683a207375627472616374696f6e206f766572666c6f770000604482015290519081900360640190fd5b50900390565b600082820183811015610199576040805162461bcd60e51b815260206004820152601b60248201527f536166654d6174683a206164646974696f6e206f766572666c6f770000000000604482015290519081900360640190fd5b6001820154600160401b90046001600160401b0316806104c557604051806040016040528061043c846107ff565b6001600160c01b031681526020016104534361085d565b6001600160401b03908116909152600080805260208681526040909120835181549490920151909216600160c01b026001600160c01b039182166001600160c01b0319909416939093171691909117905560018301805467ffffffffffffffff60401b1916600160401b179055610177565b600019810160009081526020849052604090208054600160c01b90046001600160401b03164381141561051b576104fb846107ff565b82546001600160c01b0319166001600160c01b0391909116178255610273565b80431161052457fe5b6040518060400160405280610538866107ff565b6001600160c01b0316815260200161054f4361085d565b6001600160401b039081169091526000858152602088815260409091208351815494909201518316600160c01b026001600160c01b039283166001600160c01b0319909516949094179091169290921790915560018087018054918601909216600160401b0267ffffffffffffffff60401b199091161790555050505050565b6001820154600090600160401b90046001600160401b0316806105f657600091505061019c565b438310158061062857506000198101600090815260208590526040902054600160c01b90046001600160401b03168310155b1561065057600019016000908152602084905260409020546001600160c01b0316905061019c565b60018401546001600160401b039081166000818152602087905260409020549091600160c01b909104168410156106c95780156106be5760405162461bcd60e51b81526004018080602001828103825260308152602001806109c96030913960400191505060405180910390fd5b60009250505061019c565b60018501546000906106ef9087908490600160401b90046001600160401b0316886108a1565b6000908152602087905260409020546001600160c01b0316935050505092915050565b600081610721575060006102c2565b6001840154600160401b90046001600160401b0316806107455760009150506102c2565b60018501546001600160401b0316600061076b61076283886103b4565b60018503610925565b9050815b81811080156107a0575060018101600090815260208990526040902054600160c01b90046001600160401b03168610155b156107bc5760008181526020899052604081205560010161076f565b828111156107f1576107cd8161085d565b60018901805467ffffffffffffffff19166001600160401b03929092169190911790555b919091039695505050505050565b6000600160c01b8210610859576040805162461bcd60e51b815260206004820152601d60248201527f76616c756520646f65736e27742066697420696e203139322062697473000000604482015290519081900360640190fd5b5090565b6000600160401b82106108595760405162461bcd60e51b81526004018080602001828103825260268152602001806109a36026913960400191505060405180910390fd5b600083816108b0856001610357565b90505b8181111561091b5760006108d760026108d1600161026086886103b4565b9061093b565b600081815260208a90526040902054909150600160c01b90046001600160401b0316851061090757809250610915565b610912816001610357565b91505b506108b3565b5095945050505050565b60008183106109345781610199565b5090919050565b6000808211610991576040805162461bcd60e51b815260206004820152601a60248201527f536166654d6174683a206469766973696f6e206279207a65726f000000000000604482015290519081900360640190fd5b81838161099a57fe5b04939250505056fe53616665436173743a2076616c756520646f65736e27742066697420696e2036342062697473436865636b506f696e74486973746f72793a2072656164696e672066726f6d20636c65616e65642d757020626c6f636ba2646970667358221220beddf485b08f63c19cf824a8fad80228aba87a7dbdb3197feecffa6c066425be64736f6c63430007060033",
  "linkReferences": {},
  "deployedLinkReferences": {}
}