{
  "_format": "hh-sol-artifact-1",
  "contractName": "FtsoManager",
  "sourceName": "contracts/ftso/implementation/FtsoManager.sol",
  "abi": [
    {
      "inputs": [
        {
          "internalType": "address",
          "name": "_governance",
          "type": "address"
        },
        {
          "internalType": "contract FlareKeeper",
          "name": "_flareKeeper",
          "type": "address"
        },
        {
          "internalType": "contract IIFtsoRewardManager",
          "name": "_rewardManager",
          "type": "address"
        },
        {
          "internalType": "contract IPriceSubmitter",
          "name": "_priceSubmitter",
          "type": "address"
        },
        {
          "internalType": "uint256",
          "name": "_priceEpochDurationSec",
          "type": "uint256"
        },
        {
          "internalType": "uint256",
          "name": "_firstEpochStartTs",
          "type": "uint256"
        },
        {
          "internalType": "uint256",
          "name": "_revealEpochDurationSec",
          "type": "uint256"
        },
        {
          "internalType": "uint256",
          "name": "_rewardEpochDurationSec",
          "type": "uint256"
        },
        {
          "internalType": "uint256",
          "name": "_rewardEpochsStartTs",
          "type": "uint256"
        },
        {
          "internalType": "uint256",
          "name": "_votePowerBoundaryFraction",
          "type": "uint256"
        }
      ],
      "stateMutability": "nonpayable",
      "type": "constructor"
    },
    {
      "anonymous": false,
      "inputs": [],
      "name": "ClosingExpiredRewardEpochsFailed",
      "type": "event"
    },
    {
      "anonymous": false,
      "inputs": [
        {
          "indexed": false,
          "internalType": "address",
          "name": "ftso",
          "type": "address"
        },
        {
          "indexed": false,
          "internalType": "uint256",
          "name": "epochId",
          "type": "uint256"
        }
      ],
      "name": "DistributingRewardsFailed",
      "type": "event"
    },
    {
      "anonymous": false,
      "inputs": [
        {
          "indexed": false,
          "internalType": "bool",
          "name": "fallbackMode",
          "type": "bool"
        }
      ],
      "name": "FallbackMode",
      "type": "event"
    },
    {
      "anonymous": false,
      "inputs": [
        {
          "indexed": false,
          "internalType": "contract IIFtso",
          "name": "ftso",
          "type": "address"
        },
        {
          "indexed": false,
          "internalType": "uint256",
          "name": "epochId",
          "type": "uint256"
        }
      ],
      "name": "FinalizingPriceEpochFailed",
      "type": "event"
    },
    {
      "anonymous": false,
      "inputs": [
        {
          "indexed": false,
          "internalType": "contract IIFtso",
          "name": "ftso",
          "type": "address"
        },
        {
          "indexed": false,
          "internalType": "bool",
          "name": "add",
          "type": "bool"
        }
      ],
      "name": "FtsoAdded",
      "type": "event"
    },
    {
      "anonymous": false,
      "inputs": [
        {
          "indexed": false,
          "internalType": "contract IIFtso",
          "name": "ftso",
          "type": "address"
        },
        {
          "indexed": false,
          "internalType": "bool",
          "name": "fallbackMode",
          "type": "bool"
        }
      ],
      "name": "FtsoFallbackMode",
      "type": "event"
    },
    {
      "anonymous": false,
      "inputs": [
        {
          "indexed": false,
          "internalType": "address",
          "name": "oldGovernance",
          "type": "address"
        },
        {
          "indexed": false,
          "internalType": "address",
          "name": "newGoveranance",
          "type": "address"
        }
      ],
      "name": "GovernanceUpdated",
      "type": "event"
    },
    {
      "anonymous": false,
      "inputs": [
        {
          "indexed": false,
          "internalType": "contract IIFtso",
          "name": "ftso",
          "type": "address"
        },
        {
          "indexed": false,
          "internalType": "uint256",
          "name": "epochId",
          "type": "uint256"
        }
      ],
      "name": "InitializingCurrentEpochStateForRevealFailed",
      "type": "event"
    },
    {
      "anonymous": false,
      "inputs": [
        {
          "indexed": false,
          "internalType": "uint256",
          "name": "blockNumber",
          "type": "uint256"
        },
        {
          "indexed": false,
          "internalType": "uint256",
          "name": "timestamp",
          "type": "uint256"
        }
      ],
      "name": "KeepTrigger",
      "type": "event"
    },
    {
      "anonymous": false,
      "inputs": [
        {
          "indexed": false,
          "internalType": "address",
          "name": "chosenFtso",
          "type": "address"
        },
        {
          "indexed": false,
          "internalType": "uint256",
          "name": "rewardEpochId",
          "type": "uint256"
        }
      ],
      "name": "PriceEpochFinalized",
      "type": "event"
    },
    {
      "anonymous": false,
      "inputs": [
        {
          "indexed": false,
          "internalType": "uint256",
          "name": "votepowerBlock",
          "type": "uint256"
        },
        {
          "indexed": false,
          "internalType": "uint256",
          "name": "startBlock",
          "type": "uint256"
        }
      ],
      "name": "RewardEpochFinalized",
      "type": "event"
    },
    {
      "inputs": [],
      "name": "activate",
      "outputs": [],
      "stateMutability": "nonpayable",
      "type": "function"
    },
    {
      "inputs": [],
      "name": "active",
      "outputs": [
        {
          "internalType": "bool",
          "name": "",
          "type": "bool"
        }
      ],
      "stateMutability": "view",
      "type": "function"
    },
    {
      "inputs": [
        {
          "internalType": "contract IIFtso",
          "name": "_ftso",
          "type": "address"
        }
      ],
      "name": "addFtso",
      "outputs": [],
      "stateMutability": "nonpayable",
      "type": "function"
    },
    {
      "inputs": [],
      "name": "claimGovernance",
      "outputs": [],
      "stateMutability": "nonpayable",
      "type": "function"
    },
    {
      "inputs": [],
      "name": "deactivate",
      "outputs": [],
      "stateMutability": "nonpayable",
      "type": "function"
    },
    {
      "inputs": [],
      "name": "fallbackMode",
      "outputs": [
        {
          "internalType": "bool",
          "name": "",
          "type": "bool"
        }
      ],
      "stateMutability": "view",
      "type": "function"
    },
    {
      "inputs": [],
      "name": "flareKeeper",
      "outputs": [
        {
          "internalType": "contract FlareKeeper",
          "name": "",
          "type": "address"
        }
      ],
      "stateMutability": "view",
      "type": "function"
    },
    {
      "inputs": [
        {
          "internalType": "contract IIFtso",
          "name": "",
          "type": "address"
        }
      ],
      "name": "ftsoInFallbackMode",
      "outputs": [
        {
          "internalType": "bool",
          "name": "",
          "type": "bool"
        }
      ],
      "stateMutability": "view",
      "type": "function"
    },
    {
      "inputs": [],
      "name": "getCurrentPriceEpochData",
      "outputs": [
        {
          "internalType": "uint256",
          "name": "priceEpochId",
          "type": "uint256"
        },
        {
          "internalType": "uint256",
          "name": "priceEpochStartTimestamp",
          "type": "uint256"
        },
        {
          "internalType": "uint256",
          "name": "priceEpochEndTimestamp",
          "type": "uint256"
        },
        {
          "internalType": "uint256",
          "name": "priceEpochRevealEndTimestamp",
          "type": "uint256"
        },
        {
          "internalType": "uint256",
          "name": "currentTimestamp",
          "type": "uint256"
        }
      ],
      "stateMutability": "view",
      "type": "function"
    },
    {
      "inputs": [],
      "name": "getCurrentRewardEpoch",
      "outputs": [
        {
          "internalType": "uint256",
          "name": "",
          "type": "uint256"
        }
      ],
      "stateMutability": "view",
      "type": "function"
    },
    {
      "inputs": [],
      "name": "getFtsos",
      "outputs": [
        {
          "internalType": "contract IIFtso[]",
          "name": "_ftsos",
          "type": "address[]"
        }
      ],
      "stateMutability": "view",
      "type": "function"
    },
    {
      "inputs": [],
      "name": "getPriceEpochConfiguration",
      "outputs": [
        {
          "internalType": "uint256",
          "name": "_firstPriceEpochStartTs",
          "type": "uint256"
        },
        {
          "internalType": "uint256",
          "name": "_priceEpochDurationSec",
          "type": "uint256"
        },
        {
          "internalType": "uint256",
          "name": "_revealEpochDurationSec",
          "type": "uint256"
        }
      ],
      "stateMutability": "view",
      "type": "function"
    },
    {
      "inputs": [
        {
          "internalType": "uint256",
          "name": "_rewardEpoch",
          "type": "uint256"
        }
      ],
      "name": "getRewardEpochVotePowerBlock",
      "outputs": [
        {
          "internalType": "uint256",
          "name": "",
          "type": "uint256"
        }
      ],
      "stateMutability": "view",
      "type": "function"
    },
    {
      "inputs": [],
      "name": "governance",
      "outputs": [
        {
          "internalType": "address",
          "name": "",
          "type": "address"
        }
      ],
      "stateMutability": "view",
      "type": "function"
    },
    {
      "inputs": [
        {
          "internalType": "address",
          "name": "_governance",
          "type": "address"
        }
      ],
      "name": "initialise",
      "outputs": [],
      "stateMutability": "nonpayable",
      "type": "function"
    },
    {
      "inputs": [],
      "name": "keep",
      "outputs": [
        {
          "internalType": "bool",
          "name": "",
          "type": "bool"
        }
      ],
      "stateMutability": "nonpayable",
      "type": "function"
    },
    {
      "inputs": [],
      "name": "lastUnprocessedPriceEpoch",
      "outputs": [
        {
          "internalType": "uint256",
          "name": "",
          "type": "uint256"
        }
      ],
      "stateMutability": "view",
      "type": "function"
    },
    {
      "inputs": [
        {
          "internalType": "uint256",
          "name": "",
          "type": "uint256"
        }
      ],
      "name": "priceEpochs",
      "outputs": [
        {
          "internalType": "address",
          "name": "chosenFtso",
          "type": "address"
        },
        {
          "internalType": "uint256",
          "name": "rewardEpochId",
          "type": "uint256"
        },
        {
          "internalType": "bool",
          "name": "rewardDistributed",
          "type": "bool"
        }
      ],
      "stateMutability": "view",
      "type": "function"
    },
    {
      "inputs": [],
      "name": "priceSubmitter",
      "outputs": [
        {
          "internalType": "contract IPriceSubmitter",
          "name": "",
          "type": "address"
        }
      ],
      "stateMutability": "view",
      "type": "function"
    },
    {
      "inputs": [
        {
          "internalType": "address",
          "name": "_governance",
          "type": "address"
        }
      ],
      "name": "proposeGovernance",
      "outputs": [],
      "stateMutability": "nonpayable",
      "type": "function"
    },
    {
      "inputs": [],
      "name": "proposedGovernance",
      "outputs": [
        {
          "internalType": "address",
          "name": "",
          "type": "address"
        }
      ],
      "stateMutability": "view",
      "type": "function"
    },
    {
      "inputs": [
        {
          "internalType": "contract IIFtso",
          "name": "_ftso",
          "type": "address"
        }
      ],
      "name": "removeFtso",
      "outputs": [],
      "stateMutability": "nonpayable",
      "type": "function"
    },
    {
      "inputs": [],
      "name": "rewardEpochDurationSec",
      "outputs": [
        {
          "internalType": "uint256",
          "name": "",
          "type": "uint256"
        }
      ],
      "stateMutability": "view",
      "type": "function"
    },
    {
      "inputs": [
        {
          "internalType": "uint256",
          "name": "",
          "type": "uint256"
        }
      ],
      "name": "rewardEpochs",
      "outputs": [
        {
          "internalType": "uint256",
          "name": "votepowerBlock",
          "type": "uint256"
        },
        {
          "internalType": "uint256",
          "name": "startBlock",
          "type": "uint256"
        }
      ],
      "stateMutability": "view",
      "type": "function"
    },
    {
      "inputs": [],
      "name": "rewardEpochsStartTs",
      "outputs": [
        {
          "internalType": "uint256",
          "name": "",
          "type": "uint256"
        }
      ],
      "stateMutability": "view",
      "type": "function"
    },
    {
      "inputs": [
        {
          "internalType": "bool",
          "name": "_fallbackMode",
          "type": "bool"
        }
      ],
      "name": "setFallbackMode",
      "outputs": [],
      "stateMutability": "nonpayable",
      "type": "function"
    },
    {
      "inputs": [
        {
          "internalType": "contract FlareKeeper",
          "name": "_flareKeeper",
          "type": "address"
        }
      ],
      "name": "setFlareKeeper",
      "outputs": [],
      "stateMutability": "nonpayable",
      "type": "function"
    },
    {
      "inputs": [
        {
          "internalType": "contract IIFtso",
          "name": "_ftso",
          "type": "address"
        },
        {
          "internalType": "contract IIVPToken",
          "name": "_fAsset",
          "type": "address"
        }
      ],
      "name": "setFtsoFAsset",
      "outputs": [],
      "stateMutability": "nonpayable",
      "type": "function"
    },
    {
      "inputs": [
        {
          "internalType": "contract IIFtso",
          "name": "_ftso",
          "type": "address"
        },
        {
          "internalType": "contract IIFtso[]",
          "name": "_fAssetFtsos",
          "type": "address[]"
        }
      ],
      "name": "setFtsoFAssetFtsos",
      "outputs": [],
      "stateMutability": "nonpayable",
      "type": "function"
    },
    {
      "inputs": [
        {
          "internalType": "contract IIFtso",
          "name": "_ftso",
          "type": "address"
        },
        {
          "internalType": "bool",
          "name": "_fallbackMode",
          "type": "bool"
        }
      ],
      "name": "setFtsoFallbackMode",
      "outputs": [],
      "stateMutability": "nonpayable",
      "type": "function"
    },
    {
      "inputs": [
        {
          "internalType": "uint256",
          "name": "_minVotePowerFlrThreshold",
          "type": "uint256"
        },
        {
          "internalType": "uint256",
          "name": "_minVotePowerAssetThreshold",
          "type": "uint256"
        },
        {
          "internalType": "uint256",
          "name": "_maxVotePowerFlrThreshold",
          "type": "uint256"
        },
        {
          "internalType": "uint256",
          "name": "_maxVotePowerAssetThreshold",
          "type": "uint256"
        },
        {
          "internalType": "uint256",
          "name": "_lowAssetUSDThreshold",
          "type": "uint256"
        },
        {
          "internalType": "uint256",
          "name": "_highAssetUSDThreshold",
          "type": "uint256"
        },
        {
          "internalType": "uint256",
          "name": "_highAssetTurnoutBIPSThreshold",
          "type": "uint256"
        },
        {
          "internalType": "uint256",
          "name": "_lowFlrTurnoutBIPSThreshold",
          "type": "uint256"
        },
        {
          "internalType": "address[]",
          "name": "_trustedAddresses",
          "type": "address[]"
        }
      ],
      "name": "setGovernanceParameters",
      "outputs": [],
      "stateMutability": "nonpayable",
      "type": "function"
    },
    {
      "inputs": [],
      "name": "settings",
      "outputs": [
        {
          "internalType": "uint256",
          "name": "votePowerBlock",
          "type": "uint256"
        },
        {
          "internalType": "uint256",
          "name": "minVotePowerFlrThreshold",
          "type": "uint256"
        },
        {
          "internalType": "uint256",
          "name": "minVotePowerAssetThreshold",
          "type": "uint256"
        },
        {
          "internalType": "uint256",
          "name": "maxVotePowerFlrThreshold",
          "type": "uint256"
        },
        {
          "internalType": "uint256",
          "name": "maxVotePowerAssetThreshold",
          "type": "uint256"
        },
        {
          "internalType": "uint256",
          "name": "lowAssetUSDThreshold",
          "type": "uint256"
        },
        {
          "internalType": "uint256",
          "name": "highAssetUSDThreshold",
          "type": "uint256"
        },
        {
          "internalType": "uint256",
          "name": "highAssetTurnoutBIPSThreshold",
          "type": "uint256"
        },
        {
          "internalType": "uint256",
          "name": "lowFlrTurnoutBIPSThreshold",
          "type": "uint256"
        },
        {
          "internalType": "bool",
          "name": "changed",
          "type": "bool"
        },
        {
          "internalType": "bool",
          "name": "initialized",
          "type": "bool"
        }
      ],
      "stateMutability": "view",
      "type": "function"
    }
  ],
  "bytecode": "0x6101406040523480156200001257600080fd5b506040516200476a3803806200476a83398181016040526101408110156200003957600080fd5b508051602082015160408301516060840151608085015160a086015160c087015160e088015161010089015161012090990151979896979596949593949293919290918989816001600160a01b038116156200009a576200009a81620003c3565b506001600160a01b038116620000eb576040805162461bcd60e51b8152602060048201526011602482015270666c617265206b6565706572207a65726f60781b604482015290519081900360640190fd5b600280546001600160a01b0319166001600160a01b0392909216919091179055506040805160608101909152602580825242871115919062004745602083013990620001b85760405162461bcd60e51b81526004018080602001828103825283818151815260200191508051906020019080838360005b838110156200017c57818101518382015260200162000162565b50505050905090810190601f168015620001aa5780820380516001836020036101000a031916815260200191505b509250505060405180910390fd5b5060408051808201909152600e81526d05265776172642065706f636820360941b6020820152836200022d5760405162461bcd60e51b81526020600482018181528351602484015283519092839260449091019190850190808383600083156200017c57818101518382015260200162000162565b5060408051808201909152600d81526c050726963652065706f6368203609c1b602082015286620002a15760405162461bcd60e51b81526020600482018181528351602484015283519092839260449091019190850190808383600083156200017c57818101518382015260200162000162565b5060408051808201909152601481527f52657665616c2070726963652065706f63682030000000000000000000000000602082015284620003255760405162461bcd60e51b81526020600482018181528351602484015283519092839260449091019190850190808383600083156200017c57818101518382015260200162000162565b5060e08390526000601355610100829052818301601455608085905260a086905260c08490528542869003816200035857fe5b046010819055600101959095029390930160118190556012555050506015556018805460609290921b6001600160601b03191661012052600160a01b6001600160a01b03199092166001600160a01b03939093169290921760ff60a01b191617905550620004a09050565b600154600160a01b900460ff161562000423576040805162461bcd60e51b815260206004820152601460248201527f696e697469616c6973656420213d2066616c7365000000000000000000000000604482015290519081900360640190fd5b6001805460ff60a01b1916600160a01b179055600054604080516001600160a01b039283168152918316602083015280517f434a2db650703b36c824e745330d6397cdaa9ee2cc891a4938ae853e1c50b68d9281900390910190a1600080546001600160a01b0319166001600160a01b0392909216919091179055565b60805160a05160c05160e051610100516101205160601c6141f46200055160003980610d9f52806125bf525080611be052806124f752508061229a5280612c4f5280613c515250806108f95280610e135280611a2c528061252f5250806108d85280610ded52806119fb5280612b675280612f2e52806135f95280613945528061407852806140d15250806108b75280610dc752806119da5280612b88528061405352806140ab52506141f46000f3fe608060405234801561001057600080fd5b50600436106101f05760003560e01c8063a50df1721161010f578063d86323f6116100a2578063e7c830d411610071578063e7c830d414610781578063f2edab5a14610789578063f937d6ad146107a6578063ff882fbb146107ae576101f0565b8063d86323f6146106d4578063d8a85827146106dc578063e06174e414610717578063e4d06d8214610779576101f0565b8063af8fac5c116100de578063af8fac5c146105ba578063af946af71461060e578063c373a08e14610649578063ce69f8331461067c576101f0565b8063a50df1721461052f578063a578f55b14610549578063a670ff8714610551578063a795f40914610584576101f0565b80635aa6e67511610187578063796b75f611610156578063796b75f61461048e57806393a79025146104c15780639d6a890f146104f4578063a1dbd2e514610527576101f0565b80635aa6e675146103775780635d36b190146103a857806360f7ac97146103b057806367895163146103b8576101f0565b80632663f1b4116101c35780632663f1b4146102745780632e85ddda146102a757806343c1a4cd1461036757806351b42b001461036f576101f0565b806302fb0c5e146101f55780630f15f4c014610211578063144e15911461021b57806320192a3b14610241575b600080fd5b6101fd6107cd565b604080519115158252519081900360200190f35b6102196107ee565b005b6102236108b5565b60408051938452602084019290925282820152519081900360600190f35b6102196004803603602081101561025757600080fd5b503573ffffffffffffffffffffffffffffffffffffffff1661091d565b6102196004803603602081101561028a57600080fd5b503573ffffffffffffffffffffffffffffffffffffffff16610a6c565b610219600480360360408110156102bd57600080fd5b73ffffffffffffffffffffffffffffffffffffffff82351691908101906040810160208201356401000000008111156102f557600080fd5b82018360208201111561030757600080fd5b8035906020019184602083028401116401000000008311171561032957600080fd5b91908080602002602001604051908101604052809392919081815260200183836020028082843760009201919091525092955061113d945050505050565b6101fd61128f565b6102196112b1565b61037f611361565b6040805173ffffffffffffffffffffffffffffffffffffffff9092168252519081900360200190f35b61021961137d565b61037f6114a5565b61021960048036036101208110156103cf57600080fd5b81359160208101359160408201359160608101359160808201359160a08101359160c08201359160e081013591810190610120810161010082013564010000000081111561041c57600080fd5b82018360208201111561042e57600080fd5b8035906020019184602083028401116401000000008311171561045057600080fd5b9190808060200260200160405190810160405280939291908181526020018383602002808284376000920191909152509295506114c1945050505050565b6101fd600480360360208110156104a457600080fd5b503573ffffffffffffffffffffffffffffffffffffffff166119af565b6104c96119c4565b6040805195865260208601949094528484019290925260608401526080830152519081900360a00190f35b6102196004803603602081101561050a57600080fd5b503573ffffffffffffffffffffffffffffffffffffffff16611a57565b61037f611bbc565b610537611bd8565b60408051918252519081900360200190f35b610537611bde565b6102196004803603602081101561056757600080fd5b503573ffffffffffffffffffffffffffffffffffffffff16611c02565b6105a16004803603602081101561059a57600080fd5b5035611f16565b6040805192835260208301919091528051918290030190f35b6105d7600480360360208110156105d057600080fd5b5035611f44565b6040805173ffffffffffffffffffffffffffffffffffffffff90941684526020840192909252151582820152519081900360600190f35b6102196004803603604081101561062457600080fd5b5073ffffffffffffffffffffffffffffffffffffffff81351690602001351515611f7f565b6102196004803603602081101561065f57600080fd5b503573ffffffffffffffffffffffffffffffffffffffff1661215b565b610684612228565b60408051602080825283518183015283519192839290830191858101910280838360005b838110156106c05781810151838201526020016106a8565b505050509050019250505060405180910390f35b610537612298565b610219600480360360408110156106f257600080fd5b5073ffffffffffffffffffffffffffffffffffffffff813581169160200135166122bc565b61071f6123ab565b604080519b8c5260208c019a909a528a8a019890985260608a0196909652608089019490945260a088019290925260c087015260e08601526101008501521515610120840152151561014083015251908190036101600190f35b6101fd6123d8565b61053761258f565b6105376004803603602081101561079f57600080fd5b5035612595565b61037f6125bd565b610219600480360360208110156107c457600080fd5b503515156125e1565b60025474010000000000000000000000000000000000000000900460ff1681565b60005473ffffffffffffffffffffffffffffffffffffffff16331461087457604080517f08c379a000000000000000000000000000000000000000000000000000000000815260206004820152600f60248201527f6f6e6c7920676f7665726e616e63650000000000000000000000000000000000604482015290519081900360640190fd5b600280547fffffffffffffffffffffff00ffffffffffffffffffffffffffffffffffffffff1674010000000000000000000000000000000000000000179055565b7f00000000000000000000000000000000000000000000000000000000000000007f00000000000000000000000000000000000000000000000000000000000000007f0000000000000000000000000000000000000000000000000000000000000000909192565b60005473ffffffffffffffffffffffffffffffffffffffff1633146109a357604080517f08c379a000000000000000000000000000000000000000000000000000000000815260206004820152600f60248201527f6f6e6c7920676f7665726e616e63650000000000000000000000000000000000604482015290519081900360640190fd5b73ffffffffffffffffffffffffffffffffffffffff8116610a2557604080517f08c379a000000000000000000000000000000000000000000000000000000000815260206004820152601160248201527f666c617265206b6565706572207a65726f000000000000000000000000000000604482015290519081900360640190fd5b600280547fffffffffffffffffffffffff00000000000000000000000000000000000000001673ffffffffffffffffffffffffffffffffffffffff92909216919091179055565b60005473ffffffffffffffffffffffffffffffffffffffff163314610af257604080517f08c379a000000000000000000000000000000000000000000000000000000000815260206004820152600f60248201527f6f6e6c7920676f7665726e616e63650000000000000000000000000000000000604482015290519081900360640190fd5b600f5460408051808201909152601b81527f476f762e20706172616d73206e6f7420696e697469616c697a65640000000000602082015290610100900460ff16610bd4576040517f08c379a00000000000000000000000000000000000000000000000000000000081526004018080602001828103825283818151815260200191508051906020019080838360005b83811015610b99578181015183820152602001610b81565b50505050905090810190601f168015610bc65780820380516001836020036101000a031916815260200191505b509250505060405180910390fd5b50610d0a8173ffffffffffffffffffffffffffffffffffffffff1663f1c464916040518163ffffffff1660e01b815260040160006040518083038186803b158015610c1e57600080fd5b505afa158015610c32573d6000803e3d6000fd5b505050506040513d6000823e601f3d9081017fffffffffffffffffffffffffffffffffffffffffffffffffffffffffffffffe01682016040526020811015610c7957600080fd5b8101908080516040519392919084640100000000821115610c9957600080fd5b908301906020820185811115610cae57600080fd5b8251866020820283011164010000000082111715610ccb57600080fd5b82525081516020918201928201910280838360005b83811015610cf8578181015183820152602001610ce0565b505050509050016040525050506126e7565b60165460005b81811015610d605760168181548110610d2557fe5b60009182526020909120015473ffffffffffffffffffffffffffffffffffffffff84811691161415610d5857505061113a565b600101610d10565b50604080517fdbdb0f4b00000000000000000000000000000000000000000000000000000000815273ffffffffffffffffffffffffffffffffffffffff7f0000000000000000000000000000000000000000000000000000000000000000811660048301527f000000000000000000000000000000000000000000000000000000000000000060248301527f000000000000000000000000000000000000000000000000000000000000000060448301527f0000000000000000000000000000000000000000000000000000000000000000606483015291519184169163dbdb0f4b9160848082019260009290919082900301818387803b158015610e6457600080fd5b505af1158015610e78573d6000803e3d6000fd5b505060185474010000000000000000000000000000000000000000900460ff169150610f2c9050578173ffffffffffffffffffffffffffffffffffffffff1663e536f396600360135481548110610ecb57fe5b9060005260206000209060020201600001546040518263ffffffff1660e01b815260040180828152602001915050600060405180830381600087803b158015610f1357600080fd5b505af1158015610f27573d6000803e3d6000fd5b505050505b8173ffffffffffffffffffffffffffffffffffffffff16635a3c9d8e600560010154600560020154600560030154600560040154600580015460056006015460056007015460056008015460056009016040518a63ffffffff1660e01b8152600401808a815260200189815260200188815260200187815260200186815260200185815260200184815260200183815260200180602001828103825283818154815260200191508054801561101757602002820191906000526020600020905b815473ffffffffffffffffffffffffffffffffffffffff168152600190910190602001808311610fec575b50509a5050505050505050505050600060405180830381600087803b15801561103f57600080fd5b505af1158015611053573d6000803e3d6000fd5b50506016805460018082019092557fd833147d7dc355ba459fc788f669e58cfaf9dc25ddcd0702e87d69c7b51242890180547fffffffffffffffffffffffff00000000000000000000000000000000000000001673ffffffffffffffffffffffffffffffffffffffff871690811790915560008181526017602090815260409182902080547fffffffffffffffffffffffffffffffffffffffffffffffffffffffffffffff001685179055815192835282019290925281517fa0985424f2efdcae4b57a7c84bbf0a0b19f93054f21e9eb1cfcd5a59813fe1da9450908190039091019150a1505b50565b60005473ffffffffffffffffffffffffffffffffffffffff1633146111c357604080517f08c379a000000000000000000000000000000000000000000000000000000000815260206004820152600f60248201527f6f6e6c7920676f7665726e616e63650000000000000000000000000000000000604482015290519081900360640190fd5b6111cc816126e7565b6040517f70f391aa00000000000000000000000000000000000000000000000000000000815260206004820181815283516024840152835173ffffffffffffffffffffffffffffffffffffffff8616936370f391aa93869392839260440191808601910280838360005b8381101561124e578181015183820152602001611236565b5050505090500192505050600060405180830381600087803b15801561127357600080fd5b505af1158015611287573d6000803e3d6000fd5b505050505050565b6018547501000000000000000000000000000000000000000000900460ff1681565b60005473ffffffffffffffffffffffffffffffffffffffff16331461133757604080517f08c379a000000000000000000000000000000000000000000000000000000000815260206004820152600f60248201527f6f6e6c7920676f7665726e616e63650000000000000000000000000000000000604482015290519081900360640190fd5b600280547fffffffffffffffffffffff00ffffffffffffffffffffffffffffffffffffffff169055565b60005473ffffffffffffffffffffffffffffffffffffffff1681565b60015473ffffffffffffffffffffffffffffffffffffffff16331461140357604080517f08c379a000000000000000000000000000000000000000000000000000000000815260206004820152600d60248201527f6e6f7420636c61696d61696e7400000000000000000000000000000000000000604482015290519081900360640190fd5b6000546001546040805173ffffffffffffffffffffffffffffffffffffffff938416815292909116602083015280517f434a2db650703b36c824e745330d6397cdaa9ee2cc891a4938ae853e1c50b68d9281900390910190a1600154600080547fffffffffffffffffffffffff00000000000000000000000000000000000000001673ffffffffffffffffffffffffffffffffffffffff909216919091179055565b60015473ffffffffffffffffffffffffffffffffffffffff1681565b60005473ffffffffffffffffffffffffffffffffffffffff16331461154757604080517f08c379a000000000000000000000000000000000000000000000000000000000815260206004820152600f60248201527f6f6e6c7920676f7665726e616e63650000000000000000000000000000000000604482015290519081900360640190fd5b60408051808201909152601381527f476f762e20706172616d7320696e76616c6964000000000000000000000000006020820152896115e1576040517f08c379a0000000000000000000000000000000000000000000000000000000008152602060048201818152835160248401528351909283926044909101919085019080838360008315610b99578181015183820152602001610b81565b5060408051808201909152601381527f476f762e20706172616d7320696e76616c69640000000000000000000000000060208201528861167c576040517f08c379a0000000000000000000000000000000000000000000000000000000008152602060048201818152835160248401528351909283926044909101919085019080838360008315610b99578181015183820152602001610b81565b5060408051808201909152601381527f476f762e20706172616d7320696e76616c696400000000000000000000000000602082015287611717576040517f08c379a0000000000000000000000000000000000000000000000000000000008152602060048201818152835160248401528351909283926044909101919085019080838360008315610b99578181015183820152602001610b81565b5060408051808201909152601381527f476f762e20706172616d7320696e76616c6964000000000000000000000000006020820152866117b2576040517f08c379a0000000000000000000000000000000000000000000000000000000008152602060048201818152835160248401528351909283926044909101919085019080838360008315610b99578181015183820152602001610b81565b5060408051808201909152601381527f476f762e20706172616d7320696e76616c696400000000000000000000000000602082015285851015611850576040517f08c379a0000000000000000000000000000000000000000000000000000000008152602060048201818152835160248401528351909283926044909101919085019080838360008315610b99578181015183820152602001610b81565b5060408051808201909152601381527f476f762e20706172616d7320696e76616c69640000000000000000000000000060208201526127108411156118f0576040517f08c379a0000000000000000000000000000000000000000000000000000000008152602060048201818152835160248401528351909283926044909101919085019080838360008315610b99578181015183820152602001610b81565b5060408051808201909152601381527f476f762e20706172616d7320696e76616c6964000000000000000000000000006020820152612710831115611990576040517f08c379a0000000000000000000000000000000000000000000000000000000008152602060048201818152835160248401528351909283926044909101919085019080838360008315610b99578181015183820152602001610b81565b506119a460058a8a8a8a8a8a8a8a8a6127c3565b505050505050505050565b60196020526000908152604090205460ff1681565b6000806000806000806119d5612b63565b9550507f00000000000000000000000000000000000000000000000000000000000000007f0000000000000000000000000000000000000000000000000000000000000000808702820195506001870102019250507f000000000000000000000000000000000000000000000000000000000000000082019050429091929394565b60015474010000000000000000000000000000000000000000900460ff1615611ae157604080517f08c379a000000000000000000000000000000000000000000000000000000000815260206004820152601460248201527f696e697469616c6973656420213d2066616c7365000000000000000000000000604482015290519081900360640190fd5b600180547fffffffffffffffffffffff00ffffffffffffffffffffffffffffffffffffffff16740100000000000000000000000000000000000000001790556000546040805173ffffffffffffffffffffffffffffffffffffffff9283168152918316602083015280517f434a2db650703b36c824e745330d6397cdaa9ee2cc891a4938ae853e1c50b68d9281900390910190a1600080547fffffffffffffffffffffffff00000000000000000000000000000000000000001673ffffffffffffffffffffffffffffffffffffffff92909216919091179055565b60025473ffffffffffffffffffffffffffffffffffffffff1681565b60105481565b7f000000000000000000000000000000000000000000000000000000000000000081565b60005473ffffffffffffffffffffffffffffffffffffffff163314611c8857604080517f08c379a000000000000000000000000000000000000000000000000000000000815260206004820152600f60248201527f6f6e6c7920676f7665726e616e63650000000000000000000000000000000000604482015290519081900360640190fd5b60165460005b81811015611e835760168181548110611ca357fe5b60009182526020909120015473ffffffffffffffffffffffffffffffffffffffff84811691161415611e7b5760166001830381548110611cdf57fe5b6000918252602090912001546016805473ffffffffffffffffffffffffffffffffffffffff9092169183908110611d1257fe5b9060005260206000200160006101000a81548173ffffffffffffffffffffffffffffffffffffffff021916908373ffffffffffffffffffffffffffffffffffffffff1602179055506016805480611d6557fe5b6000828152602080822083017fffffffffffffffffffffffffffffffffffffffffffffffffffffffffffffffff90810180547fffffffffffffffffffffffff000000000000000000000000000000000000000016905590920190925573ffffffffffffffffffffffffffffffffffffffff8516825260198152604080832080547fffffffffffffffffffffffffffffffffffffffffffffffffffffffffffffff00908116909155601790925290912080549091169055611e23612bb6565b6040805173ffffffffffffffffffffffffffffffffffffffff851681526000602082015281517fa0985424f2efdcae4b57a7c84bbf0a0b19f93054f21e9eb1cfcd5a59813fe1da929181900390910190a1505061113a565b600101611c8e565b50604080518082018252600981527f4e6f7420666f756e640000000000000000000000000000000000000000000000602080830191825292517f08c379a00000000000000000000000000000000000000000000000000000000081526004810193845282516024820152825192939283926044909201919080838360008315610b99578181015183820152602001610b81565b60038181548110611f2657600080fd5b60009182526020909120600290910201805460019091015490915082565b60046020526000908152604090208054600182015460029092015473ffffffffffffffffffffffffffffffffffffffff909116919060ff1683565b60005473ffffffffffffffffffffffffffffffffffffffff16331461200557604080517f08c379a000000000000000000000000000000000000000000000000000000000815260206004820152600f60248201527f6f6e6c7920676f7665726e616e63650000000000000000000000000000000000604482015290519081900360640190fd5b73ffffffffffffffffffffffffffffffffffffffff8216600090815260176020908152604091829020548251808401909352600983527f4e6f7420666f756e6400000000000000000000000000000000000000000000009183019190915260ff166120cb576040517f08c379a0000000000000000000000000000000000000000000000000000000008152602060048201818152835160248401528351909283926044909101919085019080838360008315610b99578181015183820152602001610b81565b5073ffffffffffffffffffffffffffffffffffffffff821660008181526019602090815260409182902080547fffffffffffffffffffffffffffffffffffffffffffffffffffffffffffffff001685151590811790915582519384529083015280517f24462ede4d3e8e5a69fecec6290d42a311016ca752216d9a3d681e284791b7ac9281900390910190a15050565b60005473ffffffffffffffffffffffffffffffffffffffff1633146121e157604080517f08c379a000000000000000000000000000000000000000000000000000000000815260206004820152600f60248201527f6f6e6c7920676f7665726e616e63650000000000000000000000000000000000604482015290519081900360640190fd5b600180547fffffffffffffffffffffffff00000000000000000000000000000000000000001673ffffffffffffffffffffffffffffffffffffffff92909216919091179055565b6060601680548060200260200160405190810160405280929190818152602001828054801561228d57602002820191906000526020600020905b815473ffffffffffffffffffffffffffffffffffffffff168152600190910190602001808311612262575b505050505090505b90565b7f000000000000000000000000000000000000000000000000000000000000000081565b60005473ffffffffffffffffffffffffffffffffffffffff16331461234257604080517f08c379a000000000000000000000000000000000000000000000000000000000815260206004820152600f60248201527f6f6e6c7920676f7665726e616e63650000000000000000000000000000000000604482015290519081900360640190fd5b8173ffffffffffffffffffffffffffffffffffffffff16632ab0cb7d826040518263ffffffff1660e01b8152600401808273ffffffffffffffffffffffffffffffffffffffff168152602001915050600060405180830381600087803b15801561127357600080fd5b600554600654600754600854600954600a54600b54600c54600d54600f5460ff808216916101009004168b565b60025460009073ffffffffffffffffffffffffffffffffffffffff16331461246157604080517f08c379a000000000000000000000000000000000000000000000000000000000815260206004820152601160248201527f6f6e6c7920666c617265206b6565706572000000000000000000000000000000604482015290519081900360640190fd5b6040805143815242602082015281517fac4261462329304a0e5cab36474b796aa89296a06194be845190993b11bbc277929181900390910190a160025474010000000000000000000000000000000000000000900460ff166124c557506000612295565b60185474010000000000000000000000000000000000000000900460ff16156124f5576124f0612c4d565b612589565b7f0000000000000000000000000000000000000000000000000000000000000000601154101561252c57612527612dfa565b61255f565b427f0000000000000000000000000000000000000000000000000000000000000000601154011161255f5761255f612f52565b426014541161257857612570613969565b612578613c78565b426012541161258957612589613d25565b50600190565b60135490565b6000600382815481106125a457fe5b9060005260206000209060020201600001549050919050565b7f000000000000000000000000000000000000000000000000000000000000000081565b60005473ffffffffffffffffffffffffffffffffffffffff16331461266757604080517f08c379a000000000000000000000000000000000000000000000000000000000815260206004820152600f60248201527f6f6e6c7920676f7665726e616e63650000000000000000000000000000000000604482015290519081900360640190fd5b60188054821515750100000000000000000000000000000000000000000081027fffffffffffffffffffff00ffffffffffffffffffffffffffffffffffffffffff9092169190911790915560408051918252517f217a37a37fc40a97159886f80c3d45986e6fc4330ce6ad7283478b5e5ab705bc9181900360200190a150565b805160005b818110156127be576017600084838151811061270457fe5b60209081029190910181015173ffffffffffffffffffffffffffffffffffffffff1682528101919091526040016000205460ff166127b657604051806060016040528060278152602001614198602791396040517f08c379a0000000000000000000000000000000000000000000000000000000008152602060048201818152835160248401528351909283926044909101919085019080838360008315610b99578181015183820152602001610b81565b6001016126ec565b505050565b888a600101541461280457600a8a0180547fffffffffffffffffffffffffffffffffffffffffffffffffffffffffffffff001660019081179091558a018990555b878a600201541461284457600a8a0180547fffffffffffffffffffffffffffffffffffffffffffffffffffffffffffffff0016600117905560028a018890555b868a600301541461288457600a8a0180547fffffffffffffffffffffffffffffffffffffffffffffffffffffffffffffff0016600117905560038a018790555b858a60040154146128c457600a8a0180547fffffffffffffffffffffffffffffffffffffffffffffffffffffffffffffff0016600117905560048a018690555b848a600501541461290457600a8a0180547fffffffffffffffffffffffffffffffffffffffffffffffffffffffffffffff0016600117905560058a018590555b838a600601541461294457600a8a0180547fffffffffffffffffffffffffffffffffffffffffffffffffffffffffffffff0016600117905560068a018490555b828a600701541461298457600a8a0180547fffffffffffffffffffffffffffffffffffffffffffffffffffffffffffffff0016600117905560078a018390555b818a60080154146129c457600a8a0180547fffffffffffffffffffffffffffffffffffffffffffffffffffffffffffffff0016600117905560088a018290555b805160098b015414612a185780516129e59060098c019060208401906140f8565b50600a8a0180547fffffffffffffffffffffffffffffffffffffffffffffffffffffffffffffff00166001179055612b29565b60005b8151811015612b2757818181518110612a3057fe5b602002602001015173ffffffffffffffffffffffffffffffffffffffff168b6009018281548110612a5d57fe5b60009182526020909120015473ffffffffffffffffffffffffffffffffffffffff1614612b1f57600a8b0180547fffffffffffffffffffffffffffffffffffffffffffffffffffffffffffffff001660011790558151829082908110612abf57fe5b60200260200101518b6009018281548110612ad657fe5b9060005260206000200160006101000a81548173ffffffffffffffffffffffffffffffffffffffff021916908373ffffffffffffffffffffffffffffffffffffffff1602179055505b600101612a1b565b505b505050600a90960180547fffffffffffffffffffffffffffffffffffffffffffffffffffffffffffff00ff16610100179055505050505050565b60007f00000000000000000000000000000000000000000000000000000000000000007f0000000000000000000000000000000000000000000000000000000000000000420381612bb057fe5b04905090565b60165460005b81811015612c4957612c4160168281548110612bd457fe5b6000918252602082200154604080517ff1c46491000000000000000000000000000000000000000000000000000000008152905173ffffffffffffffffffffffffffffffffffffffff9092169263f1c4649192600480840193829003018186803b158015610c1e57600080fd5b600101612bbc565b5050565b7f0000000000000000000000000000000000000000000000000000000000000000601454034210612df85760165460408051808201909152437fffffffffffffffffffffffffffffffffffffffffffffffffffffffffffffffff810182526020820190815260038054600181018255600091825283517fc2575a0e9e593c00f959f8c92f12db2869c3395a3b0502d05e2516446f71f85b60029092029182015591517fc2575a0e9e593c00f959f8c92f12db2869c3395a3b0502d05e2516446f71f85c9092019190915560138190555b82811015612dcc5760168181548110612d3257fe5b60009182526020822001548351604080517fe536f39600000000000000000000000000000000000000000000000000000000815260048101929092525173ffffffffffffffffffffffffffffffffffffffff9092169263e536f3969260248084019382900301818387803b158015612da957600080fd5b505af1158015612dbd573d6000803e3d6000fd5b50505050806001019050612d1d565b5050601880547fffffffffffffffffffffff00ffffffffffffffffffffffffffffffffffffffff169055505b565b6016548015612f1e5760005b81811015612f1c5760168181548110612e1b57fe5b6000918252602082200154601054604080517f974d7a6b00000000000000000000000000000000000000000000000000000000815260048101929092525173ffffffffffffffffffffffffffffffffffffffff9092169263974d7a6b9260248084019382900301818387803b158015612e9357600080fd5b505af1925050508015612ea4575060015b612f14577fd044b2898b225e0f107d2f1557890724bb100f50ec276049f632a55604cc1f5d60168281548110612ed657fe5b600091825260209182902001546010546040805173ffffffffffffffffffffffffffffffffffffffff90931683529282015281519081900390910190a15b600101612e06565b505b50601080546001019055601180547f0000000000000000000000000000000000000000000000000000000000000000019055565b601654801561385157600060105460001480612fb557506010547fffffffffffffffffffffffffffffffffffffffffffffffffffffffffffffffff0160009081526004602052604090205473ffffffffffffffffffffffffffffffffffffffff16155b15612ff4576040805144602080830191909152428284015282518083038401815260609092019092528051910120829081612fec57fe5b0690506130e8565b6010547fffffffffffffffffffffffffffffffffffffffffffffffffffffffffffffffff016000908152600460208181526040928390205483517fd89601fd0000000000000000000000000000000000000000000000000000000081529351869473ffffffffffffffffffffffffffffffffffffffff9092169363d89601fd938382019390929190829003018186803b15801561309057600080fd5b505afa1580156130a4573d6000803e3d6000fd5b505050506040513d60208110156130ba57600080fd5b5051604080516020818101939093528151808203840181529082019091528051910120816130e457fe5b0690505b60608060008080805b87811015613513576000888289018161310657fe5b0690506016818154811061311657fe5b6000918252602082200154601054604080517f40462a2d0000000000000000000000000000000000000000000000000000000081526004810192909252871560248301525173ffffffffffffffffffffffffffffffffffffffff909216926340462a2d9260448084019382900301818387803b15801561319557600080fd5b505af192505050801561330457506040513d6000823e601f3d9081017fffffffffffffffffffffffffffffffffffffffffffffffffffffffffffffffe016820160405260608110156131e657600080fd5b810190808051604051939291908464010000000082111561320657600080fd5b90830190602082018581111561321b57600080fd5b825186602082028301116401000000008211171561323857600080fd5b82525081516020918201928201910280838360005b8381101561326557818101518382015260200161324d565b505050509050016040526020018051604051939291908464010000000082111561328e57600080fd5b9083019060208201858111156132a357600080fd5b82518660208202830111640100000000821117156132c057600080fd5b82525081516020918201928201910280838360005b838110156132ed5781810151838201526020016132d5565b505050509190910160405250602001519150600190505b6134ad576016818154811061331557fe5b6000918252602082200154601054604080517f9de6f92700000000000000000000000000000000000000000000000000000000815260048101929092525173ffffffffffffffffffffffffffffffffffffffff90921692639de6f9279260248084019382900301818387803b15801561338d57600080fd5b505af192505050801561339e575060015b6134a857601681815481106133af57fe5b6000918252602082200154601054604080517f974d7a6b00000000000000000000000000000000000000000000000000000000815260048101929092525173ffffffffffffffffffffffffffffffffffffffff9092169263974d7a6b9260248084019382900301818387803b15801561342757600080fd5b505af1925050508015613438575060015b6134a8577fd044b2898b225e0f107d2f1557890724bb100f50ec276049f632a55604cc1f5d6016828154811061346a57fe5b600091825260209182902001546010546040805173ffffffffffffffffffffffffffffffffffffffff90931683529282015281519081900390910190a15b61350a565b861580156134bc575060008351115b1561350657828282809a50819b50829c5050505060019650601684815481106134e157fe5b60009182526020909120015473ffffffffffffffffffffffffffffffffffffffff1695505b5050505b506001016130f1565b506040805160608101825273ffffffffffffffffffffffffffffffffffffffff8381168252601354602080840191825260008486018181526010548252600490925294909420925183547fffffffffffffffffffffffff00000000000000000000000000000000000000001692169190911782555160018201559051600290910180547fffffffffffffffffffffffffffffffffffffffffffffffffffffffffffffff001691151591909117905581156137f25760185460105460135473ffffffffffffffffffffffffffffffffffffffff9092169163a9b79e179188918891889187907f000000000000000000000000000000000000000000000000000000000000000090600161362485614051565b0360036013548154811061363457fe5b9060005260206000209060020201600001546040518a63ffffffff1660e01b81526004018080602001806020018a81526020018981526020018873ffffffffffffffffffffffffffffffffffffffff16815260200187815260200186815260200185815260200184815260200183810383528c818151815260200191508051906020019060200280838360005b838110156136d95781810151838201526020016136c1565b5050505090500183810382528b818151815260200191508051906020019060200280838360005b83811015613718578181015183820152602001613700565b505050509050019b505050505050505050505050600060405180830381600087803b15801561374657600080fd5b505af1925050508015613757575060015b6137b4576010546040805173ffffffffffffffffffffffffffffffffffffffff84168152602081019290925280517f175a1d13d190d6a1e14461c214b3ecf6118b828797750b7bffd7c4f2c1eba54c9281900390910190a16137f2565b601054600090815260046020526040902060020180547fffffffffffffffffffffffffffffffffffffffffffffffffffffffffffffff001660011790555b6013546040805173ffffffffffffffffffffffffffffffffffffffff84168152602081019290925280517f98b050a4042fbd1b89934ef40b9342e593f15081a348af940573a0179031f4ad9281900390910190a1505050505050612f1e565b604080516060810182526000808252601380546020808501918252848601848152601054855260048252868520955186547fffffffffffffffffffffffff00000000000000000000000000000000000000001673ffffffffffffffffffffffffffffffffffffffff909116178655915160018601559051600290940180547fffffffffffffffffffffffffffffffffffffffffffffffffffffffffffffff0016941515949094179093555483519182529181019190915281517f98b050a4042fbd1b89934ef40b9342e593f15081a348af940573a0179031f4ad929181900390910190a150601080546001019055601180547f0000000000000000000000000000000000000000000000000000000000000000019055565b601654428115613a355760005b82811015613a33576016818154811061398b57fe5b60009182526020918290200154604080517fd89601fd000000000000000000000000000000000000000000000000000000008152905173ffffffffffffffffffffffffffffffffffffffff9092169263d89601fd92600480840193829003018186803b1580156139fa57600080fd5b505afa158015613a0e573d6000803e3d6000fd5b505050506040513d6020811015613a2457600080fd5b50519190910190600101613976565b505b60408051602080820193909352815180820384018152908201909152805191012060155460009015613a6957601554613a6c565b60015b600360135481548110613a7b57fe5b906000526020600020906002020160010154430381613a9657fe5b04905080613aa2575060015b6000818381613aad57fe5b06905080613ab9575060015b604080518082019091524382810382526020820190815260038054600181018255600082815284517fc2575a0e9e593c00f959f8c92f12db2869c3395a3b0502d05e2516446f71f85b60029093029283015592517fc2575a0e9e593c00f959f8c92f12db2869c3395a3b0502d05e2516446f71f85c90910155547fffffffffffffffffffffffffffffffffffffffffffffffffffffffffffffffff016013555b85811015613c095760168181548110613b6e57fe5b60009182526020822001548351604080517fe536f39600000000000000000000000000000000000000000000000000000000815260048101929092525173ffffffffffffffffffffffffffffffffffffffff9092169263e536f3969260248084019382900301818387803b158015613be557600080fd5b505af1158015613bf9573d6000803e3d6000fd5b505060019092019150613b599050565b508051602080830151604080519384529183015280517f1813f880dc24666c8b69c9d771a487ea620a27fde1514be3112847056c0c53229281900390910190a15050601480547f0000000000000000000000000000000000000000000000000000000000000000019055505050565b601860009054906101000a900473ffffffffffffffffffffffffffffffffffffffff1673ffffffffffffffffffffffffffffffffffffffff166392e4f0f16040518163ffffffff1660e01b8152600401600060405180830381600087803b158015613ce257600080fd5b505af1925050508015613cf3575060015b612df8576040517ff729cde0a1e01183919287529f0ef8e8f39b414d634de68e6711553519d59eab90600090a1612df8565b60165460005b8181101561401a57600f5460ff1615613e995760168181548110613d4b57fe5b600091825260209091200154600654600754600854600954600a54600b54600c54600d546040517f5a3c9d8e000000000000000000000000000000000000000000000000000000008152600481018981526024820189905260448201889052606482018790526084820186905260a4820185905260c4820184905260e482018390526101206101048301908152600e8054610124850181905273ffffffffffffffffffffffffffffffffffffffff909d169c635a3c9d8e9c9b9a99989796959491939291610144019084908015613e5857602002820191906000526020600020905b815473ffffffffffffffffffffffffffffffffffffffff168152600190910190602001808311613e2d575b50509a5050505050505050505050600060405180830381600087803b158015613e8057600080fd5b505af1158015613e94573d6000803e3d6000fd5b505050505b60168181548110613ea657fe5b60009182526020909120015460185473ffffffffffffffffffffffffffffffffffffffff9091169063fd00e539907501000000000000000000000000000000000000000000900460ff1680613f3d57506019600060168581548110613f0757fe5b600091825260208083209091015473ffffffffffffffffffffffffffffffffffffffff16835282019290925260400190205460ff165b6040518263ffffffff1660e01b8152600401808215158152602001915050600060405180830381600087803b158015613f7557600080fd5b505af1925050508015613f86575060015b614012577f61156899176547b8075bfa81fa2996c6057ce9c71320884b11c0179d9dc2e46260168281548110613fb857fe5b60009182526020909120015473ffffffffffffffffffffffffffffffffffffffff16613fe2612b63565b6040805173ffffffffffffffffffffffffffffffffffffffff909316835260208301919091528051918290030190a15b600101613d2b565b50600f80547fffffffffffffffffffffffffffffffffffffffffffffffffffffffffffffff0016905561404b61409e565b60125550565b7f0000000000000000000000000000000000000000000000000000000000000000600182017f00000000000000000000000000000000000000000000000000000000000000000201919050565b6000806140a9612b63565b7f000000000000000000000000000000000000000000000000000000000000000060019091017f0000000000000000000000000000000000000000000000000000000000000000020191505090565b828054828255906000526020600020908101928215614172579160200282015b8281111561417257825182547fffffffffffffffffffffffff00000000000000000000000000000000000000001673ffffffffffffffffffffffffffffffffffffffff909116178255602090920191600190910190614118565b5061417e929150614182565b5090565b5b8082111561417e576000815560010161418356fe464173736574204654534f206e6f74206d616e61676564206279206674736f206d616e61676572a2646970667358221220f42949eadf9d7d32b3d36a78a2ba9ba63366d5d9f3ff28f6678d78ed0d62422564736f6c6343000706003346697273742065706f63682073746172742074696d657374616d7020696e20667574757265",
  "linkReferences": {},
  "deployedLinkReferences": {}
}