{
  "_format": "hh-sol-artifact-1",
  "contractName": "FtsoManager",
  "sourceName": "contracts/ftso/implementation/FtsoManager.sol",
  "abi": [
    {
      "inputs": [
        {
          "internalType": "address",
          "name": "_governance",
          "type": "address"
        },
        {
          "internalType": "contract IIFtsoRewardManager",
          "name": "_rewardManager",
          "type": "address"
        },
        {
          "internalType": "contract IPriceSubmitter",
          "name": "_priceSubmitter",
          "type": "address"
        },
        {
          "internalType": "contract FtsoInflationAuthorizer",
          "name": "_ftsoInflationAuthorizer",
          "type": "address"
        },
        {
          "internalType": "uint256",
          "name": "_priceEpochDurationSec",
          "type": "uint256"
        },
        {
          "internalType": "uint256",
          "name": "_firstEpochStartTs",
          "type": "uint256"
        },
        {
          "internalType": "uint256",
          "name": "_revealEpochDurationSec",
          "type": "uint256"
        },
        {
          "internalType": "uint256",
          "name": "_rewardEpochDurationSec",
          "type": "uint256"
        },
        {
          "internalType": "uint256",
          "name": "_rewardEpochsStartTs",
          "type": "uint256"
        },
        {
          "internalType": "uint256",
          "name": "_votePowerBoundaryFraction",
          "type": "uint256"
        }
      ],
      "stateMutability": "nonpayable",
      "type": "constructor"
    },
    {
      "anonymous": false,
      "inputs": [],
      "name": "ClosingExpiredRewardEpochsFailed",
      "type": "event"
    },
    {
      "anonymous": false,
      "inputs": [
        {
          "indexed": false,
          "internalType": "address",
          "name": "ftso",
          "type": "address"
        },
        {
          "indexed": false,
          "internalType": "uint256",
          "name": "epochId",
          "type": "uint256"
        }
      ],
      "name": "DistributingRewardsFailed",
      "type": "event"
    },
    {
      "anonymous": false,
      "inputs": [
        {
          "indexed": false,
          "internalType": "bool",
          "name": "fallbackMode",
          "type": "bool"
        }
      ],
      "name": "FallbackMode",
      "type": "event"
    },
    {
      "anonymous": false,
      "inputs": [
        {
          "indexed": false,
          "internalType": "contract IIFtso",
          "name": "ftso",
          "type": "address"
        },
        {
          "indexed": false,
          "internalType": "uint256",
          "name": "epochId",
          "type": "uint256"
        }
      ],
      "name": "FinalizingPriceEpochFailed",
      "type": "event"
    },
    {
      "anonymous": false,
      "inputs": [
        {
          "indexed": false,
          "internalType": "contract IIFtso",
          "name": "ftso",
          "type": "address"
        },
        {
          "indexed": false,
          "internalType": "bool",
          "name": "add",
          "type": "bool"
        }
      ],
      "name": "FtsoAdded",
      "type": "event"
    },
    {
      "anonymous": false,
      "inputs": [
        {
          "indexed": false,
          "internalType": "contract IIFtso",
          "name": "ftso",
          "type": "address"
        },
        {
          "indexed": false,
          "internalType": "bool",
          "name": "fallbackMode",
          "type": "bool"
        }
      ],
      "name": "FtsoFallbackMode",
      "type": "event"
    },
    {
      "anonymous": false,
      "inputs": [
        {
          "indexed": false,
          "internalType": "address",
          "name": "oldGovernance",
          "type": "address"
        },
        {
          "indexed": false,
          "internalType": "address",
          "name": "newGoveranance",
          "type": "address"
        }
      ],
      "name": "GovernanceUpdated",
      "type": "event"
    },
    {
      "anonymous": false,
      "inputs": [
        {
          "indexed": false,
          "internalType": "contract IIFtso",
          "name": "ftso",
          "type": "address"
        },
        {
          "indexed": false,
          "internalType": "uint256",
          "name": "epochId",
          "type": "uint256"
        }
      ],
      "name": "InitializingCurrentEpochStateForRevealFailed",
      "type": "event"
    },
    {
      "anonymous": false,
      "inputs": [
        {
          "indexed": false,
          "internalType": "uint256",
          "name": "blockNumber",
          "type": "uint256"
        },
        {
          "indexed": false,
          "internalType": "uint256",
          "name": "timestamp",
          "type": "uint256"
        }
      ],
      "name": "KeepTrigger",
      "type": "event"
    },
    {
      "anonymous": false,
      "inputs": [
        {
          "indexed": false,
          "internalType": "address",
          "name": "chosenFtso",
          "type": "address"
        },
        {
          "indexed": false,
          "internalType": "uint256",
          "name": "rewardEpochId",
          "type": "uint256"
        }
      ],
      "name": "PriceEpochFinalized",
      "type": "event"
    },
    {
      "anonymous": false,
      "inputs": [
        {
          "indexed": false,
          "internalType": "uint256",
          "name": "votepowerBlock",
          "type": "uint256"
        },
        {
          "indexed": false,
          "internalType": "uint256",
          "name": "startBlock",
          "type": "uint256"
        }
      ],
      "name": "RewardEpochFinalized",
      "type": "event"
    },
    {
      "inputs": [],
      "name": "activate",
      "outputs": [],
      "stateMutability": "nonpayable",
      "type": "function"
    },
    {
      "inputs": [],
      "name": "active",
      "outputs": [
        {
          "internalType": "bool",
          "name": "",
          "type": "bool"
        }
      ],
      "stateMutability": "view",
      "type": "function"
    },
    {
      "inputs": [
        {
          "internalType": "contract IIFtso",
          "name": "_ftso",
          "type": "address"
        }
      ],
      "name": "addFtso",
      "outputs": [],
      "stateMutability": "nonpayable",
      "type": "function"
    },
    {
      "inputs": [],
      "name": "claimGovernance",
      "outputs": [],
      "stateMutability": "nonpayable",
      "type": "function"
    },
    {
      "inputs": [],
      "name": "deactivate",
      "outputs": [],
      "stateMutability": "nonpayable",
      "type": "function"
    },
    {
      "inputs": [],
      "name": "fallbackMode",
      "outputs": [
        {
          "internalType": "bool",
          "name": "",
          "type": "bool"
        }
      ],
      "stateMutability": "view",
      "type": "function"
    },
    {
      "inputs": [
        {
          "internalType": "contract IIFtso",
          "name": "",
          "type": "address"
        }
      ],
      "name": "ftsoInFallbackMode",
      "outputs": [
        {
          "internalType": "bool",
          "name": "",
          "type": "bool"
        }
      ],
      "stateMutability": "view",
      "type": "function"
    },
    {
      "inputs": [],
      "name": "getCurrentPriceEpochData",
      "outputs": [
        {
          "internalType": "uint256",
          "name": "priceEpochId",
          "type": "uint256"
        },
        {
          "internalType": "uint256",
          "name": "priceEpochStartTimestamp",
          "type": "uint256"
        },
        {
          "internalType": "uint256",
          "name": "priceEpochEndTimestamp",
          "type": "uint256"
        },
        {
          "internalType": "uint256",
          "name": "priceEpochRevealEndTimestamp",
          "type": "uint256"
        },
        {
          "internalType": "uint256",
          "name": "currentTimestamp",
          "type": "uint256"
        }
      ],
      "stateMutability": "view",
      "type": "function"
    },
    {
      "inputs": [],
      "name": "getCurrentRewardEpoch",
      "outputs": [
        {
          "internalType": "uint256",
          "name": "",
          "type": "uint256"
        }
      ],
      "stateMutability": "view",
      "type": "function"
    },
    {
      "inputs": [],
      "name": "getFtsos",
      "outputs": [
        {
          "internalType": "contract IIFtso[]",
          "name": "_ftsos",
          "type": "address[]"
        }
      ],
      "stateMutability": "view",
      "type": "function"
    },
    {
      "inputs": [],
      "name": "getPriceEpochConfiguration",
      "outputs": [
        {
          "internalType": "uint256",
          "name": "_firstPriceEpochStartTs",
          "type": "uint256"
        },
        {
          "internalType": "uint256",
          "name": "_priceEpochDurationSec",
          "type": "uint256"
        },
        {
          "internalType": "uint256",
          "name": "_revealEpochDurationSec",
          "type": "uint256"
        }
      ],
      "stateMutability": "view",
      "type": "function"
    },
    {
      "inputs": [
        {
          "internalType": "uint256",
          "name": "_rewardEpoch",
          "type": "uint256"
        }
      ],
      "name": "getRewardEpochVotePowerBlock",
      "outputs": [
        {
          "internalType": "uint256",
          "name": "",
          "type": "uint256"
        }
      ],
      "stateMutability": "view",
      "type": "function"
    },
    {
      "inputs": [],
      "name": "governance",
      "outputs": [
        {
          "internalType": "address",
          "name": "",
          "type": "address"
        }
      ],
      "stateMutability": "view",
      "type": "function"
    },
    {
      "inputs": [
        {
          "internalType": "address",
          "name": "_governance",
          "type": "address"
        }
      ],
      "name": "initialise",
      "outputs": [],
      "stateMutability": "nonpayable",
      "type": "function"
    },
    {
      "inputs": [],
      "name": "keep",
      "outputs": [
        {
          "internalType": "bool",
          "name": "",
          "type": "bool"
        }
      ],
      "stateMutability": "nonpayable",
      "type": "function"
    },
    {
      "inputs": [],
      "name": "lastUnprocessedPriceEpoch",
      "outputs": [
        {
          "internalType": "uint256",
          "name": "",
          "type": "uint256"
        }
      ],
      "stateMutability": "view",
      "type": "function"
    },
    {
      "inputs": [
        {
          "internalType": "uint256",
          "name": "",
          "type": "uint256"
        }
      ],
      "name": "priceEpochs",
      "outputs": [
        {
          "internalType": "address",
          "name": "chosenFtso",
          "type": "address"
        },
        {
          "internalType": "uint256",
          "name": "rewardEpochId",
          "type": "uint256"
        },
        {
          "internalType": "bool",
          "name": "rewardDistributed",
          "type": "bool"
        }
      ],
      "stateMutability": "view",
      "type": "function"
    },
    {
      "inputs": [],
      "name": "priceSubmitter",
      "outputs": [
        {
          "internalType": "contract IPriceSubmitter",
          "name": "",
          "type": "address"
        }
      ],
      "stateMutability": "view",
      "type": "function"
    },
    {
      "inputs": [
        {
          "internalType": "address",
          "name": "_governance",
          "type": "address"
        }
      ],
      "name": "proposeGovernance",
      "outputs": [],
      "stateMutability": "nonpayable",
      "type": "function"
    },
    {
      "inputs": [],
      "name": "proposedGovernance",
      "outputs": [
        {
          "internalType": "address",
          "name": "",
          "type": "address"
        }
      ],
      "stateMutability": "view",
      "type": "function"
    },
    {
      "inputs": [
        {
          "internalType": "contract IIFtso",
          "name": "_ftso",
          "type": "address"
        }
      ],
      "name": "removeFtso",
      "outputs": [],
      "stateMutability": "nonpayable",
      "type": "function"
    },
    {
      "inputs": [],
      "name": "rewardEpochDurationSec",
      "outputs": [
        {
          "internalType": "uint256",
          "name": "",
          "type": "uint256"
        }
      ],
      "stateMutability": "view",
      "type": "function"
    },
    {
      "inputs": [
        {
          "internalType": "uint256",
          "name": "",
          "type": "uint256"
        }
      ],
      "name": "rewardEpochs",
      "outputs": [
        {
          "internalType": "uint256",
          "name": "votepowerBlock",
          "type": "uint256"
        },
        {
          "internalType": "uint256",
          "name": "startBlock",
          "type": "uint256"
        }
      ],
      "stateMutability": "view",
      "type": "function"
    },
    {
      "inputs": [],
      "name": "rewardEpochsStartTs",
      "outputs": [
        {
          "internalType": "uint256",
          "name": "",
          "type": "uint256"
        }
      ],
      "stateMutability": "view",
      "type": "function"
    },
    {
      "inputs": [
        {
          "internalType": "bool",
          "name": "_fallbackMode",
          "type": "bool"
        }
      ],
      "name": "setFallbackMode",
      "outputs": [],
      "stateMutability": "nonpayable",
      "type": "function"
    },
    {
      "inputs": [
        {
          "internalType": "contract IIFtso",
          "name": "_ftso",
          "type": "address"
        },
        {
          "internalType": "contract IIVPToken",
          "name": "_fAsset",
          "type": "address"
        }
      ],
      "name": "setFtsoFAsset",
      "outputs": [],
      "stateMutability": "nonpayable",
      "type": "function"
    },
    {
      "inputs": [
        {
          "internalType": "contract IIFtso",
          "name": "_ftso",
          "type": "address"
        },
        {
          "internalType": "contract IIFtso[]",
          "name": "_fAssetFtsos",
          "type": "address[]"
        }
      ],
      "name": "setFtsoFAssetFtsos",
      "outputs": [],
      "stateMutability": "nonpayable",
      "type": "function"
    },
    {
      "inputs": [
        {
          "internalType": "contract IIFtso",
          "name": "_ftso",
          "type": "address"
        },
        {
          "internalType": "bool",
          "name": "_fallbackMode",
          "type": "bool"
        }
      ],
      "name": "setFtsoFallbackMode",
      "outputs": [],
      "stateMutability": "nonpayable",
      "type": "function"
    },
    {
      "inputs": [
        {
          "internalType": "uint256",
          "name": "_minVotePowerFlrThreshold",
          "type": "uint256"
        },
        {
          "internalType": "uint256",
          "name": "_minVotePowerAssetThreshold",
          "type": "uint256"
        },
        {
          "internalType": "uint256",
          "name": "_maxVotePowerFlrThreshold",
          "type": "uint256"
        },
        {
          "internalType": "uint256",
          "name": "_maxVotePowerAssetThreshold",
          "type": "uint256"
        },
        {
          "internalType": "uint256",
          "name": "_lowAssetUSDThreshold",
          "type": "uint256"
        },
        {
          "internalType": "uint256",
          "name": "_highAssetUSDThreshold",
          "type": "uint256"
        },
        {
          "internalType": "uint256",
          "name": "_highAssetTurnoutBIPSThreshold",
          "type": "uint256"
        },
        {
          "internalType": "uint256",
          "name": "_lowFlrTurnoutBIPSThreshold",
          "type": "uint256"
        },
        {
          "internalType": "address[]",
          "name": "_trustedAddresses",
          "type": "address[]"
        }
      ],
      "name": "setGovernanceParameters",
      "outputs": [],
      "stateMutability": "nonpayable",
      "type": "function"
    },
    {
      "inputs": [],
      "name": "settings",
      "outputs": [
        {
          "internalType": "uint256",
          "name": "votePowerBlock",
          "type": "uint256"
        },
        {
          "internalType": "uint256",
          "name": "minVotePowerFlrThreshold",
          "type": "uint256"
        },
        {
          "internalType": "uint256",
          "name": "minVotePowerAssetThreshold",
          "type": "uint256"
        },
        {
          "internalType": "uint256",
          "name": "maxVotePowerFlrThreshold",
          "type": "uint256"
        },
        {
          "internalType": "uint256",
          "name": "maxVotePowerAssetThreshold",
          "type": "uint256"
        },
        {
          "internalType": "uint256",
          "name": "lowAssetUSDThreshold",
          "type": "uint256"
        },
        {
          "internalType": "uint256",
          "name": "highAssetUSDThreshold",
          "type": "uint256"
        },
        {
          "internalType": "uint256",
          "name": "highAssetTurnoutBIPSThreshold",
          "type": "uint256"
        },
        {
          "internalType": "uint256",
          "name": "lowFlrTurnoutBIPSThreshold",
          "type": "uint256"
        },
        {
          "internalType": "bool",
          "name": "changed",
          "type": "bool"
        },
        {
          "internalType": "bool",
          "name": "initialized",
          "type": "bool"
        }
      ],
      "stateMutability": "view",
      "type": "function"
    }
  ],
  "bytecode": "0x6101406040523480156200001257600080fd5b50604051620043e2380380620043e283398181016040526101408110156200003957600080fd5b508051602082015160408301516060840151608085015160a086015160c087015160e08801516101008901516101209099015197989697959694959394929391929091896001600160a01b0381161562000098576200009881620002e9565b5060408051808201909152600e81526d05265776172642065706f636820360941b6020820152836200014b5760405162461bcd60e51b81526004018080602001828103825283818151815260200191508051906020019080838360005b838110156200010f578181015183820152602001620000f5565b50505050905090810190601f1680156200013d5780820380516001836020036101000a031916815260200191505b509250505060405180910390fd5b5060408051808201909152600d81526c050726963652065706f6368203609c1b602082015286620001bf5760405162461bcd60e51b81526020600482018181528351602484015283519092839260449091019190850190808383600083156200010f578181015183820152602001620000f5565b5060408051808201909152601481527f52657665616c2070726963652065706f63682030000000000000000000000000602082015284620002435760405162461bcd60e51b81526020600482018181528351602484015283519092839260449091019190850190808383600083156200010f578181015183820152602001620000f5565b5060e08390526000601255610100829052818301601355608085905260a086905260c08490528542869003816200027657fe5b04600f81905560010195909502939093016010819055601155505050601455601780546001600160a01b03199081166001600160a01b039586161790915560609290921b6001600160601b0319166101205260188054600160a01b9316919093161760ff60a01b191617905550620003c6565b600154600160a01b900460ff161562000349576040805162461bcd60e51b815260206004820152601460248201527f696e697469616c6973656420213d2066616c7365000000000000000000000000604482015290519081900360640190fd5b6001805460ff60a01b1916600160a01b179055600054604080516001600160a01b039283168152918316602083015280517f434a2db650703b36c824e745330d6397cdaa9ee2cc891a4938ae853e1c50b68d9281900390910190a1600080546001600160a01b0319166001600160a01b0392909216919091179055565b60805160a05160c05160e051610100516101205160601c613f7a6200046860003980610c01528061234a525080611a265250806120e052806129da52806138a95250806108aa5280610c75528061188e52806122b65250806108895280610c4f528061185d52806128f2528061324552806135775280613de85280613e575250806108685280610c29528061183c52806129135280613e315250613f7a6000f3fe608060405234801561001057600080fd5b50600436106101da5760003560e01c8063a578f55b11610104578063d86323f6116100a2578063e7c830d411610071578063e7c830d414610730578063f2edab5a14610738578063f937d6ad14610755578063ff882fbb1461075d576101da565b8063d86323f614610683578063d8a858271461068b578063e06174e4146106c6578063e4d06d8214610728576101da565b8063af8fac5c116100de578063af8fac5c14610569578063af946af7146105bd578063c373a08e146105f8578063ce69f8331461062b576101da565b8063a578f55b146104f8578063a670ff8714610500578063a795f40914610533576101da565b80635aa6e6751161017c578063796b75f61161014b578063796b75f61461044557806393a79025146104785780639d6a890f146104ab578063a50df172146104de576101da565b80635aa6e6751461032e5780635d36b1901461035f57806360f7ac9714610367578063678951631461036f576101da565b80632663f1b4116101b85780632663f1b41461022b5780632e85ddda1461025e57806343c1a4cd1461031e57806351b42b0014610326576101da565b806302fb0c5e146101df5780630f15f4c0146101fb578063144e159114610205575b600080fd5b6101e761077c565b604080519115158252519081900360200190f35b61020361079e565b005b61020d610866565b60408051938452602084019290925282820152519081900360600190f35b6102036004803603602081101561024157600080fd5b503573ffffffffffffffffffffffffffffffffffffffff166108ce565b6102036004803603604081101561027457600080fd5b73ffffffffffffffffffffffffffffffffffffffff82351691908101906040810160208201356401000000008111156102ac57600080fd5b8201836020820111156102be57600080fd5b803590602001918460208302840111640100000000831117156102e057600080fd5b919080806020026020016040519081016040528093929190818152602001838360200280828437600092019190915250929550610f9f945050505050565b6101e76110f1565b610203611113565b6103366111c3565b6040805173ffffffffffffffffffffffffffffffffffffffff9092168252519081900360200190f35b6102036111df565b610336611307565b610203600480360361012081101561038657600080fd5b81359160208101359160408201359160608101359160808201359160a08101359160c08201359160e08101359181019061012081016101008201356401000000008111156103d357600080fd5b8201836020820111156103e557600080fd5b8035906020019184602083028401116401000000008311171561040757600080fd5b919080806020026020016040519081016040528093929190818152602001838360200280828437600092019190915250929550611323945050505050565b6101e76004803603602081101561045b57600080fd5b503573ffffffffffffffffffffffffffffffffffffffff16611811565b610480611826565b6040805195865260208601949094528484019290925260608401526080830152519081900360a00190f35b610203600480360360208110156104c157600080fd5b503573ffffffffffffffffffffffffffffffffffffffff166118b9565b6104e6611a1e565b60408051918252519081900360200190f35b6104e6611a24565b6102036004803603602081101561051657600080fd5b503573ffffffffffffffffffffffffffffffffffffffff16611a48565b6105506004803603602081101561054957600080fd5b5035611d5c565b6040805192835260208301919091528051918290030190f35b6105866004803603602081101561057f57600080fd5b5035611d8a565b6040805173ffffffffffffffffffffffffffffffffffffffff90941684526020840192909252151582820152519081900360600190f35b610203600480360360408110156105d357600080fd5b5073ffffffffffffffffffffffffffffffffffffffff81351690602001351515611dc5565b6102036004803603602081101561060e57600080fd5b503573ffffffffffffffffffffffffffffffffffffffff16611fa1565b61063361206e565b60408051602080825283518183015283519192839290830191858101910280838360005b8381101561066f578181015183820152602001610657565b505050509050019250505060405180910390f35b6104e66120de565b610203600480360360408110156106a157600080fd5b5073ffffffffffffffffffffffffffffffffffffffff81358116916020013516612102565b6106ce6121f1565b604080519b8c5260208c019a909a528a8a019890985260608a0196909652608089019490945260a088019290925260c087015260e08601526101008501521515610120840152151561014083015251908190036101600190f35b6101e761221e565b6104e6612319565b6104e66004803603602081101561074e57600080fd5b503561231f565b610336612348565b6102036004803603602081101561077357600080fd5b5035151561236c565b6001547501000000000000000000000000000000000000000000900460ff1681565b60005473ffffffffffffffffffffffffffffffffffffffff16331461082457604080517f08c379a000000000000000000000000000000000000000000000000000000000815260206004820152600f60248201527f6f6e6c7920676f7665726e616e63650000000000000000000000000000000000604482015290519081900360640190fd5b600180547fffffffffffffffffffff00ffffffffffffffffffffffffffffffffffffffffff167501000000000000000000000000000000000000000000179055565b7f00000000000000000000000000000000000000000000000000000000000000007f00000000000000000000000000000000000000000000000000000000000000007f0000000000000000000000000000000000000000000000000000000000000000909192565b60005473ffffffffffffffffffffffffffffffffffffffff16331461095457604080517f08c379a000000000000000000000000000000000000000000000000000000000815260206004820152600f60248201527f6f6e6c7920676f7665726e616e63650000000000000000000000000000000000604482015290519081900360640190fd5b600e5460408051808201909152601b81527f476f762e20706172616d73206e6f7420696e697469616c697a65640000000000602082015290610100900460ff16610a36576040517f08c379a00000000000000000000000000000000000000000000000000000000081526004018080602001828103825283818151815260200191508051906020019080838360005b838110156109fb5781810151838201526020016109e3565b50505050905090810190601f168015610a285780820380516001836020036101000a031916815260200191505b509250505060405180910390fd5b50610b6c8173ffffffffffffffffffffffffffffffffffffffff1663f1c464916040518163ffffffff1660e01b815260040160006040518083038186803b158015610a8057600080fd5b505afa158015610a94573d6000803e3d6000fd5b505050506040513d6000823e601f3d9081017fffffffffffffffffffffffffffffffffffffffffffffffffffffffffffffffe01682016040526020811015610adb57600080fd5b8101908080516040519392919084640100000000821115610afb57600080fd5b908301906020820185811115610b1057600080fd5b8251866020820283011164010000000082111715610b2d57600080fd5b82525081516020918201928201910280838360005b83811015610b5a578181015183820152602001610b42565b50505050905001604052505050612472565b60155460005b81811015610bc25760158181548110610b8757fe5b60009182526020909120015473ffffffffffffffffffffffffffffffffffffffff84811691161415610bba575050610f9c565b600101610b72565b50604080517fdbdb0f4b00000000000000000000000000000000000000000000000000000000815273ffffffffffffffffffffffffffffffffffffffff7f0000000000000000000000000000000000000000000000000000000000000000811660048301527f000000000000000000000000000000000000000000000000000000000000000060248301527f000000000000000000000000000000000000000000000000000000000000000060448301527f0000000000000000000000000000000000000000000000000000000000000000606483015291519184169163dbdb0f4b9160848082019260009290919082900301818387803b158015610cc657600080fd5b505af1158015610cda573d6000803e3d6000fd5b505060185474010000000000000000000000000000000000000000900460ff169150610d8e9050578173ffffffffffffffffffffffffffffffffffffffff1663e536f396600260125481548110610d2d57fe5b9060005260206000209060020201600001546040518263ffffffff1660e01b815260040180828152602001915050600060405180830381600087803b158015610d7557600080fd5b505af1158015610d89573d6000803e3d6000fd5b505050505b8173ffffffffffffffffffffffffffffffffffffffff16635a3c9d8e600460010154600460020154600460030154600480015460046005015460046006015460046007015460046008015460046009016040518a63ffffffff1660e01b8152600401808a8152602001898152602001888152602001878152602001868152602001858152602001848152602001838152602001806020018281038252838181548152602001915080548015610e7957602002820191906000526020600020905b815473ffffffffffffffffffffffffffffffffffffffff168152600190910190602001808311610e4e575b50509a5050505050505050505050600060405180830381600087803b158015610ea157600080fd5b505af1158015610eb5573d6000803e3d6000fd5b50506015805460018082019092557f55f448fdea98c4d29eb340757ef0a66cd03dbb9538908a6a81d96026b71ec4750180547fffffffffffffffffffffffff00000000000000000000000000000000000000001673ffffffffffffffffffffffffffffffffffffffff871690811790915560008181526016602090815260409182902080547fffffffffffffffffffffffffffffffffffffffffffffffffffffffffffffff001685179055815192835282019290925281517fa0985424f2efdcae4b57a7c84bbf0a0b19f93054f21e9eb1cfcd5a59813fe1da9450908190039091019150a1505b50565b60005473ffffffffffffffffffffffffffffffffffffffff16331461102557604080517f08c379a000000000000000000000000000000000000000000000000000000000815260206004820152600f60248201527f6f6e6c7920676f7665726e616e63650000000000000000000000000000000000604482015290519081900360640190fd5b61102e81612472565b6040517f70f391aa00000000000000000000000000000000000000000000000000000000815260206004820181815283516024840152835173ffffffffffffffffffffffffffffffffffffffff8616936370f391aa93869392839260440191808601910280838360005b838110156110b0578181015183820152602001611098565b5050505090500192505050600060405180830381600087803b1580156110d557600080fd5b505af11580156110e9573d6000803e3d6000fd5b505050505050565b6018547501000000000000000000000000000000000000000000900460ff1681565b60005473ffffffffffffffffffffffffffffffffffffffff16331461119957604080517f08c379a000000000000000000000000000000000000000000000000000000000815260206004820152600f60248201527f6f6e6c7920676f7665726e616e63650000000000000000000000000000000000604482015290519081900360640190fd5b600180547fffffffffffffffffffff00ffffffffffffffffffffffffffffffffffffffffff169055565b60005473ffffffffffffffffffffffffffffffffffffffff1681565b60015473ffffffffffffffffffffffffffffffffffffffff16331461126557604080517f08c379a000000000000000000000000000000000000000000000000000000000815260206004820152600d60248201527f6e6f7420636c61696d61696e7400000000000000000000000000000000000000604482015290519081900360640190fd5b6000546001546040805173ffffffffffffffffffffffffffffffffffffffff938416815292909116602083015280517f434a2db650703b36c824e745330d6397cdaa9ee2cc891a4938ae853e1c50b68d9281900390910190a1600154600080547fffffffffffffffffffffffff00000000000000000000000000000000000000001673ffffffffffffffffffffffffffffffffffffffff909216919091179055565b60015473ffffffffffffffffffffffffffffffffffffffff1681565b60005473ffffffffffffffffffffffffffffffffffffffff1633146113a957604080517f08c379a000000000000000000000000000000000000000000000000000000000815260206004820152600f60248201527f6f6e6c7920676f7665726e616e63650000000000000000000000000000000000604482015290519081900360640190fd5b60408051808201909152601381527f476f762e20706172616d7320696e76616c696400000000000000000000000000602082015289611443576040517f08c379a00000000000000000000000000000000000000000000000000000000081526020600482018181528351602484015283519092839260449091019190850190808383600083156109fb5781810151838201526020016109e3565b5060408051808201909152601381527f476f762e20706172616d7320696e76616c6964000000000000000000000000006020820152886114de576040517f08c379a00000000000000000000000000000000000000000000000000000000081526020600482018181528351602484015283519092839260449091019190850190808383600083156109fb5781810151838201526020016109e3565b5060408051808201909152601381527f476f762e20706172616d7320696e76616c696400000000000000000000000000602082015287611579576040517f08c379a00000000000000000000000000000000000000000000000000000000081526020600482018181528351602484015283519092839260449091019190850190808383600083156109fb5781810151838201526020016109e3565b5060408051808201909152601381527f476f762e20706172616d7320696e76616c696400000000000000000000000000602082015286611614576040517f08c379a00000000000000000000000000000000000000000000000000000000081526020600482018181528351602484015283519092839260449091019190850190808383600083156109fb5781810151838201526020016109e3565b5060408051808201909152601381527f476f762e20706172616d7320696e76616c6964000000000000000000000000006020820152858510156116b2576040517f08c379a00000000000000000000000000000000000000000000000000000000081526020600482018181528351602484015283519092839260449091019190850190808383600083156109fb5781810151838201526020016109e3565b5060408051808201909152601381527f476f762e20706172616d7320696e76616c6964000000000000000000000000006020820152612710841115611752576040517f08c379a00000000000000000000000000000000000000000000000000000000081526020600482018181528351602484015283519092839260449091019190850190808383600083156109fb5781810151838201526020016109e3565b5060408051808201909152601381527f476f762e20706172616d7320696e76616c69640000000000000000000000000060208201526127108311156117f2576040517f08c379a00000000000000000000000000000000000000000000000000000000081526020600482018181528351602484015283519092839260449091019190850190808383600083156109fb5781810151838201526020016109e3565b5061180660048a8a8a8a8a8a8a8a8a61254e565b505050505050505050565b60196020526000908152604090205460ff1681565b6000806000806000806118376128ee565b9550507f00000000000000000000000000000000000000000000000000000000000000007f0000000000000000000000000000000000000000000000000000000000000000808702820195506001870102019250507f000000000000000000000000000000000000000000000000000000000000000082019050429091929394565b60015474010000000000000000000000000000000000000000900460ff161561194357604080517f08c379a000000000000000000000000000000000000000000000000000000000815260206004820152601460248201527f696e697469616c6973656420213d2066616c7365000000000000000000000000604482015290519081900360640190fd5b600180547fffffffffffffffffffffff00ffffffffffffffffffffffffffffffffffffffff16740100000000000000000000000000000000000000001790556000546040805173ffffffffffffffffffffffffffffffffffffffff9283168152918316602083015280517f434a2db650703b36c824e745330d6397cdaa9ee2cc891a4938ae853e1c50b68d9281900390910190a1600080547fffffffffffffffffffffffff00000000000000000000000000000000000000001673ffffffffffffffffffffffffffffffffffffffff92909216919091179055565b600f5481565b7f000000000000000000000000000000000000000000000000000000000000000081565b60005473ffffffffffffffffffffffffffffffffffffffff163314611ace57604080517f08c379a000000000000000000000000000000000000000000000000000000000815260206004820152600f60248201527f6f6e6c7920676f7665726e616e63650000000000000000000000000000000000604482015290519081900360640190fd5b60155460005b81811015611cc95760158181548110611ae957fe5b60009182526020909120015473ffffffffffffffffffffffffffffffffffffffff84811691161415611cc15760156001830381548110611b2557fe5b6000918252602090912001546015805473ffffffffffffffffffffffffffffffffffffffff9092169183908110611b5857fe5b9060005260206000200160006101000a81548173ffffffffffffffffffffffffffffffffffffffff021916908373ffffffffffffffffffffffffffffffffffffffff1602179055506015805480611bab57fe5b6000828152602080822083017fffffffffffffffffffffffffffffffffffffffffffffffffffffffffffffffff90810180547fffffffffffffffffffffffff000000000000000000000000000000000000000016905590920190925573ffffffffffffffffffffffffffffffffffffffff8516825260198152604080832080547fffffffffffffffffffffffffffffffffffffffffffffffffffffffffffffff00908116909155601690925290912080549091169055611c69612941565b6040805173ffffffffffffffffffffffffffffffffffffffff851681526000602082015281517fa0985424f2efdcae4b57a7c84bbf0a0b19f93054f21e9eb1cfcd5a59813fe1da929181900390910190a15050610f9c565b600101611ad4565b50604080518082018252600981527f4e6f7420666f756e640000000000000000000000000000000000000000000000602080830191825292517f08c379a000000000000000000000000000000000000000000000000000000000815260048101938452825160248201528251929392839260449092019190808383600083156109fb5781810151838201526020016109e3565b60028181548110611d6c57600080fd5b60009182526020909120600290910201805460019091015490915082565b60036020526000908152604090208054600182015460029092015473ffffffffffffffffffffffffffffffffffffffff909116919060ff1683565b60005473ffffffffffffffffffffffffffffffffffffffff163314611e4b57604080517f08c379a000000000000000000000000000000000000000000000000000000000815260206004820152600f60248201527f6f6e6c7920676f7665726e616e63650000000000000000000000000000000000604482015290519081900360640190fd5b73ffffffffffffffffffffffffffffffffffffffff8216600090815260166020908152604091829020548251808401909352600983527f4e6f7420666f756e6400000000000000000000000000000000000000000000009183019190915260ff16611f11576040517f08c379a00000000000000000000000000000000000000000000000000000000081526020600482018181528351602484015283519092839260449091019190850190808383600083156109fb5781810151838201526020016109e3565b5073ffffffffffffffffffffffffffffffffffffffff821660008181526019602090815260409182902080547fffffffffffffffffffffffffffffffffffffffffffffffffffffffffffffff001685151590811790915582519384529083015280517f24462ede4d3e8e5a69fecec6290d42a311016ca752216d9a3d681e284791b7ac9281900390910190a15050565b60005473ffffffffffffffffffffffffffffffffffffffff16331461202757604080517f08c379a000000000000000000000000000000000000000000000000000000000815260206004820152600f60248201527f6f6e6c7920676f7665726e616e63650000000000000000000000000000000000604482015290519081900360640190fd5b600180547fffffffffffffffffffffffff00000000000000000000000000000000000000001673ffffffffffffffffffffffffffffffffffffffff92909216919091179055565b606060158054806020026020016040519081016040528092919081815260200182805480156120d357602002820191906000526020600020905b815473ffffffffffffffffffffffffffffffffffffffff1681526001909101906020018083116120a8575b505050505090505b90565b7f000000000000000000000000000000000000000000000000000000000000000081565b60005473ffffffffffffffffffffffffffffffffffffffff16331461218857604080517f08c379a000000000000000000000000000000000000000000000000000000000815260206004820152600f60248201527f6f6e6c7920676f7665726e616e63650000000000000000000000000000000000604482015290519081900360640190fd5b8173ffffffffffffffffffffffffffffffffffffffff16632ab0cb7d826040518263ffffffff1660e01b8152600401808273ffffffffffffffffffffffffffffffffffffffff168152602001915050600060405180830381600087803b1580156110d557600080fd5b600454600554600654600754600854600954600a54600b54600c54600e5460ff808216916101009004168b565b6040805143815242602082015281516000927fac4261462329304a0e5cab36474b796aa89296a06194be845190993b11bbc277928290030190a16001547501000000000000000000000000000000000000000000900460ff16612283575060006120db565b60185474010000000000000000000000000000000000000000900460ff16156122b3576122ae6129d8565b612313565b427f00000000000000000000000000000000000000000000000000000000000000006010540110156122e7576122e7612b87565b426013541015612301576122f961359b565b6123016138d0565b4260115410156123135761231361397d565b50600190565b60125490565b60006002828154811061232e57fe5b90600052602060002090600202016000015490505b919050565b7f000000000000000000000000000000000000000000000000000000000000000081565b60005473ffffffffffffffffffffffffffffffffffffffff1633146123f257604080517f08c379a000000000000000000000000000000000000000000000000000000000815260206004820152600f60248201527f6f6e6c7920676f7665726e616e63650000000000000000000000000000000000604482015290519081900360640190fd5b60188054821515750100000000000000000000000000000000000000000081027fffffffffffffffffffff00ffffffffffffffffffffffffffffffffffffffffff9092169190911790915560408051918252517f217a37a37fc40a97159886f80c3d45986e6fc4330ce6ad7283478b5e5ab705bc9181900360200190a150565b805160005b81811015612549576016600084838151811061248f57fe5b60209081029190910181015173ffffffffffffffffffffffffffffffffffffffff1682528101919091526040016000205460ff1661254157604051806060016040528060278152602001613f1e602791396040517f08c379a00000000000000000000000000000000000000000000000000000000081526020600482018181528351602484015283519092839260449091019190850190808383600083156109fb5781810151838201526020016109e3565b600101612477565b505050565b888a600101541461258f57600a8a0180547fffffffffffffffffffffffffffffffffffffffffffffffffffffffffffffff001660019081179091558a018990555b878a60020154146125cf57600a8a0180547fffffffffffffffffffffffffffffffffffffffffffffffffffffffffffffff0016600117905560028a018890555b868a600301541461260f57600a8a0180547fffffffffffffffffffffffffffffffffffffffffffffffffffffffffffffff0016600117905560038a018790555b858a600401541461264f57600a8a0180547fffffffffffffffffffffffffffffffffffffffffffffffffffffffffffffff0016600117905560048a018690555b848a600501541461268f57600a8a0180547fffffffffffffffffffffffffffffffffffffffffffffffffffffffffffffff0016600117905560058a018590555b838a60060154146126cf57600a8a0180547fffffffffffffffffffffffffffffffffffffffffffffffffffffffffffffff0016600117905560068a018490555b828a600701541461270f57600a8a0180547fffffffffffffffffffffffffffffffffffffffffffffffffffffffffffffff0016600117905560078a018390555b818a600801541461274f57600a8a0180547fffffffffffffffffffffffffffffffffffffffffffffffffffffffffffffff0016600117905560088a018290555b805160098b0154146127a35780516127709060098c01906020840190613e7e565b50600a8a0180547fffffffffffffffffffffffffffffffffffffffffffffffffffffffffffffff001660011790556128b4565b60005b81518110156128b2578181815181106127bb57fe5b602002602001015173ffffffffffffffffffffffffffffffffffffffff168b60090182815481106127e857fe5b60009182526020909120015473ffffffffffffffffffffffffffffffffffffffff16146128aa57600a8b0180547fffffffffffffffffffffffffffffffffffffffffffffffffffffffffffffff00166001179055815182908290811061284a57fe5b60200260200101518b600901828154811061286157fe5b9060005260206000200160006101000a81548173ffffffffffffffffffffffffffffffffffffffff021916908373ffffffffffffffffffffffffffffffffffffffff1602179055505b6001016127a6565b505b505050600a90960180547fffffffffffffffffffffffffffffffffffffffffffffffffffffffffffff00ff16610100179055505050505050565b60007f00000000000000000000000000000000000000000000000000000000000000007f000000000000000000000000000000000000000000000000000000000000000042038161293b57fe5b04905090565b60155460005b818110156129d4576129cc6015828154811061295f57fe5b6000918252602082200154604080517ff1c46491000000000000000000000000000000000000000000000000000000008152905173ffffffffffffffffffffffffffffffffffffffff9092169263f1c4649192600480840193829003018186803b158015610a8057600080fd5b600101612947565b5050565b7f0000000000000000000000000000000000000000000000000000000000000000601354034210612b8557601554604080518082019091527fffffffffffffffffffffffffffffffffffffffffffffffffffffffffffffffff439081018252602082019081526002805460018101825560008281528451919092027f405787fa12a823e0f2b7631cc41b3ba8828b3321ca811111fa75cd3aa3bb5ace81019190915591517f405787fa12a823e0f2b7631cc41b3ba8828b3321ca811111fa75cd3aa3bb5acf9092019190915560128190555b82811015612b595760158181548110612abf57fe5b60009182526020822001548351604080517fe536f39600000000000000000000000000000000000000000000000000000000815260048101929092525173ffffffffffffffffffffffffffffffffffffffff9092169263e536f3969260248084019382900301818387803b158015612b3657600080fd5b505af1158015612b4a573d6000803e3d6000fd5b50505050806001019050612aaa565b5050601880547fffffffffffffffffffffff00ffffffffffffffffffffffffffffffffffffffff169055505b565b6015548015613482576000600f5460001480612bea5750600f547fffffffffffffffffffffffffffffffffffffffffffffffffffffffffffffffff0160009081526003602052604090205473ffffffffffffffffffffffffffffffffffffffff16155b15612c29576040805144602080830191909152428284015282518083038401815260609092019092528051910120829081612c2157fe5b069050612d1c565b600f547fffffffffffffffffffffffffffffffffffffffffffffffffffffffffffffffff016000908152600360209081526040918290205482517fd89601fd0000000000000000000000000000000000000000000000000000000081529251859373ffffffffffffffffffffffffffffffffffffffff9092169263d89601fd9260048082019391829003018186803b158015612cc457600080fd5b505afa158015612cd8573d6000803e3d6000fd5b505050506040513d6020811015612cee57600080fd5b505160408051602081810193909352815180820384018152908201909152805191012081612d1857fe5b0690505b60608060008080805b878110156131475760008882890181612d3a57fe5b06905060158181548110612d4a57fe5b6000918252602082200154600f54604080517f40462a2d0000000000000000000000000000000000000000000000000000000081526004810192909252871560248301525173ffffffffffffffffffffffffffffffffffffffff909216926340462a2d9260448084019382900301818387803b158015612dc957600080fd5b505af1925050508015612f3857506040513d6000823e601f3d9081017fffffffffffffffffffffffffffffffffffffffffffffffffffffffffffffffe01682016040526060811015612e1a57600080fd5b8101908080516040519392919084640100000000821115612e3a57600080fd5b908301906020820185811115612e4f57600080fd5b8251866020820283011164010000000082111715612e6c57600080fd5b82525081516020918201928201910280838360005b83811015612e99578181015183820152602001612e81565b5050505090500160405260200180516040519392919084640100000000821115612ec257600080fd5b908301906020820185811115612ed757600080fd5b8251866020820283011164010000000082111715612ef457600080fd5b82525081516020918201928201910280838360005b83811015612f21578181015183820152602001612f09565b505050509190910160405250602001519150600190505b6130e15760158181548110612f4957fe5b6000918252602082200154600f54604080517f9de6f92700000000000000000000000000000000000000000000000000000000815260048101929092525173ffffffffffffffffffffffffffffffffffffffff90921692639de6f9279260248084019382900301818387803b158015612fc157600080fd5b505af1925050508015612fd2575060015b6130dc5760158181548110612fe357fe5b6000918252602082200154600f54604080517f974d7a6b00000000000000000000000000000000000000000000000000000000815260048101929092525173ffffffffffffffffffffffffffffffffffffffff9092169263974d7a6b9260248084019382900301818387803b15801561305b57600080fd5b505af192505050801561306c575060015b6130dc577fd044b2898b225e0f107d2f1557890724bb100f50ec276049f632a55604cc1f5d6015828154811061309e57fe5b60009182526020918290200154600f546040805173ffffffffffffffffffffffffffffffffffffffff90931683529282015281519081900390910190a15b61313e565b861580156130f0575060008351115b1561313a57828282809a50819b50829c50505050600196506015848154811061311557fe5b60009182526020909120015473ffffffffffffffffffffffffffffffffffffffff1695505b5050505b50600101612d25565b506040805160608101825273ffffffffffffffffffffffffffffffffffffffff838116825260125460208084019182526000848601818152600f548252600390925294909420925183547fffffffffffffffffffffffff00000000000000000000000000000000000000001692169190911782555160018201559051600290910180547fffffffffffffffffffffffffffffffffffffffffffffffffffffffffffffff0016911515919091179055811561342357601760009054906101000a900473ffffffffffffffffffffffffffffffffffffffff1673ffffffffffffffffffffffffffffffffffffffff16638bcb25ba868686600f548661326d7f000000000000000000000000000000000000000000000000000000000000000060105403613ca9565b6012546040518863ffffffff1660e01b81526004018080602001806020018881526020018781526020018673ffffffffffffffffffffffffffffffffffffffff16815260200185815260200184815260200183810383528a818151815260200191508051906020019060200280838360005b838110156132f75781810151838201526020016132df565b50505050905001838103825289818151815260200191508051906020019060200280838360005b8381101561333657818101518382015260200161331e565b505050509050019950505050505050505050602060405180830381600087803b15801561336257600080fd5b505af192505050801561338757506040513d602081101561338257600080fd5b505160015b6133e457600f546040805173ffffffffffffffffffffffffffffffffffffffff84168152602081019290925280517f175a1d13d190d6a1e14461c214b3ecf6118b828797750b7bffd7c4f2c1eba54c9281900390910190a1613423565b50600f54600090815260036020526040902060020180547fffffffffffffffffffffffffffffffffffffffffffffffffffffffffffffff001660011790555b6012546040805173ffffffffffffffffffffffffffffffffffffffff84168152602081019290925280517f98b050a4042fbd1b89934ef40b9342e593f15081a348af940573a0179031f4ad9281900390910190a1505050505050613567565b604080516060810182526000808252601280546020808501918252848601848152600f54855260038252868520955186547fffffffffffffffffffffffff00000000000000000000000000000000000000001673ffffffffffffffffffffffffffffffffffffffff909116178655915160018601559051600290940180547fffffffffffffffffffffffffffffffffffffffffffffffffffffffffffffff0016941515949094179093555483519182529181019190915281517f98b050a4042fbd1b89934ef40b9342e593f15081a348af940573a0179031f4ad929181900390910190a15b50600f80546001019055601080547f0000000000000000000000000000000000000000000000000000000000000000019055565b60185474010000000000000000000000000000000000000000900460ff16156135c357612b85565b60155442811561368f5760005b8281101561368d57601581815481106135e557fe5b60009182526020918290200154604080517fd89601fd000000000000000000000000000000000000000000000000000000008152905173ffffffffffffffffffffffffffffffffffffffff9092169263d89601fd92600480840193829003018186803b15801561365457600080fd5b505afa158015613668573d6000803e3d6000fd5b505050506040513d602081101561367e57600080fd5b505191909101906001016135d0565b505b604080516020808201939093528151808203840181529082019091528051910120601454600090156136c3576014546136c6565b60015b6002601254815481106136d557fe5b9060005260206000209060020201600101544303816136f057fe5b049050806136fc575060015b600081838161370757fe5b06905080613713575060015b604080518082019091524382810382526020820190815260028054600181018255600082815284517f405787fa12a823e0f2b7631cc41b3ba8828b3321ca811111fa75cd3aa3bb5ace9284029283015592517f405787fa12a823e0f2b7631cc41b3ba8828b3321ca811111fa75cd3aa3bb5acf90910155547fffffffffffffffffffffffffffffffffffffffffffffffffffffffffffffffff016012555b8581101561386157601581815481106137c657fe5b60009182526020822001548351604080517fe536f39600000000000000000000000000000000000000000000000000000000815260048101929092525173ffffffffffffffffffffffffffffffffffffffff9092169263e536f3969260248084019382900301818387803b15801561383d57600080fd5b505af1158015613851573d6000803e3d6000fd5b5050600190920191506137b19050565b508051602080830151604080519384529183015280517f1813f880dc24666c8b69c9d771a487ea620a27fde1514be3112847056c0c53229281900390910190a15050601380547f0000000000000000000000000000000000000000000000000000000000000000019055505050565b601760009054906101000a900473ffffffffffffffffffffffffffffffffffffffff1673ffffffffffffffffffffffffffffffffffffffff166392e4f0f16040518163ffffffff1660e01b8152600401600060405180830381600087803b15801561393a57600080fd5b505af192505050801561394b575060015b612b85576040517ff729cde0a1e01183919287529f0ef8e8f39b414d634de68e6711553519d59eab90600090a1612b85565b60155460005b81811015613c7257600e5460ff1615613af157601581815481106139a357fe5b600091825260209091200154600554600654600754600854600954600a54600b54600c546040517f5a3c9d8e000000000000000000000000000000000000000000000000000000008152600481018981526024820189905260448201889052606482018790526084820186905260a4820185905260c4820184905260e482018390526101206101048301908152600d8054610124850181905273ffffffffffffffffffffffffffffffffffffffff909d169c635a3c9d8e9c9b9a99989796959491939291610144019084908015613ab057602002820191906000526020600020905b815473ffffffffffffffffffffffffffffffffffffffff168152600190910190602001808311613a85575b50509a5050505050505050505050600060405180830381600087803b158015613ad857600080fd5b505af1158015613aec573d6000803e3d6000fd5b505050505b60158181548110613afe57fe5b60009182526020909120015460185473ffffffffffffffffffffffffffffffffffffffff9091169063fd00e539907501000000000000000000000000000000000000000000900460ff1680613b9557506019600060158581548110613b5f57fe5b600091825260208083209091015473ffffffffffffffffffffffffffffffffffffffff16835282019290925260400190205460ff165b6040518263ffffffff1660e01b8152600401808215158152602001915050600060405180830381600087803b158015613bcd57600080fd5b505af1925050508015613bde575060015b613c6a577f61156899176547b8075bfa81fa2996c6057ce9c71320884b11c0179d9dc2e46260158281548110613c1057fe5b60009182526020909120015473ffffffffffffffffffffffffffffffffffffffff16613c3a6128ee565b6040805173ffffffffffffffffffffffffffffffffffffffff909316835260208301919091528051918290030190a15b600101613983565b50600e80547fffffffffffffffffffffffffffffffffffffffffffffffffffffffffffffff00169055613ca3613e24565b60115550565b601854604080517fd7d6008d0000000000000000000000000000000000000000000000000000000081529051600092839273ffffffffffffffffffffffffffffffffffffffff9091169163de471f2291839163d7d6008d91600480820192602092909190829003018186803b158015613d2157600080fd5b505afa158015613d35573d6000803e3d6000fd5b505050506040513d6020811015613d4b57600080fd5b5051604080517fffffffff0000000000000000000000000000000000000000000000000000000060e085901b16815260048101929092525160248083019260a0929190829003018186803b158015613da257600080fd5b505afa158015613db6573d6000803e3d6000fd5b505050506040513d60a0811015613dcc57600080fd5b50606001519050808311801590613de1575060015b15613e1a577f000000000000000000000000000000000000000000000000000000000000000083820381613e1157fe5b04915050612343565b6000915050612343565b600080613e2f6128ee565b7f000000000000000000000000000000000000000000000000000000000000000060019091017f0000000000000000000000000000000000000000000000000000000000000000020191505090565b828054828255906000526020600020908101928215613ef8579160200282015b82811115613ef857825182547fffffffffffffffffffffffff00000000000000000000000000000000000000001673ffffffffffffffffffffffffffffffffffffffff909116178255602090920191600190910190613e9e565b50613f04929150613f08565b5090565b5b80821115613f045760008155600101613f0956fe464173736574204654534f206e6f74206d616e61676564206279206674736f206d616e61676572a26469706673582212205a1f8c9a9bcd311ffaf0fb9f79f65f5f3104caa83a1e6735acb3f0b64272bc4364736f6c63430007060033",
  "linkReferences": {},
  "deployedLinkReferences": {}
}