{
  "_format": "hh-sol-artifact-1",
  "contractName": "Ftso",
  "sourceName": "contracts/implementations/Ftso.sol",
  "abi": [
    {
      "inputs": [
        {
          "internalType": "string",
          "name": "_symbol",
          "type": "string"
        },
        {
          "internalType": "contract IFAsset",
          "name": "_fFlr",
          "type": "address"
        },
        {
          "internalType": "contract IFtsoManager",
          "name": "_ftsoManager",
          "type": "address"
        },
        {
          "internalType": "uint256",
          "name": "_initialPriceUSD",
          "type": "uint256"
        }
      ],
      "stateMutability": "nonpayable",
      "type": "constructor"
    },
    {
      "anonymous": false,
      "inputs": [
        {
          "indexed": true,
          "internalType": "uint256",
          "name": "epochId",
          "type": "uint256"
        },
        {
          "indexed": false,
          "internalType": "uint256",
          "name": "flrTurnout",
          "type": "uint256"
        },
        {
          "indexed": false,
          "internalType": "uint256",
          "name": "lowFlrTurnoutBIPSThreshold",
          "type": "uint256"
        },
        {
          "indexed": false,
          "internalType": "uint256",
          "name": "timestamp",
          "type": "uint256"
        }
      ],
      "name": "LowTurnout",
      "type": "event"
    },
    {
      "anonymous": false,
      "inputs": [
        {
          "indexed": true,
          "internalType": "uint256",
          "name": "epochId",
          "type": "uint256"
        },
        {
          "indexed": false,
          "internalType": "uint256",
          "name": "endTime",
          "type": "uint256"
        },
        {
          "indexed": false,
          "internalType": "uint256",
          "name": "timestamp",
          "type": "uint256"
        }
      ],
      "name": "PriceEpochInitializedOnFtso",
      "type": "event"
    },
    {
      "anonymous": false,
      "inputs": [
        {
          "indexed": true,
          "internalType": "uint256",
          "name": "epochId",
          "type": "uint256"
        },
        {
          "indexed": false,
          "internalType": "uint256",
          "name": "price",
          "type": "uint256"
        },
        {
          "indexed": false,
          "internalType": "bool",
          "name": "rewardedFtso",
          "type": "bool"
        },
        {
          "indexed": false,
          "internalType": "uint256",
          "name": "lowRewardPrice",
          "type": "uint256"
        },
        {
          "indexed": false,
          "internalType": "uint256",
          "name": "highRewardPrice",
          "type": "uint256"
        },
        {
          "indexed": false,
          "internalType": "enum IFtso.PriceFinalizationType",
          "name": "finalizationType",
          "type": "uint8"
        },
        {
          "indexed": false,
          "internalType": "uint256",
          "name": "timestamp",
          "type": "uint256"
        }
      ],
      "name": "PriceFinalized",
      "type": "event"
    },
    {
      "anonymous": false,
      "inputs": [
        {
          "indexed": true,
          "internalType": "address",
          "name": "voter",
          "type": "address"
        },
        {
          "indexed": true,
          "internalType": "uint256",
          "name": "epochId",
          "type": "uint256"
        },
        {
          "indexed": false,
          "internalType": "uint256",
          "name": "price",
          "type": "uint256"
        },
        {
          "indexed": false,
          "internalType": "uint256",
          "name": "random",
          "type": "uint256"
        },
        {
          "indexed": false,
          "internalType": "uint256",
          "name": "timestamp",
          "type": "uint256"
        },
        {
          "indexed": false,
          "internalType": "uint256",
          "name": "votePowerFlr",
          "type": "uint256"
        },
        {
          "indexed": false,
          "internalType": "uint256",
          "name": "votePowerAsset",
          "type": "uint256"
        }
      ],
      "name": "PriceRevealed",
      "type": "event"
    },
    {
      "anonymous": false,
      "inputs": [
        {
          "indexed": true,
          "internalType": "address",
          "name": "submitter",
          "type": "address"
        },
        {
          "indexed": true,
          "internalType": "uint256",
          "name": "epochId",
          "type": "uint256"
        },
        {
          "indexed": false,
          "internalType": "bytes32",
          "name": "hash",
          "type": "bytes32"
        },
        {
          "indexed": false,
          "internalType": "uint256",
          "name": "timestamp",
          "type": "uint256"
        }
      ],
      "name": "PriceSubmitted",
      "type": "event"
    },
    {
      "inputs": [],
      "name": "FASSET_USD_DECIMALS",
      "outputs": [
        {
          "internalType": "uint256",
          "name": "",
          "type": "uint256"
        }
      ],
      "stateMutability": "view",
      "type": "function"
    },
    {
      "inputs": [
        {
          "internalType": "contract IPriceSubmitter",
          "name": "_priceSubmitter",
          "type": "address"
        },
        {
          "internalType": "uint256",
          "name": "_firstEpochStartTime",
          "type": "uint256"
        },
        {
          "internalType": "uint256",
          "name": "_submitPeriod",
          "type": "uint256"
        },
        {
          "internalType": "uint256",
          "name": "_revealPeriod",
          "type": "uint256"
        }
      ],
      "name": "activateFtso",
      "outputs": [],
      "stateMutability": "nonpayable",
      "type": "function"
    },
    {
      "inputs": [],
      "name": "active",
      "outputs": [
        {
          "internalType": "bool",
          "name": "",
          "type": "bool"
        }
      ],
      "stateMutability": "view",
      "type": "function"
    },
    {
      "inputs": [
        {
          "internalType": "uint256",
          "name": "_epochId",
          "type": "uint256"
        }
      ],
      "name": "averageFinalizePriceEpoch",
      "outputs": [],
      "stateMutability": "nonpayable",
      "type": "function"
    },
    {
      "inputs": [
        {
          "internalType": "uint256",
          "name": "_minVotePowerFlrThreshold",
          "type": "uint256"
        },
        {
          "internalType": "uint256",
          "name": "_minVotePowerAssetThreshold",
          "type": "uint256"
        },
        {
          "internalType": "uint256",
          "name": "_maxVotePowerFlrThreshold",
          "type": "uint256"
        },
        {
          "internalType": "uint256",
          "name": "_maxVotePowerAssetThreshold",
          "type": "uint256"
        },
        {
          "internalType": "uint256",
          "name": "_lowAssetUSDThreshold",
          "type": "uint256"
        },
        {
          "internalType": "uint256",
          "name": "_highAssetUSDThreshold",
          "type": "uint256"
        },
        {
          "internalType": "uint256",
          "name": "_highAssetTurnoutBIPSThreshold",
          "type": "uint256"
        },
        {
          "internalType": "uint256",
          "name": "_lowFlrTurnoutBIPSThreshold",
          "type": "uint256"
        },
        {
          "internalType": "address[]",
          "name": "_trustedAddresses",
          "type": "address[]"
        }
      ],
      "name": "configureEpochs",
      "outputs": [],
      "stateMutability": "nonpayable",
      "type": "function"
    },
    {
      "inputs": [],
      "name": "epochsConfiguration",
      "outputs": [
        {
          "internalType": "uint256",
          "name": "minVotePowerFlrThreshold",
          "type": "uint256"
        },
        {
          "internalType": "uint256",
          "name": "minVotePowerAssetThreshold",
          "type": "uint256"
        },
        {
          "internalType": "uint256",
          "name": "maxVotePowerFlrThreshold",
          "type": "uint256"
        },
        {
          "internalType": "uint256",
          "name": "maxVotePowerAssetThreshold",
          "type": "uint256"
        },
        {
          "internalType": "uint256",
          "name": "lowAssetUSDThreshold",
          "type": "uint256"
        },
        {
          "internalType": "uint256",
          "name": "highAssetUSDThreshold",
          "type": "uint256"
        },
        {
          "internalType": "uint256",
          "name": "highAssetTurnoutBIPSThreshold",
          "type": "uint256"
        },
        {
          "internalType": "uint256",
          "name": "lowFlrTurnoutBIPSThreshold",
          "type": "uint256"
        },
        {
          "internalType": "address[]",
          "name": "trustedAddresses",
          "type": "address[]"
        }
      ],
      "stateMutability": "view",
      "type": "function"
    },
    {
      "inputs": [
        {
          "internalType": "uint256",
          "name": "",
          "type": "uint256"
        }
      ],
      "name": "fAssetFtsos",
      "outputs": [
        {
          "internalType": "contract IIFtso",
          "name": "",
          "type": "address"
        }
      ],
      "stateMutability": "view",
      "type": "function"
    },
    {
      "inputs": [
        {
          "internalType": "uint256",
          "name": "",
          "type": "uint256"
        }
      ],
      "name": "fAssets",
      "outputs": [
        {
          "internalType": "contract IFAsset",
          "name": "",
          "type": "address"
        }
      ],
      "stateMutability": "view",
      "type": "function"
    },
    {
      "inputs": [],
      "name": "fFlr",
      "outputs": [
        {
          "internalType": "contract IFAsset",
          "name": "",
          "type": "address"
        }
      ],
      "stateMutability": "view",
      "type": "function"
    },
    {
      "inputs": [
        {
          "internalType": "uint256",
          "name": "_epochId",
          "type": "uint256"
        },
        {
          "internalType": "bool",
          "name": "_returnRewardData",
          "type": "bool"
        }
      ],
      "name": "finalizePriceEpoch",
      "outputs": [
        {
          "internalType": "address[]",
          "name": "_eligibleAddresses",
          "type": "address[]"
        },
        {
          "internalType": "uint256[]",
          "name": "_flrWeights",
          "type": "uint256[]"
        },
        {
          "internalType": "uint256",
          "name": "_flrWeightsSum",
          "type": "uint256"
        }
      ],
      "stateMutability": "nonpayable",
      "type": "function"
    },
    {
      "inputs": [
        {
          "internalType": "uint256",
          "name": "_epochId",
          "type": "uint256"
        }
      ],
      "name": "forceFinalizePriceEpoch",
      "outputs": [],
      "stateMutability": "nonpayable",
      "type": "function"
    },
    {
      "inputs": [],
      "name": "ftsoManager",
      "outputs": [
        {
          "internalType": "contract IFtsoManager",
          "name": "",
          "type": "address"
        }
      ],
      "stateMutability": "view",
      "type": "function"
    },
    {
      "inputs": [],
      "name": "getCurrentEpochId",
      "outputs": [
        {
          "internalType": "uint256",
          "name": "",
          "type": "uint256"
        }
      ],
      "stateMutability": "view",
      "type": "function"
    },
    {
      "inputs": [],
      "name": "getCurrentPrice",
      "outputs": [
        {
          "internalType": "uint256",
          "name": "",
          "type": "uint256"
        }
      ],
      "stateMutability": "view",
      "type": "function"
    },
    {
      "inputs": [],
      "name": "getCurrentRandom",
      "outputs": [
        {
          "internalType": "uint256",
          "name": "",
          "type": "uint256"
        }
      ],
      "stateMutability": "view",
      "type": "function"
    },
    {
      "inputs": [
        {
          "internalType": "uint256",
          "name": "_timestamp",
          "type": "uint256"
        }
      ],
      "name": "getEpochId",
      "outputs": [
        {
          "internalType": "uint256",
          "name": "",
          "type": "uint256"
        }
      ],
      "stateMutability": "view",
      "type": "function"
    },
    {
      "inputs": [
        {
          "internalType": "uint256",
          "name": "_epochId",
          "type": "uint256"
        }
      ],
      "name": "getEpochPrice",
      "outputs": [
        {
          "internalType": "uint256",
          "name": "",
          "type": "uint256"
        }
      ],
      "stateMutability": "view",
      "type": "function"
    },
    {
      "inputs": [
        {
          "internalType": "uint256",
          "name": "_epochId",
          "type": "uint256"
        },
        {
          "internalType": "address",
          "name": "_voter",
          "type": "address"
        }
      ],
      "name": "getEpochPriceForVoter",
      "outputs": [
        {
          "internalType": "uint256",
          "name": "",
          "type": "uint256"
        }
      ],
      "stateMutability": "view",
      "type": "function"
    },
    {
      "inputs": [
        {
          "internalType": "uint256",
          "name": "_epochId",
          "type": "uint256"
        }
      ],
      "name": "getEpochVotes",
      "outputs": [
        {
          "internalType": "address[]",
          "name": "_voters",
          "type": "address[]"
        },
        {
          "internalType": "uint256[]",
          "name": "_prices",
          "type": "uint256[]"
        },
        {
          "internalType": "uint256[]",
          "name": "_weights",
          "type": "uint256[]"
        },
        {
          "internalType": "uint256[]",
          "name": "_weightsFlr",
          "type": "uint256[]"
        },
        {
          "internalType": "uint256[]",
          "name": "_weightsAsset",
          "type": "uint256[]"
        },
        {
          "internalType": "bool[]",
          "name": "_eligibleForReward",
          "type": "bool[]"
        }
      ],
      "stateMutability": "view",
      "type": "function"
    },
    {
      "inputs": [],
      "name": "getFAsset",
      "outputs": [
        {
          "internalType": "contract IFAsset",
          "name": "",
          "type": "address"
        }
      ],
      "stateMutability": "view",
      "type": "function"
    },
    {
      "inputs": [],
      "name": "getFAssetFtsos",
      "outputs": [
        {
          "internalType": "contract IIFtso[]",
          "name": "",
          "type": "address[]"
        }
      ],
      "stateMutability": "view",
      "type": "function"
    },
    {
      "inputs": [
        {
          "internalType": "uint256",
          "name": "_epochId",
          "type": "uint256"
        }
      ],
      "name": "getFullEpochReport",
      "outputs": [
        {
          "internalType": "uint256",
          "name": "_epochSubmitStartTime",
          "type": "uint256"
        },
        {
          "internalType": "uint256",
          "name": "_epochSubmitEndTime",
          "type": "uint256"
        },
        {
          "internalType": "uint256",
          "name": "_epochRevealEndTime",
          "type": "uint256"
        },
        {
          "internalType": "uint256",
          "name": "_epochFinalizedTimestamp",
          "type": "uint256"
        },
        {
          "internalType": "uint256",
          "name": "_price",
          "type": "uint256"
        },
        {
          "internalType": "uint256",
          "name": "_lowRewardPrice",
          "type": "uint256"
        },
        {
          "internalType": "uint256",
          "name": "_highRewardPrice",
          "type": "uint256"
        },
        {
          "internalType": "uint256",
          "name": "_numberOfVotes",
          "type": "uint256"
        },
        {
          "internalType": "uint256",
          "name": "_votePowerBlock",
          "type": "uint256"
        },
        {
          "internalType": "enum IFtso.PriceFinalizationType",
          "name": "_finalizationType",
          "type": "uint8"
        },
        {
          "internalType": "address[]",
          "name": "_trustedAddresses",
          "type": "address[]"
        },
        {
          "internalType": "bool",
          "name": "_rewardedFtso",
          "type": "bool"
        },
        {
          "internalType": "bool",
          "name": "_panicMode",
          "type": "bool"
        }
      ],
      "stateMutability": "view",
      "type": "function"
    },
    {
      "inputs": [],
      "name": "getPriceEpochConfiguration",
      "outputs": [
        {
          "internalType": "uint256",
          "name": "firstEpochStartTime",
          "type": "uint256"
        },
        {
          "internalType": "uint256",
          "name": "submitPeriod",
          "type": "uint256"
        },
        {
          "internalType": "uint256",
          "name": "revealPeriod",
          "type": "uint256"
        }
      ],
      "stateMutability": "view",
      "type": "function"
    },
    {
      "inputs": [],
      "name": "getPriceEpochData",
      "outputs": [
        {
          "internalType": "uint256",
          "name": "_epochId",
          "type": "uint256"
        },
        {
          "internalType": "uint256",
          "name": "_epochSubmitEndTime",
          "type": "uint256"
        },
        {
          "internalType": "uint256",
          "name": "_epochRevealEndTime",
          "type": "uint256"
        },
        {
          "internalType": "uint256",
          "name": "_votePowerBlock",
          "type": "uint256"
        },
        {
          "internalType": "uint256",
          "name": "_minVotePowerFlr",
          "type": "uint256"
        },
        {
          "internalType": "uint256",
          "name": "_minVotePowerAsset",
          "type": "uint256"
        },
        {
          "internalType": "bool",
          "name": "_panicMode",
          "type": "bool"
        }
      ],
      "stateMutability": "view",
      "type": "function"
    },
    {
      "inputs": [
        {
          "internalType": "uint256",
          "name": "_epochId",
          "type": "uint256"
        }
      ],
      "name": "getRandom",
      "outputs": [
        {
          "internalType": "uint256",
          "name": "",
          "type": "uint256"
        }
      ],
      "stateMutability": "view",
      "type": "function"
    },
    {
      "inputs": [
        {
          "internalType": "bool",
          "name": "_panicMode",
          "type": "bool"
        }
      ],
      "name": "initializeCurrentEpochStateForReveal",
      "outputs": [],
      "stateMutability": "nonpayable",
      "type": "function"
    },
    {
      "inputs": [],
      "name": "priceSubmitter",
      "outputs": [
        {
          "internalType": "contract IPriceSubmitter",
          "name": "",
          "type": "address"
        }
      ],
      "stateMutability": "view",
      "type": "function"
    },
    {
      "inputs": [
        {
          "internalType": "uint256",
          "name": "_epochId",
          "type": "uint256"
        },
        {
          "internalType": "uint256",
          "name": "_price",
          "type": "uint256"
        },
        {
          "internalType": "uint256",
          "name": "_random",
          "type": "uint256"
        }
      ],
      "name": "revealPrice",
      "outputs": [],
      "stateMutability": "nonpayable",
      "type": "function"
    },
    {
      "inputs": [
        {
          "internalType": "address",
          "name": "_voter",
          "type": "address"
        },
        {
          "internalType": "uint256",
          "name": "_epochId",
          "type": "uint256"
        },
        {
          "internalType": "uint256",
          "name": "_price",
          "type": "uint256"
        },
        {
          "internalType": "uint256",
          "name": "_random",
          "type": "uint256"
        }
      ],
      "name": "revealPriceSubmitter",
      "outputs": [],
      "stateMutability": "nonpayable",
      "type": "function"
    },
    {
      "inputs": [
        {
          "internalType": "contract IFAsset",
          "name": "_fAsset",
          "type": "address"
        }
      ],
      "name": "setFAsset",
      "outputs": [],
      "stateMutability": "nonpayable",
      "type": "function"
    },
    {
      "inputs": [
        {
          "internalType": "contract IIFtso[]",
          "name": "_fAssetFtsos",
          "type": "address[]"
        }
      ],
      "name": "setFAssetFtsos",
      "outputs": [],
      "stateMutability": "nonpayable",
      "type": "function"
    },
    {
      "inputs": [
        {
          "internalType": "uint256",
          "name": "_votePowerBlock",
          "type": "uint256"
        }
      ],
      "name": "setVotePowerBlock",
      "outputs": [],
      "stateMutability": "nonpayable",
      "type": "function"
    },
    {
      "inputs": [
        {
          "internalType": "bytes32",
          "name": "_hash",
          "type": "bytes32"
        }
      ],
      "name": "submitPrice",
      "outputs": [],
      "stateMutability": "nonpayable",
      "type": "function"
    },
    {
      "inputs": [
        {
          "internalType": "address",
          "name": "_sender",
          "type": "address"
        },
        {
          "internalType": "bytes32",
          "name": "_hash",
          "type": "bytes32"
        }
      ],
      "name": "submitPriceSubmitter",
      "outputs": [
        {
          "internalType": "uint256",
          "name": "_epochId",
          "type": "uint256"
        }
      ],
      "stateMutability": "nonpayable",
      "type": "function"
    },
    {
      "inputs": [],
      "name": "symbol",
      "outputs": [
        {
          "internalType": "string",
          "name": "",
          "type": "string"
        }
      ],
      "stateMutability": "view",
      "type": "function"
    }
  ],
  "bytecode": "0x60c06040523480156200001157600080fd5b5060405162005f2038038062005f20833981810160405260808110156200003757600080fd5b81019080805160405193929190846401000000008211156200005857600080fd5b9083019060208201858111156200006e57600080fd5b82516401000000008111828201881017156200008957600080fd5b82525081516020918201929091019080838360005b83811015620000b85781810151838201526020016200009e565b50505050905090810190601f168015620000e65780820380516001836020036101000a031916815260200191505b50604090815260208281015191830151606090930151865192955092935062000115916001918701906200013b565b506001600160601b0319606093841b81166080529190921b1660a05260025550620001e7565b828054600181600116156101000203166002900490600052602060002090601f016020900481019282620001735760008555620001be565b82601f106200018e57805160ff1916838001178555620001be565b82800160010185558215620001be579182015b82811115620001be578251825591602001919060010190620001a1565b50620001cc929150620001d0565b5090565b5b80821115620001cc5760008155600101620001d1565b60805160601c60a05160601c615cd862000248600039806110fc52806111bf52806114a552806118a45280611ad75280611deb5280612057528061239a52806126b95280612b425250806122d75280612c425280614d695250615cd86000f3fe608060405234801561001057600080fd5b50600436106102415760003560e01c8063974d7a6b11610145578063dbdb0f4b116100bd578063eb91d37e1161008c578063f1c4649111610071578063f1c4649114610b89578063f937d6ad14610be1578063fd00e53914610be957610241565b8063eb91d37e14610aad578063f1571d6514610ab557610241565b8063dbdb0f4b14610975578063e3749e0c146109ba578063e3b3a3b314610a4e578063e536f39614610a9057610241565b8063c1f6c36e11610114578063cd4b6914116100f9578063cd4b691414610948578063d6cc2db714610965578063d89601fd1461096d57610241565b8063c1f6c36e146108ca578063c5d8b9e71461090f57610241565b8063974d7a6b1461084f57806399caad231461086c5780639de6f927146108a5578063a29a839f146108c257610241565b806340462a2d116101d85780635a3c9d8e116101a75780637d1d6f121161018c5780637d1d6f12146107ad5780637fca5455146107ca57806395d89b41146107d257610241565b80635a3c9d8e1461063457806370f391aa1461070a57610241565b806340462a2d1461050f57806345cf1e12146105d45780635303548b146105ee57806353048c751461060b57610241565b8063144e159111610214578063144e15911461047c5780631be63d1a146104a25780632a6a9c7f146104bf5780632ab0cb7d146104dc57610241565b806302b025ca1461024657806302fb0c5e1461041057806308832bb41461042c57806311a7aaaa1461044b575b600080fd5b6102636004803603602081101561025c57600080fd5b5035610c08565b6040518080602001806020018060200180602001806020018060200187810387528d818151815260200191508051906020019060200280838360005b838110156102b757818101518382015260200161029f565b5050505090500187810386528c818151815260200191508051906020019060200280838360005b838110156102f65781810151838201526020016102de565b5050505090500187810385528b818151815260200191508051906020019060200280838360005b8381101561033557818101518382015260200161031d565b5050505090500187810384528a818151815260200191508051906020019060200280838360005b8381101561037457818101518382015260200161035c565b50505050905001878103835289818151815260200191508051906020019060200280838360005b838110156103b357818101518382015260200161039b565b50505050905001878103825288818151815260200191508051906020019060200280838360005b838110156103f25781810151838201526020016103da565b505050509050019c5050505050505050505050505060405180910390f35b610418611042565b604080519115158252519081900360200190f35b6104496004803603602081101561044257600080fd5b503561104b565b005b6104536110fa565b6040805173ffffffffffffffffffffffffffffffffffffffff9092168252519081900360200190f35b61048461111e565b60408051938452602084019290925282820152519081900360600190f35b610453600480360360208110156104b857600080fd5b503561112c565b610453600480360360208110156104d557600080fd5b5035611163565b610449600480360360208110156104f257600080fd5b503573ffffffffffffffffffffffffffffffffffffffff16611173565b6105346004803603604081101561052557600080fd5b5080359060200135151561149e565b604051808060200180602001848152602001838103835286818151815260200191508051906020019060200280838360005b8381101561057e578181015183820152602001610566565b50505050905001838103825285818151815260200191508051906020019060200280838360005b838110156105bd5781810151838201526020016105a5565b505050509050019550505050505060405180910390f35b6105dc61178c565b60408051918252519081900360200190f35b6105dc6004803603602081101561060457600080fd5b5035611791565b6104496004803603606081101561062157600080fd5b50803590602081013590604001356117a6565b610449600480360361012081101561064b57600080fd5b81359160208101359160408201359160608101359160808201359160a08101359160c08201359160e081013591810190610120810161010082013564010000000081111561069857600080fd5b8201836020820111156106aa57600080fd5b803590602001918460208302840111640100000000831117156106cc57600080fd5b919080806020026020016040519081016040528093929190818152602001838360200280828437600092019190915250929550611858945050505050565b6104496004803603602081101561072057600080fd5b81019060208101813564010000000081111561073b57600080fd5b82018360208201111561074d57600080fd5b8035906020019184602083028401116401000000008311171561076f57600080fd5b919080806020026020016040519081016040528093929190818152602001838360200280828437600092019190915250929550611a8b945050505050565b6105dc600480360360208110156107c357600080fd5b5035611c36565b610453611c4b565b6107da611cf4565b6040805160208082528351818301528351919283929083019185019080838360005b838110156108145781810151838201526020016107fc565b50505050905090810190601f1680156108415780820380516001836020036101000a031916815260200191505b509250505060405180910390f35b6104496004803603602081101561086557600080fd5b5035611d9f565b6105dc6004803603604081101561088257600080fd5b5073ffffffffffffffffffffffffffffffffffffffff8135169060200135611ea0565b610449600480360360208110156108bb57600080fd5b503561200b565b6105dc6120f7565b610449600480360360808110156108e057600080fd5b5073ffffffffffffffffffffffffffffffffffffffff8135169060208101359060408101359060600135612102565b6105dc6004803603604081101561092557600080fd5b508035906020013573ffffffffffffffffffffffffffffffffffffffff1661226b565b6105dc6004803603602081101561095e57600080fd5b50356122c0565b6104536122d5565b6105dc6122f9565b6104496004803603608081101561098b57600080fd5b5073ffffffffffffffffffffffffffffffffffffffff813516906020810135906040810135906060013561234e565b6109c2612542565b604051808a815260200189815260200188815260200187815260200186815260200185815260200184815260200183815260200180602001828103825283818151815260200191508051906020019060200280838360005b83811015610a32578181015183820152602001610a1a565b505050509050019a505050505050505050505060405180910390f35b610a5661260b565b604080519788526020880196909652868601949094526060860192909252608085015260a0840152151560c0830152519081900360e00190f35b61044960048036036020811015610aa657600080fd5b503561266d565b6105dc612751565b610ad260048036036020811015610acb57600080fd5b5035612757565b604051808e81526020018d81526020018c81526020018b81526020018a8152602001898152602001888152602001878152602001868152602001856005811115610b1857fe5b81526020018060200184151581526020018315158152602001828103825285818151815260200191508051906020019060200280838360005b83811015610b69578181015183820152602001610b51565b505050509050019e50505050505050505050505050505060405180910390f35b610b916129ef565b60408051602080825283518183015283519192839290830191858101910280838360005b83811015610bcd578181015183820152602001610bb5565b505050509050019250505060405180910390f35b610453612ada565b61044960048036036020811015610bff57600080fd5b50351515612af6565b606080606080606080610c196120f7565b8711156040518060400160405280600d81526020017f556e6b6e6f776e2065706f63680000000000000000000000000000000000000081525090610cf5576040517f08c379a00000000000000000000000000000000000000000000000000000000081526004018080602001828103825283818151815260200191508051906020019080838360005b83811015610cba578181015183820152602001610ca2565b50505050905090810190601f168015610ce75780820380516001836020036101000a031916815260200191505b509250505060405180910390fd5b50600087815260036020526040902060188101548067ffffffffffffffff81118015610d2057600080fd5b50604051908082528060200260200182016040528015610d4a578160200160208202803683370190505b5097508067ffffffffffffffff81118015610d6457600080fd5b50604051908082528060200260200182016040528015610d8e578160200160208202803683370190505b5096508067ffffffffffffffff81118015610da857600080fd5b50604051908082528060200260200182016040528015610dd2578160200160208202803683370190505b5095508067ffffffffffffffff81118015610dec57600080fd5b50604051908082528060200260200182016040528015610e16578160200160208202803683370190505b5094508067ffffffffffffffff81118015610e3057600080fd5b50604051908082528060200260200182016040528015610e5a578160200160208202803683370190505b5093508067ffffffffffffffff81118015610e7457600080fd5b50604051908082528060200260200182016040528015610e9e578160200160208202803683370190505b50600f8301546010840154601185015492955090916000805b858110156110255760008581526015602090815260408083206016909252909120548e5173ffffffffffffffffffffffffffffffffffffffff909116908f9084908110610f0057fe5b73ffffffffffffffffffffffffffffffffffffffff9092166020928302919091019091015280548d516fffffffffffffffffffffffffffffffff909116908e9084908110610f4a57fe5b602090810291909101015280548b5170010000000000000000000000000000000090910467ffffffffffffffff16908c9084908110610f8557fe5b602090810291909101015280548a51780100000000000000000000000000000000000000000000000090910467ffffffffffffffff16908b9084908110610fc857fe5b60200260200101818152505084861415610fe157600192505b82898381518110610fee57fe5b911515602092830291909101909101528584141561100b57600092505b506000948552600460205260409094205493600101610eb7565b50611031868a8a612cbe565b995050505050505091939550919395565b60005460ff1681565b60005460408051808201909152600f81527f4654534f206e6f7420616374697665000000000000000000000000000000000060208201529060ff166110eb576040517f08c379a0000000000000000000000000000000000000000000000000000000008152602060048201818152835160248401528351909283926044909101919085019080838360008315610cba578181015183820152602001610ca2565b506110f63382612dc7565b5050565b7f000000000000000000000000000000000000000000000000000000000000000081565b600654600754600854909192565b601a818154811061113c57600080fd5b60009182526020909120015473ffffffffffffffffffffffffffffffffffffffff16905081565b6019818154811061113c57600080fd5b60408051808201909152600d81527f4163636573732064656e6965640000000000000000000000000000000000000060208201523373ffffffffffffffffffffffffffffffffffffffff7f00000000000000000000000000000000000000000000000000000000000000001614611245576040517f08c379a0000000000000000000000000000000000000000000000000000000008152602060048201818152835160248401528351909283926044909101919085019080838360008315610cba578181015183820152602001610ca2565b508073ffffffffffffffffffffffffffffffffffffffff166395d89b416040518163ffffffff1660e01b815260040160006040518083038186803b15801561128c57600080fd5b505afa1580156112a0573d6000803e3d6000fd5b505050506040513d6000823e601f3d9081017fffffffffffffffffffffffffffffffffffffffffffffffffffffffffffffffe016820160405260208110156112e757600080fd5b810190808051604051939291908464010000000082111561130757600080fd5b90830190602082018581111561131c57600080fd5b825164010000000081118282018810171561133657600080fd5b82525081516020918201929091019080838360005b8381101561136357818101518382015260200161134b565b50505050905090810190601f1680156113905780820380516001836020036101000a031916815260200191505b50604052505081516113a99260019250602001906159c8565b5060408051602081019091523081526113c690601a906001615a54565b50604080516020810190915273ffffffffffffffffffffffffffffffffffffffff821681526113f9906019906001615a54565b508073ffffffffffffffffffffffffffffffffffffffff1663313ce5676040518163ffffffff1660e01b815260040160206040518083038186803b15801561144057600080fd5b505afa158015611454573d6000803e3d6000fd5b505050506040513d602081101561146a57600080fd5b505173ffffffffffffffffffffffffffffffffffffffff909116600090815260056020526040902060ff909116600a0a9055565b60608060007f000000000000000000000000000000000000000000000000000000000000000073ffffffffffffffffffffffffffffffffffffffff163373ffffffffffffffffffffffffffffffffffffffff16146040518060400160405280600d81526020017f4163636573732064656e696564000000000000000000000000000000000000008152509061158e576040517f08c379a0000000000000000000000000000000000000000000000000000000008152602060048201818152835160248401528351909283926044909101919085019080838360008315610cba578181015183820152602001610ca2565b50600061159a86612e4a565b9050600080826003015411156115c357816003015461271083600a015402816115bf57fe5b0490505b601e82015462010000900460ff16806115e0575081600201548111155b1561165257601e82015462010000900460ff1661163f57600282015460408051838152602081019290925242828201525188917fbece8aa526cdc5e528cdaa56c1d03edc19da51e41845aa146f64a7071f74c65a919081900360600190a25b61164b87836000612fbc565b5050611785565b606080606080611661866130ed565b929650909450925090506060611675615ace565b61167f8585613374565b9092509050611691888284888a6136ff565b8b156116e1576116a381838589613900565b8251929d50909b509950156116e157601e880180547fffffffffffffffffffffffffffffffffffffffffffffffffffffffffffff00ff166101001790555b8c7ffe8865c1fe85bbf124b9e0f16cccfeeb6f330454fd79475a31261c8fa250bc3089601301548a601e0160019054906101000a900460ff168b601501548c601601548d60140160009054906101000a900460ff164260405180878152602001861515815260200185815260200184815260200183600581111561176157fe5b8152602001828152602001965050505050505060405180910390a250505050505050505b9250925092565b600581565b600061179e600383613b04565b90505b919050565b60005460408051808201909152600f81527f4654534f206e6f7420616374697665000000000000000000000000000000000060208201529060ff16611846576040517f08c379a0000000000000000000000000000000000000000000000000000000008152602060048201818152835160248401528351909283926044909101919085019080838360008315610cba578181015183820152602001610ca2565b5061185333848484613b35565b505050565b60408051808201909152600d81527f4163636573732064656e6965640000000000000000000000000000000000000060208201523373ffffffffffffffffffffffffffffffffffffffff7f0000000000000000000000000000000000000000000000000000000000000000161461192a576040517f08c379a0000000000000000000000000000000000000000000000000000000008152602060048201818152835160248401528351909283926044909101919085019080838360008315610cba578181015183820152602001610ca2565b50600a899055600b889055600c879055600d869055600e859055600f8490556010839055601182905560125460005b818110156119e1576000600360100160006003600f01848154811061197a57fe5b60009182526020808320919091015473ffffffffffffffffffffffffffffffffffffffff168352820192909252604001902080547fffffffffffffffffffffffffffffffffffffffffffffffffffffffffffffff0016911515919091179055600101611959565b5050805160005b81811015611a6a57600160036010016000858481518110611a0557fe5b60209081029190910181015173ffffffffffffffffffffffffffffffffffffffff16825281019190915260400160002080547fffffffffffffffffffffffffffffffffffffffffffffffffffffffffffffff00169115159190911790556001016119e8565b508151611a7e906012906020850190615a54565b5050505050505050505050565b60408051808201909152600d81527f4163636573732064656e6965640000000000000000000000000000000000000060208201523373ffffffffffffffffffffffffffffffffffffffff7f00000000000000000000000000000000000000000000000000000000000000001614611b5d576040517f08c379a0000000000000000000000000000000000000000000000000000000008152602060048201818152835160248401528351909283926044909101919085019080838360008315610cba578181015183820152602001610ca2565b506000815111611b6957fe5b600181511180611bb957503073ffffffffffffffffffffffffffffffffffffffff1681600081518110611b9857fe5b602002602001015173ffffffffffffffffffffffffffffffffffffffff1614155b611bbf57fe5b8051611bd290601a906020840190615a54565b50805167ffffffffffffffff81118015611beb57600080fd5b50604051908082528060200260200182016040528015611c15578160200160208202803683370190505b508051611c2a91601991602090910190615a54565b50611c33613f31565b50565b60009081526003602052604090206013015490565b6019546000906001148015611c625750601a546001145b8015611cb257503073ffffffffffffffffffffffffffffffffffffffff16601a600081548110611c8e57fe5b60009182526020909120015473ffffffffffffffffffffffffffffffffffffffff16145b611cbd576000611cee565b6019600081548110611ccb57fe5b60009182526020909120015473ffffffffffffffffffffffffffffffffffffffff165b90505b90565b60018054604080516020600284861615610100027fffffffffffffffffffffffffffffffffffffffffffffffffffffffffffffffff0190941693909304601f81018490048402820184019092528181529291830182828015611d975780601f10611d6c57610100808354040283529160200191611d97565b820191906000526020600020905b815481529060010190602001808311611d7a57829003601f168201915b505050505081565b60408051808201909152600d81527f4163636573732064656e6965640000000000000000000000000000000000000060208201523373ffffffffffffffffffffffffffffffffffffffff7f00000000000000000000000000000000000000000000000000000000000000001614611e71576040517f08c379a0000000000000000000000000000000000000000000000000000000008152602060048201818152835160248401528351909283926044909101919085019080838360008315610cba578181015183820152602001610ca2565b506000611e7d82612e4a565b60128054919250611e9391601c84019190615b44565b506110f682826001614199565b6000805460408051808201909152600f81527f4654534f206e6f7420616374697665000000000000000000000000000000000060208201529060ff16611f41576040517f08c379a0000000000000000000000000000000000000000000000000000000008152602060048201818152835160248401528351909283926044909101919085019080838360008315610cba578181015183820152602001610ca2565b5060185460408051808201909152600d81527f4163636573732064656e6965640000000000000000000000000000000000000060208201529073ffffffffffffffffffffffffffffffffffffffff163314611ff7576040517f08c379a0000000000000000000000000000000000000000000000000000000008152602060048201818152835160248401528351909283926044909101919085019080838360008315610cba578181015183820152602001610ca2565b506120028383612dc7565b90505b92915050565b60408051808201909152600d81527f4163636573732064656e6965640000000000000000000000000000000000000060208201523373ffffffffffffffffffffffffffffffffffffffff7f000000000000000000000000000000000000000000000000000000000000000016146120dd576040517f08c379a0000000000000000000000000000000000000000000000000000000008152602060048201818152835160248401528351909283926044909101919085019080838360008315610cba578181015183820152602001610ca2565b5060006120e982612e4a565b90506110f682826001612fbc565b6000611cee42611791565b60005460408051808201909152600f81527f4654534f206e6f7420616374697665000000000000000000000000000000000060208201529060ff166121a2576040517f08c379a0000000000000000000000000000000000000000000000000000000008152602060048201818152835160248401528351909283926044909101919085019080838360008315610cba578181015183820152602001610ca2565b5060185460408051808201909152600d81527f4163636573732064656e6965640000000000000000000000000000000000000060208201529073ffffffffffffffffffffffffffffffffffffffff163314612258576040517f08c379a0000000000000000000000000000000000000000000000000000000008152602060048201818152835160248401528351909283926044909101919085019080838360008315610cba578181015183820152602001610ca2565b5061226584848484613b35565b50505050565b600082815260036020908152604080832073ffffffffffffffffffffffffffffffffffffffff85168452601b01825280832054835260159091529020546fffffffffffffffffffffffffffffffff1692915050565b60009081526003602052604090206017015490565b7f000000000000000000000000000000000000000000000000000000000000000081565b6000806123046120f7565b905080612315576000915050611cf1565b7fffffffffffffffffffffffffffffffffffffffffffffffffffffffffffffffff01600090815260036020526040902060170154905090565b60408051808201909152600d81527f4163636573732064656e6965640000000000000000000000000000000000000060208201523373ffffffffffffffffffffffffffffffffffffffff7f00000000000000000000000000000000000000000000000000000000000000001614612420576040517f08c379a0000000000000000000000000000000000000000000000000000000008152602060048201818152835160248401528351909283926044909101919085019080838360008315610cba578181015183820152602001610ca2565b5060005460408051808201909152601681527f4654534f20616c7265616479206163746976617465640000000000000000000060208201529060ff16156124c2576040517f08c379a0000000000000000000000000000000000000000000000000000000008152602060048201818152835160248401528351909283926044909101919085019080838360008315610cba578181015183820152602001610ca2565b50601880547fffffffffffffffffffffffff00000000000000000000000000000000000000001673ffffffffffffffffffffffffffffffffffffffff9590951694909417909355600691909155600755600855600080547fffffffffffffffffffffffffffffffffffffffffffffffffffffffffffffff00166001179055565b60008060008060008060008060606003600701546003600801546003600901546003600a01546003600b01546003600c01546003600d01546003600e01546003600f01808054806020026020016040519081016040528092919081815260200182805480156125e757602002820191906000526020600020905b815473ffffffffffffffffffffffffffffffffffffffff1681526001909101906020018083116125bc575b50505050509050985098509850985098509850985098509850909192939495969798565b600080600080600080600061261e6120f7565b965061262b6003886142c0565b6008546000898152600360205260409020805460068201546007830154601e909301549b9c949b938c019a509098509650945062010000900460ff1692509050565b60408051808201909152600d81527f4163636573732064656e6965640000000000000000000000000000000000000060208201523373ffffffffffffffffffffffffffffffffffffffff7f0000000000000000000000000000000000000000000000000000000000000000161461273f576040517f08c379a0000000000000000000000000000000000000000000000000000000008152602060048201818152835160248401528351909283926044909101919085019080838360008315610cba578181015183820152602001610ca2565b5043811061274c57600080fd5b600955565b60025490565b60008060008060008060008060008060606000806127736120f7565b8e11156040518060400160405280600d81526020017f556e6b6e6f776e2065706f63680000000000000000000000000000000000000081525090612812576040517f08c379a0000000000000000000000000000000000000000000000000000000008152602060048201818152835160248401528351909283926044909101919085019080838360008315610cba578181015183820152602001610ca2565b5061281e60038f6142d8565b9c5061282b60038f6142c0565b9b5061283860038f6142e9565b9a50600360000160008f8152602001908152602001600020601d01549950600360000160008f8152602001908152602001600020601301549850600360000160008f8152602001908152602001600020601501549750600360000160008f8152602001908152602001600020601601549650600360000160008f8152602001908152602001600020601801549550600360000160008f8152602001908152602001600020600001549450600360000160008f815260200190815260200160002060140160009054906101000a900460ff169350600360000160008f8152602001908152602001600020601c0180548060200260200160405190810160405280929190818152602001828054801561298557602002820191906000526020600020905b815473ffffffffffffffffffffffffffffffffffffffff16815260019091019060200180831161295a575b50505050509250600360000160008f8152602001908152602001600020601e0160019054906101000a900460ff169150600360000160008f8152602001908152602001600020601e0160029054906101000a900460ff16905091939597999b9d90929496989a9c50565b6019546060906001148015612a065750601a546001145b8015612a5657503073ffffffffffffffffffffffffffffffffffffffff16601a600081548110612a3257fe5b60009182526020909120015473ffffffffffffffffffffffffffffffffffffffff16145b612ac757601a805480602002602001604051908101604052809291908181526020018280548015612abd57602002820191906000526020600020905b815473ffffffffffffffffffffffffffffffffffffffff168152600190910190602001808311612a92575b5050505050611cee565b5060408051600081526020810190915290565b60185473ffffffffffffffffffffffffffffffffffffffff1681565b60408051808201909152600d81527f4163636573732064656e6965640000000000000000000000000000000000000060208201523373ffffffffffffffffffffffffffffffffffffffff7f00000000000000000000000000000000000000000000000000000000000000001614612bc8576040517f08c379a0000000000000000000000000000000000000000000000000000000008152602060048201818152835160248401528351909283926044909101919085019080838360008315610cba578181015183820152602001610ca2565b506000612bd36120f7565b60008181526003602052604090209091508215612c1e57601e0180547fffffffffffffffffffffffffffffffffffffffffffffffffffffffffff00ffff166201000017905550611c33565b6060806060612c2b614302565b6009549295509093509150612c73908590612c67907f000000000000000000000000000000000000000000000000000000000000000090614518565b600391908686866145c1565b847fc0eaa359541c7c642d9947c9496507c134f3e4f8e1fd433313eb27dc48cb1fb7612ca06003836142c0565b604080519182524260208301528051918290030190a2505050505050565b6060836018015467ffffffffffffffff81118015612cdb57600080fd5b50604051908082528060200260200182016040528015612d05578160200160208202803683370190505b50600c850154600d86015491925090600080612d2088614680565b90508315612d3057806127100391505b60005b8860180154811015612dbb5760008315612d7d57612d7a898381518110612d5657fe5b602002602001015164e8d4a51000026127108802866146f99092919063ffffffff16565b90505b60008315612d9757612d94898481518110612d5657fe5b90505b808201888481518110612da657fe5b60209081029190910101525050600101612d33565b50505050509392505050565b6000612dd16120f7565b600081815260176020908152604080832073ffffffffffffffffffffffffffffffffffffffff88168085529083529281902086905580518681524292810192909252805193945084937fd0959510f21a91827f628d3673aa95780bfde2284f37570cf77dc3536e684c5e9281900390910190a392915050565b6000612e576003836142e9565b42116040518060400160405280602081526020017f45706f6368206e6f7420726561647920666f722066696e616c697a6174696f6e81525090612ef5576040517f08c379a0000000000000000000000000000000000000000000000000000000008152602060048201818152835160248401528351909283926044909101919085019080838360008315610cba578181015183820152602001610ca2565b5050600081815260036020526040812090601482015460ff166005811115612f1957fe5b146040518060400160405280601781526020017f45706f636820616c72656164792066696e616c697a656400000000000000000081525090612fb6576040517f08c379a0000000000000000000000000000000000000000000000000000000008152602060048201818152835160248401528351909283926044909101919085019080838360008315610cba578181015183820152602001610ca2565b50919050565b601280546000918291612fd391601c870191615b44565b50612fdd846147aa565b909250905080156130db57808281612ff157fe5b04601385015542601d8501558261300957600261300c565b60045b6014850180547fffffffffffffffffffffffffffffffffffffffffffffffffffffffffffffff0016600183600581111561304257fe5b02179055508360130154600281905550847ffe8865c1fe85bbf124b9e0f16cccfeeb6f330454fd79475a31261c8fa250bc30856013015460008060008960140160009054906101000a900460ff16426040518087815260200186151581526020018581526020018481526020018360058111156130bb57fe5b8152602001828152602001965050505050505060405180910390a26130e6565b6130e6858585614199565b5050505050565b6060806060806000856018015490508067ffffffffffffffff8111801561311357600080fd5b5060405190808252806020026020018201604052801561313d578160200160208202803683370190505b5094508067ffffffffffffffff8111801561315757600080fd5b50604051908082528060200260200182016040528015613181578160200160208202803683370190505b5093508067ffffffffffffffff8111801561319b57600080fd5b506040519080825280602002602001820160405280156131c5578160200160208202803683370190505b50915060008167ffffffffffffffff811180156131e157600080fd5b5060405190808252806020026020018201604052801561320b578160200160208202803683370190505b509050600080600089600f0154905060005b8581101561334c5760008281526015602052604090208a5183908c908490811061324357fe5b602090810291909101015280548a516fffffffffffffffffffffffffffffffff909116908b908490811061327357fe5b60209081029190910101528054885170010000000000000000000000000000000090910467ffffffffffffffff16908990849081106132ae57fe5b602090810291909101015280548651780100000000000000000000000000000000000000000000000090910467ffffffffffffffff16908790849081106132f157fe5b60200260200101818152505087828151811061330957fe5b60200260200101518501945085828151811061332157fe5b602090810291909101810151600094855260049091526040909320549390920192915060010161321d565b50600c8a01839055600d8a018290556133668a8786612cbe565b965050505050509193509193565b606061337e615ace565b83518067ffffffffffffffff8111801561339757600080fd5b506040519080825280602002602001820160405280156133c1578160200160208202803683370190505b50925060005b818110156133ef57808482815181106133dc57fe5b60209081029190910101526001016133c7565b506134066002600060018403600080888b8b61484b565b60c085015260a0840152808352835185918591811061342157fe5b60200260200101518151811061343357fe5b6020908102919091010151610120830181905260c083015160a0840151909101016101a0830152815161347d57815160c083015160808401526000606084015260208301526134ec565b6004826101a001518161348c57fe5b048260a00151116134b757815160a083015160c08401516080850152606084015260208301526134ec565b6134dc60016000600185600001510360008661012001518760c0015101888b8b61484b565b6080850152606084015260208301525b81517fffffffffffffffffffffffffffffffffffffffffffffffffffffffffffffffff8201141561353557815160a0830151600061010085015260e084015260408301526135a8565b6004826101a001518161354457fe5b048260c001511161357057815160a083015160c084015161010085015260e084015260408301526135a8565b61359760038360000151600101600184038561012001518660a00151016000888b8b61484b565b61010085015260e084015260408301525b84838360000151815181106135b957fe5b6020026020010151815181106135cb57fe5b6020026020010151826101c00181815250506002826101a00151816135ec57fe5b048261012001518360a001510114801561361357506002826101a001518161361057fe5b06155b1561364357600261362d8360000151600184038689614b80565b836101c00151018161363b57fe5b046101c08301525b61367b826020015160007fffffffffffffffffffffffffffffffffffffffffffffffffffffffffffffffff8560600151878a8a614c42565b610140840152602083015260408201516101008301516136c591907fffffffffffffffffffffffffffffffffffffffffffffffffffffffffffffffff840190600190878a8a614c42565b6101808401819052604084019190915261014083015161012084015160c085015160a0860151010103036101608301525090939092509050565b60005b6001845103811015613781578184826001018151811061371e57fe5b60200260200101518151811061373057fe5b6020026020010151600360010160008487858151811061374c57fe5b60200260200101518151811061375e57fe5b602090810291909101810151825281019190915260400160002055600101613702565b50808360008151811061379057fe5b6020026020010151815181106137a257fe5b602002602001015185600f018190555080836001855103815181106137c357fe5b6020026020010151815181106137d557fe5b6020026020010151856012018190555080838560200151815181106137f657fe5b60200260200101518151811061380857fe5b60200260200101518560100181905550808385604001518151811061382957fe5b60200260200101518151811061383b57fe5b60200260200101518560110181905550818385602001518151811061385c57fe5b60200260200101518151811061386e57fe5b60200260200101518560150181905550836101c001518560130181905550818385604001518151811061389d57fe5b6020026020010151815181106138af57fe5b60209081029190910101516016860155505042601d84015550601490910180547fffffffffffffffffffffffffffffffffffffffffffffffffffffffffffffff001660011790556101c00151600255565b6020840151606090819060009081905b886040015181116139595760008789838151811061392a57fe5b60200260200101518151811061393c57fe5b60200260200101511115613951576001909101905b600101613910565b508067ffffffffffffffff8111801561397157600080fd5b5060405190808252806020026020018201604052801561399b578160200160208202803683370190505b5093508067ffffffffffffffff811180156139b557600080fd5b506040519080825280602002602001820160405280156139df578160200160208202803683370190505b5060208901519093506000905b89604001518111613af7576000888a8381518110613a0657fe5b602002602001015181518110613a1857fe5b602002602001015190506000811115613aee576000888b8481518110613a3a57fe5b602002602001015181518110613a4c57fe5b60209081029190910181015160008181526016909252604090912054895191925073ffffffffffffffffffffffffffffffffffffffff1690899086908110613a9057fe5b602002602001019073ffffffffffffffffffffffffffffffffffffffff16908173ffffffffffffffffffffffffffffffffffffffff168152505081878581518110613ad757fe5b602090810291909101015250938401936001909201915b506001016139ec565b5050509450945094915050565b60008260030154821015613b1a57506000612005565b82600401548360030154830381613b2d57fe5b049050612005565b60408051808201909152600e81527f507269636520746f6f206869676800000000000000000000000000000000000060208201527001000000000000000000000000000000008310613be2576040517f08c379a0000000000000000000000000000000000000000000000000000000008152602060048201818152835160248401528351909283926044909101919085019080838360008315610cba578181015183820152602001610ca2565b50613bee600384614d16565b6040518060400160405280601881526020017f52657665616c20706572696f64206e6f7420616374697665000000000000000081525090613c8a576040517f08c379a0000000000000000000000000000000000000000000000000000000008152602060048201818152835160248401528351909283926044909101919085019080838360008315610cba578181015183820152602001610ca2565b506040805160208082018590528183018490528251808303840181526060830180855281519183019190912060008881526017845285812073ffffffffffffffffffffffffffffffffffffffff8b168252909352918490205460c08401909452602380825293909114929091615c39906080013990613d64576040517f08c379a0000000000000000000000000000000000000000000000000000000008152602060048201818152835160248401528351909283926044909101919085019080838360008315610cba578181015183820152602001610ca2565b506000838152600360205260409020601e81015460ff1680613dc05750601e81015462010000900460ff168015613dc0575073ffffffffffffffffffffffffffffffffffffffff851660009081526013602052604090205460ff165b6040518060400160405280602081526020017f45706f6368206e6f7420696e697469616c697a656420666f722072657665616c81525090613e5c576040517f08c379a0000000000000000000000000000000000000000000000000000000008152602060048201818152835160248401528351909283926044909101919085019080838360008315610cba578181015183820152602001610ca2565b50600080613e6a8388614d41565b915091506000613e948383866004015487600501548a6014614f3c9095949392919063ffffffff16565b9050613ea56003858386868a61507b565b600087815260176020908152604080832073ffffffffffffffffffffffffffffffffffffffff8c1680855290835281842093909355805189815291820188905242828201526060820186905260808201859052518992917f408bc8c9d02102257c33373c2df5771b03067bd8ea7ec60c35f314ec4ee99d05919081900360a00190a35050505050505050565b601a546001148015613f8757503073ffffffffffffffffffffffffffffffffffffffff16601a600081548110613f6357fe5b60009182526020909120015473ffffffffffffffffffffffffffffffffffffffff16145b15613f9157614197565b60005b601a54811015611c33576000601a8281548110613fad57fe5b60009182526020918290200154604080517f7fca5455000000000000000000000000000000000000000000000000000000008152905173ffffffffffffffffffffffffffffffffffffffff90921692637fca545592600480840193829003018186803b15801561401c57600080fd5b505afa158015614030573d6000803e3d6000fd5b505050506040513d602081101561404657600080fd5b505160198054919250908390811061405a57fe5b60009182526020909120015473ffffffffffffffffffffffffffffffffffffffff8281169116141561408c575061418f565b806019838154811061409a57fe5b600091825260209091200180547fffffffffffffffffffffffff00000000000000000000000000000000000000001673ffffffffffffffffffffffffffffffffffffffff92831617905581161561418d578073ffffffffffffffffffffffffffffffffffffffff1663313ce5676040518163ffffffff1660e01b815260040160206040518083038186803b15801561413157600080fd5b505afa158015614145573d6000803e3d6000fd5b505050506040513d602081101561415b57600080fd5b505173ffffffffffffffffffffffffffffffffffffffff8216600090815260056020526040902060ff909116600a0a90555b505b600101613f94565b565b82156141df577fffffffffffffffffffffffffffffffffffffffffffffffffffffffffffffffff83016000908152600360205260409020601390810154908301556141e7565b600060138301555b42601d830155806141f95760036141fc565b60055b6014830180547fffffffffffffffffffffffffffffffffffffffffffffffffffffffffffffff0016600183600581111561423257fe5b0217905550827ffe8865c1fe85bbf124b9e0f16cccfeeb6f330454fd79475a31261c8fa250bc30836013015460008060008760140160009054906101000a900460ff16426040518087815260200186151581526020018581526020018481526020018360058111156142a057fe5b8152602001828152602001965050505050505060405180910390a2505050565b60048201546003830154600183019091020192915050565b600482015460039092015491020190565b600082600501546142fa84846142c0565b019392505050565b606080606061430f613f31565b601980548060200260200160405190810160405280929190818152602001828054801561437257602002820191906000526020600020905b815473ffffffffffffffffffffffffffffffffffffffff168152600190910190602001808311614347575b50505050509250825167ffffffffffffffff8111801561439157600080fd5b506040519080825280602002602001820160405280156143bb578160200160208202803683370190505b509150825167ffffffffffffffff811180156143d657600080fd5b50604051908082528060200260200182016040528015614400578160200160208202803683370190505b50905060005b83518110156145125761443184828151811061441e57fe5b6020026020010151600360060154614518565b83828151811061443d57fe5b602002602001018181525050601a818154811061445657fe5b60009182526020918290200154604080517feb91d37e000000000000000000000000000000000000000000000000000000008152905173ffffffffffffffffffffffffffffffffffffffff9092169263eb91d37e92600480840193829003018186803b1580156144c557600080fd5b505afa1580156144d9573d6000803e3d6000fd5b505050506040513d60208110156144ef57600080fd5b505182518390839081106144ff57fe5b6020908102919091010152600101614406565b50909192565b600073ffffffffffffffffffffffffffffffffffffffff831661453d57506000612005565b8273ffffffffffffffffffffffffffffffffffffffff166352ff9c69836040518263ffffffff1660e01b81526004018082815260200191505060206040518083038186803b15801561458e57600080fd5b505afa1580156145a2573d6000803e3d6000fd5b505050506040513d60208110156145b857600080fd5b50519050612005565b6145ce8686858585615115565b60068601548555600d8601546001860155600e860154600286015560038501849055600485018490556007860154848161460457fe5b046006860155600886015460058601548161461b57fe5b0460078601556009860154848161462e57fe5b046008860155600a86015460058601548161464557fe5b046009860155505050601e90910180547fffffffffffffffffffffffffffffffffffffffffffffffffffffffffffffff001660011790555050565b600081600d015460001415614697575060006117a1565b600c8201546146a957506127106117a1565b600d8201546000906146c39061271064e8d4a510006146f9565b9050826001015481106146dc575050600e8101546117a1565b6001830154600e8401546146f19183906146f9565b9150506117a1565b600070010000000000000000000000000000000082111561471957600080fd5b60006147258584615341565b9050600061473386856153c2565b905060006147418686615341565b9050600061474f87876153c2565b905061479c614768876147628685615443565b90615341565b6147966147758686615443565b6147966147828987615443565b6147968c6147908c8b615443565b90615443565b906154b6565b9450505050505b9392505050565b601c8101546000908190815b8181101561484457600085601c0182815481106147cf57fe5b600091825260208083209091015473ffffffffffffffffffffffffffffffffffffffff16808352601b8901909152604090912054909150801561483a576000818152601560205260409020546fffffffffffffffffffffffffffffffff169590950194600194909401935b50506001016147b6565b5050915091565b6000806000888a1415614865575088915086905085614b72565b61486d615b84565b8881526020810188905261487f615bc1565b60208082018d905260408083018d90528051448184015242818301528151808203830181526060909101909152805191012060005b602083015160408401516148e691908160018183030186816148d257fe5b0601876000015188602001518f8f8f61552a565b606087015260408601528084528a518b9190811061490057fe5b60200260200101518360600181815250508783606001518151811061492157fe5b6020026020010151846080018181525050836060015184604001518560800151010190508e60021415614a1a5760028106600282040160a0850181905280820360c086015260408501511080159061497c57508b8460a00151115b156149bf5782517fffffffffffffffffffffffffffffffffffffffffffffffffffffffffffffffff01604084015260608401516080850151016020850152614a15565b8360c0015184606001511180156149d957508a8460c00151115b156149fa578251600101602084015260408401516080850151018452614a15565b50505160408201516060909201519094509092509050614b72565b614b6d565b8e60011415614ac9576004810460a0850181905280820360c08601526040850151118015614a4b57508b8460a00151115b15614a8e5782517fffffffffffffffffffffffffffffffffffffffffffffffffffffffffffffffff01604084015260608401516080850151016020850152614a15565b8360c001518460600151101580156149d957508a8460c0015111156149fa578251600101602084015260408401516080850151018452614a15565b6004810460c08501819052810360a08501819052604085015110801590614af357508b8460a00151115b15614b365782517fffffffffffffffffffffffffffffffffffffffffffffffffffffffffffffffff01604084015260608401516080850151016020850152614b6d565b8360c001518460600151118015614b5057508a8460c00151115b156149fa5782516001016020840152604084015160808501510184525b6148b4565b985098509895505050505050565b600083851415614bb85781838681518110614b9757fe5b602002602001015181518110614ba957fe5b60200260200101519050614c3a565b600082848760010181518110614bca57fe5b602002602001015181518110614bdc57fe5b602002602001015190506000808760020190505b868111614c345784868281518110614c0457fe5b602002602001015181518110614c1657fe5b6020026020010151915082821015614c2c578192505b600101614bf0565b50909150505b949350505050565b60008085888a0388028213614c5d5789879250925050614d0a565b600085878c81518110614c6c57fe5b602002602001015181518110614c7e57fe5b602090810291909101015190508a89016000815b60008c8e83030213614cfe57898181518110614caa57fe5b6020026020010151915083898381518110614cc157fe5b60200260200101511415614cf757878281518110614cdb57fe5b602002602001015185039450614cf283828c6156f4565b918b01915b8b01614c92565b50508990039350909150505b97509795505050505050565b600080614d2384846142c0565b90504281108015614c3a575083600501548101421115949350505050565b601e820154600090819062010000900460ff1615614d6457506000905080614f35565b614d937f0000000000000000000000000000000000000000000000000000000000000000856000015485615764565b601985015490925060009067ffffffffffffffff81118015614db457600080fd5b50604051908082528060200260200182016040528015614dde578160200160208202803683370190505b50905060005b6019860154811015614e4e57614e2f866019018281548110614e0257fe5b600091825260209091200154875473ffffffffffffffffffffffffffffffffffffffff9091169087615764565b828281518110614e3b57fe5b6020908102919091010152600101614de4565b50614e5b6003868361582b565b9150600083118015614e71575084600601548310155b80614e8b5750600082118015614e8b575084600701548210155b604051806060016040528060268152602001615c7d6026913990614f0a576040517f08c379a0000000000000000000000000000000000000000000000000000000008152602060048201818152835160248401528351909283926044909101919085019080838360008315610cba578181015183820152602001610ca2565b508460080154831115614f1f57846008015492505b8460090154821115614f3357846009015491505b505b9250929050565b85546001908101808855600081815291880160205260408220614f5f8887615942565b815467ffffffffffffffff91909116700100000000000000000000000000000000027fffffffffffffffff0000000000000000ffffffffffffffffffffffffffffffff909116178155614fb28786615942565b81546fffffffffffffffffffffffffffffffff86167fffffffffffffffffffffffffffffffff0000000000000000000000000000000067ffffffffffffffff9390931678010000000000000000000000000000000000000000000000000277ffffffffffffffffffffffffffffffffffffffffffffffff90921691909117919091161790556000818152600289016020526040902080547fffffffffffffffffffffffff0000000000000000000000000000000000000000163317905590509695505050505050565b601885015461509e57600f850184905560128501849055600160188601556150c9565b6012850180546000908152600180890160205260409091208690559085905560188601805490910190555b600a8501546150d890846154b6565b600a860155600b8501546150ec90836154b6565b600b86015560178501805490910190555050336000908152601b90920160205260409091205550565b825161512a9060198601906020860190615a54565b5082516000808267ffffffffffffffff8111801561514757600080fd5b50604051908082528060200260200182016040528015615171578160200160208202803683370190505b50905060005b8381101561528d57600073ffffffffffffffffffffffffffffffffffffffff168782815181106151a357fe5b602002602001015173ffffffffffffffffffffffffffffffffffffffff1614156151cc57615285565b600061525d8683815181106151dd57fe5b60200260200101518b60020160008b86815181106151f757fe5b602002602001015173ffffffffffffffffffffffffffffffffffffffff1673ffffffffffffffffffffffffffffffffffffffff1681526020019081526020016000205489858151811061524657fe5b60200260200101516146f99092919063ffffffff16565b90508083838151811061526c57fe5b602090810291909101015261528184826154b6565b9350505b600101615177565b5081156152f85760005b838110156152f6576152d76152ca6127108784815181106152b457fe5b602002602001015161544390919063ffffffff16565b8484848151811061524657fe5b8282815181106152e357fe5b6020908102919091010152600101615297565b505b805161530d90601a8901906020840190615be9565b50600061531b89898861582b565b60058901819055905061532e8982615973565b88600e0181905550505050505050505050565b60008082116153b157604080517f08c379a000000000000000000000000000000000000000000000000000000000815260206004820152601a60248201527f536166654d6174683a206469766973696f6e206279207a65726f000000000000604482015290519081900360640190fd5b8183816153ba57fe5b049392505050565b600080821161543257604080517f08c379a000000000000000000000000000000000000000000000000000000000815260206004820152601860248201527f536166654d6174683a206d6f64756c6f206279207a65726f0000000000000000604482015290519081900360640190fd5b81838161543b57fe5b069392505050565b60008261545257506000612005565b8282028284828161545f57fe5b0414612002576040517f08c379a0000000000000000000000000000000000000000000000000000000008152600401808060200182810382526021815260200180615c5c6021913960400191505060405180910390fd5b60008282018381101561200257604080517f08c379a000000000000000000000000000000000000000000000000000000000815260206004820152601b60248201527f536166654d6174683a206164646974696f6e206f766572666c6f770000000000604482015290519081900360640190fd5b60008060008085878b8151811061553d57fe5b60200260200101518151811061554f57fe5b602002602001015190506000600267ffffffffffffffff8111801561557357600080fd5b5060405190808252806020026020018201604052801561559d578160200160208202803683370190505b50905089816000815181106155ae57fe5b60200260200101818152505088816001815181106155c857fe5b60209081029190910101528c8c6155e08d828c6156f4565b81805b828110156156a45760008c82815181106155f957fe5b60200260200101519050868c828151811061561057fe5b60200260200101511015615667578a818151811061562a57fe5b60200260200101518660008151811061563f57fe5b60200260200101818151019150818152505061565c83838f6156f4565b60019092019161569b565b8a818151811061567357fe5b60200260200101518660018151811061568857fe5b6020026020010181815101915081815250505b506001016155e3565b506156b082828d6156f4565b80846000815181106156be57fe5b6020026020010151856001815181106156d357fe5b60200260200101519750975097505050505050985098509895505050505050565b8183141561570157611853565b600081848151811061570f57fe5b6020026020010151905081838151811061572557fe5b602002602001015182858151811061573957fe5b6020026020010181815250508082848151811061575257fe5b60200260200101818152505050505050565b600073ffffffffffffffffffffffffffffffffffffffff8416615789575060006147a3565b8373ffffffffffffffffffffffffffffffffffffffff166392bfe6d883856040518363ffffffff1660e01b8152600401808373ffffffffffffffffffffffffffffffffffffffff1681526020018281526020019250505060206040518083038186803b1580156157f857600080fd5b505afa15801561580c573d6000803e3d6000fd5b505050506040513d602081101561582257600080fd5b505190506147a3565b600080805b601985015481101561593957600073ffffffffffffffffffffffffffffffffffffffff1685601901828154811061586357fe5b60009182526020909120015473ffffffffffffffffffffffffffffffffffffffff16141561589057615931565b61592e61271061591e8684815181106158a557fe5b60200260200101518960020160008a60190187815481106158c257fe5b600091825260208083209091015473ffffffffffffffffffffffffffffffffffffffff168352820192909252604001902054601a8a0180548790811061590457fe5b90600052602060002001546146f99092919063ffffffff16565b8161592557fe5b849190046154b6565b91505b600101615830565b50949350505050565b600081158061594f575082155b1561595c57506000612005565b61596c8364e8d4a51000846146f9565b9050612005565b60008083600b015483101561598a57506000612002565b83600c0154831061599e5750611388612002565b600b840154600c8501546101f4919081900390850361119402816159be57fe5b0401949350505050565b828054600181600116156101000203166002900490600052602060002090601f0160209004810192826159fe5760008555615a44565b82601f10615a1757805160ff1916838001178555615a44565b82800160010185558215615a44579182015b82811115615a44578251825591602001919060010190615a29565b50615a50929150615c23565b5090565b828054828255906000526020600020908101928215615a44579160200282015b82811115615a4457825182547fffffffffffffffffffffffff00000000000000000000000000000000000000001673ffffffffffffffffffffffffffffffffffffffff909116178255602090920191600190910190615a74565b604051806101e001604052806000815260200160008152602001600081526020016000815260200160008152602001600081526020016000815260200160008152602001600081526020016000815260200160008152602001600081526020016000815260200160008152602001600081525090565b828054828255906000526020600020908101928215615a445760005260206000209182015b82811115615a44578254825591600101919060010190615b69565b6040518060e00160405280600081526020016000815260200160008152602001600081526020016000815260200160008152602001600081525090565b6040518060800160405280600081526020016000815260200160008152602001600081525090565b828054828255906000526020600020908101928215615a445791602002820182811115615a44578251825591602001919060010190615a29565b5b80821115615a505760008155600101615c2456fe507269636520616c72656164792072657665616c6564206f72206e6f742076616c6964536166654d6174683a206d756c7469706c69636174696f6e206f766572666c6f77496e73756666696369656e7420766f746520706f77657220746f207375626d697420766f7465a264697066735822122041594ce1df8b7ed847acdd7937824a2caa5a3f8bcb450efa7d6a5f78c0c1cabc64736f6c63430007060033",
  "linkReferences": {},
  "deployedLinkReferences": {}
}