{
  "_format": "hh-sol-artifact-1",
  "contractName": "Ftso",
  "sourceName": "contracts/ftso/implementation/Ftso.sol",
  "abi": [
    {
      "inputs": [
        {
          "internalType": "string",
          "name": "_symbol",
          "type": "string"
        },
        {
          "internalType": "contract IIVPToken",
          "name": "_wFlr",
          "type": "address"
        },
        {
          "internalType": "contract IIFtsoManager",
          "name": "_ftsoManager",
          "type": "address"
        },
        {
          "internalType": "uint256",
          "name": "_initialPriceUSD",
          "type": "uint256"
        }
      ],
      "stateMutability": "nonpayable",
      "type": "constructor"
    },
    {
      "anonymous": false,
      "inputs": [
        {
          "indexed": true,
          "internalType": "uint256",
          "name": "epochId",
          "type": "uint256"
        },
        {
          "indexed": false,
          "internalType": "uint256",
          "name": "flrTurnout",
          "type": "uint256"
        },
        {
          "indexed": false,
          "internalType": "uint256",
          "name": "lowFlrTurnoutBIPSThreshold",
          "type": "uint256"
        },
        {
          "indexed": false,
          "internalType": "uint256",
          "name": "timestamp",
          "type": "uint256"
        }
      ],
      "name": "LowTurnout",
      "type": "event"
    },
    {
      "anonymous": false,
      "inputs": [
        {
          "indexed": true,
          "internalType": "uint256",
          "name": "epochId",
          "type": "uint256"
        },
        {
          "indexed": false,
          "internalType": "uint256",
          "name": "endTime",
          "type": "uint256"
        },
        {
          "indexed": false,
          "internalType": "uint256",
          "name": "timestamp",
          "type": "uint256"
        }
      ],
      "name": "PriceEpochInitializedOnFtso",
      "type": "event"
    },
    {
      "anonymous": false,
      "inputs": [
        {
          "indexed": true,
          "internalType": "uint256",
          "name": "epochId",
          "type": "uint256"
        },
        {
          "indexed": false,
          "internalType": "uint256",
          "name": "price",
          "type": "uint256"
        },
        {
          "indexed": false,
          "internalType": "bool",
          "name": "rewardedFtso",
          "type": "bool"
        },
        {
          "indexed": false,
          "internalType": "uint256",
          "name": "lowRewardPrice",
          "type": "uint256"
        },
        {
          "indexed": false,
          "internalType": "uint256",
          "name": "highRewardPrice",
          "type": "uint256"
        },
        {
          "indexed": false,
          "internalType": "enum IFtso.PriceFinalizationType",
          "name": "finalizationType",
          "type": "uint8"
        },
        {
          "indexed": false,
          "internalType": "uint256",
          "name": "timestamp",
          "type": "uint256"
        }
      ],
      "name": "PriceFinalized",
      "type": "event"
    },
    {
      "anonymous": false,
      "inputs": [
        {
          "indexed": true,
          "internalType": "address",
          "name": "submitter",
          "type": "address"
        },
        {
          "indexed": true,
          "internalType": "uint256",
          "name": "epochId",
          "type": "uint256"
        },
        {
          "indexed": false,
          "internalType": "bytes32",
          "name": "hash",
          "type": "bytes32"
        },
        {
          "indexed": false,
          "internalType": "uint256",
          "name": "timestamp",
          "type": "uint256"
        }
      ],
      "name": "PriceHashSubmitted",
      "type": "event"
    },
    {
      "anonymous": false,
      "inputs": [
        {
          "indexed": true,
          "internalType": "address",
          "name": "voter",
          "type": "address"
        },
        {
          "indexed": true,
          "internalType": "uint256",
          "name": "epochId",
          "type": "uint256"
        },
        {
          "indexed": false,
          "internalType": "uint256",
          "name": "price",
          "type": "uint256"
        },
        {
          "indexed": false,
          "internalType": "uint256",
          "name": "random",
          "type": "uint256"
        },
        {
          "indexed": false,
          "internalType": "uint256",
          "name": "timestamp",
          "type": "uint256"
        },
        {
          "indexed": false,
          "internalType": "uint256",
          "name": "votePowerFlr",
          "type": "uint256"
        },
        {
          "indexed": false,
          "internalType": "uint256",
          "name": "votePowerAsset",
          "type": "uint256"
        }
      ],
      "name": "PriceRevealed",
      "type": "event"
    },
    {
      "inputs": [],
      "name": "FASSET_USD_DECIMALS",
      "outputs": [
        {
          "internalType": "uint256",
          "name": "",
          "type": "uint256"
        }
      ],
      "stateMutability": "view",
      "type": "function"
    },
    {
      "inputs": [
        {
          "internalType": "contract IPriceSubmitter",
          "name": "_priceSubmitter",
          "type": "address"
        },
        {
          "internalType": "uint256",
          "name": "_firstEpochStartTime",
          "type": "uint256"
        },
        {
          "internalType": "uint256",
          "name": "_submitPeriod",
          "type": "uint256"
        },
        {
          "internalType": "uint256",
          "name": "_revealPeriod",
          "type": "uint256"
        }
      ],
      "name": "activateFtso",
      "outputs": [],
      "stateMutability": "nonpayable",
      "type": "function"
    },
    {
      "inputs": [],
      "name": "active",
      "outputs": [
        {
          "internalType": "bool",
          "name": "",
          "type": "bool"
        }
      ],
      "stateMutability": "view",
      "type": "function"
    },
    {
      "inputs": [
        {
          "internalType": "uint256",
          "name": "_epochId",
          "type": "uint256"
        }
      ],
      "name": "averageFinalizePriceEpoch",
      "outputs": [],
      "stateMutability": "nonpayable",
      "type": "function"
    },
    {
      "inputs": [
        {
          "internalType": "uint256",
          "name": "_minVotePowerFlrThreshold",
          "type": "uint256"
        },
        {
          "internalType": "uint256",
          "name": "_minVotePowerAssetThreshold",
          "type": "uint256"
        },
        {
          "internalType": "uint256",
          "name": "_maxVotePowerFlrThreshold",
          "type": "uint256"
        },
        {
          "internalType": "uint256",
          "name": "_maxVotePowerAssetThreshold",
          "type": "uint256"
        },
        {
          "internalType": "uint256",
          "name": "_lowAssetUSDThreshold",
          "type": "uint256"
        },
        {
          "internalType": "uint256",
          "name": "_highAssetUSDThreshold",
          "type": "uint256"
        },
        {
          "internalType": "uint256",
          "name": "_highAssetTurnoutBIPSThreshold",
          "type": "uint256"
        },
        {
          "internalType": "uint256",
          "name": "_lowFlrTurnoutBIPSThreshold",
          "type": "uint256"
        },
        {
          "internalType": "address[]",
          "name": "_trustedAddresses",
          "type": "address[]"
        }
      ],
      "name": "configureEpochs",
      "outputs": [],
      "stateMutability": "nonpayable",
      "type": "function"
    },
    {
      "inputs": [],
      "name": "epochsConfiguration",
      "outputs": [
        {
          "internalType": "uint256",
          "name": "_minVotePowerFlrThreshold",
          "type": "uint256"
        },
        {
          "internalType": "uint256",
          "name": "_minVotePowerAssetThreshold",
          "type": "uint256"
        },
        {
          "internalType": "uint256",
          "name": "_maxVotePowerFlrThreshold",
          "type": "uint256"
        },
        {
          "internalType": "uint256",
          "name": "_maxVotePowerAssetThreshold",
          "type": "uint256"
        },
        {
          "internalType": "uint256",
          "name": "_lowAssetUSDThreshold",
          "type": "uint256"
        },
        {
          "internalType": "uint256",
          "name": "_highAssetUSDThreshold",
          "type": "uint256"
        },
        {
          "internalType": "uint256",
          "name": "_highAssetTurnoutBIPSThreshold",
          "type": "uint256"
        },
        {
          "internalType": "uint256",
          "name": "_lowFlrTurnoutBIPSThreshold",
          "type": "uint256"
        },
        {
          "internalType": "address[]",
          "name": "_trustedAddresses",
          "type": "address[]"
        }
      ],
      "stateMutability": "view",
      "type": "function"
    },
    {
      "inputs": [
        {
          "internalType": "uint256",
          "name": "",
          "type": "uint256"
        }
      ],
      "name": "fAssetFtsos",
      "outputs": [
        {
          "internalType": "contract IIFtso",
          "name": "",
          "type": "address"
        }
      ],
      "stateMutability": "view",
      "type": "function"
    },
    {
      "inputs": [
        {
          "internalType": "uint256",
          "name": "",
          "type": "uint256"
        }
      ],
      "name": "fAssets",
      "outputs": [
        {
          "internalType": "contract IIVPToken",
          "name": "",
          "type": "address"
        }
      ],
      "stateMutability": "view",
      "type": "function"
    },
    {
      "inputs": [
        {
          "internalType": "uint256",
          "name": "_epochId",
          "type": "uint256"
        },
        {
          "internalType": "bool",
          "name": "_returnRewardData",
          "type": "bool"
        }
      ],
      "name": "finalizePriceEpoch",
      "outputs": [
        {
          "internalType": "address[]",
          "name": "_eligibleAddresses",
          "type": "address[]"
        },
        {
          "internalType": "uint256[]",
          "name": "_flrWeights",
          "type": "uint256[]"
        },
        {
          "internalType": "uint256",
          "name": "_flrWeightsSum",
          "type": "uint256"
        }
      ],
      "stateMutability": "nonpayable",
      "type": "function"
    },
    {
      "inputs": [
        {
          "internalType": "uint256",
          "name": "_epochId",
          "type": "uint256"
        }
      ],
      "name": "forceFinalizePriceEpoch",
      "outputs": [],
      "stateMutability": "nonpayable",
      "type": "function"
    },
    {
      "inputs": [],
      "name": "ftsoManager",
      "outputs": [
        {
          "internalType": "contract IIFtsoManager",
          "name": "",
          "type": "address"
        }
      ],
      "stateMutability": "view",
      "type": "function"
    },
    {
      "inputs": [],
      "name": "getCurrentEpochId",
      "outputs": [
        {
          "internalType": "uint256",
          "name": "",
          "type": "uint256"
        }
      ],
      "stateMutability": "view",
      "type": "function"
    },
    {
      "inputs": [],
      "name": "getCurrentPrice",
      "outputs": [
        {
          "internalType": "uint256",
          "name": "",
          "type": "uint256"
        }
      ],
      "stateMutability": "view",
      "type": "function"
    },
    {
      "inputs": [],
      "name": "getCurrentRandom",
      "outputs": [
        {
          "internalType": "uint256",
          "name": "",
          "type": "uint256"
        }
      ],
      "stateMutability": "view",
      "type": "function"
    },
    {
      "inputs": [
        {
          "internalType": "uint256",
          "name": "_timestamp",
          "type": "uint256"
        }
      ],
      "name": "getEpochId",
      "outputs": [
        {
          "internalType": "uint256",
          "name": "",
          "type": "uint256"
        }
      ],
      "stateMutability": "view",
      "type": "function"
    },
    {
      "inputs": [
        {
          "internalType": "uint256",
          "name": "_epochId",
          "type": "uint256"
        }
      ],
      "name": "getEpochPrice",
      "outputs": [
        {
          "internalType": "uint256",
          "name": "",
          "type": "uint256"
        }
      ],
      "stateMutability": "view",
      "type": "function"
    },
    {
      "inputs": [
        {
          "internalType": "uint256",
          "name": "_epochId",
          "type": "uint256"
        },
        {
          "internalType": "address",
          "name": "_voter",
          "type": "address"
        }
      ],
      "name": "getEpochPriceForVoter",
      "outputs": [
        {
          "internalType": "uint256",
          "name": "",
          "type": "uint256"
        }
      ],
      "stateMutability": "view",
      "type": "function"
    },
    {
      "inputs": [
        {
          "internalType": "uint256",
          "name": "_epochId",
          "type": "uint256"
        }
      ],
      "name": "getEpochVotes",
      "outputs": [
        {
          "internalType": "address[]",
          "name": "_voters",
          "type": "address[]"
        },
        {
          "internalType": "uint256[]",
          "name": "_prices",
          "type": "uint256[]"
        },
        {
          "internalType": "uint256[]",
          "name": "_weights",
          "type": "uint256[]"
        },
        {
          "internalType": "uint256[]",
          "name": "_weightsFlr",
          "type": "uint256[]"
        },
        {
          "internalType": "uint256[]",
          "name": "_weightsAsset",
          "type": "uint256[]"
        },
        {
          "internalType": "bool[]",
          "name": "_eligibleForReward",
          "type": "bool[]"
        }
      ],
      "stateMutability": "view",
      "type": "function"
    },
    {
      "inputs": [],
      "name": "getFAsset",
      "outputs": [
        {
          "internalType": "contract IIVPToken",
          "name": "",
          "type": "address"
        }
      ],
      "stateMutability": "view",
      "type": "function"
    },
    {
      "inputs": [],
      "name": "getFAssetFtsos",
      "outputs": [
        {
          "internalType": "contract IIFtso[]",
          "name": "",
          "type": "address[]"
        }
      ],
      "stateMutability": "view",
      "type": "function"
    },
    {
      "inputs": [
        {
          "internalType": "uint256",
          "name": "_epochId",
          "type": "uint256"
        }
      ],
      "name": "getFullEpochReport",
      "outputs": [
        {
          "internalType": "uint256",
          "name": "_epochSubmitStartTime",
          "type": "uint256"
        },
        {
          "internalType": "uint256",
          "name": "_epochSubmitEndTime",
          "type": "uint256"
        },
        {
          "internalType": "uint256",
          "name": "_epochRevealEndTime",
          "type": "uint256"
        },
        {
          "internalType": "uint256",
          "name": "_epochFinalizedTimestamp",
          "type": "uint256"
        },
        {
          "internalType": "uint256",
          "name": "_price",
          "type": "uint256"
        },
        {
          "internalType": "uint256",
          "name": "_lowRewardPrice",
          "type": "uint256"
        },
        {
          "internalType": "uint256",
          "name": "_highRewardPrice",
          "type": "uint256"
        },
        {
          "internalType": "uint256",
          "name": "_numberOfVotes",
          "type": "uint256"
        },
        {
          "internalType": "uint256",
          "name": "_votePowerBlock",
          "type": "uint256"
        },
        {
          "internalType": "enum IFtso.PriceFinalizationType",
          "name": "_finalizationType",
          "type": "uint8"
        },
        {
          "internalType": "address[]",
          "name": "_trustedAddresses",
          "type": "address[]"
        },
        {
          "internalType": "bool",
          "name": "_rewardedFtso",
          "type": "bool"
        },
        {
          "internalType": "bool",
          "name": "_fallbackMode",
          "type": "bool"
        }
      ],
      "stateMutability": "view",
      "type": "function"
    },
    {
      "inputs": [],
      "name": "getPriceEpochConfiguration",
      "outputs": [
        {
          "internalType": "uint256",
          "name": "_firstEpochStartTime",
          "type": "uint256"
        },
        {
          "internalType": "uint256",
          "name": "_submitPeriod",
          "type": "uint256"
        },
        {
          "internalType": "uint256",
          "name": "_revealPeriod",
          "type": "uint256"
        }
      ],
      "stateMutability": "view",
      "type": "function"
    },
    {
      "inputs": [],
      "name": "getPriceEpochData",
      "outputs": [
        {
          "internalType": "uint256",
          "name": "_epochId",
          "type": "uint256"
        },
        {
          "internalType": "uint256",
          "name": "_epochSubmitEndTime",
          "type": "uint256"
        },
        {
          "internalType": "uint256",
          "name": "_epochRevealEndTime",
          "type": "uint256"
        },
        {
          "internalType": "uint256",
          "name": "_votePowerBlock",
          "type": "uint256"
        },
        {
          "internalType": "uint256",
          "name": "_minVotePowerFlr",
          "type": "uint256"
        },
        {
          "internalType": "uint256",
          "name": "_minVotePowerAsset",
          "type": "uint256"
        },
        {
          "internalType": "bool",
          "name": "_fallbackMode",
          "type": "bool"
        }
      ],
      "stateMutability": "view",
      "type": "function"
    },
    {
      "inputs": [
        {
          "internalType": "uint256",
          "name": "_epochId",
          "type": "uint256"
        }
      ],
      "name": "getRandom",
      "outputs": [
        {
          "internalType": "uint256",
          "name": "",
          "type": "uint256"
        }
      ],
      "stateMutability": "view",
      "type": "function"
    },
    {
      "inputs": [
        {
          "internalType": "bool",
          "name": "_fallbackMode",
          "type": "bool"
        }
      ],
      "name": "initializeCurrentEpochStateForReveal",
      "outputs": [],
      "stateMutability": "nonpayable",
      "type": "function"
    },
    {
      "inputs": [],
      "name": "priceSubmitter",
      "outputs": [
        {
          "internalType": "contract IPriceSubmitter",
          "name": "",
          "type": "address"
        }
      ],
      "stateMutability": "view",
      "type": "function"
    },
    {
      "inputs": [
        {
          "internalType": "uint256",
          "name": "_epochId",
          "type": "uint256"
        },
        {
          "internalType": "uint256",
          "name": "_price",
          "type": "uint256"
        },
        {
          "internalType": "uint256",
          "name": "_random",
          "type": "uint256"
        }
      ],
      "name": "revealPrice",
      "outputs": [],
      "stateMutability": "nonpayable",
      "type": "function"
    },
    {
      "inputs": [
        {
          "internalType": "address",
          "name": "_voter",
          "type": "address"
        },
        {
          "internalType": "uint256",
          "name": "_epochId",
          "type": "uint256"
        },
        {
          "internalType": "uint256",
          "name": "_price",
          "type": "uint256"
        },
        {
          "internalType": "uint256",
          "name": "_random",
          "type": "uint256"
        }
      ],
      "name": "revealPriceSubmitter",
      "outputs": [],
      "stateMutability": "nonpayable",
      "type": "function"
    },
    {
      "inputs": [
        {
          "internalType": "contract IIVPToken",
          "name": "_fAsset",
          "type": "address"
        }
      ],
      "name": "setFAsset",
      "outputs": [],
      "stateMutability": "nonpayable",
      "type": "function"
    },
    {
      "inputs": [
        {
          "internalType": "contract IIFtso[]",
          "name": "_fAssetFtsos",
          "type": "address[]"
        }
      ],
      "name": "setFAssetFtsos",
      "outputs": [],
      "stateMutability": "nonpayable",
      "type": "function"
    },
    {
      "inputs": [
        {
          "internalType": "uint256",
          "name": "_votePowerBlock",
          "type": "uint256"
        }
      ],
      "name": "setVotePowerBlock",
      "outputs": [],
      "stateMutability": "nonpayable",
      "type": "function"
    },
    {
      "inputs": [
        {
          "internalType": "bytes32",
          "name": "_hash",
          "type": "bytes32"
        }
      ],
      "name": "submitPriceHash",
      "outputs": [],
      "stateMutability": "nonpayable",
      "type": "function"
    },
    {
      "inputs": [
        {
          "internalType": "address",
          "name": "_sender",
          "type": "address"
        },
        {
          "internalType": "bytes32",
          "name": "_hash",
          "type": "bytes32"
        }
      ],
      "name": "submitPriceHashSubmitter",
      "outputs": [
        {
          "internalType": "uint256",
          "name": "_epochId",
          "type": "uint256"
        }
      ],
      "stateMutability": "nonpayable",
      "type": "function"
    },
    {
      "inputs": [],
      "name": "symbol",
      "outputs": [
        {
          "internalType": "string",
          "name": "",
          "type": "string"
        }
      ],
      "stateMutability": "view",
      "type": "function"
    },
    {
      "inputs": [],
      "name": "wFlr",
      "outputs": [
        {
          "internalType": "contract IIVPToken",
          "name": "",
          "type": "address"
        }
      ],
      "stateMutability": "view",
      "type": "function"
    }
  ],
  "bytecode": "0x60c06040523480156200001157600080fd5b5060405162005f2838038062005f28833981810160405260808110156200003757600080fd5b81019080805160405193929190846401000000008211156200005857600080fd5b9083019060208201858111156200006e57600080fd5b82516401000000008111828201881017156200008957600080fd5b82525081516020918201929091019080838360005b83811015620000b85781810151838201526020016200009e565b50505050905090810190601f168015620000e65780820380516001836020036101000a031916815260200191505b50604090815260208281015191830151606090930151865192955092935062000115916001918701906200013b565b506001600160601b0319606093841b81166080529190921b1660a05260025550620001e7565b828054600181600116156101000203166002900490600052602060002090601f016020900481019282620001735760008555620001be565b82601f106200018e57805160ff1916838001178555620001be565b82800160010185558215620001be579182015b82811115620001be578251825591602001919060010190620001a1565b50620001cc929150620001d0565b5090565b5b80821115620001cc5760008155600101620001d1565b60805160601c60a05160601c615ce0620002486000398061104d52806111e352806114c952806118c85280611afb5280611e0f5280611f10528061239a52806126b95280612b4252508061112e5280612c425280614def5250615ce06000f3fe608060405234801561001057600080fd5b50600436106102415760003560e01c806395d89b4111610145578063dbdb0f4b116100bd578063eb91d37e1161008c578063f1c4649111610071578063f1c4649114610b89578063f937d6ad14610be1578063fd00e53914610be957610241565b8063eb91d37e14610aad578063f1571d6514610ab557610241565b8063dbdb0f4b14610975578063e3749e0c146109ba578063e3b3a3b314610a4e578063e536f39614610a9057610241565b8063a7f72bd111610114578063c5d8b9e7116100f9578063c5d8b9e714610917578063cd4b691414610950578063d89601fd1461096d57610241565b8063a7f72bd114610899578063c1f6c36e146108d257610241565b806395d89b41146107da578063974d7a6b146108575780639de6f92714610874578063a29a839f1461089157610241565b80632ab0cb7d116101d857806353048c75116101a757806370f391aa1161018c57806370f391aa146107125780637d1d6f12146107b55780637fca5455146107d257610241565b806353048c75146106135780635a3c9d8e1461063c57610241565b80632ab0cb7d146104e457806340462a2d1461051757806345cf1e12146105dc5780635303548b146105f657610241565b8063144e159111610214578063144e15911461047c578063186552f3146104a25780631be63d1a146104aa5780632a6a9c7f146104c757610241565b806302b025ca1461024657806302fb0c5e1461041057806311a7aaaa1461042c57806312cf55201461045d575b600080fd5b6102636004803603602081101561025c57600080fd5b5035610c08565b6040518080602001806020018060200180602001806020018060200187810387528d818151815260200191508051906020019060200280838360005b838110156102b757818101518382015260200161029f565b5050505090500187810386528c818151815260200191508051906020019060200280838360005b838110156102f65781810151838201526020016102de565b5050505090500187810385528b818151815260200191508051906020019060200280838360005b8381101561033557818101518382015260200161031d565b5050505090500187810384528a818151815260200191508051906020019060200280838360005b8381101561037457818101518382015260200161035c565b50505050905001878103835289818151815260200191508051906020019060200280838360005b838110156103b357818101518382015260200161039b565b50505050905001878103825288818151815260200191508051906020019060200280838360005b838110156103f25781810151838201526020016103da565b505050509050019c5050505050505050505050505060405180910390f35b610418611042565b604080519115158252519081900360200190f35b61043461104b565b6040805173ffffffffffffffffffffffffffffffffffffffff9092168252519081900360200190f35b61047a6004803603602081101561047357600080fd5b503561106f565b005b61048461111e565b60408051938452602084019290925282820152519081900360600190f35b61043461112c565b610434600480360360208110156104c057600080fd5b5035611150565b610434600480360360208110156104dd57600080fd5b5035611187565b61047a600480360360208110156104fa57600080fd5b503573ffffffffffffffffffffffffffffffffffffffff16611197565b61053c6004803603604081101561052d57600080fd5b508035906020013515156114c2565b604051808060200180602001848152602001838103835286818151815260200191508051906020019060200280838360005b8381101561058657818101518382015260200161056e565b50505050905001838103825285818151815260200191508051906020019060200280838360005b838110156105c55781810151838201526020016105ad565b505050509050019550505050505060405180910390f35b6105e46117b0565b60408051918252519081900360200190f35b6105e46004803603602081101561060c57600080fd5b50356117b5565b61047a6004803603606081101561062957600080fd5b50803590602081013590604001356117ca565b61047a600480360361012081101561065357600080fd5b81359160208101359160408201359160608101359160808201359160a08101359160c08201359160e08101359181019061012081016101008201356401000000008111156106a057600080fd5b8201836020820111156106b257600080fd5b803590602001918460208302840111640100000000831117156106d457600080fd5b91908080602002602001604051908101604052809392919081815260200183836020028082843760009201919091525092955061187c945050505050565b61047a6004803603602081101561072857600080fd5b81019060208101813564010000000081111561074357600080fd5b82018360208201111561075557600080fd5b8035906020019184602083028401116401000000008311171561077757600080fd5b919080806020026020016040519081016040528093929190818152602001838360200280828437600092019190915250929550611aaf945050505050565b6105e4600480360360208110156107cb57600080fd5b5035611c5a565b610434611c6f565b6107e2611d18565b6040805160208082528351818301528351919283929083019185019080838360005b8381101561081c578181015183820152602001610804565b50505050905090810190601f1680156108495780820380516001836020036101000a031916815260200191505b509250505060405180910390f35b61047a6004803603602081101561086d57600080fd5b5035611dc3565b61047a6004803603602081101561088a57600080fd5b5035611ec4565b6105e4611fb0565b6105e4600480360360408110156108af57600080fd5b5073ffffffffffffffffffffffffffffffffffffffff8135169060200135611fbb565b61047a600480360360808110156108e857600080fd5b5073ffffffffffffffffffffffffffffffffffffffff8135169060208101359060408101359060600135612126565b6105e46004803603604081101561092d57600080fd5b508035906020013573ffffffffffffffffffffffffffffffffffffffff1661228f565b6105e46004803603602081101561096657600080fd5b50356122e4565b6105e46122f9565b61047a6004803603608081101561098b57600080fd5b5073ffffffffffffffffffffffffffffffffffffffff813516906020810135906040810135906060013561234e565b6109c2612542565b604051808a815260200189815260200188815260200187815260200186815260200185815260200184815260200183815260200180602001828103825283818151815260200191508051906020019060200280838360005b83811015610a32578181015183820152602001610a1a565b505050509050019a505050505050505050505060405180910390f35b610a5661260b565b604080519788526020880196909652868601949094526060860192909252608085015260a0840152151560c0830152519081900360e00190f35b61047a60048036036020811015610aa657600080fd5b503561266d565b6105e4612751565b610ad260048036036020811015610acb57600080fd5b5035612757565b604051808e81526020018d81526020018c81526020018b81526020018a8152602001898152602001888152602001878152602001868152602001856005811115610b1857fe5b81526020018060200184151581526020018315158152602001828103825285818151815260200191508051906020019060200280838360005b83811015610b69578181015183820152602001610b51565b505050509050019e50505050505050505050505050505060405180910390f35b610b916129ef565b60408051602080825283518183015283519192839290830191858101910280838360005b83811015610bcd578181015183820152602001610bb5565b505050509050019250505060405180910390f35b610434612ada565b61047a60048036036020811015610bff57600080fd5b50351515612af6565b606080606080606080610c19611fb0565b8711156040518060400160405280600d81526020017f556e6b6e6f776e2065706f63680000000000000000000000000000000000000081525090610cf5576040517f08c379a00000000000000000000000000000000000000000000000000000000081526004018080602001828103825283818151815260200191508051906020019080838360005b83811015610cba578181015183820152602001610ca2565b50505050905090810190601f168015610ce75780820380516001836020036101000a031916815260200191505b509250505060405180910390fd5b50600087815260036020526040902060188101548067ffffffffffffffff81118015610d2057600080fd5b50604051908082528060200260200182016040528015610d4a578160200160208202803683370190505b5097508067ffffffffffffffff81118015610d6457600080fd5b50604051908082528060200260200182016040528015610d8e578160200160208202803683370190505b5096508067ffffffffffffffff81118015610da857600080fd5b50604051908082528060200260200182016040528015610dd2578160200160208202803683370190505b5095508067ffffffffffffffff81118015610dec57600080fd5b50604051908082528060200260200182016040528015610e16578160200160208202803683370190505b5094508067ffffffffffffffff81118015610e3057600080fd5b50604051908082528060200260200182016040528015610e5a578160200160208202803683370190505b5093508067ffffffffffffffff81118015610e7457600080fd5b50604051908082528060200260200182016040528015610e9e578160200160208202803683370190505b50600f8301546010840154601185015492955090916000805b858110156110255760008581526015602090815260408083206016909252909120548e5173ffffffffffffffffffffffffffffffffffffffff909116908f9084908110610f0057fe5b73ffffffffffffffffffffffffffffffffffffffff9092166020928302919091019091015280548d516fffffffffffffffffffffffffffffffff909116908e9084908110610f4a57fe5b602090810291909101015280548b5170010000000000000000000000000000000090910467ffffffffffffffff16908c9084908110610f8557fe5b602090810291909101015280548a51780100000000000000000000000000000000000000000000000090910467ffffffffffffffff16908b9084908110610fc857fe5b60200260200101818152505084861415610fe157600192505b82898381518110610fee57fe5b911515602092830291909101909101528584141561100b57600092505b506000948552600460205260409094205493600101610eb7565b50611031868a8a612cbe565b995050505050505091939550919395565b60005460ff1681565b7f000000000000000000000000000000000000000000000000000000000000000081565b60005460408051808201909152600f81527f4654534f206e6f7420616374697665000000000000000000000000000000000060208201529060ff1661110f576040517f08c379a0000000000000000000000000000000000000000000000000000000008152602060048201818152835160248401528351909283926044909101919085019080838360008315610cba578181015183820152602001610ca2565b5061111a3382612dc7565b5050565b600654600754600854909192565b7f000000000000000000000000000000000000000000000000000000000000000081565b601a818154811061116057600080fd5b60009182526020909120015473ffffffffffffffffffffffffffffffffffffffff16905081565b6019818154811061116057600080fd5b60408051808201909152600d81527f4163636573732064656e6965640000000000000000000000000000000000000060208201523373ffffffffffffffffffffffffffffffffffffffff7f00000000000000000000000000000000000000000000000000000000000000001614611269576040517f08c379a0000000000000000000000000000000000000000000000000000000008152602060048201818152835160248401528351909283926044909101919085019080838360008315610cba578181015183820152602001610ca2565b508073ffffffffffffffffffffffffffffffffffffffff166395d89b416040518163ffffffff1660e01b815260040160006040518083038186803b1580156112b057600080fd5b505afa1580156112c4573d6000803e3d6000fd5b505050506040513d6000823e601f3d9081017fffffffffffffffffffffffffffffffffffffffffffffffffffffffffffffffe0168201604052602081101561130b57600080fd5b810190808051604051939291908464010000000082111561132b57600080fd5b90830190602082018581111561134057600080fd5b825164010000000081118282018810171561135a57600080fd5b82525081516020918201929091019080838360005b8381101561138757818101518382015260200161136f565b50505050905090810190601f1680156113b45780820380516001836020036101000a031916815260200191505b50604052505081516113cd9260019250602001906159d0565b5060408051602081019091523081526113ea90601a906001615a5c565b50604080516020810190915273ffffffffffffffffffffffffffffffffffffffff8216815261141d906019906001615a5c565b508073ffffffffffffffffffffffffffffffffffffffff1663313ce5676040518163ffffffff1660e01b815260040160206040518083038186803b15801561146457600080fd5b505afa158015611478573d6000803e3d6000fd5b505050506040513d602081101561148e57600080fd5b505173ffffffffffffffffffffffffffffffffffffffff909116600090815260056020526040902060ff909116600a0a9055565b60608060007f000000000000000000000000000000000000000000000000000000000000000073ffffffffffffffffffffffffffffffffffffffff163373ffffffffffffffffffffffffffffffffffffffff16146040518060400160405280600d81526020017f4163636573732064656e69656400000000000000000000000000000000000000815250906115b2576040517f08c379a0000000000000000000000000000000000000000000000000000000008152602060048201818152835160248401528351909283926044909101919085019080838360008315610cba578181015183820152602001610ca2565b5060006115be86612e4a565b9050600080826003015411156115e757816003015461271083600a015402816115e357fe5b0490505b601e82015462010000900460ff1680611604575081600201548111155b1561167657601e82015462010000900460ff1661166357600282015460408051838152602081019290925242828201525188917fbece8aa526cdc5e528cdaa56c1d03edc19da51e41845aa146f64a7071f74c65a919081900360600190a25b61166f87836000612fbc565b50506117a9565b606080606080611685866130ed565b929650909450925090506060611699615ad6565b6116a38585613374565b90925090506116b5888284888a6136ff565b8b15611705576116c781838589613900565b8251929d50909b5099501561170557601e880180547fffffffffffffffffffffffffffffffffffffffffffffffffffffffffffff00ff166101001790555b8c7ffe8865c1fe85bbf124b9e0f16cccfeeb6f330454fd79475a31261c8fa250bc3089601301548a601e0160019054906101000a900460ff168b601501548c601601548d60140160009054906101000a900460ff164260405180878152602001861515815260200185815260200184815260200183600581111561178557fe5b8152602001828152602001965050505050505060405180910390a250505050505050505b9250925092565b600581565b60006117c2600383613b04565b90505b919050565b60005460408051808201909152600f81527f4654534f206e6f7420616374697665000000000000000000000000000000000060208201529060ff1661186a576040517f08c379a0000000000000000000000000000000000000000000000000000000008152602060048201818152835160248401528351909283926044909101919085019080838360008315610cba578181015183820152602001610ca2565b5061187733848484613b35565b505050565b60408051808201909152600d81527f4163636573732064656e6965640000000000000000000000000000000000000060208201523373ffffffffffffffffffffffffffffffffffffffff7f0000000000000000000000000000000000000000000000000000000000000000161461194e576040517f08c379a0000000000000000000000000000000000000000000000000000000008152602060048201818152835160248401528351909283926044909101919085019080838360008315610cba578181015183820152602001610ca2565b50600a899055600b889055600c879055600d869055600e859055600f8490556010839055601182905560125460005b81811015611a05576000600360100160006003600f01848154811061199e57fe5b60009182526020808320919091015473ffffffffffffffffffffffffffffffffffffffff168352820192909252604001902080547fffffffffffffffffffffffffffffffffffffffffffffffffffffffffffffff001691151591909117905560010161197d565b5050805160005b81811015611a8e57600160036010016000858481518110611a2957fe5b60209081029190910181015173ffffffffffffffffffffffffffffffffffffffff16825281019190915260400160002080547fffffffffffffffffffffffffffffffffffffffffffffffffffffffffffffff0016911515919091179055600101611a0c565b508151611aa2906012906020850190615a5c565b5050505050505050505050565b60408051808201909152600d81527f4163636573732064656e6965640000000000000000000000000000000000000060208201523373ffffffffffffffffffffffffffffffffffffffff7f00000000000000000000000000000000000000000000000000000000000000001614611b81576040517f08c379a0000000000000000000000000000000000000000000000000000000008152602060048201818152835160248401528351909283926044909101919085019080838360008315610cba578181015183820152602001610ca2565b506000815111611b8d57fe5b600181511180611bdd57503073ffffffffffffffffffffffffffffffffffffffff1681600081518110611bbc57fe5b602002602001015173ffffffffffffffffffffffffffffffffffffffff1614155b611be357fe5b8051611bf690601a906020840190615a5c565b50805167ffffffffffffffff81118015611c0f57600080fd5b50604051908082528060200260200182016040528015611c39578160200160208202803683370190505b508051611c4e91601991602090910190615a5c565b50611c57613f31565b50565b60009081526003602052604090206013015490565b6019546000906001148015611c865750601a546001145b8015611cd657503073ffffffffffffffffffffffffffffffffffffffff16601a600081548110611cb257fe5b60009182526020909120015473ffffffffffffffffffffffffffffffffffffffff16145b611ce1576000611d12565b6019600081548110611cef57fe5b60009182526020909120015473ffffffffffffffffffffffffffffffffffffffff165b90505b90565b60018054604080516020600284861615610100027fffffffffffffffffffffffffffffffffffffffffffffffffffffffffffffffff0190941693909304601f81018490048402820184019092528181529291830182828015611dbb5780601f10611d9057610100808354040283529160200191611dbb565b820191906000526020600020905b815481529060010190602001808311611d9e57829003601f168201915b505050505081565b60408051808201909152600d81527f4163636573732064656e6965640000000000000000000000000000000000000060208201523373ffffffffffffffffffffffffffffffffffffffff7f00000000000000000000000000000000000000000000000000000000000000001614611e95576040517f08c379a0000000000000000000000000000000000000000000000000000000008152602060048201818152835160248401528351909283926044909101919085019080838360008315610cba578181015183820152602001610ca2565b506000611ea182612e4a565b60128054919250611eb791601c84019190615b4c565b5061111a82826001614199565b60408051808201909152600d81527f4163636573732064656e6965640000000000000000000000000000000000000060208201523373ffffffffffffffffffffffffffffffffffffffff7f00000000000000000000000000000000000000000000000000000000000000001614611f96576040517f08c379a0000000000000000000000000000000000000000000000000000000008152602060048201818152835160248401528351909283926044909101919085019080838360008315610cba578181015183820152602001610ca2565b506000611fa282612e4a565b905061111a82826001612fbc565b6000611d12426117b5565b6000805460408051808201909152600f81527f4654534f206e6f7420616374697665000000000000000000000000000000000060208201529060ff1661205c576040517f08c379a0000000000000000000000000000000000000000000000000000000008152602060048201818152835160248401528351909283926044909101919085019080838360008315610cba578181015183820152602001610ca2565b5060185460408051808201909152600d81527f4163636573732064656e6965640000000000000000000000000000000000000060208201529073ffffffffffffffffffffffffffffffffffffffff163314612112576040517f08c379a0000000000000000000000000000000000000000000000000000000008152602060048201818152835160248401528351909283926044909101919085019080838360008315610cba578181015183820152602001610ca2565b5061211d8383612dc7565b90505b92915050565b60005460408051808201909152600f81527f4654534f206e6f7420616374697665000000000000000000000000000000000060208201529060ff166121c6576040517f08c379a0000000000000000000000000000000000000000000000000000000008152602060048201818152835160248401528351909283926044909101919085019080838360008315610cba578181015183820152602001610ca2565b5060185460408051808201909152600d81527f4163636573732064656e6965640000000000000000000000000000000000000060208201529073ffffffffffffffffffffffffffffffffffffffff16331461227c576040517f08c379a0000000000000000000000000000000000000000000000000000000008152602060048201818152835160248401528351909283926044909101919085019080838360008315610cba578181015183820152602001610ca2565b5061228984848484613b35565b50505050565b600082815260036020908152604080832073ffffffffffffffffffffffffffffffffffffffff85168452601b01825280832054835260159091529020546fffffffffffffffffffffffffffffffff1692915050565b60009081526003602052604090206017015490565b600080612304611fb0565b905080612315576000915050611d15565b7fffffffffffffffffffffffffffffffffffffffffffffffffffffffffffffffff01600090815260036020526040902060170154905090565b60408051808201909152600d81527f4163636573732064656e6965640000000000000000000000000000000000000060208201523373ffffffffffffffffffffffffffffffffffffffff7f00000000000000000000000000000000000000000000000000000000000000001614612420576040517f08c379a0000000000000000000000000000000000000000000000000000000008152602060048201818152835160248401528351909283926044909101919085019080838360008315610cba578181015183820152602001610ca2565b5060005460408051808201909152601681527f4654534f20616c7265616479206163746976617465640000000000000000000060208201529060ff16156124c2576040517f08c379a0000000000000000000000000000000000000000000000000000000008152602060048201818152835160248401528351909283926044909101919085019080838360008315610cba578181015183820152602001610ca2565b50601880547fffffffffffffffffffffffff00000000000000000000000000000000000000001673ffffffffffffffffffffffffffffffffffffffff9590951694909417909355600691909155600755600855600080547fffffffffffffffffffffffffffffffffffffffffffffffffffffffffffffff00166001179055565b60008060008060008060008060606003600701546003600801546003600901546003600a01546003600b01546003600c01546003600d01546003600e01546003600f01808054806020026020016040519081016040528092919081815260200182805480156125e757602002820191906000526020600020905b815473ffffffffffffffffffffffffffffffffffffffff1681526001909101906020018083116125bc575b50505050509050985098509850985098509850985098509850909192939495969798565b600080600080600080600061261e611fb0565b965061262b6003886142c0565b6008546000898152600360205260409020805460068201546007830154601e909301549b9c949b938c019a509098509650945062010000900460ff1692509050565b60408051808201909152600d81527f4163636573732064656e6965640000000000000000000000000000000000000060208201523373ffffffffffffffffffffffffffffffffffffffff7f0000000000000000000000000000000000000000000000000000000000000000161461273f576040517f08c379a0000000000000000000000000000000000000000000000000000000008152602060048201818152835160248401528351909283926044909101919085019080838360008315610cba578181015183820152602001610ca2565b5043811061274c57600080fd5b600955565b60025490565b6000806000806000806000806000806060600080612773611fb0565b8e11156040518060400160405280600d81526020017f556e6b6e6f776e2065706f63680000000000000000000000000000000000000081525090612812576040517f08c379a0000000000000000000000000000000000000000000000000000000008152602060048201818152835160248401528351909283926044909101919085019080838360008315610cba578181015183820152602001610ca2565b5061281e60038f6142d8565b9c5061282b60038f6142c0565b9b5061283860038f6142e9565b9a50600360000160008f8152602001908152602001600020601d01549950600360000160008f8152602001908152602001600020601301549850600360000160008f8152602001908152602001600020601501549750600360000160008f8152602001908152602001600020601601549650600360000160008f8152602001908152602001600020601801549550600360000160008f8152602001908152602001600020600001549450600360000160008f815260200190815260200160002060140160009054906101000a900460ff169350600360000160008f8152602001908152602001600020601c0180548060200260200160405190810160405280929190818152602001828054801561298557602002820191906000526020600020905b815473ffffffffffffffffffffffffffffffffffffffff16815260019091019060200180831161295a575b50505050509250600360000160008f8152602001908152602001600020601e0160019054906101000a900460ff169150600360000160008f8152602001908152602001600020601e0160029054906101000a900460ff16905091939597999b9d90929496989a9c50565b6019546060906001148015612a065750601a546001145b8015612a5657503073ffffffffffffffffffffffffffffffffffffffff16601a600081548110612a3257fe5b60009182526020909120015473ffffffffffffffffffffffffffffffffffffffff16145b612ac757601a805480602002602001604051908101604052809291908181526020018280548015612abd57602002820191906000526020600020905b815473ffffffffffffffffffffffffffffffffffffffff168152600190910190602001808311612a92575b5050505050611d12565b5060408051600081526020810190915290565b60185473ffffffffffffffffffffffffffffffffffffffff1681565b60408051808201909152600d81527f4163636573732064656e6965640000000000000000000000000000000000000060208201523373ffffffffffffffffffffffffffffffffffffffff7f00000000000000000000000000000000000000000000000000000000000000001614612bc8576040517f08c379a0000000000000000000000000000000000000000000000000000000008152602060048201818152835160248401528351909283926044909101919085019080838360008315610cba578181015183820152602001610ca2565b506000612bd3611fb0565b60008181526003602052604090209091508215612c1e57601e0180547fffffffffffffffffffffffffffffffffffffffffffffffffffffffffff00ffff166201000017905550611c57565b6060806060612c2b614302565b6009549295509093509150612c73908590612c67907f000000000000000000000000000000000000000000000000000000000000000090614518565b600391908686866145c3565b847fc0eaa359541c7c642d9947c9496507c134f3e4f8e1fd433313eb27dc48cb1fb7612ca06003836142c0565b604080519182524260208301528051918290030190a2505050505050565b6060836018015467ffffffffffffffff81118015612cdb57600080fd5b50604051908082528060200260200182016040528015612d05578160200160208202803683370190505b50600c850154600d86015491925090600080612d2088614682565b90508315612d3057806127100391505b60005b8860180154811015612dbb5760008315612d7d57612d7a898381518110612d5657fe5b602002602001015164e8d4a51000026127108802866146fb9092919063ffffffff16565b90505b60008315612d9757612d94898481518110612d5657fe5b90505b808201888481518110612da657fe5b60209081029190910101525050600101612d33565b50505050509392505050565b6000612dd1611fb0565b600081815260176020908152604080832073ffffffffffffffffffffffffffffffffffffffff88168085529083529281902086905580518681524292810192909252805193945084937f615c0184a2b16dbbcd09eae0bf239e28977aa4e6ff2204eda59c14016310bb669281900390910190a392915050565b6000612e576003836142e9565b42116040518060400160405280602081526020017f45706f6368206e6f7420726561647920666f722066696e616c697a6174696f6e81525090612ef5576040517f08c379a0000000000000000000000000000000000000000000000000000000008152602060048201818152835160248401528351909283926044909101919085019080838360008315610cba578181015183820152602001610ca2565b5050600081815260036020526040812090601482015460ff166005811115612f1957fe5b146040518060400160405280601781526020017f45706f636820616c72656164792066696e616c697a656400000000000000000081525090612fb6576040517f08c379a0000000000000000000000000000000000000000000000000000000008152602060048201818152835160248401528351909283926044909101919085019080838360008315610cba578181015183820152602001610ca2565b50919050565b601280546000918291612fd391601c870191615b4c565b50612fdd84614830565b909250905080156130db57808281612ff157fe5b04601385015542601d8501558261300957600261300c565b60045b6014850180547fffffffffffffffffffffffffffffffffffffffffffffffffffffffffffffff0016600183600581111561304257fe5b02179055508360130154600281905550847ffe8865c1fe85bbf124b9e0f16cccfeeb6f330454fd79475a31261c8fa250bc30856013015460008060008960140160009054906101000a900460ff16426040518087815260200186151581526020018581526020018481526020018360058111156130bb57fe5b8152602001828152602001965050505050505060405180910390a26130e6565b6130e6858585614199565b5050505050565b6060806060806000856018015490508067ffffffffffffffff8111801561311357600080fd5b5060405190808252806020026020018201604052801561313d578160200160208202803683370190505b5094508067ffffffffffffffff8111801561315757600080fd5b50604051908082528060200260200182016040528015613181578160200160208202803683370190505b5093508067ffffffffffffffff8111801561319b57600080fd5b506040519080825280602002602001820160405280156131c5578160200160208202803683370190505b50915060008167ffffffffffffffff811180156131e157600080fd5b5060405190808252806020026020018201604052801561320b578160200160208202803683370190505b509050600080600089600f0154905060005b8581101561334c5760008281526015602052604090208a5183908c908490811061324357fe5b602090810291909101015280548a516fffffffffffffffffffffffffffffffff909116908b908490811061327357fe5b60209081029190910101528054885170010000000000000000000000000000000090910467ffffffffffffffff16908990849081106132ae57fe5b602090810291909101015280548651780100000000000000000000000000000000000000000000000090910467ffffffffffffffff16908790849081106132f157fe5b60200260200101818152505087828151811061330957fe5b60200260200101518501945085828151811061332157fe5b602090810291909101810151600094855260049091526040909320549390920192915060010161321d565b50600c8a01839055600d8a018290556133668a8786612cbe565b965050505050509193509193565b606061337e615ad6565b83518067ffffffffffffffff8111801561339757600080fd5b506040519080825280602002602001820160405280156133c1578160200160208202803683370190505b50925060005b818110156133ef57808482815181106133dc57fe5b60209081029190910101526001016133c7565b506134066002600060018403600080888b8b6148d1565b60c085015260a0840152808352835185918591811061342157fe5b60200260200101518151811061343357fe5b6020908102919091010151610120830181905260c083015160a0840151909101016101a0830152815161347d57815160c083015160808401526000606084015260208301526134ec565b6004826101a001518161348c57fe5b048260a00151116134b757815160a083015160c08401516080850152606084015260208301526134ec565b6134dc60016000600185600001510360008661012001518760c0015101888b8b6148d1565b6080850152606084015260208301525b81517fffffffffffffffffffffffffffffffffffffffffffffffffffffffffffffffff8201141561353557815160a0830151600061010085015260e084015260408301526135a8565b6004826101a001518161354457fe5b048260c001511161357057815160a083015160c084015161010085015260e084015260408301526135a8565b61359760038360000151600101600184038561012001518660a00151016000888b8b6148d1565b61010085015260e084015260408301525b84838360000151815181106135b957fe5b6020026020010151815181106135cb57fe5b6020026020010151826101c00181815250506002826101a00151816135ec57fe5b048261012001518360a001510114801561361357506002826101a001518161361057fe5b06155b1561364357600261362d8360000151600184038689614c06565b836101c00151018161363b57fe5b046101c08301525b61367b826020015160007fffffffffffffffffffffffffffffffffffffffffffffffffffffffffffffffff8560600151878a8a614cc8565b610140840152602083015260408201516101008301516136c591907fffffffffffffffffffffffffffffffffffffffffffffffffffffffffffffffff840190600190878a8a614cc8565b6101808401819052604084019190915261014083015161012084015160c085015160a0860151010103036101608301525090939092509050565b60005b6001845103811015613781578184826001018151811061371e57fe5b60200260200101518151811061373057fe5b6020026020010151600360010160008487858151811061374c57fe5b60200260200101518151811061375e57fe5b602090810291909101810151825281019190915260400160002055600101613702565b50808360008151811061379057fe5b6020026020010151815181106137a257fe5b602002602001015185600f018190555080836001855103815181106137c357fe5b6020026020010151815181106137d557fe5b6020026020010151856012018190555080838560200151815181106137f657fe5b60200260200101518151811061380857fe5b60200260200101518560100181905550808385604001518151811061382957fe5b60200260200101518151811061383b57fe5b60200260200101518560110181905550818385602001518151811061385c57fe5b60200260200101518151811061386e57fe5b60200260200101518560150181905550836101c001518560130181905550818385604001518151811061389d57fe5b6020026020010151815181106138af57fe5b60209081029190910101516016860155505042601d84015550601490910180547fffffffffffffffffffffffffffffffffffffffffffffffffffffffffffffff001660011790556101c00151600255565b6020840151606090819060009081905b886040015181116139595760008789838151811061392a57fe5b60200260200101518151811061393c57fe5b60200260200101511115613951576001909101905b600101613910565b508067ffffffffffffffff8111801561397157600080fd5b5060405190808252806020026020018201604052801561399b578160200160208202803683370190505b5093508067ffffffffffffffff811180156139b557600080fd5b506040519080825280602002602001820160405280156139df578160200160208202803683370190505b5060208901519093506000905b89604001518111613af7576000888a8381518110613a0657fe5b602002602001015181518110613a1857fe5b602002602001015190506000811115613aee576000888b8481518110613a3a57fe5b602002602001015181518110613a4c57fe5b60209081029190910181015160008181526016909252604090912054895191925073ffffffffffffffffffffffffffffffffffffffff1690899086908110613a9057fe5b602002602001019073ffffffffffffffffffffffffffffffffffffffff16908173ffffffffffffffffffffffffffffffffffffffff168152505081878581518110613ad757fe5b602090810291909101015250938401936001909201915b506001016139ec565b5050509450945094915050565b60008260030154821015613b1a57506000612120565b82600401548360030154830381613b2d57fe5b049050612120565b60408051808201909152600e81527f507269636520746f6f206869676800000000000000000000000000000000000060208201527001000000000000000000000000000000008310613be2576040517f08c379a0000000000000000000000000000000000000000000000000000000008152602060048201818152835160248401528351909283926044909101919085019080838360008315610cba578181015183820152602001610ca2565b50613bee600384614d9c565b6040518060400160405280601881526020017f52657665616c20706572696f64206e6f7420616374697665000000000000000081525090613c8a576040517f08c379a0000000000000000000000000000000000000000000000000000000008152602060048201818152835160248401528351909283926044909101919085019080838360008315610cba578181015183820152602001610ca2565b506040805160208082018590528183018490528251808303840181526060830180855281519183019190912060008881526017845285812073ffffffffffffffffffffffffffffffffffffffff8b168252909352918490205460c08401909452602380825293909114929091615c41906080013990613d64576040517f08c379a0000000000000000000000000000000000000000000000000000000008152602060048201818152835160248401528351909283926044909101919085019080838360008315610cba578181015183820152602001610ca2565b506000838152600360205260409020601e81015460ff1680613dc05750601e81015462010000900460ff168015613dc0575073ffffffffffffffffffffffffffffffffffffffff851660009081526013602052604090205460ff165b6040518060400160405280602081526020017f45706f6368206e6f7420696e697469616c697a656420666f722072657665616c81525090613e5c576040517f08c379a0000000000000000000000000000000000000000000000000000000008152602060048201818152835160248401528351909283926044909101919085019080838360008315610cba578181015183820152602001610ca2565b50600080613e6a8388614dc7565b915091506000613e948383866004015487600501548a6014614fc39095949392919063ffffffff16565b9050613ea56003858386868a615102565b600087815260176020908152604080832073ffffffffffffffffffffffffffffffffffffffff8c1680855290835281842093909355805189815291820188905242828201526060820186905260808201859052518992917f408bc8c9d02102257c33373c2df5771b03067bd8ea7ec60c35f314ec4ee99d05919081900360a00190a35050505050505050565b601a546001148015613f8757503073ffffffffffffffffffffffffffffffffffffffff16601a600081548110613f6357fe5b60009182526020909120015473ffffffffffffffffffffffffffffffffffffffff16145b15613f9157614197565b60005b601a54811015611c57576000601a8281548110613fad57fe5b60009182526020918290200154604080517f7fca5455000000000000000000000000000000000000000000000000000000008152905173ffffffffffffffffffffffffffffffffffffffff90921692637fca545592600480840193829003018186803b15801561401c57600080fd5b505afa158015614030573d6000803e3d6000fd5b505050506040513d602081101561404657600080fd5b505160198054919250908390811061405a57fe5b60009182526020909120015473ffffffffffffffffffffffffffffffffffffffff8281169116141561408c575061418f565b806019838154811061409a57fe5b600091825260209091200180547fffffffffffffffffffffffff00000000000000000000000000000000000000001673ffffffffffffffffffffffffffffffffffffffff92831617905581161561418d578073ffffffffffffffffffffffffffffffffffffffff1663313ce5676040518163ffffffff1660e01b815260040160206040518083038186803b15801561413157600080fd5b505afa158015614145573d6000803e3d6000fd5b505050506040513d602081101561415b57600080fd5b505173ffffffffffffffffffffffffffffffffffffffff8216600090815260056020526040902060ff909116600a0a90555b505b600101613f94565b565b82156141df577fffffffffffffffffffffffffffffffffffffffffffffffffffffffffffffffff83016000908152600360205260409020601390810154908301556141e7565b600060138301555b42601d830155806141f95760036141fc565b60055b6014830180547fffffffffffffffffffffffffffffffffffffffffffffffffffffffffffffff0016600183600581111561423257fe5b0217905550827ffe8865c1fe85bbf124b9e0f16cccfeeb6f330454fd79475a31261c8fa250bc30836013015460008060008760140160009054906101000a900460ff16426040518087815260200186151581526020018581526020018481526020018360058111156142a057fe5b8152602001828152602001965050505050505060405180910390a2505050565b60048201546003830154600183019091020192915050565b600482015460039092015491020190565b600082600501546142fa84846142c0565b019392505050565b606080606061430f613f31565b601980548060200260200160405190810160405280929190818152602001828054801561437257602002820191906000526020600020905b815473ffffffffffffffffffffffffffffffffffffffff168152600190910190602001808311614347575b50505050509250825167ffffffffffffffff8111801561439157600080fd5b506040519080825280602002602001820160405280156143bb578160200160208202803683370190505b509150825167ffffffffffffffff811180156143d657600080fd5b50604051908082528060200260200182016040528015614400578160200160208202803683370190505b50905060005b83518110156145125761443184828151811061441e57fe5b6020026020010151600360060154614518565b83828151811061443d57fe5b602002602001018181525050601a818154811061445657fe5b60009182526020918290200154604080517feb91d37e000000000000000000000000000000000000000000000000000000008152905173ffffffffffffffffffffffffffffffffffffffff9092169263eb91d37e92600480840193829003018186803b1580156144c557600080fd5b505afa1580156144d9573d6000803e3d6000fd5b505050506040513d60208110156144ef57600080fd5b505182518390839081106144ff57fe5b6020908102919091010152600101614406565b50909192565b600073ffffffffffffffffffffffffffffffffffffffff831661453d57506000612120565b8273ffffffffffffffffffffffffffffffffffffffff16636a70bf6d836040518263ffffffff1660e01b815260040180828152602001915050602060405180830381600087803b15801561459057600080fd5b505af11580156145a4573d6000803e3d6000fd5b505050506040513d60208110156145ba57600080fd5b50519050612120565b6145d0868685858561519c565b60068601548555600d8601546001860155600e860154600286015560038501849055600485018490556007860154848161460657fe5b046006860155600886015460058601548161461d57fe5b0460078601556009860154848161463057fe5b046008860155600a86015460058601548161464757fe5b046009860155505050601e90910180547fffffffffffffffffffffffffffffffffffffffffffffffffffffffffffffff001660011790555050565b600081600d015460001415614699575060006117c5565b600c8201546146ab57506127106117c5565b600d8201546000906146c59061271064e8d4a510006146fb565b9050826001015481106146de575050600e8101546117c5565b6001830154600e8401546146f39183906146fb565b9150506117c5565b600080821161476b57604080517f08c379a000000000000000000000000000000000000000000000000000000000815260206004820152601060248201527f4469766973696f6e206279207a65726f00000000000000000000000000000000604482015290519081900360640190fd5b8361477857506000614829565b8383028385828161478557fe5b04141561479e5782818161479557fe5b04915050614829565b60008386816147a957fe5b04905060008487816147b757fe5b06905060008587816147c557fe5b04905060008688816147d357fe5b0690506148216147ed886147e786856153c8565b9061543b565b61481b6147fa86866153c8565b61481b61480789876153c8565b61481b8d6148158c8b6153c8565b906153c8565b906154bc565b955050505050505b9392505050565b601c8101546000908190815b818110156148ca57600085601c01828154811061485557fe5b600091825260208083209091015473ffffffffffffffffffffffffffffffffffffffff16808352601b890190915260409091205490915080156148c0576000818152601560205260409020546fffffffffffffffffffffffffffffffff169590950194600194909401935b505060010161483c565b5050915091565b6000806000888a14156148eb575088915086905085614bf8565b6148f3615b8c565b88815260208101889052614905615bc9565b60208082018d905260408083018d90528051448184015242818301528151808203830181526060909101909152805191012060005b6020830151604084015161496c919081600181830301868161495857fe5b0601876000015188602001518f8f8f615530565b606087015260408601528084528a518b9190811061498657fe5b6020026020010151836060018181525050878360600151815181106149a757fe5b6020026020010151846080018181525050836060015184604001518560800151010190508e60021415614aa05760028106600282040160a0850181905280820360c0860152604085015110801590614a0257508b8460a00151115b15614a455782517fffffffffffffffffffffffffffffffffffffffffffffffffffffffffffffffff01604084015260608401516080850151016020850152614a9b565b8360c001518460600151118015614a5f57508a8460c00151115b15614a80578251600101602084015260408401516080850151018452614a9b565b50505160408201516060909201519094509092509050614bf8565b614bf3565b8e60011415614b4f576004810460a0850181905280820360c08601526040850151118015614ad157508b8460a00151115b15614b145782517fffffffffffffffffffffffffffffffffffffffffffffffffffffffffffffffff01604084015260608401516080850151016020850152614a9b565b8360c00151846060015110158015614a5f57508a8460c001511115614a80578251600101602084015260408401516080850151018452614a9b565b6004810460c08501819052810360a08501819052604085015110801590614b7957508b8460a00151115b15614bbc5782517fffffffffffffffffffffffffffffffffffffffffffffffffffffffffffffffff01604084015260608401516080850151016020850152614bf3565b8360c001518460600151118015614bd657508a8460c00151115b15614a805782516001016020840152604084015160808501510184525b61493a565b985098509895505050505050565b600083851415614c3e5781838681518110614c1d57fe5b602002602001015181518110614c2f57fe5b60200260200101519050614cc0565b600082848760010181518110614c5057fe5b602002602001015181518110614c6257fe5b602002602001015190506000808760020190505b868111614cba5784868281518110614c8a57fe5b602002602001015181518110614c9c57fe5b6020026020010151915082821015614cb2578192505b600101614c76565b50909150505b949350505050565b60008085888a0388028213614ce35789879250925050614d90565b600085878c81518110614cf257fe5b602002602001015181518110614d0457fe5b602090810291909101015190508a89016000815b60008c8e83030213614d8457898181518110614d3057fe5b6020026020010151915083898381518110614d4757fe5b60200260200101511415614d7d57878281518110614d6157fe5b602002602001015185039450614d7883828c6156fa565b918b01915b8b01614d18565b50508990039350909150505b97509795505050505050565b600080614da984846142c0565b90504281108015614cc0575083600501548101421115949350505050565b601e820154600090819062010000900460ff1615614dea57506000905080614fbc565b614e197f000000000000000000000000000000000000000000000000000000000000000084866000015461576a565b601985015490925060009067ffffffffffffffff81118015614e3a57600080fd5b50604051908082528060200260200182016040528015614e64578160200160208202803683370190505b50905060005b6019860154811015614ed557614eb6866019018281548110614e8857fe5b600091825260209091200154875473ffffffffffffffffffffffffffffffffffffffff90911690879061576a565b828281518110614ec257fe5b6020908102919091010152600101614e6a565b50614ee260038683615833565b9150600083118015614ef8575084600601548310155b80614f125750600082118015614f12575084600701548210155b604051806060016040528060268152602001615c856026913990614f91576040517f08c379a0000000000000000000000000000000000000000000000000000000008152602060048201818152835160248401528351909283926044909101919085019080838360008315610cba578181015183820152602001610ca2565b508460080154831115614fa657846008015492505b8460090154821115614fba57846009015491505b505b9250929050565b85546001908101808855600081815291880160205260408220614fe6888761594a565b815467ffffffffffffffff91909116700100000000000000000000000000000000027fffffffffffffffff0000000000000000ffffffffffffffffffffffffffffffff909116178155615039878661594a565b81546fffffffffffffffffffffffffffffffff86167fffffffffffffffffffffffffffffffff0000000000000000000000000000000067ffffffffffffffff9390931678010000000000000000000000000000000000000000000000000277ffffffffffffffffffffffffffffffffffffffffffffffff90921691909117919091161790556000818152600289016020526040902080547fffffffffffffffffffffffff0000000000000000000000000000000000000000163317905590509695505050505050565b601885015461512557600f85018490556012850184905560016018860155615150565b6012850180546000908152600180890160205260409091208690559085905560188601805490910190555b600a85015461515f90846154bc565b600a860155600b85015461517390836154bc565b600b86015560178501805490910190555050336000908152601b90920160205260409091205550565b82516151b19060198601906020860190615a5c565b5082516000808267ffffffffffffffff811180156151ce57600080fd5b506040519080825280602002602001820160405280156151f8578160200160208202803683370190505b50905060005b8381101561531457600073ffffffffffffffffffffffffffffffffffffffff1687828151811061522a57fe5b602002602001015173ffffffffffffffffffffffffffffffffffffffff1614156152535761530c565b60006152e486838151811061526457fe5b60200260200101518b60020160008b868151811061527e57fe5b602002602001015173ffffffffffffffffffffffffffffffffffffffff1673ffffffffffffffffffffffffffffffffffffffff168152602001908152602001600020548985815181106152cd57fe5b60200260200101516146fb9092919063ffffffff16565b9050808383815181106152f357fe5b602090810291909101015261530884826154bc565b9350505b6001016151fe565b50811561537f5760005b8381101561537d5761535e61535161271087848151811061533b57fe5b60200260200101516153c890919063ffffffff16565b848484815181106152cd57fe5b82828151811061536a57fe5b602090810291909101015260010161531e565b505b805161539490601a8901906020840190615bf1565b5060006153a2898988615833565b6005890181905590506153b5898261597b565b88600e0181905550505050505050505050565b6000826153d757506000612120565b828202828482816153e457fe5b041461211d576040517f08c379a0000000000000000000000000000000000000000000000000000000008152600401808060200182810382526021815260200180615c646021913960400191505060405180910390fd5b60008082116154ab57604080517f08c379a000000000000000000000000000000000000000000000000000000000815260206004820152601a60248201527f536166654d6174683a206469766973696f6e206279207a65726f000000000000604482015290519081900360640190fd5b8183816154b457fe5b049392505050565b60008282018381101561211d57604080517f08c379a000000000000000000000000000000000000000000000000000000000815260206004820152601b60248201527f536166654d6174683a206164646974696f6e206f766572666c6f770000000000604482015290519081900360640190fd5b60008060008085878b8151811061554357fe5b60200260200101518151811061555557fe5b602002602001015190506000600267ffffffffffffffff8111801561557957600080fd5b506040519080825280602002602001820160405280156155a3578160200160208202803683370190505b50905089816000815181106155b457fe5b60200260200101818152505088816001815181106155ce57fe5b60209081029190910101528c8c6155e68d828c6156fa565b81805b828110156156aa5760008c82815181106155ff57fe5b60200260200101519050868c828151811061561657fe5b6020026020010151101561566d578a818151811061563057fe5b60200260200101518660008151811061564557fe5b60200260200101818151019150818152505061566283838f6156fa565b6001909201916156a1565b8a818151811061567957fe5b60200260200101518660018151811061568e57fe5b6020026020010181815101915081815250505b506001016155e9565b506156b682828d6156fa565b80846000815181106156c457fe5b6020026020010151856001815181106156d957fe5b60200260200101519750975097505050505050985098509895505050505050565b8183141561570757611877565b600081848151811061571557fe5b6020026020010151905081838151811061572b57fe5b602002602001015182858151811061573f57fe5b6020026020010181815250508082848151811061575857fe5b60200260200101818152505050505050565b600073ffffffffffffffffffffffffffffffffffffffff841661578f57506000614829565b8373ffffffffffffffffffffffffffffffffffffffff1663e587497e84846040518363ffffffff1660e01b8152600401808373ffffffffffffffffffffffffffffffffffffffff16815260200182815260200192505050602060405180830381600087803b15801561580057600080fd5b505af1158015615814573d6000803e3d6000fd5b505050506040513d602081101561582a57600080fd5b50519050614829565b600080805b601985015481101561594157600073ffffffffffffffffffffffffffffffffffffffff1685601901828154811061586b57fe5b60009182526020909120015473ffffffffffffffffffffffffffffffffffffffff16141561589857615939565b6159366127106159268684815181106158ad57fe5b60200260200101518960020160008a60190187815481106158ca57fe5b600091825260208083209091015473ffffffffffffffffffffffffffffffffffffffff168352820192909252604001902054601a8a0180548790811061590c57fe5b90600052602060002001546146fb9092919063ffffffff16565b8161592d57fe5b849190046154bc565b91505b600101615838565b50949350505050565b6000811580615957575082155b1561596457506000612120565b6159748364e8d4a51000846146fb565b9050612120565b60008083600b01548310156159925750600061211d565b83600c015483106159a6575061138861211d565b600b840154600c8501546101f4919081900390850361119402816159c657fe5b0401949350505050565b828054600181600116156101000203166002900490600052602060002090601f016020900481019282615a065760008555615a4c565b82601f10615a1f57805160ff1916838001178555615a4c565b82800160010185558215615a4c579182015b82811115615a4c578251825591602001919060010190615a31565b50615a58929150615c2b565b5090565b828054828255906000526020600020908101928215615a4c579160200282015b82811115615a4c57825182547fffffffffffffffffffffffff00000000000000000000000000000000000000001673ffffffffffffffffffffffffffffffffffffffff909116178255602090920191600190910190615a7c565b604051806101e001604052806000815260200160008152602001600081526020016000815260200160008152602001600081526020016000815260200160008152602001600081526020016000815260200160008152602001600081526020016000815260200160008152602001600081525090565b828054828255906000526020600020908101928215615a4c5760005260206000209182015b82811115615a4c578254825591600101919060010190615b71565b6040518060e00160405280600081526020016000815260200160008152602001600081526020016000815260200160008152602001600081525090565b6040518060800160405280600081526020016000815260200160008152602001600081525090565b828054828255906000526020600020908101928215615a4c5791602002820182811115615a4c578251825591602001919060010190615a31565b5b80821115615a585760008155600101615c2c56fe507269636520616c72656164792072657665616c6564206f72206e6f742076616c6964536166654d6174683a206d756c7469706c69636174696f6e206f766572666c6f77496e73756666696369656e7420766f746520706f77657220746f207375626d697420766f7465a264697066735822122091a4ad4ae0d1ad9f0c95e0a39457041e1a534e60400bdedcdc1a12b8ce95953664736f6c63430007060033",
  "linkReferences": {},
  "deployedLinkReferences": {}
}