{
    "_format": "hh-sol-artifact-1",
    "contractName": "FtsoManager",
    "sourceName": "contracts/implementations/FtsoManager.sol",
    "abi": [
        {
            "inputs": [
                {
                    "internalType": "address",
                    "name": "_governance",
                    "type": "address"
                },
                {
                    "internalType": "contract IRewardManager",
                    "name": "_rewardManager",
                    "type": "address"
                },
                {
                    "internalType": "contract IPriceSubmitter",
                    "name": "_priceSubmitter",
                    "type": "address"
                },
                {
                    "internalType": "uint256",
                    "name": "_priceEpochDurationSec",
                    "type": "uint256"
                },
                {
                    "internalType": "uint256",
                    "name": "_firstEpochStartTs",
                    "type": "uint256"
                },
                {
                    "internalType": "uint256",
                    "name": "_revealEpochDurationSec",
                    "type": "uint256"
                },
                {
                    "internalType": "uint256",
                    "name": "_rewardEpochDurationSec",
                    "type": "uint256"
                },
                {
                    "internalType": "uint256",
                    "name": "_rewardEpochsStartTs",
                    "type": "uint256"
                },
                {
                    "internalType": "uint256",
                    "name": "_votePowerBoundaryFraction",
                    "type": "uint256"
                }
            ],
            "stateMutability": "nonpayable",
            "type": "constructor"
        },
        {
            "anonymous": false,
            "inputs": [
                {
                    "indexed": false,
                    "internalType": "contract IIFtso",
                    "name": "ftso",
                    "type": "address"
                },
                {
                    "indexed": false,
                    "internalType": "bool",
                    "name": "add",
                    "type": "bool"
                }
            ],
            "name": "FtsoAdded",
            "type": "event"
        },
        {
            "anonymous": false,
            "inputs": [
                {
                    "indexed": false,
                    "internalType": "address",
                    "name": "oldGovernance",
                    "type": "address"
                },
                {
                    "indexed": false,
                    "internalType": "address",
                    "name": "newGoveranance",
                    "type": "address"
                }
            ],
            "name": "GovernanceUpdated",
            "type": "event"
        },
        {
            "anonymous": false,
            "inputs": [
                {
                    "indexed": false,
                    "internalType": "uint256",
                    "name": "blockNumber",
                    "type": "uint256"
                },
                {
                    "indexed": false,
                    "internalType": "uint256",
                    "name": "timestamp",
                    "type": "uint256"
                }
            ],
            "name": "KeepTrigger",
            "type": "event"
        },
        {
            "anonymous": false,
            "inputs": [
                {
                    "indexed": false,
                    "internalType": "address",
                    "name": "chosenFtso",
                    "type": "address"
                },
                {
                    "indexed": false,
                    "internalType": "uint256",
                    "name": "rewardEpochId",
                    "type": "uint256"
                }
            ],
            "name": "PriceEpochFinalized",
            "type": "event"
        },
        {
            "anonymous": false,
            "inputs": [
                {
                    "indexed": false,
                    "internalType": "uint256",
                    "name": "votepowerBlock",
                    "type": "uint256"
                },
                {
                    "indexed": false,
                    "internalType": "uint256",
                    "name": "startBlock",
                    "type": "uint256"
                }
            ],
            "name": "RewardEpochFinalized",
            "type": "event"
        },
        {
            "inputs": [],
            "name": "activate",
            "outputs": [],
            "stateMutability": "nonpayable",
            "type": "function"
        },
        {
            "inputs": [
                {
                    "internalType": "contract IIFtso",
                    "name": "_ftso",
                    "type": "address"
                }
            ],
            "name": "addFtso",
            "outputs": [],
            "stateMutability": "nonpayable",
            "type": "function"
        },
        {
            "inputs": [],
            "name": "claimGovernance",
            "outputs": [],
            "stateMutability": "nonpayable",
            "type": "function"
        },
        {
            "inputs": [],
            "name": "deactivate",
            "outputs": [],
            "stateMutability": "nonpayable",
            "type": "function"
        },
        {
            "inputs": [
                {
                    "internalType": "address",
                    "name": "",
                    "type": "address"
                }
            ],
            "name": "ftsoInPanicMode",
            "outputs": [
                {
                    "internalType": "bool",
                    "name": "",
                    "type": "bool"
                }
            ],
            "stateMutability": "view",
            "type": "function"
        },
        {
            "inputs": [],
            "name": "getCurrentPriceEpochData",
            "outputs": [
                {
                    "internalType": "uint256",
                    "name": "priceEpochId",
                    "type": "uint256"
                },
                {
                    "internalType": "uint256",
                    "name": "priceEpochStartTimestamp",
                    "type": "uint256"
                },
                {
                    "internalType": "uint256",
                    "name": "priceEpochEndTimestamp",
                    "type": "uint256"
                },
                {
                    "internalType": "uint256",
                    "name": "priceEpochRevealEndTimestamp",
                    "type": "uint256"
                },
                {
                    "internalType": "uint256",
                    "name": "currentTimestamp",
                    "type": "uint256"
                }
            ],
            "stateMutability": "view",
            "type": "function"
        },
        {
            "inputs": [],
            "name": "getCurrentRewardEpoch",
            "outputs": [
                {
                    "internalType": "uint256",
                    "name": "",
                    "type": "uint256"
                }
            ],
            "stateMutability": "view",
            "type": "function"
        },
        {
            "inputs": [],
            "name": "getFtsos",
            "outputs": [
                {
                    "internalType": "contract IIFtso[]",
                    "name": "_ftsos",
                    "type": "address[]"
                }
            ],
            "stateMutability": "view",
            "type": "function"
        },
        {
            "inputs": [],
            "name": "getPriceEpochConfiguration",
            "outputs": [
                {
                    "internalType": "uint256",
                    "name": "_firstPriceEpochStartTs",
                    "type": "uint256"
                },
                {
                    "internalType": "uint256",
                    "name": "_priceEpochDurationSec",
                    "type": "uint256"
                },
                {
                    "internalType": "uint256",
                    "name": "_revealEpochDurationSec",
                    "type": "uint256"
                }
            ],
            "stateMutability": "view",
            "type": "function"
        },
        {
            "inputs": [],
            "name": "governance",
            "outputs": [
                {
                    "internalType": "address",
                    "name": "",
                    "type": "address"
                }
            ],
            "stateMutability": "view",
            "type": "function"
        },
        {
            "inputs": [
                {
                    "internalType": "address",
                    "name": "_governance",
                    "type": "address"
                }
            ],
            "name": "initialise",
            "outputs": [],
            "stateMutability": "nonpayable",
            "type": "function"
        },
        {
            "inputs": [],
            "name": "keep",
            "outputs": [
                {
                    "internalType": "bool",
                    "name": "",
                    "type": "bool"
                }
            ],
            "stateMutability": "nonpayable",
            "type": "function"
        },
        {
            "inputs": [],
            "name": "lastUnprocessedPriceEpoch",
            "outputs": [
                {
                    "internalType": "uint256",
                    "name": "",
                    "type": "uint256"
                }
            ],
            "stateMutability": "view",
            "type": "function"
        },
        {
            "inputs": [],
            "name": "panicMode",
            "outputs": [
                {
                    "internalType": "bool",
                    "name": "",
                    "type": "bool"
                }
            ],
            "stateMutability": "view",
            "type": "function"
        },
        {
            "inputs": [
                {
                    "internalType": "uint256",
                    "name": "",
                    "type": "uint256"
                }
            ],
            "name": "priceEpochs",
            "outputs": [
                {
                    "internalType": "address",
                    "name": "chosenFtso",
                    "type": "address"
                },
                {
                    "internalType": "uint256",
                    "name": "rewardEpochId",
                    "type": "uint256"
                },
                {
                    "internalType": "bool",
                    "name": "rewardDistributed",
                    "type": "bool"
                }
            ],
            "stateMutability": "view",
            "type": "function"
        },
        {
            "inputs": [],
            "name": "priceSubmitter",
            "outputs": [
                {
                    "internalType": "contract IPriceSubmitter",
                    "name": "",
                    "type": "address"
                }
            ],
            "stateMutability": "view",
            "type": "function"
        },
        {
            "inputs": [
                {
                    "internalType": "address",
                    "name": "_governance",
                    "type": "address"
                }
            ],
            "name": "proposeGovernance",
            "outputs": [],
            "stateMutability": "nonpayable",
            "type": "function"
        },
        {
            "inputs": [],
            "name": "proposedGovernance",
            "outputs": [
                {
                    "internalType": "address",
                    "name": "",
                    "type": "address"
                }
            ],
            "stateMutability": "view",
            "type": "function"
        },
        {
            "inputs": [
                {
                    "internalType": "contract IIFtso",
                    "name": "_ftso",
                    "type": "address"
                }
            ],
            "name": "removeFtso",
            "outputs": [],
            "stateMutability": "nonpayable",
            "type": "function"
        },
        {
            "inputs": [],
            "name": "rewardEpochDurationSec",
            "outputs": [
                {
                    "internalType": "uint256",
                    "name": "",
                    "type": "uint256"
                }
            ],
            "stateMutability": "view",
            "type": "function"
        },
        {
            "inputs": [
                {
                    "internalType": "uint256",
                    "name": "",
                    "type": "uint256"
                }
            ],
            "name": "rewardEpochs",
            "outputs": [
                {
                    "internalType": "uint256",
                    "name": "votepowerBlock",
                    "type": "uint256"
                },
                {
                    "internalType": "uint256",
                    "name": "startBlock",
                    "type": "uint256"
                }
            ],
            "stateMutability": "view",
            "type": "function"
        },
        {
            "inputs": [],
            "name": "rewardEpochsStartTs",
            "outputs": [
                {
                    "internalType": "uint256",
                    "name": "",
                    "type": "uint256"
                }
            ],
            "stateMutability": "view",
            "type": "function"
        },
        {
            "inputs": [
                {
                    "internalType": "contract IIFtso",
                    "name": "_ftso",
                    "type": "address"
                },
                {
                    "internalType": "contract IFAsset",
                    "name": "_fAsset",
                    "type": "address"
                }
            ],
            "name": "setFtsoFAsset",
            "outputs": [],
            "stateMutability": "nonpayable",
            "type": "function"
        },
        {
            "inputs": [
                {
                    "internalType": "contract IIFtso",
                    "name": "_ftso",
                    "type": "address"
                },
                {
                    "internalType": "contract IIFtso[]",
                    "name": "_fAssetFtsos",
                    "type": "address[]"
                }
            ],
            "name": "setFtsoFAssetFtsos",
            "outputs": [],
            "stateMutability": "nonpayable",
            "type": "function"
        },
        {
            "inputs": [
                {
                    "internalType": "contract IIFtso",
                    "name": "_ftso",
                    "type": "address"
                },
                {
                    "internalType": "bool",
                    "name": "_panicMode",
                    "type": "bool"
                }
            ],
            "name": "setFtsoPanicMode",
            "outputs": [],
            "stateMutability": "nonpayable",
            "type": "function"
        },
        {
            "inputs": [
                {
                    "internalType": "uint256",
                    "name": "_minVotePowerFlrThreshold",
                    "type": "uint256"
                },
                {
                    "internalType": "uint256",
                    "name": "_minVotePowerAssetThreshold",
                    "type": "uint256"
                },
                {
                    "internalType": "uint256",
                    "name": "_maxVotePowerFlrThreshold",
                    "type": "uint256"
                },
                {
                    "internalType": "uint256",
                    "name": "_maxVotePowerAssetThreshold",
                    "type": "uint256"
                },
                {
                    "internalType": "uint256",
                    "name": "_lowAssetUSDThreshold",
                    "type": "uint256"
                },
                {
                    "internalType": "uint256",
                    "name": "_highAssetUSDThreshold",
                    "type": "uint256"
                },
                {
                    "internalType": "uint256",
                    "name": "_highAssetTurnoutBIPSThreshold",
                    "type": "uint256"
                },
                {
                    "internalType": "uint256",
                    "name": "_lowFlrTurnoutBIPSThreshold",
                    "type": "uint256"
                },
                {
                    "internalType": "address[]",
                    "name": "_trustedAddresses",
                    "type": "address[]"
                }
            ],
            "name": "setGovernanceParameters",
            "outputs": [],
            "stateMutability": "nonpayable",
            "type": "function"
        },
        {
            "inputs": [
                {
                    "internalType": "bool",
                    "name": "_panicMode",
                    "type": "bool"
                }
            ],
            "name": "setPanicMode",
            "outputs": [],
            "stateMutability": "nonpayable",
            "type": "function"
        },
        {
            "inputs": [],
            "name": "settings",
            "outputs": [
                {
                    "internalType": "uint256",
                    "name": "votePowerBlock",
                    "type": "uint256"
                },
                {
                    "internalType": "uint256",
                    "name": "minVotePowerFlrThreshold",
                    "type": "uint256"
                },
                {
                    "internalType": "uint256",
                    "name": "minVotePowerAssetThreshold",
                    "type": "uint256"
                },
                {
                    "internalType": "uint256",
                    "name": "maxVotePowerFlrThreshold",
                    "type": "uint256"
                },
                {
                    "internalType": "uint256",
                    "name": "maxVotePowerAssetThreshold",
                    "type": "uint256"
                },
                {
                    "internalType": "uint256",
                    "name": "lowAssetUSDThreshold",
                    "type": "uint256"
                },
                {
                    "internalType": "uint256",
                    "name": "highAssetUSDThreshold",
                    "type": "uint256"
                },
                {
                    "internalType": "uint256",
                    "name": "highAssetTurnoutBIPSThreshold",
                    "type": "uint256"
                },
                {
                    "internalType": "uint256",
                    "name": "lowFlrTurnoutBIPSThreshold",
                    "type": "uint256"
                },
                {
                    "internalType": "bool",
                    "name": "changed",
                    "type": "bool"
                },
                {
                    "internalType": "bool",
                    "name": "initialized",
                    "type": "bool"
                }
            ],
            "stateMutability": "view",
            "type": "function"
        }
    ],
    "bytecode": "0x6101406040523480156200001257600080fd5b5060405162003bc738038062003bc783398181016040526101208110156200003957600080fd5b508051602082015160408301516060840151608085015160a086015160c087015160e088015161010090980151969795969495939492939192909190886001600160a01b0381161562000091576200009181620002d8565b5060408051808201909152600e81526d05265776172642065706f636820360941b602082015283620001445760405162461bcd60e51b81526004018080602001828103825283818151815260200191508051906020019080838360005b8381101562000108578181015183820152602001620000ee565b50505050905090810190601f168015620001365780820380516001836020036101000a031916815260200191505b509250505060405180910390fd5b5060408051808201909152600d81526c050726963652065706f6368203609c1b602082015286620001b85760405162461bcd60e51b815260206004820181815283516024840152835190928392604490910191908501908083836000831562000108578181015183820152602001620000ee565b5060408051808201909152601381527f46697273742065706f63682073746172742030000000000000000000000000006020820152856200023c5760405162461bcd60e51b815260206004820181815283516024840152835190928392604490910191908501908083836000831562000108578181015183820152602001620000ee565b5060e08390526000601255610100829052818301601355608085905260a086905260c08490528542869003816200026f57fe5b04600f819055600101959095029390930160108190556011555050506014556017805460609290921b6001600160601b03191661012052600160a01b6001600160a01b03199092166001600160a01b03939093169290921760ff60a01b191617905550620003b5565b600154600160a01b900460ff161562000338576040805162461bcd60e51b815260206004820152601460248201527f696e697469616c6973656420213d2066616c7365000000000000000000000000604482015290519081900360640190fd5b6001805460ff60a01b1916600160a01b179055600054604080516001600160a01b039283168152918316602083015280517f434a2db650703b36c824e745330d6397cdaa9ee2cc891a4938ae853e1c50b68d9281900390910190a1600080546001600160a01b0319166001600160a01b0392909216919091179055565b60805160a05160c05160e051610100516101205160601c6137756200045260003980610d475280611fc7525080611879525080611d7952806125515280613357525080610a2d5280610dbb52806116e15280611f4f525080610a0c5280610d9552806116b052806124695280612d51528061302652806136525250806109eb5280610d6f528061168f528061248a528061362c52506137756000f3fe608060405234801561001057600080fd5b50600436106101c45760003560e01c8063a578f55b116100f9578063d86323f611610097578063e4d06d8211610071578063e4d06d82146106f6578063e7c830d4146106fe578063f0efd82814610706578063f937d6ad14610739576101c4565b8063d86323f614610651578063d8a8582714610659578063e06174e414610694576101c4565b8063af8fac5c116100d3578063af8fac5c14610556578063bcf51016146105aa578063c373a08e146105c6578063ce69f833146105f9576101c4565b8063a578f55b146104e5578063a670ff87146104ed578063a795f40914610520576101c4565b80635aa6e675116101665780636789516311610140578063678951631461038f57806393a79025146104655780639d6a890f14610498578063a50df172146104cb576101c4565b80635aa6e6751461034e5780635d36b1901461037f57806360f7ac9714610387576101c4565b80632663f1b4116101a25780632663f1b4146102345780632e85ddda1461026757806351b42b001461032757806358fb4cab1461032f576101c4565b80630869e0d5146101c95780630f15f4c014610206578063144e15911461020e575b600080fd5b610204600480360360408110156101df57600080fd5b5073ffffffffffffffffffffffffffffffffffffffff81351690602001351515610741565b005b610204610921565b6102166109e9565b60408051938452602084019290925282820152519081900360600190f35b6102046004803603602081101561024a57600080fd5b503573ffffffffffffffffffffffffffffffffffffffff16610a51565b6102046004803603604081101561027d57600080fd5b73ffffffffffffffffffffffffffffffffffffffff82351691908101906040810160208201356401000000008111156102b557600080fd5b8201836020820111156102c757600080fd5b803590602001918460208302840111640100000000831117156102e957600080fd5b9190808060200260200160405190810160405280939291908181526020018383602002808284376000920191909152509295506111a2945050505050565b6102046112f4565b6102046004803603602081101561034557600080fd5b503515156113a4565b610356611475565b6040805173ffffffffffffffffffffffffffffffffffffffff9092168252519081900360200190f35b610204611491565b6103566115b9565b61020460048036036101208110156103a657600080fd5b81359160208101359160408201359160608101359160808201359160a08101359160c08201359160e08101359181019061012081016101008201356401000000008111156103f357600080fd5b82018360208201111561040557600080fd5b8035906020019184602083028401116401000000008311171561042757600080fd5b9190808060200260200160405190810160405280939291908181526020018383602002808284376000920191909152509295506115d5945050505050565b61046d611679565b6040805195865260208601949094528484019290925260608401526080830152519081900360a00190f35b610204600480360360208110156104ae57600080fd5b503573ffffffffffffffffffffffffffffffffffffffff1661170c565b6104d3611871565b60408051918252519081900360200190f35b6104d3611877565b6102046004803603602081101561050357600080fd5b503573ffffffffffffffffffffffffffffffffffffffff1661189b565b61053d6004803603602081101561053657600080fd5b5035611baf565b6040805192835260208301919091528051918290030190f35b6105736004803603602081101561056c57600080fd5b5035611bdd565b6040805173ffffffffffffffffffffffffffffffffffffffff90941684526020840192909252151582820152519081900360600190f35b6105b2611c18565b604080519115158252519081900360200190f35b610204600480360360208110156105dc57600080fd5b503573ffffffffffffffffffffffffffffffffffffffff16611c3a565b610601611d07565b60408051602080825283518183015283519192839290830191858101910280838360005b8381101561063d578181015183820152602001610625565b505050509050019250505060405180910390f35b6104d3611d77565b6102046004803603604081101561066f57600080fd5b5073ffffffffffffffffffffffffffffffffffffffff81358116916020013516611d9b565b61069c611e8a565b604080519b8c5260208c019a909a528a8a019890985260608a0196909652608089019490945260a088019290925260c087015260e08601526101008501521515610120840152151561014083015251908190036101600190f35b6105b2611eb7565b6104d3611faa565b6105b26004803603602081101561071c57600080fd5b503573ffffffffffffffffffffffffffffffffffffffff16611fb0565b610356611fc5565b60005473ffffffffffffffffffffffffffffffffffffffff1633146107c757604080517f08c379a000000000000000000000000000000000000000000000000000000000815260206004820152600f60248201527f6f6e6c7920676f7665726e616e63650000000000000000000000000000000000604482015290519081900360640190fd5b73ffffffffffffffffffffffffffffffffffffffff8216600090815260166020908152604091829020548251808401909352600983527f6e6f7420666f756e6400000000000000000000000000000000000000000000009183019190915260ff166108ca576040517f08c379a00000000000000000000000000000000000000000000000000000000081526004018080602001828103825283818151815260200191508051906020019080838360005b8381101561088f578181015183820152602001610877565b50505050905090810190601f1680156108bc5780820380516001836020036101000a031916815260200191505b509250505060405180910390fd5b5073ffffffffffffffffffffffffffffffffffffffff91909116600090815260186020526040902080547fffffffffffffffffffffffffffffffffffffffffffffffffffffffffffffff0016911515919091179055565b60005473ffffffffffffffffffffffffffffffffffffffff1633146109a757604080517f08c379a000000000000000000000000000000000000000000000000000000000815260206004820152600f60248201527f6f6e6c7920676f7665726e616e63650000000000000000000000000000000000604482015290519081900360640190fd5b600180547fffffffffffffffffffff00ffffffffffffffffffffffffffffffffffffffffff167501000000000000000000000000000000000000000000179055565b7f00000000000000000000000000000000000000000000000000000000000000007f00000000000000000000000000000000000000000000000000000000000000007f0000000000000000000000000000000000000000000000000000000000000000909192565b60005473ffffffffffffffffffffffffffffffffffffffff163314610ad757604080517f08c379a000000000000000000000000000000000000000000000000000000000815260206004820152600f60248201527f6f6e6c7920676f7665726e616e63650000000000000000000000000000000000604482015290519081900360640190fd5b600e5460408051808201909152601b81527f676f762e20706172616d73206e6f7420696e697469616c697a65640000000000602082015290610100900460ff16610b7c576040517f08c379a000000000000000000000000000000000000000000000000000000000815260206004820181815283516024840152835190928392604490910191908501908083836000831561088f578181015183820152602001610877565b50610cb28173ffffffffffffffffffffffffffffffffffffffff1663f1c464916040518163ffffffff1660e01b815260040160006040518083038186803b158015610bc657600080fd5b505afa158015610bda573d6000803e3d6000fd5b505050506040513d6000823e601f3d9081017fffffffffffffffffffffffffffffffffffffffffffffffffffffffffffffffe01682016040526020811015610c2157600080fd5b8101908080516040519392919084640100000000821115610c4157600080fd5b908301906020820185811115610c5657600080fd5b8251866020820283011164010000000082111715610c7357600080fd5b82525081516020918201928201910280838360005b83811015610ca0578181015183820152602001610c88565b50505050905001604052505050611fe9565b60155460005b81811015610d085760158181548110610ccd57fe5b60009182526020909120015473ffffffffffffffffffffffffffffffffffffffff84811691161415610d0057505061119f565b600101610cb8565b50604080517fdbdb0f4b00000000000000000000000000000000000000000000000000000000815273ffffffffffffffffffffffffffffffffffffffff7f0000000000000000000000000000000000000000000000000000000000000000811660048301527f000000000000000000000000000000000000000000000000000000000000000060248301527f000000000000000000000000000000000000000000000000000000000000000060448301527f0000000000000000000000000000000000000000000000000000000000000000606483015291519184169163dbdb0f4b9160848082019260009290919082900301818387803b158015610e0c57600080fd5b505af1158015610e20573d6000803e3d6000fd5b505060175474010000000000000000000000000000000000000000900460ff169150610ed49050578173ffffffffffffffffffffffffffffffffffffffff1663e536f396600260125481548110610e7357fe5b9060005260206000209060020201600001546040518263ffffffff1660e01b815260040180828152602001915050600060405180830381600087803b158015610ebb57600080fd5b505af1158015610ecf573d6000803e3d6000fd5b505050505b8173ffffffffffffffffffffffffffffffffffffffff16635a3c9d8e600460010154600460020154600460030154600480015460046005015460046006015460046007015460046008015460046009016040518a63ffffffff1660e01b8152600401808a8152602001898152602001888152602001878152602001868152602001858152602001848152602001838152602001806020018281038252838181548152602001915080548015610fbf57602002820191906000526020600020905b815473ffffffffffffffffffffffffffffffffffffffff168152600190910190602001808311610f94575b50509a5050505050505050505050600060405180830381600087803b158015610fe757600080fd5b505af1158015610ffb573d6000803e3d6000fd5b505060175473ffffffffffffffffffffffffffffffffffffffff8516925063fd00e53991507501000000000000000000000000000000000000000000900460ff168061106c575073ffffffffffffffffffffffffffffffffffffffff841660009081526018602052604090205460ff165b6040518263ffffffff1660e01b8152600401808215158152602001915050600060405180830381600087803b1580156110a457600080fd5b505af11580156110b8573d6000803e3d6000fd5b50506015805460018082019092557f55f448fdea98c4d29eb340757ef0a66cd03dbb9538908a6a81d96026b71ec4750180547fffffffffffffffffffffffff00000000000000000000000000000000000000001673ffffffffffffffffffffffffffffffffffffffff871690811790915560008181526016602090815260409182902080547fffffffffffffffffffffffffffffffffffffffffffffffffffffffffffffff001685179055815192835282019290925281517fa0985424f2efdcae4b57a7c84bbf0a0b19f93054f21e9eb1cfcd5a59813fe1da9450908190039091019150a1505b50565b60005473ffffffffffffffffffffffffffffffffffffffff16331461122857604080517f08c379a000000000000000000000000000000000000000000000000000000000815260206004820152600f60248201527f6f6e6c7920676f7665726e616e63650000000000000000000000000000000000604482015290519081900360640190fd5b61123181611fe9565b6040517f70f391aa00000000000000000000000000000000000000000000000000000000815260206004820181815283516024840152835173ffffffffffffffffffffffffffffffffffffffff8616936370f391aa93869392839260440191808601910280838360005b838110156112b357818101518382015260200161129b565b5050505090500192505050600060405180830381600087803b1580156112d857600080fd5b505af11580156112ec573d6000803e3d6000fd5b505050505050565b60005473ffffffffffffffffffffffffffffffffffffffff16331461137a57604080517f08c379a000000000000000000000000000000000000000000000000000000000815260206004820152600f60248201527f6f6e6c7920676f7665726e616e63650000000000000000000000000000000000604482015290519081900360640190fd5b600180547fffffffffffffffffffff00ffffffffffffffffffffffffffffffffffffffffff169055565b60005473ffffffffffffffffffffffffffffffffffffffff16331461142a57604080517f08c379a000000000000000000000000000000000000000000000000000000000815260206004820152600f60248201527f6f6e6c7920676f7665726e616e63650000000000000000000000000000000000604482015290519081900360640190fd5b601780549115157501000000000000000000000000000000000000000000027fffffffffffffffffffff00ffffffffffffffffffffffffffffffffffffffffff909216919091179055565b60005473ffffffffffffffffffffffffffffffffffffffff1681565b60015473ffffffffffffffffffffffffffffffffffffffff16331461151757604080517f08c379a000000000000000000000000000000000000000000000000000000000815260206004820152600d60248201527f6e6f7420636c61696d61696e7400000000000000000000000000000000000000604482015290519081900360640190fd5b6000546001546040805173ffffffffffffffffffffffffffffffffffffffff938416815292909116602083015280517f434a2db650703b36c824e745330d6397cdaa9ee2cc891a4938ae853e1c50b68d9281900390910190a1600154600080547fffffffffffffffffffffffff00000000000000000000000000000000000000001673ffffffffffffffffffffffffffffffffffffffff909216919091179055565b60015473ffffffffffffffffffffffffffffffffffffffff1681565b60005473ffffffffffffffffffffffffffffffffffffffff16331461165b57604080517f08c379a000000000000000000000000000000000000000000000000000000000815260206004820152600f60248201527f6f6e6c7920676f7665726e616e63650000000000000000000000000000000000604482015290519081900360640190fd5b61166e60048a8a8a8a8a8a8a8a8a6120c5565b505050505050505050565b60008060008060008061168a612465565b9550507f00000000000000000000000000000000000000000000000000000000000000007f0000000000000000000000000000000000000000000000000000000000000000808702820195506001870102019250507f000000000000000000000000000000000000000000000000000000000000000082019050429091929394565b60015474010000000000000000000000000000000000000000900460ff161561179657604080517f08c379a000000000000000000000000000000000000000000000000000000000815260206004820152601460248201527f696e697469616c6973656420213d2066616c7365000000000000000000000000604482015290519081900360640190fd5b600180547fffffffffffffffffffffff00ffffffffffffffffffffffffffffffffffffffff16740100000000000000000000000000000000000000001790556000546040805173ffffffffffffffffffffffffffffffffffffffff9283168152918316602083015280517f434a2db650703b36c824e745330d6397cdaa9ee2cc891a4938ae853e1c50b68d9281900390910190a1600080547fffffffffffffffffffffffff00000000000000000000000000000000000000001673ffffffffffffffffffffffffffffffffffffffff92909216919091179055565b600f5481565b7f000000000000000000000000000000000000000000000000000000000000000081565b60005473ffffffffffffffffffffffffffffffffffffffff16331461192157604080517f08c379a000000000000000000000000000000000000000000000000000000000815260206004820152600f60248201527f6f6e6c7920676f7665726e616e63650000000000000000000000000000000000604482015290519081900360640190fd5b60155460005b81811015611b1c576015818154811061193c57fe5b60009182526020909120015473ffffffffffffffffffffffffffffffffffffffff84811691161415611b14576015600183038154811061197857fe5b6000918252602090912001546015805473ffffffffffffffffffffffffffffffffffffffff90921691839081106119ab57fe5b9060005260206000200160006101000a81548173ffffffffffffffffffffffffffffffffffffffff021916908373ffffffffffffffffffffffffffffffffffffffff16021790555060158054806119fe57fe5b6000828152602080822083017fffffffffffffffffffffffffffffffffffffffffffffffffffffffffffffffff90810180547fffffffffffffffffffffffff000000000000000000000000000000000000000016905590920190925573ffffffffffffffffffffffffffffffffffffffff8516825260188152604080832080547fffffffffffffffffffffffffffffffffffffffffffffffffffffffffffffff00908116909155601690925290912080549091169055611abc6124b8565b6040805173ffffffffffffffffffffffffffffffffffffffff851681526000602082015281517fa0985424f2efdcae4b57a7c84bbf0a0b19f93054f21e9eb1cfcd5a59813fe1da929181900390910190a1505061119f565b600101611927565b50604080518082018252600981527f6e6f7420666f756e640000000000000000000000000000000000000000000000602080830191825292517f08c379a0000000000000000000000000000000000000000000000000000000008152600481019384528251602482015282519293928392604490920191908083836000831561088f578181015183820152602001610877565b60028181548110611bbf57600080fd5b60009182526020909120600290910201805460019091015490915082565b60036020526000908152604090208054600182015460029092015473ffffffffffffffffffffffffffffffffffffffff909116919060ff1683565b6017547501000000000000000000000000000000000000000000900460ff1681565b60005473ffffffffffffffffffffffffffffffffffffffff163314611cc057604080517f08c379a000000000000000000000000000000000000000000000000000000000815260206004820152600f60248201527f6f6e6c7920676f7665726e616e63650000000000000000000000000000000000604482015290519081900360640190fd5b600180547fffffffffffffffffffffffff00000000000000000000000000000000000000001673ffffffffffffffffffffffffffffffffffffffff92909216919091179055565b60606015805480602002602001604051908101604052809291908181526020018280548015611d6c57602002820191906000526020600020905b815473ffffffffffffffffffffffffffffffffffffffff168152600190910190602001808311611d41575b505050505090505b90565b7f000000000000000000000000000000000000000000000000000000000000000081565b60005473ffffffffffffffffffffffffffffffffffffffff163314611e2157604080517f08c379a000000000000000000000000000000000000000000000000000000000815260206004820152600f60248201527f6f6e6c7920676f7665726e616e63650000000000000000000000000000000000604482015290519081900360640190fd5b8173ffffffffffffffffffffffffffffffffffffffff16632ab0cb7d826040518263ffffffff1660e01b8152600401808273ffffffffffffffffffffffffffffffffffffffff168152602001915050600060405180830381600087803b1580156112d857600080fd5b600454600554600654600754600854600954600a54600b54600c54600e5460ff808216916101009004168b565b6040805143815242602082015281516000927fac4261462329304a0e5cab36474b796aa89296a06194be845190993b11bbc277928290030190a16001547501000000000000000000000000000000000000000000900460ff16611f1c57506000611d74565b60175474010000000000000000000000000000000000000000900460ff1615611f4c57611f4761254f565b611fa4565b427f0000000000000000000000000000000000000000000000000000000000000000601054011015611f8057611f806126fe565b426013541015611f9257611f9261304a565b426011541015611fa457611fa461337e565b50600190565b60125490565b60186020526000908152604090205460ff1681565b7f000000000000000000000000000000000000000000000000000000000000000081565b805160005b818110156120c0576016600084838151811061200657fe5b60209081029190910181015173ffffffffffffffffffffffffffffffffffffffff1682528101919091526040016000205460ff166120b857604051806060016040528060278152602001613719602791396040517f08c379a000000000000000000000000000000000000000000000000000000000815260206004820181815283516024840152835190928392604490910191908501908083836000831561088f578181015183820152602001610877565b600101611fee565b505050565b888a600101541461210657600a8a0180547fffffffffffffffffffffffffffffffffffffffffffffffffffffffffffffff001660019081179091558a018990555b878a600201541461214657600a8a0180547fffffffffffffffffffffffffffffffffffffffffffffffffffffffffffffff0016600117905560028a018890555b868a600301541461218657600a8a0180547fffffffffffffffffffffffffffffffffffffffffffffffffffffffffffffff0016600117905560038a018790555b858a60040154146121c657600a8a0180547fffffffffffffffffffffffffffffffffffffffffffffffffffffffffffffff0016600117905560048a018690555b848a600501541461220657600a8a0180547fffffffffffffffffffffffffffffffffffffffffffffffffffffffffffffff0016600117905560058a018590555b838a600601541461224657600a8a0180547fffffffffffffffffffffffffffffffffffffffffffffffffffffffffffffff0016600117905560068a018490555b828a600701541461228657600a8a0180547fffffffffffffffffffffffffffffffffffffffffffffffffffffffffffffff0016600117905560078a018390555b818a60080154146122c657600a8a0180547fffffffffffffffffffffffffffffffffffffffffffffffffffffffffffffff0016600117905560088a018290555b805160098b01541461231a5780516122e79060098c01906020840190613679565b50600a8a0180547fffffffffffffffffffffffffffffffffffffffffffffffffffffffffffffff0016600117905561242b565b60005b81518110156124295781818151811061233257fe5b602002602001015173ffffffffffffffffffffffffffffffffffffffff168b600901828154811061235f57fe5b60009182526020909120015473ffffffffffffffffffffffffffffffffffffffff161461242157600a8b0180547fffffffffffffffffffffffffffffffffffffffffffffffffffffffffffffff0016600117905581518290829081106123c157fe5b60200260200101518b60090182815481106123d857fe5b9060005260206000200160006101000a81548173ffffffffffffffffffffffffffffffffffffffff021916908373ffffffffffffffffffffffffffffffffffffffff1602179055505b60010161231d565b505b505050600a90960180547fffffffffffffffffffffffffffffffffffffffffffffffffffffffffffff00ff16610100179055505050505050565b60007f00000000000000000000000000000000000000000000000000000000000000007f00000000000000000000000000000000000000000000000000000000000000004203816124b257fe5b04905090565b60155460005b8181101561254b57612543601582815481106124d657fe5b6000918252602082200154604080517ff1c46491000000000000000000000000000000000000000000000000000000008152905173ffffffffffffffffffffffffffffffffffffffff9092169263f1c4649192600480840193829003018186803b158015610bc657600080fd5b6001016124be565b5050565b7f00000000000000000000000000000000000000000000000000000000000000006013540342106126fc57601554604080518082019091527fffffffffffffffffffffffffffffffffffffffffffffffffffffffffffffffff439081018252602082019081526002805460018101825560008281528451919092027f405787fa12a823e0f2b7631cc41b3ba8828b3321ca811111fa75cd3aa3bb5ace81019190915591517f405787fa12a823e0f2b7631cc41b3ba8828b3321ca811111fa75cd3aa3bb5acf9092019190915560128190555b828110156126d0576015818154811061263657fe5b60009182526020822001548351604080517fe536f39600000000000000000000000000000000000000000000000000000000815260048101929092525173ffffffffffffffffffffffffffffffffffffffff9092169263e536f3969260248084019382900301818387803b1580156126ad57600080fd5b505af11580156126c1573d6000803e3d6000fd5b50505050806001019050612621565b5050601780547fffffffffffffffffffffff00ffffffffffffffffffffffffffffffffffffffff169055505b565b6015548015612f31576000600f54600014806127615750600f547fffffffffffffffffffffffffffffffffffffffffffffffffffffffffffffffff0160009081526003602052604090205473ffffffffffffffffffffffffffffffffffffffff16155b156127a057604080514460208083019190915242828401528251808303840181526060909201909252805191012082908161279857fe5b069050612893565b600f547fffffffffffffffffffffffffffffffffffffffffffffffffffffffffffffffff016000908152600360209081526040918290205482517fd89601fd0000000000000000000000000000000000000000000000000000000081529251859373ffffffffffffffffffffffffffffffffffffffff9092169263d89601fd9260048082019391829003018186803b15801561283b57600080fd5b505afa15801561284f573d6000803e3d6000fd5b505050506040513d602081101561286557600080fd5b50516040805160208181019390935281518082038401815290820190915280519101208161288f57fe5b0690505b60608060008080805b87811015612c5657600088828901816128b157fe5b069050601581815481106128c157fe5b6000918252602082200154600f54604080517f40462a2d0000000000000000000000000000000000000000000000000000000081526004810192909252871560248301525173ffffffffffffffffffffffffffffffffffffffff909216926340462a2d9260448084019382900301818387803b15801561294057600080fd5b505af1925050508015612aaf57506040513d6000823e601f3d9081017fffffffffffffffffffffffffffffffffffffffffffffffffffffffffffffffe0168201604052606081101561299157600080fd5b81019080805160405193929190846401000000008211156129b157600080fd5b9083019060208201858111156129c657600080fd5b82518660208202830111640100000000821117156129e357600080fd5b82525081516020918201928201910280838360005b83811015612a105781810151838201526020016129f8565b5050505090500160405260200180516040519392919084640100000000821115612a3957600080fd5b908301906020820185811115612a4e57600080fd5b8251866020820283011164010000000082111715612a6b57600080fd5b82525081516020918201928201910280838360005b83811015612a98578181015183820152602001612a80565b505050509190910160405250602001519150600190505b612bf05760158181548110612ac057fe5b6000918252602082200154600f54604080517f9de6f92700000000000000000000000000000000000000000000000000000000815260048101929092525173ffffffffffffffffffffffffffffffffffffffff90921692639de6f9279260248084019382900301818387803b158015612b3857600080fd5b505af1925050508015612b49575060015b612beb5760158181548110612b5a57fe5b6000918252602082200154600f54604080517f974d7a6b00000000000000000000000000000000000000000000000000000000815260048101929092525173ffffffffffffffffffffffffffffffffffffffff9092169263974d7a6b9260248084019382900301818387803b158015612bd257600080fd5b505af1158015612be6573d6000803e3d6000fd5b505050505b612c4d565b86158015612bff575060008351115b15612c4957828282809a50819b50829c505050506001965060158481548110612c2457fe5b60009182526020909120015473ffffffffffffffffffffffffffffffffffffffff1695505b5050505b5060010161289c565b506040805160608101825273ffffffffffffffffffffffffffffffffffffffff838116825260125460208084019182526000848601818152600f548252600390925294909420925183547fffffffffffffffffffffffff00000000000000000000000000000000000000001692169190911782555160018201559051600290910180547fffffffffffffffffffffffffffffffffffffffffffffffffffffffffffffff00169115159190911790558115612ed257601760009054906101000a900473ffffffffffffffffffffffffffffffffffffffff1673ffffffffffffffffffffffffffffffffffffffff16638bcb25ba868686600f54867f00000000000000000000000000000000000000000000000000000000000000006012546040518863ffffffff1660e01b81526004018080602001806020018881526020018781526020018673ffffffffffffffffffffffffffffffffffffffff16815260200185815260200184815260200183810383528a818151815260200191508051906020019060200280838360005b83811015612dfa578181015183820152602001612de2565b50505050905001838103825289818151815260200191508051906020019060200280838360005b83811015612e39578181015183820152602001612e21565b505050509050019950505050505050505050602060405180830381600087803b158015612e6557600080fd5b505af1925050508015612e8a57506040513d6020811015612e8557600080fd5b505160015b612e9357612ed2565b50600f54600090815260036020526040902060020180547fffffffffffffffffffffffffffffffffffffffffffffffffffffffffffffff001660011790555b6012546040805173ffffffffffffffffffffffffffffffffffffffff84168152602081019290925280517f98b050a4042fbd1b89934ef40b9342e593f15081a348af940573a0179031f4ad9281900390910190a1505050505050613016565b604080516060810182526000808252601280546020808501918252848601848152600f54855260038252868520955186547fffffffffffffffffffffffff00000000000000000000000000000000000000001673ffffffffffffffffffffffffffffffffffffffff909116178655915160018601559051600290940180547fffffffffffffffffffffffffffffffffffffffffffffffffffffffffffffff0016941515949094179093555483519182529181019190915281517f98b050a4042fbd1b89934ef40b9342e593f15081a348af940573a0179031f4ad929181900390910190a15b50600f80546001019055601080547f0000000000000000000000000000000000000000000000000000000000000000019055565b60175474010000000000000000000000000000000000000000900460ff1615613072576126fc565b60155442811561313e5760005b8281101561313c576015818154811061309457fe5b60009182526020918290200154604080517fd89601fd000000000000000000000000000000000000000000000000000000008152905173ffffffffffffffffffffffffffffffffffffffff9092169263d89601fd92600480840193829003018186803b15801561310357600080fd5b505afa158015613117573d6000803e3d6000fd5b505050506040513d602081101561312d57600080fd5b5051919091019060010161307f565b505b6040805160208082019390935281518082038401815290820190915280519101206014546000901561317257601454613175565b60015b60026012548154811061318457fe5b90600052602060002090600202016001015443038161319f57fe5b049050806131ab575060015b60008183816131b657fe5b069050806131c2575060015b604080518082019091524382810382526020820190815260028054600181018255600082815284517f405787fa12a823e0f2b7631cc41b3ba8828b3321ca811111fa75cd3aa3bb5ace9284029283015592517f405787fa12a823e0f2b7631cc41b3ba8828b3321ca811111fa75cd3aa3bb5acf90910155547fffffffffffffffffffffffffffffffffffffffffffffffffffffffffffffffff016012555b8581101561330f576015818154811061327557fe5b60009182526020822001548351604080517fe536f39600000000000000000000000000000000000000000000000000000000815260048101929092525173ffffffffffffffffffffffffffffffffffffffff9092169263e536f3969260248084019382900301818387803b1580156132ec57600080fd5b505af1158015613300573d6000803e3d6000fd5b50505050806001019050613260565b508051602080830151604080519384529183015280517f1813f880dc24666c8b69c9d771a487ea620a27fde1514be3112847056c0c53229281900390910190a15050601380547f0000000000000000000000000000000000000000000000000000000000000000019055505050565b60155460005b818110156135e857600e5460ff16156134f257601581815481106133a457fe5b600091825260209091200154600554600654600754600854600954600a54600b54600c546040517f5a3c9d8e000000000000000000000000000000000000000000000000000000008152600481018981526024820189905260448201889052606482018790526084820186905260a4820185905260c4820184905260e482018390526101206101048301908152600d8054610124850181905273ffffffffffffffffffffffffffffffffffffffff909d169c635a3c9d8e9c9b9a999897969594919392916101440190849080156134b157602002820191906000526020600020905b815473ffffffffffffffffffffffffffffffffffffffff168152600190910190602001808311613486575b50509a5050505050505050505050600060405180830381600087803b1580156134d957600080fd5b505af11580156134ed573d6000803e3d6000fd5b505050505b601581815481106134ff57fe5b60009182526020909120015460175473ffffffffffffffffffffffffffffffffffffffff9091169063fd00e539907501000000000000000000000000000000000000000000900460ff16806135965750601860006015858154811061356057fe5b600091825260208083209091015473ffffffffffffffffffffffffffffffffffffffff16835282019290925260400190205460ff165b6040518263ffffffff1660e01b8152600401808215158152602001915050600060405180830381600087803b1580156135ce57600080fd5b505af19250505080156135df575060015b50600101613384565b50600e80547fffffffffffffffffffffffffffffffffffffffffffffffffffffffffffffff0016905561361961361f565b60115550565b60008061362a612465565b7f000000000000000000000000000000000000000000000000000000000000000060019091017f0000000000000000000000000000000000000000000000000000000000000000020191505090565b8280548282559060005260206000209081019282156136f3579160200282015b828111156136f357825182547fffffffffffffffffffffffff00000000000000000000000000000000000000001673ffffffffffffffffffffffffffffffffffffffff909116178255602090920191600190910190613699565b506136ff929150613703565b5090565b5b808211156136ff576000815560010161370456fe464173736574204654534f206e6f74206d616e61676564206279206674736f206d616e61676572a2646970667358221220274152af5ff5c7d59fd1e010ce7963bdad72d0a3781bc2bdf4f2b7d52e05a56064736f6c63430007060033",
    "linkReferences": {},
    "deployedLinkReferences": {}
}