{
  "_format": "hh-sol-artifact-1",
  "contractName": "PriceSubmitter",
  "sourceName": "contracts/utils/implementation/PriceSubmitter.sol",
  "abi": [
    {
      "anonymous": false,
      "inputs": [
        {
          "indexed": true,
          "internalType": "address",
          "name": "submitter",
          "type": "address"
        },
        {
          "indexed": true,
          "internalType": "uint256",
          "name": "epochId",
          "type": "uint256"
        },
        {
          "indexed": false,
          "internalType": "contract IIFtso[]",
          "name": "ftsos",
          "type": "address[]"
        },
        {
          "indexed": false,
          "internalType": "bytes32[]",
          "name": "hashes",
          "type": "bytes32[]"
        },
        {
          "indexed": false,
          "internalType": "bool[]",
          "name": "success",
          "type": "bool[]"
        },
        {
          "indexed": false,
          "internalType": "uint256",
          "name": "timestamp",
          "type": "uint256"
        }
      ],
      "name": "PriceHashesSubmitted",
      "type": "event"
    },
    {
      "anonymous": false,
      "inputs": [
        {
          "indexed": true,
          "internalType": "address",
          "name": "voter",
          "type": "address"
        },
        {
          "indexed": true,
          "internalType": "uint256",
          "name": "epochId",
          "type": "uint256"
        },
        {
          "indexed": false,
          "internalType": "contract IIFtso[]",
          "name": "ftsos",
          "type": "address[]"
        },
        {
          "indexed": false,
          "internalType": "uint256[]",
          "name": "prices",
          "type": "uint256[]"
        },
        {
          "indexed": false,
          "internalType": "uint256[]",
          "name": "randoms",
          "type": "uint256[]"
        },
        {
          "indexed": false,
          "internalType": "bool[]",
          "name": "success",
          "type": "bool[]"
        },
        {
          "indexed": false,
          "internalType": "uint256",
          "name": "timestamp",
          "type": "uint256"
        }
      ],
      "name": "PricesRevealed",
      "type": "event"
    },
    {
      "inputs": [
        {
          "internalType": "uint256",
          "name": "_epochId",
          "type": "uint256"
        },
        {
          "internalType": "contract IIFtso[]",
          "name": "_ftsos",
          "type": "address[]"
        },
        {
          "internalType": "uint256[]",
          "name": "_prices",
          "type": "uint256[]"
        },
        {
          "internalType": "uint256[]",
          "name": "_randoms",
          "type": "uint256[]"
        }
      ],
      "name": "revealPrices",
      "outputs": [],
      "stateMutability": "nonpayable",
      "type": "function"
    },
    {
      "inputs": [
        {
          "internalType": "contract IIFtso[]",
          "name": "_ftsos",
          "type": "address[]"
        },
        {
          "internalType": "bytes32[]",
          "name": "_hashes",
          "type": "bytes32[]"
        }
      ],
      "name": "submitPriceHashes",
      "outputs": [],
      "stateMutability": "nonpayable",
      "type": "function"
    }
  ],
  "bytecode": "0x608060405234801561001057600080fd5b50610a91806100206000396000f3fe608060405234801561001057600080fd5b50600436106100365760003560e01c8063be95aefb1461003b578063de8607ae14610164575b600080fd5b6101626004803603604081101561005157600080fd5b81019060208101813564010000000081111561006c57600080fd5b82018360208201111561007e57600080fd5b803590602001918460208302840111640100000000831117156100a057600080fd5b91908080602002602001604051908101604052809392919081815260200183836020028082843760009201919091525092959493602081019350359150506401000000008111156100f057600080fd5b82018360208201111561010257600080fd5b8035906020019184602083028401116401000000008311171561012457600080fd5b919080806020026020016040519081016040528093929190818152602001838360200280828437600092019190915250929550610316945050505050565b005b6101626004803603608081101561017a57600080fd5b8135919081019060408101602082013564010000000081111561019c57600080fd5b8201836020820111156101ae57600080fd5b803590602001918460208302840111640100000000831117156101d057600080fd5b919080806020026020016040519081016040528093929190818152602001838360200280828437600092019190915250929594936020810193503591505064010000000081111561022057600080fd5b82018360208201111561023257600080fd5b8035906020019184602083028401116401000000008311171561025457600080fd5b91908080602002602001604051908101604052809392919081815260200183836020028082843760009201919091525092959493602081019350359150506401000000008111156102a457600080fd5b8201836020820111156102b657600080fd5b803590602001918460208302840111640100000000831117156102d857600080fd5b91908080602002602001604051908101604052809392919081815260200183836020028082843760009201919091525092955061065d945050505050565b8151815160408051808201909152601a81527f4172726179206c656e6774687320646f206e6f74206d6174636800000000000060208201529082146103f3576040517f08c379a00000000000000000000000000000000000000000000000000000000081526004018080602001828103825283818151815260200191508051906020019080838360005b838110156103b85781810151838201526020016103a0565b50505050905090810190601f1680156103e55780820380516001836020036101000a031916815260200191505b509250505060405180910390fd5b5060008167ffffffffffffffff8111801561040d57600080fd5b50604051908082528060200260200182016040528015610437578160200160208202803683370190505b5090506000805b838110156105345785818151811061045257fe5b602002602001015173ffffffffffffffffffffffffffffffffffffffff1663a7f72bd13387848151811061048257fe5b60200260200101516040518363ffffffff1660e01b8152600401808373ffffffffffffffffffffffffffffffffffffffff16815260200182815260200192505050602060405180830381600087803b1580156104dd57600080fd5b505af192505050801561050257506040513d60208110156104fd57600080fd5b505160015b61050b5761052c565b600184838151811061051957fe5b9115156020928302919091019091015291505b60010161043e565b50803373ffffffffffffffffffffffffffffffffffffffff167ff48dd61a4b4ebda39f7fc8a3caaf69ef19c89b5fcd2c7dcd3f2a8533079ece198787864260405180806020018060200180602001858152602001848103845288818151815260200191508051906020019060200280838360005b838110156105c05781810151838201526020016105a8565b50505050905001848103835287818151815260200191508051906020019060200280838360005b838110156105ff5781810151838201526020016105e7565b50505050905001848103825286818151815260200191508051906020019060200280838360005b8381101561063e578181015183820152602001610626565b5050505090500197505050505050505060405180910390a35050505050565b8251825160408051808201909152601a81527f4172726179206c656e6774687320646f206e6f74206d6174636800000000000060208201529082146106fd576040517f08c379a00000000000000000000000000000000000000000000000000000000081526020600482018181528351602484015283519092839260449091019190850190808383600083156103b85781810151838201526020016103a0565b50815181146040518060400160405280601a81526020017f4172726179206c656e6774687320646f206e6f74206d617463680000000000008152509061079e576040517f08c379a00000000000000000000000000000000000000000000000000000000081526020600482018181528351602484015283519092839260449091019190850190808383600083156103b85781810151838201526020016103a0565b5060008167ffffffffffffffff811180156107b857600080fd5b506040519080825280602002602001820160405280156107e2578160200160208202803683370190505b50905060005b828110156108eb578581815181106107fc57fe5b602002602001015173ffffffffffffffffffffffffffffffffffffffff1663c1f6c36e338988858151811061082d57fe5b602002602001015188868151811061084157fe5b60200260200101516040518563ffffffff1660e01b8152600401808573ffffffffffffffffffffffffffffffffffffffff168152602001848152602001838152602001828152602001945050505050600060405180830381600087803b1580156108aa57600080fd5b505af19250505080156108bb575060015b6108c4576108e3565b60018282815181106108d257fe5b911515602092830291909101909101525b6001016107e8565b50853373ffffffffffffffffffffffffffffffffffffffff167fb0ba762da6c61898be970364fec23ccb099786f481eeea4f28cdc91d10b7270e8787878642604051808060200180602001806020018060200186815260200185810385528a818151815260200191508051906020019060200280838360005b8381101561097c578181015183820152602001610964565b50505050905001858103845289818151815260200191508051906020019060200280838360005b838110156109bb5781810151838201526020016109a3565b50505050905001858103835288818151815260200191508051906020019060200280838360005b838110156109fa5781810151838201526020016109e2565b50505050905001858103825287818151815260200191508051906020019060200280838360005b83811015610a39578181015183820152602001610a21565b50505050905001995050505050505050505060405180910390a350505050505056fea2646970667358221220d8c74737a961b09dbd2c743bf3eef72532eb9335e88ed87ce3b5c68c1535f79964736f6c63430007060033",
  "linkReferences": {},
  "deployedLinkReferences": {}
}