{
  "_format": "hh-sol-artifact-1",
  "contractName": "InflationReceiverAndTokenPoolMock",
  "sourceName": "contracts/inflation/mock/InflationReceiverAndTokenPoolMock.sol",
  "abi": [
    {
      "inputs": [
        {
          "internalType": "address",
          "name": "_governance",
          "type": "address"
        },
        {
          "internalType": "address",
          "name": "_inflation",
          "type": "address"
        }
      ],
      "stateMutability": "nonpayable",
      "type": "constructor"
    },
    {
      "anonymous": false,
      "inputs": [
        {
          "indexed": false,
          "internalType": "uint256",
          "name": "authorizedAmountWei",
          "type": "uint256"
        }
      ],
      "name": "DailyAuthorizedInflationSet",
      "type": "event"
    },
    {
      "anonymous": false,
      "inputs": [
        {
          "indexed": false,
          "internalType": "uint256",
          "name": "amountReceivedWei",
          "type": "uint256"
        }
      ],
      "name": "FoundationAllocatedFundsReceived",
      "type": "event"
    },
    {
      "anonymous": false,
      "inputs": [
        {
          "indexed": false,
          "internalType": "address",
          "name": "proposedGovernance",
          "type": "address"
        }
      ],
      "name": "GovernanceProposed",
      "type": "event"
    },
    {
      "anonymous": false,
      "inputs": [
        {
          "indexed": false,
          "internalType": "address",
          "name": "oldGovernance",
          "type": "address"
        },
        {
          "indexed": false,
          "internalType": "address",
          "name": "newGoveranance",
          "type": "address"
        }
      ],
      "name": "GovernanceUpdated",
      "type": "event"
    },
    {
      "anonymous": false,
      "inputs": [
        {
          "indexed": false,
          "internalType": "uint256",
          "name": "amountReceivedWei",
          "type": "uint256"
        }
      ],
      "name": "InflationReceived",
      "type": "event"
    },
    {
      "inputs": [],
      "name": "claimGovernance",
      "outputs": [],
      "stateMutability": "nonpayable",
      "type": "function"
    },
    {
      "inputs": [
        {
          "internalType": "address payable",
          "name": "_recipient",
          "type": "address"
        },
        {
          "internalType": "uint256",
          "name": "_rewardAmount",
          "type": "uint256"
        }
      ],
      "name": "claimMock",
      "outputs": [],
      "stateMutability": "nonpayable",
      "type": "function"
    },
    {
      "inputs": [],
      "name": "dailyAuthorizedInflation",
      "outputs": [
        {
          "internalType": "uint256",
          "name": "",
          "type": "uint256"
        }
      ],
      "stateMutability": "view",
      "type": "function"
    },
    {
      "inputs": [],
      "name": "foundationAllocatedFundsWei",
      "outputs": [
        {
          "internalType": "uint256",
          "name": "",
          "type": "uint256"
        }
      ],
      "stateMutability": "view",
      "type": "function"
    },
    {
      "inputs": [],
      "name": "getContractName",
      "outputs": [
        {
          "internalType": "string",
          "name": "",
          "type": "string"
        }
      ],
      "stateMutability": "pure",
      "type": "function"
    },
    {
      "inputs": [],
      "name": "getInflationAddress",
      "outputs": [
        {
          "internalType": "address",
          "name": "",
          "type": "address"
        }
      ],
      "stateMutability": "view",
      "type": "function"
    },
    {
      "inputs": [],
      "name": "getTokenPoolSupplyData",
      "outputs": [
        {
          "internalType": "uint256",
          "name": "_foundationAllocatedFundsWei",
          "type": "uint256"
        },
        {
          "internalType": "uint256",
          "name": "_totalInflationAuthorizedWei",
          "type": "uint256"
        },
        {
          "internalType": "uint256",
          "name": "_totalClaimedWei",
          "type": "uint256"
        }
      ],
      "stateMutability": "view",
      "type": "function"
    },
    {
      "inputs": [],
      "name": "governance",
      "outputs": [
        {
          "internalType": "address",
          "name": "",
          "type": "address"
        }
      ],
      "stateMutability": "view",
      "type": "function"
    },
    {
      "inputs": [],
      "name": "inflation",
      "outputs": [
        {
          "internalType": "address",
          "name": "",
          "type": "address"
        }
      ],
      "stateMutability": "view",
      "type": "function"
    },
    {
      "inputs": [
        {
          "internalType": "address",
          "name": "_governance",
          "type": "address"
        }
      ],
      "name": "initialise",
      "outputs": [],
      "stateMutability": "nonpayable",
      "type": "function"
    },
    {
      "inputs": [],
      "name": "lastInflationAuthorizationReceivedTs",
      "outputs": [
        {
          "internalType": "uint256",
          "name": "",
          "type": "uint256"
        }
      ],
      "stateMutability": "view",
      "type": "function"
    },
    {
      "inputs": [
        {
          "internalType": "address",
          "name": "_governance",
          "type": "address"
        }
      ],
      "name": "proposeGovernance",
      "outputs": [],
      "stateMutability": "nonpayable",
      "type": "function"
    },
    {
      "inputs": [],
      "name": "proposedGovernance",
      "outputs": [
        {
          "internalType": "address",
          "name": "",
          "type": "address"
        }
      ],
      "stateMutability": "view",
      "type": "function"
    },
    {
      "inputs": [],
      "name": "receiveFoundationAllocatedFunds",
      "outputs": [],
      "stateMutability": "payable",
      "type": "function"
    },
    {
      "inputs": [],
      "name": "receiveInflation",
      "outputs": [],
      "stateMutability": "payable",
      "type": "function"
    },
    {
      "inputs": [
        {
          "internalType": "uint256",
          "name": "_toAuthorizeWei",
          "type": "uint256"
        }
      ],
      "name": "setDailyAuthorizedInflation",
      "outputs": [],
      "stateMutability": "nonpayable",
      "type": "function"
    },
    {
      "inputs": [],
      "name": "totalClaimedWei",
      "outputs": [
        {
          "internalType": "uint256",
          "name": "",
          "type": "uint256"
        }
      ],
      "stateMutability": "view",
      "type": "function"
    },
    {
      "inputs": [],
      "name": "totalInflationAuthorizedWei",
      "outputs": [
        {
          "internalType": "uint256",
          "name": "",
          "type": "uint256"
        }
      ],
      "stateMutability": "view",
      "type": "function"
    },
    {
      "inputs": [],
      "name": "totalInflationReceivedWei",
      "outputs": [
        {
          "internalType": "uint256",
          "name": "",
          "type": "uint256"
        }
      ],
      "stateMutability": "view",
      "type": "function"
    },
    {
      "inputs": [],
      "name": "totalSelfDestructReceivedWei",
      "outputs": [
        {
          "internalType": "uint256",
          "name": "",
          "type": "uint256"
        }
      ],
      "stateMutability": "view",
      "type": "function"
    },
    {
      "inputs": [
        {
          "internalType": "address",
          "name": "_governance",
          "type": "address"
        }
      ],
      "name": "transferGovernance",
      "outputs": [],
      "stateMutability": "nonpayable",
      "type": "function"
    }
  ],
  "bytecode": "0x608060405234801561001057600080fd5b50604051610ecc380380610ecc83398101604081905261002f916101c3565b81806001600160a01b0381161561004957610049816100c4565b506001600160a01b038116610098576040805162461bcd60e51b815260206004820152601060248201526f5f676f7665726e616e6365207a65726f60801b604482015290519081900360640190fd5b506001600255600b80546001600160a01b0319166001600160a01b0392909216919091179055506101f5565b600154600160a01b900460ff1615610123576040805162461bcd60e51b815260206004820152601460248201527f696e697469616c6973656420213d2066616c7365000000000000000000000000604482015290519081900360640190fd5b6001805460ff60a01b1916600160a01b179055600054604080516001600160a01b039283168152918316602083015280517f434a2db650703b36c824e745330d6397cdaa9ee2cc891a4938ae853e1c50b68d9281900390910190a1600080546001600160a01b039092166001600160a01b0319928316179055600180549091169055565b80516001600160a01b03811681146101be57600080fd5b919050565b600080604083850312156101d5578182fd5b6101de836101a7565b91506101ec602084016101a7565b90509250929050565b610cc8806102046000396000f3fe60806040526004361061012a5760003560e01c80639d6a890f116100ab578063d0c1c3931161006f578063d0c1c393146102b2578063d38bfff4146102c7578063e2739563146102e7578063ed39d3f814610307578063f5f5ba721461031c578063fc0470081461033e5761012a565b80639d6a890f146102335780639f71043e14610253578063a5555aea14610268578063be0522e01461027d578063c373a08e146102925761012a565b806360f7ac97116100f257806360f7ac97146101bf57806365b43f25146101d4578063708e34ce146101f457806372993615146102095780639ab52a981461021e5761012a565b806306201f1d1461012f5780632dafdbbf14610139578063473252c4146101665780635aa6e675146101885780635d36b190146101aa575b600080fd5b610137610346565b005b34801561014557600080fd5b5061014e61044f565b60405161015d93929190610c46565b60405180910390f35b34801561017257600080fd5b5061017b61045d565b60405161015d9190610c3d565b34801561019457600080fd5b5061019d610463565b60405161015d9190610bd6565b3480156101b657600080fd5b50610137610472565b3480156101cb57600080fd5b5061019d610534565b3480156101e057600080fd5b506101376101ef366004610b90565b610543565b34801561020057600080fd5b5061017b610617565b34801561021557600080fd5b5061017b61061d565b34801561022a57600080fd5b5061017b610623565b34801561023f57600080fd5b5061013761024e366004610b74565b610629565b34801561025f57600080fd5b5061017b610703565b34801561027457600080fd5b5061017b610709565b34801561028957600080fd5b5061019d61070f565b34801561029e57600080fd5b506101376102ad366004610b74565b61071e565b3480156102be57600080fd5b5061017b61077a565b3480156102d357600080fd5b506101376102e2366004610b74565b610780565b3480156102f357600080fd5b50610137610302366004610bbb565b6107f9565b34801561031357600080fd5b5061019d61089f565b34801561032857600080fd5b506103316108ae565b60405161015d9190610bea565b6101376108ce565b600b5460408051808201909152600e81526d696e666c6174696f6e206f6e6c7960901b6020820152906001600160a01b031633146103a05760405162461bcd60e51b81526004016103979190610bea565b60405180910390fd5b5060006103ab610929565b506005549091506103bc9034610983565b600555600a8190556040517f95c4e29cc99bc027cfc3cd719d6fd973d5f0317061885fbb322b9b17d8d35d37906103f4903490610c3d565b60405180910390a1506104056109e4565b47146040518060400160405280600e81526020016d6f7574206f662062616c616e636560901b8152509061044c5760405162461bcd60e51b81526004016103979190610bea565b50565b600954600454600354909192565b60075481565b6000546001600160a01b031681565b6001546001600160a01b031633146104c1576040805162461bcd60e51b815260206004820152600d60248201526c1b9bdd0818db185a5b585a5b9d609a1b604482015290519081900360640190fd5b600054600154604080516001600160a01b03938416815292909116602083015280517f434a2db650703b36c824e745330d6397cdaa9ee2cc891a4938ae853e1c50b68d9281900390910190a160018054600080546001600160a01b03199081166001600160a01b03841617909155169055565b6001546001600160a01b031681565b60028054141561059a576040805162461bcd60e51b815260206004820152601f60248201527f5265656e7472616e637947756172643a207265656e7472616e742063616c6c00604482015290519081900360640190fd5b600280556105a6610929565b505060038054820190556105ba8282610a14565b47600a5560016002556105cb6109e4565b47146040518060400160405280600e81526020016d6f7574206f662062616c616e636560901b815250906106125760405162461bcd60e51b81526004016103979190610bea565b505050565b60085481565b60065481565b60095481565b600154600160a01b900460ff161561067f576040805162461bcd60e51b8152602060048201526014602482015273696e697469616c6973656420213d2066616c736560601b604482015290519081900360640190fd5b6001805460ff60a01b1916600160a01b179055600054604080516001600160a01b039283168152918316602083015280517f434a2db650703b36c824e745330d6397cdaa9ee2cc891a4938ae853e1c50b68d9281900390910190a1600080546001600160a01b039092166001600160a01b0319928316179055600180549091169055565b60035481565b60055481565b600b546001600160a01b031681565b610726610ac4565b600180546001600160a01b0383166001600160a01b0319909116811790915560408051918252517f1f95fb40be3a947982072902a887b521248d1d8931a39eb38f84f4d6fd758b699181900360200190a150565b60045481565b610788610ac4565b600054604080516001600160a01b039283168152918316602083015280517f434a2db650703b36c824e745330d6397cdaa9ee2cc891a4938ae853e1c50b68d9281900390910190a1600080546001600160a01b039092166001600160a01b0319928316179055600180549091169055565b600b5460408051808201909152600e81526d696e666c6174696f6e206f6e6c7960901b6020820152906001600160a01b0316331461084a5760405162461bcd60e51b81526004016103979190610bea565b50600881905560045461085d9082610983565b600455426007556040517f187f32a0f765499f15b3bb52ed0aebf6015059f230f2ace7e701e60a4766959590610894908390610c3d565b60405180910390a150565b600b546001600160a01b031690565b6060604051806060016040528060218152602001610c7260219139905090565b6108d6610ac4565b60006108e0610929565b506009549091506108f19034610983565b600955600a8190556040517f98dfca40f005ddfbe7a57c54b59058ffd8a655295cb06eb623b4582973ed77b9906103f4903490610c3d565b60008061094134600a5461098390919063ffffffff16565b9050479150808211156109755761096d816109678460065461098390919063ffffffff16565b90610b17565b60065561097f565b8082101561097f57fe5b9091565b6000828201838110156109dd576040805162461bcd60e51b815260206004820152601b60248201527f536166654d6174683a206164646974696f6e206f766572666c6f770000000000604482015290519081900360640190fd5b9392505050565b6000610a0f600354610967600654610a0960055460095461098390919063ffffffff16565b90610983565b905090565b8015610ac0576000826001600160a01b031682604051610a3390610bd3565b60006040518083038185875af1925050503d8060008114610a70576040519150601f19603f3d011682016040523d82523d6000602084013e610a75565b606091505b50509050806040518060400160405280600c81526020016b18db185a5b4819985a5b195960a21b81525090610abd5760405162461bcd60e51b81526004016103979190610bea565b50505b5050565b6000546001600160a01b03163314610b15576040805162461bcd60e51b815260206004820152600f60248201526e6f6e6c7920676f7665726e616e636560881b604482015290519081900360640190fd5b565b600082821115610b6e576040805162461bcd60e51b815260206004820152601e60248201527f536166654d6174683a207375627472616374696f6e206f766572666c6f770000604482015290519081900360640190fd5b50900390565b600060208284031215610b85578081fd5b81356109dd81610c5c565b60008060408385031215610ba2578081fd5b8235610bad81610c5c565b946020939093013593505050565b600060208284031215610bcc578081fd5b5035919050565b90565b6001600160a01b0391909116815260200190565b6000602080835283518082850152825b81811015610c1657858101830151858201604001528201610bfa565b81811115610c275783604083870101525b50601f01601f1916929092016040019392505050565b90815260200190565b9283526020830191909152604082015260600190565b6001600160a01b038116811461044c57600080fdfe496e666c6174696f6e5265636569766572416e64546f6b656e506f6f6c4d6f636ba2646970667358221220a921f7293f8441ab4fb0523cc546a097025ec1a17517e23626c9fa7a4db994be64736f6c63430007060033",
  "linkReferences": {},
  "deployedLinkReferences": {}
}