{
  "_format": "hh-sol-artifact-1",
  "contractName": "TeamEscrow",
  "sourceName": "contracts/tokenPools/implementation/TeamEscrow.sol",
  "abi": [
    {
      "inputs": [
        {
          "internalType": "address",
          "name": "_governance",
          "type": "address"
        },
        {
          "internalType": "uint256",
          "name": "_claimStartTs",
          "type": "uint256"
        }
      ],
      "stateMutability": "nonpayable",
      "type": "constructor"
    },
    {
      "anonymous": false,
      "inputs": [
        {
          "indexed": false,
          "internalType": "address",
          "name": "proposedGovernance",
          "type": "address"
        }
      ],
      "name": "GovernanceProposed",
      "type": "event"
    },
    {
      "anonymous": false,
      "inputs": [
        {
          "indexed": false,
          "internalType": "address",
          "name": "oldGovernance",
          "type": "address"
        },
        {
          "indexed": false,
          "internalType": "address",
          "name": "newGoveranance",
          "type": "address"
        }
      ],
      "name": "GovernanceUpdated",
      "type": "event"
    },
    {
      "inputs": [],
      "name": "DIRECT_CLAIM_BIPS",
      "outputs": [
        {
          "internalType": "uint256",
          "name": "",
          "type": "uint256"
        }
      ],
      "stateMutability": "view",
      "type": "function"
    },
    {
      "inputs": [],
      "name": "FULL_CLAIM_BIPS",
      "outputs": [
        {
          "internalType": "uint256",
          "name": "",
          "type": "uint256"
        }
      ],
      "stateMutability": "view",
      "type": "function"
    },
    {
      "inputs": [],
      "name": "LOCKED_CLAIM_BIPS",
      "outputs": [
        {
          "internalType": "uint256",
          "name": "",
          "type": "uint256"
        }
      ],
      "stateMutability": "view",
      "type": "function"
    },
    {
      "inputs": [],
      "name": "claim",
      "outputs": [],
      "stateMutability": "nonpayable",
      "type": "function"
    },
    {
      "inputs": [],
      "name": "claimGovernance",
      "outputs": [],
      "stateMutability": "nonpayable",
      "type": "function"
    },
    {
      "inputs": [],
      "name": "claimStartTs",
      "outputs": [
        {
          "internalType": "uint256",
          "name": "",
          "type": "uint256"
        }
      ],
      "stateMutability": "view",
      "type": "function"
    },
    {
      "inputs": [
        {
          "internalType": "address",
          "name": "_target",
          "type": "address"
        }
      ],
      "name": "claimTo",
      "outputs": [],
      "stateMutability": "nonpayable",
      "type": "function"
    },
    {
      "inputs": [
        {
          "internalType": "uint256",
          "name": "_timestamp",
          "type": "uint256"
        }
      ],
      "name": "getCurrentClaimablePercentBips",
      "outputs": [
        {
          "internalType": "uint256",
          "name": "percentBips",
          "type": "uint256"
        }
      ],
      "stateMutability": "view",
      "type": "function"
    },
    {
      "inputs": [
        {
          "internalType": "address",
          "name": "_owner",
          "type": "address"
        }
      ],
      "name": "getCurrentClaimableWei",
      "outputs": [
        {
          "internalType": "uint256",
          "name": "_claimableWei",
          "type": "uint256"
        }
      ],
      "stateMutability": "view",
      "type": "function"
    },
    {
      "inputs": [],
      "name": "getTokenPoolSupplyData",
      "outputs": [
        {
          "internalType": "uint256",
          "name": "_lockedFundsWei",
          "type": "uint256"
        },
        {
          "internalType": "uint256",
          "name": "_totalInflationAuthorizedWei",
          "type": "uint256"
        },
        {
          "internalType": "uint256",
          "name": "_totalClaimedWei",
          "type": "uint256"
        }
      ],
      "stateMutability": "view",
      "type": "function"
    },
    {
      "inputs": [],
      "name": "governance",
      "outputs": [
        {
          "internalType": "address",
          "name": "",
          "type": "address"
        }
      ],
      "stateMutability": "view",
      "type": "function"
    },
    {
      "inputs": [],
      "name": "governanceChangedClaimTs",
      "outputs": [
        {
          "internalType": "bool",
          "name": "",
          "type": "bool"
        }
      ],
      "stateMutability": "view",
      "type": "function"
    },
    {
      "inputs": [
        {
          "internalType": "address",
          "name": "_governance",
          "type": "address"
        }
      ],
      "name": "initialise",
      "outputs": [],
      "stateMutability": "nonpayable",
      "type": "function"
    },
    {
      "inputs": [],
      "name": "lock",
      "outputs": [],
      "stateMutability": "payable",
      "type": "function"
    },
    {
      "inputs": [
        {
          "internalType": "address",
          "name": "",
          "type": "address"
        }
      ],
      "name": "lockedAmounts",
      "outputs": [
        {
          "internalType": "uint256",
          "name": "totalLockedAmountWei",
          "type": "uint256"
        },
        {
          "internalType": "uint256",
          "name": "totalClaimedAmountWei",
          "type": "uint256"
        }
      ],
      "stateMutability": "view",
      "type": "function"
    },
    {
      "inputs": [
        {
          "internalType": "address",
          "name": "_governance",
          "type": "address"
        }
      ],
      "name": "proposeGovernance",
      "outputs": [],
      "stateMutability": "nonpayable",
      "type": "function"
    },
    {
      "inputs": [],
      "name": "proposedGovernance",
      "outputs": [
        {
          "internalType": "address",
          "name": "",
          "type": "address"
        }
      ],
      "stateMutability": "view",
      "type": "function"
    },
    {
      "inputs": [
        {
          "internalType": "uint256",
          "name": "_claimStartTs",
          "type": "uint256"
        }
      ],
      "name": "setClaimingStartTs",
      "outputs": [],
      "stateMutability": "nonpayable",
      "type": "function"
    },
    {
      "inputs": [],
      "name": "totalClaimedAmountWei",
      "outputs": [
        {
          "internalType": "uint256",
          "name": "",
          "type": "uint256"
        }
      ],
      "stateMutability": "view",
      "type": "function"
    },
    {
      "inputs": [],
      "name": "totalLockedAmountWei",
      "outputs": [
        {
          "internalType": "uint256",
          "name": "",
          "type": "uint256"
        }
      ],
      "stateMutability": "view",
      "type": "function"
    },
    {
      "inputs": [
        {
          "internalType": "address",
          "name": "_governance",
          "type": "address"
        }
      ],
      "name": "transferGovernance",
      "outputs": [],
      "stateMutability": "nonpayable",
      "type": "function"
    }
  ],
  "bytecode": "0x60806040526003805460ff191690556000600481905560055534801561002457600080fd5b50604051610f49380380610f498339818101604052604081101561004757600080fd5b50805160209091015181806001600160a01b0381161561006a5761006a816100c3565b506001600160a01b0381166100b9576040805162461bcd60e51b815260206004820152601060248201526f5f676f7665726e616e6365207a65726f60801b604482015290519081900360640190fd5b50600255506101a6565b600154600160a01b900460ff1615610122576040805162461bcd60e51b815260206004820152601460248201527f696e697469616c6973656420213d2066616c7365000000000000000000000000604482015290519081900360640190fd5b6001805460ff60a01b1916600160a01b179055600054604080516001600160a01b039283168152918316602083015280517f434a2db650703b36c824e745330d6397cdaa9ee2cc891a4938ae853e1c50b68d9281900390910190a1600080546001600160a01b039092166001600160a01b0319928316179055600180549091169055565b610d94806101b56000396000f3fe60806040526004361061012a5760003560e01c80639d6a890f116100ab578063d38bfff41161006f578063d38bfff414610390578063dc0ec13e146103c3578063f45cb5a4146103ed578063f83d08ba14610402578063fc70ccee1461040a578063fc7e10471461041f5761012a565b80639d6a890f14610296578063a262f5f8146102c9578063a8c7a08a146102fc578063ba78774314610348578063c373a08e1461035d5761012a565b80635aa6e675116100f25780635aa6e675146101e85780635d36b1901461021957806360f7ac971461022e5780636ab3d6531461024357806381236d321461026c5761012a565b8063032f14b51461012f5780632dafdbbf146101565780632fa552ad146101895780634e71d92d1461019e5780635258ab26146101b5575b600080fd5b34801561013b57600080fd5b50610144610434565b60408051918252519081900360200190f35b34801561016257600080fd5b5061016b61043a565b60408051938452602084019290925282820152519081900360600190f35b34801561019557600080fd5b50610144610448565b3480156101aa57600080fd5b506101b361044e565b005b3480156101c157600080fd5b50610144600480360360208110156101d857600080fd5b50356001600160a01b0316610459565b3480156101f457600080fd5b506101fd6104cb565b604080516001600160a01b039092168252519081900360200190f35b34801561022557600080fd5b506101b36104da565b34801561023a57600080fd5b506101fd61059c565b34801561024f57600080fd5b506102586105ab565b604080519115158252519081900360200190f35b34801561027857600080fd5b506101446004803603602081101561028f57600080fd5b50356105b4565b3480156102a257600080fd5b506101b3600480360360208110156102b957600080fd5b50356001600160a01b031661065f565b3480156102d557600080fd5b506101b3600480360360208110156102ec57600080fd5b50356001600160a01b0316610739565b34801561030857600080fd5b5061032f6004803603602081101561031f57600080fd5b50356001600160a01b0316610745565b6040805192835260208301919091528051918290030190f35b34801561035457600080fd5b5061014461075e565b34801561036957600080fd5b506101b36004803603602081101561038057600080fd5b50356001600160a01b0316610764565b34801561039c57600080fd5b506101b3600480360360208110156103b357600080fd5b50356001600160a01b03166107c0565b3480156103cf57600080fd5b506101b3600480360360208110156103e657600080fd5b5035610839565b3480156103f957600080fd5b50610144610899565b6101b361089f565b34801561041657600080fd5b506101446108a8565b34801561042b57600080fd5b506101446108ae565b60025481565b600454600554909160009190565b6105dc81565b610457336108b4565b565b6001600160a01b0381166000908152600660209081526040808320815180830190925280548252600101549181019190915281610495426105b4565b82519091506000906104aa90836121346109d8565b90506104ba818460000151610ad8565b602090930151909203949350505050565b6000546001600160a01b031681565b6001546001600160a01b03163314610529576040805162461bcd60e51b815260206004820152600d60248201526c1b9bdd0818db185a5b585a5b9d609a1b604482015290519081900360640190fd5b600054600154604080516001600160a01b03938416815292909116602083015280517f434a2db650703b36c824e745330d6397cdaa9ee2cc891a4938ae853e1c50b68d9281900390910190a160018054600080546001600160a01b03199081166001600160a01b03841617909155169055565b6001546001600160a01b031681565b60035460ff1681565b600081600254111580156105c9575060025415155b610611576040805162461bcd60e51b815260206004820152601460248201527310db185a5b5a5b99c81b9bdd081cdd185c9d195960621b604482015290519081900360640190fd5b60006106356201518061062f60025486610af290919063ffffffff16565b90610b4f565b905061065861065060ed61064a84601e610b4f565b90610bb6565b612134610ad8565b9392505050565b600154600160a01b900460ff16156106b5576040805162461bcd60e51b8152602060048201526014602482015273696e697469616c6973656420213d2066616c736560601b604482015290519081900360640190fd5b6001805460ff60a01b1916600160a01b179055600054604080516001600160a01b039283168152918316602083015280517f434a2db650703b36c824e745330d6397cdaa9ee2cc891a4938ae853e1c50b68d9281900390910190a1600080546001600160a01b039092166001600160a01b0319928316179055600180549091169055565b610742816108b4565b50565b6006602052600090815260409020805460019091015482565b61213481565b61076c610c0f565b600180546001600160a01b0383166001600160a01b0319909116811790915560408051918252517f1f95fb40be3a947982072902a887b521248d1d8931a39eb38f84f4d6fd758b699181900360200190a150565b6107c8610c0f565b600054604080516001600160a01b039283168152918316602083015280517f434a2db650703b36c824e745330d6397cdaa9ee2cc891a4938ae853e1c50b68d9281900390910190a1600080546001600160a01b039092166001600160a01b0319928316179055600180549091169055565b610841610c0f565b60035460ff1615610887576040805162461bcd60e51b815260206004820152600b60248201526a105b1c9958591e481cd95d60aa1b604482015290519081900360640190fd5b6003805460ff19166001179055600255565b60045481565b61045733610c60565b61271081565b60055481565b3360006108c082610459565b90506000811161090c576040805162461bcd60e51b81526020600482015260126024820152714e6f20636c61696d61626c652066756e647360701b604482015290519081900360640190fd5b6001600160a01b03808316600090815260066020526040808220600101805485019055600580548501905551909185169083908381818185875af1925050503d8060008114610977576040519150601f19603f3d011682016040523d82523d6000602084013e61097c565b606091505b50509050806109d2576040805162461bcd60e51b815260206004820181905260248201527f4661696c656420746f2063616c6c20636c61696d696e6720636f6e7472616374604482015290519081900360640190fd5b50505050565b6000808211610a21576040805162461bcd60e51b815260206004820152601060248201526f4469766973696f6e206279207a65726f60801b604482015290519081900360640190fd5b83610a2e57506000610658565b83830283858281610a3b57fe5b041415610a5457828181610a4b57fe5b04915050610658565b6000838681610a5f57fe5b0490506000848781610a6d57fe5b0690506000858781610a7b57fe5b0490506000868881610a8957fe5b069050610acb610a9d8861062f8685610bb6565b610ac5610aaa8686610bb6565b610ac5610ab78987610bb6565b610ac58d61064a8c8b610bb6565b90610ce3565b9998505050505050505050565b6000818310610ae75781610ae9565b825b90505b92915050565b600082821115610b49576040805162461bcd60e51b815260206004820152601e60248201527f536166654d6174683a207375627472616374696f6e206f766572666c6f770000604482015290519081900360640190fd5b50900390565b6000808211610ba5576040805162461bcd60e51b815260206004820152601a60248201527f536166654d6174683a206469766973696f6e206279207a65726f000000000000604482015290519081900360640190fd5b818381610bae57fe5b049392505050565b600082610bc557506000610aec565b82820282848281610bd257fe5b0414610ae95760405162461bcd60e51b8152600401808060200182810382526021815260200180610d3e6021913960400191505060405180910390fd5b6000546001600160a01b03163314610457576040805162461bcd60e51b815260206004820152600f60248201526e6f6e6c7920676f7665726e616e636560881b604482015290519081900360640190fd5b6001600160a01b03811660009081526006602052604090205415610cbc576040805162461bcd60e51b815260206004820152600e60248201526d105b1c9958591e481b1bd8dad95960921b604482015290519081900360640190fd5b60048054349081019091556001600160a01b03909116600090815260066020526040902055565b600082820183811015610ae9576040805162461bcd60e51b815260206004820152601b60248201527f536166654d6174683a206164646974696f6e206f766572666c6f770000000000604482015290519081900360640190fdfe536166654d6174683a206d756c7469706c69636174696f6e206f766572666c6f77a26469706673582212207f66e7757d859ab06cf5bb8698ddfc864f286fe7a82bbf09124e697c3da0c83664736f6c63430007060033",
  "linkReferences": {},
  "deployedLinkReferences": {}
}