{
  "_format": "hh-sol-artifact-1",
  "contractName": "PercentageDelegationMock",
  "sourceName": "contracts/token/mock/PercentageDelegationMock.sol",
  "abi": [
    {
      "inputs": [
        {
          "internalType": "address",
          "name": "_delegate",
          "type": "address"
        },
        {
          "internalType": "uint256",
          "name": "_bips",
          "type": "uint256"
        }
      ],
      "name": "addReplaceDelegate",
      "outputs": [],
      "stateMutability": "nonpayable",
      "type": "function"
    },
    {
      "inputs": [
        {
          "internalType": "address[]",
          "name": "_delegates",
          "type": "address[]"
        },
        {
          "internalType": "uint256[]",
          "name": "_bipss",
          "type": "uint256[]"
        }
      ],
      "name": "addReplaceMultipleDelegates",
      "outputs": [],
      "stateMutability": "nonpayable",
      "type": "function"
    },
    {
      "inputs": [
        {
          "internalType": "uint256",
          "name": "_count",
          "type": "uint256"
        },
        {
          "internalType": "uint256",
          "name": "_cleanupBlockNumber",
          "type": "uint256"
        }
      ],
      "name": "cleanupOldCheckpoints",
      "outputs": [],
      "stateMutability": "nonpayable",
      "type": "function"
    },
    {
      "inputs": [],
      "name": "clear",
      "outputs": [],
      "stateMutability": "nonpayable",
      "type": "function"
    },
    {
      "inputs": [],
      "name": "getCount",
      "outputs": [
        {
          "internalType": "uint256",
          "name": "",
          "type": "uint256"
        }
      ],
      "stateMutability": "view",
      "type": "function"
    },
    {
      "inputs": [
        {
          "internalType": "uint256",
          "name": "_blockNumber",
          "type": "uint256"
        }
      ],
      "name": "getCountAt",
      "outputs": [
        {
          "internalType": "uint256",
          "name": "",
          "type": "uint256"
        }
      ],
      "stateMutability": "view",
      "type": "function"
    },
    {
      "inputs": [],
      "name": "getDelegatedTotal",
      "outputs": [
        {
          "internalType": "uint256",
          "name": "_totalBips",
          "type": "uint256"
        }
      ],
      "stateMutability": "view",
      "type": "function"
    },
    {
      "inputs": [
        {
          "internalType": "uint256",
          "name": "_blockNumber",
          "type": "uint256"
        }
      ],
      "name": "getDelegatedTotalAt",
      "outputs": [
        {
          "internalType": "uint256",
          "name": "_totalBips",
          "type": "uint256"
        }
      ],
      "stateMutability": "view",
      "type": "function"
    },
    {
      "inputs": [
        {
          "internalType": "address",
          "name": "_delegate",
          "type": "address"
        }
      ],
      "name": "getDelegatedValue",
      "outputs": [
        {
          "internalType": "uint256",
          "name": "_bips",
          "type": "uint256"
        }
      ],
      "stateMutability": "view",
      "type": "function"
    },
    {
      "inputs": [
        {
          "internalType": "address",
          "name": "_delegate",
          "type": "address"
        },
        {
          "internalType": "uint256",
          "name": "_blockNumber",
          "type": "uint256"
        }
      ],
      "name": "getDelegatedValueAt",
      "outputs": [
        {
          "internalType": "uint256",
          "name": "_bips",
          "type": "uint256"
        }
      ],
      "stateMutability": "view",
      "type": "function"
    },
    {
      "inputs": [],
      "name": "getDelegations",
      "outputs": [
        {
          "internalType": "address[]",
          "name": "_delegates",
          "type": "address[]"
        },
        {
          "internalType": "uint256[]",
          "name": "_values",
          "type": "uint256[]"
        }
      ],
      "stateMutability": "view",
      "type": "function"
    },
    {
      "inputs": [
        {
          "internalType": "uint256",
          "name": "_blockNumber",
          "type": "uint256"
        }
      ],
      "name": "getDelegationsAt",
      "outputs": [
        {
          "internalType": "address[]",
          "name": "_delegates",
          "type": "address[]"
        },
        {
          "internalType": "uint256[]",
          "name": "_values",
          "type": "uint256[]"
        }
      ],
      "stateMutability": "view",
      "type": "function"
    },
    {
      "inputs": [],
      "name": "getDelegationsRaw",
      "outputs": [
        {
          "components": [
            {
              "internalType": "address",
              "name": "delegate",
              "type": "address"
            },
            {
              "internalType": "uint16",
              "name": "value",
              "type": "uint16"
            }
          ],
          "internalType": "struct PercentageDelegationMock.Delegation[]",
          "name": "_delegations",
          "type": "tuple[]"
        }
      ],
      "stateMutability": "view",
      "type": "function"
    },
    {
      "inputs": [],
      "name": "maxDelegateCount",
      "outputs": [
        {
          "internalType": "uint256",
          "name": "",
          "type": "uint256"
        }
      ],
      "stateMutability": "view",
      "type": "function"
    }
  ],
  "bytecode": "0x60806040526002805534801561001457600080fd5b50611825806100246000396000f3fe608060405234801561001057600080fd5b50600436106100ea5760003560e01c80636f8731e91161008c578063c13cc3bc11610066578063c13cc3bc146101b4578063d529883e146101bc578063f379b09a146101cf578063fb5f5528146101e2576100ea565b80636f8731e914610186578063a87d942c14610199578063bc25b279146101a1576100ea565b8063299a37bc116100c8578063299a37bc1461014e57806352efea6e146101565780635d786ef81461015e5780635ef5af4714610173576100ea565b806317d5d3e8146100ef57806317dd3f4b14610104578063186c0edd1461012d575b600080fd5b6101026100fd366004611562565b6101ea565b005b61011761011236600461161f565b61024d565b604051610124919061172a565b60405180910390f35b61014061013b36600461161f565b610261565b604051610124929190611658565b610140610279565b61010261028e565b61016661029a565b60405161012491906116ce565b61011761018136600461151f565b61036e565b610102610194366004611539565b61037a565b61011761038a565b6101176101af366004611539565b61039b565b6101176103b1565b6101176101ca36600461161f565b6103bd565b6101026101dd366004611637565b6103c9565b6101176103d5565b80518251146101f857600080fd5b60005b82518110156102485761024083828151811061021357fe5b602002602001015183838151811061022757fe5b602002602001015160006103db9092919063ffffffff16565b6001016101fb565b505050565b600061025981836104c5565b90505b919050565b60608061026f6000846104d1565b915091505b915091565b60608061028660006104ea565b915091509091565b61029860006104f6565b565b60606000806102a96000610502565b91509150816001600160401b03811180156102c357600080fd5b506040519080825280602002602001820160405280156102fd57816020015b6102ea611485565b8152602001906001900390816102e25790505b50925060005b828110156103685760008181526020838152604091829020825180840190935280546001600160a01b0381168452600160a01b900461ffff1691830191909152855190919086908490811061035457fe5b602090810291909101015250600101610303565b50505090565b6000610259818361050e565b610386600083836103db565b5050565b6000610396600061051a565b905090565b60006103a8818484610526565b90505b92915050565b6000610396600061053d565b60006102598183610548565b61024860008383610554565b60025481565b6127108111156103e757fe5b6103f2838383610561565b6127106103fe84610787565b11156040518060400160405280601c81526020017f4d61782064656c65676174696f6e206269707320657863656564656400000000815250906104bf5760405162461bcd60e51b81526004018080602001828103825283818151815260200191508051906020019080838360005b8381101561048457818101518382015260200161046c565b50505050905090810190601f1680156104b15780820380516001836020036101000a031916815260200191505b509250505060405180910390fd5b50505050565b60006103a88383610793565b6060806104de84846107e1565b915091505b9250929050565b60608061026f83610950565b6104ff8161095d565b50565b60008061026f83610a88565b60006103a88383610aec565b60006102598243610793565b6000610533848484610b38565b90505b9392505050565b600061025982610787565b60006103a88383610b7d565b6000610533848484610c0b565b6001830154600160401b90046001600160401b03168061069d57811561069857600081815260208590526040902061059b60018301610d49565b8560010160086101000a8154816001600160401b0302191690836001600160401b031602179055506040518060800160405280856001600160a01b031681526020016105e685610d91565b61ffff1681526020016105f843610d49565b6001600160401b039081168252600160209283015260008080529382526040938490208351815493850151958501516060909501516001600160a01b03199094166001600160a01b039091161761ffff60a01b1916600160a01b61ffff909616959095029490941767ffffffffffffffff60b01b1916600160b01b93909116929092029190911760ff60f01b1916600160f01b60ff909216919091021790555b6104bf565b60001981016000908152602085815260408083208380529182905290912054600160b01b90046001600160401b0316438114156106e4576106df828686610dd4565b61077f565b8043116106ed57fe5b600083815260208790526040902061070760018501610d49565b8760010160086101000a8154816001600160401b0302191690836001600160401b0316021790555061073b81848888610eeb565b61074443610d49565b6000808052602092909252604090912080546001600160401b0392909216600160b01b0267ffffffffffffffff60b01b199092169190911790555b505050505050565b60006102598243610b7d565b60008060006107a28585611001565b91509150816107b6576000925050506103ab565b6000908152602094855260408082208280529095529390932054600160f01b900460ff169392505050565b6060806000806107f18686611001565b915091508161081b57505060408051600080825260208201908152818301909252925090506104e3565b6000818152602087815260408083208380529182905290912054600160f01b900460ff16806001600160401b038111801561085557600080fd5b5060405190808252806020026020018201604052801561087f578160200160208202803683370190505b509550806001600160401b038111801561089857600080fd5b506040519080825280602002602001820160405280156108c2578160200160208202803683370190505b50945060005b81811015610944576000818152602084905260409020805488516001600160a01b03909116908990849081106108fa57fe5b6001600160a01b03929092166020928302919091019091015280548751600160a01b90910461ffff169088908490811061093057fe5b6020908102919091010152506001016108c8565b50505050509250929050565b60608061026f83436107e1565b6001810154600160401b90046001600160401b0316801561038657600081815260208390526040902061099260018301610d49565b6001840180546001600160401b0392909216600160401b026fffffffffffffffff00000000000000001990921691909117905560408051608081018252600080825260208201529081016109e543610d49565b6001600160401b039081168252600060209283018190528080529382526040938490208351815493850151958501516060909501516001600160a01b03199094166001600160a01b039091161761ffff60a01b1916600160a01b61ffff909616959095029490941767ffffffffffffffff60b01b1916600160b01b93909116929092029190911760ff60f01b1916600160f01b60ff909216919091021790555050565b60018101546000908190600160401b90046001600160401b031680610abf5750506000808052602083905260408120909150610274565b6000190160009081526020938452604080822082805294859052902054600160f01b900460ff1693915050565b6001820154600090600160401b90046001600160401b031680610b135760009150506103ab565b60001981016000908152602085905260409020610b309084611100565b949350505050565b6000806000610b478685611001565b9150915081610b5b57600092505050610536565b6000818152602087905260409020610b739086611100565b9695505050505050565b6000806000610b8c8585611001565b9150915081610ba0576000925050506103ab565b6000818152602086815260408083208380529182905282205491945090600160f01b900460ff16845b81811015610c0057600081815260208490526040902054610bf6908790600160a01b900461ffff16611170565b9550600101610bc9565b505050505092915050565b600081610c1a57506000610536565b6001840154600160401b90046001600160401b031680610c3e576000915050610536565b60018501546001600160401b03166000610c64610c5b8388611170565b600185036111ca565b9050815b8181108015610ca2575060018101600090815260208981526040808320838052909152902054600160b01b90046001600160401b03168610155b15610d0657600081815260208981526040808320838052918290528220549091600160f01b90910460ff16905b81811015610cfb57600081815260208490526040902080546001600160f81b0319169055600101610ccf565b505050600101610c68565b82811115610d3b57610d1781610d49565b60018901805467ffffffffffffffff19166001600160401b03929092169190911790555b919091039695505050505050565b6000600160401b8210610d8d5760405162461bcd60e51b81526004018080602001828103825260268152602001806117ca6026913960400191505060405180910390fd5b5090565b6000620100008210610d8d5760405162461bcd60e51b81526004018080602001828103825260268152602001806117a46026913960400191505060405180910390fd5b600080805260208490526040812054600160f01b900460ff16905b8181108015610e1857506000818152602086905260409020546001600160a01b03858116911614155b15610e2557600101610def565b81811015610eaa578215610e6e57610e3c83610d91565b6000828152602087905260409020805461ffff92909216600160a01b0261ffff60a01b19909216919091179055610ea5565b610e7c8582600185036111e0565b6000808052602086905260409020805460ff60f01b1916600160f01b600019850160ff16021790555b610ee4565b6000610eb88686868661124b565b6000808052602088905260409020805460ff909216600160f01b0260ff60f01b19909216919091179055505b5050505050565b600080805260208490526040812054600160f01b900460ff169080805b83811015610fb85760008181526020888152604091829020825160808101845290546001600160a01b03808216808452600160a01b830461ffff1694840194909452600160b01b82046001600160401b031694830194909452600160f01b900460ff1660608201529188161415610f9457610f89898260000151888661124b565b925060019350610faf565b610fac898260000151836020015161ffff168661124b565b92505b50600101610f08565b5081610fcd57610fca8786868461124b565b90505b60008080526020979097526040909620805460ff909716600160f01b0260ff60f01b19909716969096179095555050505050565b600182015460009081906001600160401b0380821691600160401b9004168061102d57600093506110f7565b6000198101600090815260208781526040808320838052909152902054600160b01b90046001600160401b0316851061106f57600193506001810392506110f7565b600082815260208781526040808320838052909152902054600160b01b90046001600160401b03168510156110e45781156110db5760405162461bcd60e51b81526004018080602001828103825260308152602001806117746030913960400191505060405180910390fd5b600093506110f7565b600193506110f48683838861132e565b92505b50509250929050565b600080805260208390526040812054600160f01b900460ff16815b8181101561116557600081815260208690526040902080546001600160a01b038681169116141561115c5754600160a01b900461ffff1692506103ab915050565b5060010161111b565b506000949350505050565b6000828201838110156103a8576040805162461bcd60e51b815260206004820152601b60248201527f536166654d6174683a206164646974696f6e206f766572666c6f770000000000604482015290519081900360640190fd5b60008183106111d957816103a8565b5090919050565b60008281526020849052604080822083835291208284101561123757805482546001600160a01b0319166001600160a01b0390911617808355815461ffff600160a01b91829004160261ffff60a01b199091161782555b80546001600160b01b031916905550505050565b600082156113265760408051808201909152601681527513585e0819195b1959d85d195cc8195e18d95959195960521b6020820152600283106112cf5760405162461bcd60e51b815260206004820181815283516024840152835190928392604490910191908501908083836000831561048457818101518382015260200161046c565b50600082815260208690526040902080546001600160a01b0319166001600160a01b03861617815561130084610d91565b815461ffff91909116600160a01b0261ffff60a01b199091161790555060018101610b30565b509392505050565b6000838161133d8560016113c1565b90505b818111156113b757600061136a6002611364600161135e8688611170565b90611170565b9061141e565b600081815260208a81526040808320838052909152902054909150600160b01b90046001600160401b031685106113a3578092506113b1565b6113ae8160016113c1565b91505b50611340565b5095945050505050565b600082821115611418576040805162461bcd60e51b815260206004820152601e60248201527f536166654d6174683a207375627472616374696f6e206f766572666c6f770000604482015290519081900360640190fd5b50900390565b6000808211611474576040805162461bcd60e51b815260206004820152601a60248201527f536166654d6174683a206469766973696f6e206279207a65726f000000000000604482015290519081900360640190fd5b81838161147d57fe5b049392505050565b604080518082019091526000808252602082015290565b80356001600160a01b038116811461025c57600080fd5b600082601f8301126114c3578081fd5b813560206114d86114d383611756565b611733565b82815281810190858301838502870184018810156114f4578586fd5b855b85811015611512578135845292840192908401906001016114f6565b5090979650505050505050565b600060208284031215611530578081fd5b6103a88261149c565b6000806040838503121561154b578081fd5b6115548361149c565b946020939093013593505050565b60008060408385031215611574578182fd5b82356001600160401b038082111561158a578384fd5b818501915085601f83011261159d578384fd5b813560206115ad6114d383611756565b82815281810190858301838502870184018b10156115c9578889fd5b8896505b848710156115f2576115de8161149c565b8352600196909601959183019183016115cd565b5096505086013592505080821115611608578283fd5b50611615858286016114b3565b9150509250929050565b600060208284031215611630578081fd5b5035919050565b60008060408385031215611649578182fd5b50508035926020909101359150565b604080825283519082018190526000906020906060840190828701845b8281101561169a5781516001600160a01b031684529284019290840190600101611675565b50505083810382850152845180825285830191830190845b81811015611512578351835292840192918401916001016116b2565b602080825282518282018190526000919060409081850190868401855b8281101561171d57815180516001600160a01b0316855286015161ffff168685015292840192908501906001016116eb565b5091979650505050505050565b90815260200190565b6040518181016001600160401b038111828210171561174e57fe5b604052919050565b60006001600160401b0382111561176957fe5b506020908102019056fe44656c65676174696f6e486973746f72793a2072656164696e672066726f6d20636c65616e65642d757020626c6f636b53616665436173743a2076616c756520646f65736e27742066697420696e203136206269747353616665436173743a2076616c756520646f65736e27742066697420696e2036342062697473a26469706673582212208ea2b061cc05e67ad9cd701eeab5343db03d479dba0a30f5675c87cd59be67da64736f6c63430007060033",
  "linkReferences": {},
  "deployedLinkReferences": {}
}