{
  "_format": "hh-sol-artifact-1",
  "contractName": "DelegationAccountManager",
  "sourceName": "contracts/personalDelegation/implementation/DelegationAccountManager.sol",
  "abi": [
    {
      "inputs": [
        {
          "internalType": "address",
          "name": "_governance",
          "type": "address"
        },
        {
          "internalType": "address",
          "name": "_addressUpdater",
          "type": "address"
        }
      ],
      "stateMutability": "nonpayable",
      "type": "constructor"
    },
    {
      "anonymous": false,
      "inputs": [
        {
          "indexed": false,
          "internalType": "address",
          "name": "delegationAccount",
          "type": "address"
        },
        {
          "indexed": false,
          "internalType": "address",
          "name": "owner",
          "type": "address"
        }
      ],
      "name": "CreateDelegationAccount",
      "type": "event"
    },
    {
      "anonymous": false,
      "inputs": [
        {
          "indexed": false,
          "internalType": "address",
          "name": "proposedGovernance",
          "type": "address"
        }
      ],
      "name": "GovernanceProposed",
      "type": "event"
    },
    {
      "anonymous": false,
      "inputs": [
        {
          "indexed": false,
          "internalType": "address",
          "name": "oldGovernance",
          "type": "address"
        },
        {
          "indexed": false,
          "internalType": "address",
          "name": "newGoveranance",
          "type": "address"
        }
      ],
      "name": "GovernanceUpdated",
      "type": "event"
    },
    {
      "anonymous": false,
      "inputs": [
        {
          "indexed": false,
          "internalType": "address",
          "name": "libraryAddress",
          "type": "address"
        }
      ],
      "name": "SetLibraryAddress",
      "type": "event"
    },
    {
      "inputs": [
        {
          "internalType": "address",
          "name": "",
          "type": "address"
        }
      ],
      "name": "accountToDelegationAccount",
      "outputs": [
        {
          "internalType": "address",
          "name": "",
          "type": "address"
        }
      ],
      "stateMutability": "view",
      "type": "function"
    },
    {
      "inputs": [],
      "name": "claimGovernance",
      "outputs": [],
      "stateMutability": "nonpayable",
      "type": "function"
    },
    {
      "inputs": [],
      "name": "createDelegationAccount",
      "outputs": [
        {
          "internalType": "contract DelegationAccountClonable",
          "name": "",
          "type": "address"
        }
      ],
      "stateMutability": "nonpayable",
      "type": "function"
    },
    {
      "inputs": [
        {
          "internalType": "uint256",
          "name": "",
          "type": "uint256"
        }
      ],
      "name": "distributions",
      "outputs": [
        {
          "internalType": "contract IDistributionToDelegators",
          "name": "",
          "type": "address"
        }
      ],
      "stateMutability": "view",
      "type": "function"
    },
    {
      "inputs": [
        {
          "internalType": "uint256",
          "name": "",
          "type": "uint256"
        }
      ],
      "name": "ftsoRewardManagers",
      "outputs": [
        {
          "internalType": "contract IIFtsoRewardManager",
          "name": "",
          "type": "address"
        }
      ],
      "stateMutability": "view",
      "type": "function"
    },
    {
      "inputs": [],
      "name": "getAddressUpdater",
      "outputs": [
        {
          "internalType": "address",
          "name": "_addressUpdater",
          "type": "address"
        }
      ],
      "stateMutability": "view",
      "type": "function"
    },
    {
      "inputs": [],
      "name": "getDistributions",
      "outputs": [
        {
          "internalType": "contract IDistributionToDelegators[]",
          "name": "",
          "type": "address[]"
        }
      ],
      "stateMutability": "view",
      "type": "function"
    },
    {
      "inputs": [],
      "name": "getFtsoRewardManagers",
      "outputs": [
        {
          "internalType": "contract IIFtsoRewardManager[]",
          "name": "",
          "type": "address[]"
        }
      ],
      "stateMutability": "view",
      "type": "function"
    },
    {
      "inputs": [],
      "name": "governance",
      "outputs": [
        {
          "internalType": "address",
          "name": "",
          "type": "address"
        }
      ],
      "stateMutability": "view",
      "type": "function"
    },
    {
      "inputs": [],
      "name": "governanceVP",
      "outputs": [
        {
          "internalType": "contract IGovernanceVotePower",
          "name": "",
          "type": "address"
        }
      ],
      "stateMutability": "view",
      "type": "function"
    },
    {
      "inputs": [
        {
          "internalType": "address",
          "name": "_governance",
          "type": "address"
        }
      ],
      "name": "initialise",
      "outputs": [],
      "stateMutability": "nonpayable",
      "type": "function"
    },
    {
      "inputs": [],
      "name": "libraryAddress",
      "outputs": [
        {
          "internalType": "address",
          "name": "",
          "type": "address"
        }
      ],
      "stateMutability": "view",
      "type": "function"
    },
    {
      "inputs": [
        {
          "internalType": "address",
          "name": "_governance",
          "type": "address"
        }
      ],
      "name": "proposeGovernance",
      "outputs": [],
      "stateMutability": "nonpayable",
      "type": "function"
    },
    {
      "inputs": [],
      "name": "proposedGovernance",
      "outputs": [
        {
          "internalType": "address",
          "name": "",
          "type": "address"
        }
      ],
      "stateMutability": "view",
      "type": "function"
    },
    {
      "inputs": [
        {
          "internalType": "address",
          "name": "_libraryAddress",
          "type": "address"
        }
      ],
      "name": "setLibraryAddress",
      "outputs": [],
      "stateMutability": "nonpayable",
      "type": "function"
    },
    {
      "inputs": [
        {
          "internalType": "address",
          "name": "_governance",
          "type": "address"
        }
      ],
      "name": "transferGovernance",
      "outputs": [],
      "stateMutability": "nonpayable",
      "type": "function"
    },
    {
      "inputs": [
        {
          "internalType": "bytes32[]",
          "name": "_contractNameHashes",
          "type": "bytes32[]"
        },
        {
          "internalType": "address[]",
          "name": "_contractAddresses",
          "type": "address[]"
        }
      ],
      "name": "updateContractAddresses",
      "outputs": [],
      "stateMutability": "nonpayable",
      "type": "function"
    },
    {
      "inputs": [],
      "name": "wNat",
      "outputs": [
        {
          "internalType": "contract WNat",
          "name": "",
          "type": "address"
        }
      ],
      "stateMutability": "view",
      "type": "function"
    }
  ],
  "bytecode": "0x608060405234801561001057600080fd5b506040516111543803806111548339818101604052604081101561003357600080fd5b5080516020909101518082806001600160a01b0381161561005757610057816100b8565b506001600160a01b0381166100a6576040805162461bcd60e51b815260206004820152601060248201526f5f676f7665726e616e6365207a65726f60801b604482015290519081900360640190fd5b506100b08161019b565b5050506101bf565b600154600160a01b900460ff1615610117576040805162461bcd60e51b815260206004820152601460248201527f696e697469616c6973656420213d2066616c7365000000000000000000000000604482015290519081900360640190fd5b6001805460ff60a01b1916600160a01b179055600054604080516001600160a01b039283168152918316602083015280517f434a2db650703b36c824e745330d6397cdaa9ee2cc891a4938ae853e1c50b68d9281900390910190a1600080546001600160a01b039092166001600160a01b0319928316179055600180549091169055565b7f714f205b2abd25bef1d06a1af944e38c113fe6160375c4e1d6d5cf28848e771955565b610f86806101ce6000396000f3fe608060405234801561001057600080fd5b50600436106101165760003560e01c806377fb6749116100a2578063a755d7ec11610071578063a755d7ec14610260578063b00c0b761461027d578063b816f513146103a4578063c373a08e146103ac578063d38bfff4146103d257610116565b806377fb674914610222578063899fd1641461022a5780639d6a890f146102325780639edbf0071461025857610116565b80635aa6e675116100e95780635aa6e675146101dc5780635d36b190146101e457806360f7ac97146101ec57806369ea2387146101f457806370ebe1381461021a57610116565b806302aa63181461011b5780634487d3df146101735780634863ba17146101ac5780635267a15d146101d4575b600080fd5b6101236103f8565b60408051602080825283518183015283519192839290830191858101910280838360005b8381101561015f578181015183820152602001610147565b505050509050019250505060405180910390f35b6101906004803603602081101561018957600080fd5b503561045a565b604080516001600160a01b039092168252519081900360200190f35b6101d2600480360360208110156101c257600080fd5b50356001600160a01b0316610484565b005b6101906104e6565b61019061050b565b6101d261051a565b6101906105dc565b6101906004803603602081101561020a57600080fd5b50356001600160a01b03166105eb565b610190610606565b6101236107a7565b610190610807565b6101d26004803603602081101561024857600080fd5b50356001600160a01b0316610816565b6101906108f0565b6101906004803603602081101561027657600080fd5b50356108ff565b6101d26004803603604081101561029357600080fd5b8101906020810181356401000000008111156102ae57600080fd5b8201836020820111156102c057600080fd5b803590602001918460208302840111640100000000831117156102e257600080fd5b919080806020026020016040519081016040528093929190818152602001838360200280828437600092019190915250929594936020810193503591505064010000000081111561033257600080fd5b82018360208201111561034457600080fd5b8035906020019184602083028401116401000000008311171561036657600080fd5b91908080602002602001604051908101604052809392919081815260200183836020028082843760009201919091525092955061090f945050505050565b6101906109ba565b6101d2600480360360208110156103c257600080fd5b50356001600160a01b03166109c9565b6101d2600480360360208110156103e857600080fd5b50356001600160a01b0316610a25565b6060600580548060200260200160405190810160405280929190818152602001828054801561045057602002820191906000526020600020905b81546001600160a01b03168152600190910190602001808311610432575b5050505050905090565b6005818154811061046a57600080fd5b6000918252602090912001546001600160a01b0316905081565b61048c610a9e565b600680546001600160a01b0319166001600160a01b03838116919091179182905560408051929091168252517f8090fc49ca947f0d2c36cc012d57cbde7d77bc103c52d8712c0f5ba17703b4da916020908290030190a150565b7f714f205b2abd25bef1d06a1af944e38c113fe6160375c4e1d6d5cf28848e77195490565b6000546001600160a01b031681565b6001546001600160a01b03163314610569576040805162461bcd60e51b815260206004820152600d60248201526c1b9bdd0818db185a5b585a5b9d609a1b604482015290519081900360640190fd5b600054600154604080516001600160a01b03938416815292909116602083015280517f434a2db650703b36c824e745330d6397cdaa9ee2cc891a4938ae853e1c50b68d9281900390910190a160018054600080546001600160a01b03199081166001600160a01b03841617909155169055565b6001546001600160a01b031681565b6007602052600090815260409020546001600160a01b031681565b6006546000906001600160a01b0316610666576040805162461bcd60e51b815260206004820152601e60248201527f6c6962726172792061646472657373206973206e6f7420736574207965740000604482015290519081900360640190fd5b336000908152600760205260409020546001600160a01b0316156106bb5760405162461bcd60e51b8152600401808060200182810382526026815260200180610f2b6026913960400191505060405180910390fd5b6006546000906106d3906001600160a01b0316610af1565b6040805163485cc95560e01b815233600482015230602482015290519192506001600160a01b0383169163485cc9559160448082019260009290919082900301818387803b15801561072457600080fd5b505af1158015610738573d6000803e3d6000fd5b50503360008181526007602090815260409182902080546001600160a01b0319166001600160a01b03881690811790915582519081529081019290925280517fefd2d618b59bcdf776536f707d85902c46708bb4e31b4281c41702c876882792945091829003019150a1905090565b60606003805480602002602001604051908101604052809291908181526020018280548015610450576020028201919060005260206000209081546001600160a01b03168152600190910190602001808311610432575050505050905090565b6004546001600160a01b031681565b600154600160a01b900460ff161561086c576040805162461bcd60e51b8152602060048201526014602482015273696e697469616c6973656420213d2066616c736560601b604482015290519081900360640190fd5b6001805460ff60a01b1916600160a01b179055600054604080516001600160a01b039283168152918316602083015280517f434a2db650703b36c824e745330d6397cdaa9ee2cc891a4938ae853e1c50b68d9281900390910190a1600080546001600160a01b039092166001600160a01b0319928316179055600180549091169055565b6002546001600160a01b031681565b6003818154811061046a57600080fd5b6109176104e6565b6001600160a01b0316336001600160a01b031614610973576040805162461bcd60e51b815260206004820152601460248201527337b7363c9030b2323932b9b9903ab83230ba32b960611b604482015290519081900360640190fd5b6109ac6109a783836040518060400160405280600e81526020016d20b2323932b9b9aab83230ba32b960911b815250610b43565b610c70565b6109b68282610c94565b5050565b6006546001600160a01b031681565b6109d1610a9e565b600180546001600160a01b0383166001600160a01b0319909116811790915560408051918252517f1f95fb40be3a947982072902a887b521248d1d8931a39eb38f84f4d6fd758b699181900360200190a150565b610a2d610a9e565b600054604080516001600160a01b039283168152918316602083015280517f434a2db650703b36c824e745330d6397cdaa9ee2cc891a4938ae853e1c50b68d9281900390910190a1600080546001600160a01b039092166001600160a01b0319928316179055600180549091169055565b6000546001600160a01b03163314610aef576040805162461bcd60e51b815260206004820152600f60248201526e6f6e6c7920676f7665726e616e636560881b604482015290519081900360640190fd5b565b6000808260601b9050604051733d602d80600a3d3981f3363d3d373d3d3d363d7360601b81528160148201526e5af43d82803e903d91602b57fd5bf360881b60288201526037816000f0949350505050565b600080826040516020018080602001828103825283818151815260200191508051906020019080838360005b83811015610b87578181015183820152602001610b6f565b50505050905090810190601f168015610bb45780820380516001836020036101000a031916815260200191505b50925050506040516020818303038152906040528051906020012090506000805b8651811015610c1c57868181518110610bea57fe5b6020026020010151831415610c1457858181518110610c0557fe5b60200260200101519150610c1c565b600101610bd5565b506001600160a01b038116610c67576040805162461bcd60e51b815260206004820152600c60248201526b61646472657373207a65726f60a01b604482015290519081900360640190fd5b95945050505050565b7f714f205b2abd25bef1d06a1af944e38c113fe6160375c4e1d6d5cf28848e771955565b610cbb82826040518060400160405280600481526020016315d3985d60e21b815250610b43565b600280546001600160a01b0319166001600160a01b03928316179081905560408051638c2b8ae160e01b815290519190921691638c2b8ae1916004808301926020929190829003018186803b158015610d1357600080fd5b505afa158015610d27573d6000803e3d6000fd5b505050506040513d6020811015610d3d57600080fd5b5051600480546001600160a01b0319166001600160a01b03909216919091179055604080518082019091526011815270233a39b7a932bbb0b93226b0b730b3b2b960791b6020820152600090610d969084908490610b43565b90506000805b600354811015610de957826001600160a01b031660038281548110610dbd57fe5b6000918252602090912001546001600160a01b03161415610de15760019150610de9565b600101610d9c565b5080610e3b57600380546001810182556000919091527fc2575a0e9e593c00f959f8c92f12db2869c3395a3b0502d05e2516446f71f85b0180546001600160a01b0319166001600160a01b0384161790555b6000610e7d85856040518060400160405280601881526020017f446973747269627574696f6e546f44656c656761746f72730000000000000000815250610b43565b90506000805b600554811015610ed057826001600160a01b031660058281548110610ea457fe5b6000918252602090912001546001600160a01b03161415610ec85760019150610ed0565b600101610e83565b5080610f2257600580546001810182556000919091527f036b6384b5eca791c62761152d0c79bb0604c104a5fb6f4eb0703f3154bb3db00180546001600160a01b0319166001600160a01b0384161790555b50505050505056fe6163636f756e7420616c7265616479206861732064656c65676174696f6e206163636f756e74a2646970667358221220f45ce555cae01c5591d9ea1268e26d70b04cd375de775ef8bc4c932b3e9c5c4864736f6c63430007060033",
  "linkReferences": {},
  "deployedLinkReferences": {}
}