{
  "_format": "hh-sol-artifact-1",
  "contractName": "InflationReceiverMock",
  "sourceName": "contracts/inflation/mock/InflationReceiverMock.sol",
  "abi": [
    {
      "inputs": [],
      "name": "getContractName",
      "outputs": [
        {
          "internalType": "string",
          "name": "",
          "type": "string"
        }
      ],
      "stateMutability": "pure",
      "type": "function"
    },
    {
      "inputs": [],
      "name": "getInflationAddress",
      "outputs": [
        {
          "internalType": "address",
          "name": "",
          "type": "address"
        }
      ],
      "stateMutability": "nonpayable",
      "type": "function"
    },
    {
      "inputs": [],
      "name": "receiveInflation",
      "outputs": [],
      "stateMutability": "payable",
      "type": "function"
    },
    {
      "inputs": [
        {
          "internalType": "uint256",
          "name": "toAuthorizeWei",
          "type": "uint256"
        }
      ],
      "name": "setDailyAuthorizedInflation",
      "outputs": [],
      "stateMutability": "nonpayable",
      "type": "function"
    }
  ],
  "bytecode": "0x608060405234801561001057600080fd5b506101a9806100206000396000f3fe60806040526004361061003f5760003560e01c806306201f1d14610044578063e27395631461004e578063ed39d3f81461006e578063f5f5ba7214610099575b600080fd5b61004c6100bb565b005b34801561005a57600080fd5b5061004c6100693660046100f4565b6100bd565b34801561007a57600080fd5b506100836100c0565b604051610090919061010c565b60405180910390f35b3480156100a557600080fd5b506100ae6100c5565b6040516100909190610120565b565b50565b600090565b604080518082019091526015815274496e666c6174696f6e52656365697665724d6f636b60581b602082015290565b600060208284031215610105578081fd5b5035919050565b6001600160a01b0391909116815260200190565b6000602080835283518082850152825b8181101561014c57858101830151858201604001528201610130565b8181111561015d5783604083870101525b50601f01601f191692909201604001939250505056fea26469706673582212207cf2e0cc5f7520487a0ae0eec357251278cdb7e33a27281c309ed987f539228964736f6c63430007060033",
  "linkReferences": {},
  "deployedLinkReferences": {}
}