{
  "_format": "hh-sol-artifact-1",
  "contractName": "Supply",
  "sourceName": "contracts/inflation/implementation/Supply.sol",
  "abi": [
    {
      "inputs": [
        {
          "internalType": "address",
          "name": "_governance",
          "type": "address"
        },
        {
          "internalType": "address",
          "name": "_addressUpdater",
          "type": "address"
        },
        {
          "internalType": "address",
          "name": "_burnAddress",
          "type": "address"
        },
        {
          "internalType": "uint256",
          "name": "_initialGenesisAmountWei",
          "type": "uint256"
        },
        {
          "internalType": "uint256",
          "name": "_totalExcludedSupplyWei",
          "type": "uint256"
        },
        {
          "internalType": "contract IITokenPool[]",
          "name": "_tokenPools",
          "type": "address[]"
        }
      ],
      "stateMutability": "nonpayable",
      "type": "constructor"
    },
    {
      "anonymous": false,
      "inputs": [
        {
          "indexed": false,
          "internalType": "uint256",
          "name": "actual",
          "type": "uint256"
        },
        {
          "indexed": false,
          "internalType": "uint256",
          "name": "expected",
          "type": "uint256"
        }
      ],
      "name": "AuthorizedInflationUpdateError",
      "type": "event"
    },
    {
      "anonymous": false,
      "inputs": [
        {
          "indexed": false,
          "internalType": "address",
          "name": "proposedGovernance",
          "type": "address"
        }
      ],
      "name": "GovernanceProposed",
      "type": "event"
    },
    {
      "anonymous": false,
      "inputs": [
        {
          "indexed": false,
          "internalType": "address",
          "name": "oldGovernance",
          "type": "address"
        },
        {
          "indexed": false,
          "internalType": "address",
          "name": "newGoveranance",
          "type": "address"
        }
      ],
      "name": "GovernanceUpdated",
      "type": "event"
    },
    {
      "inputs": [
        {
          "internalType": "contract IITokenPool",
          "name": "_tokenPool",
          "type": "address"
        },
        {
          "internalType": "uint256",
          "name": "_increaseDistributedSupplyByAmountWei",
          "type": "uint256"
        }
      ],
      "name": "addTokenPool",
      "outputs": [],
      "stateMutability": "nonpayable",
      "type": "function"
    },
    {
      "inputs": [],
      "name": "burnAddress",
      "outputs": [
        {
          "internalType": "address",
          "name": "",
          "type": "address"
        }
      ],
      "stateMutability": "view",
      "type": "function"
    },
    {
      "inputs": [],
      "name": "claimGovernance",
      "outputs": [],
      "stateMutability": "nonpayable",
      "type": "function"
    },
    {
      "inputs": [
        {
          "internalType": "uint256",
          "name": "_amountWei",
          "type": "uint256"
        }
      ],
      "name": "decreaseDistributedSupply",
      "outputs": [],
      "stateMutability": "nonpayable",
      "type": "function"
    },
    {
      "inputs": [],
      "name": "distributedExcludedSupplyWei",
      "outputs": [
        {
          "internalType": "uint256",
          "name": "",
          "type": "uint256"
        }
      ],
      "stateMutability": "view",
      "type": "function"
    },
    {
      "inputs": [],
      "name": "getAddressUpdater",
      "outputs": [
        {
          "internalType": "address",
          "name": "_addressUpdater",
          "type": "address"
        }
      ],
      "stateMutability": "view",
      "type": "function"
    },
    {
      "inputs": [
        {
          "internalType": "uint256",
          "name": "_blockNumber",
          "type": "uint256"
        }
      ],
      "name": "getCirculatingSupplyAt",
      "outputs": [
        {
          "internalType": "uint256",
          "name": "_circulatingSupplyWei",
          "type": "uint256"
        }
      ],
      "stateMutability": "view",
      "type": "function"
    },
    {
      "inputs": [
        {
          "internalType": "uint256",
          "name": "_blockNumber",
          "type": "uint256"
        }
      ],
      "name": "getCirculatingSupplyAtCached",
      "outputs": [
        {
          "internalType": "uint256",
          "name": "_circulatingSupplyWei",
          "type": "uint256"
        }
      ],
      "stateMutability": "nonpayable",
      "type": "function"
    },
    {
      "inputs": [],
      "name": "getInflatableBalance",
      "outputs": [
        {
          "internalType": "uint256",
          "name": "_inflatableBalanceWei",
          "type": "uint256"
        }
      ],
      "stateMutability": "view",
      "type": "function"
    },
    {
      "inputs": [],
      "name": "governance",
      "outputs": [
        {
          "internalType": "address",
          "name": "",
          "type": "address"
        }
      ],
      "stateMutability": "view",
      "type": "function"
    },
    {
      "inputs": [
        {
          "internalType": "uint256",
          "name": "_amountWei",
          "type": "uint256"
        }
      ],
      "name": "increaseDistributedSupply",
      "outputs": [],
      "stateMutability": "nonpayable",
      "type": "function"
    },
    {
      "inputs": [],
      "name": "inflation",
      "outputs": [
        {
          "internalType": "address",
          "name": "",
          "type": "address"
        }
      ],
      "stateMutability": "view",
      "type": "function"
    },
    {
      "inputs": [],
      "name": "initialGenesisAmountWei",
      "outputs": [
        {
          "internalType": "uint256",
          "name": "",
          "type": "uint256"
        }
      ],
      "stateMutability": "view",
      "type": "function"
    },
    {
      "inputs": [
        {
          "internalType": "address",
          "name": "_governance",
          "type": "address"
        }
      ],
      "name": "initialise",
      "outputs": [],
      "stateMutability": "nonpayable",
      "type": "function"
    },
    {
      "inputs": [
        {
          "internalType": "address",
          "name": "_governance",
          "type": "address"
        }
      ],
      "name": "proposeGovernance",
      "outputs": [],
      "stateMutability": "nonpayable",
      "type": "function"
    },
    {
      "inputs": [],
      "name": "proposedGovernance",
      "outputs": [
        {
          "internalType": "address",
          "name": "",
          "type": "address"
        }
      ],
      "stateMutability": "view",
      "type": "function"
    },
    {
      "inputs": [
        {
          "internalType": "uint256",
          "name": "",
          "type": "uint256"
        }
      ],
      "name": "tokenPools",
      "outputs": [
        {
          "internalType": "contract IITokenPool",
          "name": "tokenPool",
          "type": "address"
        },
        {
          "internalType": "uint256",
          "name": "totalLockedWei",
          "type": "uint256"
        },
        {
          "internalType": "uint256",
          "name": "totalInflationAuthorizedWei",
          "type": "uint256"
        },
        {
          "internalType": "uint256",
          "name": "totalClaimedWei",
          "type": "uint256"
        }
      ],
      "stateMutability": "view",
      "type": "function"
    },
    {
      "inputs": [],
      "name": "totalClaimedWei",
      "outputs": [
        {
          "internalType": "uint256",
          "name": "",
          "type": "uint256"
        }
      ],
      "stateMutability": "view",
      "type": "function"
    },
    {
      "inputs": [],
      "name": "totalExcludedSupplyWei",
      "outputs": [
        {
          "internalType": "uint256",
          "name": "",
          "type": "uint256"
        }
      ],
      "stateMutability": "view",
      "type": "function"
    },
    {
      "inputs": [],
      "name": "totalInflationAuthorizedWei",
      "outputs": [
        {
          "internalType": "uint256",
          "name": "",
          "type": "uint256"
        }
      ],
      "stateMutability": "view",
      "type": "function"
    },
    {
      "inputs": [],
      "name": "totalLockedWei",
      "outputs": [
        {
          "internalType": "uint256",
          "name": "",
          "type": "uint256"
        }
      ],
      "stateMutability": "view",
      "type": "function"
    },
    {
      "inputs": [
        {
          "internalType": "address",
          "name": "_governance",
          "type": "address"
        }
      ],
      "name": "transferGovernance",
      "outputs": [],
      "stateMutability": "nonpayable",
      "type": "function"
    },
    {
      "inputs": [
        {
          "internalType": "uint256",
          "name": "_inflationAuthorizedWei",
          "type": "uint256"
        }
      ],
      "name": "updateAuthorizedInflationAndCirculatingSupply",
      "outputs": [],
      "stateMutability": "nonpayable",
      "type": "function"
    },
    {
      "inputs": [],
      "name": "updateCirculatingSupply",
      "outputs": [],
      "stateMutability": "nonpayable",
      "type": "function"
    },
    {
      "inputs": [
        {
          "internalType": "bytes32[]",
          "name": "_contractNameHashes",
          "type": "bytes32[]"
        },
        {
          "internalType": "address[]",
          "name": "_contractAddresses",
          "type": "address[]"
        }
      ],
      "name": "updateContractAddresses",
      "outputs": [],
      "stateMutability": "nonpayable",
      "type": "function"
    }
  ],
  "bytecode": "0x60e06040523480156200001157600080fd5b506040516200246238038062002462833981810160405260c08110156200003757600080fd5b815160208301516040808501516060860151608087015160a0880180519451969895979396929591949293820192846401000000008211156200007957600080fd5b9083019060208201858111156200008f57600080fd5b8251866020820283011164010000000082111715620000ad57600080fd5b82525081516020918201928201910280838360005b83811015620000dc578181015183820152602001620000c2565b5050505090500160405250505084868060006001600160a01b0316816001600160a01b03161462000112576200011281620002c2565b506001600160a01b03811662000162576040805162461bcd60e51b815260206004820152601060248201526f5f676f7665726e616e6365207a65726f60801b604482015290519081900360640190fd5b506200016e81620003a6565b5060408051808201909152601b81527f696e697469616c2067656e6573697320616d6f756e74207a65726f0000000000602082015283620002305760405162461bcd60e51b81526004018080602001828103825283818151815260200191508051906020019080838360005b83811015620001f4578181015183820152602001620001da565b50505050905090810190601f168015620002225780820380516001836020036101000a031916815260200191505b509250505060405180910390fd5b50606084901b6001600160601b03191660c052608083905260a08290526200026f620002698484620003ca602090811b62000c7017901c565b62000428565b60005b8151811015620002aa57620002a18282815181106200028d57fe5b60200260200101516200047560201b60201c565b60010162000272565b50620002b6846200058a565b50505050505062000b8a565b600154600160a01b900460ff161562000322576040805162461bcd60e51b815260206004820152601460248201527f696e697469616c6973656420213d2066616c7365000000000000000000000000604482015290519081900360640190fd5b6001805460ff60a01b1916600160a01b179055600054604080516001600160a01b039283168152918316602083015280517f434a2db650703b36c824e745330d6397cdaa9ee2cc891a4938ae853e1c50b68d9281900390910190a1600080546001600160a01b039092166001600160a01b0319928316179055600180549091169055565b7f714f205b2abd25bef1d06a1af944e38c113fe6160375c4e1d6d5cf28848e771955565b60008282111562000422576040805162461bcd60e51b815260206004820152601e60248201527f536166654d6174683a207375627472616374696f6e206f766572666c6f770000604482015290519081900360640190fd5b50900390565b620004726200045c82620004486002620007bc60201b62000cd21760201c565b6200080e60201b62000d1b1790919060201c565b60026200087060201b62000d7c1790919060201c565b50565b60095460005b818110156200053a57600981815481106200049257fe5b60009182526020909120600490910201546001600160a01b03848116911614156200053157604080518082018252601881527f746f6b656e20706f6f6c20616c726561647920616464656400000000000000006020808301918252925162461bcd60e51b81526004810193845282516024820152825192939283926044909201919080838360008315620001f4578181015183820152602001620001da565b6001016200047b565b50600980546001018082556000829052839190839081106200055857fe5b6000918252602090912060049091020180546001600160a01b0319166001600160a01b03929092169190911790555050565b60095460005b81811015620007ac57600060098281548110620005a957fe5b600091825260208220600491820201805460408051632dafdbbf60e01b81529051929550849384936001600160a01b0390931692632dafdbbf92808301926060929182900301818787803b1580156200060157600080fd5b505af115801562000616573d6000803e3d6000fd5b505050506040513d60608110156200062d57600080fd5b508051602080830151604090930151919550919350915081906200065e908590859062000d1b6200080e821b17901c565b10156200066757fe5b600062000687856002015484620003ca60201b62000c701790919060201c565b9050620006a5816007546200080e60201b62000d1b1790919060201c565b6007819055506000620006cb866003015484620003ca60201b62000c701790919060201c565b9050620006d88162000428565b620006f4816008546200080e60201b62000d1b1790919060201c565b600855600186015485106200073b5760018601548503620007158162000a71565b62000731816006546200080e60201b62000d1b1790919060201c565b6006555062000789565b60008587600101540390506200076281600554620003ca60201b62000c701790919060201c565b6005819055506200078481600654620003ca60201b62000c701790919060201c565b600655505b505060018085019390935560028401919091556003909201919091550162000590565b50620007b88262000aa5565b5050565b60018101546000906801000000000000000090046001600160401b031680620007ea57600091505062000809565b600019016000908152602083905260409020546001600160c01b031690505b919050565b60008282018381101562000869576040805162461bcd60e51b815260206004820152601b60248201527f536166654d6174683a206164646974696f6e206f766572666c6f770000000000604482015290519081900360640190fd5b9392505050565b60018201546801000000000000000090046001600160401b03168062000947576040518060400160405280620008ac8462000ae060201b60201c565b6001600160c01b03168152602001620008d04362000b3f60201b62000f431760201c565b6001600160401b03908116909152600080805260208681526040909120835181549490920151909216600160c01b026001600160c01b039182166001600160c01b03199094169390931716919091179055600183018054600160401b600160801b0319166801000000000000000017905562000a6c565b600019810160009081526020849052604090208054600160c01b90046001600160401b031643811415620009a157620009808462000ae0565b82546001600160c01b0319166001600160c01b039190911617825562000a69565b804311620009ab57fe5b6040518060400160405280620009c78662000ae060201b60201c565b6001600160c01b03168152602001620009eb4362000b3f60201b62000f431760201c565b6001600160401b039081169091526000858152602088815260409091208351815494909201518316600160c01b026001600160c01b039283166001600160c01b03199095169490941790911692909217909155600180870180549186019092166801000000000000000002600160401b600160801b03199091161790555b50505b505050565b620004726200045c8262000a916002620007bc60201b62000cd21760201c565b620003ca60201b62000c701790919060201c565b6000816001600160a01b031631905062000ada62000ad4600b5483620003ca60201b62000c701790919060201c565b62000a71565b600b5550565b6000600160c01b821062000b3b576040805162461bcd60e51b815260206004820152601d60248201527f76616c756520646f65736e27742066697420696e203139322062697473000000604482015290519081900360640190fd5b5090565b600068010000000000000000821062000b3b5760405162461bcd60e51b81526004018080602001828103825260268152602001806200243c6026913960400191505060405180910390fd5b60805160a05160c05160601c61185f62000bdd600039806106af5280610800528061082952806109b35280610c4c5250806105815280610c0b52806114ee5250806105b75280610ae6525061185f6000f3fe608060405234801561001057600080fd5b50600436106101725760003560e01c80639d6a890f116100de578063c373a08e11610097578063d9330e6311610071578063d9330e631461044c578063df3d9b7314610469578063e433f81814610486578063efcf7eb21461048e57610172565b8063c373a08e146103f8578063d0c1c3931461041e578063d38bfff41461042657610172565b80639d6a890f146102765780639f71043e1461029c578063a2420e20146102a4578063b00c0b76146102c1578063be0522e0146103e8578063bfebbd26146103f057610172565b80635267a15d116101305780635267a15d146102155780635aa6e675146102395780635d36b1901461024157806360f7ac97146102495780636159b0a31461025157806370d5ae051461026e57610172565b8062c0f91614610177578063037b0890146101c4578063099eea62146101f35780631b73b4cb146101fb57806332ae2927146102035780633c8c461c1461020b575b600080fd5b6101946004803603602081101561018d57600080fd5b50356104ba565b604080516001600160a01b0390951685526020850193909352838301919091526060830152519081900360800190f35b6101e1600480360360208110156101da57600080fd5b50356104fe565b60408051918252519081900360200190f35b6101e1610568565b6101e161056e565b6101e16105e7565b6102136105ed565b005b61021d6106d5565b604080516001600160a01b039092168252519081900360200190f35b61021d6106fa565b610213610709565b61021d6107cb565b6102136004803603602081101561026757600080fd5b50356107da565b61021d610827565b6102136004803603602081101561028c57600080fd5b50356001600160a01b031661084b565b6101e1610925565b610213600480360360208110156102ba57600080fd5b503561092b565b610213600480360360408110156102d757600080fd5b8101906020810181356401000000008111156102f257600080fd5b82018360208201111561030457600080fd5b8035906020019184602083028401116401000000008311171561032657600080fd5b919080806020026020016040519081016040528093929190818152602001838360200280828437600092019190915250929594936020810193503591505064010000000081111561037657600080fd5b82018360208201111561038857600080fd5b803590602001918460208302840111640100000000831117156103aa57600080fd5b919080806020026020016040519081016040528093929190818152602001838360200280828437600092019190915250929550610a2e945050505050565b61021d610ad5565b6101e1610ae4565b6102136004803603602081101561040e57600080fd5b50356001600160a01b0316610b08565b6101e1610b64565b6102136004803603602081101561043c57600080fd5b50356001600160a01b0316610b6a565b6101e16004803603602081101561046257600080fd5b5035610be3565b6102136004803603602081101561047f57600080fd5b5035610bf8565b6101e1610c09565b610213600480360360408110156104a457600080fd5b506001600160a01b038135169060200135610c2d565b600981815481106104ca57600080fd5b600091825260209091206004909102018054600182015460028301546003909301546001600160a01b039092169350919084565b6000438210610554576040805162461bcd60e51b815260206004820181905260248201527f43616e206f6e6c79206265207573656420666f72207061737420626c6f636b73604482015290519081900360640190fd5b6105616004600284610f8b565b5092915050565b60055481565b60006105e26006546105dc6105ae6005547f0000000000000000000000000000000000000000000000000000000000000000610c7090919063ffffffff16565b6008546105dc907f000000000000000000000000000000000000000000000000000000000000000090610d1b565b90610c70565b905090565b60065481565b600a5460408051808201909152600e81526d696e666c6174696f6e206f6e6c7960901b6020820152906001600160a01b031633146106a95760405162461bcd60e51b81526004018080602001828103825283818151815260200191508051906020019080838360005b8381101561066e578181015183820152602001610656565b50505050905090810190601f16801561069b5780820380516001836020036101000a031916815260200191505b509250505060405180910390fd5b506106d37f0000000000000000000000000000000000000000000000000000000000000000610fe9565b565b7f714f205b2abd25bef1d06a1af944e38c113fe6160375c4e1d6d5cf28848e77195490565b6000546001600160a01b031681565b6001546001600160a01b03163314610758576040805162461bcd60e51b815260206004820152600d60248201526c1b9bdd0818db185a5b585a5b9d609a1b604482015290519081900360640190fd5b600054600154604080516001600160a01b03938416815292909116602083015280517f434a2db650703b36c824e745330d6397cdaa9ee2cc891a4938ae853e1c50b68d9281900390910190a160018054600080546001600160a01b03199081166001600160a01b03841617909155169055565b6001546001600160a01b031681565b6107e2611193565b6005546107ef9082610c70565b6005556107fb816111e4565b6108247f0000000000000000000000000000000000000000000000000000000000000000610fe9565b50565b7f000000000000000000000000000000000000000000000000000000000000000081565b600154600160a01b900460ff16156108a1576040805162461bcd60e51b8152602060048201526014602482015273696e697469616c6973656420213d2066616c736560601b604482015290519081900360640190fd5b6001805460ff60a01b1916600160a01b179055600054604080516001600160a01b039283168152918316602083015280517f434a2db650703b36c824e745330d6397cdaa9ee2cc891a4938ae853e1c50b68d9281900390910190a1600080546001600160a01b039092166001600160a01b0319928316179055600180549091169055565b60085481565b600a5460408051808201909152600e81526d696e666c6174696f6e206f6e6c7960901b6020820152906001600160a01b031633146109aa5760405162461bcd60e51b815260206004820181815283516024840152835190928392604490910191908501908083836000831561066e578181015183820152602001610656565b506007546109d77f0000000000000000000000000000000000000000000000000000000000000000610fe9565b6109e18183610d1b565b60075414610a2a57600754604080519183900382526020820184905280517feeb8970a03ae6e5930263b6b2553da66b8e20080d79a3f33c139e5855574eb739281900390910190a15b5050565b610a366106d5565b6001600160a01b0316336001600160a01b031614610a92576040805162461bcd60e51b815260206004820152601460248201527337b7363c9030b2323932b9b9903ab83230ba32b960611b604482015290519081900360640190fd5b610acb610ac683836040518060400160405280600e81526020016d20b2323932b9b9aab83230ba32b960911b8152506111fd565b61132a565b610a2a828261134e565b600a546001600160a01b031681565b7f000000000000000000000000000000000000000000000000000000000000000081565b610b10611193565b600180546001600160a01b0383166001600160a01b0319909116811790915560408051918252517f1f95fb40be3a947982072902a887b521248d1d8931a39eb38f84f4d6fd758b699181900360200190a150565b60075481565b610b72611193565b600054604080516001600160a01b039283168152918316602083015280517f434a2db650703b36c824e745330d6397cdaa9ee2cc891a4938ae853e1c50b68d9281900390910190a1600080546001600160a01b039092166001600160a01b0319928316179055600180549091169055565b6000610bf060028361139e565b90505b919050565b610c00611193565b6107fb816114e5565b7f000000000000000000000000000000000000000000000000000000000000000081565b610c35611193565b610c3e816114e5565b610c478261153f565b610a2a7f0000000000000000000000000000000000000000000000000000000000000000610fe9565b600082821115610cc7576040805162461bcd60e51b815260206004820152601e60248201527f536166654d6174683a207375627472616374696f6e206f766572666c6f770000604482015290519081900360640190fd5b508082035b92915050565b6001810154600090600160401b900467ffffffffffffffff1680610cfa576000915050610bf3565b6000190160009081526020929092525060409020546001600160c01b031690565b600082820183811015610d75576040805162461bcd60e51b815260206004820152601b60248201527f536166654d6174683a206164646974696f6e206f766572666c6f770000000000604482015290519081900360640190fd5b9392505050565b6001820154600160401b900467ffffffffffffffff1680610e35576040518060400160405280610dab8461164d565b6001600160c01b03168152602001610dc243610f43565b67ffffffffffffffff908116909152600080805260208681526040909120835181549490920151909216600160c01b026001600160c01b039182166001600160c01b0319909416939093171691909117905560018301805467ffffffffffffffff60401b1916600160401b179055610f3e565b600019810160009081526020849052604090208054600160c01b900467ffffffffffffffff1643811415610e8c57610e6c8461164d565b82546001600160c01b0319166001600160c01b0391909116178255610f3b565b804311610e9557fe5b6040518060400160405280610ea98661164d565b6001600160c01b03168152602001610ec043610f43565b67ffffffffffffffff9081169091526000858152602088815260409091208351815494909201518316600160c01b026001600160c01b039283166001600160c01b0319909516949094179091169290921790915560018087018054918601909216600160401b0267ffffffffffffffff60401b199091161790555b50505b505050565b6000600160401b8210610f875760405162461bcd60e51b81526004018080602001828103825260268152602001806117d46026913960400191505060405180910390fd5b5090565b60008181526020849052604081205481908015610fb15760001901915060009050610fe1565b6000610fbd868661139e565b9050610fca816001610d1b565b600086815260208990526040902055925060019150505b935093915050565b60095460005b818110156111895760006009828154811061100657fe5b600091825260208220600491820201805460408051632dafdbbf60e01b81529051929550849384936001600160a01b0390931692632dafdbbf92808301926060929182900301818787803b15801561105d57600080fd5b505af1158015611071573d6000803e3d6000fd5b505050506040513d606081101561108757600080fd5b50805160208201516040909201519094509092509050806110a88484610d1b565b10156110b057fe5b60006110c9856002015484610c7090919063ffffffff16565b6007549091506110d99082610d1b565b60075560038501546000906110ef908490610c70565b90506110fa816116a7565b6008546111079082610d1b565b6008556001860154851061113b5760018601548503611125816111e4565b6006546111329082610d1b565b60065550611167565b600186015460055490869003906111529082610c70565b6005556006546111629082610c70565b600655505b5050600180850193909355600284019190915560039092019190915501610fef565b50610a2a826116be565b6000546001600160a01b031633146106d3576040805162461bcd60e51b815260206004820152600f60248201526e6f6e6c7920676f7665726e616e636560881b604482015290519081900360640190fd5b6108246111f5826105dc6002610cd2565b600290610d7c565b600080826040516020018080602001828103825283818151815260200191508051906020019080838360005b83811015611241578181015183820152602001611229565b50505050905090810190601f16801561126e5780820380516001836020036101000a031916815260200191505b50925050506040516020818303038152906040528051906020012090506000805b86518110156112d6578681815181106112a457fe5b60200260200101518314156112ce578581815181106112bf57fe5b602002602001015191506112d6565b60010161128f565b506001600160a01b038116611321576040805162461bcd60e51b815260206004820152600c60248201526b61646472657373207a65726f60a01b604482015290519081900360640190fd5b95945050505050565b7f714f205b2abd25bef1d06a1af944e38c113fe6160375c4e1d6d5cf28848e771955565b61137a82826040518060400160405280600981526020016824b7333630ba34b7b760b91b8152506111fd565b600a80546001600160a01b0319166001600160a01b03929092169190911790555050565b6001820154600090600160401b900467ffffffffffffffff16806113c6576000915050610ccc565b43831015806113f957506000198101600090815260208590526040902054600160c01b900467ffffffffffffffff168310155b1561142157600019016000908152602084905260409020546001600160c01b03169050610ccc565b600184015467ffffffffffffffff9081166000818152602087905260409020549091600160c01b9091041684101561149b5780156114905760405162461bcd60e51b81526004018080602001828103825260308152602001806117fa6030913960400191505060405180910390fd5b600092505050610ccc565b60018501546000906114c29087908490600160401b900467ffffffffffffffff16886116e7565b6000908152602087905260409020546001600160c01b0316935050505092915050565b8061151b6005547f0000000000000000000000000000000000000000000000000000000000000000610c7090919063ffffffff16565b101561152357fe5b61152c816116a7565b6005546115399082610d1b565b60055550565b60095460005b818110156115fe576009818154811061155a57fe5b60009182526020909120600490910201546001600160a01b03848116911614156115f657604080518082018252601881527f746f6b656e20706f6f6c20616c726561647920616464656400000000000000006020808301918252925162461bcd60e51b8152600481019384528251602482015282519293928392604490920191908083836000831561066e578181015183820152602001610656565b600101611545565b506009805460010180825560008290528391908390811061161b57fe5b6000918252602090912060049091020180546001600160a01b0319166001600160a01b03929092169190911790555050565b6000600160c01b8210610f87576040805162461bcd60e51b815260206004820152601d60248201527f76616c756520646f65736e27742066697420696e203139322062697473000000604482015290519081900360640190fd5b6108246111f5826116b86002610cd2565b90610d1b565b600b546001600160a01b03821631906116e1906116dc908390610c70565b6111e4565b600b5550565b600083816116f6856001610c70565b90505b8181111561176257600061171d600261171760016116b88688610d1b565b9061176c565b600081815260208a90526040902054909150600160c01b900467ffffffffffffffff16851061174e5780925061175c565b611759816001610c70565b91505b506116f9565b5095945050505050565b60008082116117c2576040805162461bcd60e51b815260206004820152601a60248201527f536166654d6174683a206469766973696f6e206279207a65726f000000000000604482015290519081900360640190fd5b8183816117cb57fe5b04939250505056fe53616665436173743a2076616c756520646f65736e27742066697420696e2036342062697473436865636b506f696e74486973746f72793a2072656164696e672066726f6d20636c65616e65642d757020626c6f636ba2646970667358221220ee4eb8f2b0c150077247ef244e1bfe642c7caa27953d11fd1955284cabbf793864736f6c6343000706003353616665436173743a2076616c756520646f65736e27742066697420696e2036342062697473",
  "linkReferences": {},
  "deployedLinkReferences": {}
}