{
  "_format": "hh-sol-artifact-1",
  "contractName": "VoterWhitelister",
  "sourceName": "contracts/utils/implementation/VoterWhitelister.sol",
  "abi": [
    {
      "inputs": [
        {
          "internalType": "address",
          "name": "_governance",
          "type": "address"
        },
        {
          "internalType": "contract IIPriceSubmitter",
          "name": "_priceSubmitter",
          "type": "address"
        },
        {
          "internalType": "uint256",
          "name": "_defaultMaxVotersForFtso",
          "type": "uint256"
        }
      ],
      "stateMutability": "nonpayable",
      "type": "constructor"
    },
    {
      "anonymous": false,
      "inputs": [
        {
          "indexed": false,
          "internalType": "address",
          "name": "proposedGovernance",
          "type": "address"
        }
      ],
      "name": "GovernanceProposed",
      "type": "event"
    },
    {
      "anonymous": false,
      "inputs": [
        {
          "indexed": false,
          "internalType": "address",
          "name": "oldGovernance",
          "type": "address"
        },
        {
          "indexed": false,
          "internalType": "address",
          "name": "newGoveranance",
          "type": "address"
        }
      ],
      "name": "GovernanceUpdated",
      "type": "event"
    },
    {
      "anonymous": false,
      "inputs": [
        {
          "indexed": false,
          "internalType": "address",
          "name": "voter",
          "type": "address"
        },
        {
          "indexed": false,
          "internalType": "uint256",
          "name": "ftsoIndex",
          "type": "uint256"
        }
      ],
      "name": "VoterRemovedFromWhitelist",
      "type": "event"
    },
    {
      "anonymous": false,
      "inputs": [
        {
          "indexed": false,
          "internalType": "address",
          "name": "voter",
          "type": "address"
        },
        {
          "indexed": false,
          "internalType": "uint256",
          "name": "ftsoIndex",
          "type": "uint256"
        }
      ],
      "name": "VoterWhitelisted",
      "type": "event"
    },
    {
      "inputs": [
        {
          "internalType": "uint256",
          "name": "_ftsoIndex",
          "type": "uint256"
        }
      ],
      "name": "addFtso",
      "outputs": [],
      "stateMutability": "nonpayable",
      "type": "function"
    },
    {
      "inputs": [],
      "name": "claimGovernance",
      "outputs": [],
      "stateMutability": "nonpayable",
      "type": "function"
    },
    {
      "inputs": [],
      "name": "defaultMaxVotersForFtso",
      "outputs": [
        {
          "internalType": "uint256",
          "name": "",
          "type": "uint256"
        }
      ],
      "stateMutability": "view",
      "type": "function"
    },
    {
      "inputs": [],
      "name": "ftsoManager",
      "outputs": [
        {
          "internalType": "address",
          "name": "",
          "type": "address"
        }
      ],
      "stateMutability": "view",
      "type": "function"
    },
    {
      "inputs": [],
      "name": "ftsoRegistry",
      "outputs": [
        {
          "internalType": "contract IFtsoRegistry",
          "name": "",
          "type": "address"
        }
      ],
      "stateMutability": "view",
      "type": "function"
    },
    {
      "inputs": [
        {
          "internalType": "uint256",
          "name": "_ftsoIndex",
          "type": "uint256"
        }
      ],
      "name": "getFtsoWhitelistedPriceProviders",
      "outputs": [
        {
          "internalType": "address[]",
          "name": "",
          "type": "address[]"
        }
      ],
      "stateMutability": "view",
      "type": "function"
    },
    {
      "inputs": [
        {
          "internalType": "string",
          "name": "_symbol",
          "type": "string"
        }
      ],
      "name": "getFtsoWhitelistedPriceProvidersBySymbol",
      "outputs": [
        {
          "internalType": "address[]",
          "name": "",
          "type": "address[]"
        }
      ],
      "stateMutability": "view",
      "type": "function"
    },
    {
      "inputs": [],
      "name": "governance",
      "outputs": [
        {
          "internalType": "address",
          "name": "",
          "type": "address"
        }
      ],
      "stateMutability": "view",
      "type": "function"
    },
    {
      "inputs": [
        {
          "internalType": "address",
          "name": "_governance",
          "type": "address"
        }
      ],
      "name": "initialise",
      "outputs": [],
      "stateMutability": "nonpayable",
      "type": "function"
    },
    {
      "inputs": [
        {
          "internalType": "uint256",
          "name": "",
          "type": "uint256"
        }
      ],
      "name": "maxVotersForFtso",
      "outputs": [
        {
          "internalType": "uint256",
          "name": "",
          "type": "uint256"
        }
      ],
      "stateMutability": "view",
      "type": "function"
    },
    {
      "inputs": [],
      "name": "priceSubmitter",
      "outputs": [
        {
          "internalType": "contract IIPriceSubmitter",
          "name": "",
          "type": "address"
        }
      ],
      "stateMutability": "view",
      "type": "function"
    },
    {
      "inputs": [
        {
          "internalType": "address",
          "name": "_governance",
          "type": "address"
        }
      ],
      "name": "proposeGovernance",
      "outputs": [],
      "stateMutability": "nonpayable",
      "type": "function"
    },
    {
      "inputs": [],
      "name": "proposedGovernance",
      "outputs": [
        {
          "internalType": "address",
          "name": "",
          "type": "address"
        }
      ],
      "stateMutability": "view",
      "type": "function"
    },
    {
      "inputs": [
        {
          "internalType": "uint256",
          "name": "_ftsoIndex",
          "type": "uint256"
        }
      ],
      "name": "removeFtso",
      "outputs": [],
      "stateMutability": "nonpayable",
      "type": "function"
    },
    {
      "inputs": [
        {
          "internalType": "address",
          "name": "_trustedAddress",
          "type": "address"
        },
        {
          "internalType": "uint256",
          "name": "_ftsoIndex",
          "type": "uint256"
        }
      ],
      "name": "removeTrustedAddressFromWhitelist",
      "outputs": [],
      "stateMutability": "nonpayable",
      "type": "function"
    },
    {
      "inputs": [
        {
          "internalType": "address",
          "name": "_voter",
          "type": "address"
        }
      ],
      "name": "requestFullVoterWhitelisting",
      "outputs": [
        {
          "internalType": "uint256[]",
          "name": "_supportedIndices",
          "type": "uint256[]"
        },
        {
          "internalType": "bool[]",
          "name": "_success",
          "type": "bool[]"
        }
      ],
      "stateMutability": "nonpayable",
      "type": "function"
    },
    {
      "inputs": [
        {
          "internalType": "address",
          "name": "_voter",
          "type": "address"
        },
        {
          "internalType": "uint256",
          "name": "_ftsoIndex",
          "type": "uint256"
        }
      ],
      "name": "requestWhitelistingVoter",
      "outputs": [],
      "stateMutability": "nonpayable",
      "type": "function"
    },
    {
      "inputs": [
        {
          "internalType": "contract IFtsoRegistry",
          "name": "_ftsoRegistry",
          "type": "address"
        },
        {
          "internalType": "address",
          "name": "_ftsoManager",
          "type": "address"
        }
      ],
      "name": "setContractAddresses",
      "outputs": [],
      "stateMutability": "nonpayable",
      "type": "function"
    },
    {
      "inputs": [
        {
          "internalType": "uint256",
          "name": "_defaultMaxVotersForFtso",
          "type": "uint256"
        }
      ],
      "name": "setDefaultMaxVotersForFtso",
      "outputs": [],
      "stateMutability": "nonpayable",
      "type": "function"
    },
    {
      "inputs": [
        {
          "internalType": "uint256",
          "name": "_ftsoIndex",
          "type": "uint256"
        },
        {
          "internalType": "uint256",
          "name": "_newMaxVoters",
          "type": "uint256"
        }
      ],
      "name": "setMaxVotersForFtso",
      "outputs": [],
      "stateMutability": "nonpayable",
      "type": "function"
    },
    {
      "inputs": [
        {
          "internalType": "address",
          "name": "_governance",
          "type": "address"
        }
      ],
      "name": "transferGovernance",
      "outputs": [],
      "stateMutability": "nonpayable",
      "type": "function"
    }
  ],
  "bytecode": "0x60a06040523480156200001157600080fd5b50604051620027f9380380620027f9833981810160405260608110156200003757600080fd5b508051602082015160409092015190919082806001600160a01b0381161562000065576200006581620000d3565b506001600160a01b038116620000b5576040805162461bcd60e51b815260206004820152601060248201526f5f676f7665726e616e6365207a65726f60801b604482015290519081900360640190fd5b5060609190911b6001600160601b03191660805260025550620001b7565b600154600160a01b900460ff161562000133576040805162461bcd60e51b815260206004820152601460248201527f696e697469616c6973656420213d2066616c7365000000000000000000000000604482015290519081900360640190fd5b6001805460ff60a01b1916600160a01b179055600054604080516001600160a01b039283168152918316602083015280517f434a2db650703b36c824e745330d6397cdaa9ee2cc891a4938ae853e1c50b68d9281900390910190a1600080546001600160a01b039092166001600160a01b0319928316179055600180549091169055565b60805160601c612615620001e46000398061146252806114895280611bd45280611cd852506126156000f3fe608060405234801561001057600080fd5b50600436106101375760003560e01c80637ecfcfa3116100b8578063b06cbaf71161007c578063b06cbaf7146103a5578063c373a08e14610464578063cd931e401461048a578063d38bfff4146104b8578063d8736171146104de578063f937d6ad146104fb57610137565b80637ecfcfa31461026f57806398dccfc2146102925780639d6a890f146102af5780639dc950ab146102d5578063aa89dfd41461030157610137565b80633de2cb1c116100ff5780633de2cb1c1461021157806347ed51b11461023d5780635aa6e675146102575780635d36b1901461025f57806360f7ac971461026757610137565b806309fcb4001461013c57806311a7aaaa146101a95780632ee96140146101cd578063345705a4146101ec57806338b5f86914610209575b600080fd5b6101596004803603602081101561015257600080fd5b5035610503565b60408051602080825283518183015283519192839290830191858101910280838360005b8381101561019557818101518382015260200161017d565b505050509050019250505060405180910390f35b6101b16105ce565b604080516001600160a01b039092168252519081900360200190f35b6101ea600480360360208110156101e357600080fd5b50356105dd565b005b6101ea6004803603602081101561020257600080fd5b5035610633565b6101b16106fc565b6101ea6004803603604081101561022757600080fd5b506001600160a01b03813516906020013561070b565b6102456107b2565b60408051918252519081900360200190f35b6101b16107b8565b6101ea6107c7565b6101b1610889565b6101ea6004803603604081101561028557600080fd5b5080359060200135610898565b610245600480360360208110156102a857600080fd5b5035610ba3565b6101ea600480360360208110156102c557600080fd5b50356001600160a01b0316610bb5565b6101ea600480360360408110156102eb57600080fd5b506001600160a01b038135169060200135610c8f565b6101596004803603602081101561031757600080fd5b810190602081018135600160201b81111561033157600080fd5b82018360208201111561034357600080fd5b803590602001918460018302840111600160201b8311171561036457600080fd5b91908080601f016020809104026020016040519081016040528093929190818152602001838380828437600092019190915250929550610ea0945050505050565b6103cb600480360360208110156103bb57600080fd5b50356001600160a01b0316610f8f565b604051808060200180602001838103835285818151815260200191508051906020019060200280838360005b8381101561040f5781810151838201526020016103f7565b50505050905001838103825284818151815260200191508051906020019060200280838360005b8381101561044e578181015183820152602001610436565b5050505090500194505050505060405180910390f35b6101ea6004803603602081101561047a57600080fd5b50356001600160a01b0316611193565b6101ea600480360360408110156104a057600080fd5b506001600160a01b0381358116916020013516611238565b6101ea600480360360208110156104ce57600080fd5b50356001600160a01b03166112b7565b6101ea600480360360208110156104f457600080fd5b5035611379565b6101b1611460565b60008181526003602052604090205460609080610562576040805162461bcd60e51b8152602060048201526018602482015277119514d3c81a5b99195e081b9bdd081cdd5c1c1bdc9d195960421b604482015290519081900360640190fd5b600083815260046020908152604091829020805483518184028101840190945280845290918301828280156105c057602002820191906000526020600020905b81546001600160a01b031681526001909101906020018083116105a2575b50505050509150505b919050565b6006546001600160a01b031681565b6000546001600160a01b0316331461062e576040805162461bcd60e51b815260206004820152600f60248201526e6f6e6c7920676f7665726e616e636560881b604482015290519081900360640190fd5b600255565b6006546001600160a01b03163314610686576040805162461bcd60e51b815260206004820152601160248201527037b7363c90333a39b79036b0b730b3b2b960791b604482015290519081900360640190fd5b600081815260036020526040902054156106e7576040805162461bcd60e51b815260206004820152601760248201527f77686974656c69737420616c7265616479206578697374000000000000000000604482015290519081900360640190fd5b60025460009182526003602052604090912055565b6005546001600160a01b031681565b61071482611484565b15610758576040805162461bcd60e51b815260206004820152600f60248201526e74727573746564206164647265737360881b604482015290519081900360640190fd5b600061076483836115ff565b9050806107ad576040805162461bcd60e51b8152602060048201526012602482015271766f746520706f77657220746f6f206c6f7760701b604482015290519081900360640190fd5b505050565b60025481565b6000546001600160a01b031681565b6001546001600160a01b03163314610816576040805162461bcd60e51b815260206004820152600d60248201526c1b9bdd0818db185a5b585a5b9d609a1b604482015290519081900360640190fd5b600054600154604080516001600160a01b03938416815292909116602083015280517f434a2db650703b36c824e745330d6397cdaa9ee2cc891a4938ae853e1c50b68d9281900390910190a160018054600080546001600160a01b03199081166001600160a01b03841617909155169055565b6001546001600160a01b031681565b6000546001600160a01b031633146108e9576040805162461bcd60e51b815260206004820152600f60248201526e6f6e6c7920676f7665726e616e636560881b604482015290519081900360640190fd5b600082815260036020908152604080832084905560049091529020805482106109125750610b9f565b6005546040805163d75f6d8160e01b81526004810186905290516000926001600160a01b03169163d75f6d81916024808301926020929190829003018186803b15801561095e57600080fd5b505afa158015610972573d6000803e3d6000fd5b505050506040513d602081101561098857600080fd5b50518254604080516020838102820181019092528281529293506000926109f19285928791908301828280156109e757602002820191906000526020600020905b81546001600160a01b031681526001909101906020018083116109c9575b505050505061188b565b805190915084810360008167ffffffffffffffff81118015610a1257600080fd5b50604051908082528060200260200182016040528015610a3c578160200160208202803683370190505b50905060005b82811015610b8d576000610a568686611afe565b9050878181548110610a6457fe5b9060005260206000200160009054906101000a90046001600160a01b0316838381518110610a8e57fe5b60200260200101906001600160a01b031690816001600160a01b03168152505060018503811015610b5057876001860381548110610ac857fe5b9060005260206000200160009054906101000a90046001600160a01b0316888281548110610af257fe5b9060005260206000200160006101000a8154816001600160a01b0302191690836001600160a01b03160217905550856001860381518110610b2f57fe5b6020026020010151868281518110610b4357fe5b6020026020010181815250505b87805480610b5a57fe5b600082815260209020810160001990810180546001600160a01b0319169055908101909155949094019350600101610a42565b50610b988189611b62565b5050505050505b5050565b60036020526000908152604090205481565b600154600160a01b900460ff1615610c0b576040805162461bcd60e51b8152602060048201526014602482015273696e697469616c6973656420213d2066616c736560601b604482015290519081900360640190fd5b6001805460ff60a01b1916600160a01b179055600054604080516001600160a01b039283168152918316602083015280517f434a2db650703b36c824e745330d6397cdaa9ee2cc891a4938ae853e1c50b68d9281900390910190a1600080546001600160a01b039092166001600160a01b0319928316179055600180549091169055565b610c9882611484565b610cdf576040805162461bcd60e51b81526020600482015260136024820152726e6f742074727573746564206164647265737360681b604482015290519081900360640190fd5b6000818152600460205260408120805490915b81811015610d3857846001600160a01b0316838281548110610d1057fe5b6000918252602090912001546001600160a01b03161415610d3057610d38565b600101610cf2565b818110610d8c576040805162461bcd60e51b815260206004820152601f60248201527f747275737465642061646472657373206e6f742077686974656c697374656400604482015290519081900360640190fd5b60408051600180825281830190925260009160208083019080368337019050509050838281548110610dba57fe5b600091825260208220015482516001600160a01b03909116918391610ddb57fe5b60200260200101906001600160a01b031690816001600160a01b031681525050836001840381548110610e0a57fe5b9060005260206000200160009054906101000a90046001600160a01b0316848381548110610e3457fe5b9060005260206000200160006101000a8154816001600160a01b0302191690836001600160a01b0316021790555083805480610e6c57fe5b600082815260209020810160001990810180546001600160a01b0319169055019055610e988186611b62565b505050505050565b600554604051630e848da360e41b81526020600482018181528451602484015284516060946000946001600160a01b039091169363e848da3093889390928392604490910191908501908083838b5b83811015610f07578181015183820152602001610eef565b50505050905090810190601f168015610f345780820380516001836020036101000a031916815260200191505b509250505060206040518083038186803b158015610f5157600080fd5b505afa158015610f65573d6000803e3d6000fd5b505050506040513d6020811015610f7b57600080fd5b50519050610f8881610503565b9392505050565b606080610f9b83611484565b15610fdf576040805162461bcd60e51b815260206004820152600f60248201526e74727573746564206164647265737360881b604482015290519081900360640190fd5b600560009054906101000a90046001600160a01b03166001600160a01b031663798aac5b6040518163ffffffff1660e01b815260040160006040518083038186803b15801561102d57600080fd5b505afa158015611041573d6000803e3d6000fd5b505050506040513d6000823e601f3d908101601f19168201604052602081101561106a57600080fd5b8101908080516040519392919084600160201b82111561108957600080fd5b90830190602082018581111561109e57600080fd5b82518660208202830111600160201b821117156110ba57600080fd5b82525081516020918201928201910280838360005b838110156110e75781810151838201526020016110cf565b5050505090500160405250505091506000825190508067ffffffffffffffff8111801561111357600080fd5b5060405190808252806020026020018201604052801561113d578160200160208202803683370190505b50915060005b8181101561118c576111688585838151811061115b57fe5b60200260200101516115ff565b83828151811061117457fe5b91151560209283029190910190910152600101611143565b5050915091565b6000546001600160a01b031633146111e4576040805162461bcd60e51b815260206004820152600f60248201526e6f6e6c7920676f7665726e616e636560881b604482015290519081900360640190fd5b600180546001600160a01b0383166001600160a01b0319909116811790915560408051918252517f1f95fb40be3a947982072902a887b521248d1d8931a39eb38f84f4d6fd758b699181900360200190a150565b6000546001600160a01b03163314611289576040805162461bcd60e51b815260206004820152600f60248201526e6f6e6c7920676f7665726e616e636560881b604482015290519081900360640190fd5b600580546001600160a01b039384166001600160a01b03199182161790915560068054929093169116179055565b6000546001600160a01b03163314611308576040805162461bcd60e51b815260206004820152600f60248201526e6f6e6c7920676f7665726e616e636560881b604482015290519081900360640190fd5b600054604080516001600160a01b039283168152918316602083015280517f434a2db650703b36c824e745330d6397cdaa9ee2cc891a4938ae853e1c50b68d9281900390910190a1600080546001600160a01b039092166001600160a01b0319928316179055600180549091169055565b6006546001600160a01b031633146113cc576040805162461bcd60e51b815260206004820152601160248201527037b7363c90333a39b79036b0b730b3b2b960791b604482015290519081900360640190fd5b6000818152600460209081526040918290208054835181840281018401909452808452611438939283018282801561142d57602002820191906000526020600020905b81546001600160a01b0316815260019091019060200180831161140f575b505050505082611b62565b600081815260046020526040812061144f91612584565b600090815260036020526040812055565b7f000000000000000000000000000000000000000000000000000000000000000081565b6000807f00000000000000000000000000000000000000000000000000000000000000006001600160a01b031663ffacb84e6040518163ffffffff1660e01b815260040160006040518083038186803b1580156114e057600080fd5b505afa1580156114f4573d6000803e3d6000fd5b505050506040513d6000823e601f3d908101601f19168201604052602081101561151d57600080fd5b8101908080516040519392919084600160201b82111561153c57600080fd5b90830190602082018581111561155157600080fd5b82518660208202830111600160201b8211171561156d57600080fd5b82525081516020918201928201910280838360005b8381101561159a578181015183820152602001611582565b50505050905001604052505050905060005b81518110156115f557836001600160a01b03168282815181106115cb57fe5b60200260200101516001600160a01b031614156115ed576001925050506105c9565b6001016115ac565b5060009392505050565b6000818152600360205260408120548061165b576040805162461bcd60e51b8152602060048201526018602482015277119514d3c81a5b99195e081b9bdd081cdd5c1c1bdc9d195960421b604482015290519081900360640190fd5b6000838152600460205260408120805490916001820167ffffffffffffffff8111801561168757600080fd5b506040519080825280602002602001820160405280156116b1578160200160208202803683370190505b50905060005b8281101561172c5760008482815481106116cd57fe5b6000918252602090912001546001600160a01b03908116915089168114156116fe5760019650505050505050611885565b8083838151811061170b57fe5b6001600160a01b0390921660209283029190910190910152506001016116b7565b508681838151811061173a57fe5b60200260200101906001600160a01b031690816001600160a01b031681525050838210156117a45782546001810184556000848152602090200180546001600160a01b0319166001600160a01b0389161790556117978787611c92565b6001945050505050611885565b60006117b08288611d4d565b9050828114156117c857600095505050505050611885565b604080516001808252818301909252600091602080830190803683370190505090508282815181106117f657fe5b60200260200101518160008151811061180b57fe5b60200260200101906001600160a01b031690816001600160a01b0316815250508885838154811061183857fe5b9060005260206000200160006101000a8154816001600160a01b0302191690836001600160a01b031602179055506118708189611b62565b61187a8989611c92565b600196505050505050505b92915050565b6060806060600080600080886001600160a01b0316638357d08c6040518163ffffffff1660e01b815260040160006040518083038186803b1580156118cf57600080fd5b505afa1580156118e3573d6000803e3d6000fd5b505050506040513d6000823e601f3d908101601f1916820160405260c081101561190c57600080fd5b8101908080516040519392919084600160201b82111561192b57600080fd5b90830190602082018581111561194057600080fd5b82518660208202830111600160201b8211171561195c57600080fd5b82525081516020918201928201910280838360005b83811015611989578181015183820152602001611971565b5050505090500160405260200180516040519392919084600160201b8211156119b157600080fd5b9083019060208201858111156119c657600080fd5b82518660208202830111600160201b821117156119e257600080fd5b82525081516020918201928201910280838360005b83811015611a0f5781810151838201526020016119f7565b5050505090500160405260200180519060200190929190805190602001909291908051906020019092919080519060200190929190505050809650819750829850839950849a50859b505050505050506000611ad18a6001600160a01b0316639edbf0076040518163ffffffff1660e01b815260040160206040518083038186803b158015611a9d57600080fd5b505afa158015611ab1573d6000803e3d6000fd5b505050506040513d6020811015611ac757600080fd5b5051868b85611dee565b90506000611ae28888878d87611e69565b9050611aef828286611fdc565b9b9a5050505050505050505050565b60008060009050600084600081518110611b1457fe5b6020026020010151905060005b84811015611b58576000868281518110611b3757fe5b60200260200101519050828111611b4f578193508092505b50600101611b21565b5090949350505050565b60005b8251811015611bd1577f33359f2769756ca8d0da4683f25ee440744d6f18bfb166dbfb59315a8c62b016838281518110611b9b57fe5b60200260200101518360405180836001600160a01b031681526020018281526020019250505060405180910390a1600101611b65565b507f00000000000000000000000000000000000000000000000000000000000000006001600160a01b03166376794efb83836040518363ffffffff1660e01b81526004018080602001838152602001828103825284818151815260200191508051906020019060200280838360005b83811015611c58578181015183820152602001611c40565b505050509050019350505050600060405180830381600087803b158015611c7e57600080fd5b505af1158015610e98573d6000803e3d6000fd5b604080516001600160a01b03841681526020810183905281517f66a8b13abe95391d1851f5bc319f3dde54ce8f2f40a5fe226aa3251d805832e3929181900390910190a17f00000000000000000000000000000000000000000000000000000000000000006001600160a01b0316639d986f9183836040518363ffffffff1660e01b815260040180836001600160a01b0316815260200182815260200192505050600060405180830381600087803b158015611c7e57600080fd5b6005546040805163d75f6d8160e01b815260048101849052905160009283926001600160a01b039091169163d75f6d8191602480820192602092909190829003018186803b158015611d9e57600080fd5b505afa158015611db2573d6000803e3d6000fd5b505050506040513d6020811015611dc857600080fd5b505190506000611dd8828661188b565b9050611de5818251611afe565b95945050505050565b6060611dfb858484612121565b905083611e0757611e61565b60005b8351811015611e5f57611e4064e8d4a5100086848481518110611e2957fe5b60200260200101516123199092919063ffffffff16565b828281518110611e4c57fe5b6020908102919091010152600101611e0a565b505b949350505050565b6060825167ffffffffffffffff81118015611e8357600080fd5b50604051908082528060200260200182016040528015611ead578160200160208202803683370190505b50905060005b8351811015611edd576000828281518110611eca57fe5b6020908102919091010152600101611eb3565b5083611ee857611de5565b6000611efc85670de0b6b3a7640000612425565b905060005b8751811015611fd1576000888281518110611f1857fe5b6020026020010151905060006001600160a01b0316816001600160a01b031614611fc8576000611f49828888612121565b905060005b8751811015611fc5576000611f7d8b8681518110611f6857fe5b602002602001015187858581518110611e2957fe5b9050611fa581888481518110611f8f57fe5b602002602001015161247e90919063ffffffff16565b878381518110611fb157fe5b602090810291909101015250600101611f4e565b50505b50600101611f01565b505095945050505050565b60606000611fe9846124d8565b90506000611ff6866124d8565b9050600080831161200857600061200a565b845b9050600080831161201c576000612022565b81612710035b9050875167ffffffffffffffff8111801561203c57600080fd5b50604051908082528060200260200182016040528015612066578160200160208202803683370190505b50945060005b885181101561211557600082156120b3576120b08a838151811061208c57fe5b602002602001015164e8d4a51000026127108702856123199092919063ffffffff16565b90505b600084156120f1576120ee8a84815181106120ca57fe5b602002602001015164e8d4a51000026127108902876123199092919063ffffffff16565b90505b80820188848151811061210057fe5b6020908102919091010152505060010161206c565b50505050509392505050565b6060836001600160a01b031663e587497e8460018651038151811061214257fe5b6020026020010151846040518363ffffffff1660e01b815260040180836001600160a01b0316815260200182815260200192505050602060405180830381600087803b15801561219157600080fd5b505af11580156121a5573d6000803e3d6000fd5b505050506040513d60208110156121bb57600080fd5b5050604080516349e3c7e560e01b815260248101849052600481019182528451604482015284516001600160a01b038716926349e3c7e592879287929182916064909101906020868101910280838360005b8381101561222557818101518382015260200161220d565b50505050905001935050505060006040518083038186803b15801561224957600080fd5b505afa15801561225d573d6000803e3d6000fd5b505050506040513d6000823e601f3d908101601f19168201604052602081101561228657600080fd5b8101908080516040519392919084600160201b8211156122a557600080fd5b9083019060208201858111156122ba57600080fd5b82518660208202830111600160201b821117156122d657600080fd5b82525081516020918201928201910280838360005b838110156123035781810151838201526020016122eb565b5050505090500160405250505090509392505050565b6000808211612362576040805162461bcd60e51b815260206004820152601060248201526f4469766973696f6e206279207a65726f60801b604482015290519081900360640190fd5b8361236f57506000610f88565b8383028385828161237c57fe5b0414156123955782818161238c57fe5b04915050610f88565b60008386816123a057fe5b04905060008487816123ae57fe5b06905060008587816123bc57fe5b04905060008688816123ca57fe5b0690506124186123e4886123de8685612425565b9061251d565b6124126123f18686612425565b6124126123fe8987612425565b6124128d61240c8c8b612425565b90612425565b9061247e565b9998505050505050505050565b60008261243457506000611885565b8282028284828161244157fe5b0414610f885760405162461bcd60e51b81526004018080602001828103825260218152602001806125bf6021913960400191505060405180910390fd5b600082820183811015610f88576040805162461bcd60e51b815260206004820152601b60248201527f536166654d6174683a206164646974696f6e206f766572666c6f770000000000604482015290519081900360640190fd5b600080805b83518110156125165761250c8482815181106124f557fe5b60200260200101518361247e90919063ffffffff16565b91506001016124dd565b5092915050565b6000808211612573576040805162461bcd60e51b815260206004820152601a60248201527f536166654d6174683a206469766973696f6e206279207a65726f000000000000604482015290519081900360640190fd5b81838161257c57fe5b049392505050565b50805460008255906000526020600020908101906125a291906125a5565b50565b5b808211156125ba57600081556001016125a6565b509056fe536166654d6174683a206d756c7469706c69636174696f6e206f766572666c6f77a2646970667358221220cdbf8cd41d816a42348d2f6f5c54600d2fcc25d562b1efa1819378c1fb02ebc164736f6c63430007060033",
  "linkReferences": {},
  "deployedLinkReferences": {}
}