{
  "_format": "hh-sol-artifact-1",
  "contractName": "VoterWhitelister",
  "sourceName": "contracts/utils/implementation/VoterWhitelister.sol",
  "abi": [
    {
      "inputs": [
        {
          "internalType": "address",
          "name": "_governance",
          "type": "address"
        },
        {
          "internalType": "address",
          "name": "_addressUpdater",
          "type": "address"
        },
        {
          "internalType": "contract IIPriceSubmitter",
          "name": "_priceSubmitter",
          "type": "address"
        },
        {
          "internalType": "uint256",
          "name": "_defaultMaxVotersForFtso",
          "type": "uint256"
        }
      ],
      "stateMutability": "nonpayable",
      "type": "constructor"
    },
    {
      "anonymous": false,
      "inputs": [
        {
          "indexed": false,
          "internalType": "address",
          "name": "proposedGovernance",
          "type": "address"
        }
      ],
      "name": "GovernanceProposed",
      "type": "event"
    },
    {
      "anonymous": false,
      "inputs": [
        {
          "indexed": false,
          "internalType": "address",
          "name": "oldGovernance",
          "type": "address"
        },
        {
          "indexed": false,
          "internalType": "address",
          "name": "newGoveranance",
          "type": "address"
        }
      ],
      "name": "GovernanceUpdated",
      "type": "event"
    },
    {
      "anonymous": false,
      "inputs": [
        {
          "indexed": false,
          "internalType": "address",
          "name": "voter",
          "type": "address"
        },
        {
          "indexed": false,
          "internalType": "uint256",
          "name": "ftsoIndex",
          "type": "uint256"
        }
      ],
      "name": "VoterRemovedFromWhitelist",
      "type": "event"
    },
    {
      "anonymous": false,
      "inputs": [
        {
          "indexed": false,
          "internalType": "address",
          "name": "voter",
          "type": "address"
        },
        {
          "indexed": false,
          "internalType": "uint256",
          "name": "ftsoIndex",
          "type": "uint256"
        }
      ],
      "name": "VoterWhitelisted",
      "type": "event"
    },
    {
      "inputs": [
        {
          "internalType": "uint256",
          "name": "_ftsoIndex",
          "type": "uint256"
        }
      ],
      "name": "addFtso",
      "outputs": [],
      "stateMutability": "nonpayable",
      "type": "function"
    },
    {
      "inputs": [],
      "name": "claimGovernance",
      "outputs": [],
      "stateMutability": "nonpayable",
      "type": "function"
    },
    {
      "inputs": [],
      "name": "defaultMaxVotersForFtso",
      "outputs": [
        {
          "internalType": "uint256",
          "name": "",
          "type": "uint256"
        }
      ],
      "stateMutability": "view",
      "type": "function"
    },
    {
      "inputs": [],
      "name": "ftsoManager",
      "outputs": [
        {
          "internalType": "address",
          "name": "",
          "type": "address"
        }
      ],
      "stateMutability": "view",
      "type": "function"
    },
    {
      "inputs": [],
      "name": "ftsoRegistry",
      "outputs": [
        {
          "internalType": "contract IFtsoRegistry",
          "name": "",
          "type": "address"
        }
      ],
      "stateMutability": "view",
      "type": "function"
    },
    {
      "inputs": [],
      "name": "getAddressUpdater",
      "outputs": [
        {
          "internalType": "address",
          "name": "_addressUpdater",
          "type": "address"
        }
      ],
      "stateMutability": "view",
      "type": "function"
    },
    {
      "inputs": [
        {
          "internalType": "uint256",
          "name": "_ftsoIndex",
          "type": "uint256"
        }
      ],
      "name": "getFtsoWhitelistedPriceProviders",
      "outputs": [
        {
          "internalType": "address[]",
          "name": "",
          "type": "address[]"
        }
      ],
      "stateMutability": "view",
      "type": "function"
    },
    {
      "inputs": [
        {
          "internalType": "string",
          "name": "_symbol",
          "type": "string"
        }
      ],
      "name": "getFtsoWhitelistedPriceProvidersBySymbol",
      "outputs": [
        {
          "internalType": "address[]",
          "name": "",
          "type": "address[]"
        }
      ],
      "stateMutability": "view",
      "type": "function"
    },
    {
      "inputs": [],
      "name": "governance",
      "outputs": [
        {
          "internalType": "address",
          "name": "",
          "type": "address"
        }
      ],
      "stateMutability": "view",
      "type": "function"
    },
    {
      "inputs": [
        {
          "internalType": "address",
          "name": "_governance",
          "type": "address"
        }
      ],
      "name": "initialise",
      "outputs": [],
      "stateMutability": "nonpayable",
      "type": "function"
    },
    {
      "inputs": [
        {
          "internalType": "uint256",
          "name": "",
          "type": "uint256"
        }
      ],
      "name": "maxVotersForFtso",
      "outputs": [
        {
          "internalType": "uint256",
          "name": "",
          "type": "uint256"
        }
      ],
      "stateMutability": "view",
      "type": "function"
    },
    {
      "inputs": [],
      "name": "priceSubmitter",
      "outputs": [
        {
          "internalType": "contract IIPriceSubmitter",
          "name": "",
          "type": "address"
        }
      ],
      "stateMutability": "view",
      "type": "function"
    },
    {
      "inputs": [
        {
          "internalType": "address",
          "name": "_governance",
          "type": "address"
        }
      ],
      "name": "proposeGovernance",
      "outputs": [],
      "stateMutability": "nonpayable",
      "type": "function"
    },
    {
      "inputs": [],
      "name": "proposedGovernance",
      "outputs": [
        {
          "internalType": "address",
          "name": "",
          "type": "address"
        }
      ],
      "stateMutability": "view",
      "type": "function"
    },
    {
      "inputs": [
        {
          "internalType": "uint256",
          "name": "_ftsoIndex",
          "type": "uint256"
        }
      ],
      "name": "removeFtso",
      "outputs": [],
      "stateMutability": "nonpayable",
      "type": "function"
    },
    {
      "inputs": [
        {
          "internalType": "address",
          "name": "_trustedAddress",
          "type": "address"
        },
        {
          "internalType": "uint256",
          "name": "_ftsoIndex",
          "type": "uint256"
        }
      ],
      "name": "removeTrustedAddressFromWhitelist",
      "outputs": [],
      "stateMutability": "nonpayable",
      "type": "function"
    },
    {
      "inputs": [
        {
          "internalType": "address",
          "name": "_voter",
          "type": "address"
        }
      ],
      "name": "requestFullVoterWhitelisting",
      "outputs": [
        {
          "internalType": "uint256[]",
          "name": "_supportedIndices",
          "type": "uint256[]"
        },
        {
          "internalType": "bool[]",
          "name": "_success",
          "type": "bool[]"
        }
      ],
      "stateMutability": "nonpayable",
      "type": "function"
    },
    {
      "inputs": [
        {
          "internalType": "address",
          "name": "_voter",
          "type": "address"
        },
        {
          "internalType": "uint256",
          "name": "_ftsoIndex",
          "type": "uint256"
        }
      ],
      "name": "requestWhitelistingVoter",
      "outputs": [],
      "stateMutability": "nonpayable",
      "type": "function"
    },
    {
      "inputs": [
        {
          "internalType": "uint256",
          "name": "_defaultMaxVotersForFtso",
          "type": "uint256"
        }
      ],
      "name": "setDefaultMaxVotersForFtso",
      "outputs": [],
      "stateMutability": "nonpayable",
      "type": "function"
    },
    {
      "inputs": [
        {
          "internalType": "uint256",
          "name": "_ftsoIndex",
          "type": "uint256"
        },
        {
          "internalType": "uint256",
          "name": "_newMaxVoters",
          "type": "uint256"
        }
      ],
      "name": "setMaxVotersForFtso",
      "outputs": [],
      "stateMutability": "nonpayable",
      "type": "function"
    },
    {
      "inputs": [
        {
          "internalType": "address",
          "name": "_governance",
          "type": "address"
        }
      ],
      "name": "transferGovernance",
      "outputs": [],
      "stateMutability": "nonpayable",
      "type": "function"
    },
    {
      "inputs": [
        {
          "internalType": "bytes32[]",
          "name": "_contractNameHashes",
          "type": "bytes32[]"
        },
        {
          "internalType": "address[]",
          "name": "_contractAddresses",
          "type": "address[]"
        }
      ],
      "name": "updateContractAddresses",
      "outputs": [],
      "stateMutability": "nonpayable",
      "type": "function"
    }
  ],
  "bytecode": "0x60a06040523480156200001157600080fd5b5060405162002aa538038062002aa5833981810160405260808110156200003757600080fd5b50805160208201516040830151606090930151919290918284806001600160a01b038116156200006c576200006c81620000e8565b506001600160a01b038116620000bc576040805162461bcd60e51b815260206004820152601060248201526f5f676f7665726e616e6365207a65726f60801b604482015290519081900360640190fd5b50620000c881620001cc565b5060609190911b6001600160601b03191660805260025550620001f09050565b600154600160a01b900460ff161562000148576040805162461bcd60e51b815260206004820152601460248201527f696e697469616c6973656420213d2066616c7365000000000000000000000000604482015290519081900360640190fd5b6001805460ff60a01b1916600160a01b179055600054604080516001600160a01b039283168152918316602083015280517f434a2db650703b36c824e745330d6397cdaa9ee2cc891a4938ae853e1c50b68d9281900390910190a1600080546001600160a01b039092166001600160a01b0319928316179055600180549091169055565b7f714f205b2abd25bef1d06a1af944e38c113fe6160375c4e1d6d5cf28848e771955565b60805160601c6128886200021d60003980611493528061150d5280611c585280611f5452506128886000f3fe608060405234801561001057600080fd5b50600436106101425760003560e01c80637ecfcfa3116100b8578063b00c0b761161007c578063b00c0b76146103b8578063b06cbaf7146104db578063c373a08e1461059a578063d38bfff4146105c0578063d8736171146105e6578063f937d6ad1461060357610142565b80637ecfcfa31461028257806398dccfc2146102a55780639d6a890f146102c25780639dc950ab146102e8578063aa89dfd41461031457610142565b80633de2cb1c1161010a5780633de2cb1c1461021c57806347ed51b1146102485780635267a15d146102625780635aa6e6751461026a5780635d36b1901461027257806360f7ac971461027a57610142565b806309fcb4001461014757806311a7aaaa146101b45780632ee96140146101d8578063345705a4146101f757806338b5f86914610214575b600080fd5b6101646004803603602081101561015d57600080fd5b503561060b565b60408051602080825283518183015283519192839290830191858101910280838360005b838110156101a0578181015183820152602001610188565b505050509050019250505060405180910390f35b6101bc6106d6565b604080516001600160a01b039092168252519081900360200190f35b6101f5600480360360208110156101ee57600080fd5b50356106e5565b005b6101f56004803603602081101561020d57600080fd5b50356106f2565b6101bc6107bb565b6101f56004803603604081101561023257600080fd5b506001600160a01b0381351690602001356107ca565b610250610871565b60408051918252519081900360200190f35b6101bc610877565b6101bc61089c565b6101f56108ab565b6101bc61096d565b6101f56004803603604081101561029857600080fd5b508035906020013561097c565b610250600480360360208110156102bb57600080fd5b5035610c3e565b6101f5600480360360208110156102d857600080fd5b50356001600160a01b0316610c50565b6101f5600480360360408110156102fe57600080fd5b506001600160a01b038135169060200135610d2a565b6101646004803603602081101561032a57600080fd5b810190602081018135600160201b81111561034457600080fd5b82018360208201111561035657600080fd5b803590602001918460018302840111600160201b8311171561037757600080fd5b91908080601f016020809104026020016040519081016040528093929190818152602001838380828437600092019190915250929550610f3b945050505050565b6101f5600480360360408110156103ce57600080fd5b810190602081018135600160201b8111156103e857600080fd5b8201836020820111156103fa57600080fd5b803590602001918460208302840111600160201b8311171561041b57600080fd5b9190808060200260200160405190810160405280939291908181526020018383602002808284376000920191909152509295949360208101935035915050600160201b81111561046a57600080fd5b82018360208201111561047c57600080fd5b803590602001918460208302840111600160201b8311171561049d57600080fd5b91908080602002602001604051908101604052809392919081815260200183836020028082843760009201919091525092955061102a945050505050565b610501600480360360208110156104f157600080fd5b50356001600160a01b03166110d1565b604051808060200180602001838103835285818151815260200191508051906020019060200280838360005b8381101561054557818101518382015260200161052d565b50505050905001838103825284818151815260200191508051906020019060200280838360005b8381101561058457818101518382015260200161056c565b5050505090500194505050505060405180910390f35b6101f5600480360360208110156105b057600080fd5b50356001600160a01b03166112d5565b6101f5600480360360208110156105d657600080fd5b50356001600160a01b0316611331565b6101f5600480360360208110156105fc57600080fd5b50356113aa565b6101bc611491565b6000818152600360205260409020546060908061066a576040805162461bcd60e51b8152602060048201526018602482015277119514d3c81a5b99195e081b9bdd081cdd5c1c1bdc9d195960421b604482015290519081900360640190fd5b600083815260046020908152604091829020805483518184028101840190945280845290918301828280156106c857602002820191906000526020600020905b81546001600160a01b031681526001909101906020018083116106aa575b50505050509150505b919050565b6006546001600160a01b031681565b6106ed6114b5565b600255565b6006546001600160a01b03163314610745576040805162461bcd60e51b815260206004820152601160248201527037b7363c90333a39b79036b0b730b3b2b960791b604482015290519081900360640190fd5b600081815260036020526040902054156107a6576040805162461bcd60e51b815260206004820152601760248201527f77686974656c69737420616c7265616479206578697374000000000000000000604482015290519081900360640190fd5b60025460009182526003602052604090912055565b6005546001600160a01b031681565b6107d382611508565b15610817576040805162461bcd60e51b815260206004820152600f60248201526e74727573746564206164647265737360881b604482015290519081900360640190fd5b60006108238383611683565b90508061086c576040805162461bcd60e51b8152602060048201526012602482015271766f746520706f77657220746f6f206c6f7760701b604482015290519081900360640190fd5b505050565b60025481565b7f714f205b2abd25bef1d06a1af944e38c113fe6160375c4e1d6d5cf28848e77195490565b6000546001600160a01b031681565b6001546001600160a01b031633146108fa576040805162461bcd60e51b815260206004820152600d60248201526c1b9bdd0818db185a5b585a5b9d609a1b604482015290519081900360640190fd5b600054600154604080516001600160a01b03938416815292909116602083015280517f434a2db650703b36c824e745330d6397cdaa9ee2cc891a4938ae853e1c50b68d9281900390910190a160018054600080546001600160a01b03199081166001600160a01b03841617909155169055565b6001546001600160a01b031681565b6109846114b5565b600082815260036020908152604080832084905560049091529020805482106109ad5750610c3a565b6005546040805163d75f6d8160e01b81526004810186905290516000926001600160a01b03169163d75f6d81916024808301926020929190829003018186803b1580156109f957600080fd5b505afa158015610a0d573d6000803e3d6000fd5b505050506040513d6020811015610a2357600080fd5b5051825460408051602083810282018101909252828152929350600092610a8c928592879190830182828015610a8257602002820191906000526020600020905b81546001600160a01b03168152600190910190602001808311610a64575b505050505061190f565b805190915084810360008167ffffffffffffffff81118015610aad57600080fd5b50604051908082528060200260200182016040528015610ad7578160200160208202803683370190505b50905060005b82811015610c28576000610af18686611b82565b9050878181548110610aff57fe5b9060005260206000200160009054906101000a90046001600160a01b0316838381518110610b2957fe5b60200260200101906001600160a01b031690816001600160a01b03168152505060018503811015610beb57876001860381548110610b6357fe5b9060005260206000200160009054906101000a90046001600160a01b0316888281548110610b8d57fe5b9060005260206000200160006101000a8154816001600160a01b0302191690836001600160a01b03160217905550856001860381518110610bca57fe5b6020026020010151868281518110610bde57fe5b6020026020010181815250505b87805480610bf557fe5b600082815260209020810160001990810180546001600160a01b0319169055908101909155949094019350600101610add565b50610c338189611be6565b5050505050505b5050565b60036020526000908152604090205481565b600154600160a01b900460ff1615610ca6576040805162461bcd60e51b8152602060048201526014602482015273696e697469616c6973656420213d2066616c736560601b604482015290519081900360640190fd5b6001805460ff60a01b1916600160a01b179055600054604080516001600160a01b039283168152918316602083015280517f434a2db650703b36c824e745330d6397cdaa9ee2cc891a4938ae853e1c50b68d9281900390910190a1600080546001600160a01b039092166001600160a01b0319928316179055600180549091169055565b610d3382611508565b610d7a576040805162461bcd60e51b81526020600482015260136024820152726e6f742074727573746564206164647265737360681b604482015290519081900360640190fd5b6000818152600460205260408120805490915b81811015610dd357846001600160a01b0316838281548110610dab57fe5b6000918252602090912001546001600160a01b03161415610dcb57610dd3565b600101610d8d565b818110610e27576040805162461bcd60e51b815260206004820152601f60248201527f747275737465642061646472657373206e6f742077686974656c697374656400604482015290519081900360640190fd5b60408051600180825281830190925260009160208083019080368337019050509050838281548110610e5557fe5b600091825260208220015482516001600160a01b03909116918391610e7657fe5b60200260200101906001600160a01b031690816001600160a01b031681525050836001840381548110610ea557fe5b9060005260206000200160009054906101000a90046001600160a01b0316848381548110610ecf57fe5b9060005260206000200160006101000a8154816001600160a01b0302191690836001600160a01b0316021790555083805480610f0757fe5b600082815260209020810160001990810180546001600160a01b0319169055019055610f338186611be6565b505050505050565b600554604051630e848da360e41b81526020600482018181528451602484015284516060946000946001600160a01b039091169363e848da3093889390928392604490910191908501908083838b5b83811015610fa2578181015183820152602001610f8a565b50505050905090810190601f168015610fcf5780820380516001836020036101000a031916815260200191505b509250505060206040518083038186803b158015610fec57600080fd5b505afa158015611000573d6000803e3d6000fd5b505050506040513d602081101561101657600080fd5b505190506110238161060b565b9392505050565b611032610877565b6001600160a01b0316336001600160a01b03161461108e576040805162461bcd60e51b815260206004820152601460248201527337b7363c9030b2323932b9b9903ab83230ba32b960611b604482015290519081900360640190fd5b6110c76110c283836040518060400160405280600e81526020016d20b2323932b9b9aab83230ba32b960911b815250611d16565b611e43565b610c3a8282611e67565b6060806110dd83611508565b15611121576040805162461bcd60e51b815260206004820152600f60248201526e74727573746564206164647265737360881b604482015290519081900360640190fd5b600560009054906101000a90046001600160a01b03166001600160a01b031663798aac5b6040518163ffffffff1660e01b815260040160006040518083038186803b15801561116f57600080fd5b505afa158015611183573d6000803e3d6000fd5b505050506040513d6000823e601f3d908101601f1916820160405260208110156111ac57600080fd5b8101908080516040519392919084600160201b8211156111cb57600080fd5b9083019060208201858111156111e057600080fd5b82518660208202830111600160201b821117156111fc57600080fd5b82525081516020918201928201910280838360005b83811015611229578181015183820152602001611211565b5050505090500160405250505091506000825190508067ffffffffffffffff8111801561125557600080fd5b5060405190808252806020026020018201604052801561127f578160200160208202803683370190505b50915060005b818110156112ce576112aa8585838151811061129d57fe5b6020026020010151611683565b8382815181106112b657fe5b91151560209283029190910190910152600101611285565b5050915091565b6112dd6114b5565b600180546001600160a01b0383166001600160a01b0319909116811790915560408051918252517f1f95fb40be3a947982072902a887b521248d1d8931a39eb38f84f4d6fd758b699181900360200190a150565b6113396114b5565b600054604080516001600160a01b039283168152918316602083015280517f434a2db650703b36c824e745330d6397cdaa9ee2cc891a4938ae853e1c50b68d9281900390910190a1600080546001600160a01b039092166001600160a01b0319928316179055600180549091169055565b6006546001600160a01b031633146113fd576040805162461bcd60e51b815260206004820152601160248201527037b7363c90333a39b79036b0b730b3b2b960791b604482015290519081900360640190fd5b6000818152600460209081526040918290208054835181840281018401909452808452611469939283018282801561145e57602002820191906000526020600020905b81546001600160a01b03168152600190910190602001808311611440575b505050505082611be6565b6000818152600460205260408120611480916127f7565b600090815260036020526040812055565b7f000000000000000000000000000000000000000000000000000000000000000081565b6000546001600160a01b03163314611506576040805162461bcd60e51b815260206004820152600f60248201526e6f6e6c7920676f7665726e616e636560881b604482015290519081900360640190fd5b565b6000807f00000000000000000000000000000000000000000000000000000000000000006001600160a01b031663ffacb84e6040518163ffffffff1660e01b815260040160006040518083038186803b15801561156457600080fd5b505afa158015611578573d6000803e3d6000fd5b505050506040513d6000823e601f3d908101601f1916820160405260208110156115a157600080fd5b8101908080516040519392919084600160201b8211156115c057600080fd5b9083019060208201858111156115d557600080fd5b82518660208202830111600160201b821117156115f157600080fd5b82525081516020918201928201910280838360005b8381101561161e578181015183820152602001611606565b50505050905001604052505050905060005b815181101561167957836001600160a01b031682828151811061164f57fe5b60200260200101516001600160a01b03161415611671576001925050506106d1565b600101611630565b5060009392505050565b600081815260036020526040812054806116df576040805162461bcd60e51b8152602060048201526018602482015277119514d3c81a5b99195e081b9bdd081cdd5c1c1bdc9d195960421b604482015290519081900360640190fd5b6000838152600460205260408120805490916001820167ffffffffffffffff8111801561170b57600080fd5b50604051908082528060200260200182016040528015611735578160200160208202803683370190505b50905060005b828110156117b057600084828154811061175157fe5b6000918252602090912001546001600160a01b03908116915089168114156117825760019650505050505050611909565b8083838151811061178f57fe5b6001600160a01b03909216602092830291909101909101525060010161173b565b50868183815181106117be57fe5b60200260200101906001600160a01b031690816001600160a01b031681525050838210156118285782546001810184556000848152602090200180546001600160a01b0319166001600160a01b03891617905561181b8787611f0e565b6001945050505050611909565b60006118348288611fc9565b90508281141561184c57600095505050505050611909565b6040805160018082528183019092526000916020808301908036833701905050905082828151811061187a57fe5b60200260200101518160008151811061188f57fe5b60200260200101906001600160a01b031690816001600160a01b031681525050888583815481106118bc57fe5b9060005260206000200160006101000a8154816001600160a01b0302191690836001600160a01b031602179055506118f48189611be6565b6118fe8989611f0e565b600196505050505050505b92915050565b6060806060600080600080886001600160a01b0316638357d08c6040518163ffffffff1660e01b815260040160006040518083038186803b15801561195357600080fd5b505afa158015611967573d6000803e3d6000fd5b505050506040513d6000823e601f3d908101601f1916820160405260c081101561199057600080fd5b8101908080516040519392919084600160201b8211156119af57600080fd5b9083019060208201858111156119c457600080fd5b82518660208202830111600160201b821117156119e057600080fd5b82525081516020918201928201910280838360005b83811015611a0d5781810151838201526020016119f5565b5050505090500160405260200180516040519392919084600160201b821115611a3557600080fd5b908301906020820185811115611a4a57600080fd5b82518660208202830111600160201b82111715611a6657600080fd5b82525081516020918201928201910280838360005b83811015611a93578181015183820152602001611a7b565b5050505090500160405260200180519060200190929190805190602001909291908051906020019092919080519060200190929190505050809650819750829850839950849a50859b505050505050506000611b558a6001600160a01b0316639edbf0076040518163ffffffff1660e01b815260040160206040518083038186803b158015611b2157600080fd5b505afa158015611b35573d6000803e3d6000fd5b505050506040513d6020811015611b4b57600080fd5b5051868b85612061565b90506000611b668888878d876120dc565b9050611b7382828661224f565b9b9a5050505050505050505050565b60008060009050600084600081518110611b9857fe5b6020026020010151905060005b84811015611bdc576000868281518110611bbb57fe5b60200260200101519050828111611bd3578193508092505b50600101611ba5565b5090949350505050565b60005b8251811015611c55577f33359f2769756ca8d0da4683f25ee440744d6f18bfb166dbfb59315a8c62b016838281518110611c1f57fe5b60200260200101518360405180836001600160a01b031681526020018281526020019250505060405180910390a1600101611be9565b507f00000000000000000000000000000000000000000000000000000000000000006001600160a01b03166376794efb83836040518363ffffffff1660e01b81526004018080602001838152602001828103825284818151815260200191508051906020019060200280838360005b83811015611cdc578181015183820152602001611cc4565b505050509050019350505050600060405180830381600087803b158015611d0257600080fd5b505af1158015610f33573d6000803e3d6000fd5b600080826040516020018080602001828103825283818151815260200191508051906020019080838360005b83811015611d5a578181015183820152602001611d42565b50505050905090810190601f168015611d875780820380516001836020036101000a031916815260200191505b50925050506040516020818303038152906040528051906020012090506000805b8651811015611def57868181518110611dbd57fe5b6020026020010151831415611de757858181518110611dd857fe5b60200260200101519150611def565b600101611da8565b506001600160a01b038116611e3a576040805162461bcd60e51b815260206004820152600c60248201526b61646472657373207a65726f60a01b604482015290519081900360640190fd5b95945050505050565b7f714f205b2abd25bef1d06a1af944e38c113fe6160375c4e1d6d5cf28848e771955565b611e9682826040518060400160405280600c81526020016b4674736f526567697374727960a01b815250611d16565b600560006101000a8154816001600160a01b0302191690836001600160a01b03160217905550611eea82826040518060400160405280600b81526020016a233a39b7a6b0b730b3b2b960a91b815250611d16565b600680546001600160a01b0319166001600160a01b03929092169190911790555050565b604080516001600160a01b03841681526020810183905281517f66a8b13abe95391d1851f5bc319f3dde54ce8f2f40a5fe226aa3251d805832e3929181900390910190a17f00000000000000000000000000000000000000000000000000000000000000006001600160a01b0316639d986f9183836040518363ffffffff1660e01b815260040180836001600160a01b0316815260200182815260200192505050600060405180830381600087803b158015611d0257600080fd5b6005546040805163d75f6d8160e01b815260048101849052905160009283926001600160a01b039091169163d75f6d8191602480820192602092909190829003018186803b15801561201a57600080fd5b505afa15801561202e573d6000803e3d6000fd5b505050506040513d602081101561204457600080fd5b505190506000612054828661190f565b9050611e3a818251611b82565b606061206e858484612394565b90508361207a576120d4565b60005b83518110156120d2576120b364e8d4a510008684848151811061209c57fe5b602002602001015161258c9092919063ffffffff16565b8282815181106120bf57fe5b602090810291909101015260010161207d565b505b949350505050565b6060825167ffffffffffffffff811180156120f657600080fd5b50604051908082528060200260200182016040528015612120578160200160208202803683370190505b50905060005b835181101561215057600082828151811061213d57fe5b6020908102919091010152600101612126565b508361215b57611e3a565b600061216f85670de0b6b3a7640000612698565b905060005b875181101561224457600088828151811061218b57fe5b6020026020010151905060006001600160a01b0316816001600160a01b03161461223b5760006121bc828888612394565b905060005b87518110156122385760006121f08b86815181106121db57fe5b60200260200101518785858151811061209c57fe5b90506122188188848151811061220257fe5b60200260200101516126f190919063ffffffff16565b87838151811061222457fe5b6020908102919091010152506001016121c1565b50505b50600101612174565b505095945050505050565b6060600061225c8461274b565b905060006122698661274b565b9050600080831161227b57600061227d565b845b9050600080831161228f576000612295565b81612710035b9050875167ffffffffffffffff811180156122af57600080fd5b506040519080825280602002602001820160405280156122d9578160200160208202803683370190505b50945060005b88518110156123885760008215612326576123238a83815181106122ff57fe5b602002602001015164e8d4a510000261271087028561258c9092919063ffffffff16565b90505b60008415612364576123618a848151811061233d57fe5b602002602001015164e8d4a510000261271089028761258c9092919063ffffffff16565b90505b80820188848151811061237357fe5b602090810291909101015250506001016122df565b50505050509392505050565b6060836001600160a01b031663e587497e846001865103815181106123b557fe5b6020026020010151846040518363ffffffff1660e01b815260040180836001600160a01b0316815260200182815260200192505050602060405180830381600087803b15801561240457600080fd5b505af1158015612418573d6000803e3d6000fd5b505050506040513d602081101561242e57600080fd5b5050604080516349e3c7e560e01b815260248101849052600481019182528451604482015284516001600160a01b038716926349e3c7e592879287929182916064909101906020868101910280838360005b83811015612498578181015183820152602001612480565b50505050905001935050505060006040518083038186803b1580156124bc57600080fd5b505afa1580156124d0573d6000803e3d6000fd5b505050506040513d6000823e601f3d908101601f1916820160405260208110156124f957600080fd5b8101908080516040519392919084600160201b82111561251857600080fd5b90830190602082018581111561252d57600080fd5b82518660208202830111600160201b8211171561254957600080fd5b82525081516020918201928201910280838360005b8381101561257657818101518382015260200161255e565b5050505090500160405250505090509392505050565b60008082116125d5576040805162461bcd60e51b815260206004820152601060248201526f4469766973696f6e206279207a65726f60801b604482015290519081900360640190fd5b836125e257506000611023565b838302838582816125ef57fe5b041415612608578281816125ff57fe5b04915050611023565b600083868161261357fe5b049050600084878161262157fe5b069050600085878161262f57fe5b049050600086888161263d57fe5b06905061268b612657886126518685612698565b90612790565b6126856126648686612698565b6126856126718987612698565b6126858d61267f8c8b612698565b90612698565b906126f1565b9998505050505050505050565b6000826126a757506000611909565b828202828482816126b457fe5b04146110235760405162461bcd60e51b81526004018080602001828103825260218152602001806128326021913960400191505060405180910390fd5b600082820183811015611023576040805162461bcd60e51b815260206004820152601b60248201527f536166654d6174683a206164646974696f6e206f766572666c6f770000000000604482015290519081900360640190fd5b600080805b83518110156127895761277f84828151811061276857fe5b6020026020010151836126f190919063ffffffff16565b9150600101612750565b5092915050565b60008082116127e6576040805162461bcd60e51b815260206004820152601a60248201527f536166654d6174683a206469766973696f6e206279207a65726f000000000000604482015290519081900360640190fd5b8183816127ef57fe5b049392505050565b50805460008255906000526020600020908101906128159190612818565b50565b5b8082111561282d5760008155600101612819565b509056fe536166654d6174683a206d756c7469706c69636174696f6e206f766572666c6f77a2646970667358221220ea636686f77ba4ad941a11ca267be186c2fa89401df3e6ff585df06c00498ee664736f6c63430007060033",
  "linkReferences": {},
  "deployedLinkReferences": {}
}