{
  "_format": "hh-sol-artifact-1",
  "contractName": "VoterWhitelister",
  "sourceName": "contracts/utils/implementation/VoterWhitelister.sol",
  "abi": [
    {
      "inputs": [
        {
          "internalType": "address",
          "name": "_governance",
          "type": "address"
        },
        {
          "internalType": "contract IIPriceSubmitter",
          "name": "_priceSubmitter",
          "type": "address"
        },
        {
          "internalType": "uint256",
          "name": "_defaultMaxVotersForFtso",
          "type": "uint256"
        }
      ],
      "stateMutability": "nonpayable",
      "type": "constructor"
    },
    {
      "anonymous": false,
      "inputs": [
        {
          "indexed": false,
          "internalType": "address",
          "name": "proposedGovernance",
          "type": "address"
        }
      ],
      "name": "GovernanceProposed",
      "type": "event"
    },
    {
      "anonymous": false,
      "inputs": [
        {
          "indexed": false,
          "internalType": "address",
          "name": "oldGovernance",
          "type": "address"
        },
        {
          "indexed": false,
          "internalType": "address",
          "name": "newGoveranance",
          "type": "address"
        }
      ],
      "name": "GovernanceUpdated",
      "type": "event"
    },
    {
      "anonymous": false,
      "inputs": [
        {
          "indexed": false,
          "internalType": "address",
          "name": "voter",
          "type": "address"
        },
        {
          "indexed": false,
          "internalType": "uint256",
          "name": "ftsoIndex",
          "type": "uint256"
        }
      ],
      "name": "VoterRemovedFromWhitelist",
      "type": "event"
    },
    {
      "anonymous": false,
      "inputs": [
        {
          "indexed": false,
          "internalType": "address",
          "name": "voter",
          "type": "address"
        },
        {
          "indexed": false,
          "internalType": "uint256",
          "name": "ftsoIndex",
          "type": "uint256"
        }
      ],
      "name": "VoterWhitelisted",
      "type": "event"
    },
    {
      "inputs": [
        {
          "internalType": "uint256",
          "name": "_ftsoIndex",
          "type": "uint256"
        }
      ],
      "name": "addFtso",
      "outputs": [],
      "stateMutability": "nonpayable",
      "type": "function"
    },
    {
      "inputs": [],
      "name": "claimGovernance",
      "outputs": [],
      "stateMutability": "nonpayable",
      "type": "function"
    },
    {
      "inputs": [],
      "name": "defaultMaxVotersForFtso",
      "outputs": [
        {
          "internalType": "uint256",
          "name": "",
          "type": "uint256"
        }
      ],
      "stateMutability": "view",
      "type": "function"
    },
    {
      "inputs": [
        {
          "internalType": "uint256",
          "name": "_ftsoIndex",
          "type": "uint256"
        }
      ],
      "name": "getFtsoWhitelistedPriceProviders",
      "outputs": [
        {
          "internalType": "address[]",
          "name": "",
          "type": "address[]"
        }
      ],
      "stateMutability": "view",
      "type": "function"
    },
    {
      "inputs": [
        {
          "internalType": "string",
          "name": "_symbol",
          "type": "string"
        }
      ],
      "name": "getFtsoWhitelistedPriceProvidersBySymbol",
      "outputs": [
        {
          "internalType": "address[]",
          "name": "",
          "type": "address[]"
        }
      ],
      "stateMutability": "view",
      "type": "function"
    },
    {
      "inputs": [],
      "name": "governance",
      "outputs": [
        {
          "internalType": "address",
          "name": "",
          "type": "address"
        }
      ],
      "stateMutability": "view",
      "type": "function"
    },
    {
      "inputs": [
        {
          "internalType": "address",
          "name": "_governance",
          "type": "address"
        }
      ],
      "name": "initialise",
      "outputs": [],
      "stateMutability": "nonpayable",
      "type": "function"
    },
    {
      "inputs": [
        {
          "internalType": "uint256",
          "name": "",
          "type": "uint256"
        }
      ],
      "name": "maxVotersForFtso",
      "outputs": [
        {
          "internalType": "uint256",
          "name": "",
          "type": "uint256"
        }
      ],
      "stateMutability": "view",
      "type": "function"
    },
    {
      "inputs": [
        {
          "internalType": "address",
          "name": "_governance",
          "type": "address"
        }
      ],
      "name": "proposeGovernance",
      "outputs": [],
      "stateMutability": "nonpayable",
      "type": "function"
    },
    {
      "inputs": [],
      "name": "proposedGovernance",
      "outputs": [
        {
          "internalType": "address",
          "name": "",
          "type": "address"
        }
      ],
      "stateMutability": "view",
      "type": "function"
    },
    {
      "inputs": [
        {
          "internalType": "uint256",
          "name": "_ftsoIndex",
          "type": "uint256"
        }
      ],
      "name": "removeFtso",
      "outputs": [],
      "stateMutability": "nonpayable",
      "type": "function"
    },
    {
      "inputs": [
        {
          "internalType": "address",
          "name": "_trustedAddress",
          "type": "address"
        },
        {
          "internalType": "uint256",
          "name": "_ftsoIndex",
          "type": "uint256"
        }
      ],
      "name": "removeTrustedAddressFromWhitelist",
      "outputs": [],
      "stateMutability": "nonpayable",
      "type": "function"
    },
    {
      "inputs": [
        {
          "internalType": "address",
          "name": "_voter",
          "type": "address"
        }
      ],
      "name": "requestFullVoterWhitelisting",
      "outputs": [
        {
          "internalType": "uint256[]",
          "name": "_supportedIndices",
          "type": "uint256[]"
        },
        {
          "internalType": "bool[]",
          "name": "_success",
          "type": "bool[]"
        }
      ],
      "stateMutability": "nonpayable",
      "type": "function"
    },
    {
      "inputs": [
        {
          "internalType": "address",
          "name": "_voter",
          "type": "address"
        },
        {
          "internalType": "uint256",
          "name": "_ftsoIndex",
          "type": "uint256"
        }
      ],
      "name": "requestWhitelistingVoter",
      "outputs": [],
      "stateMutability": "nonpayable",
      "type": "function"
    },
    {
      "inputs": [
        {
          "internalType": "contract IFtsoRegistry",
          "name": "_ftsoRegistry",
          "type": "address"
        },
        {
          "internalType": "address",
          "name": "_ftsoManager",
          "type": "address"
        }
      ],
      "name": "setContractAddresses",
      "outputs": [],
      "stateMutability": "nonpayable",
      "type": "function"
    },
    {
      "inputs": [
        {
          "internalType": "uint256",
          "name": "_defaultMaxVotersForFtso",
          "type": "uint256"
        }
      ],
      "name": "setDefaultMaxVotersForFtso",
      "outputs": [],
      "stateMutability": "nonpayable",
      "type": "function"
    },
    {
      "inputs": [
        {
          "internalType": "uint256",
          "name": "_ftsoIndex",
          "type": "uint256"
        },
        {
          "internalType": "uint256",
          "name": "_newMaxVoters",
          "type": "uint256"
        }
      ],
      "name": "setMaxVotersForFtso",
      "outputs": [],
      "stateMutability": "nonpayable",
      "type": "function"
    },
    {
      "inputs": [
        {
          "internalType": "address",
          "name": "_governance",
          "type": "address"
        }
      ],
      "name": "transferGovernance",
      "outputs": [],
      "stateMutability": "nonpayable",
      "type": "function"
    }
  ],
  "bytecode": "0x60806040523480156200001157600080fd5b506040516200272538038062002725833981810160405260608110156200003757600080fd5b508051602082015160409092015190919082806001600160a01b0381161562000065576200006581620000e1565b506001600160a01b038116620000b5576040805162461bcd60e51b815260206004820152601060248201526f5f676f7665726e616e6365207a65726f60801b604482015290519081900360640190fd5b50600580546001600160a01b0319166001600160a01b03939093169290921790915560025550620001c5565b600154600160a01b900460ff161562000141576040805162461bcd60e51b815260206004820152601460248201527f696e697469616c6973656420213d2066616c7365000000000000000000000000604482015290519081900360640190fd5b6001805460ff60a01b1916600160a01b179055600054604080516001600160a01b039283168152918316602083015280517f434a2db650703b36c824e745330d6397cdaa9ee2cc891a4938ae853e1c50b68d9281900390910190a1600080546001600160a01b039092166001600160a01b0319928316179055600180549091169055565b61255080620001d56000396000f3fe608060405234801561001057600080fd5b50600436106101165760003560e01c806398dccfc2116100a2578063b06cbaf711610071578063b06cbaf714610374578063c373a08e14610433578063cd931e4014610459578063d38bfff414610487578063d8736171146104ad57610116565b806398dccfc2146102615780639d6a890f1461027e5780639dc950ab146102a4578063aa89dfd4146102d057610116565b806347ed51b1116100e957806347ed51b1146101f05780635aa6e6751461020a5780635d36b1901461022e57806360f7ac97146102365780637ecfcfa31461023e57610116565b806309fcb4001461011b5780632ee9614014610188578063345705a4146101a75780633de2cb1c146101c4575b600080fd5b6101386004803603602081101561013157600080fd5b50356104ca565b60408051602080825283518183015283519192839290830191858101910280838360005b8381101561017457818101518382015260200161015c565b505050509050019250505060405180910390f35b6101a56004803603602081101561019e57600080fd5b5035610595565b005b6101a5600480360360208110156101bd57600080fd5b50356105eb565b6101a5600480360360408110156101da57600080fd5b506001600160a01b0381351690602001356106b4565b6101f861075b565b60408051918252519081900360200190f35b610212610761565b604080516001600160a01b039092168252519081900360200190f35b6101a5610770565b610212610832565b6101a56004803603604081101561025457600080fd5b5080359060200135610841565b6101f86004803603602081101561027757600080fd5b5035610b4c565b6101a56004803603602081101561029457600080fd5b50356001600160a01b0316610b5e565b6101a5600480360360408110156102ba57600080fd5b506001600160a01b038135169060200135610c38565b610138600480360360208110156102e657600080fd5b810190602081018135600160201b81111561030057600080fd5b82018360208201111561031257600080fd5b803590602001918460018302840111600160201b8311171561033357600080fd5b91908080601f016020809104026020016040519081016040528093929190818152602001838380828437600092019190915250929550610e49945050505050565b61039a6004803603602081101561038a57600080fd5b50356001600160a01b0316610f38565b604051808060200180602001838103835285818151815260200191508051906020019060200280838360005b838110156103de5781810151838201526020016103c6565b50505050905001838103825284818151815260200191508051906020019060200280838360005b8381101561041d578181015183820152602001610405565b5050505090500194505050505060405180910390f35b6101a56004803603602081101561044957600080fd5b50356001600160a01b031661113c565b6101a56004803603604081101561046f57600080fd5b506001600160a01b03813581169160200135166111e1565b6101a56004803603602081101561049d57600080fd5b50356001600160a01b0316611260565b6101a5600480360360208110156104c357600080fd5b5035611322565b60008181526003602052604090205460609080610529576040805162461bcd60e51b8152602060048201526018602482015277119514d3c81a5b99195e081b9bdd081cdd5c1c1bdc9d195960421b604482015290519081900360640190fd5b6000838152600460209081526040918290208054835181840281018401909452808452909183018282801561058757602002820191906000526020600020905b81546001600160a01b03168152600190910190602001808311610569575b50505050509150505b919050565b6000546001600160a01b031633146105e6576040805162461bcd60e51b815260206004820152600f60248201526e6f6e6c7920676f7665726e616e636560881b604482015290519081900360640190fd5b600255565b6007546001600160a01b0316331461063e576040805162461bcd60e51b815260206004820152601160248201527037b7363c90333a39b79036b0b730b3b2b960791b604482015290519081900360640190fd5b6000818152600360205260409020541561069f576040805162461bcd60e51b815260206004820152601760248201527f77686974656c69737420616c7265616479206578697374000000000000000000604482015290519081900360640190fd5b60025460009182526003602052604090912055565b6106bd82611409565b15610701576040805162461bcd60e51b815260206004820152600f60248201526e74727573746564206164647265737360881b604482015290519081900360640190fd5b600061070d8383611579565b905080610756576040805162461bcd60e51b8152602060048201526012602482015271766f746520706f77657220746f6f206c6f7760701b604482015290519081900360640190fd5b505050565b60025481565b6000546001600160a01b031681565b6001546001600160a01b031633146107bf576040805162461bcd60e51b815260206004820152600d60248201526c1b9bdd0818db185a5b585a5b9d609a1b604482015290519081900360640190fd5b600054600154604080516001600160a01b03938416815292909116602083015280517f434a2db650703b36c824e745330d6397cdaa9ee2cc891a4938ae853e1c50b68d9281900390910190a160018054600080546001600160a01b03199081166001600160a01b03841617909155169055565b6001546001600160a01b031681565b6000546001600160a01b03163314610892576040805162461bcd60e51b815260206004820152600f60248201526e6f6e6c7920676f7665726e616e636560881b604482015290519081900360640190fd5b600082815260036020908152604080832084905560049091529020805482106108bb5750610b48565b6006546040805163d75f6d8160e01b81526004810186905290516000926001600160a01b03169163d75f6d81916024808301926020929190829003018186803b15801561090757600080fd5b505afa15801561091b573d6000803e3d6000fd5b505050506040513d602081101561093157600080fd5b505182546040805160208381028201810190925282815292935060009261099a92859287919083018282801561099057602002820191906000526020600020905b81546001600160a01b03168152600190910190602001808311610972575b5050505050611805565b805190915084810360008167ffffffffffffffff811180156109bb57600080fd5b506040519080825280602002602001820160405280156109e5578160200160208202803683370190505b50905060005b82811015610b365760006109ff8686611a78565b9050878181548110610a0d57fe5b9060005260206000200160009054906101000a90046001600160a01b0316838381518110610a3757fe5b60200260200101906001600160a01b031690816001600160a01b03168152505060018503811015610af957876001860381548110610a7157fe5b9060005260206000200160009054906101000a90046001600160a01b0316888281548110610a9b57fe5b9060005260206000200160006101000a8154816001600160a01b0302191690836001600160a01b03160217905550856001860381518110610ad857fe5b6020026020010151868281518110610aec57fe5b6020026020010181815250505b87805480610b0357fe5b600082815260209020810160001990810180546001600160a01b03191690559081019091559490940193506001016109eb565b50610b418189611adc565b5050505050505b5050565b60036020526000908152604090205481565b600154600160a01b900460ff1615610bb4576040805162461bcd60e51b8152602060048201526014602482015273696e697469616c6973656420213d2066616c736560601b604482015290519081900360640190fd5b6001805460ff60a01b1916600160a01b179055600054604080516001600160a01b039283168152918316602083015280517f434a2db650703b36c824e745330d6397cdaa9ee2cc891a4938ae853e1c50b68d9281900390910190a1600080546001600160a01b039092166001600160a01b0319928316179055600180549091169055565b610c4182611409565b610c88576040805162461bcd60e51b81526020600482015260136024820152726e6f742074727573746564206164647265737360681b604482015290519081900360640190fd5b6000818152600460205260408120805490915b81811015610ce157846001600160a01b0316838281548110610cb957fe5b6000918252602090912001546001600160a01b03161415610cd957610ce1565b600101610c9b565b818110610d35576040805162461bcd60e51b815260206004820152601f60248201527f747275737465642061646472657373206e6f742077686974656c697374656400604482015290519081900360640190fd5b60408051600180825281830190925260009160208083019080368337019050509050838281548110610d6357fe5b600091825260208220015482516001600160a01b03909116918391610d8457fe5b60200260200101906001600160a01b031690816001600160a01b031681525050836001840381548110610db357fe5b9060005260206000200160009054906101000a90046001600160a01b0316848381548110610ddd57fe5b9060005260206000200160006101000a8154816001600160a01b0302191690836001600160a01b0316021790555083805480610e1557fe5b600082815260209020810160001990810180546001600160a01b0319169055019055610e418186611adc565b505050505050565b600654604051630e848da360e41b81526020600482018181528451602484015284516060946000946001600160a01b039091169363e848da3093889390928392604490910191908501908083838b5b83811015610eb0578181015183820152602001610e98565b50505050905090810190601f168015610edd5780820380516001836020036101000a031916815260200191505b509250505060206040518083038186803b158015610efa57600080fd5b505afa158015610f0e573d6000803e3d6000fd5b505050506040513d6020811015610f2457600080fd5b50519050610f31816104ca565b9392505050565b606080610f4483611409565b15610f88576040805162461bcd60e51b815260206004820152600f60248201526e74727573746564206164647265737360881b604482015290519081900360640190fd5b600660009054906101000a90046001600160a01b03166001600160a01b031663798aac5b6040518163ffffffff1660e01b815260040160006040518083038186803b158015610fd657600080fd5b505afa158015610fea573d6000803e3d6000fd5b505050506040513d6000823e601f3d908101601f19168201604052602081101561101357600080fd5b8101908080516040519392919084600160201b82111561103257600080fd5b90830190602082018581111561104757600080fd5b82518660208202830111600160201b8211171561106357600080fd5b82525081516020918201928201910280838360005b83811015611090578181015183820152602001611078565b5050505090500160405250505091506000825190508067ffffffffffffffff811180156110bc57600080fd5b506040519080825280602002602001820160405280156110e6578160200160208202803683370190505b50915060005b81811015611135576111118585838151811061110457fe5b6020026020010151611579565b83828151811061111d57fe5b911515602092830291909101909101526001016110ec565b5050915091565b6000546001600160a01b0316331461118d576040805162461bcd60e51b815260206004820152600f60248201526e6f6e6c7920676f7665726e616e636560881b604482015290519081900360640190fd5b600180546001600160a01b0383166001600160a01b0319909116811790915560408051918252517f1f95fb40be3a947982072902a887b521248d1d8931a39eb38f84f4d6fd758b699181900360200190a150565b6000546001600160a01b03163314611232576040805162461bcd60e51b815260206004820152600f60248201526e6f6e6c7920676f7665726e616e636560881b604482015290519081900360640190fd5b600680546001600160a01b039384166001600160a01b03199182161790915560078054929093169116179055565b6000546001600160a01b031633146112b1576040805162461bcd60e51b815260206004820152600f60248201526e6f6e6c7920676f7665726e616e636560881b604482015290519081900360640190fd5b600054604080516001600160a01b039283168152918316602083015280517f434a2db650703b36c824e745330d6397cdaa9ee2cc891a4938ae853e1c50b68d9281900390910190a1600080546001600160a01b039092166001600160a01b0319928316179055600180549091169055565b6007546001600160a01b03163314611375576040805162461bcd60e51b815260206004820152601160248201527037b7363c90333a39b79036b0b730b3b2b960791b604482015290519081900360640190fd5b60008181526004602090815260409182902080548351818402810184019094528084526113e193928301828280156113d657602002820191906000526020600020905b81546001600160a01b031681526001909101906020018083116113b8575b505050505082611adc565b60008181526004602052604081206113f8916124bf565b600090815260036020526040812055565b600080600560009054906101000a90046001600160a01b03166001600160a01b031663ffacb84e6040518163ffffffff1660e01b815260040160006040518083038186803b15801561145a57600080fd5b505afa15801561146e573d6000803e3d6000fd5b505050506040513d6000823e601f3d908101601f19168201604052602081101561149757600080fd5b8101908080516040519392919084600160201b8211156114b657600080fd5b9083019060208201858111156114cb57600080fd5b82518660208202830111600160201b821117156114e757600080fd5b82525081516020918201928201910280838360005b838110156115145781810151838201526020016114fc565b50505050905001604052505050905060005b815181101561156f57836001600160a01b031682828151811061154557fe5b60200260200101516001600160a01b0316141561156757600192505050610590565b600101611526565b5060009392505050565b600081815260036020526040812054806115d5576040805162461bcd60e51b8152602060048201526018602482015277119514d3c81a5b99195e081b9bdd081cdd5c1c1bdc9d195960421b604482015290519081900360640190fd5b6000838152600460205260408120805490916001820167ffffffffffffffff8111801561160157600080fd5b5060405190808252806020026020018201604052801561162b578160200160208202803683370190505b50905060005b828110156116a657600084828154811061164757fe5b6000918252602090912001546001600160a01b039081169150891681141561167857600196505050505050506117ff565b8083838151811061168557fe5b6001600160a01b039092166020928302919091019091015250600101611631565b50868183815181106116b457fe5b60200260200101906001600160a01b031690816001600160a01b0316815250508382101561171e5782546001810184556000848152602090200180546001600160a01b0319166001600160a01b0389161790556117118787611bef565b60019450505050506117ff565b600061172a8288611c88565b905082811415611742576000955050505050506117ff565b6040805160018082528183019092526000916020808301908036833701905050905082828151811061177057fe5b60200260200101518160008151811061178557fe5b60200260200101906001600160a01b031690816001600160a01b031681525050888583815481106117b257fe5b9060005260206000200160006101000a8154816001600160a01b0302191690836001600160a01b031602179055506117ea8189611adc565b6117f48989611bef565b600196505050505050505b92915050565b6060806060600080600080886001600160a01b0316638357d08c6040518163ffffffff1660e01b815260040160006040518083038186803b15801561184957600080fd5b505afa15801561185d573d6000803e3d6000fd5b505050506040513d6000823e601f3d908101601f1916820160405260c081101561188657600080fd5b8101908080516040519392919084600160201b8211156118a557600080fd5b9083019060208201858111156118ba57600080fd5b82518660208202830111600160201b821117156118d657600080fd5b82525081516020918201928201910280838360005b838110156119035781810151838201526020016118eb565b5050505090500160405260200180516040519392919084600160201b82111561192b57600080fd5b90830190602082018581111561194057600080fd5b82518660208202830111600160201b8211171561195c57600080fd5b82525081516020918201928201910280838360005b83811015611989578181015183820152602001611971565b5050505090500160405260200180519060200190929190805190602001909291908051906020019092919080519060200190929190505050809650819750829850839950849a50859b505050505050506000611a4b8a6001600160a01b0316639edbf0076040518163ffffffff1660e01b815260040160206040518083038186803b158015611a1757600080fd5b505afa158015611a2b573d6000803e3d6000fd5b505050506040513d6020811015611a4157600080fd5b5051868b85611d29565b90506000611a5c8888878d87611da4565b9050611a69828286611f17565b9b9a5050505050505050505050565b60008060009050600084600081518110611a8e57fe5b6020026020010151905060005b84811015611ad2576000868281518110611ab157fe5b60200260200101519050828111611ac9578193508092505b50600101611a9b565b5090949350505050565b60005b8251811015611b4b577f33359f2769756ca8d0da4683f25ee440744d6f18bfb166dbfb59315a8c62b016838281518110611b1557fe5b60200260200101518360405180836001600160a01b031681526020018281526020019250505060405180910390a1600101611adf565b50600554604080516376794efb60e01b815260248101849052600481019182528451604482015284516001600160a01b03909316926376794efb92869286928291606401906020808701910280838360005b83811015611bb5578181015183820152602001611b9d565b505050509050019350505050600060405180830381600087803b158015611bdb57600080fd5b505af1158015610e41573d6000803e3d6000fd5b604080516001600160a01b03841681526020810183905281517f66a8b13abe95391d1851f5bc319f3dde54ce8f2f40a5fe226aa3251d805832e3929181900390910190a160055460408051639d986f9160e01b81526001600160a01b0385811660048301526024820185905291519190921691639d986f9191604480830192600092919082900301818387803b158015611bdb57600080fd5b6006546040805163d75f6d8160e01b815260048101849052905160009283926001600160a01b039091169163d75f6d8191602480820192602092909190829003018186803b158015611cd957600080fd5b505afa158015611ced573d6000803e3d6000fd5b505050506040513d6020811015611d0357600080fd5b505190506000611d138286611805565b9050611d20818251611a78565b95945050505050565b6060611d3685848461205c565b905083611d4257611d9c565b60005b8351811015611d9a57611d7b64e8d4a5100086848481518110611d6457fe5b60200260200101516122549092919063ffffffff16565b828281518110611d8757fe5b6020908102919091010152600101611d45565b505b949350505050565b6060825167ffffffffffffffff81118015611dbe57600080fd5b50604051908082528060200260200182016040528015611de8578160200160208202803683370190505b50905060005b8351811015611e18576000828281518110611e0557fe5b6020908102919091010152600101611dee565b5083611e2357611d20565b6000611e3785670de0b6b3a7640000612360565b905060005b8751811015611f0c576000888281518110611e5357fe5b6020026020010151905060006001600160a01b0316816001600160a01b031614611f03576000611e8482888861205c565b905060005b8751811015611f00576000611eb88b8681518110611ea357fe5b602002602001015187858581518110611d6457fe5b9050611ee081888481518110611eca57fe5b60200260200101516123b990919063ffffffff16565b878381518110611eec57fe5b602090810291909101015250600101611e89565b50505b50600101611e3c565b505095945050505050565b60606000611f2484612413565b90506000611f3186612413565b90506000808311611f43576000611f45565b845b90506000808311611f57576000611f5d565b81612710035b9050875167ffffffffffffffff81118015611f7757600080fd5b50604051908082528060200260200182016040528015611fa1578160200160208202803683370190505b50945060005b88518110156120505760008215611fee57611feb8a8381518110611fc757fe5b602002602001015164e8d4a51000026127108702856122549092919063ffffffff16565b90505b6000841561202c576120298a848151811061200557fe5b602002602001015164e8d4a51000026127108902876122549092919063ffffffff16565b90505b80820188848151811061203b57fe5b60209081029190910101525050600101611fa7565b50505050509392505050565b6060836001600160a01b031663e587497e8460018651038151811061207d57fe5b6020026020010151846040518363ffffffff1660e01b815260040180836001600160a01b0316815260200182815260200192505050602060405180830381600087803b1580156120cc57600080fd5b505af11580156120e0573d6000803e3d6000fd5b505050506040513d60208110156120f657600080fd5b5050604080516349e3c7e560e01b815260248101849052600481019182528451604482015284516001600160a01b038716926349e3c7e592879287929182916064909101906020868101910280838360005b83811015612160578181015183820152602001612148565b50505050905001935050505060006040518083038186803b15801561218457600080fd5b505afa158015612198573d6000803e3d6000fd5b505050506040513d6000823e601f3d908101601f1916820160405260208110156121c157600080fd5b8101908080516040519392919084600160201b8211156121e057600080fd5b9083019060208201858111156121f557600080fd5b82518660208202830111600160201b8211171561221157600080fd5b82525081516020918201928201910280838360005b8381101561223e578181015183820152602001612226565b5050505090500160405250505090509392505050565b600080821161229d576040805162461bcd60e51b815260206004820152601060248201526f4469766973696f6e206279207a65726f60801b604482015290519081900360640190fd5b836122aa57506000610f31565b838302838582816122b757fe5b0414156122d0578281816122c757fe5b04915050610f31565b60008386816122db57fe5b04905060008487816122e957fe5b06905060008587816122f757fe5b049050600086888161230557fe5b06905061235361231f886123198685612360565b90612458565b61234d61232c8686612360565b61234d6123398987612360565b61234d8d6123478c8b612360565b90612360565b906123b9565b9998505050505050505050565b60008261236f575060006117ff565b8282028284828161237c57fe5b0414610f315760405162461bcd60e51b81526004018080602001828103825260218152602001806124fa6021913960400191505060405180910390fd5b600082820183811015610f31576040805162461bcd60e51b815260206004820152601b60248201527f536166654d6174683a206164646974696f6e206f766572666c6f770000000000604482015290519081900360640190fd5b600080805b83518110156124515761244784828151811061243057fe5b6020026020010151836123b990919063ffffffff16565b9150600101612418565b5092915050565b60008082116124ae576040805162461bcd60e51b815260206004820152601a60248201527f536166654d6174683a206469766973696f6e206279207a65726f000000000000604482015290519081900360640190fd5b8183816124b757fe5b049392505050565b50805460008255906000526020600020908101906124dd91906124e0565b50565b5b808211156124f557600081556001016124e1565b509056fe536166654d6174683a206d756c7469706c69636174696f6e206f766572666c6f77a2646970667358221220b2c982b736e8a3437cdebe7ccf047ed9b705e19c13ab2426639823c42ab445f264736f6c63430007060033",
  "linkReferences": {},
  "deployedLinkReferences": {}
}