{
  "_format": "hh-sol-artifact-1",
  "contractName": "PercentageProviderMock",
  "sourceName": "contracts/inflation/mock/PercentageProviderMock.sol",
  "abi": [
    {
      "inputs": [
        {
          "components": [
            {
              "internalType": "contract IIInflationReceiver",
              "name": "inflationReceiver",
              "type": "address"
            },
            {
              "internalType": "uint256",
              "name": "percentBips",
              "type": "uint256"
            }
          ],
          "internalType": "struct SharingPercentage[]",
          "name": "_sharingPercentages",
          "type": "tuple[]"
        },
        {
          "internalType": "uint256",
          "name": "_annualPercentageBips",
          "type": "uint256"
        }
      ],
      "stateMutability": "nonpayable",
      "type": "constructor"
    },
    {
      "inputs": [],
      "name": "annualPercentageBips",
      "outputs": [
        {
          "internalType": "uint256",
          "name": "",
          "type": "uint256"
        }
      ],
      "stateMutability": "view",
      "type": "function"
    },
    {
      "inputs": [],
      "name": "getAnnualPercentageBips",
      "outputs": [
        {
          "internalType": "uint256",
          "name": "",
          "type": "uint256"
        }
      ],
      "stateMutability": "view",
      "type": "function"
    },
    {
      "inputs": [],
      "name": "getSharingPercentages",
      "outputs": [
        {
          "components": [
            {
              "internalType": "contract IIInflationReceiver",
              "name": "inflationReceiver",
              "type": "address"
            },
            {
              "internalType": "uint256",
              "name": "percentBips",
              "type": "uint256"
            }
          ],
          "internalType": "struct SharingPercentage[]",
          "name": "",
          "type": "tuple[]"
        }
      ],
      "stateMutability": "view",
      "type": "function"
    },
    {
      "inputs": [
        {
          "internalType": "uint256",
          "name": "",
          "type": "uint256"
        }
      ],
      "name": "sharingPercentages",
      "outputs": [
        {
          "internalType": "contract IIInflationReceiver",
          "name": "inflationReceiver",
          "type": "address"
        },
        {
          "internalType": "uint256",
          "name": "percentBips",
          "type": "uint256"
        }
      ],
      "stateMutability": "view",
      "type": "function"
    }
  ],
  "bytecode": "0x608060405234801561001057600080fd5b506040516103ee3803806103ee83398101604081905261002f916100a4565b60008181555b825181101561009c57600183828151811061004c57fe5b602090810291909101810151825460018082018555600094855293839020825160029092020180546001600160a01b0319166001600160a01b039092169190911781559101519082015501610035565b5050506101b1565b60008060408084860312156100b7578283fd5b83516001600160401b03808211156100cd578485fd5b818601915086601f8301126100e0578485fd5b81516020828211156100ee57fe5b6100fb818284020161018e565b82815281810190858301878502870184018c101561011757898afd5b8996505b8487101561017a5787818d03121561013157898afd5b8751888101818110888211171561014457fe5b895281516001600160a01b038116811461015c578b8cfd5b8152818501518582015283526001969096019591830191870161011b565b509890910151979997985050505050505050565b6040518181016001600160401b03811182821017156101a957fe5b604052919050565b61022e806101c06000396000f3fe608060405234801561001057600080fd5b506004361061004c5760003560e01c806315abc59d14610051578063981940291461007b578063c853b8d414610090578063d237450a146100a5575b600080fd5b61006461005f366004610166565b6100ad565b6040516100729291906101d6565b60405180910390f35b6100836100e5565b60405161007291906101ef565b6100986100eb565b604051610072919061017e565b610083610160565b600181815481106100bd57600080fd5b6000918252602090912060029091020180546001909101546001600160a01b03909116915082565b60005490565b60606001805480602002602001604051908101604052809291908181526020016000905b82821015610157576000848152602090819020604080518082019091526002850290910180546001600160a01b0316825260019081015482840152908352909201910161010f565b50505050905090565b60005481565b600060208284031215610177578081fd5b5035919050565b602080825282518282018190526000919060409081850190868401855b828110156101c957815180516001600160a01b0316855286015186850152928401929085019060010161019b565b5091979650505050505050565b6001600160a01b03929092168252602082015260400190565b9081526020019056fea26469706673582212202d4ee5c45c0225f427ac0b073ce8526db6dffcc4e28d7fde8694604cf208aa1664736f6c63430007060033",
  "linkReferences": {},
  "deployedLinkReferences": {}
}