{
  "_format": "hh-sol-artifact-1",
  "contractName": "GasConsumer6",
  "sourceName": "contracts/utils/mock/GasConsumer6.sol",
  "abi": [
    {
      "inputs": [
        {
          "internalType": "uint256",
          "name": "n",
          "type": "uint256"
        }
      ],
      "stateMutability": "nonpayable",
      "type": "constructor"
    },
    {
      "inputs": [
        {
          "internalType": "uint256",
          "name": "",
          "type": "uint256"
        }
      ],
      "name": "array",
      "outputs": [
        {
          "internalType": "uint256",
          "name": "",
          "type": "uint256"
        }
      ],
      "stateMutability": "view",
      "type": "function"
    },
    {
      "inputs": [
        {
          "internalType": "uint256[]",
          "name": "arr",
          "type": "uint256[]"
        }
      ],
      "name": "findMinValueIndex",
      "outputs": [
        {
          "internalType": "uint256",
          "name": "",
          "type": "uint256"
        }
      ],
      "stateMutability": "pure",
      "type": "function"
    },
    {
      "inputs": [],
      "name": "maxLen",
      "outputs": [
        {
          "internalType": "uint256",
          "name": "",
          "type": "uint256"
        }
      ],
      "stateMutability": "view",
      "type": "function"
    },
    {
      "inputs": [
        {
          "internalType": "uint256",
          "name": "n",
          "type": "uint256"
        }
      ],
      "name": "push",
      "outputs": [],
      "stateMutability": "nonpayable",
      "type": "function"
    }
  ],
  "bytecode": "0x608060405234801561001057600080fd5b5060405161031c38038061031c8339818101604052602081101561003357600080fd5b50516001556102d5806100476000396000f3fe608060405234801561001057600080fd5b506004361061004c5760003560e01c806333cf4a6a1461005157806338d9419314610106578063583e105514610123578063959ac4841461012b575b600080fd5b6100f46004803603602081101561006757600080fd5b81019060208101813564010000000081111561008257600080fd5b82018360208201111561009457600080fd5b803590602001918460208302840111640100000000831117156100b657600080fd5b91908080602002602001604051908101604052809392919081815260200183836020028082843760009201919091525092955061014a945050505050565b60408051918252519081900360200190f35b6100f46004803603602081101561011c57600080fd5b5035610199565b6100f46101ba565b6101486004803603602081101561014157600080fd5b50356101c0565b005b600080805b83518110156101925783828151811061016457fe5b602002602001015184828151811061017857fe5b6020026020010151101561018a578091505b60010161014f565b5092915050565b600081815481106101a957600080fd5b600091825260209091200154905081565b60015481565b600154600054101561020357600080546001810182559080527f290decd9548b62a8d60345a988386fc84ba6bc95484008f6362f93160ef3e5630181905561029c565b600061025e600080548060200260200160405190810160405280929190818152602001828054801561025457602002820191906000526020600020905b815481526020019060010190808311610240575b505050505061014a565b9050816000828154811061026e57fe5b9060005260206000200154101561029a57816000828154811061028d57fe5b6000918252602090912001555b505b5056fea26469706673582212201862ff7298940abd71187a87c51e94408c2335da5731c7e4766cdd23ed9844d264736f6c63430007060033",
  "linkReferences": {},
  "deployedLinkReferences": {}
}