{
  "_format": "hh-sol-artifact-1",
  "contractName": "DummyAssetMinter",
  "sourceName": "contracts/mockXAsset/mock/DummyAssetMinter.sol",
  "abi": [
    {
      "inputs": [
        {
          "internalType": "contract AssetToken",
          "name": "mintableToken_",
          "type": "address"
        },
        {
          "internalType": "uint256",
          "name": "maxMintRequestTwei_",
          "type": "uint256"
        }
      ],
      "stateMutability": "nonpayable",
      "type": "constructor"
    },
    {
      "inputs": [
        {
          "internalType": "uint256",
          "name": "epochID",
          "type": "uint256"
        }
      ],
      "name": "addRewardToAgentPosition",
      "outputs": [
        {
          "internalType": "bool",
          "name": "succeess",
          "type": "bool"
        }
      ],
      "stateMutability": "nonpayable",
      "type": "function"
    },
    {
      "inputs": [
        {
          "internalType": "uint256",
          "name": "amount",
          "type": "uint256"
        },
        {
          "internalType": "bytes32",
          "name": "assetAddress",
          "type": "bytes32"
        }
      ],
      "name": "assetRedemptionRequest",
      "outputs": [
        {
          "internalType": "uint256",
          "name": "redemptionId",
          "type": "uint256"
        },
        {
          "internalType": "address[]",
          "name": "agents",
          "type": "address[]"
        },
        {
          "internalType": "uint256[]",
          "name": "assetAmounts",
          "type": "uint256[]"
        }
      ],
      "stateMutability": "nonpayable",
      "type": "function"
    },
    {
      "inputs": [],
      "name": "claimGovernanceOverMintableToken",
      "outputs": [],
      "stateMutability": "nonpayable",
      "type": "function"
    },
    {
      "inputs": [
        {
          "internalType": "uint256",
          "name": "amount",
          "type": "uint256"
        },
        {
          "internalType": "uint256",
          "name": "freshMint",
          "type": "uint256"
        },
        {
          "internalType": "uint256",
          "name": "agentPosition",
          "type": "uint256"
        },
        {
          "internalType": "uint256",
          "name": "freshMintMinRatio",
          "type": "uint256"
        },
        {
          "internalType": "address",
          "name": "natAddress",
          "type": "address"
        },
        {
          "internalType": "enum ICollateralizable.FeeHandling",
          "name": "handling",
          "type": "uint8"
        }
      ],
      "name": "deposit",
      "outputs": [],
      "stateMutability": "nonpayable",
      "type": "function"
    },
    {
      "inputs": [],
      "name": "maxMintRequestTwei",
      "outputs": [
        {
          "internalType": "uint256",
          "name": "",
          "type": "uint256"
        }
      ],
      "stateMutability": "view",
      "type": "function"
    },
    {
      "inputs": [
        {
          "internalType": "uint256",
          "name": "mintAmountTwei",
          "type": "uint256"
        },
        {
          "internalType": "address",
          "name": "mintDestination",
          "type": "address"
        },
        {
          "internalType": "bytes32",
          "name": "underlyingAddress",
          "type": "bytes32"
        }
      ],
      "name": "mintRequest",
      "outputs": [
        {
          "internalType": "uint256",
          "name": "mintRequestId",
          "type": "uint256"
        },
        {
          "internalType": "address[]",
          "name": "agents",
          "type": "address[]"
        },
        {
          "internalType": "uint256[]",
          "name": "assetAmounts",
          "type": "uint256[]"
        },
        {
          "internalType": "bytes32[]",
          "name": "assetAddress",
          "type": "bytes32[]"
        }
      ],
      "stateMutability": "nonpayable",
      "type": "function"
    },
    {
      "inputs": [],
      "name": "mintableToken",
      "outputs": [
        {
          "internalType": "contract AssetToken",
          "name": "",
          "type": "address"
        }
      ],
      "stateMutability": "view",
      "type": "function"
    },
    {
      "inputs": [
        {
          "internalType": "uint256",
          "name": "mintRequestId",
          "type": "uint256"
        },
        {
          "internalType": "bytes32",
          "name": "minterSourceAddress",
          "type": "bytes32"
        },
        {
          "internalType": "bytes32",
          "name": "agentAssetAddress",
          "type": "bytes32"
        },
        {
          "internalType": "bytes32",
          "name": "destinationTag",
          "type": "bytes32"
        },
        {
          "internalType": "uint256",
          "name": "assetAmount",
          "type": "uint256"
        },
        {
          "internalType": "bytes32[]",
          "name": "merkleProof",
          "type": "bytes32[]"
        }
      ],
      "name": "proveMintPayment",
      "outputs": [
        {
          "internalType": "uint256",
          "name": "mintedAmount",
          "type": "uint256"
        }
      ],
      "stateMutability": "nonpayable",
      "type": "function"
    },
    {
      "inputs": [
        {
          "internalType": "uint256",
          "name": "redemptionRequestId",
          "type": "uint256"
        },
        {
          "internalType": "bytes32",
          "name": "agentSourceAssetAddress",
          "type": "bytes32"
        },
        {
          "internalType": "bytes32",
          "name": "redeemerAssetAddress",
          "type": "bytes32"
        },
        {
          "internalType": "bytes32",
          "name": "destinationTag",
          "type": "bytes32"
        },
        {
          "internalType": "uint256",
          "name": "assetAmount",
          "type": "uint256"
        },
        {
          "internalType": "bytes32[]",
          "name": "merkleProof",
          "type": "bytes32[]"
        }
      ],
      "name": "proveRedemptionPayment",
      "outputs": [
        {
          "internalType": "uint256",
          "name": "redeemedAmount",
          "type": "uint256"
        }
      ],
      "stateMutability": "nonpayable",
      "type": "function"
    }
  ],
  "bytecode": "0x60a060405234801561001057600080fd5b506040516106a53803806106a58339818101604052604081101561003357600080fd5b5080516020909101516001600160601b031960609290921b9190911660805260005560805160601c61062961007c600039806103da52806104a7528061054352506106296000f3fe608060405234801561001057600080fd5b50600436106100935760003560e01c80639ab57fa2116100665780639ab57fa21461027e578063a0b5661a146102c5578063c36878d91461035e578063e038fc5a1461038f578063f964ba1c1461009857610093565b806376b963b3146100985780638477b2691461013957806392687c0b1461014357806395d38ea81461025a575b600080fd5b610127600480360360c08110156100ae57600080fd5b8135916020810135916040820135916060810135916080820135919081019060c0810160a08201356401000000008111156100e857600080fd5b8201836020820111156100fa57600080fd5b8035906020019184602083028401116401000000008311171561011c57600080fd5b509092509050610397565b60408051918252519081900360200190f35b6101416103d8565b005b6101756004803603606081101561015957600080fd5b508035906001600160a01b03602082013516906040013561044d565b60405180858152602001806020018060200180602001848103845287818151815260200191508051906020019060200280838360005b838110156101c35781810151838201526020016101ab565b50505050905001848103835286818151815260200191508051906020019060200280838360005b838110156102025781810151838201526020016101ea565b50505050905001848103825285818151815260200191508051906020019060200280838360005b83811015610241578181015183820152602001610229565b5050505090500197505050505050505060405180910390f35b610262610541565b604080516001600160a01b039092168252519081900360200190f35b610141600480360360c081101561029457600080fd5b5080359060208101359060408101359060608101359060808101356001600160a01b03169060a0013560ff16610565565b6102e8600480360360408110156102db57600080fd5b50803590602001356105a4565b6040518086815260200180602001806020018381038352878782818152602001925060200280828437600083820152601f01601f19169091018481038352858152602090810191508690860280828437600083820152604051601f909101601f1916909201829003995090975050505050505050f35b61037b6004803603602081101561037457600080fd5b5035610397565b604080519115158252519081900360200190f35b6101276105ed565b6040805162461bcd60e51b815260206004820152600f60248201526e139bdd081a5b5c1b195b595b9d1959608a1b6044820152905160009181900360640190fd5b7f00000000000000000000000000000000000000000000000000000000000000006001600160a01b0316635d36b1906040518163ffffffff1660e01b8152600401600060405180830381600087803b15801561043357600080fd5b505af1158015610447573d6000803e3d6000fd5b50505050565b60006060806060600054871115806104655750600054155b6104a5576040805162461bcd60e51b815260206004820152600c60248201526b1b585e08195e18d95959195960a21b604482015290519081900360640190fd5b7f00000000000000000000000000000000000000000000000000000000000000006001600160a01b03166340c10f1987896040518363ffffffff1660e01b815260040180836001600160a01b0316815260200182815260200192505050600060405180830381600087803b15801561051c57600080fd5b505af1158015610530573d6000803e3d6000fd5b505050506000935093509350935093565b7f000000000000000000000000000000000000000000000000000000000000000081565b6040805162461bcd60e51b815260206004820152600f60248201526e139bdd081a5b5c1b195b595b9d1959608a1b604482015290519081900360640190fd5b6040805162461bcd60e51b815260206004820152600f60248201526e139bdd081a5b5c1b195b595b9d1959608a1b60448201529051600091369183918391839181900360640190fd5b6000548156fea26469706673582212203d319fa95cdd9889a064ed836f8cc86bd82b5bc3260892efa103ce9af4ec292664736f6c63430007060033",
  "linkReferences": {},
  "deployedLinkReferences": {}
}