{
  "_format": "hh-sol-artifact-1",
  "contractName": "GasConsumer7",
  "sourceName": "contracts/utils/mock/GasConsumer7.sol",
  "abi": [
    {
      "inputs": [
        {
          "internalType": "uint256",
          "name": "",
          "type": "uint256"
        }
      ],
      "name": "gasConsumers6Contracts",
      "outputs": [
        {
          "internalType": "contract GasConsumer6",
          "name": "",
          "type": "address"
        }
      ],
      "stateMutability": "view",
      "type": "function"
    },
    {
      "inputs": [
        {
          "internalType": "uint256",
          "name": "n",
          "type": "uint256"
        }
      ],
      "name": "push",
      "outputs": [],
      "stateMutability": "nonpayable",
      "type": "function"
    },
    {
      "inputs": [
        {
          "internalType": "contract GasConsumer6[]",
          "name": "gasConsumers6",
          "type": "address[]"
        }
      ],
      "name": "setContracts",
      "outputs": [],
      "stateMutability": "nonpayable",
      "type": "function"
    }
  ],
  "bytecode": "0x608060405234801561001057600080fd5b506102c9806100206000396000f3fe608060405234801561001057600080fd5b50600436106100415760003560e01c8063959ac4841461004657806398277cd814610065578063b3c950c3146100d5575b600080fd5b6100636004803603602081101561005c57600080fd5b503561010e565b005b6100636004803603602081101561007b57600080fd5b81019060208101813564010000000081111561009657600080fd5b8201836020820111156100a857600080fd5b803590602001918460208302840111640100000000831117156100ca57600080fd5b5090925090506101cb565b6100f2600480360360208110156100eb57600080fd5b5035610269565b604080516001600160a01b039092168252519081900360200190f35b60008054905b818110156101c65760408051602080820186905281830184905282518083038401815260609092019092528051910120600080548390811061015257fe5b600091825260208220015460408051632566b12160e21b81526004810185905290516001600160a01b039092169263959ac4849260248084019382900301818387803b1580156101a157600080fd5b505af11580156101b5573d6000803e3d6000fd5b505060019093019250610114915050565b505050565b805b600054156102075760008054806101e057fe5b600082815260209020810160001990810180546001600160a01b03191690550190556101cd565b60005b8181101561026357600084848381811061022057fe5b835460018181018655600095865260209586902090910180546001600160a01b0319166001600160a01b039690930294909401359490941617909155500161020a565b50505050565b6000818154811061027957600080fd5b6000918252602090912001546001600160a01b031690508156fea264697066735822122009ed6a0a073699dd12b7c50824ead1ed7a4618547bff34a73c15337139610c0b64736f6c63430007060033",
  "linkReferences": {},
  "deployedLinkReferences": {}
}