{
  "_format": "hh-sol-artifact-1",
  "contractName": "GasConsumer5",
  "sourceName": "contracts/utils/mock/GasConsumer5.sol",
  "abi": [
    {
      "inputs": [
        {
          "internalType": "uint256",
          "name": "n",
          "type": "uint256"
        }
      ],
      "stateMutability": "nonpayable",
      "type": "constructor"
    },
    {
      "inputs": [
        {
          "internalType": "uint256",
          "name": "",
          "type": "uint256"
        }
      ],
      "name": "array",
      "outputs": [
        {
          "internalType": "uint256",
          "name": "",
          "type": "uint256"
        }
      ],
      "stateMutability": "view",
      "type": "function"
    },
    {
      "inputs": [],
      "name": "index",
      "outputs": [
        {
          "internalType": "uint256",
          "name": "",
          "type": "uint256"
        }
      ],
      "stateMutability": "view",
      "type": "function"
    },
    {
      "inputs": [],
      "name": "maxLen",
      "outputs": [
        {
          "internalType": "uint256",
          "name": "",
          "type": "uint256"
        }
      ],
      "stateMutability": "view",
      "type": "function"
    },
    {
      "inputs": [
        {
          "internalType": "uint256",
          "name": "n",
          "type": "uint256"
        }
      ],
      "name": "push",
      "outputs": [],
      "stateMutability": "nonpayable",
      "type": "function"
    }
  ],
  "bytecode": "0x608060405234801561001057600080fd5b506040516101903803806101908339818101604052602081101561003357600080fd5b5051600155610149806100476000396000f3fe608060405234801561001057600080fd5b506004361061004c5760003560e01c80632986c0e51461005157806338d941931461006b578063583e105514610088578063959ac48414610090575b600080fd5b6100596100af565b60408051918252519081900360200190f35b6100596004803603602081101561008157600080fd5b50356100b5565b6100596100c7565b6100ad600480360360208110156100a657600080fd5b50356100cd565b005b60025481565b60006020819052908152604090205481565b60015481565b60005b8181101561010f57600254600080600154600254816100eb57fe5b068152602081019190915260400160002055600280546001908101909155016100d0565b505056fea26469706673582212209cb2142ec23b419cdba0454b4d03986e0b696cc0276176d6066b047f7bb5357d64736f6c63430007060033",
  "linkReferences": {},
  "deployedLinkReferences": {}
}