{
  "_format": "hh-sol-artifact-1",
  "contractName": "InfiniteLoopMock1",
  "sourceName": "contracts/genesis/mock/InfiniteLoopMock1.sol",
  "abi": [
    {
      "inputs": [
        {
          "internalType": "uint256",
          "name": "",
          "type": "uint256"
        }
      ],
      "name": "arr",
      "outputs": [
        {
          "internalType": "uint256",
          "name": "",
          "type": "uint256"
        }
      ],
      "stateMutability": "view",
      "type": "function"
    },
    {
      "inputs": [],
      "name": "count",
      "outputs": [
        {
          "internalType": "uint256",
          "name": "",
          "type": "uint256"
        }
      ],
      "stateMutability": "view",
      "type": "function"
    },
    {
      "inputs": [],
      "name": "daemonize",
      "outputs": [
        {
          "internalType": "bool",
          "name": "",
          "type": "bool"
        }
      ],
      "stateMutability": "nonpayable",
      "type": "function"
    },
    {
      "inputs": [],
      "name": "getContractName",
      "outputs": [
        {
          "internalType": "string",
          "name": "",
          "type": "string"
        }
      ],
      "stateMutability": "pure",
      "type": "function"
    },
    {
      "inputs": [],
      "name": "goInLoop",
      "outputs": [
        {
          "internalType": "bool",
          "name": "",
          "type": "bool"
        }
      ],
      "stateMutability": "view",
      "type": "function"
    },
    {
      "inputs": [],
      "name": "savedBlock",
      "outputs": [
        {
          "internalType": "uint256",
          "name": "",
          "type": "uint256"
        }
      ],
      "stateMutability": "view",
      "type": "function"
    },
    {
      "inputs": [
        {
          "internalType": "bool",
          "name": "loop",
          "type": "bool"
        }
      ],
      "name": "setGoInLoopParameter",
      "outputs": [],
      "stateMutability": "nonpayable",
      "type": "function"
    },
    {
      "inputs": [],
      "name": "switchToFallbackMode",
      "outputs": [
        {
          "internalType": "bool",
          "name": "",
          "type": "bool"
        }
      ],
      "stateMutability": "pure",
      "type": "function"
    }
  ],
  "bytecode": "0x608060405260006002556003805460ff1916905534801561001f57600080fd5b506103248061002f6000396000f3fe608060405234801561001057600080fd5b50600436106100885760003560e01c8063a4350dab1161005b578063a4350dab146100e8578063e22fdece146100f0578063ec6f8d01146100f8578063f5f5ba721461011957610088565b806306661abd1461008d5780636d0e8c34146100a757806371e5ee5f146100c35780638bd35534146100e0575b600080fd5b610095610196565b60408051918252519081900360200190f35b6100af61019c565b604080519115158252519081900360200190f35b610095600480360360208110156100d957600080fd5b503561027b565b61009561029c565b6100af6102a2565b6100af6102ab565b6101176004803603602081101561010e57600080fd5b503515156102b0565b005b6101216102c3565b6040805160208082528351818301528351919283929083019185019080838360005b8381101561015b578181015183820152602001610143565b50505050905090810190601f1680156101885780820380516001836020036101000a031916815260200191505b509250505060405180910390f35b60025481565b6000600254600014156101ae57436001555b60035460ff161561026b576002600154816101c557fe5b06610215576002430660011415610210575b6000805460018101825590805260067f290decd9548b62a8d60345a988386fc84ba6bc95484008f6362f93160ef3e563909101556101d7565b61026b565b60026001548161022157fe5b066001141561026b576002430661026b576000805460018101825590805260067f290decd9548b62a8d60345a988386fc84ba6bc95484008f6362f93160ef3e563909101556101d7565b5060028054600190810190915590565b6000818154811061028b57600080fd5b600091825260209091200154905081565b60015481565b60035460ff1681565b600090565b6003805460ff1916911515919091179055565b604080518082019091526011815270496e66696e6974654c6f6f704d6f636b3160781b60208201529056fea26469706673582212205cbbbad83ed796ca635437065bd187bd60f48d53d9a58214ee521d45bcc571f964736f6c63430007060033",
  "linkReferences": {},
  "deployedLinkReferences": {}
}