{
  "_format": "hh-sol-artifact-1",
  "contractName": "FlareDaemonMock1",
  "sourceName": "contracts/genesis/mock/FlareDaemonMock1.sol",
  "abi": [
    {
      "stateMutability": "payable",
      "type": "fallback"
    },
    {
      "inputs": [],
      "name": "DEFAULT_FALLBACK_VALUE",
      "outputs": [
        {
          "internalType": "bytes",
          "name": "",
          "type": "bytes"
        }
      ],
      "stateMutability": "view",
      "type": "function"
    },
    {
      "inputs": [],
      "name": "MOCKS_LIST_END",
      "outputs": [
        {
          "internalType": "bytes",
          "name": "",
          "type": "bytes"
        }
      ],
      "stateMutability": "view",
      "type": "function"
    },
    {
      "inputs": [],
      "name": "MOCKS_LIST_END_HASH",
      "outputs": [
        {
          "internalType": "bytes32",
          "name": "",
          "type": "bytes32"
        }
      ],
      "stateMutability": "view",
      "type": "function"
    },
    {
      "inputs": [],
      "name": "MOCKS_LIST_START",
      "outputs": [
        {
          "internalType": "bytes32",
          "name": "",
          "type": "bytes32"
        }
      ],
      "stateMutability": "view",
      "type": "function"
    },
    {
      "inputs": [],
      "name": "SENTINEL_ANY_MOCKS",
      "outputs": [
        {
          "internalType": "bytes4",
          "name": "",
          "type": "bytes4"
        }
      ],
      "stateMutability": "view",
      "type": "function"
    },
    {
      "inputs": [],
      "name": "a",
      "outputs": [
        {
          "internalType": "uint256",
          "name": "",
          "type": "uint256"
        }
      ],
      "stateMutability": "view",
      "type": "function"
    },
    {
      "inputs": [
        {
          "internalType": "address",
          "name": "_inflation",
          "type": "address"
        }
      ],
      "name": "callReceiveMinting",
      "outputs": [],
      "stateMutability": "payable",
      "type": "function"
    },
    {
      "inputs": [
        {
          "internalType": "uint256",
          "name": "",
          "type": "uint256"
        }
      ],
      "name": "daemonizeContracts",
      "outputs": [
        {
          "internalType": "address",
          "name": "",
          "type": "address"
        }
      ],
      "stateMutability": "view",
      "type": "function"
    },
    {
      "inputs": [
        {
          "internalType": "address",
          "name": "_inflation",
          "type": "address"
        }
      ],
      "name": "fallbackTest",
      "outputs": [
        {
          "internalType": "bytes",
          "name": "",
          "type": "bytes"
        }
      ],
      "stateMutability": "nonpayable",
      "type": "function"
    },
    {
      "inputs": [
        {
          "internalType": "bytes",
          "name": "response",
          "type": "bytes"
        }
      ],
      "name": "givenAnyReturn",
      "outputs": [],
      "stateMutability": "nonpayable",
      "type": "function"
    },
    {
      "inputs": [
        {
          "internalType": "address",
          "name": "response",
          "type": "address"
        }
      ],
      "name": "givenAnyReturnAddress",
      "outputs": [],
      "stateMutability": "nonpayable",
      "type": "function"
    },
    {
      "inputs": [
        {
          "internalType": "bool",
          "name": "response",
          "type": "bool"
        }
      ],
      "name": "givenAnyReturnBool",
      "outputs": [],
      "stateMutability": "nonpayable",
      "type": "function"
    },
    {
      "inputs": [
        {
          "internalType": "uint256",
          "name": "response",
          "type": "uint256"
        }
      ],
      "name": "givenAnyReturnUint",
      "outputs": [],
      "stateMutability": "nonpayable",
      "type": "function"
    },
    {
      "inputs": [],
      "name": "givenAnyRevert",
      "outputs": [],
      "stateMutability": "nonpayable",
      "type": "function"
    },
    {
      "inputs": [
        {
          "internalType": "string",
          "name": "message",
          "type": "string"
        }
      ],
      "name": "givenAnyRevertWithMessage",
      "outputs": [],
      "stateMutability": "nonpayable",
      "type": "function"
    },
    {
      "inputs": [],
      "name": "givenAnyRunOutOfGas",
      "outputs": [],
      "stateMutability": "nonpayable",
      "type": "function"
    },
    {
      "inputs": [
        {
          "internalType": "bytes",
          "name": "call",
          "type": "bytes"
        },
        {
          "internalType": "bytes",
          "name": "response",
          "type": "bytes"
        }
      ],
      "name": "givenCalldataReturn",
      "outputs": [],
      "stateMutability": "nonpayable",
      "type": "function"
    },
    {
      "inputs": [
        {
          "internalType": "bytes",
          "name": "call",
          "type": "bytes"
        },
        {
          "internalType": "address",
          "name": "response",
          "type": "address"
        }
      ],
      "name": "givenCalldataReturnAddress",
      "outputs": [],
      "stateMutability": "nonpayable",
      "type": "function"
    },
    {
      "inputs": [
        {
          "internalType": "bytes",
          "name": "call",
          "type": "bytes"
        },
        {
          "internalType": "bool",
          "name": "response",
          "type": "bool"
        }
      ],
      "name": "givenCalldataReturnBool",
      "outputs": [],
      "stateMutability": "nonpayable",
      "type": "function"
    },
    {
      "inputs": [
        {
          "internalType": "bytes",
          "name": "call",
          "type": "bytes"
        },
        {
          "internalType": "uint256",
          "name": "response",
          "type": "uint256"
        }
      ],
      "name": "givenCalldataReturnUint",
      "outputs": [],
      "stateMutability": "nonpayable",
      "type": "function"
    },
    {
      "inputs": [
        {
          "internalType": "bytes",
          "name": "call",
          "type": "bytes"
        }
      ],
      "name": "givenCalldataRevert",
      "outputs": [],
      "stateMutability": "nonpayable",
      "type": "function"
    },
    {
      "inputs": [
        {
          "internalType": "bytes",
          "name": "call",
          "type": "bytes"
        },
        {
          "internalType": "string",
          "name": "message",
          "type": "string"
        }
      ],
      "name": "givenCalldataRevertWithMessage",
      "outputs": [],
      "stateMutability": "nonpayable",
      "type": "function"
    },
    {
      "inputs": [
        {
          "internalType": "bytes",
          "name": "call",
          "type": "bytes"
        }
      ],
      "name": "givenCalldataRunOutOfGas",
      "outputs": [],
      "stateMutability": "nonpayable",
      "type": "function"
    },
    {
      "inputs": [
        {
          "internalType": "bytes",
          "name": "call",
          "type": "bytes"
        },
        {
          "internalType": "bytes",
          "name": "response",
          "type": "bytes"
        }
      ],
      "name": "givenMethodReturn",
      "outputs": [],
      "stateMutability": "nonpayable",
      "type": "function"
    },
    {
      "inputs": [
        {
          "internalType": "bytes",
          "name": "call",
          "type": "bytes"
        },
        {
          "internalType": "address",
          "name": "response",
          "type": "address"
        }
      ],
      "name": "givenMethodReturnAddress",
      "outputs": [],
      "stateMutability": "nonpayable",
      "type": "function"
    },
    {
      "inputs": [
        {
          "internalType": "bytes",
          "name": "call",
          "type": "bytes"
        },
        {
          "internalType": "bool",
          "name": "response",
          "type": "bool"
        }
      ],
      "name": "givenMethodReturnBool",
      "outputs": [],
      "stateMutability": "nonpayable",
      "type": "function"
    },
    {
      "inputs": [
        {
          "internalType": "bytes",
          "name": "call",
          "type": "bytes"
        },
        {
          "internalType": "uint256",
          "name": "response",
          "type": "uint256"
        }
      ],
      "name": "givenMethodReturnUint",
      "outputs": [],
      "stateMutability": "nonpayable",
      "type": "function"
    },
    {
      "inputs": [
        {
          "internalType": "bytes",
          "name": "call",
          "type": "bytes"
        }
      ],
      "name": "givenMethodRevert",
      "outputs": [],
      "stateMutability": "nonpayable",
      "type": "function"
    },
    {
      "inputs": [
        {
          "internalType": "bytes",
          "name": "call",
          "type": "bytes"
        },
        {
          "internalType": "string",
          "name": "message",
          "type": "string"
        }
      ],
      "name": "givenMethodRevertWithMessage",
      "outputs": [],
      "stateMutability": "nonpayable",
      "type": "function"
    },
    {
      "inputs": [
        {
          "internalType": "bytes",
          "name": "call",
          "type": "bytes"
        }
      ],
      "name": "givenMethodRunOutOfGas",
      "outputs": [],
      "stateMutability": "nonpayable",
      "type": "function"
    },
    {
      "inputs": [],
      "name": "invocationCount",
      "outputs": [
        {
          "internalType": "uint256",
          "name": "",
          "type": "uint256"
        }
      ],
      "stateMutability": "nonpayable",
      "type": "function"
    },
    {
      "inputs": [
        {
          "internalType": "bytes",
          "name": "call",
          "type": "bytes"
        }
      ],
      "name": "invocationCountForCalldata",
      "outputs": [
        {
          "internalType": "uint256",
          "name": "",
          "type": "uint256"
        }
      ],
      "stateMutability": "nonpayable",
      "type": "function"
    },
    {
      "inputs": [
        {
          "internalType": "bytes",
          "name": "call",
          "type": "bytes"
        }
      ],
      "name": "invocationCountForMethod",
      "outputs": [
        {
          "internalType": "uint256",
          "name": "",
          "type": "uint256"
        }
      ],
      "stateMutability": "nonpayable",
      "type": "function"
    },
    {
      "inputs": [
        {
          "internalType": "address",
          "name": "_daemonize",
          "type": "address"
        }
      ],
      "name": "registerToDaemonize",
      "outputs": [],
      "stateMutability": "nonpayable",
      "type": "function"
    },
    {
      "inputs": [
        {
          "internalType": "uint256",
          "name": "_topupRequestWei",
          "type": "uint256"
        }
      ],
      "name": "requestMinting",
      "outputs": [],
      "stateMutability": "nonpayable",
      "type": "function"
    },
    {
      "inputs": [],
      "name": "reset",
      "outputs": [],
      "stateMutability": "nonpayable",
      "type": "function"
    },
    {
      "inputs": [],
      "name": "trigger",
      "outputs": [],
      "stateMutability": "nonpayable",
      "type": "function"
    },
    {
      "inputs": [
        {
          "internalType": "bytes4",
          "name": "methodId",
          "type": "bytes4"
        },
        {
          "internalType": "bytes",
          "name": "originalMsgData",
          "type": "bytes"
        }
      ],
      "name": "updateInvocationCount",
      "outputs": [],
      "stateMutability": "nonpayable",
      "type": "function"
    }
  ],
  "bytecode": "0x60806040526000604051602001808215158152602001915050604051602081830303815290604052600b90805190602001906200003e9291906200017e565b503480156200004c57600080fd5b506040518060400160405280600481526020017f30786666000000000000000000000000000000000000000000000000000000008152506000807f010000000000000000000000000000000000000000000000000000000000000081526020019081526020016000209080519060200190620000ca9291906200017e565b507f0100000000000000000000000000000000000000000000000000000000000000600560007f01000000000000000000000000000000000000000000000000000000000000007bffffffffffffffffffffffffffffffffffffffffffffffffffffffff19167bffffffffffffffffffffffffffffffffffffffffffffffffffffffff1916815260200190815260200160002060006101000a81548163ffffffff021916908360e01c021790555062000224565b828054600181600116156101000203166002900490600052602060002090601f016020900481019282601f10620001c157805160ff1916838001178555620001f2565b82800160010185558215620001f2579182015b82811115620001f1578251825591602001919060010190620001d4565b5b50905062000201919062000205565b5090565b5b808211156200022057600081600090555060010162000206565b5090565b6143a380620002346000396000f3fe6080604052600436106102295760003560e01c80637cd96ee411610123578063cf11ff5d116100ab578063e9de7d601161006f578063e9de7d6014611a2a578063eb861f6914611a65578063f07da22914611aeb578063f5afa9c114611b35578063f6abe97014611bc55761022a565b8063cf11ff5d14611840578063d6fe9778146118e6578063d73ca0ac1461196c578063d826f88f146119fc578063e211b8a514611a135761022a565b80639eaeed75116100f25780639eaeed7514611523578063aa788c55146115fe578063af21ac7814611684578063b3901f29146116bf578063c6ee167f146117655761022a565b80637cd96ee41461131b5780637fec8d38146113ab57806387abab65146113c25780639a1dc86b146114485761022a565b8063586984a4116101b1578063682b479711610175578063682b4797146110fc57806368ab6f2f1461114d5780636dbdce44146111d35780636e1623ad146112385780636f400756146112895761022a565b8063586984a414610dd957806358cbc02514610e735780635a3855ab14610f645780636193659414610ff657806367aad04a146110d15761022a565b80632ed238dc116101f85780632ed238dc14610c7c57806336ff0ee514610ca75780633956dc6b14610ce45780634283f10914610cfb5780634937c4f614610d3f5761022a565b80630a20119f14610b105780630dbe671f14610b3b578063122aea8114610b6657806321fed4d614610bf65761022a565b5b6000803590506001600281111561023d57fe5b6001600036604051808383808284378083019250505092505050908152602001604051809103902060009054906101000a900460ff16600281111561027e57fe5b141561036a57600360003660405180838380828437808301925050509250505090815260200160405180910390206040517f08c379a0000000000000000000000000000000000000000000000000000000008152600401808060200182810382528381815460018160011615610100020316600290048152602001915080546001816001161561010002031660029004801561035b5780601f106103305761010080835404028352916020019161035b565b820191906000526020600020905b81548152906001019060200180831161033e57829003601f168201915b50509250505060405180910390fd5b60028081111561037657fe5b6001600036604051808383808284378083019250505092505050908152602001604051809103902060009054906101000a900460ff1660028111156103b757fe5b14156103c6576103c5611c8f565b5b6060600260003660405180838380828437808301925050509250505090815260200160405180910390208054600181600116156101000203166002900480601f0160208091040260200160405190810160405280929190818152602001828054600181600116156101000203166002900480156104845780601f1061045957610100808354040283529160200191610484565b820191906000526020600020905b81548152906001019060200180831161046757829003601f168201915b5050505050905060008151141561079357600160028111156104a257fe5b60066000847bffffffffffffffffffffffffffffffffffffffffffffffffffffffff19167bffffffffffffffffffffffffffffffffffffffffffffffffffffffff1916815260200190815260200160002060009054906101000a900460ff16600281111561050c57fe5b14156106215760086000837bffffffffffffffffffffffffffffffffffffffffffffffffffffffff19167bffffffffffffffffffffffffffffffffffffffffffffffffffffffff191681526020019081526020016000206040517f08c379a000000000000000000000000000000000000000000000000000000000815260040180806020018281038252838181546001816001161561010002031660029004815260200191508054600181600116156101000203166002900480156106125780601f106105e757610100808354040283529160200191610612565b820191906000526020600020905b8154815290600101906020018083116105f557829003601f168201915b50509250505060405180910390fd5b60028081111561062d57fe5b60066000847bffffffffffffffffffffffffffffffffffffffffffffffffffffffff19167bffffffffffffffffffffffffffffffffffffffffffffffffffffffff1916815260200190815260200160002060009054906101000a900460ff16600281111561069757fe5b14156106a6576106a5611c8f565b5b60076000837bffffffffffffffffffffffffffffffffffffffffffffffffffffffff19167bffffffffffffffffffffffffffffffffffffffffffffffffffffffff191681526020019081526020016000208054600181600116156101000203166002900480601f01602080910402602001604051908101604052809291908181526020018280546001816001161561010002031660029004801561078b5780601f106107605761010080835404028352916020019161078b565b820191906000526020600020905b81548152906001019060200180831161076e57829003601f168201915b505050505090505b60008151141561095f57600160028111156107aa57fe5b600a60009054906101000a900460ff1660028111156107c557fe5b141561088b57600c6040517f08c379a0000000000000000000000000000000000000000000000000000000008152600401808060200182810382528381815460018160011615610100020316600290048152602001915080546001816001161561010002031660029004801561087c5780601f106108515761010080835404028352916020019161087c565b820191906000526020600020905b81548152906001019060200180831161085f57829003601f168201915b50509250505060405180910390fd5b60028081111561089757fe5b600a60009054906101000a900460ff1660028111156108b257fe5b14156108c1576108c0611c8f565b5b600b8054600181600116156101000203166002900480601f0160208091040260200160405190810160405280929190818152602001828054600181600116156101000203166002900480156109575780601f1061092c57610100808354040283529160200191610957565b820191906000526020600020905b81548152906001019060200180831161093a57829003601f168201915b505050505090505b60603073ffffffffffffffffffffffffffffffffffffffff16620186a08460003660405160240180847bffffffffffffffffffffffffffffffffffffffffffffffffffffffff19168152602001806020018281038252848482818152602001925080828437600081840152601f19601f8201169050808301925050509450505050506040516020818303038152906040527f58cbc025000000000000000000000000000000000000000000000000000000007bffffffffffffffffffffffffffffffffffffffffffffffffffffffff19166020820180517bffffffffffffffffffffffffffffffffffffffffffffffffffffffff83818316178352505050506040518082805190602001908083835b60208310610a915780518252602082019150602081019050602083039250610a6e565b6001836020036101000a03801982511681845116808217855250505050505090500191505060006040518083038160008787f1925050503d8060008114610af4576040519150601f19603f3d011682016040523d82523d6000602084013e610af9565b606091505b509150506000815114610b0857fe5b815182602001f35b348015610b1c57600080fd5b50610b25611cb4565b6040518082815260200191505060405180910390f35b348015610b4757600080fd5b50610b50611cbe565b6040518082815260200191505060405180910390f35b348015610b7257600080fd5b50610b7b611cc4565b6040518080602001828103825283818151815260200191508051906020019080838360005b83811015610bbb578082015181840152602081019050610ba0565b50505050905090810190601f168015610be85780820380516001836020036101000a031916815260200191505b509250505060405180910390f35b348015610c0257600080fd5b50610c7a60048036036020811015610c1957600080fd5b8101908080359060200190640100000000811115610c3657600080fd5b820183602082011115610c4857600080fd5b80359060200191846001830284011164010000000083111715610c6a57600080fd5b9091929391929390505050611cea565b005b348015610c8857600080fd5b50610c91611d84565b6040518082815260200191505060405180910390f35b348015610cb357600080fd5b50610ce260048036036020811015610cca57600080fd5b81019080803515159060200190929190505050611dc4565b005b348015610cf057600080fd5b50610cf9611def565b005b610d3d60048036036020811015610d1157600080fd5b81019080803573ffffffffffffffffffffffffffffffffffffffff169060200190929190505050611e15565b005b348015610d4b57600080fd5b50610dc360048036036020811015610d6257600080fd5b8101908080359060200190640100000000811115610d7f57600080fd5b820183602082011115610d9157600080fd5b80359060200191846001830284011164010000000083111715610db357600080fd5b9091929391929390505050611f64565b6040518082815260200191505060405180910390f35b348015610de557600080fd5b50610e5d60048036036020811015610dfc57600080fd5b8101908080359060200190640100000000811115610e1957600080fd5b820183602082011115610e2b57600080fd5b80359060200191846001830284011164010000000083111715610e4d57600080fd5b9091929391929390505050612022565b6040518082815260200191505060405180910390f35b348015610e7f57600080fd5b50610f6260048036036040811015610e9657600080fd5b8101908080357bffffffffffffffffffffffffffffffffffffffffffffffffffffffff1916906020019092919080359060200190640100000000811115610edc57600080fd5b820183602082011115610eee57600080fd5b80359060200191846001830284011164010000000083111715610f1057600080fd5b91908080601f016020809104026020016040519081016040528093929190818152602001838380828437600081840152601f19601f820116905080830192505050505050509192919290505050612079565b005b348015610f7057600080fd5b50610ff460048036036040811015610f8757600080fd5b8101908080359060200190640100000000811115610fa457600080fd5b820183602082011115610fb657600080fd5b80359060200191846001830284011164010000000083111715610fd857600080fd5b9091929391929390803515159060200190929190505050612220565b005b34801561100257600080fd5b506110cf6004803603604081101561101957600080fd5b810190808035906020019064010000000081111561103657600080fd5b82018360208201111561104857600080fd5b8035906020019184600183028401116401000000008311171561106a57600080fd5b90919293919293908035906020019064010000000081111561108b57600080fd5b82018360208201111561109d57600080fd5b803590602001918460018302840111640100000000831117156110bf57600080fd5b9091929391929390505050612292565b005b3480156110dd57600080fd5b506110e661232a565b6040518082815260200191505060405180910390f35b34801561110857600080fd5b5061114b6004803603602081101561111f57600080fd5b81019080803573ffffffffffffffffffffffffffffffffffffffff16906020019092919050505061234e565b005b34801561115957600080fd5b506111d16004803603602081101561117057600080fd5b810190808035906020019064010000000081111561118d57600080fd5b82018360208201111561119f57600080fd5b803590602001918460018302840111640100000000831117156111c157600080fd5b9091929391929390505050612378565b005b3480156111df57600080fd5b5061120c600480360360208110156111f657600080fd5b810190808035906020019092919050505061244a565b604051808273ffffffffffffffffffffffffffffffffffffffff16815260200191505060405180910390f35b34801561124457600080fd5b506112876004803603602081101561125b57600080fd5b81019080803573ffffffffffffffffffffffffffffffffffffffff169060200190929190505050612486565b005b34801561129557600080fd5b50611319600480360360408110156112ac57600080fd5b81019080803590602001906401000000008111156112c957600080fd5b8201836020820111156112db57600080fd5b803590602001918460018302840111640100000000831117156112fd57600080fd5b9091929391929390803515159060200190929190505050612583565b005b34801561132757600080fd5b506113306125f5565b6040518080602001828103825283818151815260200191508051906020019080838360005b83811015611370578082015181840152602081019050611355565b50505050905090810190601f16801561139d5780820380516001836020036101000a031916815260200191505b509250505060405180910390f35b3480156113b757600080fd5b506113c061262e565b005b3480156113ce57600080fd5b50611446600480360360208110156113e557600080fd5b810190808035906020019064010000000081111561140257600080fd5b82018360208201111561141457600080fd5b8035906020019184600183028401116401000000008311171561143657600080fd5b909192939192939050505061287f565b005b34801561145457600080fd5b506115216004803603604081101561146b57600080fd5b810190808035906020019064010000000081111561148857600080fd5b82018360208201111561149a57600080fd5b803590602001918460018302840111640100000000831117156114bc57600080fd5b9091929391929390803590602001906401000000008111156114dd57600080fd5b8201836020820111156114ef57600080fd5b8035906020019184600183028401116401000000008311171561151157600080fd5b90919293919293905050506128b9565b005b34801561152f57600080fd5b506115fc6004803603604081101561154657600080fd5b810190808035906020019064010000000081111561156357600080fd5b82018360208201111561157557600080fd5b8035906020019184600183028401116401000000008311171561159757600080fd5b9091929391929390803590602001906401000000008111156115b857600080fd5b8201836020820111156115ca57600080fd5b803590602001918460018302840111640100000000831117156115ec57600080fd5b90919293919293905050506129ee565b005b34801561160a57600080fd5b506116826004803603602081101561162157600080fd5b810190808035906020019064010000000081111561163e57600080fd5b82018360208201111561165057600080fd5b8035906020019184600183028401116401000000008311171561167257600080fd5b9091929391929390505050612ac0565b005b34801561169057600080fd5b506116bd600480360360208110156116a757600080fd5b8101908080359060200190929190505050612b92565b005b3480156116cb57600080fd5b50611763600480360360408110156116e257600080fd5b81019080803590602001906401000000008111156116ff57600080fd5b82018360208201111561171157600080fd5b8035906020019184600183028401116401000000008311171561173357600080fd5b9091929391929390803573ffffffffffffffffffffffffffffffffffffffff169060200190929190505050612ba6565b005b34801561177157600080fd5b5061183e6004803603604081101561178857600080fd5b81019080803590602001906401000000008111156117a557600080fd5b8201836020820111156117b757600080fd5b803590602001918460018302840111640100000000831117156117d957600080fd5b9091929391929390803590602001906401000000008111156117fa57600080fd5b82018360208201111561180c57600080fd5b8035906020019184600183028401116401000000008311171561182e57600080fd5b9091929391929390505050612c17565b005b34801561184c57600080fd5b506118e46004803603604081101561186357600080fd5b810190808035906020019064010000000081111561188057600080fd5b82018360208201111561189257600080fd5b803590602001918460018302840111640100000000831117156118b457600080fd5b9091929391929390803573ffffffffffffffffffffffffffffffffffffffff169060200190929190505050612caf565b005b3480156118f257600080fd5b5061196a6004803603602081101561190957600080fd5b810190808035906020019064010000000081111561192657600080fd5b82018360208201111561193857600080fd5b8035906020019184600183028401116401000000008311171561195a57600080fd5b9091929391929390505050612d20565b005b34801561197857600080fd5b506119fa6004803603604081101561198f57600080fd5b81019080803590602001906401000000008111156119ac57600080fd5b8201836020820111156119be57600080fd5b803590602001918460018302840111640100000000831117156119e057600080fd5b909192939192939080359060200190929190505050612d71565b005b348015611a0857600080fd5b50611a11612dcc565b005b348015611a1f57600080fd5b50611a28613649565b005b348015611a3657600080fd5b50611a6360048036036020811015611a4d57600080fd5b8101908080359060200190929190505050613695565b005b348015611a7157600080fd5b50611ae960048036036020811015611a8857600080fd5b8101908080359060200190640100000000811115611aa557600080fd5b820183602082011115611ab757600080fd5b80359060200191846001830284011164010000000083111715611ad957600080fd5b90919293919293905050506136aa565b005b348015611af757600080fd5b50611b0061378e565b60405180827bffffffffffffffffffffffffffffffffffffffffffffffffffffffff1916815260200191505060405180910390f35b348015611b4157600080fd5b50611bc360048036036040811015611b5857600080fd5b8101908080359060200190640100000000811115611b7557600080fd5b820183602082011115611b8757600080fd5b80359060200191846001830284011164010000000083111715611ba957600080fd5b9091929391929390803590602001909291905050506137b2565b005b348015611bd157600080fd5b50611c1460048036036020811015611be857600080fd5b81019080803573ffffffffffffffffffffffffffffffffffffffff16906020019092919050505061380d565b6040518080602001828103825283818151815260200191508051906020019080838360005b83811015611c54578082015181840152602081019050611c39565b50505050905090810190601f168015611c815780820380516001836020036101000a031916815260200191505b509250505060405180910390f35b5b600115611cb25760006060600060c060008060066107d05a03f1905050611c90565b565b6000600d54905090565b60105481565b600060405160200180821515815260200191505060405160208183030381529060405281565b600260018383604051808383808284378083019250505092505050908152602001604051809103902060006101000a81548160ff02191690836002811115611d2e57fe5b0217905550611d8082828080601f016020809104026020016040519081016040528093929190818152602001838380828437600081840152601f19601f82011690508083019250505050505050613965565b5050565b6040518060400160405280600481526020017f30786666000000000000000000000000000000000000000000000000000000008152508051906020012081565b600081611dd2576000611dd5565b60015b60ff169050611deb611de682613a50565b613aab565b5050565b6002600a60006101000a81548160ff02191690836002811115611e0e57fe5b0217905550565b60606040516024016040516020818303038152906040527fc611c2c5000000000000000000000000000000000000000000000000000000007bffffffffffffffffffffffffffffffffffffffffffffffffffffffff19166020820180517bffffffffffffffffffffffffffffffffffffffffffffffffffffffff8381831617835250505050905060008273ffffffffffffffffffffffffffffffffffffffff1634836040518082805190602001908083835b60208310611eea5780518252602082019150602081019050602083039250611ec7565b6001836020036101000a03801982511681845116808217855250505050505090500191505060006040518083038185875af1925050503d8060008114611f4c576040519150601f19603f3d011682016040523d82523d6000602084013e611f51565b606091505b5050905080611f5f57600080fd5b505050565b600080611fb484848080601f016020809104026020016040519081016040528093929190818152602001838380828437600081840152601f19601f82011690508083019250505050505050613ae9565b905060096000600e548360405160200180838152602001827bffffffffffffffffffffffffffffffffffffffffffffffffffffffff19168152600401925050506040516020818303038152906040528051906020012081526020019081526020016000205491505092915050565b600060046000600e5485856040516020018084815260200183838082843780830192505050935050505060405160208183030381529060405280519060200120815260200190815260200160002054905092915050565b3073ffffffffffffffffffffffffffffffffffffffff163373ffffffffffffffffffffffffffffffffffffffff16146120fd576040517f08c379a000000000000000000000000000000000000000000000000000000000815260040180806020018281038252602b815260200180614343602b913960400191505060405180910390fd5b6001600d60008282540192505081905550600160096000600e548560405160200180838152602001827bffffffffffffffffffffffffffffffffffffffffffffffffffffffff191681526004019250505060405160208183030381529060405280519060200120815260200190815260200160002060008282540192505081905550600160046000600e54846040516020018083815260200182805190602001908083835b602083106121c557805182526020820191506020810190506020830392506121a2565b6001836020036101000a03801982511681845116808217855250505050505090500192505050604051602081830303815290604052805190602001208152602001908152602001600020600082825401925050819055505050565b60008161222e576000612231565b60015b60ff16905061228c84848080601f016020809104026020016040519081016040528093929190818152602001838380828437600081840152601f19601f8201169050808301925050505050505061228783613a50565b613b77565b50505050565b61232484848080601f016020809104026020016040519081016040528093929190818152602001838380828437600081840152601f19601f8201169050808301925050505050505083838080601f016020809104026020016040519081016040528093929190818152602001838380828437600081840152601f19601f82011690508083019250505050505050613b77565b50505050565b7f010000000000000000000000000000000000000000000000000000000000000081565b6123756123708273ffffffffffffffffffffffffffffffffffffffff16613a50565b613aab565b50565b60006123c783838080601f016020809104026020016040519081016040528093929190818152602001838380828437600081840152601f19601f82011690508083019250505050505050613ae9565b9050600260066000837bffffffffffffffffffffffffffffffffffffffffffffffffffffffff19167bffffffffffffffffffffffffffffffffffffffffffffffffffffffff1916815260200190815260200160002060006101000a81548160ff0219169083600281111561243757fe5b021790555061244581613c8d565b505050565b600f818154811061245757fe5b906000526020600020016000915054906101000a900473ffffffffffffffffffffffffffffffffffffffff1681565b6000600f80549050905060005b8181101561251a57600f81815481106124a857fe5b9060005260206000200160009054906101000a900473ffffffffffffffffffffffffffffffffffffffff1673ffffffffffffffffffffffffffffffffffffffff168373ffffffffffffffffffffffffffffffffffffffff16141561250d575050612580565b8080600101915050612493565b50600f829080600181540180825580915050600190039060005260206000200160009091909190916101000a81548173ffffffffffffffffffffffffffffffffffffffff021916908373ffffffffffffffffffffffffffffffffffffffff160217905550505b50565b600081612591576000612594565b60015b60ff1690506125ef84848080601f016020809104026020016040519081016040528093929190818152602001838380828437600081840152601f19601f820116905080830192505050505050506125ea83613a50565b613e92565b50505050565b6040518060400160405280600481526020017f307866660000000000000000000000000000000000000000000000000000000081525081565b6000600f80549050905060005b8181101561287b5760606040516024016040516020818303038152906040527f6d0e8c34000000000000000000000000000000000000000000000000000000007bffffffffffffffffffffffffffffffffffffffffffffffffffffffff19166020820180517bffffffffffffffffffffffffffffffffffffffffffffffffffffffff8381831617835250505050905060006060600f84815481106126db57fe5b9060005260206000200160009054906101000a900473ffffffffffffffffffffffffffffffffffffffff1673ffffffffffffffffffffffffffffffffffffffff16836040518082805190602001908083835b60208310612750578051825260208201915060208101905060208303925061272d565b6001836020036101000a0380198251168184511680821785525050505050509050019150506000604051808303816000865af19150503d80600081146127b2576040519150601f19603f3d011682016040523d82523d6000602084013e6127b7565b606091505b50915091508161286b576127ca81613f86565b6040517f08c379a00000000000000000000000000000000000000000000000000000000081526004018080602001828103825283818151815260200191508051906020019080838360005b83811015612830578082015181840152602081019050612815565b50505050905090810190601f16801561285d5780820380516001836020036101000a031916815260200191505b509250505060405180910390fd5b505050808060010191505061263b565b5050565b6001600a60006101000a81548160ff0219169083600281111561289e57fe5b02179055508181600c91906128b492919061409e565b505050565b600061290885858080601f016020809104026020016040519081016040528093929190818152602001838380828437600081840152601f19601f82011690508083019250505050505050613ae9565b9050600160066000837bffffffffffffffffffffffffffffffffffffffffffffffffffffffff19167bffffffffffffffffffffffffffffffffffffffffffffffffffffffff1916815260200190815260200160002060006101000a81548160ff0219169083600281111561297857fe5b0217905550828260086000847bffffffffffffffffffffffffffffffffffffffffffffffffffffffff19167bffffffffffffffffffffffffffffffffffffffffffffffffffffffff1916815260200190815260200160002091906129dd92919061409e565b506129e781613c8d565b5050505050565b6001808585604051808383808284378083019250505092505050908152602001604051809103902060006101000a81548160ff02191690836002811115612a3157fe5b021790555081816003868660405180838380828437808301925050509250505090815260200160405180910390209190612a6c92919061409e565b50612aba84848080601f016020809104026020016040519081016040528093929190818152602001838380828437600081840152601f19601f82011690508083019250505050505050613965565b50505050565b6000612b0f83838080601f016020809104026020016040519081016040528093929190818152602001838380828437600081840152601f19601f82011690508083019250505050505050613ae9565b9050600160066000837bffffffffffffffffffffffffffffffffffffffffffffffffffffffff19167bffffffffffffffffffffffffffffffffffffffffffffffffffffffff1916815260200190815260200160002060006101000a81548160ff02191690836002811115612b7f57fe5b0217905550612b8d81613c8d565b505050565b612ba3612b9e82613a50565b613aab565b50565b612c1283838080601f016020809104026020016040519081016040528093929190818152602001838380828437600081840152601f19601f82011690508083019250505050505050612c0d8373ffffffffffffffffffffffffffffffffffffffff16613a50565b613b77565b505050565b612ca984848080601f016020809104026020016040519081016040528093929190818152602001838380828437600081840152601f19601f8201169050808301925050505050505083838080601f016020809104026020016040519081016040528093929190818152602001838380828437600081840152601f19601f82011690508083019250505050505050613e92565b50505050565b612d1b83838080601f016020809104026020016040519081016040528093929190818152602001838380828437600081840152601f19601f82011690508083019250505050505050612d168373ffffffffffffffffffffffffffffffffffffffff16613a50565b613e92565b505050565b612d6d82828080601f016020809104026020016040519081016040528093929190818152602001838380828437600081840152601f19601f82011690508083019250505050505050613aab565b5050565b612dc783838080601f016020809104026020016040519081016040528093929190818152602001838380828437600081840152601f19601f82011690508083019250505050505050612dc283613a50565b613b77565b505050565b60606000807f010000000000000000000000000000000000000000000000000000000000000081526020019081526020016000208054600181600116156101000203166002900480601f016020809104026020016040519081016040528092919081815260200182805460018160011615610100020316600290048015612e945780601f10612e6957610100808354040283529160200191612e94565b820191906000526020600020905b815481529060010190602001808311612e7757829003601f168201915b505050505090506000818051906020012090505b6040518060400160405280600481526020017f30786666000000000000000000000000000000000000000000000000000000008152508051906020012081146131825760006001836040518082805190602001908083835b60208310612f235780518252602082019150602081019050602083039250612f00565b6001836020036101000a038019825116818451168082178552505050505050905001915050908152602001604051809103902060006101000a81548160ff02191690836002811115612f7157fe5b0217905550604051806020016040528060008152506002836040518082805190602001908083835b60208310612fbc5780518252602082019150602081019050602083039250612f99565b6001836020036101000a0380198251168184511680821785525050505050509050019150509081526020016040518091039020908051906020019061300292919061411e565b50604051806020016040528060008152506003836040518082805190602001908083835b602083106130495780518252602082019150602081019050602083039250613026565b6001836020036101000a0380198251168184511680821785525050505050509050019150509081526020016040518091039020908051906020019061308f92919061419e565b506000808281526020019081526020016000208054600181600116156101000203166002900480601f0160208091040260200160405190810160405280929190818152602001828054600181600116156101000203166002900480156131365780601f1061310b57610100808354040283529160200191613136565b820191906000526020600020905b81548152906001019060200180831161311957829003601f168201915b5050505050915060405180602001604052806000815250600080838152602001908152602001600020908051906020019061317292919061411e565b5081805190602001209050612ea8565b6040518060400160405280600481526020017f30786666000000000000000000000000000000000000000000000000000000008152506000807f0100000000000000000000000000000000000000000000000000000000000000815260200190815260200160002090805190602001906131fd92919061421e565b506000600560007f01000000000000000000000000000000000000000000000000000000000000007bffffffffffffffffffffffffffffffffffffffffffffffffffffffff19167bffffffffffffffffffffffffffffffffffffffffffffffffffffffff1916815260200190815260200160002060009054906101000a900460e01b90505b7f01000000000000000000000000000000000000000000000000000000000000007bffffffffffffffffffffffffffffffffffffffffffffffffffffffff1916817bffffffffffffffffffffffffffffffffffffffffffffffffffffffff191614613521576000819050600060066000837bffffffffffffffffffffffffffffffffffffffffffffffffffffffff19167bffffffffffffffffffffffffffffffffffffffffffffffffffffffff1916815260200190815260200160002060006101000a81548160ff0219169083600281111561335a57fe5b02179055506040518060200160405280600081525060076000837bffffffffffffffffffffffffffffffffffffffffffffffffffffffff19167bffffffffffffffffffffffffffffffffffffffffffffffffffffffff1916815260200190815260200160002090805190602001906133d392919061411e565b506040518060200160405280600081525060086000837bffffffffffffffffffffffffffffffffffffffffffffffffffffffff19167bffffffffffffffffffffffffffffffffffffffffffffffffffffffff19168152602001908152602001600020908051906020019061344892919061419e565b5060056000827bffffffffffffffffffffffffffffffffffffffffffffffffffffffff19167bffffffffffffffffffffffffffffffffffffffffffffffffffffffff1916815260200190815260200160002060009054906101000a900460e01b9150600060e01b60056000837bffffffffffffffffffffffffffffffffffffffffffffffffffffffff19167bffffffffffffffffffffffffffffffffffffffffffffffffffffffff1916815260200190815260200160002060006101000a81548163ffffffff021916908360e01c021790555050613282565b7f0100000000000000000000000000000000000000000000000000000000000000600560007f01000000000000000000000000000000000000000000000000000000000000007bffffffffffffffffffffffffffffffffffffffffffffffffffffffff19167bffffffffffffffffffffffffffffffffffffffffffffffffffffffff1916815260200190815260200160002060006101000a81548163ffffffff021916908360e01c02179055506000604051602001808215158152602001915050604051602081830303815290604052600b908051906020019061360692919061421e565b506000600a60006101000a81548160ff0219169083600281111561362657fe5b02179055506000600d819055506001600e60008282540192505081905550505050565b6001600a60006101000a81548160ff0219169083600281111561366857fe5b021790555060405180602001604052806000815250600c908051906020019061369292919061419e565b50565b80810381816136a057fe5b0460108190555050565b6001808383604051808383808284378083019250505092505050908152602001604051809103902060006101000a81548160ff021916908360028111156136ed57fe5b021790555060405180602001604052806000815250600383836040518083838082843780830192505050925050509081526020016040518091039020908051906020019061373c92919061419e565b5061378a82828080601f016020809104026020016040519081016040528093929190818152602001838380828437600081840152601f19601f82011690508083019250505050505050613965565b5050565b7f010000000000000000000000000000000000000000000000000000000000000081565b61380883838080601f016020809104026020016040519081016040528093929190818152602001838380828437600081840152601f19601f8201169050808301925050505050505061380383613a50565b613e92565b505050565b6060806040516024016040516020818303038152906040527fe22fdece000000000000000000000000000000000000000000000000000000007bffffffffffffffffffffffffffffffffffffffffffffffffffffffff19166020820180517bffffffffffffffffffffffffffffffffffffffffffffffffffffffff83818316178352505050509050600060608473ffffffffffffffffffffffffffffffffffffffff16836040518082805190602001908083835b602083106138e457805182526020820191506020810190506020830392506138c1565b6001836020036101000a0380198251168184511680821785525050505050509050019150506000604051808303816000865af19150503d8060008114613946576040519150601f19603f3d011682016040523d82523d6000602084013e61394b565b606091505b50915091508161395a57600080fd5b809350505050919050565b60008180519060200120905060008060008381526020019081526020016000208054600181600116156101000203166002900490501415613a4c576000807f010000000000000000000000000000000000000000000000000000000000000081526020019081526020016000206000808381526020019081526020016000209080546001816001161561010002031660029004613a0392919061429e565b50816000807f010000000000000000000000000000000000000000000000000000000000000081526020019081526020016000209080519060200190613a4a92919061421e565b505b5050565b6060602067ffffffffffffffff81118015613a6a57600080fd5b506040519080825280601f01601f191660200182016040528015613a9d5781602001600182028036833780820191505090505b509050816020820152919050565b6000600a60006101000a81548160ff02191690836002811115613aca57fe5b021790555080600b9080519060200190613ae592919061421e565b5050565b60008060005b6004811015613b6d576008810260ff60f81b858381518110613b0d57fe5b602001015160f81c60f81b167effffffffffffffffffffffffffffffffffffffffffffffffffffffffffffff19167bffffffffffffffffffffffffffffffffffffffffffffffffffffffff1916901c821791508080600101915050613aef565b5080915050919050565b60006001836040518082805190602001908083835b60208310613baf5780518252602082019150602081019050602083039250613b8c565b6001836020036101000a038019825116818451168082178552505050505050905001915050908152602001604051809103902060006101000a81548160ff02191690836002811115613bfd57fe5b0217905550806002836040518082805190602001908083835b60208310613c395780518252602082019150602081019050602083039250613c16565b6001836020036101000a03801982511681845116808217855250505050505090500191505090815260200160405180910390209080519060200190613c7f92919061421e565b50613c8982613965565b5050565b600060e01b60056000837bffffffffffffffffffffffffffffffffffffffffffffffffffffffff19167bffffffffffffffffffffffffffffffffffffffffffffffffffffffff1916815260200190815260200160002060009054906101000a900460e01b7bffffffffffffffffffffffffffffffffffffffffffffffffffffffff19161415613e8f57600560007f01000000000000000000000000000000000000000000000000000000000000007bffffffffffffffffffffffffffffffffffffffffffffffffffffffff19167bffffffffffffffffffffffffffffffffffffffffffffffffffffffff1916815260200190815260200160002060009054906101000a900460e01b60056000837bffffffffffffffffffffffffffffffffffffffffffffffffffffffff19167bffffffffffffffffffffffffffffffffffffffffffffffffffffffff1916815260200190815260200160002060006101000a81548163ffffffff021916908360e01c021790555080600560007f01000000000000000000000000000000000000000000000000000000000000007bffffffffffffffffffffffffffffffffffffffffffffffffffffffff19167bffffffffffffffffffffffffffffffffffffffffffffffffffffffff1916815260200190815260200160002060006101000a81548163ffffffff021916908360e01c02179055505b50565b6000613e9d83613ae9565b9050600060066000837bffffffffffffffffffffffffffffffffffffffffffffffffffffffff19167bffffffffffffffffffffffffffffffffffffffffffffffffffffffff1916815260200190815260200160002060006101000a81548160ff02191690836002811115613f0d57fe5b02179055508160076000837bffffffffffffffffffffffffffffffffffffffffffffffffffffffff19167bffffffffffffffffffffffffffffffffffffffffffffffffffffffff191681526020019081526020016000209080519060200190613f7792919061421e565b50613f8181613c8d565b505050565b60606000825190506044811015613faf5760405180602001604052806000815250915050614099565b600060048401935083519050600482038452838060200190516020811015613fd657600080fd5b8101908080516040519392919084640100000000821115613ff657600080fd5b8382019150602082018581111561400c57600080fd5b825186600182028301116401000000008211171561402957600080fd5b8083526020830192505050908051906020019080838360005b8381101561405d578082015181840152602081019050614042565b50505050905090810190601f16801561408a5780820380516001836020036101000a031916815260200191505b50604052505050925080845250505b919050565b828054600181600116156101000203166002900490600052602060002090601f016020900481019282601f106140df57803560ff191683800117855561410d565b8280016001018555821561410d579182015b8281111561410c5782358255916020019190600101906140f1565b5b50905061411a9190614325565b5090565b828054600181600116156101000203166002900490600052602060002090601f016020900481019282601f1061415f57805160ff191683800117855561418d565b8280016001018555821561418d579182015b8281111561418c578251825591602001919060010190614171565b5b50905061419a9190614325565b5090565b828054600181600116156101000203166002900490600052602060002090601f016020900481019282601f106141df57805160ff191683800117855561420d565b8280016001018555821561420d579182015b8281111561420c5782518255916020019190600101906141f1565b5b50905061421a9190614325565b5090565b828054600181600116156101000203166002900490600052602060002090601f016020900481019282601f1061425f57805160ff191683800117855561428d565b8280016001018555821561428d579182015b8281111561428c578251825591602001919060010190614271565b5b50905061429a9190614325565b5090565b828054600181600116156101000203166002900490600052602060002090601f016020900481019282601f106142d75780548555614314565b8280016001018555821561431457600052602060002091601f016020900482015b828111156143135782548255916001019190600101906142f8565b5b5090506143219190614325565b5090565b5b8082111561433e576000816000905550600101614326565b509056fe43616e206f6e6c792062652063616c6c65642066726f6d2074686520636f6e747261637420697473656c66a2646970667358221220db434dc813b7bd61f8ecee6599e62da7547faaf9a6d7c2ac373a114fb99d988d64736f6c634300060c0033",
  "linkReferences": {},
  "deployedLinkReferences": {}
}