{
  "_format": "hh-sol-artifact-1",
  "contractName": "FtsoManagerV1Mock",
  "sourceName": "contracts/ftso/mock/FtsoManagerV1Mock.sol",
  "abi": [
    {
      "inputs": [
        {
          "internalType": "address",
          "name": "_governance",
          "type": "address"
        },
        {
          "internalType": "contract FlareDaemon",
          "name": "_flareDaemon",
          "type": "address"
        },
        {
          "internalType": "contract IIFtsoRegistry",
          "name": "_ftsoRegistry",
          "type": "address"
        },
        {
          "internalType": "contract IIVoterWhitelister",
          "name": "_voterWhitelister",
          "type": "address"
        },
        {
          "internalType": "uint256",
          "name": "_firstPriceEpochStartTs",
          "type": "uint256"
        },
        {
          "internalType": "uint256",
          "name": "_priceEpochDurationSeconds",
          "type": "uint256"
        },
        {
          "internalType": "uint256",
          "name": "_revealEpochDurationSeconds",
          "type": "uint256"
        },
        {
          "internalType": "uint256",
          "name": "_rewardEpochsStartTs",
          "type": "uint256"
        },
        {
          "internalType": "uint256",
          "name": "_rewardEpochDurationSeconds",
          "type": "uint256"
        }
      ],
      "stateMutability": "nonpayable",
      "type": "constructor"
    },
    {
      "anonymous": false,
      "inputs": [
        {
          "indexed": false,
          "internalType": "address",
          "name": "proposedGovernance",
          "type": "address"
        }
      ],
      "name": "GovernanceProposed",
      "type": "event"
    },
    {
      "anonymous": false,
      "inputs": [
        {
          "indexed": false,
          "internalType": "address",
          "name": "oldGovernance",
          "type": "address"
        },
        {
          "indexed": false,
          "internalType": "address",
          "name": "newGoveranance",
          "type": "address"
        }
      ],
      "name": "GovernanceUpdated",
      "type": "event"
    },
    {
      "inputs": [
        {
          "internalType": "contract IIFtso",
          "name": "_ftso",
          "type": "address"
        }
      ],
      "name": "addFtso",
      "outputs": [],
      "stateMutability": "nonpayable",
      "type": "function"
    },
    {
      "inputs": [],
      "name": "claimGovernance",
      "outputs": [],
      "stateMutability": "nonpayable",
      "type": "function"
    },
    {
      "inputs": [],
      "name": "daemonize",
      "outputs": [
        {
          "internalType": "bool",
          "name": "",
          "type": "bool"
        }
      ],
      "stateMutability": "nonpayable",
      "type": "function"
    },
    {
      "inputs": [],
      "name": "flareDaemon",
      "outputs": [
        {
          "internalType": "contract FlareDaemon",
          "name": "",
          "type": "address"
        }
      ],
      "stateMutability": "view",
      "type": "function"
    },
    {
      "inputs": [],
      "name": "getContractName",
      "outputs": [
        {
          "internalType": "string",
          "name": "",
          "type": "string"
        }
      ],
      "stateMutability": "pure",
      "type": "function"
    },
    {
      "inputs": [],
      "name": "getCurrentRewardEpoch",
      "outputs": [
        {
          "internalType": "uint256",
          "name": "",
          "type": "uint256"
        }
      ],
      "stateMutability": "view",
      "type": "function"
    },
    {
      "inputs": [],
      "name": "getPriceEpochConfiguration",
      "outputs": [
        {
          "internalType": "uint256",
          "name": "_firstPriceEpochStartTs",
          "type": "uint256"
        },
        {
          "internalType": "uint256",
          "name": "_priceEpochDurationSeconds",
          "type": "uint256"
        },
        {
          "internalType": "uint256",
          "name": "_revealEpochDurationSeconds",
          "type": "uint256"
        }
      ],
      "stateMutability": "view",
      "type": "function"
    },
    {
      "inputs": [],
      "name": "governance",
      "outputs": [
        {
          "internalType": "address",
          "name": "",
          "type": "address"
        }
      ],
      "stateMutability": "view",
      "type": "function"
    },
    {
      "inputs": [
        {
          "internalType": "address",
          "name": "_governance",
          "type": "address"
        }
      ],
      "name": "initialise",
      "outputs": [],
      "stateMutability": "nonpayable",
      "type": "function"
    },
    {
      "inputs": [
        {
          "internalType": "address",
          "name": "_governance",
          "type": "address"
        }
      ],
      "name": "proposeGovernance",
      "outputs": [],
      "stateMutability": "nonpayable",
      "type": "function"
    },
    {
      "inputs": [],
      "name": "proposedGovernance",
      "outputs": [
        {
          "internalType": "address",
          "name": "",
          "type": "address"
        }
      ],
      "stateMutability": "view",
      "type": "function"
    },
    {
      "inputs": [],
      "name": "rewardEpochDurationSeconds",
      "outputs": [
        {
          "internalType": "uint256",
          "name": "",
          "type": "uint256"
        }
      ],
      "stateMutability": "view",
      "type": "function"
    },
    {
      "inputs": [
        {
          "internalType": "uint256",
          "name": "",
          "type": "uint256"
        }
      ],
      "name": "rewardEpochs",
      "outputs": [
        {
          "internalType": "uint256",
          "name": "votepowerBlock",
          "type": "uint256"
        },
        {
          "internalType": "uint256",
          "name": "startBlock",
          "type": "uint256"
        },
        {
          "internalType": "uint256",
          "name": "startTimestamp",
          "type": "uint256"
        }
      ],
      "stateMutability": "view",
      "type": "function"
    },
    {
      "inputs": [],
      "name": "rewardEpochsStartTs",
      "outputs": [
        {
          "internalType": "uint256",
          "name": "",
          "type": "uint256"
        }
      ],
      "stateMutability": "view",
      "type": "function"
    },
    {
      "inputs": [],
      "name": "switchToFallbackMode",
      "outputs": [
        {
          "internalType": "bool",
          "name": "",
          "type": "bool"
        }
      ],
      "stateMutability": "view",
      "type": "function"
    },
    {
      "inputs": [
        {
          "internalType": "address",
          "name": "_governance",
          "type": "address"
        }
      ],
      "name": "transferGovernance",
      "outputs": [],
      "stateMutability": "nonpayable",
      "type": "function"
    }
  ],
  "bytecode": "0x6101406040523480156200001257600080fd5b506040516200124d3803806200124d83398101604081905262000035916200023d565b888881806001600160a01b038116156200005457620000548162000159565b506001600160a01b038116620000a4576040805162461bcd60e51b815260206004820152601060248201526f5f676f7665726e616e6365207a65726f60801b604482015290519081900360640190fd5b506001600160a01b038116620000f5576040805162461bcd60e51b8152602060048201526011602482015270666c617265206461656d6f6e207a65726f60781b604482015290519081900360640190fd5b60601b6001600160601b03191660805250600380546001600160a01b03199081166001600160a01b03998a161790915560048054909116969097169590951790955560a09290925260c05260e0526101008290526101205260055550620002f09050565b600154600160a01b900460ff1615620001b9576040805162461bcd60e51b815260206004820152601460248201527f696e697469616c6973656420213d2066616c7365000000000000000000000000604482015290519081900360640190fd5b6001805460ff60a01b1916600160a01b179055600054604080516001600160a01b039283168152918316602083015280517f434a2db650703b36c824e745330d6397cdaa9ee2cc891a4938ae853e1c50b68d9281900390910190a1600080546001600160a01b039092166001600160a01b0319928316179055600180549091169055565b60008060008060008060008060006101208a8c0312156200025c578485fd5b89516200026981620002d7565b60208b01519099506200027c81620002d7565b60408b01519098506200028f81620002d7565b60608b0151909750620002a281620002d7565b8096505060808a0151945060a08a0151935060c08a0151925060e08a015191506101008a015190509295985092959850929598565b6001600160a01b0381168114620002ed57600080fd5b50565b60805160601c60a05160c05160e0516101005161012051610ef26200035b6000398061086552806108905250806109b252508061024e528061048752508061022d528061046552508061020c5280610443525080610748528061098e5280610ae95250610ef26000f3fe608060405234801561001057600080fd5b50600436106101005760003560e01c8063a107753211610097578063d38bfff411610066578063d38bfff4146101d2578063e22fdece146101e5578063e7c830d4146101ed578063f5f5ba72146101f557610100565b8063a10775321461019c578063a578f55b146101a4578063a795f409146101ac578063c373a08e146101bf57610100565b806360f7ac97116100d357806360f7ac97146101575780636d0e8c341461015f57806385f3c9c9146101745780639d6a890f1461018957610100565b8063144e1591146101055780632663f1b4146101255780635aa6e6751461013a5780635d36b1901461014f575b600080fd5b61010d61020a565b60405161011c93929190610e3a565b60405180910390f35b610138610133366004610c64565b610272565b005b61014261065b565b60405161011c9190610d83565b61013861066a565b61014261072c565b61016761073b565b60405161011c9190610d97565b61017c61088e565b60405161011c9190610e31565b610138610197366004610c64565b6108b2565b61014261098c565b61017c6109b0565b61010d6101ba366004610d53565b6109d4565b6101386101cd366004610c64565b610a07565b6101386101e0366004610c64565b610a63565b610167610adc565b61017c610b55565b6101fd610b82565b60405161011c9190610da2565b7f00000000000000000000000000000000000000000000000000000000000000007f00000000000000000000000000000000000000000000000000000000000000007f0000000000000000000000000000000000000000000000000000000000000000909192565b61027a610bad565b6000816001600160a01b03166395d89b416040518163ffffffff1660e01b815260040160006040518083038186803b1580156102b557600080fd5b505afa1580156102c9573d6000803e3d6000fd5b505050506040513d6000823e601f3d908101601f191682016040526102f19190810190610d20565b6040516020016103019190610da2565b6040516020818303038152906040528051906020012090506000600360009054906101000a90046001600160a01b03166001600160a01b031663ce1c0e4d6040518163ffffffff1660e01b815260040160006040518083038186803b15801561036957600080fd5b505afa15801561037d573d6000803e3d6000fd5b505050506040513d6000823e601f3d908101601f191682016040526103a59190810190610c87565b80519091505b801561041f5780600190039050828282815181106103c557fe5b60200260200101516040516020016103dd9190610da2565b60405160208183030381529060405280519060200120141561041a5760405162461bcd60e51b815260040161041190610e0a565b60405180910390fd5b6103ab565b604051630bc29bcf60e21b81526001600160a01b03851690632f0a6f3c906104af907f0000000000000000000000000000000000000000000000000000000000000000907f0000000000000000000000000000000000000000000000000000000000000000907f000000000000000000000000000000000000000000000000000000000000000090600401610e3a565b600060405180830381600087803b1580156104c957600080fd5b505af11580156104dd573d6000803e3d6000fd5b505060025415915061056f905057600280546001600160a01b0386169163e536f39691600019810190811061050e57fe5b9060005260206000209060030201600001546040518263ffffffff1660e01b815260040161053c9190610e31565b600060405180830381600087803b15801561055657600080fd5b505af115801561056a573d6000803e3d6000fd5b505050505b600354604051630998fc6d60e21b81526000916001600160a01b031690632663f1b4906105a0908890600401610d83565b602060405180830381600087803b1580156105ba57600080fd5b505af11580156105ce573d6000803e3d6000fd5b505050506040513d601f19601f820116820180604052508101906105f29190610d6b565b60048054604051630d15c16960e21b81529293506001600160a01b03169163345705a49161062291859101610e31565b600060405180830381600087803b15801561063c57600080fd5b505af1158015610650573d6000803e3d6000fd5b505050505050505050565b6000546001600160a01b031681565b6001546001600160a01b031633146106b9576040805162461bcd60e51b815260206004820152600d60248201526c1b9bdd0818db185a5b585a5b9d609a1b604482015290519081900360640190fd5b600054600154604080516001600160a01b03938416815292909116602083015280517f434a2db650703b36c824e745330d6397cdaa9ee2cc891a4938ae853e1c50b68d9281900390910190a160018054600080546001600160a01b03199081166001600160a01b03841617909155169055565b6001546001600160a01b031681565b6000336001600160a01b037f000000000000000000000000000000000000000000000000000000000000000016146107ae576040805162461bcd60e51b815260206004820152601160248201527037b7363c90333630b932903230b2b6b7b760791b604482015290519081900360640190fd5b42600554116108885760408051606081018252436000198101825260208201908152429282019283526002805460018101825560009190915291517f405787fa12a823e0f2b7631cc41b3ba8828b3321ca811111fa75cd3aa3bb5ace600390930292830155517f405787fa12a823e0f2b7631cc41b3ba8828b3321ca811111fa75cd3aa3bb5acf82015590517f405787fa12a823e0f2b7631cc41b3ba8828b3321ca811111fa75cd3aa3bb5ad090910155600580547f00000000000000000000000000000000000000000000000000000000000000000190555b50600190565b7f000000000000000000000000000000000000000000000000000000000000000081565b600154600160a01b900460ff1615610908576040805162461bcd60e51b8152602060048201526014602482015273696e697469616c6973656420213d2066616c736560601b604482015290519081900360640190fd5b6001805460ff60a01b1916600160a01b179055600054604080516001600160a01b039283168152918316602083015280517f434a2db650703b36c824e745330d6397cdaa9ee2cc891a4938ae853e1c50b68d9281900390910190a1600080546001600160a01b039092166001600160a01b0319928316179055600180549091169055565b7f000000000000000000000000000000000000000000000000000000000000000081565b7f000000000000000000000000000000000000000000000000000000000000000081565b600281815481106109e457600080fd5b600091825260209091206003909102018054600182015460029092015490925083565b610a0f610bad565b600180546001600160a01b0383166001600160a01b0319909116811790915560408051918252517f1f95fb40be3a947982072902a887b521248d1d8931a39eb38f84f4d6fd758b699181900360200190a150565b610a6b610bad565b600054604080516001600160a01b039283168152918316602083015280517f434a2db650703b36c824e745330d6397cdaa9ee2cc891a4938ae853e1c50b68d9281900390910190a1600080546001600160a01b039092166001600160a01b0319928316179055600180549091169055565b6000336001600160a01b037f00000000000000000000000000000000000000000000000000000000000000001614610b4f576040805162461bcd60e51b815260206004820152601160248201527037b7363c90333630b932903230b2b6b7b760791b604482015290519081900360640190fd5b50600090565b600254600090610b775760405162461bcd60e51b815260040161041190610dd5565b506002546000190190565b6040805180820190915260118152704674736f4d616e6167657256314d6f636b60781b602082015290565b6000546001600160a01b03163314610bfe576040805162461bcd60e51b815260206004820152600f60248201526e6f6e6c7920676f7665726e616e636560881b604482015290519081900360640190fd5b565b600082601f830112610c10578081fd5b815167ffffffffffffffff811115610c2457fe5b610c37601f8201601f1916602001610e50565b818152846020838601011115610c4b578283fd5b610c5c826020830160208701610e74565b949350505050565b600060208284031215610c75578081fd5b8135610c8081610ea4565b9392505050565b60006020808385031215610c99578182fd5b825167ffffffffffffffff80821115610cb0578384fd5b818501915085601f830112610cc3578384fd5b815181811115610ccf57fe5b610cdc8485830201610e50565b8181528481019250838501865b83811015610d1257610d008a888451890101610c00565b85529386019390860190600101610ce9565b509098975050505050505050565b600060208284031215610d31578081fd5b815167ffffffffffffffff811115610d47578182fd5b610c5c84828501610c00565b600060208284031215610d64578081fd5b5035919050565b600060208284031215610d7c578081fd5b5051919050565b6001600160a01b0391909116815260200190565b901515815260200190565b6000602082528251806020840152610dc1816040850160208701610e74565b601f01601f19169190910160400192915050565b6020808252818101527f5265776172642065706f6368206e6f7420696e697469616c697a656420796574604082015260600190565b6020808252600d908201526c105b1c9958591e481859191959609a1b604082015260600190565b90815260200190565b9283526020830191909152604082015260600190565b60405181810167ffffffffffffffff81118282101715610e6c57fe5b604052919050565b60005b83811015610e8f578181015183820152602001610e77565b83811115610e9e576000848401525b50505050565b6001600160a01b0381168114610eb957600080fd5b5056fea264697066735822122014c84aac45abed8fe7beff4c7ce547815ebafe8108b62fcc4ca4115a7aa394b564736f6c63430007060033",
  "linkReferences": {},
  "deployedLinkReferences": {}
}