{
  "_format": "hh-sol-artifact-1",
  "contractName": "CloneFactoryMock",
  "sourceName": "contracts/personalDelegation/mock/CloneFactoryMock.sol",
  "abi": [
    {
      "inputs": [
        {
          "internalType": "address",
          "name": "target",
          "type": "address"
        },
        {
          "internalType": "address",
          "name": "query",
          "type": "address"
        }
      ],
      "name": "isClonePublic",
      "outputs": [
        {
          "internalType": "bool",
          "name": "",
          "type": "bool"
        }
      ],
      "stateMutability": "view",
      "type": "function"
    }
  ],
  "bytecode": "0x608060405234801561001057600080fd5b50610114806100206000396000f3fe6080604052348015600f57600080fd5b506004361060285760003560e01c8063d38a204614602d575b600080fd5b605860048036036040811015604157600080fd5b506001600160a01b0381358116916020013516606c565b604080519115158252519081900360200190f35b600060768383607d565b9392505050565b6000808360601b905060405169363d3d373d3d3d363d7360b01b815281600a8201526e5af43d82803e903d91602b57fd5bf360881b601e82015260408101602d600082873c600d810151600d8301511481518351141693505050509291505056fea26469706673582212205a23850c8f2af4578d21dba779e51fbb96b81bab8ee5b2b1cecba832d685d7a564736f6c63430007060033",
  "linkReferences": {},
  "deployedLinkReferences": {}
}