{
  "_format": "hh-sol-artifact-1",
  "contractName": "FtsoRegistry",
  "sourceName": "contracts/utils/implementation/FtsoRegistry.sol",
  "abi": [
    {
      "inputs": [
        {
          "internalType": "address",
          "name": "_governance",
          "type": "address"
        }
      ],
      "stateMutability": "nonpayable",
      "type": "constructor"
    },
    {
      "anonymous": false,
      "inputs": [
        {
          "indexed": false,
          "internalType": "address",
          "name": "proposedGovernance",
          "type": "address"
        }
      ],
      "name": "GovernanceProposed",
      "type": "event"
    },
    {
      "anonymous": false,
      "inputs": [
        {
          "indexed": false,
          "internalType": "address",
          "name": "oldGovernance",
          "type": "address"
        },
        {
          "indexed": false,
          "internalType": "address",
          "name": "newGoveranance",
          "type": "address"
        }
      ],
      "name": "GovernanceUpdated",
      "type": "event"
    },
    {
      "inputs": [
        {
          "internalType": "contract IIFtso",
          "name": "_ftsoContract",
          "type": "address"
        }
      ],
      "name": "addFtso",
      "outputs": [
        {
          "internalType": "uint256",
          "name": "_ftsoIndex",
          "type": "uint256"
        }
      ],
      "stateMutability": "nonpayable",
      "type": "function"
    },
    {
      "inputs": [],
      "name": "claimGovernance",
      "outputs": [],
      "stateMutability": "nonpayable",
      "type": "function"
    },
    {
      "inputs": [],
      "name": "getAllFtsos",
      "outputs": [
        {
          "internalType": "contract IIFtso[]",
          "name": "_ftsos",
          "type": "address[]"
        }
      ],
      "stateMutability": "view",
      "type": "function"
    },
    {
      "inputs": [
        {
          "internalType": "string",
          "name": "_symbol",
          "type": "string"
        }
      ],
      "name": "getCurrentPrice",
      "outputs": [
        {
          "internalType": "uint256",
          "name": "_price",
          "type": "uint256"
        },
        {
          "internalType": "uint256",
          "name": "_timestamp",
          "type": "uint256"
        }
      ],
      "stateMutability": "view",
      "type": "function"
    },
    {
      "inputs": [
        {
          "internalType": "uint256",
          "name": "_assetIndex",
          "type": "uint256"
        }
      ],
      "name": "getCurrentPrice",
      "outputs": [
        {
          "internalType": "uint256",
          "name": "_price",
          "type": "uint256"
        },
        {
          "internalType": "uint256",
          "name": "_timestamp",
          "type": "uint256"
        }
      ],
      "stateMutability": "view",
      "type": "function"
    },
    {
      "inputs": [
        {
          "internalType": "uint256",
          "name": "_assetIndex",
          "type": "uint256"
        }
      ],
      "name": "getFtso",
      "outputs": [
        {
          "internalType": "contract IIFtso",
          "name": "_activeFtso",
          "type": "address"
        }
      ],
      "stateMutability": "view",
      "type": "function"
    },
    {
      "inputs": [
        {
          "internalType": "string",
          "name": "_symbol",
          "type": "string"
        }
      ],
      "name": "getFtsoBySymbol",
      "outputs": [
        {
          "internalType": "contract IIFtso",
          "name": "_activeFtso",
          "type": "address"
        }
      ],
      "stateMutability": "view",
      "type": "function"
    },
    {
      "inputs": [
        {
          "internalType": "uint256",
          "name": "_assetIndex",
          "type": "uint256"
        }
      ],
      "name": "getFtsoHistory",
      "outputs": [
        {
          "internalType": "contract IIFtso[5]",
          "name": "_ftsoAddressHistory",
          "type": "address[5]"
        }
      ],
      "stateMutability": "view",
      "type": "function"
    },
    {
      "inputs": [
        {
          "internalType": "string",
          "name": "_symbol",
          "type": "string"
        }
      ],
      "name": "getFtsoIndex",
      "outputs": [
        {
          "internalType": "uint256",
          "name": "_assetIndex",
          "type": "uint256"
        }
      ],
      "stateMutability": "view",
      "type": "function"
    },
    {
      "inputs": [
        {
          "internalType": "uint256",
          "name": "_assetIndex",
          "type": "uint256"
        }
      ],
      "name": "getFtsoSymbol",
      "outputs": [
        {
          "internalType": "string",
          "name": "_symbol",
          "type": "string"
        }
      ],
      "stateMutability": "view",
      "type": "function"
    },
    {
      "inputs": [
        {
          "internalType": "uint256[]",
          "name": "_assetIndices",
          "type": "uint256[]"
        }
      ],
      "name": "getFtsos",
      "outputs": [
        {
          "internalType": "contract IFtsoGenesis[]",
          "name": "_ftsos",
          "type": "address[]"
        }
      ],
      "stateMutability": "view",
      "type": "function"
    },
    {
      "inputs": [],
      "name": "getSupportedFtsos",
      "outputs": [
        {
          "internalType": "contract IIFtso[]",
          "name": "_ftsos",
          "type": "address[]"
        }
      ],
      "stateMutability": "view",
      "type": "function"
    },
    {
      "inputs": [],
      "name": "getSupportedIndices",
      "outputs": [
        {
          "internalType": "uint256[]",
          "name": "_supportedIndices",
          "type": "uint256[]"
        }
      ],
      "stateMutability": "view",
      "type": "function"
    },
    {
      "inputs": [],
      "name": "getSupportedIndicesAndFtsos",
      "outputs": [
        {
          "internalType": "uint256[]",
          "name": "_supportedIndices",
          "type": "uint256[]"
        },
        {
          "internalType": "contract IIFtso[]",
          "name": "_ftsos",
          "type": "address[]"
        }
      ],
      "stateMutability": "view",
      "type": "function"
    },
    {
      "inputs": [],
      "name": "getSupportedIndicesAndSymbols",
      "outputs": [
        {
          "internalType": "uint256[]",
          "name": "_supportedIndices",
          "type": "uint256[]"
        },
        {
          "internalType": "string[]",
          "name": "_supportedSymbols",
          "type": "string[]"
        }
      ],
      "stateMutability": "view",
      "type": "function"
    },
    {
      "inputs": [],
      "name": "getSupportedIndicesSymbolsAndFtsos",
      "outputs": [
        {
          "internalType": "uint256[]",
          "name": "_supportedIndices",
          "type": "uint256[]"
        },
        {
          "internalType": "string[]",
          "name": "_supportedSymbols",
          "type": "string[]"
        },
        {
          "internalType": "contract IIFtso[]",
          "name": "_ftsos",
          "type": "address[]"
        }
      ],
      "stateMutability": "view",
      "type": "function"
    },
    {
      "inputs": [],
      "name": "getSupportedSymbols",
      "outputs": [
        {
          "internalType": "string[]",
          "name": "_supportedSymbols",
          "type": "string[]"
        }
      ],
      "stateMutability": "view",
      "type": "function"
    },
    {
      "inputs": [],
      "name": "getSupportedSymbolsAndFtsos",
      "outputs": [
        {
          "internalType": "string[]",
          "name": "_supportedSymbols",
          "type": "string[]"
        },
        {
          "internalType": "contract IIFtso[]",
          "name": "_ftsos",
          "type": "address[]"
        }
      ],
      "stateMutability": "view",
      "type": "function"
    },
    {
      "inputs": [],
      "name": "governance",
      "outputs": [
        {
          "internalType": "address",
          "name": "",
          "type": "address"
        }
      ],
      "stateMutability": "view",
      "type": "function"
    },
    {
      "inputs": [
        {
          "internalType": "address",
          "name": "_governance",
          "type": "address"
        }
      ],
      "name": "initialise",
      "outputs": [],
      "stateMutability": "nonpayable",
      "type": "function"
    },
    {
      "inputs": [
        {
          "internalType": "address",
          "name": "_governance",
          "type": "address"
        }
      ],
      "name": "proposeGovernance",
      "outputs": [],
      "stateMutability": "nonpayable",
      "type": "function"
    },
    {
      "inputs": [],
      "name": "proposedGovernance",
      "outputs": [
        {
          "internalType": "address",
          "name": "",
          "type": "address"
        }
      ],
      "stateMutability": "view",
      "type": "function"
    },
    {
      "inputs": [
        {
          "internalType": "contract IIFtso",
          "name": "_ftso",
          "type": "address"
        }
      ],
      "name": "removeFtso",
      "outputs": [],
      "stateMutability": "nonpayable",
      "type": "function"
    },
    {
      "inputs": [
        {
          "internalType": "contract IIFtsoManager",
          "name": "_ftsoManager",
          "type": "address"
        }
      ],
      "name": "setFtsoManagerAddress",
      "outputs": [],
      "stateMutability": "nonpayable",
      "type": "function"
    },
    {
      "inputs": [
        {
          "internalType": "address",
          "name": "_governance",
          "type": "address"
        }
      ],
      "name": "transferGovernance",
      "outputs": [],
      "stateMutability": "nonpayable",
      "type": "function"
    }
  ],
  "bytecode": "0x60806040523480156200001157600080fd5b506040516200231b3803806200231b83398101604081905262000034916200018d565b80806001600160a01b0381161562000051576200005181620000a9565b506001600160a01b038116620000a1576040805162461bcd60e51b815260206004820152601060248201526f5f676f7665726e616e6365207a65726f60801b604482015290519081900360640190fd5b5050620001bd565b600154600160a01b900460ff161562000109576040805162461bcd60e51b815260206004820152601460248201527f696e697469616c6973656420213d2066616c7365000000000000000000000000604482015290519081900360640190fd5b6001805460ff60a01b1916600160a01b179055600054604080516001600160a01b039283168152918316602083015280517f434a2db650703b36c824e745330d6397cdaa9ee2cc891a4938ae853e1c50b68d9281900390910190a1600080546001600160a01b039092166001600160a01b0319928316179055600180549091169055565b6000602082840312156200019f578081fd5b81516001600160a01b0381168114620001b6578182fd5b9392505050565b61214e80620001cd6000396000f3fe608060405234801561001057600080fd5b50600436106101735760003560e01c80639cb47538116100de578063c55d0f5611610097578063d38bfff411610071578063d38bfff414610345578063d75f6d8114610358578063e68f283b1461036b578063e848da301461038157610173565b8063c55d0f56146102fd578063c71a1b2014610310578063ce1c0e4d1461033057610173565b80639cb47538146102895780639d6a890f146102a9578063a40060ba146102bc578063a670ff87146102c4578063adf71fd8146102d7578063c373a08e146102ea57610173565b80635aa6e675116101305780635aa6e675146102235780635d36b1901461023857806360f7ac97146102425780637687542c1461024a578063798aac5b1461026157806397da6af41461027657610173565b806306a2ba29146101785780630cf4849714610197578063136d3f64146101ad5780632663f1b4146101cd5780632bcdd6ab146101ed57806342a0f24314610202575b600080fd5b610180610394565b60405161018e929190611fca565b60405180910390f35b61019f61046a565b60405161018e929190611f92565b6101c06101bb366004611da5565b61062f565b60405161018e9190612045565b6101e06101db366004611bf8565b6106b6565b60405161018e9190612058565b6101f5610923565b60405161018e9190611f6c565b610215610210366004611cbb565b6109df565b60405161018e929190612061565b61022b610a6b565b60405161018e9190611ed1565b610240610a7a565b005b61022b610b3c565b610252610b4b565b60405161018e93929190612002565b610269610d10565b60405161018e9190611fb7565b61022b610284366004611cbb565b610d1f565b61029c610297366004611c1b565b610d2d565b60405161018e9190611ee5565b6102406102b7366004611bf8565b610eb1565b6101f5610f8b565b6102406102d2366004611bf8565b611062565b6102406102e5366004611bf8565b6112d6565b6102406102f8366004611bf8565b611349565b61021561030b366004611da5565b6113ee565b61032361031e366004611da5565b6113fa565b60405161018e9190611f32565b6103386114e0565b60405161018e9190611f7f565b610240610353366004611bf8565b611617565b61022b610366366004611da5565b6116d9565b6103736116e4565b60405161018e929190611fdd565b6101e061038f366004611cbb565b61181a565b60608061039f611825565b8051909250806001600160401b03811180156103ba57600080fd5b506040519080825280602002602001820160405280156103e4578160200160208202803683370190505b5091505b80156104655780600190039050600283828151811061040357fe5b60200260200101518154811061041557fe5b600091825260208220600590910201015482516001600160a01b039091169083908390811061044057fe5b60200260200101906001600160a01b031690816001600160a01b0316815250506103e8565b509091565b6060806000610477611825565b8051909150806001600160401b038111801561049257600080fd5b506040519080825280602002602001820160405280156104bc578160200160208202803683370190505b509250806001600160401b03811180156104d557600080fd5b5060405190808252806020026020018201604052801561050957816020015b60608152602001906001900390816104f45790505b5093505b80156106295780600190039050600282828151811061052857fe5b60200260200101518154811061053a57fe5b600091825260208220600590910201015483516001600160a01b039091169084908390811061056557fe5b60200260200101906001600160a01b031690816001600160a01b03168152505082818151811061059157fe5b60200260200101516001600160a01b03166395d89b416040518163ffffffff1660e01b815260040160006040518083038186803b1580156105d157600080fd5b505afa1580156105e5573d6000803e3d6000fd5b505050506040513d6000823e601f3d908101601f1916820160405261060d9190810190611d33565b84828151811061061957fe5b602002602001018190525061050d565b50509091565b606061063a82611966565b6001600160a01b03166395d89b416040518163ffffffff1660e01b815260040160006040518083038186803b15801561067257600080fd5b505afa158015610686573d6000803e3d6000fd5b505050506040513d6000823e601f3d908101601f191682016040526106ae9190810190611d33565b90505b919050565b6003546040805180820190915260118152704654534f206d616e61676572206f6e6c7960781b60208201526000916001600160a01b031633146107155760405162461bcd60e51b815260040161070c9190612045565b60405180910390fd5b50600060028054905090506000836001600160a01b03166395d89b416040518163ffffffff1660e01b815260040160006040518083038186803b15801561075b57600080fd5b505afa15801561076f573d6000803e3d6000fd5b505050506040513d6000823e601f3d908101601f191682016040526107979190810190611d33565b90506000816040516020016107ac9190612045565b604051602081830303815290604052805190602001209050600093505b828410156108bc576000600285815481106107e057fe5b60009182526020822060059091020101546001600160a01b031690508061080757506108b1565b806001600160a01b03166395d89b416040518163ffffffff1660e01b815260040160006040518083038186803b15801561084057600080fd5b505afa158015610854573d6000803e3d6000fd5b505050506040513d6000823e601f3d908101601f1916820160405261087c9190810190611d33565b60405160200161088c9190612045565b604051602081830303815290604052805190602001208214156108af57506108bc565b505b6001909301926107c9565b828414156108d5576002805460010181556000526108de565b6108de84611a1d565b84600285815481106108ec57fe5b6000918252602082206005909102010180546001600160a01b0319166001600160a01b039290921691909117905550919392505050565b6002546060906000816001600160401b038111801561094157600080fd5b5060405190808252806020026020018201604052801561096b578160200160208202803683370190505b5090505b81156109d957816001900391506002828154811061098957fe5b600091825260208220600590910201015481516001600160a01b03909116908290849081106109b457fe5b60200260200101906001600160a01b031690816001600160a01b03168152505061096f565b91505090565b6000806109f36109ee84611ab0565b611966565b6001600160a01b031663eb91d37e6040518163ffffffff1660e01b8152600401604080518083038186803b158015610a2a57600080fd5b505afa158015610a3e573d6000803e3d6000fd5b505050506040513d601f19601f82011682018060405250810190610a629190611dbd565b91509150915091565b6000546001600160a01b031681565b6001546001600160a01b03163314610ac9576040805162461bcd60e51b815260206004820152600d60248201526c1b9bdd0818db185a5b585a5b9d609a1b604482015290519081900360640190fd5b600054600154604080516001600160a01b03938416815292909116602083015280517f434a2db650703b36c824e745330d6397cdaa9ee2cc891a4938ae853e1c50b68d9281900390910190a160018054600080546001600160a01b03199081166001600160a01b03841617909155169055565b6001546001600160a01b031681565b6060806060610b58611825565b8051909350806001600160401b0381118015610b7357600080fd5b50604051908082528060200260200182016040528015610b9d578160200160208202803683370190505b509150806001600160401b0381118015610bb657600080fd5b50604051908082528060200260200182016040528015610bea57816020015b6060815260200190600190039081610bd55790505b5092505b8015610d0a57806001900390506002848281518110610c0957fe5b602002602001015181548110610c1b57fe5b600091825260208220600590910201015482516001600160a01b0390911690839083908110610c4657fe5b60200260200101906001600160a01b031690816001600160a01b031681525050818181518110610c7257fe5b60200260200101516001600160a01b03166395d89b416040518163ffffffff1660e01b815260040160006040518083038186803b158015610cb257600080fd5b505afa158015610cc6573d6000803e3d6000fd5b505050506040513d6000823e601f3d908101601f19168201604052610cee9190810190611d33565b838281518110610cfa57fe5b6020026020010181905250610bee565b50909192565b6060610d1a611825565b905090565b60006106ae6109ee83611ab0565b600254815160609190806001600160401b0381118015610d4c57600080fd5b50604051908082528060200260200182016040528015610d76578160200160208202803683370190505b5092505b8015610eaa57806001900390506000848281518110610d9557fe5b602002602001015190508281106040518060400160405280601881526020016000805160206120f983398151915281525090610de45760405162461bcd60e51b815260040161070c9190612045565b5060028181548110610df257fe5b600091825260208220600590910201015484516001600160a01b0390911690859084908110610e1d57fe5b60200260200101906001600160a01b031690816001600160a01b03168152505060006001600160a01b0316848381518110610e5457fe5b60200260200101516001600160a01b03161415610ea457604080518082018252601881526000805160206120f98339815191526020820152905162461bcd60e51b815261070c9190600401612045565b50610d7a565b5050919050565b600154600160a01b900460ff1615610f07576040805162461bcd60e51b8152602060048201526014602482015273696e697469616c6973656420213d2066616c736560601b604482015290519081900360640190fd5b6001805460ff60a01b1916600160a01b179055600054604080516001600160a01b039283168152918316602083015280517f434a2db650703b36c824e745330d6397cdaa9ee2cc891a4938ae853e1c50b68d9281900390910190a1600080546001600160a01b039092166001600160a01b0319928316179055600180549091169055565b60606000610f97611825565b8051909150806001600160401b0381118015610fb257600080fd5b50604051908082528060200260200182016040528015610fdc578160200160208202803683370190505b5092505b801561105d57806001900390506002828281518110610ffb57fe5b60200260200101518154811061100d57fe5b600091825260208220600590910201015483516001600160a01b039091169084908390811061103857fe5b60200260200101906001600160a01b031690816001600160a01b031681525050610fe0565b505090565b6003546040805180820190915260118152704654534f206d616e61676572206f6e6c7960781b6020820152906001600160a01b031633146110b65760405162461bcd60e51b815260040161070c9190612045565b506000816001600160a01b03166395d89b416040518163ffffffff1660e01b815260040160006040518083038186803b1580156110f257600080fd5b505afa158015611106573d6000803e3d6000fd5b505050506040513d6000823e601f3d908101601f1916820160405261112e9190810190611d33565b60405160200161113e9190612045565b60408051601f19818403018152919052805160209091012060025490915060005b818110156112995760006002828154811061117657fe5b60009182526020822060059091020101546001600160a01b031690508061119d5750611291565b806001600160a01b03166395d89b416040518163ffffffff1660e01b815260040160006040518083038186803b1580156111d657600080fd5b505afa1580156111ea573d6000803e3d6000fd5b505050506040513d6000823e601f3d908101601f191682016040526112129190810190611d33565b6040516020016112229190612045565b6040516020818303038152906040528051906020012084141561128f5761124882611a1d565b60006002838154811061125757fe5b6000918252602082206005909102010180546001600160a01b0319166001600160a01b0392909216919091179055506112d392505050565b505b60010161115f565b50604080518082018252601881526000805160206120f98339815191526020820152905162461bcd60e51b815261070c9190600401612045565b50565b6000546001600160a01b03163314611327576040805162461bcd60e51b815260206004820152600f60248201526e6f6e6c7920676f7665726e616e636560881b604482015290519081900360640190fd5b600380546001600160a01b0319166001600160a01b0392909216919091179055565b6000546001600160a01b0316331461139a576040805162461bcd60e51b815260206004820152600f60248201526e6f6e6c7920676f7665726e616e636560881b604482015290519081900360640190fd5b600180546001600160a01b0383166001600160a01b0319909116811790915560408051918252517f1f95fb40be3a947982072902a887b521248d1d8931a39eb38f84f4d6fd758b699181900360200190a150565b6000806109f383611966565b611402611bda565b60025482108015611443575060006001600160a01b03166002838154811061142657fe5b60009182526020822060059091020101546001600160a01b031614155b6040518060400160405280601881526020016000805160206120f9833981519152815250906114855760405162461bcd60e51b815260040161070c9190612045565b506002828154811061149357fe5b600091825260209091206040805160a0810191829052926005908102909201919082845b81546001600160a01b031681526001909101906020018083116114b75750505050509050919050565b606060006114ec611825565b8051909150806001600160401b038111801561150757600080fd5b5060405190808252806020026020018201604052801561153b57816020015b60608152602001906001900390816115265790505b5092505b801561105d57806001900390506000600283838151811061155c57fe5b60200260200101518154811061156e57fe5b6000918252602082206005919091020154604080516395d89b4160e01b815290516001600160a01b03909216935083926395d89b4192600480840193829003018186803b1580156115be57600080fd5b505afa1580156115d2573d6000803e3d6000fd5b505050506040513d6000823e601f3d908101601f191682016040526115fa9190810190611d33565b84838151811061160657fe5b60200260200101819052505061153f565b6000546001600160a01b03163314611668576040805162461bcd60e51b815260206004820152600f60248201526e6f6e6c7920676f7665726e616e636560881b604482015290519081900360640190fd5b600054604080516001600160a01b039283168152918316602083015280517f434a2db650703b36c824e745330d6397cdaa9ee2cc891a4938ae853e1c50b68d9281900390910190a1600080546001600160a01b039092166001600160a01b0319928316179055600180549091169055565b60006106ae82611966565b6060806116ef611825565b8051909250806001600160401b038111801561170a57600080fd5b5060405190808252806020026020018201604052801561173e57816020015b60608152602001906001900390816117295790505b5091505b801561046557806001900390506000600284838151811061175f57fe5b60200260200101518154811061177157fe5b6000918252602082206005919091020154604080516395d89b4160e01b815290516001600160a01b03909216935083926395d89b4192600480840193829003018186803b1580156117c157600080fd5b505afa1580156117d5573d6000803e3d6000fd5b505050506040513d6000823e601f3d908101601f191682016040526117fd9190810190611d33565b83838151811061180957fe5b602002602001018190525050611742565b60006106ae82611ab0565b6002546060906000816001600160401b038111801561184357600080fd5b5060405190808252806020026020018201604052801561186d578160200160208202803683370190505b50905060008060005b848110156118dc57826001600160a01b03166002828154811061189557fe5b60009182526020822060059091020101546001600160a01b0316146118d457808483815181106118c157fe5b6020026020010181815250508160010191505b600101611876565b50806001600160401b03811180156118f357600080fd5b5060405190808252806020026020018201604052801561191d578160200160208202803683370190505b5094505b801561195f578060019003905082818151811061193a57fe5b602002602001015185828151811061194e57fe5b602002602001018181525050611921565b5050505090565b60025460408051808201909152601881526000805160206120f9833981519152602082015260009183106119ad5760405162461bcd60e51b815260040161070c9190612045565b506000600283815481106119bd57fe5b60009182526020822060059091020101546001600160a01b0316905080611a1757604080518082018252601881526000805160206120f98339815191526020820152905162461bcd60e51b815261070c9190600401612045565b92915050565b60045b8015611aac5760028281548110611a3357fe5b90600052602060002090600502016001820360058110611a4f57fe5b0154600280546001600160a01b039092169184908110611a6b57fe5b90600052602060002090600502018260058110611a8457fe5b0180546001600160a01b0319166001600160a01b039290921691909117905560001901611a20565b5050565b60008082604051602001611ac49190612045565b60408051601f19818403018152919052805160209091012060025490915060005b8181101561129957600060028281548110611afc57fe5b60009182526020822060059091020101546001600160a01b0316905080611b235750611bd2565b806001600160a01b03166395d89b416040518163ffffffff1660e01b815260040160006040518083038186803b158015611b5c57600080fd5b505afa158015611b70573d6000803e3d6000fd5b505050506040513d6000823e601f3d908101601f19168201604052611b989190810190611d33565b604051602001611ba89190612045565b60405160208183030381529060405280519060200120841415611bd0575092506106b1915050565b505b600101611ae5565b6040518060a001604052806005906020820280368337509192915050565b600060208284031215611c09578081fd5b8135611c14816120e3565b9392505050565b60006020808385031215611c2d578182fd5b82356001600160401b0380821115611c43578384fd5b818501915085601f830112611c56578384fd5b813581811115611c6257fe5b8381029150611c7284830161206f565b8181528481019084860184860187018a1015611c8c578788fd5b8795505b83861015611cae578035835260019590950194918601918601611c90565b5098975050505050505050565b600060208284031215611ccc578081fd5b81356001600160401b03811115611ce1578182fd5b8201601f81018413611cf1578182fd5b8035611d04611cff82612092565b61206f565b818152856020838501011115611d18578384fd5b81602084016020830137908101602001929092525092915050565b600060208284031215611d44578081fd5b81516001600160401b03811115611d59578182fd5b8201601f81018413611d69578182fd5b8051611d77611cff82612092565b818152856020838501011115611d8b578384fd5b611d9c8260208301602086016120b3565b95945050505050565b600060208284031215611db6578081fd5b5035919050565b60008060408385031215611dcf578081fd5b505080516020909101519092909150565b6000815180845260208085019450808401835b83811015611e185781516001600160a01b031687529582019590820190600101611df3565b509495945050505050565b6000815180845260208085018081965082840281019150828601855b85811015611e69578284038952611e57848351611ea5565b98850198935090840190600101611e3f565b5091979650505050505050565b6000815180845260208085019450808401835b83811015611e1857815187529582019590820190600101611e89565b60008151808452611ebd8160208601602086016120b3565b601f01601f19169290920160200192915050565b6001600160a01b0391909116815260200190565b6020808252825182820181905260009190848201906040850190845b81811015611f265783516001600160a01b031683529284019291840191600101611f01565b50909695505050505050565b60a08101818360005b6005811015611f635781516001600160a01b0316835260209283019290910190600101611f3b565b50505092915050565b600060208252611c146020830184611de0565b600060208252611c146020830184611e23565b600060408252611fa56040830185611e23565b8281036020840152611d9c8185611de0565b600060208252611c146020830184611e76565b600060408252611fa56040830185611e76565b600060408252611ff06040830185611e76565b8281036020840152611d9c8185611e23565b6000606082526120156060830186611e76565b82810360208401526120278186611e23565b9050828103604084015261203b8185611de0565b9695505050505050565b600060208252611c146020830184611ea5565b90815260200190565b918252602082015260400190565b6040518181016001600160401b038111828210171561208a57fe5b604052919050565b60006001600160401b038211156120a557fe5b50601f01601f191660200190565b60005b838110156120ce5781810151838201526020016120b6565b838111156120dd576000848401525b50505050565b6001600160a01b03811681146112d357600080fdfe4654534f20696e646578206e6f7420737570706f727465640000000000000000a26469706673582212205a1db9081afd88cddecb2e8bb47331155e9c7e68c38f5802cb7574bbac8c9ce164736f6c63430007060033",
  "linkReferences": {},
  "deployedLinkReferences": {}
}