{
  "_format": "hh-sol-artifact-1",
  "contractName": "FtsoRegistry",
  "sourceName": "contracts/utils/implementation/FtsoRegistry.sol",
  "abi": [
    {
      "inputs": [
        {
          "internalType": "address",
          "name": "_governance",
          "type": "address"
        },
        {
          "internalType": "address",
          "name": "_addressUpdater",
          "type": "address"
        }
      ],
      "stateMutability": "nonpayable",
      "type": "constructor"
    },
    {
      "anonymous": false,
      "inputs": [
        {
          "indexed": false,
          "internalType": "address",
          "name": "proposedGovernance",
          "type": "address"
        }
      ],
      "name": "GovernanceProposed",
      "type": "event"
    },
    {
      "anonymous": false,
      "inputs": [
        {
          "indexed": false,
          "internalType": "address",
          "name": "oldGovernance",
          "type": "address"
        },
        {
          "indexed": false,
          "internalType": "address",
          "name": "newGoveranance",
          "type": "address"
        }
      ],
      "name": "GovernanceUpdated",
      "type": "event"
    },
    {
      "inputs": [
        {
          "internalType": "contract IIFtso",
          "name": "_ftsoContract",
          "type": "address"
        }
      ],
      "name": "addFtso",
      "outputs": [
        {
          "internalType": "uint256",
          "name": "_ftsoIndex",
          "type": "uint256"
        }
      ],
      "stateMutability": "nonpayable",
      "type": "function"
    },
    {
      "inputs": [],
      "name": "claimGovernance",
      "outputs": [],
      "stateMutability": "nonpayable",
      "type": "function"
    },
    {
      "inputs": [],
      "name": "ftsoManager",
      "outputs": [
        {
          "internalType": "contract IIFtsoManager",
          "name": "",
          "type": "address"
        }
      ],
      "stateMutability": "view",
      "type": "function"
    },
    {
      "inputs": [],
      "name": "getAddressUpdater",
      "outputs": [
        {
          "internalType": "address",
          "name": "_addressUpdater",
          "type": "address"
        }
      ],
      "stateMutability": "view",
      "type": "function"
    },
    {
      "inputs": [],
      "name": "getAllFtsos",
      "outputs": [
        {
          "internalType": "contract IIFtso[]",
          "name": "_ftsos",
          "type": "address[]"
        }
      ],
      "stateMutability": "view",
      "type": "function"
    },
    {
      "inputs": [
        {
          "internalType": "string",
          "name": "_symbol",
          "type": "string"
        }
      ],
      "name": "getCurrentPrice",
      "outputs": [
        {
          "internalType": "uint256",
          "name": "_price",
          "type": "uint256"
        },
        {
          "internalType": "uint256",
          "name": "_timestamp",
          "type": "uint256"
        }
      ],
      "stateMutability": "view",
      "type": "function"
    },
    {
      "inputs": [
        {
          "internalType": "uint256",
          "name": "_assetIndex",
          "type": "uint256"
        }
      ],
      "name": "getCurrentPrice",
      "outputs": [
        {
          "internalType": "uint256",
          "name": "_price",
          "type": "uint256"
        },
        {
          "internalType": "uint256",
          "name": "_timestamp",
          "type": "uint256"
        }
      ],
      "stateMutability": "view",
      "type": "function"
    },
    {
      "inputs": [
        {
          "internalType": "uint256",
          "name": "_assetIndex",
          "type": "uint256"
        }
      ],
      "name": "getFtso",
      "outputs": [
        {
          "internalType": "contract IIFtso",
          "name": "_activeFtso",
          "type": "address"
        }
      ],
      "stateMutability": "view",
      "type": "function"
    },
    {
      "inputs": [
        {
          "internalType": "string",
          "name": "_symbol",
          "type": "string"
        }
      ],
      "name": "getFtsoBySymbol",
      "outputs": [
        {
          "internalType": "contract IIFtso",
          "name": "_activeFtso",
          "type": "address"
        }
      ],
      "stateMutability": "view",
      "type": "function"
    },
    {
      "inputs": [
        {
          "internalType": "uint256",
          "name": "_assetIndex",
          "type": "uint256"
        }
      ],
      "name": "getFtsoHistory",
      "outputs": [
        {
          "internalType": "contract IIFtso[5]",
          "name": "_ftsoAddressHistory",
          "type": "address[5]"
        }
      ],
      "stateMutability": "view",
      "type": "function"
    },
    {
      "inputs": [
        {
          "internalType": "string",
          "name": "_symbol",
          "type": "string"
        }
      ],
      "name": "getFtsoIndex",
      "outputs": [
        {
          "internalType": "uint256",
          "name": "_assetIndex",
          "type": "uint256"
        }
      ],
      "stateMutability": "view",
      "type": "function"
    },
    {
      "inputs": [
        {
          "internalType": "uint256",
          "name": "_assetIndex",
          "type": "uint256"
        }
      ],
      "name": "getFtsoSymbol",
      "outputs": [
        {
          "internalType": "string",
          "name": "_symbol",
          "type": "string"
        }
      ],
      "stateMutability": "view",
      "type": "function"
    },
    {
      "inputs": [
        {
          "internalType": "uint256[]",
          "name": "_assetIndices",
          "type": "uint256[]"
        }
      ],
      "name": "getFtsos",
      "outputs": [
        {
          "internalType": "contract IFtsoGenesis[]",
          "name": "_ftsos",
          "type": "address[]"
        }
      ],
      "stateMutability": "view",
      "type": "function"
    },
    {
      "inputs": [],
      "name": "getSupportedFtsos",
      "outputs": [
        {
          "internalType": "contract IIFtso[]",
          "name": "_ftsos",
          "type": "address[]"
        }
      ],
      "stateMutability": "view",
      "type": "function"
    },
    {
      "inputs": [],
      "name": "getSupportedIndices",
      "outputs": [
        {
          "internalType": "uint256[]",
          "name": "_supportedIndices",
          "type": "uint256[]"
        }
      ],
      "stateMutability": "view",
      "type": "function"
    },
    {
      "inputs": [],
      "name": "getSupportedIndicesAndFtsos",
      "outputs": [
        {
          "internalType": "uint256[]",
          "name": "_supportedIndices",
          "type": "uint256[]"
        },
        {
          "internalType": "contract IIFtso[]",
          "name": "_ftsos",
          "type": "address[]"
        }
      ],
      "stateMutability": "view",
      "type": "function"
    },
    {
      "inputs": [],
      "name": "getSupportedIndicesAndSymbols",
      "outputs": [
        {
          "internalType": "uint256[]",
          "name": "_supportedIndices",
          "type": "uint256[]"
        },
        {
          "internalType": "string[]",
          "name": "_supportedSymbols",
          "type": "string[]"
        }
      ],
      "stateMutability": "view",
      "type": "function"
    },
    {
      "inputs": [],
      "name": "getSupportedIndicesSymbolsAndFtsos",
      "outputs": [
        {
          "internalType": "uint256[]",
          "name": "_supportedIndices",
          "type": "uint256[]"
        },
        {
          "internalType": "string[]",
          "name": "_supportedSymbols",
          "type": "string[]"
        },
        {
          "internalType": "contract IIFtso[]",
          "name": "_ftsos",
          "type": "address[]"
        }
      ],
      "stateMutability": "view",
      "type": "function"
    },
    {
      "inputs": [],
      "name": "getSupportedSymbols",
      "outputs": [
        {
          "internalType": "string[]",
          "name": "_supportedSymbols",
          "type": "string[]"
        }
      ],
      "stateMutability": "view",
      "type": "function"
    },
    {
      "inputs": [],
      "name": "getSupportedSymbolsAndFtsos",
      "outputs": [
        {
          "internalType": "string[]",
          "name": "_supportedSymbols",
          "type": "string[]"
        },
        {
          "internalType": "contract IIFtso[]",
          "name": "_ftsos",
          "type": "address[]"
        }
      ],
      "stateMutability": "view",
      "type": "function"
    },
    {
      "inputs": [],
      "name": "governance",
      "outputs": [
        {
          "internalType": "address",
          "name": "",
          "type": "address"
        }
      ],
      "stateMutability": "view",
      "type": "function"
    },
    {
      "inputs": [
        {
          "internalType": "address",
          "name": "_governance",
          "type": "address"
        }
      ],
      "name": "initialise",
      "outputs": [],
      "stateMutability": "nonpayable",
      "type": "function"
    },
    {
      "inputs": [
        {
          "internalType": "address",
          "name": "_governance",
          "type": "address"
        }
      ],
      "name": "proposeGovernance",
      "outputs": [],
      "stateMutability": "nonpayable",
      "type": "function"
    },
    {
      "inputs": [],
      "name": "proposedGovernance",
      "outputs": [
        {
          "internalType": "address",
          "name": "",
          "type": "address"
        }
      ],
      "stateMutability": "view",
      "type": "function"
    },
    {
      "inputs": [
        {
          "internalType": "contract IIFtso",
          "name": "_ftso",
          "type": "address"
        }
      ],
      "name": "removeFtso",
      "outputs": [],
      "stateMutability": "nonpayable",
      "type": "function"
    },
    {
      "inputs": [
        {
          "internalType": "address",
          "name": "_governance",
          "type": "address"
        }
      ],
      "name": "transferGovernance",
      "outputs": [],
      "stateMutability": "nonpayable",
      "type": "function"
    },
    {
      "inputs": [
        {
          "internalType": "bytes32[]",
          "name": "_contractNameHashes",
          "type": "bytes32[]"
        },
        {
          "internalType": "address[]",
          "name": "_contractAddresses",
          "type": "address[]"
        }
      ],
      "name": "updateContractAddresses",
      "outputs": [],
      "stateMutability": "nonpayable",
      "type": "function"
    }
  ],
  "bytecode": "0x60806040523480156200001157600080fd5b506040516200269c3803806200269c8339810160408190526200003491620001dc565b8082806001600160a01b0381161562000052576200005281620000b7565b506001600160a01b038116620000a2576040805162461bcd60e51b815260206004820152601060248201526f5f676f7665726e616e6365207a65726f60801b604482015290519081900360640190fd5b50620000ae816200019b565b50505062000213565b600154600160a01b900460ff161562000117576040805162461bcd60e51b815260206004820152601460248201527f696e697469616c6973656420213d2066616c7365000000000000000000000000604482015290519081900360640190fd5b6001805460ff60a01b1916600160a01b179055600054604080516001600160a01b039283168152918316602083015280517f434a2db650703b36c824e745330d6397cdaa9ee2cc891a4938ae853e1c50b68d9281900390910190a1600080546001600160a01b039092166001600160a01b0319928316179055600180549091169055565b7f714f205b2abd25bef1d06a1af944e38c113fe6160375c4e1d6d5cf28848e771955565b80516001600160a01b0381168114620001d757600080fd5b919050565b60008060408385031215620001ef578182fd5b620001fa83620001bf565b91506200020a60208401620001bf565b90509250929050565b61247980620002236000396000f3fe608060405234801561001057600080fd5b50600436106101a95760003560e01c806397da6af4116100f9578063c55d0f5611610097578063d38bfff411610071578063d38bfff41461038b578063d75f6d811461039e578063e68f283b146103b1578063e848da30146103c7576101a9565b8063c55d0f5614610343578063c71a1b2014610356578063ce1c0e4d14610376576101a9565b8063a40060ba116100d3578063a40060ba14610302578063a670ff871461030a578063b00c0b761461031d578063c373a08e14610330576101a9565b806397da6af4146102bc5780639cb47538146102cf5780639d6a890f146102ef576101a9565b806342a0f243116101665780635d36b190116101405780635d36b1901461027e57806360f7ac97146102885780637687542c14610290578063798aac5b146102a7576101a9565b806342a0f2431461024d5780635267a15d1461026e5780635aa6e67514610276576101a9565b806306a2ba29146101ae5780630cf48497146101cd57806311a7aaaa146101e3578063136d3f64146101f85780632663f1b4146102185780632bcdd6ab14610238575b600080fd5b6101b66103da565b6040516101c49291906122d8565b60405180910390f35b6101d56104b0565b6040516101c49291906122a0565b6101eb610675565b6040516101c491906121df565b61020b6102063660046120c3565b610684565b6040516101c49190612353565b61022b610226366004611e7f565b61070b565b6040516101c49190612366565b610240610978565b6040516101c4919061227a565b61026061025b366004611fe7565b610a34565b6040516101c492919061236f565b6101eb610ac0565b6101eb610ae5565b610286610af4565b005b6101eb610bb6565b610298610bc5565b6040516101c493929190612310565b6102af610d8a565b6040516101c491906122c5565b6101eb6102ca366004611fe7565b610d99565b6102e26102dd366004611f58565b610da7565b6040516101c491906121f3565b6102866102fd366004611e7f565b610f2b565b610240611005565b610286610318366004611e7f565b6110dc565b61028661032b366004611ea2565b611350565b61028661033e366004611e7f565b6113fb565b6102606103513660046120c3565b611457565b6103696103643660046120c3565b611463565b6040516101c49190612240565b61037e611549565b6040516101c4919061228d565b610286610399366004611e7f565b611680565b6101eb6103ac3660046120c3565b6116f9565b6103b9611704565b6040516101c49291906122eb565b61022b6103d5366004611fe7565b61183a565b6060806103e5611845565b8051909250806001600160401b038111801561040057600080fd5b5060405190808252806020026020018201604052801561042a578160200160208202803683370190505b5091505b80156104ab5780600190039050600283828151811061044957fe5b60200260200101518154811061045b57fe5b600091825260208220600590910201015482516001600160a01b039091169083908390811061048657fe5b60200260200101906001600160a01b031690816001600160a01b03168152505061042e565b509091565b60608060006104bd611845565b8051909150806001600160401b03811180156104d857600080fd5b50604051908082528060200260200182016040528015610502578160200160208202803683370190505b509250806001600160401b038111801561051b57600080fd5b5060405190808252806020026020018201604052801561054f57816020015b606081526020019060019003908161053a5790505b5093505b801561066f5780600190039050600282828151811061056e57fe5b60200260200101518154811061058057fe5b600091825260208220600590910201015483516001600160a01b03909116908490839081106105ab57fe5b60200260200101906001600160a01b031690816001600160a01b0316815250508281815181106105d757fe5b60200260200101516001600160a01b03166395d89b416040518163ffffffff1660e01b815260040160006040518083038186803b15801561061757600080fd5b505afa15801561062b573d6000803e3d6000fd5b505050506040513d6000823e601f3d908101601f19168201604052610653919081019061205a565b84828151811061065f57fe5b6020026020010181905250610553565b50509091565b6003546001600160a01b031681565b606061068f82611986565b6001600160a01b03166395d89b416040518163ffffffff1660e01b815260040160006040518083038186803b1580156106c757600080fd5b505afa1580156106db573d6000803e3d6000fd5b505050506040513d6000823e601f3d908101601f19168201604052610703919081019061205a565b90505b919050565b6003546040805180820190915260118152704654534f206d616e61676572206f6e6c7960781b60208201526000916001600160a01b0316331461076a5760405162461bcd60e51b81526004016107619190612353565b60405180910390fd5b50600060028054905090506000836001600160a01b03166395d89b416040518163ffffffff1660e01b815260040160006040518083038186803b1580156107b057600080fd5b505afa1580156107c4573d6000803e3d6000fd5b505050506040513d6000823e601f3d908101601f191682016040526107ec919081019061205a565b90506000816040516020016108019190612353565b604051602081830303815290604052805190602001209050600093505b828410156109115760006002858154811061083557fe5b60009182526020822060059091020101546001600160a01b031690508061085c5750610906565b806001600160a01b03166395d89b416040518163ffffffff1660e01b815260040160006040518083038186803b15801561089557600080fd5b505afa1580156108a9573d6000803e3d6000fd5b505050506040513d6000823e601f3d908101601f191682016040526108d1919081019061205a565b6040516020016108e19190612353565b604051602081830303815290604052805190602001208214156109045750610911565b505b60019093019261081e565b8284141561092a57600280546001018155600052610933565b61093384611a3d565b846002858154811061094157fe5b6000918252602082206005909102010180546001600160a01b0319166001600160a01b039290921691909117905550919392505050565b6002546060906000816001600160401b038111801561099657600080fd5b506040519080825280602002602001820160405280156109c0578160200160208202803683370190505b5090505b8115610a2e5781600190039150600282815481106109de57fe5b600091825260208220600590910201015481516001600160a01b0390911690829084908110610a0957fe5b60200260200101906001600160a01b031690816001600160a01b0316815250506109c4565b91505090565b600080610a48610a4384611acc565b611986565b6001600160a01b031663eb91d37e6040518163ffffffff1660e01b8152600401604080518083038186803b158015610a7f57600080fd5b505afa158015610a93573d6000803e3d6000fd5b505050506040513d601f19601f82011682018060405250810190610ab791906120db565b91509150915091565b7f714f205b2abd25bef1d06a1af944e38c113fe6160375c4e1d6d5cf28848e77195490565b6000546001600160a01b031681565b6001546001600160a01b03163314610b43576040805162461bcd60e51b815260206004820152600d60248201526c1b9bdd0818db185a5b585a5b9d609a1b604482015290519081900360640190fd5b600054600154604080516001600160a01b03938416815292909116602083015280517f434a2db650703b36c824e745330d6397cdaa9ee2cc891a4938ae853e1c50b68d9281900390910190a160018054600080546001600160a01b03199081166001600160a01b03841617909155169055565b6001546001600160a01b031681565b6060806060610bd2611845565b8051909350806001600160401b0381118015610bed57600080fd5b50604051908082528060200260200182016040528015610c17578160200160208202803683370190505b509150806001600160401b0381118015610c3057600080fd5b50604051908082528060200260200182016040528015610c6457816020015b6060815260200190600190039081610c4f5790505b5092505b8015610d8457806001900390506002848281518110610c8357fe5b602002602001015181548110610c9557fe5b600091825260208220600590910201015482516001600160a01b0390911690839083908110610cc057fe5b60200260200101906001600160a01b031690816001600160a01b031681525050818181518110610cec57fe5b60200260200101516001600160a01b03166395d89b416040518163ffffffff1660e01b815260040160006040518083038186803b158015610d2c57600080fd5b505afa158015610d40573d6000803e3d6000fd5b505050506040513d6000823e601f3d908101601f19168201604052610d68919081019061205a565b838281518110610d7457fe5b6020026020010181905250610c68565b50909192565b6060610d94611845565b905090565b6000610703610a4383611acc565b600254815160609190806001600160401b0381118015610dc657600080fd5b50604051908082528060200260200182016040528015610df0578160200160208202803683370190505b5092505b8015610f2457806001900390506000848281518110610e0f57fe5b6020026020010151905082811060405180604001604052806018815260200160008051602061242483398151915281525090610e5e5760405162461bcd60e51b81526004016107619190612353565b5060028181548110610e6c57fe5b600091825260208220600590910201015484516001600160a01b0390911690859084908110610e9757fe5b60200260200101906001600160a01b031690816001600160a01b03168152505060006001600160a01b0316848381518110610ece57fe5b60200260200101516001600160a01b03161415610f1e57604080518082018252601881526000805160206124248339815191526020820152905162461bcd60e51b81526107619190600401612353565b50610df4565b5050919050565b600154600160a01b900460ff1615610f81576040805162461bcd60e51b8152602060048201526014602482015273696e697469616c6973656420213d2066616c736560601b604482015290519081900360640190fd5b6001805460ff60a01b1916600160a01b179055600054604080516001600160a01b039283168152918316602083015280517f434a2db650703b36c824e745330d6397cdaa9ee2cc891a4938ae853e1c50b68d9281900390910190a1600080546001600160a01b039092166001600160a01b0319928316179055600180549091169055565b60606000611011611845565b8051909150806001600160401b038111801561102c57600080fd5b50604051908082528060200260200182016040528015611056578160200160208202803683370190505b5092505b80156110d75780600190039050600282828151811061107557fe5b60200260200101518154811061108757fe5b600091825260208220600590910201015483516001600160a01b03909116908490839081106110b257fe5b60200260200101906001600160a01b031690816001600160a01b03168152505061105a565b505090565b6003546040805180820190915260118152704654534f206d616e61676572206f6e6c7960781b6020820152906001600160a01b031633146111305760405162461bcd60e51b81526004016107619190612353565b506000816001600160a01b03166395d89b416040518163ffffffff1660e01b815260040160006040518083038186803b15801561116c57600080fd5b505afa158015611180573d6000803e3d6000fd5b505050506040513d6000823e601f3d908101601f191682016040526111a8919081019061205a565b6040516020016111b89190612353565b60408051601f19818403018152919052805160209091012060025490915060005b81811015611313576000600282815481106111f057fe5b60009182526020822060059091020101546001600160a01b0316905080611217575061130b565b806001600160a01b03166395d89b416040518163ffffffff1660e01b815260040160006040518083038186803b15801561125057600080fd5b505afa158015611264573d6000803e3d6000fd5b505050506040513d6000823e601f3d908101601f1916820160405261128c919081019061205a565b60405160200161129c9190612353565b60405160208183030381529060405280519060200120841415611309576112c282611a3d565b6000600283815481106112d157fe5b6000918252602082206005909102010180546001600160a01b0319166001600160a01b03929092169190911790555061134d92505050565b505b6001016111d9565b50604080518082018252601881526000805160206124248339815191526020820152905162461bcd60e51b81526107619190600401612353565b50565b611358610ac0565b6001600160a01b0316336001600160a01b0316146113b4576040805162461bcd60e51b815260206004820152601460248201527337b7363c9030b2323932b9b9903ab83230ba32b960611b604482015290519081900360640190fd5b6113ed6113e883836040518060400160405280600e81526020016d20b2323932b9b9aab83230ba32b960911b815250611bf6565b611d23565b6113f78282611d47565b5050565b611403611d99565b600180546001600160a01b0383166001600160a01b0319909116811790915560408051918252517f1f95fb40be3a947982072902a887b521248d1d8931a39eb38f84f4d6fd758b699181900360200190a150565b600080610a4883611986565b61146b611dec565b600254821080156114ac575060006001600160a01b03166002838154811061148f57fe5b60009182526020822060059091020101546001600160a01b031614155b604051806040016040528060188152602001600080516020612424833981519152815250906114ee5760405162461bcd60e51b81526004016107619190612353565b50600282815481106114fc57fe5b600091825260209091206040805160a0810191829052926005908102909201919082845b81546001600160a01b031681526001909101906020018083116115205750505050509050919050565b60606000611555611845565b8051909150806001600160401b038111801561157057600080fd5b506040519080825280602002602001820160405280156115a457816020015b606081526020019060019003908161158f5790505b5092505b80156110d75780600190039050600060028383815181106115c557fe5b6020026020010151815481106115d757fe5b6000918252602082206005919091020154604080516395d89b4160e01b815290516001600160a01b03909216935083926395d89b4192600480840193829003018186803b15801561162757600080fd5b505afa15801561163b573d6000803e3d6000fd5b505050506040513d6000823e601f3d908101601f19168201604052611663919081019061205a565b84838151811061166f57fe5b6020026020010181905250506115a8565b611688611d99565b600054604080516001600160a01b039283168152918316602083015280517f434a2db650703b36c824e745330d6397cdaa9ee2cc891a4938ae853e1c50b68d9281900390910190a1600080546001600160a01b039092166001600160a01b0319928316179055600180549091169055565b600061070382611986565b60608061170f611845565b8051909250806001600160401b038111801561172a57600080fd5b5060405190808252806020026020018201604052801561175e57816020015b60608152602001906001900390816117495790505b5091505b80156104ab57806001900390506000600284838151811061177f57fe5b60200260200101518154811061179157fe5b6000918252602082206005919091020154604080516395d89b4160e01b815290516001600160a01b03909216935083926395d89b4192600480840193829003018186803b1580156117e157600080fd5b505afa1580156117f5573d6000803e3d6000fd5b505050506040513d6000823e601f3d908101601f1916820160405261181d919081019061205a565b83838151811061182957fe5b602002602001018190525050611762565b600061070382611acc565b6002546060906000816001600160401b038111801561186357600080fd5b5060405190808252806020026020018201604052801561188d578160200160208202803683370190505b50905060008060005b848110156118fc57826001600160a01b0316600282815481106118b557fe5b60009182526020822060059091020101546001600160a01b0316146118f457808483815181106118e157fe5b6020026020010181815250508160010191505b600101611896565b50806001600160401b038111801561191357600080fd5b5060405190808252806020026020018201604052801561193d578160200160208202803683370190505b5094505b801561197f578060019003905082818151811061195a57fe5b602002602001015185828151811061196e57fe5b602002602001018181525050611941565b5050505090565b6002546040805180820190915260188152600080516020612424833981519152602082015260009183106119cd5760405162461bcd60e51b81526004016107619190612353565b506000600283815481106119dd57fe5b60009182526020822060059091020101546001600160a01b0316905080611a3757604080518082018252601881526000805160206124248339815191526020820152905162461bcd60e51b81526107619190600401612353565b92915050565b60045b80156113f75760028281548110611a5357fe5b90600052602060002090600502016001820360058110611a6f57fe5b0154600280546001600160a01b039092169184908110611a8b57fe5b90600052602060002090600502018260058110611aa457fe5b0180546001600160a01b0319166001600160a01b039290921691909117905560001901611a40565b60008082604051602001611ae09190612353565b60408051601f19818403018152919052805160209091012060025490915060005b8181101561131357600060028281548110611b1857fe5b60009182526020822060059091020101546001600160a01b0316905080611b3f5750611bee565b806001600160a01b03166395d89b416040518163ffffffff1660e01b815260040160006040518083038186803b158015611b7857600080fd5b505afa158015611b8c573d6000803e3d6000fd5b505050506040513d6000823e601f3d908101601f19168201604052611bb4919081019061205a565b604051602001611bc49190612353565b60405160208183030381529060405280519060200120841415611bec57509250610706915050565b505b600101611b01565b600080826040516020018080602001828103825283818151815260200191508051906020019080838360005b83811015611c3a578181015183820152602001611c22565b50505050905090810190601f168015611c675780820380516001836020036101000a031916815260200191505b50925050506040516020818303038152906040528051906020012090506000805b8651811015611ccf57868181518110611c9d57fe5b6020026020010151831415611cc757858181518110611cb857fe5b60200260200101519150611ccf565b600101611c88565b506001600160a01b038116611d1a576040805162461bcd60e51b815260206004820152600c60248201526b61646472657373207a65726f60a01b604482015290519081900360640190fd5b95945050505050565b7f714f205b2abd25bef1d06a1af944e38c113fe6160375c4e1d6d5cf28848e771955565b611d7582826040518060400160405280600b81526020016a233a39b7a6b0b730b3b2b960a91b815250611bf6565b600380546001600160a01b0319166001600160a01b03929092169190911790555050565b6000546001600160a01b03163314611dea576040805162461bcd60e51b815260206004820152600f60248201526e6f6e6c7920676f7665726e616e636560881b604482015290519081900360640190fd5b565b6040518060a001604052806005906020820280368337509192915050565b600082601f830112611e1a578081fd5b81356020611e2f611e2a836123a0565b61237d565b8281528181019085830183850287018401881015611e4b578586fd5b855b85811015611e72578135611e608161240e565b84529284019290840190600101611e4d565b5090979650505050505050565b600060208284031215611e90578081fd5b8135611e9b8161240e565b9392505050565b60008060408385031215611eb4578081fd5b82356001600160401b0380821115611eca578283fd5b818501915085601f830112611edd578283fd5b81356020611eed611e2a836123a0565b82815281810190858301838502870184018b1015611f09578788fd5b8796505b84871015611f2b578035835260019690960195918301918301611f0d565b5096505086013592505080821115611f41578283fd5b50611f4e85828601611e0a565b9150509250929050565b60006020808385031215611f6a578182fd5b82356001600160401b03811115611f7f578283fd5b8301601f81018513611f8f578283fd5b8035611f9d611e2a826123a0565b8181528381019083850185840285018601891015611fb9578687fd5b8694505b83851015611fdb578035835260019490940193918501918501611fbd565b50979650505050505050565b600060208284031215611ff8578081fd5b81356001600160401b0381111561200d578182fd5b8201601f8101841361201d578182fd5b803561202b611e2a826123bd565b81815285602083850101111561203f578384fd5b81602084016020830137908101602001929092525092915050565b60006020828403121561206b578081fd5b81516001600160401b03811115612080578182fd5b8201601f81018413612090578182fd5b805161209e611e2a826123bd565b8181528560208385010111156120b2578384fd5b611d1a8260208301602086016123de565b6000602082840312156120d4578081fd5b5035919050565b600080604083850312156120ed578182fd5b505080516020909101519092909150565b6000815180845260208085019450808401835b838110156121365781516001600160a01b031687529582019590820190600101612111565b509495945050505050565b6000815180845260208085019450848183028601828601855b85811015611e725783830389526121728383516121b3565b9885019892509084019060010161215a565b6000815180845260208085019450808401835b8381101561213657815187529582019590820190600101612197565b600081518084526121cb8160208601602086016123de565b601f01601f19169290920160200192915050565b6001600160a01b0391909116815260200190565b6020808252825182820181905260009190848201906040850190845b818110156122345783516001600160a01b03168352928401929184019160010161220f565b50909695505050505050565b60a08101818360005b60058110156122715781516001600160a01b0316835260209283019290910190600101612249565b50505092915050565b600060208252611e9b60208301846120fe565b600060208252611e9b6020830184612141565b6000604082526122b36040830185612141565b8281036020840152611d1a81856120fe565b600060208252611e9b6020830184612184565b6000604082526122b36040830185612184565b6000604082526122fe6040830185612184565b8281036020840152611d1a8185612141565b6000606082526123236060830186612184565b82810360208401526123358186612141565b9050828103604084015261234981856120fe565b9695505050505050565b600060208252611e9b60208301846121b3565b90815260200190565b918252602082015260400190565b6040518181016001600160401b038111828210171561239857fe5b604052919050565b60006001600160401b038211156123b357fe5b5060209081020190565b60006001600160401b038211156123d057fe5b50601f01601f191660200190565b60005b838110156123f95781810151838201526020016123e1565b83811115612408576000848401525b50505050565b6001600160a01b038116811461134d57600080fdfe4654534f20696e646578206e6f7420737570706f727465640000000000000000a2646970667358221220888a337aa6216ad9b011a7c9b094392275be9413d45a048da5f4f8e2702c149364736f6c63430007060033",
  "linkReferences": {},
  "deployedLinkReferences": {}
}