{
  "_format": "hh-sol-artifact-1",
  "contractName": "FtsoRegistry",
  "sourceName": "contracts/utils/implementation/FtsoRegistry.sol",
  "abi": [
    {
      "inputs": [
        {
          "internalType": "address",
          "name": "_governance",
          "type": "address"
        }
      ],
      "stateMutability": "nonpayable",
      "type": "constructor"
    },
    {
      "anonymous": false,
      "inputs": [
        {
          "indexed": false,
          "internalType": "address",
          "name": "proposedGovernance",
          "type": "address"
        }
      ],
      "name": "GovernanceProposed",
      "type": "event"
    },
    {
      "anonymous": false,
      "inputs": [
        {
          "indexed": false,
          "internalType": "address",
          "name": "oldGovernance",
          "type": "address"
        },
        {
          "indexed": false,
          "internalType": "address",
          "name": "newGoveranance",
          "type": "address"
        }
      ],
      "name": "GovernanceUpdated",
      "type": "event"
    },
    {
      "inputs": [
        {
          "internalType": "contract IIFtso",
          "name": "_ftsoContract",
          "type": "address"
        }
      ],
      "name": "addFtso",
      "outputs": [
        {
          "internalType": "uint256",
          "name": "_ftsoIndex",
          "type": "uint256"
        }
      ],
      "stateMutability": "nonpayable",
      "type": "function"
    },
    {
      "inputs": [],
      "name": "claimGovernance",
      "outputs": [],
      "stateMutability": "nonpayable",
      "type": "function"
    },
    {
      "inputs": [],
      "name": "ftsoManager",
      "outputs": [
        {
          "internalType": "contract IIFtsoManager",
          "name": "",
          "type": "address"
        }
      ],
      "stateMutability": "view",
      "type": "function"
    },
    {
      "inputs": [],
      "name": "getAllFtsos",
      "outputs": [
        {
          "internalType": "contract IIFtso[]",
          "name": "_ftsos",
          "type": "address[]"
        }
      ],
      "stateMutability": "view",
      "type": "function"
    },
    {
      "inputs": [
        {
          "internalType": "string",
          "name": "_symbol",
          "type": "string"
        }
      ],
      "name": "getCurrentPrice",
      "outputs": [
        {
          "internalType": "uint256",
          "name": "_price",
          "type": "uint256"
        },
        {
          "internalType": "uint256",
          "name": "_timestamp",
          "type": "uint256"
        }
      ],
      "stateMutability": "view",
      "type": "function"
    },
    {
      "inputs": [
        {
          "internalType": "uint256",
          "name": "_assetIndex",
          "type": "uint256"
        }
      ],
      "name": "getCurrentPrice",
      "outputs": [
        {
          "internalType": "uint256",
          "name": "_price",
          "type": "uint256"
        },
        {
          "internalType": "uint256",
          "name": "_timestamp",
          "type": "uint256"
        }
      ],
      "stateMutability": "view",
      "type": "function"
    },
    {
      "inputs": [
        {
          "internalType": "uint256",
          "name": "_assetIndex",
          "type": "uint256"
        }
      ],
      "name": "getFtso",
      "outputs": [
        {
          "internalType": "contract IIFtso",
          "name": "_activeFtso",
          "type": "address"
        }
      ],
      "stateMutability": "view",
      "type": "function"
    },
    {
      "inputs": [
        {
          "internalType": "string",
          "name": "_symbol",
          "type": "string"
        }
      ],
      "name": "getFtsoBySymbol",
      "outputs": [
        {
          "internalType": "contract IIFtso",
          "name": "_activeFtso",
          "type": "address"
        }
      ],
      "stateMutability": "view",
      "type": "function"
    },
    {
      "inputs": [
        {
          "internalType": "uint256",
          "name": "_assetIndex",
          "type": "uint256"
        }
      ],
      "name": "getFtsoHistory",
      "outputs": [
        {
          "internalType": "contract IIFtso[5]",
          "name": "_ftsoAddressHistory",
          "type": "address[5]"
        }
      ],
      "stateMutability": "view",
      "type": "function"
    },
    {
      "inputs": [
        {
          "internalType": "string",
          "name": "_symbol",
          "type": "string"
        }
      ],
      "name": "getFtsoIndex",
      "outputs": [
        {
          "internalType": "uint256",
          "name": "_assetIndex",
          "type": "uint256"
        }
      ],
      "stateMutability": "view",
      "type": "function"
    },
    {
      "inputs": [
        {
          "internalType": "uint256",
          "name": "_assetIndex",
          "type": "uint256"
        }
      ],
      "name": "getFtsoSymbol",
      "outputs": [
        {
          "internalType": "string",
          "name": "_symbol",
          "type": "string"
        }
      ],
      "stateMutability": "view",
      "type": "function"
    },
    {
      "inputs": [
        {
          "internalType": "uint256[]",
          "name": "_assetIndices",
          "type": "uint256[]"
        }
      ],
      "name": "getFtsos",
      "outputs": [
        {
          "internalType": "contract IFtsoGenesis[]",
          "name": "_ftsos",
          "type": "address[]"
        }
      ],
      "stateMutability": "view",
      "type": "function"
    },
    {
      "inputs": [],
      "name": "getSupportedFtsos",
      "outputs": [
        {
          "internalType": "contract IIFtso[]",
          "name": "_ftsos",
          "type": "address[]"
        }
      ],
      "stateMutability": "view",
      "type": "function"
    },
    {
      "inputs": [],
      "name": "getSupportedIndices",
      "outputs": [
        {
          "internalType": "uint256[]",
          "name": "_supportedIndices",
          "type": "uint256[]"
        }
      ],
      "stateMutability": "view",
      "type": "function"
    },
    {
      "inputs": [],
      "name": "getSupportedIndicesAndFtsos",
      "outputs": [
        {
          "internalType": "uint256[]",
          "name": "_supportedIndices",
          "type": "uint256[]"
        },
        {
          "internalType": "contract IIFtso[]",
          "name": "_ftsos",
          "type": "address[]"
        }
      ],
      "stateMutability": "view",
      "type": "function"
    },
    {
      "inputs": [],
      "name": "getSupportedIndicesAndSymbols",
      "outputs": [
        {
          "internalType": "uint256[]",
          "name": "_supportedIndices",
          "type": "uint256[]"
        },
        {
          "internalType": "string[]",
          "name": "_supportedSymbols",
          "type": "string[]"
        }
      ],
      "stateMutability": "view",
      "type": "function"
    },
    {
      "inputs": [],
      "name": "getSupportedIndicesSymbolsAndFtsos",
      "outputs": [
        {
          "internalType": "uint256[]",
          "name": "_supportedIndices",
          "type": "uint256[]"
        },
        {
          "internalType": "string[]",
          "name": "_supportedSymbols",
          "type": "string[]"
        },
        {
          "internalType": "contract IIFtso[]",
          "name": "_ftsos",
          "type": "address[]"
        }
      ],
      "stateMutability": "view",
      "type": "function"
    },
    {
      "inputs": [],
      "name": "getSupportedSymbols",
      "outputs": [
        {
          "internalType": "string[]",
          "name": "_supportedSymbols",
          "type": "string[]"
        }
      ],
      "stateMutability": "view",
      "type": "function"
    },
    {
      "inputs": [],
      "name": "getSupportedSymbolsAndFtsos",
      "outputs": [
        {
          "internalType": "string[]",
          "name": "_supportedSymbols",
          "type": "string[]"
        },
        {
          "internalType": "contract IIFtso[]",
          "name": "_ftsos",
          "type": "address[]"
        }
      ],
      "stateMutability": "view",
      "type": "function"
    },
    {
      "inputs": [],
      "name": "governance",
      "outputs": [
        {
          "internalType": "address",
          "name": "",
          "type": "address"
        }
      ],
      "stateMutability": "view",
      "type": "function"
    },
    {
      "inputs": [
        {
          "internalType": "address",
          "name": "_governance",
          "type": "address"
        }
      ],
      "name": "initialise",
      "outputs": [],
      "stateMutability": "nonpayable",
      "type": "function"
    },
    {
      "inputs": [
        {
          "internalType": "address",
          "name": "_governance",
          "type": "address"
        }
      ],
      "name": "proposeGovernance",
      "outputs": [],
      "stateMutability": "nonpayable",
      "type": "function"
    },
    {
      "inputs": [],
      "name": "proposedGovernance",
      "outputs": [
        {
          "internalType": "address",
          "name": "",
          "type": "address"
        }
      ],
      "stateMutability": "view",
      "type": "function"
    },
    {
      "inputs": [
        {
          "internalType": "contract IIFtso",
          "name": "_ftso",
          "type": "address"
        }
      ],
      "name": "removeFtso",
      "outputs": [],
      "stateMutability": "nonpayable",
      "type": "function"
    },
    {
      "inputs": [
        {
          "internalType": "contract IIFtsoManager",
          "name": "_ftsoManager",
          "type": "address"
        }
      ],
      "name": "setFtsoManagerAddress",
      "outputs": [],
      "stateMutability": "nonpayable",
      "type": "function"
    },
    {
      "inputs": [
        {
          "internalType": "address",
          "name": "_governance",
          "type": "address"
        }
      ],
      "name": "transferGovernance",
      "outputs": [],
      "stateMutability": "nonpayable",
      "type": "function"
    }
  ],
  "bytecode": "0x60806040523480156200001157600080fd5b506040516200234d3803806200234d83398101604081905262000034916200018d565b80806001600160a01b0381161562000051576200005181620000a9565b506001600160a01b038116620000a1576040805162461bcd60e51b815260206004820152601060248201526f5f676f7665726e616e6365207a65726f60801b604482015290519081900360640190fd5b5050620001bd565b600154600160a01b900460ff161562000109576040805162461bcd60e51b815260206004820152601460248201527f696e697469616c6973656420213d2066616c7365000000000000000000000000604482015290519081900360640190fd5b6001805460ff60a01b1916600160a01b179055600054604080516001600160a01b039283168152918316602083015280517f434a2db650703b36c824e745330d6397cdaa9ee2cc891a4938ae853e1c50b68d9281900390910190a1600080546001600160a01b039092166001600160a01b0319928316179055600180549091169055565b6000602082840312156200019f578081fd5b81516001600160a01b0381168114620001b6578182fd5b9392505050565b61218080620001cd6000396000f3fe608060405234801561001057600080fd5b506004361061018e5760003560e01c80639cb47538116100de578063c55d0f5611610097578063d38bfff411610071578063d38bfff414610368578063d75f6d811461037b578063e68f283b1461038e578063e848da30146103a45761018e565b8063c55d0f5614610320578063c71a1b2014610333578063ce1c0e4d146103535761018e565b80639cb47538146102ac5780639d6a890f146102cc578063a40060ba146102df578063a670ff87146102e7578063adf71fd8146102fa578063c373a08e1461030d5761018e565b806342a0f2431161014b57806360f7ac971161012557806360f7ac97146102655780637687542c1461026d578063798aac5b1461028457806397da6af4146102995761018e565b806342a0f243146102325780635aa6e675146102535780635d36b1901461025b5761018e565b806306a2ba29146101935780630cf48497146101b257806311a7aaaa146101c8578063136d3f64146101dd5780632663f1b4146101fd5780632bcdd6ab1461021d575b600080fd5b61019b6103b7565b6040516101a9929190611ffc565b60405180910390f35b6101ba61048d565b6040516101a9929190611fc4565b6101d0610652565b6040516101a99190611f03565b6101f06101eb366004611dd7565b610661565b6040516101a99190612077565b61021061020b366004611c2a565b6106e8565b6040516101a9919061208a565b610225610955565b6040516101a99190611f9e565b610245610240366004611ced565b610a11565b6040516101a9929190612093565b6101d0610a9d565b610263610aac565b005b6101d0610b6e565b610275610b7d565b6040516101a993929190612034565b61028c610d42565b6040516101a99190611fe9565b6101d06102a7366004611ced565b610d51565b6102bf6102ba366004611c4d565b610d5f565b6040516101a99190611f17565b6102636102da366004611c2a565b610ee3565b610225610fbd565b6102636102f5366004611c2a565b611094565b610263610308366004611c2a565b611308565b61026361031b366004611c2a565b61137b565b61024561032e366004611dd7565b611420565b610346610341366004611dd7565b61142c565b6040516101a99190611f64565b61035b611512565b6040516101a99190611fb1565b610263610376366004611c2a565b611649565b6101d0610389366004611dd7565b61170b565b610396611716565b6040516101a992919061200f565b6102106103b2366004611ced565b61184c565b6060806103c2611857565b8051909250806001600160401b03811180156103dd57600080fd5b50604051908082528060200260200182016040528015610407578160200160208202803683370190505b5091505b80156104885780600190039050600283828151811061042657fe5b60200260200101518154811061043857fe5b600091825260208220600590910201015482516001600160a01b039091169083908390811061046357fe5b60200260200101906001600160a01b031690816001600160a01b03168152505061040b565b509091565b606080600061049a611857565b8051909150806001600160401b03811180156104b557600080fd5b506040519080825280602002602001820160405280156104df578160200160208202803683370190505b509250806001600160401b03811180156104f857600080fd5b5060405190808252806020026020018201604052801561052c57816020015b60608152602001906001900390816105175790505b5093505b801561064c5780600190039050600282828151811061054b57fe5b60200260200101518154811061055d57fe5b600091825260208220600590910201015483516001600160a01b039091169084908390811061058857fe5b60200260200101906001600160a01b031690816001600160a01b0316815250508281815181106105b457fe5b60200260200101516001600160a01b03166395d89b416040518163ffffffff1660e01b815260040160006040518083038186803b1580156105f457600080fd5b505afa158015610608573d6000803e3d6000fd5b505050506040513d6000823e601f3d908101601f191682016040526106309190810190611d65565b84828151811061063c57fe5b6020026020010181905250610530565b50509091565b6003546001600160a01b031681565b606061066c82611998565b6001600160a01b03166395d89b416040518163ffffffff1660e01b815260040160006040518083038186803b1580156106a457600080fd5b505afa1580156106b8573d6000803e3d6000fd5b505050506040513d6000823e601f3d908101601f191682016040526106e09190810190611d65565b90505b919050565b6003546040805180820190915260118152704654534f206d616e61676572206f6e6c7960781b60208201526000916001600160a01b031633146107475760405162461bcd60e51b815260040161073e9190612077565b60405180910390fd5b50600060028054905090506000836001600160a01b03166395d89b416040518163ffffffff1660e01b815260040160006040518083038186803b15801561078d57600080fd5b505afa1580156107a1573d6000803e3d6000fd5b505050506040513d6000823e601f3d908101601f191682016040526107c99190810190611d65565b90506000816040516020016107de9190612077565b604051602081830303815290604052805190602001209050600093505b828410156108ee5760006002858154811061081257fe5b60009182526020822060059091020101546001600160a01b031690508061083957506108e3565b806001600160a01b03166395d89b416040518163ffffffff1660e01b815260040160006040518083038186803b15801561087257600080fd5b505afa158015610886573d6000803e3d6000fd5b505050506040513d6000823e601f3d908101601f191682016040526108ae9190810190611d65565b6040516020016108be9190612077565b604051602081830303815290604052805190602001208214156108e157506108ee565b505b6001909301926107fb565b8284141561090757600280546001018155600052610910565b61091084611a4f565b846002858154811061091e57fe5b6000918252602082206005909102010180546001600160a01b0319166001600160a01b039290921691909117905550919392505050565b6002546060906000816001600160401b038111801561097357600080fd5b5060405190808252806020026020018201604052801561099d578160200160208202803683370190505b5090505b8115610a0b5781600190039150600282815481106109bb57fe5b600091825260208220600590910201015481516001600160a01b03909116908290849081106109e657fe5b60200260200101906001600160a01b031690816001600160a01b0316815250506109a1565b91505090565b600080610a25610a2084611ae2565b611998565b6001600160a01b031663eb91d37e6040518163ffffffff1660e01b8152600401604080518083038186803b158015610a5c57600080fd5b505afa158015610a70573d6000803e3d6000fd5b505050506040513d601f19601f82011682018060405250810190610a949190611def565b91509150915091565b6000546001600160a01b031681565b6001546001600160a01b03163314610afb576040805162461bcd60e51b815260206004820152600d60248201526c1b9bdd0818db185a5b585a5b9d609a1b604482015290519081900360640190fd5b600054600154604080516001600160a01b03938416815292909116602083015280517f434a2db650703b36c824e745330d6397cdaa9ee2cc891a4938ae853e1c50b68d9281900390910190a160018054600080546001600160a01b03199081166001600160a01b03841617909155169055565b6001546001600160a01b031681565b6060806060610b8a611857565b8051909350806001600160401b0381118015610ba557600080fd5b50604051908082528060200260200182016040528015610bcf578160200160208202803683370190505b509150806001600160401b0381118015610be857600080fd5b50604051908082528060200260200182016040528015610c1c57816020015b6060815260200190600190039081610c075790505b5092505b8015610d3c57806001900390506002848281518110610c3b57fe5b602002602001015181548110610c4d57fe5b600091825260208220600590910201015482516001600160a01b0390911690839083908110610c7857fe5b60200260200101906001600160a01b031690816001600160a01b031681525050818181518110610ca457fe5b60200260200101516001600160a01b03166395d89b416040518163ffffffff1660e01b815260040160006040518083038186803b158015610ce457600080fd5b505afa158015610cf8573d6000803e3d6000fd5b505050506040513d6000823e601f3d908101601f19168201604052610d209190810190611d65565b838281518110610d2c57fe5b6020026020010181905250610c20565b50909192565b6060610d4c611857565b905090565b60006106e0610a2083611ae2565b600254815160609190806001600160401b0381118015610d7e57600080fd5b50604051908082528060200260200182016040528015610da8578160200160208202803683370190505b5092505b8015610edc57806001900390506000848281518110610dc757fe5b6020026020010151905082811060405180604001604052806018815260200160008051602061212b83398151915281525090610e165760405162461bcd60e51b815260040161073e9190612077565b5060028181548110610e2457fe5b600091825260208220600590910201015484516001600160a01b0390911690859084908110610e4f57fe5b60200260200101906001600160a01b031690816001600160a01b03168152505060006001600160a01b0316848381518110610e8657fe5b60200260200101516001600160a01b03161415610ed6576040805180820182526018815260008051602061212b8339815191526020820152905162461bcd60e51b815261073e9190600401612077565b50610dac565b5050919050565b600154600160a01b900460ff1615610f39576040805162461bcd60e51b8152602060048201526014602482015273696e697469616c6973656420213d2066616c736560601b604482015290519081900360640190fd5b6001805460ff60a01b1916600160a01b179055600054604080516001600160a01b039283168152918316602083015280517f434a2db650703b36c824e745330d6397cdaa9ee2cc891a4938ae853e1c50b68d9281900390910190a1600080546001600160a01b039092166001600160a01b0319928316179055600180549091169055565b60606000610fc9611857565b8051909150806001600160401b0381118015610fe457600080fd5b5060405190808252806020026020018201604052801561100e578160200160208202803683370190505b5092505b801561108f5780600190039050600282828151811061102d57fe5b60200260200101518154811061103f57fe5b600091825260208220600590910201015483516001600160a01b039091169084908390811061106a57fe5b60200260200101906001600160a01b031690816001600160a01b031681525050611012565b505090565b6003546040805180820190915260118152704654534f206d616e61676572206f6e6c7960781b6020820152906001600160a01b031633146110e85760405162461bcd60e51b815260040161073e9190612077565b506000816001600160a01b03166395d89b416040518163ffffffff1660e01b815260040160006040518083038186803b15801561112457600080fd5b505afa158015611138573d6000803e3d6000fd5b505050506040513d6000823e601f3d908101601f191682016040526111609190810190611d65565b6040516020016111709190612077565b60408051601f19818403018152919052805160209091012060025490915060005b818110156112cb576000600282815481106111a857fe5b60009182526020822060059091020101546001600160a01b03169050806111cf57506112c3565b806001600160a01b03166395d89b416040518163ffffffff1660e01b815260040160006040518083038186803b15801561120857600080fd5b505afa15801561121c573d6000803e3d6000fd5b505050506040513d6000823e601f3d908101601f191682016040526112449190810190611d65565b6040516020016112549190612077565b604051602081830303815290604052805190602001208414156112c15761127a82611a4f565b60006002838154811061128957fe5b6000918252602082206005909102010180546001600160a01b0319166001600160a01b03929092169190911790555061130592505050565b505b600101611191565b506040805180820182526018815260008051602061212b8339815191526020820152905162461bcd60e51b815261073e9190600401612077565b50565b6000546001600160a01b03163314611359576040805162461bcd60e51b815260206004820152600f60248201526e6f6e6c7920676f7665726e616e636560881b604482015290519081900360640190fd5b600380546001600160a01b0319166001600160a01b0392909216919091179055565b6000546001600160a01b031633146113cc576040805162461bcd60e51b815260206004820152600f60248201526e6f6e6c7920676f7665726e616e636560881b604482015290519081900360640190fd5b600180546001600160a01b0383166001600160a01b0319909116811790915560408051918252517f1f95fb40be3a947982072902a887b521248d1d8931a39eb38f84f4d6fd758b699181900360200190a150565b600080610a2583611998565b611434611c0c565b60025482108015611475575060006001600160a01b03166002838154811061145857fe5b60009182526020822060059091020101546001600160a01b031614155b60405180604001604052806018815260200160008051602061212b833981519152815250906114b75760405162461bcd60e51b815260040161073e9190612077565b50600282815481106114c557fe5b600091825260209091206040805160a0810191829052926005908102909201919082845b81546001600160a01b031681526001909101906020018083116114e95750505050509050919050565b6060600061151e611857565b8051909150806001600160401b038111801561153957600080fd5b5060405190808252806020026020018201604052801561156d57816020015b60608152602001906001900390816115585790505b5092505b801561108f57806001900390506000600283838151811061158e57fe5b6020026020010151815481106115a057fe5b6000918252602082206005919091020154604080516395d89b4160e01b815290516001600160a01b03909216935083926395d89b4192600480840193829003018186803b1580156115f057600080fd5b505afa158015611604573d6000803e3d6000fd5b505050506040513d6000823e601f3d908101601f1916820160405261162c9190810190611d65565b84838151811061163857fe5b602002602001018190525050611571565b6000546001600160a01b0316331461169a576040805162461bcd60e51b815260206004820152600f60248201526e6f6e6c7920676f7665726e616e636560881b604482015290519081900360640190fd5b600054604080516001600160a01b039283168152918316602083015280517f434a2db650703b36c824e745330d6397cdaa9ee2cc891a4938ae853e1c50b68d9281900390910190a1600080546001600160a01b039092166001600160a01b0319928316179055600180549091169055565b60006106e082611998565b606080611721611857565b8051909250806001600160401b038111801561173c57600080fd5b5060405190808252806020026020018201604052801561177057816020015b606081526020019060019003908161175b5790505b5091505b801561048857806001900390506000600284838151811061179157fe5b6020026020010151815481106117a357fe5b6000918252602082206005919091020154604080516395d89b4160e01b815290516001600160a01b03909216935083926395d89b4192600480840193829003018186803b1580156117f357600080fd5b505afa158015611807573d6000803e3d6000fd5b505050506040513d6000823e601f3d908101601f1916820160405261182f9190810190611d65565b83838151811061183b57fe5b602002602001018190525050611774565b60006106e082611ae2565b6002546060906000816001600160401b038111801561187557600080fd5b5060405190808252806020026020018201604052801561189f578160200160208202803683370190505b50905060008060005b8481101561190e57826001600160a01b0316600282815481106118c757fe5b60009182526020822060059091020101546001600160a01b03161461190657808483815181106118f357fe5b6020026020010181815250508160010191505b6001016118a8565b50806001600160401b038111801561192557600080fd5b5060405190808252806020026020018201604052801561194f578160200160208202803683370190505b5094505b8015611991578060019003905082818151811061196c57fe5b602002602001015185828151811061198057fe5b602002602001018181525050611953565b5050505090565b600254604080518082019091526018815260008051602061212b833981519152602082015260009183106119df5760405162461bcd60e51b815260040161073e9190612077565b506000600283815481106119ef57fe5b60009182526020822060059091020101546001600160a01b0316905080611a49576040805180820182526018815260008051602061212b8339815191526020820152905162461bcd60e51b815261073e9190600401612077565b92915050565b60045b8015611ade5760028281548110611a6557fe5b90600052602060002090600502016001820360058110611a8157fe5b0154600280546001600160a01b039092169184908110611a9d57fe5b90600052602060002090600502018260058110611ab657fe5b0180546001600160a01b0319166001600160a01b039290921691909117905560001901611a52565b5050565b60008082604051602001611af69190612077565b60408051601f19818403018152919052805160209091012060025490915060005b818110156112cb57600060028281548110611b2e57fe5b60009182526020822060059091020101546001600160a01b0316905080611b555750611c04565b806001600160a01b03166395d89b416040518163ffffffff1660e01b815260040160006040518083038186803b158015611b8e57600080fd5b505afa158015611ba2573d6000803e3d6000fd5b505050506040513d6000823e601f3d908101601f19168201604052611bca9190810190611d65565b604051602001611bda9190612077565b60405160208183030381529060405280519060200120841415611c02575092506106e3915050565b505b600101611b17565b6040518060a001604052806005906020820280368337509192915050565b600060208284031215611c3b578081fd5b8135611c4681612115565b9392505050565b60006020808385031215611c5f578182fd5b82356001600160401b0380821115611c75578384fd5b818501915085601f830112611c88578384fd5b813581811115611c9457fe5b8381029150611ca48483016120a1565b8181528481019084860184860187018a1015611cbe578788fd5b8795505b83861015611ce0578035835260019590950194918601918601611cc2565b5098975050505050505050565b600060208284031215611cfe578081fd5b81356001600160401b03811115611d13578182fd5b8201601f81018413611d23578182fd5b8035611d36611d31826120c4565b6120a1565b818152856020838501011115611d4a578384fd5b81602084016020830137908101602001929092525092915050565b600060208284031215611d76578081fd5b81516001600160401b03811115611d8b578182fd5b8201601f81018413611d9b578182fd5b8051611da9611d31826120c4565b818152856020838501011115611dbd578384fd5b611dce8260208301602086016120e5565b95945050505050565b600060208284031215611de8578081fd5b5035919050565b60008060408385031215611e01578081fd5b505080516020909101519092909150565b6000815180845260208085019450808401835b83811015611e4a5781516001600160a01b031687529582019590820190600101611e25565b509495945050505050565b6000815180845260208085018081965082840281019150828601855b85811015611e9b578284038952611e89848351611ed7565b98850198935090840190600101611e71565b5091979650505050505050565b6000815180845260208085019450808401835b83811015611e4a57815187529582019590820190600101611ebb565b60008151808452611eef8160208601602086016120e5565b601f01601f19169290920160200192915050565b6001600160a01b0391909116815260200190565b6020808252825182820181905260009190848201906040850190845b81811015611f585783516001600160a01b031683529284019291840191600101611f33565b50909695505050505050565b60a08101818360005b6005811015611f955781516001600160a01b0316835260209283019290910190600101611f6d565b50505092915050565b600060208252611c466020830184611e12565b600060208252611c466020830184611e55565b600060408252611fd76040830185611e55565b8281036020840152611dce8185611e12565b600060208252611c466020830184611ea8565b600060408252611fd76040830185611ea8565b6000604082526120226040830185611ea8565b8281036020840152611dce8185611e55565b6000606082526120476060830186611ea8565b82810360208401526120598186611e55565b9050828103604084015261206d8185611e12565b9695505050505050565b600060208252611c466020830184611ed7565b90815260200190565b918252602082015260400190565b6040518181016001600160401b03811182821017156120bc57fe5b604052919050565b60006001600160401b038211156120d757fe5b50601f01601f191660200190565b60005b838110156121005781810151838201526020016120e8565b8381111561210f576000848401525b50505050565b6001600160a01b038116811461130557600080fdfe4654534f20696e646578206e6f7420737570706f727465640000000000000000a2646970667358221220d1f812e478a3bd4375203d7ef0778d5866fb6960f756f24788d30613a03dcdb264736f6c63430007060033",
  "linkReferences": {},
  "deployedLinkReferences": {}
}